{
	"TestCall.sol": {
		"Call": {
			"abi": [
				{
					"inputs": [
						{
							"internalType": "address",
							"name": "_test",
							"type": "address"
						}
					],
					"name": "callDoesNotExit",
					"outputs": [],
					"stateMutability": "nonpayable",
					"type": "function"
				},
				{
					"inputs": [
						{
							"internalType": "address",
							"name": "_test",
							"type": "address"
						}
					],
					"name": "callFoo",
					"outputs": [],
					"stateMutability": "payable",
					"type": "function"
				},
				{
					"inputs": [],
					"name": "data",
					"outputs": [
						{
							"internalType": "bytes",
							"name": "",
							"type": "bytes"
						}
					],
					"stateMutability": "view",
					"type": "function"
				}
			],
			"devdoc": {
				"kind": "dev",
				"methods": {},
				"version": 1
			},
			"evm": {
				"assembly": "    /* \"TestCall.sol\":430:949  contract Call {... */\n  mstore(0x40, 0x80)\n  callvalue\n  dup1\n  iszero\n  tag_1\n  jumpi\n  0x00\n  dup1\n  revert\ntag_1:\n  pop\n  dataSize(sub_0)\n  dup1\n  dataOffset(sub_0)\n  0x00\n  codecopy\n  0x00\n  return\nstop\n\nsub_0: assembly {\n        /* \"TestCall.sol\":430:949  contract Call {... */\n      mstore(0x40, 0x80)\n      jumpi(tag_1, lt(calldatasize, 0x04))\n      shr(0xe0, calldataload(0x00))\n      dup1\n      0x14c3ec88\n      eq\n      tag_2\n      jumpi\n      dup1\n      0x73d4a13a\n      eq\n      tag_3\n      jumpi\n      dup1\n      0xedcbe76c\n      eq\n      tag_4\n      jumpi\n    tag_1:\n      0x00\n      dup1\n      revert\n        /* \"TestCall.sol\":766:946  function callDoesNotExit(address _test) external {... */\n    tag_2:\n      callvalue\n      dup1\n      iszero\n      tag_5\n      jumpi\n      0x00\n      dup1\n      revert\n    tag_5:\n      pop\n      tag_6\n      0x04\n      dup1\n      calldatasize\n      sub\n      dup2\n      add\n      swap1\n      tag_7\n      swap2\n      swap1\n      tag_8\n      jump\t// in\n    tag_7:\n      tag_9\n      jump\t// in\n    tag_6:\n      stop\n        /* \"TestCall.sol\":451:468  bytes public data */\n    tag_3:\n      callvalue\n      dup1\n      iszero\n      tag_10\n      jumpi\n      0x00\n      dup1\n      revert\n    tag_10:\n      pop\n      tag_11\n      tag_12\n      jump\t// in\n    tag_11:\n      mload(0x40)\n      tag_13\n      swap2\n      swap1\n      tag_14\n      jump\t// in\n    tag_13:\n      mload(0x40)\n      dup1\n      swap2\n      sub\n      swap1\n      return\n        /* \"TestCall.sol\":477:758  function callFoo(address _test) external payable{... */\n    tag_4:\n      tag_15\n      0x04\n      dup1\n      calldatasize\n      sub\n      dup2\n      add\n      swap1\n      tag_16\n      swap2\n      swap1\n      tag_8\n      jump\t// in\n    tag_16:\n      tag_17\n      jump\t// in\n    tag_15:\n      stop\n        /* \"TestCall.sol\":766:946  function callDoesNotExit(address _test) external {... */\n    tag_9:\n        /* \"TestCall.sol\":827:839  bool success */\n      0x00\n        /* \"TestCall.sol\":845:850  _test */\n      dup2\n        /* \"TestCall.sol\":845:855  _test.call */\n      0xffffffffffffffffffffffffffffffffffffffff\n      and\n        /* \"TestCall.sol\":856:896  abi.encodeWithSignature(\"doesNotExit()\") */\n      add(0x24, mload(0x40))\n      mload(0x40)\n      0x20\n      dup2\n      dup4\n      sub\n      sub\n      dup2\n      mstore\n      swap1\n      0x40\n      mstore\n      and(not(0xffffffffffffffffffffffffffffffffffffffffffffffffffffffff), 0xc2113c0500000000000000000000000000000000000000000000000000000000)\n      0x20\n      dup3\n      add\n      dup1\n      mload\n      0xffffffffffffffffffffffffffffffffffffffffffffffffffffffff\n      dup4\n      dup2\n      dup4\n      and\n      or\n      dup4\n      mstore\n      pop\n      pop\n      pop\n      pop\n        /* \"TestCall.sol\":845:897  _test.call(abi.encodeWithSignature(\"doesNotExit()\")) */\n      mload(0x40)\n      tag_19\n      swap2\n      swap1\n      tag_20\n      jump\t// in\n    tag_19:\n      0x00\n      mload(0x40)\n      dup1\n      dup4\n      sub\n      dup2\n      0x00\n      dup7\n      gas\n      call\n      swap2\n      pop\n      pop\n      returndatasize\n      dup1\n      0x00\n      dup2\n      eq\n      tag_23\n      jumpi\n      mload(0x40)\n      swap2\n      pop\n      and(add(returndatasize, 0x3f), not(0x1f))\n      dup3\n      add\n      0x40\n      mstore\n      returndatasize\n      dup3\n      mstore\n      returndatasize\n      0x00\n      0x20\n      dup5\n      add\n      returndatacopy\n      jump(tag_22)\n    tag_23:\n      0x60\n      swap2\n      pop\n    tag_22:\n      pop\n        /* \"TestCall.sol\":826:897  (bool success, ) = _test.call(abi.encodeWithSignature(\"doesNotExit()\")) */\n      pop\n      swap1\n      pop\n        /* \"TestCall.sol\":916:923  success */\n      dup1\n        /* \"TestCall.sol\":908:938  require(success, \"callfailed\") */\n      tag_24\n      jumpi\n      mload(0x40)\n      0x08c379a000000000000000000000000000000000000000000000000000000000\n      dup2\n      mstore\n      0x04\n      add\n      tag_25\n      swap1\n      tag_26\n      jump\t// in\n    tag_25:\n      mload(0x40)\n      dup1\n      swap2\n      sub\n      swap1\n      revert\n    tag_24:\n        /* \"TestCall.sol\":815:946  {... */\n      pop\n        /* \"TestCall.sol\":766:946  function callDoesNotExit(address _test) external {... */\n      pop\n      jump\t// out\n        /* \"TestCall.sol\":451:468  bytes public data */\n    tag_12:\n      0x00\n      dup1\n      sload\n      tag_27\n      swap1\n      tag_28\n      jump\t// in\n    tag_27:\n      dup1\n      0x1f\n      add\n      0x20\n      dup1\n      swap2\n      div\n      mul\n      0x20\n      add\n      mload(0x40)\n      swap1\n      dup2\n      add\n      0x40\n      mstore\n      dup1\n      swap3\n      swap2\n      swap1\n      dup2\n      dup2\n      mstore\n      0x20\n      add\n      dup3\n      dup1\n      sload\n      tag_29\n      swap1\n      tag_28\n      jump\t// in\n    tag_29:\n      dup1\n      iszero\n      tag_30\n      jumpi\n      dup1\n      0x1f\n      lt\n      tag_31\n      jumpi\n      0x0100\n      dup1\n      dup4\n      sload\n      div\n      mul\n      dup4\n      mstore\n      swap2\n      0x20\n      add\n      swap2\n      jump(tag_30)\n    tag_31:\n      dup3\n      add\n      swap2\n      swap1\n      0x00\n      mstore\n      keccak256(0x00, 0x20)\n      swap1\n    tag_32:\n      dup2\n      sload\n      dup2\n      mstore\n      swap1\n      0x01\n      add\n      swap1\n      0x20\n      add\n      dup1\n      dup4\n      gt\n      tag_32\n      jumpi\n      dup3\n      swap1\n      sub\n      0x1f\n      and\n      dup3\n      add\n      swap2\n    tag_30:\n      pop\n      pop\n      pop\n      pop\n      pop\n      dup2\n      jump\t// out\n        /* \"TestCall.sol\":477:758  function callFoo(address _test) external payable{... */\n    tag_17:\n        /* \"TestCall.sol\":537:549  bool success */\n      0x00\n        /* \"TestCall.sol\":551:569  bytes memory _data */\n      dup1\n        /* \"TestCall.sol\":574:579  _test */\n      dup3\n        /* \"TestCall.sol\":574:584  _test.call */\n      0xffffffffffffffffffffffffffffffffffffffff\n      and\n        /* \"TestCall.sol\":592:595  111 */\n      0x6f\n        /* \"TestCall.sol\":670:673  123 */\n      0x7b\n        /* \"TestCall.sol\":597:684  abi.encodeWithSignature(... */\n      add(0x24, mload(0x40))\n      tag_34\n      swap2\n      swap1\n      tag_35\n      jump\t// in\n    tag_34:\n      mload(0x40)\n      0x20\n      dup2\n      dup4\n      sub\n      sub\n      dup2\n      mstore\n      swap1\n      0x40\n      mstore\n      and(not(0xffffffffffffffffffffffffffffffffffffffffffffffffffffffff), 0x24ccab8f00000000000000000000000000000000000000000000000000000000)\n      0x20\n      dup3\n      add\n      dup1\n      mload\n      0xffffffffffffffffffffffffffffffffffffffffffffffffffffffff\n      dup4\n      dup2\n      dup4\n      and\n      or\n      dup4\n      mstore\n      pop\n      pop\n      pop\n      pop\n        /* \"TestCall.sol\":574:685  _test.call{value: 111}(abi.encodeWithSignature(... */\n      mload(0x40)\n      tag_36\n      swap2\n      swap1\n      tag_20\n      jump\t// in\n    tag_36:\n      0x00\n      mload(0x40)\n      dup1\n      dup4\n      sub\n      dup2\n      dup6\n      dup8\n      gas\n      call\n      swap3\n      pop\n      pop\n      pop\n      returndatasize\n      dup1\n      0x00\n      dup2\n      eq\n      tag_39\n      jumpi\n      mload(0x40)\n      swap2\n      pop\n      and(add(returndatasize, 0x3f), not(0x1f))\n      dup3\n      add\n      0x40\n      mstore\n      returndatasize\n      dup3\n      mstore\n      returndatasize\n      0x00\n      0x20\n      dup5\n      add\n      returndatacopy\n      jump(tag_38)\n    tag_39:\n      0x60\n      swap2\n      pop\n    tag_38:\n      pop\n        /* \"TestCall.sol\":536:685  (bool success, bytes memory _data ) = _test.call{value: 111}(abi.encodeWithSignature(... */\n      swap2\n      pop\n      swap2\n      pop\n        /* \"TestCall.sol\":704:711  success */\n      dup2\n        /* \"TestCall.sol\":696:727  require(success, \"call failed\") */\n      tag_40\n      jumpi\n      mload(0x40)\n      0x08c379a000000000000000000000000000000000000000000000000000000000\n      dup2\n      mstore\n      0x04\n      add\n      tag_41\n      swap1\n      tag_42\n      jump\t// in\n    tag_41:\n      mload(0x40)\n      dup1\n      swap2\n      sub\n      swap1\n      revert\n    tag_40:\n        /* \"TestCall.sol\":745:750  _data */\n      dup1\n        /* \"TestCall.sol\":738:742  data */\n      0x00\n        /* \"TestCall.sol\":738:750  data = _data */\n      swap1\n      dup2\n      tag_43\n      swap2\n      swap1\n      tag_44\n      jump\t// in\n    tag_43:\n      pop\n        /* \"TestCall.sol\":525:758  {... */\n      pop\n      pop\n        /* \"TestCall.sol\":477:758  function callFoo(address _test) external payable{... */\n      pop\n      jump\t// out\n        /* \"#utility.yul\":88:205   */\n    tag_46:\n        /* \"#utility.yul\":197:198   */\n      0x00\n        /* \"#utility.yul\":194:195   */\n      dup1\n        /* \"#utility.yul\":187:199   */\n      revert\n        /* \"#utility.yul\":334:460   */\n    tag_48:\n        /* \"#utility.yul\":371:378   */\n      0x00\n        /* \"#utility.yul\":411:453   */\n      0xffffffffffffffffffffffffffffffffffffffff\n        /* \"#utility.yul\":404:409   */\n      dup3\n        /* \"#utility.yul\":400:454   */\n      and\n        /* \"#utility.yul\":389:454   */\n      swap1\n      pop\n        /* \"#utility.yul\":334:460   */\n      swap2\n      swap1\n      pop\n      jump\t// out\n        /* \"#utility.yul\":466:562   */\n    tag_49:\n        /* \"#utility.yul\":503:510   */\n      0x00\n        /* \"#utility.yul\":532:556   */\n      tag_94\n        /* \"#utility.yul\":550:555   */\n      dup3\n        /* \"#utility.yul\":532:556   */\n      tag_48\n      jump\t// in\n    tag_94:\n        /* \"#utility.yul\":521:556   */\n      swap1\n      pop\n        /* \"#utility.yul\":466:562   */\n      swap2\n      swap1\n      pop\n      jump\t// out\n        /* \"#utility.yul\":568:690   */\n    tag_50:\n        /* \"#utility.yul\":641:665   */\n      tag_96\n        /* \"#utility.yul\":659:664   */\n      dup2\n        /* \"#utility.yul\":641:665   */\n      tag_49\n      jump\t// in\n    tag_96:\n        /* \"#utility.yul\":634:639   */\n      dup2\n        /* \"#utility.yul\":631:666   */\n      eq\n        /* \"#utility.yul\":621:684   */\n      tag_97\n      jumpi\n        /* \"#utility.yul\":680:681   */\n      0x00\n        /* \"#utility.yul\":677:678   */\n      dup1\n        /* \"#utility.yul\":670:682   */\n      revert\n        /* \"#utility.yul\":621:684   */\n    tag_97:\n        /* \"#utility.yul\":568:690   */\n      pop\n      jump\t// out\n        /* \"#utility.yul\":696:835   */\n    tag_51:\n        /* \"#utility.yul\":742:747   */\n      0x00\n        /* \"#utility.yul\":780:786   */\n      dup2\n        /* \"#utility.yul\":767:787   */\n      calldataload\n        /* \"#utility.yul\":758:787   */\n      swap1\n      pop\n        /* \"#utility.yul\":796:829   */\n      tag_99\n        /* \"#utility.yul\":823:828   */\n      dup2\n        /* \"#utility.yul\":796:829   */\n      tag_50\n      jump\t// in\n    tag_99:\n        /* \"#utility.yul\":696:835   */\n      swap3\n      swap2\n      pop\n      pop\n      jump\t// out\n        /* \"#utility.yul\":841:1170   */\n    tag_8:\n        /* \"#utility.yul\":900:906   */\n      0x00\n        /* \"#utility.yul\":949:951   */\n      0x20\n        /* \"#utility.yul\":937:946   */\n      dup3\n        /* \"#utility.yul\":928:935   */\n      dup5\n        /* \"#utility.yul\":924:947   */\n      sub\n        /* \"#utility.yul\":920:952   */\n      slt\n        /* \"#utility.yul\":917:1036   */\n      iszero\n      tag_101\n      jumpi\n        /* \"#utility.yul\":955:1034   */\n      tag_102\n      tag_46\n      jump\t// in\n    tag_102:\n        /* \"#utility.yul\":917:1036   */\n    tag_101:\n        /* \"#utility.yul\":1075:1076   */\n      0x00\n        /* \"#utility.yul\":1100:1153   */\n      tag_103\n        /* \"#utility.yul\":1145:1152   */\n      dup5\n        /* \"#utility.yul\":1136:1142   */\n      dup3\n        /* \"#utility.yul\":1125:1134   */\n      dup6\n        /* \"#utility.yul\":1121:1143   */\n      add\n        /* \"#utility.yul\":1100:1153   */\n      tag_51\n      jump\t// in\n    tag_103:\n        /* \"#utility.yul\":1090:1153   */\n      swap2\n      pop\n        /* \"#utility.yul\":1046:1163   */\n      pop\n        /* \"#utility.yul\":841:1170   */\n      swap3\n      swap2\n      pop\n      pop\n      jump\t// out\n        /* \"#utility.yul\":1176:1274   */\n    tag_52:\n        /* \"#utility.yul\":1227:1233   */\n      0x00\n        /* \"#utility.yul\":1261:1266   */\n      dup2\n        /* \"#utility.yul\":1255:1267   */\n      mload\n        /* \"#utility.yul\":1245:1267   */\n      swap1\n      pop\n        /* \"#utility.yul\":1176:1274   */\n      swap2\n      swap1\n      pop\n      jump\t// out\n        /* \"#utility.yul\":1280:1448   */\n    tag_53:\n        /* \"#utility.yul\":1363:1374   */\n      0x00\n        /* \"#utility.yul\":1397:1403   */\n      dup3\n        /* \"#utility.yul\":1392:1395   */\n      dup3\n        /* \"#utility.yul\":1385:1404   */\n      mstore\n        /* \"#utility.yul\":1437:1441   */\n      0x20\n        /* \"#utility.yul\":1432:1435   */\n      dup3\n        /* \"#utility.yul\":1428:1442   */\n      add\n        /* \"#utility.yul\":1413:1442   */\n      swap1\n      pop\n        /* \"#utility.yul\":1280:1448   */\n      swap3\n      swap2\n      pop\n      pop\n      jump\t// out\n        /* \"#utility.yul\":1454:1700   */\n    tag_54:\n        /* \"#utility.yul\":1535:1536   */\n      0x00\n        /* \"#utility.yul\":1545:1658   */\n    tag_107:\n        /* \"#utility.yul\":1559:1565   */\n      dup4\n        /* \"#utility.yul\":1556:1557   */\n      dup2\n        /* \"#utility.yul\":1553:1566   */\n      lt\n        /* \"#utility.yul\":1545:1658   */\n      iszero\n      tag_109\n      jumpi\n        /* \"#utility.yul\":1644:1645   */\n      dup1\n        /* \"#utility.yul\":1639:1642   */\n      dup3\n        /* \"#utility.yul\":1635:1646   */\n      add\n        /* \"#utility.yul\":1629:1647   */\n      mload\n        /* \"#utility.yul\":1625:1626   */\n      dup2\n        /* \"#utility.yul\":1620:1623   */\n      dup5\n        /* \"#utility.yul\":1616:1627   */\n      add\n        /* \"#utility.yul\":1609:1648   */\n      mstore\n        /* \"#utility.yul\":1581:1583   */\n      0x20\n        /* \"#utility.yul\":1578:1579   */\n      dup2\n        /* \"#utility.yul\":1574:1584   */\n      add\n        /* \"#utility.yul\":1569:1584   */\n      swap1\n      pop\n        /* \"#utility.yul\":1545:1658   */\n      jump(tag_107)\n    tag_109:\n        /* \"#utility.yul\":1692:1693   */\n      0x00\n        /* \"#utility.yul\":1683:1689   */\n      dup5\n        /* \"#utility.yul\":1678:1681   */\n      dup5\n        /* \"#utility.yul\":1674:1690   */\n      add\n        /* \"#utility.yul\":1667:1694   */\n      mstore\n        /* \"#utility.yul\":1516:1700   */\n      pop\n        /* \"#utility.yul\":1454:1700   */\n      pop\n      pop\n      pop\n      jump\t// out\n        /* \"#utility.yul\":1706:1808   */\n    tag_55:\n        /* \"#utility.yul\":1747:1753   */\n      0x00\n        /* \"#utility.yul\":1798:1800   */\n      0x1f\n        /* \"#utility.yul\":1794:1801   */\n      not\n        /* \"#utility.yul\":1789:1791   */\n      0x1f\n        /* \"#utility.yul\":1782:1787   */\n      dup4\n        /* \"#utility.yul\":1778:1792   */\n      add\n        /* \"#utility.yul\":1774:1802   */\n      and\n        /* \"#utility.yul\":1764:1802   */\n      swap1\n      pop\n        /* \"#utility.yul\":1706:1808   */\n      swap2\n      swap1\n      pop\n      jump\t// out\n        /* \"#utility.yul\":1814:2187   */\n    tag_56:\n        /* \"#utility.yul\":1900:1903   */\n      0x00\n        /* \"#utility.yul\":1928:1966   */\n      tag_112\n        /* \"#utility.yul\":1960:1965   */\n      dup3\n        /* \"#utility.yul\":1928:1966   */\n      tag_52\n      jump\t// in\n    tag_112:\n        /* \"#utility.yul\":1982:2052   */\n      tag_113\n        /* \"#utility.yul\":2045:2051   */\n      dup2\n        /* \"#utility.yul\":2040:2043   */\n      dup6\n        /* \"#utility.yul\":1982:2052   */\n      tag_53\n      jump\t// in\n    tag_113:\n        /* \"#utility.yul\":1975:2052   */\n      swap4\n      pop\n        /* \"#utility.yul\":2061:2126   */\n      tag_114\n        /* \"#utility.yul\":2119:2125   */\n      dup2\n        /* \"#utility.yul\":2114:2117   */\n      dup6\n        /* \"#utility.yul\":2107:2111   */\n      0x20\n        /* \"#utility.yul\":2100:2105   */\n      dup7\n        /* \"#utility.yul\":2096:2112   */\n      add\n        /* \"#utility.yul\":2061:2126   */\n      tag_54\n      jump\t// in\n    tag_114:\n        /* \"#utility.yul\":2151:2180   */\n      tag_115\n        /* \"#utility.yul\":2173:2179   */\n      dup2\n        /* \"#utility.yul\":2151:2180   */\n      tag_55\n      jump\t// in\n    tag_115:\n        /* \"#utility.yul\":2146:2149   */\n      dup5\n        /* \"#utility.yul\":2142:2181   */\n      add\n        /* \"#utility.yul\":2135:2181   */\n      swap2\n      pop\n        /* \"#utility.yul\":1904:2187   */\n      pop\n        /* \"#utility.yul\":1814:2187   */\n      swap3\n      swap2\n      pop\n      pop\n      jump\t// out\n        /* \"#utility.yul\":2193:2502   */\n    tag_14:\n        /* \"#utility.yul\":2304:2308   */\n      0x00\n        /* \"#utility.yul\":2342:2344   */\n      0x20\n        /* \"#utility.yul\":2331:2340   */\n      dup3\n        /* \"#utility.yul\":2327:2345   */\n      add\n        /* \"#utility.yul\":2319:2345   */\n      swap1\n      pop\n        /* \"#utility.yul\":2391:2400   */\n      dup2\n        /* \"#utility.yul\":2385:2389   */\n      dup2\n        /* \"#utility.yul\":2381:2401   */\n      sub\n        /* \"#utility.yul\":2377:2378   */\n      0x00\n        /* \"#utility.yul\":2366:2375   */\n      dup4\n        /* \"#utility.yul\":2362:2379   */\n      add\n        /* \"#utility.yul\":2355:2402   */\n      mstore\n        /* \"#utility.yul\":2419:2495   */\n      tag_117\n        /* \"#utility.yul\":2490:2494   */\n      dup2\n        /* \"#utility.yul\":2481:2487   */\n      dup5\n        /* \"#utility.yul\":2419:2495   */\n      tag_56\n      jump\t// in\n    tag_117:\n        /* \"#utility.yul\":2411:2495   */\n      swap1\n      pop\n        /* \"#utility.yul\":2193:2502   */\n      swap3\n      swap2\n      pop\n      pop\n      jump\t// out\n        /* \"#utility.yul\":2508:2655   */\n    tag_57:\n        /* \"#utility.yul\":2609:2620   */\n      0x00\n        /* \"#utility.yul\":2646:2649   */\n      dup2\n        /* \"#utility.yul\":2631:2649   */\n      swap1\n      pop\n        /* \"#utility.yul\":2508:2655   */\n      swap3\n      swap2\n      pop\n      pop\n      jump\t// out\n        /* \"#utility.yul\":2661:3047   */\n    tag_58:\n        /* \"#utility.yul\":2765:2768   */\n      0x00\n        /* \"#utility.yul\":2793:2831   */\n      tag_120\n        /* \"#utility.yul\":2825:2830   */\n      dup3\n        /* \"#utility.yul\":2793:2831   */\n      tag_52\n      jump\t// in\n    tag_120:\n        /* \"#utility.yul\":2847:2935   */\n      tag_121\n        /* \"#utility.yul\":2928:2934   */\n      dup2\n        /* \"#utility.yul\":2923:2926   */\n      dup6\n        /* \"#utility.yul\":2847:2935   */\n      tag_57\n      jump\t// in\n    tag_121:\n        /* \"#utility.yul\":2840:2935   */\n      swap4\n      pop\n        /* \"#utility.yul\":2944:3009   */\n      tag_122\n        /* \"#utility.yul\":3002:3008   */\n      dup2\n        /* \"#utility.yul\":2997:3000   */\n      dup6\n        /* \"#utility.yul\":2990:2994   */\n      0x20\n        /* \"#utility.yul\":2983:2988   */\n      dup7\n        /* \"#utility.yul\":2979:2995   */\n      add\n        /* \"#utility.yul\":2944:3009   */\n      tag_54\n      jump\t// in\n    tag_122:\n        /* \"#utility.yul\":3034:3040   */\n      dup1\n        /* \"#utility.yul\":3029:3032   */\n      dup5\n        /* \"#utility.yul\":3025:3041   */\n      add\n        /* \"#utility.yul\":3018:3041   */\n      swap2\n      pop\n        /* \"#utility.yul\":2769:3047   */\n      pop\n        /* \"#utility.yul\":2661:3047   */\n      swap3\n      swap2\n      pop\n      pop\n      jump\t// out\n        /* \"#utility.yul\":3053:3324   */\n    tag_20:\n        /* \"#utility.yul\":3183:3186   */\n      0x00\n        /* \"#utility.yul\":3205:3298   */\n      tag_124\n        /* \"#utility.yul\":3294:3297   */\n      dup3\n        /* \"#utility.yul\":3285:3291   */\n      dup5\n        /* \"#utility.yul\":3205:3298   */\n      tag_58\n      jump\t// in\n    tag_124:\n        /* \"#utility.yul\":3198:3298   */\n      swap2\n      pop\n        /* \"#utility.yul\":3315:3318   */\n      dup2\n        /* \"#utility.yul\":3308:3318   */\n      swap1\n      pop\n        /* \"#utility.yul\":3053:3324   */\n      swap3\n      swap2\n      pop\n      pop\n      jump\t// out\n        /* \"#utility.yul\":3330:3499   */\n    tag_59:\n        /* \"#utility.yul\":3414:3425   */\n      0x00\n        /* \"#utility.yul\":3448:3454   */\n      dup3\n        /* \"#utility.yul\":3443:3446   */\n      dup3\n        /* \"#utility.yul\":3436:3455   */\n      mstore\n        /* \"#utility.yul\":3488:3492   */\n      0x20\n        /* \"#utility.yul\":3483:3486   */\n      dup3\n        /* \"#utility.yul\":3479:3493   */\n      add\n        /* \"#utility.yul\":3464:3493   */\n      swap1\n      pop\n        /* \"#utility.yul\":3330:3499   */\n      swap3\n      swap2\n      pop\n      pop\n      jump\t// out\n        /* \"#utility.yul\":3505:3665   */\n    tag_60:\n        /* \"#utility.yul\":3645:3657   */\n      0x63616c6c6661696c656400000000000000000000000000000000000000000000\n        /* \"#utility.yul\":3641:3642   */\n      0x00\n        /* \"#utility.yul\":3633:3639   */\n      dup3\n        /* \"#utility.yul\":3629:3643   */\n      add\n        /* \"#utility.yul\":3622:3658   */\n      mstore\n        /* \"#utility.yul\":3505:3665   */\n      pop\n      jump\t// out\n        /* \"#utility.yul\":3671:4037   */\n    tag_61:\n        /* \"#utility.yul\":3813:3816   */\n      0x00\n        /* \"#utility.yul\":3834:3901   */\n      tag_128\n        /* \"#utility.yul\":3898:3900   */\n      0x0a\n        /* \"#utility.yul\":3893:3896   */\n      dup4\n        /* \"#utility.yul\":3834:3901   */\n      tag_59\n      jump\t// in\n    tag_128:\n        /* \"#utility.yul\":3827:3901   */\n      swap2\n      pop\n        /* \"#utility.yul\":3910:4003   */\n      tag_129\n        /* \"#utility.yul\":3999:4002   */\n      dup3\n        /* \"#utility.yul\":3910:4003   */\n      tag_60\n      jump\t// in\n    tag_129:\n        /* \"#utility.yul\":4028:4030   */\n      0x20\n        /* \"#utility.yul\":4023:4026   */\n      dup3\n        /* \"#utility.yul\":4019:4031   */\n      add\n        /* \"#utility.yul\":4012:4031   */\n      swap1\n      pop\n        /* \"#utility.yul\":3671:4037   */\n      swap2\n      swap1\n      pop\n      jump\t// out\n        /* \"#utility.yul\":4043:4462   */\n    tag_26:\n        /* \"#utility.yul\":4209:4213   */\n      0x00\n        /* \"#utility.yul\":4247:4249   */\n      0x20\n        /* \"#utility.yul\":4236:4245   */\n      dup3\n        /* \"#utility.yul\":4232:4250   */\n      add\n        /* \"#utility.yul\":4224:4250   */\n      swap1\n      pop\n        /* \"#utility.yul\":4296:4305   */\n      dup2\n        /* \"#utility.yul\":4290:4294   */\n      dup2\n        /* \"#utility.yul\":4286:4306   */\n      sub\n        /* \"#utility.yul\":4282:4283   */\n      0x00\n        /* \"#utility.yul\":4271:4280   */\n      dup4\n        /* \"#utility.yul\":4267:4284   */\n      add\n        /* \"#utility.yul\":4260:4307   */\n      mstore\n        /* \"#utility.yul\":4324:4455   */\n      tag_131\n        /* \"#utility.yul\":4450:4454   */\n      dup2\n        /* \"#utility.yul\":4324:4455   */\n      tag_61\n      jump\t// in\n    tag_131:\n        /* \"#utility.yul\":4316:4455   */\n      swap1\n      pop\n        /* \"#utility.yul\":4043:4462   */\n      swap2\n      swap1\n      pop\n      jump\t// out\n        /* \"#utility.yul\":4468:4648   */\n    tag_62:\n        /* \"#utility.yul\":4516:4593   */\n      0x4e487b7100000000000000000000000000000000000000000000000000000000\n        /* \"#utility.yul\":4513:4514   */\n      0x00\n        /* \"#utility.yul\":4506:4594   */\n      mstore\n        /* \"#utility.yul\":4613:4617   */\n      0x22\n        /* \"#utility.yul\":4610:4611   */\n      0x04\n        /* \"#utility.yul\":4603:4618   */\n      mstore\n        /* \"#utility.yul\":4637:4641   */\n      0x24\n        /* \"#utility.yul\":4634:4635   */\n      0x00\n        /* \"#utility.yul\":4627:4642   */\n      revert\n        /* \"#utility.yul\":4654:4974   */\n    tag_28:\n        /* \"#utility.yul\":4698:4704   */\n      0x00\n        /* \"#utility.yul\":4735:4736   */\n      0x02\n        /* \"#utility.yul\":4729:4733   */\n      dup3\n        /* \"#utility.yul\":4725:4737   */\n      div\n        /* \"#utility.yul\":4715:4737   */\n      swap1\n      pop\n        /* \"#utility.yul\":4782:4783   */\n      0x01\n        /* \"#utility.yul\":4776:4780   */\n      dup3\n        /* \"#utility.yul\":4772:4784   */\n      and\n        /* \"#utility.yul\":4803:4821   */\n      dup1\n        /* \"#utility.yul\":4793:4874   */\n      tag_134\n      jumpi\n        /* \"#utility.yul\":4859:4863   */\n      0x7f\n        /* \"#utility.yul\":4851:4857   */\n      dup3\n        /* \"#utility.yul\":4847:4864   */\n      and\n        /* \"#utility.yul\":4837:4864   */\n      swap2\n      pop\n        /* \"#utility.yul\":4793:4874   */\n    tag_134:\n        /* \"#utility.yul\":4921:4923   */\n      0x20\n        /* \"#utility.yul\":4913:4919   */\n      dup3\n        /* \"#utility.yul\":4910:4924   */\n      lt\n        /* \"#utility.yul\":4890:4908   */\n      dup2\n        /* \"#utility.yul\":4887:4925   */\n      sub\n        /* \"#utility.yul\":4884:4968   */\n      tag_135\n      jumpi\n        /* \"#utility.yul\":4940:4958   */\n      tag_136\n      tag_62\n      jump\t// in\n    tag_136:\n        /* \"#utility.yul\":4884:4968   */\n    tag_135:\n        /* \"#utility.yul\":4705:4974   */\n      pop\n        /* \"#utility.yul\":4654:4974   */\n      swap2\n      swap1\n      pop\n      jump\t// out\n        /* \"#utility.yul\":4980:5138   */\n    tag_63:\n        /* \"#utility.yul\":5120:5130   */\n      0x63616c6c20666f6f000000000000000000000000000000000000000000000000\n        /* \"#utility.yul\":5116:5117   */\n      0x00\n        /* \"#utility.yul\":5108:5114   */\n      dup3\n        /* \"#utility.yul\":5104:5118   */\n      add\n        /* \"#utility.yul\":5097:5131   */\n      mstore\n        /* \"#utility.yul\":4980:5138   */\n      pop\n      jump\t// out\n        /* \"#utility.yul\":5144:5509   */\n    tag_64:\n        /* \"#utility.yul\":5286:5289   */\n      0x00\n        /* \"#utility.yul\":5307:5373   */\n      tag_139\n        /* \"#utility.yul\":5371:5372   */\n      0x08\n        /* \"#utility.yul\":5366:5369   */\n      dup4\n        /* \"#utility.yul\":5307:5373   */\n      tag_59\n      jump\t// in\n    tag_139:\n        /* \"#utility.yul\":5300:5373   */\n      swap2\n      pop\n        /* \"#utility.yul\":5382:5475   */\n      tag_140\n        /* \"#utility.yul\":5471:5474   */\n      dup3\n        /* \"#utility.yul\":5382:5475   */\n      tag_63\n      jump\t// in\n    tag_140:\n        /* \"#utility.yul\":5500:5502   */\n      0x20\n        /* \"#utility.yul\":5495:5498   */\n      dup3\n        /* \"#utility.yul\":5491:5503   */\n      add\n        /* \"#utility.yul\":5484:5503   */\n      swap1\n      pop\n        /* \"#utility.yul\":5144:5509   */\n      swap2\n      swap1\n      pop\n      jump\t// out\n        /* \"#utility.yul\":5515:5602   */\n    tag_65:\n        /* \"#utility.yul\":5562:5569   */\n      0x00\n        /* \"#utility.yul\":5591:5596   */\n      dup2\n        /* \"#utility.yul\":5580:5596   */\n      swap1\n      pop\n        /* \"#utility.yul\":5515:5602   */\n      swap2\n      swap1\n      pop\n      jump\t// out\n        /* \"#utility.yul\":5608:5694   */\n    tag_66:\n        /* \"#utility.yul\":5643:5650   */\n      0x00\n        /* \"#utility.yul\":5683:5687   */\n      0xff\n        /* \"#utility.yul\":5676:5681   */\n      dup3\n        /* \"#utility.yul\":5672:5688   */\n      and\n        /* \"#utility.yul\":5661:5688   */\n      swap1\n      pop\n        /* \"#utility.yul\":5608:5694   */\n      swap2\n      swap1\n      pop\n      jump\t// out\n        /* \"#utility.yul\":5700:5760   */\n    tag_67:\n        /* \"#utility.yul\":5728:5731   */\n      0x00\n        /* \"#utility.yul\":5749:5754   */\n      dup2\n        /* \"#utility.yul\":5742:5754   */\n      swap1\n      pop\n        /* \"#utility.yul\":5700:5760   */\n      swap2\n      swap1\n      pop\n      jump\t// out\n        /* \"#utility.yul\":5766:5924   */\n    tag_68:\n        /* \"#utility.yul\":5824:5833   */\n      0x00\n        /* \"#utility.yul\":5857:5918   */\n      tag_145\n        /* \"#utility.yul\":5873:5917   */\n      tag_146\n        /* \"#utility.yul\":5882:5916   */\n      tag_147\n        /* \"#utility.yul\":5910:5915   */\n      dup5\n        /* \"#utility.yul\":5882:5916   */\n      tag_65\n      jump\t// in\n    tag_147:\n        /* \"#utility.yul\":5873:5917   */\n      tag_67\n      jump\t// in\n    tag_146:\n        /* \"#utility.yul\":5857:5918   */\n      tag_66\n      jump\t// in\n    tag_145:\n        /* \"#utility.yul\":5844:5918   */\n      swap1\n      pop\n        /* \"#utility.yul\":5766:5924   */\n      swap2\n      swap1\n      pop\n      jump\t// out\n        /* \"#utility.yul\":5930:6077   */\n    tag_69:\n        /* \"#utility.yul\":6025:6070   */\n      tag_149\n        /* \"#utility.yul\":6064:6069   */\n      dup2\n        /* \"#utility.yul\":6025:6070   */\n      tag_68\n      jump\t// in\n    tag_149:\n        /* \"#utility.yul\":6020:6023   */\n      dup3\n        /* \"#utility.yul\":6013:6071   */\n      mstore\n        /* \"#utility.yul\":5930:6077   */\n      pop\n      pop\n      jump\t// out\n        /* \"#utility.yul\":6083:6628   */\n    tag_35:\n        /* \"#utility.yul\":6285:6289   */\n      0x00\n        /* \"#utility.yul\":6323:6325   */\n      0x40\n        /* \"#utility.yul\":6312:6321   */\n      dup3\n        /* \"#utility.yul\":6308:6326   */\n      add\n        /* \"#utility.yul\":6300:6326   */\n      swap1\n      pop\n        /* \"#utility.yul\":6372:6381   */\n      dup2\n        /* \"#utility.yul\":6366:6370   */\n      dup2\n        /* \"#utility.yul\":6362:6382   */\n      sub\n        /* \"#utility.yul\":6358:6359   */\n      0x00\n        /* \"#utility.yul\":6347:6356   */\n      dup4\n        /* \"#utility.yul\":6343:6360   */\n      add\n        /* \"#utility.yul\":6336:6383   */\n      mstore\n        /* \"#utility.yul\":6400:6531   */\n      tag_151\n        /* \"#utility.yul\":6526:6530   */\n      dup2\n        /* \"#utility.yul\":6400:6531   */\n      tag_64\n      jump\t// in\n    tag_151:\n        /* \"#utility.yul\":6392:6531   */\n      swap1\n      pop\n        /* \"#utility.yul\":6541:6621   */\n      tag_152\n        /* \"#utility.yul\":6617:6619   */\n      0x20\n        /* \"#utility.yul\":6606:6615   */\n      dup4\n        /* \"#utility.yul\":6602:6620   */\n      add\n        /* \"#utility.yul\":6593:6599   */\n      dup5\n        /* \"#utility.yul\":6541:6621   */\n      tag_69\n      jump\t// in\n    tag_152:\n        /* \"#utility.yul\":6083:6628   */\n      swap3\n      swap2\n      pop\n      pop\n      jump\t// out\n        /* \"#utility.yul\":6634:6795   */\n    tag_70:\n        /* \"#utility.yul\":6774:6787   */\n      0x63616c6c206661696c6564000000000000000000000000000000000000000000\n        /* \"#utility.yul\":6770:6771   */\n      0x00\n        /* \"#utility.yul\":6762:6768   */\n      dup3\n        /* \"#utility.yul\":6758:6772   */\n      add\n        /* \"#utility.yul\":6751:6788   */\n      mstore\n        /* \"#utility.yul\":6634:6795   */\n      pop\n      jump\t// out\n        /* \"#utility.yul\":6801:7167   */\n    tag_71:\n        /* \"#utility.yul\":6943:6946   */\n      0x00\n        /* \"#utility.yul\":6964:7031   */\n      tag_155\n        /* \"#utility.yul\":7028:7030   */\n      0x0b\n        /* \"#utility.yul\":7023:7026   */\n      dup4\n        /* \"#utility.yul\":6964:7031   */\n      tag_59\n      jump\t// in\n    tag_155:\n        /* \"#utility.yul\":6957:7031   */\n      swap2\n      pop\n        /* \"#utility.yul\":7040:7133   */\n      tag_156\n        /* \"#utility.yul\":7129:7132   */\n      dup3\n        /* \"#utility.yul\":7040:7133   */\n      tag_70\n      jump\t// in\n    tag_156:\n        /* \"#utility.yul\":7158:7160   */\n      0x20\n        /* \"#utility.yul\":7153:7156   */\n      dup3\n        /* \"#utility.yul\":7149:7161   */\n      add\n        /* \"#utility.yul\":7142:7161   */\n      swap1\n      pop\n        /* \"#utility.yul\":6801:7167   */\n      swap2\n      swap1\n      pop\n      jump\t// out\n        /* \"#utility.yul\":7173:7592   */\n    tag_42:\n        /* \"#utility.yul\":7339:7343   */\n      0x00\n        /* \"#utility.yul\":7377:7379   */\n      0x20\n        /* \"#utility.yul\":7366:7375   */\n      dup3\n        /* \"#utility.yul\":7362:7380   */\n      add\n        /* \"#utility.yul\":7354:7380   */\n      swap1\n      pop\n        /* \"#utility.yul\":7426:7435   */\n      dup2\n        /* \"#utility.yul\":7420:7424   */\n      dup2\n        /* \"#utility.yul\":7416:7436   */\n      sub\n        /* \"#utility.yul\":7412:7413   */\n      0x00\n        /* \"#utility.yul\":7401:7410   */\n      dup4\n        /* \"#utility.yul\":7397:7414   */\n      add\n        /* \"#utility.yul\":7390:7437   */\n      mstore\n        /* \"#utility.yul\":7454:7585   */\n      tag_158\n        /* \"#utility.yul\":7580:7584   */\n      dup2\n        /* \"#utility.yul\":7454:7585   */\n      tag_71\n      jump\t// in\n    tag_158:\n        /* \"#utility.yul\":7446:7585   */\n      swap1\n      pop\n        /* \"#utility.yul\":7173:7592   */\n      swap2\n      swap1\n      pop\n      jump\t// out\n        /* \"#utility.yul\":7598:7778   */\n    tag_72:\n        /* \"#utility.yul\":7646:7723   */\n      0x4e487b7100000000000000000000000000000000000000000000000000000000\n        /* \"#utility.yul\":7643:7644   */\n      0x00\n        /* \"#utility.yul\":7636:7724   */\n      mstore\n        /* \"#utility.yul\":7743:7747   */\n      0x41\n        /* \"#utility.yul\":7740:7741   */\n      0x04\n        /* \"#utility.yul\":7733:7748   */\n      mstore\n        /* \"#utility.yul\":7767:7771   */\n      0x24\n        /* \"#utility.yul\":7764:7765   */\n      0x00\n        /* \"#utility.yul\":7757:7772   */\n      revert\n        /* \"#utility.yul\":7784:7924   */\n    tag_73:\n        /* \"#utility.yul\":7832:7836   */\n      0x00\n        /* \"#utility.yul\":7855:7858   */\n      dup2\n        /* \"#utility.yul\":7847:7858   */\n      swap1\n      pop\n        /* \"#utility.yul\":7878:7881   */\n      dup2\n        /* \"#utility.yul\":7875:7876   */\n      0x00\n        /* \"#utility.yul\":7868:7882   */\n      mstore\n        /* \"#utility.yul\":7912:7916   */\n      0x20\n        /* \"#utility.yul\":7909:7910   */\n      0x00\n        /* \"#utility.yul\":7899:7917   */\n      keccak256\n        /* \"#utility.yul\":7891:7917   */\n      swap1\n      pop\n        /* \"#utility.yul\":7784:7924   */\n      swap2\n      swap1\n      pop\n      jump\t// out\n        /* \"#utility.yul\":7930:8023   */\n    tag_74:\n        /* \"#utility.yul\":7967:7973   */\n      0x00\n        /* \"#utility.yul\":8014:8016   */\n      0x20\n        /* \"#utility.yul\":8009:8011   */\n      0x1f\n        /* \"#utility.yul\":8002:8007   */\n      dup4\n        /* \"#utility.yul\":7998:8012   */\n      add\n        /* \"#utility.yul\":7994:8017   */\n      div\n        /* \"#utility.yul\":7984:8017   */\n      swap1\n      pop\n        /* \"#utility.yul\":7930:8023   */\n      swap2\n      swap1\n      pop\n      jump\t// out\n        /* \"#utility.yul\":8029:8136   */\n    tag_75:\n        /* \"#utility.yul\":8073:8081   */\n      0x00\n        /* \"#utility.yul\":8123:8128   */\n      dup3\n        /* \"#utility.yul\":8117:8121   */\n      dup3\n        /* \"#utility.yul\":8113:8129   */\n      shl\n        /* \"#utility.yul\":8092:8129   */\n      swap1\n      pop\n        /* \"#utility.yul\":8029:8136   */\n      swap3\n      swap2\n      pop\n      pop\n      jump\t// out\n        /* \"#utility.yul\":8142:8535   */\n    tag_76:\n        /* \"#utility.yul\":8211:8217   */\n      0x00\n        /* \"#utility.yul\":8261:8262   */\n      0x08\n        /* \"#utility.yul\":8249:8259   */\n      dup4\n        /* \"#utility.yul\":8245:8263   */\n      mul\n        /* \"#utility.yul\":8284:8381   */\n      tag_164\n        /* \"#utility.yul\":8314:8380   */\n      0xffffffffffffffffffffffffffffffffffffffffffffffffffffffffffffffff\n        /* \"#utility.yul\":8303:8312   */\n      dup3\n        /* \"#utility.yul\":8284:8381   */\n      tag_75\n      jump\t// in\n    tag_164:\n        /* \"#utility.yul\":8402:8441   */\n      tag_165\n        /* \"#utility.yul\":8432:8440   */\n      dup7\n        /* \"#utility.yul\":8421:8430   */\n      dup4\n        /* \"#utility.yul\":8402:8441   */\n      tag_75\n      jump\t// in\n    tag_165:\n        /* \"#utility.yul\":8390:8441   */\n      swap6\n      pop\n        /* \"#utility.yul\":8474:8478   */\n      dup1\n        /* \"#utility.yul\":8470:8479   */\n      not\n        /* \"#utility.yul\":8463:8468   */\n      dup5\n        /* \"#utility.yul\":8459:8480   */\n      and\n        /* \"#utility.yul\":8450:8480   */\n      swap4\n      pop\n        /* \"#utility.yul\":8523:8527   */\n      dup1\n        /* \"#utility.yul\":8513:8521   */\n      dup7\n        /* \"#utility.yul\":8509:8528   */\n      and\n        /* \"#utility.yul\":8502:8507   */\n      dup5\n        /* \"#utility.yul\":8499:8529   */\n      or\n        /* \"#utility.yul\":8489:8529   */\n      swap3\n      pop\n        /* \"#utility.yul\":8218:8535   */\n      pop\n      pop\n        /* \"#utility.yul\":8142:8535   */\n      swap4\n      swap3\n      pop\n      pop\n      pop\n      jump\t// out\n        /* \"#utility.yul\":8541:8618   */\n    tag_77:\n        /* \"#utility.yul\":8578:8585   */\n      0x00\n        /* \"#utility.yul\":8607:8612   */\n      dup2\n        /* \"#utility.yul\":8596:8612   */\n      swap1\n      pop\n        /* \"#utility.yul\":8541:8618   */\n      swap2\n      swap1\n      pop\n      jump\t// out\n        /* \"#utility.yul\":8624:8766   */\n    tag_78:\n        /* \"#utility.yul\":8674:8683   */\n      0x00\n        /* \"#utility.yul\":8707:8760   */\n      tag_168\n        /* \"#utility.yul\":8725:8759   */\n      tag_169\n        /* \"#utility.yul\":8734:8758   */\n      tag_170\n        /* \"#utility.yul\":8752:8757   */\n      dup5\n        /* \"#utility.yul\":8734:8758   */\n      tag_77\n      jump\t// in\n    tag_170:\n        /* \"#utility.yul\":8725:8759   */\n      tag_67\n      jump\t// in\n    tag_169:\n        /* \"#utility.yul\":8707:8760   */\n      tag_77\n      jump\t// in\n    tag_168:\n        /* \"#utility.yul\":8694:8760   */\n      swap1\n      pop\n        /* \"#utility.yul\":8624:8766   */\n      swap2\n      swap1\n      pop\n      jump\t// out\n        /* \"#utility.yul\":8772:8847   */\n    tag_79:\n        /* \"#utility.yul\":8815:8818   */\n      0x00\n        /* \"#utility.yul\":8836:8841   */\n      dup2\n        /* \"#utility.yul\":8829:8841   */\n      swap1\n      pop\n        /* \"#utility.yul\":8772:8847   */\n      swap2\n      swap1\n      pop\n      jump\t// out\n        /* \"#utility.yul\":8853:9122   */\n    tag_80:\n        /* \"#utility.yul\":8963:9002   */\n      tag_173\n        /* \"#utility.yul\":8994:9001   */\n      dup4\n        /* \"#utility.yul\":8963:9002   */\n      tag_78\n      jump\t// in\n    tag_173:\n        /* \"#utility.yul\":9024:9115   */\n      tag_174\n        /* \"#utility.yul\":9073:9114   */\n      tag_175\n        /* \"#utility.yul\":9097:9113   */\n      dup3\n        /* \"#utility.yul\":9073:9114   */\n      tag_79\n      jump\t// in\n    tag_175:\n        /* \"#utility.yul\":9065:9071   */\n      dup5\n        /* \"#utility.yul\":9058:9062   */\n      dup5\n        /* \"#utility.yul\":9052:9063   */\n      sload\n        /* \"#utility.yul\":9024:9115   */\n      tag_76\n      jump\t// in\n    tag_174:\n        /* \"#utility.yul\":9018:9022   */\n      dup3\n        /* \"#utility.yul\":9011:9116   */\n      sstore\n        /* \"#utility.yul\":8929:9122   */\n      pop\n        /* \"#utility.yul\":8853:9122   */\n      pop\n      pop\n      pop\n      jump\t// out\n        /* \"#utility.yul\":9128:9201   */\n    tag_81:\n        /* \"#utility.yul\":9173:9176   */\n      0x00\n        /* \"#utility.yul\":9128:9201   */\n      swap1\n      jump\t// out\n        /* \"#utility.yul\":9207:9396   */\n    tag_82:\n        /* \"#utility.yul\":9284:9316   */\n      tag_178\n      tag_81\n      jump\t// in\n    tag_178:\n        /* \"#utility.yul\":9325:9390   */\n      tag_179\n        /* \"#utility.yul\":9383:9389   */\n      dup2\n        /* \"#utility.yul\":9375:9381   */\n      dup5\n        /* \"#utility.yul\":9369:9373   */\n      dup5\n        /* \"#utility.yul\":9325:9390   */\n      tag_80\n      jump\t// in\n    tag_179:\n        /* \"#utility.yul\":9260:9396   */\n      pop\n        /* \"#utility.yul\":9207:9396   */\n      pop\n      pop\n      jump\t// out\n        /* \"#utility.yul\":9402:9588   */\n    tag_83:\n        /* \"#utility.yul\":9462:9582   */\n    tag_181:\n        /* \"#utility.yul\":9479:9482   */\n      dup2\n        /* \"#utility.yul\":9472:9477   */\n      dup2\n        /* \"#utility.yul\":9469:9483   */\n      lt\n        /* \"#utility.yul\":9462:9582   */\n      iszero\n      tag_183\n      jumpi\n        /* \"#utility.yul\":9533:9572   */\n      tag_184\n        /* \"#utility.yul\":9570:9571   */\n      0x00\n        /* \"#utility.yul\":9563:9568   */\n      dup3\n        /* \"#utility.yul\":9533:9572   */\n      tag_82\n      jump\t// in\n    tag_184:\n        /* \"#utility.yul\":9506:9507   */\n      0x01\n        /* \"#utility.yul\":9499:9504   */\n      dup2\n        /* \"#utility.yul\":9495:9508   */\n      add\n        /* \"#utility.yul\":9486:9508   */\n      swap1\n      pop\n        /* \"#utility.yul\":9462:9582   */\n      jump(tag_181)\n    tag_183:\n        /* \"#utility.yul\":9402:9588   */\n      pop\n      pop\n      jump\t// out\n        /* \"#utility.yul\":9594:10135   */\n    tag_84:\n        /* \"#utility.yul\":9694:9696   */\n      0x1f\n        /* \"#utility.yul\":9689:9692   */\n      dup3\n        /* \"#utility.yul\":9686:9697   */\n      gt\n        /* \"#utility.yul\":9683:10128   */\n      iszero\n      tag_186\n      jumpi\n        /* \"#utility.yul\":9728:9765   */\n      tag_187\n        /* \"#utility.yul\":9759:9764   */\n      dup2\n        /* \"#utility.yul\":9728:9765   */\n      tag_73\n      jump\t// in\n    tag_187:\n        /* \"#utility.yul\":9811:9840   */\n      tag_188\n        /* \"#utility.yul\":9829:9839   */\n      dup5\n        /* \"#utility.yul\":9811:9840   */\n      tag_74\n      jump\t// in\n    tag_188:\n        /* \"#utility.yul\":9801:9809   */\n      dup2\n        /* \"#utility.yul\":9797:9841   */\n      add\n        /* \"#utility.yul\":9994:9996   */\n      0x20\n        /* \"#utility.yul\":9982:9992   */\n      dup6\n        /* \"#utility.yul\":9979:9997   */\n      lt\n        /* \"#utility.yul\":9976:10025   */\n      iszero\n      tag_189\n      jumpi\n        /* \"#utility.yul\":10015:10023   */\n      dup2\n        /* \"#utility.yul\":10000:10023   */\n      swap1\n      pop\n        /* \"#utility.yul\":9976:10025   */\n    tag_189:\n        /* \"#utility.yul\":10038:10118   */\n      tag_190\n        /* \"#utility.yul\":10094:10116   */\n      tag_191\n        /* \"#utility.yul\":10112:10115   */\n      dup6\n        /* \"#utility.yul\":10094:10116   */\n      tag_74\n      jump\t// in\n    tag_191:\n        /* \"#utility.yul\":10084:10092   */\n      dup4\n        /* \"#utility.yul\":10080:10117   */\n      add\n        /* \"#utility.yul\":10067:10078   */\n      dup3\n        /* \"#utility.yul\":10038:10118   */\n      tag_83\n      jump\t// in\n    tag_190:\n        /* \"#utility.yul\":9698:10128   */\n      pop\n      pop\n        /* \"#utility.yul\":9683:10128   */\n    tag_186:\n        /* \"#utility.yul\":9594:10135   */\n      pop\n      pop\n      pop\n      jump\t// out\n        /* \"#utility.yul\":10141:10258   */\n    tag_85:\n        /* \"#utility.yul\":10195:10203   */\n      0x00\n        /* \"#utility.yul\":10245:10250   */\n      dup3\n        /* \"#utility.yul\":10239:10243   */\n      dup3\n        /* \"#utility.yul\":10235:10251   */\n      shr\n        /* \"#utility.yul\":10214:10251   */\n      swap1\n      pop\n        /* \"#utility.yul\":10141:10258   */\n      swap3\n      swap2\n      pop\n      pop\n      jump\t// out\n        /* \"#utility.yul\":10264:10433   */\n    tag_86:\n        /* \"#utility.yul\":10308:10314   */\n      0x00\n        /* \"#utility.yul\":10341:10392   */\n      tag_194\n        /* \"#utility.yul\":10389:10390   */\n      0x00\n        /* \"#utility.yul\":10385:10391   */\n      not\n        /* \"#utility.yul\":10377:10382   */\n      dup5\n        /* \"#utility.yul\":10374:10375   */\n      0x08\n        /* \"#utility.yul\":10370:10383   */\n      mul\n        /* \"#utility.yul\":10341:10392   */\n      tag_85\n      jump\t// in\n    tag_194:\n        /* \"#utility.yul\":10337:10393   */\n      not\n        /* \"#utility.yul\":10422:10426   */\n      dup1\n        /* \"#utility.yul\":10416:10420   */\n      dup4\n        /* \"#utility.yul\":10412:10427   */\n      and\n        /* \"#utility.yul\":10402:10427   */\n      swap2\n      pop\n        /* \"#utility.yul\":10315:10433   */\n      pop\n        /* \"#utility.yul\":10264:10433   */\n      swap3\n      swap2\n      pop\n      pop\n      jump\t// out\n        /* \"#utility.yul\":10438:10733   */\n    tag_87:\n        /* \"#utility.yul\":10514:10518   */\n      0x00\n        /* \"#utility.yul\":10660:10689   */\n      tag_196\n        /* \"#utility.yul\":10685:10688   */\n      dup4\n        /* \"#utility.yul\":10679:10683   */\n      dup4\n        /* \"#utility.yul\":10660:10689   */\n      tag_86\n      jump\t// in\n    tag_196:\n        /* \"#utility.yul\":10652:10689   */\n      swap2\n      pop\n        /* \"#utility.yul\":10722:10725   */\n      dup3\n        /* \"#utility.yul\":10719:10720   */\n      0x02\n        /* \"#utility.yul\":10715:10726   */\n      mul\n        /* \"#utility.yul\":10709:10713   */\n      dup3\n        /* \"#utility.yul\":10706:10727   */\n      or\n        /* \"#utility.yul\":10698:10727   */\n      swap1\n      pop\n        /* \"#utility.yul\":10438:10733   */\n      swap3\n      swap2\n      pop\n      pop\n      jump\t// out\n        /* \"#utility.yul\":10738:12128   */\n    tag_44:\n        /* \"#utility.yul\":10853:10889   */\n      tag_198\n        /* \"#utility.yul\":10885:10888   */\n      dup3\n        /* \"#utility.yul\":10853:10889   */\n      tag_52\n      jump\t// in\n    tag_198:\n        /* \"#utility.yul\":10954:10972   */\n      0xffffffffffffffff\n        /* \"#utility.yul\":10946:10952   */\n      dup2\n        /* \"#utility.yul\":10943:10973   */\n      gt\n        /* \"#utility.yul\":10940:10996   */\n      iszero\n      tag_199\n      jumpi\n        /* \"#utility.yul\":10976:10994   */\n      tag_200\n      tag_72\n      jump\t// in\n    tag_200:\n        /* \"#utility.yul\":10940:10996   */\n    tag_199:\n        /* \"#utility.yul\":11020:11058   */\n      tag_201\n        /* \"#utility.yul\":11052:11056   */\n      dup3\n        /* \"#utility.yul\":11046:11057   */\n      sload\n        /* \"#utility.yul\":11020:11058   */\n      tag_28\n      jump\t// in\n    tag_201:\n        /* \"#utility.yul\":11105:11171   */\n      tag_202\n        /* \"#utility.yul\":11164:11170   */\n      dup3\n        /* \"#utility.yul\":11156:11162   */\n      dup3\n        /* \"#utility.yul\":11150:11154   */\n      dup6\n        /* \"#utility.yul\":11105:11171   */\n      tag_84\n      jump\t// in\n    tag_202:\n        /* \"#utility.yul\":11198:11199   */\n      0x00\n        /* \"#utility.yul\":11222:11226   */\n      0x20\n        /* \"#utility.yul\":11209:11226   */\n      swap1\n      pop\n        /* \"#utility.yul\":11254:11256   */\n      0x1f\n        /* \"#utility.yul\":11246:11252   */\n      dup4\n        /* \"#utility.yul\":11243:11257   */\n      gt\n        /* \"#utility.yul\":11271:11272   */\n      0x01\n        /* \"#utility.yul\":11266:11883   */\n      dup2\n      eq\n      tag_204\n      jumpi\n        /* \"#utility.yul\":11927:11928   */\n      0x00\n        /* \"#utility.yul\":11944:11950   */\n      dup5\n        /* \"#utility.yul\":11941:12018   */\n      iszero\n      tag_205\n      jumpi\n        /* \"#utility.yul\":11993:12002   */\n      dup3\n        /* \"#utility.yul\":11988:11991   */\n      dup8\n        /* \"#utility.yul\":11984:12003   */\n      add\n        /* \"#utility.yul\":11978:12004   */\n      mload\n        /* \"#utility.yul\":11969:12004   */\n      swap1\n      pop\n        /* \"#utility.yul\":11941:12018   */\n    tag_205:\n        /* \"#utility.yul\":12044:12111   */\n      tag_206\n        /* \"#utility.yul\":12104:12110   */\n      dup6\n        /* \"#utility.yul\":12097:12102   */\n      dup3\n        /* \"#utility.yul\":12044:12111   */\n      tag_87\n      jump\t// in\n    tag_206:\n        /* \"#utility.yul\":12038:12042   */\n      dup7\n        /* \"#utility.yul\":12031:12112   */\n      sstore\n        /* \"#utility.yul\":11900:12122   */\n      pop\n        /* \"#utility.yul\":11236:12122   */\n      jump(tag_203)\n        /* \"#utility.yul\":11266:11883   */\n    tag_204:\n        /* \"#utility.yul\":11318:11322   */\n      0x1f\n        /* \"#utility.yul\":11314:11323   */\n      not\n        /* \"#utility.yul\":11306:11312   */\n      dup5\n        /* \"#utility.yul\":11302:11324   */\n      and\n        /* \"#utility.yul\":11352:11388   */\n      tag_207\n        /* \"#utility.yul\":11383:11387   */\n      dup7\n        /* \"#utility.yul\":11352:11388   */\n      tag_73\n      jump\t// in\n    tag_207:\n        /* \"#utility.yul\":11410:11411   */\n      0x00\n        /* \"#utility.yul\":11424:11632   */\n    tag_208:\n        /* \"#utility.yul\":11438:11445   */\n      dup3\n        /* \"#utility.yul\":11435:11436   */\n      dup2\n        /* \"#utility.yul\":11432:11446   */\n      lt\n        /* \"#utility.yul\":11424:11632   */\n      iszero\n      tag_210\n      jumpi\n        /* \"#utility.yul\":11517:11526   */\n      dup5\n        /* \"#utility.yul\":11512:11515   */\n      dup10\n        /* \"#utility.yul\":11508:11527   */\n      add\n        /* \"#utility.yul\":11502:11528   */\n      mload\n        /* \"#utility.yul\":11494:11500   */\n      dup3\n        /* \"#utility.yul\":11487:11529   */\n      sstore\n        /* \"#utility.yul\":11568:11569   */\n      0x01\n        /* \"#utility.yul\":11560:11566   */\n      dup3\n        /* \"#utility.yul\":11556:11570   */\n      add\n        /* \"#utility.yul\":11546:11570   */\n      swap2\n      pop\n        /* \"#utility.yul\":11615:11617   */\n      0x20\n        /* \"#utility.yul\":11604:11613   */\n      dup6\n        /* \"#utility.yul\":11600:11618   */\n      add\n        /* \"#utility.yul\":11587:11618   */\n      swap5\n      pop\n        /* \"#utility.yul\":11461:11465   */\n      0x20\n        /* \"#utility.yul\":11458:11459   */\n      dup2\n        /* \"#utility.yul\":11454:11466   */\n      add\n        /* \"#utility.yul\":11449:11466   */\n      swap1\n      pop\n        /* \"#utility.yul\":11424:11632   */\n      jump(tag_208)\n    tag_210:\n        /* \"#utility.yul\":11660:11666   */\n      dup7\n        /* \"#utility.yul\":11651:11658   */\n      dup4\n        /* \"#utility.yul\":11648:11667   */\n      lt\n        /* \"#utility.yul\":11645:11824   */\n      iszero\n      tag_211\n      jumpi\n        /* \"#utility.yul\":11718:11727   */\n      dup5\n        /* \"#utility.yul\":11713:11716   */\n      dup10\n        /* \"#utility.yul\":11709:11728   */\n      add\n        /* \"#utility.yul\":11703:11729   */\n      mload\n        /* \"#utility.yul\":11761:11809   */\n      tag_212\n        /* \"#utility.yul\":11803:11807   */\n      0x1f\n        /* \"#utility.yul\":11795:11801   */\n      dup10\n        /* \"#utility.yul\":11791:11808   */\n      and\n        /* \"#utility.yul\":11780:11789   */\n      dup3\n        /* \"#utility.yul\":11761:11809   */\n      tag_86\n      jump\t// in\n    tag_212:\n        /* \"#utility.yul\":11753:11759   */\n      dup4\n        /* \"#utility.yul\":11746:11810   */\n      sstore\n        /* \"#utility.yul\":11668:11824   */\n      pop\n        /* \"#utility.yul\":11645:11824   */\n    tag_211:\n        /* \"#utility.yul\":11870:11871   */\n      0x01\n        /* \"#utility.yul\":11866:11867   */\n      0x02\n        /* \"#utility.yul\":11858:11864   */\n      dup9\n        /* \"#utility.yul\":11854:11868   */\n      mul\n        /* \"#utility.yul\":11850:11872   */\n      add\n        /* \"#utility.yul\":11844:11848   */\n      dup9\n        /* \"#utility.yul\":11837:11873   */\n      sstore\n        /* \"#utility.yul\":11273:11883   */\n      pop\n      pop\n      pop\n        /* \"#utility.yul\":11236:12122   */\n    tag_203:\n      pop\n        /* \"#utility.yul\":10828:12128   */\n      pop\n      pop\n      pop\n        /* \"#utility.yul\":10738:12128   */\n      pop\n      pop\n      jump\t// out\n\n    auxdata: 0xa2646970667358221220ed3d1f1732eee7b8bcc7ed173f7f16e0fd00a57d1a4f4a017526f150ea5b374864736f6c63430008110033\n}\n",
				"bytecode": {
					"linkReferences": {},
					"object": "608060405234801561001057600080fd5b50610a4b806100206000396000f3fe6080604052600436106100345760003560e01c806314c3ec881461003957806373d4a13a14610062578063edcbe76c1461008d575b600080fd5b34801561004557600080fd5b50610060600480360381019061005b9190610421565b6100a9565b005b34801561006e57600080fd5b506100776101dc565b60405161008491906104de565b60405180910390f35b6100a760048036038101906100a29190610421565b61026a565b005b60008173ffffffffffffffffffffffffffffffffffffffff166040516024016040516020818303038152906040527fc2113c05000000000000000000000000000000000000000000000000000000007bffffffffffffffffffffffffffffffffffffffffffffffffffffffff19166020820180517bffffffffffffffffffffffffffffffffffffffffffffffffffffffff8381831617835250505050604051610152919061053c565b6000604051808303816000865af19150503d806000811461018f576040519150601f19603f3d011682016040523d82523d6000602084013e610194565b606091505b50509050806101d8576040517f08c379a00000000000000000000000000000000000000000000000000000000081526004016101cf906105b0565b60405180910390fd5b5050565b600080546101e9906105ff565b80601f0160208091040260200160405190810160405280929190818152602001828054610215906105ff565b80156102625780601f1061023757610100808354040283529160200191610262565b820191906000526020600020905b81548152906001019060200180831161024557829003601f168201915b505050505081565b6000808273ffffffffffffffffffffffffffffffffffffffff16606f607b60405160240161029891906106ce565b6040516020818303038152906040527f24ccab8f000000000000000000000000000000000000000000000000000000007bffffffffffffffffffffffffffffffffffffffffffffffffffffffff19166020820180517bffffffffffffffffffffffffffffffffffffffffffffffffffffffff8381831617835250505050604051610322919061053c565b60006040518083038185875af1925050503d806000811461035f576040519150601f19603f3d011682016040523d82523d6000602084013e610364565b606091505b5091509150816103a9576040517f08c379a00000000000000000000000000000000000000000000000000000000081526004016103a090610748565b60405180910390fd5b80600090816103b89190610943565b50505050565b600080fd5b600073ffffffffffffffffffffffffffffffffffffffff82169050919050565b60006103ee826103c3565b9050919050565b6103fe816103e3565b811461040957600080fd5b50565b60008135905061041b816103f5565b92915050565b600060208284031215610437576104366103be565b5b60006104458482850161040c565b91505092915050565b600081519050919050565b600082825260208201905092915050565b60005b8381101561048857808201518184015260208101905061046d565b60008484015250505050565b6000601f19601f8301169050919050565b60006104b08261044e565b6104ba8185610459565b93506104ca81856020860161046a565b6104d381610494565b840191505092915050565b600060208201905081810360008301526104f881846104a5565b905092915050565b600081905092915050565b60006105168261044e565b6105208185610500565b935061053081856020860161046a565b80840191505092915050565b6000610548828461050b565b915081905092915050565b600082825260208201905092915050565b7f63616c6c6661696c656400000000000000000000000000000000000000000000600082015250565b600061059a600a83610553565b91506105a582610564565b602082019050919050565b600060208201905081810360008301526105c98161058d565b9050919050565b7f4e487b7100000000000000000000000000000000000000000000000000000000600052602260045260246000fd5b6000600282049050600182168061061757607f821691505b60208210810361062a576106296105d0565b5b50919050565b7f63616c6c20666f6f000000000000000000000000000000000000000000000000600082015250565b6000610666600883610553565b915061067182610630565b602082019050919050565b6000819050919050565b600060ff82169050919050565b6000819050919050565b60006106b86106b36106ae8461067c565b610693565b610686565b9050919050565b6106c88161069d565b82525050565b600060408201905081810360008301526106e781610659565b90506106f660208301846106bf565b92915050565b7f63616c6c206661696c6564000000000000000000000000000000000000000000600082015250565b6000610732600b83610553565b915061073d826106fc565b602082019050919050565b6000602082019050818103600083015261076181610725565b9050919050565b7f4e487b7100000000000000000000000000000000000000000000000000000000600052604160045260246000fd5b60008190508160005260206000209050919050565b60006020601f8301049050919050565b600082821b905092915050565b6000600883026107f97fffffffffffffffffffffffffffffffffffffffffffffffffffffffffffffffff826107bc565b61080386836107bc565b95508019841693508086168417925050509392505050565b6000819050919050565b600061084061083b6108368461081b565b610693565b61081b565b9050919050565b6000819050919050565b61085a83610825565b61086e61086682610847565b8484546107c9565b825550505050565b600090565b610883610876565b61088e818484610851565b505050565b5b818110156108b2576108a760008261087b565b600181019050610894565b5050565b601f8211156108f7576108c881610797565b6108d1846107ac565b810160208510156108e0578190505b6108f46108ec856107ac565b830182610893565b50505b505050565b600082821c905092915050565b600061091a600019846008026108fc565b1980831691505092915050565b60006109338383610909565b9150826002028217905092915050565b61094c8261044e565b67ffffffffffffffff81111561096557610964610768565b5b61096f82546105ff565b61097a8282856108b6565b600060209050601f8311600181146109ad576000841561099b578287015190505b6109a58582610927565b865550610a0d565b601f1984166109bb86610797565b60005b828110156109e3578489015182556001820191506020850194506020810190506109be565b86831015610a0057848901516109fc601f891682610909565b8355505b6001600288020188555050505b50505050505056fea2646970667358221220ed3d1f1732eee7b8bcc7ed173f7f16e0fd00a57d1a4f4a017526f150ea5b374864736f6c63430008110033",
					"opcodes": "PUSH1 0x80 PUSH1 0x40 MSTORE CALLVALUE DUP1 ISZERO PUSH2 0x10 JUMPI PUSH1 0x0 DUP1 REVERT JUMPDEST POP PUSH2 0xA4B DUP1 PUSH2 0x20 PUSH1 0x0 CODECOPY PUSH1 0x0 RETURN INVALID PUSH1 0x80 PUSH1 0x40 MSTORE PUSH1 0x4 CALLDATASIZE LT PUSH2 0x34 JUMPI PUSH1 0x0 CALLDATALOAD PUSH1 0xE0 SHR DUP1 PUSH4 0x14C3EC88 EQ PUSH2 0x39 JUMPI DUP1 PUSH4 0x73D4A13A EQ PUSH2 0x62 JUMPI DUP1 PUSH4 0xEDCBE76C EQ PUSH2 0x8D JUMPI JUMPDEST PUSH1 0x0 DUP1 REVERT JUMPDEST CALLVALUE DUP1 ISZERO PUSH2 0x45 JUMPI PUSH1 0x0 DUP1 REVERT JUMPDEST POP PUSH2 0x60 PUSH1 0x4 DUP1 CALLDATASIZE SUB DUP2 ADD SWAP1 PUSH2 0x5B SWAP2 SWAP1 PUSH2 0x421 JUMP JUMPDEST PUSH2 0xA9 JUMP JUMPDEST STOP JUMPDEST CALLVALUE DUP1 ISZERO PUSH2 0x6E JUMPI PUSH1 0x0 DUP1 REVERT JUMPDEST POP PUSH2 0x77 PUSH2 0x1DC JUMP JUMPDEST PUSH1 0x40 MLOAD PUSH2 0x84 SWAP2 SWAP1 PUSH2 0x4DE JUMP JUMPDEST PUSH1 0x40 MLOAD DUP1 SWAP2 SUB SWAP1 RETURN JUMPDEST PUSH2 0xA7 PUSH1 0x4 DUP1 CALLDATASIZE SUB DUP2 ADD SWAP1 PUSH2 0xA2 SWAP2 SWAP1 PUSH2 0x421 JUMP JUMPDEST PUSH2 0x26A JUMP JUMPDEST STOP JUMPDEST PUSH1 0x0 DUP2 PUSH20 0xFFFFFFFFFFFFFFFFFFFFFFFFFFFFFFFFFFFFFFFF AND PUSH1 0x40 MLOAD PUSH1 0x24 ADD PUSH1 0x40 MLOAD PUSH1 0x20 DUP2 DUP4 SUB SUB DUP2 MSTORE SWAP1 PUSH1 0x40 MSTORE PUSH32 0xC2113C0500000000000000000000000000000000000000000000000000000000 PUSH28 0xFFFFFFFFFFFFFFFFFFFFFFFFFFFFFFFFFFFFFFFFFFFFFFFFFFFFFFFF NOT AND PUSH1 0x20 DUP3 ADD DUP1 MLOAD PUSH28 0xFFFFFFFFFFFFFFFFFFFFFFFFFFFFFFFFFFFFFFFFFFFFFFFFFFFFFFFF DUP4 DUP2 DUP4 AND OR DUP4 MSTORE POP POP POP POP PUSH1 0x40 MLOAD PUSH2 0x152 SWAP2 SWAP1 PUSH2 0x53C JUMP JUMPDEST PUSH1 0x0 PUSH1 0x40 MLOAD DUP1 DUP4 SUB DUP2 PUSH1 0x0 DUP7 GAS CALL SWAP2 POP POP RETURNDATASIZE DUP1 PUSH1 0x0 DUP2 EQ PUSH2 0x18F JUMPI PUSH1 0x40 MLOAD SWAP2 POP PUSH1 0x1F NOT PUSH1 0x3F RETURNDATASIZE ADD AND DUP3 ADD PUSH1 0x40 MSTORE RETURNDATASIZE DUP3 MSTORE RETURNDATASIZE PUSH1 0x0 PUSH1 0x20 DUP5 ADD RETURNDATACOPY PUSH2 0x194 JUMP JUMPDEST PUSH1 0x60 SWAP2 POP JUMPDEST POP POP SWAP1 POP DUP1 PUSH2 0x1D8 JUMPI PUSH1 0x40 MLOAD PUSH32 0x8C379A000000000000000000000000000000000000000000000000000000000 DUP2 MSTORE PUSH1 0x4 ADD PUSH2 0x1CF SWAP1 PUSH2 0x5B0 JUMP JUMPDEST PUSH1 0x40 MLOAD DUP1 SWAP2 SUB SWAP1 REVERT JUMPDEST POP POP JUMP JUMPDEST PUSH1 0x0 DUP1 SLOAD PUSH2 0x1E9 SWAP1 PUSH2 0x5FF JUMP JUMPDEST DUP1 PUSH1 0x1F ADD PUSH1 0x20 DUP1 SWAP2 DIV MUL PUSH1 0x20 ADD PUSH1 0x40 MLOAD SWAP1 DUP2 ADD PUSH1 0x40 MSTORE DUP1 SWAP3 SWAP2 SWAP1 DUP2 DUP2 MSTORE PUSH1 0x20 ADD DUP3 DUP1 SLOAD PUSH2 0x215 SWAP1 PUSH2 0x5FF JUMP JUMPDEST DUP1 ISZERO PUSH2 0x262 JUMPI DUP1 PUSH1 0x1F LT PUSH2 0x237 JUMPI PUSH2 0x100 DUP1 DUP4 SLOAD DIV MUL DUP4 MSTORE SWAP2 PUSH1 0x20 ADD SWAP2 PUSH2 0x262 JUMP JUMPDEST DUP3 ADD SWAP2 SWAP1 PUSH1 0x0 MSTORE PUSH1 0x20 PUSH1 0x0 KECCAK256 SWAP1 JUMPDEST DUP2 SLOAD DUP2 MSTORE SWAP1 PUSH1 0x1 ADD SWAP1 PUSH1 0x20 ADD DUP1 DUP4 GT PUSH2 0x245 JUMPI DUP3 SWAP1 SUB PUSH1 0x1F AND DUP3 ADD SWAP2 JUMPDEST POP POP POP POP POP DUP2 JUMP JUMPDEST PUSH1 0x0 DUP1 DUP3 PUSH20 0xFFFFFFFFFFFFFFFFFFFFFFFFFFFFFFFFFFFFFFFF AND PUSH1 0x6F PUSH1 0x7B PUSH1 0x40 MLOAD PUSH1 0x24 ADD PUSH2 0x298 SWAP2 SWAP1 PUSH2 0x6CE JUMP JUMPDEST PUSH1 0x40 MLOAD PUSH1 0x20 DUP2 DUP4 SUB SUB DUP2 MSTORE SWAP1 PUSH1 0x40 MSTORE PUSH32 0x24CCAB8F00000000000000000000000000000000000000000000000000000000 PUSH28 0xFFFFFFFFFFFFFFFFFFFFFFFFFFFFFFFFFFFFFFFFFFFFFFFFFFFFFFFF NOT AND PUSH1 0x20 DUP3 ADD DUP1 MLOAD PUSH28 0xFFFFFFFFFFFFFFFFFFFFFFFFFFFFFFFFFFFFFFFFFFFFFFFFFFFFFFFF DUP4 DUP2 DUP4 AND OR DUP4 MSTORE POP POP POP POP PUSH1 0x40 MLOAD PUSH2 0x322 SWAP2 SWAP1 PUSH2 0x53C JUMP JUMPDEST PUSH1 0x0 PUSH1 0x40 MLOAD DUP1 DUP4 SUB DUP2 DUP6 DUP8 GAS CALL SWAP3 POP POP POP RETURNDATASIZE DUP1 PUSH1 0x0 DUP2 EQ PUSH2 0x35F JUMPI PUSH1 0x40 MLOAD SWAP2 POP PUSH1 0x1F NOT PUSH1 0x3F RETURNDATASIZE ADD AND DUP3 ADD PUSH1 0x40 MSTORE RETURNDATASIZE DUP3 MSTORE RETURNDATASIZE PUSH1 0x0 PUSH1 0x20 DUP5 ADD RETURNDATACOPY PUSH2 0x364 JUMP JUMPDEST PUSH1 0x60 SWAP2 POP JUMPDEST POP SWAP2 POP SWAP2 POP DUP2 PUSH2 0x3A9 JUMPI PUSH1 0x40 MLOAD PUSH32 0x8C379A000000000000000000000000000000000000000000000000000000000 DUP2 MSTORE PUSH1 0x4 ADD PUSH2 0x3A0 SWAP1 PUSH2 0x748 JUMP JUMPDEST PUSH1 0x40 MLOAD DUP1 SWAP2 SUB SWAP1 REVERT JUMPDEST DUP1 PUSH1 0x0 SWAP1 DUP2 PUSH2 0x3B8 SWAP2 SWAP1 PUSH2 0x943 JUMP JUMPDEST POP POP POP POP JUMP JUMPDEST PUSH1 0x0 DUP1 REVERT JUMPDEST PUSH1 0x0 PUSH20 0xFFFFFFFFFFFFFFFFFFFFFFFFFFFFFFFFFFFFFFFF DUP3 AND SWAP1 POP SWAP2 SWAP1 POP JUMP JUMPDEST PUSH1 0x0 PUSH2 0x3EE DUP3 PUSH2 0x3C3 JUMP JUMPDEST SWAP1 POP SWAP2 SWAP1 POP JUMP JUMPDEST PUSH2 0x3FE DUP2 PUSH2 0x3E3 JUMP JUMPDEST DUP2 EQ PUSH2 0x409 JUMPI PUSH1 0x0 DUP1 REVERT JUMPDEST POP JUMP JUMPDEST PUSH1 0x0 DUP2 CALLDATALOAD SWAP1 POP PUSH2 0x41B DUP2 PUSH2 0x3F5 JUMP JUMPDEST SWAP3 SWAP2 POP POP JUMP JUMPDEST PUSH1 0x0 PUSH1 0x20 DUP3 DUP5 SUB SLT ISZERO PUSH2 0x437 JUMPI PUSH2 0x436 PUSH2 0x3BE JUMP JUMPDEST JUMPDEST PUSH1 0x0 PUSH2 0x445 DUP5 DUP3 DUP6 ADD PUSH2 0x40C JUMP JUMPDEST SWAP2 POP POP SWAP3 SWAP2 POP POP JUMP JUMPDEST PUSH1 0x0 DUP2 MLOAD SWAP1 POP SWAP2 SWAP1 POP JUMP JUMPDEST PUSH1 0x0 DUP3 DUP3 MSTORE PUSH1 0x20 DUP3 ADD SWAP1 POP SWAP3 SWAP2 POP POP JUMP JUMPDEST PUSH1 0x0 JUMPDEST DUP4 DUP2 LT ISZERO PUSH2 0x488 JUMPI DUP1 DUP3 ADD MLOAD DUP2 DUP5 ADD MSTORE PUSH1 0x20 DUP2 ADD SWAP1 POP PUSH2 0x46D JUMP JUMPDEST PUSH1 0x0 DUP5 DUP5 ADD MSTORE POP POP POP POP JUMP JUMPDEST PUSH1 0x0 PUSH1 0x1F NOT PUSH1 0x1F DUP4 ADD AND SWAP1 POP SWAP2 SWAP1 POP JUMP JUMPDEST PUSH1 0x0 PUSH2 0x4B0 DUP3 PUSH2 0x44E JUMP JUMPDEST PUSH2 0x4BA DUP2 DUP6 PUSH2 0x459 JUMP JUMPDEST SWAP4 POP PUSH2 0x4CA DUP2 DUP6 PUSH1 0x20 DUP7 ADD PUSH2 0x46A JUMP JUMPDEST PUSH2 0x4D3 DUP2 PUSH2 0x494 JUMP JUMPDEST DUP5 ADD SWAP2 POP POP SWAP3 SWAP2 POP POP JUMP JUMPDEST PUSH1 0x0 PUSH1 0x20 DUP3 ADD SWAP1 POP DUP2 DUP2 SUB PUSH1 0x0 DUP4 ADD MSTORE PUSH2 0x4F8 DUP2 DUP5 PUSH2 0x4A5 JUMP JUMPDEST SWAP1 POP SWAP3 SWAP2 POP POP JUMP JUMPDEST PUSH1 0x0 DUP2 SWAP1 POP SWAP3 SWAP2 POP POP JUMP JUMPDEST PUSH1 0x0 PUSH2 0x516 DUP3 PUSH2 0x44E JUMP JUMPDEST PUSH2 0x520 DUP2 DUP6 PUSH2 0x500 JUMP JUMPDEST SWAP4 POP PUSH2 0x530 DUP2 DUP6 PUSH1 0x20 DUP7 ADD PUSH2 0x46A JUMP JUMPDEST DUP1 DUP5 ADD SWAP2 POP POP SWAP3 SWAP2 POP POP JUMP JUMPDEST PUSH1 0x0 PUSH2 0x548 DUP3 DUP5 PUSH2 0x50B JUMP JUMPDEST SWAP2 POP DUP2 SWAP1 POP SWAP3 SWAP2 POP POP JUMP JUMPDEST PUSH1 0x0 DUP3 DUP3 MSTORE PUSH1 0x20 DUP3 ADD SWAP1 POP SWAP3 SWAP2 POP POP JUMP JUMPDEST PUSH32 0x63616C6C6661696C656400000000000000000000000000000000000000000000 PUSH1 0x0 DUP3 ADD MSTORE POP JUMP JUMPDEST PUSH1 0x0 PUSH2 0x59A PUSH1 0xA DUP4 PUSH2 0x553 JUMP JUMPDEST SWAP2 POP PUSH2 0x5A5 DUP3 PUSH2 0x564 JUMP JUMPDEST PUSH1 0x20 DUP3 ADD SWAP1 POP SWAP2 SWAP1 POP JUMP JUMPDEST PUSH1 0x0 PUSH1 0x20 DUP3 ADD SWAP1 POP DUP2 DUP2 SUB PUSH1 0x0 DUP4 ADD MSTORE PUSH2 0x5C9 DUP2 PUSH2 0x58D JUMP JUMPDEST SWAP1 POP SWAP2 SWAP1 POP JUMP JUMPDEST PUSH32 0x4E487B7100000000000000000000000000000000000000000000000000000000 PUSH1 0x0 MSTORE PUSH1 0x22 PUSH1 0x4 MSTORE PUSH1 0x24 PUSH1 0x0 REVERT JUMPDEST PUSH1 0x0 PUSH1 0x2 DUP3 DIV SWAP1 POP PUSH1 0x1 DUP3 AND DUP1 PUSH2 0x617 JUMPI PUSH1 0x7F DUP3 AND SWAP2 POP JUMPDEST PUSH1 0x20 DUP3 LT DUP2 SUB PUSH2 0x62A JUMPI PUSH2 0x629 PUSH2 0x5D0 JUMP JUMPDEST JUMPDEST POP SWAP2 SWAP1 POP JUMP JUMPDEST PUSH32 0x63616C6C20666F6F000000000000000000000000000000000000000000000000 PUSH1 0x0 DUP3 ADD MSTORE POP JUMP JUMPDEST PUSH1 0x0 PUSH2 0x666 PUSH1 0x8 DUP4 PUSH2 0x553 JUMP JUMPDEST SWAP2 POP PUSH2 0x671 DUP3 PUSH2 0x630 JUMP JUMPDEST PUSH1 0x20 DUP3 ADD SWAP1 POP SWAP2 SWAP1 POP JUMP JUMPDEST PUSH1 0x0 DUP2 SWAP1 POP SWAP2 SWAP1 POP JUMP JUMPDEST PUSH1 0x0 PUSH1 0xFF DUP3 AND SWAP1 POP SWAP2 SWAP1 POP JUMP JUMPDEST PUSH1 0x0 DUP2 SWAP1 POP SWAP2 SWAP1 POP JUMP JUMPDEST PUSH1 0x0 PUSH2 0x6B8 PUSH2 0x6B3 PUSH2 0x6AE DUP5 PUSH2 0x67C JUMP JUMPDEST PUSH2 0x693 JUMP JUMPDEST PUSH2 0x686 JUMP JUMPDEST SWAP1 POP SWAP2 SWAP1 POP JUMP JUMPDEST PUSH2 0x6C8 DUP2 PUSH2 0x69D JUMP JUMPDEST DUP3 MSTORE POP POP JUMP JUMPDEST PUSH1 0x0 PUSH1 0x40 DUP3 ADD SWAP1 POP DUP2 DUP2 SUB PUSH1 0x0 DUP4 ADD MSTORE PUSH2 0x6E7 DUP2 PUSH2 0x659 JUMP JUMPDEST SWAP1 POP PUSH2 0x6F6 PUSH1 0x20 DUP4 ADD DUP5 PUSH2 0x6BF JUMP JUMPDEST SWAP3 SWAP2 POP POP JUMP JUMPDEST PUSH32 0x63616C6C206661696C6564000000000000000000000000000000000000000000 PUSH1 0x0 DUP3 ADD MSTORE POP JUMP JUMPDEST PUSH1 0x0 PUSH2 0x732 PUSH1 0xB DUP4 PUSH2 0x553 JUMP JUMPDEST SWAP2 POP PUSH2 0x73D DUP3 PUSH2 0x6FC JUMP JUMPDEST PUSH1 0x20 DUP3 ADD SWAP1 POP SWAP2 SWAP1 POP JUMP JUMPDEST PUSH1 0x0 PUSH1 0x20 DUP3 ADD SWAP1 POP DUP2 DUP2 SUB PUSH1 0x0 DUP4 ADD MSTORE PUSH2 0x761 DUP2 PUSH2 0x725 JUMP JUMPDEST SWAP1 POP SWAP2 SWAP1 POP JUMP JUMPDEST PUSH32 0x4E487B7100000000000000000000000000000000000000000000000000000000 PUSH1 0x0 MSTORE PUSH1 0x41 PUSH1 0x4 MSTORE PUSH1 0x24 PUSH1 0x0 REVERT JUMPDEST PUSH1 0x0 DUP2 SWAP1 POP DUP2 PUSH1 0x0 MSTORE PUSH1 0x20 PUSH1 0x0 KECCAK256 SWAP1 POP SWAP2 SWAP1 POP JUMP JUMPDEST PUSH1 0x0 PUSH1 0x20 PUSH1 0x1F DUP4 ADD DIV SWAP1 POP SWAP2 SWAP1 POP JUMP JUMPDEST PUSH1 0x0 DUP3 DUP3 SHL SWAP1 POP SWAP3 SWAP2 POP POP JUMP JUMPDEST PUSH1 0x0 PUSH1 0x8 DUP4 MUL PUSH2 0x7F9 PUSH32 0xFFFFFFFFFFFFFFFFFFFFFFFFFFFFFFFFFFFFFFFFFFFFFFFFFFFFFFFFFFFFFFFF DUP3 PUSH2 0x7BC JUMP JUMPDEST PUSH2 0x803 DUP7 DUP4 PUSH2 0x7BC JUMP JUMPDEST SWAP6 POP DUP1 NOT DUP5 AND SWAP4 POP DUP1 DUP7 AND DUP5 OR SWAP3 POP POP POP SWAP4 SWAP3 POP POP POP JUMP JUMPDEST PUSH1 0x0 DUP2 SWAP1 POP SWAP2 SWAP1 POP JUMP JUMPDEST PUSH1 0x0 PUSH2 0x840 PUSH2 0x83B PUSH2 0x836 DUP5 PUSH2 0x81B JUMP JUMPDEST PUSH2 0x693 JUMP JUMPDEST PUSH2 0x81B JUMP JUMPDEST SWAP1 POP SWAP2 SWAP1 POP JUMP JUMPDEST PUSH1 0x0 DUP2 SWAP1 POP SWAP2 SWAP1 POP JUMP JUMPDEST PUSH2 0x85A DUP4 PUSH2 0x825 JUMP JUMPDEST PUSH2 0x86E PUSH2 0x866 DUP3 PUSH2 0x847 JUMP JUMPDEST DUP5 DUP5 SLOAD PUSH2 0x7C9 JUMP JUMPDEST DUP3 SSTORE POP POP POP POP JUMP JUMPDEST PUSH1 0x0 SWAP1 JUMP JUMPDEST PUSH2 0x883 PUSH2 0x876 JUMP JUMPDEST PUSH2 0x88E DUP2 DUP5 DUP5 PUSH2 0x851 JUMP JUMPDEST POP POP POP JUMP JUMPDEST JUMPDEST DUP2 DUP2 LT ISZERO PUSH2 0x8B2 JUMPI PUSH2 0x8A7 PUSH1 0x0 DUP3 PUSH2 0x87B JUMP JUMPDEST PUSH1 0x1 DUP2 ADD SWAP1 POP PUSH2 0x894 JUMP JUMPDEST POP POP JUMP JUMPDEST PUSH1 0x1F DUP3 GT ISZERO PUSH2 0x8F7 JUMPI PUSH2 0x8C8 DUP2 PUSH2 0x797 JUMP JUMPDEST PUSH2 0x8D1 DUP5 PUSH2 0x7AC JUMP JUMPDEST DUP2 ADD PUSH1 0x20 DUP6 LT ISZERO PUSH2 0x8E0 JUMPI DUP2 SWAP1 POP JUMPDEST PUSH2 0x8F4 PUSH2 0x8EC DUP6 PUSH2 0x7AC JUMP JUMPDEST DUP4 ADD DUP3 PUSH2 0x893 JUMP JUMPDEST POP POP JUMPDEST POP POP POP JUMP JUMPDEST PUSH1 0x0 DUP3 DUP3 SHR SWAP1 POP SWAP3 SWAP2 POP POP JUMP JUMPDEST PUSH1 0x0 PUSH2 0x91A PUSH1 0x0 NOT DUP5 PUSH1 0x8 MUL PUSH2 0x8FC JUMP JUMPDEST NOT DUP1 DUP4 AND SWAP2 POP POP SWAP3 SWAP2 POP POP JUMP JUMPDEST PUSH1 0x0 PUSH2 0x933 DUP4 DUP4 PUSH2 0x909 JUMP JUMPDEST SWAP2 POP DUP3 PUSH1 0x2 MUL DUP3 OR SWAP1 POP SWAP3 SWAP2 POP POP JUMP JUMPDEST PUSH2 0x94C DUP3 PUSH2 0x44E JUMP JUMPDEST PUSH8 0xFFFFFFFFFFFFFFFF DUP2 GT ISZERO PUSH2 0x965 JUMPI PUSH2 0x964 PUSH2 0x768 JUMP JUMPDEST JUMPDEST PUSH2 0x96F DUP3 SLOAD PUSH2 0x5FF JUMP JUMPDEST PUSH2 0x97A DUP3 DUP3 DUP6 PUSH2 0x8B6 JUMP JUMPDEST PUSH1 0x0 PUSH1 0x20 SWAP1 POP PUSH1 0x1F DUP4 GT PUSH1 0x1 DUP2 EQ PUSH2 0x9AD JUMPI PUSH1 0x0 DUP5 ISZERO PUSH2 0x99B JUMPI DUP3 DUP8 ADD MLOAD SWAP1 POP JUMPDEST PUSH2 0x9A5 DUP6 DUP3 PUSH2 0x927 JUMP JUMPDEST DUP7 SSTORE POP PUSH2 0xA0D JUMP JUMPDEST PUSH1 0x1F NOT DUP5 AND PUSH2 0x9BB DUP7 PUSH2 0x797 JUMP JUMPDEST PUSH1 0x0 JUMPDEST DUP3 DUP2 LT ISZERO PUSH2 0x9E3 JUMPI DUP5 DUP10 ADD MLOAD DUP3 SSTORE PUSH1 0x1 DUP3 ADD SWAP2 POP PUSH1 0x20 DUP6 ADD SWAP5 POP PUSH1 0x20 DUP2 ADD SWAP1 POP PUSH2 0x9BE JUMP JUMPDEST DUP7 DUP4 LT ISZERO PUSH2 0xA00 JUMPI DUP5 DUP10 ADD MLOAD PUSH2 0x9FC PUSH1 0x1F DUP10 AND DUP3 PUSH2 0x909 JUMP JUMPDEST DUP4 SSTORE POP JUMPDEST PUSH1 0x1 PUSH1 0x2 DUP9 MUL ADD DUP9 SSTORE POP POP POP JUMPDEST POP POP POP POP POP POP JUMP INVALID LOG2 PUSH5 0x6970667358 0x22 SLT KECCAK256 0xED RETURNDATASIZE 0x1F OR ORIGIN 0xEE 0xE7 0xB8 0xBC 0xC7 0xED OR EXTCODEHASH PUSH32 0x16E0FD00A57D1A4F4A017526F150EA5B374864736F6C63430008110033000000 "
				},
				"gasEstimates": {
					"creation": {
						"codeDepositCost": "527000",
						"executionCost": "562",
						"totalCost": "527562"
					},
					"external": {
						"callDoesNotExit(address)": "infinite",
						"callFoo(address)": "infinite",
						"data()": "infinite"
					}
				},
				"methodIdentifiers": {
					"callDoesNotExit(address)": "14c3ec88",
					"callFoo(address)": "edcbe76c",
					"data()": "73d4a13a"
				}
			},
			"storageLayout": {
				"storage": [
					{
						"astId": 44,
						"contract": "TestCall.sol:Call",
						"label": "data",
						"offset": 0,
						"slot": "0",
						"type": "t_bytes_storage"
					}
				],
				"types": {
					"t_bytes_storage": {
						"encoding": "bytes",
						"label": "bytes",
						"numberOfBytes": "32"
					}
				}
			},
			"userdoc": {
				"kind": "user",
				"methods": {},
				"version": 1
			}
		}
	}
}