{
	"TodoList.sol": {
		"TodoList": {
			"abi": [
				{
					"inputs": [
						{
							"internalType": "string",
							"name": "_text",
							"type": "string"
						}
					],
					"name": "create",
					"outputs": [],
					"stateMutability": "nonpayable",
					"type": "function"
				},
				{
					"inputs": [
						{
							"internalType": "uint256",
							"name": "",
							"type": "uint256"
						}
					],
					"name": "todos",
					"outputs": [
						{
							"internalType": "string",
							"name": "text",
							"type": "string"
						},
						{
							"internalType": "bool",
							"name": "compeleted",
							"type": "bool"
						}
					],
					"stateMutability": "view",
					"type": "function"
				},
				{
					"inputs": [
						{
							"internalType": "uint256",
							"name": "_index",
							"type": "uint256"
						},
						{
							"internalType": "string",
							"name": "_text",
							"type": "string"
						}
					],
					"name": "updataText",
					"outputs": [],
					"stateMutability": "nonpayable",
					"type": "function"
				}
			],
			"devdoc": {
				"kind": "dev",
				"methods": {},
				"version": 1
			},
			"evm": {
				"assembly": "    /* \"TodoList.sol\":61:422  contract TodoList {... */\n  mstore(0x40, 0x80)\n  callvalue\n  dup1\n  iszero\n  tag_1\n  jumpi\n  0x00\n  dup1\n  revert\ntag_1:\n  pop\n  dataSize(sub_0)\n  dup1\n  dataOffset(sub_0)\n  0x00\n  codecopy\n  0x00\n  return\nstop\n\nsub_0: assembly {\n        /* \"TodoList.sol\":61:422  contract TodoList {... */\n      mstore(0x40, 0x80)\n      callvalue\n      dup1\n      iszero\n      tag_1\n      jumpi\n      0x00\n      dup1\n      revert\n    tag_1:\n      pop\n      jumpi(tag_2, lt(calldatasize, 0x04))\n      shr(0xe0, calldataload(0x00))\n      dup1\n      0x860bbc00\n      eq\n      tag_3\n      jumpi\n      dup1\n      0xb6a46b3b\n      eq\n      tag_4\n      jumpi\n      dup1\n      0xbc8bc2b4\n      eq\n      tag_5\n      jumpi\n    tag_2:\n      0x00\n      dup1\n      revert\n        /* \"TodoList.sol\":352:419  function updataText(uint _index, string calldata _text) external {} */\n    tag_3:\n      tag_6\n      0x04\n      dup1\n      calldatasize\n      sub\n      dup2\n      add\n      swap1\n      tag_7\n      swap2\n      swap1\n      tag_8\n      jump\t// in\n    tag_7:\n      tag_9\n      jump\t// in\n    tag_6:\n      stop\n        /* \"TodoList.sol\":190:344  function create(string calldata _text) external {... */\n    tag_4:\n      tag_10\n      0x04\n      dup1\n      calldatasize\n      sub\n      dup2\n      add\n      swap1\n      tag_11\n      swap2\n      swap1\n      tag_12\n      jump\t// in\n    tag_11:\n      tag_13\n      jump\t// in\n    tag_10:\n      stop\n        /* \"TodoList.sol\":162:181  Todo[] public todos */\n    tag_5:\n      tag_14\n      0x04\n      dup1\n      calldatasize\n      sub\n      dup2\n      add\n      swap1\n      tag_15\n      swap2\n      swap1\n      tag_16\n      jump\t// in\n    tag_15:\n      tag_17\n      jump\t// in\n    tag_14:\n      mload(0x40)\n      tag_18\n      swap3\n      swap2\n      swap1\n      tag_19\n      jump\t// in\n    tag_18:\n      mload(0x40)\n      dup1\n      swap2\n      sub\n      swap1\n      return\n        /* \"TodoList.sol\":352:419  function updataText(uint _index, string calldata _text) external {} */\n    tag_9:\n      pop\n      pop\n      pop\n      jump\t// out\n        /* \"TodoList.sol\":190:344  function create(string calldata _text) external {... */\n    tag_13:\n        /* \"TodoList.sol\":249:254  todos */\n      0x00\n        /* \"TodoList.sol\":260:335  Todo({... */\n      mload(0x40)\n      dup1\n      0x40\n      add\n      0x40\n      mstore\n      dup1\n        /* \"TodoList.sol\":286:291  _text */\n      dup5\n      dup5\n        /* \"TodoList.sol\":260:335  Todo({... */\n      dup1\n      dup1\n      0x1f\n      add\n      0x20\n      dup1\n      swap2\n      div\n      mul\n      0x20\n      add\n      mload(0x40)\n      swap1\n      dup2\n      add\n      0x40\n      mstore\n      dup1\n      swap4\n      swap3\n      swap2\n      swap1\n      dup2\n      dup2\n      mstore\n      0x20\n      add\n      dup4\n      dup4\n      dup1\n      dup3\n      dup5\n      calldatacopy\n      0x00\n      dup2\n      dup5\n      add\n      mstore\n      not(0x1f)\n      0x1f\n      dup3\n      add\n      and\n      swap1\n      pop\n      dup1\n      dup4\n      add\n      swap3\n      pop\n      pop\n      pop\n      pop\n      pop\n      pop\n      pop\n      dup2\n      mstore\n      0x20\n      add\n        /* \"TodoList.sol\":318:323  false */\n      0x00\n        /* \"TodoList.sol\":260:335  Todo({... */\n      iszero\n      iszero\n      dup2\n      mstore\n      pop\n        /* \"TodoList.sol\":249:336  todos.push(Todo({... */\n      swap1\n      dup1\n      0x01\n      dup2\n      sload\n      add\n      dup1\n      dup3\n      sstore\n      dup1\n      swap2\n      pop\n      pop\n      0x01\n      swap1\n      sub\n      swap1\n      0x00\n      mstore\n      keccak256(0x00, 0x20)\n      swap1\n      0x02\n      mul\n      add\n      0x00\n      swap1\n      swap2\n      swap1\n      swap2\n      swap1\n      swap2\n      pop\n      0x00\n      dup3\n      add\n      mload\n      dup2\n      0x00\n      add\n      swap1\n      dup2\n      tag_23\n      swap2\n      swap1\n      tag_24\n      jump\t// in\n    tag_23:\n      pop\n      0x20\n      dup3\n      add\n      mload\n      dup2\n      0x01\n      add\n      exp(0x0100, 0x00)\n      dup2\n      sload\n      dup2\n      0xff\n      mul\n      not\n      and\n      swap1\n      dup4\n      iszero\n      iszero\n      mul\n      or\n      swap1\n      sstore\n      pop\n      pop\n      pop\n        /* \"TodoList.sol\":190:344  function create(string calldata _text) external {... */\n      pop\n      pop\n      jump\t// out\n        /* \"TodoList.sol\":162:181  Todo[] public todos */\n    tag_17:\n      0x00\n      dup2\n      dup2\n      sload\n      dup2\n      lt\n      tag_25\n      jumpi\n      0x00\n      dup1\n      revert\n    tag_25:\n      swap1\n      0x00\n      mstore\n      keccak256(0x00, 0x20)\n      swap1\n      0x02\n      mul\n      add\n      0x00\n      swap2\n      pop\n      swap1\n      pop\n      dup1\n      0x00\n      add\n      dup1\n      sload\n      tag_27\n      swap1\n      tag_28\n      jump\t// in\n    tag_27:\n      dup1\n      0x1f\n      add\n      0x20\n      dup1\n      swap2\n      div\n      mul\n      0x20\n      add\n      mload(0x40)\n      swap1\n      dup2\n      add\n      0x40\n      mstore\n      dup1\n      swap3\n      swap2\n      swap1\n      dup2\n      dup2\n      mstore\n      0x20\n      add\n      dup3\n      dup1\n      sload\n      tag_29\n      swap1\n      tag_28\n      jump\t// in\n    tag_29:\n      dup1\n      iszero\n      tag_30\n      jumpi\n      dup1\n      0x1f\n      lt\n      tag_31\n      jumpi\n      0x0100\n      dup1\n      dup4\n      sload\n      div\n      mul\n      dup4\n      mstore\n      swap2\n      0x20\n      add\n      swap2\n      jump(tag_30)\n    tag_31:\n      dup3\n      add\n      swap2\n      swap1\n      0x00\n      mstore\n      keccak256(0x00, 0x20)\n      swap1\n    tag_32:\n      dup2\n      sload\n      dup2\n      mstore\n      swap1\n      0x01\n      add\n      swap1\n      0x20\n      add\n      dup1\n      dup4\n      gt\n      tag_32\n      jumpi\n      dup3\n      swap1\n      sub\n      0x1f\n      and\n      dup3\n      add\n      swap2\n    tag_30:\n      pop\n      pop\n      pop\n      pop\n      pop\n      swap1\n      dup1\n      0x01\n      add\n      0x00\n      swap1\n      sload\n      swap1\n      0x0100\n      exp\n      swap1\n      div\n      0xff\n      and\n      swap1\n      pop\n      dup3\n      jump\t// out\n        /* \"#utility.yul\":88:205   */\n    tag_34:\n        /* \"#utility.yul\":197:198   */\n      0x00\n        /* \"#utility.yul\":194:195   */\n      dup1\n        /* \"#utility.yul\":187:199   */\n      revert\n        /* \"#utility.yul\":211:328   */\n    tag_35:\n        /* \"#utility.yul\":320:321   */\n      0x00\n        /* \"#utility.yul\":317:318   */\n      dup1\n        /* \"#utility.yul\":310:322   */\n      revert\n        /* \"#utility.yul\":334:411   */\n    tag_36:\n        /* \"#utility.yul\":371:378   */\n      0x00\n        /* \"#utility.yul\":400:405   */\n      dup2\n        /* \"#utility.yul\":389:405   */\n      swap1\n      pop\n        /* \"#utility.yul\":334:411   */\n      swap2\n      swap1\n      pop\n      jump\t// out\n        /* \"#utility.yul\":417:539   */\n    tag_37:\n        /* \"#utility.yul\":490:514   */\n      tag_73\n        /* \"#utility.yul\":508:513   */\n      dup2\n        /* \"#utility.yul\":490:514   */\n      tag_36\n      jump\t// in\n    tag_73:\n        /* \"#utility.yul\":483:488   */\n      dup2\n        /* \"#utility.yul\":480:515   */\n      eq\n        /* \"#utility.yul\":470:533   */\n      tag_74\n      jumpi\n        /* \"#utility.yul\":529:530   */\n      0x00\n        /* \"#utility.yul\":526:527   */\n      dup1\n        /* \"#utility.yul\":519:531   */\n      revert\n        /* \"#utility.yul\":470:533   */\n    tag_74:\n        /* \"#utility.yul\":417:539   */\n      pop\n      jump\t// out\n        /* \"#utility.yul\":545:684   */\n    tag_38:\n        /* \"#utility.yul\":591:596   */\n      0x00\n        /* \"#utility.yul\":629:635   */\n      dup2\n        /* \"#utility.yul\":616:636   */\n      calldataload\n        /* \"#utility.yul\":607:636   */\n      swap1\n      pop\n        /* \"#utility.yul\":645:678   */\n      tag_76\n        /* \"#utility.yul\":672:677   */\n      dup2\n        /* \"#utility.yul\":645:678   */\n      tag_37\n      jump\t// in\n    tag_76:\n        /* \"#utility.yul\":545:684   */\n      swap3\n      swap2\n      pop\n      pop\n      jump\t// out\n        /* \"#utility.yul\":690:807   */\n    tag_39:\n        /* \"#utility.yul\":799:800   */\n      0x00\n        /* \"#utility.yul\":796:797   */\n      dup1\n        /* \"#utility.yul\":789:801   */\n      revert\n        /* \"#utility.yul\":813:930   */\n    tag_40:\n        /* \"#utility.yul\":922:923   */\n      0x00\n        /* \"#utility.yul\":919:920   */\n      dup1\n        /* \"#utility.yul\":912:924   */\n      revert\n        /* \"#utility.yul\":936:1053   */\n    tag_41:\n        /* \"#utility.yul\":1045:1046   */\n      0x00\n        /* \"#utility.yul\":1042:1043   */\n      dup1\n        /* \"#utility.yul\":1035:1047   */\n      revert\n        /* \"#utility.yul\":1073:1626   */\n    tag_42:\n        /* \"#utility.yul\":1131:1139   */\n      0x00\n        /* \"#utility.yul\":1141:1147   */\n      dup1\n        /* \"#utility.yul\":1191:1194   */\n      dup4\n        /* \"#utility.yul\":1184:1188   */\n      0x1f\n        /* \"#utility.yul\":1176:1182   */\n      dup5\n        /* \"#utility.yul\":1172:1189   */\n      add\n        /* \"#utility.yul\":1168:1195   */\n      slt\n        /* \"#utility.yul\":1158:1280   */\n      tag_81\n      jumpi\n        /* \"#utility.yul\":1199:1278   */\n      tag_82\n      tag_39\n      jump\t// in\n    tag_82:\n        /* \"#utility.yul\":1158:1280   */\n    tag_81:\n        /* \"#utility.yul\":1312:1318   */\n      dup3\n        /* \"#utility.yul\":1299:1319   */\n      calldataload\n        /* \"#utility.yul\":1289:1319   */\n      swap1\n      pop\n        /* \"#utility.yul\":1342:1360   */\n      0xffffffffffffffff\n        /* \"#utility.yul\":1334:1340   */\n      dup2\n        /* \"#utility.yul\":1331:1361   */\n      gt\n        /* \"#utility.yul\":1328:1445   */\n      iszero\n      tag_83\n      jumpi\n        /* \"#utility.yul\":1364:1443   */\n      tag_84\n      tag_40\n      jump\t// in\n    tag_84:\n        /* \"#utility.yul\":1328:1445   */\n    tag_83:\n        /* \"#utility.yul\":1478:1482   */\n      0x20\n        /* \"#utility.yul\":1470:1476   */\n      dup4\n        /* \"#utility.yul\":1466:1483   */\n      add\n        /* \"#utility.yul\":1454:1483   */\n      swap2\n      pop\n        /* \"#utility.yul\":1532:1535   */\n      dup4\n        /* \"#utility.yul\":1524:1528   */\n      0x01\n        /* \"#utility.yul\":1516:1522   */\n      dup3\n        /* \"#utility.yul\":1512:1529   */\n      mul\n        /* \"#utility.yul\":1502:1510   */\n      dup4\n        /* \"#utility.yul\":1498:1530   */\n      add\n        /* \"#utility.yul\":1495:1536   */\n      gt\n        /* \"#utility.yul\":1492:1620   */\n      iszero\n      tag_85\n      jumpi\n        /* \"#utility.yul\":1539:1618   */\n      tag_86\n      tag_41\n      jump\t// in\n    tag_86:\n        /* \"#utility.yul\":1492:1620   */\n    tag_85:\n        /* \"#utility.yul\":1073:1626   */\n      swap3\n      pop\n      swap3\n      swap1\n      pop\n      jump\t// out\n        /* \"#utility.yul\":1632:2306   */\n    tag_8:\n        /* \"#utility.yul\":1712:1718   */\n      0x00\n        /* \"#utility.yul\":1720:1726   */\n      dup1\n        /* \"#utility.yul\":1728:1734   */\n      0x00\n        /* \"#utility.yul\":1777:1779   */\n      0x40\n        /* \"#utility.yul\":1765:1774   */\n      dup5\n        /* \"#utility.yul\":1756:1763   */\n      dup7\n        /* \"#utility.yul\":1752:1775   */\n      sub\n        /* \"#utility.yul\":1748:1780   */\n      slt\n        /* \"#utility.yul\":1745:1864   */\n      iszero\n      tag_88\n      jumpi\n        /* \"#utility.yul\":1783:1862   */\n      tag_89\n      tag_34\n      jump\t// in\n    tag_89:\n        /* \"#utility.yul\":1745:1864   */\n    tag_88:\n        /* \"#utility.yul\":1903:1904   */\n      0x00\n        /* \"#utility.yul\":1928:1981   */\n      tag_90\n        /* \"#utility.yul\":1973:1980   */\n      dup7\n        /* \"#utility.yul\":1964:1970   */\n      dup3\n        /* \"#utility.yul\":1953:1962   */\n      dup8\n        /* \"#utility.yul\":1949:1971   */\n      add\n        /* \"#utility.yul\":1928:1981   */\n      tag_38\n      jump\t// in\n    tag_90:\n        /* \"#utility.yul\":1918:1981   */\n      swap4\n      pop\n        /* \"#utility.yul\":1874:1991   */\n      pop\n        /* \"#utility.yul\":2058:2060   */\n      0x20\n        /* \"#utility.yul\":2047:2056   */\n      dup5\n        /* \"#utility.yul\":2043:2061   */\n      add\n        /* \"#utility.yul\":2030:2062   */\n      calldataload\n        /* \"#utility.yul\":2089:2107   */\n      0xffffffffffffffff\n        /* \"#utility.yul\":2081:2087   */\n      dup2\n        /* \"#utility.yul\":2078:2108   */\n      gt\n        /* \"#utility.yul\":2075:2192   */\n      iszero\n      tag_91\n      jumpi\n        /* \"#utility.yul\":2111:2190   */\n      tag_92\n      tag_35\n      jump\t// in\n    tag_92:\n        /* \"#utility.yul\":2075:2192   */\n    tag_91:\n        /* \"#utility.yul\":2224:2289   */\n      tag_93\n        /* \"#utility.yul\":2281:2288   */\n      dup7\n        /* \"#utility.yul\":2272:2278   */\n      dup3\n        /* \"#utility.yul\":2261:2270   */\n      dup8\n        /* \"#utility.yul\":2257:2279   */\n      add\n        /* \"#utility.yul\":2224:2289   */\n      tag_42\n      jump\t// in\n    tag_93:\n        /* \"#utility.yul\":2206:2289   */\n      swap3\n      pop\n      swap3\n      pop\n        /* \"#utility.yul\":2001:2299   */\n      pop\n        /* \"#utility.yul\":1632:2306   */\n      swap3\n      pop\n      swap3\n      pop\n      swap3\n      jump\t// out\n        /* \"#utility.yul\":2312:2841   */\n    tag_12:\n        /* \"#utility.yul\":2383:2389   */\n      0x00\n        /* \"#utility.yul\":2391:2397   */\n      dup1\n        /* \"#utility.yul\":2440:2442   */\n      0x20\n        /* \"#utility.yul\":2428:2437   */\n      dup4\n        /* \"#utility.yul\":2419:2426   */\n      dup6\n        /* \"#utility.yul\":2415:2438   */\n      sub\n        /* \"#utility.yul\":2411:2443   */\n      slt\n        /* \"#utility.yul\":2408:2527   */\n      iszero\n      tag_95\n      jumpi\n        /* \"#utility.yul\":2446:2525   */\n      tag_96\n      tag_34\n      jump\t// in\n    tag_96:\n        /* \"#utility.yul\":2408:2527   */\n    tag_95:\n        /* \"#utility.yul\":2594:2595   */\n      0x00\n        /* \"#utility.yul\":2583:2592   */\n      dup4\n        /* \"#utility.yul\":2579:2596   */\n      add\n        /* \"#utility.yul\":2566:2597   */\n      calldataload\n        /* \"#utility.yul\":2624:2642   */\n      0xffffffffffffffff\n        /* \"#utility.yul\":2616:2622   */\n      dup2\n        /* \"#utility.yul\":2613:2643   */\n      gt\n        /* \"#utility.yul\":2610:2727   */\n      iszero\n      tag_97\n      jumpi\n        /* \"#utility.yul\":2646:2725   */\n      tag_98\n      tag_35\n      jump\t// in\n    tag_98:\n        /* \"#utility.yul\":2610:2727   */\n    tag_97:\n        /* \"#utility.yul\":2759:2824   */\n      tag_99\n        /* \"#utility.yul\":2816:2823   */\n      dup6\n        /* \"#utility.yul\":2807:2813   */\n      dup3\n        /* \"#utility.yul\":2796:2805   */\n      dup7\n        /* \"#utility.yul\":2792:2814   */\n      add\n        /* \"#utility.yul\":2759:2824   */\n      tag_42\n      jump\t// in\n    tag_99:\n        /* \"#utility.yul\":2741:2824   */\n      swap3\n      pop\n      swap3\n      pop\n        /* \"#utility.yul\":2537:2834   */\n      pop\n        /* \"#utility.yul\":2312:2841   */\n      swap3\n      pop\n      swap3\n      swap1\n      pop\n      jump\t// out\n        /* \"#utility.yul\":2847:3176   */\n    tag_16:\n        /* \"#utility.yul\":2906:2912   */\n      0x00\n        /* \"#utility.yul\":2955:2957   */\n      0x20\n        /* \"#utility.yul\":2943:2952   */\n      dup3\n        /* \"#utility.yul\":2934:2941   */\n      dup5\n        /* \"#utility.yul\":2930:2953   */\n      sub\n        /* \"#utility.yul\":2926:2958   */\n      slt\n        /* \"#utility.yul\":2923:3042   */\n      iszero\n      tag_101\n      jumpi\n        /* \"#utility.yul\":2961:3040   */\n      tag_102\n      tag_34\n      jump\t// in\n    tag_102:\n        /* \"#utility.yul\":2923:3042   */\n    tag_101:\n        /* \"#utility.yul\":3081:3082   */\n      0x00\n        /* \"#utility.yul\":3106:3159   */\n      tag_103\n        /* \"#utility.yul\":3151:3158   */\n      dup5\n        /* \"#utility.yul\":3142:3148   */\n      dup3\n        /* \"#utility.yul\":3131:3140   */\n      dup6\n        /* \"#utility.yul\":3127:3149   */\n      add\n        /* \"#utility.yul\":3106:3159   */\n      tag_38\n      jump\t// in\n    tag_103:\n        /* \"#utility.yul\":3096:3159   */\n      swap2\n      pop\n        /* \"#utility.yul\":3052:3169   */\n      pop\n        /* \"#utility.yul\":2847:3176   */\n      swap3\n      swap2\n      pop\n      pop\n      jump\t// out\n        /* \"#utility.yul\":3182:3281   */\n    tag_43:\n        /* \"#utility.yul\":3234:3240   */\n      0x00\n        /* \"#utility.yul\":3268:3273   */\n      dup2\n        /* \"#utility.yul\":3262:3274   */\n      mload\n        /* \"#utility.yul\":3252:3274   */\n      swap1\n      pop\n        /* \"#utility.yul\":3182:3281   */\n      swap2\n      swap1\n      pop\n      jump\t// out\n        /* \"#utility.yul\":3287:3456   */\n    tag_44:\n        /* \"#utility.yul\":3371:3382   */\n      0x00\n        /* \"#utility.yul\":3405:3411   */\n      dup3\n        /* \"#utility.yul\":3400:3403   */\n      dup3\n        /* \"#utility.yul\":3393:3412   */\n      mstore\n        /* \"#utility.yul\":3445:3449   */\n      0x20\n        /* \"#utility.yul\":3440:3443   */\n      dup3\n        /* \"#utility.yul\":3436:3450   */\n      add\n        /* \"#utility.yul\":3421:3450   */\n      swap1\n      pop\n        /* \"#utility.yul\":3287:3456   */\n      swap3\n      swap2\n      pop\n      pop\n      jump\t// out\n        /* \"#utility.yul\":3462:3708   */\n    tag_45:\n        /* \"#utility.yul\":3543:3544   */\n      0x00\n        /* \"#utility.yul\":3553:3666   */\n    tag_107:\n        /* \"#utility.yul\":3567:3573   */\n      dup4\n        /* \"#utility.yul\":3564:3565   */\n      dup2\n        /* \"#utility.yul\":3561:3574   */\n      lt\n        /* \"#utility.yul\":3553:3666   */\n      iszero\n      tag_109\n      jumpi\n        /* \"#utility.yul\":3652:3653   */\n      dup1\n        /* \"#utility.yul\":3647:3650   */\n      dup3\n        /* \"#utility.yul\":3643:3654   */\n      add\n        /* \"#utility.yul\":3637:3655   */\n      mload\n        /* \"#utility.yul\":3633:3634   */\n      dup2\n        /* \"#utility.yul\":3628:3631   */\n      dup5\n        /* \"#utility.yul\":3624:3635   */\n      add\n        /* \"#utility.yul\":3617:3656   */\n      mstore\n        /* \"#utility.yul\":3589:3591   */\n      0x20\n        /* \"#utility.yul\":3586:3587   */\n      dup2\n        /* \"#utility.yul\":3582:3592   */\n      add\n        /* \"#utility.yul\":3577:3592   */\n      swap1\n      pop\n        /* \"#utility.yul\":3553:3666   */\n      jump(tag_107)\n    tag_109:\n        /* \"#utility.yul\":3700:3701   */\n      0x00\n        /* \"#utility.yul\":3691:3697   */\n      dup5\n        /* \"#utility.yul\":3686:3689   */\n      dup5\n        /* \"#utility.yul\":3682:3698   */\n      add\n        /* \"#utility.yul\":3675:3702   */\n      mstore\n        /* \"#utility.yul\":3524:3708   */\n      pop\n        /* \"#utility.yul\":3462:3708   */\n      pop\n      pop\n      pop\n      jump\t// out\n        /* \"#utility.yul\":3714:3816   */\n    tag_46:\n        /* \"#utility.yul\":3755:3761   */\n      0x00\n        /* \"#utility.yul\":3806:3808   */\n      0x1f\n        /* \"#utility.yul\":3802:3809   */\n      not\n        /* \"#utility.yul\":3797:3799   */\n      0x1f\n        /* \"#utility.yul\":3790:3795   */\n      dup4\n        /* \"#utility.yul\":3786:3800   */\n      add\n        /* \"#utility.yul\":3782:3810   */\n      and\n        /* \"#utility.yul\":3772:3810   */\n      swap1\n      pop\n        /* \"#utility.yul\":3714:3816   */\n      swap2\n      swap1\n      pop\n      jump\t// out\n        /* \"#utility.yul\":3822:4199   */\n    tag_47:\n        /* \"#utility.yul\":3910:3913   */\n      0x00\n        /* \"#utility.yul\":3938:3977   */\n      tag_112\n        /* \"#utility.yul\":3971:3976   */\n      dup3\n        /* \"#utility.yul\":3938:3977   */\n      tag_43\n      jump\t// in\n    tag_112:\n        /* \"#utility.yul\":3993:4064   */\n      tag_113\n        /* \"#utility.yul\":4057:4063   */\n      dup2\n        /* \"#utility.yul\":4052:4055   */\n      dup6\n        /* \"#utility.yul\":3993:4064   */\n      tag_44\n      jump\t// in\n    tag_113:\n        /* \"#utility.yul\":3986:4064   */\n      swap4\n      pop\n        /* \"#utility.yul\":4073:4138   */\n      tag_114\n        /* \"#utility.yul\":4131:4137   */\n      dup2\n        /* \"#utility.yul\":4126:4129   */\n      dup6\n        /* \"#utility.yul\":4119:4123   */\n      0x20\n        /* \"#utility.yul\":4112:4117   */\n      dup7\n        /* \"#utility.yul\":4108:4124   */\n      add\n        /* \"#utility.yul\":4073:4138   */\n      tag_45\n      jump\t// in\n    tag_114:\n        /* \"#utility.yul\":4163:4192   */\n      tag_115\n        /* \"#utility.yul\":4185:4191   */\n      dup2\n        /* \"#utility.yul\":4163:4192   */\n      tag_46\n      jump\t// in\n    tag_115:\n        /* \"#utility.yul\":4158:4161   */\n      dup5\n        /* \"#utility.yul\":4154:4193   */\n      add\n        /* \"#utility.yul\":4147:4193   */\n      swap2\n      pop\n        /* \"#utility.yul\":3914:4199   */\n      pop\n        /* \"#utility.yul\":3822:4199   */\n      swap3\n      swap2\n      pop\n      pop\n      jump\t// out\n        /* \"#utility.yul\":4205:4295   */\n    tag_48:\n        /* \"#utility.yul\":4239:4246   */\n      0x00\n        /* \"#utility.yul\":4282:4287   */\n      dup2\n        /* \"#utility.yul\":4275:4288   */\n      iszero\n        /* \"#utility.yul\":4268:4289   */\n      iszero\n        /* \"#utility.yul\":4257:4289   */\n      swap1\n      pop\n        /* \"#utility.yul\":4205:4295   */\n      swap2\n      swap1\n      pop\n      jump\t// out\n        /* \"#utility.yul\":4301:4410   */\n    tag_49:\n        /* \"#utility.yul\":4382:4403   */\n      tag_118\n        /* \"#utility.yul\":4397:4402   */\n      dup2\n        /* \"#utility.yul\":4382:4403   */\n      tag_48\n      jump\t// in\n    tag_118:\n        /* \"#utility.yul\":4377:4380   */\n      dup3\n        /* \"#utility.yul\":4370:4404   */\n      mstore\n        /* \"#utility.yul\":4301:4410   */\n      pop\n      pop\n      jump\t// out\n        /* \"#utility.yul\":4416:4827   */\n    tag_19:\n        /* \"#utility.yul\":4551:4555   */\n      0x00\n        /* \"#utility.yul\":4589:4591   */\n      0x40\n        /* \"#utility.yul\":4578:4587   */\n      dup3\n        /* \"#utility.yul\":4574:4592   */\n      add\n        /* \"#utility.yul\":4566:4592   */\n      swap1\n      pop\n        /* \"#utility.yul\":4638:4647   */\n      dup2\n        /* \"#utility.yul\":4632:4636   */\n      dup2\n        /* \"#utility.yul\":4628:4648   */\n      sub\n        /* \"#utility.yul\":4624:4625   */\n      0x00\n        /* \"#utility.yul\":4613:4622   */\n      dup4\n        /* \"#utility.yul\":4609:4626   */\n      add\n        /* \"#utility.yul\":4602:4649   */\n      mstore\n        /* \"#utility.yul\":4666:4744   */\n      tag_120\n        /* \"#utility.yul\":4739:4743   */\n      dup2\n        /* \"#utility.yul\":4730:4736   */\n      dup6\n        /* \"#utility.yul\":4666:4744   */\n      tag_47\n      jump\t// in\n    tag_120:\n        /* \"#utility.yul\":4658:4744   */\n      swap1\n      pop\n        /* \"#utility.yul\":4754:4820   */\n      tag_121\n        /* \"#utility.yul\":4816:4818   */\n      0x20\n        /* \"#utility.yul\":4805:4814   */\n      dup4\n        /* \"#utility.yul\":4801:4819   */\n      add\n        /* \"#utility.yul\":4792:4798   */\n      dup5\n        /* \"#utility.yul\":4754:4820   */\n      tag_49\n      jump\t// in\n    tag_121:\n        /* \"#utility.yul\":4416:4827   */\n      swap4\n      swap3\n      pop\n      pop\n      pop\n      jump\t// out\n        /* \"#utility.yul\":4833:5013   */\n    tag_50:\n        /* \"#utility.yul\":4881:4958   */\n      0x4e487b7100000000000000000000000000000000000000000000000000000000\n        /* \"#utility.yul\":4878:4879   */\n      0x00\n        /* \"#utility.yul\":4871:4959   */\n      mstore\n        /* \"#utility.yul\":4978:4982   */\n      0x41\n        /* \"#utility.yul\":4975:4976   */\n      0x04\n        /* \"#utility.yul\":4968:4983   */\n      mstore\n        /* \"#utility.yul\":5002:5006   */\n      0x24\n        /* \"#utility.yul\":4999:5000   */\n      0x00\n        /* \"#utility.yul\":4992:5007   */\n      revert\n        /* \"#utility.yul\":5019:5199   */\n    tag_51:\n        /* \"#utility.yul\":5067:5144   */\n      0x4e487b7100000000000000000000000000000000000000000000000000000000\n        /* \"#utility.yul\":5064:5065   */\n      0x00\n        /* \"#utility.yul\":5057:5145   */\n      mstore\n        /* \"#utility.yul\":5164:5168   */\n      0x22\n        /* \"#utility.yul\":5161:5162   */\n      0x04\n        /* \"#utility.yul\":5154:5169   */\n      mstore\n        /* \"#utility.yul\":5188:5192   */\n      0x24\n        /* \"#utility.yul\":5185:5186   */\n      0x00\n        /* \"#utility.yul\":5178:5193   */\n      revert\n        /* \"#utility.yul\":5205:5525   */\n    tag_28:\n        /* \"#utility.yul\":5249:5255   */\n      0x00\n        /* \"#utility.yul\":5286:5287   */\n      0x02\n        /* \"#utility.yul\":5280:5284   */\n      dup3\n        /* \"#utility.yul\":5276:5288   */\n      div\n        /* \"#utility.yul\":5266:5288   */\n      swap1\n      pop\n        /* \"#utility.yul\":5333:5334   */\n      0x01\n        /* \"#utility.yul\":5327:5331   */\n      dup3\n        /* \"#utility.yul\":5323:5335   */\n      and\n        /* \"#utility.yul\":5354:5372   */\n      dup1\n        /* \"#utility.yul\":5344:5425   */\n      tag_125\n      jumpi\n        /* \"#utility.yul\":5410:5414   */\n      0x7f\n        /* \"#utility.yul\":5402:5408   */\n      dup3\n        /* \"#utility.yul\":5398:5415   */\n      and\n        /* \"#utility.yul\":5388:5415   */\n      swap2\n      pop\n        /* \"#utility.yul\":5344:5425   */\n    tag_125:\n        /* \"#utility.yul\":5472:5474   */\n      0x20\n        /* \"#utility.yul\":5464:5470   */\n      dup3\n        /* \"#utility.yul\":5461:5475   */\n      lt\n        /* \"#utility.yul\":5441:5459   */\n      dup2\n        /* \"#utility.yul\":5438:5476   */\n      sub\n        /* \"#utility.yul\":5435:5519   */\n      tag_126\n      jumpi\n        /* \"#utility.yul\":5491:5509   */\n      tag_127\n      tag_51\n      jump\t// in\n    tag_127:\n        /* \"#utility.yul\":5435:5519   */\n    tag_126:\n        /* \"#utility.yul\":5256:5525   */\n      pop\n        /* \"#utility.yul\":5205:5525   */\n      swap2\n      swap1\n      pop\n      jump\t// out\n        /* \"#utility.yul\":5531:5672   */\n    tag_52:\n        /* \"#utility.yul\":5580:5584   */\n      0x00\n        /* \"#utility.yul\":5603:5606   */\n      dup2\n        /* \"#utility.yul\":5595:5606   */\n      swap1\n      pop\n        /* \"#utility.yul\":5626:5629   */\n      dup2\n        /* \"#utility.yul\":5623:5624   */\n      0x00\n        /* \"#utility.yul\":5616:5630   */\n      mstore\n        /* \"#utility.yul\":5660:5664   */\n      0x20\n        /* \"#utility.yul\":5657:5658   */\n      0x00\n        /* \"#utility.yul\":5647:5665   */\n      keccak256\n        /* \"#utility.yul\":5639:5665   */\n      swap1\n      pop\n        /* \"#utility.yul\":5531:5672   */\n      swap2\n      swap1\n      pop\n      jump\t// out\n        /* \"#utility.yul\":5678:5771   */\n    tag_53:\n        /* \"#utility.yul\":5715:5721   */\n      0x00\n        /* \"#utility.yul\":5762:5764   */\n      0x20\n        /* \"#utility.yul\":5757:5759   */\n      0x1f\n        /* \"#utility.yul\":5750:5755   */\n      dup4\n        /* \"#utility.yul\":5746:5760   */\n      add\n        /* \"#utility.yul\":5742:5765   */\n      div\n        /* \"#utility.yul\":5732:5765   */\n      swap1\n      pop\n        /* \"#utility.yul\":5678:5771   */\n      swap2\n      swap1\n      pop\n      jump\t// out\n        /* \"#utility.yul\":5777:5884   */\n    tag_54:\n        /* \"#utility.yul\":5821:5829   */\n      0x00\n        /* \"#utility.yul\":5871:5876   */\n      dup3\n        /* \"#utility.yul\":5865:5869   */\n      dup3\n        /* \"#utility.yul\":5861:5877   */\n      shl\n        /* \"#utility.yul\":5840:5877   */\n      swap1\n      pop\n        /* \"#utility.yul\":5777:5884   */\n      swap3\n      swap2\n      pop\n      pop\n      jump\t// out\n        /* \"#utility.yul\":5890:6283   */\n    tag_55:\n        /* \"#utility.yul\":5959:5965   */\n      0x00\n        /* \"#utility.yul\":6009:6010   */\n      0x08\n        /* \"#utility.yul\":5997:6007   */\n      dup4\n        /* \"#utility.yul\":5993:6011   */\n      mul\n        /* \"#utility.yul\":6032:6129   */\n      tag_132\n        /* \"#utility.yul\":6062:6128   */\n      0xffffffffffffffffffffffffffffffffffffffffffffffffffffffffffffffff\n        /* \"#utility.yul\":6051:6060   */\n      dup3\n        /* \"#utility.yul\":6032:6129   */\n      tag_54\n      jump\t// in\n    tag_132:\n        /* \"#utility.yul\":6150:6189   */\n      tag_133\n        /* \"#utility.yul\":6180:6188   */\n      dup7\n        /* \"#utility.yul\":6169:6178   */\n      dup4\n        /* \"#utility.yul\":6150:6189   */\n      tag_54\n      jump\t// in\n    tag_133:\n        /* \"#utility.yul\":6138:6189   */\n      swap6\n      pop\n        /* \"#utility.yul\":6222:6226   */\n      dup1\n        /* \"#utility.yul\":6218:6227   */\n      not\n        /* \"#utility.yul\":6211:6216   */\n      dup5\n        /* \"#utility.yul\":6207:6228   */\n      and\n        /* \"#utility.yul\":6198:6228   */\n      swap4\n      pop\n        /* \"#utility.yul\":6271:6275   */\n      dup1\n        /* \"#utility.yul\":6261:6269   */\n      dup7\n        /* \"#utility.yul\":6257:6276   */\n      and\n        /* \"#utility.yul\":6250:6255   */\n      dup5\n        /* \"#utility.yul\":6247:6277   */\n      or\n        /* \"#utility.yul\":6237:6277   */\n      swap3\n      pop\n        /* \"#utility.yul\":5966:6283   */\n      pop\n      pop\n        /* \"#utility.yul\":5890:6283   */\n      swap4\n      swap3\n      pop\n      pop\n      pop\n      jump\t// out\n        /* \"#utility.yul\":6289:6349   */\n    tag_56:\n        /* \"#utility.yul\":6317:6320   */\n      0x00\n        /* \"#utility.yul\":6338:6343   */\n      dup2\n        /* \"#utility.yul\":6331:6343   */\n      swap1\n      pop\n        /* \"#utility.yul\":6289:6349   */\n      swap2\n      swap1\n      pop\n      jump\t// out\n        /* \"#utility.yul\":6355:6497   */\n    tag_57:\n        /* \"#utility.yul\":6405:6414   */\n      0x00\n        /* \"#utility.yul\":6438:6491   */\n      tag_136\n        /* \"#utility.yul\":6456:6490   */\n      tag_137\n        /* \"#utility.yul\":6465:6489   */\n      tag_138\n        /* \"#utility.yul\":6483:6488   */\n      dup5\n        /* \"#utility.yul\":6465:6489   */\n      tag_36\n      jump\t// in\n    tag_138:\n        /* \"#utility.yul\":6456:6490   */\n      tag_56\n      jump\t// in\n    tag_137:\n        /* \"#utility.yul\":6438:6491   */\n      tag_36\n      jump\t// in\n    tag_136:\n        /* \"#utility.yul\":6425:6491   */\n      swap1\n      pop\n        /* \"#utility.yul\":6355:6497   */\n      swap2\n      swap1\n      pop\n      jump\t// out\n        /* \"#utility.yul\":6503:6578   */\n    tag_58:\n        /* \"#utility.yul\":6546:6549   */\n      0x00\n        /* \"#utility.yul\":6567:6572   */\n      dup2\n        /* \"#utility.yul\":6560:6572   */\n      swap1\n      pop\n        /* \"#utility.yul\":6503:6578   */\n      swap2\n      swap1\n      pop\n      jump\t// out\n        /* \"#utility.yul\":6584:6853   */\n    tag_59:\n        /* \"#utility.yul\":6694:6733   */\n      tag_141\n        /* \"#utility.yul\":6725:6732   */\n      dup4\n        /* \"#utility.yul\":6694:6733   */\n      tag_57\n      jump\t// in\n    tag_141:\n        /* \"#utility.yul\":6755:6846   */\n      tag_142\n        /* \"#utility.yul\":6804:6845   */\n      tag_143\n        /* \"#utility.yul\":6828:6844   */\n      dup3\n        /* \"#utility.yul\":6804:6845   */\n      tag_58\n      jump\t// in\n    tag_143:\n        /* \"#utility.yul\":6796:6802   */\n      dup5\n        /* \"#utility.yul\":6789:6793   */\n      dup5\n        /* \"#utility.yul\":6783:6794   */\n      sload\n        /* \"#utility.yul\":6755:6846   */\n      tag_55\n      jump\t// in\n    tag_142:\n        /* \"#utility.yul\":6749:6753   */\n      dup3\n        /* \"#utility.yul\":6742:6847   */\n      sstore\n        /* \"#utility.yul\":6660:6853   */\n      pop\n        /* \"#utility.yul\":6584:6853   */\n      pop\n      pop\n      pop\n      jump\t// out\n        /* \"#utility.yul\":6859:6932   */\n    tag_60:\n        /* \"#utility.yul\":6904:6907   */\n      0x00\n        /* \"#utility.yul\":6859:6932   */\n      swap1\n      jump\t// out\n        /* \"#utility.yul\":6938:7127   */\n    tag_61:\n        /* \"#utility.yul\":7015:7047   */\n      tag_146\n      tag_60\n      jump\t// in\n    tag_146:\n        /* \"#utility.yul\":7056:7121   */\n      tag_147\n        /* \"#utility.yul\":7114:7120   */\n      dup2\n        /* \"#utility.yul\":7106:7112   */\n      dup5\n        /* \"#utility.yul\":7100:7104   */\n      dup5\n        /* \"#utility.yul\":7056:7121   */\n      tag_59\n      jump\t// in\n    tag_147:\n        /* \"#utility.yul\":6991:7127   */\n      pop\n        /* \"#utility.yul\":6938:7127   */\n      pop\n      pop\n      jump\t// out\n        /* \"#utility.yul\":7133:7319   */\n    tag_62:\n        /* \"#utility.yul\":7193:7313   */\n    tag_149:\n        /* \"#utility.yul\":7210:7213   */\n      dup2\n        /* \"#utility.yul\":7203:7208   */\n      dup2\n        /* \"#utility.yul\":7200:7214   */\n      lt\n        /* \"#utility.yul\":7193:7313   */\n      iszero\n      tag_151\n      jumpi\n        /* \"#utility.yul\":7264:7303   */\n      tag_152\n        /* \"#utility.yul\":7301:7302   */\n      0x00\n        /* \"#utility.yul\":7294:7299   */\n      dup3\n        /* \"#utility.yul\":7264:7303   */\n      tag_61\n      jump\t// in\n    tag_152:\n        /* \"#utility.yul\":7237:7238   */\n      0x01\n        /* \"#utility.yul\":7230:7235   */\n      dup2\n        /* \"#utility.yul\":7226:7239   */\n      add\n        /* \"#utility.yul\":7217:7239   */\n      swap1\n      pop\n        /* \"#utility.yul\":7193:7313   */\n      jump(tag_149)\n    tag_151:\n        /* \"#utility.yul\":7133:7319   */\n      pop\n      pop\n      jump\t// out\n        /* \"#utility.yul\":7325:7868   */\n    tag_63:\n        /* \"#utility.yul\":7426:7428   */\n      0x1f\n        /* \"#utility.yul\":7421:7424   */\n      dup3\n        /* \"#utility.yul\":7418:7429   */\n      gt\n        /* \"#utility.yul\":7415:7861   */\n      iszero\n      tag_154\n      jumpi\n        /* \"#utility.yul\":7460:7498   */\n      tag_155\n        /* \"#utility.yul\":7492:7497   */\n      dup2\n        /* \"#utility.yul\":7460:7498   */\n      tag_52\n      jump\t// in\n    tag_155:\n        /* \"#utility.yul\":7544:7573   */\n      tag_156\n        /* \"#utility.yul\":7562:7572   */\n      dup5\n        /* \"#utility.yul\":7544:7573   */\n      tag_53\n      jump\t// in\n    tag_156:\n        /* \"#utility.yul\":7534:7542   */\n      dup2\n        /* \"#utility.yul\":7530:7574   */\n      add\n        /* \"#utility.yul\":7727:7729   */\n      0x20\n        /* \"#utility.yul\":7715:7725   */\n      dup6\n        /* \"#utility.yul\":7712:7730   */\n      lt\n        /* \"#utility.yul\":7709:7758   */\n      iszero\n      tag_157\n      jumpi\n        /* \"#utility.yul\":7748:7756   */\n      dup2\n        /* \"#utility.yul\":7733:7756   */\n      swap1\n      pop\n        /* \"#utility.yul\":7709:7758   */\n    tag_157:\n        /* \"#utility.yul\":7771:7851   */\n      tag_158\n        /* \"#utility.yul\":7827:7849   */\n      tag_159\n        /* \"#utility.yul\":7845:7848   */\n      dup6\n        /* \"#utility.yul\":7827:7849   */\n      tag_53\n      jump\t// in\n    tag_159:\n        /* \"#utility.yul\":7817:7825   */\n      dup4\n        /* \"#utility.yul\":7813:7850   */\n      add\n        /* \"#utility.yul\":7800:7811   */\n      dup3\n        /* \"#utility.yul\":7771:7851   */\n      tag_62\n      jump\t// in\n    tag_158:\n        /* \"#utility.yul\":7430:7861   */\n      pop\n      pop\n        /* \"#utility.yul\":7415:7861   */\n    tag_154:\n        /* \"#utility.yul\":7325:7868   */\n      pop\n      pop\n      pop\n      jump\t// out\n        /* \"#utility.yul\":7874:7991   */\n    tag_64:\n        /* \"#utility.yul\":7928:7936   */\n      0x00\n        /* \"#utility.yul\":7978:7983   */\n      dup3\n        /* \"#utility.yul\":7972:7976   */\n      dup3\n        /* \"#utility.yul\":7968:7984   */\n      shr\n        /* \"#utility.yul\":7947:7984   */\n      swap1\n      pop\n        /* \"#utility.yul\":7874:7991   */\n      swap3\n      swap2\n      pop\n      pop\n      jump\t// out\n        /* \"#utility.yul\":7997:8166   */\n    tag_65:\n        /* \"#utility.yul\":8041:8047   */\n      0x00\n        /* \"#utility.yul\":8074:8125   */\n      tag_162\n        /* \"#utility.yul\":8122:8123   */\n      0x00\n        /* \"#utility.yul\":8118:8124   */\n      not\n        /* \"#utility.yul\":8110:8115   */\n      dup5\n        /* \"#utility.yul\":8107:8108   */\n      0x08\n        /* \"#utility.yul\":8103:8116   */\n      mul\n        /* \"#utility.yul\":8074:8125   */\n      tag_64\n      jump\t// in\n    tag_162:\n        /* \"#utility.yul\":8070:8126   */\n      not\n        /* \"#utility.yul\":8155:8159   */\n      dup1\n        /* \"#utility.yul\":8149:8153   */\n      dup4\n        /* \"#utility.yul\":8145:8160   */\n      and\n        /* \"#utility.yul\":8135:8160   */\n      swap2\n      pop\n        /* \"#utility.yul\":8048:8166   */\n      pop\n        /* \"#utility.yul\":7997:8166   */\n      swap3\n      swap2\n      pop\n      pop\n      jump\t// out\n        /* \"#utility.yul\":8171:8466   */\n    tag_66:\n        /* \"#utility.yul\":8247:8251   */\n      0x00\n        /* \"#utility.yul\":8393:8422   */\n      tag_164\n        /* \"#utility.yul\":8418:8421   */\n      dup4\n        /* \"#utility.yul\":8412:8416   */\n      dup4\n        /* \"#utility.yul\":8393:8422   */\n      tag_65\n      jump\t// in\n    tag_164:\n        /* \"#utility.yul\":8385:8422   */\n      swap2\n      pop\n        /* \"#utility.yul\":8455:8458   */\n      dup3\n        /* \"#utility.yul\":8452:8453   */\n      0x02\n        /* \"#utility.yul\":8448:8459   */\n      mul\n        /* \"#utility.yul\":8442:8446   */\n      dup3\n        /* \"#utility.yul\":8439:8460   */\n      or\n        /* \"#utility.yul\":8431:8460   */\n      swap1\n      pop\n        /* \"#utility.yul\":8171:8466   */\n      swap3\n      swap2\n      pop\n      pop\n      jump\t// out\n        /* \"#utility.yul\":8471:9866   */\n    tag_24:\n        /* \"#utility.yul\":8588:8625   */\n      tag_166\n        /* \"#utility.yul\":8621:8624   */\n      dup3\n        /* \"#utility.yul\":8588:8625   */\n      tag_43\n      jump\t// in\n    tag_166:\n        /* \"#utility.yul\":8690:8708   */\n      0xffffffffffffffff\n        /* \"#utility.yul\":8682:8688   */\n      dup2\n        /* \"#utility.yul\":8679:8709   */\n      gt\n        /* \"#utility.yul\":8676:8732   */\n      iszero\n      tag_167\n      jumpi\n        /* \"#utility.yul\":8712:8730   */\n      tag_168\n      tag_50\n      jump\t// in\n    tag_168:\n        /* \"#utility.yul\":8676:8732   */\n    tag_167:\n        /* \"#utility.yul\":8756:8794   */\n      tag_169\n        /* \"#utility.yul\":8788:8792   */\n      dup3\n        /* \"#utility.yul\":8782:8793   */\n      sload\n        /* \"#utility.yul\":8756:8794   */\n      tag_28\n      jump\t// in\n    tag_169:\n        /* \"#utility.yul\":8841:8908   */\n      tag_170\n        /* \"#utility.yul\":8901:8907   */\n      dup3\n        /* \"#utility.yul\":8893:8899   */\n      dup3\n        /* \"#utility.yul\":8887:8891   */\n      dup6\n        /* \"#utility.yul\":8841:8908   */\n      tag_63\n      jump\t// in\n    tag_170:\n        /* \"#utility.yul\":8935:8936   */\n      0x00\n        /* \"#utility.yul\":8959:8963   */\n      0x20\n        /* \"#utility.yul\":8946:8963   */\n      swap1\n      pop\n        /* \"#utility.yul\":8991:8993   */\n      0x1f\n        /* \"#utility.yul\":8983:8989   */\n      dup4\n        /* \"#utility.yul\":8980:8994   */\n      gt\n        /* \"#utility.yul\":9008:9009   */\n      0x01\n        /* \"#utility.yul\":9003:9621   */\n      dup2\n      eq\n      tag_172\n      jumpi\n        /* \"#utility.yul\":9665:9666   */\n      0x00\n        /* \"#utility.yul\":9682:9688   */\n      dup5\n        /* \"#utility.yul\":9679:9756   */\n      iszero\n      tag_173\n      jumpi\n        /* \"#utility.yul\":9731:9740   */\n      dup3\n        /* \"#utility.yul\":9726:9729   */\n      dup8\n        /* \"#utility.yul\":9722:9741   */\n      add\n        /* \"#utility.yul\":9716:9742   */\n      mload\n        /* \"#utility.yul\":9707:9742   */\n      swap1\n      pop\n        /* \"#utility.yul\":9679:9756   */\n    tag_173:\n        /* \"#utility.yul\":9782:9849   */\n      tag_174\n        /* \"#utility.yul\":9842:9848   */\n      dup6\n        /* \"#utility.yul\":9835:9840   */\n      dup3\n        /* \"#utility.yul\":9782:9849   */\n      tag_66\n      jump\t// in\n    tag_174:\n        /* \"#utility.yul\":9776:9780   */\n      dup7\n        /* \"#utility.yul\":9769:9850   */\n      sstore\n        /* \"#utility.yul\":9638:9860   */\n      pop\n        /* \"#utility.yul\":8973:9860   */\n      jump(tag_171)\n        /* \"#utility.yul\":9003:9621   */\n    tag_172:\n        /* \"#utility.yul\":9055:9059   */\n      0x1f\n        /* \"#utility.yul\":9051:9060   */\n      not\n        /* \"#utility.yul\":9043:9049   */\n      dup5\n        /* \"#utility.yul\":9039:9061   */\n      and\n        /* \"#utility.yul\":9089:9126   */\n      tag_175\n        /* \"#utility.yul\":9121:9125   */\n      dup7\n        /* \"#utility.yul\":9089:9126   */\n      tag_52\n      jump\t// in\n    tag_175:\n        /* \"#utility.yul\":9148:9149   */\n      0x00\n        /* \"#utility.yul\":9162:9370   */\n    tag_176:\n        /* \"#utility.yul\":9176:9183   */\n      dup3\n        /* \"#utility.yul\":9173:9174   */\n      dup2\n        /* \"#utility.yul\":9170:9184   */\n      lt\n        /* \"#utility.yul\":9162:9370   */\n      iszero\n      tag_178\n      jumpi\n        /* \"#utility.yul\":9255:9264   */\n      dup5\n        /* \"#utility.yul\":9250:9253   */\n      dup10\n        /* \"#utility.yul\":9246:9265   */\n      add\n        /* \"#utility.yul\":9240:9266   */\n      mload\n        /* \"#utility.yul\":9232:9238   */\n      dup3\n        /* \"#utility.yul\":9225:9267   */\n      sstore\n        /* \"#utility.yul\":9306:9307   */\n      0x01\n        /* \"#utility.yul\":9298:9304   */\n      dup3\n        /* \"#utility.yul\":9294:9308   */\n      add\n        /* \"#utility.yul\":9284:9308   */\n      swap2\n      pop\n        /* \"#utility.yul\":9353:9355   */\n      0x20\n        /* \"#utility.yul\":9342:9351   */\n      dup6\n        /* \"#utility.yul\":9338:9356   */\n      add\n        /* \"#utility.yul\":9325:9356   */\n      swap5\n      pop\n        /* \"#utility.yul\":9199:9203   */\n      0x20\n        /* \"#utility.yul\":9196:9197   */\n      dup2\n        /* \"#utility.yul\":9192:9204   */\n      add\n        /* \"#utility.yul\":9187:9204   */\n      swap1\n      pop\n        /* \"#utility.yul\":9162:9370   */\n      jump(tag_176)\n    tag_178:\n        /* \"#utility.yul\":9398:9404   */\n      dup7\n        /* \"#utility.yul\":9389:9396   */\n      dup4\n        /* \"#utility.yul\":9386:9405   */\n      lt\n        /* \"#utility.yul\":9383:9562   */\n      iszero\n      tag_179\n      jumpi\n        /* \"#utility.yul\":9456:9465   */\n      dup5\n        /* \"#utility.yul\":9451:9454   */\n      dup10\n        /* \"#utility.yul\":9447:9466   */\n      add\n        /* \"#utility.yul\":9441:9467   */\n      mload\n        /* \"#utility.yul\":9499:9547   */\n      tag_180\n        /* \"#utility.yul\":9541:9545   */\n      0x1f\n        /* \"#utility.yul\":9533:9539   */\n      dup10\n        /* \"#utility.yul\":9529:9546   */\n      and\n        /* \"#utility.yul\":9518:9527   */\n      dup3\n        /* \"#utility.yul\":9499:9547   */\n      tag_65\n      jump\t// in\n    tag_180:\n        /* \"#utility.yul\":9491:9497   */\n      dup4\n        /* \"#utility.yul\":9484:9548   */\n      sstore\n        /* \"#utility.yul\":9406:9562   */\n      pop\n        /* \"#utility.yul\":9383:9562   */\n    tag_179:\n        /* \"#utility.yul\":9608:9609   */\n      0x01\n        /* \"#utility.yul\":9604:9605   */\n      0x02\n        /* \"#utility.yul\":9596:9602   */\n      dup9\n        /* \"#utility.yul\":9592:9606   */\n      mul\n        /* \"#utility.yul\":9588:9610   */\n      add\n        /* \"#utility.yul\":9582:9586   */\n      dup9\n        /* \"#utility.yul\":9575:9611   */\n      sstore\n        /* \"#utility.yul\":9010:9621   */\n      pop\n      pop\n      pop\n        /* \"#utility.yul\":8973:9860   */\n    tag_171:\n      pop\n        /* \"#utility.yul\":8563:9866   */\n      pop\n      pop\n      pop\n        /* \"#utility.yul\":8471:9866   */\n      pop\n      pop\n      jump\t// out\n\n    auxdata: 0xa26469706673582212207cae30a5fe1783418cb196d576450aa6b0c81b4a68f04b720ed5ebb7ae9355ac64736f6c63430008110033\n}\n",
				"bytecode": {
					"linkReferences": {},
					"object": "608060405234801561001057600080fd5b506107dd806100206000396000f3fe608060405234801561001057600080fd5b50600436106100415760003560e01c8063860bbc0014610046578063b6a46b3b14610062578063bc8bc2b41461007e575b600080fd5b610060600480360381019061005b91906102e5565b6100af565b005b61007c60048036038101906100779190610345565b6100b4565b005b61009860048036038101906100939190610392565b610177565b6040516100a692919061046a565b60405180910390f35b505050565b6000604051806040016040528084848080601f016020809104026020016040519081016040528093929190818152602001838380828437600081840152601f19601f820116905080830192505050505050508152602001600015158152509080600181540180825580915050600190039060005260206000209060020201600090919091909150600082015181600001908161015091906106d5565b5060208201518160010160006101000a81548160ff02191690831515021790555050505050565b6000818154811061018757600080fd5b90600052602060002090600202016000915090508060000180546101aa906104f8565b80601f01602080910402602001604051908101604052809291908181526020018280546101d6906104f8565b80156102235780601f106101f857610100808354040283529160200191610223565b820191906000526020600020905b81548152906001019060200180831161020657829003601f168201915b5050505050908060010160009054906101000a900460ff16905082565b600080fd5b600080fd5b6000819050919050565b61025d8161024a565b811461026857600080fd5b50565b60008135905061027a81610254565b92915050565b600080fd5b600080fd5b600080fd5b60008083601f8401126102a5576102a4610280565b5b8235905067ffffffffffffffff8111156102c2576102c1610285565b5b6020830191508360018202830111156102de576102dd61028a565b5b9250929050565b6000806000604084860312156102fe576102fd610240565b5b600061030c8682870161026b565b935050602084013567ffffffffffffffff81111561032d5761032c610245565b5b6103398682870161028f565b92509250509250925092565b6000806020838503121561035c5761035b610240565b5b600083013567ffffffffffffffff81111561037a57610379610245565b5b6103868582860161028f565b92509250509250929050565b6000602082840312156103a8576103a7610240565b5b60006103b68482850161026b565b91505092915050565b600081519050919050565b600082825260208201905092915050565b60005b838110156103f95780820151818401526020810190506103de565b60008484015250505050565b6000601f19601f8301169050919050565b6000610421826103bf565b61042b81856103ca565b935061043b8185602086016103db565b61044481610405565b840191505092915050565b60008115159050919050565b6104648161044f565b82525050565b600060408201905081810360008301526104848185610416565b9050610493602083018461045b565b9392505050565b7f4e487b7100000000000000000000000000000000000000000000000000000000600052604160045260246000fd5b7f4e487b7100000000000000000000000000000000000000000000000000000000600052602260045260246000fd5b6000600282049050600182168061051057607f821691505b602082108103610523576105226104c9565b5b50919050565b60008190508160005260206000209050919050565b60006020601f8301049050919050565b600082821b905092915050565b60006008830261058b7fffffffffffffffffffffffffffffffffffffffffffffffffffffffffffffffff8261054e565b610595868361054e565b95508019841693508086168417925050509392505050565b6000819050919050565b60006105d26105cd6105c88461024a565b6105ad565b61024a565b9050919050565b6000819050919050565b6105ec836105b7565b6106006105f8826105d9565b84845461055b565b825550505050565b600090565b610615610608565b6106208184846105e3565b505050565b5b818110156106445761063960008261060d565b600181019050610626565b5050565b601f8211156106895761065a81610529565b6106638461053e565b81016020851015610672578190505b61068661067e8561053e565b830182610625565b50505b505050565b600082821c905092915050565b60006106ac6000198460080261068e565b1980831691505092915050565b60006106c5838361069b565b9150826002028217905092915050565b6106de826103bf565b67ffffffffffffffff8111156106f7576106f661049a565b5b61070182546104f8565b61070c828285610648565b600060209050601f83116001811461073f576000841561072d578287015190505b61073785826106b9565b86555061079f565b601f19841661074d86610529565b60005b8281101561077557848901518255600182019150602085019450602081019050610750565b86831015610792578489015161078e601f89168261069b565b8355505b6001600288020188555050505b50505050505056fea26469706673582212207cae30a5fe1783418cb196d576450aa6b0c81b4a68f04b720ed5ebb7ae9355ac64736f6c63430008110033",
					"opcodes": "PUSH1 0x80 PUSH1 0x40 MSTORE CALLVALUE DUP1 ISZERO PUSH2 0x10 JUMPI PUSH1 0x0 DUP1 REVERT JUMPDEST POP PUSH2 0x7DD DUP1 PUSH2 0x20 PUSH1 0x0 CODECOPY PUSH1 0x0 RETURN INVALID PUSH1 0x80 PUSH1 0x40 MSTORE CALLVALUE DUP1 ISZERO PUSH2 0x10 JUMPI PUSH1 0x0 DUP1 REVERT JUMPDEST POP PUSH1 0x4 CALLDATASIZE LT PUSH2 0x41 JUMPI PUSH1 0x0 CALLDATALOAD PUSH1 0xE0 SHR DUP1 PUSH4 0x860BBC00 EQ PUSH2 0x46 JUMPI DUP1 PUSH4 0xB6A46B3B EQ PUSH2 0x62 JUMPI DUP1 PUSH4 0xBC8BC2B4 EQ PUSH2 0x7E JUMPI JUMPDEST PUSH1 0x0 DUP1 REVERT JUMPDEST PUSH2 0x60 PUSH1 0x4 DUP1 CALLDATASIZE SUB DUP2 ADD SWAP1 PUSH2 0x5B SWAP2 SWAP1 PUSH2 0x2E5 JUMP JUMPDEST PUSH2 0xAF JUMP JUMPDEST STOP JUMPDEST PUSH2 0x7C PUSH1 0x4 DUP1 CALLDATASIZE SUB DUP2 ADD SWAP1 PUSH2 0x77 SWAP2 SWAP1 PUSH2 0x345 JUMP JUMPDEST PUSH2 0xB4 JUMP JUMPDEST STOP JUMPDEST PUSH2 0x98 PUSH1 0x4 DUP1 CALLDATASIZE SUB DUP2 ADD SWAP1 PUSH2 0x93 SWAP2 SWAP1 PUSH2 0x392 JUMP JUMPDEST PUSH2 0x177 JUMP JUMPDEST PUSH1 0x40 MLOAD PUSH2 0xA6 SWAP3 SWAP2 SWAP1 PUSH2 0x46A JUMP JUMPDEST PUSH1 0x40 MLOAD DUP1 SWAP2 SUB SWAP1 RETURN JUMPDEST POP POP POP JUMP JUMPDEST PUSH1 0x0 PUSH1 0x40 MLOAD DUP1 PUSH1 0x40 ADD PUSH1 0x40 MSTORE DUP1 DUP5 DUP5 DUP1 DUP1 PUSH1 0x1F ADD PUSH1 0x20 DUP1 SWAP2 DIV MUL PUSH1 0x20 ADD PUSH1 0x40 MLOAD SWAP1 DUP2 ADD PUSH1 0x40 MSTORE DUP1 SWAP4 SWAP3 SWAP2 SWAP1 DUP2 DUP2 MSTORE PUSH1 0x20 ADD DUP4 DUP4 DUP1 DUP3 DUP5 CALLDATACOPY PUSH1 0x0 DUP2 DUP5 ADD MSTORE PUSH1 0x1F NOT PUSH1 0x1F DUP3 ADD AND SWAP1 POP DUP1 DUP4 ADD SWAP3 POP POP POP POP POP POP POP DUP2 MSTORE PUSH1 0x20 ADD PUSH1 0x0 ISZERO ISZERO DUP2 MSTORE POP SWAP1 DUP1 PUSH1 0x1 DUP2 SLOAD ADD DUP1 DUP3 SSTORE DUP1 SWAP2 POP POP PUSH1 0x1 SWAP1 SUB SWAP1 PUSH1 0x0 MSTORE PUSH1 0x20 PUSH1 0x0 KECCAK256 SWAP1 PUSH1 0x2 MUL ADD PUSH1 0x0 SWAP1 SWAP2 SWAP1 SWAP2 SWAP1 SWAP2 POP PUSH1 0x0 DUP3 ADD MLOAD DUP2 PUSH1 0x0 ADD SWAP1 DUP2 PUSH2 0x150 SWAP2 SWAP1 PUSH2 0x6D5 JUMP JUMPDEST POP PUSH1 0x20 DUP3 ADD MLOAD DUP2 PUSH1 0x1 ADD PUSH1 0x0 PUSH2 0x100 EXP DUP2 SLOAD DUP2 PUSH1 0xFF MUL NOT AND SWAP1 DUP4 ISZERO ISZERO MUL OR SWAP1 SSTORE POP POP POP POP POP JUMP JUMPDEST PUSH1 0x0 DUP2 DUP2 SLOAD DUP2 LT PUSH2 0x187 JUMPI PUSH1 0x0 DUP1 REVERT JUMPDEST SWAP1 PUSH1 0x0 MSTORE PUSH1 0x20 PUSH1 0x0 KECCAK256 SWAP1 PUSH1 0x2 MUL ADD PUSH1 0x0 SWAP2 POP SWAP1 POP DUP1 PUSH1 0x0 ADD DUP1 SLOAD PUSH2 0x1AA SWAP1 PUSH2 0x4F8 JUMP JUMPDEST DUP1 PUSH1 0x1F ADD PUSH1 0x20 DUP1 SWAP2 DIV MUL PUSH1 0x20 ADD PUSH1 0x40 MLOAD SWAP1 DUP2 ADD PUSH1 0x40 MSTORE DUP1 SWAP3 SWAP2 SWAP1 DUP2 DUP2 MSTORE PUSH1 0x20 ADD DUP3 DUP1 SLOAD PUSH2 0x1D6 SWAP1 PUSH2 0x4F8 JUMP JUMPDEST DUP1 ISZERO PUSH2 0x223 JUMPI DUP1 PUSH1 0x1F LT PUSH2 0x1F8 JUMPI PUSH2 0x100 DUP1 DUP4 SLOAD DIV MUL DUP4 MSTORE SWAP2 PUSH1 0x20 ADD SWAP2 PUSH2 0x223 JUMP JUMPDEST DUP3 ADD SWAP2 SWAP1 PUSH1 0x0 MSTORE PUSH1 0x20 PUSH1 0x0 KECCAK256 SWAP1 JUMPDEST DUP2 SLOAD DUP2 MSTORE SWAP1 PUSH1 0x1 ADD SWAP1 PUSH1 0x20 ADD DUP1 DUP4 GT PUSH2 0x206 JUMPI DUP3 SWAP1 SUB PUSH1 0x1F AND DUP3 ADD SWAP2 JUMPDEST POP POP POP POP POP SWAP1 DUP1 PUSH1 0x1 ADD PUSH1 0x0 SWAP1 SLOAD SWAP1 PUSH2 0x100 EXP SWAP1 DIV PUSH1 0xFF AND SWAP1 POP DUP3 JUMP JUMPDEST PUSH1 0x0 DUP1 REVERT JUMPDEST PUSH1 0x0 DUP1 REVERT JUMPDEST PUSH1 0x0 DUP2 SWAP1 POP SWAP2 SWAP1 POP JUMP JUMPDEST PUSH2 0x25D DUP2 PUSH2 0x24A JUMP JUMPDEST DUP2 EQ PUSH2 0x268 JUMPI PUSH1 0x0 DUP1 REVERT JUMPDEST POP JUMP JUMPDEST PUSH1 0x0 DUP2 CALLDATALOAD SWAP1 POP PUSH2 0x27A DUP2 PUSH2 0x254 JUMP JUMPDEST SWAP3 SWAP2 POP POP JUMP JUMPDEST PUSH1 0x0 DUP1 REVERT JUMPDEST PUSH1 0x0 DUP1 REVERT JUMPDEST PUSH1 0x0 DUP1 REVERT JUMPDEST PUSH1 0x0 DUP1 DUP4 PUSH1 0x1F DUP5 ADD SLT PUSH2 0x2A5 JUMPI PUSH2 0x2A4 PUSH2 0x280 JUMP JUMPDEST JUMPDEST DUP3 CALLDATALOAD SWAP1 POP PUSH8 0xFFFFFFFFFFFFFFFF DUP2 GT ISZERO PUSH2 0x2C2 JUMPI PUSH2 0x2C1 PUSH2 0x285 JUMP JUMPDEST JUMPDEST PUSH1 0x20 DUP4 ADD SWAP2 POP DUP4 PUSH1 0x1 DUP3 MUL DUP4 ADD GT ISZERO PUSH2 0x2DE JUMPI PUSH2 0x2DD PUSH2 0x28A JUMP JUMPDEST JUMPDEST SWAP3 POP SWAP3 SWAP1 POP JUMP JUMPDEST PUSH1 0x0 DUP1 PUSH1 0x0 PUSH1 0x40 DUP5 DUP7 SUB SLT ISZERO PUSH2 0x2FE JUMPI PUSH2 0x2FD PUSH2 0x240 JUMP JUMPDEST JUMPDEST PUSH1 0x0 PUSH2 0x30C DUP7 DUP3 DUP8 ADD PUSH2 0x26B JUMP JUMPDEST SWAP4 POP POP PUSH1 0x20 DUP5 ADD CALLDATALOAD PUSH8 0xFFFFFFFFFFFFFFFF DUP2 GT ISZERO PUSH2 0x32D JUMPI PUSH2 0x32C PUSH2 0x245 JUMP JUMPDEST JUMPDEST PUSH2 0x339 DUP7 DUP3 DUP8 ADD PUSH2 0x28F JUMP JUMPDEST SWAP3 POP SWAP3 POP POP SWAP3 POP SWAP3 POP SWAP3 JUMP JUMPDEST PUSH1 0x0 DUP1 PUSH1 0x20 DUP4 DUP6 SUB SLT ISZERO PUSH2 0x35C JUMPI PUSH2 0x35B PUSH2 0x240 JUMP JUMPDEST JUMPDEST PUSH1 0x0 DUP4 ADD CALLDATALOAD PUSH8 0xFFFFFFFFFFFFFFFF DUP2 GT ISZERO PUSH2 0x37A JUMPI PUSH2 0x379 PUSH2 0x245 JUMP JUMPDEST JUMPDEST PUSH2 0x386 DUP6 DUP3 DUP7 ADD PUSH2 0x28F JUMP JUMPDEST SWAP3 POP SWAP3 POP POP SWAP3 POP SWAP3 SWAP1 POP JUMP JUMPDEST PUSH1 0x0 PUSH1 0x20 DUP3 DUP5 SUB SLT ISZERO PUSH2 0x3A8 JUMPI PUSH2 0x3A7 PUSH2 0x240 JUMP JUMPDEST JUMPDEST PUSH1 0x0 PUSH2 0x3B6 DUP5 DUP3 DUP6 ADD PUSH2 0x26B JUMP JUMPDEST SWAP2 POP POP SWAP3 SWAP2 POP POP JUMP JUMPDEST PUSH1 0x0 DUP2 MLOAD SWAP1 POP SWAP2 SWAP1 POP JUMP JUMPDEST PUSH1 0x0 DUP3 DUP3 MSTORE PUSH1 0x20 DUP3 ADD SWAP1 POP SWAP3 SWAP2 POP POP JUMP JUMPDEST PUSH1 0x0 JUMPDEST DUP4 DUP2 LT ISZERO PUSH2 0x3F9 JUMPI DUP1 DUP3 ADD MLOAD DUP2 DUP5 ADD MSTORE PUSH1 0x20 DUP2 ADD SWAP1 POP PUSH2 0x3DE JUMP JUMPDEST PUSH1 0x0 DUP5 DUP5 ADD MSTORE POP POP POP POP JUMP JUMPDEST PUSH1 0x0 PUSH1 0x1F NOT PUSH1 0x1F DUP4 ADD AND SWAP1 POP SWAP2 SWAP1 POP JUMP JUMPDEST PUSH1 0x0 PUSH2 0x421 DUP3 PUSH2 0x3BF JUMP JUMPDEST PUSH2 0x42B DUP2 DUP6 PUSH2 0x3CA JUMP JUMPDEST SWAP4 POP PUSH2 0x43B DUP2 DUP6 PUSH1 0x20 DUP7 ADD PUSH2 0x3DB JUMP JUMPDEST PUSH2 0x444 DUP2 PUSH2 0x405 JUMP JUMPDEST DUP5 ADD SWAP2 POP POP SWAP3 SWAP2 POP POP JUMP JUMPDEST PUSH1 0x0 DUP2 ISZERO ISZERO SWAP1 POP SWAP2 SWAP1 POP JUMP JUMPDEST PUSH2 0x464 DUP2 PUSH2 0x44F JUMP JUMPDEST DUP3 MSTORE POP POP JUMP JUMPDEST PUSH1 0x0 PUSH1 0x40 DUP3 ADD SWAP1 POP DUP2 DUP2 SUB PUSH1 0x0 DUP4 ADD MSTORE PUSH2 0x484 DUP2 DUP6 PUSH2 0x416 JUMP JUMPDEST SWAP1 POP PUSH2 0x493 PUSH1 0x20 DUP4 ADD DUP5 PUSH2 0x45B JUMP JUMPDEST SWAP4 SWAP3 POP POP POP JUMP JUMPDEST PUSH32 0x4E487B7100000000000000000000000000000000000000000000000000000000 PUSH1 0x0 MSTORE PUSH1 0x41 PUSH1 0x4 MSTORE PUSH1 0x24 PUSH1 0x0 REVERT JUMPDEST PUSH32 0x4E487B7100000000000000000000000000000000000000000000000000000000 PUSH1 0x0 MSTORE PUSH1 0x22 PUSH1 0x4 MSTORE PUSH1 0x24 PUSH1 0x0 REVERT JUMPDEST PUSH1 0x0 PUSH1 0x2 DUP3 DIV SWAP1 POP PUSH1 0x1 DUP3 AND DUP1 PUSH2 0x510 JUMPI PUSH1 0x7F DUP3 AND SWAP2 POP JUMPDEST PUSH1 0x20 DUP3 LT DUP2 SUB PUSH2 0x523 JUMPI PUSH2 0x522 PUSH2 0x4C9 JUMP JUMPDEST JUMPDEST POP SWAP2 SWAP1 POP JUMP JUMPDEST PUSH1 0x0 DUP2 SWAP1 POP DUP2 PUSH1 0x0 MSTORE PUSH1 0x20 PUSH1 0x0 KECCAK256 SWAP1 POP SWAP2 SWAP1 POP JUMP JUMPDEST PUSH1 0x0 PUSH1 0x20 PUSH1 0x1F DUP4 ADD DIV SWAP1 POP SWAP2 SWAP1 POP JUMP JUMPDEST PUSH1 0x0 DUP3 DUP3 SHL SWAP1 POP SWAP3 SWAP2 POP POP JUMP JUMPDEST PUSH1 0x0 PUSH1 0x8 DUP4 MUL PUSH2 0x58B PUSH32 0xFFFFFFFFFFFFFFFFFFFFFFFFFFFFFFFFFFFFFFFFFFFFFFFFFFFFFFFFFFFFFFFF DUP3 PUSH2 0x54E JUMP JUMPDEST PUSH2 0x595 DUP7 DUP4 PUSH2 0x54E JUMP JUMPDEST SWAP6 POP DUP1 NOT DUP5 AND SWAP4 POP DUP1 DUP7 AND DUP5 OR SWAP3 POP POP POP SWAP4 SWAP3 POP POP POP JUMP JUMPDEST PUSH1 0x0 DUP2 SWAP1 POP SWAP2 SWAP1 POP JUMP JUMPDEST PUSH1 0x0 PUSH2 0x5D2 PUSH2 0x5CD PUSH2 0x5C8 DUP5 PUSH2 0x24A JUMP JUMPDEST PUSH2 0x5AD JUMP JUMPDEST PUSH2 0x24A JUMP JUMPDEST SWAP1 POP SWAP2 SWAP1 POP JUMP JUMPDEST PUSH1 0x0 DUP2 SWAP1 POP SWAP2 SWAP1 POP JUMP JUMPDEST PUSH2 0x5EC DUP4 PUSH2 0x5B7 JUMP JUMPDEST PUSH2 0x600 PUSH2 0x5F8 DUP3 PUSH2 0x5D9 JUMP JUMPDEST DUP5 DUP5 SLOAD PUSH2 0x55B JUMP JUMPDEST DUP3 SSTORE POP POP POP POP JUMP JUMPDEST PUSH1 0x0 SWAP1 JUMP JUMPDEST PUSH2 0x615 PUSH2 0x608 JUMP JUMPDEST PUSH2 0x620 DUP2 DUP5 DUP5 PUSH2 0x5E3 JUMP JUMPDEST POP POP POP JUMP JUMPDEST JUMPDEST DUP2 DUP2 LT ISZERO PUSH2 0x644 JUMPI PUSH2 0x639 PUSH1 0x0 DUP3 PUSH2 0x60D JUMP JUMPDEST PUSH1 0x1 DUP2 ADD SWAP1 POP PUSH2 0x626 JUMP JUMPDEST POP POP JUMP JUMPDEST PUSH1 0x1F DUP3 GT ISZERO PUSH2 0x689 JUMPI PUSH2 0x65A DUP2 PUSH2 0x529 JUMP JUMPDEST PUSH2 0x663 DUP5 PUSH2 0x53E JUMP JUMPDEST DUP2 ADD PUSH1 0x20 DUP6 LT ISZERO PUSH2 0x672 JUMPI DUP2 SWAP1 POP JUMPDEST PUSH2 0x686 PUSH2 0x67E DUP6 PUSH2 0x53E JUMP JUMPDEST DUP4 ADD DUP3 PUSH2 0x625 JUMP JUMPDEST POP POP JUMPDEST POP POP POP JUMP JUMPDEST PUSH1 0x0 DUP3 DUP3 SHR SWAP1 POP SWAP3 SWAP2 POP POP JUMP JUMPDEST PUSH1 0x0 PUSH2 0x6AC PUSH1 0x0 NOT DUP5 PUSH1 0x8 MUL PUSH2 0x68E JUMP JUMPDEST NOT DUP1 DUP4 AND SWAP2 POP POP SWAP3 SWAP2 POP POP JUMP JUMPDEST PUSH1 0x0 PUSH2 0x6C5 DUP4 DUP4 PUSH2 0x69B JUMP JUMPDEST SWAP2 POP DUP3 PUSH1 0x2 MUL DUP3 OR SWAP1 POP SWAP3 SWAP2 POP POP JUMP JUMPDEST PUSH2 0x6DE DUP3 PUSH2 0x3BF JUMP JUMPDEST PUSH8 0xFFFFFFFFFFFFFFFF DUP2 GT ISZERO PUSH2 0x6F7 JUMPI PUSH2 0x6F6 PUSH2 0x49A JUMP JUMPDEST JUMPDEST PUSH2 0x701 DUP3 SLOAD PUSH2 0x4F8 JUMP JUMPDEST PUSH2 0x70C DUP3 DUP3 DUP6 PUSH2 0x648 JUMP JUMPDEST PUSH1 0x0 PUSH1 0x20 SWAP1 POP PUSH1 0x1F DUP4 GT PUSH1 0x1 DUP2 EQ PUSH2 0x73F JUMPI PUSH1 0x0 DUP5 ISZERO PUSH2 0x72D JUMPI DUP3 DUP8 ADD MLOAD SWAP1 POP JUMPDEST PUSH2 0x737 DUP6 DUP3 PUSH2 0x6B9 JUMP JUMPDEST DUP7 SSTORE POP PUSH2 0x79F JUMP JUMPDEST PUSH1 0x1F NOT DUP5 AND PUSH2 0x74D DUP7 PUSH2 0x529 JUMP JUMPDEST PUSH1 0x0 JUMPDEST DUP3 DUP2 LT ISZERO PUSH2 0x775 JUMPI DUP5 DUP10 ADD MLOAD DUP3 SSTORE PUSH1 0x1 DUP3 ADD SWAP2 POP PUSH1 0x20 DUP6 ADD SWAP5 POP PUSH1 0x20 DUP2 ADD SWAP1 POP PUSH2 0x750 JUMP JUMPDEST DUP7 DUP4 LT ISZERO PUSH2 0x792 JUMPI DUP5 DUP10 ADD MLOAD PUSH2 0x78E PUSH1 0x1F DUP10 AND DUP3 PUSH2 0x69B JUMP JUMPDEST DUP4 SSTORE POP JUMPDEST PUSH1 0x1 PUSH1 0x2 DUP9 MUL ADD DUP9 SSTORE POP POP POP JUMPDEST POP POP POP POP POP POP JUMP INVALID LOG2 PUSH5 0x6970667358 0x22 SLT KECCAK256 PUSH29 0xAE30A5FE1783418CB196D576450AA6B0C81B4A68F04B720ED5EBB7AE93 SSTORE 0xAC PUSH5 0x736F6C6343 STOP ADDMOD GT STOP CALLER "
				},
				"gasEstimates": {
					"creation": {
						"codeDepositCost": "402600",
						"executionCost": "436",
						"totalCost": "403036"
					},
					"external": {
						"create(string)": "infinite",
						"todos(uint256)": "infinite",
						"updataText(uint256,string)": "622"
					}
				},
				"methodIdentifiers": {
					"create(string)": "b6a46b3b",
					"todos(uint256)": "bc8bc2b4",
					"updataText(uint256,string)": "860bbc00"
				}
			},
			"storageLayout": {
				"storage": [
					{
						"astId": 10,
						"contract": "TodoList.sol:TodoList",
						"label": "todos",
						"offset": 0,
						"slot": "0",
						"type": "t_array(t_struct(Todo)6_storage)dyn_storage"
					}
				],
				"types": {
					"t_array(t_struct(Todo)6_storage)dyn_storage": {
						"base": "t_struct(Todo)6_storage",
						"encoding": "dynamic_array",
						"label": "struct TodoList.Todo[]",
						"numberOfBytes": "32"
					},
					"t_bool": {
						"encoding": "inplace",
						"label": "bool",
						"numberOfBytes": "1"
					},
					"t_string_storage": {
						"encoding": "bytes",
						"label": "string",
						"numberOfBytes": "32"
					},
					"t_struct(Todo)6_storage": {
						"encoding": "inplace",
						"label": "struct TodoList.Todo",
						"members": [
							{
								"astId": 3,
								"contract": "TodoList.sol:TodoList",
								"label": "text",
								"offset": 0,
								"slot": "0",
								"type": "t_string_storage"
							},
							{
								"astId": 5,
								"contract": "TodoList.sol:TodoList",
								"label": "compeleted",
								"offset": 0,
								"slot": "1",
								"type": "t_bool"
							}
						],
						"numberOfBytes": "64"
					}
				}
			},
			"userdoc": {
				"kind": "user",
				"methods": {},
				"version": 1
			}
		}
	}
}