{
	"TodoList.sol": {
		"TodoList": {
			"abi": [
				{
					"inputs": [
						{
							"internalType": "string",
							"name": "_text",
							"type": "string"
						}
					],
					"name": "create",
					"outputs": [],
					"stateMutability": "nonpayable",
					"type": "function"
				},
				{
					"inputs": [
						{
							"internalType": "uint256",
							"name": "_index",
							"type": "uint256"
						}
					],
					"name": "get",
					"outputs": [
						{
							"internalType": "string",
							"name": "",
							"type": "string"
						}
					],
					"stateMutability": "view",
					"type": "function"
				},
				{
					"inputs": [
						{
							"internalType": "uint256",
							"name": "",
							"type": "uint256"
						}
					],
					"name": "todos",
					"outputs": [
						{
							"internalType": "string",
							"name": "text",
							"type": "string"
						},
						{
							"internalType": "bool",
							"name": "compeleted",
							"type": "bool"
						}
					],
					"stateMutability": "view",
					"type": "function"
				},
				{
					"inputs": [
						{
							"internalType": "uint256",
							"name": "_index",
							"type": "uint256"
						},
						{
							"internalType": "string",
							"name": "_text",
							"type": "string"
						}
					],
					"name": "updataText",
					"outputs": [],
					"stateMutability": "nonpayable",
					"type": "function"
				}
			],
			"devdoc": {
				"kind": "dev",
				"methods": {},
				"version": 1
			},
			"evm": {
				"assembly": "    /* \"TodoList.sol\":61:539  contract TodoList {... */\n  mstore(0x40, 0x80)\n  callvalue\n  dup1\n  iszero\n  tag_1\n  jumpi\n  0x00\n  dup1\n  revert\ntag_1:\n  pop\n  dataSize(sub_0)\n  dup1\n  dataOffset(sub_0)\n  0x00\n  codecopy\n  0x00\n  return\nstop\n\nsub_0: assembly {\n        /* \"TodoList.sol\":61:539  contract TodoList {... */\n      mstore(0x40, 0x80)\n      callvalue\n      dup1\n      iszero\n      tag_1\n      jumpi\n      0x00\n      dup1\n      revert\n    tag_1:\n      pop\n      jumpi(tag_2, lt(calldatasize, 0x04))\n      shr(0xe0, calldataload(0x00))\n      dup1\n      0x860bbc00\n      eq\n      tag_3\n      jumpi\n      dup1\n      0x9507d39a\n      eq\n      tag_4\n      jumpi\n      dup1\n      0xb6a46b3b\n      eq\n      tag_5\n      jumpi\n      dup1\n      0xbc8bc2b4\n      eq\n      tag_6\n      jumpi\n    tag_2:\n      0x00\n      dup1\n      revert\n        /* \"TodoList.sol\":352:462  function updataText(uint _index, string calldata _text) external {... */\n    tag_3:\n      tag_7\n      0x04\n      dup1\n      calldatasize\n      sub\n      dup2\n      add\n      swap1\n      tag_8\n      swap2\n      swap1\n      tag_9\n      jump\t// in\n    tag_8:\n      tag_10\n      jump\t// in\n    tag_7:\n      stop\n        /* \"TodoList.sol\":470:536  function get(uint _index) external view returns (string memory) {} */\n    tag_4:\n      tag_11\n      0x04\n      dup1\n      calldatasize\n      sub\n      dup2\n      add\n      swap1\n      tag_12\n      swap2\n      swap1\n      tag_13\n      jump\t// in\n    tag_12:\n      tag_14\n      jump\t// in\n    tag_11:\n      mload(0x40)\n      tag_15\n      swap2\n      swap1\n      tag_16\n      jump\t// in\n    tag_15:\n      mload(0x40)\n      dup1\n      swap2\n      sub\n      swap1\n      return\n        /* \"TodoList.sol\":190:344  function create(string calldata _text) external {... */\n    tag_5:\n      tag_17\n      0x04\n      dup1\n      calldatasize\n      sub\n      dup2\n      add\n      swap1\n      tag_18\n      swap2\n      swap1\n      tag_19\n      jump\t// in\n    tag_18:\n      tag_20\n      jump\t// in\n    tag_17:\n      stop\n        /* \"TodoList.sol\":162:181  Todo[] public todos */\n    tag_6:\n      tag_21\n      0x04\n      dup1\n      calldatasize\n      sub\n      dup2\n      add\n      swap1\n      tag_22\n      swap2\n      swap1\n      tag_13\n      jump\t// in\n    tag_22:\n      tag_23\n      jump\t// in\n    tag_21:\n      mload(0x40)\n      tag_24\n      swap3\n      swap2\n      swap1\n      tag_25\n      jump\t// in\n    tag_24:\n      mload(0x40)\n      dup1\n      swap2\n      sub\n      swap1\n      return\n        /* \"TodoList.sol\":352:462  function updataText(uint _index, string calldata _text) external {... */\n    tag_10:\n        /* \"TodoList.sol\":449:454  _text */\n      dup2\n      dup2\n        /* \"TodoList.sol\":428:433  todos */\n      0x00\n        /* \"TodoList.sol\":434:440  _index */\n      dup6\n        /* \"TodoList.sol\":428:441  todos[_index] */\n      dup2\n      sload\n      dup2\n      lt\n      tag_27\n      jumpi\n      tag_28\n      tag_29\n      jump\t// in\n    tag_28:\n    tag_27:\n      swap1\n      0x00\n      mstore\n      keccak256(0x00, 0x20)\n      swap1\n      0x02\n      mul\n      add\n        /* \"TodoList.sol\":428:446  todos[_index].text */\n      0x00\n      add\n        /* \"TodoList.sol\":428:454  todos[_index].text = _text */\n      swap2\n      dup3\n      tag_31\n      swap3\n      swap2\n      swap1\n      tag_32\n      jump\t// in\n    tag_31:\n      pop\n        /* \"TodoList.sol\":352:462  function updataText(uint _index, string calldata _text) external {... */\n      pop\n      pop\n      pop\n      jump\t// out\n        /* \"TodoList.sol\":470:536  function get(uint _index) external view returns (string memory) {} */\n    tag_14:\n        /* \"TodoList.sol\":519:532  string memory */\n      0x60\n        /* \"TodoList.sol\":470:536  function get(uint _index) external view returns (string memory) {} */\n      swap2\n      swap1\n      pop\n      jump\t// out\n        /* \"TodoList.sol\":190:344  function create(string calldata _text) external {... */\n    tag_20:\n        /* \"TodoList.sol\":249:254  todos */\n      0x00\n        /* \"TodoList.sol\":260:335  Todo({... */\n      mload(0x40)\n      dup1\n      0x40\n      add\n      0x40\n      mstore\n      dup1\n        /* \"TodoList.sol\":286:291  _text */\n      dup5\n      dup5\n        /* \"TodoList.sol\":260:335  Todo({... */\n      dup1\n      dup1\n      0x1f\n      add\n      0x20\n      dup1\n      swap2\n      div\n      mul\n      0x20\n      add\n      mload(0x40)\n      swap1\n      dup2\n      add\n      0x40\n      mstore\n      dup1\n      swap4\n      swap3\n      swap2\n      swap1\n      dup2\n      dup2\n      mstore\n      0x20\n      add\n      dup4\n      dup4\n      dup1\n      dup3\n      dup5\n      calldatacopy\n      0x00\n      dup2\n      dup5\n      add\n      mstore\n      not(0x1f)\n      0x1f\n      dup3\n      add\n      and\n      swap1\n      pop\n      dup1\n      dup4\n      add\n      swap3\n      pop\n      pop\n      pop\n      pop\n      pop\n      pop\n      pop\n      dup2\n      mstore\n      0x20\n      add\n        /* \"TodoList.sol\":318:323  false */\n      0x00\n        /* \"TodoList.sol\":260:335  Todo({... */\n      iszero\n      iszero\n      dup2\n      mstore\n      pop\n        /* \"TodoList.sol\":249:336  todos.push(Todo({... */\n      swap1\n      dup1\n      0x01\n      dup2\n      sload\n      add\n      dup1\n      dup3\n      sstore\n      dup1\n      swap2\n      pop\n      pop\n      0x01\n      swap1\n      sub\n      swap1\n      0x00\n      mstore\n      keccak256(0x00, 0x20)\n      swap1\n      0x02\n      mul\n      add\n      0x00\n      swap1\n      swap2\n      swap1\n      swap2\n      swap1\n      swap2\n      pop\n      0x00\n      dup3\n      add\n      mload\n      dup2\n      0x00\n      add\n      swap1\n      dup2\n      tag_36\n      swap2\n      swap1\n      tag_37\n      jump\t// in\n    tag_36:\n      pop\n      0x20\n      dup3\n      add\n      mload\n      dup2\n      0x01\n      add\n      exp(0x0100, 0x00)\n      dup2\n      sload\n      dup2\n      0xff\n      mul\n      not\n      and\n      swap1\n      dup4\n      iszero\n      iszero\n      mul\n      or\n      swap1\n      sstore\n      pop\n      pop\n      pop\n        /* \"TodoList.sol\":190:344  function create(string calldata _text) external {... */\n      pop\n      pop\n      jump\t// out\n        /* \"TodoList.sol\":162:181  Todo[] public todos */\n    tag_23:\n      0x00\n      dup2\n      dup2\n      sload\n      dup2\n      lt\n      tag_38\n      jumpi\n      0x00\n      dup1\n      revert\n    tag_38:\n      swap1\n      0x00\n      mstore\n      keccak256(0x00, 0x20)\n      swap1\n      0x02\n      mul\n      add\n      0x00\n      swap2\n      pop\n      swap1\n      pop\n      dup1\n      0x00\n      add\n      dup1\n      sload\n      tag_40\n      swap1\n      tag_41\n      jump\t// in\n    tag_40:\n      dup1\n      0x1f\n      add\n      0x20\n      dup1\n      swap2\n      div\n      mul\n      0x20\n      add\n      mload(0x40)\n      swap1\n      dup2\n      add\n      0x40\n      mstore\n      dup1\n      swap3\n      swap2\n      swap1\n      dup2\n      dup2\n      mstore\n      0x20\n      add\n      dup3\n      dup1\n      sload\n      tag_42\n      swap1\n      tag_41\n      jump\t// in\n    tag_42:\n      dup1\n      iszero\n      tag_43\n      jumpi\n      dup1\n      0x1f\n      lt\n      tag_44\n      jumpi\n      0x0100\n      dup1\n      dup4\n      sload\n      div\n      mul\n      dup4\n      mstore\n      swap2\n      0x20\n      add\n      swap2\n      jump(tag_43)\n    tag_44:\n      dup3\n      add\n      swap2\n      swap1\n      0x00\n      mstore\n      keccak256(0x00, 0x20)\n      swap1\n    tag_45:\n      dup2\n      sload\n      dup2\n      mstore\n      swap1\n      0x01\n      add\n      swap1\n      0x20\n      add\n      dup1\n      dup4\n      gt\n      tag_45\n      jumpi\n      dup3\n      swap1\n      sub\n      0x1f\n      and\n      dup3\n      add\n      swap2\n    tag_43:\n      pop\n      pop\n      pop\n      pop\n      pop\n      swap1\n      dup1\n      0x01\n      add\n      0x00\n      swap1\n      sload\n      swap1\n      0x0100\n      exp\n      swap1\n      div\n      0xff\n      and\n      swap1\n      pop\n      dup3\n      jump\t// out\n        /* \"#utility.yul\":88:205   */\n    tag_47:\n        /* \"#utility.yul\":197:198   */\n      0x00\n        /* \"#utility.yul\":194:195   */\n      dup1\n        /* \"#utility.yul\":187:199   */\n      revert\n        /* \"#utility.yul\":211:328   */\n    tag_48:\n        /* \"#utility.yul\":320:321   */\n      0x00\n        /* \"#utility.yul\":317:318   */\n      dup1\n        /* \"#utility.yul\":310:322   */\n      revert\n        /* \"#utility.yul\":334:411   */\n    tag_49:\n        /* \"#utility.yul\":371:378   */\n      0x00\n        /* \"#utility.yul\":400:405   */\n      dup2\n        /* \"#utility.yul\":389:405   */\n      swap1\n      pop\n        /* \"#utility.yul\":334:411   */\n      swap2\n      swap1\n      pop\n      jump\t// out\n        /* \"#utility.yul\":417:539   */\n    tag_50:\n        /* \"#utility.yul\":490:514   */\n      tag_87\n        /* \"#utility.yul\":508:513   */\n      dup2\n        /* \"#utility.yul\":490:514   */\n      tag_49\n      jump\t// in\n    tag_87:\n        /* \"#utility.yul\":483:488   */\n      dup2\n        /* \"#utility.yul\":480:515   */\n      eq\n        /* \"#utility.yul\":470:533   */\n      tag_88\n      jumpi\n        /* \"#utility.yul\":529:530   */\n      0x00\n        /* \"#utility.yul\":526:527   */\n      dup1\n        /* \"#utility.yul\":519:531   */\n      revert\n        /* \"#utility.yul\":470:533   */\n    tag_88:\n        /* \"#utility.yul\":417:539   */\n      pop\n      jump\t// out\n        /* \"#utility.yul\":545:684   */\n    tag_51:\n        /* \"#utility.yul\":591:596   */\n      0x00\n        /* \"#utility.yul\":629:635   */\n      dup2\n        /* \"#utility.yul\":616:636   */\n      calldataload\n        /* \"#utility.yul\":607:636   */\n      swap1\n      pop\n        /* \"#utility.yul\":645:678   */\n      tag_90\n        /* \"#utility.yul\":672:677   */\n      dup2\n        /* \"#utility.yul\":645:678   */\n      tag_50\n      jump\t// in\n    tag_90:\n        /* \"#utility.yul\":545:684   */\n      swap3\n      swap2\n      pop\n      pop\n      jump\t// out\n        /* \"#utility.yul\":690:807   */\n    tag_52:\n        /* \"#utility.yul\":799:800   */\n      0x00\n        /* \"#utility.yul\":796:797   */\n      dup1\n        /* \"#utility.yul\":789:801   */\n      revert\n        /* \"#utility.yul\":813:930   */\n    tag_53:\n        /* \"#utility.yul\":922:923   */\n      0x00\n        /* \"#utility.yul\":919:920   */\n      dup1\n        /* \"#utility.yul\":912:924   */\n      revert\n        /* \"#utility.yul\":936:1053   */\n    tag_54:\n        /* \"#utility.yul\":1045:1046   */\n      0x00\n        /* \"#utility.yul\":1042:1043   */\n      dup1\n        /* \"#utility.yul\":1035:1047   */\n      revert\n        /* \"#utility.yul\":1073:1626   */\n    tag_55:\n        /* \"#utility.yul\":1131:1139   */\n      0x00\n        /* \"#utility.yul\":1141:1147   */\n      dup1\n        /* \"#utility.yul\":1191:1194   */\n      dup4\n        /* \"#utility.yul\":1184:1188   */\n      0x1f\n        /* \"#utility.yul\":1176:1182   */\n      dup5\n        /* \"#utility.yul\":1172:1189   */\n      add\n        /* \"#utility.yul\":1168:1195   */\n      slt\n        /* \"#utility.yul\":1158:1280   */\n      tag_95\n      jumpi\n        /* \"#utility.yul\":1199:1278   */\n      tag_96\n      tag_52\n      jump\t// in\n    tag_96:\n        /* \"#utility.yul\":1158:1280   */\n    tag_95:\n        /* \"#utility.yul\":1312:1318   */\n      dup3\n        /* \"#utility.yul\":1299:1319   */\n      calldataload\n        /* \"#utility.yul\":1289:1319   */\n      swap1\n      pop\n        /* \"#utility.yul\":1342:1360   */\n      0xffffffffffffffff\n        /* \"#utility.yul\":1334:1340   */\n      dup2\n        /* \"#utility.yul\":1331:1361   */\n      gt\n        /* \"#utility.yul\":1328:1445   */\n      iszero\n      tag_97\n      jumpi\n        /* \"#utility.yul\":1364:1443   */\n      tag_98\n      tag_53\n      jump\t// in\n    tag_98:\n        /* \"#utility.yul\":1328:1445   */\n    tag_97:\n        /* \"#utility.yul\":1478:1482   */\n      0x20\n        /* \"#utility.yul\":1470:1476   */\n      dup4\n        /* \"#utility.yul\":1466:1483   */\n      add\n        /* \"#utility.yul\":1454:1483   */\n      swap2\n      pop\n        /* \"#utility.yul\":1532:1535   */\n      dup4\n        /* \"#utility.yul\":1524:1528   */\n      0x01\n        /* \"#utility.yul\":1516:1522   */\n      dup3\n        /* \"#utility.yul\":1512:1529   */\n      mul\n        /* \"#utility.yul\":1502:1510   */\n      dup4\n        /* \"#utility.yul\":1498:1530   */\n      add\n        /* \"#utility.yul\":1495:1536   */\n      gt\n        /* \"#utility.yul\":1492:1620   */\n      iszero\n      tag_99\n      jumpi\n        /* \"#utility.yul\":1539:1618   */\n      tag_100\n      tag_54\n      jump\t// in\n    tag_100:\n        /* \"#utility.yul\":1492:1620   */\n    tag_99:\n        /* \"#utility.yul\":1073:1626   */\n      swap3\n      pop\n      swap3\n      swap1\n      pop\n      jump\t// out\n        /* \"#utility.yul\":1632:2306   */\n    tag_9:\n        /* \"#utility.yul\":1712:1718   */\n      0x00\n        /* \"#utility.yul\":1720:1726   */\n      dup1\n        /* \"#utility.yul\":1728:1734   */\n      0x00\n        /* \"#utility.yul\":1777:1779   */\n      0x40\n        /* \"#utility.yul\":1765:1774   */\n      dup5\n        /* \"#utility.yul\":1756:1763   */\n      dup7\n        /* \"#utility.yul\":1752:1775   */\n      sub\n        /* \"#utility.yul\":1748:1780   */\n      slt\n        /* \"#utility.yul\":1745:1864   */\n      iszero\n      tag_102\n      jumpi\n        /* \"#utility.yul\":1783:1862   */\n      tag_103\n      tag_47\n      jump\t// in\n    tag_103:\n        /* \"#utility.yul\":1745:1864   */\n    tag_102:\n        /* \"#utility.yul\":1903:1904   */\n      0x00\n        /* \"#utility.yul\":1928:1981   */\n      tag_104\n        /* \"#utility.yul\":1973:1980   */\n      dup7\n        /* \"#utility.yul\":1964:1970   */\n      dup3\n        /* \"#utility.yul\":1953:1962   */\n      dup8\n        /* \"#utility.yul\":1949:1971   */\n      add\n        /* \"#utility.yul\":1928:1981   */\n      tag_51\n      jump\t// in\n    tag_104:\n        /* \"#utility.yul\":1918:1981   */\n      swap4\n      pop\n        /* \"#utility.yul\":1874:1991   */\n      pop\n        /* \"#utility.yul\":2058:2060   */\n      0x20\n        /* \"#utility.yul\":2047:2056   */\n      dup5\n        /* \"#utility.yul\":2043:2061   */\n      add\n        /* \"#utility.yul\":2030:2062   */\n      calldataload\n        /* \"#utility.yul\":2089:2107   */\n      0xffffffffffffffff\n        /* \"#utility.yul\":2081:2087   */\n      dup2\n        /* \"#utility.yul\":2078:2108   */\n      gt\n        /* \"#utility.yul\":2075:2192   */\n      iszero\n      tag_105\n      jumpi\n        /* \"#utility.yul\":2111:2190   */\n      tag_106\n      tag_48\n      jump\t// in\n    tag_106:\n        /* \"#utility.yul\":2075:2192   */\n    tag_105:\n        /* \"#utility.yul\":2224:2289   */\n      tag_107\n        /* \"#utility.yul\":2281:2288   */\n      dup7\n        /* \"#utility.yul\":2272:2278   */\n      dup3\n        /* \"#utility.yul\":2261:2270   */\n      dup8\n        /* \"#utility.yul\":2257:2279   */\n      add\n        /* \"#utility.yul\":2224:2289   */\n      tag_55\n      jump\t// in\n    tag_107:\n        /* \"#utility.yul\":2206:2289   */\n      swap3\n      pop\n      swap3\n      pop\n        /* \"#utility.yul\":2001:2299   */\n      pop\n        /* \"#utility.yul\":1632:2306   */\n      swap3\n      pop\n      swap3\n      pop\n      swap3\n      jump\t// out\n        /* \"#utility.yul\":2312:2641   */\n    tag_13:\n        /* \"#utility.yul\":2371:2377   */\n      0x00\n        /* \"#utility.yul\":2420:2422   */\n      0x20\n        /* \"#utility.yul\":2408:2417   */\n      dup3\n        /* \"#utility.yul\":2399:2406   */\n      dup5\n        /* \"#utility.yul\":2395:2418   */\n      sub\n        /* \"#utility.yul\":2391:2423   */\n      slt\n        /* \"#utility.yul\":2388:2507   */\n      iszero\n      tag_109\n      jumpi\n        /* \"#utility.yul\":2426:2505   */\n      tag_110\n      tag_47\n      jump\t// in\n    tag_110:\n        /* \"#utility.yul\":2388:2507   */\n    tag_109:\n        /* \"#utility.yul\":2546:2547   */\n      0x00\n        /* \"#utility.yul\":2571:2624   */\n      tag_111\n        /* \"#utility.yul\":2616:2623   */\n      dup5\n        /* \"#utility.yul\":2607:2613   */\n      dup3\n        /* \"#utility.yul\":2596:2605   */\n      dup6\n        /* \"#utility.yul\":2592:2614   */\n      add\n        /* \"#utility.yul\":2571:2624   */\n      tag_51\n      jump\t// in\n    tag_111:\n        /* \"#utility.yul\":2561:2624   */\n      swap2\n      pop\n        /* \"#utility.yul\":2517:2634   */\n      pop\n        /* \"#utility.yul\":2312:2641   */\n      swap3\n      swap2\n      pop\n      pop\n      jump\t// out\n        /* \"#utility.yul\":2647:2746   */\n    tag_56:\n        /* \"#utility.yul\":2699:2705   */\n      0x00\n        /* \"#utility.yul\":2733:2738   */\n      dup2\n        /* \"#utility.yul\":2727:2739   */\n      mload\n        /* \"#utility.yul\":2717:2739   */\n      swap1\n      pop\n        /* \"#utility.yul\":2647:2746   */\n      swap2\n      swap1\n      pop\n      jump\t// out\n        /* \"#utility.yul\":2752:2921   */\n    tag_57:\n        /* \"#utility.yul\":2836:2847   */\n      0x00\n        /* \"#utility.yul\":2870:2876   */\n      dup3\n        /* \"#utility.yul\":2865:2868   */\n      dup3\n        /* \"#utility.yul\":2858:2877   */\n      mstore\n        /* \"#utility.yul\":2910:2914   */\n      0x20\n        /* \"#utility.yul\":2905:2908   */\n      dup3\n        /* \"#utility.yul\":2901:2915   */\n      add\n        /* \"#utility.yul\":2886:2915   */\n      swap1\n      pop\n        /* \"#utility.yul\":2752:2921   */\n      swap3\n      swap2\n      pop\n      pop\n      jump\t// out\n        /* \"#utility.yul\":2927:3173   */\n    tag_58:\n        /* \"#utility.yul\":3008:3009   */\n      0x00\n        /* \"#utility.yul\":3018:3131   */\n    tag_115:\n        /* \"#utility.yul\":3032:3038   */\n      dup4\n        /* \"#utility.yul\":3029:3030   */\n      dup2\n        /* \"#utility.yul\":3026:3039   */\n      lt\n        /* \"#utility.yul\":3018:3131   */\n      iszero\n      tag_117\n      jumpi\n        /* \"#utility.yul\":3117:3118   */\n      dup1\n        /* \"#utility.yul\":3112:3115   */\n      dup3\n        /* \"#utility.yul\":3108:3119   */\n      add\n        /* \"#utility.yul\":3102:3120   */\n      mload\n        /* \"#utility.yul\":3098:3099   */\n      dup2\n        /* \"#utility.yul\":3093:3096   */\n      dup5\n        /* \"#utility.yul\":3089:3100   */\n      add\n        /* \"#utility.yul\":3082:3121   */\n      mstore\n        /* \"#utility.yul\":3054:3056   */\n      0x20\n        /* \"#utility.yul\":3051:3052   */\n      dup2\n        /* \"#utility.yul\":3047:3057   */\n      add\n        /* \"#utility.yul\":3042:3057   */\n      swap1\n      pop\n        /* \"#utility.yul\":3018:3131   */\n      jump(tag_115)\n    tag_117:\n        /* \"#utility.yul\":3165:3166   */\n      0x00\n        /* \"#utility.yul\":3156:3162   */\n      dup5\n        /* \"#utility.yul\":3151:3154   */\n      dup5\n        /* \"#utility.yul\":3147:3163   */\n      add\n        /* \"#utility.yul\":3140:3167   */\n      mstore\n        /* \"#utility.yul\":2989:3173   */\n      pop\n        /* \"#utility.yul\":2927:3173   */\n      pop\n      pop\n      pop\n      jump\t// out\n        /* \"#utility.yul\":3179:3281   */\n    tag_59:\n        /* \"#utility.yul\":3220:3226   */\n      0x00\n        /* \"#utility.yul\":3271:3273   */\n      0x1f\n        /* \"#utility.yul\":3267:3274   */\n      not\n        /* \"#utility.yul\":3262:3264   */\n      0x1f\n        /* \"#utility.yul\":3255:3260   */\n      dup4\n        /* \"#utility.yul\":3251:3265   */\n      add\n        /* \"#utility.yul\":3247:3275   */\n      and\n        /* \"#utility.yul\":3237:3275   */\n      swap1\n      pop\n        /* \"#utility.yul\":3179:3281   */\n      swap2\n      swap1\n      pop\n      jump\t// out\n        /* \"#utility.yul\":3287:3664   */\n    tag_60:\n        /* \"#utility.yul\":3375:3378   */\n      0x00\n        /* \"#utility.yul\":3403:3442   */\n      tag_120\n        /* \"#utility.yul\":3436:3441   */\n      dup3\n        /* \"#utility.yul\":3403:3442   */\n      tag_56\n      jump\t// in\n    tag_120:\n        /* \"#utility.yul\":3458:3529   */\n      tag_121\n        /* \"#utility.yul\":3522:3528   */\n      dup2\n        /* \"#utility.yul\":3517:3520   */\n      dup6\n        /* \"#utility.yul\":3458:3529   */\n      tag_57\n      jump\t// in\n    tag_121:\n        /* \"#utility.yul\":3451:3529   */\n      swap4\n      pop\n        /* \"#utility.yul\":3538:3603   */\n      tag_122\n        /* \"#utility.yul\":3596:3602   */\n      dup2\n        /* \"#utility.yul\":3591:3594   */\n      dup6\n        /* \"#utility.yul\":3584:3588   */\n      0x20\n        /* \"#utility.yul\":3577:3582   */\n      dup7\n        /* \"#utility.yul\":3573:3589   */\n      add\n        /* \"#utility.yul\":3538:3603   */\n      tag_58\n      jump\t// in\n    tag_122:\n        /* \"#utility.yul\":3628:3657   */\n      tag_123\n        /* \"#utility.yul\":3650:3656   */\n      dup2\n        /* \"#utility.yul\":3628:3657   */\n      tag_59\n      jump\t// in\n    tag_123:\n        /* \"#utility.yul\":3623:3626   */\n      dup5\n        /* \"#utility.yul\":3619:3658   */\n      add\n        /* \"#utility.yul\":3612:3658   */\n      swap2\n      pop\n        /* \"#utility.yul\":3379:3664   */\n      pop\n        /* \"#utility.yul\":3287:3664   */\n      swap3\n      swap2\n      pop\n      pop\n      jump\t// out\n        /* \"#utility.yul\":3670:3983   */\n    tag_16:\n        /* \"#utility.yul\":3783:3787   */\n      0x00\n        /* \"#utility.yul\":3821:3823   */\n      0x20\n        /* \"#utility.yul\":3810:3819   */\n      dup3\n        /* \"#utility.yul\":3806:3824   */\n      add\n        /* \"#utility.yul\":3798:3824   */\n      swap1\n      pop\n        /* \"#utility.yul\":3870:3879   */\n      dup2\n        /* \"#utility.yul\":3864:3868   */\n      dup2\n        /* \"#utility.yul\":3860:3880   */\n      sub\n        /* \"#utility.yul\":3856:3857   */\n      0x00\n        /* \"#utility.yul\":3845:3854   */\n      dup4\n        /* \"#utility.yul\":3841:3858   */\n      add\n        /* \"#utility.yul\":3834:3881   */\n      mstore\n        /* \"#utility.yul\":3898:3976   */\n      tag_125\n        /* \"#utility.yul\":3971:3975   */\n      dup2\n        /* \"#utility.yul\":3962:3968   */\n      dup5\n        /* \"#utility.yul\":3898:3976   */\n      tag_60\n      jump\t// in\n    tag_125:\n        /* \"#utility.yul\":3890:3976   */\n      swap1\n      pop\n        /* \"#utility.yul\":3670:3983   */\n      swap3\n      swap2\n      pop\n      pop\n      jump\t// out\n        /* \"#utility.yul\":3989:4518   */\n    tag_19:\n        /* \"#utility.yul\":4060:4066   */\n      0x00\n        /* \"#utility.yul\":4068:4074   */\n      dup1\n        /* \"#utility.yul\":4117:4119   */\n      0x20\n        /* \"#utility.yul\":4105:4114   */\n      dup4\n        /* \"#utility.yul\":4096:4103   */\n      dup6\n        /* \"#utility.yul\":4092:4115   */\n      sub\n        /* \"#utility.yul\":4088:4120   */\n      slt\n        /* \"#utility.yul\":4085:4204   */\n      iszero\n      tag_127\n      jumpi\n        /* \"#utility.yul\":4123:4202   */\n      tag_128\n      tag_47\n      jump\t// in\n    tag_128:\n        /* \"#utility.yul\":4085:4204   */\n    tag_127:\n        /* \"#utility.yul\":4271:4272   */\n      0x00\n        /* \"#utility.yul\":4260:4269   */\n      dup4\n        /* \"#utility.yul\":4256:4273   */\n      add\n        /* \"#utility.yul\":4243:4274   */\n      calldataload\n        /* \"#utility.yul\":4301:4319   */\n      0xffffffffffffffff\n        /* \"#utility.yul\":4293:4299   */\n      dup2\n        /* \"#utility.yul\":4290:4320   */\n      gt\n        /* \"#utility.yul\":4287:4404   */\n      iszero\n      tag_129\n      jumpi\n        /* \"#utility.yul\":4323:4402   */\n      tag_130\n      tag_48\n      jump\t// in\n    tag_130:\n        /* \"#utility.yul\":4287:4404   */\n    tag_129:\n        /* \"#utility.yul\":4436:4501   */\n      tag_131\n        /* \"#utility.yul\":4493:4500   */\n      dup6\n        /* \"#utility.yul\":4484:4490   */\n      dup3\n        /* \"#utility.yul\":4473:4482   */\n      dup7\n        /* \"#utility.yul\":4469:4491   */\n      add\n        /* \"#utility.yul\":4436:4501   */\n      tag_55\n      jump\t// in\n    tag_131:\n        /* \"#utility.yul\":4418:4501   */\n      swap3\n      pop\n      swap3\n      pop\n        /* \"#utility.yul\":4214:4511   */\n      pop\n        /* \"#utility.yul\":3989:4518   */\n      swap3\n      pop\n      swap3\n      swap1\n      pop\n      jump\t// out\n        /* \"#utility.yul\":4524:4614   */\n    tag_61:\n        /* \"#utility.yul\":4558:4565   */\n      0x00\n        /* \"#utility.yul\":4601:4606   */\n      dup2\n        /* \"#utility.yul\":4594:4607   */\n      iszero\n        /* \"#utility.yul\":4587:4608   */\n      iszero\n        /* \"#utility.yul\":4576:4608   */\n      swap1\n      pop\n        /* \"#utility.yul\":4524:4614   */\n      swap2\n      swap1\n      pop\n      jump\t// out\n        /* \"#utility.yul\":4620:4729   */\n    tag_62:\n        /* \"#utility.yul\":4701:4722   */\n      tag_134\n        /* \"#utility.yul\":4716:4721   */\n      dup2\n        /* \"#utility.yul\":4701:4722   */\n      tag_61\n      jump\t// in\n    tag_134:\n        /* \"#utility.yul\":4696:4699   */\n      dup3\n        /* \"#utility.yul\":4689:4723   */\n      mstore\n        /* \"#utility.yul\":4620:4729   */\n      pop\n      pop\n      jump\t// out\n        /* \"#utility.yul\":4735:5146   */\n    tag_25:\n        /* \"#utility.yul\":4870:4874   */\n      0x00\n        /* \"#utility.yul\":4908:4910   */\n      0x40\n        /* \"#utility.yul\":4897:4906   */\n      dup3\n        /* \"#utility.yul\":4893:4911   */\n      add\n        /* \"#utility.yul\":4885:4911   */\n      swap1\n      pop\n        /* \"#utility.yul\":4957:4966   */\n      dup2\n        /* \"#utility.yul\":4951:4955   */\n      dup2\n        /* \"#utility.yul\":4947:4967   */\n      sub\n        /* \"#utility.yul\":4943:4944   */\n      0x00\n        /* \"#utility.yul\":4932:4941   */\n      dup4\n        /* \"#utility.yul\":4928:4945   */\n      add\n        /* \"#utility.yul\":4921:4968   */\n      mstore\n        /* \"#utility.yul\":4985:5063   */\n      tag_136\n        /* \"#utility.yul\":5058:5062   */\n      dup2\n        /* \"#utility.yul\":5049:5055   */\n      dup6\n        /* \"#utility.yul\":4985:5063   */\n      tag_60\n      jump\t// in\n    tag_136:\n        /* \"#utility.yul\":4977:5063   */\n      swap1\n      pop\n        /* \"#utility.yul\":5073:5139   */\n      tag_137\n        /* \"#utility.yul\":5135:5137   */\n      0x20\n        /* \"#utility.yul\":5124:5133   */\n      dup4\n        /* \"#utility.yul\":5120:5138   */\n      add\n        /* \"#utility.yul\":5111:5117   */\n      dup5\n        /* \"#utility.yul\":5073:5139   */\n      tag_62\n      jump\t// in\n    tag_137:\n        /* \"#utility.yul\":4735:5146   */\n      swap4\n      swap3\n      pop\n      pop\n      pop\n      jump\t// out\n        /* \"#utility.yul\":5152:5332   */\n    tag_29:\n        /* \"#utility.yul\":5200:5277   */\n      0x4e487b7100000000000000000000000000000000000000000000000000000000\n        /* \"#utility.yul\":5197:5198   */\n      0x00\n        /* \"#utility.yul\":5190:5278   */\n      mstore\n        /* \"#utility.yul\":5297:5301   */\n      0x32\n        /* \"#utility.yul\":5294:5295   */\n      0x04\n        /* \"#utility.yul\":5287:5302   */\n      mstore\n        /* \"#utility.yul\":5321:5325   */\n      0x24\n        /* \"#utility.yul\":5318:5319   */\n      0x00\n        /* \"#utility.yul\":5311:5326   */\n      revert\n        /* \"#utility.yul\":5338:5435   */\n    tag_63:\n        /* \"#utility.yul\":5397:5403   */\n      0x00\n        /* \"#utility.yul\":5425:5428   */\n      dup3\n        /* \"#utility.yul\":5415:5428   */\n      swap1\n      pop\n        /* \"#utility.yul\":5338:5435   */\n      swap3\n      swap2\n      pop\n      pop\n      jump\t// out\n        /* \"#utility.yul\":5441:5621   */\n    tag_64:\n        /* \"#utility.yul\":5489:5566   */\n      0x4e487b7100000000000000000000000000000000000000000000000000000000\n        /* \"#utility.yul\":5486:5487   */\n      0x00\n        /* \"#utility.yul\":5479:5567   */\n      mstore\n        /* \"#utility.yul\":5586:5590   */\n      0x41\n        /* \"#utility.yul\":5583:5584   */\n      0x04\n        /* \"#utility.yul\":5576:5591   */\n      mstore\n        /* \"#utility.yul\":5610:5614   */\n      0x24\n        /* \"#utility.yul\":5607:5608   */\n      0x00\n        /* \"#utility.yul\":5600:5615   */\n      revert\n        /* \"#utility.yul\":5627:5807   */\n    tag_65:\n        /* \"#utility.yul\":5675:5752   */\n      0x4e487b7100000000000000000000000000000000000000000000000000000000\n        /* \"#utility.yul\":5672:5673   */\n      0x00\n        /* \"#utility.yul\":5665:5753   */\n      mstore\n        /* \"#utility.yul\":5772:5776   */\n      0x22\n        /* \"#utility.yul\":5769:5770   */\n      0x04\n        /* \"#utility.yul\":5762:5777   */\n      mstore\n        /* \"#utility.yul\":5796:5800   */\n      0x24\n        /* \"#utility.yul\":5793:5794   */\n      0x00\n        /* \"#utility.yul\":5786:5801   */\n      revert\n        /* \"#utility.yul\":5813:6133   */\n    tag_41:\n        /* \"#utility.yul\":5857:5863   */\n      0x00\n        /* \"#utility.yul\":5894:5895   */\n      0x02\n        /* \"#utility.yul\":5888:5892   */\n      dup3\n        /* \"#utility.yul\":5884:5896   */\n      div\n        /* \"#utility.yul\":5874:5896   */\n      swap1\n      pop\n        /* \"#utility.yul\":5941:5942   */\n      0x01\n        /* \"#utility.yul\":5935:5939   */\n      dup3\n        /* \"#utility.yul\":5931:5943   */\n      and\n        /* \"#utility.yul\":5962:5980   */\n      dup1\n        /* \"#utility.yul\":5952:6033   */\n      tag_143\n      jumpi\n        /* \"#utility.yul\":6018:6022   */\n      0x7f\n        /* \"#utility.yul\":6010:6016   */\n      dup3\n        /* \"#utility.yul\":6006:6023   */\n      and\n        /* \"#utility.yul\":5996:6023   */\n      swap2\n      pop\n        /* \"#utility.yul\":5952:6033   */\n    tag_143:\n        /* \"#utility.yul\":6080:6082   */\n      0x20\n        /* \"#utility.yul\":6072:6078   */\n      dup3\n        /* \"#utility.yul\":6069:6083   */\n      lt\n        /* \"#utility.yul\":6049:6067   */\n      dup2\n        /* \"#utility.yul\":6046:6084   */\n      sub\n        /* \"#utility.yul\":6043:6127   */\n      tag_144\n      jumpi\n        /* \"#utility.yul\":6099:6117   */\n      tag_145\n      tag_65\n      jump\t// in\n    tag_145:\n        /* \"#utility.yul\":6043:6127   */\n    tag_144:\n        /* \"#utility.yul\":5864:6133   */\n      pop\n        /* \"#utility.yul\":5813:6133   */\n      swap2\n      swap1\n      pop\n      jump\t// out\n        /* \"#utility.yul\":6139:6280   */\n    tag_66:\n        /* \"#utility.yul\":6188:6192   */\n      0x00\n        /* \"#utility.yul\":6211:6214   */\n      dup2\n        /* \"#utility.yul\":6203:6214   */\n      swap1\n      pop\n        /* \"#utility.yul\":6234:6237   */\n      dup2\n        /* \"#utility.yul\":6231:6232   */\n      0x00\n        /* \"#utility.yul\":6224:6238   */\n      mstore\n        /* \"#utility.yul\":6268:6272   */\n      0x20\n        /* \"#utility.yul\":6265:6266   */\n      0x00\n        /* \"#utility.yul\":6255:6273   */\n      keccak256\n        /* \"#utility.yul\":6247:6273   */\n      swap1\n      pop\n        /* \"#utility.yul\":6139:6280   */\n      swap2\n      swap1\n      pop\n      jump\t// out\n        /* \"#utility.yul\":6286:6379   */\n    tag_67:\n        /* \"#utility.yul\":6323:6329   */\n      0x00\n        /* \"#utility.yul\":6370:6372   */\n      0x20\n        /* \"#utility.yul\":6365:6367   */\n      0x1f\n        /* \"#utility.yul\":6358:6363   */\n      dup4\n        /* \"#utility.yul\":6354:6368   */\n      add\n        /* \"#utility.yul\":6350:6373   */\n      div\n        /* \"#utility.yul\":6340:6373   */\n      swap1\n      pop\n        /* \"#utility.yul\":6286:6379   */\n      swap2\n      swap1\n      pop\n      jump\t// out\n        /* \"#utility.yul\":6385:6492   */\n    tag_68:\n        /* \"#utility.yul\":6429:6437   */\n      0x00\n        /* \"#utility.yul\":6479:6484   */\n      dup3\n        /* \"#utility.yul\":6473:6477   */\n      dup3\n        /* \"#utility.yul\":6469:6485   */\n      shl\n        /* \"#utility.yul\":6448:6485   */\n      swap1\n      pop\n        /* \"#utility.yul\":6385:6492   */\n      swap3\n      swap2\n      pop\n      pop\n      jump\t// out\n        /* \"#utility.yul\":6498:6891   */\n    tag_69:\n        /* \"#utility.yul\":6567:6573   */\n      0x00\n        /* \"#utility.yul\":6617:6618   */\n      0x08\n        /* \"#utility.yul\":6605:6615   */\n      dup4\n        /* \"#utility.yul\":6601:6619   */\n      mul\n        /* \"#utility.yul\":6640:6737   */\n      tag_150\n        /* \"#utility.yul\":6670:6736   */\n      0xffffffffffffffffffffffffffffffffffffffffffffffffffffffffffffffff\n        /* \"#utility.yul\":6659:6668   */\n      dup3\n        /* \"#utility.yul\":6640:6737   */\n      tag_68\n      jump\t// in\n    tag_150:\n        /* \"#utility.yul\":6758:6797   */\n      tag_151\n        /* \"#utility.yul\":6788:6796   */\n      dup7\n        /* \"#utility.yul\":6777:6786   */\n      dup4\n        /* \"#utility.yul\":6758:6797   */\n      tag_68\n      jump\t// in\n    tag_151:\n        /* \"#utility.yul\":6746:6797   */\n      swap6\n      pop\n        /* \"#utility.yul\":6830:6834   */\n      dup1\n        /* \"#utility.yul\":6826:6835   */\n      not\n        /* \"#utility.yul\":6819:6824   */\n      dup5\n        /* \"#utility.yul\":6815:6836   */\n      and\n        /* \"#utility.yul\":6806:6836   */\n      swap4\n      pop\n        /* \"#utility.yul\":6879:6883   */\n      dup1\n        /* \"#utility.yul\":6869:6877   */\n      dup7\n        /* \"#utility.yul\":6865:6884   */\n      and\n        /* \"#utility.yul\":6858:6863   */\n      dup5\n        /* \"#utility.yul\":6855:6885   */\n      or\n        /* \"#utility.yul\":6845:6885   */\n      swap3\n      pop\n        /* \"#utility.yul\":6574:6891   */\n      pop\n      pop\n        /* \"#utility.yul\":6498:6891   */\n      swap4\n      swap3\n      pop\n      pop\n      pop\n      jump\t// out\n        /* \"#utility.yul\":6897:6957   */\n    tag_70:\n        /* \"#utility.yul\":6925:6928   */\n      0x00\n        /* \"#utility.yul\":6946:6951   */\n      dup2\n        /* \"#utility.yul\":6939:6951   */\n      swap1\n      pop\n        /* \"#utility.yul\":6897:6957   */\n      swap2\n      swap1\n      pop\n      jump\t// out\n        /* \"#utility.yul\":6963:7105   */\n    tag_71:\n        /* \"#utility.yul\":7013:7022   */\n      0x00\n        /* \"#utility.yul\":7046:7099   */\n      tag_154\n        /* \"#utility.yul\":7064:7098   */\n      tag_155\n        /* \"#utility.yul\":7073:7097   */\n      tag_156\n        /* \"#utility.yul\":7091:7096   */\n      dup5\n        /* \"#utility.yul\":7073:7097   */\n      tag_49\n      jump\t// in\n    tag_156:\n        /* \"#utility.yul\":7064:7098   */\n      tag_70\n      jump\t// in\n    tag_155:\n        /* \"#utility.yul\":7046:7099   */\n      tag_49\n      jump\t// in\n    tag_154:\n        /* \"#utility.yul\":7033:7099   */\n      swap1\n      pop\n        /* \"#utility.yul\":6963:7105   */\n      swap2\n      swap1\n      pop\n      jump\t// out\n        /* \"#utility.yul\":7111:7186   */\n    tag_72:\n        /* \"#utility.yul\":7154:7157   */\n      0x00\n        /* \"#utility.yul\":7175:7180   */\n      dup2\n        /* \"#utility.yul\":7168:7180   */\n      swap1\n      pop\n        /* \"#utility.yul\":7111:7186   */\n      swap2\n      swap1\n      pop\n      jump\t// out\n        /* \"#utility.yul\":7192:7461   */\n    tag_73:\n        /* \"#utility.yul\":7302:7341   */\n      tag_159\n        /* \"#utility.yul\":7333:7340   */\n      dup4\n        /* \"#utility.yul\":7302:7341   */\n      tag_71\n      jump\t// in\n    tag_159:\n        /* \"#utility.yul\":7363:7454   */\n      tag_160\n        /* \"#utility.yul\":7412:7453   */\n      tag_161\n        /* \"#utility.yul\":7436:7452   */\n      dup3\n        /* \"#utility.yul\":7412:7453   */\n      tag_72\n      jump\t// in\n    tag_161:\n        /* \"#utility.yul\":7404:7410   */\n      dup5\n        /* \"#utility.yul\":7397:7401   */\n      dup5\n        /* \"#utility.yul\":7391:7402   */\n      sload\n        /* \"#utility.yul\":7363:7454   */\n      tag_69\n      jump\t// in\n    tag_160:\n        /* \"#utility.yul\":7357:7361   */\n      dup3\n        /* \"#utility.yul\":7350:7455   */\n      sstore\n        /* \"#utility.yul\":7268:7461   */\n      pop\n        /* \"#utility.yul\":7192:7461   */\n      pop\n      pop\n      pop\n      jump\t// out\n        /* \"#utility.yul\":7467:7540   */\n    tag_74:\n        /* \"#utility.yul\":7512:7515   */\n      0x00\n        /* \"#utility.yul\":7467:7540   */\n      swap1\n      jump\t// out\n        /* \"#utility.yul\":7546:7735   */\n    tag_75:\n        /* \"#utility.yul\":7623:7655   */\n      tag_164\n      tag_74\n      jump\t// in\n    tag_164:\n        /* \"#utility.yul\":7664:7729   */\n      tag_165\n        /* \"#utility.yul\":7722:7728   */\n      dup2\n        /* \"#utility.yul\":7714:7720   */\n      dup5\n        /* \"#utility.yul\":7708:7712   */\n      dup5\n        /* \"#utility.yul\":7664:7729   */\n      tag_73\n      jump\t// in\n    tag_165:\n        /* \"#utility.yul\":7599:7735   */\n      pop\n        /* \"#utility.yul\":7546:7735   */\n      pop\n      pop\n      jump\t// out\n        /* \"#utility.yul\":7741:7927   */\n    tag_76:\n        /* \"#utility.yul\":7801:7921   */\n    tag_167:\n        /* \"#utility.yul\":7818:7821   */\n      dup2\n        /* \"#utility.yul\":7811:7816   */\n      dup2\n        /* \"#utility.yul\":7808:7822   */\n      lt\n        /* \"#utility.yul\":7801:7921   */\n      iszero\n      tag_169\n      jumpi\n        /* \"#utility.yul\":7872:7911   */\n      tag_170\n        /* \"#utility.yul\":7909:7910   */\n      0x00\n        /* \"#utility.yul\":7902:7907   */\n      dup3\n        /* \"#utility.yul\":7872:7911   */\n      tag_75\n      jump\t// in\n    tag_170:\n        /* \"#utility.yul\":7845:7846   */\n      0x01\n        /* \"#utility.yul\":7838:7843   */\n      dup2\n        /* \"#utility.yul\":7834:7847   */\n      add\n        /* \"#utility.yul\":7825:7847   */\n      swap1\n      pop\n        /* \"#utility.yul\":7801:7921   */\n      jump(tag_167)\n    tag_169:\n        /* \"#utility.yul\":7741:7927   */\n      pop\n      pop\n      jump\t// out\n        /* \"#utility.yul\":7933:8476   */\n    tag_77:\n        /* \"#utility.yul\":8034:8036   */\n      0x1f\n        /* \"#utility.yul\":8029:8032   */\n      dup3\n        /* \"#utility.yul\":8026:8037   */\n      gt\n        /* \"#utility.yul\":8023:8469   */\n      iszero\n      tag_172\n      jumpi\n        /* \"#utility.yul\":8068:8106   */\n      tag_173\n        /* \"#utility.yul\":8100:8105   */\n      dup2\n        /* \"#utility.yul\":8068:8106   */\n      tag_66\n      jump\t// in\n    tag_173:\n        /* \"#utility.yul\":8152:8181   */\n      tag_174\n        /* \"#utility.yul\":8170:8180   */\n      dup5\n        /* \"#utility.yul\":8152:8181   */\n      tag_67\n      jump\t// in\n    tag_174:\n        /* \"#utility.yul\":8142:8150   */\n      dup2\n        /* \"#utility.yul\":8138:8182   */\n      add\n        /* \"#utility.yul\":8335:8337   */\n      0x20\n        /* \"#utility.yul\":8323:8333   */\n      dup6\n        /* \"#utility.yul\":8320:8338   */\n      lt\n        /* \"#utility.yul\":8317:8366   */\n      iszero\n      tag_175\n      jumpi\n        /* \"#utility.yul\":8356:8364   */\n      dup2\n        /* \"#utility.yul\":8341:8364   */\n      swap1\n      pop\n        /* \"#utility.yul\":8317:8366   */\n    tag_175:\n        /* \"#utility.yul\":8379:8459   */\n      tag_176\n        /* \"#utility.yul\":8435:8457   */\n      tag_177\n        /* \"#utility.yul\":8453:8456   */\n      dup6\n        /* \"#utility.yul\":8435:8457   */\n      tag_67\n      jump\t// in\n    tag_177:\n        /* \"#utility.yul\":8425:8433   */\n      dup4\n        /* \"#utility.yul\":8421:8458   */\n      add\n        /* \"#utility.yul\":8408:8419   */\n      dup3\n        /* \"#utility.yul\":8379:8459   */\n      tag_76\n      jump\t// in\n    tag_176:\n        /* \"#utility.yul\":8038:8469   */\n      pop\n      pop\n        /* \"#utility.yul\":8023:8469   */\n    tag_172:\n        /* \"#utility.yul\":7933:8476   */\n      pop\n      pop\n      pop\n      jump\t// out\n        /* \"#utility.yul\":8482:8599   */\n    tag_78:\n        /* \"#utility.yul\":8536:8544   */\n      0x00\n        /* \"#utility.yul\":8586:8591   */\n      dup3\n        /* \"#utility.yul\":8580:8584   */\n      dup3\n        /* \"#utility.yul\":8576:8592   */\n      shr\n        /* \"#utility.yul\":8555:8592   */\n      swap1\n      pop\n        /* \"#utility.yul\":8482:8599   */\n      swap3\n      swap2\n      pop\n      pop\n      jump\t// out\n        /* \"#utility.yul\":8605:8774   */\n    tag_79:\n        /* \"#utility.yul\":8649:8655   */\n      0x00\n        /* \"#utility.yul\":8682:8733   */\n      tag_180\n        /* \"#utility.yul\":8730:8731   */\n      0x00\n        /* \"#utility.yul\":8726:8732   */\n      not\n        /* \"#utility.yul\":8718:8723   */\n      dup5\n        /* \"#utility.yul\":8715:8716   */\n      0x08\n        /* \"#utility.yul\":8711:8724   */\n      mul\n        /* \"#utility.yul\":8682:8733   */\n      tag_78\n      jump\t// in\n    tag_180:\n        /* \"#utility.yul\":8678:8734   */\n      not\n        /* \"#utility.yul\":8763:8767   */\n      dup1\n        /* \"#utility.yul\":8757:8761   */\n      dup4\n        /* \"#utility.yul\":8753:8768   */\n      and\n        /* \"#utility.yul\":8743:8768   */\n      swap2\n      pop\n        /* \"#utility.yul\":8656:8774   */\n      pop\n        /* \"#utility.yul\":8605:8774   */\n      swap3\n      swap2\n      pop\n      pop\n      jump\t// out\n        /* \"#utility.yul\":8779:9074   */\n    tag_80:\n        /* \"#utility.yul\":8855:8859   */\n      0x00\n        /* \"#utility.yul\":9001:9030   */\n      tag_182\n        /* \"#utility.yul\":9026:9029   */\n      dup4\n        /* \"#utility.yul\":9020:9024   */\n      dup4\n        /* \"#utility.yul\":9001:9030   */\n      tag_79\n      jump\t// in\n    tag_182:\n        /* \"#utility.yul\":8993:9030   */\n      swap2\n      pop\n        /* \"#utility.yul\":9063:9066   */\n      dup3\n        /* \"#utility.yul\":9060:9061   */\n      0x02\n        /* \"#utility.yul\":9056:9067   */\n      mul\n        /* \"#utility.yul\":9050:9054   */\n      dup3\n        /* \"#utility.yul\":9047:9068   */\n      or\n        /* \"#utility.yul\":9039:9068   */\n      swap1\n      pop\n        /* \"#utility.yul\":8779:9074   */\n      swap3\n      swap2\n      pop\n      pop\n      jump\t// out\n        /* \"#utility.yul\":9079:10482   */\n    tag_32:\n        /* \"#utility.yul\":9203:9247   */\n      tag_184\n        /* \"#utility.yul\":9243:9246   */\n      dup4\n        /* \"#utility.yul\":9238:9241   */\n      dup4\n        /* \"#utility.yul\":9203:9247   */\n      tag_63\n      jump\t// in\n    tag_184:\n        /* \"#utility.yul\":9312:9330   */\n      0xffffffffffffffff\n        /* \"#utility.yul\":9304:9310   */\n      dup2\n        /* \"#utility.yul\":9301:9331   */\n      gt\n        /* \"#utility.yul\":9298:9354   */\n      iszero\n      tag_185\n      jumpi\n        /* \"#utility.yul\":9334:9352   */\n      tag_186\n      tag_64\n      jump\t// in\n    tag_186:\n        /* \"#utility.yul\":9298:9354   */\n    tag_185:\n        /* \"#utility.yul\":9378:9416   */\n      tag_187\n        /* \"#utility.yul\":9410:9414   */\n      dup3\n        /* \"#utility.yul\":9404:9415   */\n      sload\n        /* \"#utility.yul\":9378:9416   */\n      tag_41\n      jump\t// in\n    tag_187:\n        /* \"#utility.yul\":9463:9530   */\n      tag_188\n        /* \"#utility.yul\":9523:9529   */\n      dup3\n        /* \"#utility.yul\":9515:9521   */\n      dup3\n        /* \"#utility.yul\":9509:9513   */\n      dup6\n        /* \"#utility.yul\":9463:9530   */\n      tag_77\n      jump\t// in\n    tag_188:\n        /* \"#utility.yul\":9557:9558   */\n      0x00\n        /* \"#utility.yul\":9586:9588   */\n      0x1f\n        /* \"#utility.yul\":9578:9584   */\n      dup4\n        /* \"#utility.yul\":9575:9589   */\n      gt\n        /* \"#utility.yul\":9603:9604   */\n      0x01\n        /* \"#utility.yul\":9598:10230   */\n      dup2\n      eq\n      tag_190\n      jumpi\n        /* \"#utility.yul\":10274:10275   */\n      0x00\n        /* \"#utility.yul\":10291:10297   */\n      dup5\n        /* \"#utility.yul\":10288:10372   */\n      iszero\n      tag_191\n      jumpi\n        /* \"#utility.yul\":10347:10356   */\n      dup3\n        /* \"#utility.yul\":10342:10345   */\n      dup8\n        /* \"#utility.yul\":10338:10357   */\n      add\n        /* \"#utility.yul\":10325:10358   */\n      calldataload\n        /* \"#utility.yul\":10316:10358   */\n      swap1\n      pop\n        /* \"#utility.yul\":10288:10372   */\n    tag_191:\n        /* \"#utility.yul\":10398:10465   */\n      tag_192\n        /* \"#utility.yul\":10458:10464   */\n      dup6\n        /* \"#utility.yul\":10451:10456   */\n      dup3\n        /* \"#utility.yul\":10398:10465   */\n      tag_80\n      jump\t// in\n    tag_192:\n        /* \"#utility.yul\":10392:10396   */\n      dup7\n        /* \"#utility.yul\":10385:10466   */\n      sstore\n        /* \"#utility.yul\":10247:10476   */\n      pop\n        /* \"#utility.yul\":9568:10476   */\n      jump(tag_189)\n        /* \"#utility.yul\":9598:10230   */\n    tag_190:\n        /* \"#utility.yul\":9650:9654   */\n      0x1f\n        /* \"#utility.yul\":9646:9655   */\n      not\n        /* \"#utility.yul\":9638:9644   */\n      dup5\n        /* \"#utility.yul\":9634:9656   */\n      and\n        /* \"#utility.yul\":9684:9721   */\n      tag_193\n        /* \"#utility.yul\":9716:9720   */\n      dup7\n        /* \"#utility.yul\":9684:9721   */\n      tag_66\n      jump\t// in\n    tag_193:\n        /* \"#utility.yul\":9743:9744   */\n      0x00\n        /* \"#utility.yul\":9757:9972   */\n    tag_194:\n        /* \"#utility.yul\":9771:9778   */\n      dup3\n        /* \"#utility.yul\":9768:9769   */\n      dup2\n        /* \"#utility.yul\":9765:9779   */\n      lt\n        /* \"#utility.yul\":9757:9972   */\n      iszero\n      tag_196\n      jumpi\n        /* \"#utility.yul\":9857:9866   */\n      dup5\n        /* \"#utility.yul\":9852:9855   */\n      dup10\n        /* \"#utility.yul\":9848:9867   */\n      add\n        /* \"#utility.yul\":9835:9868   */\n      calldataload\n        /* \"#utility.yul\":9827:9833   */\n      dup3\n        /* \"#utility.yul\":9820:9869   */\n      sstore\n        /* \"#utility.yul\":9908:9909   */\n      0x01\n        /* \"#utility.yul\":9900:9906   */\n      dup3\n        /* \"#utility.yul\":9896:9910   */\n      add\n        /* \"#utility.yul\":9886:9910   */\n      swap2\n      pop\n        /* \"#utility.yul\":9955:9957   */\n      0x20\n        /* \"#utility.yul\":9944:9953   */\n      dup6\n        /* \"#utility.yul\":9940:9958   */\n      add\n        /* \"#utility.yul\":9927:9958   */\n      swap5\n      pop\n        /* \"#utility.yul\":9794:9798   */\n      0x20\n        /* \"#utility.yul\":9791:9792   */\n      dup2\n        /* \"#utility.yul\":9787:9799   */\n      add\n        /* \"#utility.yul\":9782:9799   */\n      swap1\n      pop\n        /* \"#utility.yul\":9757:9972   */\n      jump(tag_194)\n    tag_196:\n        /* \"#utility.yul\":10000:10006   */\n      dup7\n        /* \"#utility.yul\":9991:9998   */\n      dup4\n        /* \"#utility.yul\":9988:10007   */\n      lt\n        /* \"#utility.yul\":9985:10171   */\n      iszero\n      tag_197\n      jumpi\n        /* \"#utility.yul\":10065:10074   */\n      dup5\n        /* \"#utility.yul\":10060:10063   */\n      dup10\n        /* \"#utility.yul\":10056:10075   */\n      add\n        /* \"#utility.yul\":10043:10076   */\n      calldataload\n        /* \"#utility.yul\":10108:10156   */\n      tag_198\n        /* \"#utility.yul\":10150:10154   */\n      0x1f\n        /* \"#utility.yul\":10142:10148   */\n      dup10\n        /* \"#utility.yul\":10138:10155   */\n      and\n        /* \"#utility.yul\":10127:10136   */\n      dup3\n        /* \"#utility.yul\":10108:10156   */\n      tag_79\n      jump\t// in\n    tag_198:\n        /* \"#utility.yul\":10100:10106   */\n      dup4\n        /* \"#utility.yul\":10093:10157   */\n      sstore\n        /* \"#utility.yul\":10008:10171   */\n      pop\n        /* \"#utility.yul\":9985:10171   */\n    tag_197:\n        /* \"#utility.yul\":10217:10218   */\n      0x01\n        /* \"#utility.yul\":10213:10214   */\n      0x02\n        /* \"#utility.yul\":10205:10211   */\n      dup9\n        /* \"#utility.yul\":10201:10215   */\n      mul\n        /* \"#utility.yul\":10197:10219   */\n      add\n        /* \"#utility.yul\":10191:10195   */\n      dup9\n        /* \"#utility.yul\":10184:10220   */\n      sstore\n        /* \"#utility.yul\":9605:10230   */\n      pop\n      pop\n      pop\n        /* \"#utility.yul\":9568:10476   */\n    tag_189:\n      pop\n        /* \"#utility.yul\":9178:10482   */\n      pop\n      pop\n      pop\n        /* \"#utility.yul\":9079:10482   */\n      pop\n      pop\n      pop\n      jump\t// out\n        /* \"#utility.yul\":10488:11883   */\n    tag_37:\n        /* \"#utility.yul\":10605:10642   */\n      tag_200\n        /* \"#utility.yul\":10638:10641   */\n      dup3\n        /* \"#utility.yul\":10605:10642   */\n      tag_56\n      jump\t// in\n    tag_200:\n        /* \"#utility.yul\":10707:10725   */\n      0xffffffffffffffff\n        /* \"#utility.yul\":10699:10705   */\n      dup2\n        /* \"#utility.yul\":10696:10726   */\n      gt\n        /* \"#utility.yul\":10693:10749   */\n      iszero\n      tag_201\n      jumpi\n        /* \"#utility.yul\":10729:10747   */\n      tag_202\n      tag_64\n      jump\t// in\n    tag_202:\n        /* \"#utility.yul\":10693:10749   */\n    tag_201:\n        /* \"#utility.yul\":10773:10811   */\n      tag_203\n        /* \"#utility.yul\":10805:10809   */\n      dup3\n        /* \"#utility.yul\":10799:10810   */\n      sload\n        /* \"#utility.yul\":10773:10811   */\n      tag_41\n      jump\t// in\n    tag_203:\n        /* \"#utility.yul\":10858:10925   */\n      tag_204\n        /* \"#utility.yul\":10918:10924   */\n      dup3\n        /* \"#utility.yul\":10910:10916   */\n      dup3\n        /* \"#utility.yul\":10904:10908   */\n      dup6\n        /* \"#utility.yul\":10858:10925   */\n      tag_77\n      jump\t// in\n    tag_204:\n        /* \"#utility.yul\":10952:10953   */\n      0x00\n        /* \"#utility.yul\":10976:10980   */\n      0x20\n        /* \"#utility.yul\":10963:10980   */\n      swap1\n      pop\n        /* \"#utility.yul\":11008:11010   */\n      0x1f\n        /* \"#utility.yul\":11000:11006   */\n      dup4\n        /* \"#utility.yul\":10997:11011   */\n      gt\n        /* \"#utility.yul\":11025:11026   */\n      0x01\n        /* \"#utility.yul\":11020:11638   */\n      dup2\n      eq\n      tag_206\n      jumpi\n        /* \"#utility.yul\":11682:11683   */\n      0x00\n        /* \"#utility.yul\":11699:11705   */\n      dup5\n        /* \"#utility.yul\":11696:11773   */\n      iszero\n      tag_207\n      jumpi\n        /* \"#utility.yul\":11748:11757   */\n      dup3\n        /* \"#utility.yul\":11743:11746   */\n      dup8\n        /* \"#utility.yul\":11739:11758   */\n      add\n        /* \"#utility.yul\":11733:11759   */\n      mload\n        /* \"#utility.yul\":11724:11759   */\n      swap1\n      pop\n        /* \"#utility.yul\":11696:11773   */\n    tag_207:\n        /* \"#utility.yul\":11799:11866   */\n      tag_208\n        /* \"#utility.yul\":11859:11865   */\n      dup6\n        /* \"#utility.yul\":11852:11857   */\n      dup3\n        /* \"#utility.yul\":11799:11866   */\n      tag_80\n      jump\t// in\n    tag_208:\n        /* \"#utility.yul\":11793:11797   */\n      dup7\n        /* \"#utility.yul\":11786:11867   */\n      sstore\n        /* \"#utility.yul\":11655:11877   */\n      pop\n        /* \"#utility.yul\":10990:11877   */\n      jump(tag_205)\n        /* \"#utility.yul\":11020:11638   */\n    tag_206:\n        /* \"#utility.yul\":11072:11076   */\n      0x1f\n        /* \"#utility.yul\":11068:11077   */\n      not\n        /* \"#utility.yul\":11060:11066   */\n      dup5\n        /* \"#utility.yul\":11056:11078   */\n      and\n        /* \"#utility.yul\":11106:11143   */\n      tag_209\n        /* \"#utility.yul\":11138:11142   */\n      dup7\n        /* \"#utility.yul\":11106:11143   */\n      tag_66\n      jump\t// in\n    tag_209:\n        /* \"#utility.yul\":11165:11166   */\n      0x00\n        /* \"#utility.yul\":11179:11387   */\n    tag_210:\n        /* \"#utility.yul\":11193:11200   */\n      dup3\n        /* \"#utility.yul\":11190:11191   */\n      dup2\n        /* \"#utility.yul\":11187:11201   */\n      lt\n        /* \"#utility.yul\":11179:11387   */\n      iszero\n      tag_212\n      jumpi\n        /* \"#utility.yul\":11272:11281   */\n      dup5\n        /* \"#utility.yul\":11267:11270   */\n      dup10\n        /* \"#utility.yul\":11263:11282   */\n      add\n        /* \"#utility.yul\":11257:11283   */\n      mload\n        /* \"#utility.yul\":11249:11255   */\n      dup3\n        /* \"#utility.yul\":11242:11284   */\n      sstore\n        /* \"#utility.yul\":11323:11324   */\n      0x01\n        /* \"#utility.yul\":11315:11321   */\n      dup3\n        /* \"#utility.yul\":11311:11325   */\n      add\n        /* \"#utility.yul\":11301:11325   */\n      swap2\n      pop\n        /* \"#utility.yul\":11370:11372   */\n      0x20\n        /* \"#utility.yul\":11359:11368   */\n      dup6\n        /* \"#utility.yul\":11355:11373   */\n      add\n        /* \"#utility.yul\":11342:11373   */\n      swap5\n      pop\n        /* \"#utility.yul\":11216:11220   */\n      0x20\n        /* \"#utility.yul\":11213:11214   */\n      dup2\n        /* \"#utility.yul\":11209:11221   */\n      add\n        /* \"#utility.yul\":11204:11221   */\n      swap1\n      pop\n        /* \"#utility.yul\":11179:11387   */\n      jump(tag_210)\n    tag_212:\n        /* \"#utility.yul\":11415:11421   */\n      dup7\n        /* \"#utility.yul\":11406:11413   */\n      dup4\n        /* \"#utility.yul\":11403:11422   */\n      lt\n        /* \"#utility.yul\":11400:11579   */\n      iszero\n      tag_213\n      jumpi\n        /* \"#utility.yul\":11473:11482   */\n      dup5\n        /* \"#utility.yul\":11468:11471   */\n      dup10\n        /* \"#utility.yul\":11464:11483   */\n      add\n        /* \"#utility.yul\":11458:11484   */\n      mload\n        /* \"#utility.yul\":11516:11564   */\n      tag_214\n        /* \"#utility.yul\":11558:11562   */\n      0x1f\n        /* \"#utility.yul\":11550:11556   */\n      dup10\n        /* \"#utility.yul\":11546:11563   */\n      and\n        /* \"#utility.yul\":11535:11544   */\n      dup3\n        /* \"#utility.yul\":11516:11564   */\n      tag_79\n      jump\t// in\n    tag_214:\n        /* \"#utility.yul\":11508:11514   */\n      dup4\n        /* \"#utility.yul\":11501:11565   */\n      sstore\n        /* \"#utility.yul\":11423:11579   */\n      pop\n        /* \"#utility.yul\":11400:11579   */\n    tag_213:\n        /* \"#utility.yul\":11625:11626   */\n      0x01\n        /* \"#utility.yul\":11621:11622   */\n      0x02\n        /* \"#utility.yul\":11613:11619   */\n      dup9\n        /* \"#utility.yul\":11609:11623   */\n      mul\n        /* \"#utility.yul\":11605:11627   */\n      add\n        /* \"#utility.yul\":11599:11603   */\n      dup9\n        /* \"#utility.yul\":11592:11628   */\n      sstore\n        /* \"#utility.yul\":11027:11638   */\n      pop\n      pop\n      pop\n        /* \"#utility.yul\":10990:11877   */\n    tag_205:\n      pop\n        /* \"#utility.yul\":10580:11883   */\n      pop\n      pop\n      pop\n        /* \"#utility.yul\":10488:11883   */\n      pop\n      pop\n      jump\t// out\n\n    auxdata: 0xa2646970667358221220e5c37079eaa03eca7875ff9b2485035413163574eb1d57d45f67c3abc469170664736f6c63430008110033\n}\n",
				"bytecode": {
					"linkReferences": {},
					"object": "608060405234801561001057600080fd5b50610980806100206000396000f3fe608060405234801561001057600080fd5b506004361061004c5760003560e01c8063860bbc00146100515780639507d39a1461006d578063b6a46b3b1461009d578063bc8bc2b4146100b9575b600080fd5b61006b6004803603810190610066919061035c565b6100ea565b005b610087600480360381019061008291906103bc565b610124565b6040516100949190610479565b60405180910390f35b6100b760048036038101906100b2919061049b565b61012b565b005b6100d360048036038101906100ce91906103bc565b6101ee565b6040516100e1929190610503565b60405180910390f35b818160008581548110610100576100ff610533565b5b9060005260206000209060020201600001918261011e9291906107a8565b50505050565b6060919050565b6000604051806040016040528084848080601f016020809104026020016040519081016040528093929190818152602001838380828437600081840152601f19601f82011690508083019250505050505050815260200160001515815250908060018154018082558091505060019003906000526020600020906002020160009091909190915060008201518160000190816101c79190610878565b5060208201518160010160006101000a81548160ff02191690831515021790555050505050565b600081815481106101fe57600080fd5b9060005260206000209060020201600091509050806000018054610221906105cb565b80601f016020809104026020016040519081016040528092919081815260200182805461024d906105cb565b801561029a5780601f1061026f5761010080835404028352916020019161029a565b820191906000526020600020905b81548152906001019060200180831161027d57829003601f168201915b5050505050908060010160009054906101000a900460ff16905082565b600080fd5b600080fd5b6000819050919050565b6102d4816102c1565b81146102df57600080fd5b50565b6000813590506102f1816102cb565b92915050565b600080fd5b600080fd5b600080fd5b60008083601f84011261031c5761031b6102f7565b5b8235905067ffffffffffffffff811115610339576103386102fc565b5b60208301915083600182028301111561035557610354610301565b5b9250929050565b600080600060408486031215610375576103746102b7565b5b6000610383868287016102e2565b935050602084013567ffffffffffffffff8111156103a4576103a36102bc565b5b6103b086828701610306565b92509250509250925092565b6000602082840312156103d2576103d16102b7565b5b60006103e0848285016102e2565b91505092915050565b600081519050919050565b600082825260208201905092915050565b60005b83811015610423578082015181840152602081019050610408565b60008484015250505050565b6000601f19601f8301169050919050565b600061044b826103e9565b61045581856103f4565b9350610465818560208601610405565b61046e8161042f565b840191505092915050565b600060208201905081810360008301526104938184610440565b905092915050565b600080602083850312156104b2576104b16102b7565b5b600083013567ffffffffffffffff8111156104d0576104cf6102bc565b5b6104dc85828601610306565b92509250509250929050565b60008115159050919050565b6104fd816104e8565b82525050565b6000604082019050818103600083015261051d8185610440565b905061052c60208301846104f4565b9392505050565b7f4e487b7100000000000000000000000000000000000000000000000000000000600052603260045260246000fd5b600082905092915050565b7f4e487b7100000000000000000000000000000000000000000000000000000000600052604160045260246000fd5b7f4e487b7100000000000000000000000000000000000000000000000000000000600052602260045260246000fd5b600060028204905060018216806105e357607f821691505b6020821081036105f6576105f561059c565b5b50919050565b60008190508160005260206000209050919050565b60006020601f8301049050919050565b600082821b905092915050565b60006008830261065e7fffffffffffffffffffffffffffffffffffffffffffffffffffffffffffffffff82610621565b6106688683610621565b95508019841693508086168417925050509392505050565b6000819050919050565b60006106a56106a061069b846102c1565b610680565b6102c1565b9050919050565b6000819050919050565b6106bf8361068a565b6106d36106cb826106ac565b84845461062e565b825550505050565b600090565b6106e86106db565b6106f38184846106b6565b505050565b5b818110156107175761070c6000826106e0565b6001810190506106f9565b5050565b601f82111561075c5761072d816105fc565b61073684610611565b81016020851015610745578190505b61075961075185610611565b8301826106f8565b50505b505050565b600082821c905092915050565b600061077f60001984600802610761565b1980831691505092915050565b6000610798838361076e565b9150826002028217905092915050565b6107b28383610562565b67ffffffffffffffff8111156107cb576107ca61056d565b5b6107d582546105cb565b6107e082828561071b565b6000601f83116001811461080f57600084156107fd578287013590505b610807858261078c565b86555061086f565b601f19841661081d866105fc565b60005b8281101561084557848901358255600182019150602085019450602081019050610820565b86831015610862578489013561085e601f89168261076e565b8355505b6001600288020188555050505b50505050505050565b610881826103e9565b67ffffffffffffffff81111561089a5761089961056d565b5b6108a482546105cb565b6108af82828561071b565b600060209050601f8311600181146108e257600084156108d0578287015190505b6108da858261078c565b865550610942565b601f1984166108f0866105fc565b60005b82811015610918578489015182556001820191506020850194506020810190506108f3565b868310156109355784890151610931601f89168261076e565b8355505b6001600288020188555050505b50505050505056fea2646970667358221220e5c37079eaa03eca7875ff9b2485035413163574eb1d57d45f67c3abc469170664736f6c63430008110033",
					"opcodes": "PUSH1 0x80 PUSH1 0x40 MSTORE CALLVALUE DUP1 ISZERO PUSH2 0x10 JUMPI PUSH1 0x0 DUP1 REVERT JUMPDEST POP PUSH2 0x980 DUP1 PUSH2 0x20 PUSH1 0x0 CODECOPY PUSH1 0x0 RETURN INVALID PUSH1 0x80 PUSH1 0x40 MSTORE CALLVALUE DUP1 ISZERO PUSH2 0x10 JUMPI PUSH1 0x0 DUP1 REVERT JUMPDEST POP PUSH1 0x4 CALLDATASIZE LT PUSH2 0x4C JUMPI PUSH1 0x0 CALLDATALOAD PUSH1 0xE0 SHR DUP1 PUSH4 0x860BBC00 EQ PUSH2 0x51 JUMPI DUP1 PUSH4 0x9507D39A EQ PUSH2 0x6D JUMPI DUP1 PUSH4 0xB6A46B3B EQ PUSH2 0x9D JUMPI DUP1 PUSH4 0xBC8BC2B4 EQ PUSH2 0xB9 JUMPI JUMPDEST PUSH1 0x0 DUP1 REVERT JUMPDEST PUSH2 0x6B PUSH1 0x4 DUP1 CALLDATASIZE SUB DUP2 ADD SWAP1 PUSH2 0x66 SWAP2 SWAP1 PUSH2 0x35C JUMP JUMPDEST PUSH2 0xEA JUMP JUMPDEST STOP JUMPDEST PUSH2 0x87 PUSH1 0x4 DUP1 CALLDATASIZE SUB DUP2 ADD SWAP1 PUSH2 0x82 SWAP2 SWAP1 PUSH2 0x3BC JUMP JUMPDEST PUSH2 0x124 JUMP JUMPDEST PUSH1 0x40 MLOAD PUSH2 0x94 SWAP2 SWAP1 PUSH2 0x479 JUMP JUMPDEST PUSH1 0x40 MLOAD DUP1 SWAP2 SUB SWAP1 RETURN JUMPDEST PUSH2 0xB7 PUSH1 0x4 DUP1 CALLDATASIZE SUB DUP2 ADD SWAP1 PUSH2 0xB2 SWAP2 SWAP1 PUSH2 0x49B JUMP JUMPDEST PUSH2 0x12B JUMP JUMPDEST STOP JUMPDEST PUSH2 0xD3 PUSH1 0x4 DUP1 CALLDATASIZE SUB DUP2 ADD SWAP1 PUSH2 0xCE SWAP2 SWAP1 PUSH2 0x3BC JUMP JUMPDEST PUSH2 0x1EE JUMP JUMPDEST PUSH1 0x40 MLOAD PUSH2 0xE1 SWAP3 SWAP2 SWAP1 PUSH2 0x503 JUMP JUMPDEST PUSH1 0x40 MLOAD DUP1 SWAP2 SUB SWAP1 RETURN JUMPDEST DUP2 DUP2 PUSH1 0x0 DUP6 DUP2 SLOAD DUP2 LT PUSH2 0x100 JUMPI PUSH2 0xFF PUSH2 0x533 JUMP JUMPDEST JUMPDEST SWAP1 PUSH1 0x0 MSTORE PUSH1 0x20 PUSH1 0x0 KECCAK256 SWAP1 PUSH1 0x2 MUL ADD PUSH1 0x0 ADD SWAP2 DUP3 PUSH2 0x11E SWAP3 SWAP2 SWAP1 PUSH2 0x7A8 JUMP JUMPDEST POP POP POP POP JUMP JUMPDEST PUSH1 0x60 SWAP2 SWAP1 POP JUMP JUMPDEST PUSH1 0x0 PUSH1 0x40 MLOAD DUP1 PUSH1 0x40 ADD PUSH1 0x40 MSTORE DUP1 DUP5 DUP5 DUP1 DUP1 PUSH1 0x1F ADD PUSH1 0x20 DUP1 SWAP2 DIV MUL PUSH1 0x20 ADD PUSH1 0x40 MLOAD SWAP1 DUP2 ADD PUSH1 0x40 MSTORE DUP1 SWAP4 SWAP3 SWAP2 SWAP1 DUP2 DUP2 MSTORE PUSH1 0x20 ADD DUP4 DUP4 DUP1 DUP3 DUP5 CALLDATACOPY PUSH1 0x0 DUP2 DUP5 ADD MSTORE PUSH1 0x1F NOT PUSH1 0x1F DUP3 ADD AND SWAP1 POP DUP1 DUP4 ADD SWAP3 POP POP POP POP POP POP POP DUP2 MSTORE PUSH1 0x20 ADD PUSH1 0x0 ISZERO ISZERO DUP2 MSTORE POP SWAP1 DUP1 PUSH1 0x1 DUP2 SLOAD ADD DUP1 DUP3 SSTORE DUP1 SWAP2 POP POP PUSH1 0x1 SWAP1 SUB SWAP1 PUSH1 0x0 MSTORE PUSH1 0x20 PUSH1 0x0 KECCAK256 SWAP1 PUSH1 0x2 MUL ADD PUSH1 0x0 SWAP1 SWAP2 SWAP1 SWAP2 SWAP1 SWAP2 POP PUSH1 0x0 DUP3 ADD MLOAD DUP2 PUSH1 0x0 ADD SWAP1 DUP2 PUSH2 0x1C7 SWAP2 SWAP1 PUSH2 0x878 JUMP JUMPDEST POP PUSH1 0x20 DUP3 ADD MLOAD DUP2 PUSH1 0x1 ADD PUSH1 0x0 PUSH2 0x100 EXP DUP2 SLOAD DUP2 PUSH1 0xFF MUL NOT AND SWAP1 DUP4 ISZERO ISZERO MUL OR SWAP1 SSTORE POP POP POP POP POP JUMP JUMPDEST PUSH1 0x0 DUP2 DUP2 SLOAD DUP2 LT PUSH2 0x1FE JUMPI PUSH1 0x0 DUP1 REVERT JUMPDEST SWAP1 PUSH1 0x0 MSTORE PUSH1 0x20 PUSH1 0x0 KECCAK256 SWAP1 PUSH1 0x2 MUL ADD PUSH1 0x0 SWAP2 POP SWAP1 POP DUP1 PUSH1 0x0 ADD DUP1 SLOAD PUSH2 0x221 SWAP1 PUSH2 0x5CB JUMP JUMPDEST DUP1 PUSH1 0x1F ADD PUSH1 0x20 DUP1 SWAP2 DIV MUL PUSH1 0x20 ADD PUSH1 0x40 MLOAD SWAP1 DUP2 ADD PUSH1 0x40 MSTORE DUP1 SWAP3 SWAP2 SWAP1 DUP2 DUP2 MSTORE PUSH1 0x20 ADD DUP3 DUP1 SLOAD PUSH2 0x24D SWAP1 PUSH2 0x5CB JUMP JUMPDEST DUP1 ISZERO PUSH2 0x29A JUMPI DUP1 PUSH1 0x1F LT PUSH2 0x26F JUMPI PUSH2 0x100 DUP1 DUP4 SLOAD DIV MUL DUP4 MSTORE SWAP2 PUSH1 0x20 ADD SWAP2 PUSH2 0x29A JUMP JUMPDEST DUP3 ADD SWAP2 SWAP1 PUSH1 0x0 MSTORE PUSH1 0x20 PUSH1 0x0 KECCAK256 SWAP1 JUMPDEST DUP2 SLOAD DUP2 MSTORE SWAP1 PUSH1 0x1 ADD SWAP1 PUSH1 0x20 ADD DUP1 DUP4 GT PUSH2 0x27D JUMPI DUP3 SWAP1 SUB PUSH1 0x1F AND DUP3 ADD SWAP2 JUMPDEST POP POP POP POP POP SWAP1 DUP1 PUSH1 0x1 ADD PUSH1 0x0 SWAP1 SLOAD SWAP1 PUSH2 0x100 EXP SWAP1 DIV PUSH1 0xFF AND SWAP1 POP DUP3 JUMP JUMPDEST PUSH1 0x0 DUP1 REVERT JUMPDEST PUSH1 0x0 DUP1 REVERT JUMPDEST PUSH1 0x0 DUP2 SWAP1 POP SWAP2 SWAP1 POP JUMP JUMPDEST PUSH2 0x2D4 DUP2 PUSH2 0x2C1 JUMP JUMPDEST DUP2 EQ PUSH2 0x2DF JUMPI PUSH1 0x0 DUP1 REVERT JUMPDEST POP JUMP JUMPDEST PUSH1 0x0 DUP2 CALLDATALOAD SWAP1 POP PUSH2 0x2F1 DUP2 PUSH2 0x2CB JUMP JUMPDEST SWAP3 SWAP2 POP POP JUMP JUMPDEST PUSH1 0x0 DUP1 REVERT JUMPDEST PUSH1 0x0 DUP1 REVERT JUMPDEST PUSH1 0x0 DUP1 REVERT JUMPDEST PUSH1 0x0 DUP1 DUP4 PUSH1 0x1F DUP5 ADD SLT PUSH2 0x31C JUMPI PUSH2 0x31B PUSH2 0x2F7 JUMP JUMPDEST JUMPDEST DUP3 CALLDATALOAD SWAP1 POP PUSH8 0xFFFFFFFFFFFFFFFF DUP2 GT ISZERO PUSH2 0x339 JUMPI PUSH2 0x338 PUSH2 0x2FC JUMP JUMPDEST JUMPDEST PUSH1 0x20 DUP4 ADD SWAP2 POP DUP4 PUSH1 0x1 DUP3 MUL DUP4 ADD GT ISZERO PUSH2 0x355 JUMPI PUSH2 0x354 PUSH2 0x301 JUMP JUMPDEST JUMPDEST SWAP3 POP SWAP3 SWAP1 POP JUMP JUMPDEST PUSH1 0x0 DUP1 PUSH1 0x0 PUSH1 0x40 DUP5 DUP7 SUB SLT ISZERO PUSH2 0x375 JUMPI PUSH2 0x374 PUSH2 0x2B7 JUMP JUMPDEST JUMPDEST PUSH1 0x0 PUSH2 0x383 DUP7 DUP3 DUP8 ADD PUSH2 0x2E2 JUMP JUMPDEST SWAP4 POP POP PUSH1 0x20 DUP5 ADD CALLDATALOAD PUSH8 0xFFFFFFFFFFFFFFFF DUP2 GT ISZERO PUSH2 0x3A4 JUMPI PUSH2 0x3A3 PUSH2 0x2BC JUMP JUMPDEST JUMPDEST PUSH2 0x3B0 DUP7 DUP3 DUP8 ADD PUSH2 0x306 JUMP JUMPDEST SWAP3 POP SWAP3 POP POP SWAP3 POP SWAP3 POP SWAP3 JUMP JUMPDEST PUSH1 0x0 PUSH1 0x20 DUP3 DUP5 SUB SLT ISZERO PUSH2 0x3D2 JUMPI PUSH2 0x3D1 PUSH2 0x2B7 JUMP JUMPDEST JUMPDEST PUSH1 0x0 PUSH2 0x3E0 DUP5 DUP3 DUP6 ADD PUSH2 0x2E2 JUMP JUMPDEST SWAP2 POP POP SWAP3 SWAP2 POP POP JUMP JUMPDEST PUSH1 0x0 DUP2 MLOAD SWAP1 POP SWAP2 SWAP1 POP JUMP JUMPDEST PUSH1 0x0 DUP3 DUP3 MSTORE PUSH1 0x20 DUP3 ADD SWAP1 POP SWAP3 SWAP2 POP POP JUMP JUMPDEST PUSH1 0x0 JUMPDEST DUP4 DUP2 LT ISZERO PUSH2 0x423 JUMPI DUP1 DUP3 ADD MLOAD DUP2 DUP5 ADD MSTORE PUSH1 0x20 DUP2 ADD SWAP1 POP PUSH2 0x408 JUMP JUMPDEST PUSH1 0x0 DUP5 DUP5 ADD MSTORE POP POP POP POP JUMP JUMPDEST PUSH1 0x0 PUSH1 0x1F NOT PUSH1 0x1F DUP4 ADD AND SWAP1 POP SWAP2 SWAP1 POP JUMP JUMPDEST PUSH1 0x0 PUSH2 0x44B DUP3 PUSH2 0x3E9 JUMP JUMPDEST PUSH2 0x455 DUP2 DUP6 PUSH2 0x3F4 JUMP JUMPDEST SWAP4 POP PUSH2 0x465 DUP2 DUP6 PUSH1 0x20 DUP7 ADD PUSH2 0x405 JUMP JUMPDEST PUSH2 0x46E DUP2 PUSH2 0x42F JUMP JUMPDEST DUP5 ADD SWAP2 POP POP SWAP3 SWAP2 POP POP JUMP JUMPDEST PUSH1 0x0 PUSH1 0x20 DUP3 ADD SWAP1 POP DUP2 DUP2 SUB PUSH1 0x0 DUP4 ADD MSTORE PUSH2 0x493 DUP2 DUP5 PUSH2 0x440 JUMP JUMPDEST SWAP1 POP SWAP3 SWAP2 POP POP JUMP JUMPDEST PUSH1 0x0 DUP1 PUSH1 0x20 DUP4 DUP6 SUB SLT ISZERO PUSH2 0x4B2 JUMPI PUSH2 0x4B1 PUSH2 0x2B7 JUMP JUMPDEST JUMPDEST PUSH1 0x0 DUP4 ADD CALLDATALOAD PUSH8 0xFFFFFFFFFFFFFFFF DUP2 GT ISZERO PUSH2 0x4D0 JUMPI PUSH2 0x4CF PUSH2 0x2BC JUMP JUMPDEST JUMPDEST PUSH2 0x4DC DUP6 DUP3 DUP7 ADD PUSH2 0x306 JUMP JUMPDEST SWAP3 POP SWAP3 POP POP SWAP3 POP SWAP3 SWAP1 POP JUMP JUMPDEST PUSH1 0x0 DUP2 ISZERO ISZERO SWAP1 POP SWAP2 SWAP1 POP JUMP JUMPDEST PUSH2 0x4FD DUP2 PUSH2 0x4E8 JUMP JUMPDEST DUP3 MSTORE POP POP JUMP JUMPDEST PUSH1 0x0 PUSH1 0x40 DUP3 ADD SWAP1 POP DUP2 DUP2 SUB PUSH1 0x0 DUP4 ADD MSTORE PUSH2 0x51D DUP2 DUP6 PUSH2 0x440 JUMP JUMPDEST SWAP1 POP PUSH2 0x52C PUSH1 0x20 DUP4 ADD DUP5 PUSH2 0x4F4 JUMP JUMPDEST SWAP4 SWAP3 POP POP POP JUMP JUMPDEST PUSH32 0x4E487B7100000000000000000000000000000000000000000000000000000000 PUSH1 0x0 MSTORE PUSH1 0x32 PUSH1 0x4 MSTORE PUSH1 0x24 PUSH1 0x0 REVERT JUMPDEST PUSH1 0x0 DUP3 SWAP1 POP SWAP3 SWAP2 POP POP JUMP JUMPDEST PUSH32 0x4E487B7100000000000000000000000000000000000000000000000000000000 PUSH1 0x0 MSTORE PUSH1 0x41 PUSH1 0x4 MSTORE PUSH1 0x24 PUSH1 0x0 REVERT JUMPDEST PUSH32 0x4E487B7100000000000000000000000000000000000000000000000000000000 PUSH1 0x0 MSTORE PUSH1 0x22 PUSH1 0x4 MSTORE PUSH1 0x24 PUSH1 0x0 REVERT JUMPDEST PUSH1 0x0 PUSH1 0x2 DUP3 DIV SWAP1 POP PUSH1 0x1 DUP3 AND DUP1 PUSH2 0x5E3 JUMPI PUSH1 0x7F DUP3 AND SWAP2 POP JUMPDEST PUSH1 0x20 DUP3 LT DUP2 SUB PUSH2 0x5F6 JUMPI PUSH2 0x5F5 PUSH2 0x59C JUMP JUMPDEST JUMPDEST POP SWAP2 SWAP1 POP JUMP JUMPDEST PUSH1 0x0 DUP2 SWAP1 POP DUP2 PUSH1 0x0 MSTORE PUSH1 0x20 PUSH1 0x0 KECCAK256 SWAP1 POP SWAP2 SWAP1 POP JUMP JUMPDEST PUSH1 0x0 PUSH1 0x20 PUSH1 0x1F DUP4 ADD DIV SWAP1 POP SWAP2 SWAP1 POP JUMP JUMPDEST PUSH1 0x0 DUP3 DUP3 SHL SWAP1 POP SWAP3 SWAP2 POP POP JUMP JUMPDEST PUSH1 0x0 PUSH1 0x8 DUP4 MUL PUSH2 0x65E PUSH32 0xFFFFFFFFFFFFFFFFFFFFFFFFFFFFFFFFFFFFFFFFFFFFFFFFFFFFFFFFFFFFFFFF DUP3 PUSH2 0x621 JUMP JUMPDEST PUSH2 0x668 DUP7 DUP4 PUSH2 0x621 JUMP JUMPDEST SWAP6 POP DUP1 NOT DUP5 AND SWAP4 POP DUP1 DUP7 AND DUP5 OR SWAP3 POP POP POP SWAP4 SWAP3 POP POP POP JUMP JUMPDEST PUSH1 0x0 DUP2 SWAP1 POP SWAP2 SWAP1 POP JUMP JUMPDEST PUSH1 0x0 PUSH2 0x6A5 PUSH2 0x6A0 PUSH2 0x69B DUP5 PUSH2 0x2C1 JUMP JUMPDEST PUSH2 0x680 JUMP JUMPDEST PUSH2 0x2C1 JUMP JUMPDEST SWAP1 POP SWAP2 SWAP1 POP JUMP JUMPDEST PUSH1 0x0 DUP2 SWAP1 POP SWAP2 SWAP1 POP JUMP JUMPDEST PUSH2 0x6BF DUP4 PUSH2 0x68A JUMP JUMPDEST PUSH2 0x6D3 PUSH2 0x6CB DUP3 PUSH2 0x6AC JUMP JUMPDEST DUP5 DUP5 SLOAD PUSH2 0x62E JUMP JUMPDEST DUP3 SSTORE POP POP POP POP JUMP JUMPDEST PUSH1 0x0 SWAP1 JUMP JUMPDEST PUSH2 0x6E8 PUSH2 0x6DB JUMP JUMPDEST PUSH2 0x6F3 DUP2 DUP5 DUP5 PUSH2 0x6B6 JUMP JUMPDEST POP POP POP JUMP JUMPDEST JUMPDEST DUP2 DUP2 LT ISZERO PUSH2 0x717 JUMPI PUSH2 0x70C PUSH1 0x0 DUP3 PUSH2 0x6E0 JUMP JUMPDEST PUSH1 0x1 DUP2 ADD SWAP1 POP PUSH2 0x6F9 JUMP JUMPDEST POP POP JUMP JUMPDEST PUSH1 0x1F DUP3 GT ISZERO PUSH2 0x75C JUMPI PUSH2 0x72D DUP2 PUSH2 0x5FC JUMP JUMPDEST PUSH2 0x736 DUP5 PUSH2 0x611 JUMP JUMPDEST DUP2 ADD PUSH1 0x20 DUP6 LT ISZERO PUSH2 0x745 JUMPI DUP2 SWAP1 POP JUMPDEST PUSH2 0x759 PUSH2 0x751 DUP6 PUSH2 0x611 JUMP JUMPDEST DUP4 ADD DUP3 PUSH2 0x6F8 JUMP JUMPDEST POP POP JUMPDEST POP POP POP JUMP JUMPDEST PUSH1 0x0 DUP3 DUP3 SHR SWAP1 POP SWAP3 SWAP2 POP POP JUMP JUMPDEST PUSH1 0x0 PUSH2 0x77F PUSH1 0x0 NOT DUP5 PUSH1 0x8 MUL PUSH2 0x761 JUMP JUMPDEST NOT DUP1 DUP4 AND SWAP2 POP POP SWAP3 SWAP2 POP POP JUMP JUMPDEST PUSH1 0x0 PUSH2 0x798 DUP4 DUP4 PUSH2 0x76E JUMP JUMPDEST SWAP2 POP DUP3 PUSH1 0x2 MUL DUP3 OR SWAP1 POP SWAP3 SWAP2 POP POP JUMP JUMPDEST PUSH2 0x7B2 DUP4 DUP4 PUSH2 0x562 JUMP JUMPDEST PUSH8 0xFFFFFFFFFFFFFFFF DUP2 GT ISZERO PUSH2 0x7CB JUMPI PUSH2 0x7CA PUSH2 0x56D JUMP JUMPDEST JUMPDEST PUSH2 0x7D5 DUP3 SLOAD PUSH2 0x5CB JUMP JUMPDEST PUSH2 0x7E0 DUP3 DUP3 DUP6 PUSH2 0x71B JUMP JUMPDEST PUSH1 0x0 PUSH1 0x1F DUP4 GT PUSH1 0x1 DUP2 EQ PUSH2 0x80F JUMPI PUSH1 0x0 DUP5 ISZERO PUSH2 0x7FD JUMPI DUP3 DUP8 ADD CALLDATALOAD SWAP1 POP JUMPDEST PUSH2 0x807 DUP6 DUP3 PUSH2 0x78C JUMP JUMPDEST DUP7 SSTORE POP PUSH2 0x86F JUMP JUMPDEST PUSH1 0x1F NOT DUP5 AND PUSH2 0x81D DUP7 PUSH2 0x5FC JUMP JUMPDEST PUSH1 0x0 JUMPDEST DUP3 DUP2 LT ISZERO PUSH2 0x845 JUMPI DUP5 DUP10 ADD CALLDATALOAD DUP3 SSTORE PUSH1 0x1 DUP3 ADD SWAP2 POP PUSH1 0x20 DUP6 ADD SWAP5 POP PUSH1 0x20 DUP2 ADD SWAP1 POP PUSH2 0x820 JUMP JUMPDEST DUP7 DUP4 LT ISZERO PUSH2 0x862 JUMPI DUP5 DUP10 ADD CALLDATALOAD PUSH2 0x85E PUSH1 0x1F DUP10 AND DUP3 PUSH2 0x76E JUMP JUMPDEST DUP4 SSTORE POP JUMPDEST PUSH1 0x1 PUSH1 0x2 DUP9 MUL ADD DUP9 SSTORE POP POP POP JUMPDEST POP POP POP POP POP POP POP JUMP JUMPDEST PUSH2 0x881 DUP3 PUSH2 0x3E9 JUMP JUMPDEST PUSH8 0xFFFFFFFFFFFFFFFF DUP2 GT ISZERO PUSH2 0x89A JUMPI PUSH2 0x899 PUSH2 0x56D JUMP JUMPDEST JUMPDEST PUSH2 0x8A4 DUP3 SLOAD PUSH2 0x5CB JUMP JUMPDEST PUSH2 0x8AF DUP3 DUP3 DUP6 PUSH2 0x71B JUMP JUMPDEST PUSH1 0x0 PUSH1 0x20 SWAP1 POP PUSH1 0x1F DUP4 GT PUSH1 0x1 DUP2 EQ PUSH2 0x8E2 JUMPI PUSH1 0x0 DUP5 ISZERO PUSH2 0x8D0 JUMPI DUP3 DUP8 ADD MLOAD SWAP1 POP JUMPDEST PUSH2 0x8DA DUP6 DUP3 PUSH2 0x78C JUMP JUMPDEST DUP7 SSTORE POP PUSH2 0x942 JUMP JUMPDEST PUSH1 0x1F NOT DUP5 AND PUSH2 0x8F0 DUP7 PUSH2 0x5FC JUMP JUMPDEST PUSH1 0x0 JUMPDEST DUP3 DUP2 LT ISZERO PUSH2 0x918 JUMPI DUP5 DUP10 ADD MLOAD DUP3 SSTORE PUSH1 0x1 DUP3 ADD SWAP2 POP PUSH1 0x20 DUP6 ADD SWAP5 POP PUSH1 0x20 DUP2 ADD SWAP1 POP PUSH2 0x8F3 JUMP JUMPDEST DUP7 DUP4 LT ISZERO PUSH2 0x935 JUMPI DUP5 DUP10 ADD MLOAD PUSH2 0x931 PUSH1 0x1F DUP10 AND DUP3 PUSH2 0x76E JUMP JUMPDEST DUP4 SSTORE POP JUMPDEST PUSH1 0x1 PUSH1 0x2 DUP9 MUL ADD DUP9 SSTORE POP POP POP JUMPDEST POP POP POP POP POP POP JUMP INVALID LOG2 PUSH5 0x6970667358 0x22 SLT KECCAK256 0xE5 0xC3 PUSH17 0x79EAA03ECA7875FF9B2485035413163574 0xEB SAR JUMPI 0xD4 0x5F PUSH8 0xC3ABC46917066473 PUSH16 0x6C634300081100330000000000000000 "
				},
				"gasEstimates": {
					"creation": {
						"codeDepositCost": "486400",
						"executionCost": "518",
						"totalCost": "486918"
					},
					"external": {
						"create(string)": "infinite",
						"get(uint256)": "infinite",
						"todos(uint256)": "infinite",
						"updataText(uint256,string)": "infinite"
					}
				},
				"methodIdentifiers": {
					"create(string)": "b6a46b3b",
					"get(uint256)": "9507d39a",
					"todos(uint256)": "bc8bc2b4",
					"updataText(uint256,string)": "860bbc00"
				}
			},
			"storageLayout": {
				"storage": [
					{
						"astId": 10,
						"contract": "TodoList.sol:TodoList",
						"label": "todos",
						"offset": 0,
						"slot": "0",
						"type": "t_array(t_struct(Todo)6_storage)dyn_storage"
					}
				],
				"types": {
					"t_array(t_struct(Todo)6_storage)dyn_storage": {
						"base": "t_struct(Todo)6_storage",
						"encoding": "dynamic_array",
						"label": "struct TodoList.Todo[]",
						"numberOfBytes": "32"
					},
					"t_bool": {
						"encoding": "inplace",
						"label": "bool",
						"numberOfBytes": "1"
					},
					"t_string_storage": {
						"encoding": "bytes",
						"label": "string",
						"numberOfBytes": "32"
					},
					"t_struct(Todo)6_storage": {
						"encoding": "inplace",
						"label": "struct TodoList.Todo",
						"members": [
							{
								"astId": 3,
								"contract": "TodoList.sol:TodoList",
								"label": "text",
								"offset": 0,
								"slot": "0",
								"type": "t_string_storage"
							},
							{
								"astId": 5,
								"contract": "TodoList.sol:TodoList",
								"label": "compeleted",
								"offset": 0,
								"slot": "1",
								"type": "t_bool"
							}
						],
						"numberOfBytes": "64"
					}
				}
			},
			"userdoc": {
				"kind": "user",
				"methods": {},
				"version": 1
			}
		}
	}
}