{
	"DataLocations.sol": {
		"DataLocations": {
			"abi": [
				{
					"inputs": [
						{
							"internalType": "uint256",
							"name": "",
							"type": "uint256"
						}
					],
					"name": "example",
					"outputs": [],
					"stateMutability": "nonpayable",
					"type": "function"
				},
				{
					"inputs": [
						{
							"internalType": "address",
							"name": "",
							"type": "address"
						}
					],
					"name": "myStructs",
					"outputs": [
						{
							"internalType": "uint256",
							"name": "foo",
							"type": "uint256"
						},
						{
							"internalType": "string",
							"name": "text",
							"type": "string"
						}
					],
					"stateMutability": "view",
					"type": "function"
				}
			],
			"devdoc": {
				"kind": "dev",
				"methods": {},
				"version": 1
			},
			"evm": {
				"assembly": "    /* \"DataLocations.sol\":61:423  contract DataLocations {... */\n  mstore(0x40, 0x80)\n  callvalue\n  dup1\n  iszero\n  tag_1\n  jumpi\n  0x00\n  dup1\n  revert\ntag_1:\n  pop\n  dataSize(sub_0)\n  dup1\n  dataOffset(sub_0)\n  0x00\n  codecopy\n  0x00\n  return\nstop\n\nsub_0: assembly {\n        /* \"DataLocations.sol\":61:423  contract DataLocations {... */\n      mstore(0x40, 0x80)\n      callvalue\n      dup1\n      iszero\n      tag_1\n      jumpi\n      0x00\n      dup1\n      revert\n    tag_1:\n      pop\n      jumpi(tag_2, lt(calldatasize, 0x04))\n      shr(0xe0, calldataload(0x00))\n      dup1\n      0x477e4a02\n      eq\n      tag_3\n      jumpi\n      dup1\n      0xb43c5d33\n      eq\n      tag_4\n      jumpi\n    tag_2:\n      0x00\n      dup1\n      revert\n        /* \"DataLocations.sol\":218:420  function example(uint) external {... */\n    tag_3:\n      tag_5\n      0x04\n      dup1\n      calldatasize\n      sub\n      dup2\n      add\n      swap1\n      tag_6\n      swap2\n      swap1\n      tag_7\n      jump\t// in\n    tag_6:\n      tag_8\n      jump\t// in\n    tag_5:\n      stop\n        /* \"DataLocations.sol\":164:209  mapping(address => MyStruct) public myStructs */\n    tag_4:\n      tag_9\n      0x04\n      dup1\n      calldatasize\n      sub\n      dup2\n      add\n      swap1\n      tag_10\n      swap2\n      swap1\n      tag_11\n      jump\t// in\n    tag_10:\n      tag_12\n      jump\t// in\n    tag_9:\n      mload(0x40)\n      tag_13\n      swap3\n      swap2\n      swap1\n      tag_14\n      jump\t// in\n    tag_13:\n      mload(0x40)\n      dup1\n      swap2\n      sub\n      swap1\n      return\n        /* \"DataLocations.sol\":218:420  function example(uint) external {... */\n    tag_8:\n        /* \"DataLocations.sol\":285:318  MyStruct({foo: 123, text: \"bar\"}) */\n      mload(0x40)\n      dup1\n      0x40\n      add\n      0x40\n      mstore\n      dup1\n        /* \"DataLocations.sol\":300:303  123 */\n      0x7b\n        /* \"DataLocations.sol\":285:318  MyStruct({foo: 123, text: \"bar\"}) */\n      dup2\n      mstore\n      0x20\n      add\n      mload(0x40)\n      dup1\n      0x40\n      add\n      0x40\n      mstore\n      dup1\n      0x03\n      dup2\n      mstore\n      0x20\n      add\n      0x6261720000000000000000000000000000000000000000000000000000000000\n      dup2\n      mstore\n      pop\n      dup2\n      mstore\n      pop\n        /* \"DataLocations.sol\":261:270  myStructs */\n      0x00\n        /* \"DataLocations.sol\":261:282  myStructs[msg.sender] */\n      dup1\n        /* \"DataLocations.sol\":271:281  msg.sender */\n      caller\n        /* \"DataLocations.sol\":261:282  myStructs[msg.sender] */\n      0xffffffffffffffffffffffffffffffffffffffff\n      and\n      0xffffffffffffffffffffffffffffffffffffffff\n      and\n      dup2\n      mstore\n      0x20\n      add\n      swap1\n      dup2\n      mstore\n      0x20\n      add\n      0x00\n      keccak256\n        /* \"DataLocations.sol\":261:318  myStructs[msg.sender] = MyStruct({foo: 123, text: \"bar\"}) */\n      0x00\n      dup3\n      add\n      mload\n      dup2\n      0x00\n      add\n      sstore\n      0x20\n      dup3\n      add\n      mload\n      dup2\n      0x01\n      add\n      swap1\n      dup2\n      tag_16\n      swap2\n      swap1\n      tag_17\n      jump\t// in\n    tag_16:\n      pop\n      swap1\n      pop\n      pop\n        /* \"DataLocations.sol\":331:356  MyStruct storage myStruct */\n      0x00\n        /* \"DataLocations.sol\":359:368  myStructs */\n      dup1\n        /* \"DataLocations.sol\":359:380  myStructs[msg.sender] */\n      0x00\n        /* \"DataLocations.sol\":369:379  msg.sender */\n      caller\n        /* \"DataLocations.sol\":359:380  myStructs[msg.sender] */\n      0xffffffffffffffffffffffffffffffffffffffff\n      and\n      0xffffffffffffffffffffffffffffffffffffffff\n      and\n      dup2\n      mstore\n      0x20\n      add\n      swap1\n      dup2\n      mstore\n      0x20\n      add\n      0x00\n      keccak256\n        /* \"DataLocations.sol\":331:380  MyStruct storage myStruct = myStructs[msg.sender] */\n      swap1\n      pop\n        /* \"DataLocations.sol\":391:412  myStruct.text = \"foo\" */\n      mload(0x40)\n      dup1\n      0x40\n      add\n      0x40\n      mstore\n      dup1\n      0x03\n      dup2\n      mstore\n      0x20\n      add\n      0x666f6f0000000000000000000000000000000000000000000000000000000000\n      dup2\n      mstore\n      pop\n        /* \"DataLocations.sol\":391:399  myStruct */\n      dup2\n        /* \"DataLocations.sol\":391:404  myStruct.text */\n      0x01\n      add\n        /* \"DataLocations.sol\":391:412  myStruct.text = \"foo\" */\n      swap1\n      dup2\n      tag_18\n      swap2\n      swap1\n      tag_17\n      jump\t// in\n    tag_18:\n      pop\n        /* \"DataLocations.sol\":250:420  {... */\n      pop\n        /* \"DataLocations.sol\":218:420  function example(uint) external {... */\n      pop\n      jump\t// out\n        /* \"DataLocations.sol\":164:209  mapping(address => MyStruct) public myStructs */\n    tag_12:\n      mstore(0x20, 0x00)\n      dup1\n      0x00\n      mstore\n      keccak256(0x00, 0x40)\n      0x00\n      swap2\n      pop\n      swap1\n      pop\n      dup1\n      0x00\n      add\n      sload\n      swap1\n      dup1\n      0x01\n      add\n      dup1\n      sload\n      tag_19\n      swap1\n      tag_20\n      jump\t// in\n    tag_19:\n      dup1\n      0x1f\n      add\n      0x20\n      dup1\n      swap2\n      div\n      mul\n      0x20\n      add\n      mload(0x40)\n      swap1\n      dup2\n      add\n      0x40\n      mstore\n      dup1\n      swap3\n      swap2\n      swap1\n      dup2\n      dup2\n      mstore\n      0x20\n      add\n      dup3\n      dup1\n      sload\n      tag_21\n      swap1\n      tag_20\n      jump\t// in\n    tag_21:\n      dup1\n      iszero\n      tag_22\n      jumpi\n      dup1\n      0x1f\n      lt\n      tag_23\n      jumpi\n      0x0100\n      dup1\n      dup4\n      sload\n      div\n      mul\n      dup4\n      mstore\n      swap2\n      0x20\n      add\n      swap2\n      jump(tag_22)\n    tag_23:\n      dup3\n      add\n      swap2\n      swap1\n      0x00\n      mstore\n      keccak256(0x00, 0x20)\n      swap1\n    tag_24:\n      dup2\n      sload\n      dup2\n      mstore\n      swap1\n      0x01\n      add\n      swap1\n      0x20\n      add\n      dup1\n      dup4\n      gt\n      tag_24\n      jumpi\n      dup3\n      swap1\n      sub\n      0x1f\n      and\n      dup3\n      add\n      swap2\n    tag_22:\n      pop\n      pop\n      pop\n      pop\n      pop\n      swap1\n      pop\n      dup3\n      jump\t// out\n        /* \"#utility.yul\":88:205   */\n    tag_26:\n        /* \"#utility.yul\":197:198   */\n      0x00\n        /* \"#utility.yul\":194:195   */\n      dup1\n        /* \"#utility.yul\":187:199   */\n      revert\n        /* \"#utility.yul\":334:411   */\n    tag_28:\n        /* \"#utility.yul\":371:378   */\n      0x00\n        /* \"#utility.yul\":400:405   */\n      dup2\n        /* \"#utility.yul\":389:405   */\n      swap1\n      pop\n        /* \"#utility.yul\":334:411   */\n      swap2\n      swap1\n      pop\n      jump\t// out\n        /* \"#utility.yul\":417:539   */\n    tag_29:\n        /* \"#utility.yul\":490:514   */\n      tag_64\n        /* \"#utility.yul\":508:513   */\n      dup2\n        /* \"#utility.yul\":490:514   */\n      tag_28\n      jump\t// in\n    tag_64:\n        /* \"#utility.yul\":483:488   */\n      dup2\n        /* \"#utility.yul\":480:515   */\n      eq\n        /* \"#utility.yul\":470:533   */\n      tag_65\n      jumpi\n        /* \"#utility.yul\":529:530   */\n      0x00\n        /* \"#utility.yul\":526:527   */\n      dup1\n        /* \"#utility.yul\":519:531   */\n      revert\n        /* \"#utility.yul\":470:533   */\n    tag_65:\n        /* \"#utility.yul\":417:539   */\n      pop\n      jump\t// out\n        /* \"#utility.yul\":545:684   */\n    tag_30:\n        /* \"#utility.yul\":591:596   */\n      0x00\n        /* \"#utility.yul\":629:635   */\n      dup2\n        /* \"#utility.yul\":616:636   */\n      calldataload\n        /* \"#utility.yul\":607:636   */\n      swap1\n      pop\n        /* \"#utility.yul\":645:678   */\n      tag_67\n        /* \"#utility.yul\":672:677   */\n      dup2\n        /* \"#utility.yul\":645:678   */\n      tag_29\n      jump\t// in\n    tag_67:\n        /* \"#utility.yul\":545:684   */\n      swap3\n      swap2\n      pop\n      pop\n      jump\t// out\n        /* \"#utility.yul\":690:1019   */\n    tag_7:\n        /* \"#utility.yul\":749:755   */\n      0x00\n        /* \"#utility.yul\":798:800   */\n      0x20\n        /* \"#utility.yul\":786:795   */\n      dup3\n        /* \"#utility.yul\":777:784   */\n      dup5\n        /* \"#utility.yul\":773:796   */\n      sub\n        /* \"#utility.yul\":769:801   */\n      slt\n        /* \"#utility.yul\":766:885   */\n      iszero\n      tag_69\n      jumpi\n        /* \"#utility.yul\":804:883   */\n      tag_70\n      tag_26\n      jump\t// in\n    tag_70:\n        /* \"#utility.yul\":766:885   */\n    tag_69:\n        /* \"#utility.yul\":924:925   */\n      0x00\n        /* \"#utility.yul\":949:1002   */\n      tag_71\n        /* \"#utility.yul\":994:1001   */\n      dup5\n        /* \"#utility.yul\":985:991   */\n      dup3\n        /* \"#utility.yul\":974:983   */\n      dup6\n        /* \"#utility.yul\":970:992   */\n      add\n        /* \"#utility.yul\":949:1002   */\n      tag_30\n      jump\t// in\n    tag_71:\n        /* \"#utility.yul\":939:1002   */\n      swap2\n      pop\n        /* \"#utility.yul\":895:1012   */\n      pop\n        /* \"#utility.yul\":690:1019   */\n      swap3\n      swap2\n      pop\n      pop\n      jump\t// out\n        /* \"#utility.yul\":1025:1151   */\n    tag_31:\n        /* \"#utility.yul\":1062:1069   */\n      0x00\n        /* \"#utility.yul\":1102:1144   */\n      0xffffffffffffffffffffffffffffffffffffffff\n        /* \"#utility.yul\":1095:1100   */\n      dup3\n        /* \"#utility.yul\":1091:1145   */\n      and\n        /* \"#utility.yul\":1080:1145   */\n      swap1\n      pop\n        /* \"#utility.yul\":1025:1151   */\n      swap2\n      swap1\n      pop\n      jump\t// out\n        /* \"#utility.yul\":1157:1253   */\n    tag_32:\n        /* \"#utility.yul\":1194:1201   */\n      0x00\n        /* \"#utility.yul\":1223:1247   */\n      tag_74\n        /* \"#utility.yul\":1241:1246   */\n      dup3\n        /* \"#utility.yul\":1223:1247   */\n      tag_31\n      jump\t// in\n    tag_74:\n        /* \"#utility.yul\":1212:1247   */\n      swap1\n      pop\n        /* \"#utility.yul\":1157:1253   */\n      swap2\n      swap1\n      pop\n      jump\t// out\n        /* \"#utility.yul\":1259:1381   */\n    tag_33:\n        /* \"#utility.yul\":1332:1356   */\n      tag_76\n        /* \"#utility.yul\":1350:1355   */\n      dup2\n        /* \"#utility.yul\":1332:1356   */\n      tag_32\n      jump\t// in\n    tag_76:\n        /* \"#utility.yul\":1325:1330   */\n      dup2\n        /* \"#utility.yul\":1322:1357   */\n      eq\n        /* \"#utility.yul\":1312:1375   */\n      tag_77\n      jumpi\n        /* \"#utility.yul\":1371:1372   */\n      0x00\n        /* \"#utility.yul\":1368:1369   */\n      dup1\n        /* \"#utility.yul\":1361:1373   */\n      revert\n        /* \"#utility.yul\":1312:1375   */\n    tag_77:\n        /* \"#utility.yul\":1259:1381   */\n      pop\n      jump\t// out\n        /* \"#utility.yul\":1387:1526   */\n    tag_34:\n        /* \"#utility.yul\":1433:1438   */\n      0x00\n        /* \"#utility.yul\":1471:1477   */\n      dup2\n        /* \"#utility.yul\":1458:1478   */\n      calldataload\n        /* \"#utility.yul\":1449:1478   */\n      swap1\n      pop\n        /* \"#utility.yul\":1487:1520   */\n      tag_79\n        /* \"#utility.yul\":1514:1519   */\n      dup2\n        /* \"#utility.yul\":1487:1520   */\n      tag_33\n      jump\t// in\n    tag_79:\n        /* \"#utility.yul\":1387:1526   */\n      swap3\n      swap2\n      pop\n      pop\n      jump\t// out\n        /* \"#utility.yul\":1532:1861   */\n    tag_11:\n        /* \"#utility.yul\":1591:1597   */\n      0x00\n        /* \"#utility.yul\":1640:1642   */\n      0x20\n        /* \"#utility.yul\":1628:1637   */\n      dup3\n        /* \"#utility.yul\":1619:1626   */\n      dup5\n        /* \"#utility.yul\":1615:1638   */\n      sub\n        /* \"#utility.yul\":1611:1643   */\n      slt\n        /* \"#utility.yul\":1608:1727   */\n      iszero\n      tag_81\n      jumpi\n        /* \"#utility.yul\":1646:1725   */\n      tag_82\n      tag_26\n      jump\t// in\n    tag_82:\n        /* \"#utility.yul\":1608:1727   */\n    tag_81:\n        /* \"#utility.yul\":1766:1767   */\n      0x00\n        /* \"#utility.yul\":1791:1844   */\n      tag_83\n        /* \"#utility.yul\":1836:1843   */\n      dup5\n        /* \"#utility.yul\":1827:1833   */\n      dup3\n        /* \"#utility.yul\":1816:1825   */\n      dup6\n        /* \"#utility.yul\":1812:1834   */\n      add\n        /* \"#utility.yul\":1791:1844   */\n      tag_34\n      jump\t// in\n    tag_83:\n        /* \"#utility.yul\":1781:1844   */\n      swap2\n      pop\n        /* \"#utility.yul\":1737:1854   */\n      pop\n        /* \"#utility.yul\":1532:1861   */\n      swap3\n      swap2\n      pop\n      pop\n      jump\t// out\n        /* \"#utility.yul\":1867:1985   */\n    tag_35:\n        /* \"#utility.yul\":1954:1978   */\n      tag_85\n        /* \"#utility.yul\":1972:1977   */\n      dup2\n        /* \"#utility.yul\":1954:1978   */\n      tag_28\n      jump\t// in\n    tag_85:\n        /* \"#utility.yul\":1949:1952   */\n      dup3\n        /* \"#utility.yul\":1942:1979   */\n      mstore\n        /* \"#utility.yul\":1867:1985   */\n      pop\n      pop\n      jump\t// out\n        /* \"#utility.yul\":1991:2090   */\n    tag_36:\n        /* \"#utility.yul\":2043:2049   */\n      0x00\n        /* \"#utility.yul\":2077:2082   */\n      dup2\n        /* \"#utility.yul\":2071:2083   */\n      mload\n        /* \"#utility.yul\":2061:2083   */\n      swap1\n      pop\n        /* \"#utility.yul\":1991:2090   */\n      swap2\n      swap1\n      pop\n      jump\t// out\n        /* \"#utility.yul\":2096:2265   */\n    tag_37:\n        /* \"#utility.yul\":2180:2191   */\n      0x00\n        /* \"#utility.yul\":2214:2220   */\n      dup3\n        /* \"#utility.yul\":2209:2212   */\n      dup3\n        /* \"#utility.yul\":2202:2221   */\n      mstore\n        /* \"#utility.yul\":2254:2258   */\n      0x20\n        /* \"#utility.yul\":2249:2252   */\n      dup3\n        /* \"#utility.yul\":2245:2259   */\n      add\n        /* \"#utility.yul\":2230:2259   */\n      swap1\n      pop\n        /* \"#utility.yul\":2096:2265   */\n      swap3\n      swap2\n      pop\n      pop\n      jump\t// out\n        /* \"#utility.yul\":2271:2517   */\n    tag_38:\n        /* \"#utility.yul\":2352:2353   */\n      0x00\n        /* \"#utility.yul\":2362:2475   */\n    tag_89:\n        /* \"#utility.yul\":2376:2382   */\n      dup4\n        /* \"#utility.yul\":2373:2374   */\n      dup2\n        /* \"#utility.yul\":2370:2383   */\n      lt\n        /* \"#utility.yul\":2362:2475   */\n      iszero\n      tag_91\n      jumpi\n        /* \"#utility.yul\":2461:2462   */\n      dup1\n        /* \"#utility.yul\":2456:2459   */\n      dup3\n        /* \"#utility.yul\":2452:2463   */\n      add\n        /* \"#utility.yul\":2446:2464   */\n      mload\n        /* \"#utility.yul\":2442:2443   */\n      dup2\n        /* \"#utility.yul\":2437:2440   */\n      dup5\n        /* \"#utility.yul\":2433:2444   */\n      add\n        /* \"#utility.yul\":2426:2465   */\n      mstore\n        /* \"#utility.yul\":2398:2400   */\n      0x20\n        /* \"#utility.yul\":2395:2396   */\n      dup2\n        /* \"#utility.yul\":2391:2401   */\n      add\n        /* \"#utility.yul\":2386:2401   */\n      swap1\n      pop\n        /* \"#utility.yul\":2362:2475   */\n      jump(tag_89)\n    tag_91:\n        /* \"#utility.yul\":2509:2510   */\n      0x00\n        /* \"#utility.yul\":2500:2506   */\n      dup5\n        /* \"#utility.yul\":2495:2498   */\n      dup5\n        /* \"#utility.yul\":2491:2507   */\n      add\n        /* \"#utility.yul\":2484:2511   */\n      mstore\n        /* \"#utility.yul\":2333:2517   */\n      pop\n        /* \"#utility.yul\":2271:2517   */\n      pop\n      pop\n      pop\n      jump\t// out\n        /* \"#utility.yul\":2523:2625   */\n    tag_39:\n        /* \"#utility.yul\":2564:2570   */\n      0x00\n        /* \"#utility.yul\":2615:2617   */\n      0x1f\n        /* \"#utility.yul\":2611:2618   */\n      not\n        /* \"#utility.yul\":2606:2608   */\n      0x1f\n        /* \"#utility.yul\":2599:2604   */\n      dup4\n        /* \"#utility.yul\":2595:2609   */\n      add\n        /* \"#utility.yul\":2591:2619   */\n      and\n        /* \"#utility.yul\":2581:2619   */\n      swap1\n      pop\n        /* \"#utility.yul\":2523:2625   */\n      swap2\n      swap1\n      pop\n      jump\t// out\n        /* \"#utility.yul\":2631:3008   */\n    tag_40:\n        /* \"#utility.yul\":2719:2722   */\n      0x00\n        /* \"#utility.yul\":2747:2786   */\n      tag_94\n        /* \"#utility.yul\":2780:2785   */\n      dup3\n        /* \"#utility.yul\":2747:2786   */\n      tag_36\n      jump\t// in\n    tag_94:\n        /* \"#utility.yul\":2802:2873   */\n      tag_95\n        /* \"#utility.yul\":2866:2872   */\n      dup2\n        /* \"#utility.yul\":2861:2864   */\n      dup6\n        /* \"#utility.yul\":2802:2873   */\n      tag_37\n      jump\t// in\n    tag_95:\n        /* \"#utility.yul\":2795:2873   */\n      swap4\n      pop\n        /* \"#utility.yul\":2882:2947   */\n      tag_96\n        /* \"#utility.yul\":2940:2946   */\n      dup2\n        /* \"#utility.yul\":2935:2938   */\n      dup6\n        /* \"#utility.yul\":2928:2932   */\n      0x20\n        /* \"#utility.yul\":2921:2926   */\n      dup7\n        /* \"#utility.yul\":2917:2933   */\n      add\n        /* \"#utility.yul\":2882:2947   */\n      tag_38\n      jump\t// in\n    tag_96:\n        /* \"#utility.yul\":2972:3001   */\n      tag_97\n        /* \"#utility.yul\":2994:3000   */\n      dup2\n        /* \"#utility.yul\":2972:3001   */\n      tag_39\n      jump\t// in\n    tag_97:\n        /* \"#utility.yul\":2967:2970   */\n      dup5\n        /* \"#utility.yul\":2963:3002   */\n      add\n        /* \"#utility.yul\":2956:3002   */\n      swap2\n      pop\n        /* \"#utility.yul\":2723:3008   */\n      pop\n        /* \"#utility.yul\":2631:3008   */\n      swap3\n      swap2\n      pop\n      pop\n      jump\t// out\n        /* \"#utility.yul\":3014:3437   */\n    tag_14:\n        /* \"#utility.yul\":3155:3159   */\n      0x00\n        /* \"#utility.yul\":3193:3195   */\n      0x40\n        /* \"#utility.yul\":3182:3191   */\n      dup3\n        /* \"#utility.yul\":3178:3196   */\n      add\n        /* \"#utility.yul\":3170:3196   */\n      swap1\n      pop\n        /* \"#utility.yul\":3206:3277   */\n      tag_99\n        /* \"#utility.yul\":3274:3275   */\n      0x00\n        /* \"#utility.yul\":3263:3272   */\n      dup4\n        /* \"#utility.yul\":3259:3276   */\n      add\n        /* \"#utility.yul\":3250:3256   */\n      dup6\n        /* \"#utility.yul\":3206:3277   */\n      tag_35\n      jump\t// in\n    tag_99:\n        /* \"#utility.yul\":3324:3333   */\n      dup2\n        /* \"#utility.yul\":3318:3322   */\n      dup2\n        /* \"#utility.yul\":3314:3334   */\n      sub\n        /* \"#utility.yul\":3309:3311   */\n      0x20\n        /* \"#utility.yul\":3298:3307   */\n      dup4\n        /* \"#utility.yul\":3294:3312   */\n      add\n        /* \"#utility.yul\":3287:3335   */\n      mstore\n        /* \"#utility.yul\":3352:3430   */\n      tag_100\n        /* \"#utility.yul\":3425:3429   */\n      dup2\n        /* \"#utility.yul\":3416:3422   */\n      dup5\n        /* \"#utility.yul\":3352:3430   */\n      tag_40\n      jump\t// in\n    tag_100:\n        /* \"#utility.yul\":3344:3430   */\n      swap1\n      pop\n        /* \"#utility.yul\":3014:3437   */\n      swap4\n      swap3\n      pop\n      pop\n      pop\n      jump\t// out\n        /* \"#utility.yul\":3443:3623   */\n    tag_41:\n        /* \"#utility.yul\":3491:3568   */\n      0x4e487b7100000000000000000000000000000000000000000000000000000000\n        /* \"#utility.yul\":3488:3489   */\n      0x00\n        /* \"#utility.yul\":3481:3569   */\n      mstore\n        /* \"#utility.yul\":3588:3592   */\n      0x41\n        /* \"#utility.yul\":3585:3586   */\n      0x04\n        /* \"#utility.yul\":3578:3593   */\n      mstore\n        /* \"#utility.yul\":3612:3616   */\n      0x24\n        /* \"#utility.yul\":3609:3610   */\n      0x00\n        /* \"#utility.yul\":3602:3617   */\n      revert\n        /* \"#utility.yul\":3629:3809   */\n    tag_42:\n        /* \"#utility.yul\":3677:3754   */\n      0x4e487b7100000000000000000000000000000000000000000000000000000000\n        /* \"#utility.yul\":3674:3675   */\n      0x00\n        /* \"#utility.yul\":3667:3755   */\n      mstore\n        /* \"#utility.yul\":3774:3778   */\n      0x22\n        /* \"#utility.yul\":3771:3772   */\n      0x04\n        /* \"#utility.yul\":3764:3779   */\n      mstore\n        /* \"#utility.yul\":3798:3802   */\n      0x24\n        /* \"#utility.yul\":3795:3796   */\n      0x00\n        /* \"#utility.yul\":3788:3803   */\n      revert\n        /* \"#utility.yul\":3815:4135   */\n    tag_20:\n        /* \"#utility.yul\":3859:3865   */\n      0x00\n        /* \"#utility.yul\":3896:3897   */\n      0x02\n        /* \"#utility.yul\":3890:3894   */\n      dup3\n        /* \"#utility.yul\":3886:3898   */\n      div\n        /* \"#utility.yul\":3876:3898   */\n      swap1\n      pop\n        /* \"#utility.yul\":3943:3944   */\n      0x01\n        /* \"#utility.yul\":3937:3941   */\n      dup3\n        /* \"#utility.yul\":3933:3945   */\n      and\n        /* \"#utility.yul\":3964:3982   */\n      dup1\n        /* \"#utility.yul\":3954:4035   */\n      tag_104\n      jumpi\n        /* \"#utility.yul\":4020:4024   */\n      0x7f\n        /* \"#utility.yul\":4012:4018   */\n      dup3\n        /* \"#utility.yul\":4008:4025   */\n      and\n        /* \"#utility.yul\":3998:4025   */\n      swap2\n      pop\n        /* \"#utility.yul\":3954:4035   */\n    tag_104:\n        /* \"#utility.yul\":4082:4084   */\n      0x20\n        /* \"#utility.yul\":4074:4080   */\n      dup3\n        /* \"#utility.yul\":4071:4085   */\n      lt\n        /* \"#utility.yul\":4051:4069   */\n      dup2\n        /* \"#utility.yul\":4048:4086   */\n      sub\n        /* \"#utility.yul\":4045:4129   */\n      tag_105\n      jumpi\n        /* \"#utility.yul\":4101:4119   */\n      tag_106\n      tag_42\n      jump\t// in\n    tag_106:\n        /* \"#utility.yul\":4045:4129   */\n    tag_105:\n        /* \"#utility.yul\":3866:4135   */\n      pop\n        /* \"#utility.yul\":3815:4135   */\n      swap2\n      swap1\n      pop\n      jump\t// out\n        /* \"#utility.yul\":4141:4282   */\n    tag_43:\n        /* \"#utility.yul\":4190:4194   */\n      0x00\n        /* \"#utility.yul\":4213:4216   */\n      dup2\n        /* \"#utility.yul\":4205:4216   */\n      swap1\n      pop\n        /* \"#utility.yul\":4236:4239   */\n      dup2\n        /* \"#utility.yul\":4233:4234   */\n      0x00\n        /* \"#utility.yul\":4226:4240   */\n      mstore\n        /* \"#utility.yul\":4270:4274   */\n      0x20\n        /* \"#utility.yul\":4267:4268   */\n      0x00\n        /* \"#utility.yul\":4257:4275   */\n      keccak256\n        /* \"#utility.yul\":4249:4275   */\n      swap1\n      pop\n        /* \"#utility.yul\":4141:4282   */\n      swap2\n      swap1\n      pop\n      jump\t// out\n        /* \"#utility.yul\":4288:4381   */\n    tag_44:\n        /* \"#utility.yul\":4325:4331   */\n      0x00\n        /* \"#utility.yul\":4372:4374   */\n      0x20\n        /* \"#utility.yul\":4367:4369   */\n      0x1f\n        /* \"#utility.yul\":4360:4365   */\n      dup4\n        /* \"#utility.yul\":4356:4370   */\n      add\n        /* \"#utility.yul\":4352:4375   */\n      div\n        /* \"#utility.yul\":4342:4375   */\n      swap1\n      pop\n        /* \"#utility.yul\":4288:4381   */\n      swap2\n      swap1\n      pop\n      jump\t// out\n        /* \"#utility.yul\":4387:4494   */\n    tag_45:\n        /* \"#utility.yul\":4431:4439   */\n      0x00\n        /* \"#utility.yul\":4481:4486   */\n      dup3\n        /* \"#utility.yul\":4475:4479   */\n      dup3\n        /* \"#utility.yul\":4471:4487   */\n      shl\n        /* \"#utility.yul\":4450:4487   */\n      swap1\n      pop\n        /* \"#utility.yul\":4387:4494   */\n      swap3\n      swap2\n      pop\n      pop\n      jump\t// out\n        /* \"#utility.yul\":4500:4893   */\n    tag_46:\n        /* \"#utility.yul\":4569:4575   */\n      0x00\n        /* \"#utility.yul\":4619:4620   */\n      0x08\n        /* \"#utility.yul\":4607:4617   */\n      dup4\n        /* \"#utility.yul\":4603:4621   */\n      mul\n        /* \"#utility.yul\":4642:4739   */\n      tag_111\n        /* \"#utility.yul\":4672:4738   */\n      0xffffffffffffffffffffffffffffffffffffffffffffffffffffffffffffffff\n        /* \"#utility.yul\":4661:4670   */\n      dup3\n        /* \"#utility.yul\":4642:4739   */\n      tag_45\n      jump\t// in\n    tag_111:\n        /* \"#utility.yul\":4760:4799   */\n      tag_112\n        /* \"#utility.yul\":4790:4798   */\n      dup7\n        /* \"#utility.yul\":4779:4788   */\n      dup4\n        /* \"#utility.yul\":4760:4799   */\n      tag_45\n      jump\t// in\n    tag_112:\n        /* \"#utility.yul\":4748:4799   */\n      swap6\n      pop\n        /* \"#utility.yul\":4832:4836   */\n      dup1\n        /* \"#utility.yul\":4828:4837   */\n      not\n        /* \"#utility.yul\":4821:4826   */\n      dup5\n        /* \"#utility.yul\":4817:4838   */\n      and\n        /* \"#utility.yul\":4808:4838   */\n      swap4\n      pop\n        /* \"#utility.yul\":4881:4885   */\n      dup1\n        /* \"#utility.yul\":4871:4879   */\n      dup7\n        /* \"#utility.yul\":4867:4886   */\n      and\n        /* \"#utility.yul\":4860:4865   */\n      dup5\n        /* \"#utility.yul\":4857:4887   */\n      or\n        /* \"#utility.yul\":4847:4887   */\n      swap3\n      pop\n        /* \"#utility.yul\":4576:4893   */\n      pop\n      pop\n        /* \"#utility.yul\":4500:4893   */\n      swap4\n      swap3\n      pop\n      pop\n      pop\n      jump\t// out\n        /* \"#utility.yul\":4899:4959   */\n    tag_47:\n        /* \"#utility.yul\":4927:4930   */\n      0x00\n        /* \"#utility.yul\":4948:4953   */\n      dup2\n        /* \"#utility.yul\":4941:4953   */\n      swap1\n      pop\n        /* \"#utility.yul\":4899:4959   */\n      swap2\n      swap1\n      pop\n      jump\t// out\n        /* \"#utility.yul\":4965:5107   */\n    tag_48:\n        /* \"#utility.yul\":5015:5024   */\n      0x00\n        /* \"#utility.yul\":5048:5101   */\n      tag_115\n        /* \"#utility.yul\":5066:5100   */\n      tag_116\n        /* \"#utility.yul\":5075:5099   */\n      tag_117\n        /* \"#utility.yul\":5093:5098   */\n      dup5\n        /* \"#utility.yul\":5075:5099   */\n      tag_28\n      jump\t// in\n    tag_117:\n        /* \"#utility.yul\":5066:5100   */\n      tag_47\n      jump\t// in\n    tag_116:\n        /* \"#utility.yul\":5048:5101   */\n      tag_28\n      jump\t// in\n    tag_115:\n        /* \"#utility.yul\":5035:5101   */\n      swap1\n      pop\n        /* \"#utility.yul\":4965:5107   */\n      swap2\n      swap1\n      pop\n      jump\t// out\n        /* \"#utility.yul\":5113:5188   */\n    tag_49:\n        /* \"#utility.yul\":5156:5159   */\n      0x00\n        /* \"#utility.yul\":5177:5182   */\n      dup2\n        /* \"#utility.yul\":5170:5182   */\n      swap1\n      pop\n        /* \"#utility.yul\":5113:5188   */\n      swap2\n      swap1\n      pop\n      jump\t// out\n        /* \"#utility.yul\":5194:5463   */\n    tag_50:\n        /* \"#utility.yul\":5304:5343   */\n      tag_120\n        /* \"#utility.yul\":5335:5342   */\n      dup4\n        /* \"#utility.yul\":5304:5343   */\n      tag_48\n      jump\t// in\n    tag_120:\n        /* \"#utility.yul\":5365:5456   */\n      tag_121\n        /* \"#utility.yul\":5414:5455   */\n      tag_122\n        /* \"#utility.yul\":5438:5454   */\n      dup3\n        /* \"#utility.yul\":5414:5455   */\n      tag_49\n      jump\t// in\n    tag_122:\n        /* \"#utility.yul\":5406:5412   */\n      dup5\n        /* \"#utility.yul\":5399:5403   */\n      dup5\n        /* \"#utility.yul\":5393:5404   */\n      sload\n        /* \"#utility.yul\":5365:5456   */\n      tag_46\n      jump\t// in\n    tag_121:\n        /* \"#utility.yul\":5359:5363   */\n      dup3\n        /* \"#utility.yul\":5352:5457   */\n      sstore\n        /* \"#utility.yul\":5270:5463   */\n      pop\n        /* \"#utility.yul\":5194:5463   */\n      pop\n      pop\n      pop\n      jump\t// out\n        /* \"#utility.yul\":5469:5542   */\n    tag_51:\n        /* \"#utility.yul\":5514:5517   */\n      0x00\n        /* \"#utility.yul\":5469:5542   */\n      swap1\n      jump\t// out\n        /* \"#utility.yul\":5548:5737   */\n    tag_52:\n        /* \"#utility.yul\":5625:5657   */\n      tag_125\n      tag_51\n      jump\t// in\n    tag_125:\n        /* \"#utility.yul\":5666:5731   */\n      tag_126\n        /* \"#utility.yul\":5724:5730   */\n      dup2\n        /* \"#utility.yul\":5716:5722   */\n      dup5\n        /* \"#utility.yul\":5710:5714   */\n      dup5\n        /* \"#utility.yul\":5666:5731   */\n      tag_50\n      jump\t// in\n    tag_126:\n        /* \"#utility.yul\":5601:5737   */\n      pop\n        /* \"#utility.yul\":5548:5737   */\n      pop\n      pop\n      jump\t// out\n        /* \"#utility.yul\":5743:5929   */\n    tag_53:\n        /* \"#utility.yul\":5803:5923   */\n    tag_128:\n        /* \"#utility.yul\":5820:5823   */\n      dup2\n        /* \"#utility.yul\":5813:5818   */\n      dup2\n        /* \"#utility.yul\":5810:5824   */\n      lt\n        /* \"#utility.yul\":5803:5923   */\n      iszero\n      tag_130\n      jumpi\n        /* \"#utility.yul\":5874:5913   */\n      tag_131\n        /* \"#utility.yul\":5911:5912   */\n      0x00\n        /* \"#utility.yul\":5904:5909   */\n      dup3\n        /* \"#utility.yul\":5874:5913   */\n      tag_52\n      jump\t// in\n    tag_131:\n        /* \"#utility.yul\":5847:5848   */\n      0x01\n        /* \"#utility.yul\":5840:5845   */\n      dup2\n        /* \"#utility.yul\":5836:5849   */\n      add\n        /* \"#utility.yul\":5827:5849   */\n      swap1\n      pop\n        /* \"#utility.yul\":5803:5923   */\n      jump(tag_128)\n    tag_130:\n        /* \"#utility.yul\":5743:5929   */\n      pop\n      pop\n      jump\t// out\n        /* \"#utility.yul\":5935:6478   */\n    tag_54:\n        /* \"#utility.yul\":6036:6038   */\n      0x1f\n        /* \"#utility.yul\":6031:6034   */\n      dup3\n        /* \"#utility.yul\":6028:6039   */\n      gt\n        /* \"#utility.yul\":6025:6471   */\n      iszero\n      tag_133\n      jumpi\n        /* \"#utility.yul\":6070:6108   */\n      tag_134\n        /* \"#utility.yul\":6102:6107   */\n      dup2\n        /* \"#utility.yul\":6070:6108   */\n      tag_43\n      jump\t// in\n    tag_134:\n        /* \"#utility.yul\":6154:6183   */\n      tag_135\n        /* \"#utility.yul\":6172:6182   */\n      dup5\n        /* \"#utility.yul\":6154:6183   */\n      tag_44\n      jump\t// in\n    tag_135:\n        /* \"#utility.yul\":6144:6152   */\n      dup2\n        /* \"#utility.yul\":6140:6184   */\n      add\n        /* \"#utility.yul\":6337:6339   */\n      0x20\n        /* \"#utility.yul\":6325:6335   */\n      dup6\n        /* \"#utility.yul\":6322:6340   */\n      lt\n        /* \"#utility.yul\":6319:6368   */\n      iszero\n      tag_136\n      jumpi\n        /* \"#utility.yul\":6358:6366   */\n      dup2\n        /* \"#utility.yul\":6343:6366   */\n      swap1\n      pop\n        /* \"#utility.yul\":6319:6368   */\n    tag_136:\n        /* \"#utility.yul\":6381:6461   */\n      tag_137\n        /* \"#utility.yul\":6437:6459   */\n      tag_138\n        /* \"#utility.yul\":6455:6458   */\n      dup6\n        /* \"#utility.yul\":6437:6459   */\n      tag_44\n      jump\t// in\n    tag_138:\n        /* \"#utility.yul\":6427:6435   */\n      dup4\n        /* \"#utility.yul\":6423:6460   */\n      add\n        /* \"#utility.yul\":6410:6421   */\n      dup3\n        /* \"#utility.yul\":6381:6461   */\n      tag_53\n      jump\t// in\n    tag_137:\n        /* \"#utility.yul\":6040:6471   */\n      pop\n      pop\n        /* \"#utility.yul\":6025:6471   */\n    tag_133:\n        /* \"#utility.yul\":5935:6478   */\n      pop\n      pop\n      pop\n      jump\t// out\n        /* \"#utility.yul\":6484:6601   */\n    tag_55:\n        /* \"#utility.yul\":6538:6546   */\n      0x00\n        /* \"#utility.yul\":6588:6593   */\n      dup3\n        /* \"#utility.yul\":6582:6586   */\n      dup3\n        /* \"#utility.yul\":6578:6594   */\n      shr\n        /* \"#utility.yul\":6557:6594   */\n      swap1\n      pop\n        /* \"#utility.yul\":6484:6601   */\n      swap3\n      swap2\n      pop\n      pop\n      jump\t// out\n        /* \"#utility.yul\":6607:6776   */\n    tag_56:\n        /* \"#utility.yul\":6651:6657   */\n      0x00\n        /* \"#utility.yul\":6684:6735   */\n      tag_141\n        /* \"#utility.yul\":6732:6733   */\n      0x00\n        /* \"#utility.yul\":6728:6734   */\n      not\n        /* \"#utility.yul\":6720:6725   */\n      dup5\n        /* \"#utility.yul\":6717:6718   */\n      0x08\n        /* \"#utility.yul\":6713:6726   */\n      mul\n        /* \"#utility.yul\":6684:6735   */\n      tag_55\n      jump\t// in\n    tag_141:\n        /* \"#utility.yul\":6680:6736   */\n      not\n        /* \"#utility.yul\":6765:6769   */\n      dup1\n        /* \"#utility.yul\":6759:6763   */\n      dup4\n        /* \"#utility.yul\":6755:6770   */\n      and\n        /* \"#utility.yul\":6745:6770   */\n      swap2\n      pop\n        /* \"#utility.yul\":6658:6776   */\n      pop\n        /* \"#utility.yul\":6607:6776   */\n      swap3\n      swap2\n      pop\n      pop\n      jump\t// out\n        /* \"#utility.yul\":6781:7076   */\n    tag_57:\n        /* \"#utility.yul\":6857:6861   */\n      0x00\n        /* \"#utility.yul\":7003:7032   */\n      tag_143\n        /* \"#utility.yul\":7028:7031   */\n      dup4\n        /* \"#utility.yul\":7022:7026   */\n      dup4\n        /* \"#utility.yul\":7003:7032   */\n      tag_56\n      jump\t// in\n    tag_143:\n        /* \"#utility.yul\":6995:7032   */\n      swap2\n      pop\n        /* \"#utility.yul\":7065:7068   */\n      dup3\n        /* \"#utility.yul\":7062:7063   */\n      0x02\n        /* \"#utility.yul\":7058:7069   */\n      mul\n        /* \"#utility.yul\":7052:7056   */\n      dup3\n        /* \"#utility.yul\":7049:7070   */\n      or\n        /* \"#utility.yul\":7041:7070   */\n      swap1\n      pop\n        /* \"#utility.yul\":6781:7076   */\n      swap3\n      swap2\n      pop\n      pop\n      jump\t// out\n        /* \"#utility.yul\":7081:8476   */\n    tag_17:\n        /* \"#utility.yul\":7198:7235   */\n      tag_145\n        /* \"#utility.yul\":7231:7234   */\n      dup3\n        /* \"#utility.yul\":7198:7235   */\n      tag_36\n      jump\t// in\n    tag_145:\n        /* \"#utility.yul\":7300:7318   */\n      0xffffffffffffffff\n        /* \"#utility.yul\":7292:7298   */\n      dup2\n        /* \"#utility.yul\":7289:7319   */\n      gt\n        /* \"#utility.yul\":7286:7342   */\n      iszero\n      tag_146\n      jumpi\n        /* \"#utility.yul\":7322:7340   */\n      tag_147\n      tag_41\n      jump\t// in\n    tag_147:\n        /* \"#utility.yul\":7286:7342   */\n    tag_146:\n        /* \"#utility.yul\":7366:7404   */\n      tag_148\n        /* \"#utility.yul\":7398:7402   */\n      dup3\n        /* \"#utility.yul\":7392:7403   */\n      sload\n        /* \"#utility.yul\":7366:7404   */\n      tag_20\n      jump\t// in\n    tag_148:\n        /* \"#utility.yul\":7451:7518   */\n      tag_149\n        /* \"#utility.yul\":7511:7517   */\n      dup3\n        /* \"#utility.yul\":7503:7509   */\n      dup3\n        /* \"#utility.yul\":7497:7501   */\n      dup6\n        /* \"#utility.yul\":7451:7518   */\n      tag_54\n      jump\t// in\n    tag_149:\n        /* \"#utility.yul\":7545:7546   */\n      0x00\n        /* \"#utility.yul\":7569:7573   */\n      0x20\n        /* \"#utility.yul\":7556:7573   */\n      swap1\n      pop\n        /* \"#utility.yul\":7601:7603   */\n      0x1f\n        /* \"#utility.yul\":7593:7599   */\n      dup4\n        /* \"#utility.yul\":7590:7604   */\n      gt\n        /* \"#utility.yul\":7618:7619   */\n      0x01\n        /* \"#utility.yul\":7613:8231   */\n      dup2\n      eq\n      tag_151\n      jumpi\n        /* \"#utility.yul\":8275:8276   */\n      0x00\n        /* \"#utility.yul\":8292:8298   */\n      dup5\n        /* \"#utility.yul\":8289:8366   */\n      iszero\n      tag_152\n      jumpi\n        /* \"#utility.yul\":8341:8350   */\n      dup3\n        /* \"#utility.yul\":8336:8339   */\n      dup8\n        /* \"#utility.yul\":8332:8351   */\n      add\n        /* \"#utility.yul\":8326:8352   */\n      mload\n        /* \"#utility.yul\":8317:8352   */\n      swap1\n      pop\n        /* \"#utility.yul\":8289:8366   */\n    tag_152:\n        /* \"#utility.yul\":8392:8459   */\n      tag_153\n        /* \"#utility.yul\":8452:8458   */\n      dup6\n        /* \"#utility.yul\":8445:8450   */\n      dup3\n        /* \"#utility.yul\":8392:8459   */\n      tag_57\n      jump\t// in\n    tag_153:\n        /* \"#utility.yul\":8386:8390   */\n      dup7\n        /* \"#utility.yul\":8379:8460   */\n      sstore\n        /* \"#utility.yul\":8248:8470   */\n      pop\n        /* \"#utility.yul\":7583:8470   */\n      jump(tag_150)\n        /* \"#utility.yul\":7613:8231   */\n    tag_151:\n        /* \"#utility.yul\":7665:7669   */\n      0x1f\n        /* \"#utility.yul\":7661:7670   */\n      not\n        /* \"#utility.yul\":7653:7659   */\n      dup5\n        /* \"#utility.yul\":7649:7671   */\n      and\n        /* \"#utility.yul\":7699:7736   */\n      tag_154\n        /* \"#utility.yul\":7731:7735   */\n      dup7\n        /* \"#utility.yul\":7699:7736   */\n      tag_43\n      jump\t// in\n    tag_154:\n        /* \"#utility.yul\":7758:7759   */\n      0x00\n        /* \"#utility.yul\":7772:7980   */\n    tag_155:\n        /* \"#utility.yul\":7786:7793   */\n      dup3\n        /* \"#utility.yul\":7783:7784   */\n      dup2\n        /* \"#utility.yul\":7780:7794   */\n      lt\n        /* \"#utility.yul\":7772:7980   */\n      iszero\n      tag_157\n      jumpi\n        /* \"#utility.yul\":7865:7874   */\n      dup5\n        /* \"#utility.yul\":7860:7863   */\n      dup10\n        /* \"#utility.yul\":7856:7875   */\n      add\n        /* \"#utility.yul\":7850:7876   */\n      mload\n        /* \"#utility.yul\":7842:7848   */\n      dup3\n        /* \"#utility.yul\":7835:7877   */\n      sstore\n        /* \"#utility.yul\":7916:7917   */\n      0x01\n        /* \"#utility.yul\":7908:7914   */\n      dup3\n        /* \"#utility.yul\":7904:7918   */\n      add\n        /* \"#utility.yul\":7894:7918   */\n      swap2\n      pop\n        /* \"#utility.yul\":7963:7965   */\n      0x20\n        /* \"#utility.yul\":7952:7961   */\n      dup6\n        /* \"#utility.yul\":7948:7966   */\n      add\n        /* \"#utility.yul\":7935:7966   */\n      swap5\n      pop\n        /* \"#utility.yul\":7809:7813   */\n      0x20\n        /* \"#utility.yul\":7806:7807   */\n      dup2\n        /* \"#utility.yul\":7802:7814   */\n      add\n        /* \"#utility.yul\":7797:7814   */\n      swap1\n      pop\n        /* \"#utility.yul\":7772:7980   */\n      jump(tag_155)\n    tag_157:\n        /* \"#utility.yul\":8008:8014   */\n      dup7\n        /* \"#utility.yul\":7999:8006   */\n      dup4\n        /* \"#utility.yul\":7996:8015   */\n      lt\n        /* \"#utility.yul\":7993:8172   */\n      iszero\n      tag_158\n      jumpi\n        /* \"#utility.yul\":8066:8075   */\n      dup5\n        /* \"#utility.yul\":8061:8064   */\n      dup10\n        /* \"#utility.yul\":8057:8076   */\n      add\n        /* \"#utility.yul\":8051:8077   */\n      mload\n        /* \"#utility.yul\":8109:8157   */\n      tag_159\n        /* \"#utility.yul\":8151:8155   */\n      0x1f\n        /* \"#utility.yul\":8143:8149   */\n      dup10\n        /* \"#utility.yul\":8139:8156   */\n      and\n        /* \"#utility.yul\":8128:8137   */\n      dup3\n        /* \"#utility.yul\":8109:8157   */\n      tag_56\n      jump\t// in\n    tag_159:\n        /* \"#utility.yul\":8101:8107   */\n      dup4\n        /* \"#utility.yul\":8094:8158   */\n      sstore\n        /* \"#utility.yul\":8016:8172   */\n      pop\n        /* \"#utility.yul\":7993:8172   */\n    tag_158:\n        /* \"#utility.yul\":8218:8219   */\n      0x01\n        /* \"#utility.yul\":8214:8215   */\n      0x02\n        /* \"#utility.yul\":8206:8212   */\n      dup9\n        /* \"#utility.yul\":8202:8216   */\n      mul\n        /* \"#utility.yul\":8198:8220   */\n      add\n        /* \"#utility.yul\":8192:8196   */\n      dup9\n        /* \"#utility.yul\":8185:8221   */\n      sstore\n        /* \"#utility.yul\":7620:8231   */\n      pop\n      pop\n      pop\n        /* \"#utility.yul\":7583:8470   */\n    tag_150:\n      pop\n        /* \"#utility.yul\":7173:8476   */\n      pop\n      pop\n      pop\n        /* \"#utility.yul\":7081:8476   */\n      pop\n      pop\n      jump\t// out\n\n    auxdata: 0xa264697066735822122023c9e2c89931e5738f67c9117b770688a14f0361cc4b60ab5482cddb556d2e1864736f6c63430008110033\n}\n",
				"bytecode": {
					"linkReferences": {},
					"object": "608060405234801561001057600080fd5b50610772806100206000396000f3fe608060405234801561001057600080fd5b50600436106100365760003560e01c8063477e4a021461003b578063b43c5d3314610057575b600080fd5b610055600480360381019061005091906102a8565b610088565b005b610071600480360381019061006c9190610333565b6101c1565b60405161007f9291906103ff565b60405180910390f35b6040518060400160405280607b81526020016040518060400160405280600381526020017f62617200000000000000000000000000000000000000000000000000000000008152508152506000803373ffffffffffffffffffffffffffffffffffffffff1673ffffffffffffffffffffffffffffffffffffffff168152602001908152602001600020600082015181600001556020820151816001019081610130919061066a565b5090505060008060003373ffffffffffffffffffffffffffffffffffffffff1673ffffffffffffffffffffffffffffffffffffffff16815260200190815260200160002090506040518060400160405280600381526020017f666f6f00000000000000000000000000000000000000000000000000000000008152508160010190816101bc919061066a565b505050565b60006020528060005260406000206000915090508060000154908060010180546101ea9061048d565b80601f01602080910402602001604051908101604052809291908181526020018280546102169061048d565b80156102635780601f1061023857610100808354040283529160200191610263565b820191906000526020600020905b81548152906001019060200180831161024657829003601f168201915b5050505050905082565b600080fd5b6000819050919050565b61028581610272565b811461029057600080fd5b50565b6000813590506102a28161027c565b92915050565b6000602082840312156102be576102bd61026d565b5b60006102cc84828501610293565b91505092915050565b600073ffffffffffffffffffffffffffffffffffffffff82169050919050565b6000610300826102d5565b9050919050565b610310816102f5565b811461031b57600080fd5b50565b60008135905061032d81610307565b92915050565b6000602082840312156103495761034861026d565b5b60006103578482850161031e565b91505092915050565b61036981610272565b82525050565b600081519050919050565b600082825260208201905092915050565b60005b838110156103a957808201518184015260208101905061038e565b60008484015250505050565b6000601f19601f8301169050919050565b60006103d18261036f565b6103db818561037a565b93506103eb81856020860161038b565b6103f4816103b5565b840191505092915050565b60006040820190506104146000830185610360565b818103602083015261042681846103c6565b90509392505050565b7f4e487b7100000000000000000000000000000000000000000000000000000000600052604160045260246000fd5b7f4e487b7100000000000000000000000000000000000000000000000000000000600052602260045260246000fd5b600060028204905060018216806104a557607f821691505b6020821081036104b8576104b761045e565b5b50919050565b60008190508160005260206000209050919050565b60006020601f8301049050919050565b600082821b905092915050565b6000600883026105207fffffffffffffffffffffffffffffffffffffffffffffffffffffffffffffffff826104e3565b61052a86836104e3565b95508019841693508086168417925050509392505050565b6000819050919050565b600061056761056261055d84610272565b610542565b610272565b9050919050565b6000819050919050565b6105818361054c565b61059561058d8261056e565b8484546104f0565b825550505050565b600090565b6105aa61059d565b6105b5818484610578565b505050565b5b818110156105d9576105ce6000826105a2565b6001810190506105bb565b5050565b601f82111561061e576105ef816104be565b6105f8846104d3565b81016020851015610607578190505b61061b610613856104d3565b8301826105ba565b50505b505050565b600082821c905092915050565b600061064160001984600802610623565b1980831691505092915050565b600061065a8383610630565b9150826002028217905092915050565b6106738261036f565b67ffffffffffffffff81111561068c5761068b61042f565b5b610696825461048d565b6106a18282856105dd565b600060209050601f8311600181146106d457600084156106c2578287015190505b6106cc858261064e565b865550610734565b601f1984166106e2866104be565b60005b8281101561070a578489015182556001820191506020850194506020810190506106e5565b868310156107275784890151610723601f891682610630565b8355505b6001600288020188555050505b50505050505056fea264697066735822122023c9e2c89931e5738f67c9117b770688a14f0361cc4b60ab5482cddb556d2e1864736f6c63430008110033",
					"opcodes": "PUSH1 0x80 PUSH1 0x40 MSTORE CALLVALUE DUP1 ISZERO PUSH2 0x10 JUMPI PUSH1 0x0 DUP1 REVERT JUMPDEST POP PUSH2 0x772 DUP1 PUSH2 0x20 PUSH1 0x0 CODECOPY PUSH1 0x0 RETURN INVALID PUSH1 0x80 PUSH1 0x40 MSTORE CALLVALUE DUP1 ISZERO PUSH2 0x10 JUMPI PUSH1 0x0 DUP1 REVERT JUMPDEST POP PUSH1 0x4 CALLDATASIZE LT PUSH2 0x36 JUMPI PUSH1 0x0 CALLDATALOAD PUSH1 0xE0 SHR DUP1 PUSH4 0x477E4A02 EQ PUSH2 0x3B JUMPI DUP1 PUSH4 0xB43C5D33 EQ PUSH2 0x57 JUMPI JUMPDEST PUSH1 0x0 DUP1 REVERT JUMPDEST PUSH2 0x55 PUSH1 0x4 DUP1 CALLDATASIZE SUB DUP2 ADD SWAP1 PUSH2 0x50 SWAP2 SWAP1 PUSH2 0x2A8 JUMP JUMPDEST PUSH2 0x88 JUMP JUMPDEST STOP JUMPDEST PUSH2 0x71 PUSH1 0x4 DUP1 CALLDATASIZE SUB DUP2 ADD SWAP1 PUSH2 0x6C SWAP2 SWAP1 PUSH2 0x333 JUMP JUMPDEST PUSH2 0x1C1 JUMP JUMPDEST PUSH1 0x40 MLOAD PUSH2 0x7F SWAP3 SWAP2 SWAP1 PUSH2 0x3FF JUMP JUMPDEST PUSH1 0x40 MLOAD DUP1 SWAP2 SUB SWAP1 RETURN JUMPDEST PUSH1 0x40 MLOAD DUP1 PUSH1 0x40 ADD PUSH1 0x40 MSTORE DUP1 PUSH1 0x7B DUP2 MSTORE PUSH1 0x20 ADD PUSH1 0x40 MLOAD DUP1 PUSH1 0x40 ADD PUSH1 0x40 MSTORE DUP1 PUSH1 0x3 DUP2 MSTORE PUSH1 0x20 ADD PUSH32 0x6261720000000000000000000000000000000000000000000000000000000000 DUP2 MSTORE POP DUP2 MSTORE POP PUSH1 0x0 DUP1 CALLER PUSH20 0xFFFFFFFFFFFFFFFFFFFFFFFFFFFFFFFFFFFFFFFF AND PUSH20 0xFFFFFFFFFFFFFFFFFFFFFFFFFFFFFFFFFFFFFFFF AND DUP2 MSTORE PUSH1 0x20 ADD SWAP1 DUP2 MSTORE PUSH1 0x20 ADD PUSH1 0x0 KECCAK256 PUSH1 0x0 DUP3 ADD MLOAD DUP2 PUSH1 0x0 ADD SSTORE PUSH1 0x20 DUP3 ADD MLOAD DUP2 PUSH1 0x1 ADD SWAP1 DUP2 PUSH2 0x130 SWAP2 SWAP1 PUSH2 0x66A JUMP JUMPDEST POP SWAP1 POP POP PUSH1 0x0 DUP1 PUSH1 0x0 CALLER PUSH20 0xFFFFFFFFFFFFFFFFFFFFFFFFFFFFFFFFFFFFFFFF AND PUSH20 0xFFFFFFFFFFFFFFFFFFFFFFFFFFFFFFFFFFFFFFFF AND DUP2 MSTORE PUSH1 0x20 ADD SWAP1 DUP2 MSTORE PUSH1 0x20 ADD PUSH1 0x0 KECCAK256 SWAP1 POP PUSH1 0x40 MLOAD DUP1 PUSH1 0x40 ADD PUSH1 0x40 MSTORE DUP1 PUSH1 0x3 DUP2 MSTORE PUSH1 0x20 ADD PUSH32 0x666F6F0000000000000000000000000000000000000000000000000000000000 DUP2 MSTORE POP DUP2 PUSH1 0x1 ADD SWAP1 DUP2 PUSH2 0x1BC SWAP2 SWAP1 PUSH2 0x66A JUMP JUMPDEST POP POP POP JUMP JUMPDEST PUSH1 0x0 PUSH1 0x20 MSTORE DUP1 PUSH1 0x0 MSTORE PUSH1 0x40 PUSH1 0x0 KECCAK256 PUSH1 0x0 SWAP2 POP SWAP1 POP DUP1 PUSH1 0x0 ADD SLOAD SWAP1 DUP1 PUSH1 0x1 ADD DUP1 SLOAD PUSH2 0x1EA SWAP1 PUSH2 0x48D JUMP JUMPDEST DUP1 PUSH1 0x1F ADD PUSH1 0x20 DUP1 SWAP2 DIV MUL PUSH1 0x20 ADD PUSH1 0x40 MLOAD SWAP1 DUP2 ADD PUSH1 0x40 MSTORE DUP1 SWAP3 SWAP2 SWAP1 DUP2 DUP2 MSTORE PUSH1 0x20 ADD DUP3 DUP1 SLOAD PUSH2 0x216 SWAP1 PUSH2 0x48D JUMP JUMPDEST DUP1 ISZERO PUSH2 0x263 JUMPI DUP1 PUSH1 0x1F LT PUSH2 0x238 JUMPI PUSH2 0x100 DUP1 DUP4 SLOAD DIV MUL DUP4 MSTORE SWAP2 PUSH1 0x20 ADD SWAP2 PUSH2 0x263 JUMP JUMPDEST DUP3 ADD SWAP2 SWAP1 PUSH1 0x0 MSTORE PUSH1 0x20 PUSH1 0x0 KECCAK256 SWAP1 JUMPDEST DUP2 SLOAD DUP2 MSTORE SWAP1 PUSH1 0x1 ADD SWAP1 PUSH1 0x20 ADD DUP1 DUP4 GT PUSH2 0x246 JUMPI DUP3 SWAP1 SUB PUSH1 0x1F AND DUP3 ADD SWAP2 JUMPDEST POP POP POP POP POP SWAP1 POP DUP3 JUMP JUMPDEST PUSH1 0x0 DUP1 REVERT JUMPDEST PUSH1 0x0 DUP2 SWAP1 POP SWAP2 SWAP1 POP JUMP JUMPDEST PUSH2 0x285 DUP2 PUSH2 0x272 JUMP JUMPDEST DUP2 EQ PUSH2 0x290 JUMPI PUSH1 0x0 DUP1 REVERT JUMPDEST POP JUMP JUMPDEST PUSH1 0x0 DUP2 CALLDATALOAD SWAP1 POP PUSH2 0x2A2 DUP2 PUSH2 0x27C JUMP JUMPDEST SWAP3 SWAP2 POP POP JUMP JUMPDEST PUSH1 0x0 PUSH1 0x20 DUP3 DUP5 SUB SLT ISZERO PUSH2 0x2BE JUMPI PUSH2 0x2BD PUSH2 0x26D JUMP JUMPDEST JUMPDEST PUSH1 0x0 PUSH2 0x2CC DUP5 DUP3 DUP6 ADD PUSH2 0x293 JUMP JUMPDEST SWAP2 POP POP SWAP3 SWAP2 POP POP JUMP JUMPDEST PUSH1 0x0 PUSH20 0xFFFFFFFFFFFFFFFFFFFFFFFFFFFFFFFFFFFFFFFF DUP3 AND SWAP1 POP SWAP2 SWAP1 POP JUMP JUMPDEST PUSH1 0x0 PUSH2 0x300 DUP3 PUSH2 0x2D5 JUMP JUMPDEST SWAP1 POP SWAP2 SWAP1 POP JUMP JUMPDEST PUSH2 0x310 DUP2 PUSH2 0x2F5 JUMP JUMPDEST DUP2 EQ PUSH2 0x31B JUMPI PUSH1 0x0 DUP1 REVERT JUMPDEST POP JUMP JUMPDEST PUSH1 0x0 DUP2 CALLDATALOAD SWAP1 POP PUSH2 0x32D DUP2 PUSH2 0x307 JUMP JUMPDEST SWAP3 SWAP2 POP POP JUMP JUMPDEST PUSH1 0x0 PUSH1 0x20 DUP3 DUP5 SUB SLT ISZERO PUSH2 0x349 JUMPI PUSH2 0x348 PUSH2 0x26D JUMP JUMPDEST JUMPDEST PUSH1 0x0 PUSH2 0x357 DUP5 DUP3 DUP6 ADD PUSH2 0x31E JUMP JUMPDEST SWAP2 POP POP SWAP3 SWAP2 POP POP JUMP JUMPDEST PUSH2 0x369 DUP2 PUSH2 0x272 JUMP JUMPDEST DUP3 MSTORE POP POP JUMP JUMPDEST PUSH1 0x0 DUP2 MLOAD SWAP1 POP SWAP2 SWAP1 POP JUMP JUMPDEST PUSH1 0x0 DUP3 DUP3 MSTORE PUSH1 0x20 DUP3 ADD SWAP1 POP SWAP3 SWAP2 POP POP JUMP JUMPDEST PUSH1 0x0 JUMPDEST DUP4 DUP2 LT ISZERO PUSH2 0x3A9 JUMPI DUP1 DUP3 ADD MLOAD DUP2 DUP5 ADD MSTORE PUSH1 0x20 DUP2 ADD SWAP1 POP PUSH2 0x38E JUMP JUMPDEST PUSH1 0x0 DUP5 DUP5 ADD MSTORE POP POP POP POP JUMP JUMPDEST PUSH1 0x0 PUSH1 0x1F NOT PUSH1 0x1F DUP4 ADD AND SWAP1 POP SWAP2 SWAP1 POP JUMP JUMPDEST PUSH1 0x0 PUSH2 0x3D1 DUP3 PUSH2 0x36F JUMP JUMPDEST PUSH2 0x3DB DUP2 DUP6 PUSH2 0x37A JUMP JUMPDEST SWAP4 POP PUSH2 0x3EB DUP2 DUP6 PUSH1 0x20 DUP7 ADD PUSH2 0x38B JUMP JUMPDEST PUSH2 0x3F4 DUP2 PUSH2 0x3B5 JUMP JUMPDEST DUP5 ADD SWAP2 POP POP SWAP3 SWAP2 POP POP JUMP JUMPDEST PUSH1 0x0 PUSH1 0x40 DUP3 ADD SWAP1 POP PUSH2 0x414 PUSH1 0x0 DUP4 ADD DUP6 PUSH2 0x360 JUMP JUMPDEST DUP2 DUP2 SUB PUSH1 0x20 DUP4 ADD MSTORE PUSH2 0x426 DUP2 DUP5 PUSH2 0x3C6 JUMP JUMPDEST SWAP1 POP SWAP4 SWAP3 POP POP POP JUMP JUMPDEST PUSH32 0x4E487B7100000000000000000000000000000000000000000000000000000000 PUSH1 0x0 MSTORE PUSH1 0x41 PUSH1 0x4 MSTORE PUSH1 0x24 PUSH1 0x0 REVERT JUMPDEST PUSH32 0x4E487B7100000000000000000000000000000000000000000000000000000000 PUSH1 0x0 MSTORE PUSH1 0x22 PUSH1 0x4 MSTORE PUSH1 0x24 PUSH1 0x0 REVERT JUMPDEST PUSH1 0x0 PUSH1 0x2 DUP3 DIV SWAP1 POP PUSH1 0x1 DUP3 AND DUP1 PUSH2 0x4A5 JUMPI PUSH1 0x7F DUP3 AND SWAP2 POP JUMPDEST PUSH1 0x20 DUP3 LT DUP2 SUB PUSH2 0x4B8 JUMPI PUSH2 0x4B7 PUSH2 0x45E JUMP JUMPDEST JUMPDEST POP SWAP2 SWAP1 POP JUMP JUMPDEST PUSH1 0x0 DUP2 SWAP1 POP DUP2 PUSH1 0x0 MSTORE PUSH1 0x20 PUSH1 0x0 KECCAK256 SWAP1 POP SWAP2 SWAP1 POP JUMP JUMPDEST PUSH1 0x0 PUSH1 0x20 PUSH1 0x1F DUP4 ADD DIV SWAP1 POP SWAP2 SWAP1 POP JUMP JUMPDEST PUSH1 0x0 DUP3 DUP3 SHL SWAP1 POP SWAP3 SWAP2 POP POP JUMP JUMPDEST PUSH1 0x0 PUSH1 0x8 DUP4 MUL PUSH2 0x520 PUSH32 0xFFFFFFFFFFFFFFFFFFFFFFFFFFFFFFFFFFFFFFFFFFFFFFFFFFFFFFFFFFFFFFFF DUP3 PUSH2 0x4E3 JUMP JUMPDEST PUSH2 0x52A DUP7 DUP4 PUSH2 0x4E3 JUMP JUMPDEST SWAP6 POP DUP1 NOT DUP5 AND SWAP4 POP DUP1 DUP7 AND DUP5 OR SWAP3 POP POP POP SWAP4 SWAP3 POP POP POP JUMP JUMPDEST PUSH1 0x0 DUP2 SWAP1 POP SWAP2 SWAP1 POP JUMP JUMPDEST PUSH1 0x0 PUSH2 0x567 PUSH2 0x562 PUSH2 0x55D DUP5 PUSH2 0x272 JUMP JUMPDEST PUSH2 0x542 JUMP JUMPDEST PUSH2 0x272 JUMP JUMPDEST SWAP1 POP SWAP2 SWAP1 POP JUMP JUMPDEST PUSH1 0x0 DUP2 SWAP1 POP SWAP2 SWAP1 POP JUMP JUMPDEST PUSH2 0x581 DUP4 PUSH2 0x54C JUMP JUMPDEST PUSH2 0x595 PUSH2 0x58D DUP3 PUSH2 0x56E JUMP JUMPDEST DUP5 DUP5 SLOAD PUSH2 0x4F0 JUMP JUMPDEST DUP3 SSTORE POP POP POP POP JUMP JUMPDEST PUSH1 0x0 SWAP1 JUMP JUMPDEST PUSH2 0x5AA PUSH2 0x59D JUMP JUMPDEST PUSH2 0x5B5 DUP2 DUP5 DUP5 PUSH2 0x578 JUMP JUMPDEST POP POP POP JUMP JUMPDEST JUMPDEST DUP2 DUP2 LT ISZERO PUSH2 0x5D9 JUMPI PUSH2 0x5CE PUSH1 0x0 DUP3 PUSH2 0x5A2 JUMP JUMPDEST PUSH1 0x1 DUP2 ADD SWAP1 POP PUSH2 0x5BB JUMP JUMPDEST POP POP JUMP JUMPDEST PUSH1 0x1F DUP3 GT ISZERO PUSH2 0x61E JUMPI PUSH2 0x5EF DUP2 PUSH2 0x4BE JUMP JUMPDEST PUSH2 0x5F8 DUP5 PUSH2 0x4D3 JUMP JUMPDEST DUP2 ADD PUSH1 0x20 DUP6 LT ISZERO PUSH2 0x607 JUMPI DUP2 SWAP1 POP JUMPDEST PUSH2 0x61B PUSH2 0x613 DUP6 PUSH2 0x4D3 JUMP JUMPDEST DUP4 ADD DUP3 PUSH2 0x5BA JUMP JUMPDEST POP POP JUMPDEST POP POP POP JUMP JUMPDEST PUSH1 0x0 DUP3 DUP3 SHR SWAP1 POP SWAP3 SWAP2 POP POP JUMP JUMPDEST PUSH1 0x0 PUSH2 0x641 PUSH1 0x0 NOT DUP5 PUSH1 0x8 MUL PUSH2 0x623 JUMP JUMPDEST NOT DUP1 DUP4 AND SWAP2 POP POP SWAP3 SWAP2 POP POP JUMP JUMPDEST PUSH1 0x0 PUSH2 0x65A DUP4 DUP4 PUSH2 0x630 JUMP JUMPDEST SWAP2 POP DUP3 PUSH1 0x2 MUL DUP3 OR SWAP1 POP SWAP3 SWAP2 POP POP JUMP JUMPDEST PUSH2 0x673 DUP3 PUSH2 0x36F JUMP JUMPDEST PUSH8 0xFFFFFFFFFFFFFFFF DUP2 GT ISZERO PUSH2 0x68C JUMPI PUSH2 0x68B PUSH2 0x42F JUMP JUMPDEST JUMPDEST PUSH2 0x696 DUP3 SLOAD PUSH2 0x48D JUMP JUMPDEST PUSH2 0x6A1 DUP3 DUP3 DUP6 PUSH2 0x5DD JUMP JUMPDEST PUSH1 0x0 PUSH1 0x20 SWAP1 POP PUSH1 0x1F DUP4 GT PUSH1 0x1 DUP2 EQ PUSH2 0x6D4 JUMPI PUSH1 0x0 DUP5 ISZERO PUSH2 0x6C2 JUMPI DUP3 DUP8 ADD MLOAD SWAP1 POP JUMPDEST PUSH2 0x6CC DUP6 DUP3 PUSH2 0x64E JUMP JUMPDEST DUP7 SSTORE POP PUSH2 0x734 JUMP JUMPDEST PUSH1 0x1F NOT DUP5 AND PUSH2 0x6E2 DUP7 PUSH2 0x4BE JUMP JUMPDEST PUSH1 0x0 JUMPDEST DUP3 DUP2 LT ISZERO PUSH2 0x70A JUMPI DUP5 DUP10 ADD MLOAD DUP3 SSTORE PUSH1 0x1 DUP3 ADD SWAP2 POP PUSH1 0x20 DUP6 ADD SWAP5 POP PUSH1 0x20 DUP2 ADD SWAP1 POP PUSH2 0x6E5 JUMP JUMPDEST DUP7 DUP4 LT ISZERO PUSH2 0x727 JUMPI DUP5 DUP10 ADD MLOAD PUSH2 0x723 PUSH1 0x1F DUP10 AND DUP3 PUSH2 0x630 JUMP JUMPDEST DUP4 SSTORE POP JUMPDEST PUSH1 0x1 PUSH1 0x2 DUP9 MUL ADD DUP9 SSTORE POP POP POP JUMPDEST POP POP POP POP POP POP JUMP INVALID LOG2 PUSH5 0x6970667358 0x22 SLT KECCAK256 0x23 0xC9 0xE2 0xC8 SWAP10 BALANCE 0xE5 PUSH20 0x8F67C9117B770688A14F0361CC4B60AB5482CDDB SSTORE PUSH14 0x2E1864736F6C6343000811003300 "
				},
				"gasEstimates": {
					"creation": {
						"codeDepositCost": "381200",
						"executionCost": "418",
						"totalCost": "381618"
					},
					"external": {
						"example(uint256)": "infinite",
						"myStructs(address)": "infinite"
					}
				},
				"methodIdentifiers": {
					"example(uint256)": "477e4a02",
					"myStructs(address)": "b43c5d33"
				}
			},
			"storageLayout": {
				"storage": [
					{
						"astId": 11,
						"contract": "DataLocations.sol:DataLocations",
						"label": "myStructs",
						"offset": 0,
						"slot": "0",
						"type": "t_mapping(t_address,t_struct(MyStruct)6_storage)"
					}
				],
				"types": {
					"t_address": {
						"encoding": "inplace",
						"label": "address",
						"numberOfBytes": "20"
					},
					"t_mapping(t_address,t_struct(MyStruct)6_storage)": {
						"encoding": "mapping",
						"key": "t_address",
						"label": "mapping(address => struct DataLocations.MyStruct)",
						"numberOfBytes": "32",
						"value": "t_struct(MyStruct)6_storage"
					},
					"t_string_storage": {
						"encoding": "bytes",
						"label": "string",
						"numberOfBytes": "32"
					},
					"t_struct(MyStruct)6_storage": {
						"encoding": "inplace",
						"label": "struct DataLocations.MyStruct",
						"members": [
							{
								"astId": 3,
								"contract": "DataLocations.sol:DataLocations",
								"label": "foo",
								"offset": 0,
								"slot": "0",
								"type": "t_uint256"
							},
							{
								"astId": 5,
								"contract": "DataLocations.sol:DataLocations",
								"label": "text",
								"offset": 0,
								"slot": "1",
								"type": "t_string_storage"
							}
						],
						"numberOfBytes": "64"
					},
					"t_uint256": {
						"encoding": "inplace",
						"label": "uint256",
						"numberOfBytes": "32"
					}
				}
			},
			"userdoc": {
				"kind": "user",
				"methods": {},
				"version": 1
			}
		}
	}
}