{
	"test1.sol": {
		"A": {
			"abi": [
				{
					"inputs": [
						{
							"internalType": "uint16",
							"name": "a",
							"type": "uint16"
						},
						{
							"internalType": "uint16",
							"name": "b",
							"type": "uint16"
						}
					],
					"name": "b",
					"outputs": [
						{
							"internalType": "uint16",
							"name": "",
							"type": "uint16"
						},
						{
							"internalType": "string",
							"name": "",
							"type": "string"
						}
					],
					"stateMutability": "pure",
					"type": "function"
				}
			],
			"devdoc": {
				"kind": "dev",
				"methods": {},
				"version": 1
			},
			"evm": {
				"assembly": "    /* \"test1.sol\":61:223  contract A {... */\n  mstore(0x40, 0x80)\n  callvalue\n  dup1\n  iszero\n  tag_1\n  jumpi\n  0x00\n  dup1\n  revert\ntag_1:\n  pop\n  dataSize(sub_0)\n  dup1\n  dataOffset(sub_0)\n  0x00\n  codecopy\n  0x00\n  return\nstop\n\nsub_0: assembly {\n        /* \"test1.sol\":61:223  contract A {... */\n      mstore(0x40, 0x80)\n      callvalue\n      dup1\n      iszero\n      tag_1\n      jumpi\n      0x00\n      dup1\n      revert\n    tag_1:\n      pop\n      jumpi(tag_2, lt(calldatasize, 0x04))\n      shr(0xe0, calldataload(0x00))\n      dup1\n      0xfb2ee6cc\n      eq\n      tag_3\n      jumpi\n    tag_2:\n      0x00\n      dup1\n      revert\n        /* \"test1.sol\":81:220  function b(uint16 a, uint16 b) public pure returns (uint16, string memory){... */\n    tag_3:\n      tag_4\n      0x04\n      dup1\n      calldatasize\n      sub\n      dup2\n      add\n      swap1\n      tag_5\n      swap2\n      swap1\n      tag_6\n      jump\t// in\n    tag_5:\n      tag_7\n      jump\t// in\n    tag_4:\n      mload(0x40)\n      tag_8\n      swap3\n      swap2\n      swap1\n      tag_9\n      jump\t// in\n    tag_8:\n      mload(0x40)\n      dup1\n      swap2\n      sub\n      swap1\n      return\n    tag_7:\n        /* \"test1.sol\":133:139  uint16 */\n      0x00\n        /* \"test1.sol\":141:154  string memory */\n      0x60\n        /* \"test1.sol\":166:173  uint8 c */\n      0x00\n        /* \"test1.sol\":176:177  5 */\n      0x05\n        /* \"test1.sol\":166:177  uint8 c = 5 */\n      swap1\n      pop\n        /* \"test1.sol\":188:203  string memory s */\n      0x00\n        /* \"test1.sol\":188:212  string memory s = \"ssss\" */\n      mload(0x40)\n      dup1\n      0x40\n      add\n      0x40\n      mstore\n      dup1\n      0x04\n      dup2\n      mstore\n      0x20\n      add\n      0x7373737300000000000000000000000000000000000000000000000000000000\n      dup2\n      mstore\n      pop\n      swap1\n      pop\n        /* \"test1.sol\":155:220  {... */\n      pop\n      pop\n        /* \"test1.sol\":81:220  function b(uint16 a, uint16 b) public pure returns (uint16, string memory){... */\n      swap3\n      pop\n      swap3\n      swap1\n      pop\n      jump\t// out\n        /* \"#utility.yul\":88:205   */\n    tag_12:\n        /* \"#utility.yul\":197:198   */\n      0x00\n        /* \"#utility.yul\":194:195   */\n      dup1\n        /* \"#utility.yul\":187:199   */\n      revert\n        /* \"#utility.yul\":334:423   */\n    tag_14:\n        /* \"#utility.yul\":370:377   */\n      0x00\n        /* \"#utility.yul\":410:416   */\n      0xffff\n        /* \"#utility.yul\":403:408   */\n      dup3\n        /* \"#utility.yul\":399:417   */\n      and\n        /* \"#utility.yul\":388:417   */\n      swap1\n      pop\n        /* \"#utility.yul\":334:423   */\n      swap2\n      swap1\n      pop\n      jump\t// out\n        /* \"#utility.yul\":429:549   */\n    tag_15:\n        /* \"#utility.yul\":501:524   */\n      tag_29\n        /* \"#utility.yul\":518:523   */\n      dup2\n        /* \"#utility.yul\":501:524   */\n      tag_14\n      jump\t// in\n    tag_29:\n        /* \"#utility.yul\":494:499   */\n      dup2\n        /* \"#utility.yul\":491:525   */\n      eq\n        /* \"#utility.yul\":481:543   */\n      tag_30\n      jumpi\n        /* \"#utility.yul\":539:540   */\n      0x00\n        /* \"#utility.yul\":536:537   */\n      dup1\n        /* \"#utility.yul\":529:541   */\n      revert\n        /* \"#utility.yul\":481:543   */\n    tag_30:\n        /* \"#utility.yul\":429:549   */\n      pop\n      jump\t// out\n        /* \"#utility.yul\":555:692   */\n    tag_16:\n        /* \"#utility.yul\":600:605   */\n      0x00\n        /* \"#utility.yul\":638:644   */\n      dup2\n        /* \"#utility.yul\":625:645   */\n      calldataload\n        /* \"#utility.yul\":616:645   */\n      swap1\n      pop\n        /* \"#utility.yul\":654:686   */\n      tag_32\n        /* \"#utility.yul\":680:685   */\n      dup2\n        /* \"#utility.yul\":654:686   */\n      tag_15\n      jump\t// in\n    tag_32:\n        /* \"#utility.yul\":555:692   */\n      swap3\n      swap2\n      pop\n      pop\n      jump\t// out\n        /* \"#utility.yul\":698:1168   */\n    tag_6:\n        /* \"#utility.yul\":764:770   */\n      0x00\n        /* \"#utility.yul\":772:778   */\n      dup1\n        /* \"#utility.yul\":821:823   */\n      0x40\n        /* \"#utility.yul\":809:818   */\n      dup4\n        /* \"#utility.yul\":800:807   */\n      dup6\n        /* \"#utility.yul\":796:819   */\n      sub\n        /* \"#utility.yul\":792:824   */\n      slt\n        /* \"#utility.yul\":789:908   */\n      iszero\n      tag_34\n      jumpi\n        /* \"#utility.yul\":827:906   */\n      tag_35\n      tag_12\n      jump\t// in\n    tag_35:\n        /* \"#utility.yul\":789:908   */\n    tag_34:\n        /* \"#utility.yul\":947:948   */\n      0x00\n        /* \"#utility.yul\":972:1024   */\n      tag_36\n        /* \"#utility.yul\":1016:1023   */\n      dup6\n        /* \"#utility.yul\":1007:1013   */\n      dup3\n        /* \"#utility.yul\":996:1005   */\n      dup7\n        /* \"#utility.yul\":992:1014   */\n      add\n        /* \"#utility.yul\":972:1024   */\n      tag_16\n      jump\t// in\n    tag_36:\n        /* \"#utility.yul\":962:1024   */\n      swap3\n      pop\n        /* \"#utility.yul\":918:1034   */\n      pop\n        /* \"#utility.yul\":1073:1075   */\n      0x20\n        /* \"#utility.yul\":1099:1151   */\n      tag_37\n        /* \"#utility.yul\":1143:1150   */\n      dup6\n        /* \"#utility.yul\":1134:1140   */\n      dup3\n        /* \"#utility.yul\":1123:1132   */\n      dup7\n        /* \"#utility.yul\":1119:1141   */\n      add\n        /* \"#utility.yul\":1099:1151   */\n      tag_16\n      jump\t// in\n    tag_37:\n        /* \"#utility.yul\":1089:1151   */\n      swap2\n      pop\n        /* \"#utility.yul\":1044:1161   */\n      pop\n        /* \"#utility.yul\":698:1168   */\n      swap3\n      pop\n      swap3\n      swap1\n      pop\n      jump\t// out\n        /* \"#utility.yul\":1174:1289   */\n    tag_17:\n        /* \"#utility.yul\":1259:1282   */\n      tag_39\n        /* \"#utility.yul\":1276:1281   */\n      dup2\n        /* \"#utility.yul\":1259:1282   */\n      tag_14\n      jump\t// in\n    tag_39:\n        /* \"#utility.yul\":1254:1257   */\n      dup3\n        /* \"#utility.yul\":1247:1283   */\n      mstore\n        /* \"#utility.yul\":1174:1289   */\n      pop\n      pop\n      jump\t// out\n        /* \"#utility.yul\":1295:1394   */\n    tag_18:\n        /* \"#utility.yul\":1347:1353   */\n      0x00\n        /* \"#utility.yul\":1381:1386   */\n      dup2\n        /* \"#utility.yul\":1375:1387   */\n      mload\n        /* \"#utility.yul\":1365:1387   */\n      swap1\n      pop\n        /* \"#utility.yul\":1295:1394   */\n      swap2\n      swap1\n      pop\n      jump\t// out\n        /* \"#utility.yul\":1400:1569   */\n    tag_19:\n        /* \"#utility.yul\":1484:1495   */\n      0x00\n        /* \"#utility.yul\":1518:1524   */\n      dup3\n        /* \"#utility.yul\":1513:1516   */\n      dup3\n        /* \"#utility.yul\":1506:1525   */\n      mstore\n        /* \"#utility.yul\":1558:1562   */\n      0x20\n        /* \"#utility.yul\":1553:1556   */\n      dup3\n        /* \"#utility.yul\":1549:1563   */\n      add\n        /* \"#utility.yul\":1534:1563   */\n      swap1\n      pop\n        /* \"#utility.yul\":1400:1569   */\n      swap3\n      swap2\n      pop\n      pop\n      jump\t// out\n        /* \"#utility.yul\":1575:1821   */\n    tag_20:\n        /* \"#utility.yul\":1656:1657   */\n      0x00\n        /* \"#utility.yul\":1666:1779   */\n    tag_43:\n        /* \"#utility.yul\":1680:1686   */\n      dup4\n        /* \"#utility.yul\":1677:1678   */\n      dup2\n        /* \"#utility.yul\":1674:1687   */\n      lt\n        /* \"#utility.yul\":1666:1779   */\n      iszero\n      tag_45\n      jumpi\n        /* \"#utility.yul\":1765:1766   */\n      dup1\n        /* \"#utility.yul\":1760:1763   */\n      dup3\n        /* \"#utility.yul\":1756:1767   */\n      add\n        /* \"#utility.yul\":1750:1768   */\n      mload\n        /* \"#utility.yul\":1746:1747   */\n      dup2\n        /* \"#utility.yul\":1741:1744   */\n      dup5\n        /* \"#utility.yul\":1737:1748   */\n      add\n        /* \"#utility.yul\":1730:1769   */\n      mstore\n        /* \"#utility.yul\":1702:1704   */\n      0x20\n        /* \"#utility.yul\":1699:1700   */\n      dup2\n        /* \"#utility.yul\":1695:1705   */\n      add\n        /* \"#utility.yul\":1690:1705   */\n      swap1\n      pop\n        /* \"#utility.yul\":1666:1779   */\n      jump(tag_43)\n    tag_45:\n        /* \"#utility.yul\":1813:1814   */\n      0x00\n        /* \"#utility.yul\":1804:1810   */\n      dup5\n        /* \"#utility.yul\":1799:1802   */\n      dup5\n        /* \"#utility.yul\":1795:1811   */\n      add\n        /* \"#utility.yul\":1788:1815   */\n      mstore\n        /* \"#utility.yul\":1637:1821   */\n      pop\n        /* \"#utility.yul\":1575:1821   */\n      pop\n      pop\n      pop\n      jump\t// out\n        /* \"#utility.yul\":1827:1929   */\n    tag_21:\n        /* \"#utility.yul\":1868:1874   */\n      0x00\n        /* \"#utility.yul\":1919:1921   */\n      0x1f\n        /* \"#utility.yul\":1915:1922   */\n      not\n        /* \"#utility.yul\":1910:1912   */\n      0x1f\n        /* \"#utility.yul\":1903:1908   */\n      dup4\n        /* \"#utility.yul\":1899:1913   */\n      add\n        /* \"#utility.yul\":1895:1923   */\n      and\n        /* \"#utility.yul\":1885:1923   */\n      swap1\n      pop\n        /* \"#utility.yul\":1827:1929   */\n      swap2\n      swap1\n      pop\n      jump\t// out\n        /* \"#utility.yul\":1935:2312   */\n    tag_22:\n        /* \"#utility.yul\":2023:2026   */\n      0x00\n        /* \"#utility.yul\":2051:2090   */\n      tag_48\n        /* \"#utility.yul\":2084:2089   */\n      dup3\n        /* \"#utility.yul\":2051:2090   */\n      tag_18\n      jump\t// in\n    tag_48:\n        /* \"#utility.yul\":2106:2177   */\n      tag_49\n        /* \"#utility.yul\":2170:2176   */\n      dup2\n        /* \"#utility.yul\":2165:2168   */\n      dup6\n        /* \"#utility.yul\":2106:2177   */\n      tag_19\n      jump\t// in\n    tag_49:\n        /* \"#utility.yul\":2099:2177   */\n      swap4\n      pop\n        /* \"#utility.yul\":2186:2251   */\n      tag_50\n        /* \"#utility.yul\":2244:2250   */\n      dup2\n        /* \"#utility.yul\":2239:2242   */\n      dup6\n        /* \"#utility.yul\":2232:2236   */\n      0x20\n        /* \"#utility.yul\":2225:2230   */\n      dup7\n        /* \"#utility.yul\":2221:2237   */\n      add\n        /* \"#utility.yul\":2186:2251   */\n      tag_20\n      jump\t// in\n    tag_50:\n        /* \"#utility.yul\":2276:2305   */\n      tag_51\n        /* \"#utility.yul\":2298:2304   */\n      dup2\n        /* \"#utility.yul\":2276:2305   */\n      tag_21\n      jump\t// in\n    tag_51:\n        /* \"#utility.yul\":2271:2274   */\n      dup5\n        /* \"#utility.yul\":2267:2306   */\n      add\n        /* \"#utility.yul\":2260:2306   */\n      swap2\n      pop\n        /* \"#utility.yul\":2027:2312   */\n      pop\n        /* \"#utility.yul\":1935:2312   */\n      swap3\n      swap2\n      pop\n      pop\n      jump\t// out\n        /* \"#utility.yul\":2318:2737   */\n    tag_9:\n        /* \"#utility.yul\":2457:2461   */\n      0x00\n        /* \"#utility.yul\":2495:2497   */\n      0x40\n        /* \"#utility.yul\":2484:2493   */\n      dup3\n        /* \"#utility.yul\":2480:2498   */\n      add\n        /* \"#utility.yul\":2472:2498   */\n      swap1\n      pop\n        /* \"#utility.yul\":2508:2577   */\n      tag_53\n        /* \"#utility.yul\":2574:2575   */\n      0x00\n        /* \"#utility.yul\":2563:2572   */\n      dup4\n        /* \"#utility.yul\":2559:2576   */\n      add\n        /* \"#utility.yul\":2550:2556   */\n      dup6\n        /* \"#utility.yul\":2508:2577   */\n      tag_17\n      jump\t// in\n    tag_53:\n        /* \"#utility.yul\":2624:2633   */\n      dup2\n        /* \"#utility.yul\":2618:2622   */\n      dup2\n        /* \"#utility.yul\":2614:2634   */\n      sub\n        /* \"#utility.yul\":2609:2611   */\n      0x20\n        /* \"#utility.yul\":2598:2607   */\n      dup4\n        /* \"#utility.yul\":2594:2612   */\n      add\n        /* \"#utility.yul\":2587:2635   */\n      mstore\n        /* \"#utility.yul\":2652:2730   */\n      tag_54\n        /* \"#utility.yul\":2725:2729   */\n      dup2\n        /* \"#utility.yul\":2716:2722   */\n      dup5\n        /* \"#utility.yul\":2652:2730   */\n      tag_22\n      jump\t// in\n    tag_54:\n        /* \"#utility.yul\":2644:2730   */\n      swap1\n      pop\n        /* \"#utility.yul\":2318:2737   */\n      swap4\n      swap3\n      pop\n      pop\n      pop\n      jump\t// out\n\n    auxdata: 0xa264697066735822122083d1ae1110fa83c7126a15d8eb23c916ba010e15d1986c4026d647bed41e31de64736f6c63430008110033\n}\n",
				"bytecode": {
					"linkReferences": {},
					"object": "608060405234801561001057600080fd5b50610232806100206000396000f3fe608060405234801561001057600080fd5b506004361061002b5760003560e01c8063fb2ee6cc14610030575b600080fd5b61004a600480360381019061004591906100ed565b610061565b6040516100589291906101cc565b60405180910390f35b6000606060006005905060006040518060400160405280600481526020017f7373737300000000000000000000000000000000000000000000000000000000815250905050509250929050565b600080fd5b600061ffff82169050919050565b6100ca816100b3565b81146100d557600080fd5b50565b6000813590506100e7816100c1565b92915050565b60008060408385031215610104576101036100ae565b5b6000610112858286016100d8565b9250506020610123858286016100d8565b9150509250929050565b610136816100b3565b82525050565b600081519050919050565b600082825260208201905092915050565b60005b8381101561017657808201518184015260208101905061015b565b60008484015250505050565b6000601f19601f8301169050919050565b600061019e8261013c565b6101a88185610147565b93506101b8818560208601610158565b6101c181610182565b840191505092915050565b60006040820190506101e1600083018561012d565b81810360208301526101f38184610193565b9050939250505056fea264697066735822122083d1ae1110fa83c7126a15d8eb23c916ba010e15d1986c4026d647bed41e31de64736f6c63430008110033",
					"opcodes": "PUSH1 0x80 PUSH1 0x40 MSTORE CALLVALUE DUP1 ISZERO PUSH2 0x10 JUMPI PUSH1 0x0 DUP1 REVERT JUMPDEST POP PUSH2 0x232 DUP1 PUSH2 0x20 PUSH1 0x0 CODECOPY PUSH1 0x0 RETURN INVALID PUSH1 0x80 PUSH1 0x40 MSTORE CALLVALUE DUP1 ISZERO PUSH2 0x10 JUMPI PUSH1 0x0 DUP1 REVERT JUMPDEST POP PUSH1 0x4 CALLDATASIZE LT PUSH2 0x2B JUMPI PUSH1 0x0 CALLDATALOAD PUSH1 0xE0 SHR DUP1 PUSH4 0xFB2EE6CC EQ PUSH2 0x30 JUMPI JUMPDEST PUSH1 0x0 DUP1 REVERT JUMPDEST PUSH2 0x4A PUSH1 0x4 DUP1 CALLDATASIZE SUB DUP2 ADD SWAP1 PUSH2 0x45 SWAP2 SWAP1 PUSH2 0xED JUMP JUMPDEST PUSH2 0x61 JUMP JUMPDEST PUSH1 0x40 MLOAD PUSH2 0x58 SWAP3 SWAP2 SWAP1 PUSH2 0x1CC JUMP JUMPDEST PUSH1 0x40 MLOAD DUP1 SWAP2 SUB SWAP1 RETURN JUMPDEST PUSH1 0x0 PUSH1 0x60 PUSH1 0x0 PUSH1 0x5 SWAP1 POP PUSH1 0x0 PUSH1 0x40 MLOAD DUP1 PUSH1 0x40 ADD PUSH1 0x40 MSTORE DUP1 PUSH1 0x4 DUP2 MSTORE PUSH1 0x20 ADD PUSH32 0x7373737300000000000000000000000000000000000000000000000000000000 DUP2 MSTORE POP SWAP1 POP POP POP SWAP3 POP SWAP3 SWAP1 POP JUMP JUMPDEST PUSH1 0x0 DUP1 REVERT JUMPDEST PUSH1 0x0 PUSH2 0xFFFF DUP3 AND SWAP1 POP SWAP2 SWAP1 POP JUMP JUMPDEST PUSH2 0xCA DUP2 PUSH2 0xB3 JUMP JUMPDEST DUP2 EQ PUSH2 0xD5 JUMPI PUSH1 0x0 DUP1 REVERT JUMPDEST POP JUMP JUMPDEST PUSH1 0x0 DUP2 CALLDATALOAD SWAP1 POP PUSH2 0xE7 DUP2 PUSH2 0xC1 JUMP JUMPDEST SWAP3 SWAP2 POP POP JUMP JUMPDEST PUSH1 0x0 DUP1 PUSH1 0x40 DUP4 DUP6 SUB SLT ISZERO PUSH2 0x104 JUMPI PUSH2 0x103 PUSH2 0xAE JUMP JUMPDEST JUMPDEST PUSH1 0x0 PUSH2 0x112 DUP6 DUP3 DUP7 ADD PUSH2 0xD8 JUMP JUMPDEST SWAP3 POP POP PUSH1 0x20 PUSH2 0x123 DUP6 DUP3 DUP7 ADD PUSH2 0xD8 JUMP JUMPDEST SWAP2 POP POP SWAP3 POP SWAP3 SWAP1 POP JUMP JUMPDEST PUSH2 0x136 DUP2 PUSH2 0xB3 JUMP JUMPDEST DUP3 MSTORE POP POP JUMP JUMPDEST PUSH1 0x0 DUP2 MLOAD SWAP1 POP SWAP2 SWAP1 POP JUMP JUMPDEST PUSH1 0x0 DUP3 DUP3 MSTORE PUSH1 0x20 DUP3 ADD SWAP1 POP SWAP3 SWAP2 POP POP JUMP JUMPDEST PUSH1 0x0 JUMPDEST DUP4 DUP2 LT ISZERO PUSH2 0x176 JUMPI DUP1 DUP3 ADD MLOAD DUP2 DUP5 ADD MSTORE PUSH1 0x20 DUP2 ADD SWAP1 POP PUSH2 0x15B JUMP JUMPDEST PUSH1 0x0 DUP5 DUP5 ADD MSTORE POP POP POP POP JUMP JUMPDEST PUSH1 0x0 PUSH1 0x1F NOT PUSH1 0x1F DUP4 ADD AND SWAP1 POP SWAP2 SWAP1 POP JUMP JUMPDEST PUSH1 0x0 PUSH2 0x19E DUP3 PUSH2 0x13C JUMP JUMPDEST PUSH2 0x1A8 DUP2 DUP6 PUSH2 0x147 JUMP JUMPDEST SWAP4 POP PUSH2 0x1B8 DUP2 DUP6 PUSH1 0x20 DUP7 ADD PUSH2 0x158 JUMP JUMPDEST PUSH2 0x1C1 DUP2 PUSH2 0x182 JUMP JUMPDEST DUP5 ADD SWAP2 POP POP SWAP3 SWAP2 POP POP JUMP JUMPDEST PUSH1 0x0 PUSH1 0x40 DUP3 ADD SWAP1 POP PUSH2 0x1E1 PUSH1 0x0 DUP4 ADD DUP6 PUSH2 0x12D JUMP JUMPDEST DUP2 DUP2 SUB PUSH1 0x20 DUP4 ADD MSTORE PUSH2 0x1F3 DUP2 DUP5 PUSH2 0x193 JUMP JUMPDEST SWAP1 POP SWAP4 SWAP3 POP POP POP JUMP INVALID LOG2 PUSH5 0x6970667358 0x22 SLT KECCAK256 DUP4 0xD1 0xAE GT LT STATICCALL DUP4 0xC7 SLT PUSH11 0x15D8EB23C916BA010E15D1 SWAP9 PUSH13 0x4026D647BED41E31DE64736F6C PUSH4 0x43000811 STOP CALLER "
				},
				"gasEstimates": {
					"creation": {
						"codeDepositCost": "112400",
						"executionCost": "159",
						"totalCost": "112559"
					},
					"external": {
						"b(uint16,uint16)": "infinite"
					}
				},
				"methodIdentifiers": {
					"b(uint16,uint16)": "fb2ee6cc"
				}
			},
			"storageLayout": {
				"storage": [],
				"types": null
			},
			"userdoc": {
				"kind": "user",
				"methods": {},
				"version": 1
			}
		}
	}
}