{
	"TestCall.sol": {
		"TestCall": {
			"abi": [
				{
					"anonymous": false,
					"inputs": [
						{
							"indexed": false,
							"internalType": "string",
							"name": "message",
							"type": "string"
						}
					],
					"name": "Log",
					"type": "event"
				},
				{
					"stateMutability": "payable",
					"type": "fallback"
				},
				{
					"inputs": [
						{
							"internalType": "string",
							"name": "_message",
							"type": "string"
						},
						{
							"internalType": "uint256",
							"name": "_x",
							"type": "uint256"
						}
					],
					"name": "foo",
					"outputs": [
						{
							"internalType": "bool",
							"name": "",
							"type": "bool"
						},
						{
							"internalType": "uint256",
							"name": "",
							"type": "uint256"
						}
					],
					"stateMutability": "payable",
					"type": "function"
				},
				{
					"inputs": [],
					"name": "message",
					"outputs": [
						{
							"internalType": "string",
							"name": "",
							"type": "string"
						}
					],
					"stateMutability": "view",
					"type": "function"
				},
				{
					"inputs": [],
					"name": "x",
					"outputs": [
						{
							"internalType": "uint256",
							"name": "",
							"type": "uint256"
						}
					],
					"stateMutability": "view",
					"type": "function"
				}
			],
			"devdoc": {
				"kind": "dev",
				"methods": {},
				"version": 1
			},
			"evm": {
				"assembly": "    /* \"TestCall.sol\":61:426  contract TestCall {... */\n  mstore(0x40, 0x80)\n  callvalue\n  dup1\n  iszero\n  tag_1\n  jumpi\n  0x00\n  dup1\n  revert\ntag_1:\n  pop\n  dataSize(sub_0)\n  dup1\n  dataOffset(sub_0)\n  0x00\n  codecopy\n  0x00\n  return\nstop\n\nsub_0: assembly {\n        /* \"TestCall.sol\":61:426  contract TestCall {... */\n      mstore(0x40, 0x80)\n      jumpi(tag_1, lt(calldatasize, 0x04))\n      shr(0xe0, calldataload(0x00))\n      dup1\n      0x0c55699c\n      eq\n      tag_3\n      jumpi\n      dup1\n      0x24ccab8f\n      eq\n      tag_4\n      jumpi\n      dup1\n      0xe21f37ce\n      eq\n      tag_5\n      jumpi\n      jump(tag_2)\n    tag_1:\n    tag_2:\n        /* \"TestCall.sol\":214:240  Log(\"fallback was called\") */\n      0xcf34ef537ac33ee1ac626ca1587a0a7e8e51561e5514f8cb36afa1c5102b3bab\n      mload(0x40)\n      tag_8\n      swap1\n      tag_9\n      jump\t// in\n    tag_8:\n      mload(0x40)\n      dup1\n      swap2\n      sub\n      swap1\n      log1\n        /* \"TestCall.sol\":61:426  contract TestCall {... */\n      stop\n        /* \"TestCall.sol\":114:127  uint public x */\n    tag_3:\n      callvalue\n      dup1\n      iszero\n      tag_10\n      jumpi\n      0x00\n      dup1\n      revert\n    tag_10:\n      pop\n      tag_11\n      tag_12\n      jump\t// in\n    tag_11:\n      mload(0x40)\n      tag_13\n      swap2\n      swap1\n      tag_14\n      jump\t// in\n    tag_13:\n      mload(0x40)\n      dup1\n      swap2\n      sub\n      swap1\n      return\n        /* \"TestCall.sol\":256:423  function foo(string memory _message, uint _x) external payable returns (bool, uint) {... */\n    tag_4:\n      tag_15\n      0x04\n      dup1\n      calldatasize\n      sub\n      dup2\n      add\n      swap1\n      tag_16\n      swap2\n      swap1\n      tag_17\n      jump\t// in\n    tag_16:\n      tag_18\n      jump\t// in\n    tag_15:\n      mload(0x40)\n      tag_19\n      swap3\n      swap2\n      swap1\n      tag_20\n      jump\t// in\n    tag_19:\n      mload(0x40)\n      dup1\n      swap2\n      sub\n      swap1\n      return\n        /* \"TestCall.sol\":86:107  string public message */\n    tag_5:\n      callvalue\n      dup1\n      iszero\n      tag_21\n      jumpi\n      0x00\n      dup1\n      revert\n    tag_21:\n      pop\n      tag_22\n      tag_23\n      jump\t// in\n    tag_22:\n      mload(0x40)\n      tag_24\n      swap2\n      swap1\n      tag_25\n      jump\t// in\n    tag_24:\n      mload(0x40)\n      dup1\n      swap2\n      sub\n      swap1\n      return\n        /* \"TestCall.sol\":114:127  uint public x */\n    tag_12:\n      sload(0x01)\n      dup2\n      jump\t// out\n        /* \"TestCall.sol\":256:423  function foo(string memory _message, uint _x) external payable returns (bool, uint) {... */\n    tag_18:\n        /* \"TestCall.sol\":328:332  bool */\n      0x00\n        /* \"TestCall.sol\":334:338  uint */\n      dup1\n        /* \"TestCall.sol\":361:369  _message */\n      dup4\n        /* \"TestCall.sol\":351:358  message */\n      0x00\n        /* \"TestCall.sol\":351:369  message = _message */\n      swap1\n      dup2\n      tag_27\n      swap2\n      swap1\n      tag_28\n      jump\t// in\n    tag_27:\n      pop\n        /* \"TestCall.sol\":384:386  _x */\n      dup3\n        /* \"TestCall.sol\":380:381  x */\n      0x01\n        /* \"TestCall.sol\":380:386  x = _x */\n      dup2\n      swap1\n      sstore\n      pop\n        /* \"TestCall.sol\":405:409  true */\n      0x01\n        /* \"TestCall.sol\":411:414  999 */\n      0x03e7\n        /* \"TestCall.sol\":397:415  return (true, 999) */\n      swap2\n      pop\n      swap2\n      pop\n        /* \"TestCall.sol\":256:423  function foo(string memory _message, uint _x) external payable returns (bool, uint) {... */\n      swap3\n      pop\n      swap3\n      swap1\n      pop\n      jump\t// out\n        /* \"TestCall.sol\":86:107  string public message */\n    tag_23:\n      0x00\n      dup1\n      sload\n      tag_29\n      swap1\n      tag_30\n      jump\t// in\n    tag_29:\n      dup1\n      0x1f\n      add\n      0x20\n      dup1\n      swap2\n      div\n      mul\n      0x20\n      add\n      mload(0x40)\n      swap1\n      dup2\n      add\n      0x40\n      mstore\n      dup1\n      swap3\n      swap2\n      swap1\n      dup2\n      dup2\n      mstore\n      0x20\n      add\n      dup3\n      dup1\n      sload\n      tag_31\n      swap1\n      tag_30\n      jump\t// in\n    tag_31:\n      dup1\n      iszero\n      tag_32\n      jumpi\n      dup1\n      0x1f\n      lt\n      tag_33\n      jumpi\n      0x0100\n      dup1\n      dup4\n      sload\n      div\n      mul\n      dup4\n      mstore\n      swap2\n      0x20\n      add\n      swap2\n      jump(tag_32)\n    tag_33:\n      dup3\n      add\n      swap2\n      swap1\n      0x00\n      mstore\n      keccak256(0x00, 0x20)\n      swap1\n    tag_34:\n      dup2\n      sload\n      dup2\n      mstore\n      swap1\n      0x01\n      add\n      swap1\n      0x20\n      add\n      dup1\n      dup4\n      gt\n      tag_34\n      jumpi\n      dup3\n      swap1\n      sub\n      0x1f\n      and\n      dup3\n      add\n      swap2\n    tag_32:\n      pop\n      pop\n      pop\n      pop\n      pop\n      dup2\n      jump\t// out\n        /* \"#utility.yul\":7:176   */\n    tag_35:\n        /* \"#utility.yul\":91:102   */\n      0x00\n        /* \"#utility.yul\":125:131   */\n      dup3\n        /* \"#utility.yul\":120:123   */\n      dup3\n        /* \"#utility.yul\":113:132   */\n      mstore\n        /* \"#utility.yul\":165:169   */\n      0x20\n        /* \"#utility.yul\":160:163   */\n      dup3\n        /* \"#utility.yul\":156:170   */\n      add\n        /* \"#utility.yul\":141:170   */\n      swap1\n      pop\n        /* \"#utility.yul\":7:176   */\n      swap3\n      swap2\n      pop\n      pop\n      jump\t// out\n        /* \"#utility.yul\":182:351   */\n    tag_36:\n        /* \"#utility.yul\":322:343   */\n      0x66616c6c6261636b207761732063616c6c656400000000000000000000000000\n        /* \"#utility.yul\":318:319   */\n      0x00\n        /* \"#utility.yul\":310:316   */\n      dup3\n        /* \"#utility.yul\":306:320   */\n      add\n        /* \"#utility.yul\":299:344   */\n      mstore\n        /* \"#utility.yul\":182:351   */\n      pop\n      jump\t// out\n        /* \"#utility.yul\":357:723   */\n    tag_37:\n        /* \"#utility.yul\":499:502   */\n      0x00\n        /* \"#utility.yul\":520:587   */\n      tag_80\n        /* \"#utility.yul\":584:586   */\n      0x13\n        /* \"#utility.yul\":579:582   */\n      dup4\n        /* \"#utility.yul\":520:587   */\n      tag_35\n      jump\t// in\n    tag_80:\n        /* \"#utility.yul\":513:587   */\n      swap2\n      pop\n        /* \"#utility.yul\":596:689   */\n      tag_81\n        /* \"#utility.yul\":685:688   */\n      dup3\n        /* \"#utility.yul\":596:689   */\n      tag_36\n      jump\t// in\n    tag_81:\n        /* \"#utility.yul\":714:716   */\n      0x20\n        /* \"#utility.yul\":709:712   */\n      dup3\n        /* \"#utility.yul\":705:717   */\n      add\n        /* \"#utility.yul\":698:717   */\n      swap1\n      pop\n        /* \"#utility.yul\":357:723   */\n      swap2\n      swap1\n      pop\n      jump\t// out\n        /* \"#utility.yul\":729:1148   */\n    tag_9:\n        /* \"#utility.yul\":895:899   */\n      0x00\n        /* \"#utility.yul\":933:935   */\n      0x20\n        /* \"#utility.yul\":922:931   */\n      dup3\n        /* \"#utility.yul\":918:936   */\n      add\n        /* \"#utility.yul\":910:936   */\n      swap1\n      pop\n        /* \"#utility.yul\":982:991   */\n      dup2\n        /* \"#utility.yul\":976:980   */\n      dup2\n        /* \"#utility.yul\":972:992   */\n      sub\n        /* \"#utility.yul\":968:969   */\n      0x00\n        /* \"#utility.yul\":957:966   */\n      dup4\n        /* \"#utility.yul\":953:970   */\n      add\n        /* \"#utility.yul\":946:993   */\n      mstore\n        /* \"#utility.yul\":1010:1141   */\n      tag_83\n        /* \"#utility.yul\":1136:1140   */\n      dup2\n        /* \"#utility.yul\":1010:1141   */\n      tag_37\n      jump\t// in\n    tag_83:\n        /* \"#utility.yul\":1002:1141   */\n      swap1\n      pop\n        /* \"#utility.yul\":729:1148   */\n      swap2\n      swap1\n      pop\n      jump\t// out\n        /* \"#utility.yul\":1154:1231   */\n    tag_38:\n        /* \"#utility.yul\":1191:1198   */\n      0x00\n        /* \"#utility.yul\":1220:1225   */\n      dup2\n        /* \"#utility.yul\":1209:1225   */\n      swap1\n      pop\n        /* \"#utility.yul\":1154:1231   */\n      swap2\n      swap1\n      pop\n      jump\t// out\n        /* \"#utility.yul\":1237:1355   */\n    tag_39:\n        /* \"#utility.yul\":1324:1348   */\n      tag_86\n        /* \"#utility.yul\":1342:1347   */\n      dup2\n        /* \"#utility.yul\":1324:1348   */\n      tag_38\n      jump\t// in\n    tag_86:\n        /* \"#utility.yul\":1319:1322   */\n      dup3\n        /* \"#utility.yul\":1312:1349   */\n      mstore\n        /* \"#utility.yul\":1237:1355   */\n      pop\n      pop\n      jump\t// out\n        /* \"#utility.yul\":1361:1583   */\n    tag_14:\n        /* \"#utility.yul\":1454:1458   */\n      0x00\n        /* \"#utility.yul\":1492:1494   */\n      0x20\n        /* \"#utility.yul\":1481:1490   */\n      dup3\n        /* \"#utility.yul\":1477:1495   */\n      add\n        /* \"#utility.yul\":1469:1495   */\n      swap1\n      pop\n        /* \"#utility.yul\":1505:1576   */\n      tag_88\n        /* \"#utility.yul\":1573:1574   */\n      0x00\n        /* \"#utility.yul\":1562:1571   */\n      dup4\n        /* \"#utility.yul\":1558:1575   */\n      add\n        /* \"#utility.yul\":1549:1555   */\n      dup5\n        /* \"#utility.yul\":1505:1576   */\n      tag_39\n      jump\t// in\n    tag_88:\n        /* \"#utility.yul\":1361:1583   */\n      swap3\n      swap2\n      pop\n      pop\n      jump\t// out\n        /* \"#utility.yul\":1589:1664   */\n    tag_40:\n        /* \"#utility.yul\":1622:1628   */\n      0x00\n        /* \"#utility.yul\":1655:1657   */\n      0x40\n        /* \"#utility.yul\":1649:1658   */\n      mload\n        /* \"#utility.yul\":1639:1658   */\n      swap1\n      pop\n        /* \"#utility.yul\":1589:1664   */\n      swap1\n      jump\t// out\n        /* \"#utility.yul\":1670:1787   */\n    tag_41:\n        /* \"#utility.yul\":1779:1780   */\n      0x00\n        /* \"#utility.yul\":1776:1777   */\n      dup1\n        /* \"#utility.yul\":1769:1781   */\n      revert\n        /* \"#utility.yul\":1793:1910   */\n    tag_42:\n        /* \"#utility.yul\":1902:1903   */\n      0x00\n        /* \"#utility.yul\":1899:1900   */\n      dup1\n        /* \"#utility.yul\":1892:1904   */\n      revert\n        /* \"#utility.yul\":1916:2033   */\n    tag_43:\n        /* \"#utility.yul\":2025:2026   */\n      0x00\n        /* \"#utility.yul\":2022:2023   */\n      dup1\n        /* \"#utility.yul\":2015:2027   */\n      revert\n        /* \"#utility.yul\":2039:2156   */\n    tag_44:\n        /* \"#utility.yul\":2148:2149   */\n      0x00\n        /* \"#utility.yul\":2145:2146   */\n      dup1\n        /* \"#utility.yul\":2138:2150   */\n      revert\n        /* \"#utility.yul\":2162:2264   */\n    tag_45:\n        /* \"#utility.yul\":2203:2209   */\n      0x00\n        /* \"#utility.yul\":2254:2256   */\n      0x1f\n        /* \"#utility.yul\":2250:2257   */\n      not\n        /* \"#utility.yul\":2245:2247   */\n      0x1f\n        /* \"#utility.yul\":2238:2243   */\n      dup4\n        /* \"#utility.yul\":2234:2248   */\n      add\n        /* \"#utility.yul\":2230:2258   */\n      and\n        /* \"#utility.yul\":2220:2258   */\n      swap1\n      pop\n        /* \"#utility.yul\":2162:2264   */\n      swap2\n      swap1\n      pop\n      jump\t// out\n        /* \"#utility.yul\":2270:2450   */\n    tag_46:\n        /* \"#utility.yul\":2318:2395   */\n      0x4e487b7100000000000000000000000000000000000000000000000000000000\n        /* \"#utility.yul\":2315:2316   */\n      0x00\n        /* \"#utility.yul\":2308:2396   */\n      mstore\n        /* \"#utility.yul\":2415:2419   */\n      0x41\n        /* \"#utility.yul\":2412:2413   */\n      0x04\n        /* \"#utility.yul\":2405:2420   */\n      mstore\n        /* \"#utility.yul\":2439:2443   */\n      0x24\n        /* \"#utility.yul\":2436:2437   */\n      0x00\n        /* \"#utility.yul\":2429:2444   */\n      revert\n        /* \"#utility.yul\":2456:2737   */\n    tag_47:\n        /* \"#utility.yul\":2539:2566   */\n      tag_97\n        /* \"#utility.yul\":2561:2565   */\n      dup3\n        /* \"#utility.yul\":2539:2566   */\n      tag_45\n      jump\t// in\n    tag_97:\n        /* \"#utility.yul\":2531:2537   */\n      dup2\n        /* \"#utility.yul\":2527:2567   */\n      add\n        /* \"#utility.yul\":2669:2675   */\n      dup2\n        /* \"#utility.yul\":2657:2667   */\n      dup2\n        /* \"#utility.yul\":2654:2676   */\n      lt\n        /* \"#utility.yul\":2633:2651   */\n      0xffffffffffffffff\n        /* \"#utility.yul\":2621:2631   */\n      dup3\n        /* \"#utility.yul\":2618:2652   */\n      gt\n        /* \"#utility.yul\":2615:2677   */\n      or\n        /* \"#utility.yul\":2612:2700   */\n      iszero\n      tag_98\n      jumpi\n        /* \"#utility.yul\":2680:2698   */\n      tag_99\n      tag_46\n      jump\t// in\n    tag_99:\n        /* \"#utility.yul\":2612:2700   */\n    tag_98:\n        /* \"#utility.yul\":2720:2730   */\n      dup1\n        /* \"#utility.yul\":2716:2718   */\n      0x40\n        /* \"#utility.yul\":2709:2731   */\n      mstore\n        /* \"#utility.yul\":2499:2737   */\n      pop\n        /* \"#utility.yul\":2456:2737   */\n      pop\n      pop\n      jump\t// out\n        /* \"#utility.yul\":2743:2872   */\n    tag_48:\n        /* \"#utility.yul\":2777:2783   */\n      0x00\n        /* \"#utility.yul\":2804:2824   */\n      tag_101\n      tag_40\n      jump\t// in\n    tag_101:\n        /* \"#utility.yul\":2794:2824   */\n      swap1\n      pop\n        /* \"#utility.yul\":2833:2866   */\n      tag_102\n        /* \"#utility.yul\":2861:2865   */\n      dup3\n        /* \"#utility.yul\":2853:2859   */\n      dup3\n        /* \"#utility.yul\":2833:2866   */\n      tag_47\n      jump\t// in\n    tag_102:\n        /* \"#utility.yul\":2743:2872   */\n      swap2\n      swap1\n      pop\n      jump\t// out\n        /* \"#utility.yul\":2878:3186   */\n    tag_49:\n        /* \"#utility.yul\":2940:2944   */\n      0x00\n        /* \"#utility.yul\":3030:3048   */\n      0xffffffffffffffff\n        /* \"#utility.yul\":3022:3028   */\n      dup3\n        /* \"#utility.yul\":3019:3049   */\n      gt\n        /* \"#utility.yul\":3016:3072   */\n      iszero\n      tag_104\n      jumpi\n        /* \"#utility.yul\":3052:3070   */\n      tag_105\n      tag_46\n      jump\t// in\n    tag_105:\n        /* \"#utility.yul\":3016:3072   */\n    tag_104:\n        /* \"#utility.yul\":3090:3119   */\n      tag_106\n        /* \"#utility.yul\":3112:3118   */\n      dup3\n        /* \"#utility.yul\":3090:3119   */\n      tag_45\n      jump\t// in\n    tag_106:\n        /* \"#utility.yul\":3082:3119   */\n      swap1\n      pop\n        /* \"#utility.yul\":3174:3178   */\n      0x20\n        /* \"#utility.yul\":3168:3172   */\n      dup2\n        /* \"#utility.yul\":3164:3179   */\n      add\n        /* \"#utility.yul\":3156:3179   */\n      swap1\n      pop\n        /* \"#utility.yul\":2878:3186   */\n      swap2\n      swap1\n      pop\n      jump\t// out\n        /* \"#utility.yul\":3192:3338   */\n    tag_50:\n        /* \"#utility.yul\":3289:3295   */\n      dup3\n        /* \"#utility.yul\":3284:3287   */\n      dup2\n        /* \"#utility.yul\":3279:3282   */\n      dup4\n        /* \"#utility.yul\":3266:3296   */\n      calldatacopy\n        /* \"#utility.yul\":3330:3331   */\n      0x00\n        /* \"#utility.yul\":3321:3327   */\n      dup4\n        /* \"#utility.yul\":3316:3319   */\n      dup4\n        /* \"#utility.yul\":3312:3328   */\n      add\n        /* \"#utility.yul\":3305:3332   */\n      mstore\n        /* \"#utility.yul\":3192:3338   */\n      pop\n      pop\n      pop\n      jump\t// out\n        /* \"#utility.yul\":3344:3769   */\n    tag_51:\n        /* \"#utility.yul\":3422:3427   */\n      0x00\n        /* \"#utility.yul\":3447:3513   */\n      tag_109\n        /* \"#utility.yul\":3463:3512   */\n      tag_110\n        /* \"#utility.yul\":3505:3511   */\n      dup5\n        /* \"#utility.yul\":3463:3512   */\n      tag_49\n      jump\t// in\n    tag_110:\n        /* \"#utility.yul\":3447:3513   */\n      tag_48\n      jump\t// in\n    tag_109:\n        /* \"#utility.yul\":3438:3513   */\n      swap1\n      pop\n        /* \"#utility.yul\":3536:3542   */\n      dup3\n        /* \"#utility.yul\":3529:3534   */\n      dup2\n        /* \"#utility.yul\":3522:3543   */\n      mstore\n        /* \"#utility.yul\":3574:3578   */\n      0x20\n        /* \"#utility.yul\":3567:3572   */\n      dup2\n        /* \"#utility.yul\":3563:3579   */\n      add\n        /* \"#utility.yul\":3612:3615   */\n      dup5\n        /* \"#utility.yul\":3603:3609   */\n      dup5\n        /* \"#utility.yul\":3598:3601   */\n      dup5\n        /* \"#utility.yul\":3594:3610   */\n      add\n        /* \"#utility.yul\":3591:3616   */\n      gt\n        /* \"#utility.yul\":3588:3700   */\n      iszero\n      tag_111\n      jumpi\n        /* \"#utility.yul\":3619:3698   */\n      tag_112\n      tag_44\n      jump\t// in\n    tag_112:\n        /* \"#utility.yul\":3588:3700   */\n    tag_111:\n        /* \"#utility.yul\":3709:3763   */\n      tag_113\n        /* \"#utility.yul\":3756:3762   */\n      dup5\n        /* \"#utility.yul\":3751:3754   */\n      dup3\n        /* \"#utility.yul\":3746:3749   */\n      dup6\n        /* \"#utility.yul\":3709:3763   */\n      tag_50\n      jump\t// in\n    tag_113:\n        /* \"#utility.yul\":3428:3769   */\n      pop\n        /* \"#utility.yul\":3344:3769   */\n      swap4\n      swap3\n      pop\n      pop\n      pop\n      jump\t// out\n        /* \"#utility.yul\":3789:4129   */\n    tag_52:\n        /* \"#utility.yul\":3845:3850   */\n      0x00\n        /* \"#utility.yul\":3894:3897   */\n      dup3\n        /* \"#utility.yul\":3887:3891   */\n      0x1f\n        /* \"#utility.yul\":3879:3885   */\n      dup4\n        /* \"#utility.yul\":3875:3892   */\n      add\n        /* \"#utility.yul\":3871:3898   */\n      slt\n        /* \"#utility.yul\":3861:3983   */\n      tag_115\n      jumpi\n        /* \"#utility.yul\":3902:3981   */\n      tag_116\n      tag_43\n      jump\t// in\n    tag_116:\n        /* \"#utility.yul\":3861:3983   */\n    tag_115:\n        /* \"#utility.yul\":4019:4025   */\n      dup2\n        /* \"#utility.yul\":4006:4026   */\n      calldataload\n        /* \"#utility.yul\":4044:4123   */\n      tag_117\n        /* \"#utility.yul\":4119:4122   */\n      dup5\n        /* \"#utility.yul\":4111:4117   */\n      dup3\n        /* \"#utility.yul\":4104:4108   */\n      0x20\n        /* \"#utility.yul\":4096:4102   */\n      dup7\n        /* \"#utility.yul\":4092:4109   */\n      add\n        /* \"#utility.yul\":4044:4123   */\n      tag_51\n      jump\t// in\n    tag_117:\n        /* \"#utility.yul\":4035:4123   */\n      swap2\n      pop\n        /* \"#utility.yul\":3851:4129   */\n      pop\n        /* \"#utility.yul\":3789:4129   */\n      swap3\n      swap2\n      pop\n      pop\n      jump\t// out\n        /* \"#utility.yul\":4135:4257   */\n    tag_53:\n        /* \"#utility.yul\":4208:4232   */\n      tag_119\n        /* \"#utility.yul\":4226:4231   */\n      dup2\n        /* \"#utility.yul\":4208:4232   */\n      tag_38\n      jump\t// in\n    tag_119:\n        /* \"#utility.yul\":4201:4206   */\n      dup2\n        /* \"#utility.yul\":4198:4233   */\n      eq\n        /* \"#utility.yul\":4188:4251   */\n      tag_120\n      jumpi\n        /* \"#utility.yul\":4247:4248   */\n      0x00\n        /* \"#utility.yul\":4244:4245   */\n      dup1\n        /* \"#utility.yul\":4237:4249   */\n      revert\n        /* \"#utility.yul\":4188:4251   */\n    tag_120:\n        /* \"#utility.yul\":4135:4257   */\n      pop\n      jump\t// out\n        /* \"#utility.yul\":4263:4402   */\n    tag_54:\n        /* \"#utility.yul\":4309:4314   */\n      0x00\n        /* \"#utility.yul\":4347:4353   */\n      dup2\n        /* \"#utility.yul\":4334:4354   */\n      calldataload\n        /* \"#utility.yul\":4325:4354   */\n      swap1\n      pop\n        /* \"#utility.yul\":4363:4396   */\n      tag_122\n        /* \"#utility.yul\":4390:4395   */\n      dup2\n        /* \"#utility.yul\":4363:4396   */\n      tag_53\n      jump\t// in\n    tag_122:\n        /* \"#utility.yul\":4263:4402   */\n      swap3\n      swap2\n      pop\n      pop\n      jump\t// out\n        /* \"#utility.yul\":4408:5062   */\n    tag_17:\n        /* \"#utility.yul\":4486:4492   */\n      0x00\n        /* \"#utility.yul\":4494:4500   */\n      dup1\n        /* \"#utility.yul\":4543:4545   */\n      0x40\n        /* \"#utility.yul\":4531:4540   */\n      dup4\n        /* \"#utility.yul\":4522:4529   */\n      dup6\n        /* \"#utility.yul\":4518:4541   */\n      sub\n        /* \"#utility.yul\":4514:4546   */\n      slt\n        /* \"#utility.yul\":4511:4630   */\n      iszero\n      tag_124\n      jumpi\n        /* \"#utility.yul\":4549:4628   */\n      tag_125\n      tag_41\n      jump\t// in\n    tag_125:\n        /* \"#utility.yul\":4511:4630   */\n    tag_124:\n        /* \"#utility.yul\":4697:4698   */\n      0x00\n        /* \"#utility.yul\":4686:4695   */\n      dup4\n        /* \"#utility.yul\":4682:4699   */\n      add\n        /* \"#utility.yul\":4669:4700   */\n      calldataload\n        /* \"#utility.yul\":4727:4745   */\n      0xffffffffffffffff\n        /* \"#utility.yul\":4719:4725   */\n      dup2\n        /* \"#utility.yul\":4716:4746   */\n      gt\n        /* \"#utility.yul\":4713:4830   */\n      iszero\n      tag_126\n      jumpi\n        /* \"#utility.yul\":4749:4828   */\n      tag_127\n      tag_42\n      jump\t// in\n    tag_127:\n        /* \"#utility.yul\":4713:4830   */\n    tag_126:\n        /* \"#utility.yul\":4854:4917   */\n      tag_128\n        /* \"#utility.yul\":4909:4916   */\n      dup6\n        /* \"#utility.yul\":4900:4906   */\n      dup3\n        /* \"#utility.yul\":4889:4898   */\n      dup7\n        /* \"#utility.yul\":4885:4907   */\n      add\n        /* \"#utility.yul\":4854:4917   */\n      tag_52\n      jump\t// in\n    tag_128:\n        /* \"#utility.yul\":4844:4917   */\n      swap3\n      pop\n        /* \"#utility.yul\":4640:4927   */\n      pop\n        /* \"#utility.yul\":4966:4968   */\n      0x20\n        /* \"#utility.yul\":4992:5045   */\n      tag_129\n        /* \"#utility.yul\":5037:5044   */\n      dup6\n        /* \"#utility.yul\":5028:5034   */\n      dup3\n        /* \"#utility.yul\":5017:5026   */\n      dup7\n        /* \"#utility.yul\":5013:5035   */\n      add\n        /* \"#utility.yul\":4992:5045   */\n      tag_54\n      jump\t// in\n    tag_129:\n        /* \"#utility.yul\":4982:5045   */\n      swap2\n      pop\n        /* \"#utility.yul\":4937:5055   */\n      pop\n        /* \"#utility.yul\":4408:5062   */\n      swap3\n      pop\n      swap3\n      swap1\n      pop\n      jump\t// out\n        /* \"#utility.yul\":5068:5158   */\n    tag_55:\n        /* \"#utility.yul\":5102:5109   */\n      0x00\n        /* \"#utility.yul\":5145:5150   */\n      dup2\n        /* \"#utility.yul\":5138:5151   */\n      iszero\n        /* \"#utility.yul\":5131:5152   */\n      iszero\n        /* \"#utility.yul\":5120:5152   */\n      swap1\n      pop\n        /* \"#utility.yul\":5068:5158   */\n      swap2\n      swap1\n      pop\n      jump\t// out\n        /* \"#utility.yul\":5164:5273   */\n    tag_56:\n        /* \"#utility.yul\":5245:5266   */\n      tag_132\n        /* \"#utility.yul\":5260:5265   */\n      dup2\n        /* \"#utility.yul\":5245:5266   */\n      tag_55\n      jump\t// in\n    tag_132:\n        /* \"#utility.yul\":5240:5243   */\n      dup3\n        /* \"#utility.yul\":5233:5267   */\n      mstore\n        /* \"#utility.yul\":5164:5273   */\n      pop\n      pop\n      jump\t// out\n        /* \"#utility.yul\":5279:5599   */\n    tag_20:\n        /* \"#utility.yul\":5394:5398   */\n      0x00\n        /* \"#utility.yul\":5432:5434   */\n      0x40\n        /* \"#utility.yul\":5421:5430   */\n      dup3\n        /* \"#utility.yul\":5417:5435   */\n      add\n        /* \"#utility.yul\":5409:5435   */\n      swap1\n      pop\n        /* \"#utility.yul\":5445:5510   */\n      tag_134\n        /* \"#utility.yul\":5507:5508   */\n      0x00\n        /* \"#utility.yul\":5496:5505   */\n      dup4\n        /* \"#utility.yul\":5492:5509   */\n      add\n        /* \"#utility.yul\":5483:5489   */\n      dup6\n        /* \"#utility.yul\":5445:5510   */\n      tag_56\n      jump\t// in\n    tag_134:\n        /* \"#utility.yul\":5520:5592   */\n      tag_135\n        /* \"#utility.yul\":5588:5590   */\n      0x20\n        /* \"#utility.yul\":5577:5586   */\n      dup4\n        /* \"#utility.yul\":5573:5591   */\n      add\n        /* \"#utility.yul\":5564:5570   */\n      dup5\n        /* \"#utility.yul\":5520:5592   */\n      tag_39\n      jump\t// in\n    tag_135:\n        /* \"#utility.yul\":5279:5599   */\n      swap4\n      swap3\n      pop\n      pop\n      pop\n      jump\t// out\n        /* \"#utility.yul\":5605:5704   */\n    tag_57:\n        /* \"#utility.yul\":5657:5663   */\n      0x00\n        /* \"#utility.yul\":5691:5696   */\n      dup2\n        /* \"#utility.yul\":5685:5697   */\n      mload\n        /* \"#utility.yul\":5675:5697   */\n      swap1\n      pop\n        /* \"#utility.yul\":5605:5704   */\n      swap2\n      swap1\n      pop\n      jump\t// out\n        /* \"#utility.yul\":5710:5956   */\n    tag_58:\n        /* \"#utility.yul\":5791:5792   */\n      0x00\n        /* \"#utility.yul\":5801:5914   */\n    tag_138:\n        /* \"#utility.yul\":5815:5821   */\n      dup4\n        /* \"#utility.yul\":5812:5813   */\n      dup2\n        /* \"#utility.yul\":5809:5822   */\n      lt\n        /* \"#utility.yul\":5801:5914   */\n      iszero\n      tag_140\n      jumpi\n        /* \"#utility.yul\":5900:5901   */\n      dup1\n        /* \"#utility.yul\":5895:5898   */\n      dup3\n        /* \"#utility.yul\":5891:5902   */\n      add\n        /* \"#utility.yul\":5885:5903   */\n      mload\n        /* \"#utility.yul\":5881:5882   */\n      dup2\n        /* \"#utility.yul\":5876:5879   */\n      dup5\n        /* \"#utility.yul\":5872:5883   */\n      add\n        /* \"#utility.yul\":5865:5904   */\n      mstore\n        /* \"#utility.yul\":5837:5839   */\n      0x20\n        /* \"#utility.yul\":5834:5835   */\n      dup2\n        /* \"#utility.yul\":5830:5840   */\n      add\n        /* \"#utility.yul\":5825:5840   */\n      swap1\n      pop\n        /* \"#utility.yul\":5801:5914   */\n      jump(tag_138)\n    tag_140:\n        /* \"#utility.yul\":5948:5949   */\n      0x00\n        /* \"#utility.yul\":5939:5945   */\n      dup5\n        /* \"#utility.yul\":5934:5937   */\n      dup5\n        /* \"#utility.yul\":5930:5946   */\n      add\n        /* \"#utility.yul\":5923:5950   */\n      mstore\n        /* \"#utility.yul\":5772:5956   */\n      pop\n        /* \"#utility.yul\":5710:5956   */\n      pop\n      pop\n      pop\n      jump\t// out\n        /* \"#utility.yul\":5962:6339   */\n    tag_59:\n        /* \"#utility.yul\":6050:6053   */\n      0x00\n        /* \"#utility.yul\":6078:6117   */\n      tag_142\n        /* \"#utility.yul\":6111:6116   */\n      dup3\n        /* \"#utility.yul\":6078:6117   */\n      tag_57\n      jump\t// in\n    tag_142:\n        /* \"#utility.yul\":6133:6204   */\n      tag_143\n        /* \"#utility.yul\":6197:6203   */\n      dup2\n        /* \"#utility.yul\":6192:6195   */\n      dup6\n        /* \"#utility.yul\":6133:6204   */\n      tag_35\n      jump\t// in\n    tag_143:\n        /* \"#utility.yul\":6126:6204   */\n      swap4\n      pop\n        /* \"#utility.yul\":6213:6278   */\n      tag_144\n        /* \"#utility.yul\":6271:6277   */\n      dup2\n        /* \"#utility.yul\":6266:6269   */\n      dup6\n        /* \"#utility.yul\":6259:6263   */\n      0x20\n        /* \"#utility.yul\":6252:6257   */\n      dup7\n        /* \"#utility.yul\":6248:6264   */\n      add\n        /* \"#utility.yul\":6213:6278   */\n      tag_58\n      jump\t// in\n    tag_144:\n        /* \"#utility.yul\":6303:6332   */\n      tag_145\n        /* \"#utility.yul\":6325:6331   */\n      dup2\n        /* \"#utility.yul\":6303:6332   */\n      tag_45\n      jump\t// in\n    tag_145:\n        /* \"#utility.yul\":6298:6301   */\n      dup5\n        /* \"#utility.yul\":6294:6333   */\n      add\n        /* \"#utility.yul\":6287:6333   */\n      swap2\n      pop\n        /* \"#utility.yul\":6054:6339   */\n      pop\n        /* \"#utility.yul\":5962:6339   */\n      swap3\n      swap2\n      pop\n      pop\n      jump\t// out\n        /* \"#utility.yul\":6345:6658   */\n    tag_25:\n        /* \"#utility.yul\":6458:6462   */\n      0x00\n        /* \"#utility.yul\":6496:6498   */\n      0x20\n        /* \"#utility.yul\":6485:6494   */\n      dup3\n        /* \"#utility.yul\":6481:6499   */\n      add\n        /* \"#utility.yul\":6473:6499   */\n      swap1\n      pop\n        /* \"#utility.yul\":6545:6554   */\n      dup2\n        /* \"#utility.yul\":6539:6543   */\n      dup2\n        /* \"#utility.yul\":6535:6555   */\n      sub\n        /* \"#utility.yul\":6531:6532   */\n      0x00\n        /* \"#utility.yul\":6520:6529   */\n      dup4\n        /* \"#utility.yul\":6516:6533   */\n      add\n        /* \"#utility.yul\":6509:6556   */\n      mstore\n        /* \"#utility.yul\":6573:6651   */\n      tag_147\n        /* \"#utility.yul\":6646:6650   */\n      dup2\n        /* \"#utility.yul\":6637:6643   */\n      dup5\n        /* \"#utility.yul\":6573:6651   */\n      tag_59\n      jump\t// in\n    tag_147:\n        /* \"#utility.yul\":6565:6651   */\n      swap1\n      pop\n        /* \"#utility.yul\":6345:6658   */\n      swap3\n      swap2\n      pop\n      pop\n      jump\t// out\n        /* \"#utility.yul\":6664:6844   */\n    tag_60:\n        /* \"#utility.yul\":6712:6789   */\n      0x4e487b7100000000000000000000000000000000000000000000000000000000\n        /* \"#utility.yul\":6709:6710   */\n      0x00\n        /* \"#utility.yul\":6702:6790   */\n      mstore\n        /* \"#utility.yul\":6809:6813   */\n      0x22\n        /* \"#utility.yul\":6806:6807   */\n      0x04\n        /* \"#utility.yul\":6799:6814   */\n      mstore\n        /* \"#utility.yul\":6833:6837   */\n      0x24\n        /* \"#utility.yul\":6830:6831   */\n      0x00\n        /* \"#utility.yul\":6823:6838   */\n      revert\n        /* \"#utility.yul\":6850:7170   */\n    tag_30:\n        /* \"#utility.yul\":6894:6900   */\n      0x00\n        /* \"#utility.yul\":6931:6932   */\n      0x02\n        /* \"#utility.yul\":6925:6929   */\n      dup3\n        /* \"#utility.yul\":6921:6933   */\n      div\n        /* \"#utility.yul\":6911:6933   */\n      swap1\n      pop\n        /* \"#utility.yul\":6978:6979   */\n      0x01\n        /* \"#utility.yul\":6972:6976   */\n      dup3\n        /* \"#utility.yul\":6968:6980   */\n      and\n        /* \"#utility.yul\":6999:7017   */\n      dup1\n        /* \"#utility.yul\":6989:7070   */\n      tag_150\n      jumpi\n        /* \"#utility.yul\":7055:7059   */\n      0x7f\n        /* \"#utility.yul\":7047:7053   */\n      dup3\n        /* \"#utility.yul\":7043:7060   */\n      and\n        /* \"#utility.yul\":7033:7060   */\n      swap2\n      pop\n        /* \"#utility.yul\":6989:7070   */\n    tag_150:\n        /* \"#utility.yul\":7117:7119   */\n      0x20\n        /* \"#utility.yul\":7109:7115   */\n      dup3\n        /* \"#utility.yul\":7106:7120   */\n      lt\n        /* \"#utility.yul\":7086:7104   */\n      dup2\n        /* \"#utility.yul\":7083:7121   */\n      sub\n        /* \"#utility.yul\":7080:7164   */\n      tag_151\n      jumpi\n        /* \"#utility.yul\":7136:7154   */\n      tag_152\n      tag_60\n      jump\t// in\n    tag_152:\n        /* \"#utility.yul\":7080:7164   */\n    tag_151:\n        /* \"#utility.yul\":6901:7170   */\n      pop\n        /* \"#utility.yul\":6850:7170   */\n      swap2\n      swap1\n      pop\n      jump\t// out\n        /* \"#utility.yul\":7176:7317   */\n    tag_61:\n        /* \"#utility.yul\":7225:7229   */\n      0x00\n        /* \"#utility.yul\":7248:7251   */\n      dup2\n        /* \"#utility.yul\":7240:7251   */\n      swap1\n      pop\n        /* \"#utility.yul\":7271:7274   */\n      dup2\n        /* \"#utility.yul\":7268:7269   */\n      0x00\n        /* \"#utility.yul\":7261:7275   */\n      mstore\n        /* \"#utility.yul\":7305:7309   */\n      0x20\n        /* \"#utility.yul\":7302:7303   */\n      0x00\n        /* \"#utility.yul\":7292:7310   */\n      keccak256\n        /* \"#utility.yul\":7284:7310   */\n      swap1\n      pop\n        /* \"#utility.yul\":7176:7317   */\n      swap2\n      swap1\n      pop\n      jump\t// out\n        /* \"#utility.yul\":7323:7416   */\n    tag_62:\n        /* \"#utility.yul\":7360:7366   */\n      0x00\n        /* \"#utility.yul\":7407:7409   */\n      0x20\n        /* \"#utility.yul\":7402:7404   */\n      0x1f\n        /* \"#utility.yul\":7395:7400   */\n      dup4\n        /* \"#utility.yul\":7391:7405   */\n      add\n        /* \"#utility.yul\":7387:7410   */\n      div\n        /* \"#utility.yul\":7377:7410   */\n      swap1\n      pop\n        /* \"#utility.yul\":7323:7416   */\n      swap2\n      swap1\n      pop\n      jump\t// out\n        /* \"#utility.yul\":7422:7529   */\n    tag_63:\n        /* \"#utility.yul\":7466:7474   */\n      0x00\n        /* \"#utility.yul\":7516:7521   */\n      dup3\n        /* \"#utility.yul\":7510:7514   */\n      dup3\n        /* \"#utility.yul\":7506:7522   */\n      shl\n        /* \"#utility.yul\":7485:7522   */\n      swap1\n      pop\n        /* \"#utility.yul\":7422:7529   */\n      swap3\n      swap2\n      pop\n      pop\n      jump\t// out\n        /* \"#utility.yul\":7535:7928   */\n    tag_64:\n        /* \"#utility.yul\":7604:7610   */\n      0x00\n        /* \"#utility.yul\":7654:7655   */\n      0x08\n        /* \"#utility.yul\":7642:7652   */\n      dup4\n        /* \"#utility.yul\":7638:7656   */\n      mul\n        /* \"#utility.yul\":7677:7774   */\n      tag_157\n        /* \"#utility.yul\":7707:7773   */\n      0xffffffffffffffffffffffffffffffffffffffffffffffffffffffffffffffff\n        /* \"#utility.yul\":7696:7705   */\n      dup3\n        /* \"#utility.yul\":7677:7774   */\n      tag_63\n      jump\t// in\n    tag_157:\n        /* \"#utility.yul\":7795:7834   */\n      tag_158\n        /* \"#utility.yul\":7825:7833   */\n      dup7\n        /* \"#utility.yul\":7814:7823   */\n      dup4\n        /* \"#utility.yul\":7795:7834   */\n      tag_63\n      jump\t// in\n    tag_158:\n        /* \"#utility.yul\":7783:7834   */\n      swap6\n      pop\n        /* \"#utility.yul\":7867:7871   */\n      dup1\n        /* \"#utility.yul\":7863:7872   */\n      not\n        /* \"#utility.yul\":7856:7861   */\n      dup5\n        /* \"#utility.yul\":7852:7873   */\n      and\n        /* \"#utility.yul\":7843:7873   */\n      swap4\n      pop\n        /* \"#utility.yul\":7916:7920   */\n      dup1\n        /* \"#utility.yul\":7906:7914   */\n      dup7\n        /* \"#utility.yul\":7902:7921   */\n      and\n        /* \"#utility.yul\":7895:7900   */\n      dup5\n        /* \"#utility.yul\":7892:7922   */\n      or\n        /* \"#utility.yul\":7882:7922   */\n      swap3\n      pop\n        /* \"#utility.yul\":7611:7928   */\n      pop\n      pop\n        /* \"#utility.yul\":7535:7928   */\n      swap4\n      swap3\n      pop\n      pop\n      pop\n      jump\t// out\n        /* \"#utility.yul\":7934:7994   */\n    tag_65:\n        /* \"#utility.yul\":7962:7965   */\n      0x00\n        /* \"#utility.yul\":7983:7988   */\n      dup2\n        /* \"#utility.yul\":7976:7988   */\n      swap1\n      pop\n        /* \"#utility.yul\":7934:7994   */\n      swap2\n      swap1\n      pop\n      jump\t// out\n        /* \"#utility.yul\":8000:8142   */\n    tag_66:\n        /* \"#utility.yul\":8050:8059   */\n      0x00\n        /* \"#utility.yul\":8083:8136   */\n      tag_161\n        /* \"#utility.yul\":8101:8135   */\n      tag_162\n        /* \"#utility.yul\":8110:8134   */\n      tag_163\n        /* \"#utility.yul\":8128:8133   */\n      dup5\n        /* \"#utility.yul\":8110:8134   */\n      tag_38\n      jump\t// in\n    tag_163:\n        /* \"#utility.yul\":8101:8135   */\n      tag_65\n      jump\t// in\n    tag_162:\n        /* \"#utility.yul\":8083:8136   */\n      tag_38\n      jump\t// in\n    tag_161:\n        /* \"#utility.yul\":8070:8136   */\n      swap1\n      pop\n        /* \"#utility.yul\":8000:8142   */\n      swap2\n      swap1\n      pop\n      jump\t// out\n        /* \"#utility.yul\":8148:8223   */\n    tag_67:\n        /* \"#utility.yul\":8191:8194   */\n      0x00\n        /* \"#utility.yul\":8212:8217   */\n      dup2\n        /* \"#utility.yul\":8205:8217   */\n      swap1\n      pop\n        /* \"#utility.yul\":8148:8223   */\n      swap2\n      swap1\n      pop\n      jump\t// out\n        /* \"#utility.yul\":8229:8498   */\n    tag_68:\n        /* \"#utility.yul\":8339:8378   */\n      tag_166\n        /* \"#utility.yul\":8370:8377   */\n      dup4\n        /* \"#utility.yul\":8339:8378   */\n      tag_66\n      jump\t// in\n    tag_166:\n        /* \"#utility.yul\":8400:8491   */\n      tag_167\n        /* \"#utility.yul\":8449:8490   */\n      tag_168\n        /* \"#utility.yul\":8473:8489   */\n      dup3\n        /* \"#utility.yul\":8449:8490   */\n      tag_67\n      jump\t// in\n    tag_168:\n        /* \"#utility.yul\":8441:8447   */\n      dup5\n        /* \"#utility.yul\":8434:8438   */\n      dup5\n        /* \"#utility.yul\":8428:8439   */\n      sload\n        /* \"#utility.yul\":8400:8491   */\n      tag_64\n      jump\t// in\n    tag_167:\n        /* \"#utility.yul\":8394:8398   */\n      dup3\n        /* \"#utility.yul\":8387:8492   */\n      sstore\n        /* \"#utility.yul\":8305:8498   */\n      pop\n        /* \"#utility.yul\":8229:8498   */\n      pop\n      pop\n      pop\n      jump\t// out\n        /* \"#utility.yul\":8504:8577   */\n    tag_69:\n        /* \"#utility.yul\":8549:8552   */\n      0x00\n        /* \"#utility.yul\":8504:8577   */\n      swap1\n      jump\t// out\n        /* \"#utility.yul\":8583:8772   */\n    tag_70:\n        /* \"#utility.yul\":8660:8692   */\n      tag_171\n      tag_69\n      jump\t// in\n    tag_171:\n        /* \"#utility.yul\":8701:8766   */\n      tag_172\n        /* \"#utility.yul\":8759:8765   */\n      dup2\n        /* \"#utility.yul\":8751:8757   */\n      dup5\n        /* \"#utility.yul\":8745:8749   */\n      dup5\n        /* \"#utility.yul\":8701:8766   */\n      tag_68\n      jump\t// in\n    tag_172:\n        /* \"#utility.yul\":8636:8772   */\n      pop\n        /* \"#utility.yul\":8583:8772   */\n      pop\n      pop\n      jump\t// out\n        /* \"#utility.yul\":8778:8964   */\n    tag_71:\n        /* \"#utility.yul\":8838:8958   */\n    tag_174:\n        /* \"#utility.yul\":8855:8858   */\n      dup2\n        /* \"#utility.yul\":8848:8853   */\n      dup2\n        /* \"#utility.yul\":8845:8859   */\n      lt\n        /* \"#utility.yul\":8838:8958   */\n      iszero\n      tag_176\n      jumpi\n        /* \"#utility.yul\":8909:8948   */\n      tag_177\n        /* \"#utility.yul\":8946:8947   */\n      0x00\n        /* \"#utility.yul\":8939:8944   */\n      dup3\n        /* \"#utility.yul\":8909:8948   */\n      tag_70\n      jump\t// in\n    tag_177:\n        /* \"#utility.yul\":8882:8883   */\n      0x01\n        /* \"#utility.yul\":8875:8880   */\n      dup2\n        /* \"#utility.yul\":8871:8884   */\n      add\n        /* \"#utility.yul\":8862:8884   */\n      swap1\n      pop\n        /* \"#utility.yul\":8838:8958   */\n      jump(tag_174)\n    tag_176:\n        /* \"#utility.yul\":8778:8964   */\n      pop\n      pop\n      jump\t// out\n        /* \"#utility.yul\":8970:9513   */\n    tag_72:\n        /* \"#utility.yul\":9071:9073   */\n      0x1f\n        /* \"#utility.yul\":9066:9069   */\n      dup3\n        /* \"#utility.yul\":9063:9074   */\n      gt\n        /* \"#utility.yul\":9060:9506   */\n      iszero\n      tag_179\n      jumpi\n        /* \"#utility.yul\":9105:9143   */\n      tag_180\n        /* \"#utility.yul\":9137:9142   */\n      dup2\n        /* \"#utility.yul\":9105:9143   */\n      tag_61\n      jump\t// in\n    tag_180:\n        /* \"#utility.yul\":9189:9218   */\n      tag_181\n        /* \"#utility.yul\":9207:9217   */\n      dup5\n        /* \"#utility.yul\":9189:9218   */\n      tag_62\n      jump\t// in\n    tag_181:\n        /* \"#utility.yul\":9179:9187   */\n      dup2\n        /* \"#utility.yul\":9175:9219   */\n      add\n        /* \"#utility.yul\":9372:9374   */\n      0x20\n        /* \"#utility.yul\":9360:9370   */\n      dup6\n        /* \"#utility.yul\":9357:9375   */\n      lt\n        /* \"#utility.yul\":9354:9403   */\n      iszero\n      tag_182\n      jumpi\n        /* \"#utility.yul\":9393:9401   */\n      dup2\n        /* \"#utility.yul\":9378:9401   */\n      swap1\n      pop\n        /* \"#utility.yul\":9354:9403   */\n    tag_182:\n        /* \"#utility.yul\":9416:9496   */\n      tag_183\n        /* \"#utility.yul\":9472:9494   */\n      tag_184\n        /* \"#utility.yul\":9490:9493   */\n      dup6\n        /* \"#utility.yul\":9472:9494   */\n      tag_62\n      jump\t// in\n    tag_184:\n        /* \"#utility.yul\":9462:9470   */\n      dup4\n        /* \"#utility.yul\":9458:9495   */\n      add\n        /* \"#utility.yul\":9445:9456   */\n      dup3\n        /* \"#utility.yul\":9416:9496   */\n      tag_71\n      jump\t// in\n    tag_183:\n        /* \"#utility.yul\":9075:9506   */\n      pop\n      pop\n        /* \"#utility.yul\":9060:9506   */\n    tag_179:\n        /* \"#utility.yul\":8970:9513   */\n      pop\n      pop\n      pop\n      jump\t// out\n        /* \"#utility.yul\":9519:9636   */\n    tag_73:\n        /* \"#utility.yul\":9573:9581   */\n      0x00\n        /* \"#utility.yul\":9623:9628   */\n      dup3\n        /* \"#utility.yul\":9617:9621   */\n      dup3\n        /* \"#utility.yul\":9613:9629   */\n      shr\n        /* \"#utility.yul\":9592:9629   */\n      swap1\n      pop\n        /* \"#utility.yul\":9519:9636   */\n      swap3\n      swap2\n      pop\n      pop\n      jump\t// out\n        /* \"#utility.yul\":9642:9811   */\n    tag_74:\n        /* \"#utility.yul\":9686:9692   */\n      0x00\n        /* \"#utility.yul\":9719:9770   */\n      tag_187\n        /* \"#utility.yul\":9767:9768   */\n      0x00\n        /* \"#utility.yul\":9763:9769   */\n      not\n        /* \"#utility.yul\":9755:9760   */\n      dup5\n        /* \"#utility.yul\":9752:9753   */\n      0x08\n        /* \"#utility.yul\":9748:9761   */\n      mul\n        /* \"#utility.yul\":9719:9770   */\n      tag_73\n      jump\t// in\n    tag_187:\n        /* \"#utility.yul\":9715:9771   */\n      not\n        /* \"#utility.yul\":9800:9804   */\n      dup1\n        /* \"#utility.yul\":9794:9798   */\n      dup4\n        /* \"#utility.yul\":9790:9805   */\n      and\n        /* \"#utility.yul\":9780:9805   */\n      swap2\n      pop\n        /* \"#utility.yul\":9693:9811   */\n      pop\n        /* \"#utility.yul\":9642:9811   */\n      swap3\n      swap2\n      pop\n      pop\n      jump\t// out\n        /* \"#utility.yul\":9816:10111   */\n    tag_75:\n        /* \"#utility.yul\":9892:9896   */\n      0x00\n        /* \"#utility.yul\":10038:10067   */\n      tag_189\n        /* \"#utility.yul\":10063:10066   */\n      dup4\n        /* \"#utility.yul\":10057:10061   */\n      dup4\n        /* \"#utility.yul\":10038:10067   */\n      tag_74\n      jump\t// in\n    tag_189:\n        /* \"#utility.yul\":10030:10067   */\n      swap2\n      pop\n        /* \"#utility.yul\":10100:10103   */\n      dup3\n        /* \"#utility.yul\":10097:10098   */\n      0x02\n        /* \"#utility.yul\":10093:10104   */\n      mul\n        /* \"#utility.yul\":10087:10091   */\n      dup3\n        /* \"#utility.yul\":10084:10105   */\n      or\n        /* \"#utility.yul\":10076:10105   */\n      swap1\n      pop\n        /* \"#utility.yul\":9816:10111   */\n      swap3\n      swap2\n      pop\n      pop\n      jump\t// out\n        /* \"#utility.yul\":10116:11511   */\n    tag_28:\n        /* \"#utility.yul\":10233:10270   */\n      tag_191\n        /* \"#utility.yul\":10266:10269   */\n      dup3\n        /* \"#utility.yul\":10233:10270   */\n      tag_57\n      jump\t// in\n    tag_191:\n        /* \"#utility.yul\":10335:10353   */\n      0xffffffffffffffff\n        /* \"#utility.yul\":10327:10333   */\n      dup2\n        /* \"#utility.yul\":10324:10354   */\n      gt\n        /* \"#utility.yul\":10321:10377   */\n      iszero\n      tag_192\n      jumpi\n        /* \"#utility.yul\":10357:10375   */\n      tag_193\n      tag_46\n      jump\t// in\n    tag_193:\n        /* \"#utility.yul\":10321:10377   */\n    tag_192:\n        /* \"#utility.yul\":10401:10439   */\n      tag_194\n        /* \"#utility.yul\":10433:10437   */\n      dup3\n        /* \"#utility.yul\":10427:10438   */\n      sload\n        /* \"#utility.yul\":10401:10439   */\n      tag_30\n      jump\t// in\n    tag_194:\n        /* \"#utility.yul\":10486:10553   */\n      tag_195\n        /* \"#utility.yul\":10546:10552   */\n      dup3\n        /* \"#utility.yul\":10538:10544   */\n      dup3\n        /* \"#utility.yul\":10532:10536   */\n      dup6\n        /* \"#utility.yul\":10486:10553   */\n      tag_72\n      jump\t// in\n    tag_195:\n        /* \"#utility.yul\":10580:10581   */\n      0x00\n        /* \"#utility.yul\":10604:10608   */\n      0x20\n        /* \"#utility.yul\":10591:10608   */\n      swap1\n      pop\n        /* \"#utility.yul\":10636:10638   */\n      0x1f\n        /* \"#utility.yul\":10628:10634   */\n      dup4\n        /* \"#utility.yul\":10625:10639   */\n      gt\n        /* \"#utility.yul\":10653:10654   */\n      0x01\n        /* \"#utility.yul\":10648:11266   */\n      dup2\n      eq\n      tag_197\n      jumpi\n        /* \"#utility.yul\":11310:11311   */\n      0x00\n        /* \"#utility.yul\":11327:11333   */\n      dup5\n        /* \"#utility.yul\":11324:11401   */\n      iszero\n      tag_198\n      jumpi\n        /* \"#utility.yul\":11376:11385   */\n      dup3\n        /* \"#utility.yul\":11371:11374   */\n      dup8\n        /* \"#utility.yul\":11367:11386   */\n      add\n        /* \"#utility.yul\":11361:11387   */\n      mload\n        /* \"#utility.yul\":11352:11387   */\n      swap1\n      pop\n        /* \"#utility.yul\":11324:11401   */\n    tag_198:\n        /* \"#utility.yul\":11427:11494   */\n      tag_199\n        /* \"#utility.yul\":11487:11493   */\n      dup6\n        /* \"#utility.yul\":11480:11485   */\n      dup3\n        /* \"#utility.yul\":11427:11494   */\n      tag_75\n      jump\t// in\n    tag_199:\n        /* \"#utility.yul\":11421:11425   */\n      dup7\n        /* \"#utility.yul\":11414:11495   */\n      sstore\n        /* \"#utility.yul\":11283:11505   */\n      pop\n        /* \"#utility.yul\":10618:11505   */\n      jump(tag_196)\n        /* \"#utility.yul\":10648:11266   */\n    tag_197:\n        /* \"#utility.yul\":10700:10704   */\n      0x1f\n        /* \"#utility.yul\":10696:10705   */\n      not\n        /* \"#utility.yul\":10688:10694   */\n      dup5\n        /* \"#utility.yul\":10684:10706   */\n      and\n        /* \"#utility.yul\":10734:10771   */\n      tag_200\n        /* \"#utility.yul\":10766:10770   */\n      dup7\n        /* \"#utility.yul\":10734:10771   */\n      tag_61\n      jump\t// in\n    tag_200:\n        /* \"#utility.yul\":10793:10794   */\n      0x00\n        /* \"#utility.yul\":10807:11015   */\n    tag_201:\n        /* \"#utility.yul\":10821:10828   */\n      dup3\n        /* \"#utility.yul\":10818:10819   */\n      dup2\n        /* \"#utility.yul\":10815:10829   */\n      lt\n        /* \"#utility.yul\":10807:11015   */\n      iszero\n      tag_203\n      jumpi\n        /* \"#utility.yul\":10900:10909   */\n      dup5\n        /* \"#utility.yul\":10895:10898   */\n      dup10\n        /* \"#utility.yul\":10891:10910   */\n      add\n        /* \"#utility.yul\":10885:10911   */\n      mload\n        /* \"#utility.yul\":10877:10883   */\n      dup3\n        /* \"#utility.yul\":10870:10912   */\n      sstore\n        /* \"#utility.yul\":10951:10952   */\n      0x01\n        /* \"#utility.yul\":10943:10949   */\n      dup3\n        /* \"#utility.yul\":10939:10953   */\n      add\n        /* \"#utility.yul\":10929:10953   */\n      swap2\n      pop\n        /* \"#utility.yul\":10998:11000   */\n      0x20\n        /* \"#utility.yul\":10987:10996   */\n      dup6\n        /* \"#utility.yul\":10983:11001   */\n      add\n        /* \"#utility.yul\":10970:11001   */\n      swap5\n      pop\n        /* \"#utility.yul\":10844:10848   */\n      0x20\n        /* \"#utility.yul\":10841:10842   */\n      dup2\n        /* \"#utility.yul\":10837:10849   */\n      add\n        /* \"#utility.yul\":10832:10849   */\n      swap1\n      pop\n        /* \"#utility.yul\":10807:11015   */\n      jump(tag_201)\n    tag_203:\n        /* \"#utility.yul\":11043:11049   */\n      dup7\n        /* \"#utility.yul\":11034:11041   */\n      dup4\n        /* \"#utility.yul\":11031:11050   */\n      lt\n        /* \"#utility.yul\":11028:11207   */\n      iszero\n      tag_204\n      jumpi\n        /* \"#utility.yul\":11101:11110   */\n      dup5\n        /* \"#utility.yul\":11096:11099   */\n      dup10\n        /* \"#utility.yul\":11092:11111   */\n      add\n        /* \"#utility.yul\":11086:11112   */\n      mload\n        /* \"#utility.yul\":11144:11192   */\n      tag_205\n        /* \"#utility.yul\":11186:11190   */\n      0x1f\n        /* \"#utility.yul\":11178:11184   */\n      dup10\n        /* \"#utility.yul\":11174:11191   */\n      and\n        /* \"#utility.yul\":11163:11172   */\n      dup3\n        /* \"#utility.yul\":11144:11192   */\n      tag_74\n      jump\t// in\n    tag_205:\n        /* \"#utility.yul\":11136:11142   */\n      dup4\n        /* \"#utility.yul\":11129:11193   */\n      sstore\n        /* \"#utility.yul\":11051:11207   */\n      pop\n        /* \"#utility.yul\":11028:11207   */\n    tag_204:\n        /* \"#utility.yul\":11253:11254   */\n      0x01\n        /* \"#utility.yul\":11249:11250   */\n      0x02\n        /* \"#utility.yul\":11241:11247   */\n      dup9\n        /* \"#utility.yul\":11237:11251   */\n      mul\n        /* \"#utility.yul\":11233:11255   */\n      add\n        /* \"#utility.yul\":11227:11231   */\n      dup9\n        /* \"#utility.yul\":11220:11256   */\n      sstore\n        /* \"#utility.yul\":10655:11266   */\n      pop\n      pop\n      pop\n        /* \"#utility.yul\":10618:11505   */\n    tag_196:\n      pop\n        /* \"#utility.yul\":10208:11511   */\n      pop\n      pop\n      pop\n        /* \"#utility.yul\":10116:11511   */\n      pop\n      pop\n      jump\t// out\n\n    auxdata: 0xa2646970667358221220077006f6e035db08f9d0091c7e089dd33906d1340eb925f6f6afb06088b0932964736f6c63430008110033\n}\n",
				"bytecode": {
					"linkReferences": {},
					"object": "608060405234801561001057600080fd5b50610830806100206000396000f3fe6080604052600436106100385760003560e01c80630c55699c1461007057806324ccab8f1461009b578063e21f37ce146100cc57610039565b5b7fcf34ef537ac33ee1ac626ca1587a0a7e8e51561e5514f8cb36afa1c5102b3bab60405161006690610212565b60405180910390a1005b34801561007c57600080fd5b506100856100f7565b604051610092919061024b565b60405180910390f35b6100b560048036038101906100b091906103ec565b6100fd565b6040516100c3929190610463565b60405180910390f35b3480156100d857600080fd5b506100e1610127565b6040516100ee91906104fa565b60405180910390f35b60015481565b600080836000908161010f9190610728565b508260018190555060016103e7915091509250929050565b600080546101349061054b565b80601f01602080910402602001604051908101604052809291908181526020018280546101609061054b565b80156101ad5780601f10610182576101008083540402835291602001916101ad565b820191906000526020600020905b81548152906001019060200180831161019057829003601f168201915b505050505081565b600082825260208201905092915050565b7f66616c6c6261636b207761732063616c6c656400000000000000000000000000600082015250565b60006101fc6013836101b5565b9150610207826101c6565b602082019050919050565b6000602082019050818103600083015261022b816101ef565b9050919050565b6000819050919050565b61024581610232565b82525050565b6000602082019050610260600083018461023c565b92915050565b6000604051905090565b600080fd5b600080fd5b600080fd5b600080fd5b6000601f19601f8301169050919050565b7f4e487b7100000000000000000000000000000000000000000000000000000000600052604160045260246000fd5b6102cd82610284565b810181811067ffffffffffffffff821117156102ec576102eb610295565b5b80604052505050565b60006102ff610266565b905061030b82826102c4565b919050565b600067ffffffffffffffff82111561032b5761032a610295565b5b61033482610284565b9050602081019050919050565b82818337600083830152505050565b600061036361035e84610310565b6102f5565b90508281526020810184848401111561037f5761037e61027f565b5b61038a848285610341565b509392505050565b600082601f8301126103a7576103a661027a565b5b81356103b7848260208601610350565b91505092915050565b6103c981610232565b81146103d457600080fd5b50565b6000813590506103e6816103c0565b92915050565b6000806040838503121561040357610402610270565b5b600083013567ffffffffffffffff81111561042157610420610275565b5b61042d85828601610392565b925050602061043e858286016103d7565b9150509250929050565b60008115159050919050565b61045d81610448565b82525050565b60006040820190506104786000830185610454565b610485602083018461023c565b9392505050565b600081519050919050565b60005b838110156104b557808201518184015260208101905061049a565b60008484015250505050565b60006104cc8261048c565b6104d681856101b5565b93506104e6818560208601610497565b6104ef81610284565b840191505092915050565b6000602082019050818103600083015261051481846104c1565b905092915050565b7f4e487b7100000000000000000000000000000000000000000000000000000000600052602260045260246000fd5b6000600282049050600182168061056357607f821691505b6020821081036105765761057561051c565b5b50919050565b60008190508160005260206000209050919050565b60006020601f8301049050919050565b600082821b905092915050565b6000600883026105de7fffffffffffffffffffffffffffffffffffffffffffffffffffffffffffffffff826105a1565b6105e886836105a1565b95508019841693508086168417925050509392505050565b6000819050919050565b600061062561062061061b84610232565b610600565b610232565b9050919050565b6000819050919050565b61063f8361060a565b61065361064b8261062c565b8484546105ae565b825550505050565b600090565b61066861065b565b610673818484610636565b505050565b5b818110156106975761068c600082610660565b600181019050610679565b5050565b601f8211156106dc576106ad8161057c565b6106b684610591565b810160208510156106c5578190505b6106d96106d185610591565b830182610678565b50505b505050565b600082821c905092915050565b60006106ff600019846008026106e1565b1980831691505092915050565b600061071883836106ee565b9150826002028217905092915050565b6107318261048c565b67ffffffffffffffff81111561074a57610749610295565b5b610754825461054b565b61075f82828561069b565b600060209050601f8311600181146107925760008415610780578287015190505b61078a858261070c565b8655506107f2565b601f1984166107a08661057c565b60005b828110156107c8578489015182556001820191506020850194506020810190506107a3565b868310156107e557848901516107e1601f8916826106ee565b8355505b6001600288020188555050505b50505050505056fea2646970667358221220077006f6e035db08f9d0091c7e089dd33906d1340eb925f6f6afb06088b0932964736f6c63430008110033",
					"opcodes": "PUSH1 0x80 PUSH1 0x40 MSTORE CALLVALUE DUP1 ISZERO PUSH2 0x10 JUMPI PUSH1 0x0 DUP1 REVERT JUMPDEST POP PUSH2 0x830 DUP1 PUSH2 0x20 PUSH1 0x0 CODECOPY PUSH1 0x0 RETURN INVALID PUSH1 0x80 PUSH1 0x40 MSTORE PUSH1 0x4 CALLDATASIZE LT PUSH2 0x38 JUMPI PUSH1 0x0 CALLDATALOAD PUSH1 0xE0 SHR DUP1 PUSH4 0xC55699C EQ PUSH2 0x70 JUMPI DUP1 PUSH4 0x24CCAB8F EQ PUSH2 0x9B JUMPI DUP1 PUSH4 0xE21F37CE EQ PUSH2 0xCC JUMPI PUSH2 0x39 JUMP JUMPDEST JUMPDEST PUSH32 0xCF34EF537AC33EE1AC626CA1587A0A7E8E51561E5514F8CB36AFA1C5102B3BAB PUSH1 0x40 MLOAD PUSH2 0x66 SWAP1 PUSH2 0x212 JUMP JUMPDEST PUSH1 0x40 MLOAD DUP1 SWAP2 SUB SWAP1 LOG1 STOP JUMPDEST CALLVALUE DUP1 ISZERO PUSH2 0x7C JUMPI PUSH1 0x0 DUP1 REVERT JUMPDEST POP PUSH2 0x85 PUSH2 0xF7 JUMP JUMPDEST PUSH1 0x40 MLOAD PUSH2 0x92 SWAP2 SWAP1 PUSH2 0x24B JUMP JUMPDEST PUSH1 0x40 MLOAD DUP1 SWAP2 SUB SWAP1 RETURN JUMPDEST PUSH2 0xB5 PUSH1 0x4 DUP1 CALLDATASIZE SUB DUP2 ADD SWAP1 PUSH2 0xB0 SWAP2 SWAP1 PUSH2 0x3EC JUMP JUMPDEST PUSH2 0xFD JUMP JUMPDEST PUSH1 0x40 MLOAD PUSH2 0xC3 SWAP3 SWAP2 SWAP1 PUSH2 0x463 JUMP JUMPDEST PUSH1 0x40 MLOAD DUP1 SWAP2 SUB SWAP1 RETURN JUMPDEST CALLVALUE DUP1 ISZERO PUSH2 0xD8 JUMPI PUSH1 0x0 DUP1 REVERT JUMPDEST POP PUSH2 0xE1 PUSH2 0x127 JUMP JUMPDEST PUSH1 0x40 MLOAD PUSH2 0xEE SWAP2 SWAP1 PUSH2 0x4FA JUMP JUMPDEST PUSH1 0x40 MLOAD DUP1 SWAP2 SUB SWAP1 RETURN JUMPDEST PUSH1 0x1 SLOAD DUP2 JUMP JUMPDEST PUSH1 0x0 DUP1 DUP4 PUSH1 0x0 SWAP1 DUP2 PUSH2 0x10F SWAP2 SWAP1 PUSH2 0x728 JUMP JUMPDEST POP DUP3 PUSH1 0x1 DUP2 SWAP1 SSTORE POP PUSH1 0x1 PUSH2 0x3E7 SWAP2 POP SWAP2 POP SWAP3 POP SWAP3 SWAP1 POP JUMP JUMPDEST PUSH1 0x0 DUP1 SLOAD PUSH2 0x134 SWAP1 PUSH2 0x54B JUMP JUMPDEST DUP1 PUSH1 0x1F ADD PUSH1 0x20 DUP1 SWAP2 DIV MUL PUSH1 0x20 ADD PUSH1 0x40 MLOAD SWAP1 DUP2 ADD PUSH1 0x40 MSTORE DUP1 SWAP3 SWAP2 SWAP1 DUP2 DUP2 MSTORE PUSH1 0x20 ADD DUP3 DUP1 SLOAD PUSH2 0x160 SWAP1 PUSH2 0x54B JUMP JUMPDEST DUP1 ISZERO PUSH2 0x1AD JUMPI DUP1 PUSH1 0x1F LT PUSH2 0x182 JUMPI PUSH2 0x100 DUP1 DUP4 SLOAD DIV MUL DUP4 MSTORE SWAP2 PUSH1 0x20 ADD SWAP2 PUSH2 0x1AD JUMP JUMPDEST DUP3 ADD SWAP2 SWAP1 PUSH1 0x0 MSTORE PUSH1 0x20 PUSH1 0x0 KECCAK256 SWAP1 JUMPDEST DUP2 SLOAD DUP2 MSTORE SWAP1 PUSH1 0x1 ADD SWAP1 PUSH1 0x20 ADD DUP1 DUP4 GT PUSH2 0x190 JUMPI DUP3 SWAP1 SUB PUSH1 0x1F AND DUP3 ADD SWAP2 JUMPDEST POP POP POP POP POP DUP2 JUMP JUMPDEST PUSH1 0x0 DUP3 DUP3 MSTORE PUSH1 0x20 DUP3 ADD SWAP1 POP SWAP3 SWAP2 POP POP JUMP JUMPDEST PUSH32 0x66616C6C6261636B207761732063616C6C656400000000000000000000000000 PUSH1 0x0 DUP3 ADD MSTORE POP JUMP JUMPDEST PUSH1 0x0 PUSH2 0x1FC PUSH1 0x13 DUP4 PUSH2 0x1B5 JUMP JUMPDEST SWAP2 POP PUSH2 0x207 DUP3 PUSH2 0x1C6 JUMP JUMPDEST PUSH1 0x20 DUP3 ADD SWAP1 POP SWAP2 SWAP1 POP JUMP JUMPDEST PUSH1 0x0 PUSH1 0x20 DUP3 ADD SWAP1 POP DUP2 DUP2 SUB PUSH1 0x0 DUP4 ADD MSTORE PUSH2 0x22B DUP2 PUSH2 0x1EF JUMP JUMPDEST SWAP1 POP SWAP2 SWAP1 POP JUMP JUMPDEST PUSH1 0x0 DUP2 SWAP1 POP SWAP2 SWAP1 POP JUMP JUMPDEST PUSH2 0x245 DUP2 PUSH2 0x232 JUMP JUMPDEST DUP3 MSTORE POP POP JUMP JUMPDEST PUSH1 0x0 PUSH1 0x20 DUP3 ADD SWAP1 POP PUSH2 0x260 PUSH1 0x0 DUP4 ADD DUP5 PUSH2 0x23C JUMP JUMPDEST SWAP3 SWAP2 POP POP JUMP JUMPDEST PUSH1 0x0 PUSH1 0x40 MLOAD SWAP1 POP SWAP1 JUMP JUMPDEST PUSH1 0x0 DUP1 REVERT JUMPDEST PUSH1 0x0 DUP1 REVERT JUMPDEST PUSH1 0x0 DUP1 REVERT JUMPDEST PUSH1 0x0 DUP1 REVERT JUMPDEST PUSH1 0x0 PUSH1 0x1F NOT PUSH1 0x1F DUP4 ADD AND SWAP1 POP SWAP2 SWAP1 POP JUMP JUMPDEST PUSH32 0x4E487B7100000000000000000000000000000000000000000000000000000000 PUSH1 0x0 MSTORE PUSH1 0x41 PUSH1 0x4 MSTORE PUSH1 0x24 PUSH1 0x0 REVERT JUMPDEST PUSH2 0x2CD DUP3 PUSH2 0x284 JUMP JUMPDEST DUP2 ADD DUP2 DUP2 LT PUSH8 0xFFFFFFFFFFFFFFFF DUP3 GT OR ISZERO PUSH2 0x2EC JUMPI PUSH2 0x2EB PUSH2 0x295 JUMP JUMPDEST JUMPDEST DUP1 PUSH1 0x40 MSTORE POP POP POP JUMP JUMPDEST PUSH1 0x0 PUSH2 0x2FF PUSH2 0x266 JUMP JUMPDEST SWAP1 POP PUSH2 0x30B DUP3 DUP3 PUSH2 0x2C4 JUMP JUMPDEST SWAP2 SWAP1 POP JUMP JUMPDEST PUSH1 0x0 PUSH8 0xFFFFFFFFFFFFFFFF DUP3 GT ISZERO PUSH2 0x32B JUMPI PUSH2 0x32A PUSH2 0x295 JUMP JUMPDEST JUMPDEST PUSH2 0x334 DUP3 PUSH2 0x284 JUMP JUMPDEST SWAP1 POP PUSH1 0x20 DUP2 ADD SWAP1 POP SWAP2 SWAP1 POP JUMP JUMPDEST DUP3 DUP2 DUP4 CALLDATACOPY PUSH1 0x0 DUP4 DUP4 ADD MSTORE POP POP POP JUMP JUMPDEST PUSH1 0x0 PUSH2 0x363 PUSH2 0x35E DUP5 PUSH2 0x310 JUMP JUMPDEST PUSH2 0x2F5 JUMP JUMPDEST SWAP1 POP DUP3 DUP2 MSTORE PUSH1 0x20 DUP2 ADD DUP5 DUP5 DUP5 ADD GT ISZERO PUSH2 0x37F JUMPI PUSH2 0x37E PUSH2 0x27F JUMP JUMPDEST JUMPDEST PUSH2 0x38A DUP5 DUP3 DUP6 PUSH2 0x341 JUMP JUMPDEST POP SWAP4 SWAP3 POP POP POP JUMP JUMPDEST PUSH1 0x0 DUP3 PUSH1 0x1F DUP4 ADD SLT PUSH2 0x3A7 JUMPI PUSH2 0x3A6 PUSH2 0x27A JUMP JUMPDEST JUMPDEST DUP2 CALLDATALOAD PUSH2 0x3B7 DUP5 DUP3 PUSH1 0x20 DUP7 ADD PUSH2 0x350 JUMP JUMPDEST SWAP2 POP POP SWAP3 SWAP2 POP POP JUMP JUMPDEST PUSH2 0x3C9 DUP2 PUSH2 0x232 JUMP JUMPDEST DUP2 EQ PUSH2 0x3D4 JUMPI PUSH1 0x0 DUP1 REVERT JUMPDEST POP JUMP JUMPDEST PUSH1 0x0 DUP2 CALLDATALOAD SWAP1 POP PUSH2 0x3E6 DUP2 PUSH2 0x3C0 JUMP JUMPDEST SWAP3 SWAP2 POP POP JUMP JUMPDEST PUSH1 0x0 DUP1 PUSH1 0x40 DUP4 DUP6 SUB SLT ISZERO PUSH2 0x403 JUMPI PUSH2 0x402 PUSH2 0x270 JUMP JUMPDEST JUMPDEST PUSH1 0x0 DUP4 ADD CALLDATALOAD PUSH8 0xFFFFFFFFFFFFFFFF DUP2 GT ISZERO PUSH2 0x421 JUMPI PUSH2 0x420 PUSH2 0x275 JUMP JUMPDEST JUMPDEST PUSH2 0x42D DUP6 DUP3 DUP7 ADD PUSH2 0x392 JUMP JUMPDEST SWAP3 POP POP PUSH1 0x20 PUSH2 0x43E DUP6 DUP3 DUP7 ADD PUSH2 0x3D7 JUMP JUMPDEST SWAP2 POP POP SWAP3 POP SWAP3 SWAP1 POP JUMP JUMPDEST PUSH1 0x0 DUP2 ISZERO ISZERO SWAP1 POP SWAP2 SWAP1 POP JUMP JUMPDEST PUSH2 0x45D DUP2 PUSH2 0x448 JUMP JUMPDEST DUP3 MSTORE POP POP JUMP JUMPDEST PUSH1 0x0 PUSH1 0x40 DUP3 ADD SWAP1 POP PUSH2 0x478 PUSH1 0x0 DUP4 ADD DUP6 PUSH2 0x454 JUMP JUMPDEST PUSH2 0x485 PUSH1 0x20 DUP4 ADD DUP5 PUSH2 0x23C JUMP JUMPDEST SWAP4 SWAP3 POP POP POP JUMP JUMPDEST PUSH1 0x0 DUP2 MLOAD SWAP1 POP SWAP2 SWAP1 POP JUMP JUMPDEST PUSH1 0x0 JUMPDEST DUP4 DUP2 LT ISZERO PUSH2 0x4B5 JUMPI DUP1 DUP3 ADD MLOAD DUP2 DUP5 ADD MSTORE PUSH1 0x20 DUP2 ADD SWAP1 POP PUSH2 0x49A JUMP JUMPDEST PUSH1 0x0 DUP5 DUP5 ADD MSTORE POP POP POP POP JUMP JUMPDEST PUSH1 0x0 PUSH2 0x4CC DUP3 PUSH2 0x48C JUMP JUMPDEST PUSH2 0x4D6 DUP2 DUP6 PUSH2 0x1B5 JUMP JUMPDEST SWAP4 POP PUSH2 0x4E6 DUP2 DUP6 PUSH1 0x20 DUP7 ADD PUSH2 0x497 JUMP JUMPDEST PUSH2 0x4EF DUP2 PUSH2 0x284 JUMP JUMPDEST DUP5 ADD SWAP2 POP POP SWAP3 SWAP2 POP POP JUMP JUMPDEST PUSH1 0x0 PUSH1 0x20 DUP3 ADD SWAP1 POP DUP2 DUP2 SUB PUSH1 0x0 DUP4 ADD MSTORE PUSH2 0x514 DUP2 DUP5 PUSH2 0x4C1 JUMP JUMPDEST SWAP1 POP SWAP3 SWAP2 POP POP JUMP JUMPDEST PUSH32 0x4E487B7100000000000000000000000000000000000000000000000000000000 PUSH1 0x0 MSTORE PUSH1 0x22 PUSH1 0x4 MSTORE PUSH1 0x24 PUSH1 0x0 REVERT JUMPDEST PUSH1 0x0 PUSH1 0x2 DUP3 DIV SWAP1 POP PUSH1 0x1 DUP3 AND DUP1 PUSH2 0x563 JUMPI PUSH1 0x7F DUP3 AND SWAP2 POP JUMPDEST PUSH1 0x20 DUP3 LT DUP2 SUB PUSH2 0x576 JUMPI PUSH2 0x575 PUSH2 0x51C JUMP JUMPDEST JUMPDEST POP SWAP2 SWAP1 POP JUMP JUMPDEST PUSH1 0x0 DUP2 SWAP1 POP DUP2 PUSH1 0x0 MSTORE PUSH1 0x20 PUSH1 0x0 KECCAK256 SWAP1 POP SWAP2 SWAP1 POP JUMP JUMPDEST PUSH1 0x0 PUSH1 0x20 PUSH1 0x1F DUP4 ADD DIV SWAP1 POP SWAP2 SWAP1 POP JUMP JUMPDEST PUSH1 0x0 DUP3 DUP3 SHL SWAP1 POP SWAP3 SWAP2 POP POP JUMP JUMPDEST PUSH1 0x0 PUSH1 0x8 DUP4 MUL PUSH2 0x5DE PUSH32 0xFFFFFFFFFFFFFFFFFFFFFFFFFFFFFFFFFFFFFFFFFFFFFFFFFFFFFFFFFFFFFFFF DUP3 PUSH2 0x5A1 JUMP JUMPDEST PUSH2 0x5E8 DUP7 DUP4 PUSH2 0x5A1 JUMP JUMPDEST SWAP6 POP DUP1 NOT DUP5 AND SWAP4 POP DUP1 DUP7 AND DUP5 OR SWAP3 POP POP POP SWAP4 SWAP3 POP POP POP JUMP JUMPDEST PUSH1 0x0 DUP2 SWAP1 POP SWAP2 SWAP1 POP JUMP JUMPDEST PUSH1 0x0 PUSH2 0x625 PUSH2 0x620 PUSH2 0x61B DUP5 PUSH2 0x232 JUMP JUMPDEST PUSH2 0x600 JUMP JUMPDEST PUSH2 0x232 JUMP JUMPDEST SWAP1 POP SWAP2 SWAP1 POP JUMP JUMPDEST PUSH1 0x0 DUP2 SWAP1 POP SWAP2 SWAP1 POP JUMP JUMPDEST PUSH2 0x63F DUP4 PUSH2 0x60A JUMP JUMPDEST PUSH2 0x653 PUSH2 0x64B DUP3 PUSH2 0x62C JUMP JUMPDEST DUP5 DUP5 SLOAD PUSH2 0x5AE JUMP JUMPDEST DUP3 SSTORE POP POP POP POP JUMP JUMPDEST PUSH1 0x0 SWAP1 JUMP JUMPDEST PUSH2 0x668 PUSH2 0x65B JUMP JUMPDEST PUSH2 0x673 DUP2 DUP5 DUP5 PUSH2 0x636 JUMP JUMPDEST POP POP POP JUMP JUMPDEST JUMPDEST DUP2 DUP2 LT ISZERO PUSH2 0x697 JUMPI PUSH2 0x68C PUSH1 0x0 DUP3 PUSH2 0x660 JUMP JUMPDEST PUSH1 0x1 DUP2 ADD SWAP1 POP PUSH2 0x679 JUMP JUMPDEST POP POP JUMP JUMPDEST PUSH1 0x1F DUP3 GT ISZERO PUSH2 0x6DC JUMPI PUSH2 0x6AD DUP2 PUSH2 0x57C JUMP JUMPDEST PUSH2 0x6B6 DUP5 PUSH2 0x591 JUMP JUMPDEST DUP2 ADD PUSH1 0x20 DUP6 LT ISZERO PUSH2 0x6C5 JUMPI DUP2 SWAP1 POP JUMPDEST PUSH2 0x6D9 PUSH2 0x6D1 DUP6 PUSH2 0x591 JUMP JUMPDEST DUP4 ADD DUP3 PUSH2 0x678 JUMP JUMPDEST POP POP JUMPDEST POP POP POP JUMP JUMPDEST PUSH1 0x0 DUP3 DUP3 SHR SWAP1 POP SWAP3 SWAP2 POP POP JUMP JUMPDEST PUSH1 0x0 PUSH2 0x6FF PUSH1 0x0 NOT DUP5 PUSH1 0x8 MUL PUSH2 0x6E1 JUMP JUMPDEST NOT DUP1 DUP4 AND SWAP2 POP POP SWAP3 SWAP2 POP POP JUMP JUMPDEST PUSH1 0x0 PUSH2 0x718 DUP4 DUP4 PUSH2 0x6EE JUMP JUMPDEST SWAP2 POP DUP3 PUSH1 0x2 MUL DUP3 OR SWAP1 POP SWAP3 SWAP2 POP POP JUMP JUMPDEST PUSH2 0x731 DUP3 PUSH2 0x48C JUMP JUMPDEST PUSH8 0xFFFFFFFFFFFFFFFF DUP2 GT ISZERO PUSH2 0x74A JUMPI PUSH2 0x749 PUSH2 0x295 JUMP JUMPDEST JUMPDEST PUSH2 0x754 DUP3 SLOAD PUSH2 0x54B JUMP JUMPDEST PUSH2 0x75F DUP3 DUP3 DUP6 PUSH2 0x69B JUMP JUMPDEST PUSH1 0x0 PUSH1 0x20 SWAP1 POP PUSH1 0x1F DUP4 GT PUSH1 0x1 DUP2 EQ PUSH2 0x792 JUMPI PUSH1 0x0 DUP5 ISZERO PUSH2 0x780 JUMPI DUP3 DUP8 ADD MLOAD SWAP1 POP JUMPDEST PUSH2 0x78A DUP6 DUP3 PUSH2 0x70C JUMP JUMPDEST DUP7 SSTORE POP PUSH2 0x7F2 JUMP JUMPDEST PUSH1 0x1F NOT DUP5 AND PUSH2 0x7A0 DUP7 PUSH2 0x57C JUMP JUMPDEST PUSH1 0x0 JUMPDEST DUP3 DUP2 LT ISZERO PUSH2 0x7C8 JUMPI DUP5 DUP10 ADD MLOAD DUP3 SSTORE PUSH1 0x1 DUP3 ADD SWAP2 POP PUSH1 0x20 DUP6 ADD SWAP5 POP PUSH1 0x20 DUP2 ADD SWAP1 POP PUSH2 0x7A3 JUMP JUMPDEST DUP7 DUP4 LT ISZERO PUSH2 0x7E5 JUMPI DUP5 DUP10 ADD MLOAD PUSH2 0x7E1 PUSH1 0x1F DUP10 AND DUP3 PUSH2 0x6EE JUMP JUMPDEST DUP4 SSTORE POP JUMPDEST PUSH1 0x1 PUSH1 0x2 DUP9 MUL ADD DUP9 SSTORE POP POP POP JUMPDEST POP POP POP POP POP POP JUMP INVALID LOG2 PUSH5 0x6970667358 0x22 SLT KECCAK256 SMOD PUSH17 0x6F6E035DB08F9D0091C7E089DD33906D1 CALLVALUE 0xE 0xB9 0x25 0xF6 0xF6 0xAF 0xB0 PUSH1 0x88 0xB0 SWAP4 0x29 PUSH5 0x736F6C6343 STOP ADDMOD GT STOP CALLER "
				},
				"gasEstimates": {
					"creation": {
						"codeDepositCost": "419200",
						"executionCost": "455",
						"totalCost": "419655"
					},
					"external": {
						"": "1931",
						"foo(string,uint256)": "infinite",
						"message()": "infinite",
						"x()": "2407"
					}
				},
				"methodIdentifiers": {
					"foo(string,uint256)": "24ccab8f",
					"message()": "e21f37ce",
					"x()": "0c55699c"
				}
			},
			"storageLayout": {
				"storage": [
					{
						"astId": 3,
						"contract": "TestCall.sol:TestCall",
						"label": "message",
						"offset": 0,
						"slot": "0",
						"type": "t_string_storage"
					},
					{
						"astId": 5,
						"contract": "TestCall.sol:TestCall",
						"label": "x",
						"offset": 0,
						"slot": "1",
						"type": "t_uint256"
					}
				],
				"types": {
					"t_string_storage": {
						"encoding": "bytes",
						"label": "string",
						"numberOfBytes": "32"
					},
					"t_uint256": {
						"encoding": "inplace",
						"label": "uint256",
						"numberOfBytes": "32"
					}
				}
			},
			"userdoc": {
				"kind": "user",
				"methods": {},
				"version": 1
			}
		}
	}
}