{
	"AbiDecode.sol": {
		"AbiDecode": {
			"abi": [
				{
					"inputs": [
						{
							"internalType": "bytes",
							"name": "data",
							"type": "bytes"
						}
					],
					"name": "decode",
					"outputs": [
						{
							"internalType": "uint256",
							"name": "x",
							"type": "uint256"
						},
						{
							"internalType": "address",
							"name": "addr",
							"type": "address"
						},
						{
							"internalType": "uint256[]",
							"name": "arr",
							"type": "uint256[]"
						},
						{
							"components": [
								{
									"internalType": "string",
									"name": "mame",
									"type": "string"
								},
								{
									"internalType": "uint256[2]",
									"name": "nums",
									"type": "uint256[2]"
								}
							],
							"internalType": "struct AbiDecode.Mystruct",
							"name": "myStruct",
							"type": "tuple"
						}
					],
					"stateMutability": "pure",
					"type": "function"
				},
				{
					"inputs": [
						{
							"internalType": "uint256",
							"name": "x",
							"type": "uint256"
						},
						{
							"internalType": "address",
							"name": "addr",
							"type": "address"
						},
						{
							"internalType": "uint256[]",
							"name": "arr",
							"type": "uint256[]"
						},
						{
							"components": [
								{
									"internalType": "string",
									"name": "mame",
									"type": "string"
								},
								{
									"internalType": "uint256[2]",
									"name": "nums",
									"type": "uint256[2]"
								}
							],
							"internalType": "struct AbiDecode.Mystruct",
							"name": "myStruct",
							"type": "tuple"
						}
					],
					"name": "encode",
					"outputs": [
						{
							"internalType": "bytes",
							"name": "",
							"type": "bytes"
						}
					],
					"stateMutability": "pure",
					"type": "function"
				},
				{
					"inputs": [],
					"name": "test",
					"outputs": [
						{
							"internalType": "uint256",
							"name": "",
							"type": "uint256"
						}
					],
					"stateMutability": "nonpayable",
					"type": "function"
				}
			],
			"devdoc": {
				"kind": "dev",
				"methods": {},
				"version": 1
			},
			"evm": {
				"assembly": "    /* \"AbiDecode.sol\":61:650  contract AbiDecode {... */\n  mstore(0x40, 0x80)\n  callvalue\n  dup1\n  iszero\n  tag_1\n  jumpi\n  0x00\n  dup1\n  revert\ntag_1:\n  pop\n  dataSize(sub_0)\n  dup1\n  dataOffset(sub_0)\n  0x00\n  codecopy\n  0x00\n  return\nstop\n\nsub_0: assembly {\n        /* \"AbiDecode.sol\":61:650  contract AbiDecode {... */\n      mstore(0x40, 0x80)\n      callvalue\n      dup1\n      iszero\n      tag_1\n      jumpi\n      0x00\n      dup1\n      revert\n    tag_1:\n      pop\n      jumpi(tag_2, lt(calldatasize, 0x04))\n      shr(0xe0, calldataload(0x00))\n      dup1\n      0x7049e087\n      eq\n      tag_3\n      jumpi\n      dup1\n      0xe5c5e9a3\n      eq\n      tag_4\n      jumpi\n      dup1\n      0xf8a8fd6d\n      eq\n      tag_5\n      jumpi\n    tag_2:\n      0x00\n      dup1\n      revert\n        /* \"AbiDecode.sol\":164:349  function encode (uint x, address addr, uint[] calldata arr, Mystruct calldata myStruct) external pure returns (bytes memory) {... */\n    tag_3:\n      tag_6\n      0x04\n      dup1\n      calldatasize\n      sub\n      dup2\n      add\n      swap1\n      tag_7\n      swap2\n      swap1\n      tag_8\n      jump\t// in\n    tag_7:\n      tag_9\n      jump\t// in\n    tag_6:\n      mload(0x40)\n      tag_10\n      swap2\n      swap1\n      tag_11\n      jump\t// in\n    tag_10:\n      mload(0x40)\n      dup1\n      swap2\n      sub\n      swap1\n      return\n        /* \"AbiDecode.sol\":357:581  function decode(bytes calldata data) external pure returns (uint x, address addr, uint[] memory arr, Mystruct memory myStruct) {... */\n    tag_4:\n      tag_12\n      0x04\n      dup1\n      calldatasize\n      sub\n      dup2\n      add\n      swap1\n      tag_13\n      swap2\n      swap1\n      tag_14\n      jump\t// in\n    tag_13:\n      tag_15\n      jump\t// in\n    tag_12:\n      mload(0x40)\n      tag_16\n      swap5\n      swap4\n      swap3\n      swap2\n      swap1\n      tag_17\n      jump\t// in\n    tag_16:\n      mload(0x40)\n      dup1\n      swap2\n      sub\n      swap1\n      return\n        /* \"AbiDecode.sol\":589:647  function test() external returns (uint) {... */\n    tag_5:\n      tag_18\n      tag_19\n      jump\t// in\n    tag_18:\n      mload(0x40)\n      tag_20\n      swap2\n      swap1\n      tag_21\n      jump\t// in\n    tag_20:\n      mload(0x40)\n      dup1\n      swap2\n      sub\n      swap1\n      return\n        /* \"AbiDecode.sol\":164:349  function encode (uint x, address addr, uint[] calldata arr, Mystruct calldata myStruct) external pure returns (bytes memory) {... */\n    tag_9:\n        /* \"AbiDecode.sol\":275:287  bytes memory */\n      0x60\n        /* \"AbiDecode.sol\":318:319  x */\n      dup6\n        /* \"AbiDecode.sol\":321:325  addr */\n      dup6\n        /* \"AbiDecode.sol\":327:330  arr */\n      dup6\n      dup6\n        /* \"AbiDecode.sol\":332:340  myStruct */\n      dup6\n        /* \"AbiDecode.sol\":307:341  abi.encode(x, addr, arr, myStruct) */\n      add(0x20, mload(0x40))\n      tag_23\n      swap6\n      swap5\n      swap4\n      swap3\n      swap2\n      swap1\n      tag_24\n      jump\t// in\n    tag_23:\n      mload(0x40)\n      0x20\n      dup2\n      dup4\n      sub\n      sub\n      dup2\n      mstore\n      swap1\n      0x40\n      mstore\n        /* \"AbiDecode.sol\":300:341  return abi.encode(x, addr, arr, myStruct) */\n      swap1\n      pop\n        /* \"AbiDecode.sol\":164:349  function encode (uint x, address addr, uint[] calldata arr, Mystruct calldata myStruct) external pure returns (bytes memory) {... */\n      swap6\n      swap5\n      pop\n      pop\n      pop\n      pop\n      pop\n      jump\t// out\n        /* \"AbiDecode.sol\":357:581  function decode(bytes calldata data) external pure returns (uint x, address addr, uint[] memory arr, Mystruct memory myStruct) {... */\n    tag_15:\n        /* \"AbiDecode.sol\":417:423  uint x */\n      0x00\n        /* \"AbiDecode.sol\":425:437  address addr */\n      dup1\n        /* \"AbiDecode.sol\":439:456  uint[] memory arr */\n      0x60\n        /* \"AbiDecode.sol\":458:482  Mystruct memory myStruct */\n      tag_25\n      tag_26\n      jump\t// in\n    tag_25:\n        /* \"AbiDecode.sol\":533:537  data */\n      dup6\n      dup6\n        /* \"AbiDecode.sol\":522:573  abi.decode(data, (uint, address, uint[], Mystruct)) */\n      dup2\n      add\n      swap1\n      tag_28\n      swap2\n      swap1\n      tag_29\n      jump\t// in\n    tag_28:\n        /* \"AbiDecode.sol\":495:573  (x, addr, arr, myStruct) = abi.decode(data, (uint, address, uint[], Mystruct)) */\n      dup1\n      swap5\n      pop\n      dup2\n      swap6\n      pop\n      dup3\n      swap7\n      pop\n      dup4\n      swap8\n      pop\n      pop\n      pop\n      pop\n      pop\n        /* \"AbiDecode.sol\":357:581  function decode(bytes calldata data) external pure returns (uint x, address addr, uint[] memory arr, Mystruct memory myStruct) {... */\n      swap3\n      swap6\n      swap2\n      swap5\n      pop\n      swap3\n      pop\n      jump\t// out\n        /* \"AbiDecode.sol\":589:647  function test() external returns (uint) {... */\n    tag_19:\n        /* \"AbiDecode.sol\":623:627  uint */\n      0x00\n        /* \"AbiDecode.sol\":589:647  function test() external returns (uint) {... */\n      swap1\n      jump\t// out\n    tag_26:\n      mload(0x40)\n      dup1\n      0x40\n      add\n      0x40\n      mstore\n      dup1\n      0x60\n      dup2\n      mstore\n      0x20\n      add\n      tag_31\n      tag_32\n      jump\t// in\n    tag_31:\n      dup2\n      mstore\n      pop\n      swap1\n      jump\t// out\n    tag_32:\n      mload(0x40)\n      dup1\n      0x40\n      add\n      0x40\n      mstore\n      dup1\n      0x02\n      swap1\n      0x20\n      dup3\n      mul\n      dup1\n      calldatasize\n      dup4\n      calldatacopy\n      dup1\n      dup3\n      add\n      swap2\n      pop\n      pop\n      swap1\n      pop\n      pop\n      swap1\n      jump\t// out\n        /* \"#utility.yul\":7:82   */\n    tag_33:\n        /* \"#utility.yul\":40:46   */\n      0x00\n        /* \"#utility.yul\":73:75   */\n      0x40\n        /* \"#utility.yul\":67:76   */\n      mload\n        /* \"#utility.yul\":57:76   */\n      swap1\n      pop\n        /* \"#utility.yul\":7:82   */\n      swap1\n      jump\t// out\n        /* \"#utility.yul\":88:205   */\n    tag_34:\n        /* \"#utility.yul\":197:198   */\n      0x00\n        /* \"#utility.yul\":194:195   */\n      dup1\n        /* \"#utility.yul\":187:199   */\n      revert\n        /* \"#utility.yul\":211:328   */\n    tag_35:\n        /* \"#utility.yul\":320:321   */\n      0x00\n        /* \"#utility.yul\":317:318   */\n      dup1\n        /* \"#utility.yul\":310:322   */\n      revert\n        /* \"#utility.yul\":334:411   */\n    tag_36:\n        /* \"#utility.yul\":371:378   */\n      0x00\n        /* \"#utility.yul\":400:405   */\n      dup2\n        /* \"#utility.yul\":389:405   */\n      swap1\n      pop\n        /* \"#utility.yul\":334:411   */\n      swap2\n      swap1\n      pop\n      jump\t// out\n        /* \"#utility.yul\":417:539   */\n    tag_37:\n        /* \"#utility.yul\":490:514   */\n      tag_110\n        /* \"#utility.yul\":508:513   */\n      dup2\n        /* \"#utility.yul\":490:514   */\n      tag_36\n      jump\t// in\n    tag_110:\n        /* \"#utility.yul\":483:488   */\n      dup2\n        /* \"#utility.yul\":480:515   */\n      eq\n        /* \"#utility.yul\":470:533   */\n      tag_111\n      jumpi\n        /* \"#utility.yul\":529:530   */\n      0x00\n        /* \"#utility.yul\":526:527   */\n      dup1\n        /* \"#utility.yul\":519:531   */\n      revert\n        /* \"#utility.yul\":470:533   */\n    tag_111:\n        /* \"#utility.yul\":417:539   */\n      pop\n      jump\t// out\n        /* \"#utility.yul\":545:684   */\n    tag_38:\n        /* \"#utility.yul\":591:596   */\n      0x00\n        /* \"#utility.yul\":629:635   */\n      dup2\n        /* \"#utility.yul\":616:636   */\n      calldataload\n        /* \"#utility.yul\":607:636   */\n      swap1\n      pop\n        /* \"#utility.yul\":645:678   */\n      tag_113\n        /* \"#utility.yul\":672:677   */\n      dup2\n        /* \"#utility.yul\":645:678   */\n      tag_37\n      jump\t// in\n    tag_113:\n        /* \"#utility.yul\":545:684   */\n      swap3\n      swap2\n      pop\n      pop\n      jump\t// out\n        /* \"#utility.yul\":690:816   */\n    tag_39:\n        /* \"#utility.yul\":727:734   */\n      0x00\n        /* \"#utility.yul\":767:809   */\n      0xffffffffffffffffffffffffffffffffffffffff\n        /* \"#utility.yul\":760:765   */\n      dup3\n        /* \"#utility.yul\":756:810   */\n      and\n        /* \"#utility.yul\":745:810   */\n      swap1\n      pop\n        /* \"#utility.yul\":690:816   */\n      swap2\n      swap1\n      pop\n      jump\t// out\n        /* \"#utility.yul\":822:918   */\n    tag_40:\n        /* \"#utility.yul\":859:866   */\n      0x00\n        /* \"#utility.yul\":888:912   */\n      tag_116\n        /* \"#utility.yul\":906:911   */\n      dup3\n        /* \"#utility.yul\":888:912   */\n      tag_39\n      jump\t// in\n    tag_116:\n        /* \"#utility.yul\":877:912   */\n      swap1\n      pop\n        /* \"#utility.yul\":822:918   */\n      swap2\n      swap1\n      pop\n      jump\t// out\n        /* \"#utility.yul\":924:1046   */\n    tag_41:\n        /* \"#utility.yul\":997:1021   */\n      tag_118\n        /* \"#utility.yul\":1015:1020   */\n      dup2\n        /* \"#utility.yul\":997:1021   */\n      tag_40\n      jump\t// in\n    tag_118:\n        /* \"#utility.yul\":990:995   */\n      dup2\n        /* \"#utility.yul\":987:1022   */\n      eq\n        /* \"#utility.yul\":977:1040   */\n      tag_119\n      jumpi\n        /* \"#utility.yul\":1036:1037   */\n      0x00\n        /* \"#utility.yul\":1033:1034   */\n      dup1\n        /* \"#utility.yul\":1026:1038   */\n      revert\n        /* \"#utility.yul\":977:1040   */\n    tag_119:\n        /* \"#utility.yul\":924:1046   */\n      pop\n      jump\t// out\n        /* \"#utility.yul\":1052:1191   */\n    tag_42:\n        /* \"#utility.yul\":1098:1103   */\n      0x00\n        /* \"#utility.yul\":1136:1142   */\n      dup2\n        /* \"#utility.yul\":1123:1143   */\n      calldataload\n        /* \"#utility.yul\":1114:1143   */\n      swap1\n      pop\n        /* \"#utility.yul\":1152:1185   */\n      tag_121\n        /* \"#utility.yul\":1179:1184   */\n      dup2\n        /* \"#utility.yul\":1152:1185   */\n      tag_41\n      jump\t// in\n    tag_121:\n        /* \"#utility.yul\":1052:1191   */\n      swap3\n      swap2\n      pop\n      pop\n      jump\t// out\n        /* \"#utility.yul\":1197:1314   */\n    tag_43:\n        /* \"#utility.yul\":1306:1307   */\n      0x00\n        /* \"#utility.yul\":1303:1304   */\n      dup1\n        /* \"#utility.yul\":1296:1308   */\n      revert\n        /* \"#utility.yul\":1320:1437   */\n    tag_44:\n        /* \"#utility.yul\":1429:1430   */\n      0x00\n        /* \"#utility.yul\":1426:1427   */\n      dup1\n        /* \"#utility.yul\":1419:1431   */\n      revert\n        /* \"#utility.yul\":1443:1560   */\n    tag_45:\n        /* \"#utility.yul\":1552:1553   */\n      0x00\n        /* \"#utility.yul\":1549:1550   */\n      dup1\n        /* \"#utility.yul\":1542:1554   */\n      revert\n        /* \"#utility.yul\":1583:2151   */\n    tag_46:\n        /* \"#utility.yul\":1656:1664   */\n      0x00\n        /* \"#utility.yul\":1666:1672   */\n      dup1\n        /* \"#utility.yul\":1716:1719   */\n      dup4\n        /* \"#utility.yul\":1709:1713   */\n      0x1f\n        /* \"#utility.yul\":1701:1707   */\n      dup5\n        /* \"#utility.yul\":1697:1714   */\n      add\n        /* \"#utility.yul\":1693:1720   */\n      slt\n        /* \"#utility.yul\":1683:1805   */\n      tag_126\n      jumpi\n        /* \"#utility.yul\":1724:1803   */\n      tag_127\n      tag_43\n      jump\t// in\n    tag_127:\n        /* \"#utility.yul\":1683:1805   */\n    tag_126:\n        /* \"#utility.yul\":1837:1843   */\n      dup3\n        /* \"#utility.yul\":1824:1844   */\n      calldataload\n        /* \"#utility.yul\":1814:1844   */\n      swap1\n      pop\n        /* \"#utility.yul\":1867:1885   */\n      0xffffffffffffffff\n        /* \"#utility.yul\":1859:1865   */\n      dup2\n        /* \"#utility.yul\":1856:1886   */\n      gt\n        /* \"#utility.yul\":1853:1970   */\n      iszero\n      tag_128\n      jumpi\n        /* \"#utility.yul\":1889:1968   */\n      tag_129\n      tag_44\n      jump\t// in\n    tag_129:\n        /* \"#utility.yul\":1853:1970   */\n    tag_128:\n        /* \"#utility.yul\":2003:2007   */\n      0x20\n        /* \"#utility.yul\":1995:2001   */\n      dup4\n        /* \"#utility.yul\":1991:2008   */\n      add\n        /* \"#utility.yul\":1979:2008   */\n      swap2\n      pop\n        /* \"#utility.yul\":2057:2060   */\n      dup4\n        /* \"#utility.yul\":2049:2053   */\n      0x20\n        /* \"#utility.yul\":2041:2047   */\n      dup3\n        /* \"#utility.yul\":2037:2054   */\n      mul\n        /* \"#utility.yul\":2027:2035   */\n      dup4\n        /* \"#utility.yul\":2023:2055   */\n      add\n        /* \"#utility.yul\":2020:2061   */\n      gt\n        /* \"#utility.yul\":2017:2145   */\n      iszero\n      tag_130\n      jumpi\n        /* \"#utility.yul\":2064:2143   */\n      tag_131\n      tag_45\n      jump\t// in\n    tag_131:\n        /* \"#utility.yul\":2017:2145   */\n    tag_130:\n        /* \"#utility.yul\":1583:2151   */\n      swap3\n      pop\n      swap3\n      swap1\n      pop\n      jump\t// out\n        /* \"#utility.yul\":2157:2274   */\n    tag_47:\n        /* \"#utility.yul\":2266:2267   */\n      0x00\n        /* \"#utility.yul\":2263:2264   */\n      dup1\n        /* \"#utility.yul\":2256:2268   */\n      revert\n        /* \"#utility.yul\":2313:2542   */\n    tag_48:\n        /* \"#utility.yul\":2384:2389   */\n      0x00\n        /* \"#utility.yul\":2425:2427   */\n      0x60\n        /* \"#utility.yul\":2416:2422   */\n      dup3\n        /* \"#utility.yul\":2411:2414   */\n      dup5\n        /* \"#utility.yul\":2407:2423   */\n      sub\n        /* \"#utility.yul\":2403:2428   */\n      slt\n        /* \"#utility.yul\":2400:2512   */\n      iszero\n      tag_134\n      jumpi\n        /* \"#utility.yul\":2431:2510   */\n      tag_135\n      tag_47\n      jump\t// in\n    tag_135:\n        /* \"#utility.yul\":2400:2512   */\n    tag_134:\n        /* \"#utility.yul\":2530:2536   */\n      dup2\n        /* \"#utility.yul\":2521:2536   */\n      swap1\n      pop\n        /* \"#utility.yul\":2313:2542   */\n      swap3\n      swap2\n      pop\n      pop\n      jump\t// out\n        /* \"#utility.yul\":2548:3753   */\n    tag_8:\n        /* \"#utility.yul\":2686:2692   */\n      0x00\n        /* \"#utility.yul\":2694:2700   */\n      dup1\n        /* \"#utility.yul\":2702:2708   */\n      0x00\n        /* \"#utility.yul\":2710:2716   */\n      dup1\n        /* \"#utility.yul\":2718:2724   */\n      0x00\n        /* \"#utility.yul\":2767:2770   */\n      0x80\n        /* \"#utility.yul\":2755:2764   */\n      dup7\n        /* \"#utility.yul\":2746:2753   */\n      dup9\n        /* \"#utility.yul\":2742:2765   */\n      sub\n        /* \"#utility.yul\":2738:2771   */\n      slt\n        /* \"#utility.yul\":2735:2855   */\n      iszero\n      tag_137\n      jumpi\n        /* \"#utility.yul\":2774:2853   */\n      tag_138\n      tag_34\n      jump\t// in\n    tag_138:\n        /* \"#utility.yul\":2735:2855   */\n    tag_137:\n        /* \"#utility.yul\":2894:2895   */\n      0x00\n        /* \"#utility.yul\":2919:2972   */\n      tag_139\n        /* \"#utility.yul\":2964:2971   */\n      dup9\n        /* \"#utility.yul\":2955:2961   */\n      dup3\n        /* \"#utility.yul\":2944:2953   */\n      dup10\n        /* \"#utility.yul\":2940:2962   */\n      add\n        /* \"#utility.yul\":2919:2972   */\n      tag_38\n      jump\t// in\n    tag_139:\n        /* \"#utility.yul\":2909:2972   */\n      swap6\n      pop\n        /* \"#utility.yul\":2865:2982   */\n      pop\n        /* \"#utility.yul\":3021:3023   */\n      0x20\n        /* \"#utility.yul\":3047:3100   */\n      tag_140\n        /* \"#utility.yul\":3092:3099   */\n      dup9\n        /* \"#utility.yul\":3083:3089   */\n      dup3\n        /* \"#utility.yul\":3072:3081   */\n      dup10\n        /* \"#utility.yul\":3068:3090   */\n      add\n        /* \"#utility.yul\":3047:3100   */\n      tag_42\n      jump\t// in\n    tag_140:\n        /* \"#utility.yul\":3037:3100   */\n      swap5\n      pop\n        /* \"#utility.yul\":2992:3110   */\n      pop\n        /* \"#utility.yul\":3177:3179   */\n      0x40\n        /* \"#utility.yul\":3166:3175   */\n      dup7\n        /* \"#utility.yul\":3162:3180   */\n      add\n        /* \"#utility.yul\":3149:3181   */\n      calldataload\n        /* \"#utility.yul\":3208:3226   */\n      0xffffffffffffffff\n        /* \"#utility.yul\":3200:3206   */\n      dup2\n        /* \"#utility.yul\":3197:3227   */\n      gt\n        /* \"#utility.yul\":3194:3311   */\n      iszero\n      tag_141\n      jumpi\n        /* \"#utility.yul\":3230:3309   */\n      tag_142\n      tag_35\n      jump\t// in\n    tag_142:\n        /* \"#utility.yul\":3194:3311   */\n    tag_141:\n        /* \"#utility.yul\":3343:3423   */\n      tag_143\n        /* \"#utility.yul\":3415:3422   */\n      dup9\n        /* \"#utility.yul\":3406:3412   */\n      dup3\n        /* \"#utility.yul\":3395:3404   */\n      dup10\n        /* \"#utility.yul\":3391:3413   */\n      add\n        /* \"#utility.yul\":3343:3423   */\n      tag_46\n      jump\t// in\n    tag_143:\n        /* \"#utility.yul\":3325:3423   */\n      swap4\n      pop\n      swap4\n      pop\n        /* \"#utility.yul\":3120:3433   */\n      pop\n        /* \"#utility.yul\":3500:3502   */\n      0x60\n        /* \"#utility.yul\":3489:3498   */\n      dup7\n        /* \"#utility.yul\":3485:3503   */\n      add\n        /* \"#utility.yul\":3472:3504   */\n      calldataload\n        /* \"#utility.yul\":3531:3549   */\n      0xffffffffffffffff\n        /* \"#utility.yul\":3523:3529   */\n      dup2\n        /* \"#utility.yul\":3520:3550   */\n      gt\n        /* \"#utility.yul\":3517:3634   */\n      iszero\n      tag_144\n      jumpi\n        /* \"#utility.yul\":3553:3632   */\n      tag_145\n      tag_35\n      jump\t// in\n    tag_145:\n        /* \"#utility.yul\":3517:3634   */\n    tag_144:\n        /* \"#utility.yul\":3658:3736   */\n      tag_146\n        /* \"#utility.yul\":3728:3735   */\n      dup9\n        /* \"#utility.yul\":3719:3725   */\n      dup3\n        /* \"#utility.yul\":3708:3717   */\n      dup10\n        /* \"#utility.yul\":3704:3726   */\n      add\n        /* \"#utility.yul\":3658:3736   */\n      tag_48\n      jump\t// in\n    tag_146:\n        /* \"#utility.yul\":3648:3736   */\n      swap2\n      pop\n        /* \"#utility.yul\":3443:3746   */\n      pop\n        /* \"#utility.yul\":2548:3753   */\n      swap3\n      swap6\n      pop\n      swap3\n      swap6\n      swap1\n      swap4\n      pop\n      jump\t// out\n        /* \"#utility.yul\":3759:3857   */\n    tag_49:\n        /* \"#utility.yul\":3810:3816   */\n      0x00\n        /* \"#utility.yul\":3844:3849   */\n      dup2\n        /* \"#utility.yul\":3838:3850   */\n      mload\n        /* \"#utility.yul\":3828:3850   */\n      swap1\n      pop\n        /* \"#utility.yul\":3759:3857   */\n      swap2\n      swap1\n      pop\n      jump\t// out\n        /* \"#utility.yul\":3863:4031   */\n    tag_50:\n        /* \"#utility.yul\":3946:3957   */\n      0x00\n        /* \"#utility.yul\":3980:3986   */\n      dup3\n        /* \"#utility.yul\":3975:3978   */\n      dup3\n        /* \"#utility.yul\":3968:3987   */\n      mstore\n        /* \"#utility.yul\":4020:4024   */\n      0x20\n        /* \"#utility.yul\":4015:4018   */\n      dup3\n        /* \"#utility.yul\":4011:4025   */\n      add\n        /* \"#utility.yul\":3996:4025   */\n      swap1\n      pop\n        /* \"#utility.yul\":3863:4031   */\n      swap3\n      swap2\n      pop\n      pop\n      jump\t// out\n        /* \"#utility.yul\":4037:4283   */\n    tag_51:\n        /* \"#utility.yul\":4118:4119   */\n      0x00\n        /* \"#utility.yul\":4128:4241   */\n    tag_150:\n        /* \"#utility.yul\":4142:4148   */\n      dup4\n        /* \"#utility.yul\":4139:4140   */\n      dup2\n        /* \"#utility.yul\":4136:4149   */\n      lt\n        /* \"#utility.yul\":4128:4241   */\n      iszero\n      tag_152\n      jumpi\n        /* \"#utility.yul\":4227:4228   */\n      dup1\n        /* \"#utility.yul\":4222:4225   */\n      dup3\n        /* \"#utility.yul\":4218:4229   */\n      add\n        /* \"#utility.yul\":4212:4230   */\n      mload\n        /* \"#utility.yul\":4208:4209   */\n      dup2\n        /* \"#utility.yul\":4203:4206   */\n      dup5\n        /* \"#utility.yul\":4199:4210   */\n      add\n        /* \"#utility.yul\":4192:4231   */\n      mstore\n        /* \"#utility.yul\":4164:4166   */\n      0x20\n        /* \"#utility.yul\":4161:4162   */\n      dup2\n        /* \"#utility.yul\":4157:4167   */\n      add\n        /* \"#utility.yul\":4152:4167   */\n      swap1\n      pop\n        /* \"#utility.yul\":4128:4241   */\n      jump(tag_150)\n    tag_152:\n        /* \"#utility.yul\":4275:4276   */\n      0x00\n        /* \"#utility.yul\":4266:4272   */\n      dup5\n        /* \"#utility.yul\":4261:4264   */\n      dup5\n        /* \"#utility.yul\":4257:4273   */\n      add\n        /* \"#utility.yul\":4250:4277   */\n      mstore\n        /* \"#utility.yul\":4099:4283   */\n      pop\n        /* \"#utility.yul\":4037:4283   */\n      pop\n      pop\n      pop\n      jump\t// out\n        /* \"#utility.yul\":4289:4391   */\n    tag_52:\n        /* \"#utility.yul\":4330:4336   */\n      0x00\n        /* \"#utility.yul\":4381:4383   */\n      0x1f\n        /* \"#utility.yul\":4377:4384   */\n      not\n        /* \"#utility.yul\":4372:4374   */\n      0x1f\n        /* \"#utility.yul\":4365:4370   */\n      dup4\n        /* \"#utility.yul\":4361:4375   */\n      add\n        /* \"#utility.yul\":4357:4385   */\n      and\n        /* \"#utility.yul\":4347:4385   */\n      swap1\n      pop\n        /* \"#utility.yul\":4289:4391   */\n      swap2\n      swap1\n      pop\n      jump\t// out\n        /* \"#utility.yul\":4397:4770   */\n    tag_53:\n        /* \"#utility.yul\":4483:4486   */\n      0x00\n        /* \"#utility.yul\":4511:4549   */\n      tag_155\n        /* \"#utility.yul\":4543:4548   */\n      dup3\n        /* \"#utility.yul\":4511:4549   */\n      tag_49\n      jump\t// in\n    tag_155:\n        /* \"#utility.yul\":4565:4635   */\n      tag_156\n        /* \"#utility.yul\":4628:4634   */\n      dup2\n        /* \"#utility.yul\":4623:4626   */\n      dup6\n        /* \"#utility.yul\":4565:4635   */\n      tag_50\n      jump\t// in\n    tag_156:\n        /* \"#utility.yul\":4558:4635   */\n      swap4\n      pop\n        /* \"#utility.yul\":4644:4709   */\n      tag_157\n        /* \"#utility.yul\":4702:4708   */\n      dup2\n        /* \"#utility.yul\":4697:4700   */\n      dup6\n        /* \"#utility.yul\":4690:4694   */\n      0x20\n        /* \"#utility.yul\":4683:4688   */\n      dup7\n        /* \"#utility.yul\":4679:4695   */\n      add\n        /* \"#utility.yul\":4644:4709   */\n      tag_51\n      jump\t// in\n    tag_157:\n        /* \"#utility.yul\":4734:4763   */\n      tag_158\n        /* \"#utility.yul\":4756:4762   */\n      dup2\n        /* \"#utility.yul\":4734:4763   */\n      tag_52\n      jump\t// in\n    tag_158:\n        /* \"#utility.yul\":4729:4732   */\n      dup5\n        /* \"#utility.yul\":4725:4764   */\n      add\n        /* \"#utility.yul\":4718:4764   */\n      swap2\n      pop\n        /* \"#utility.yul\":4487:4770   */\n      pop\n        /* \"#utility.yul\":4397:4770   */\n      swap3\n      swap2\n      pop\n      pop\n      jump\t// out\n        /* \"#utility.yul\":4776:5085   */\n    tag_11:\n        /* \"#utility.yul\":4887:4891   */\n      0x00\n        /* \"#utility.yul\":4925:4927   */\n      0x20\n        /* \"#utility.yul\":4914:4923   */\n      dup3\n        /* \"#utility.yul\":4910:4928   */\n      add\n        /* \"#utility.yul\":4902:4928   */\n      swap1\n      pop\n        /* \"#utility.yul\":4974:4983   */\n      dup2\n        /* \"#utility.yul\":4968:4972   */\n      dup2\n        /* \"#utility.yul\":4964:4984   */\n      sub\n        /* \"#utility.yul\":4960:4961   */\n      0x00\n        /* \"#utility.yul\":4949:4958   */\n      dup4\n        /* \"#utility.yul\":4945:4962   */\n      add\n        /* \"#utility.yul\":4938:4985   */\n      mstore\n        /* \"#utility.yul\":5002:5078   */\n      tag_160\n        /* \"#utility.yul\":5073:5077   */\n      dup2\n        /* \"#utility.yul\":5064:5070   */\n      dup5\n        /* \"#utility.yul\":5002:5078   */\n      tag_53\n      jump\t// in\n    tag_160:\n        /* \"#utility.yul\":4994:5078   */\n      swap1\n      pop\n        /* \"#utility.yul\":4776:5085   */\n      swap3\n      swap2\n      pop\n      pop\n      jump\t// out\n        /* \"#utility.yul\":5104:5656   */\n    tag_54:\n        /* \"#utility.yul\":5161:5169   */\n      0x00\n        /* \"#utility.yul\":5171:5177   */\n      dup1\n        /* \"#utility.yul\":5221:5224   */\n      dup4\n        /* \"#utility.yul\":5214:5218   */\n      0x1f\n        /* \"#utility.yul\":5206:5212   */\n      dup5\n        /* \"#utility.yul\":5202:5219   */\n      add\n        /* \"#utility.yul\":5198:5225   */\n      slt\n        /* \"#utility.yul\":5188:5310   */\n      tag_162\n      jumpi\n        /* \"#utility.yul\":5229:5308   */\n      tag_163\n      tag_43\n      jump\t// in\n    tag_163:\n        /* \"#utility.yul\":5188:5310   */\n    tag_162:\n        /* \"#utility.yul\":5342:5348   */\n      dup3\n        /* \"#utility.yul\":5329:5349   */\n      calldataload\n        /* \"#utility.yul\":5319:5349   */\n      swap1\n      pop\n        /* \"#utility.yul\":5372:5390   */\n      0xffffffffffffffff\n        /* \"#utility.yul\":5364:5370   */\n      dup2\n        /* \"#utility.yul\":5361:5391   */\n      gt\n        /* \"#utility.yul\":5358:5475   */\n      iszero\n      tag_164\n      jumpi\n        /* \"#utility.yul\":5394:5473   */\n      tag_165\n      tag_44\n      jump\t// in\n    tag_165:\n        /* \"#utility.yul\":5358:5475   */\n    tag_164:\n        /* \"#utility.yul\":5508:5512   */\n      0x20\n        /* \"#utility.yul\":5500:5506   */\n      dup4\n        /* \"#utility.yul\":5496:5513   */\n      add\n        /* \"#utility.yul\":5484:5513   */\n      swap2\n      pop\n        /* \"#utility.yul\":5562:5565   */\n      dup4\n        /* \"#utility.yul\":5554:5558   */\n      0x01\n        /* \"#utility.yul\":5546:5552   */\n      dup3\n        /* \"#utility.yul\":5542:5559   */\n      mul\n        /* \"#utility.yul\":5532:5540   */\n      dup4\n        /* \"#utility.yul\":5528:5560   */\n      add\n        /* \"#utility.yul\":5525:5566   */\n      gt\n        /* \"#utility.yul\":5522:5650   */\n      iszero\n      tag_166\n      jumpi\n        /* \"#utility.yul\":5569:5648   */\n      tag_167\n      tag_45\n      jump\t// in\n    tag_167:\n        /* \"#utility.yul\":5522:5650   */\n    tag_166:\n        /* \"#utility.yul\":5104:5656   */\n      swap3\n      pop\n      swap3\n      swap1\n      pop\n      jump\t// out\n        /* \"#utility.yul\":5662:6189   */\n    tag_14:\n        /* \"#utility.yul\":5732:5738   */\n      0x00\n        /* \"#utility.yul\":5740:5746   */\n      dup1\n        /* \"#utility.yul\":5789:5791   */\n      0x20\n        /* \"#utility.yul\":5777:5786   */\n      dup4\n        /* \"#utility.yul\":5768:5775   */\n      dup6\n        /* \"#utility.yul\":5764:5787   */\n      sub\n        /* \"#utility.yul\":5760:5792   */\n      slt\n        /* \"#utility.yul\":5757:5876   */\n      iszero\n      tag_169\n      jumpi\n        /* \"#utility.yul\":5795:5874   */\n      tag_170\n      tag_34\n      jump\t// in\n    tag_170:\n        /* \"#utility.yul\":5757:5876   */\n    tag_169:\n        /* \"#utility.yul\":5943:5944   */\n      0x00\n        /* \"#utility.yul\":5932:5941   */\n      dup4\n        /* \"#utility.yul\":5928:5945   */\n      add\n        /* \"#utility.yul\":5915:5946   */\n      calldataload\n        /* \"#utility.yul\":5973:5991   */\n      0xffffffffffffffff\n        /* \"#utility.yul\":5965:5971   */\n      dup2\n        /* \"#utility.yul\":5962:5992   */\n      gt\n        /* \"#utility.yul\":5959:6076   */\n      iszero\n      tag_171\n      jumpi\n        /* \"#utility.yul\":5995:6074   */\n      tag_172\n      tag_35\n      jump\t// in\n    tag_172:\n        /* \"#utility.yul\":5959:6076   */\n    tag_171:\n        /* \"#utility.yul\":6108:6172   */\n      tag_173\n        /* \"#utility.yul\":6164:6171   */\n      dup6\n        /* \"#utility.yul\":6155:6161   */\n      dup3\n        /* \"#utility.yul\":6144:6153   */\n      dup7\n        /* \"#utility.yul\":6140:6162   */\n      add\n        /* \"#utility.yul\":6108:6172   */\n      tag_54\n      jump\t// in\n    tag_173:\n        /* \"#utility.yul\":6090:6172   */\n      swap3\n      pop\n      swap3\n      pop\n        /* \"#utility.yul\":5886:6182   */\n      pop\n        /* \"#utility.yul\":5662:6189   */\n      swap3\n      pop\n      swap3\n      swap1\n      pop\n      jump\t// out\n        /* \"#utility.yul\":6195:6313   */\n    tag_55:\n        /* \"#utility.yul\":6282:6306   */\n      tag_175\n        /* \"#utility.yul\":6300:6305   */\n      dup2\n        /* \"#utility.yul\":6282:6306   */\n      tag_36\n      jump\t// in\n    tag_175:\n        /* \"#utility.yul\":6277:6280   */\n      dup3\n        /* \"#utility.yul\":6270:6307   */\n      mstore\n        /* \"#utility.yul\":6195:6313   */\n      pop\n      pop\n      jump\t// out\n        /* \"#utility.yul\":6319:6437   */\n    tag_56:\n        /* \"#utility.yul\":6406:6430   */\n      tag_177\n        /* \"#utility.yul\":6424:6429   */\n      dup2\n        /* \"#utility.yul\":6406:6430   */\n      tag_40\n      jump\t// in\n    tag_177:\n        /* \"#utility.yul\":6401:6404   */\n      dup3\n        /* \"#utility.yul\":6394:6431   */\n      mstore\n        /* \"#utility.yul\":6319:6437   */\n      pop\n      pop\n      jump\t// out\n        /* \"#utility.yul\":6443:6557   */\n    tag_57:\n        /* \"#utility.yul\":6510:6516   */\n      0x00\n        /* \"#utility.yul\":6544:6549   */\n      dup2\n        /* \"#utility.yul\":6538:6550   */\n      mload\n        /* \"#utility.yul\":6528:6550   */\n      swap1\n      pop\n        /* \"#utility.yul\":6443:6557   */\n      swap2\n      swap1\n      pop\n      jump\t// out\n        /* \"#utility.yul\":6563:6747   */\n    tag_58:\n        /* \"#utility.yul\":6662:6673   */\n      0x00\n        /* \"#utility.yul\":6696:6702   */\n      dup3\n        /* \"#utility.yul\":6691:6694   */\n      dup3\n        /* \"#utility.yul\":6684:6703   */\n      mstore\n        /* \"#utility.yul\":6736:6740   */\n      0x20\n        /* \"#utility.yul\":6731:6734   */\n      dup3\n        /* \"#utility.yul\":6727:6741   */\n      add\n        /* \"#utility.yul\":6712:6741   */\n      swap1\n      pop\n        /* \"#utility.yul\":6563:6747   */\n      swap3\n      swap2\n      pop\n      pop\n      jump\t// out\n        /* \"#utility.yul\":6753:6885   */\n    tag_59:\n        /* \"#utility.yul\":6820:6824   */\n      0x00\n        /* \"#utility.yul\":6843:6846   */\n      dup2\n        /* \"#utility.yul\":6835:6846   */\n      swap1\n      pop\n        /* \"#utility.yul\":6873:6877   */\n      0x20\n        /* \"#utility.yul\":6868:6871   */\n      dup3\n        /* \"#utility.yul\":6864:6878   */\n      add\n        /* \"#utility.yul\":6856:6878   */\n      swap1\n      pop\n        /* \"#utility.yul\":6753:6885   */\n      swap2\n      swap1\n      pop\n      jump\t// out\n        /* \"#utility.yul\":6891:6999   */\n    tag_60:\n        /* \"#utility.yul\":6968:6992   */\n      tag_182\n        /* \"#utility.yul\":6986:6991   */\n      dup2\n        /* \"#utility.yul\":6968:6992   */\n      tag_36\n      jump\t// in\n    tag_182:\n        /* \"#utility.yul\":6963:6966   */\n      dup3\n        /* \"#utility.yul\":6956:6993   */\n      mstore\n        /* \"#utility.yul\":6891:6999   */\n      pop\n      pop\n      jump\t// out\n        /* \"#utility.yul\":7005:7184   */\n    tag_61:\n        /* \"#utility.yul\":7074:7084   */\n      0x00\n        /* \"#utility.yul\":7095:7141   */\n      tag_184\n        /* \"#utility.yul\":7137:7140   */\n      dup4\n        /* \"#utility.yul\":7129:7135   */\n      dup4\n        /* \"#utility.yul\":7095:7141   */\n      tag_60\n      jump\t// in\n    tag_184:\n        /* \"#utility.yul\":7173:7177   */\n      0x20\n        /* \"#utility.yul\":7168:7171   */\n      dup4\n        /* \"#utility.yul\":7164:7178   */\n      add\n        /* \"#utility.yul\":7150:7178   */\n      swap1\n      pop\n        /* \"#utility.yul\":7005:7184   */\n      swap3\n      swap2\n      pop\n      pop\n      jump\t// out\n        /* \"#utility.yul\":7190:7303   */\n    tag_62:\n        /* \"#utility.yul\":7260:7264   */\n      0x00\n        /* \"#utility.yul\":7292:7296   */\n      0x20\n        /* \"#utility.yul\":7287:7290   */\n      dup3\n        /* \"#utility.yul\":7283:7297   */\n      add\n        /* \"#utility.yul\":7275:7297   */\n      swap1\n      pop\n        /* \"#utility.yul\":7190:7303   */\n      swap2\n      swap1\n      pop\n      jump\t// out\n        /* \"#utility.yul\":7339:8071   */\n    tag_63:\n        /* \"#utility.yul\":7458:7461   */\n      0x00\n        /* \"#utility.yul\":7487:7541   */\n      tag_187\n        /* \"#utility.yul\":7535:7540   */\n      dup3\n        /* \"#utility.yul\":7487:7541   */\n      tag_57\n      jump\t// in\n    tag_187:\n        /* \"#utility.yul\":7557:7643   */\n      tag_188\n        /* \"#utility.yul\":7636:7642   */\n      dup2\n        /* \"#utility.yul\":7631:7634   */\n      dup6\n        /* \"#utility.yul\":7557:7643   */\n      tag_58\n      jump\t// in\n    tag_188:\n        /* \"#utility.yul\":7550:7643   */\n      swap4\n      pop\n        /* \"#utility.yul\":7667:7723   */\n      tag_189\n        /* \"#utility.yul\":7717:7722   */\n      dup4\n        /* \"#utility.yul\":7667:7723   */\n      tag_59\n      jump\t// in\n    tag_189:\n        /* \"#utility.yul\":7746:7753   */\n      dup1\n        /* \"#utility.yul\":7777:7778   */\n      0x00\n        /* \"#utility.yul\":7762:8046   */\n    tag_190:\n        /* \"#utility.yul\":7787:7793   */\n      dup4\n        /* \"#utility.yul\":7784:7785   */\n      dup2\n        /* \"#utility.yul\":7781:7794   */\n      lt\n        /* \"#utility.yul\":7762:8046   */\n      iszero\n      tag_192\n      jumpi\n        /* \"#utility.yul\":7863:7869   */\n      dup2\n        /* \"#utility.yul\":7857:7870   */\n      mload\n        /* \"#utility.yul\":7890:7953   */\n      tag_193\n        /* \"#utility.yul\":7949:7952   */\n      dup9\n        /* \"#utility.yul\":7934:7947   */\n      dup3\n        /* \"#utility.yul\":7890:7953   */\n      tag_61\n      jump\t// in\n    tag_193:\n        /* \"#utility.yul\":7883:7953   */\n      swap8\n      pop\n        /* \"#utility.yul\":7976:8036   */\n      tag_194\n        /* \"#utility.yul\":8029:8035   */\n      dup4\n        /* \"#utility.yul\":7976:8036   */\n      tag_62\n      jump\t// in\n    tag_194:\n        /* \"#utility.yul\":7966:8036   */\n      swap3\n      pop\n        /* \"#utility.yul\":7822:8046   */\n      pop\n        /* \"#utility.yul\":7809:7810   */\n      0x01\n        /* \"#utility.yul\":7806:7807   */\n      dup2\n        /* \"#utility.yul\":7802:7811   */\n      add\n        /* \"#utility.yul\":7797:7811   */\n      swap1\n      pop\n        /* \"#utility.yul\":7762:8046   */\n      jump(tag_190)\n    tag_192:\n        /* \"#utility.yul\":7766:7780   */\n      pop\n        /* \"#utility.yul\":8062:8065   */\n      dup6\n        /* \"#utility.yul\":8055:8065   */\n      swap4\n      pop\n        /* \"#utility.yul\":7463:8071   */\n      pop\n      pop\n      pop\n        /* \"#utility.yul\":7339:8071   */\n      swap3\n      swap2\n      pop\n      pop\n      jump\t// out\n        /* \"#utility.yul\":8077:8176   */\n    tag_64:\n        /* \"#utility.yul\":8129:8135   */\n      0x00\n        /* \"#utility.yul\":8163:8168   */\n      dup2\n        /* \"#utility.yul\":8157:8169   */\n      mload\n        /* \"#utility.yul\":8147:8169   */\n      swap1\n      pop\n        /* \"#utility.yul\":8077:8176   */\n      swap2\n      swap1\n      pop\n      jump\t// out\n        /* \"#utility.yul\":8182:8341   */\n    tag_65:\n        /* \"#utility.yul\":8256:8267   */\n      0x00\n        /* \"#utility.yul\":8290:8296   */\n      dup3\n        /* \"#utility.yul\":8285:8288   */\n      dup3\n        /* \"#utility.yul\":8278:8297   */\n      mstore\n        /* \"#utility.yul\":8330:8334   */\n      0x20\n        /* \"#utility.yul\":8325:8328   */\n      dup3\n        /* \"#utility.yul\":8321:8335   */\n      add\n        /* \"#utility.yul\":8306:8335   */\n      swap1\n      pop\n        /* \"#utility.yul\":8182:8341   */\n      swap3\n      swap2\n      pop\n      pop\n      jump\t// out\n        /* \"#utility.yul\":8347:8704   */\n    tag_66:\n        /* \"#utility.yul\":8425:8428   */\n      0x00\n        /* \"#utility.yul\":8453:8492   */\n      tag_198\n        /* \"#utility.yul\":8486:8491   */\n      dup3\n        /* \"#utility.yul\":8453:8492   */\n      tag_64\n      jump\t// in\n    tag_198:\n        /* \"#utility.yul\":8508:8569   */\n      tag_199\n        /* \"#utility.yul\":8562:8568   */\n      dup2\n        /* \"#utility.yul\":8557:8560   */\n      dup6\n        /* \"#utility.yul\":8508:8569   */\n      tag_65\n      jump\t// in\n    tag_199:\n        /* \"#utility.yul\":8501:8569   */\n      swap4\n      pop\n        /* \"#utility.yul\":8578:8643   */\n      tag_200\n        /* \"#utility.yul\":8636:8642   */\n      dup2\n        /* \"#utility.yul\":8631:8634   */\n      dup6\n        /* \"#utility.yul\":8624:8628   */\n      0x20\n        /* \"#utility.yul\":8617:8622   */\n      dup7\n        /* \"#utility.yul\":8613:8629   */\n      add\n        /* \"#utility.yul\":8578:8643   */\n      tag_51\n      jump\t// in\n    tag_200:\n        /* \"#utility.yul\":8668:8697   */\n      tag_201\n        /* \"#utility.yul\":8690:8696   */\n      dup2\n        /* \"#utility.yul\":8668:8697   */\n      tag_52\n      jump\t// in\n    tag_201:\n        /* \"#utility.yul\":8663:8666   */\n      dup5\n        /* \"#utility.yul\":8659:8698   */\n      add\n        /* \"#utility.yul\":8652:8698   */\n      swap2\n      pop\n        /* \"#utility.yul\":8429:8704   */\n      pop\n        /* \"#utility.yul\":8347:8704   */\n      swap3\n      swap2\n      pop\n      pop\n      jump\t// out\n        /* \"#utility.yul\":8710:8814   */\n    tag_67:\n        /* \"#utility.yul\":8775:8781   */\n      0x00\n        /* \"#utility.yul\":8803:8807   */\n      0x02\n        /* \"#utility.yul\":8793:8807   */\n      swap1\n      pop\n        /* \"#utility.yul\":8710:8814   */\n      swap2\n      swap1\n      pop\n      jump\t// out\n        /* \"#utility.yul\":8820:8953   */\n    tag_68:\n        /* \"#utility.yul\":8907:8918   */\n      0x00\n        /* \"#utility.yul\":8944:8947   */\n      dup2\n        /* \"#utility.yul\":8929:8947   */\n      swap1\n      pop\n        /* \"#utility.yul\":8820:8953   */\n      swap3\n      swap2\n      pop\n      pop\n      jump\t// out\n        /* \"#utility.yul\":8959:9057   */\n    tag_69:\n        /* \"#utility.yul\":9024:9028   */\n      0x00\n        /* \"#utility.yul\":9047:9050   */\n      dup2\n        /* \"#utility.yul\":9039:9050   */\n      swap1\n      pop\n        /* \"#utility.yul\":8959:9057   */\n      swap2\n      swap1\n      pop\n      jump\t// out\n        /* \"#utility.yul\":9063:9174   */\n    tag_70:\n        /* \"#utility.yul\":9131:9135   */\n      0x00\n        /* \"#utility.yul\":9163:9167   */\n      0x20\n        /* \"#utility.yul\":9158:9161   */\n      dup3\n        /* \"#utility.yul\":9154:9168   */\n      add\n        /* \"#utility.yul\":9146:9168   */\n      swap1\n      pop\n        /* \"#utility.yul\":9063:9174   */\n      swap2\n      swap1\n      pop\n      jump\t// out\n        /* \"#utility.yul\":9212:9886   */\n    tag_71:\n        /* \"#utility.yul\":9338:9390   */\n      tag_207\n        /* \"#utility.yul\":9384:9389   */\n      dup2\n        /* \"#utility.yul\":9338:9390   */\n      tag_67\n      jump\t// in\n    tag_207:\n        /* \"#utility.yul\":9406:9480   */\n      tag_208\n        /* \"#utility.yul\":9473:9479   */\n      dup2\n        /* \"#utility.yul\":9468:9471   */\n      dup5\n        /* \"#utility.yul\":9406:9480   */\n      tag_68\n      jump\t// in\n    tag_208:\n        /* \"#utility.yul\":9399:9480   */\n      swap3\n      pop\n        /* \"#utility.yul\":9504:9558   */\n      tag_209\n        /* \"#utility.yul\":9552:9557   */\n      dup3\n        /* \"#utility.yul\":9504:9558   */\n      tag_69\n      jump\t// in\n    tag_209:\n        /* \"#utility.yul\":9581:9588   */\n      dup1\n        /* \"#utility.yul\":9612:9613   */\n      0x00\n        /* \"#utility.yul\":9597:9879   */\n    tag_210:\n        /* \"#utility.yul\":9622:9628   */\n      dup4\n        /* \"#utility.yul\":9619:9620   */\n      dup2\n        /* \"#utility.yul\":9616:9629   */\n      lt\n        /* \"#utility.yul\":9597:9879   */\n      iszero\n      tag_212\n      jumpi\n        /* \"#utility.yul\":9698:9704   */\n      dup2\n        /* \"#utility.yul\":9692:9705   */\n      mload\n        /* \"#utility.yul\":9725:9788   */\n      tag_213\n        /* \"#utility.yul\":9784:9787   */\n      dup8\n        /* \"#utility.yul\":9769:9782   */\n      dup3\n        /* \"#utility.yul\":9725:9788   */\n      tag_61\n      jump\t// in\n    tag_213:\n        /* \"#utility.yul\":9718:9788   */\n      swap7\n      pop\n        /* \"#utility.yul\":9811:9869   */\n      tag_214\n        /* \"#utility.yul\":9862:9868   */\n      dup4\n        /* \"#utility.yul\":9811:9869   */\n      tag_70\n      jump\t// in\n    tag_214:\n        /* \"#utility.yul\":9801:9869   */\n      swap3\n      pop\n        /* \"#utility.yul\":9657:9879   */\n      pop\n        /* \"#utility.yul\":9644:9645   */\n      0x01\n        /* \"#utility.yul\":9641:9642   */\n      dup2\n        /* \"#utility.yul\":9637:9646   */\n      add\n        /* \"#utility.yul\":9632:9646   */\n      swap1\n      pop\n        /* \"#utility.yul\":9597:9879   */\n      jump(tag_210)\n    tag_212:\n        /* \"#utility.yul\":9601:9615   */\n      pop\n        /* \"#utility.yul\":9314:9886   */\n      pop\n      pop\n      pop\n        /* \"#utility.yul\":9212:9886   */\n      pop\n      pop\n      jump\t// out\n        /* \"#utility.yul\":9954:10602   */\n    tag_72:\n        /* \"#utility.yul\":10069:10072   */\n      0x00\n        /* \"#utility.yul\":10105:10109   */\n      0x60\n        /* \"#utility.yul\":10100:10103   */\n      dup4\n        /* \"#utility.yul\":10096:10110   */\n      add\n        /* \"#utility.yul\":10192:10196   */\n      0x00\n        /* \"#utility.yul\":10185:10190   */\n      dup4\n        /* \"#utility.yul\":10181:10197   */\n      add\n        /* \"#utility.yul\":10175:10198   */\n      mload\n        /* \"#utility.yul\":10245:10248   */\n      dup5\n        /* \"#utility.yul\":10239:10243   */\n      dup3\n        /* \"#utility.yul\":10235:10249   */\n      sub\n        /* \"#utility.yul\":10228:10232   */\n      0x00\n        /* \"#utility.yul\":10223:10226   */\n      dup7\n        /* \"#utility.yul\":10219:10233   */\n      add\n        /* \"#utility.yul\":10212:10250   */\n      mstore\n        /* \"#utility.yul\":10271:10344   */\n      tag_216\n        /* \"#utility.yul\":10339:10343   */\n      dup3\n        /* \"#utility.yul\":10325:10337   */\n      dup3\n        /* \"#utility.yul\":10271:10344   */\n      tag_66\n      jump\t// in\n    tag_216:\n        /* \"#utility.yul\":10263:10344   */\n      swap2\n      pop\n        /* \"#utility.yul\":10120:10355   */\n      pop\n        /* \"#utility.yul\":10437:10441   */\n      0x20\n        /* \"#utility.yul\":10430:10435   */\n      dup4\n        /* \"#utility.yul\":10426:10442   */\n      add\n        /* \"#utility.yul\":10420:10443   */\n      mload\n        /* \"#utility.yul\":10456:10565   */\n      tag_217\n        /* \"#utility.yul\":10559:10563   */\n      0x20\n        /* \"#utility.yul\":10554:10557   */\n      dup7\n        /* \"#utility.yul\":10550:10564   */\n      add\n        /* \"#utility.yul\":10536:10548   */\n      dup3\n        /* \"#utility.yul\":10456:10565   */\n      tag_71\n      jump\t// in\n    tag_217:\n        /* \"#utility.yul\":10365:10575   */\n      pop\n        /* \"#utility.yul\":10592:10596   */\n      dup1\n        /* \"#utility.yul\":10585:10596   */\n      swap2\n      pop\n        /* \"#utility.yul\":10074:10602   */\n      pop\n        /* \"#utility.yul\":9954:10602   */\n      swap3\n      swap2\n      pop\n      pop\n      jump\t// out\n        /* \"#utility.yul\":10608:11455   */\n    tag_17:\n        /* \"#utility.yul\":10881:10885   */\n      0x00\n        /* \"#utility.yul\":10919:10922   */\n      0x80\n        /* \"#utility.yul\":10908:10917   */\n      dup3\n        /* \"#utility.yul\":10904:10923   */\n      add\n        /* \"#utility.yul\":10896:10923   */\n      swap1\n      pop\n        /* \"#utility.yul\":10933:11004   */\n      tag_219\n        /* \"#utility.yul\":11001:11002   */\n      0x00\n        /* \"#utility.yul\":10990:10999   */\n      dup4\n        /* \"#utility.yul\":10986:11003   */\n      add\n        /* \"#utility.yul\":10977:10983   */\n      dup8\n        /* \"#utility.yul\":10933:11004   */\n      tag_55\n      jump\t// in\n    tag_219:\n        /* \"#utility.yul\":11014:11086   */\n      tag_220\n        /* \"#utility.yul\":11082:11084   */\n      0x20\n        /* \"#utility.yul\":11071:11080   */\n      dup4\n        /* \"#utility.yul\":11067:11085   */\n      add\n        /* \"#utility.yul\":11058:11064   */\n      dup7\n        /* \"#utility.yul\":11014:11086   */\n      tag_56\n      jump\t// in\n    tag_220:\n        /* \"#utility.yul\":11133:11142   */\n      dup2\n        /* \"#utility.yul\":11127:11131   */\n      dup2\n        /* \"#utility.yul\":11123:11143   */\n      sub\n        /* \"#utility.yul\":11118:11120   */\n      0x40\n        /* \"#utility.yul\":11107:11116   */\n      dup4\n        /* \"#utility.yul\":11103:11121   */\n      add\n        /* \"#utility.yul\":11096:11144   */\n      mstore\n        /* \"#utility.yul\":11161:11269   */\n      tag_221\n        /* \"#utility.yul\":11264:11268   */\n      dup2\n        /* \"#utility.yul\":11255:11261   */\n      dup6\n        /* \"#utility.yul\":11161:11269   */\n      tag_63\n      jump\t// in\n    tag_221:\n        /* \"#utility.yul\":11153:11269   */\n      swap1\n      pop\n        /* \"#utility.yul\":11316:11325   */\n      dup2\n        /* \"#utility.yul\":11310:11314   */\n      dup2\n        /* \"#utility.yul\":11306:11326   */\n      sub\n        /* \"#utility.yul\":11301:11303   */\n      0x60\n        /* \"#utility.yul\":11290:11299   */\n      dup4\n        /* \"#utility.yul\":11286:11304   */\n      add\n        /* \"#utility.yul\":11279:11327   */\n      mstore\n        /* \"#utility.yul\":11344:11448   */\n      tag_222\n        /* \"#utility.yul\":11443:11447   */\n      dup2\n        /* \"#utility.yul\":11434:11440   */\n      dup5\n        /* \"#utility.yul\":11344:11448   */\n      tag_72\n      jump\t// in\n    tag_222:\n        /* \"#utility.yul\":11336:11448   */\n      swap1\n      pop\n        /* \"#utility.yul\":10608:11455   */\n      swap6\n      swap5\n      pop\n      pop\n      pop\n      pop\n      pop\n      jump\t// out\n        /* \"#utility.yul\":11461:11683   */\n    tag_21:\n        /* \"#utility.yul\":11554:11558   */\n      0x00\n        /* \"#utility.yul\":11592:11594   */\n      0x20\n        /* \"#utility.yul\":11581:11590   */\n      dup3\n        /* \"#utility.yul\":11577:11595   */\n      add\n        /* \"#utility.yul\":11569:11595   */\n      swap1\n      pop\n        /* \"#utility.yul\":11605:11676   */\n      tag_224\n        /* \"#utility.yul\":11673:11674   */\n      0x00\n        /* \"#utility.yul\":11662:11671   */\n      dup4\n        /* \"#utility.yul\":11658:11675   */\n      add\n        /* \"#utility.yul\":11649:11655   */\n      dup5\n        /* \"#utility.yul\":11605:11676   */\n      tag_55\n      jump\t// in\n    tag_224:\n        /* \"#utility.yul\":11461:11683   */\n      swap3\n      swap2\n      pop\n      pop\n      jump\t// out\n        /* \"#utility.yul\":11689:11806   */\n    tag_73:\n        /* \"#utility.yul\":11798:11799   */\n      0x00\n        /* \"#utility.yul\":11795:11796   */\n      dup1\n        /* \"#utility.yul\":11788:11800   */\n      revert\n        /* \"#utility.yul\":11812:11910   */\n    tag_74:\n        /* \"#utility.yul\":11896:11902   */\n      dup3\n        /* \"#utility.yul\":11891:11894   */\n      dup2\n        /* \"#utility.yul\":11886:11889   */\n      dup4\n        /* \"#utility.yul\":11873:11903   */\n      calldatacopy\n        /* \"#utility.yul\":11812:11910   */\n      pop\n      pop\n      pop\n      jump\t// out\n        /* \"#utility.yul\":11946:12483   */\n    tag_75:\n        /* \"#utility.yul\":12074:12077   */\n      0x00\n        /* \"#utility.yul\":12095:12181   */\n      tag_228\n        /* \"#utility.yul\":12174:12180   */\n      dup4\n        /* \"#utility.yul\":12169:12172   */\n      dup6\n        /* \"#utility.yul\":12095:12181   */\n      tag_58\n      jump\t// in\n    tag_228:\n        /* \"#utility.yul\":12088:12181   */\n      swap4\n      pop\n        /* \"#utility.yul\":12205:12271   */\n      0x07ffffffffffffffffffffffffffffffffffffffffffffffffffffffffffffff\n        /* \"#utility.yul\":12197:12203   */\n      dup4\n        /* \"#utility.yul\":12194:12272   */\n      gt\n        /* \"#utility.yul\":12191:12356   */\n      iszero\n      tag_229\n      jumpi\n        /* \"#utility.yul\":12275:12354   */\n      tag_230\n      tag_73\n      jump\t// in\n    tag_230:\n        /* \"#utility.yul\":12191:12356   */\n    tag_229:\n        /* \"#utility.yul\":12387:12391   */\n      0x20\n        /* \"#utility.yul\":12379:12385   */\n      dup4\n        /* \"#utility.yul\":12375:12392   */\n      mul\n        /* \"#utility.yul\":12365:12392   */\n      swap3\n      pop\n        /* \"#utility.yul\":12402:12445   */\n      tag_231\n        /* \"#utility.yul\":12438:12444   */\n      dup4\n        /* \"#utility.yul\":12433:12436   */\n      dup6\n        /* \"#utility.yul\":12426:12431   */\n      dup5\n        /* \"#utility.yul\":12402:12445   */\n      tag_74\n      jump\t// in\n    tag_231:\n        /* \"#utility.yul\":12470:12476   */\n      dup3\n        /* \"#utility.yul\":12465:12468   */\n      dup5\n        /* \"#utility.yul\":12461:12477   */\n      add\n        /* \"#utility.yul\":12454:12477   */\n      swap1\n      pop\n        /* \"#utility.yul\":11946:12483   */\n      swap4\n      swap3\n      pop\n      pop\n      pop\n      jump\t// out\n        /* \"#utility.yul\":12489:12606   */\n    tag_76:\n        /* \"#utility.yul\":12598:12599   */\n      0x00\n        /* \"#utility.yul\":12595:12596   */\n      dup1\n        /* \"#utility.yul\":12588:12600   */\n      revert\n        /* \"#utility.yul\":12612:12729   */\n    tag_77:\n        /* \"#utility.yul\":12721:12722   */\n      0x00\n        /* \"#utility.yul\":12718:12719   */\n      dup1\n        /* \"#utility.yul\":12711:12723   */\n      revert\n        /* \"#utility.yul\":12735:12852   */\n    tag_78:\n        /* \"#utility.yul\":12844:12845   */\n      0x00\n        /* \"#utility.yul\":12841:12842   */\n      dup1\n        /* \"#utility.yul\":12834:12846   */\n      revert\n        /* \"#utility.yul\":12858:13570   */\n    tag_79:\n        /* \"#utility.yul\":12923:12928   */\n      0x00\n        /* \"#utility.yul\":12930:12936   */\n      dup1\n        /* \"#utility.yul\":12986:12989   */\n      dup4\n        /* \"#utility.yul\":12973:12990   */\n      calldataload\n        /* \"#utility.yul\":13078:13079   */\n      0x01\n        /* \"#utility.yul\":13072:13076   */\n      0x20\n        /* \"#utility.yul\":13068:13080   */\n      sub\n        /* \"#utility.yul\":13057:13065   */\n      dup5\n        /* \"#utility.yul\":13041:13055   */\n      calldatasize\n        /* \"#utility.yul\":13037:13066   */\n      sub\n        /* \"#utility.yul\":13033:13081   */\n      sub\n        /* \"#utility.yul\":13013:13031   */\n      dup2\n        /* \"#utility.yul\":13009:13082   */\n      slt\n        /* \"#utility.yul\":12999:13167   */\n      tag_236\n      jumpi\n        /* \"#utility.yul\":13086:13165   */\n      tag_237\n      tag_78\n      jump\t// in\n    tag_237:\n        /* \"#utility.yul\":12999:13167   */\n    tag_236:\n        /* \"#utility.yul\":13209:13217   */\n      dup4\n        /* \"#utility.yul\":13189:13207   */\n      dup2\n        /* \"#utility.yul\":13185:13218   */\n      add\n        /* \"#utility.yul\":13176:13218   */\n      swap3\n      pop\n        /* \"#utility.yul\":13251:13256   */\n      dup3\n        /* \"#utility.yul\":13238:13257   */\n      calldataload\n        /* \"#utility.yul\":13228:13257   */\n      swap2\n      pop\n        /* \"#utility.yul\":13286:13290   */\n      0x20\n        /* \"#utility.yul\":13279:13284   */\n      dup4\n        /* \"#utility.yul\":13275:13291   */\n      add\n        /* \"#utility.yul\":13266:13291   */\n      swap3\n      pop\n        /* \"#utility.yul\":13314:13332   */\n      0xffffffffffffffff\n        /* \"#utility.yul\":13306:13312   */\n      dup3\n        /* \"#utility.yul\":13303:13333   */\n      gt\n        /* \"#utility.yul\":13300:13417   */\n      iszero\n      tag_238\n      jumpi\n        /* \"#utility.yul\":13336:13415   */\n      tag_239\n      tag_76\n      jump\t// in\n    tag_239:\n        /* \"#utility.yul\":13300:13417   */\n    tag_238:\n        /* \"#utility.yul\":13472:13476   */\n      0x01\n        /* \"#utility.yul\":13464:13470   */\n      dup3\n        /* \"#utility.yul\":13460:13477   */\n      mul\n        /* \"#utility.yul\":13444:13458   */\n      calldatasize\n        /* \"#utility.yul\":13440:13478   */\n      sub\n        /* \"#utility.yul\":13433:13438   */\n      dup4\n        /* \"#utility.yul\":13429:13479   */\n      sgt\n        /* \"#utility.yul\":13426:13563   */\n      iszero\n      tag_240\n      jumpi\n        /* \"#utility.yul\":13482:13561   */\n      tag_241\n      tag_77\n      jump\t// in\n    tag_241:\n        /* \"#utility.yul\":13426:13563   */\n    tag_240:\n        /* \"#utility.yul\":12937:13570   */\n      pop\n        /* \"#utility.yul\":12858:13570   */\n      swap3\n      pop\n      swap3\n      swap1\n      pop\n      jump\t// out\n        /* \"#utility.yul\":13576:13722   */\n    tag_80:\n        /* \"#utility.yul\":13673:13679   */\n      dup3\n        /* \"#utility.yul\":13668:13671   */\n      dup2\n        /* \"#utility.yul\":13663:13666   */\n      dup4\n        /* \"#utility.yul\":13650:13680   */\n      calldatacopy\n        /* \"#utility.yul\":13714:13715   */\n      0x00\n        /* \"#utility.yul\":13705:13711   */\n      dup4\n        /* \"#utility.yul\":13700:13703   */\n      dup4\n        /* \"#utility.yul\":13696:13712   */\n      add\n        /* \"#utility.yul\":13689:13716   */\n      mstore\n        /* \"#utility.yul\":13576:13722   */\n      pop\n      pop\n      pop\n      jump\t// out\n        /* \"#utility.yul\":13752:14049   */\n    tag_81:\n        /* \"#utility.yul\":13840:13843   */\n      0x00\n        /* \"#utility.yul\":13861:13922   */\n      tag_244\n        /* \"#utility.yul\":13915:13921   */\n      dup4\n        /* \"#utility.yul\":13910:13913   */\n      dup6\n        /* \"#utility.yul\":13861:13922   */\n      tag_65\n      jump\t// in\n    tag_244:\n        /* \"#utility.yul\":13854:13922   */\n      swap4\n      pop\n        /* \"#utility.yul\":13932:13988   */\n      tag_245\n        /* \"#utility.yul\":13981:13987   */\n      dup4\n        /* \"#utility.yul\":13976:13979   */\n      dup6\n        /* \"#utility.yul\":13969:13974   */\n      dup5\n        /* \"#utility.yul\":13932:13988   */\n      tag_80\n      jump\t// in\n    tag_245:\n        /* \"#utility.yul\":14013:14042   */\n      tag_246\n        /* \"#utility.yul\":14035:14041   */\n      dup4\n        /* \"#utility.yul\":14013:14042   */\n      tag_52\n      jump\t// in\n    tag_246:\n        /* \"#utility.yul\":14008:14011   */\n      dup5\n        /* \"#utility.yul\":14004:14043   */\n      add\n        /* \"#utility.yul\":13997:14043   */\n      swap1\n      pop\n        /* \"#utility.yul\":13752:14049   */\n      swap4\n      swap3\n      pop\n      pop\n      pop\n      jump\t// out\n        /* \"#utility.yul\":14055:14166   */\n    tag_82:\n        /* \"#utility.yul\":14132:14137   */\n      0x00\n        /* \"#utility.yul\":14157:14160   */\n      dup3\n        /* \"#utility.yul\":14148:14160   */\n      swap1\n      pop\n        /* \"#utility.yul\":14055:14166   */\n      swap3\n      swap2\n      pop\n      pop\n      jump\t// out\n        /* \"#utility.yul\":14204:14364   */\n    tag_83:\n        /* \"#utility.yul\":14317:14358   */\n      tag_249\n        /* \"#utility.yul\":14353:14357   */\n      0x40\n        /* \"#utility.yul\":14348:14351   */\n      dup4\n        /* \"#utility.yul\":14341:14346   */\n      dup4\n        /* \"#utility.yul\":14317:14358   */\n      tag_74\n      jump\t// in\n    tag_249:\n        /* \"#utility.yul\":14204:14364   */\n      pop\n      pop\n      jump\t// out\n        /* \"#utility.yul\":14432:15205   */\n    tag_84:\n        /* \"#utility.yul\":14549:14552   */\n      0x00\n        /* \"#utility.yul\":14585:14589   */\n      0x60\n        /* \"#utility.yul\":14580:14583   */\n      dup4\n        /* \"#utility.yul\":14576:14590   */\n      add\n        /* \"#utility.yul\":14669:14731   */\n      tag_251\n        /* \"#utility.yul\":14725:14729   */\n      0x00\n        /* \"#utility.yul\":14718:14723   */\n      dup5\n        /* \"#utility.yul\":14714:14730   */\n      add\n        /* \"#utility.yul\":14707:14712   */\n      dup5\n        /* \"#utility.yul\":14669:14731   */\n      tag_79\n      jump\t// in\n    tag_251:\n        /* \"#utility.yul\":14778:14781   */\n      dup6\n        /* \"#utility.yul\":14772:14776   */\n      dup4\n        /* \"#utility.yul\":14768:14782   */\n      sub\n        /* \"#utility.yul\":14761:14765   */\n      0x00\n        /* \"#utility.yul\":14756:14759   */\n      dup8\n        /* \"#utility.yul\":14752:14766   */\n      add\n        /* \"#utility.yul\":14745:14783   */\n      mstore\n        /* \"#utility.yul\":14804:14893   */\n      tag_252\n        /* \"#utility.yul\":14888:14892   */\n      dup4\n        /* \"#utility.yul\":14874:14886   */\n      dup3\n        /* \"#utility.yul\":14860:14872   */\n      dup5\n        /* \"#utility.yul\":14804:14893   */\n      tag_81\n      jump\t// in\n    tag_252:\n        /* \"#utility.yul\":14796:14893   */\n      swap3\n      pop\n        /* \"#utility.yul\":14600:14904   */\n      pop\n      pop\n        /* \"#utility.yul\":14969:15044   */\n      tag_253\n        /* \"#utility.yul\":15038:15042   */\n      0x20\n        /* \"#utility.yul\":15031:15036   */\n      dup5\n        /* \"#utility.yul\":15027:15043   */\n      add\n        /* \"#utility.yul\":15020:15025   */\n      dup5\n        /* \"#utility.yul\":14969:15044   */\n      tag_82\n      jump\t// in\n    tag_253:\n        /* \"#utility.yul\":15057:15168   */\n      tag_254\n        /* \"#utility.yul\":15162:15166   */\n      0x20\n        /* \"#utility.yul\":15157:15160   */\n      dup7\n        /* \"#utility.yul\":15153:15167   */\n      add\n        /* \"#utility.yul\":15139:15151   */\n      dup3\n        /* \"#utility.yul\":15057:15168   */\n      tag_83\n      jump\t// in\n    tag_254:\n        /* \"#utility.yul\":14914:15178   */\n      pop\n        /* \"#utility.yul\":15195:15199   */\n      dup1\n        /* \"#utility.yul\":15188:15199   */\n      swap2\n      pop\n        /* \"#utility.yul\":14554:15205   */\n      pop\n        /* \"#utility.yul\":14432:15205   */\n      swap3\n      swap2\n      pop\n      pop\n      jump\t// out\n        /* \"#utility.yul\":15211:16082   */\n    tag_24:\n        /* \"#utility.yul\":15496:15500   */\n      0x00\n        /* \"#utility.yul\":15534:15537   */\n      0x80\n        /* \"#utility.yul\":15523:15532   */\n      dup3\n        /* \"#utility.yul\":15519:15538   */\n      add\n        /* \"#utility.yul\":15511:15538   */\n      swap1\n      pop\n        /* \"#utility.yul\":15548:15619   */\n      tag_256\n        /* \"#utility.yul\":15616:15617   */\n      0x00\n        /* \"#utility.yul\":15605:15614   */\n      dup4\n        /* \"#utility.yul\":15601:15618   */\n      add\n        /* \"#utility.yul\":15592:15598   */\n      dup9\n        /* \"#utility.yul\":15548:15619   */\n      tag_55\n      jump\t// in\n    tag_256:\n        /* \"#utility.yul\":15629:15701   */\n      tag_257\n        /* \"#utility.yul\":15697:15699   */\n      0x20\n        /* \"#utility.yul\":15686:15695   */\n      dup4\n        /* \"#utility.yul\":15682:15700   */\n      add\n        /* \"#utility.yul\":15673:15679   */\n      dup8\n        /* \"#utility.yul\":15629:15701   */\n      tag_56\n      jump\t// in\n    tag_257:\n        /* \"#utility.yul\":15748:15757   */\n      dup2\n        /* \"#utility.yul\":15742:15746   */\n      dup2\n        /* \"#utility.yul\":15738:15758   */\n      sub\n        /* \"#utility.yul\":15733:15735   */\n      0x40\n        /* \"#utility.yul\":15722:15731   */\n      dup4\n        /* \"#utility.yul\":15718:15736   */\n      add\n        /* \"#utility.yul\":15711:15759   */\n      mstore\n        /* \"#utility.yul\":15776:15894   */\n      tag_258\n        /* \"#utility.yul\":15889:15893   */\n      dup2\n        /* \"#utility.yul\":15880:15886   */\n      dup6\n        /* \"#utility.yul\":15872:15878   */\n      dup8\n        /* \"#utility.yul\":15776:15894   */\n      tag_75\n      jump\t// in\n    tag_258:\n        /* \"#utility.yul\":15768:15894   */\n      swap1\n      pop\n        /* \"#utility.yul\":15941:15950   */\n      dup2\n        /* \"#utility.yul\":15935:15939   */\n      dup2\n        /* \"#utility.yul\":15931:15951   */\n      sub\n        /* \"#utility.yul\":15926:15928   */\n      0x60\n        /* \"#utility.yul\":15915:15924   */\n      dup4\n        /* \"#utility.yul\":15911:15929   */\n      add\n        /* \"#utility.yul\":15904:15952   */\n      mstore\n        /* \"#utility.yul\":15969:16075   */\n      tag_259\n        /* \"#utility.yul\":16070:16074   */\n      dup2\n        /* \"#utility.yul\":16061:16067   */\n      dup5\n        /* \"#utility.yul\":15969:16075   */\n      tag_84\n      jump\t// in\n    tag_259:\n        /* \"#utility.yul\":15961:16075   */\n      swap1\n      pop\n        /* \"#utility.yul\":15211:16082   */\n      swap7\n      swap6\n      pop\n      pop\n      pop\n      pop\n      pop\n      pop\n      jump\t// out\n        /* \"#utility.yul\":16088:16192   */\n    tag_85:\n        /* \"#utility.yul\":16133:16140   */\n      0x00\n        /* \"#utility.yul\":16162:16186   */\n      tag_261\n        /* \"#utility.yul\":16180:16185   */\n      dup3\n        /* \"#utility.yul\":16162:16186   */\n      tag_39\n      jump\t// in\n    tag_261:\n        /* \"#utility.yul\":16151:16186   */\n      swap1\n      pop\n        /* \"#utility.yul\":16088:16192   */\n      swap2\n      swap1\n      pop\n      jump\t// out\n        /* \"#utility.yul\":16198:16336   */\n    tag_86:\n        /* \"#utility.yul\":16279:16311   */\n      tag_263\n        /* \"#utility.yul\":16305:16310   */\n      dup2\n        /* \"#utility.yul\":16279:16311   */\n      tag_85\n      jump\t// in\n    tag_263:\n        /* \"#utility.yul\":16272:16277   */\n      dup2\n        /* \"#utility.yul\":16269:16312   */\n      eq\n        /* \"#utility.yul\":16259:16330   */\n      tag_264\n      jumpi\n        /* \"#utility.yul\":16326:16327   */\n      0x00\n        /* \"#utility.yul\":16323:16324   */\n      dup1\n        /* \"#utility.yul\":16316:16328   */\n      revert\n        /* \"#utility.yul\":16259:16330   */\n    tag_264:\n        /* \"#utility.yul\":16198:16336   */\n      pop\n      jump\t// out\n        /* \"#utility.yul\":16342:16497   */\n    tag_87:\n        /* \"#utility.yul\":16396:16401   */\n      0x00\n        /* \"#utility.yul\":16434:16440   */\n      dup2\n        /* \"#utility.yul\":16421:16441   */\n      calldataload\n        /* \"#utility.yul\":16412:16441   */\n      swap1\n      pop\n        /* \"#utility.yul\":16450:16491   */\n      tag_266\n        /* \"#utility.yul\":16485:16490   */\n      dup2\n        /* \"#utility.yul\":16450:16491   */\n      tag_86\n      jump\t// in\n    tag_266:\n        /* \"#utility.yul\":16342:16497   */\n      swap3\n      swap2\n      pop\n      pop\n      jump\t// out\n        /* \"#utility.yul\":16503:16683   */\n    tag_88:\n        /* \"#utility.yul\":16551:16628   */\n      0x4e487b7100000000000000000000000000000000000000000000000000000000\n        /* \"#utility.yul\":16548:16549   */\n      0x00\n        /* \"#utility.yul\":16541:16629   */\n      mstore\n        /* \"#utility.yul\":16648:16652   */\n      0x41\n        /* \"#utility.yul\":16645:16646   */\n      0x04\n        /* \"#utility.yul\":16638:16653   */\n      mstore\n        /* \"#utility.yul\":16672:16676   */\n      0x24\n        /* \"#utility.yul\":16669:16670   */\n      0x00\n        /* \"#utility.yul\":16662:16677   */\n      revert\n        /* \"#utility.yul\":16689:16970   */\n    tag_89:\n        /* \"#utility.yul\":16772:16799   */\n      tag_269\n        /* \"#utility.yul\":16794:16798   */\n      dup3\n        /* \"#utility.yul\":16772:16799   */\n      tag_52\n      jump\t// in\n    tag_269:\n        /* \"#utility.yul\":16764:16770   */\n      dup2\n        /* \"#utility.yul\":16760:16800   */\n      add\n        /* \"#utility.yul\":16902:16908   */\n      dup2\n        /* \"#utility.yul\":16890:16900   */\n      dup2\n        /* \"#utility.yul\":16887:16909   */\n      lt\n        /* \"#utility.yul\":16866:16884   */\n      0xffffffffffffffff\n        /* \"#utility.yul\":16854:16864   */\n      dup3\n        /* \"#utility.yul\":16851:16885   */\n      gt\n        /* \"#utility.yul\":16848:16910   */\n      or\n        /* \"#utility.yul\":16845:16933   */\n      iszero\n      tag_270\n      jumpi\n        /* \"#utility.yul\":16913:16931   */\n      tag_271\n      tag_88\n      jump\t// in\n    tag_271:\n        /* \"#utility.yul\":16845:16933   */\n    tag_270:\n        /* \"#utility.yul\":16953:16963   */\n      dup1\n        /* \"#utility.yul\":16949:16951   */\n      0x40\n        /* \"#utility.yul\":16942:16964   */\n      mstore\n        /* \"#utility.yul\":16732:16970   */\n      pop\n        /* \"#utility.yul\":16689:16970   */\n      pop\n      pop\n      jump\t// out\n        /* \"#utility.yul\":16976:17105   */\n    tag_90:\n        /* \"#utility.yul\":17010:17016   */\n      0x00\n        /* \"#utility.yul\":17037:17057   */\n      tag_273\n      tag_33\n      jump\t// in\n    tag_273:\n        /* \"#utility.yul\":17027:17057   */\n      swap1\n      pop\n        /* \"#utility.yul\":17066:17099   */\n      tag_274\n        /* \"#utility.yul\":17094:17098   */\n      dup3\n        /* \"#utility.yul\":17086:17092   */\n      dup3\n        /* \"#utility.yul\":17066:17099   */\n      tag_89\n      jump\t// in\n    tag_274:\n        /* \"#utility.yul\":16976:17105   */\n      swap2\n      swap1\n      pop\n      jump\t// out\n        /* \"#utility.yul\":17111:17422   */\n    tag_91:\n        /* \"#utility.yul\":17188:17192   */\n      0x00\n        /* \"#utility.yul\":17278:17296   */\n      0xffffffffffffffff\n        /* \"#utility.yul\":17270:17276   */\n      dup3\n        /* \"#utility.yul\":17267:17297   */\n      gt\n        /* \"#utility.yul\":17264:17320   */\n      iszero\n      tag_276\n      jumpi\n        /* \"#utility.yul\":17300:17318   */\n      tag_277\n      tag_88\n      jump\t// in\n    tag_277:\n        /* \"#utility.yul\":17264:17320   */\n    tag_276:\n        /* \"#utility.yul\":17350:17354   */\n      0x20\n        /* \"#utility.yul\":17342:17348   */\n      dup3\n        /* \"#utility.yul\":17338:17355   */\n      mul\n        /* \"#utility.yul\":17330:17355   */\n      swap1\n      pop\n        /* \"#utility.yul\":17410:17414   */\n      0x20\n        /* \"#utility.yul\":17404:17408   */\n      dup2\n        /* \"#utility.yul\":17400:17415   */\n      add\n        /* \"#utility.yul\":17392:17415   */\n      swap1\n      pop\n        /* \"#utility.yul\":17111:17422   */\n      swap2\n      swap1\n      pop\n      jump\t// out\n        /* \"#utility.yul\":17445:18155   */\n    tag_92:\n        /* \"#utility.yul\":17541:17546   */\n      0x00\n        /* \"#utility.yul\":17566:17647   */\n      tag_279\n        /* \"#utility.yul\":17582:17646   */\n      tag_280\n        /* \"#utility.yul\":17639:17645   */\n      dup5\n        /* \"#utility.yul\":17582:17646   */\n      tag_91\n      jump\t// in\n    tag_280:\n        /* \"#utility.yul\":17566:17647   */\n      tag_90\n      jump\t// in\n    tag_279:\n        /* \"#utility.yul\":17557:17647   */\n      swap1\n      pop\n        /* \"#utility.yul\":17667:17672   */\n      dup1\n        /* \"#utility.yul\":17696:17702   */\n      dup4\n        /* \"#utility.yul\":17689:17694   */\n      dup3\n        /* \"#utility.yul\":17682:17703   */\n      mstore\n        /* \"#utility.yul\":17730:17734   */\n      0x20\n        /* \"#utility.yul\":17723:17728   */\n      dup3\n        /* \"#utility.yul\":17719:17735   */\n      add\n        /* \"#utility.yul\":17712:17735   */\n      swap1\n      pop\n        /* \"#utility.yul\":17783:17787   */\n      0x20\n        /* \"#utility.yul\":17775:17781   */\n      dup5\n        /* \"#utility.yul\":17771:17788   */\n      mul\n        /* \"#utility.yul\":17763:17769   */\n      dup4\n        /* \"#utility.yul\":17759:17789   */\n      add\n        /* \"#utility.yul\":17812:17815   */\n      dup6\n        /* \"#utility.yul\":17804:17810   */\n      dup2\n        /* \"#utility.yul\":17801:17816   */\n      gt\n        /* \"#utility.yul\":17798:17920   */\n      iszero\n      tag_281\n      jumpi\n        /* \"#utility.yul\":17831:17910   */\n      tag_282\n      tag_45\n      jump\t// in\n    tag_282:\n        /* \"#utility.yul\":17798:17920   */\n    tag_281:\n        /* \"#utility.yul\":17946:17952   */\n      dup4\n        /* \"#utility.yul\":17929:18149   */\n    tag_283:\n        /* \"#utility.yul\":17963:17969   */\n      dup2\n        /* \"#utility.yul\":17958:17961   */\n      dup2\n        /* \"#utility.yul\":17955:17970   */\n      lt\n        /* \"#utility.yul\":17929:18149   */\n      iszero\n      tag_285\n      jumpi\n        /* \"#utility.yul\":18038:18041   */\n      dup1\n        /* \"#utility.yul\":18067:18104   */\n      tag_286\n        /* \"#utility.yul\":18100:18103   */\n      dup9\n        /* \"#utility.yul\":18088:18098   */\n      dup3\n        /* \"#utility.yul\":18067:18104   */\n      tag_38\n      jump\t// in\n    tag_286:\n        /* \"#utility.yul\":18062:18065   */\n      dup5\n        /* \"#utility.yul\":18055:18105   */\n      mstore\n        /* \"#utility.yul\":18134:18138   */\n      0x20\n        /* \"#utility.yul\":18129:18132   */\n      dup5\n        /* \"#utility.yul\":18125:18139   */\n      add\n        /* \"#utility.yul\":18118:18139   */\n      swap4\n      pop\n        /* \"#utility.yul\":18005:18149   */\n      pop\n        /* \"#utility.yul\":17989:17993   */\n      0x20\n        /* \"#utility.yul\":17984:17987   */\n      dup2\n        /* \"#utility.yul\":17980:17994   */\n      add\n        /* \"#utility.yul\":17973:17994   */\n      swap1\n      pop\n        /* \"#utility.yul\":17929:18149   */\n      jump(tag_283)\n    tag_285:\n        /* \"#utility.yul\":17933:17954   */\n      pop\n        /* \"#utility.yul\":17547:18155   */\n      pop\n      pop\n        /* \"#utility.yul\":17445:18155   */\n      swap4\n      swap3\n      pop\n      pop\n      pop\n      jump\t// out\n        /* \"#utility.yul\":18178:18548   */\n    tag_93:\n        /* \"#utility.yul\":18249:18254   */\n      0x00\n        /* \"#utility.yul\":18298:18301   */\n      dup3\n        /* \"#utility.yul\":18291:18295   */\n      0x1f\n        /* \"#utility.yul\":18283:18289   */\n      dup4\n        /* \"#utility.yul\":18279:18296   */\n      add\n        /* \"#utility.yul\":18275:18302   */\n      slt\n        /* \"#utility.yul\":18265:18387   */\n      tag_288\n      jumpi\n        /* \"#utility.yul\":18306:18385   */\n      tag_289\n      tag_43\n      jump\t// in\n    tag_289:\n        /* \"#utility.yul\":18265:18387   */\n    tag_288:\n        /* \"#utility.yul\":18423:18429   */\n      dup2\n        /* \"#utility.yul\":18410:18430   */\n      calldataload\n        /* \"#utility.yul\":18448:18542   */\n      tag_290\n        /* \"#utility.yul\":18538:18541   */\n      dup5\n        /* \"#utility.yul\":18530:18536   */\n      dup3\n        /* \"#utility.yul\":18523:18527   */\n      0x20\n        /* \"#utility.yul\":18515:18521   */\n      dup7\n        /* \"#utility.yul\":18511:18528   */\n      add\n        /* \"#utility.yul\":18448:18542   */\n      tag_92\n      jump\t// in\n    tag_290:\n        /* \"#utility.yul\":18439:18542   */\n      swap2\n      pop\n        /* \"#utility.yul\":18255:18548   */\n      pop\n        /* \"#utility.yul\":18178:18548   */\n      swap3\n      swap2\n      pop\n      pop\n      jump\t// out\n        /* \"#utility.yul\":18554:18671   */\n    tag_94:\n        /* \"#utility.yul\":18663:18664   */\n      0x00\n        /* \"#utility.yul\":18660:18661   */\n      dup1\n        /* \"#utility.yul\":18653:18665   */\n      revert\n        /* \"#utility.yul\":18677:18794   */\n    tag_95:\n        /* \"#utility.yul\":18786:18787   */\n      0x00\n        /* \"#utility.yul\":18783:18784   */\n      dup1\n        /* \"#utility.yul\":18776:18788   */\n      revert\n        /* \"#utility.yul\":18800:18917   */\n    tag_96:\n        /* \"#utility.yul\":18909:18910   */\n      0x00\n        /* \"#utility.yul\":18906:18907   */\n      dup1\n        /* \"#utility.yul\":18899:18911   */\n      revert\n        /* \"#utility.yul\":18923:19231   */\n    tag_97:\n        /* \"#utility.yul\":18985:18989   */\n      0x00\n        /* \"#utility.yul\":19075:19093   */\n      0xffffffffffffffff\n        /* \"#utility.yul\":19067:19073   */\n      dup3\n        /* \"#utility.yul\":19064:19094   */\n      gt\n        /* \"#utility.yul\":19061:19117   */\n      iszero\n      tag_295\n      jumpi\n        /* \"#utility.yul\":19097:19115   */\n      tag_296\n      tag_88\n      jump\t// in\n    tag_296:\n        /* \"#utility.yul\":19061:19117   */\n    tag_295:\n        /* \"#utility.yul\":19135:19164   */\n      tag_297\n        /* \"#utility.yul\":19157:19163   */\n      dup3\n        /* \"#utility.yul\":19135:19164   */\n      tag_52\n      jump\t// in\n    tag_297:\n        /* \"#utility.yul\":19127:19164   */\n      swap1\n      pop\n        /* \"#utility.yul\":19219:19223   */\n      0x20\n        /* \"#utility.yul\":19213:19217   */\n      dup2\n        /* \"#utility.yul\":19209:19224   */\n      add\n        /* \"#utility.yul\":19201:19224   */\n      swap1\n      pop\n        /* \"#utility.yul\":18923:19231   */\n      swap2\n      swap1\n      pop\n      jump\t// out\n        /* \"#utility.yul\":19237:19662   */\n    tag_98:\n        /* \"#utility.yul\":19315:19320   */\n      0x00\n        /* \"#utility.yul\":19340:19406   */\n      tag_299\n        /* \"#utility.yul\":19356:19405   */\n      tag_300\n        /* \"#utility.yul\":19398:19404   */\n      dup5\n        /* \"#utility.yul\":19356:19405   */\n      tag_97\n      jump\t// in\n    tag_300:\n        /* \"#utility.yul\":19340:19406   */\n      tag_90\n      jump\t// in\n    tag_299:\n        /* \"#utility.yul\":19331:19406   */\n      swap1\n      pop\n        /* \"#utility.yul\":19429:19435   */\n      dup3\n        /* \"#utility.yul\":19422:19427   */\n      dup2\n        /* \"#utility.yul\":19415:19436   */\n      mstore\n        /* \"#utility.yul\":19467:19471   */\n      0x20\n        /* \"#utility.yul\":19460:19465   */\n      dup2\n        /* \"#utility.yul\":19456:19472   */\n      add\n        /* \"#utility.yul\":19505:19508   */\n      dup5\n        /* \"#utility.yul\":19496:19502   */\n      dup5\n        /* \"#utility.yul\":19491:19494   */\n      dup5\n        /* \"#utility.yul\":19487:19503   */\n      add\n        /* \"#utility.yul\":19484:19509   */\n      gt\n        /* \"#utility.yul\":19481:19593   */\n      iszero\n      tag_301\n      jumpi\n        /* \"#utility.yul\":19512:19591   */\n      tag_302\n      tag_96\n      jump\t// in\n    tag_302:\n        /* \"#utility.yul\":19481:19593   */\n    tag_301:\n        /* \"#utility.yul\":19602:19656   */\n      tag_303\n        /* \"#utility.yul\":19649:19655   */\n      dup5\n        /* \"#utility.yul\":19644:19647   */\n      dup3\n        /* \"#utility.yul\":19639:19642   */\n      dup6\n        /* \"#utility.yul\":19602:19656   */\n      tag_80\n      jump\t// in\n    tag_303:\n        /* \"#utility.yul\":19321:19662   */\n      pop\n        /* \"#utility.yul\":19237:19662   */\n      swap4\n      swap3\n      pop\n      pop\n      pop\n      jump\t// out\n        /* \"#utility.yul\":19682:20022   */\n    tag_99:\n        /* \"#utility.yul\":19738:19743   */\n      0x00\n        /* \"#utility.yul\":19787:19790   */\n      dup3\n        /* \"#utility.yul\":19780:19784   */\n      0x1f\n        /* \"#utility.yul\":19772:19778   */\n      dup4\n        /* \"#utility.yul\":19768:19785   */\n      add\n        /* \"#utility.yul\":19764:19791   */\n      slt\n        /* \"#utility.yul\":19754:19876   */\n      tag_305\n      jumpi\n        /* \"#utility.yul\":19795:19874   */\n      tag_306\n      tag_43\n      jump\t// in\n    tag_306:\n        /* \"#utility.yul\":19754:19876   */\n    tag_305:\n        /* \"#utility.yul\":19912:19918   */\n      dup2\n        /* \"#utility.yul\":19899:19919   */\n      calldataload\n        /* \"#utility.yul\":19937:20016   */\n      tag_307\n        /* \"#utility.yul\":20012:20015   */\n      dup5\n        /* \"#utility.yul\":20004:20010   */\n      dup3\n        /* \"#utility.yul\":19997:20001   */\n      0x20\n        /* \"#utility.yul\":19989:19995   */\n      dup7\n        /* \"#utility.yul\":19985:20002   */\n      add\n        /* \"#utility.yul\":19937:20016   */\n      tag_98\n      jump\t// in\n    tag_307:\n        /* \"#utility.yul\":19928:20016   */\n      swap2\n      pop\n        /* \"#utility.yul\":19744:20022   */\n      pop\n        /* \"#utility.yul\":19682:20022   */\n      swap3\n      swap2\n      pop\n      pop\n      jump\t// out\n        /* \"#utility.yul\":20028:20277   */\n    tag_100:\n        /* \"#utility.yul\":20103:20107   */\n      0x00\n        /* \"#utility.yul\":20193:20211   */\n      0xffffffffffffffff\n        /* \"#utility.yul\":20185:20191   */\n      dup3\n        /* \"#utility.yul\":20182:20212   */\n      gt\n        /* \"#utility.yul\":20179:20235   */\n      iszero\n      tag_309\n      jumpi\n        /* \"#utility.yul\":20215:20233   */\n      tag_310\n      tag_88\n      jump\t// in\n    tag_310:\n        /* \"#utility.yul\":20179:20235   */\n    tag_309:\n        /* \"#utility.yul\":20265:20269   */\n      0x20\n        /* \"#utility.yul\":20257:20263   */\n      dup3\n        /* \"#utility.yul\":20253:20270   */\n      mul\n        /* \"#utility.yul\":20245:20270   */\n      swap1\n      pop\n        /* \"#utility.yul\":20028:20277   */\n      swap2\n      swap1\n      pop\n      jump\t// out\n        /* \"#utility.yul\":20301:20944   */\n    tag_101:\n        /* \"#utility.yul\":20395:20400   */\n      0x00\n        /* \"#utility.yul\":20420:20499   */\n      tag_312\n        /* \"#utility.yul\":20436:20498   */\n      tag_313\n        /* \"#utility.yul\":20491:20497   */\n      dup5\n        /* \"#utility.yul\":20436:20498   */\n      tag_100\n      jump\t// in\n    tag_313:\n        /* \"#utility.yul\":20420:20499   */\n      tag_90\n      jump\t// in\n    tag_312:\n        /* \"#utility.yul\":20411:20499   */\n      swap1\n      pop\n        /* \"#utility.yul\":20519:20524   */\n      dup1\n        /* \"#utility.yul\":20572:20576   */\n      0x20\n        /* \"#utility.yul\":20564:20570   */\n      dup5\n        /* \"#utility.yul\":20560:20577   */\n      mul\n        /* \"#utility.yul\":20552:20558   */\n      dup4\n        /* \"#utility.yul\":20548:20578   */\n      add\n        /* \"#utility.yul\":20601:20604   */\n      dup6\n        /* \"#utility.yul\":20593:20599   */\n      dup2\n        /* \"#utility.yul\":20590:20605   */\n      gt\n        /* \"#utility.yul\":20587:20709   */\n      iszero\n      tag_314\n      jumpi\n        /* \"#utility.yul\":20620:20699   */\n      tag_315\n      tag_45\n      jump\t// in\n    tag_315:\n        /* \"#utility.yul\":20587:20709   */\n    tag_314:\n        /* \"#utility.yul\":20735:20741   */\n      dup4\n        /* \"#utility.yul\":20718:20938   */\n    tag_316:\n        /* \"#utility.yul\":20752:20758   */\n      dup2\n        /* \"#utility.yul\":20747:20750   */\n      dup2\n        /* \"#utility.yul\":20744:20759   */\n      lt\n        /* \"#utility.yul\":20718:20938   */\n      iszero\n      tag_318\n      jumpi\n        /* \"#utility.yul\":20827:20830   */\n      dup1\n        /* \"#utility.yul\":20856:20893   */\n      tag_319\n        /* \"#utility.yul\":20889:20892   */\n      dup9\n        /* \"#utility.yul\":20877:20887   */\n      dup3\n        /* \"#utility.yul\":20856:20893   */\n      tag_38\n      jump\t// in\n    tag_319:\n        /* \"#utility.yul\":20851:20854   */\n      dup5\n        /* \"#utility.yul\":20844:20894   */\n      mstore\n        /* \"#utility.yul\":20923:20927   */\n      0x20\n        /* \"#utility.yul\":20918:20921   */\n      dup5\n        /* \"#utility.yul\":20914:20928   */\n      add\n        /* \"#utility.yul\":20907:20928   */\n      swap4\n      pop\n        /* \"#utility.yul\":20794:20938   */\n      pop\n        /* \"#utility.yul\":20778:20782   */\n      0x20\n        /* \"#utility.yul\":20773:20776   */\n      dup2\n        /* \"#utility.yul\":20769:20783   */\n      add\n        /* \"#utility.yul\":20762:20783   */\n      swap1\n      pop\n        /* \"#utility.yul\":20718:20938   */\n      jump(tag_316)\n    tag_318:\n        /* \"#utility.yul\":20722:20743   */\n      pop\n        /* \"#utility.yul\":20401:20944   */\n      pop\n      pop\n        /* \"#utility.yul\":20301:20944   */\n      swap4\n      swap3\n      pop\n      pop\n      pop\n      jump\t// out\n        /* \"#utility.yul\":20968:21307   */\n    tag_102:\n        /* \"#utility.yul\":21037:21042   */\n      0x00\n        /* \"#utility.yul\":21086:21089   */\n      dup3\n        /* \"#utility.yul\":21079:21083   */\n      0x1f\n        /* \"#utility.yul\":21071:21077   */\n      dup4\n        /* \"#utility.yul\":21067:21084   */\n      add\n        /* \"#utility.yul\":21063:21090   */\n      slt\n        /* \"#utility.yul\":21053:21175   */\n      tag_321\n      jumpi\n        /* \"#utility.yul\":21094:21173   */\n      tag_322\n      tag_43\n      jump\t// in\n    tag_322:\n        /* \"#utility.yul\":21053:21175   */\n    tag_321:\n        /* \"#utility.yul\":21198:21202   */\n      0x02\n        /* \"#utility.yul\":21220:21301   */\n      tag_323\n        /* \"#utility.yul\":21297:21300   */\n      dup5\n        /* \"#utility.yul\":21289:21295   */\n      dup3\n        /* \"#utility.yul\":21281:21287   */\n      dup6\n        /* \"#utility.yul\":21220:21301   */\n      tag_101\n      jump\t// in\n    tag_323:\n        /* \"#utility.yul\":21211:21301   */\n      swap2\n      pop\n        /* \"#utility.yul\":21043:21307   */\n      pop\n        /* \"#utility.yul\":20968:21307   */\n      swap3\n      swap2\n      pop\n      pop\n      jump\t// out\n        /* \"#utility.yul\":21346:22111   */\n    tag_103:\n        /* \"#utility.yul\":21418:21423   */\n      0x00\n        /* \"#utility.yul\":21462:21466   */\n      0x60\n        /* \"#utility.yul\":21450:21459   */\n      dup3\n        /* \"#utility.yul\":21445:21448   */\n      dup5\n        /* \"#utility.yul\":21441:21460   */\n      sub\n        /* \"#utility.yul\":21437:21467   */\n      slt\n        /* \"#utility.yul\":21434:21551   */\n      iszero\n      tag_325\n      jumpi\n        /* \"#utility.yul\":21470:21549   */\n      tag_326\n      tag_94\n      jump\t// in\n    tag_326:\n        /* \"#utility.yul\":21434:21551   */\n    tag_325:\n        /* \"#utility.yul\":21569:21590   */\n      tag_327\n        /* \"#utility.yul\":21585:21589   */\n      0x40\n        /* \"#utility.yul\":21569:21590   */\n      tag_90\n      jump\t// in\n    tag_327:\n        /* \"#utility.yul\":21560:21590   */\n      swap1\n      pop\n        /* \"#utility.yul\":21677:21678   */\n      0x00\n        /* \"#utility.yul\":21666:21675   */\n      dup3\n        /* \"#utility.yul\":21662:21679   */\n      add\n        /* \"#utility.yul\":21649:21680   */\n      calldataload\n        /* \"#utility.yul\":21707:21725   */\n      0xffffffffffffffff\n        /* \"#utility.yul\":21699:21705   */\n      dup2\n        /* \"#utility.yul\":21696:21726   */\n      gt\n        /* \"#utility.yul\":21693:21810   */\n      iszero\n      tag_328\n      jumpi\n        /* \"#utility.yul\":21729:21808   */\n      tag_329\n      tag_95\n      jump\t// in\n    tag_329:\n        /* \"#utility.yul\":21693:21810   */\n    tag_328:\n        /* \"#utility.yul\":21849:21908   */\n      tag_330\n        /* \"#utility.yul\":21904:21907   */\n      dup5\n        /* \"#utility.yul\":21895:21901   */\n      dup3\n        /* \"#utility.yul\":21884:21893   */\n      dup6\n        /* \"#utility.yul\":21880:21902   */\n      add\n        /* \"#utility.yul\":21849:21908   */\n      tag_99\n      jump\t// in\n    tag_330:\n        /* \"#utility.yul\":21842:21846   */\n      0x00\n        /* \"#utility.yul\":21835:21840   */\n      dup4\n        /* \"#utility.yul\":21831:21847   */\n      add\n        /* \"#utility.yul\":21824:21909   */\n      mstore\n        /* \"#utility.yul\":21600:21920   */\n      pop\n        /* \"#utility.yul\":21979:21981   */\n      0x20\n        /* \"#utility.yul\":22020:22092   */\n      tag_331\n        /* \"#utility.yul\":22088:22091   */\n      dup5\n        /* \"#utility.yul\":22079:22085   */\n      dup3\n        /* \"#utility.yul\":22068:22077   */\n      dup6\n        /* \"#utility.yul\":22064:22086   */\n      add\n        /* \"#utility.yul\":22020:22092   */\n      tag_102\n      jump\t// in\n    tag_331:\n        /* \"#utility.yul\":22013:22017   */\n      0x20\n        /* \"#utility.yul\":22006:22011   */\n      dup4\n        /* \"#utility.yul\":22002:22018   */\n      add\n        /* \"#utility.yul\":21995:22093   */\n      mstore\n        /* \"#utility.yul\":21930:22104   */\n      pop\n        /* \"#utility.yul\":21346:22111   */\n      swap3\n      swap2\n      pop\n      pop\n      jump\t// out\n        /* \"#utility.yul\":22117:23314   */\n    tag_29:\n        /* \"#utility.yul\":22259:22265   */\n      0x00\n        /* \"#utility.yul\":22267:22273   */\n      dup1\n        /* \"#utility.yul\":22275:22281   */\n      0x00\n        /* \"#utility.yul\":22283:22289   */\n      dup1\n        /* \"#utility.yul\":22332:22335   */\n      0x80\n        /* \"#utility.yul\":22320:22329   */\n      dup6\n        /* \"#utility.yul\":22311:22318   */\n      dup8\n        /* \"#utility.yul\":22307:22330   */\n      sub\n        /* \"#utility.yul\":22303:22336   */\n      slt\n        /* \"#utility.yul\":22300:22420   */\n      iszero\n      tag_333\n      jumpi\n        /* \"#utility.yul\":22339:22418   */\n      tag_334\n      tag_34\n      jump\t// in\n    tag_334:\n        /* \"#utility.yul\":22300:22420   */\n    tag_333:\n        /* \"#utility.yul\":22459:22460   */\n      0x00\n        /* \"#utility.yul\":22484:22537   */\n      tag_335\n        /* \"#utility.yul\":22529:22536   */\n      dup8\n        /* \"#utility.yul\":22520:22526   */\n      dup3\n        /* \"#utility.yul\":22509:22518   */\n      dup9\n        /* \"#utility.yul\":22505:22527   */\n      add\n        /* \"#utility.yul\":22484:22537   */\n      tag_38\n      jump\t// in\n    tag_335:\n        /* \"#utility.yul\":22474:22537   */\n      swap5\n      pop\n        /* \"#utility.yul\":22430:22547   */\n      pop\n        /* \"#utility.yul\":22586:22588   */\n      0x20\n        /* \"#utility.yul\":22612:22673   */\n      tag_336\n        /* \"#utility.yul\":22665:22672   */\n      dup8\n        /* \"#utility.yul\":22656:22662   */\n      dup3\n        /* \"#utility.yul\":22645:22654   */\n      dup9\n        /* \"#utility.yul\":22641:22663   */\n      add\n        /* \"#utility.yul\":22612:22673   */\n      tag_87\n      jump\t// in\n    tag_336:\n        /* \"#utility.yul\":22602:22673   */\n      swap4\n      pop\n        /* \"#utility.yul\":22557:22683   */\n      pop\n        /* \"#utility.yul\":22750:22752   */\n      0x40\n        /* \"#utility.yul\":22739:22748   */\n      dup6\n        /* \"#utility.yul\":22735:22753   */\n      add\n        /* \"#utility.yul\":22722:22754   */\n      calldataload\n        /* \"#utility.yul\":22781:22799   */\n      0xffffffffffffffff\n        /* \"#utility.yul\":22773:22779   */\n      dup2\n        /* \"#utility.yul\":22770:22800   */\n      gt\n        /* \"#utility.yul\":22767:22884   */\n      iszero\n      tag_337\n      jumpi\n        /* \"#utility.yul\":22803:22882   */\n      tag_338\n      tag_35\n      jump\t// in\n    tag_338:\n        /* \"#utility.yul\":22767:22884   */\n    tag_337:\n        /* \"#utility.yul\":22908:22986   */\n      tag_339\n        /* \"#utility.yul\":22978:22985   */\n      dup8\n        /* \"#utility.yul\":22969:22975   */\n      dup3\n        /* \"#utility.yul\":22958:22967   */\n      dup9\n        /* \"#utility.yul\":22954:22976   */\n      add\n        /* \"#utility.yul\":22908:22986   */\n      tag_93\n      jump\t// in\n    tag_339:\n        /* \"#utility.yul\":22898:22986   */\n      swap3\n      pop\n        /* \"#utility.yul\":22693:22996   */\n      pop\n        /* \"#utility.yul\":23063:23065   */\n      0x60\n        /* \"#utility.yul\":23052:23061   */\n      dup6\n        /* \"#utility.yul\":23048:23066   */\n      add\n        /* \"#utility.yul\":23035:23067   */\n      calldataload\n        /* \"#utility.yul\":23094:23112   */\n      0xffffffffffffffff\n        /* \"#utility.yul\":23086:23092   */\n      dup2\n        /* \"#utility.yul\":23083:23113   */\n      gt\n        /* \"#utility.yul\":23080:23197   */\n      iszero\n      tag_340\n      jumpi\n        /* \"#utility.yul\":23116:23195   */\n      tag_341\n      tag_35\n      jump\t// in\n    tag_341:\n        /* \"#utility.yul\":23080:23197   */\n    tag_340:\n        /* \"#utility.yul\":23221:23297   */\n      tag_342\n        /* \"#utility.yul\":23289:23296   */\n      dup8\n        /* \"#utility.yul\":23280:23286   */\n      dup3\n        /* \"#utility.yul\":23269:23278   */\n      dup9\n        /* \"#utility.yul\":23265:23287   */\n      add\n        /* \"#utility.yul\":23221:23297   */\n      tag_103\n      jump\t// in\n    tag_342:\n        /* \"#utility.yul\":23211:23297   */\n      swap2\n      pop\n        /* \"#utility.yul\":23006:23307   */\n      pop\n        /* \"#utility.yul\":22117:23314   */\n      swap3\n      swap6\n      swap2\n      swap5\n      pop\n      swap3\n      pop\n      jump\t// out\n\n    auxdata: 0xa264697066735822122040ed5a23555ba694d0dad31e39af05a5398d7d9469e1a72723ff494756dee38364736f6c63430008110033\n}\n",
				"bytecode": {
					"linkReferences": {},
					"object": "608060405234801561001057600080fd5b50610cf7806100206000396000f3fe608060405234801561001057600080fd5b50600436106100415760003560e01c80637049e08714610046578063e5c5e9a314610076578063f8a8fd6d146100a9575b600080fd5b610060600480360381019061005b91906102a9565b6100c7565b60405161006d91906103dd565b60405180910390f35b610090600480360381019061008b9190610455565b6100fc565b6040516100a09493929190610694565b60405180910390f35b6100b1610131565b6040516100be91906106e7565b60405180910390f35b606085858585856040516020016100e2959493929190610884565b604051602081830303815290604052905095945050505050565b6000806060610109610136565b85858101906101189190610c22565b8094508195508296508397505050505092959194509250565b600090565b604051806040016040528060608152602001610150610156565b81525090565b6040518060400160405280600290602082028036833780820191505090505090565b6000604051905090565b600080fd5b600080fd5b6000819050919050565b61019f8161018c565b81146101aa57600080fd5b50565b6000813590506101bc81610196565b92915050565b600073ffffffffffffffffffffffffffffffffffffffff82169050919050565b60006101ed826101c2565b9050919050565b6101fd816101e2565b811461020857600080fd5b50565b60008135905061021a816101f4565b92915050565b600080fd5b600080fd5b600080fd5b60008083601f84011261024557610244610220565b5b8235905067ffffffffffffffff81111561026257610261610225565b5b60208301915083602082028301111561027e5761027d61022a565b5b9250929050565b600080fd5b6000606082840312156102a05761029f610285565b5b81905092915050565b6000806000806000608086880312156102c5576102c4610182565b5b60006102d3888289016101ad565b95505060206102e48882890161020b565b945050604086013567ffffffffffffffff81111561030557610304610187565b5b6103118882890161022f565b9350935050606086013567ffffffffffffffff81111561033457610333610187565b5b6103408882890161028a565b9150509295509295909350565b600081519050919050565b600082825260208201905092915050565b60005b8381101561038757808201518184015260208101905061036c565b60008484015250505050565b6000601f19601f8301169050919050565b60006103af8261034d565b6103b98185610358565b93506103c9818560208601610369565b6103d281610393565b840191505092915050565b600060208201905081810360008301526103f781846103a4565b905092915050565b60008083601f84011261041557610414610220565b5b8235905067ffffffffffffffff81111561043257610431610225565b5b60208301915083600182028301111561044e5761044d61022a565b5b9250929050565b6000806020838503121561046c5761046b610182565b5b600083013567ffffffffffffffff81111561048a57610489610187565b5b610496858286016103ff565b92509250509250929050565b6104ab8161018c565b82525050565b6104ba816101e2565b82525050565b600081519050919050565b600082825260208201905092915050565b6000819050602082019050919050565b6104f58161018c565b82525050565b600061050783836104ec565b60208301905092915050565b6000602082019050919050565b600061052b826104c0565b61053581856104cb565b9350610540836104dc565b8060005b8381101561057157815161055888826104fb565b975061056383610513565b925050600181019050610544565b5085935050505092915050565b600081519050919050565b600082825260208201905092915050565b60006105a58261057e565b6105af8185610589565b93506105bf818560208601610369565b6105c881610393565b840191505092915050565b600060029050919050565b600081905092915050565b6000819050919050565b6000602082019050919050565b610609816105d3565b61061381846105de565b925061061e826105e9565b8060005b8381101561064f57815161063687826104fb565b9650610641836105f3565b925050600181019050610622565b505050505050565b60006060830160008301518482036000860152610674828261059a565b91505060208301516106896020860182610600565b508091505092915050565b60006080820190506106a960008301876104a2565b6106b660208301866104b1565b81810360408301526106c88185610520565b905081810360608301526106dc8184610657565b905095945050505050565b60006020820190506106fc60008301846104a2565b92915050565b600080fd5b82818337505050565b600061071c83856104cb565b93507f07ffffffffffffffffffffffffffffffffffffffffffffffffffffffffffffff83111561074f5761074e610702565b5b602083029250610760838584610707565b82840190509392505050565b600080fd5b600080fd5b600080fd5b6000808335600160200384360303811261079857610797610776565b5b83810192508235915060208301925067ffffffffffffffff8211156107c0576107bf61076c565b5b6001820236038313156107d6576107d5610771565b5b509250929050565b82818337600083830152505050565b60006107f98385610589565b93506108068385846107de565b61080f83610393565b840190509392505050565b600082905092915050565b61083160408383610707565b5050565b600060608301610848600084018461077b565b858303600087015261085b8382846107ed565b9250505061086c602084018461081a565b6108796020860182610825565b508091505092915050565b600060808201905061089960008301886104a2565b6108a660208301876104b1565b81810360408301526108b9818587610710565b905081810360608301526108cd8184610835565b90509695505050505050565b60006108e4826101c2565b9050919050565b6108f4816108d9565b81146108ff57600080fd5b50565b600081359050610911816108eb565b92915050565b7f4e487b7100000000000000000000000000000000000000000000000000000000600052604160045260246000fd5b61094f82610393565b810181811067ffffffffffffffff8211171561096e5761096d610917565b5b80604052505050565b6000610981610178565b905061098d8282610946565b919050565b600067ffffffffffffffff8211156109ad576109ac610917565b5b602082029050602081019050919050565b60006109d16109cc84610992565b610977565b905080838252602082019050602084028301858111156109f4576109f361022a565b5b835b81811015610a1d5780610a0988826101ad565b8452602084019350506020810190506109f6565b5050509392505050565b600082601f830112610a3c57610a3b610220565b5b8135610a4c8482602086016109be565b91505092915050565b600080fd5b600080fd5b600080fd5b600067ffffffffffffffff821115610a7f57610a7e610917565b5b610a8882610393565b9050602081019050919050565b6000610aa8610aa384610a64565b610977565b905082815260208101848484011115610ac457610ac3610a5f565b5b610acf8482856107de565b509392505050565b600082601f830112610aec57610aeb610220565b5b8135610afc848260208601610a95565b91505092915050565b600067ffffffffffffffff821115610b2057610b1f610917565b5b602082029050919050565b6000610b3e610b3984610b05565b610977565b90508060208402830185811115610b5857610b5761022a565b5b835b81811015610b815780610b6d88826101ad565b845260208401935050602081019050610b5a565b5050509392505050565b600082601f830112610ba057610b9f610220565b5b6002610bad848285610b2b565b91505092915050565b600060608284031215610bcc57610bcb610a55565b5b610bd66040610977565b9050600082013567ffffffffffffffff811115610bf657610bf5610a5a565b5b610c0284828501610ad7565b6000830152506020610c1684828501610b8b565b60208301525092915050565b60008060008060808587031215610c3c57610c3b610182565b5b6000610c4a878288016101ad565b9450506020610c5b87828801610902565b935050604085013567ffffffffffffffff811115610c7c57610c7b610187565b5b610c8887828801610a27565b925050606085013567ffffffffffffffff811115610ca957610ca8610187565b5b610cb587828801610bb6565b9150509295919450925056fea264697066735822122040ed5a23555ba694d0dad31e39af05a5398d7d9469e1a72723ff494756dee38364736f6c63430008110033",
					"opcodes": "PUSH1 0x80 PUSH1 0x40 MSTORE CALLVALUE DUP1 ISZERO PUSH2 0x10 JUMPI PUSH1 0x0 DUP1 REVERT JUMPDEST POP PUSH2 0xCF7 DUP1 PUSH2 0x20 PUSH1 0x0 CODECOPY PUSH1 0x0 RETURN INVALID PUSH1 0x80 PUSH1 0x40 MSTORE CALLVALUE DUP1 ISZERO PUSH2 0x10 JUMPI PUSH1 0x0 DUP1 REVERT JUMPDEST POP PUSH1 0x4 CALLDATASIZE LT PUSH2 0x41 JUMPI PUSH1 0x0 CALLDATALOAD PUSH1 0xE0 SHR DUP1 PUSH4 0x7049E087 EQ PUSH2 0x46 JUMPI DUP1 PUSH4 0xE5C5E9A3 EQ PUSH2 0x76 JUMPI DUP1 PUSH4 0xF8A8FD6D EQ PUSH2 0xA9 JUMPI JUMPDEST PUSH1 0x0 DUP1 REVERT JUMPDEST PUSH2 0x60 PUSH1 0x4 DUP1 CALLDATASIZE SUB DUP2 ADD SWAP1 PUSH2 0x5B SWAP2 SWAP1 PUSH2 0x2A9 JUMP JUMPDEST PUSH2 0xC7 JUMP JUMPDEST PUSH1 0x40 MLOAD PUSH2 0x6D SWAP2 SWAP1 PUSH2 0x3DD JUMP JUMPDEST PUSH1 0x40 MLOAD DUP1 SWAP2 SUB SWAP1 RETURN JUMPDEST PUSH2 0x90 PUSH1 0x4 DUP1 CALLDATASIZE SUB DUP2 ADD SWAP1 PUSH2 0x8B SWAP2 SWAP1 PUSH2 0x455 JUMP JUMPDEST PUSH2 0xFC JUMP JUMPDEST PUSH1 0x40 MLOAD PUSH2 0xA0 SWAP5 SWAP4 SWAP3 SWAP2 SWAP1 PUSH2 0x694 JUMP JUMPDEST PUSH1 0x40 MLOAD DUP1 SWAP2 SUB SWAP1 RETURN JUMPDEST PUSH2 0xB1 PUSH2 0x131 JUMP JUMPDEST PUSH1 0x40 MLOAD PUSH2 0xBE SWAP2 SWAP1 PUSH2 0x6E7 JUMP JUMPDEST PUSH1 0x40 MLOAD DUP1 SWAP2 SUB SWAP1 RETURN JUMPDEST PUSH1 0x60 DUP6 DUP6 DUP6 DUP6 DUP6 PUSH1 0x40 MLOAD PUSH1 0x20 ADD PUSH2 0xE2 SWAP6 SWAP5 SWAP4 SWAP3 SWAP2 SWAP1 PUSH2 0x884 JUMP JUMPDEST PUSH1 0x40 MLOAD PUSH1 0x20 DUP2 DUP4 SUB SUB DUP2 MSTORE SWAP1 PUSH1 0x40 MSTORE SWAP1 POP SWAP6 SWAP5 POP POP POP POP POP JUMP JUMPDEST PUSH1 0x0 DUP1 PUSH1 0x60 PUSH2 0x109 PUSH2 0x136 JUMP JUMPDEST DUP6 DUP6 DUP2 ADD SWAP1 PUSH2 0x118 SWAP2 SWAP1 PUSH2 0xC22 JUMP JUMPDEST DUP1 SWAP5 POP DUP2 SWAP6 POP DUP3 SWAP7 POP DUP4 SWAP8 POP POP POP POP POP SWAP3 SWAP6 SWAP2 SWAP5 POP SWAP3 POP JUMP JUMPDEST PUSH1 0x0 SWAP1 JUMP JUMPDEST PUSH1 0x40 MLOAD DUP1 PUSH1 0x40 ADD PUSH1 0x40 MSTORE DUP1 PUSH1 0x60 DUP2 MSTORE PUSH1 0x20 ADD PUSH2 0x150 PUSH2 0x156 JUMP JUMPDEST DUP2 MSTORE POP SWAP1 JUMP JUMPDEST PUSH1 0x40 MLOAD DUP1 PUSH1 0x40 ADD PUSH1 0x40 MSTORE DUP1 PUSH1 0x2 SWAP1 PUSH1 0x20 DUP3 MUL DUP1 CALLDATASIZE DUP4 CALLDATACOPY DUP1 DUP3 ADD SWAP2 POP POP SWAP1 POP POP SWAP1 JUMP JUMPDEST PUSH1 0x0 PUSH1 0x40 MLOAD SWAP1 POP SWAP1 JUMP JUMPDEST PUSH1 0x0 DUP1 REVERT JUMPDEST PUSH1 0x0 DUP1 REVERT JUMPDEST PUSH1 0x0 DUP2 SWAP1 POP SWAP2 SWAP1 POP JUMP JUMPDEST PUSH2 0x19F DUP2 PUSH2 0x18C JUMP JUMPDEST DUP2 EQ PUSH2 0x1AA JUMPI PUSH1 0x0 DUP1 REVERT JUMPDEST POP JUMP JUMPDEST PUSH1 0x0 DUP2 CALLDATALOAD SWAP1 POP PUSH2 0x1BC DUP2 PUSH2 0x196 JUMP JUMPDEST SWAP3 SWAP2 POP POP JUMP JUMPDEST PUSH1 0x0 PUSH20 0xFFFFFFFFFFFFFFFFFFFFFFFFFFFFFFFFFFFFFFFF DUP3 AND SWAP1 POP SWAP2 SWAP1 POP JUMP JUMPDEST PUSH1 0x0 PUSH2 0x1ED DUP3 PUSH2 0x1C2 JUMP JUMPDEST SWAP1 POP SWAP2 SWAP1 POP JUMP JUMPDEST PUSH2 0x1FD DUP2 PUSH2 0x1E2 JUMP JUMPDEST DUP2 EQ PUSH2 0x208 JUMPI PUSH1 0x0 DUP1 REVERT JUMPDEST POP JUMP JUMPDEST PUSH1 0x0 DUP2 CALLDATALOAD SWAP1 POP PUSH2 0x21A DUP2 PUSH2 0x1F4 JUMP JUMPDEST SWAP3 SWAP2 POP POP JUMP JUMPDEST PUSH1 0x0 DUP1 REVERT JUMPDEST PUSH1 0x0 DUP1 REVERT JUMPDEST PUSH1 0x0 DUP1 REVERT JUMPDEST PUSH1 0x0 DUP1 DUP4 PUSH1 0x1F DUP5 ADD SLT PUSH2 0x245 JUMPI PUSH2 0x244 PUSH2 0x220 JUMP JUMPDEST JUMPDEST DUP3 CALLDATALOAD SWAP1 POP PUSH8 0xFFFFFFFFFFFFFFFF DUP2 GT ISZERO PUSH2 0x262 JUMPI PUSH2 0x261 PUSH2 0x225 JUMP JUMPDEST JUMPDEST PUSH1 0x20 DUP4 ADD SWAP2 POP DUP4 PUSH1 0x20 DUP3 MUL DUP4 ADD GT ISZERO PUSH2 0x27E JUMPI PUSH2 0x27D PUSH2 0x22A JUMP JUMPDEST JUMPDEST SWAP3 POP SWAP3 SWAP1 POP JUMP JUMPDEST PUSH1 0x0 DUP1 REVERT JUMPDEST PUSH1 0x0 PUSH1 0x60 DUP3 DUP5 SUB SLT ISZERO PUSH2 0x2A0 JUMPI PUSH2 0x29F PUSH2 0x285 JUMP JUMPDEST JUMPDEST DUP2 SWAP1 POP SWAP3 SWAP2 POP POP JUMP JUMPDEST PUSH1 0x0 DUP1 PUSH1 0x0 DUP1 PUSH1 0x0 PUSH1 0x80 DUP7 DUP9 SUB SLT ISZERO PUSH2 0x2C5 JUMPI PUSH2 0x2C4 PUSH2 0x182 JUMP JUMPDEST JUMPDEST PUSH1 0x0 PUSH2 0x2D3 DUP9 DUP3 DUP10 ADD PUSH2 0x1AD JUMP JUMPDEST SWAP6 POP POP PUSH1 0x20 PUSH2 0x2E4 DUP9 DUP3 DUP10 ADD PUSH2 0x20B JUMP JUMPDEST SWAP5 POP POP PUSH1 0x40 DUP7 ADD CALLDATALOAD PUSH8 0xFFFFFFFFFFFFFFFF DUP2 GT ISZERO PUSH2 0x305 JUMPI PUSH2 0x304 PUSH2 0x187 JUMP JUMPDEST JUMPDEST PUSH2 0x311 DUP9 DUP3 DUP10 ADD PUSH2 0x22F JUMP JUMPDEST SWAP4 POP SWAP4 POP POP PUSH1 0x60 DUP7 ADD CALLDATALOAD PUSH8 0xFFFFFFFFFFFFFFFF DUP2 GT ISZERO PUSH2 0x334 JUMPI PUSH2 0x333 PUSH2 0x187 JUMP JUMPDEST JUMPDEST PUSH2 0x340 DUP9 DUP3 DUP10 ADD PUSH2 0x28A JUMP JUMPDEST SWAP2 POP POP SWAP3 SWAP6 POP SWAP3 SWAP6 SWAP1 SWAP4 POP JUMP JUMPDEST PUSH1 0x0 DUP2 MLOAD SWAP1 POP SWAP2 SWAP1 POP JUMP JUMPDEST PUSH1 0x0 DUP3 DUP3 MSTORE PUSH1 0x20 DUP3 ADD SWAP1 POP SWAP3 SWAP2 POP POP JUMP JUMPDEST PUSH1 0x0 JUMPDEST DUP4 DUP2 LT ISZERO PUSH2 0x387 JUMPI DUP1 DUP3 ADD MLOAD DUP2 DUP5 ADD MSTORE PUSH1 0x20 DUP2 ADD SWAP1 POP PUSH2 0x36C JUMP JUMPDEST PUSH1 0x0 DUP5 DUP5 ADD MSTORE POP POP POP POP JUMP JUMPDEST PUSH1 0x0 PUSH1 0x1F NOT PUSH1 0x1F DUP4 ADD AND SWAP1 POP SWAP2 SWAP1 POP JUMP JUMPDEST PUSH1 0x0 PUSH2 0x3AF DUP3 PUSH2 0x34D JUMP JUMPDEST PUSH2 0x3B9 DUP2 DUP6 PUSH2 0x358 JUMP JUMPDEST SWAP4 POP PUSH2 0x3C9 DUP2 DUP6 PUSH1 0x20 DUP7 ADD PUSH2 0x369 JUMP JUMPDEST PUSH2 0x3D2 DUP2 PUSH2 0x393 JUMP JUMPDEST DUP5 ADD SWAP2 POP POP SWAP3 SWAP2 POP POP JUMP JUMPDEST PUSH1 0x0 PUSH1 0x20 DUP3 ADD SWAP1 POP DUP2 DUP2 SUB PUSH1 0x0 DUP4 ADD MSTORE PUSH2 0x3F7 DUP2 DUP5 PUSH2 0x3A4 JUMP JUMPDEST SWAP1 POP SWAP3 SWAP2 POP POP JUMP JUMPDEST PUSH1 0x0 DUP1 DUP4 PUSH1 0x1F DUP5 ADD SLT PUSH2 0x415 JUMPI PUSH2 0x414 PUSH2 0x220 JUMP JUMPDEST JUMPDEST DUP3 CALLDATALOAD SWAP1 POP PUSH8 0xFFFFFFFFFFFFFFFF DUP2 GT ISZERO PUSH2 0x432 JUMPI PUSH2 0x431 PUSH2 0x225 JUMP JUMPDEST JUMPDEST PUSH1 0x20 DUP4 ADD SWAP2 POP DUP4 PUSH1 0x1 DUP3 MUL DUP4 ADD GT ISZERO PUSH2 0x44E JUMPI PUSH2 0x44D PUSH2 0x22A JUMP JUMPDEST JUMPDEST SWAP3 POP SWAP3 SWAP1 POP JUMP JUMPDEST PUSH1 0x0 DUP1 PUSH1 0x20 DUP4 DUP6 SUB SLT ISZERO PUSH2 0x46C JUMPI PUSH2 0x46B PUSH2 0x182 JUMP JUMPDEST JUMPDEST PUSH1 0x0 DUP4 ADD CALLDATALOAD PUSH8 0xFFFFFFFFFFFFFFFF DUP2 GT ISZERO PUSH2 0x48A JUMPI PUSH2 0x489 PUSH2 0x187 JUMP JUMPDEST JUMPDEST PUSH2 0x496 DUP6 DUP3 DUP7 ADD PUSH2 0x3FF JUMP JUMPDEST SWAP3 POP SWAP3 POP POP SWAP3 POP SWAP3 SWAP1 POP JUMP JUMPDEST PUSH2 0x4AB DUP2 PUSH2 0x18C JUMP JUMPDEST DUP3 MSTORE POP POP JUMP JUMPDEST PUSH2 0x4BA DUP2 PUSH2 0x1E2 JUMP JUMPDEST DUP3 MSTORE POP POP JUMP JUMPDEST PUSH1 0x0 DUP2 MLOAD SWAP1 POP SWAP2 SWAP1 POP JUMP JUMPDEST PUSH1 0x0 DUP3 DUP3 MSTORE PUSH1 0x20 DUP3 ADD SWAP1 POP SWAP3 SWAP2 POP POP JUMP JUMPDEST PUSH1 0x0 DUP2 SWAP1 POP PUSH1 0x20 DUP3 ADD SWAP1 POP SWAP2 SWAP1 POP JUMP JUMPDEST PUSH2 0x4F5 DUP2 PUSH2 0x18C JUMP JUMPDEST DUP3 MSTORE POP POP JUMP JUMPDEST PUSH1 0x0 PUSH2 0x507 DUP4 DUP4 PUSH2 0x4EC JUMP JUMPDEST PUSH1 0x20 DUP4 ADD SWAP1 POP SWAP3 SWAP2 POP POP JUMP JUMPDEST PUSH1 0x0 PUSH1 0x20 DUP3 ADD SWAP1 POP SWAP2 SWAP1 POP JUMP JUMPDEST PUSH1 0x0 PUSH2 0x52B DUP3 PUSH2 0x4C0 JUMP JUMPDEST PUSH2 0x535 DUP2 DUP6 PUSH2 0x4CB JUMP JUMPDEST SWAP4 POP PUSH2 0x540 DUP4 PUSH2 0x4DC JUMP JUMPDEST DUP1 PUSH1 0x0 JUMPDEST DUP4 DUP2 LT ISZERO PUSH2 0x571 JUMPI DUP2 MLOAD PUSH2 0x558 DUP9 DUP3 PUSH2 0x4FB JUMP JUMPDEST SWAP8 POP PUSH2 0x563 DUP4 PUSH2 0x513 JUMP JUMPDEST SWAP3 POP POP PUSH1 0x1 DUP2 ADD SWAP1 POP PUSH2 0x544 JUMP JUMPDEST POP DUP6 SWAP4 POP POP POP POP SWAP3 SWAP2 POP POP JUMP JUMPDEST PUSH1 0x0 DUP2 MLOAD SWAP1 POP SWAP2 SWAP1 POP JUMP JUMPDEST PUSH1 0x0 DUP3 DUP3 MSTORE PUSH1 0x20 DUP3 ADD SWAP1 POP SWAP3 SWAP2 POP POP JUMP JUMPDEST PUSH1 0x0 PUSH2 0x5A5 DUP3 PUSH2 0x57E JUMP JUMPDEST PUSH2 0x5AF DUP2 DUP6 PUSH2 0x589 JUMP JUMPDEST SWAP4 POP PUSH2 0x5BF DUP2 DUP6 PUSH1 0x20 DUP7 ADD PUSH2 0x369 JUMP JUMPDEST PUSH2 0x5C8 DUP2 PUSH2 0x393 JUMP JUMPDEST DUP5 ADD SWAP2 POP POP SWAP3 SWAP2 POP POP JUMP JUMPDEST PUSH1 0x0 PUSH1 0x2 SWAP1 POP SWAP2 SWAP1 POP JUMP JUMPDEST PUSH1 0x0 DUP2 SWAP1 POP SWAP3 SWAP2 POP POP JUMP JUMPDEST PUSH1 0x0 DUP2 SWAP1 POP SWAP2 SWAP1 POP JUMP JUMPDEST PUSH1 0x0 PUSH1 0x20 DUP3 ADD SWAP1 POP SWAP2 SWAP1 POP JUMP JUMPDEST PUSH2 0x609 DUP2 PUSH2 0x5D3 JUMP JUMPDEST PUSH2 0x613 DUP2 DUP5 PUSH2 0x5DE JUMP JUMPDEST SWAP3 POP PUSH2 0x61E DUP3 PUSH2 0x5E9 JUMP JUMPDEST DUP1 PUSH1 0x0 JUMPDEST DUP4 DUP2 LT ISZERO PUSH2 0x64F JUMPI DUP2 MLOAD PUSH2 0x636 DUP8 DUP3 PUSH2 0x4FB JUMP JUMPDEST SWAP7 POP PUSH2 0x641 DUP4 PUSH2 0x5F3 JUMP JUMPDEST SWAP3 POP POP PUSH1 0x1 DUP2 ADD SWAP1 POP PUSH2 0x622 JUMP JUMPDEST POP POP POP POP POP POP JUMP JUMPDEST PUSH1 0x0 PUSH1 0x60 DUP4 ADD PUSH1 0x0 DUP4 ADD MLOAD DUP5 DUP3 SUB PUSH1 0x0 DUP7 ADD MSTORE PUSH2 0x674 DUP3 DUP3 PUSH2 0x59A JUMP JUMPDEST SWAP2 POP POP PUSH1 0x20 DUP4 ADD MLOAD PUSH2 0x689 PUSH1 0x20 DUP7 ADD DUP3 PUSH2 0x600 JUMP JUMPDEST POP DUP1 SWAP2 POP POP SWAP3 SWAP2 POP POP JUMP JUMPDEST PUSH1 0x0 PUSH1 0x80 DUP3 ADD SWAP1 POP PUSH2 0x6A9 PUSH1 0x0 DUP4 ADD DUP8 PUSH2 0x4A2 JUMP JUMPDEST PUSH2 0x6B6 PUSH1 0x20 DUP4 ADD DUP7 PUSH2 0x4B1 JUMP JUMPDEST DUP2 DUP2 SUB PUSH1 0x40 DUP4 ADD MSTORE PUSH2 0x6C8 DUP2 DUP6 PUSH2 0x520 JUMP JUMPDEST SWAP1 POP DUP2 DUP2 SUB PUSH1 0x60 DUP4 ADD MSTORE PUSH2 0x6DC DUP2 DUP5 PUSH2 0x657 JUMP JUMPDEST SWAP1 POP SWAP6 SWAP5 POP POP POP POP POP JUMP JUMPDEST PUSH1 0x0 PUSH1 0x20 DUP3 ADD SWAP1 POP PUSH2 0x6FC PUSH1 0x0 DUP4 ADD DUP5 PUSH2 0x4A2 JUMP JUMPDEST SWAP3 SWAP2 POP POP JUMP JUMPDEST PUSH1 0x0 DUP1 REVERT JUMPDEST DUP3 DUP2 DUP4 CALLDATACOPY POP POP POP JUMP JUMPDEST PUSH1 0x0 PUSH2 0x71C DUP4 DUP6 PUSH2 0x4CB JUMP JUMPDEST SWAP4 POP PUSH32 0x7FFFFFFFFFFFFFFFFFFFFFFFFFFFFFFFFFFFFFFFFFFFFFFFFFFFFFFFFFFFFFF DUP4 GT ISZERO PUSH2 0x74F JUMPI PUSH2 0x74E PUSH2 0x702 JUMP JUMPDEST JUMPDEST PUSH1 0x20 DUP4 MUL SWAP3 POP PUSH2 0x760 DUP4 DUP6 DUP5 PUSH2 0x707 JUMP JUMPDEST DUP3 DUP5 ADD SWAP1 POP SWAP4 SWAP3 POP POP POP JUMP JUMPDEST PUSH1 0x0 DUP1 REVERT JUMPDEST PUSH1 0x0 DUP1 REVERT JUMPDEST PUSH1 0x0 DUP1 REVERT JUMPDEST PUSH1 0x0 DUP1 DUP4 CALLDATALOAD PUSH1 0x1 PUSH1 0x20 SUB DUP5 CALLDATASIZE SUB SUB DUP2 SLT PUSH2 0x798 JUMPI PUSH2 0x797 PUSH2 0x776 JUMP JUMPDEST JUMPDEST DUP4 DUP2 ADD SWAP3 POP DUP3 CALLDATALOAD SWAP2 POP PUSH1 0x20 DUP4 ADD SWAP3 POP PUSH8 0xFFFFFFFFFFFFFFFF DUP3 GT ISZERO PUSH2 0x7C0 JUMPI PUSH2 0x7BF PUSH2 0x76C JUMP JUMPDEST JUMPDEST PUSH1 0x1 DUP3 MUL CALLDATASIZE SUB DUP4 SGT ISZERO PUSH2 0x7D6 JUMPI PUSH2 0x7D5 PUSH2 0x771 JUMP JUMPDEST JUMPDEST POP SWAP3 POP SWAP3 SWAP1 POP JUMP JUMPDEST DUP3 DUP2 DUP4 CALLDATACOPY PUSH1 0x0 DUP4 DUP4 ADD MSTORE POP POP POP JUMP JUMPDEST PUSH1 0x0 PUSH2 0x7F9 DUP4 DUP6 PUSH2 0x589 JUMP JUMPDEST SWAP4 POP PUSH2 0x806 DUP4 DUP6 DUP5 PUSH2 0x7DE JUMP JUMPDEST PUSH2 0x80F DUP4 PUSH2 0x393 JUMP JUMPDEST DUP5 ADD SWAP1 POP SWAP4 SWAP3 POP POP POP JUMP JUMPDEST PUSH1 0x0 DUP3 SWAP1 POP SWAP3 SWAP2 POP POP JUMP JUMPDEST PUSH2 0x831 PUSH1 0x40 DUP4 DUP4 PUSH2 0x707 JUMP JUMPDEST POP POP JUMP JUMPDEST PUSH1 0x0 PUSH1 0x60 DUP4 ADD PUSH2 0x848 PUSH1 0x0 DUP5 ADD DUP5 PUSH2 0x77B JUMP JUMPDEST DUP6 DUP4 SUB PUSH1 0x0 DUP8 ADD MSTORE PUSH2 0x85B DUP4 DUP3 DUP5 PUSH2 0x7ED JUMP JUMPDEST SWAP3 POP POP POP PUSH2 0x86C PUSH1 0x20 DUP5 ADD DUP5 PUSH2 0x81A JUMP JUMPDEST PUSH2 0x879 PUSH1 0x20 DUP7 ADD DUP3 PUSH2 0x825 JUMP JUMPDEST POP DUP1 SWAP2 POP POP SWAP3 SWAP2 POP POP JUMP JUMPDEST PUSH1 0x0 PUSH1 0x80 DUP3 ADD SWAP1 POP PUSH2 0x899 PUSH1 0x0 DUP4 ADD DUP9 PUSH2 0x4A2 JUMP JUMPDEST PUSH2 0x8A6 PUSH1 0x20 DUP4 ADD DUP8 PUSH2 0x4B1 JUMP JUMPDEST DUP2 DUP2 SUB PUSH1 0x40 DUP4 ADD MSTORE PUSH2 0x8B9 DUP2 DUP6 DUP8 PUSH2 0x710 JUMP JUMPDEST SWAP1 POP DUP2 DUP2 SUB PUSH1 0x60 DUP4 ADD MSTORE PUSH2 0x8CD DUP2 DUP5 PUSH2 0x835 JUMP JUMPDEST SWAP1 POP SWAP7 SWAP6 POP POP POP POP POP POP JUMP JUMPDEST PUSH1 0x0 PUSH2 0x8E4 DUP3 PUSH2 0x1C2 JUMP JUMPDEST SWAP1 POP SWAP2 SWAP1 POP JUMP JUMPDEST PUSH2 0x8F4 DUP2 PUSH2 0x8D9 JUMP JUMPDEST DUP2 EQ PUSH2 0x8FF JUMPI PUSH1 0x0 DUP1 REVERT JUMPDEST POP JUMP JUMPDEST PUSH1 0x0 DUP2 CALLDATALOAD SWAP1 POP PUSH2 0x911 DUP2 PUSH2 0x8EB JUMP JUMPDEST SWAP3 SWAP2 POP POP JUMP JUMPDEST PUSH32 0x4E487B7100000000000000000000000000000000000000000000000000000000 PUSH1 0x0 MSTORE PUSH1 0x41 PUSH1 0x4 MSTORE PUSH1 0x24 PUSH1 0x0 REVERT JUMPDEST PUSH2 0x94F DUP3 PUSH2 0x393 JUMP JUMPDEST DUP2 ADD DUP2 DUP2 LT PUSH8 0xFFFFFFFFFFFFFFFF DUP3 GT OR ISZERO PUSH2 0x96E JUMPI PUSH2 0x96D PUSH2 0x917 JUMP JUMPDEST JUMPDEST DUP1 PUSH1 0x40 MSTORE POP POP POP JUMP JUMPDEST PUSH1 0x0 PUSH2 0x981 PUSH2 0x178 JUMP JUMPDEST SWAP1 POP PUSH2 0x98D DUP3 DUP3 PUSH2 0x946 JUMP JUMPDEST SWAP2 SWAP1 POP JUMP JUMPDEST PUSH1 0x0 PUSH8 0xFFFFFFFFFFFFFFFF DUP3 GT ISZERO PUSH2 0x9AD JUMPI PUSH2 0x9AC PUSH2 0x917 JUMP JUMPDEST JUMPDEST PUSH1 0x20 DUP3 MUL SWAP1 POP PUSH1 0x20 DUP2 ADD SWAP1 POP SWAP2 SWAP1 POP JUMP JUMPDEST PUSH1 0x0 PUSH2 0x9D1 PUSH2 0x9CC DUP5 PUSH2 0x992 JUMP JUMPDEST PUSH2 0x977 JUMP JUMPDEST SWAP1 POP DUP1 DUP4 DUP3 MSTORE PUSH1 0x20 DUP3 ADD SWAP1 POP PUSH1 0x20 DUP5 MUL DUP4 ADD DUP6 DUP2 GT ISZERO PUSH2 0x9F4 JUMPI PUSH2 0x9F3 PUSH2 0x22A JUMP JUMPDEST JUMPDEST DUP4 JUMPDEST DUP2 DUP2 LT ISZERO PUSH2 0xA1D JUMPI DUP1 PUSH2 0xA09 DUP9 DUP3 PUSH2 0x1AD JUMP JUMPDEST DUP5 MSTORE PUSH1 0x20 DUP5 ADD SWAP4 POP POP PUSH1 0x20 DUP2 ADD SWAP1 POP PUSH2 0x9F6 JUMP JUMPDEST POP POP POP SWAP4 SWAP3 POP POP POP JUMP JUMPDEST PUSH1 0x0 DUP3 PUSH1 0x1F DUP4 ADD SLT PUSH2 0xA3C JUMPI PUSH2 0xA3B PUSH2 0x220 JUMP JUMPDEST JUMPDEST DUP2 CALLDATALOAD PUSH2 0xA4C DUP5 DUP3 PUSH1 0x20 DUP7 ADD PUSH2 0x9BE JUMP JUMPDEST SWAP2 POP POP SWAP3 SWAP2 POP POP JUMP JUMPDEST PUSH1 0x0 DUP1 REVERT JUMPDEST PUSH1 0x0 DUP1 REVERT JUMPDEST PUSH1 0x0 DUP1 REVERT JUMPDEST PUSH1 0x0 PUSH8 0xFFFFFFFFFFFFFFFF DUP3 GT ISZERO PUSH2 0xA7F JUMPI PUSH2 0xA7E PUSH2 0x917 JUMP JUMPDEST JUMPDEST PUSH2 0xA88 DUP3 PUSH2 0x393 JUMP JUMPDEST SWAP1 POP PUSH1 0x20 DUP2 ADD SWAP1 POP SWAP2 SWAP1 POP JUMP JUMPDEST PUSH1 0x0 PUSH2 0xAA8 PUSH2 0xAA3 DUP5 PUSH2 0xA64 JUMP JUMPDEST PUSH2 0x977 JUMP JUMPDEST SWAP1 POP DUP3 DUP2 MSTORE PUSH1 0x20 DUP2 ADD DUP5 DUP5 DUP5 ADD GT ISZERO PUSH2 0xAC4 JUMPI PUSH2 0xAC3 PUSH2 0xA5F JUMP JUMPDEST JUMPDEST PUSH2 0xACF DUP5 DUP3 DUP6 PUSH2 0x7DE JUMP JUMPDEST POP SWAP4 SWAP3 POP POP POP JUMP JUMPDEST PUSH1 0x0 DUP3 PUSH1 0x1F DUP4 ADD SLT PUSH2 0xAEC JUMPI PUSH2 0xAEB PUSH2 0x220 JUMP JUMPDEST JUMPDEST DUP2 CALLDATALOAD PUSH2 0xAFC DUP5 DUP3 PUSH1 0x20 DUP7 ADD PUSH2 0xA95 JUMP JUMPDEST SWAP2 POP POP SWAP3 SWAP2 POP POP JUMP JUMPDEST PUSH1 0x0 PUSH8 0xFFFFFFFFFFFFFFFF DUP3 GT ISZERO PUSH2 0xB20 JUMPI PUSH2 0xB1F PUSH2 0x917 JUMP JUMPDEST JUMPDEST PUSH1 0x20 DUP3 MUL SWAP1 POP SWAP2 SWAP1 POP JUMP JUMPDEST PUSH1 0x0 PUSH2 0xB3E PUSH2 0xB39 DUP5 PUSH2 0xB05 JUMP JUMPDEST PUSH2 0x977 JUMP JUMPDEST SWAP1 POP DUP1 PUSH1 0x20 DUP5 MUL DUP4 ADD DUP6 DUP2 GT ISZERO PUSH2 0xB58 JUMPI PUSH2 0xB57 PUSH2 0x22A JUMP JUMPDEST JUMPDEST DUP4 JUMPDEST DUP2 DUP2 LT ISZERO PUSH2 0xB81 JUMPI DUP1 PUSH2 0xB6D DUP9 DUP3 PUSH2 0x1AD JUMP JUMPDEST DUP5 MSTORE PUSH1 0x20 DUP5 ADD SWAP4 POP POP PUSH1 0x20 DUP2 ADD SWAP1 POP PUSH2 0xB5A JUMP JUMPDEST POP POP POP SWAP4 SWAP3 POP POP POP JUMP JUMPDEST PUSH1 0x0 DUP3 PUSH1 0x1F DUP4 ADD SLT PUSH2 0xBA0 JUMPI PUSH2 0xB9F PUSH2 0x220 JUMP JUMPDEST JUMPDEST PUSH1 0x2 PUSH2 0xBAD DUP5 DUP3 DUP6 PUSH2 0xB2B JUMP JUMPDEST SWAP2 POP POP SWAP3 SWAP2 POP POP JUMP JUMPDEST PUSH1 0x0 PUSH1 0x60 DUP3 DUP5 SUB SLT ISZERO PUSH2 0xBCC JUMPI PUSH2 0xBCB PUSH2 0xA55 JUMP JUMPDEST JUMPDEST PUSH2 0xBD6 PUSH1 0x40 PUSH2 0x977 JUMP JUMPDEST SWAP1 POP PUSH1 0x0 DUP3 ADD CALLDATALOAD PUSH8 0xFFFFFFFFFFFFFFFF DUP2 GT ISZERO PUSH2 0xBF6 JUMPI PUSH2 0xBF5 PUSH2 0xA5A JUMP JUMPDEST JUMPDEST PUSH2 0xC02 DUP5 DUP3 DUP6 ADD PUSH2 0xAD7 JUMP JUMPDEST PUSH1 0x0 DUP4 ADD MSTORE POP PUSH1 0x20 PUSH2 0xC16 DUP5 DUP3 DUP6 ADD PUSH2 0xB8B JUMP JUMPDEST PUSH1 0x20 DUP4 ADD MSTORE POP SWAP3 SWAP2 POP POP JUMP JUMPDEST PUSH1 0x0 DUP1 PUSH1 0x0 DUP1 PUSH1 0x80 DUP6 DUP8 SUB SLT ISZERO PUSH2 0xC3C JUMPI PUSH2 0xC3B PUSH2 0x182 JUMP JUMPDEST JUMPDEST PUSH1 0x0 PUSH2 0xC4A DUP8 DUP3 DUP9 ADD PUSH2 0x1AD JUMP JUMPDEST SWAP5 POP POP PUSH1 0x20 PUSH2 0xC5B DUP8 DUP3 DUP9 ADD PUSH2 0x902 JUMP JUMPDEST SWAP4 POP POP PUSH1 0x40 DUP6 ADD CALLDATALOAD PUSH8 0xFFFFFFFFFFFFFFFF DUP2 GT ISZERO PUSH2 0xC7C JUMPI PUSH2 0xC7B PUSH2 0x187 JUMP JUMPDEST JUMPDEST PUSH2 0xC88 DUP8 DUP3 DUP9 ADD PUSH2 0xA27 JUMP JUMPDEST SWAP3 POP POP PUSH1 0x60 DUP6 ADD CALLDATALOAD PUSH8 0xFFFFFFFFFFFFFFFF DUP2 GT ISZERO PUSH2 0xCA9 JUMPI PUSH2 0xCA8 PUSH2 0x187 JUMP JUMPDEST JUMPDEST PUSH2 0xCB5 DUP8 DUP3 DUP9 ADD PUSH2 0xBB6 JUMP JUMPDEST SWAP2 POP POP SWAP3 SWAP6 SWAP2 SWAP5 POP SWAP3 POP JUMP INVALID LOG2 PUSH5 0x6970667358 0x22 SLT KECCAK256 BLOCKHASH 0xED GAS 0x23 SSTORE JUMPDEST 0xA6 SWAP5 0xD0 0xDA 0xD3 0x1E CODECOPY 0xAF SDIV 0xA5 CODECOPY DUP14 PUSH30 0x9469E1A72723FF494756DEE38364736F6C63430008110033000000000000 "
				},
				"gasEstimates": {
					"creation": {
						"codeDepositCost": "663800",
						"executionCost": "696",
						"totalCost": "664496"
					},
					"external": {
						"decode(bytes)": "infinite",
						"encode(uint256,address,uint256[],(string,uint256[2]))": "infinite",
						"test()": "351"
					}
				},
				"methodIdentifiers": {
					"decode(bytes)": "e5c5e9a3",
					"encode(uint256,address,uint256[],(string,uint256[2]))": "7049e087",
					"test()": "f8a8fd6d"
				}
			},
			"storageLayout": {
				"storage": [],
				"types": null
			},
			"userdoc": {
				"kind": "user",
				"methods": {},
				"version": 1
			}
		}
	}
}