{
	"DataLocations.sol": {
		"DataLocations": {
			"abi": [
				{
					"inputs": [
						{
							"internalType": "uint256[]",
							"name": "y",
							"type": "uint256[]"
						},
						{
							"internalType": "string",
							"name": "s",
							"type": "string"
						}
					],
					"name": "example",
					"outputs": [],
					"stateMutability": "nonpayable",
					"type": "function"
				},
				{
					"inputs": [
						{
							"internalType": "address",
							"name": "",
							"type": "address"
						}
					],
					"name": "myStructs",
					"outputs": [
						{
							"internalType": "uint256",
							"name": "foo",
							"type": "uint256"
						},
						{
							"internalType": "string",
							"name": "text",
							"type": "string"
						}
					],
					"stateMutability": "view",
					"type": "function"
				}
			],
			"devdoc": {
				"kind": "dev",
				"methods": {},
				"version": 1
			},
			"evm": {
				"assembly": "    /* \"DataLocations.sol\":61:455  contract DataLocations {... */\n  mstore(0x40, 0x80)\n  callvalue\n  dup1\n  iszero\n  tag_1\n  jumpi\n  0x00\n  dup1\n  revert\ntag_1:\n  pop\n  dataSize(sub_0)\n  dup1\n  dataOffset(sub_0)\n  0x00\n  codecopy\n  0x00\n  return\nstop\n\nsub_0: assembly {\n        /* \"DataLocations.sol\":61:455  contract DataLocations {... */\n      mstore(0x40, 0x80)\n      callvalue\n      dup1\n      iszero\n      tag_1\n      jumpi\n      0x00\n      dup1\n      revert\n    tag_1:\n      pop\n      jumpi(tag_2, lt(calldatasize, 0x04))\n      shr(0xe0, calldataload(0x00))\n      dup1\n      0x9837ae1a\n      eq\n      tag_3\n      jumpi\n      dup1\n      0xb43c5d33\n      eq\n      tag_4\n      jumpi\n    tag_2:\n      0x00\n      dup1\n      revert\n        /* \"DataLocations.sol\":218:452  function example(uint[] calldata y, string calldata s) external {... */\n    tag_3:\n      tag_5\n      0x04\n      dup1\n      calldatasize\n      sub\n      dup2\n      add\n      swap1\n      tag_6\n      swap2\n      swap1\n      tag_7\n      jump\t// in\n    tag_6:\n      tag_8\n      jump\t// in\n    tag_5:\n      stop\n        /* \"DataLocations.sol\":164:209  mapping(address => MyStruct) public myStructs */\n    tag_4:\n      tag_9\n      0x04\n      dup1\n      calldatasize\n      sub\n      dup2\n      add\n      swap1\n      tag_10\n      swap2\n      swap1\n      tag_11\n      jump\t// in\n    tag_10:\n      tag_12\n      jump\t// in\n    tag_9:\n      mload(0x40)\n      tag_13\n      swap3\n      swap2\n      swap1\n      tag_14\n      jump\t// in\n    tag_13:\n      mload(0x40)\n      dup1\n      swap2\n      sub\n      swap1\n      return\n        /* \"DataLocations.sol\":218:452  function example(uint[] calldata y, string calldata s) external {... */\n    tag_8:\n        /* \"DataLocations.sol\":317:350  MyStruct({foo: 123, text: \"bar\"}) */\n      mload(0x40)\n      dup1\n      0x40\n      add\n      0x40\n      mstore\n      dup1\n        /* \"DataLocations.sol\":332:335  123 */\n      0x7b\n        /* \"DataLocations.sol\":317:350  MyStruct({foo: 123, text: \"bar\"}) */\n      dup2\n      mstore\n      0x20\n      add\n      mload(0x40)\n      dup1\n      0x40\n      add\n      0x40\n      mstore\n      dup1\n      0x03\n      dup2\n      mstore\n      0x20\n      add\n      0x6261720000000000000000000000000000000000000000000000000000000000\n      dup2\n      mstore\n      pop\n      dup2\n      mstore\n      pop\n        /* \"DataLocations.sol\":293:302  myStructs */\n      0x00\n        /* \"DataLocations.sol\":293:314  myStructs[msg.sender] */\n      dup1\n        /* \"DataLocations.sol\":303:313  msg.sender */\n      caller\n        /* \"DataLocations.sol\":293:314  myStructs[msg.sender] */\n      0xffffffffffffffffffffffffffffffffffffffff\n      and\n      0xffffffffffffffffffffffffffffffffffffffff\n      and\n      dup2\n      mstore\n      0x20\n      add\n      swap1\n      dup2\n      mstore\n      0x20\n      add\n      0x00\n      keccak256\n        /* \"DataLocations.sol\":293:350  myStructs[msg.sender] = MyStruct({foo: 123, text: \"bar\"}) */\n      0x00\n      dup3\n      add\n      mload\n      dup2\n      0x00\n      add\n      sstore\n      0x20\n      dup3\n      add\n      mload\n      dup2\n      0x01\n      add\n      swap1\n      dup2\n      tag_16\n      swap2\n      swap1\n      tag_17\n      jump\t// in\n    tag_16:\n      pop\n      swap1\n      pop\n      pop\n        /* \"DataLocations.sol\":363:388  MyStruct storage myStruct */\n      0x00\n        /* \"DataLocations.sol\":391:400  myStructs */\n      dup1\n        /* \"DataLocations.sol\":391:412  myStructs[msg.sender] */\n      0x00\n        /* \"DataLocations.sol\":401:411  msg.sender */\n      caller\n        /* \"DataLocations.sol\":391:412  myStructs[msg.sender] */\n      0xffffffffffffffffffffffffffffffffffffffff\n      and\n      0xffffffffffffffffffffffffffffffffffffffff\n      and\n      dup2\n      mstore\n      0x20\n      add\n      swap1\n      dup2\n      mstore\n      0x20\n      add\n      0x00\n      keccak256\n        /* \"DataLocations.sol\":363:412  MyStruct storage myStruct = myStructs[msg.sender] */\n      swap1\n      pop\n        /* \"DataLocations.sol\":423:444  myStruct.text = \"foo\" */\n      mload(0x40)\n      dup1\n      0x40\n      add\n      0x40\n      mstore\n      dup1\n      0x03\n      dup2\n      mstore\n      0x20\n      add\n      0x666f6f0000000000000000000000000000000000000000000000000000000000\n      dup2\n      mstore\n      pop\n        /* \"DataLocations.sol\":423:431  myStruct */\n      dup2\n        /* \"DataLocations.sol\":423:436  myStruct.text */\n      0x01\n      add\n        /* \"DataLocations.sol\":423:444  myStruct.text = \"foo\" */\n      swap1\n      dup2\n      tag_18\n      swap2\n      swap1\n      tag_17\n      jump\t// in\n    tag_18:\n      pop\n        /* \"DataLocations.sol\":282:452  {... */\n      pop\n        /* \"DataLocations.sol\":218:452  function example(uint[] calldata y, string calldata s) external {... */\n      pop\n      pop\n      pop\n      pop\n      jump\t// out\n        /* \"DataLocations.sol\":164:209  mapping(address => MyStruct) public myStructs */\n    tag_12:\n      mstore(0x20, 0x00)\n      dup1\n      0x00\n      mstore\n      keccak256(0x00, 0x40)\n      0x00\n      swap2\n      pop\n      swap1\n      pop\n      dup1\n      0x00\n      add\n      sload\n      swap1\n      dup1\n      0x01\n      add\n      dup1\n      sload\n      tag_19\n      swap1\n      tag_20\n      jump\t// in\n    tag_19:\n      dup1\n      0x1f\n      add\n      0x20\n      dup1\n      swap2\n      div\n      mul\n      0x20\n      add\n      mload(0x40)\n      swap1\n      dup2\n      add\n      0x40\n      mstore\n      dup1\n      swap3\n      swap2\n      swap1\n      dup2\n      dup2\n      mstore\n      0x20\n      add\n      dup3\n      dup1\n      sload\n      tag_21\n      swap1\n      tag_20\n      jump\t// in\n    tag_21:\n      dup1\n      iszero\n      tag_22\n      jumpi\n      dup1\n      0x1f\n      lt\n      tag_23\n      jumpi\n      0x0100\n      dup1\n      dup4\n      sload\n      div\n      mul\n      dup4\n      mstore\n      swap2\n      0x20\n      add\n      swap2\n      jump(tag_22)\n    tag_23:\n      dup3\n      add\n      swap2\n      swap1\n      0x00\n      mstore\n      keccak256(0x00, 0x20)\n      swap1\n    tag_24:\n      dup2\n      sload\n      dup2\n      mstore\n      swap1\n      0x01\n      add\n      swap1\n      0x20\n      add\n      dup1\n      dup4\n      gt\n      tag_24\n      jumpi\n      dup3\n      swap1\n      sub\n      0x1f\n      and\n      dup3\n      add\n      swap2\n    tag_22:\n      pop\n      pop\n      pop\n      pop\n      pop\n      swap1\n      pop\n      dup3\n      jump\t// out\n        /* \"#utility.yul\":88:205   */\n    tag_26:\n        /* \"#utility.yul\":197:198   */\n      0x00\n        /* \"#utility.yul\":194:195   */\n      dup1\n        /* \"#utility.yul\":187:199   */\n      revert\n        /* \"#utility.yul\":211:328   */\n    tag_27:\n        /* \"#utility.yul\":320:321   */\n      0x00\n        /* \"#utility.yul\":317:318   */\n      dup1\n        /* \"#utility.yul\":310:322   */\n      revert\n        /* \"#utility.yul\":334:451   */\n    tag_28:\n        /* \"#utility.yul\":443:444   */\n      0x00\n        /* \"#utility.yul\":440:441   */\n      dup1\n        /* \"#utility.yul\":433:445   */\n      revert\n        /* \"#utility.yul\":457:574   */\n    tag_29:\n        /* \"#utility.yul\":566:567   */\n      0x00\n        /* \"#utility.yul\":563:564   */\n      dup1\n        /* \"#utility.yul\":556:568   */\n      revert\n        /* \"#utility.yul\":580:697   */\n    tag_30:\n        /* \"#utility.yul\":689:690   */\n      0x00\n        /* \"#utility.yul\":686:687   */\n      dup1\n        /* \"#utility.yul\":679:691   */\n      revert\n        /* \"#utility.yul\":720:1288   */\n    tag_31:\n        /* \"#utility.yul\":793:801   */\n      0x00\n        /* \"#utility.yul\":803:809   */\n      dup1\n        /* \"#utility.yul\":853:856   */\n      dup4\n        /* \"#utility.yul\":846:850   */\n      0x1f\n        /* \"#utility.yul\":838:844   */\n      dup5\n        /* \"#utility.yul\":834:851   */\n      add\n        /* \"#utility.yul\":830:857   */\n      slt\n        /* \"#utility.yul\":820:942   */\n      tag_69\n      jumpi\n        /* \"#utility.yul\":861:940   */\n      tag_70\n      tag_28\n      jump\t// in\n    tag_70:\n        /* \"#utility.yul\":820:942   */\n    tag_69:\n        /* \"#utility.yul\":974:980   */\n      dup3\n        /* \"#utility.yul\":961:981   */\n      calldataload\n        /* \"#utility.yul\":951:981   */\n      swap1\n      pop\n        /* \"#utility.yul\":1004:1022   */\n      0xffffffffffffffff\n        /* \"#utility.yul\":996:1002   */\n      dup2\n        /* \"#utility.yul\":993:1023   */\n      gt\n        /* \"#utility.yul\":990:1107   */\n      iszero\n      tag_71\n      jumpi\n        /* \"#utility.yul\":1026:1105   */\n      tag_72\n      tag_29\n      jump\t// in\n    tag_72:\n        /* \"#utility.yul\":990:1107   */\n    tag_71:\n        /* \"#utility.yul\":1140:1144   */\n      0x20\n        /* \"#utility.yul\":1132:1138   */\n      dup4\n        /* \"#utility.yul\":1128:1145   */\n      add\n        /* \"#utility.yul\":1116:1145   */\n      swap2\n      pop\n        /* \"#utility.yul\":1194:1197   */\n      dup4\n        /* \"#utility.yul\":1186:1190   */\n      0x20\n        /* \"#utility.yul\":1178:1184   */\n      dup3\n        /* \"#utility.yul\":1174:1191   */\n      mul\n        /* \"#utility.yul\":1164:1172   */\n      dup4\n        /* \"#utility.yul\":1160:1192   */\n      add\n        /* \"#utility.yul\":1157:1198   */\n      gt\n        /* \"#utility.yul\":1154:1282   */\n      iszero\n      tag_73\n      jumpi\n        /* \"#utility.yul\":1201:1280   */\n      tag_74\n      tag_30\n      jump\t// in\n    tag_74:\n        /* \"#utility.yul\":1154:1282   */\n    tag_73:\n        /* \"#utility.yul\":720:1288   */\n      swap3\n      pop\n      swap3\n      swap1\n      pop\n      jump\t// out\n        /* \"#utility.yul\":1308:1861   */\n    tag_32:\n        /* \"#utility.yul\":1366:1374   */\n      0x00\n        /* \"#utility.yul\":1376:1382   */\n      dup1\n        /* \"#utility.yul\":1426:1429   */\n      dup4\n        /* \"#utility.yul\":1419:1423   */\n      0x1f\n        /* \"#utility.yul\":1411:1417   */\n      dup5\n        /* \"#utility.yul\":1407:1424   */\n      add\n        /* \"#utility.yul\":1403:1430   */\n      slt\n        /* \"#utility.yul\":1393:1515   */\n      tag_76\n      jumpi\n        /* \"#utility.yul\":1434:1513   */\n      tag_77\n      tag_28\n      jump\t// in\n    tag_77:\n        /* \"#utility.yul\":1393:1515   */\n    tag_76:\n        /* \"#utility.yul\":1547:1553   */\n      dup3\n        /* \"#utility.yul\":1534:1554   */\n      calldataload\n        /* \"#utility.yul\":1524:1554   */\n      swap1\n      pop\n        /* \"#utility.yul\":1577:1595   */\n      0xffffffffffffffff\n        /* \"#utility.yul\":1569:1575   */\n      dup2\n        /* \"#utility.yul\":1566:1596   */\n      gt\n        /* \"#utility.yul\":1563:1680   */\n      iszero\n      tag_78\n      jumpi\n        /* \"#utility.yul\":1599:1678   */\n      tag_79\n      tag_29\n      jump\t// in\n    tag_79:\n        /* \"#utility.yul\":1563:1680   */\n    tag_78:\n        /* \"#utility.yul\":1713:1717   */\n      0x20\n        /* \"#utility.yul\":1705:1711   */\n      dup4\n        /* \"#utility.yul\":1701:1718   */\n      add\n        /* \"#utility.yul\":1689:1718   */\n      swap2\n      pop\n        /* \"#utility.yul\":1767:1770   */\n      dup4\n        /* \"#utility.yul\":1759:1763   */\n      0x01\n        /* \"#utility.yul\":1751:1757   */\n      dup3\n        /* \"#utility.yul\":1747:1764   */\n      mul\n        /* \"#utility.yul\":1737:1745   */\n      dup4\n        /* \"#utility.yul\":1733:1765   */\n      add\n        /* \"#utility.yul\":1730:1771   */\n      gt\n        /* \"#utility.yul\":1727:1855   */\n      iszero\n      tag_80\n      jumpi\n        /* \"#utility.yul\":1774:1853   */\n      tag_81\n      tag_30\n      jump\t// in\n    tag_81:\n        /* \"#utility.yul\":1727:1855   */\n    tag_80:\n        /* \"#utility.yul\":1308:1861   */\n      swap3\n      pop\n      swap3\n      swap1\n      pop\n      jump\t// out\n        /* \"#utility.yul\":1867:2771   */\n    tag_7:\n        /* \"#utility.yul\":1974:1980   */\n      0x00\n        /* \"#utility.yul\":1982:1988   */\n      dup1\n        /* \"#utility.yul\":1990:1996   */\n      0x00\n        /* \"#utility.yul\":1998:2004   */\n      dup1\n        /* \"#utility.yul\":2047:2049   */\n      0x40\n        /* \"#utility.yul\":2035:2044   */\n      dup6\n        /* \"#utility.yul\":2026:2033   */\n      dup8\n        /* \"#utility.yul\":2022:2045   */\n      sub\n        /* \"#utility.yul\":2018:2050   */\n      slt\n        /* \"#utility.yul\":2015:2134   */\n      iszero\n      tag_83\n      jumpi\n        /* \"#utility.yul\":2053:2132   */\n      tag_84\n      tag_26\n      jump\t// in\n    tag_84:\n        /* \"#utility.yul\":2015:2134   */\n    tag_83:\n        /* \"#utility.yul\":2201:2202   */\n      0x00\n        /* \"#utility.yul\":2190:2199   */\n      dup6\n        /* \"#utility.yul\":2186:2203   */\n      add\n        /* \"#utility.yul\":2173:2204   */\n      calldataload\n        /* \"#utility.yul\":2231:2249   */\n      0xffffffffffffffff\n        /* \"#utility.yul\":2223:2229   */\n      dup2\n        /* \"#utility.yul\":2220:2250   */\n      gt\n        /* \"#utility.yul\":2217:2334   */\n      iszero\n      tag_85\n      jumpi\n        /* \"#utility.yul\":2253:2332   */\n      tag_86\n      tag_27\n      jump\t// in\n    tag_86:\n        /* \"#utility.yul\":2217:2334   */\n    tag_85:\n        /* \"#utility.yul\":2366:2446   */\n      tag_87\n        /* \"#utility.yul\":2438:2445   */\n      dup8\n        /* \"#utility.yul\":2429:2435   */\n      dup3\n        /* \"#utility.yul\":2418:2427   */\n      dup9\n        /* \"#utility.yul\":2414:2436   */\n      add\n        /* \"#utility.yul\":2366:2446   */\n      tag_31\n      jump\t// in\n    tag_87:\n        /* \"#utility.yul\":2348:2446   */\n      swap5\n      pop\n      swap5\n      pop\n        /* \"#utility.yul\":2144:2456   */\n      pop\n        /* \"#utility.yul\":2523:2525   */\n      0x20\n        /* \"#utility.yul\":2512:2521   */\n      dup6\n        /* \"#utility.yul\":2508:2526   */\n      add\n        /* \"#utility.yul\":2495:2527   */\n      calldataload\n        /* \"#utility.yul\":2554:2572   */\n      0xffffffffffffffff\n        /* \"#utility.yul\":2546:2552   */\n      dup2\n        /* \"#utility.yul\":2543:2573   */\n      gt\n        /* \"#utility.yul\":2540:2657   */\n      iszero\n      tag_88\n      jumpi\n        /* \"#utility.yul\":2576:2655   */\n      tag_89\n      tag_27\n      jump\t// in\n    tag_89:\n        /* \"#utility.yul\":2540:2657   */\n    tag_88:\n        /* \"#utility.yul\":2689:2754   */\n      tag_90\n        /* \"#utility.yul\":2746:2753   */\n      dup8\n        /* \"#utility.yul\":2737:2743   */\n      dup3\n        /* \"#utility.yul\":2726:2735   */\n      dup9\n        /* \"#utility.yul\":2722:2744   */\n      add\n        /* \"#utility.yul\":2689:2754   */\n      tag_32\n      jump\t// in\n    tag_90:\n        /* \"#utility.yul\":2671:2754   */\n      swap3\n      pop\n      swap3\n      pop\n        /* \"#utility.yul\":2466:2764   */\n      pop\n        /* \"#utility.yul\":1867:2771   */\n      swap3\n      swap6\n      swap2\n      swap5\n      pop\n      swap3\n      pop\n      jump\t// out\n        /* \"#utility.yul\":2777:2903   */\n    tag_33:\n        /* \"#utility.yul\":2814:2821   */\n      0x00\n        /* \"#utility.yul\":2854:2896   */\n      0xffffffffffffffffffffffffffffffffffffffff\n        /* \"#utility.yul\":2847:2852   */\n      dup3\n        /* \"#utility.yul\":2843:2897   */\n      and\n        /* \"#utility.yul\":2832:2897   */\n      swap1\n      pop\n        /* \"#utility.yul\":2777:2903   */\n      swap2\n      swap1\n      pop\n      jump\t// out\n        /* \"#utility.yul\":2909:3005   */\n    tag_34:\n        /* \"#utility.yul\":2946:2953   */\n      0x00\n        /* \"#utility.yul\":2975:2999   */\n      tag_93\n        /* \"#utility.yul\":2993:2998   */\n      dup3\n        /* \"#utility.yul\":2975:2999   */\n      tag_33\n      jump\t// in\n    tag_93:\n        /* \"#utility.yul\":2964:2999   */\n      swap1\n      pop\n        /* \"#utility.yul\":2909:3005   */\n      swap2\n      swap1\n      pop\n      jump\t// out\n        /* \"#utility.yul\":3011:3133   */\n    tag_35:\n        /* \"#utility.yul\":3084:3108   */\n      tag_95\n        /* \"#utility.yul\":3102:3107   */\n      dup2\n        /* \"#utility.yul\":3084:3108   */\n      tag_34\n      jump\t// in\n    tag_95:\n        /* \"#utility.yul\":3077:3082   */\n      dup2\n        /* \"#utility.yul\":3074:3109   */\n      eq\n        /* \"#utility.yul\":3064:3127   */\n      tag_96\n      jumpi\n        /* \"#utility.yul\":3123:3124   */\n      0x00\n        /* \"#utility.yul\":3120:3121   */\n      dup1\n        /* \"#utility.yul\":3113:3125   */\n      revert\n        /* \"#utility.yul\":3064:3127   */\n    tag_96:\n        /* \"#utility.yul\":3011:3133   */\n      pop\n      jump\t// out\n        /* \"#utility.yul\":3139:3278   */\n    tag_36:\n        /* \"#utility.yul\":3185:3190   */\n      0x00\n        /* \"#utility.yul\":3223:3229   */\n      dup2\n        /* \"#utility.yul\":3210:3230   */\n      calldataload\n        /* \"#utility.yul\":3201:3230   */\n      swap1\n      pop\n        /* \"#utility.yul\":3239:3272   */\n      tag_98\n        /* \"#utility.yul\":3266:3271   */\n      dup2\n        /* \"#utility.yul\":3239:3272   */\n      tag_35\n      jump\t// in\n    tag_98:\n        /* \"#utility.yul\":3139:3278   */\n      swap3\n      swap2\n      pop\n      pop\n      jump\t// out\n        /* \"#utility.yul\":3284:3613   */\n    tag_11:\n        /* \"#utility.yul\":3343:3349   */\n      0x00\n        /* \"#utility.yul\":3392:3394   */\n      0x20\n        /* \"#utility.yul\":3380:3389   */\n      dup3\n        /* \"#utility.yul\":3371:3378   */\n      dup5\n        /* \"#utility.yul\":3367:3390   */\n      sub\n        /* \"#utility.yul\":3363:3395   */\n      slt\n        /* \"#utility.yul\":3360:3479   */\n      iszero\n      tag_100\n      jumpi\n        /* \"#utility.yul\":3398:3477   */\n      tag_101\n      tag_26\n      jump\t// in\n    tag_101:\n        /* \"#utility.yul\":3360:3479   */\n    tag_100:\n        /* \"#utility.yul\":3518:3519   */\n      0x00\n        /* \"#utility.yul\":3543:3596   */\n      tag_102\n        /* \"#utility.yul\":3588:3595   */\n      dup5\n        /* \"#utility.yul\":3579:3585   */\n      dup3\n        /* \"#utility.yul\":3568:3577   */\n      dup6\n        /* \"#utility.yul\":3564:3586   */\n      add\n        /* \"#utility.yul\":3543:3596   */\n      tag_36\n      jump\t// in\n    tag_102:\n        /* \"#utility.yul\":3533:3596   */\n      swap2\n      pop\n        /* \"#utility.yul\":3489:3606   */\n      pop\n        /* \"#utility.yul\":3284:3613   */\n      swap3\n      swap2\n      pop\n      pop\n      jump\t// out\n        /* \"#utility.yul\":3619:3696   */\n    tag_37:\n        /* \"#utility.yul\":3656:3663   */\n      0x00\n        /* \"#utility.yul\":3685:3690   */\n      dup2\n        /* \"#utility.yul\":3674:3690   */\n      swap1\n      pop\n        /* \"#utility.yul\":3619:3696   */\n      swap2\n      swap1\n      pop\n      jump\t// out\n        /* \"#utility.yul\":3702:3820   */\n    tag_38:\n        /* \"#utility.yul\":3789:3813   */\n      tag_105\n        /* \"#utility.yul\":3807:3812   */\n      dup2\n        /* \"#utility.yul\":3789:3813   */\n      tag_37\n      jump\t// in\n    tag_105:\n        /* \"#utility.yul\":3784:3787   */\n      dup3\n        /* \"#utility.yul\":3777:3814   */\n      mstore\n        /* \"#utility.yul\":3702:3820   */\n      pop\n      pop\n      jump\t// out\n        /* \"#utility.yul\":3826:3925   */\n    tag_39:\n        /* \"#utility.yul\":3878:3884   */\n      0x00\n        /* \"#utility.yul\":3912:3917   */\n      dup2\n        /* \"#utility.yul\":3906:3918   */\n      mload\n        /* \"#utility.yul\":3896:3918   */\n      swap1\n      pop\n        /* \"#utility.yul\":3826:3925   */\n      swap2\n      swap1\n      pop\n      jump\t// out\n        /* \"#utility.yul\":3931:4100   */\n    tag_40:\n        /* \"#utility.yul\":4015:4026   */\n      0x00\n        /* \"#utility.yul\":4049:4055   */\n      dup3\n        /* \"#utility.yul\":4044:4047   */\n      dup3\n        /* \"#utility.yul\":4037:4056   */\n      mstore\n        /* \"#utility.yul\":4089:4093   */\n      0x20\n        /* \"#utility.yul\":4084:4087   */\n      dup3\n        /* \"#utility.yul\":4080:4094   */\n      add\n        /* \"#utility.yul\":4065:4094   */\n      swap1\n      pop\n        /* \"#utility.yul\":3931:4100   */\n      swap3\n      swap2\n      pop\n      pop\n      jump\t// out\n        /* \"#utility.yul\":4106:4352   */\n    tag_41:\n        /* \"#utility.yul\":4187:4188   */\n      0x00\n        /* \"#utility.yul\":4197:4310   */\n    tag_109:\n        /* \"#utility.yul\":4211:4217   */\n      dup4\n        /* \"#utility.yul\":4208:4209   */\n      dup2\n        /* \"#utility.yul\":4205:4218   */\n      lt\n        /* \"#utility.yul\":4197:4310   */\n      iszero\n      tag_111\n      jumpi\n        /* \"#utility.yul\":4296:4297   */\n      dup1\n        /* \"#utility.yul\":4291:4294   */\n      dup3\n        /* \"#utility.yul\":4287:4298   */\n      add\n        /* \"#utility.yul\":4281:4299   */\n      mload\n        /* \"#utility.yul\":4277:4278   */\n      dup2\n        /* \"#utility.yul\":4272:4275   */\n      dup5\n        /* \"#utility.yul\":4268:4279   */\n      add\n        /* \"#utility.yul\":4261:4300   */\n      mstore\n        /* \"#utility.yul\":4233:4235   */\n      0x20\n        /* \"#utility.yul\":4230:4231   */\n      dup2\n        /* \"#utility.yul\":4226:4236   */\n      add\n        /* \"#utility.yul\":4221:4236   */\n      swap1\n      pop\n        /* \"#utility.yul\":4197:4310   */\n      jump(tag_109)\n    tag_111:\n        /* \"#utility.yul\":4344:4345   */\n      0x00\n        /* \"#utility.yul\":4335:4341   */\n      dup5\n        /* \"#utility.yul\":4330:4333   */\n      dup5\n        /* \"#utility.yul\":4326:4342   */\n      add\n        /* \"#utility.yul\":4319:4346   */\n      mstore\n        /* \"#utility.yul\":4168:4352   */\n      pop\n        /* \"#utility.yul\":4106:4352   */\n      pop\n      pop\n      pop\n      jump\t// out\n        /* \"#utility.yul\":4358:4460   */\n    tag_42:\n        /* \"#utility.yul\":4399:4405   */\n      0x00\n        /* \"#utility.yul\":4450:4452   */\n      0x1f\n        /* \"#utility.yul\":4446:4453   */\n      not\n        /* \"#utility.yul\":4441:4443   */\n      0x1f\n        /* \"#utility.yul\":4434:4439   */\n      dup4\n        /* \"#utility.yul\":4430:4444   */\n      add\n        /* \"#utility.yul\":4426:4454   */\n      and\n        /* \"#utility.yul\":4416:4454   */\n      swap1\n      pop\n        /* \"#utility.yul\":4358:4460   */\n      swap2\n      swap1\n      pop\n      jump\t// out\n        /* \"#utility.yul\":4466:4843   */\n    tag_43:\n        /* \"#utility.yul\":4554:4557   */\n      0x00\n        /* \"#utility.yul\":4582:4621   */\n      tag_114\n        /* \"#utility.yul\":4615:4620   */\n      dup3\n        /* \"#utility.yul\":4582:4621   */\n      tag_39\n      jump\t// in\n    tag_114:\n        /* \"#utility.yul\":4637:4708   */\n      tag_115\n        /* \"#utility.yul\":4701:4707   */\n      dup2\n        /* \"#utility.yul\":4696:4699   */\n      dup6\n        /* \"#utility.yul\":4637:4708   */\n      tag_40\n      jump\t// in\n    tag_115:\n        /* \"#utility.yul\":4630:4708   */\n      swap4\n      pop\n        /* \"#utility.yul\":4717:4782   */\n      tag_116\n        /* \"#utility.yul\":4775:4781   */\n      dup2\n        /* \"#utility.yul\":4770:4773   */\n      dup6\n        /* \"#utility.yul\":4763:4767   */\n      0x20\n        /* \"#utility.yul\":4756:4761   */\n      dup7\n        /* \"#utility.yul\":4752:4768   */\n      add\n        /* \"#utility.yul\":4717:4782   */\n      tag_41\n      jump\t// in\n    tag_116:\n        /* \"#utility.yul\":4807:4836   */\n      tag_117\n        /* \"#utility.yul\":4829:4835   */\n      dup2\n        /* \"#utility.yul\":4807:4836   */\n      tag_42\n      jump\t// in\n    tag_117:\n        /* \"#utility.yul\":4802:4805   */\n      dup5\n        /* \"#utility.yul\":4798:4837   */\n      add\n        /* \"#utility.yul\":4791:4837   */\n      swap2\n      pop\n        /* \"#utility.yul\":4558:4843   */\n      pop\n        /* \"#utility.yul\":4466:4843   */\n      swap3\n      swap2\n      pop\n      pop\n      jump\t// out\n        /* \"#utility.yul\":4849:5272   */\n    tag_14:\n        /* \"#utility.yul\":4990:4994   */\n      0x00\n        /* \"#utility.yul\":5028:5030   */\n      0x40\n        /* \"#utility.yul\":5017:5026   */\n      dup3\n        /* \"#utility.yul\":5013:5031   */\n      add\n        /* \"#utility.yul\":5005:5031   */\n      swap1\n      pop\n        /* \"#utility.yul\":5041:5112   */\n      tag_119\n        /* \"#utility.yul\":5109:5110   */\n      0x00\n        /* \"#utility.yul\":5098:5107   */\n      dup4\n        /* \"#utility.yul\":5094:5111   */\n      add\n        /* \"#utility.yul\":5085:5091   */\n      dup6\n        /* \"#utility.yul\":5041:5112   */\n      tag_38\n      jump\t// in\n    tag_119:\n        /* \"#utility.yul\":5159:5168   */\n      dup2\n        /* \"#utility.yul\":5153:5157   */\n      dup2\n        /* \"#utility.yul\":5149:5169   */\n      sub\n        /* \"#utility.yul\":5144:5146   */\n      0x20\n        /* \"#utility.yul\":5133:5142   */\n      dup4\n        /* \"#utility.yul\":5129:5147   */\n      add\n        /* \"#utility.yul\":5122:5170   */\n      mstore\n        /* \"#utility.yul\":5187:5265   */\n      tag_120\n        /* \"#utility.yul\":5260:5264   */\n      dup2\n        /* \"#utility.yul\":5251:5257   */\n      dup5\n        /* \"#utility.yul\":5187:5265   */\n      tag_43\n      jump\t// in\n    tag_120:\n        /* \"#utility.yul\":5179:5265   */\n      swap1\n      pop\n        /* \"#utility.yul\":4849:5272   */\n      swap4\n      swap3\n      pop\n      pop\n      pop\n      jump\t// out\n        /* \"#utility.yul\":5278:5458   */\n    tag_44:\n        /* \"#utility.yul\":5326:5403   */\n      0x4e487b7100000000000000000000000000000000000000000000000000000000\n        /* \"#utility.yul\":5323:5324   */\n      0x00\n        /* \"#utility.yul\":5316:5404   */\n      mstore\n        /* \"#utility.yul\":5423:5427   */\n      0x41\n        /* \"#utility.yul\":5420:5421   */\n      0x04\n        /* \"#utility.yul\":5413:5428   */\n      mstore\n        /* \"#utility.yul\":5447:5451   */\n      0x24\n        /* \"#utility.yul\":5444:5445   */\n      0x00\n        /* \"#utility.yul\":5437:5452   */\n      revert\n        /* \"#utility.yul\":5464:5644   */\n    tag_45:\n        /* \"#utility.yul\":5512:5589   */\n      0x4e487b7100000000000000000000000000000000000000000000000000000000\n        /* \"#utility.yul\":5509:5510   */\n      0x00\n        /* \"#utility.yul\":5502:5590   */\n      mstore\n        /* \"#utility.yul\":5609:5613   */\n      0x22\n        /* \"#utility.yul\":5606:5607   */\n      0x04\n        /* \"#utility.yul\":5599:5614   */\n      mstore\n        /* \"#utility.yul\":5633:5637   */\n      0x24\n        /* \"#utility.yul\":5630:5631   */\n      0x00\n        /* \"#utility.yul\":5623:5638   */\n      revert\n        /* \"#utility.yul\":5650:5970   */\n    tag_20:\n        /* \"#utility.yul\":5694:5700   */\n      0x00\n        /* \"#utility.yul\":5731:5732   */\n      0x02\n        /* \"#utility.yul\":5725:5729   */\n      dup3\n        /* \"#utility.yul\":5721:5733   */\n      div\n        /* \"#utility.yul\":5711:5733   */\n      swap1\n      pop\n        /* \"#utility.yul\":5778:5779   */\n      0x01\n        /* \"#utility.yul\":5772:5776   */\n      dup3\n        /* \"#utility.yul\":5768:5780   */\n      and\n        /* \"#utility.yul\":5799:5817   */\n      dup1\n        /* \"#utility.yul\":5789:5870   */\n      tag_124\n      jumpi\n        /* \"#utility.yul\":5855:5859   */\n      0x7f\n        /* \"#utility.yul\":5847:5853   */\n      dup3\n        /* \"#utility.yul\":5843:5860   */\n      and\n        /* \"#utility.yul\":5833:5860   */\n      swap2\n      pop\n        /* \"#utility.yul\":5789:5870   */\n    tag_124:\n        /* \"#utility.yul\":5917:5919   */\n      0x20\n        /* \"#utility.yul\":5909:5915   */\n      dup3\n        /* \"#utility.yul\":5906:5920   */\n      lt\n        /* \"#utility.yul\":5886:5904   */\n      dup2\n        /* \"#utility.yul\":5883:5921   */\n      sub\n        /* \"#utility.yul\":5880:5964   */\n      tag_125\n      jumpi\n        /* \"#utility.yul\":5936:5954   */\n      tag_126\n      tag_45\n      jump\t// in\n    tag_126:\n        /* \"#utility.yul\":5880:5964   */\n    tag_125:\n        /* \"#utility.yul\":5701:5970   */\n      pop\n        /* \"#utility.yul\":5650:5970   */\n      swap2\n      swap1\n      pop\n      jump\t// out\n        /* \"#utility.yul\":5976:6117   */\n    tag_46:\n        /* \"#utility.yul\":6025:6029   */\n      0x00\n        /* \"#utility.yul\":6048:6051   */\n      dup2\n        /* \"#utility.yul\":6040:6051   */\n      swap1\n      pop\n        /* \"#utility.yul\":6071:6074   */\n      dup2\n        /* \"#utility.yul\":6068:6069   */\n      0x00\n        /* \"#utility.yul\":6061:6075   */\n      mstore\n        /* \"#utility.yul\":6105:6109   */\n      0x20\n        /* \"#utility.yul\":6102:6103   */\n      0x00\n        /* \"#utility.yul\":6092:6110   */\n      keccak256\n        /* \"#utility.yul\":6084:6110   */\n      swap1\n      pop\n        /* \"#utility.yul\":5976:6117   */\n      swap2\n      swap1\n      pop\n      jump\t// out\n        /* \"#utility.yul\":6123:6216   */\n    tag_47:\n        /* \"#utility.yul\":6160:6166   */\n      0x00\n        /* \"#utility.yul\":6207:6209   */\n      0x20\n        /* \"#utility.yul\":6202:6204   */\n      0x1f\n        /* \"#utility.yul\":6195:6200   */\n      dup4\n        /* \"#utility.yul\":6191:6205   */\n      add\n        /* \"#utility.yul\":6187:6210   */\n      div\n        /* \"#utility.yul\":6177:6210   */\n      swap1\n      pop\n        /* \"#utility.yul\":6123:6216   */\n      swap2\n      swap1\n      pop\n      jump\t// out\n        /* \"#utility.yul\":6222:6329   */\n    tag_48:\n        /* \"#utility.yul\":6266:6274   */\n      0x00\n        /* \"#utility.yul\":6316:6321   */\n      dup3\n        /* \"#utility.yul\":6310:6314   */\n      dup3\n        /* \"#utility.yul\":6306:6322   */\n      shl\n        /* \"#utility.yul\":6285:6322   */\n      swap1\n      pop\n        /* \"#utility.yul\":6222:6329   */\n      swap3\n      swap2\n      pop\n      pop\n      jump\t// out\n        /* \"#utility.yul\":6335:6728   */\n    tag_49:\n        /* \"#utility.yul\":6404:6410   */\n      0x00\n        /* \"#utility.yul\":6454:6455   */\n      0x08\n        /* \"#utility.yul\":6442:6452   */\n      dup4\n        /* \"#utility.yul\":6438:6456   */\n      mul\n        /* \"#utility.yul\":6477:6574   */\n      tag_131\n        /* \"#utility.yul\":6507:6573   */\n      0xffffffffffffffffffffffffffffffffffffffffffffffffffffffffffffffff\n        /* \"#utility.yul\":6496:6505   */\n      dup3\n        /* \"#utility.yul\":6477:6574   */\n      tag_48\n      jump\t// in\n    tag_131:\n        /* \"#utility.yul\":6595:6634   */\n      tag_132\n        /* \"#utility.yul\":6625:6633   */\n      dup7\n        /* \"#utility.yul\":6614:6623   */\n      dup4\n        /* \"#utility.yul\":6595:6634   */\n      tag_48\n      jump\t// in\n    tag_132:\n        /* \"#utility.yul\":6583:6634   */\n      swap6\n      pop\n        /* \"#utility.yul\":6667:6671   */\n      dup1\n        /* \"#utility.yul\":6663:6672   */\n      not\n        /* \"#utility.yul\":6656:6661   */\n      dup5\n        /* \"#utility.yul\":6652:6673   */\n      and\n        /* \"#utility.yul\":6643:6673   */\n      swap4\n      pop\n        /* \"#utility.yul\":6716:6720   */\n      dup1\n        /* \"#utility.yul\":6706:6714   */\n      dup7\n        /* \"#utility.yul\":6702:6721   */\n      and\n        /* \"#utility.yul\":6695:6700   */\n      dup5\n        /* \"#utility.yul\":6692:6722   */\n      or\n        /* \"#utility.yul\":6682:6722   */\n      swap3\n      pop\n        /* \"#utility.yul\":6411:6728   */\n      pop\n      pop\n        /* \"#utility.yul\":6335:6728   */\n      swap4\n      swap3\n      pop\n      pop\n      pop\n      jump\t// out\n        /* \"#utility.yul\":6734:6794   */\n    tag_50:\n        /* \"#utility.yul\":6762:6765   */\n      0x00\n        /* \"#utility.yul\":6783:6788   */\n      dup2\n        /* \"#utility.yul\":6776:6788   */\n      swap1\n      pop\n        /* \"#utility.yul\":6734:6794   */\n      swap2\n      swap1\n      pop\n      jump\t// out\n        /* \"#utility.yul\":6800:6942   */\n    tag_51:\n        /* \"#utility.yul\":6850:6859   */\n      0x00\n        /* \"#utility.yul\":6883:6936   */\n      tag_135\n        /* \"#utility.yul\":6901:6935   */\n      tag_136\n        /* \"#utility.yul\":6910:6934   */\n      tag_137\n        /* \"#utility.yul\":6928:6933   */\n      dup5\n        /* \"#utility.yul\":6910:6934   */\n      tag_37\n      jump\t// in\n    tag_137:\n        /* \"#utility.yul\":6901:6935   */\n      tag_50\n      jump\t// in\n    tag_136:\n        /* \"#utility.yul\":6883:6936   */\n      tag_37\n      jump\t// in\n    tag_135:\n        /* \"#utility.yul\":6870:6936   */\n      swap1\n      pop\n        /* \"#utility.yul\":6800:6942   */\n      swap2\n      swap1\n      pop\n      jump\t// out\n        /* \"#utility.yul\":6948:7023   */\n    tag_52:\n        /* \"#utility.yul\":6991:6994   */\n      0x00\n        /* \"#utility.yul\":7012:7017   */\n      dup2\n        /* \"#utility.yul\":7005:7017   */\n      swap1\n      pop\n        /* \"#utility.yul\":6948:7023   */\n      swap2\n      swap1\n      pop\n      jump\t// out\n        /* \"#utility.yul\":7029:7298   */\n    tag_53:\n        /* \"#utility.yul\":7139:7178   */\n      tag_140\n        /* \"#utility.yul\":7170:7177   */\n      dup4\n        /* \"#utility.yul\":7139:7178   */\n      tag_51\n      jump\t// in\n    tag_140:\n        /* \"#utility.yul\":7200:7291   */\n      tag_141\n        /* \"#utility.yul\":7249:7290   */\n      tag_142\n        /* \"#utility.yul\":7273:7289   */\n      dup3\n        /* \"#utility.yul\":7249:7290   */\n      tag_52\n      jump\t// in\n    tag_142:\n        /* \"#utility.yul\":7241:7247   */\n      dup5\n        /* \"#utility.yul\":7234:7238   */\n      dup5\n        /* \"#utility.yul\":7228:7239   */\n      sload\n        /* \"#utility.yul\":7200:7291   */\n      tag_49\n      jump\t// in\n    tag_141:\n        /* \"#utility.yul\":7194:7198   */\n      dup3\n        /* \"#utility.yul\":7187:7292   */\n      sstore\n        /* \"#utility.yul\":7105:7298   */\n      pop\n        /* \"#utility.yul\":7029:7298   */\n      pop\n      pop\n      pop\n      jump\t// out\n        /* \"#utility.yul\":7304:7377   */\n    tag_54:\n        /* \"#utility.yul\":7349:7352   */\n      0x00\n        /* \"#utility.yul\":7304:7377   */\n      swap1\n      jump\t// out\n        /* \"#utility.yul\":7383:7572   */\n    tag_55:\n        /* \"#utility.yul\":7460:7492   */\n      tag_145\n      tag_54\n      jump\t// in\n    tag_145:\n        /* \"#utility.yul\":7501:7566   */\n      tag_146\n        /* \"#utility.yul\":7559:7565   */\n      dup2\n        /* \"#utility.yul\":7551:7557   */\n      dup5\n        /* \"#utility.yul\":7545:7549   */\n      dup5\n        /* \"#utility.yul\":7501:7566   */\n      tag_53\n      jump\t// in\n    tag_146:\n        /* \"#utility.yul\":7436:7572   */\n      pop\n        /* \"#utility.yul\":7383:7572   */\n      pop\n      pop\n      jump\t// out\n        /* \"#utility.yul\":7578:7764   */\n    tag_56:\n        /* \"#utility.yul\":7638:7758   */\n    tag_148:\n        /* \"#utility.yul\":7655:7658   */\n      dup2\n        /* \"#utility.yul\":7648:7653   */\n      dup2\n        /* \"#utility.yul\":7645:7659   */\n      lt\n        /* \"#utility.yul\":7638:7758   */\n      iszero\n      tag_150\n      jumpi\n        /* \"#utility.yul\":7709:7748   */\n      tag_151\n        /* \"#utility.yul\":7746:7747   */\n      0x00\n        /* \"#utility.yul\":7739:7744   */\n      dup3\n        /* \"#utility.yul\":7709:7748   */\n      tag_55\n      jump\t// in\n    tag_151:\n        /* \"#utility.yul\":7682:7683   */\n      0x01\n        /* \"#utility.yul\":7675:7680   */\n      dup2\n        /* \"#utility.yul\":7671:7684   */\n      add\n        /* \"#utility.yul\":7662:7684   */\n      swap1\n      pop\n        /* \"#utility.yul\":7638:7758   */\n      jump(tag_148)\n    tag_150:\n        /* \"#utility.yul\":7578:7764   */\n      pop\n      pop\n      jump\t// out\n        /* \"#utility.yul\":7770:8313   */\n    tag_57:\n        /* \"#utility.yul\":7871:7873   */\n      0x1f\n        /* \"#utility.yul\":7866:7869   */\n      dup3\n        /* \"#utility.yul\":7863:7874   */\n      gt\n        /* \"#utility.yul\":7860:8306   */\n      iszero\n      tag_153\n      jumpi\n        /* \"#utility.yul\":7905:7943   */\n      tag_154\n        /* \"#utility.yul\":7937:7942   */\n      dup2\n        /* \"#utility.yul\":7905:7943   */\n      tag_46\n      jump\t// in\n    tag_154:\n        /* \"#utility.yul\":7989:8018   */\n      tag_155\n        /* \"#utility.yul\":8007:8017   */\n      dup5\n        /* \"#utility.yul\":7989:8018   */\n      tag_47\n      jump\t// in\n    tag_155:\n        /* \"#utility.yul\":7979:7987   */\n      dup2\n        /* \"#utility.yul\":7975:8019   */\n      add\n        /* \"#utility.yul\":8172:8174   */\n      0x20\n        /* \"#utility.yul\":8160:8170   */\n      dup6\n        /* \"#utility.yul\":8157:8175   */\n      lt\n        /* \"#utility.yul\":8154:8203   */\n      iszero\n      tag_156\n      jumpi\n        /* \"#utility.yul\":8193:8201   */\n      dup2\n        /* \"#utility.yul\":8178:8201   */\n      swap1\n      pop\n        /* \"#utility.yul\":8154:8203   */\n    tag_156:\n        /* \"#utility.yul\":8216:8296   */\n      tag_157\n        /* \"#utility.yul\":8272:8294   */\n      tag_158\n        /* \"#utility.yul\":8290:8293   */\n      dup6\n        /* \"#utility.yul\":8272:8294   */\n      tag_47\n      jump\t// in\n    tag_158:\n        /* \"#utility.yul\":8262:8270   */\n      dup4\n        /* \"#utility.yul\":8258:8295   */\n      add\n        /* \"#utility.yul\":8245:8256   */\n      dup3\n        /* \"#utility.yul\":8216:8296   */\n      tag_56\n      jump\t// in\n    tag_157:\n        /* \"#utility.yul\":7875:8306   */\n      pop\n      pop\n        /* \"#utility.yul\":7860:8306   */\n    tag_153:\n        /* \"#utility.yul\":7770:8313   */\n      pop\n      pop\n      pop\n      jump\t// out\n        /* \"#utility.yul\":8319:8436   */\n    tag_58:\n        /* \"#utility.yul\":8373:8381   */\n      0x00\n        /* \"#utility.yul\":8423:8428   */\n      dup3\n        /* \"#utility.yul\":8417:8421   */\n      dup3\n        /* \"#utility.yul\":8413:8429   */\n      shr\n        /* \"#utility.yul\":8392:8429   */\n      swap1\n      pop\n        /* \"#utility.yul\":8319:8436   */\n      swap3\n      swap2\n      pop\n      pop\n      jump\t// out\n        /* \"#utility.yul\":8442:8611   */\n    tag_59:\n        /* \"#utility.yul\":8486:8492   */\n      0x00\n        /* \"#utility.yul\":8519:8570   */\n      tag_161\n        /* \"#utility.yul\":8567:8568   */\n      0x00\n        /* \"#utility.yul\":8563:8569   */\n      not\n        /* \"#utility.yul\":8555:8560   */\n      dup5\n        /* \"#utility.yul\":8552:8553   */\n      0x08\n        /* \"#utility.yul\":8548:8561   */\n      mul\n        /* \"#utility.yul\":8519:8570   */\n      tag_58\n      jump\t// in\n    tag_161:\n        /* \"#utility.yul\":8515:8571   */\n      not\n        /* \"#utility.yul\":8600:8604   */\n      dup1\n        /* \"#utility.yul\":8594:8598   */\n      dup4\n        /* \"#utility.yul\":8590:8605   */\n      and\n        /* \"#utility.yul\":8580:8605   */\n      swap2\n      pop\n        /* \"#utility.yul\":8493:8611   */\n      pop\n        /* \"#utility.yul\":8442:8611   */\n      swap3\n      swap2\n      pop\n      pop\n      jump\t// out\n        /* \"#utility.yul\":8616:8911   */\n    tag_60:\n        /* \"#utility.yul\":8692:8696   */\n      0x00\n        /* \"#utility.yul\":8838:8867   */\n      tag_163\n        /* \"#utility.yul\":8863:8866   */\n      dup4\n        /* \"#utility.yul\":8857:8861   */\n      dup4\n        /* \"#utility.yul\":8838:8867   */\n      tag_59\n      jump\t// in\n    tag_163:\n        /* \"#utility.yul\":8830:8867   */\n      swap2\n      pop\n        /* \"#utility.yul\":8900:8903   */\n      dup3\n        /* \"#utility.yul\":8897:8898   */\n      0x02\n        /* \"#utility.yul\":8893:8904   */\n      mul\n        /* \"#utility.yul\":8887:8891   */\n      dup3\n        /* \"#utility.yul\":8884:8905   */\n      or\n        /* \"#utility.yul\":8876:8905   */\n      swap1\n      pop\n        /* \"#utility.yul\":8616:8911   */\n      swap3\n      swap2\n      pop\n      pop\n      jump\t// out\n        /* \"#utility.yul\":8916:10311   */\n    tag_17:\n        /* \"#utility.yul\":9033:9070   */\n      tag_165\n        /* \"#utility.yul\":9066:9069   */\n      dup3\n        /* \"#utility.yul\":9033:9070   */\n      tag_39\n      jump\t// in\n    tag_165:\n        /* \"#utility.yul\":9135:9153   */\n      0xffffffffffffffff\n        /* \"#utility.yul\":9127:9133   */\n      dup2\n        /* \"#utility.yul\":9124:9154   */\n      gt\n        /* \"#utility.yul\":9121:9177   */\n      iszero\n      tag_166\n      jumpi\n        /* \"#utility.yul\":9157:9175   */\n      tag_167\n      tag_44\n      jump\t// in\n    tag_167:\n        /* \"#utility.yul\":9121:9177   */\n    tag_166:\n        /* \"#utility.yul\":9201:9239   */\n      tag_168\n        /* \"#utility.yul\":9233:9237   */\n      dup3\n        /* \"#utility.yul\":9227:9238   */\n      sload\n        /* \"#utility.yul\":9201:9239   */\n      tag_20\n      jump\t// in\n    tag_168:\n        /* \"#utility.yul\":9286:9353   */\n      tag_169\n        /* \"#utility.yul\":9346:9352   */\n      dup3\n        /* \"#utility.yul\":9338:9344   */\n      dup3\n        /* \"#utility.yul\":9332:9336   */\n      dup6\n        /* \"#utility.yul\":9286:9353   */\n      tag_57\n      jump\t// in\n    tag_169:\n        /* \"#utility.yul\":9380:9381   */\n      0x00\n        /* \"#utility.yul\":9404:9408   */\n      0x20\n        /* \"#utility.yul\":9391:9408   */\n      swap1\n      pop\n        /* \"#utility.yul\":9436:9438   */\n      0x1f\n        /* \"#utility.yul\":9428:9434   */\n      dup4\n        /* \"#utility.yul\":9425:9439   */\n      gt\n        /* \"#utility.yul\":9453:9454   */\n      0x01\n        /* \"#utility.yul\":9448:10066   */\n      dup2\n      eq\n      tag_171\n      jumpi\n        /* \"#utility.yul\":10110:10111   */\n      0x00\n        /* \"#utility.yul\":10127:10133   */\n      dup5\n        /* \"#utility.yul\":10124:10201   */\n      iszero\n      tag_172\n      jumpi\n        /* \"#utility.yul\":10176:10185   */\n      dup3\n        /* \"#utility.yul\":10171:10174   */\n      dup8\n        /* \"#utility.yul\":10167:10186   */\n      add\n        /* \"#utility.yul\":10161:10187   */\n      mload\n        /* \"#utility.yul\":10152:10187   */\n      swap1\n      pop\n        /* \"#utility.yul\":10124:10201   */\n    tag_172:\n        /* \"#utility.yul\":10227:10294   */\n      tag_173\n        /* \"#utility.yul\":10287:10293   */\n      dup6\n        /* \"#utility.yul\":10280:10285   */\n      dup3\n        /* \"#utility.yul\":10227:10294   */\n      tag_60\n      jump\t// in\n    tag_173:\n        /* \"#utility.yul\":10221:10225   */\n      dup7\n        /* \"#utility.yul\":10214:10295   */\n      sstore\n        /* \"#utility.yul\":10083:10305   */\n      pop\n        /* \"#utility.yul\":9418:10305   */\n      jump(tag_170)\n        /* \"#utility.yul\":9448:10066   */\n    tag_171:\n        /* \"#utility.yul\":9500:9504   */\n      0x1f\n        /* \"#utility.yul\":9496:9505   */\n      not\n        /* \"#utility.yul\":9488:9494   */\n      dup5\n        /* \"#utility.yul\":9484:9506   */\n      and\n        /* \"#utility.yul\":9534:9571   */\n      tag_174\n        /* \"#utility.yul\":9566:9570   */\n      dup7\n        /* \"#utility.yul\":9534:9571   */\n      tag_46\n      jump\t// in\n    tag_174:\n        /* \"#utility.yul\":9593:9594   */\n      0x00\n        /* \"#utility.yul\":9607:9815   */\n    tag_175:\n        /* \"#utility.yul\":9621:9628   */\n      dup3\n        /* \"#utility.yul\":9618:9619   */\n      dup2\n        /* \"#utility.yul\":9615:9629   */\n      lt\n        /* \"#utility.yul\":9607:9815   */\n      iszero\n      tag_177\n      jumpi\n        /* \"#utility.yul\":9700:9709   */\n      dup5\n        /* \"#utility.yul\":9695:9698   */\n      dup10\n        /* \"#utility.yul\":9691:9710   */\n      add\n        /* \"#utility.yul\":9685:9711   */\n      mload\n        /* \"#utility.yul\":9677:9683   */\n      dup3\n        /* \"#utility.yul\":9670:9712   */\n      sstore\n        /* \"#utility.yul\":9751:9752   */\n      0x01\n        /* \"#utility.yul\":9743:9749   */\n      dup3\n        /* \"#utility.yul\":9739:9753   */\n      add\n        /* \"#utility.yul\":9729:9753   */\n      swap2\n      pop\n        /* \"#utility.yul\":9798:9800   */\n      0x20\n        /* \"#utility.yul\":9787:9796   */\n      dup6\n        /* \"#utility.yul\":9783:9801   */\n      add\n        /* \"#utility.yul\":9770:9801   */\n      swap5\n      pop\n        /* \"#utility.yul\":9644:9648   */\n      0x20\n        /* \"#utility.yul\":9641:9642   */\n      dup2\n        /* \"#utility.yul\":9637:9649   */\n      add\n        /* \"#utility.yul\":9632:9649   */\n      swap1\n      pop\n        /* \"#utility.yul\":9607:9815   */\n      jump(tag_175)\n    tag_177:\n        /* \"#utility.yul\":9843:9849   */\n      dup7\n        /* \"#utility.yul\":9834:9841   */\n      dup4\n        /* \"#utility.yul\":9831:9850   */\n      lt\n        /* \"#utility.yul\":9828:10007   */\n      iszero\n      tag_178\n      jumpi\n        /* \"#utility.yul\":9901:9910   */\n      dup5\n        /* \"#utility.yul\":9896:9899   */\n      dup10\n        /* \"#utility.yul\":9892:9911   */\n      add\n        /* \"#utility.yul\":9886:9912   */\n      mload\n        /* \"#utility.yul\":9944:9992   */\n      tag_179\n        /* \"#utility.yul\":9986:9990   */\n      0x1f\n        /* \"#utility.yul\":9978:9984   */\n      dup10\n        /* \"#utility.yul\":9974:9991   */\n      and\n        /* \"#utility.yul\":9963:9972   */\n      dup3\n        /* \"#utility.yul\":9944:9992   */\n      tag_59\n      jump\t// in\n    tag_179:\n        /* \"#utility.yul\":9936:9942   */\n      dup4\n        /* \"#utility.yul\":9929:9993   */\n      sstore\n        /* \"#utility.yul\":9851:10007   */\n      pop\n        /* \"#utility.yul\":9828:10007   */\n    tag_178:\n        /* \"#utility.yul\":10053:10054   */\n      0x01\n        /* \"#utility.yul\":10049:10050   */\n      0x02\n        /* \"#utility.yul\":10041:10047   */\n      dup9\n        /* \"#utility.yul\":10037:10051   */\n      mul\n        /* \"#utility.yul\":10033:10055   */\n      add\n        /* \"#utility.yul\":10027:10031   */\n      dup9\n        /* \"#utility.yul\":10020:10056   */\n      sstore\n        /* \"#utility.yul\":9455:10066   */\n      pop\n      pop\n      pop\n        /* \"#utility.yul\":9418:10305   */\n    tag_170:\n      pop\n        /* \"#utility.yul\":9008:10311   */\n      pop\n      pop\n      pop\n        /* \"#utility.yul\":8916:10311   */\n      pop\n      pop\n      jump\t// out\n\n    auxdata: 0xa2646970667358221220504f474f6c91abd0f3f1fb3a007ef8acfb4a5daec8dc609e0b9fe1c732e4e3cd64736f6c63430008110033\n}\n",
				"bytecode": {
					"linkReferences": {},
					"object": "608060405234801561001057600080fd5b5061085d806100206000396000f3fe608060405234801561001057600080fd5b50600436106100365760003560e01c80639837ae1a1461003b578063b43c5d3314610057575b600080fd5b61005560048036038101906100509190610335565b610088565b005b610071600480360381019061006c9190610414565b6101c4565b60405161007f9291906104ea565b60405180910390f35b6040518060400160405280607b81526020016040518060400160405280600381526020017f62617200000000000000000000000000000000000000000000000000000000008152508152506000803373ffffffffffffffffffffffffffffffffffffffff1673ffffffffffffffffffffffffffffffffffffffff1681526020019081526020016000206000820151816000015560208201518160010190816101309190610755565b5090505060008060003373ffffffffffffffffffffffffffffffffffffffff1673ffffffffffffffffffffffffffffffffffffffff16815260200190815260200160002090506040518060400160405280600381526020017f666f6f00000000000000000000000000000000000000000000000000000000008152508160010190816101bc9190610755565b505050505050565b60006020528060005260406000206000915090508060000154908060010180546101ed90610578565b80601f016020809104026020016040519081016040528092919081815260200182805461021990610578565b80156102665780601f1061023b57610100808354040283529160200191610266565b820191906000526020600020905b81548152906001019060200180831161024957829003601f168201915b5050505050905082565b600080fd5b600080fd5b600080fd5b600080fd5b600080fd5b60008083601f84011261029f5761029e61027a565b5b8235905067ffffffffffffffff8111156102bc576102bb61027f565b5b6020830191508360208202830111156102d8576102d7610284565b5b9250929050565b60008083601f8401126102f5576102f461027a565b5b8235905067ffffffffffffffff8111156103125761031161027f565b5b60208301915083600182028301111561032e5761032d610284565b5b9250929050565b6000806000806040858703121561034f5761034e610270565b5b600085013567ffffffffffffffff81111561036d5761036c610275565b5b61037987828801610289565b9450945050602085013567ffffffffffffffff81111561039c5761039b610275565b5b6103a8878288016102df565b925092505092959194509250565b600073ffffffffffffffffffffffffffffffffffffffff82169050919050565b60006103e1826103b6565b9050919050565b6103f1816103d6565b81146103fc57600080fd5b50565b60008135905061040e816103e8565b92915050565b60006020828403121561042a57610429610270565b5b6000610438848285016103ff565b91505092915050565b6000819050919050565b61045481610441565b82525050565b600081519050919050565b600082825260208201905092915050565b60005b83811015610494578082015181840152602081019050610479565b60008484015250505050565b6000601f19601f8301169050919050565b60006104bc8261045a565b6104c68185610465565b93506104d6818560208601610476565b6104df816104a0565b840191505092915050565b60006040820190506104ff600083018561044b565b818103602083015261051181846104b1565b90509392505050565b7f4e487b7100000000000000000000000000000000000000000000000000000000600052604160045260246000fd5b7f4e487b7100000000000000000000000000000000000000000000000000000000600052602260045260246000fd5b6000600282049050600182168061059057607f821691505b6020821081036105a3576105a2610549565b5b50919050565b60008190508160005260206000209050919050565b60006020601f8301049050919050565b600082821b905092915050565b60006008830261060b7fffffffffffffffffffffffffffffffffffffffffffffffffffffffffffffffff826105ce565b61061586836105ce565b95508019841693508086168417925050509392505050565b6000819050919050565b600061065261064d61064884610441565b61062d565b610441565b9050919050565b6000819050919050565b61066c83610637565b61068061067882610659565b8484546105db565b825550505050565b600090565b610695610688565b6106a0818484610663565b505050565b5b818110156106c4576106b960008261068d565b6001810190506106a6565b5050565b601f821115610709576106da816105a9565b6106e3846105be565b810160208510156106f2578190505b6107066106fe856105be565b8301826106a5565b50505b505050565b600082821c905092915050565b600061072c6000198460080261070e565b1980831691505092915050565b6000610745838361071b565b9150826002028217905092915050565b61075e8261045a565b67ffffffffffffffff8111156107775761077661051a565b5b6107818254610578565b61078c8282856106c8565b600060209050601f8311600181146107bf57600084156107ad578287015190505b6107b78582610739565b86555061081f565b601f1984166107cd866105a9565b60005b828110156107f5578489015182556001820191506020850194506020810190506107d0565b86831015610812578489015161080e601f89168261071b565b8355505b6001600288020188555050505b50505050505056fea2646970667358221220504f474f6c91abd0f3f1fb3a007ef8acfb4a5daec8dc609e0b9fe1c732e4e3cd64736f6c63430008110033",
					"opcodes": "PUSH1 0x80 PUSH1 0x40 MSTORE CALLVALUE DUP1 ISZERO PUSH2 0x10 JUMPI PUSH1 0x0 DUP1 REVERT JUMPDEST POP PUSH2 0x85D DUP1 PUSH2 0x20 PUSH1 0x0 CODECOPY PUSH1 0x0 RETURN INVALID PUSH1 0x80 PUSH1 0x40 MSTORE CALLVALUE DUP1 ISZERO PUSH2 0x10 JUMPI PUSH1 0x0 DUP1 REVERT JUMPDEST POP PUSH1 0x4 CALLDATASIZE LT PUSH2 0x36 JUMPI PUSH1 0x0 CALLDATALOAD PUSH1 0xE0 SHR DUP1 PUSH4 0x9837AE1A EQ PUSH2 0x3B JUMPI DUP1 PUSH4 0xB43C5D33 EQ PUSH2 0x57 JUMPI JUMPDEST PUSH1 0x0 DUP1 REVERT JUMPDEST PUSH2 0x55 PUSH1 0x4 DUP1 CALLDATASIZE SUB DUP2 ADD SWAP1 PUSH2 0x50 SWAP2 SWAP1 PUSH2 0x335 JUMP JUMPDEST PUSH2 0x88 JUMP JUMPDEST STOP JUMPDEST PUSH2 0x71 PUSH1 0x4 DUP1 CALLDATASIZE SUB DUP2 ADD SWAP1 PUSH2 0x6C SWAP2 SWAP1 PUSH2 0x414 JUMP JUMPDEST PUSH2 0x1C4 JUMP JUMPDEST PUSH1 0x40 MLOAD PUSH2 0x7F SWAP3 SWAP2 SWAP1 PUSH2 0x4EA JUMP JUMPDEST PUSH1 0x40 MLOAD DUP1 SWAP2 SUB SWAP1 RETURN JUMPDEST PUSH1 0x40 MLOAD DUP1 PUSH1 0x40 ADD PUSH1 0x40 MSTORE DUP1 PUSH1 0x7B DUP2 MSTORE PUSH1 0x20 ADD PUSH1 0x40 MLOAD DUP1 PUSH1 0x40 ADD PUSH1 0x40 MSTORE DUP1 PUSH1 0x3 DUP2 MSTORE PUSH1 0x20 ADD PUSH32 0x6261720000000000000000000000000000000000000000000000000000000000 DUP2 MSTORE POP DUP2 MSTORE POP PUSH1 0x0 DUP1 CALLER PUSH20 0xFFFFFFFFFFFFFFFFFFFFFFFFFFFFFFFFFFFFFFFF AND PUSH20 0xFFFFFFFFFFFFFFFFFFFFFFFFFFFFFFFFFFFFFFFF AND DUP2 MSTORE PUSH1 0x20 ADD SWAP1 DUP2 MSTORE PUSH1 0x20 ADD PUSH1 0x0 KECCAK256 PUSH1 0x0 DUP3 ADD MLOAD DUP2 PUSH1 0x0 ADD SSTORE PUSH1 0x20 DUP3 ADD MLOAD DUP2 PUSH1 0x1 ADD SWAP1 DUP2 PUSH2 0x130 SWAP2 SWAP1 PUSH2 0x755 JUMP JUMPDEST POP SWAP1 POP POP PUSH1 0x0 DUP1 PUSH1 0x0 CALLER PUSH20 0xFFFFFFFFFFFFFFFFFFFFFFFFFFFFFFFFFFFFFFFF AND PUSH20 0xFFFFFFFFFFFFFFFFFFFFFFFFFFFFFFFFFFFFFFFF AND DUP2 MSTORE PUSH1 0x20 ADD SWAP1 DUP2 MSTORE PUSH1 0x20 ADD PUSH1 0x0 KECCAK256 SWAP1 POP PUSH1 0x40 MLOAD DUP1 PUSH1 0x40 ADD PUSH1 0x40 MSTORE DUP1 PUSH1 0x3 DUP2 MSTORE PUSH1 0x20 ADD PUSH32 0x666F6F0000000000000000000000000000000000000000000000000000000000 DUP2 MSTORE POP DUP2 PUSH1 0x1 ADD SWAP1 DUP2 PUSH2 0x1BC SWAP2 SWAP1 PUSH2 0x755 JUMP JUMPDEST POP POP POP POP POP POP JUMP JUMPDEST PUSH1 0x0 PUSH1 0x20 MSTORE DUP1 PUSH1 0x0 MSTORE PUSH1 0x40 PUSH1 0x0 KECCAK256 PUSH1 0x0 SWAP2 POP SWAP1 POP DUP1 PUSH1 0x0 ADD SLOAD SWAP1 DUP1 PUSH1 0x1 ADD DUP1 SLOAD PUSH2 0x1ED SWAP1 PUSH2 0x578 JUMP JUMPDEST DUP1 PUSH1 0x1F ADD PUSH1 0x20 DUP1 SWAP2 DIV MUL PUSH1 0x20 ADD PUSH1 0x40 MLOAD SWAP1 DUP2 ADD PUSH1 0x40 MSTORE DUP1 SWAP3 SWAP2 SWAP1 DUP2 DUP2 MSTORE PUSH1 0x20 ADD DUP3 DUP1 SLOAD PUSH2 0x219 SWAP1 PUSH2 0x578 JUMP JUMPDEST DUP1 ISZERO PUSH2 0x266 JUMPI DUP1 PUSH1 0x1F LT PUSH2 0x23B JUMPI PUSH2 0x100 DUP1 DUP4 SLOAD DIV MUL DUP4 MSTORE SWAP2 PUSH1 0x20 ADD SWAP2 PUSH2 0x266 JUMP JUMPDEST DUP3 ADD SWAP2 SWAP1 PUSH1 0x0 MSTORE PUSH1 0x20 PUSH1 0x0 KECCAK256 SWAP1 JUMPDEST DUP2 SLOAD DUP2 MSTORE SWAP1 PUSH1 0x1 ADD SWAP1 PUSH1 0x20 ADD DUP1 DUP4 GT PUSH2 0x249 JUMPI DUP3 SWAP1 SUB PUSH1 0x1F AND DUP3 ADD SWAP2 JUMPDEST POP POP POP POP POP SWAP1 POP DUP3 JUMP JUMPDEST PUSH1 0x0 DUP1 REVERT JUMPDEST PUSH1 0x0 DUP1 REVERT JUMPDEST PUSH1 0x0 DUP1 REVERT JUMPDEST PUSH1 0x0 DUP1 REVERT JUMPDEST PUSH1 0x0 DUP1 REVERT JUMPDEST PUSH1 0x0 DUP1 DUP4 PUSH1 0x1F DUP5 ADD SLT PUSH2 0x29F JUMPI PUSH2 0x29E PUSH2 0x27A JUMP JUMPDEST JUMPDEST DUP3 CALLDATALOAD SWAP1 POP PUSH8 0xFFFFFFFFFFFFFFFF DUP2 GT ISZERO PUSH2 0x2BC JUMPI PUSH2 0x2BB PUSH2 0x27F JUMP JUMPDEST JUMPDEST PUSH1 0x20 DUP4 ADD SWAP2 POP DUP4 PUSH1 0x20 DUP3 MUL DUP4 ADD GT ISZERO PUSH2 0x2D8 JUMPI PUSH2 0x2D7 PUSH2 0x284 JUMP JUMPDEST JUMPDEST SWAP3 POP SWAP3 SWAP1 POP JUMP JUMPDEST PUSH1 0x0 DUP1 DUP4 PUSH1 0x1F DUP5 ADD SLT PUSH2 0x2F5 JUMPI PUSH2 0x2F4 PUSH2 0x27A JUMP JUMPDEST JUMPDEST DUP3 CALLDATALOAD SWAP1 POP PUSH8 0xFFFFFFFFFFFFFFFF DUP2 GT ISZERO PUSH2 0x312 JUMPI PUSH2 0x311 PUSH2 0x27F JUMP JUMPDEST JUMPDEST PUSH1 0x20 DUP4 ADD SWAP2 POP DUP4 PUSH1 0x1 DUP3 MUL DUP4 ADD GT ISZERO PUSH2 0x32E JUMPI PUSH2 0x32D PUSH2 0x284 JUMP JUMPDEST JUMPDEST SWAP3 POP SWAP3 SWAP1 POP JUMP JUMPDEST PUSH1 0x0 DUP1 PUSH1 0x0 DUP1 PUSH1 0x40 DUP6 DUP8 SUB SLT ISZERO PUSH2 0x34F JUMPI PUSH2 0x34E PUSH2 0x270 JUMP JUMPDEST JUMPDEST PUSH1 0x0 DUP6 ADD CALLDATALOAD PUSH8 0xFFFFFFFFFFFFFFFF DUP2 GT ISZERO PUSH2 0x36D JUMPI PUSH2 0x36C PUSH2 0x275 JUMP JUMPDEST JUMPDEST PUSH2 0x379 DUP8 DUP3 DUP9 ADD PUSH2 0x289 JUMP JUMPDEST SWAP5 POP SWAP5 POP POP PUSH1 0x20 DUP6 ADD CALLDATALOAD PUSH8 0xFFFFFFFFFFFFFFFF DUP2 GT ISZERO PUSH2 0x39C JUMPI PUSH2 0x39B PUSH2 0x275 JUMP JUMPDEST JUMPDEST PUSH2 0x3A8 DUP8 DUP3 DUP9 ADD PUSH2 0x2DF JUMP JUMPDEST SWAP3 POP SWAP3 POP POP SWAP3 SWAP6 SWAP2 SWAP5 POP SWAP3 POP JUMP JUMPDEST PUSH1 0x0 PUSH20 0xFFFFFFFFFFFFFFFFFFFFFFFFFFFFFFFFFFFFFFFF DUP3 AND SWAP1 POP SWAP2 SWAP1 POP JUMP JUMPDEST PUSH1 0x0 PUSH2 0x3E1 DUP3 PUSH2 0x3B6 JUMP JUMPDEST SWAP1 POP SWAP2 SWAP1 POP JUMP JUMPDEST PUSH2 0x3F1 DUP2 PUSH2 0x3D6 JUMP JUMPDEST DUP2 EQ PUSH2 0x3FC JUMPI PUSH1 0x0 DUP1 REVERT JUMPDEST POP JUMP JUMPDEST PUSH1 0x0 DUP2 CALLDATALOAD SWAP1 POP PUSH2 0x40E DUP2 PUSH2 0x3E8 JUMP JUMPDEST SWAP3 SWAP2 POP POP JUMP JUMPDEST PUSH1 0x0 PUSH1 0x20 DUP3 DUP5 SUB SLT ISZERO PUSH2 0x42A JUMPI PUSH2 0x429 PUSH2 0x270 JUMP JUMPDEST JUMPDEST PUSH1 0x0 PUSH2 0x438 DUP5 DUP3 DUP6 ADD PUSH2 0x3FF JUMP JUMPDEST SWAP2 POP POP SWAP3 SWAP2 POP POP JUMP JUMPDEST PUSH1 0x0 DUP2 SWAP1 POP SWAP2 SWAP1 POP JUMP JUMPDEST PUSH2 0x454 DUP2 PUSH2 0x441 JUMP JUMPDEST DUP3 MSTORE POP POP JUMP JUMPDEST PUSH1 0x0 DUP2 MLOAD SWAP1 POP SWAP2 SWAP1 POP JUMP JUMPDEST PUSH1 0x0 DUP3 DUP3 MSTORE PUSH1 0x20 DUP3 ADD SWAP1 POP SWAP3 SWAP2 POP POP JUMP JUMPDEST PUSH1 0x0 JUMPDEST DUP4 DUP2 LT ISZERO PUSH2 0x494 JUMPI DUP1 DUP3 ADD MLOAD DUP2 DUP5 ADD MSTORE PUSH1 0x20 DUP2 ADD SWAP1 POP PUSH2 0x479 JUMP JUMPDEST PUSH1 0x0 DUP5 DUP5 ADD MSTORE POP POP POP POP JUMP JUMPDEST PUSH1 0x0 PUSH1 0x1F NOT PUSH1 0x1F DUP4 ADD AND SWAP1 POP SWAP2 SWAP1 POP JUMP JUMPDEST PUSH1 0x0 PUSH2 0x4BC DUP3 PUSH2 0x45A JUMP JUMPDEST PUSH2 0x4C6 DUP2 DUP6 PUSH2 0x465 JUMP JUMPDEST SWAP4 POP PUSH2 0x4D6 DUP2 DUP6 PUSH1 0x20 DUP7 ADD PUSH2 0x476 JUMP JUMPDEST PUSH2 0x4DF DUP2 PUSH2 0x4A0 JUMP JUMPDEST DUP5 ADD SWAP2 POP POP SWAP3 SWAP2 POP POP JUMP JUMPDEST PUSH1 0x0 PUSH1 0x40 DUP3 ADD SWAP1 POP PUSH2 0x4FF PUSH1 0x0 DUP4 ADD DUP6 PUSH2 0x44B JUMP JUMPDEST DUP2 DUP2 SUB PUSH1 0x20 DUP4 ADD MSTORE PUSH2 0x511 DUP2 DUP5 PUSH2 0x4B1 JUMP JUMPDEST SWAP1 POP SWAP4 SWAP3 POP POP POP JUMP JUMPDEST PUSH32 0x4E487B7100000000000000000000000000000000000000000000000000000000 PUSH1 0x0 MSTORE PUSH1 0x41 PUSH1 0x4 MSTORE PUSH1 0x24 PUSH1 0x0 REVERT JUMPDEST PUSH32 0x4E487B7100000000000000000000000000000000000000000000000000000000 PUSH1 0x0 MSTORE PUSH1 0x22 PUSH1 0x4 MSTORE PUSH1 0x24 PUSH1 0x0 REVERT JUMPDEST PUSH1 0x0 PUSH1 0x2 DUP3 DIV SWAP1 POP PUSH1 0x1 DUP3 AND DUP1 PUSH2 0x590 JUMPI PUSH1 0x7F DUP3 AND SWAP2 POP JUMPDEST PUSH1 0x20 DUP3 LT DUP2 SUB PUSH2 0x5A3 JUMPI PUSH2 0x5A2 PUSH2 0x549 JUMP JUMPDEST JUMPDEST POP SWAP2 SWAP1 POP JUMP JUMPDEST PUSH1 0x0 DUP2 SWAP1 POP DUP2 PUSH1 0x0 MSTORE PUSH1 0x20 PUSH1 0x0 KECCAK256 SWAP1 POP SWAP2 SWAP1 POP JUMP JUMPDEST PUSH1 0x0 PUSH1 0x20 PUSH1 0x1F DUP4 ADD DIV SWAP1 POP SWAP2 SWAP1 POP JUMP JUMPDEST PUSH1 0x0 DUP3 DUP3 SHL SWAP1 POP SWAP3 SWAP2 POP POP JUMP JUMPDEST PUSH1 0x0 PUSH1 0x8 DUP4 MUL PUSH2 0x60B PUSH32 0xFFFFFFFFFFFFFFFFFFFFFFFFFFFFFFFFFFFFFFFFFFFFFFFFFFFFFFFFFFFFFFFF DUP3 PUSH2 0x5CE JUMP JUMPDEST PUSH2 0x615 DUP7 DUP4 PUSH2 0x5CE JUMP JUMPDEST SWAP6 POP DUP1 NOT DUP5 AND SWAP4 POP DUP1 DUP7 AND DUP5 OR SWAP3 POP POP POP SWAP4 SWAP3 POP POP POP JUMP JUMPDEST PUSH1 0x0 DUP2 SWAP1 POP SWAP2 SWAP1 POP JUMP JUMPDEST PUSH1 0x0 PUSH2 0x652 PUSH2 0x64D PUSH2 0x648 DUP5 PUSH2 0x441 JUMP JUMPDEST PUSH2 0x62D JUMP JUMPDEST PUSH2 0x441 JUMP JUMPDEST SWAP1 POP SWAP2 SWAP1 POP JUMP JUMPDEST PUSH1 0x0 DUP2 SWAP1 POP SWAP2 SWAP1 POP JUMP JUMPDEST PUSH2 0x66C DUP4 PUSH2 0x637 JUMP JUMPDEST PUSH2 0x680 PUSH2 0x678 DUP3 PUSH2 0x659 JUMP JUMPDEST DUP5 DUP5 SLOAD PUSH2 0x5DB JUMP JUMPDEST DUP3 SSTORE POP POP POP POP JUMP JUMPDEST PUSH1 0x0 SWAP1 JUMP JUMPDEST PUSH2 0x695 PUSH2 0x688 JUMP JUMPDEST PUSH2 0x6A0 DUP2 DUP5 DUP5 PUSH2 0x663 JUMP JUMPDEST POP POP POP JUMP JUMPDEST JUMPDEST DUP2 DUP2 LT ISZERO PUSH2 0x6C4 JUMPI PUSH2 0x6B9 PUSH1 0x0 DUP3 PUSH2 0x68D JUMP JUMPDEST PUSH1 0x1 DUP2 ADD SWAP1 POP PUSH2 0x6A6 JUMP JUMPDEST POP POP JUMP JUMPDEST PUSH1 0x1F DUP3 GT ISZERO PUSH2 0x709 JUMPI PUSH2 0x6DA DUP2 PUSH2 0x5A9 JUMP JUMPDEST PUSH2 0x6E3 DUP5 PUSH2 0x5BE JUMP JUMPDEST DUP2 ADD PUSH1 0x20 DUP6 LT ISZERO PUSH2 0x6F2 JUMPI DUP2 SWAP1 POP JUMPDEST PUSH2 0x706 PUSH2 0x6FE DUP6 PUSH2 0x5BE JUMP JUMPDEST DUP4 ADD DUP3 PUSH2 0x6A5 JUMP JUMPDEST POP POP JUMPDEST POP POP POP JUMP JUMPDEST PUSH1 0x0 DUP3 DUP3 SHR SWAP1 POP SWAP3 SWAP2 POP POP JUMP JUMPDEST PUSH1 0x0 PUSH2 0x72C PUSH1 0x0 NOT DUP5 PUSH1 0x8 MUL PUSH2 0x70E JUMP JUMPDEST NOT DUP1 DUP4 AND SWAP2 POP POP SWAP3 SWAP2 POP POP JUMP JUMPDEST PUSH1 0x0 PUSH2 0x745 DUP4 DUP4 PUSH2 0x71B JUMP JUMPDEST SWAP2 POP DUP3 PUSH1 0x2 MUL DUP3 OR SWAP1 POP SWAP3 SWAP2 POP POP JUMP JUMPDEST PUSH2 0x75E DUP3 PUSH2 0x45A JUMP JUMPDEST PUSH8 0xFFFFFFFFFFFFFFFF DUP2 GT ISZERO PUSH2 0x777 JUMPI PUSH2 0x776 PUSH2 0x51A JUMP JUMPDEST JUMPDEST PUSH2 0x781 DUP3 SLOAD PUSH2 0x578 JUMP JUMPDEST PUSH2 0x78C DUP3 DUP3 DUP6 PUSH2 0x6C8 JUMP JUMPDEST PUSH1 0x0 PUSH1 0x20 SWAP1 POP PUSH1 0x1F DUP4 GT PUSH1 0x1 DUP2 EQ PUSH2 0x7BF JUMPI PUSH1 0x0 DUP5 ISZERO PUSH2 0x7AD JUMPI DUP3 DUP8 ADD MLOAD SWAP1 POP JUMPDEST PUSH2 0x7B7 DUP6 DUP3 PUSH2 0x739 JUMP JUMPDEST DUP7 SSTORE POP PUSH2 0x81F JUMP JUMPDEST PUSH1 0x1F NOT DUP5 AND PUSH2 0x7CD DUP7 PUSH2 0x5A9 JUMP JUMPDEST PUSH1 0x0 JUMPDEST DUP3 DUP2 LT ISZERO PUSH2 0x7F5 JUMPI DUP5 DUP10 ADD MLOAD DUP3 SSTORE PUSH1 0x1 DUP3 ADD SWAP2 POP PUSH1 0x20 DUP6 ADD SWAP5 POP PUSH1 0x20 DUP2 ADD SWAP1 POP PUSH2 0x7D0 JUMP JUMPDEST DUP7 DUP4 LT ISZERO PUSH2 0x812 JUMPI DUP5 DUP10 ADD MLOAD PUSH2 0x80E PUSH1 0x1F DUP10 AND DUP3 PUSH2 0x71B JUMP JUMPDEST DUP4 SSTORE POP JUMPDEST PUSH1 0x1 PUSH1 0x2 DUP9 MUL ADD DUP9 SSTORE POP POP POP JUMPDEST POP POP POP POP POP POP JUMP INVALID LOG2 PUSH5 0x6970667358 0x22 SLT KECCAK256 POP 0x4F SELFBALANCE 0x4F PUSH13 0x91ABD0F3F1FB3A007EF8ACFB4A 0x5D 0xAE 0xC8 0xDC PUSH1 0x9E SIGNEXTEND SWAP16 0xE1 0xC7 ORIGIN 0xE4 0xE3 0xCD PUSH5 0x736F6C6343 STOP ADDMOD GT STOP CALLER "
				},
				"gasEstimates": {
					"creation": {
						"codeDepositCost": "428200",
						"executionCost": "461",
						"totalCost": "428661"
					},
					"external": {
						"example(uint256[],string)": "infinite",
						"myStructs(address)": "infinite"
					}
				},
				"methodIdentifiers": {
					"example(uint256[],string)": "9837ae1a",
					"myStructs(address)": "b43c5d33"
				}
			},
			"storageLayout": {
				"storage": [
					{
						"astId": 11,
						"contract": "DataLocations.sol:DataLocations",
						"label": "myStructs",
						"offset": 0,
						"slot": "0",
						"type": "t_mapping(t_address,t_struct(MyStruct)6_storage)"
					}
				],
				"types": {
					"t_address": {
						"encoding": "inplace",
						"label": "address",
						"numberOfBytes": "20"
					},
					"t_mapping(t_address,t_struct(MyStruct)6_storage)": {
						"encoding": "mapping",
						"key": "t_address",
						"label": "mapping(address => struct DataLocations.MyStruct)",
						"numberOfBytes": "32",
						"value": "t_struct(MyStruct)6_storage"
					},
					"t_string_storage": {
						"encoding": "bytes",
						"label": "string",
						"numberOfBytes": "32"
					},
					"t_struct(MyStruct)6_storage": {
						"encoding": "inplace",
						"label": "struct DataLocations.MyStruct",
						"members": [
							{
								"astId": 3,
								"contract": "DataLocations.sol:DataLocations",
								"label": "foo",
								"offset": 0,
								"slot": "0",
								"type": "t_uint256"
							},
							{
								"astId": 5,
								"contract": "DataLocations.sol:DataLocations",
								"label": "text",
								"offset": 0,
								"slot": "1",
								"type": "t_string_storage"
							}
						],
						"numberOfBytes": "64"
					},
					"t_uint256": {
						"encoding": "inplace",
						"label": "uint256",
						"numberOfBytes": "32"
					}
				}
			},
			"userdoc": {
				"kind": "user",
				"methods": {},
				"version": 1
			}
		}
	}
}