{
	"TimeLock.sol": {
		"TimeLock": {
			"abi": [
				{
					"inputs": [],
					"stateMutability": "nonpayable",
					"type": "constructor"
				},
				{
					"inputs": [
						{
							"internalType": "bytes32",
							"name": "",
							"type": "bytes32"
						}
					],
					"name": "AlreadyQueuedError",
					"type": "error"
				},
				{
					"inputs": [],
					"name": "NotOwnerError",
					"type": "error"
				},
				{
					"inputs": [
						{
							"internalType": "uint256",
							"name": "blockTimestamp",
							"type": "uint256"
						},
						{
							"internalType": "uint256",
							"name": "timestamp",
							"type": "uint256"
						}
					],
					"name": "TimestampNotInRangeError",
					"type": "error"
				},
				{
					"inputs": [],
					"name": "MAX_DELAY",
					"outputs": [
						{
							"internalType": "uint256",
							"name": "",
							"type": "uint256"
						}
					],
					"stateMutability": "view",
					"type": "function"
				},
				{
					"inputs": [],
					"name": "MIN_DELAY",
					"outputs": [
						{
							"internalType": "uint256",
							"name": "",
							"type": "uint256"
						}
					],
					"stateMutability": "view",
					"type": "function"
				},
				{
					"inputs": [],
					"name": "execute",
					"outputs": [],
					"stateMutability": "nonpayable",
					"type": "function"
				},
				{
					"inputs": [
						{
							"internalType": "address",
							"name": "_target",
							"type": "address"
						},
						{
							"internalType": "uint256",
							"name": "_value",
							"type": "uint256"
						},
						{
							"internalType": "string",
							"name": "_func",
							"type": "string"
						},
						{
							"internalType": "bytes",
							"name": "_data",
							"type": "bytes"
						},
						{
							"internalType": "uint256",
							"name": "_timestamp",
							"type": "uint256"
						}
					],
					"name": "getTxId",
					"outputs": [
						{
							"internalType": "bytes32",
							"name": "txId",
							"type": "bytes32"
						}
					],
					"stateMutability": "pure",
					"type": "function"
				},
				{
					"inputs": [],
					"name": "owner",
					"outputs": [
						{
							"internalType": "address",
							"name": "",
							"type": "address"
						}
					],
					"stateMutability": "view",
					"type": "function"
				},
				{
					"inputs": [
						{
							"internalType": "address",
							"name": "_target",
							"type": "address"
						},
						{
							"internalType": "uint256",
							"name": "_value",
							"type": "uint256"
						},
						{
							"internalType": "string",
							"name": "_func",
							"type": "string"
						},
						{
							"internalType": "bytes",
							"name": "_data",
							"type": "bytes"
						},
						{
							"internalType": "uint256",
							"name": "_timestamp",
							"type": "uint256"
						}
					],
					"name": "queue",
					"outputs": [],
					"stateMutability": "nonpayable",
					"type": "function"
				},
				{
					"inputs": [
						{
							"internalType": "bytes32",
							"name": "",
							"type": "bytes32"
						}
					],
					"name": "queued",
					"outputs": [
						{
							"internalType": "bool",
							"name": "",
							"type": "bool"
						}
					],
					"stateMutability": "view",
					"type": "function"
				}
			],
			"devdoc": {
				"kind": "dev",
				"methods": {},
				"version": 1
			},
			"evm": {
				"assembly": "    /* \"TimeLock.sol\":61:1511  contract TimeLock {... */\n  mstore(0x40, 0x80)\n    /* \"TimeLock.sol\":393:444  constructor() {... */\n  callvalue\n  dup1\n  iszero\n  tag_1\n  jumpi\n  0x00\n  dup1\n  revert\ntag_1:\n  pop\n    /* \"TimeLock.sol\":426:436  msg.sender */\n  caller\n    /* \"TimeLock.sol\":418:423  owner */\n  0x00\n  dup1\n    /* \"TimeLock.sol\":418:436  owner = msg.sender */\n  0x0100\n  exp\n  dup2\n  sload\n  dup2\n  0xffffffffffffffffffffffffffffffffffffffff\n  mul\n  not\n  and\n  swap1\n  dup4\n  0xffffffffffffffffffffffffffffffffffffffff\n  and\n  mul\n  or\n  swap1\n  sstore\n  pop\n    /* \"TimeLock.sol\":61:1511  contract TimeLock {... */\n  dataSize(sub_0)\n  dup1\n  dataOffset(sub_0)\n  0x00\n  codecopy\n  0x00\n  return\nstop\n\nsub_0: assembly {\n        /* \"TimeLock.sol\":61:1511  contract TimeLock {... */\n      mstore(0x40, 0x80)\n      callvalue\n      dup1\n      iszero\n      tag_1\n      jumpi\n      0x00\n      dup1\n      revert\n    tag_1:\n      pop\n      jumpi(tag_2, lt(calldatasize, 0x04))\n      shr(0xe0, calldataload(0x00))\n      dup1\n      0x61461954\n      gt\n      tag_10\n      jumpi\n      dup1\n      0x61461954\n      eq\n      tag_6\n      jumpi\n      dup1\n      0x8a1ce0b6\n      eq\n      tag_7\n      jumpi\n      dup1\n      0x8da5cb5b\n      eq\n      tag_8\n      jumpi\n      dup1\n      0x9f81aed7\n      eq\n      tag_9\n      jumpi\n      jump(tag_2)\n    tag_10:\n      dup1\n      0x228250c9\n      eq\n      tag_3\n      jumpi\n      dup1\n      0x4125ff90\n      eq\n      tag_4\n      jumpi\n      dup1\n      0x4b9915a5\n      eq\n      tag_5\n      jumpi\n    tag_2:\n      0x00\n      dup1\n      revert\n        /* \"TimeLock.sol\":345:384  mapping (bytes32 => bool) public queued */\n    tag_3:\n      tag_11\n      0x04\n      dup1\n      calldatasize\n      sub\n      dup2\n      add\n      swap1\n      tag_12\n      swap2\n      swap1\n      tag_13\n      jump\t// in\n    tag_12:\n      tag_14\n      jump\t// in\n    tag_11:\n      mload(0x40)\n      tag_15\n      swap2\n      swap1\n      tag_16\n      jump\t// in\n    tag_15:\n      mload(0x40)\n      dup1\n      swap2\n      sub\n      swap1\n      return\n        /* \"TimeLock.sol\":272:309  uint public constant MAX_DELAY = 1000 */\n    tag_4:\n      tag_17\n      tag_18\n      jump\t// in\n    tag_17:\n      mload(0x40)\n      tag_19\n      swap2\n      swap1\n      tag_20\n      jump\t// in\n    tag_19:\n      mload(0x40)\n      dup1\n      swap2\n      sub\n      swap1\n      return\n        /* \"TimeLock.sol\":883:1472  function queue(... */\n    tag_5:\n      tag_21\n      0x04\n      dup1\n      calldatasize\n      sub\n      dup2\n      add\n      swap1\n      tag_22\n      swap2\n      swap1\n      tag_23\n      jump\t// in\n    tag_22:\n      tag_24\n      jump\t// in\n    tag_21:\n      stop\n        /* \"TimeLock.sol\":1478:1508  function execute() external {} */\n    tag_6:\n      tag_25\n      tag_26\n      jump\t// in\n    tag_25:\n      stop\n        /* \"TimeLock.sol\":585:875  function getTxId(address _target, uint _value, string calldata _func, bytes calldata _data, uint _timestamp) public pure returns (bytes32 txId) {... */\n    tag_7:\n      tag_27\n      0x04\n      dup1\n      calldatasize\n      sub\n      dup2\n      add\n      swap1\n      tag_28\n      swap2\n      swap1\n      tag_23\n      jump\t// in\n    tag_28:\n      tag_29\n      jump\t// in\n    tag_27:\n      mload(0x40)\n      tag_30\n      swap2\n      swap1\n      tag_31\n      jump\t// in\n    tag_30:\n      mload(0x40)\n      dup1\n      swap2\n      sub\n      swap1\n      return\n        /* \"TimeLock.sol\":318:338  address public owner */\n    tag_8:\n      tag_32\n      tag_33\n      jump\t// in\n    tag_32:\n      mload(0x40)\n      tag_34\n      swap2\n      swap1\n      tag_35\n      jump\t// in\n    tag_34:\n      mload(0x40)\n      dup1\n      swap2\n      sub\n      swap1\n      return\n        /* \"TimeLock.sol\":230:265  uint public constant MIN_DELAY = 10 */\n    tag_9:\n      tag_36\n      tag_37\n      jump\t// in\n    tag_36:\n      mload(0x40)\n      tag_38\n      swap2\n      swap1\n      tag_20\n      jump\t// in\n    tag_38:\n      mload(0x40)\n      dup1\n      swap2\n      sub\n      swap1\n      return\n        /* \"TimeLock.sol\":345:384  mapping (bytes32 => bool) public queued */\n    tag_14:\n      mstore(0x20, 0x01)\n      dup1\n      0x00\n      mstore\n      keccak256(0x00, 0x40)\n      0x00\n      swap2\n      pop\n      sload\n      swap1\n      0x0100\n      exp\n      swap1\n      div\n      0xff\n      and\n      dup2\n      jump\t// out\n        /* \"TimeLock.sol\":272:309  uint public constant MAX_DELAY = 1000 */\n    tag_18:\n        /* \"TimeLock.sol\":305:309  1000 */\n      0x03e8\n        /* \"TimeLock.sol\":272:309  uint public constant MAX_DELAY = 1000 */\n      dup2\n      jump\t// out\n        /* \"TimeLock.sol\":883:1472  function queue(... */\n    tag_24:\n        /* \"TimeLock.sol\":502:507  owner */\n      0x00\n      dup1\n      sload\n      swap1\n      0x0100\n      exp\n      swap1\n      div\n      0xffffffffffffffffffffffffffffffffffffffff\n      and\n        /* \"TimeLock.sol\":488:507  msg.sender != owner */\n      0xffffffffffffffffffffffffffffffffffffffff\n      and\n        /* \"TimeLock.sol\":488:498  msg.sender */\n      caller\n        /* \"TimeLock.sol\":488:507  msg.sender != owner */\n      0xffffffffffffffffffffffffffffffffffffffff\n      and\n      eq\n        /* \"TimeLock.sol\":484:558  if (msg.sender != owner) {... */\n      tag_40\n      jumpi\n        /* \"TimeLock.sol\":531:546  NotOwnerError() */\n      mload(0x40)\n      0x74a2152700000000000000000000000000000000000000000000000000000000\n      dup2\n      mstore\n      0x04\n      add\n      mload(0x40)\n      dup1\n      swap2\n      sub\n      swap1\n      revert\n        /* \"TimeLock.sol\":484:558  if (msg.sender != owner) {... */\n    tag_40:\n        /* \"TimeLock.sol\":1071:1083  bytes32 txId */\n      0x00\n        /* \"TimeLock.sol\":1086:1136  getTxId(_target, _value, _func, _data, _timestamp) */\n      tag_42\n        /* \"TimeLock.sol\":1094:1101  _target */\n      dup9\n        /* \"TimeLock.sol\":1103:1109  _value */\n      dup9\n        /* \"TimeLock.sol\":1111:1116  _func */\n      dup9\n      dup9\n        /* \"TimeLock.sol\":1118:1123  _data */\n      dup9\n      dup9\n        /* \"TimeLock.sol\":1125:1135  _timestamp */\n      dup9\n        /* \"TimeLock.sol\":1086:1093  getTxId */\n      tag_29\n        /* \"TimeLock.sol\":1086:1136  getTxId(_target, _value, _func, _data, _timestamp) */\n      jump\t// in\n    tag_42:\n        /* \"TimeLock.sol\":1071:1136  bytes32 txId = getTxId(_target, _value, _func, _data, _timestamp) */\n      swap1\n      pop\n        /* \"TimeLock.sol\":1151:1157  queued */\n      0x01\n        /* \"TimeLock.sol\":1151:1163  queued[txId] */\n      0x00\n        /* \"TimeLock.sol\":1158:1162  txId */\n      dup3\n        /* \"TimeLock.sol\":1151:1163  queued[txId] */\n      dup2\n      mstore\n      0x20\n      add\n      swap1\n      dup2\n      mstore\n      0x20\n      add\n      0x00\n      keccak256\n      0x00\n      swap1\n      sload\n      swap1\n      0x0100\n      exp\n      swap1\n      div\n      0xff\n      and\n        /* \"TimeLock.sol\":1147:1223  if (queued[txId]) {... */\n      iszero\n      tag_43\n      jumpi\n        /* \"TimeLock.sol\":1206:1210  txId */\n      dup1\n        /* \"TimeLock.sol\":1187:1211  AlreadyQueuedError(txId) */\n      mload(0x40)\n      0x995042be00000000000000000000000000000000000000000000000000000000\n      dup2\n      mstore\n      0x04\n      add\n      tag_44\n      swap2\n      swap1\n      tag_31\n      jump\t// in\n    tag_44:\n      mload(0x40)\n      dup1\n      swap2\n      sub\n      swap1\n      revert\n        /* \"TimeLock.sol\":1147:1223  if (queued[txId]) {... */\n    tag_43:\n        /* \"TimeLock.sol\":263:265  10 */\n      0x0a\n        /* \"TimeLock.sol\":1250:1265  block.timestamp */\n      timestamp\n        /* \"TimeLock.sol\":1250:1277  block.timestamp + MIN_DELAY */\n      tag_45\n      swap2\n      swap1\n      tag_46\n      jump\t// in\n    tag_45:\n        /* \"TimeLock.sol\":1237:1247  _timestamp */\n      dup3\n        /* \"TimeLock.sol\":1237:1277  _timestamp < block.timestamp + MIN_DELAY */\n      lt\n        /* \"TimeLock.sol\":1237:1334  _timestamp < block.timestamp + MIN_DELAY ||... */\n      dup1\n      tag_47\n      jumpi\n      pop\n        /* \"TimeLock.sol\":305:309  1000 */\n      0x03e8\n        /* \"TimeLock.sol\":1307:1322  block.timestamp */\n      timestamp\n        /* \"TimeLock.sol\":1307:1334  block.timestamp + MAX_DELAY */\n      tag_48\n      swap2\n      swap1\n      tag_46\n      jump\t// in\n    tag_48:\n        /* \"TimeLock.sol\":1294:1304  _timestamp */\n      dup3\n        /* \"TimeLock.sol\":1294:1334  _timestamp > block.timestamp + MAX_DELAY */\n      gt\n        /* \"TimeLock.sol\":1237:1334  _timestamp < block.timestamp + MIN_DELAY ||... */\n    tag_47:\n        /* \"TimeLock.sol\":1233:1433  if (_timestamp < block.timestamp + MIN_DELAY ||... */\n      iszero\n      tag_49\n      jumpi\n        /* \"TimeLock.sol\":1393:1408  block.timestamp */\n      timestamp\n        /* \"TimeLock.sol\":1410:1420  _timestamp */\n      dup3\n        /* \"TimeLock.sol\":1368:1421  TimestampNotInRangeError(block.timestamp, _timestamp) */\n      mload(0x40)\n      0x1a9616c200000000000000000000000000000000000000000000000000000000\n      dup2\n      mstore\n      0x04\n      add\n      tag_50\n      swap3\n      swap2\n      swap1\n      tag_51\n      jump\t// in\n    tag_50:\n      mload(0x40)\n      dup1\n      swap2\n      sub\n      swap1\n      revert\n        /* \"TimeLock.sol\":1233:1433  if (_timestamp < block.timestamp + MIN_DELAY ||... */\n    tag_49:\n        /* \"TimeLock.sol\":1460:1464  true */\n      0x01\n        /* \"TimeLock.sol\":1445:1451  queued */\n      dup1\n        /* \"TimeLock.sol\":1445:1457  queued[txId] */\n      0x00\n        /* \"TimeLock.sol\":1452:1456  txId */\n      dup4\n        /* \"TimeLock.sol\":1445:1457  queued[txId] */\n      dup2\n      mstore\n      0x20\n      add\n      swap1\n      dup2\n      mstore\n      0x20\n      add\n      0x00\n      keccak256\n      0x00\n        /* \"TimeLock.sol\":1445:1464  queued[txId] = true */\n      0x0100\n      exp\n      dup2\n      sload\n      dup2\n      0xff\n      mul\n      not\n      and\n      swap1\n      dup4\n      iszero\n      iszero\n      mul\n      or\n      swap1\n      sstore\n      pop\n        /* \"TimeLock.sol\":1060:1472  {... */\n      pop\n        /* \"TimeLock.sol\":883:1472  function queue(... */\n      pop\n      pop\n      pop\n      pop\n      pop\n      pop\n      pop\n      jump\t// out\n        /* \"TimeLock.sol\":1478:1508  function execute() external {} */\n    tag_26:\n      jump\t// out\n        /* \"TimeLock.sol\":585:875  function getTxId(address _target, uint _value, string calldata _func, bytes calldata _data, uint _timestamp) public pure returns (bytes32 txId) {... */\n    tag_29:\n        /* \"TimeLock.sol\":715:727  bytes32 txId */\n      0x00\n        /* \"TimeLock.sol\":800:807  _target */\n      dup8\n        /* \"TimeLock.sol\":809:815  _value */\n      dup8\n        /* \"TimeLock.sol\":817:822  _func */\n      dup8\n      dup8\n        /* \"TimeLock.sol\":824:829  _data */\n      dup8\n      dup8\n        /* \"TimeLock.sol\":831:841  _timestamp */\n      dup8\n        /* \"TimeLock.sol\":771:856  abi.encode(... */\n      add(0x20, mload(0x40))\n      tag_54\n      swap8\n      swap7\n      swap6\n      swap5\n      swap4\n      swap3\n      swap2\n      swap1\n      tag_55\n      jump\t// in\n    tag_54:\n      mload(0x40)\n      0x20\n      dup2\n      dup4\n      sub\n      sub\n      dup2\n      mstore\n      swap1\n      0x40\n      mstore\n        /* \"TimeLock.sol\":747:867  keccak256(... */\n      dup1\n      mload\n      swap1\n      0x20\n      add\n      keccak256\n        /* \"TimeLock.sol\":740:867  return keccak256(... */\n      swap1\n      pop\n        /* \"TimeLock.sol\":585:875  function getTxId(address _target, uint _value, string calldata _func, bytes calldata _data, uint _timestamp) public pure returns (bytes32 txId) {... */\n      swap8\n      swap7\n      pop\n      pop\n      pop\n      pop\n      pop\n      pop\n      pop\n      jump\t// out\n        /* \"TimeLock.sol\":318:338  address public owner */\n    tag_33:\n      0x00\n      dup1\n      sload\n      swap1\n      0x0100\n      exp\n      swap1\n      div\n      0xffffffffffffffffffffffffffffffffffffffff\n      and\n      dup2\n      jump\t// out\n        /* \"TimeLock.sol\":230:265  uint public constant MIN_DELAY = 10 */\n    tag_37:\n        /* \"TimeLock.sol\":263:265  10 */\n      0x0a\n        /* \"TimeLock.sol\":230:265  uint public constant MIN_DELAY = 10 */\n      dup2\n      jump\t// out\n        /* \"#utility.yul\":88:205   */\n    tag_57:\n        /* \"#utility.yul\":197:198   */\n      0x00\n        /* \"#utility.yul\":194:195   */\n      dup1\n        /* \"#utility.yul\":187:199   */\n      revert\n        /* \"#utility.yul\":211:328   */\n    tag_58:\n        /* \"#utility.yul\":320:321   */\n      0x00\n        /* \"#utility.yul\":317:318   */\n      dup1\n        /* \"#utility.yul\":310:322   */\n      revert\n        /* \"#utility.yul\":334:411   */\n    tag_59:\n        /* \"#utility.yul\":371:378   */\n      0x00\n        /* \"#utility.yul\":400:405   */\n      dup2\n        /* \"#utility.yul\":389:405   */\n      swap1\n      pop\n        /* \"#utility.yul\":334:411   */\n      swap2\n      swap1\n      pop\n      jump\t// out\n        /* \"#utility.yul\":417:539   */\n    tag_60:\n        /* \"#utility.yul\":490:514   */\n      tag_92\n        /* \"#utility.yul\":508:513   */\n      dup2\n        /* \"#utility.yul\":490:514   */\n      tag_59\n      jump\t// in\n    tag_92:\n        /* \"#utility.yul\":483:488   */\n      dup2\n        /* \"#utility.yul\":480:515   */\n      eq\n        /* \"#utility.yul\":470:533   */\n      tag_93\n      jumpi\n        /* \"#utility.yul\":529:530   */\n      0x00\n        /* \"#utility.yul\":526:527   */\n      dup1\n        /* \"#utility.yul\":519:531   */\n      revert\n        /* \"#utility.yul\":470:533   */\n    tag_93:\n        /* \"#utility.yul\":417:539   */\n      pop\n      jump\t// out\n        /* \"#utility.yul\":545:684   */\n    tag_61:\n        /* \"#utility.yul\":591:596   */\n      0x00\n        /* \"#utility.yul\":629:635   */\n      dup2\n        /* \"#utility.yul\":616:636   */\n      calldataload\n        /* \"#utility.yul\":607:636   */\n      swap1\n      pop\n        /* \"#utility.yul\":645:678   */\n      tag_95\n        /* \"#utility.yul\":672:677   */\n      dup2\n        /* \"#utility.yul\":645:678   */\n      tag_60\n      jump\t// in\n    tag_95:\n        /* \"#utility.yul\":545:684   */\n      swap3\n      swap2\n      pop\n      pop\n      jump\t// out\n        /* \"#utility.yul\":690:1019   */\n    tag_13:\n        /* \"#utility.yul\":749:755   */\n      0x00\n        /* \"#utility.yul\":798:800   */\n      0x20\n        /* \"#utility.yul\":786:795   */\n      dup3\n        /* \"#utility.yul\":777:784   */\n      dup5\n        /* \"#utility.yul\":773:796   */\n      sub\n        /* \"#utility.yul\":769:801   */\n      slt\n        /* \"#utility.yul\":766:885   */\n      iszero\n      tag_97\n      jumpi\n        /* \"#utility.yul\":804:883   */\n      tag_98\n      tag_57\n      jump\t// in\n    tag_98:\n        /* \"#utility.yul\":766:885   */\n    tag_97:\n        /* \"#utility.yul\":924:925   */\n      0x00\n        /* \"#utility.yul\":949:1002   */\n      tag_99\n        /* \"#utility.yul\":994:1001   */\n      dup5\n        /* \"#utility.yul\":985:991   */\n      dup3\n        /* \"#utility.yul\":974:983   */\n      dup6\n        /* \"#utility.yul\":970:992   */\n      add\n        /* \"#utility.yul\":949:1002   */\n      tag_61\n      jump\t// in\n    tag_99:\n        /* \"#utility.yul\":939:1002   */\n      swap2\n      pop\n        /* \"#utility.yul\":895:1012   */\n      pop\n        /* \"#utility.yul\":690:1019   */\n      swap3\n      swap2\n      pop\n      pop\n      jump\t// out\n        /* \"#utility.yul\":1025:1115   */\n    tag_62:\n        /* \"#utility.yul\":1059:1066   */\n      0x00\n        /* \"#utility.yul\":1102:1107   */\n      dup2\n        /* \"#utility.yul\":1095:1108   */\n      iszero\n        /* \"#utility.yul\":1088:1109   */\n      iszero\n        /* \"#utility.yul\":1077:1109   */\n      swap1\n      pop\n        /* \"#utility.yul\":1025:1115   */\n      swap2\n      swap1\n      pop\n      jump\t// out\n        /* \"#utility.yul\":1121:1230   */\n    tag_63:\n        /* \"#utility.yul\":1202:1223   */\n      tag_102\n        /* \"#utility.yul\":1217:1222   */\n      dup2\n        /* \"#utility.yul\":1202:1223   */\n      tag_62\n      jump\t// in\n    tag_102:\n        /* \"#utility.yul\":1197:1200   */\n      dup3\n        /* \"#utility.yul\":1190:1224   */\n      mstore\n        /* \"#utility.yul\":1121:1230   */\n      pop\n      pop\n      jump\t// out\n        /* \"#utility.yul\":1236:1446   */\n    tag_16:\n        /* \"#utility.yul\":1323:1327   */\n      0x00\n        /* \"#utility.yul\":1361:1363   */\n      0x20\n        /* \"#utility.yul\":1350:1359   */\n      dup3\n        /* \"#utility.yul\":1346:1364   */\n      add\n        /* \"#utility.yul\":1338:1364   */\n      swap1\n      pop\n        /* \"#utility.yul\":1374:1439   */\n      tag_104\n        /* \"#utility.yul\":1436:1437   */\n      0x00\n        /* \"#utility.yul\":1425:1434   */\n      dup4\n        /* \"#utility.yul\":1421:1438   */\n      add\n        /* \"#utility.yul\":1412:1418   */\n      dup5\n        /* \"#utility.yul\":1374:1439   */\n      tag_63\n      jump\t// in\n    tag_104:\n        /* \"#utility.yul\":1236:1446   */\n      swap3\n      swap2\n      pop\n      pop\n      jump\t// out\n        /* \"#utility.yul\":1452:1529   */\n    tag_64:\n        /* \"#utility.yul\":1489:1496   */\n      0x00\n        /* \"#utility.yul\":1518:1523   */\n      dup2\n        /* \"#utility.yul\":1507:1523   */\n      swap1\n      pop\n        /* \"#utility.yul\":1452:1529   */\n      swap2\n      swap1\n      pop\n      jump\t// out\n        /* \"#utility.yul\":1535:1653   */\n    tag_65:\n        /* \"#utility.yul\":1622:1646   */\n      tag_107\n        /* \"#utility.yul\":1640:1645   */\n      dup2\n        /* \"#utility.yul\":1622:1646   */\n      tag_64\n      jump\t// in\n    tag_107:\n        /* \"#utility.yul\":1617:1620   */\n      dup3\n        /* \"#utility.yul\":1610:1647   */\n      mstore\n        /* \"#utility.yul\":1535:1653   */\n      pop\n      pop\n      jump\t// out\n        /* \"#utility.yul\":1659:1881   */\n    tag_20:\n        /* \"#utility.yul\":1752:1756   */\n      0x00\n        /* \"#utility.yul\":1790:1792   */\n      0x20\n        /* \"#utility.yul\":1779:1788   */\n      dup3\n        /* \"#utility.yul\":1775:1793   */\n      add\n        /* \"#utility.yul\":1767:1793   */\n      swap1\n      pop\n        /* \"#utility.yul\":1803:1874   */\n      tag_109\n        /* \"#utility.yul\":1871:1872   */\n      0x00\n        /* \"#utility.yul\":1860:1869   */\n      dup4\n        /* \"#utility.yul\":1856:1873   */\n      add\n        /* \"#utility.yul\":1847:1853   */\n      dup5\n        /* \"#utility.yul\":1803:1874   */\n      tag_65\n      jump\t// in\n    tag_109:\n        /* \"#utility.yul\":1659:1881   */\n      swap3\n      swap2\n      pop\n      pop\n      jump\t// out\n        /* \"#utility.yul\":1887:2013   */\n    tag_66:\n        /* \"#utility.yul\":1924:1931   */\n      0x00\n        /* \"#utility.yul\":1964:2006   */\n      0xffffffffffffffffffffffffffffffffffffffff\n        /* \"#utility.yul\":1957:1962   */\n      dup3\n        /* \"#utility.yul\":1953:2007   */\n      and\n        /* \"#utility.yul\":1942:2007   */\n      swap1\n      pop\n        /* \"#utility.yul\":1887:2013   */\n      swap2\n      swap1\n      pop\n      jump\t// out\n        /* \"#utility.yul\":2019:2115   */\n    tag_67:\n        /* \"#utility.yul\":2056:2063   */\n      0x00\n        /* \"#utility.yul\":2085:2109   */\n      tag_112\n        /* \"#utility.yul\":2103:2108   */\n      dup3\n        /* \"#utility.yul\":2085:2109   */\n      tag_66\n      jump\t// in\n    tag_112:\n        /* \"#utility.yul\":2074:2109   */\n      swap1\n      pop\n        /* \"#utility.yul\":2019:2115   */\n      swap2\n      swap1\n      pop\n      jump\t// out\n        /* \"#utility.yul\":2121:2243   */\n    tag_68:\n        /* \"#utility.yul\":2194:2218   */\n      tag_114\n        /* \"#utility.yul\":2212:2217   */\n      dup2\n        /* \"#utility.yul\":2194:2218   */\n      tag_67\n      jump\t// in\n    tag_114:\n        /* \"#utility.yul\":2187:2192   */\n      dup2\n        /* \"#utility.yul\":2184:2219   */\n      eq\n        /* \"#utility.yul\":2174:2237   */\n      tag_115\n      jumpi\n        /* \"#utility.yul\":2233:2234   */\n      0x00\n        /* \"#utility.yul\":2230:2231   */\n      dup1\n        /* \"#utility.yul\":2223:2235   */\n      revert\n        /* \"#utility.yul\":2174:2237   */\n    tag_115:\n        /* \"#utility.yul\":2121:2243   */\n      pop\n      jump\t// out\n        /* \"#utility.yul\":2249:2388   */\n    tag_69:\n        /* \"#utility.yul\":2295:2300   */\n      0x00\n        /* \"#utility.yul\":2333:2339   */\n      dup2\n        /* \"#utility.yul\":2320:2340   */\n      calldataload\n        /* \"#utility.yul\":2311:2340   */\n      swap1\n      pop\n        /* \"#utility.yul\":2349:2382   */\n      tag_117\n        /* \"#utility.yul\":2376:2381   */\n      dup2\n        /* \"#utility.yul\":2349:2382   */\n      tag_68\n      jump\t// in\n    tag_117:\n        /* \"#utility.yul\":2249:2388   */\n      swap3\n      swap2\n      pop\n      pop\n      jump\t// out\n        /* \"#utility.yul\":2394:2516   */\n    tag_70:\n        /* \"#utility.yul\":2467:2491   */\n      tag_119\n        /* \"#utility.yul\":2485:2490   */\n      dup2\n        /* \"#utility.yul\":2467:2491   */\n      tag_64\n      jump\t// in\n    tag_119:\n        /* \"#utility.yul\":2460:2465   */\n      dup2\n        /* \"#utility.yul\":2457:2492   */\n      eq\n        /* \"#utility.yul\":2447:2510   */\n      tag_120\n      jumpi\n        /* \"#utility.yul\":2506:2507   */\n      0x00\n        /* \"#utility.yul\":2503:2504   */\n      dup1\n        /* \"#utility.yul\":2496:2508   */\n      revert\n        /* \"#utility.yul\":2447:2510   */\n    tag_120:\n        /* \"#utility.yul\":2394:2516   */\n      pop\n      jump\t// out\n        /* \"#utility.yul\":2522:2661   */\n    tag_71:\n        /* \"#utility.yul\":2568:2573   */\n      0x00\n        /* \"#utility.yul\":2606:2612   */\n      dup2\n        /* \"#utility.yul\":2593:2613   */\n      calldataload\n        /* \"#utility.yul\":2584:2613   */\n      swap1\n      pop\n        /* \"#utility.yul\":2622:2655   */\n      tag_122\n        /* \"#utility.yul\":2649:2654   */\n      dup2\n        /* \"#utility.yul\":2622:2655   */\n      tag_70\n      jump\t// in\n    tag_122:\n        /* \"#utility.yul\":2522:2661   */\n      swap3\n      swap2\n      pop\n      pop\n      jump\t// out\n        /* \"#utility.yul\":2667:2784   */\n    tag_72:\n        /* \"#utility.yul\":2776:2777   */\n      0x00\n        /* \"#utility.yul\":2773:2774   */\n      dup1\n        /* \"#utility.yul\":2766:2778   */\n      revert\n        /* \"#utility.yul\":2790:2907   */\n    tag_73:\n        /* \"#utility.yul\":2899:2900   */\n      0x00\n        /* \"#utility.yul\":2896:2897   */\n      dup1\n        /* \"#utility.yul\":2889:2901   */\n      revert\n        /* \"#utility.yul\":2913:3030   */\n    tag_74:\n        /* \"#utility.yul\":3022:3023   */\n      0x00\n        /* \"#utility.yul\":3019:3020   */\n      dup1\n        /* \"#utility.yul\":3012:3024   */\n      revert\n        /* \"#utility.yul\":3050:3603   */\n    tag_75:\n        /* \"#utility.yul\":3108:3116   */\n      0x00\n        /* \"#utility.yul\":3118:3124   */\n      dup1\n        /* \"#utility.yul\":3168:3171   */\n      dup4\n        /* \"#utility.yul\":3161:3165   */\n      0x1f\n        /* \"#utility.yul\":3153:3159   */\n      dup5\n        /* \"#utility.yul\":3149:3166   */\n      add\n        /* \"#utility.yul\":3145:3172   */\n      slt\n        /* \"#utility.yul\":3135:3257   */\n      tag_127\n      jumpi\n        /* \"#utility.yul\":3176:3255   */\n      tag_128\n      tag_72\n      jump\t// in\n    tag_128:\n        /* \"#utility.yul\":3135:3257   */\n    tag_127:\n        /* \"#utility.yul\":3289:3295   */\n      dup3\n        /* \"#utility.yul\":3276:3296   */\n      calldataload\n        /* \"#utility.yul\":3266:3296   */\n      swap1\n      pop\n        /* \"#utility.yul\":3319:3337   */\n      0xffffffffffffffff\n        /* \"#utility.yul\":3311:3317   */\n      dup2\n        /* \"#utility.yul\":3308:3338   */\n      gt\n        /* \"#utility.yul\":3305:3422   */\n      iszero\n      tag_129\n      jumpi\n        /* \"#utility.yul\":3341:3420   */\n      tag_130\n      tag_73\n      jump\t// in\n    tag_130:\n        /* \"#utility.yul\":3305:3422   */\n    tag_129:\n        /* \"#utility.yul\":3455:3459   */\n      0x20\n        /* \"#utility.yul\":3447:3453   */\n      dup4\n        /* \"#utility.yul\":3443:3460   */\n      add\n        /* \"#utility.yul\":3431:3460   */\n      swap2\n      pop\n        /* \"#utility.yul\":3509:3512   */\n      dup4\n        /* \"#utility.yul\":3501:3505   */\n      0x01\n        /* \"#utility.yul\":3493:3499   */\n      dup3\n        /* \"#utility.yul\":3489:3506   */\n      mul\n        /* \"#utility.yul\":3479:3487   */\n      dup4\n        /* \"#utility.yul\":3475:3507   */\n      add\n        /* \"#utility.yul\":3472:3513   */\n      gt\n        /* \"#utility.yul\":3469:3597   */\n      iszero\n      tag_131\n      jumpi\n        /* \"#utility.yul\":3516:3595   */\n      tag_132\n      tag_74\n      jump\t// in\n    tag_132:\n        /* \"#utility.yul\":3469:3597   */\n    tag_131:\n        /* \"#utility.yul\":3050:3603   */\n      swap3\n      pop\n      swap3\n      swap1\n      pop\n      jump\t// out\n        /* \"#utility.yul\":3622:4174   */\n    tag_76:\n        /* \"#utility.yul\":3679:3687   */\n      0x00\n        /* \"#utility.yul\":3689:3695   */\n      dup1\n        /* \"#utility.yul\":3739:3742   */\n      dup4\n        /* \"#utility.yul\":3732:3736   */\n      0x1f\n        /* \"#utility.yul\":3724:3730   */\n      dup5\n        /* \"#utility.yul\":3720:3737   */\n      add\n        /* \"#utility.yul\":3716:3743   */\n      slt\n        /* \"#utility.yul\":3706:3828   */\n      tag_134\n      jumpi\n        /* \"#utility.yul\":3747:3826   */\n      tag_135\n      tag_72\n      jump\t// in\n    tag_135:\n        /* \"#utility.yul\":3706:3828   */\n    tag_134:\n        /* \"#utility.yul\":3860:3866   */\n      dup3\n        /* \"#utility.yul\":3847:3867   */\n      calldataload\n        /* \"#utility.yul\":3837:3867   */\n      swap1\n      pop\n        /* \"#utility.yul\":3890:3908   */\n      0xffffffffffffffff\n        /* \"#utility.yul\":3882:3888   */\n      dup2\n        /* \"#utility.yul\":3879:3909   */\n      gt\n        /* \"#utility.yul\":3876:3993   */\n      iszero\n      tag_136\n      jumpi\n        /* \"#utility.yul\":3912:3991   */\n      tag_137\n      tag_73\n      jump\t// in\n    tag_137:\n        /* \"#utility.yul\":3876:3993   */\n    tag_136:\n        /* \"#utility.yul\":4026:4030   */\n      0x20\n        /* \"#utility.yul\":4018:4024   */\n      dup4\n        /* \"#utility.yul\":4014:4031   */\n      add\n        /* \"#utility.yul\":4002:4031   */\n      swap2\n      pop\n        /* \"#utility.yul\":4080:4083   */\n      dup4\n        /* \"#utility.yul\":4072:4076   */\n      0x01\n        /* \"#utility.yul\":4064:4070   */\n      dup3\n        /* \"#utility.yul\":4060:4077   */\n      mul\n        /* \"#utility.yul\":4050:4058   */\n      dup4\n        /* \"#utility.yul\":4046:4078   */\n      add\n        /* \"#utility.yul\":4043:4084   */\n      gt\n        /* \"#utility.yul\":4040:4168   */\n      iszero\n      tag_138\n      jumpi\n        /* \"#utility.yul\":4087:4166   */\n      tag_139\n      tag_74\n      jump\t// in\n    tag_139:\n        /* \"#utility.yul\":4040:4168   */\n    tag_138:\n        /* \"#utility.yul\":3622:4174   */\n      swap3\n      pop\n      swap3\n      swap1\n      pop\n      jump\t// out\n        /* \"#utility.yul\":4180:5489   */\n    tag_23:\n        /* \"#utility.yul\":4298:4304   */\n      0x00\n        /* \"#utility.yul\":4306:4312   */\n      dup1\n        /* \"#utility.yul\":4314:4320   */\n      0x00\n        /* \"#utility.yul\":4322:4328   */\n      dup1\n        /* \"#utility.yul\":4330:4336   */\n      0x00\n        /* \"#utility.yul\":4338:4344   */\n      dup1\n        /* \"#utility.yul\":4346:4352   */\n      0x00\n        /* \"#utility.yul\":4395:4398   */\n      0xa0\n        /* \"#utility.yul\":4383:4392   */\n      dup9\n        /* \"#utility.yul\":4374:4381   */\n      dup11\n        /* \"#utility.yul\":4370:4393   */\n      sub\n        /* \"#utility.yul\":4366:4399   */\n      slt\n        /* \"#utility.yul\":4363:4483   */\n      iszero\n      tag_141\n      jumpi\n        /* \"#utility.yul\":4402:4481   */\n      tag_142\n      tag_57\n      jump\t// in\n    tag_142:\n        /* \"#utility.yul\":4363:4483   */\n    tag_141:\n        /* \"#utility.yul\":4522:4523   */\n      0x00\n        /* \"#utility.yul\":4547:4600   */\n      tag_143\n        /* \"#utility.yul\":4592:4599   */\n      dup11\n        /* \"#utility.yul\":4583:4589   */\n      dup3\n        /* \"#utility.yul\":4572:4581   */\n      dup12\n        /* \"#utility.yul\":4568:4590   */\n      add\n        /* \"#utility.yul\":4547:4600   */\n      tag_69\n      jump\t// in\n    tag_143:\n        /* \"#utility.yul\":4537:4600   */\n      swap8\n      pop\n        /* \"#utility.yul\":4493:4610   */\n      pop\n        /* \"#utility.yul\":4649:4651   */\n      0x20\n        /* \"#utility.yul\":4675:4728   */\n      tag_144\n        /* \"#utility.yul\":4720:4727   */\n      dup11\n        /* \"#utility.yul\":4711:4717   */\n      dup3\n        /* \"#utility.yul\":4700:4709   */\n      dup12\n        /* \"#utility.yul\":4696:4718   */\n      add\n        /* \"#utility.yul\":4675:4728   */\n      tag_71\n      jump\t// in\n    tag_144:\n        /* \"#utility.yul\":4665:4728   */\n      swap7\n      pop\n        /* \"#utility.yul\":4620:4738   */\n      pop\n        /* \"#utility.yul\":4805:4807   */\n      0x40\n        /* \"#utility.yul\":4794:4803   */\n      dup9\n        /* \"#utility.yul\":4790:4808   */\n      add\n        /* \"#utility.yul\":4777:4809   */\n      calldataload\n        /* \"#utility.yul\":4836:4854   */\n      0xffffffffffffffff\n        /* \"#utility.yul\":4828:4834   */\n      dup2\n        /* \"#utility.yul\":4825:4855   */\n      gt\n        /* \"#utility.yul\":4822:4939   */\n      iszero\n      tag_145\n      jumpi\n        /* \"#utility.yul\":4858:4937   */\n      tag_146\n      tag_58\n      jump\t// in\n    tag_146:\n        /* \"#utility.yul\":4822:4939   */\n    tag_145:\n        /* \"#utility.yul\":4971:5036   */\n      tag_147\n        /* \"#utility.yul\":5028:5035   */\n      dup11\n        /* \"#utility.yul\":5019:5025   */\n      dup3\n        /* \"#utility.yul\":5008:5017   */\n      dup12\n        /* \"#utility.yul\":5004:5026   */\n      add\n        /* \"#utility.yul\":4971:5036   */\n      tag_75\n      jump\t// in\n    tag_147:\n        /* \"#utility.yul\":4953:5036   */\n      swap6\n      pop\n      swap6\n      pop\n        /* \"#utility.yul\":4748:5046   */\n      pop\n        /* \"#utility.yul\":5113:5115   */\n      0x60\n        /* \"#utility.yul\":5102:5111   */\n      dup9\n        /* \"#utility.yul\":5098:5116   */\n      add\n        /* \"#utility.yul\":5085:5117   */\n      calldataload\n        /* \"#utility.yul\":5144:5162   */\n      0xffffffffffffffff\n        /* \"#utility.yul\":5136:5142   */\n      dup2\n        /* \"#utility.yul\":5133:5163   */\n      gt\n        /* \"#utility.yul\":5130:5247   */\n      iszero\n      tag_148\n      jumpi\n        /* \"#utility.yul\":5166:5245   */\n      tag_149\n      tag_58\n      jump\t// in\n    tag_149:\n        /* \"#utility.yul\":5130:5247   */\n    tag_148:\n        /* \"#utility.yul\":5279:5343   */\n      tag_150\n        /* \"#utility.yul\":5335:5342   */\n      dup11\n        /* \"#utility.yul\":5326:5332   */\n      dup3\n        /* \"#utility.yul\":5315:5324   */\n      dup12\n        /* \"#utility.yul\":5311:5333   */\n      add\n        /* \"#utility.yul\":5279:5343   */\n      tag_76\n      jump\t// in\n    tag_150:\n        /* \"#utility.yul\":5261:5343   */\n      swap4\n      pop\n      swap4\n      pop\n        /* \"#utility.yul\":5056:5353   */\n      pop\n        /* \"#utility.yul\":5392:5395   */\n      0x80\n        /* \"#utility.yul\":5419:5472   */\n      tag_151\n        /* \"#utility.yul\":5464:5471   */\n      dup11\n        /* \"#utility.yul\":5455:5461   */\n      dup3\n        /* \"#utility.yul\":5444:5453   */\n      dup12\n        /* \"#utility.yul\":5440:5462   */\n      add\n        /* \"#utility.yul\":5419:5472   */\n      tag_71\n      jump\t// in\n    tag_151:\n        /* \"#utility.yul\":5409:5472   */\n      swap2\n      pop\n        /* \"#utility.yul\":5363:5482   */\n      pop\n        /* \"#utility.yul\":4180:5489   */\n      swap3\n      swap6\n      swap9\n      swap2\n      swap5\n      swap8\n      pop\n      swap3\n      swap6\n      pop\n      jump\t// out\n        /* \"#utility.yul\":5495:5613   */\n    tag_77:\n        /* \"#utility.yul\":5582:5606   */\n      tag_153\n        /* \"#utility.yul\":5600:5605   */\n      dup2\n        /* \"#utility.yul\":5582:5606   */\n      tag_59\n      jump\t// in\n    tag_153:\n        /* \"#utility.yul\":5577:5580   */\n      dup3\n        /* \"#utility.yul\":5570:5607   */\n      mstore\n        /* \"#utility.yul\":5495:5613   */\n      pop\n      pop\n      jump\t// out\n        /* \"#utility.yul\":5619:5841   */\n    tag_31:\n        /* \"#utility.yul\":5712:5716   */\n      0x00\n        /* \"#utility.yul\":5750:5752   */\n      0x20\n        /* \"#utility.yul\":5739:5748   */\n      dup3\n        /* \"#utility.yul\":5735:5753   */\n      add\n        /* \"#utility.yul\":5727:5753   */\n      swap1\n      pop\n        /* \"#utility.yul\":5763:5834   */\n      tag_155\n        /* \"#utility.yul\":5831:5832   */\n      0x00\n        /* \"#utility.yul\":5820:5829   */\n      dup4\n        /* \"#utility.yul\":5816:5833   */\n      add\n        /* \"#utility.yul\":5807:5813   */\n      dup5\n        /* \"#utility.yul\":5763:5834   */\n      tag_77\n      jump\t// in\n    tag_155:\n        /* \"#utility.yul\":5619:5841   */\n      swap3\n      swap2\n      pop\n      pop\n      jump\t// out\n        /* \"#utility.yul\":5847:5965   */\n    tag_78:\n        /* \"#utility.yul\":5934:5958   */\n      tag_157\n        /* \"#utility.yul\":5952:5957   */\n      dup2\n        /* \"#utility.yul\":5934:5958   */\n      tag_67\n      jump\t// in\n    tag_157:\n        /* \"#utility.yul\":5929:5932   */\n      dup3\n        /* \"#utility.yul\":5922:5959   */\n      mstore\n        /* \"#utility.yul\":5847:5965   */\n      pop\n      pop\n      jump\t// out\n        /* \"#utility.yul\":5971:6193   */\n    tag_35:\n        /* \"#utility.yul\":6064:6068   */\n      0x00\n        /* \"#utility.yul\":6102:6104   */\n      0x20\n        /* \"#utility.yul\":6091:6100   */\n      dup3\n        /* \"#utility.yul\":6087:6105   */\n      add\n        /* \"#utility.yul\":6079:6105   */\n      swap1\n      pop\n        /* \"#utility.yul\":6115:6186   */\n      tag_159\n        /* \"#utility.yul\":6183:6184   */\n      0x00\n        /* \"#utility.yul\":6172:6181   */\n      dup4\n        /* \"#utility.yul\":6168:6185   */\n      add\n        /* \"#utility.yul\":6159:6165   */\n      dup5\n        /* \"#utility.yul\":6115:6186   */\n      tag_78\n      jump\t// in\n    tag_159:\n        /* \"#utility.yul\":5971:6193   */\n      swap3\n      swap2\n      pop\n      pop\n      jump\t// out\n        /* \"#utility.yul\":6199:6379   */\n    tag_79:\n        /* \"#utility.yul\":6247:6324   */\n      0x4e487b7100000000000000000000000000000000000000000000000000000000\n        /* \"#utility.yul\":6244:6245   */\n      0x00\n        /* \"#utility.yul\":6237:6325   */\n      mstore\n        /* \"#utility.yul\":6344:6348   */\n      0x11\n        /* \"#utility.yul\":6341:6342   */\n      0x04\n        /* \"#utility.yul\":6334:6349   */\n      mstore\n        /* \"#utility.yul\":6368:6372   */\n      0x24\n        /* \"#utility.yul\":6365:6366   */\n      0x00\n        /* \"#utility.yul\":6358:6373   */\n      revert\n        /* \"#utility.yul\":6385:6576   */\n    tag_46:\n        /* \"#utility.yul\":6425:6428   */\n      0x00\n        /* \"#utility.yul\":6444:6464   */\n      tag_162\n        /* \"#utility.yul\":6462:6463   */\n      dup3\n        /* \"#utility.yul\":6444:6464   */\n      tag_64\n      jump\t// in\n    tag_162:\n        /* \"#utility.yul\":6439:6464   */\n      swap2\n      pop\n        /* \"#utility.yul\":6478:6498   */\n      tag_163\n        /* \"#utility.yul\":6496:6497   */\n      dup4\n        /* \"#utility.yul\":6478:6498   */\n      tag_64\n      jump\t// in\n    tag_163:\n        /* \"#utility.yul\":6473:6498   */\n      swap3\n      pop\n        /* \"#utility.yul\":6521:6522   */\n      dup3\n        /* \"#utility.yul\":6518:6519   */\n      dup3\n        /* \"#utility.yul\":6514:6523   */\n      add\n        /* \"#utility.yul\":6507:6523   */\n      swap1\n      pop\n        /* \"#utility.yul\":6542:6545   */\n      dup1\n        /* \"#utility.yul\":6539:6540   */\n      dup3\n        /* \"#utility.yul\":6536:6546   */\n      gt\n        /* \"#utility.yul\":6533:6569   */\n      iszero\n      tag_164\n      jumpi\n        /* \"#utility.yul\":6549:6567   */\n      tag_165\n      tag_79\n      jump\t// in\n    tag_165:\n        /* \"#utility.yul\":6533:6569   */\n    tag_164:\n        /* \"#utility.yul\":6385:6576   */\n      swap3\n      swap2\n      pop\n      pop\n      jump\t// out\n        /* \"#utility.yul\":6582:6914   */\n    tag_51:\n        /* \"#utility.yul\":6703:6707   */\n      0x00\n        /* \"#utility.yul\":6741:6743   */\n      0x40\n        /* \"#utility.yul\":6730:6739   */\n      dup3\n        /* \"#utility.yul\":6726:6744   */\n      add\n        /* \"#utility.yul\":6718:6744   */\n      swap1\n      pop\n        /* \"#utility.yul\":6754:6825   */\n      tag_167\n        /* \"#utility.yul\":6822:6823   */\n      0x00\n        /* \"#utility.yul\":6811:6820   */\n      dup4\n        /* \"#utility.yul\":6807:6824   */\n      add\n        /* \"#utility.yul\":6798:6804   */\n      dup6\n        /* \"#utility.yul\":6754:6825   */\n      tag_65\n      jump\t// in\n    tag_167:\n        /* \"#utility.yul\":6835:6907   */\n      tag_168\n        /* \"#utility.yul\":6903:6905   */\n      0x20\n        /* \"#utility.yul\":6892:6901   */\n      dup4\n        /* \"#utility.yul\":6888:6906   */\n      add\n        /* \"#utility.yul\":6879:6885   */\n      dup5\n        /* \"#utility.yul\":6835:6907   */\n      tag_65\n      jump\t// in\n    tag_168:\n        /* \"#utility.yul\":6582:6914   */\n      swap4\n      swap3\n      pop\n      pop\n      pop\n      jump\t// out\n        /* \"#utility.yul\":6920:7089   */\n    tag_80:\n        /* \"#utility.yul\":7004:7015   */\n      0x00\n        /* \"#utility.yul\":7038:7044   */\n      dup3\n        /* \"#utility.yul\":7033:7036   */\n      dup3\n        /* \"#utility.yul\":7026:7045   */\n      mstore\n        /* \"#utility.yul\":7078:7082   */\n      0x20\n        /* \"#utility.yul\":7073:7076   */\n      dup3\n        /* \"#utility.yul\":7069:7083   */\n      add\n        /* \"#utility.yul\":7054:7083   */\n      swap1\n      pop\n        /* \"#utility.yul\":6920:7089   */\n      swap3\n      swap2\n      pop\n      pop\n      jump\t// out\n        /* \"#utility.yul\":7095:7241   */\n    tag_81:\n        /* \"#utility.yul\":7192:7198   */\n      dup3\n        /* \"#utility.yul\":7187:7190   */\n      dup2\n        /* \"#utility.yul\":7182:7185   */\n      dup4\n        /* \"#utility.yul\":7169:7199   */\n      calldatacopy\n        /* \"#utility.yul\":7233:7234   */\n      0x00\n        /* \"#utility.yul\":7224:7230   */\n      dup4\n        /* \"#utility.yul\":7219:7222   */\n      dup4\n        /* \"#utility.yul\":7215:7231   */\n      add\n        /* \"#utility.yul\":7208:7235   */\n      mstore\n        /* \"#utility.yul\":7095:7241   */\n      pop\n      pop\n      pop\n      jump\t// out\n        /* \"#utility.yul\":7247:7349   */\n    tag_82:\n        /* \"#utility.yul\":7288:7294   */\n      0x00\n        /* \"#utility.yul\":7339:7341   */\n      0x1f\n        /* \"#utility.yul\":7335:7342   */\n      not\n        /* \"#utility.yul\":7330:7332   */\n      0x1f\n        /* \"#utility.yul\":7323:7328   */\n      dup4\n        /* \"#utility.yul\":7319:7333   */\n      add\n        /* \"#utility.yul\":7315:7343   */\n      and\n        /* \"#utility.yul\":7305:7343   */\n      swap1\n      pop\n        /* \"#utility.yul\":7247:7349   */\n      swap2\n      swap1\n      pop\n      jump\t// out\n        /* \"#utility.yul\":7379:7696   */\n    tag_83:\n        /* \"#utility.yul\":7477:7480   */\n      0x00\n        /* \"#utility.yul\":7498:7569   */\n      tag_173\n        /* \"#utility.yul\":7562:7568   */\n      dup4\n        /* \"#utility.yul\":7557:7560   */\n      dup6\n        /* \"#utility.yul\":7498:7569   */\n      tag_80\n      jump\t// in\n    tag_173:\n        /* \"#utility.yul\":7491:7569   */\n      swap4\n      pop\n        /* \"#utility.yul\":7579:7635   */\n      tag_174\n        /* \"#utility.yul\":7628:7634   */\n      dup4\n        /* \"#utility.yul\":7623:7626   */\n      dup6\n        /* \"#utility.yul\":7616:7621   */\n      dup5\n        /* \"#utility.yul\":7579:7635   */\n      tag_81\n      jump\t// in\n    tag_174:\n        /* \"#utility.yul\":7660:7689   */\n      tag_175\n        /* \"#utility.yul\":7682:7688   */\n      dup4\n        /* \"#utility.yul\":7660:7689   */\n      tag_82\n      jump\t// in\n    tag_175:\n        /* \"#utility.yul\":7655:7658   */\n      dup5\n        /* \"#utility.yul\":7651:7690   */\n      add\n        /* \"#utility.yul\":7644:7690   */\n      swap1\n      pop\n        /* \"#utility.yul\":7379:7696   */\n      swap4\n      swap3\n      pop\n      pop\n      pop\n      jump\t// out\n        /* \"#utility.yul\":7702:7870   */\n    tag_84:\n        /* \"#utility.yul\":7785:7796   */\n      0x00\n        /* \"#utility.yul\":7819:7825   */\n      dup3\n        /* \"#utility.yul\":7814:7817   */\n      dup3\n        /* \"#utility.yul\":7807:7826   */\n      mstore\n        /* \"#utility.yul\":7859:7863   */\n      0x20\n        /* \"#utility.yul\":7854:7857   */\n      dup3\n        /* \"#utility.yul\":7850:7864   */\n      add\n        /* \"#utility.yul\":7835:7864   */\n      swap1\n      pop\n        /* \"#utility.yul\":7702:7870   */\n      swap3\n      swap2\n      pop\n      pop\n      jump\t// out\n        /* \"#utility.yul\":7898:8212   */\n    tag_85:\n        /* \"#utility.yul\":7994:7997   */\n      0x00\n        /* \"#utility.yul\":8015:8085   */\n      tag_178\n        /* \"#utility.yul\":8078:8084   */\n      dup4\n        /* \"#utility.yul\":8073:8076   */\n      dup6\n        /* \"#utility.yul\":8015:8085   */\n      tag_84\n      jump\t// in\n    tag_178:\n        /* \"#utility.yul\":8008:8085   */\n      swap4\n      pop\n        /* \"#utility.yul\":8095:8151   */\n      tag_179\n        /* \"#utility.yul\":8144:8150   */\n      dup4\n        /* \"#utility.yul\":8139:8142   */\n      dup6\n        /* \"#utility.yul\":8132:8137   */\n      dup5\n        /* \"#utility.yul\":8095:8151   */\n      tag_81\n      jump\t// in\n    tag_179:\n        /* \"#utility.yul\":8176:8205   */\n      tag_180\n        /* \"#utility.yul\":8198:8204   */\n      dup4\n        /* \"#utility.yul\":8176:8205   */\n      tag_82\n      jump\t// in\n    tag_180:\n        /* \"#utility.yul\":8171:8174   */\n      dup5\n        /* \"#utility.yul\":8167:8206   */\n      add\n        /* \"#utility.yul\":8160:8206   */\n      swap1\n      pop\n        /* \"#utility.yul\":7898:8212   */\n      swap4\n      swap3\n      pop\n      pop\n      pop\n      jump\t// out\n        /* \"#utility.yul\":8218:9100   */\n    tag_55:\n        /* \"#utility.yul\":8481:8485   */\n      0x00\n        /* \"#utility.yul\":8519:8522   */\n      0xa0\n        /* \"#utility.yul\":8508:8517   */\n      dup3\n        /* \"#utility.yul\":8504:8523   */\n      add\n        /* \"#utility.yul\":8496:8523   */\n      swap1\n      pop\n        /* \"#utility.yul\":8533:8604   */\n      tag_182\n        /* \"#utility.yul\":8601:8602   */\n      0x00\n        /* \"#utility.yul\":8590:8599   */\n      dup4\n        /* \"#utility.yul\":8586:8603   */\n      add\n        /* \"#utility.yul\":8577:8583   */\n      dup11\n        /* \"#utility.yul\":8533:8604   */\n      tag_78\n      jump\t// in\n    tag_182:\n        /* \"#utility.yul\":8614:8686   */\n      tag_183\n        /* \"#utility.yul\":8682:8684   */\n      0x20\n        /* \"#utility.yul\":8671:8680   */\n      dup4\n        /* \"#utility.yul\":8667:8685   */\n      add\n        /* \"#utility.yul\":8658:8664   */\n      dup10\n        /* \"#utility.yul\":8614:8686   */\n      tag_65\n      jump\t// in\n    tag_183:\n        /* \"#utility.yul\":8733:8742   */\n      dup2\n        /* \"#utility.yul\":8727:8731   */\n      dup2\n        /* \"#utility.yul\":8723:8743   */\n      sub\n        /* \"#utility.yul\":8718:8720   */\n      0x40\n        /* \"#utility.yul\":8707:8716   */\n      dup4\n        /* \"#utility.yul\":8703:8721   */\n      add\n        /* \"#utility.yul\":8696:8744   */\n      mstore\n        /* \"#utility.yul\":8761:8849   */\n      tag_184\n        /* \"#utility.yul\":8844:8848   */\n      dup2\n        /* \"#utility.yul\":8835:8841   */\n      dup8\n        /* \"#utility.yul\":8827:8833   */\n      dup10\n        /* \"#utility.yul\":8761:8849   */\n      tag_83\n      jump\t// in\n    tag_184:\n        /* \"#utility.yul\":8753:8849   */\n      swap1\n      pop\n        /* \"#utility.yul\":8896:8905   */\n      dup2\n        /* \"#utility.yul\":8890:8894   */\n      dup2\n        /* \"#utility.yul\":8886:8906   */\n      sub\n        /* \"#utility.yul\":8881:8883   */\n      0x60\n        /* \"#utility.yul\":8870:8879   */\n      dup4\n        /* \"#utility.yul\":8866:8884   */\n      add\n        /* \"#utility.yul\":8859:8907   */\n      mstore\n        /* \"#utility.yul\":8924:9010   */\n      tag_185\n        /* \"#utility.yul\":9005:9009   */\n      dup2\n        /* \"#utility.yul\":8996:9002   */\n      dup6\n        /* \"#utility.yul\":8988:8994   */\n      dup8\n        /* \"#utility.yul\":8924:9010   */\n      tag_85\n      jump\t// in\n    tag_185:\n        /* \"#utility.yul\":8916:9010   */\n      swap1\n      pop\n        /* \"#utility.yul\":9020:9093   */\n      tag_186\n        /* \"#utility.yul\":9088:9091   */\n      0x80\n        /* \"#utility.yul\":9077:9086   */\n      dup4\n        /* \"#utility.yul\":9073:9092   */\n      add\n        /* \"#utility.yul\":9064:9070   */\n      dup5\n        /* \"#utility.yul\":9020:9093   */\n      tag_65\n      jump\t// in\n    tag_186:\n        /* \"#utility.yul\":8218:9100   */\n      swap9\n      swap8\n      pop\n      pop\n      pop\n      pop\n      pop\n      pop\n      pop\n      pop\n      jump\t// out\n\n    auxdata: 0xa26469706673582212208119cf616d670aa7a0a6859073a1c85784d09d92a244a0b80ddfde194f0377fe64736f6c63430008110033\n}\n",
				"bytecode": {
					"linkReferences": {},
					"object": "608060405234801561001057600080fd5b50336000806101000a81548173ffffffffffffffffffffffffffffffffffffffff021916908373ffffffffffffffffffffffffffffffffffffffff16021790555061087e806100606000396000f3fe608060405234801561001057600080fd5b506004361061007d5760003560e01c8063614619541161005b57806361461954146100ec5780638a1ce0b6146100f65780638da5cb5b146101265780639f81aed7146101445761007d565b8063228250c9146100825780634125ff90146100b25780634b9915a5146100d0575b600080fd5b61009c600480360381019061009791906103cf565b610162565b6040516100a99190610417565b60405180910390f35b6100ba610182565b6040516100c7919061044b565b60405180910390f35b6100ea60048036038101906100e591906105ab565b610188565b005b6100f4610322565b005b610110600480360381019061010b91906105ab565b610324565b60405161011d9190610676565b60405180910390f35b61012e610366565b60405161013b91906106a0565b60405180910390f35b61014c61038a565b604051610159919061044b565b60405180910390f35b60016020528060005260406000206000915054906101000a900460ff1681565b6103e881565b60008054906101000a900473ffffffffffffffffffffffffffffffffffffffff1673ffffffffffffffffffffffffffffffffffffffff163373ffffffffffffffffffffffffffffffffffffffff161461020d576040517f74a2152700000000000000000000000000000000000000000000000000000000815260040160405180910390fd5b600061021e88888888888888610324565b90506001600082815260200190815260200160002060009054906101000a900460ff161561028357806040517f995042be00000000000000000000000000000000000000000000000000000000815260040161027a9190610676565b60405180910390fd5b600a4261029091906106ea565b8210806102a957506103e8426102a691906106ea565b82115b156102ed5742826040517f1a9616c20000000000000000000000000000000000000000000000000000000081526004016102e492919061071e565b60405180910390fd5b600180600083815260200190815260200160002060006101000a81548160ff0219169083151502179055505050505050505050565b565b60008787878787878760405160200161034397969594939291906107e3565b604051602081830303815290604052805190602001209050979650505050505050565b60008054906101000a900473ffffffffffffffffffffffffffffffffffffffff1681565b600a81565b600080fd5b600080fd5b6000819050919050565b6103ac81610399565b81146103b757600080fd5b50565b6000813590506103c9816103a3565b92915050565b6000602082840312156103e5576103e461038f565b5b60006103f3848285016103ba565b91505092915050565b60008115159050919050565b610411816103fc565b82525050565b600060208201905061042c6000830184610408565b92915050565b6000819050919050565b61044581610432565b82525050565b6000602082019050610460600083018461043c565b92915050565b600073ffffffffffffffffffffffffffffffffffffffff82169050919050565b600061049182610466565b9050919050565b6104a181610486565b81146104ac57600080fd5b50565b6000813590506104be81610498565b92915050565b6104cd81610432565b81146104d857600080fd5b50565b6000813590506104ea816104c4565b92915050565b600080fd5b600080fd5b600080fd5b60008083601f840112610515576105146104f0565b5b8235905067ffffffffffffffff811115610532576105316104f5565b5b60208301915083600182028301111561054e5761054d6104fa565b5b9250929050565b60008083601f84011261056b5761056a6104f0565b5b8235905067ffffffffffffffff811115610588576105876104f5565b5b6020830191508360018202830111156105a4576105a36104fa565b5b9250929050565b600080600080600080600060a0888a0312156105ca576105c961038f565b5b60006105d88a828b016104af565b97505060206105e98a828b016104db565b965050604088013567ffffffffffffffff81111561060a57610609610394565b5b6106168a828b016104ff565b9550955050606088013567ffffffffffffffff81111561063957610638610394565b5b6106458a828b01610555565b935093505060806106588a828b016104db565b91505092959891949750929550565b61067081610399565b82525050565b600060208201905061068b6000830184610667565b92915050565b61069a81610486565b82525050565b60006020820190506106b56000830184610691565b92915050565b7f4e487b7100000000000000000000000000000000000000000000000000000000600052601160045260246000fd5b60006106f582610432565b915061070083610432565b9250828201905080821115610718576107176106bb565b5b92915050565b6000604082019050610733600083018561043c565b610740602083018461043c565b9392505050565b600082825260208201905092915050565b82818337600083830152505050565b6000601f19601f8301169050919050565b60006107848385610747565b9350610791838584610758565b61079a83610767565b840190509392505050565b600082825260208201905092915050565b60006107c283856107a5565b93506107cf838584610758565b6107d883610767565b840190509392505050565b600060a0820190506107f8600083018a610691565b610805602083018961043c565b8181036040830152610818818789610778565b9050818103606083015261082d8185876107b6565b905061083c608083018461043c565b9897505050505050505056fea26469706673582212208119cf616d670aa7a0a6859073a1c85784d09d92a244a0b80ddfde194f0377fe64736f6c63430008110033",
					"opcodes": "PUSH1 0x80 PUSH1 0x40 MSTORE CALLVALUE DUP1 ISZERO PUSH2 0x10 JUMPI PUSH1 0x0 DUP1 REVERT JUMPDEST POP CALLER PUSH1 0x0 DUP1 PUSH2 0x100 EXP DUP2 SLOAD DUP2 PUSH20 0xFFFFFFFFFFFFFFFFFFFFFFFFFFFFFFFFFFFFFFFF MUL NOT AND SWAP1 DUP4 PUSH20 0xFFFFFFFFFFFFFFFFFFFFFFFFFFFFFFFFFFFFFFFF AND MUL OR SWAP1 SSTORE POP PUSH2 0x87E DUP1 PUSH2 0x60 PUSH1 0x0 CODECOPY PUSH1 0x0 RETURN INVALID PUSH1 0x80 PUSH1 0x40 MSTORE CALLVALUE DUP1 ISZERO PUSH2 0x10 JUMPI PUSH1 0x0 DUP1 REVERT JUMPDEST POP PUSH1 0x4 CALLDATASIZE LT PUSH2 0x7D JUMPI PUSH1 0x0 CALLDATALOAD PUSH1 0xE0 SHR DUP1 PUSH4 0x61461954 GT PUSH2 0x5B JUMPI DUP1 PUSH4 0x61461954 EQ PUSH2 0xEC JUMPI DUP1 PUSH4 0x8A1CE0B6 EQ PUSH2 0xF6 JUMPI DUP1 PUSH4 0x8DA5CB5B EQ PUSH2 0x126 JUMPI DUP1 PUSH4 0x9F81AED7 EQ PUSH2 0x144 JUMPI PUSH2 0x7D JUMP JUMPDEST DUP1 PUSH4 0x228250C9 EQ PUSH2 0x82 JUMPI DUP1 PUSH4 0x4125FF90 EQ PUSH2 0xB2 JUMPI DUP1 PUSH4 0x4B9915A5 EQ PUSH2 0xD0 JUMPI JUMPDEST PUSH1 0x0 DUP1 REVERT JUMPDEST PUSH2 0x9C PUSH1 0x4 DUP1 CALLDATASIZE SUB DUP2 ADD SWAP1 PUSH2 0x97 SWAP2 SWAP1 PUSH2 0x3CF JUMP JUMPDEST PUSH2 0x162 JUMP JUMPDEST PUSH1 0x40 MLOAD PUSH2 0xA9 SWAP2 SWAP1 PUSH2 0x417 JUMP JUMPDEST PUSH1 0x40 MLOAD DUP1 SWAP2 SUB SWAP1 RETURN JUMPDEST PUSH2 0xBA PUSH2 0x182 JUMP JUMPDEST PUSH1 0x40 MLOAD PUSH2 0xC7 SWAP2 SWAP1 PUSH2 0x44B JUMP JUMPDEST PUSH1 0x40 MLOAD DUP1 SWAP2 SUB SWAP1 RETURN JUMPDEST PUSH2 0xEA PUSH1 0x4 DUP1 CALLDATASIZE SUB DUP2 ADD SWAP1 PUSH2 0xE5 SWAP2 SWAP1 PUSH2 0x5AB JUMP JUMPDEST PUSH2 0x188 JUMP JUMPDEST STOP JUMPDEST PUSH2 0xF4 PUSH2 0x322 JUMP JUMPDEST STOP JUMPDEST PUSH2 0x110 PUSH1 0x4 DUP1 CALLDATASIZE SUB DUP2 ADD SWAP1 PUSH2 0x10B SWAP2 SWAP1 PUSH2 0x5AB JUMP JUMPDEST PUSH2 0x324 JUMP JUMPDEST PUSH1 0x40 MLOAD PUSH2 0x11D SWAP2 SWAP1 PUSH2 0x676 JUMP JUMPDEST PUSH1 0x40 MLOAD DUP1 SWAP2 SUB SWAP1 RETURN JUMPDEST PUSH2 0x12E PUSH2 0x366 JUMP JUMPDEST PUSH1 0x40 MLOAD PUSH2 0x13B SWAP2 SWAP1 PUSH2 0x6A0 JUMP JUMPDEST PUSH1 0x40 MLOAD DUP1 SWAP2 SUB SWAP1 RETURN JUMPDEST PUSH2 0x14C PUSH2 0x38A JUMP JUMPDEST PUSH1 0x40 MLOAD PUSH2 0x159 SWAP2 SWAP1 PUSH2 0x44B JUMP JUMPDEST PUSH1 0x40 MLOAD DUP1 SWAP2 SUB SWAP1 RETURN JUMPDEST PUSH1 0x1 PUSH1 0x20 MSTORE DUP1 PUSH1 0x0 MSTORE PUSH1 0x40 PUSH1 0x0 KECCAK256 PUSH1 0x0 SWAP2 POP SLOAD SWAP1 PUSH2 0x100 EXP SWAP1 DIV PUSH1 0xFF AND DUP2 JUMP JUMPDEST PUSH2 0x3E8 DUP2 JUMP JUMPDEST PUSH1 0x0 DUP1 SLOAD SWAP1 PUSH2 0x100 EXP SWAP1 DIV PUSH20 0xFFFFFFFFFFFFFFFFFFFFFFFFFFFFFFFFFFFFFFFF AND PUSH20 0xFFFFFFFFFFFFFFFFFFFFFFFFFFFFFFFFFFFFFFFF AND CALLER PUSH20 0xFFFFFFFFFFFFFFFFFFFFFFFFFFFFFFFFFFFFFFFF AND EQ PUSH2 0x20D JUMPI PUSH1 0x40 MLOAD PUSH32 0x74A2152700000000000000000000000000000000000000000000000000000000 DUP2 MSTORE PUSH1 0x4 ADD PUSH1 0x40 MLOAD DUP1 SWAP2 SUB SWAP1 REVERT JUMPDEST PUSH1 0x0 PUSH2 0x21E DUP9 DUP9 DUP9 DUP9 DUP9 DUP9 DUP9 PUSH2 0x324 JUMP JUMPDEST SWAP1 POP PUSH1 0x1 PUSH1 0x0 DUP3 DUP2 MSTORE PUSH1 0x20 ADD SWAP1 DUP2 MSTORE PUSH1 0x20 ADD PUSH1 0x0 KECCAK256 PUSH1 0x0 SWAP1 SLOAD SWAP1 PUSH2 0x100 EXP SWAP1 DIV PUSH1 0xFF AND ISZERO PUSH2 0x283 JUMPI DUP1 PUSH1 0x40 MLOAD PUSH32 0x995042BE00000000000000000000000000000000000000000000000000000000 DUP2 MSTORE PUSH1 0x4 ADD PUSH2 0x27A SWAP2 SWAP1 PUSH2 0x676 JUMP JUMPDEST PUSH1 0x40 MLOAD DUP1 SWAP2 SUB SWAP1 REVERT JUMPDEST PUSH1 0xA TIMESTAMP PUSH2 0x290 SWAP2 SWAP1 PUSH2 0x6EA JUMP JUMPDEST DUP3 LT DUP1 PUSH2 0x2A9 JUMPI POP PUSH2 0x3E8 TIMESTAMP PUSH2 0x2A6 SWAP2 SWAP1 PUSH2 0x6EA JUMP JUMPDEST DUP3 GT JUMPDEST ISZERO PUSH2 0x2ED JUMPI TIMESTAMP DUP3 PUSH1 0x40 MLOAD PUSH32 0x1A9616C200000000000000000000000000000000000000000000000000000000 DUP2 MSTORE PUSH1 0x4 ADD PUSH2 0x2E4 SWAP3 SWAP2 SWAP1 PUSH2 0x71E JUMP JUMPDEST PUSH1 0x40 MLOAD DUP1 SWAP2 SUB SWAP1 REVERT JUMPDEST PUSH1 0x1 DUP1 PUSH1 0x0 DUP4 DUP2 MSTORE PUSH1 0x20 ADD SWAP1 DUP2 MSTORE PUSH1 0x20 ADD PUSH1 0x0 KECCAK256 PUSH1 0x0 PUSH2 0x100 EXP DUP2 SLOAD DUP2 PUSH1 0xFF MUL NOT AND SWAP1 DUP4 ISZERO ISZERO MUL OR SWAP1 SSTORE POP POP POP POP POP POP POP POP POP JUMP JUMPDEST JUMP JUMPDEST PUSH1 0x0 DUP8 DUP8 DUP8 DUP8 DUP8 DUP8 DUP8 PUSH1 0x40 MLOAD PUSH1 0x20 ADD PUSH2 0x343 SWAP8 SWAP7 SWAP6 SWAP5 SWAP4 SWAP3 SWAP2 SWAP1 PUSH2 0x7E3 JUMP JUMPDEST PUSH1 0x40 MLOAD PUSH1 0x20 DUP2 DUP4 SUB SUB DUP2 MSTORE SWAP1 PUSH1 0x40 MSTORE DUP1 MLOAD SWAP1 PUSH1 0x20 ADD KECCAK256 SWAP1 POP SWAP8 SWAP7 POP POP POP POP POP POP POP JUMP JUMPDEST PUSH1 0x0 DUP1 SLOAD SWAP1 PUSH2 0x100 EXP SWAP1 DIV PUSH20 0xFFFFFFFFFFFFFFFFFFFFFFFFFFFFFFFFFFFFFFFF AND DUP2 JUMP JUMPDEST PUSH1 0xA DUP2 JUMP JUMPDEST PUSH1 0x0 DUP1 REVERT JUMPDEST PUSH1 0x0 DUP1 REVERT JUMPDEST PUSH1 0x0 DUP2 SWAP1 POP SWAP2 SWAP1 POP JUMP JUMPDEST PUSH2 0x3AC DUP2 PUSH2 0x399 JUMP JUMPDEST DUP2 EQ PUSH2 0x3B7 JUMPI PUSH1 0x0 DUP1 REVERT JUMPDEST POP JUMP JUMPDEST PUSH1 0x0 DUP2 CALLDATALOAD SWAP1 POP PUSH2 0x3C9 DUP2 PUSH2 0x3A3 JUMP JUMPDEST SWAP3 SWAP2 POP POP JUMP JUMPDEST PUSH1 0x0 PUSH1 0x20 DUP3 DUP5 SUB SLT ISZERO PUSH2 0x3E5 JUMPI PUSH2 0x3E4 PUSH2 0x38F JUMP JUMPDEST JUMPDEST PUSH1 0x0 PUSH2 0x3F3 DUP5 DUP3 DUP6 ADD PUSH2 0x3BA JUMP JUMPDEST SWAP2 POP POP SWAP3 SWAP2 POP POP JUMP JUMPDEST PUSH1 0x0 DUP2 ISZERO ISZERO SWAP1 POP SWAP2 SWAP1 POP JUMP JUMPDEST PUSH2 0x411 DUP2 PUSH2 0x3FC JUMP JUMPDEST DUP3 MSTORE POP POP JUMP JUMPDEST PUSH1 0x0 PUSH1 0x20 DUP3 ADD SWAP1 POP PUSH2 0x42C PUSH1 0x0 DUP4 ADD DUP5 PUSH2 0x408 JUMP JUMPDEST SWAP3 SWAP2 POP POP JUMP JUMPDEST PUSH1 0x0 DUP2 SWAP1 POP SWAP2 SWAP1 POP JUMP JUMPDEST PUSH2 0x445 DUP2 PUSH2 0x432 JUMP JUMPDEST DUP3 MSTORE POP POP JUMP JUMPDEST PUSH1 0x0 PUSH1 0x20 DUP3 ADD SWAP1 POP PUSH2 0x460 PUSH1 0x0 DUP4 ADD DUP5 PUSH2 0x43C JUMP JUMPDEST SWAP3 SWAP2 POP POP JUMP JUMPDEST PUSH1 0x0 PUSH20 0xFFFFFFFFFFFFFFFFFFFFFFFFFFFFFFFFFFFFFFFF DUP3 AND SWAP1 POP SWAP2 SWAP1 POP JUMP JUMPDEST PUSH1 0x0 PUSH2 0x491 DUP3 PUSH2 0x466 JUMP JUMPDEST SWAP1 POP SWAP2 SWAP1 POP JUMP JUMPDEST PUSH2 0x4A1 DUP2 PUSH2 0x486 JUMP JUMPDEST DUP2 EQ PUSH2 0x4AC JUMPI PUSH1 0x0 DUP1 REVERT JUMPDEST POP JUMP JUMPDEST PUSH1 0x0 DUP2 CALLDATALOAD SWAP1 POP PUSH2 0x4BE DUP2 PUSH2 0x498 JUMP JUMPDEST SWAP3 SWAP2 POP POP JUMP JUMPDEST PUSH2 0x4CD DUP2 PUSH2 0x432 JUMP JUMPDEST DUP2 EQ PUSH2 0x4D8 JUMPI PUSH1 0x0 DUP1 REVERT JUMPDEST POP JUMP JUMPDEST PUSH1 0x0 DUP2 CALLDATALOAD SWAP1 POP PUSH2 0x4EA DUP2 PUSH2 0x4C4 JUMP JUMPDEST SWAP3 SWAP2 POP POP JUMP JUMPDEST PUSH1 0x0 DUP1 REVERT JUMPDEST PUSH1 0x0 DUP1 REVERT JUMPDEST PUSH1 0x0 DUP1 REVERT JUMPDEST PUSH1 0x0 DUP1 DUP4 PUSH1 0x1F DUP5 ADD SLT PUSH2 0x515 JUMPI PUSH2 0x514 PUSH2 0x4F0 JUMP JUMPDEST JUMPDEST DUP3 CALLDATALOAD SWAP1 POP PUSH8 0xFFFFFFFFFFFFFFFF DUP2 GT ISZERO PUSH2 0x532 JUMPI PUSH2 0x531 PUSH2 0x4F5 JUMP JUMPDEST JUMPDEST PUSH1 0x20 DUP4 ADD SWAP2 POP DUP4 PUSH1 0x1 DUP3 MUL DUP4 ADD GT ISZERO PUSH2 0x54E JUMPI PUSH2 0x54D PUSH2 0x4FA JUMP JUMPDEST JUMPDEST SWAP3 POP SWAP3 SWAP1 POP JUMP JUMPDEST PUSH1 0x0 DUP1 DUP4 PUSH1 0x1F DUP5 ADD SLT PUSH2 0x56B JUMPI PUSH2 0x56A PUSH2 0x4F0 JUMP JUMPDEST JUMPDEST DUP3 CALLDATALOAD SWAP1 POP PUSH8 0xFFFFFFFFFFFFFFFF DUP2 GT ISZERO PUSH2 0x588 JUMPI PUSH2 0x587 PUSH2 0x4F5 JUMP JUMPDEST JUMPDEST PUSH1 0x20 DUP4 ADD SWAP2 POP DUP4 PUSH1 0x1 DUP3 MUL DUP4 ADD GT ISZERO PUSH2 0x5A4 JUMPI PUSH2 0x5A3 PUSH2 0x4FA JUMP JUMPDEST JUMPDEST SWAP3 POP SWAP3 SWAP1 POP JUMP JUMPDEST PUSH1 0x0 DUP1 PUSH1 0x0 DUP1 PUSH1 0x0 DUP1 PUSH1 0x0 PUSH1 0xA0 DUP9 DUP11 SUB SLT ISZERO PUSH2 0x5CA JUMPI PUSH2 0x5C9 PUSH2 0x38F JUMP JUMPDEST JUMPDEST PUSH1 0x0 PUSH2 0x5D8 DUP11 DUP3 DUP12 ADD PUSH2 0x4AF JUMP JUMPDEST SWAP8 POP POP PUSH1 0x20 PUSH2 0x5E9 DUP11 DUP3 DUP12 ADD PUSH2 0x4DB JUMP JUMPDEST SWAP7 POP POP PUSH1 0x40 DUP9 ADD CALLDATALOAD PUSH8 0xFFFFFFFFFFFFFFFF DUP2 GT ISZERO PUSH2 0x60A JUMPI PUSH2 0x609 PUSH2 0x394 JUMP JUMPDEST JUMPDEST PUSH2 0x616 DUP11 DUP3 DUP12 ADD PUSH2 0x4FF JUMP JUMPDEST SWAP6 POP SWAP6 POP POP PUSH1 0x60 DUP9 ADD CALLDATALOAD PUSH8 0xFFFFFFFFFFFFFFFF DUP2 GT ISZERO PUSH2 0x639 JUMPI PUSH2 0x638 PUSH2 0x394 JUMP JUMPDEST JUMPDEST PUSH2 0x645 DUP11 DUP3 DUP12 ADD PUSH2 0x555 JUMP JUMPDEST SWAP4 POP SWAP4 POP POP PUSH1 0x80 PUSH2 0x658 DUP11 DUP3 DUP12 ADD PUSH2 0x4DB JUMP JUMPDEST SWAP2 POP POP SWAP3 SWAP6 SWAP9 SWAP2 SWAP5 SWAP8 POP SWAP3 SWAP6 POP JUMP JUMPDEST PUSH2 0x670 DUP2 PUSH2 0x399 JUMP JUMPDEST DUP3 MSTORE POP POP JUMP JUMPDEST PUSH1 0x0 PUSH1 0x20 DUP3 ADD SWAP1 POP PUSH2 0x68B PUSH1 0x0 DUP4 ADD DUP5 PUSH2 0x667 JUMP JUMPDEST SWAP3 SWAP2 POP POP JUMP JUMPDEST PUSH2 0x69A DUP2 PUSH2 0x486 JUMP JUMPDEST DUP3 MSTORE POP POP JUMP JUMPDEST PUSH1 0x0 PUSH1 0x20 DUP3 ADD SWAP1 POP PUSH2 0x6B5 PUSH1 0x0 DUP4 ADD DUP5 PUSH2 0x691 JUMP JUMPDEST SWAP3 SWAP2 POP POP JUMP JUMPDEST PUSH32 0x4E487B7100000000000000000000000000000000000000000000000000000000 PUSH1 0x0 MSTORE PUSH1 0x11 PUSH1 0x4 MSTORE PUSH1 0x24 PUSH1 0x0 REVERT JUMPDEST PUSH1 0x0 PUSH2 0x6F5 DUP3 PUSH2 0x432 JUMP JUMPDEST SWAP2 POP PUSH2 0x700 DUP4 PUSH2 0x432 JUMP JUMPDEST SWAP3 POP DUP3 DUP3 ADD SWAP1 POP DUP1 DUP3 GT ISZERO PUSH2 0x718 JUMPI PUSH2 0x717 PUSH2 0x6BB JUMP JUMPDEST JUMPDEST SWAP3 SWAP2 POP POP JUMP JUMPDEST PUSH1 0x0 PUSH1 0x40 DUP3 ADD SWAP1 POP PUSH2 0x733 PUSH1 0x0 DUP4 ADD DUP6 PUSH2 0x43C JUMP JUMPDEST PUSH2 0x740 PUSH1 0x20 DUP4 ADD DUP5 PUSH2 0x43C JUMP JUMPDEST SWAP4 SWAP3 POP POP POP JUMP JUMPDEST PUSH1 0x0 DUP3 DUP3 MSTORE PUSH1 0x20 DUP3 ADD SWAP1 POP SWAP3 SWAP2 POP POP JUMP JUMPDEST DUP3 DUP2 DUP4 CALLDATACOPY PUSH1 0x0 DUP4 DUP4 ADD MSTORE POP POP POP JUMP JUMPDEST PUSH1 0x0 PUSH1 0x1F NOT PUSH1 0x1F DUP4 ADD AND SWAP1 POP SWAP2 SWAP1 POP JUMP JUMPDEST PUSH1 0x0 PUSH2 0x784 DUP4 DUP6 PUSH2 0x747 JUMP JUMPDEST SWAP4 POP PUSH2 0x791 DUP4 DUP6 DUP5 PUSH2 0x758 JUMP JUMPDEST PUSH2 0x79A DUP4 PUSH2 0x767 JUMP JUMPDEST DUP5 ADD SWAP1 POP SWAP4 SWAP3 POP POP POP JUMP JUMPDEST PUSH1 0x0 DUP3 DUP3 MSTORE PUSH1 0x20 DUP3 ADD SWAP1 POP SWAP3 SWAP2 POP POP JUMP JUMPDEST PUSH1 0x0 PUSH2 0x7C2 DUP4 DUP6 PUSH2 0x7A5 JUMP JUMPDEST SWAP4 POP PUSH2 0x7CF DUP4 DUP6 DUP5 PUSH2 0x758 JUMP JUMPDEST PUSH2 0x7D8 DUP4 PUSH2 0x767 JUMP JUMPDEST DUP5 ADD SWAP1 POP SWAP4 SWAP3 POP POP POP JUMP JUMPDEST PUSH1 0x0 PUSH1 0xA0 DUP3 ADD SWAP1 POP PUSH2 0x7F8 PUSH1 0x0 DUP4 ADD DUP11 PUSH2 0x691 JUMP JUMPDEST PUSH2 0x805 PUSH1 0x20 DUP4 ADD DUP10 PUSH2 0x43C JUMP JUMPDEST DUP2 DUP2 SUB PUSH1 0x40 DUP4 ADD MSTORE PUSH2 0x818 DUP2 DUP8 DUP10 PUSH2 0x778 JUMP JUMPDEST SWAP1 POP DUP2 DUP2 SUB PUSH1 0x60 DUP4 ADD MSTORE PUSH2 0x82D DUP2 DUP6 DUP8 PUSH2 0x7B6 JUMP JUMPDEST SWAP1 POP PUSH2 0x83C PUSH1 0x80 DUP4 ADD DUP5 PUSH2 0x43C JUMP JUMPDEST SWAP9 SWAP8 POP POP POP POP POP POP POP POP JUMP INVALID LOG2 PUSH5 0x6970667358 0x22 SLT KECCAK256 DUP2 NOT 0xCF PUSH2 0x6D67 EXP 0xA7 LOG0 0xA6 DUP6 SWAP1 PUSH20 0xA1C85784D09D92A244A0B80DDFDE194F0377FE64 PUSH20 0x6F6C634300081100330000000000000000000000 "
				},
				"gasEstimates": {
					"creation": {
						"codeDepositCost": "434800",
						"executionCost": "24734",
						"totalCost": "459534"
					},
					"external": {
						"MAX_DELAY()": "352",
						"MIN_DELAY()": "395",
						"execute()": "144",
						"getTxId(address,uint256,string,bytes,uint256)": "infinite",
						"owner()": "2555",
						"queue(address,uint256,string,bytes,uint256)": "infinite",
						"queued(bytes32)": "2797"
					}
				},
				"methodIdentifiers": {
					"MAX_DELAY()": "4125ff90",
					"MIN_DELAY()": "9f81aed7",
					"execute()": "61461954",
					"getTxId(address,uint256,string,bytes,uint256)": "8a1ce0b6",
					"owner()": "8da5cb5b",
					"queue(address,uint256,string,bytes,uint256)": "4b9915a5",
					"queued(bytes32)": "228250c9"
				}
			},
			"storageLayout": {
				"storage": [
					{
						"astId": 21,
						"contract": "TimeLock.sol:TimeLock",
						"label": "owner",
						"offset": 0,
						"slot": "0",
						"type": "t_address"
					},
					{
						"astId": 25,
						"contract": "TimeLock.sol:TimeLock",
						"label": "queued",
						"offset": 0,
						"slot": "1",
						"type": "t_mapping(t_bytes32,t_bool)"
					}
				],
				"types": {
					"t_address": {
						"encoding": "inplace",
						"label": "address",
						"numberOfBytes": "20"
					},
					"t_bool": {
						"encoding": "inplace",
						"label": "bool",
						"numberOfBytes": "1"
					},
					"t_bytes32": {
						"encoding": "inplace",
						"label": "bytes32",
						"numberOfBytes": "32"
					},
					"t_mapping(t_bytes32,t_bool)": {
						"encoding": "mapping",
						"key": "t_bytes32",
						"label": "mapping(bytes32 => bool)",
						"numberOfBytes": "32",
						"value": "t_bool"
					}
				}
			},
			"userdoc": {
				"kind": "user",
				"methods": {},
				"version": 1
			}
		}
	}
}