{
	"test1.sol": {
		"A": {
			"abi": [
				{
					"inputs": [],
					"name": "b",
					"outputs": [
						{
							"internalType": "uint8",
							"name": "",
							"type": "uint8"
						},
						{
							"internalType": "string",
							"name": "",
							"type": "string"
						}
					],
					"stateMutability": "pure",
					"type": "function"
				}
			],
			"devdoc": {
				"kind": "dev",
				"methods": {},
				"version": 1
			},
			"evm": {
				"assembly": "    /* \"test1.sol\":61:204  contract A {... */\n  mstore(0x40, 0x80)\n  callvalue\n  dup1\n  iszero\n  tag_1\n  jumpi\n  0x00\n  dup1\n  revert\ntag_1:\n  pop\n  dataSize(sub_0)\n  dup1\n  dataOffset(sub_0)\n  0x00\n  codecopy\n  0x00\n  return\nstop\n\nsub_0: assembly {\n        /* \"test1.sol\":61:204  contract A {... */\n      mstore(0x40, 0x80)\n      callvalue\n      dup1\n      iszero\n      tag_1\n      jumpi\n      0x00\n      dup1\n      revert\n    tag_1:\n      pop\n      jumpi(tag_2, lt(calldatasize, 0x04))\n      shr(0xe0, calldataload(0x00))\n      dup1\n      0x4df7e3d0\n      eq\n      tag_3\n      jumpi\n    tag_2:\n      0x00\n      dup1\n      revert\n        /* \"test1.sol\":81:201  function b() public pure returns (uint8, string memory){... */\n    tag_3:\n      tag_4\n      tag_5\n      jump\t// in\n    tag_4:\n      mload(0x40)\n      tag_6\n      swap3\n      swap2\n      swap1\n      tag_7\n      jump\t// in\n    tag_6:\n      mload(0x40)\n      dup1\n      swap2\n      sub\n      swap1\n      return\n    tag_5:\n        /* \"test1.sol\":115:120  uint8 */\n      0x00\n        /* \"test1.sol\":122:135  string memory */\n      0x60\n        /* \"test1.sol\":147:154  uint8 c */\n      0x00\n        /* \"test1.sol\":157:158  5 */\n      0x05\n        /* \"test1.sol\":147:158  uint8 c = 5 */\n      swap1\n      pop\n        /* \"test1.sol\":169:184  string memory s */\n      0x00\n        /* \"test1.sol\":169:193  string memory s = \"ssss\" */\n      mload(0x40)\n      dup1\n      0x40\n      add\n      0x40\n      mstore\n      dup1\n      0x04\n      dup2\n      mstore\n      0x20\n      add\n      0x7373737300000000000000000000000000000000000000000000000000000000\n      dup2\n      mstore\n      pop\n      swap1\n      pop\n        /* \"test1.sol\":136:201  {... */\n      pop\n      pop\n        /* \"test1.sol\":81:201  function b() public pure returns (uint8, string memory){... */\n      swap1\n      swap2\n      jump\t// out\n        /* \"#utility.yul\":7:93   */\n    tag_9:\n        /* \"#utility.yul\":42:49   */\n      0x00\n        /* \"#utility.yul\":82:86   */\n      0xff\n        /* \"#utility.yul\":75:80   */\n      dup3\n        /* \"#utility.yul\":71:87   */\n      and\n        /* \"#utility.yul\":60:87   */\n      swap1\n      pop\n        /* \"#utility.yul\":7:93   */\n      swap2\n      swap1\n      pop\n      jump\t// out\n        /* \"#utility.yul\":99:211   */\n    tag_10:\n        /* \"#utility.yul\":182:204   */\n      tag_19\n        /* \"#utility.yul\":198:203   */\n      dup2\n        /* \"#utility.yul\":182:204   */\n      tag_9\n      jump\t// in\n    tag_19:\n        /* \"#utility.yul\":177:180   */\n      dup3\n        /* \"#utility.yul\":170:205   */\n      mstore\n        /* \"#utility.yul\":99:211   */\n      pop\n      pop\n      jump\t// out\n        /* \"#utility.yul\":217:316   */\n    tag_11:\n        /* \"#utility.yul\":269:275   */\n      0x00\n        /* \"#utility.yul\":303:308   */\n      dup2\n        /* \"#utility.yul\":297:309   */\n      mload\n        /* \"#utility.yul\":287:309   */\n      swap1\n      pop\n        /* \"#utility.yul\":217:316   */\n      swap2\n      swap1\n      pop\n      jump\t// out\n        /* \"#utility.yul\":322:491   */\n    tag_12:\n        /* \"#utility.yul\":406:417   */\n      0x00\n        /* \"#utility.yul\":440:446   */\n      dup3\n        /* \"#utility.yul\":435:438   */\n      dup3\n        /* \"#utility.yul\":428:447   */\n      mstore\n        /* \"#utility.yul\":480:484   */\n      0x20\n        /* \"#utility.yul\":475:478   */\n      dup3\n        /* \"#utility.yul\":471:485   */\n      add\n        /* \"#utility.yul\":456:485   */\n      swap1\n      pop\n        /* \"#utility.yul\":322:491   */\n      swap3\n      swap2\n      pop\n      pop\n      jump\t// out\n        /* \"#utility.yul\":497:743   */\n    tag_13:\n        /* \"#utility.yul\":578:579   */\n      0x00\n        /* \"#utility.yul\":588:701   */\n    tag_23:\n        /* \"#utility.yul\":602:608   */\n      dup4\n        /* \"#utility.yul\":599:600   */\n      dup2\n        /* \"#utility.yul\":596:609   */\n      lt\n        /* \"#utility.yul\":588:701   */\n      iszero\n      tag_25\n      jumpi\n        /* \"#utility.yul\":687:688   */\n      dup1\n        /* \"#utility.yul\":682:685   */\n      dup3\n        /* \"#utility.yul\":678:689   */\n      add\n        /* \"#utility.yul\":672:690   */\n      mload\n        /* \"#utility.yul\":668:669   */\n      dup2\n        /* \"#utility.yul\":663:666   */\n      dup5\n        /* \"#utility.yul\":659:670   */\n      add\n        /* \"#utility.yul\":652:691   */\n      mstore\n        /* \"#utility.yul\":624:626   */\n      0x20\n        /* \"#utility.yul\":621:622   */\n      dup2\n        /* \"#utility.yul\":617:627   */\n      add\n        /* \"#utility.yul\":612:627   */\n      swap1\n      pop\n        /* \"#utility.yul\":588:701   */\n      jump(tag_23)\n    tag_25:\n        /* \"#utility.yul\":735:736   */\n      0x00\n        /* \"#utility.yul\":726:732   */\n      dup5\n        /* \"#utility.yul\":721:724   */\n      dup5\n        /* \"#utility.yul\":717:733   */\n      add\n        /* \"#utility.yul\":710:737   */\n      mstore\n        /* \"#utility.yul\":559:743   */\n      pop\n        /* \"#utility.yul\":497:743   */\n      pop\n      pop\n      pop\n      jump\t// out\n        /* \"#utility.yul\":749:851   */\n    tag_14:\n        /* \"#utility.yul\":790:796   */\n      0x00\n        /* \"#utility.yul\":841:843   */\n      0x1f\n        /* \"#utility.yul\":837:844   */\n      not\n        /* \"#utility.yul\":832:834   */\n      0x1f\n        /* \"#utility.yul\":825:830   */\n      dup4\n        /* \"#utility.yul\":821:835   */\n      add\n        /* \"#utility.yul\":817:845   */\n      and\n        /* \"#utility.yul\":807:845   */\n      swap1\n      pop\n        /* \"#utility.yul\":749:851   */\n      swap2\n      swap1\n      pop\n      jump\t// out\n        /* \"#utility.yul\":857:1234   */\n    tag_15:\n        /* \"#utility.yul\":945:948   */\n      0x00\n        /* \"#utility.yul\":973:1012   */\n      tag_28\n        /* \"#utility.yul\":1006:1011   */\n      dup3\n        /* \"#utility.yul\":973:1012   */\n      tag_11\n      jump\t// in\n    tag_28:\n        /* \"#utility.yul\":1028:1099   */\n      tag_29\n        /* \"#utility.yul\":1092:1098   */\n      dup2\n        /* \"#utility.yul\":1087:1090   */\n      dup6\n        /* \"#utility.yul\":1028:1099   */\n      tag_12\n      jump\t// in\n    tag_29:\n        /* \"#utility.yul\":1021:1099   */\n      swap4\n      pop\n        /* \"#utility.yul\":1108:1173   */\n      tag_30\n        /* \"#utility.yul\":1166:1172   */\n      dup2\n        /* \"#utility.yul\":1161:1164   */\n      dup6\n        /* \"#utility.yul\":1154:1158   */\n      0x20\n        /* \"#utility.yul\":1147:1152   */\n      dup7\n        /* \"#utility.yul\":1143:1159   */\n      add\n        /* \"#utility.yul\":1108:1173   */\n      tag_13\n      jump\t// in\n    tag_30:\n        /* \"#utility.yul\":1198:1227   */\n      tag_31\n        /* \"#utility.yul\":1220:1226   */\n      dup2\n        /* \"#utility.yul\":1198:1227   */\n      tag_14\n      jump\t// in\n    tag_31:\n        /* \"#utility.yul\":1193:1196   */\n      dup5\n        /* \"#utility.yul\":1189:1228   */\n      add\n        /* \"#utility.yul\":1182:1228   */\n      swap2\n      pop\n        /* \"#utility.yul\":949:1234   */\n      pop\n        /* \"#utility.yul\":857:1234   */\n      swap3\n      swap2\n      pop\n      pop\n      jump\t// out\n        /* \"#utility.yul\":1240:1655   */\n    tag_7:\n        /* \"#utility.yul\":1377:1381   */\n      0x00\n        /* \"#utility.yul\":1415:1417   */\n      0x40\n        /* \"#utility.yul\":1404:1413   */\n      dup3\n        /* \"#utility.yul\":1400:1418   */\n      add\n        /* \"#utility.yul\":1392:1418   */\n      swap1\n      pop\n        /* \"#utility.yul\":1428:1495   */\n      tag_33\n        /* \"#utility.yul\":1492:1493   */\n      0x00\n        /* \"#utility.yul\":1481:1490   */\n      dup4\n        /* \"#utility.yul\":1477:1494   */\n      add\n        /* \"#utility.yul\":1468:1474   */\n      dup6\n        /* \"#utility.yul\":1428:1495   */\n      tag_10\n      jump\t// in\n    tag_33:\n        /* \"#utility.yul\":1542:1551   */\n      dup2\n        /* \"#utility.yul\":1536:1540   */\n      dup2\n        /* \"#utility.yul\":1532:1552   */\n      sub\n        /* \"#utility.yul\":1527:1529   */\n      0x20\n        /* \"#utility.yul\":1516:1525   */\n      dup4\n        /* \"#utility.yul\":1512:1530   */\n      add\n        /* \"#utility.yul\":1505:1553   */\n      mstore\n        /* \"#utility.yul\":1570:1648   */\n      tag_34\n        /* \"#utility.yul\":1643:1647   */\n      dup2\n        /* \"#utility.yul\":1634:1640   */\n      dup5\n        /* \"#utility.yul\":1570:1648   */\n      tag_15\n      jump\t// in\n    tag_34:\n        /* \"#utility.yul\":1562:1648   */\n      swap1\n      pop\n        /* \"#utility.yul\":1240:1655   */\n      swap4\n      swap3\n      pop\n      pop\n      pop\n      jump\t// out\n\n    auxdata: 0xa2646970667358221220074051fc6b6860ce824800189fcbb4459997659e554a0e3765609bcff3ef18c764736f6c63430008110033\n}\n",
				"bytecode": {
					"linkReferences": {},
					"object": "608060405234801561001057600080fd5b506101ab806100206000396000f3fe608060405234801561001057600080fd5b506004361061002b5760003560e01c80634df7e3d014610030575b600080fd5b61003861004f565b604051610046929190610145565b60405180910390f35b6000606060006005905060006040518060400160405280600481526020017f7373737300000000000000000000000000000000000000000000000000000000815250905050509091565b600060ff82169050919050565b6100af81610099565b82525050565b600081519050919050565b600082825260208201905092915050565b60005b838110156100ef5780820151818401526020810190506100d4565b60008484015250505050565b6000601f19601f8301169050919050565b6000610117826100b5565b61012181856100c0565b93506101318185602086016100d1565b61013a816100fb565b840191505092915050565b600060408201905061015a60008301856100a6565b818103602083015261016c818461010c565b9050939250505056fea2646970667358221220074051fc6b6860ce824800189fcbb4459997659e554a0e3765609bcff3ef18c764736f6c63430008110033",
					"opcodes": "PUSH1 0x80 PUSH1 0x40 MSTORE CALLVALUE DUP1 ISZERO PUSH2 0x10 JUMPI PUSH1 0x0 DUP1 REVERT JUMPDEST POP PUSH2 0x1AB DUP1 PUSH2 0x20 PUSH1 0x0 CODECOPY PUSH1 0x0 RETURN INVALID PUSH1 0x80 PUSH1 0x40 MSTORE CALLVALUE DUP1 ISZERO PUSH2 0x10 JUMPI PUSH1 0x0 DUP1 REVERT JUMPDEST POP PUSH1 0x4 CALLDATASIZE LT PUSH2 0x2B JUMPI PUSH1 0x0 CALLDATALOAD PUSH1 0xE0 SHR DUP1 PUSH4 0x4DF7E3D0 EQ PUSH2 0x30 JUMPI JUMPDEST PUSH1 0x0 DUP1 REVERT JUMPDEST PUSH2 0x38 PUSH2 0x4F JUMP JUMPDEST PUSH1 0x40 MLOAD PUSH2 0x46 SWAP3 SWAP2 SWAP1 PUSH2 0x145 JUMP JUMPDEST PUSH1 0x40 MLOAD DUP1 SWAP2 SUB SWAP1 RETURN JUMPDEST PUSH1 0x0 PUSH1 0x60 PUSH1 0x0 PUSH1 0x5 SWAP1 POP PUSH1 0x0 PUSH1 0x40 MLOAD DUP1 PUSH1 0x40 ADD PUSH1 0x40 MSTORE DUP1 PUSH1 0x4 DUP2 MSTORE PUSH1 0x20 ADD PUSH32 0x7373737300000000000000000000000000000000000000000000000000000000 DUP2 MSTORE POP SWAP1 POP POP POP SWAP1 SWAP2 JUMP JUMPDEST PUSH1 0x0 PUSH1 0xFF DUP3 AND SWAP1 POP SWAP2 SWAP1 POP JUMP JUMPDEST PUSH2 0xAF DUP2 PUSH2 0x99 JUMP JUMPDEST DUP3 MSTORE POP POP JUMP JUMPDEST PUSH1 0x0 DUP2 MLOAD SWAP1 POP SWAP2 SWAP1 POP JUMP JUMPDEST PUSH1 0x0 DUP3 DUP3 MSTORE PUSH1 0x20 DUP3 ADD SWAP1 POP SWAP3 SWAP2 POP POP JUMP JUMPDEST PUSH1 0x0 JUMPDEST DUP4 DUP2 LT ISZERO PUSH2 0xEF JUMPI DUP1 DUP3 ADD MLOAD DUP2 DUP5 ADD MSTORE PUSH1 0x20 DUP2 ADD SWAP1 POP PUSH2 0xD4 JUMP JUMPDEST PUSH1 0x0 DUP5 DUP5 ADD MSTORE POP POP POP POP JUMP JUMPDEST PUSH1 0x0 PUSH1 0x1F NOT PUSH1 0x1F DUP4 ADD AND SWAP1 POP SWAP2 SWAP1 POP JUMP JUMPDEST PUSH1 0x0 PUSH2 0x117 DUP3 PUSH2 0xB5 JUMP JUMPDEST PUSH2 0x121 DUP2 DUP6 PUSH2 0xC0 JUMP JUMPDEST SWAP4 POP PUSH2 0x131 DUP2 DUP6 PUSH1 0x20 DUP7 ADD PUSH2 0xD1 JUMP JUMPDEST PUSH2 0x13A DUP2 PUSH2 0xFB JUMP JUMPDEST DUP5 ADD SWAP2 POP POP SWAP3 SWAP2 POP POP JUMP JUMPDEST PUSH1 0x0 PUSH1 0x40 DUP3 ADD SWAP1 POP PUSH2 0x15A PUSH1 0x0 DUP4 ADD DUP6 PUSH2 0xA6 JUMP JUMPDEST DUP2 DUP2 SUB PUSH1 0x20 DUP4 ADD MSTORE PUSH2 0x16C DUP2 DUP5 PUSH2 0x10C JUMP JUMPDEST SWAP1 POP SWAP4 SWAP3 POP POP POP JUMP INVALID LOG2 PUSH5 0x6970667358 0x22 SLT KECCAK256 SMOD BLOCKHASH MLOAD 0xFC PUSH12 0x6860CE824800189FCBB44599 SWAP8 PUSH6 0x9E554A0E3765 PUSH1 0x9B 0xCF RETURN 0xEF XOR 0xC7 PUSH5 0x736F6C6343 STOP ADDMOD GT STOP CALLER "
				},
				"gasEstimates": {
					"creation": {
						"codeDepositCost": "85400",
						"executionCost": "135",
						"totalCost": "85535"
					},
					"external": {
						"b()": "infinite"
					}
				},
				"methodIdentifiers": {
					"b()": "4df7e3d0"
				}
			},
			"storageLayout": {
				"storage": [],
				"types": null
			},
			"userdoc": {
				"kind": "user",
				"methods": {},
				"version": 1
			}
		}
	}
}