{
	"AbiDecode.sol": {
		"AbiDecode": {
			"abi": [
				{
					"inputs": [
						{
							"internalType": "uint256",
							"name": "x",
							"type": "uint256"
						},
						{
							"internalType": "address",
							"name": "addr",
							"type": "address"
						},
						{
							"internalType": "uint256[]",
							"name": "arr",
							"type": "uint256[]"
						},
						{
							"components": [
								{
									"internalType": "string",
									"name": "mame",
									"type": "string"
								},
								{
									"internalType": "uint256[2]",
									"name": "nums",
									"type": "uint256[2]"
								}
							],
							"internalType": "struct AbiDecode.Mystruct",
							"name": "myStruct",
							"type": "tuple"
						}
					],
					"name": "encode",
					"outputs": [
						{
							"internalType": "bytes",
							"name": "",
							"type": "bytes"
						}
					],
					"stateMutability": "pure",
					"type": "function"
				}
			],
			"devdoc": {
				"kind": "dev",
				"methods": {},
				"version": 1
			},
			"evm": {
				"assembly": "    /* \"AbiDecode.sol\":61:352  contract AbiDecode {... */\n  mstore(0x40, 0x80)\n  callvalue\n  dup1\n  iszero\n  tag_1\n  jumpi\n  0x00\n  dup1\n  revert\ntag_1:\n  pop\n  dataSize(sub_0)\n  dup1\n  dataOffset(sub_0)\n  0x00\n  codecopy\n  0x00\n  return\nstop\n\nsub_0: assembly {\n        /* \"AbiDecode.sol\":61:352  contract AbiDecode {... */\n      mstore(0x40, 0x80)\n      callvalue\n      dup1\n      iszero\n      tag_1\n      jumpi\n      0x00\n      dup1\n      revert\n    tag_1:\n      pop\n      jumpi(tag_2, lt(calldatasize, 0x04))\n      shr(0xe0, calldataload(0x00))\n      dup1\n      0x7049e087\n      eq\n      tag_3\n      jumpi\n    tag_2:\n      0x00\n      dup1\n      revert\n        /* \"AbiDecode.sol\":164:349  function encode (uint x, address addr, uint[] calldata arr, Mystruct calldata myStruct) external pure returns (bytes memory) {... */\n    tag_3:\n      tag_4\n      0x04\n      dup1\n      calldatasize\n      sub\n      dup2\n      add\n      swap1\n      tag_5\n      swap2\n      swap1\n      tag_6\n      jump\t// in\n    tag_5:\n      tag_7\n      jump\t// in\n    tag_4:\n      mload(0x40)\n      tag_8\n      swap2\n      swap1\n      tag_9\n      jump\t// in\n    tag_8:\n      mload(0x40)\n      dup1\n      swap2\n      sub\n      swap1\n      return\n    tag_7:\n        /* \"AbiDecode.sol\":275:287  bytes memory */\n      0x60\n        /* \"AbiDecode.sol\":318:319  x */\n      dup6\n        /* \"AbiDecode.sol\":321:325  addr */\n      dup6\n        /* \"AbiDecode.sol\":327:330  arr */\n      dup6\n      dup6\n        /* \"AbiDecode.sol\":332:340  myStruct */\n      dup6\n        /* \"AbiDecode.sol\":307:341  abi.encode(x, addr, arr, myStruct) */\n      add(0x20, mload(0x40))\n      tag_11\n      swap6\n      swap5\n      swap4\n      swap3\n      swap2\n      swap1\n      tag_12\n      jump\t// in\n    tag_11:\n      mload(0x40)\n      0x20\n      dup2\n      dup4\n      sub\n      sub\n      dup2\n      mstore\n      swap1\n      0x40\n      mstore\n        /* \"AbiDecode.sol\":300:341  return abi.encode(x, addr, arr, myStruct) */\n      swap1\n      pop\n        /* \"AbiDecode.sol\":164:349  function encode (uint x, address addr, uint[] calldata arr, Mystruct calldata myStruct) external pure returns (bytes memory) {... */\n      swap6\n      swap5\n      pop\n      pop\n      pop\n      pop\n      pop\n      jump\t// out\n        /* \"#utility.yul\":88:205   */\n    tag_14:\n        /* \"#utility.yul\":197:198   */\n      0x00\n        /* \"#utility.yul\":194:195   */\n      dup1\n        /* \"#utility.yul\":187:199   */\n      revert\n        /* \"#utility.yul\":211:328   */\n    tag_15:\n        /* \"#utility.yul\":320:321   */\n      0x00\n        /* \"#utility.yul\":317:318   */\n      dup1\n        /* \"#utility.yul\":310:322   */\n      revert\n        /* \"#utility.yul\":334:411   */\n    tag_16:\n        /* \"#utility.yul\":371:378   */\n      0x00\n        /* \"#utility.yul\":400:405   */\n      dup2\n        /* \"#utility.yul\":389:405   */\n      swap1\n      pop\n        /* \"#utility.yul\":334:411   */\n      swap2\n      swap1\n      pop\n      jump\t// out\n        /* \"#utility.yul\":417:539   */\n    tag_17:\n        /* \"#utility.yul\":490:514   */\n      tag_56\n        /* \"#utility.yul\":508:513   */\n      dup2\n        /* \"#utility.yul\":490:514   */\n      tag_16\n      jump\t// in\n    tag_56:\n        /* \"#utility.yul\":483:488   */\n      dup2\n        /* \"#utility.yul\":480:515   */\n      eq\n        /* \"#utility.yul\":470:533   */\n      tag_57\n      jumpi\n        /* \"#utility.yul\":529:530   */\n      0x00\n        /* \"#utility.yul\":526:527   */\n      dup1\n        /* \"#utility.yul\":519:531   */\n      revert\n        /* \"#utility.yul\":470:533   */\n    tag_57:\n        /* \"#utility.yul\":417:539   */\n      pop\n      jump\t// out\n        /* \"#utility.yul\":545:684   */\n    tag_18:\n        /* \"#utility.yul\":591:596   */\n      0x00\n        /* \"#utility.yul\":629:635   */\n      dup2\n        /* \"#utility.yul\":616:636   */\n      calldataload\n        /* \"#utility.yul\":607:636   */\n      swap1\n      pop\n        /* \"#utility.yul\":645:678   */\n      tag_59\n        /* \"#utility.yul\":672:677   */\n      dup2\n        /* \"#utility.yul\":645:678   */\n      tag_17\n      jump\t// in\n    tag_59:\n        /* \"#utility.yul\":545:684   */\n      swap3\n      swap2\n      pop\n      pop\n      jump\t// out\n        /* \"#utility.yul\":690:816   */\n    tag_19:\n        /* \"#utility.yul\":727:734   */\n      0x00\n        /* \"#utility.yul\":767:809   */\n      0xffffffffffffffffffffffffffffffffffffffff\n        /* \"#utility.yul\":760:765   */\n      dup3\n        /* \"#utility.yul\":756:810   */\n      and\n        /* \"#utility.yul\":745:810   */\n      swap1\n      pop\n        /* \"#utility.yul\":690:816   */\n      swap2\n      swap1\n      pop\n      jump\t// out\n        /* \"#utility.yul\":822:918   */\n    tag_20:\n        /* \"#utility.yul\":859:866   */\n      0x00\n        /* \"#utility.yul\":888:912   */\n      tag_62\n        /* \"#utility.yul\":906:911   */\n      dup3\n        /* \"#utility.yul\":888:912   */\n      tag_19\n      jump\t// in\n    tag_62:\n        /* \"#utility.yul\":877:912   */\n      swap1\n      pop\n        /* \"#utility.yul\":822:918   */\n      swap2\n      swap1\n      pop\n      jump\t// out\n        /* \"#utility.yul\":924:1046   */\n    tag_21:\n        /* \"#utility.yul\":997:1021   */\n      tag_64\n        /* \"#utility.yul\":1015:1020   */\n      dup2\n        /* \"#utility.yul\":997:1021   */\n      tag_20\n      jump\t// in\n    tag_64:\n        /* \"#utility.yul\":990:995   */\n      dup2\n        /* \"#utility.yul\":987:1022   */\n      eq\n        /* \"#utility.yul\":977:1040   */\n      tag_65\n      jumpi\n        /* \"#utility.yul\":1036:1037   */\n      0x00\n        /* \"#utility.yul\":1033:1034   */\n      dup1\n        /* \"#utility.yul\":1026:1038   */\n      revert\n        /* \"#utility.yul\":977:1040   */\n    tag_65:\n        /* \"#utility.yul\":924:1046   */\n      pop\n      jump\t// out\n        /* \"#utility.yul\":1052:1191   */\n    tag_22:\n        /* \"#utility.yul\":1098:1103   */\n      0x00\n        /* \"#utility.yul\":1136:1142   */\n      dup2\n        /* \"#utility.yul\":1123:1143   */\n      calldataload\n        /* \"#utility.yul\":1114:1143   */\n      swap1\n      pop\n        /* \"#utility.yul\":1152:1185   */\n      tag_67\n        /* \"#utility.yul\":1179:1184   */\n      dup2\n        /* \"#utility.yul\":1152:1185   */\n      tag_21\n      jump\t// in\n    tag_67:\n        /* \"#utility.yul\":1052:1191   */\n      swap3\n      swap2\n      pop\n      pop\n      jump\t// out\n        /* \"#utility.yul\":1197:1314   */\n    tag_23:\n        /* \"#utility.yul\":1306:1307   */\n      0x00\n        /* \"#utility.yul\":1303:1304   */\n      dup1\n        /* \"#utility.yul\":1296:1308   */\n      revert\n        /* \"#utility.yul\":1320:1437   */\n    tag_24:\n        /* \"#utility.yul\":1429:1430   */\n      0x00\n        /* \"#utility.yul\":1426:1427   */\n      dup1\n        /* \"#utility.yul\":1419:1431   */\n      revert\n        /* \"#utility.yul\":1443:1560   */\n    tag_25:\n        /* \"#utility.yul\":1552:1553   */\n      0x00\n        /* \"#utility.yul\":1549:1550   */\n      dup1\n        /* \"#utility.yul\":1542:1554   */\n      revert\n        /* \"#utility.yul\":1583:2151   */\n    tag_26:\n        /* \"#utility.yul\":1656:1664   */\n      0x00\n        /* \"#utility.yul\":1666:1672   */\n      dup1\n        /* \"#utility.yul\":1716:1719   */\n      dup4\n        /* \"#utility.yul\":1709:1713   */\n      0x1f\n        /* \"#utility.yul\":1701:1707   */\n      dup5\n        /* \"#utility.yul\":1697:1714   */\n      add\n        /* \"#utility.yul\":1693:1720   */\n      slt\n        /* \"#utility.yul\":1683:1805   */\n      tag_72\n      jumpi\n        /* \"#utility.yul\":1724:1803   */\n      tag_73\n      tag_23\n      jump\t// in\n    tag_73:\n        /* \"#utility.yul\":1683:1805   */\n    tag_72:\n        /* \"#utility.yul\":1837:1843   */\n      dup3\n        /* \"#utility.yul\":1824:1844   */\n      calldataload\n        /* \"#utility.yul\":1814:1844   */\n      swap1\n      pop\n        /* \"#utility.yul\":1867:1885   */\n      0xffffffffffffffff\n        /* \"#utility.yul\":1859:1865   */\n      dup2\n        /* \"#utility.yul\":1856:1886   */\n      gt\n        /* \"#utility.yul\":1853:1970   */\n      iszero\n      tag_74\n      jumpi\n        /* \"#utility.yul\":1889:1968   */\n      tag_75\n      tag_24\n      jump\t// in\n    tag_75:\n        /* \"#utility.yul\":1853:1970   */\n    tag_74:\n        /* \"#utility.yul\":2003:2007   */\n      0x20\n        /* \"#utility.yul\":1995:2001   */\n      dup4\n        /* \"#utility.yul\":1991:2008   */\n      add\n        /* \"#utility.yul\":1979:2008   */\n      swap2\n      pop\n        /* \"#utility.yul\":2057:2060   */\n      dup4\n        /* \"#utility.yul\":2049:2053   */\n      0x20\n        /* \"#utility.yul\":2041:2047   */\n      dup3\n        /* \"#utility.yul\":2037:2054   */\n      mul\n        /* \"#utility.yul\":2027:2035   */\n      dup4\n        /* \"#utility.yul\":2023:2055   */\n      add\n        /* \"#utility.yul\":2020:2061   */\n      gt\n        /* \"#utility.yul\":2017:2145   */\n      iszero\n      tag_76\n      jumpi\n        /* \"#utility.yul\":2064:2143   */\n      tag_77\n      tag_25\n      jump\t// in\n    tag_77:\n        /* \"#utility.yul\":2017:2145   */\n    tag_76:\n        /* \"#utility.yul\":1583:2151   */\n      swap3\n      pop\n      swap3\n      swap1\n      pop\n      jump\t// out\n        /* \"#utility.yul\":2157:2274   */\n    tag_27:\n        /* \"#utility.yul\":2266:2267   */\n      0x00\n        /* \"#utility.yul\":2263:2264   */\n      dup1\n        /* \"#utility.yul\":2256:2268   */\n      revert\n        /* \"#utility.yul\":2313:2542   */\n    tag_28:\n        /* \"#utility.yul\":2384:2389   */\n      0x00\n        /* \"#utility.yul\":2425:2427   */\n      0x60\n        /* \"#utility.yul\":2416:2422   */\n      dup3\n        /* \"#utility.yul\":2411:2414   */\n      dup5\n        /* \"#utility.yul\":2407:2423   */\n      sub\n        /* \"#utility.yul\":2403:2428   */\n      slt\n        /* \"#utility.yul\":2400:2512   */\n      iszero\n      tag_80\n      jumpi\n        /* \"#utility.yul\":2431:2510   */\n      tag_81\n      tag_27\n      jump\t// in\n    tag_81:\n        /* \"#utility.yul\":2400:2512   */\n    tag_80:\n        /* \"#utility.yul\":2530:2536   */\n      dup2\n        /* \"#utility.yul\":2521:2536   */\n      swap1\n      pop\n        /* \"#utility.yul\":2313:2542   */\n      swap3\n      swap2\n      pop\n      pop\n      jump\t// out\n        /* \"#utility.yul\":2548:3753   */\n    tag_6:\n        /* \"#utility.yul\":2686:2692   */\n      0x00\n        /* \"#utility.yul\":2694:2700   */\n      dup1\n        /* \"#utility.yul\":2702:2708   */\n      0x00\n        /* \"#utility.yul\":2710:2716   */\n      dup1\n        /* \"#utility.yul\":2718:2724   */\n      0x00\n        /* \"#utility.yul\":2767:2770   */\n      0x80\n        /* \"#utility.yul\":2755:2764   */\n      dup7\n        /* \"#utility.yul\":2746:2753   */\n      dup9\n        /* \"#utility.yul\":2742:2765   */\n      sub\n        /* \"#utility.yul\":2738:2771   */\n      slt\n        /* \"#utility.yul\":2735:2855   */\n      iszero\n      tag_83\n      jumpi\n        /* \"#utility.yul\":2774:2853   */\n      tag_84\n      tag_14\n      jump\t// in\n    tag_84:\n        /* \"#utility.yul\":2735:2855   */\n    tag_83:\n        /* \"#utility.yul\":2894:2895   */\n      0x00\n        /* \"#utility.yul\":2919:2972   */\n      tag_85\n        /* \"#utility.yul\":2964:2971   */\n      dup9\n        /* \"#utility.yul\":2955:2961   */\n      dup3\n        /* \"#utility.yul\":2944:2953   */\n      dup10\n        /* \"#utility.yul\":2940:2962   */\n      add\n        /* \"#utility.yul\":2919:2972   */\n      tag_18\n      jump\t// in\n    tag_85:\n        /* \"#utility.yul\":2909:2972   */\n      swap6\n      pop\n        /* \"#utility.yul\":2865:2982   */\n      pop\n        /* \"#utility.yul\":3021:3023   */\n      0x20\n        /* \"#utility.yul\":3047:3100   */\n      tag_86\n        /* \"#utility.yul\":3092:3099   */\n      dup9\n        /* \"#utility.yul\":3083:3089   */\n      dup3\n        /* \"#utility.yul\":3072:3081   */\n      dup10\n        /* \"#utility.yul\":3068:3090   */\n      add\n        /* \"#utility.yul\":3047:3100   */\n      tag_22\n      jump\t// in\n    tag_86:\n        /* \"#utility.yul\":3037:3100   */\n      swap5\n      pop\n        /* \"#utility.yul\":2992:3110   */\n      pop\n        /* \"#utility.yul\":3177:3179   */\n      0x40\n        /* \"#utility.yul\":3166:3175   */\n      dup7\n        /* \"#utility.yul\":3162:3180   */\n      add\n        /* \"#utility.yul\":3149:3181   */\n      calldataload\n        /* \"#utility.yul\":3208:3226   */\n      0xffffffffffffffff\n        /* \"#utility.yul\":3200:3206   */\n      dup2\n        /* \"#utility.yul\":3197:3227   */\n      gt\n        /* \"#utility.yul\":3194:3311   */\n      iszero\n      tag_87\n      jumpi\n        /* \"#utility.yul\":3230:3309   */\n      tag_88\n      tag_15\n      jump\t// in\n    tag_88:\n        /* \"#utility.yul\":3194:3311   */\n    tag_87:\n        /* \"#utility.yul\":3343:3423   */\n      tag_89\n        /* \"#utility.yul\":3415:3422   */\n      dup9\n        /* \"#utility.yul\":3406:3412   */\n      dup3\n        /* \"#utility.yul\":3395:3404   */\n      dup10\n        /* \"#utility.yul\":3391:3413   */\n      add\n        /* \"#utility.yul\":3343:3423   */\n      tag_26\n      jump\t// in\n    tag_89:\n        /* \"#utility.yul\":3325:3423   */\n      swap4\n      pop\n      swap4\n      pop\n        /* \"#utility.yul\":3120:3433   */\n      pop\n        /* \"#utility.yul\":3500:3502   */\n      0x60\n        /* \"#utility.yul\":3489:3498   */\n      dup7\n        /* \"#utility.yul\":3485:3503   */\n      add\n        /* \"#utility.yul\":3472:3504   */\n      calldataload\n        /* \"#utility.yul\":3531:3549   */\n      0xffffffffffffffff\n        /* \"#utility.yul\":3523:3529   */\n      dup2\n        /* \"#utility.yul\":3520:3550   */\n      gt\n        /* \"#utility.yul\":3517:3634   */\n      iszero\n      tag_90\n      jumpi\n        /* \"#utility.yul\":3553:3632   */\n      tag_91\n      tag_15\n      jump\t// in\n    tag_91:\n        /* \"#utility.yul\":3517:3634   */\n    tag_90:\n        /* \"#utility.yul\":3658:3736   */\n      tag_92\n        /* \"#utility.yul\":3728:3735   */\n      dup9\n        /* \"#utility.yul\":3719:3725   */\n      dup3\n        /* \"#utility.yul\":3708:3717   */\n      dup10\n        /* \"#utility.yul\":3704:3726   */\n      add\n        /* \"#utility.yul\":3658:3736   */\n      tag_28\n      jump\t// in\n    tag_92:\n        /* \"#utility.yul\":3648:3736   */\n      swap2\n      pop\n        /* \"#utility.yul\":3443:3746   */\n      pop\n        /* \"#utility.yul\":2548:3753   */\n      swap3\n      swap6\n      pop\n      swap3\n      swap6\n      swap1\n      swap4\n      pop\n      jump\t// out\n        /* \"#utility.yul\":3759:3857   */\n    tag_29:\n        /* \"#utility.yul\":3810:3816   */\n      0x00\n        /* \"#utility.yul\":3844:3849   */\n      dup2\n        /* \"#utility.yul\":3838:3850   */\n      mload\n        /* \"#utility.yul\":3828:3850   */\n      swap1\n      pop\n        /* \"#utility.yul\":3759:3857   */\n      swap2\n      swap1\n      pop\n      jump\t// out\n        /* \"#utility.yul\":3863:4031   */\n    tag_30:\n        /* \"#utility.yul\":3946:3957   */\n      0x00\n        /* \"#utility.yul\":3980:3986   */\n      dup3\n        /* \"#utility.yul\":3975:3978   */\n      dup3\n        /* \"#utility.yul\":3968:3987   */\n      mstore\n        /* \"#utility.yul\":4020:4024   */\n      0x20\n        /* \"#utility.yul\":4015:4018   */\n      dup3\n        /* \"#utility.yul\":4011:4025   */\n      add\n        /* \"#utility.yul\":3996:4025   */\n      swap1\n      pop\n        /* \"#utility.yul\":3863:4031   */\n      swap3\n      swap2\n      pop\n      pop\n      jump\t// out\n        /* \"#utility.yul\":4037:4283   */\n    tag_31:\n        /* \"#utility.yul\":4118:4119   */\n      0x00\n        /* \"#utility.yul\":4128:4241   */\n    tag_96:\n        /* \"#utility.yul\":4142:4148   */\n      dup4\n        /* \"#utility.yul\":4139:4140   */\n      dup2\n        /* \"#utility.yul\":4136:4149   */\n      lt\n        /* \"#utility.yul\":4128:4241   */\n      iszero\n      tag_98\n      jumpi\n        /* \"#utility.yul\":4227:4228   */\n      dup1\n        /* \"#utility.yul\":4222:4225   */\n      dup3\n        /* \"#utility.yul\":4218:4229   */\n      add\n        /* \"#utility.yul\":4212:4230   */\n      mload\n        /* \"#utility.yul\":4208:4209   */\n      dup2\n        /* \"#utility.yul\":4203:4206   */\n      dup5\n        /* \"#utility.yul\":4199:4210   */\n      add\n        /* \"#utility.yul\":4192:4231   */\n      mstore\n        /* \"#utility.yul\":4164:4166   */\n      0x20\n        /* \"#utility.yul\":4161:4162   */\n      dup2\n        /* \"#utility.yul\":4157:4167   */\n      add\n        /* \"#utility.yul\":4152:4167   */\n      swap1\n      pop\n        /* \"#utility.yul\":4128:4241   */\n      jump(tag_96)\n    tag_98:\n        /* \"#utility.yul\":4275:4276   */\n      0x00\n        /* \"#utility.yul\":4266:4272   */\n      dup5\n        /* \"#utility.yul\":4261:4264   */\n      dup5\n        /* \"#utility.yul\":4257:4273   */\n      add\n        /* \"#utility.yul\":4250:4277   */\n      mstore\n        /* \"#utility.yul\":4099:4283   */\n      pop\n        /* \"#utility.yul\":4037:4283   */\n      pop\n      pop\n      pop\n      jump\t// out\n        /* \"#utility.yul\":4289:4391   */\n    tag_32:\n        /* \"#utility.yul\":4330:4336   */\n      0x00\n        /* \"#utility.yul\":4381:4383   */\n      0x1f\n        /* \"#utility.yul\":4377:4384   */\n      not\n        /* \"#utility.yul\":4372:4374   */\n      0x1f\n        /* \"#utility.yul\":4365:4370   */\n      dup4\n        /* \"#utility.yul\":4361:4375   */\n      add\n        /* \"#utility.yul\":4357:4385   */\n      and\n        /* \"#utility.yul\":4347:4385   */\n      swap1\n      pop\n        /* \"#utility.yul\":4289:4391   */\n      swap2\n      swap1\n      pop\n      jump\t// out\n        /* \"#utility.yul\":4397:4770   */\n    tag_33:\n        /* \"#utility.yul\":4483:4486   */\n      0x00\n        /* \"#utility.yul\":4511:4549   */\n      tag_101\n        /* \"#utility.yul\":4543:4548   */\n      dup3\n        /* \"#utility.yul\":4511:4549   */\n      tag_29\n      jump\t// in\n    tag_101:\n        /* \"#utility.yul\":4565:4635   */\n      tag_102\n        /* \"#utility.yul\":4628:4634   */\n      dup2\n        /* \"#utility.yul\":4623:4626   */\n      dup6\n        /* \"#utility.yul\":4565:4635   */\n      tag_30\n      jump\t// in\n    tag_102:\n        /* \"#utility.yul\":4558:4635   */\n      swap4\n      pop\n        /* \"#utility.yul\":4644:4709   */\n      tag_103\n        /* \"#utility.yul\":4702:4708   */\n      dup2\n        /* \"#utility.yul\":4697:4700   */\n      dup6\n        /* \"#utility.yul\":4690:4694   */\n      0x20\n        /* \"#utility.yul\":4683:4688   */\n      dup7\n        /* \"#utility.yul\":4679:4695   */\n      add\n        /* \"#utility.yul\":4644:4709   */\n      tag_31\n      jump\t// in\n    tag_103:\n        /* \"#utility.yul\":4734:4763   */\n      tag_104\n        /* \"#utility.yul\":4756:4762   */\n      dup2\n        /* \"#utility.yul\":4734:4763   */\n      tag_32\n      jump\t// in\n    tag_104:\n        /* \"#utility.yul\":4729:4732   */\n      dup5\n        /* \"#utility.yul\":4725:4764   */\n      add\n        /* \"#utility.yul\":4718:4764   */\n      swap2\n      pop\n        /* \"#utility.yul\":4487:4770   */\n      pop\n        /* \"#utility.yul\":4397:4770   */\n      swap3\n      swap2\n      pop\n      pop\n      jump\t// out\n        /* \"#utility.yul\":4776:5085   */\n    tag_9:\n        /* \"#utility.yul\":4887:4891   */\n      0x00\n        /* \"#utility.yul\":4925:4927   */\n      0x20\n        /* \"#utility.yul\":4914:4923   */\n      dup3\n        /* \"#utility.yul\":4910:4928   */\n      add\n        /* \"#utility.yul\":4902:4928   */\n      swap1\n      pop\n        /* \"#utility.yul\":4974:4983   */\n      dup2\n        /* \"#utility.yul\":4968:4972   */\n      dup2\n        /* \"#utility.yul\":4964:4984   */\n      sub\n        /* \"#utility.yul\":4960:4961   */\n      0x00\n        /* \"#utility.yul\":4949:4958   */\n      dup4\n        /* \"#utility.yul\":4945:4962   */\n      add\n        /* \"#utility.yul\":4938:4985   */\n      mstore\n        /* \"#utility.yul\":5002:5078   */\n      tag_106\n        /* \"#utility.yul\":5073:5077   */\n      dup2\n        /* \"#utility.yul\":5064:5070   */\n      dup5\n        /* \"#utility.yul\":5002:5078   */\n      tag_33\n      jump\t// in\n    tag_106:\n        /* \"#utility.yul\":4994:5078   */\n      swap1\n      pop\n        /* \"#utility.yul\":4776:5085   */\n      swap3\n      swap2\n      pop\n      pop\n      jump\t// out\n        /* \"#utility.yul\":5091:5209   */\n    tag_34:\n        /* \"#utility.yul\":5178:5202   */\n      tag_108\n        /* \"#utility.yul\":5196:5201   */\n      dup2\n        /* \"#utility.yul\":5178:5202   */\n      tag_16\n      jump\t// in\n    tag_108:\n        /* \"#utility.yul\":5173:5176   */\n      dup3\n        /* \"#utility.yul\":5166:5203   */\n      mstore\n        /* \"#utility.yul\":5091:5209   */\n      pop\n      pop\n      jump\t// out\n        /* \"#utility.yul\":5215:5333   */\n    tag_35:\n        /* \"#utility.yul\":5302:5326   */\n      tag_110\n        /* \"#utility.yul\":5320:5325   */\n      dup2\n        /* \"#utility.yul\":5302:5326   */\n      tag_20\n      jump\t// in\n    tag_110:\n        /* \"#utility.yul\":5297:5300   */\n      dup3\n        /* \"#utility.yul\":5290:5327   */\n      mstore\n        /* \"#utility.yul\":5215:5333   */\n      pop\n      pop\n      jump\t// out\n        /* \"#utility.yul\":5339:5523   */\n    tag_36:\n        /* \"#utility.yul\":5438:5449   */\n      0x00\n        /* \"#utility.yul\":5472:5478   */\n      dup3\n        /* \"#utility.yul\":5467:5470   */\n      dup3\n        /* \"#utility.yul\":5460:5479   */\n      mstore\n        /* \"#utility.yul\":5512:5516   */\n      0x20\n        /* \"#utility.yul\":5507:5510   */\n      dup3\n        /* \"#utility.yul\":5503:5517   */\n      add\n        /* \"#utility.yul\":5488:5517   */\n      swap1\n      pop\n        /* \"#utility.yul\":5339:5523   */\n      swap3\n      swap2\n      pop\n      pop\n      jump\t// out\n        /* \"#utility.yul\":5529:5646   */\n    tag_37:\n        /* \"#utility.yul\":5638:5639   */\n      0x00\n        /* \"#utility.yul\":5635:5636   */\n      dup1\n        /* \"#utility.yul\":5628:5640   */\n      revert\n        /* \"#utility.yul\":5652:5750   */\n    tag_38:\n        /* \"#utility.yul\":5736:5742   */\n      dup3\n        /* \"#utility.yul\":5731:5734   */\n      dup2\n        /* \"#utility.yul\":5726:5729   */\n      dup4\n        /* \"#utility.yul\":5713:5743   */\n      calldatacopy\n        /* \"#utility.yul\":5652:5750   */\n      pop\n      pop\n      pop\n      jump\t// out\n        /* \"#utility.yul\":5786:6323   */\n    tag_39:\n        /* \"#utility.yul\":5914:5917   */\n      0x00\n        /* \"#utility.yul\":5935:6021   */\n      tag_115\n        /* \"#utility.yul\":6014:6020   */\n      dup4\n        /* \"#utility.yul\":6009:6012   */\n      dup6\n        /* \"#utility.yul\":5935:6021   */\n      tag_36\n      jump\t// in\n    tag_115:\n        /* \"#utility.yul\":5928:6021   */\n      swap4\n      pop\n        /* \"#utility.yul\":6045:6111   */\n      0x07ffffffffffffffffffffffffffffffffffffffffffffffffffffffffffffff\n        /* \"#utility.yul\":6037:6043   */\n      dup4\n        /* \"#utility.yul\":6034:6112   */\n      gt\n        /* \"#utility.yul\":6031:6196   */\n      iszero\n      tag_116\n      jumpi\n        /* \"#utility.yul\":6115:6194   */\n      tag_117\n      tag_37\n      jump\t// in\n    tag_117:\n        /* \"#utility.yul\":6031:6196   */\n    tag_116:\n        /* \"#utility.yul\":6227:6231   */\n      0x20\n        /* \"#utility.yul\":6219:6225   */\n      dup4\n        /* \"#utility.yul\":6215:6232   */\n      mul\n        /* \"#utility.yul\":6205:6232   */\n      swap3\n      pop\n        /* \"#utility.yul\":6242:6285   */\n      tag_118\n        /* \"#utility.yul\":6278:6284   */\n      dup4\n        /* \"#utility.yul\":6273:6276   */\n      dup6\n        /* \"#utility.yul\":6266:6271   */\n      dup5\n        /* \"#utility.yul\":6242:6285   */\n      tag_38\n      jump\t// in\n    tag_118:\n        /* \"#utility.yul\":6310:6316   */\n      dup3\n        /* \"#utility.yul\":6305:6308   */\n      dup5\n        /* \"#utility.yul\":6301:6317   */\n      add\n        /* \"#utility.yul\":6294:6317   */\n      swap1\n      pop\n        /* \"#utility.yul\":5786:6323   */\n      swap4\n      swap3\n      pop\n      pop\n      pop\n      jump\t// out\n        /* \"#utility.yul\":6329:6446   */\n    tag_40:\n        /* \"#utility.yul\":6438:6439   */\n      0x00\n        /* \"#utility.yul\":6435:6436   */\n      dup1\n        /* \"#utility.yul\":6428:6440   */\n      revert\n        /* \"#utility.yul\":6452:6569   */\n    tag_41:\n        /* \"#utility.yul\":6561:6562   */\n      0x00\n        /* \"#utility.yul\":6558:6559   */\n      dup1\n        /* \"#utility.yul\":6551:6563   */\n      revert\n        /* \"#utility.yul\":6575:6692   */\n    tag_42:\n        /* \"#utility.yul\":6684:6685   */\n      0x00\n        /* \"#utility.yul\":6681:6682   */\n      dup1\n        /* \"#utility.yul\":6674:6686   */\n      revert\n        /* \"#utility.yul\":6698:7410   */\n    tag_43:\n        /* \"#utility.yul\":6763:6768   */\n      0x00\n        /* \"#utility.yul\":6770:6776   */\n      dup1\n        /* \"#utility.yul\":6826:6829   */\n      dup4\n        /* \"#utility.yul\":6813:6830   */\n      calldataload\n        /* \"#utility.yul\":6918:6919   */\n      0x01\n        /* \"#utility.yul\":6912:6916   */\n      0x20\n        /* \"#utility.yul\":6908:6920   */\n      sub\n        /* \"#utility.yul\":6897:6905   */\n      dup5\n        /* \"#utility.yul\":6881:6895   */\n      calldatasize\n        /* \"#utility.yul\":6877:6906   */\n      sub\n        /* \"#utility.yul\":6873:6921   */\n      sub\n        /* \"#utility.yul\":6853:6871   */\n      dup2\n        /* \"#utility.yul\":6849:6922   */\n      slt\n        /* \"#utility.yul\":6839:7007   */\n      tag_123\n      jumpi\n        /* \"#utility.yul\":6926:7005   */\n      tag_124\n      tag_42\n      jump\t// in\n    tag_124:\n        /* \"#utility.yul\":6839:7007   */\n    tag_123:\n        /* \"#utility.yul\":7049:7057   */\n      dup4\n        /* \"#utility.yul\":7029:7047   */\n      dup2\n        /* \"#utility.yul\":7025:7058   */\n      add\n        /* \"#utility.yul\":7016:7058   */\n      swap3\n      pop\n        /* \"#utility.yul\":7091:7096   */\n      dup3\n        /* \"#utility.yul\":7078:7097   */\n      calldataload\n        /* \"#utility.yul\":7068:7097   */\n      swap2\n      pop\n        /* \"#utility.yul\":7126:7130   */\n      0x20\n        /* \"#utility.yul\":7119:7124   */\n      dup4\n        /* \"#utility.yul\":7115:7131   */\n      add\n        /* \"#utility.yul\":7106:7131   */\n      swap3\n      pop\n        /* \"#utility.yul\":7154:7172   */\n      0xffffffffffffffff\n        /* \"#utility.yul\":7146:7152   */\n      dup3\n        /* \"#utility.yul\":7143:7173   */\n      gt\n        /* \"#utility.yul\":7140:7257   */\n      iszero\n      tag_125\n      jumpi\n        /* \"#utility.yul\":7176:7255   */\n      tag_126\n      tag_40\n      jump\t// in\n    tag_126:\n        /* \"#utility.yul\":7140:7257   */\n    tag_125:\n        /* \"#utility.yul\":7312:7316   */\n      0x01\n        /* \"#utility.yul\":7304:7310   */\n      dup3\n        /* \"#utility.yul\":7300:7317   */\n      mul\n        /* \"#utility.yul\":7284:7298   */\n      calldatasize\n        /* \"#utility.yul\":7280:7318   */\n      sub\n        /* \"#utility.yul\":7273:7278   */\n      dup4\n        /* \"#utility.yul\":7269:7319   */\n      sgt\n        /* \"#utility.yul\":7266:7403   */\n      iszero\n      tag_127\n      jumpi\n        /* \"#utility.yul\":7322:7401   */\n      tag_128\n      tag_41\n      jump\t// in\n    tag_128:\n        /* \"#utility.yul\":7266:7403   */\n    tag_127:\n        /* \"#utility.yul\":6777:7410   */\n      pop\n        /* \"#utility.yul\":6698:7410   */\n      swap3\n      pop\n      swap3\n      swap1\n      pop\n      jump\t// out\n        /* \"#utility.yul\":7416:7575   */\n    tag_44:\n        /* \"#utility.yul\":7490:7501   */\n      0x00\n        /* \"#utility.yul\":7524:7530   */\n      dup3\n        /* \"#utility.yul\":7519:7522   */\n      dup3\n        /* \"#utility.yul\":7512:7531   */\n      mstore\n        /* \"#utility.yul\":7564:7568   */\n      0x20\n        /* \"#utility.yul\":7559:7562   */\n      dup3\n        /* \"#utility.yul\":7555:7569   */\n      add\n        /* \"#utility.yul\":7540:7569   */\n      swap1\n      pop\n        /* \"#utility.yul\":7416:7575   */\n      swap3\n      swap2\n      pop\n      pop\n      jump\t// out\n        /* \"#utility.yul\":7581:7727   */\n    tag_45:\n        /* \"#utility.yul\":7678:7684   */\n      dup3\n        /* \"#utility.yul\":7673:7676   */\n      dup2\n        /* \"#utility.yul\":7668:7671   */\n      dup4\n        /* \"#utility.yul\":7655:7685   */\n      calldatacopy\n        /* \"#utility.yul\":7719:7720   */\n      0x00\n        /* \"#utility.yul\":7710:7716   */\n      dup4\n        /* \"#utility.yul\":7705:7708   */\n      dup4\n        /* \"#utility.yul\":7701:7717   */\n      add\n        /* \"#utility.yul\":7694:7721   */\n      mstore\n        /* \"#utility.yul\":7581:7727   */\n      pop\n      pop\n      pop\n      jump\t// out\n        /* \"#utility.yul\":7757:8054   */\n    tag_46:\n        /* \"#utility.yul\":7845:7848   */\n      0x00\n        /* \"#utility.yul\":7866:7927   */\n      tag_132\n        /* \"#utility.yul\":7920:7926   */\n      dup4\n        /* \"#utility.yul\":7915:7918   */\n      dup6\n        /* \"#utility.yul\":7866:7927   */\n      tag_44\n      jump\t// in\n    tag_132:\n        /* \"#utility.yul\":7859:7927   */\n      swap4\n      pop\n        /* \"#utility.yul\":7937:7993   */\n      tag_133\n        /* \"#utility.yul\":7986:7992   */\n      dup4\n        /* \"#utility.yul\":7981:7984   */\n      dup6\n        /* \"#utility.yul\":7974:7979   */\n      dup5\n        /* \"#utility.yul\":7937:7993   */\n      tag_45\n      jump\t// in\n    tag_133:\n        /* \"#utility.yul\":8018:8047   */\n      tag_134\n        /* \"#utility.yul\":8040:8046   */\n      dup4\n        /* \"#utility.yul\":8018:8047   */\n      tag_32\n      jump\t// in\n    tag_134:\n        /* \"#utility.yul\":8013:8016   */\n      dup5\n        /* \"#utility.yul\":8009:8048   */\n      add\n        /* \"#utility.yul\":8002:8048   */\n      swap1\n      pop\n        /* \"#utility.yul\":7757:8054   */\n      swap4\n      swap3\n      pop\n      pop\n      pop\n      jump\t// out\n        /* \"#utility.yul\":8060:8171   */\n    tag_47:\n        /* \"#utility.yul\":8137:8142   */\n      0x00\n        /* \"#utility.yul\":8162:8165   */\n      dup3\n        /* \"#utility.yul\":8153:8165   */\n      swap1\n      pop\n        /* \"#utility.yul\":8060:8171   */\n      swap3\n      swap2\n      pop\n      pop\n      jump\t// out\n        /* \"#utility.yul\":8209:8369   */\n    tag_48:\n        /* \"#utility.yul\":8322:8363   */\n      tag_137\n        /* \"#utility.yul\":8358:8362   */\n      0x40\n        /* \"#utility.yul\":8353:8356   */\n      dup4\n        /* \"#utility.yul\":8346:8351   */\n      dup4\n        /* \"#utility.yul\":8322:8363   */\n      tag_38\n      jump\t// in\n    tag_137:\n        /* \"#utility.yul\":8209:8369   */\n      pop\n      pop\n      jump\t// out\n        /* \"#utility.yul\":8437:9210   */\n    tag_49:\n        /* \"#utility.yul\":8554:8557   */\n      0x00\n        /* \"#utility.yul\":8590:8594   */\n      0x60\n        /* \"#utility.yul\":8585:8588   */\n      dup4\n        /* \"#utility.yul\":8581:8595   */\n      add\n        /* \"#utility.yul\":8674:8736   */\n      tag_139\n        /* \"#utility.yul\":8730:8734   */\n      0x00\n        /* \"#utility.yul\":8723:8728   */\n      dup5\n        /* \"#utility.yul\":8719:8735   */\n      add\n        /* \"#utility.yul\":8712:8717   */\n      dup5\n        /* \"#utility.yul\":8674:8736   */\n      tag_43\n      jump\t// in\n    tag_139:\n        /* \"#utility.yul\":8783:8786   */\n      dup6\n        /* \"#utility.yul\":8777:8781   */\n      dup4\n        /* \"#utility.yul\":8773:8787   */\n      sub\n        /* \"#utility.yul\":8766:8770   */\n      0x00\n        /* \"#utility.yul\":8761:8764   */\n      dup8\n        /* \"#utility.yul\":8757:8771   */\n      add\n        /* \"#utility.yul\":8750:8788   */\n      mstore\n        /* \"#utility.yul\":8809:8898   */\n      tag_140\n        /* \"#utility.yul\":8893:8897   */\n      dup4\n        /* \"#utility.yul\":8879:8891   */\n      dup3\n        /* \"#utility.yul\":8865:8877   */\n      dup5\n        /* \"#utility.yul\":8809:8898   */\n      tag_46\n      jump\t// in\n    tag_140:\n        /* \"#utility.yul\":8801:8898   */\n      swap3\n      pop\n        /* \"#utility.yul\":8605:8909   */\n      pop\n      pop\n        /* \"#utility.yul\":8974:9049   */\n      tag_141\n        /* \"#utility.yul\":9043:9047   */\n      0x20\n        /* \"#utility.yul\":9036:9041   */\n      dup5\n        /* \"#utility.yul\":9032:9048   */\n      add\n        /* \"#utility.yul\":9025:9030   */\n      dup5\n        /* \"#utility.yul\":8974:9049   */\n      tag_47\n      jump\t// in\n    tag_141:\n        /* \"#utility.yul\":9062:9173   */\n      tag_142\n        /* \"#utility.yul\":9167:9171   */\n      0x20\n        /* \"#utility.yul\":9162:9165   */\n      dup7\n        /* \"#utility.yul\":9158:9172   */\n      add\n        /* \"#utility.yul\":9144:9156   */\n      dup3\n        /* \"#utility.yul\":9062:9173   */\n      tag_48\n      jump\t// in\n    tag_142:\n        /* \"#utility.yul\":8919:9183   */\n      pop\n        /* \"#utility.yul\":9200:9204   */\n      dup1\n        /* \"#utility.yul\":9193:9204   */\n      swap2\n      pop\n        /* \"#utility.yul\":8559:9210   */\n      pop\n        /* \"#utility.yul\":8437:9210   */\n      swap3\n      swap2\n      pop\n      pop\n      jump\t// out\n        /* \"#utility.yul\":9216:10087   */\n    tag_12:\n        /* \"#utility.yul\":9501:9505   */\n      0x00\n        /* \"#utility.yul\":9539:9542   */\n      0x80\n        /* \"#utility.yul\":9528:9537   */\n      dup3\n        /* \"#utility.yul\":9524:9543   */\n      add\n        /* \"#utility.yul\":9516:9543   */\n      swap1\n      pop\n        /* \"#utility.yul\":9553:9624   */\n      tag_144\n        /* \"#utility.yul\":9621:9622   */\n      0x00\n        /* \"#utility.yul\":9610:9619   */\n      dup4\n        /* \"#utility.yul\":9606:9623   */\n      add\n        /* \"#utility.yul\":9597:9603   */\n      dup9\n        /* \"#utility.yul\":9553:9624   */\n      tag_34\n      jump\t// in\n    tag_144:\n        /* \"#utility.yul\":9634:9706   */\n      tag_145\n        /* \"#utility.yul\":9702:9704   */\n      0x20\n        /* \"#utility.yul\":9691:9700   */\n      dup4\n        /* \"#utility.yul\":9687:9705   */\n      add\n        /* \"#utility.yul\":9678:9684   */\n      dup8\n        /* \"#utility.yul\":9634:9706   */\n      tag_35\n      jump\t// in\n    tag_145:\n        /* \"#utility.yul\":9753:9762   */\n      dup2\n        /* \"#utility.yul\":9747:9751   */\n      dup2\n        /* \"#utility.yul\":9743:9763   */\n      sub\n        /* \"#utility.yul\":9738:9740   */\n      0x40\n        /* \"#utility.yul\":9727:9736   */\n      dup4\n        /* \"#utility.yul\":9723:9741   */\n      add\n        /* \"#utility.yul\":9716:9764   */\n      mstore\n        /* \"#utility.yul\":9781:9899   */\n      tag_146\n        /* \"#utility.yul\":9894:9898   */\n      dup2\n        /* \"#utility.yul\":9885:9891   */\n      dup6\n        /* \"#utility.yul\":9877:9883   */\n      dup8\n        /* \"#utility.yul\":9781:9899   */\n      tag_39\n      jump\t// in\n    tag_146:\n        /* \"#utility.yul\":9773:9899   */\n      swap1\n      pop\n        /* \"#utility.yul\":9946:9955   */\n      dup2\n        /* \"#utility.yul\":9940:9944   */\n      dup2\n        /* \"#utility.yul\":9936:9956   */\n      sub\n        /* \"#utility.yul\":9931:9933   */\n      0x60\n        /* \"#utility.yul\":9920:9929   */\n      dup4\n        /* \"#utility.yul\":9916:9934   */\n      add\n        /* \"#utility.yul\":9909:9957   */\n      mstore\n        /* \"#utility.yul\":9974:10080   */\n      tag_147\n        /* \"#utility.yul\":10075:10079   */\n      dup2\n        /* \"#utility.yul\":10066:10072   */\n      dup5\n        /* \"#utility.yul\":9974:10080   */\n      tag_49\n      jump\t// in\n    tag_147:\n        /* \"#utility.yul\":9966:10080   */\n      swap1\n      pop\n        /* \"#utility.yul\":9216:10087   */\n      swap7\n      swap6\n      pop\n      pop\n      pop\n      pop\n      pop\n      pop\n      jump\t// out\n\n    auxdata: 0xa2646970667358221220d4abe8a6de9f4846c1a291dd648520557f51ddbf9ec0380f301f25748f4974fc64736f6c63430008110033\n}\n",
				"bytecode": {
					"linkReferences": {},
					"object": "608060405234801561001057600080fd5b5061055f806100206000396000f3fe608060405234801561001057600080fd5b506004361061002b5760003560e01c80637049e08714610030575b600080fd5b61004a600480360381019061004591906101bc565b610060565b60405161005791906102f0565b60405180910390f35b6060858585858560405160200161007b9594939291906104d4565b604051602081830303815290604052905095945050505050565b600080fd5b600080fd5b6000819050919050565b6100b28161009f565b81146100bd57600080fd5b50565b6000813590506100cf816100a9565b92915050565b600073ffffffffffffffffffffffffffffffffffffffff82169050919050565b6000610100826100d5565b9050919050565b610110816100f5565b811461011b57600080fd5b50565b60008135905061012d81610107565b92915050565b600080fd5b600080fd5b600080fd5b60008083601f84011261015857610157610133565b5b8235905067ffffffffffffffff81111561017557610174610138565b5b6020830191508360208202830111156101915761019061013d565b5b9250929050565b600080fd5b6000606082840312156101b3576101b2610198565b5b81905092915050565b6000806000806000608086880312156101d8576101d7610095565b5b60006101e6888289016100c0565b95505060206101f78882890161011e565b945050604086013567ffffffffffffffff8111156102185761021761009a565b5b61022488828901610142565b9350935050606086013567ffffffffffffffff8111156102475761024661009a565b5b6102538882890161019d565b9150509295509295909350565b600081519050919050565b600082825260208201905092915050565b60005b8381101561029a57808201518184015260208101905061027f565b60008484015250505050565b6000601f19601f8301169050919050565b60006102c282610260565b6102cc818561026b565b93506102dc81856020860161027c565b6102e5816102a6565b840191505092915050565b6000602082019050818103600083015261030a81846102b7565b905092915050565b61031b8161009f565b82525050565b61032a816100f5565b82525050565b600082825260208201905092915050565b600080fd5b82818337505050565b600061035b8385610330565b93507f07ffffffffffffffffffffffffffffffffffffffffffffffffffffffffffffff83111561038e5761038d610341565b5b60208302925061039f838584610346565b82840190509392505050565b600080fd5b600080fd5b600080fd5b600080833560016020038436030381126103d7576103d66103b5565b5b83810192508235915060208301925067ffffffffffffffff8211156103ff576103fe6103ab565b5b600182023603831315610415576104146103b0565b5b509250929050565b600082825260208201905092915050565b82818337600083830152505050565b6000610449838561041d565b935061045683858461042e565b61045f836102a6565b840190509392505050565b600082905092915050565b61048160408383610346565b5050565b60006060830161049860008401846103ba565b85830360008701526104ab83828461043d565b925050506104bc602084018461046a565b6104c96020860182610475565b508091505092915050565b60006080820190506104e96000830188610312565b6104f66020830187610321565b818103604083015261050981858761034f565b9050818103606083015261051d8184610485565b9050969550505050505056fea2646970667358221220d4abe8a6de9f4846c1a291dd648520557f51ddbf9ec0380f301f25748f4974fc64736f6c63430008110033",
					"opcodes": "PUSH1 0x80 PUSH1 0x40 MSTORE CALLVALUE DUP1 ISZERO PUSH2 0x10 JUMPI PUSH1 0x0 DUP1 REVERT JUMPDEST POP PUSH2 0x55F DUP1 PUSH2 0x20 PUSH1 0x0 CODECOPY PUSH1 0x0 RETURN INVALID PUSH1 0x80 PUSH1 0x40 MSTORE CALLVALUE DUP1 ISZERO PUSH2 0x10 JUMPI PUSH1 0x0 DUP1 REVERT JUMPDEST POP PUSH1 0x4 CALLDATASIZE LT PUSH2 0x2B JUMPI PUSH1 0x0 CALLDATALOAD PUSH1 0xE0 SHR DUP1 PUSH4 0x7049E087 EQ PUSH2 0x30 JUMPI JUMPDEST PUSH1 0x0 DUP1 REVERT JUMPDEST PUSH2 0x4A PUSH1 0x4 DUP1 CALLDATASIZE SUB DUP2 ADD SWAP1 PUSH2 0x45 SWAP2 SWAP1 PUSH2 0x1BC JUMP JUMPDEST PUSH2 0x60 JUMP JUMPDEST PUSH1 0x40 MLOAD PUSH2 0x57 SWAP2 SWAP1 PUSH2 0x2F0 JUMP JUMPDEST PUSH1 0x40 MLOAD DUP1 SWAP2 SUB SWAP1 RETURN JUMPDEST PUSH1 0x60 DUP6 DUP6 DUP6 DUP6 DUP6 PUSH1 0x40 MLOAD PUSH1 0x20 ADD PUSH2 0x7B SWAP6 SWAP5 SWAP4 SWAP3 SWAP2 SWAP1 PUSH2 0x4D4 JUMP JUMPDEST PUSH1 0x40 MLOAD PUSH1 0x20 DUP2 DUP4 SUB SUB DUP2 MSTORE SWAP1 PUSH1 0x40 MSTORE SWAP1 POP SWAP6 SWAP5 POP POP POP POP POP JUMP JUMPDEST PUSH1 0x0 DUP1 REVERT JUMPDEST PUSH1 0x0 DUP1 REVERT JUMPDEST PUSH1 0x0 DUP2 SWAP1 POP SWAP2 SWAP1 POP JUMP JUMPDEST PUSH2 0xB2 DUP2 PUSH2 0x9F JUMP JUMPDEST DUP2 EQ PUSH2 0xBD JUMPI PUSH1 0x0 DUP1 REVERT JUMPDEST POP JUMP JUMPDEST PUSH1 0x0 DUP2 CALLDATALOAD SWAP1 POP PUSH2 0xCF DUP2 PUSH2 0xA9 JUMP JUMPDEST SWAP3 SWAP2 POP POP JUMP JUMPDEST PUSH1 0x0 PUSH20 0xFFFFFFFFFFFFFFFFFFFFFFFFFFFFFFFFFFFFFFFF DUP3 AND SWAP1 POP SWAP2 SWAP1 POP JUMP JUMPDEST PUSH1 0x0 PUSH2 0x100 DUP3 PUSH2 0xD5 JUMP JUMPDEST SWAP1 POP SWAP2 SWAP1 POP JUMP JUMPDEST PUSH2 0x110 DUP2 PUSH2 0xF5 JUMP JUMPDEST DUP2 EQ PUSH2 0x11B JUMPI PUSH1 0x0 DUP1 REVERT JUMPDEST POP JUMP JUMPDEST PUSH1 0x0 DUP2 CALLDATALOAD SWAP1 POP PUSH2 0x12D DUP2 PUSH2 0x107 JUMP JUMPDEST SWAP3 SWAP2 POP POP JUMP JUMPDEST PUSH1 0x0 DUP1 REVERT JUMPDEST PUSH1 0x0 DUP1 REVERT JUMPDEST PUSH1 0x0 DUP1 REVERT JUMPDEST PUSH1 0x0 DUP1 DUP4 PUSH1 0x1F DUP5 ADD SLT PUSH2 0x158 JUMPI PUSH2 0x157 PUSH2 0x133 JUMP JUMPDEST JUMPDEST DUP3 CALLDATALOAD SWAP1 POP PUSH8 0xFFFFFFFFFFFFFFFF DUP2 GT ISZERO PUSH2 0x175 JUMPI PUSH2 0x174 PUSH2 0x138 JUMP JUMPDEST JUMPDEST PUSH1 0x20 DUP4 ADD SWAP2 POP DUP4 PUSH1 0x20 DUP3 MUL DUP4 ADD GT ISZERO PUSH2 0x191 JUMPI PUSH2 0x190 PUSH2 0x13D JUMP JUMPDEST JUMPDEST SWAP3 POP SWAP3 SWAP1 POP JUMP JUMPDEST PUSH1 0x0 DUP1 REVERT JUMPDEST PUSH1 0x0 PUSH1 0x60 DUP3 DUP5 SUB SLT ISZERO PUSH2 0x1B3 JUMPI PUSH2 0x1B2 PUSH2 0x198 JUMP JUMPDEST JUMPDEST DUP2 SWAP1 POP SWAP3 SWAP2 POP POP JUMP JUMPDEST PUSH1 0x0 DUP1 PUSH1 0x0 DUP1 PUSH1 0x0 PUSH1 0x80 DUP7 DUP9 SUB SLT ISZERO PUSH2 0x1D8 JUMPI PUSH2 0x1D7 PUSH2 0x95 JUMP JUMPDEST JUMPDEST PUSH1 0x0 PUSH2 0x1E6 DUP9 DUP3 DUP10 ADD PUSH2 0xC0 JUMP JUMPDEST SWAP6 POP POP PUSH1 0x20 PUSH2 0x1F7 DUP9 DUP3 DUP10 ADD PUSH2 0x11E JUMP JUMPDEST SWAP5 POP POP PUSH1 0x40 DUP7 ADD CALLDATALOAD PUSH8 0xFFFFFFFFFFFFFFFF DUP2 GT ISZERO PUSH2 0x218 JUMPI PUSH2 0x217 PUSH2 0x9A JUMP JUMPDEST JUMPDEST PUSH2 0x224 DUP9 DUP3 DUP10 ADD PUSH2 0x142 JUMP JUMPDEST SWAP4 POP SWAP4 POP POP PUSH1 0x60 DUP7 ADD CALLDATALOAD PUSH8 0xFFFFFFFFFFFFFFFF DUP2 GT ISZERO PUSH2 0x247 JUMPI PUSH2 0x246 PUSH2 0x9A JUMP JUMPDEST JUMPDEST PUSH2 0x253 DUP9 DUP3 DUP10 ADD PUSH2 0x19D JUMP JUMPDEST SWAP2 POP POP SWAP3 SWAP6 POP SWAP3 SWAP6 SWAP1 SWAP4 POP JUMP JUMPDEST PUSH1 0x0 DUP2 MLOAD SWAP1 POP SWAP2 SWAP1 POP JUMP JUMPDEST PUSH1 0x0 DUP3 DUP3 MSTORE PUSH1 0x20 DUP3 ADD SWAP1 POP SWAP3 SWAP2 POP POP JUMP JUMPDEST PUSH1 0x0 JUMPDEST DUP4 DUP2 LT ISZERO PUSH2 0x29A JUMPI DUP1 DUP3 ADD MLOAD DUP2 DUP5 ADD MSTORE PUSH1 0x20 DUP2 ADD SWAP1 POP PUSH2 0x27F JUMP JUMPDEST PUSH1 0x0 DUP5 DUP5 ADD MSTORE POP POP POP POP JUMP JUMPDEST PUSH1 0x0 PUSH1 0x1F NOT PUSH1 0x1F DUP4 ADD AND SWAP1 POP SWAP2 SWAP1 POP JUMP JUMPDEST PUSH1 0x0 PUSH2 0x2C2 DUP3 PUSH2 0x260 JUMP JUMPDEST PUSH2 0x2CC DUP2 DUP6 PUSH2 0x26B JUMP JUMPDEST SWAP4 POP PUSH2 0x2DC DUP2 DUP6 PUSH1 0x20 DUP7 ADD PUSH2 0x27C JUMP JUMPDEST PUSH2 0x2E5 DUP2 PUSH2 0x2A6 JUMP JUMPDEST DUP5 ADD SWAP2 POP POP SWAP3 SWAP2 POP POP JUMP JUMPDEST PUSH1 0x0 PUSH1 0x20 DUP3 ADD SWAP1 POP DUP2 DUP2 SUB PUSH1 0x0 DUP4 ADD MSTORE PUSH2 0x30A DUP2 DUP5 PUSH2 0x2B7 JUMP JUMPDEST SWAP1 POP SWAP3 SWAP2 POP POP JUMP JUMPDEST PUSH2 0x31B DUP2 PUSH2 0x9F JUMP JUMPDEST DUP3 MSTORE POP POP JUMP JUMPDEST PUSH2 0x32A DUP2 PUSH2 0xF5 JUMP JUMPDEST DUP3 MSTORE POP POP JUMP JUMPDEST PUSH1 0x0 DUP3 DUP3 MSTORE PUSH1 0x20 DUP3 ADD SWAP1 POP SWAP3 SWAP2 POP POP JUMP JUMPDEST PUSH1 0x0 DUP1 REVERT JUMPDEST DUP3 DUP2 DUP4 CALLDATACOPY POP POP POP JUMP JUMPDEST PUSH1 0x0 PUSH2 0x35B DUP4 DUP6 PUSH2 0x330 JUMP JUMPDEST SWAP4 POP PUSH32 0x7FFFFFFFFFFFFFFFFFFFFFFFFFFFFFFFFFFFFFFFFFFFFFFFFFFFFFFFFFFFFFF DUP4 GT ISZERO PUSH2 0x38E JUMPI PUSH2 0x38D PUSH2 0x341 JUMP JUMPDEST JUMPDEST PUSH1 0x20 DUP4 MUL SWAP3 POP PUSH2 0x39F DUP4 DUP6 DUP5 PUSH2 0x346 JUMP JUMPDEST DUP3 DUP5 ADD SWAP1 POP SWAP4 SWAP3 POP POP POP JUMP JUMPDEST PUSH1 0x0 DUP1 REVERT JUMPDEST PUSH1 0x0 DUP1 REVERT JUMPDEST PUSH1 0x0 DUP1 REVERT JUMPDEST PUSH1 0x0 DUP1 DUP4 CALLDATALOAD PUSH1 0x1 PUSH1 0x20 SUB DUP5 CALLDATASIZE SUB SUB DUP2 SLT PUSH2 0x3D7 JUMPI PUSH2 0x3D6 PUSH2 0x3B5 JUMP JUMPDEST JUMPDEST DUP4 DUP2 ADD SWAP3 POP DUP3 CALLDATALOAD SWAP2 POP PUSH1 0x20 DUP4 ADD SWAP3 POP PUSH8 0xFFFFFFFFFFFFFFFF DUP3 GT ISZERO PUSH2 0x3FF JUMPI PUSH2 0x3FE PUSH2 0x3AB JUMP JUMPDEST JUMPDEST PUSH1 0x1 DUP3 MUL CALLDATASIZE SUB DUP4 SGT ISZERO PUSH2 0x415 JUMPI PUSH2 0x414 PUSH2 0x3B0 JUMP JUMPDEST JUMPDEST POP SWAP3 POP SWAP3 SWAP1 POP JUMP JUMPDEST PUSH1 0x0 DUP3 DUP3 MSTORE PUSH1 0x20 DUP3 ADD SWAP1 POP SWAP3 SWAP2 POP POP JUMP JUMPDEST DUP3 DUP2 DUP4 CALLDATACOPY PUSH1 0x0 DUP4 DUP4 ADD MSTORE POP POP POP JUMP JUMPDEST PUSH1 0x0 PUSH2 0x449 DUP4 DUP6 PUSH2 0x41D JUMP JUMPDEST SWAP4 POP PUSH2 0x456 DUP4 DUP6 DUP5 PUSH2 0x42E JUMP JUMPDEST PUSH2 0x45F DUP4 PUSH2 0x2A6 JUMP JUMPDEST DUP5 ADD SWAP1 POP SWAP4 SWAP3 POP POP POP JUMP JUMPDEST PUSH1 0x0 DUP3 SWAP1 POP SWAP3 SWAP2 POP POP JUMP JUMPDEST PUSH2 0x481 PUSH1 0x40 DUP4 DUP4 PUSH2 0x346 JUMP JUMPDEST POP POP JUMP JUMPDEST PUSH1 0x0 PUSH1 0x60 DUP4 ADD PUSH2 0x498 PUSH1 0x0 DUP5 ADD DUP5 PUSH2 0x3BA JUMP JUMPDEST DUP6 DUP4 SUB PUSH1 0x0 DUP8 ADD MSTORE PUSH2 0x4AB DUP4 DUP3 DUP5 PUSH2 0x43D JUMP JUMPDEST SWAP3 POP POP POP PUSH2 0x4BC PUSH1 0x20 DUP5 ADD DUP5 PUSH2 0x46A JUMP JUMPDEST PUSH2 0x4C9 PUSH1 0x20 DUP7 ADD DUP3 PUSH2 0x475 JUMP JUMPDEST POP DUP1 SWAP2 POP POP SWAP3 SWAP2 POP POP JUMP JUMPDEST PUSH1 0x0 PUSH1 0x80 DUP3 ADD SWAP1 POP PUSH2 0x4E9 PUSH1 0x0 DUP4 ADD DUP9 PUSH2 0x312 JUMP JUMPDEST PUSH2 0x4F6 PUSH1 0x20 DUP4 ADD DUP8 PUSH2 0x321 JUMP JUMPDEST DUP2 DUP2 SUB PUSH1 0x40 DUP4 ADD MSTORE PUSH2 0x509 DUP2 DUP6 DUP8 PUSH2 0x34F JUMP JUMPDEST SWAP1 POP DUP2 DUP2 SUB PUSH1 0x60 DUP4 ADD MSTORE PUSH2 0x51D DUP2 DUP5 PUSH2 0x485 JUMP JUMPDEST SWAP1 POP SWAP7 SWAP6 POP POP POP POP POP POP JUMP INVALID LOG2 PUSH5 0x6970667358 0x22 SLT KECCAK256 0xD4 0xAB 0xE8 0xA6 0xDE SWAP16 BASEFEE CHAINID 0xC1 LOG2 SWAP2 0xDD PUSH5 0x8520557F51 0xDD 0xBF SWAP15 0xC0 CODESIZE 0xF ADDRESS 0x1F 0x25 PUSH21 0x8F4974FC64736F6C63430008110033000000000000 "
				},
				"gasEstimates": {
					"creation": {
						"codeDepositCost": "275000",
						"executionCost": "312",
						"totalCost": "275312"
					},
					"external": {
						"encode(uint256,address,uint256[],(string,uint256[2]))": "infinite"
					}
				},
				"methodIdentifiers": {
					"encode(uint256,address,uint256[],(string,uint256[2]))": "7049e087"
				}
			},
			"storageLayout": {
				"storage": [],
				"types": null
			},
			"userdoc": {
				"kind": "user",
				"methods": {},
				"version": 1
			}
		}
	}
}