{
	"AbiDecode.sol": {
		"AbiDecode": {
			"abi": [
				{
					"inputs": [
						{
							"internalType": "bytes",
							"name": "data",
							"type": "bytes"
						}
					],
					"name": "decode",
					"outputs": [
						{
							"internalType": "uint256",
							"name": "x",
							"type": "uint256"
						},
						{
							"internalType": "address",
							"name": "addr",
							"type": "address"
						},
						{
							"internalType": "uint256",
							"name": "",
							"type": "uint256"
						}
					],
					"stateMutability": "pure",
					"type": "function"
				},
				{
					"inputs": [
						{
							"internalType": "uint256",
							"name": "x",
							"type": "uint256"
						},
						{
							"internalType": "address",
							"name": "addr",
							"type": "address"
						},
						{
							"internalType": "uint256[]",
							"name": "arr",
							"type": "uint256[]"
						},
						{
							"components": [
								{
									"internalType": "string",
									"name": "mame",
									"type": "string"
								},
								{
									"internalType": "uint256[2]",
									"name": "nums",
									"type": "uint256[2]"
								}
							],
							"internalType": "struct AbiDecode.Mystruct",
							"name": "myStruct",
							"type": "tuple"
						}
					],
					"name": "encode",
					"outputs": [
						{
							"internalType": "bytes",
							"name": "",
							"type": "bytes"
						}
					],
					"stateMutability": "pure",
					"type": "function"
				}
			],
			"devdoc": {
				"kind": "dev",
				"methods": {},
				"version": 1
			},
			"evm": {
				"assembly": "    /* \"AbiDecode.sol\":61:458  contract AbiDecode {... */\n  mstore(0x40, 0x80)\n  callvalue\n  dup1\n  iszero\n  tag_1\n  jumpi\n  0x00\n  dup1\n  revert\ntag_1:\n  pop\n  dataSize(sub_0)\n  dup1\n  dataOffset(sub_0)\n  0x00\n  codecopy\n  0x00\n  return\nstop\n\nsub_0: assembly {\n        /* \"AbiDecode.sol\":61:458  contract AbiDecode {... */\n      mstore(0x40, 0x80)\n      callvalue\n      dup1\n      iszero\n      tag_1\n      jumpi\n      0x00\n      dup1\n      revert\n    tag_1:\n      pop\n      jumpi(tag_2, lt(calldatasize, 0x04))\n      shr(0xe0, calldataload(0x00))\n      dup1\n      0x7049e087\n      eq\n      tag_3\n      jumpi\n      dup1\n      0xe5c5e9a3\n      eq\n      tag_4\n      jumpi\n    tag_2:\n      0x00\n      dup1\n      revert\n        /* \"AbiDecode.sol\":164:349  function encode (uint x, address addr, uint[] calldata arr, Mystruct calldata myStruct) external pure returns (bytes memory) {... */\n    tag_3:\n      tag_5\n      0x04\n      dup1\n      calldatasize\n      sub\n      dup2\n      add\n      swap1\n      tag_6\n      swap2\n      swap1\n      tag_7\n      jump\t// in\n    tag_6:\n      tag_8\n      jump\t// in\n    tag_5:\n      mload(0x40)\n      tag_9\n      swap2\n      swap1\n      tag_10\n      jump\t// in\n    tag_9:\n      mload(0x40)\n      dup1\n      swap2\n      sub\n      swap1\n      return\n        /* \"AbiDecode.sol\":357:455  function decode(bytes calldata data) external pure returns (uint x, address addr, uint) {... */\n    tag_4:\n      tag_11\n      0x04\n      dup1\n      calldatasize\n      sub\n      dup2\n      add\n      swap1\n      tag_12\n      swap2\n      swap1\n      tag_13\n      jump\t// in\n    tag_12:\n      tag_14\n      jump\t// in\n    tag_11:\n      mload(0x40)\n      tag_15\n      swap4\n      swap3\n      swap2\n      swap1\n      tag_16\n      jump\t// in\n    tag_15:\n      mload(0x40)\n      dup1\n      swap2\n      sub\n      swap1\n      return\n        /* \"AbiDecode.sol\":164:349  function encode (uint x, address addr, uint[] calldata arr, Mystruct calldata myStruct) external pure returns (bytes memory) {... */\n    tag_8:\n        /* \"AbiDecode.sol\":275:287  bytes memory */\n      0x60\n        /* \"AbiDecode.sol\":318:319  x */\n      dup6\n        /* \"AbiDecode.sol\":321:325  addr */\n      dup6\n        /* \"AbiDecode.sol\":327:330  arr */\n      dup6\n      dup6\n        /* \"AbiDecode.sol\":332:340  myStruct */\n      dup6\n        /* \"AbiDecode.sol\":307:341  abi.encode(x, addr, arr, myStruct) */\n      add(0x20, mload(0x40))\n      tag_18\n      swap6\n      swap5\n      swap4\n      swap3\n      swap2\n      swap1\n      tag_19\n      jump\t// in\n    tag_18:\n      mload(0x40)\n      0x20\n      dup2\n      dup4\n      sub\n      sub\n      dup2\n      mstore\n      swap1\n      0x40\n      mstore\n        /* \"AbiDecode.sol\":300:341  return abi.encode(x, addr, arr, myStruct) */\n      swap1\n      pop\n        /* \"AbiDecode.sol\":164:349  function encode (uint x, address addr, uint[] calldata arr, Mystruct calldata myStruct) external pure returns (bytes memory) {... */\n      swap6\n      swap5\n      pop\n      pop\n      pop\n      pop\n      pop\n      jump\t// out\n        /* \"AbiDecode.sol\":357:455  function decode(bytes calldata data) external pure returns (uint x, address addr, uint) {... */\n    tag_14:\n        /* \"AbiDecode.sol\":417:423  uint x */\n      0x00\n        /* \"AbiDecode.sol\":425:437  address addr */\n      dup1\n        /* \"AbiDecode.sol\":439:443  uint */\n      0x00\n        /* \"AbiDecode.sol\":357:455  function decode(bytes calldata data) external pure returns (uint x, address addr, uint) {... */\n      swap3\n      pop\n      swap3\n      pop\n      swap3\n      jump\t// out\n        /* \"#utility.yul\":88:205   */\n    tag_22:\n        /* \"#utility.yul\":197:198   */\n      0x00\n        /* \"#utility.yul\":194:195   */\n      dup1\n        /* \"#utility.yul\":187:199   */\n      revert\n        /* \"#utility.yul\":211:328   */\n    tag_23:\n        /* \"#utility.yul\":320:321   */\n      0x00\n        /* \"#utility.yul\":317:318   */\n      dup1\n        /* \"#utility.yul\":310:322   */\n      revert\n        /* \"#utility.yul\":334:411   */\n    tag_24:\n        /* \"#utility.yul\":371:378   */\n      0x00\n        /* \"#utility.yul\":400:405   */\n      dup2\n        /* \"#utility.yul\":389:405   */\n      swap1\n      pop\n        /* \"#utility.yul\":334:411   */\n      swap2\n      swap1\n      pop\n      jump\t// out\n        /* \"#utility.yul\":417:539   */\n    tag_25:\n        /* \"#utility.yul\":490:514   */\n      tag_65\n        /* \"#utility.yul\":508:513   */\n      dup2\n        /* \"#utility.yul\":490:514   */\n      tag_24\n      jump\t// in\n    tag_65:\n        /* \"#utility.yul\":483:488   */\n      dup2\n        /* \"#utility.yul\":480:515   */\n      eq\n        /* \"#utility.yul\":470:533   */\n      tag_66\n      jumpi\n        /* \"#utility.yul\":529:530   */\n      0x00\n        /* \"#utility.yul\":526:527   */\n      dup1\n        /* \"#utility.yul\":519:531   */\n      revert\n        /* \"#utility.yul\":470:533   */\n    tag_66:\n        /* \"#utility.yul\":417:539   */\n      pop\n      jump\t// out\n        /* \"#utility.yul\":545:684   */\n    tag_26:\n        /* \"#utility.yul\":591:596   */\n      0x00\n        /* \"#utility.yul\":629:635   */\n      dup2\n        /* \"#utility.yul\":616:636   */\n      calldataload\n        /* \"#utility.yul\":607:636   */\n      swap1\n      pop\n        /* \"#utility.yul\":645:678   */\n      tag_68\n        /* \"#utility.yul\":672:677   */\n      dup2\n        /* \"#utility.yul\":645:678   */\n      tag_25\n      jump\t// in\n    tag_68:\n        /* \"#utility.yul\":545:684   */\n      swap3\n      swap2\n      pop\n      pop\n      jump\t// out\n        /* \"#utility.yul\":690:816   */\n    tag_27:\n        /* \"#utility.yul\":727:734   */\n      0x00\n        /* \"#utility.yul\":767:809   */\n      0xffffffffffffffffffffffffffffffffffffffff\n        /* \"#utility.yul\":760:765   */\n      dup3\n        /* \"#utility.yul\":756:810   */\n      and\n        /* \"#utility.yul\":745:810   */\n      swap1\n      pop\n        /* \"#utility.yul\":690:816   */\n      swap2\n      swap1\n      pop\n      jump\t// out\n        /* \"#utility.yul\":822:918   */\n    tag_28:\n        /* \"#utility.yul\":859:866   */\n      0x00\n        /* \"#utility.yul\":888:912   */\n      tag_71\n        /* \"#utility.yul\":906:911   */\n      dup3\n        /* \"#utility.yul\":888:912   */\n      tag_27\n      jump\t// in\n    tag_71:\n        /* \"#utility.yul\":877:912   */\n      swap1\n      pop\n        /* \"#utility.yul\":822:918   */\n      swap2\n      swap1\n      pop\n      jump\t// out\n        /* \"#utility.yul\":924:1046   */\n    tag_29:\n        /* \"#utility.yul\":997:1021   */\n      tag_73\n        /* \"#utility.yul\":1015:1020   */\n      dup2\n        /* \"#utility.yul\":997:1021   */\n      tag_28\n      jump\t// in\n    tag_73:\n        /* \"#utility.yul\":990:995   */\n      dup2\n        /* \"#utility.yul\":987:1022   */\n      eq\n        /* \"#utility.yul\":977:1040   */\n      tag_74\n      jumpi\n        /* \"#utility.yul\":1036:1037   */\n      0x00\n        /* \"#utility.yul\":1033:1034   */\n      dup1\n        /* \"#utility.yul\":1026:1038   */\n      revert\n        /* \"#utility.yul\":977:1040   */\n    tag_74:\n        /* \"#utility.yul\":924:1046   */\n      pop\n      jump\t// out\n        /* \"#utility.yul\":1052:1191   */\n    tag_30:\n        /* \"#utility.yul\":1098:1103   */\n      0x00\n        /* \"#utility.yul\":1136:1142   */\n      dup2\n        /* \"#utility.yul\":1123:1143   */\n      calldataload\n        /* \"#utility.yul\":1114:1143   */\n      swap1\n      pop\n        /* \"#utility.yul\":1152:1185   */\n      tag_76\n        /* \"#utility.yul\":1179:1184   */\n      dup2\n        /* \"#utility.yul\":1152:1185   */\n      tag_29\n      jump\t// in\n    tag_76:\n        /* \"#utility.yul\":1052:1191   */\n      swap3\n      swap2\n      pop\n      pop\n      jump\t// out\n        /* \"#utility.yul\":1197:1314   */\n    tag_31:\n        /* \"#utility.yul\":1306:1307   */\n      0x00\n        /* \"#utility.yul\":1303:1304   */\n      dup1\n        /* \"#utility.yul\":1296:1308   */\n      revert\n        /* \"#utility.yul\":1320:1437   */\n    tag_32:\n        /* \"#utility.yul\":1429:1430   */\n      0x00\n        /* \"#utility.yul\":1426:1427   */\n      dup1\n        /* \"#utility.yul\":1419:1431   */\n      revert\n        /* \"#utility.yul\":1443:1560   */\n    tag_33:\n        /* \"#utility.yul\":1552:1553   */\n      0x00\n        /* \"#utility.yul\":1549:1550   */\n      dup1\n        /* \"#utility.yul\":1542:1554   */\n      revert\n        /* \"#utility.yul\":1583:2151   */\n    tag_34:\n        /* \"#utility.yul\":1656:1664   */\n      0x00\n        /* \"#utility.yul\":1666:1672   */\n      dup1\n        /* \"#utility.yul\":1716:1719   */\n      dup4\n        /* \"#utility.yul\":1709:1713   */\n      0x1f\n        /* \"#utility.yul\":1701:1707   */\n      dup5\n        /* \"#utility.yul\":1697:1714   */\n      add\n        /* \"#utility.yul\":1693:1720   */\n      slt\n        /* \"#utility.yul\":1683:1805   */\n      tag_81\n      jumpi\n        /* \"#utility.yul\":1724:1803   */\n      tag_82\n      tag_31\n      jump\t// in\n    tag_82:\n        /* \"#utility.yul\":1683:1805   */\n    tag_81:\n        /* \"#utility.yul\":1837:1843   */\n      dup3\n        /* \"#utility.yul\":1824:1844   */\n      calldataload\n        /* \"#utility.yul\":1814:1844   */\n      swap1\n      pop\n        /* \"#utility.yul\":1867:1885   */\n      0xffffffffffffffff\n        /* \"#utility.yul\":1859:1865   */\n      dup2\n        /* \"#utility.yul\":1856:1886   */\n      gt\n        /* \"#utility.yul\":1853:1970   */\n      iszero\n      tag_83\n      jumpi\n        /* \"#utility.yul\":1889:1968   */\n      tag_84\n      tag_32\n      jump\t// in\n    tag_84:\n        /* \"#utility.yul\":1853:1970   */\n    tag_83:\n        /* \"#utility.yul\":2003:2007   */\n      0x20\n        /* \"#utility.yul\":1995:2001   */\n      dup4\n        /* \"#utility.yul\":1991:2008   */\n      add\n        /* \"#utility.yul\":1979:2008   */\n      swap2\n      pop\n        /* \"#utility.yul\":2057:2060   */\n      dup4\n        /* \"#utility.yul\":2049:2053   */\n      0x20\n        /* \"#utility.yul\":2041:2047   */\n      dup3\n        /* \"#utility.yul\":2037:2054   */\n      mul\n        /* \"#utility.yul\":2027:2035   */\n      dup4\n        /* \"#utility.yul\":2023:2055   */\n      add\n        /* \"#utility.yul\":2020:2061   */\n      gt\n        /* \"#utility.yul\":2017:2145   */\n      iszero\n      tag_85\n      jumpi\n        /* \"#utility.yul\":2064:2143   */\n      tag_86\n      tag_33\n      jump\t// in\n    tag_86:\n        /* \"#utility.yul\":2017:2145   */\n    tag_85:\n        /* \"#utility.yul\":1583:2151   */\n      swap3\n      pop\n      swap3\n      swap1\n      pop\n      jump\t// out\n        /* \"#utility.yul\":2157:2274   */\n    tag_35:\n        /* \"#utility.yul\":2266:2267   */\n      0x00\n        /* \"#utility.yul\":2263:2264   */\n      dup1\n        /* \"#utility.yul\":2256:2268   */\n      revert\n        /* \"#utility.yul\":2313:2542   */\n    tag_36:\n        /* \"#utility.yul\":2384:2389   */\n      0x00\n        /* \"#utility.yul\":2425:2427   */\n      0x60\n        /* \"#utility.yul\":2416:2422   */\n      dup3\n        /* \"#utility.yul\":2411:2414   */\n      dup5\n        /* \"#utility.yul\":2407:2423   */\n      sub\n        /* \"#utility.yul\":2403:2428   */\n      slt\n        /* \"#utility.yul\":2400:2512   */\n      iszero\n      tag_89\n      jumpi\n        /* \"#utility.yul\":2431:2510   */\n      tag_90\n      tag_35\n      jump\t// in\n    tag_90:\n        /* \"#utility.yul\":2400:2512   */\n    tag_89:\n        /* \"#utility.yul\":2530:2536   */\n      dup2\n        /* \"#utility.yul\":2521:2536   */\n      swap1\n      pop\n        /* \"#utility.yul\":2313:2542   */\n      swap3\n      swap2\n      pop\n      pop\n      jump\t// out\n        /* \"#utility.yul\":2548:3753   */\n    tag_7:\n        /* \"#utility.yul\":2686:2692   */\n      0x00\n        /* \"#utility.yul\":2694:2700   */\n      dup1\n        /* \"#utility.yul\":2702:2708   */\n      0x00\n        /* \"#utility.yul\":2710:2716   */\n      dup1\n        /* \"#utility.yul\":2718:2724   */\n      0x00\n        /* \"#utility.yul\":2767:2770   */\n      0x80\n        /* \"#utility.yul\":2755:2764   */\n      dup7\n        /* \"#utility.yul\":2746:2753   */\n      dup9\n        /* \"#utility.yul\":2742:2765   */\n      sub\n        /* \"#utility.yul\":2738:2771   */\n      slt\n        /* \"#utility.yul\":2735:2855   */\n      iszero\n      tag_92\n      jumpi\n        /* \"#utility.yul\":2774:2853   */\n      tag_93\n      tag_22\n      jump\t// in\n    tag_93:\n        /* \"#utility.yul\":2735:2855   */\n    tag_92:\n        /* \"#utility.yul\":2894:2895   */\n      0x00\n        /* \"#utility.yul\":2919:2972   */\n      tag_94\n        /* \"#utility.yul\":2964:2971   */\n      dup9\n        /* \"#utility.yul\":2955:2961   */\n      dup3\n        /* \"#utility.yul\":2944:2953   */\n      dup10\n        /* \"#utility.yul\":2940:2962   */\n      add\n        /* \"#utility.yul\":2919:2972   */\n      tag_26\n      jump\t// in\n    tag_94:\n        /* \"#utility.yul\":2909:2972   */\n      swap6\n      pop\n        /* \"#utility.yul\":2865:2982   */\n      pop\n        /* \"#utility.yul\":3021:3023   */\n      0x20\n        /* \"#utility.yul\":3047:3100   */\n      tag_95\n        /* \"#utility.yul\":3092:3099   */\n      dup9\n        /* \"#utility.yul\":3083:3089   */\n      dup3\n        /* \"#utility.yul\":3072:3081   */\n      dup10\n        /* \"#utility.yul\":3068:3090   */\n      add\n        /* \"#utility.yul\":3047:3100   */\n      tag_30\n      jump\t// in\n    tag_95:\n        /* \"#utility.yul\":3037:3100   */\n      swap5\n      pop\n        /* \"#utility.yul\":2992:3110   */\n      pop\n        /* \"#utility.yul\":3177:3179   */\n      0x40\n        /* \"#utility.yul\":3166:3175   */\n      dup7\n        /* \"#utility.yul\":3162:3180   */\n      add\n        /* \"#utility.yul\":3149:3181   */\n      calldataload\n        /* \"#utility.yul\":3208:3226   */\n      0xffffffffffffffff\n        /* \"#utility.yul\":3200:3206   */\n      dup2\n        /* \"#utility.yul\":3197:3227   */\n      gt\n        /* \"#utility.yul\":3194:3311   */\n      iszero\n      tag_96\n      jumpi\n        /* \"#utility.yul\":3230:3309   */\n      tag_97\n      tag_23\n      jump\t// in\n    tag_97:\n        /* \"#utility.yul\":3194:3311   */\n    tag_96:\n        /* \"#utility.yul\":3343:3423   */\n      tag_98\n        /* \"#utility.yul\":3415:3422   */\n      dup9\n        /* \"#utility.yul\":3406:3412   */\n      dup3\n        /* \"#utility.yul\":3395:3404   */\n      dup10\n        /* \"#utility.yul\":3391:3413   */\n      add\n        /* \"#utility.yul\":3343:3423   */\n      tag_34\n      jump\t// in\n    tag_98:\n        /* \"#utility.yul\":3325:3423   */\n      swap4\n      pop\n      swap4\n      pop\n        /* \"#utility.yul\":3120:3433   */\n      pop\n        /* \"#utility.yul\":3500:3502   */\n      0x60\n        /* \"#utility.yul\":3489:3498   */\n      dup7\n        /* \"#utility.yul\":3485:3503   */\n      add\n        /* \"#utility.yul\":3472:3504   */\n      calldataload\n        /* \"#utility.yul\":3531:3549   */\n      0xffffffffffffffff\n        /* \"#utility.yul\":3523:3529   */\n      dup2\n        /* \"#utility.yul\":3520:3550   */\n      gt\n        /* \"#utility.yul\":3517:3634   */\n      iszero\n      tag_99\n      jumpi\n        /* \"#utility.yul\":3553:3632   */\n      tag_100\n      tag_23\n      jump\t// in\n    tag_100:\n        /* \"#utility.yul\":3517:3634   */\n    tag_99:\n        /* \"#utility.yul\":3658:3736   */\n      tag_101\n        /* \"#utility.yul\":3728:3735   */\n      dup9\n        /* \"#utility.yul\":3719:3725   */\n      dup3\n        /* \"#utility.yul\":3708:3717   */\n      dup10\n        /* \"#utility.yul\":3704:3726   */\n      add\n        /* \"#utility.yul\":3658:3736   */\n      tag_36\n      jump\t// in\n    tag_101:\n        /* \"#utility.yul\":3648:3736   */\n      swap2\n      pop\n        /* \"#utility.yul\":3443:3746   */\n      pop\n        /* \"#utility.yul\":2548:3753   */\n      swap3\n      swap6\n      pop\n      swap3\n      swap6\n      swap1\n      swap4\n      pop\n      jump\t// out\n        /* \"#utility.yul\":3759:3857   */\n    tag_37:\n        /* \"#utility.yul\":3810:3816   */\n      0x00\n        /* \"#utility.yul\":3844:3849   */\n      dup2\n        /* \"#utility.yul\":3838:3850   */\n      mload\n        /* \"#utility.yul\":3828:3850   */\n      swap1\n      pop\n        /* \"#utility.yul\":3759:3857   */\n      swap2\n      swap1\n      pop\n      jump\t// out\n        /* \"#utility.yul\":3863:4031   */\n    tag_38:\n        /* \"#utility.yul\":3946:3957   */\n      0x00\n        /* \"#utility.yul\":3980:3986   */\n      dup3\n        /* \"#utility.yul\":3975:3978   */\n      dup3\n        /* \"#utility.yul\":3968:3987   */\n      mstore\n        /* \"#utility.yul\":4020:4024   */\n      0x20\n        /* \"#utility.yul\":4015:4018   */\n      dup3\n        /* \"#utility.yul\":4011:4025   */\n      add\n        /* \"#utility.yul\":3996:4025   */\n      swap1\n      pop\n        /* \"#utility.yul\":3863:4031   */\n      swap3\n      swap2\n      pop\n      pop\n      jump\t// out\n        /* \"#utility.yul\":4037:4283   */\n    tag_39:\n        /* \"#utility.yul\":4118:4119   */\n      0x00\n        /* \"#utility.yul\":4128:4241   */\n    tag_105:\n        /* \"#utility.yul\":4142:4148   */\n      dup4\n        /* \"#utility.yul\":4139:4140   */\n      dup2\n        /* \"#utility.yul\":4136:4149   */\n      lt\n        /* \"#utility.yul\":4128:4241   */\n      iszero\n      tag_107\n      jumpi\n        /* \"#utility.yul\":4227:4228   */\n      dup1\n        /* \"#utility.yul\":4222:4225   */\n      dup3\n        /* \"#utility.yul\":4218:4229   */\n      add\n        /* \"#utility.yul\":4212:4230   */\n      mload\n        /* \"#utility.yul\":4208:4209   */\n      dup2\n        /* \"#utility.yul\":4203:4206   */\n      dup5\n        /* \"#utility.yul\":4199:4210   */\n      add\n        /* \"#utility.yul\":4192:4231   */\n      mstore\n        /* \"#utility.yul\":4164:4166   */\n      0x20\n        /* \"#utility.yul\":4161:4162   */\n      dup2\n        /* \"#utility.yul\":4157:4167   */\n      add\n        /* \"#utility.yul\":4152:4167   */\n      swap1\n      pop\n        /* \"#utility.yul\":4128:4241   */\n      jump(tag_105)\n    tag_107:\n        /* \"#utility.yul\":4275:4276   */\n      0x00\n        /* \"#utility.yul\":4266:4272   */\n      dup5\n        /* \"#utility.yul\":4261:4264   */\n      dup5\n        /* \"#utility.yul\":4257:4273   */\n      add\n        /* \"#utility.yul\":4250:4277   */\n      mstore\n        /* \"#utility.yul\":4099:4283   */\n      pop\n        /* \"#utility.yul\":4037:4283   */\n      pop\n      pop\n      pop\n      jump\t// out\n        /* \"#utility.yul\":4289:4391   */\n    tag_40:\n        /* \"#utility.yul\":4330:4336   */\n      0x00\n        /* \"#utility.yul\":4381:4383   */\n      0x1f\n        /* \"#utility.yul\":4377:4384   */\n      not\n        /* \"#utility.yul\":4372:4374   */\n      0x1f\n        /* \"#utility.yul\":4365:4370   */\n      dup4\n        /* \"#utility.yul\":4361:4375   */\n      add\n        /* \"#utility.yul\":4357:4385   */\n      and\n        /* \"#utility.yul\":4347:4385   */\n      swap1\n      pop\n        /* \"#utility.yul\":4289:4391   */\n      swap2\n      swap1\n      pop\n      jump\t// out\n        /* \"#utility.yul\":4397:4770   */\n    tag_41:\n        /* \"#utility.yul\":4483:4486   */\n      0x00\n        /* \"#utility.yul\":4511:4549   */\n      tag_110\n        /* \"#utility.yul\":4543:4548   */\n      dup3\n        /* \"#utility.yul\":4511:4549   */\n      tag_37\n      jump\t// in\n    tag_110:\n        /* \"#utility.yul\":4565:4635   */\n      tag_111\n        /* \"#utility.yul\":4628:4634   */\n      dup2\n        /* \"#utility.yul\":4623:4626   */\n      dup6\n        /* \"#utility.yul\":4565:4635   */\n      tag_38\n      jump\t// in\n    tag_111:\n        /* \"#utility.yul\":4558:4635   */\n      swap4\n      pop\n        /* \"#utility.yul\":4644:4709   */\n      tag_112\n        /* \"#utility.yul\":4702:4708   */\n      dup2\n        /* \"#utility.yul\":4697:4700   */\n      dup6\n        /* \"#utility.yul\":4690:4694   */\n      0x20\n        /* \"#utility.yul\":4683:4688   */\n      dup7\n        /* \"#utility.yul\":4679:4695   */\n      add\n        /* \"#utility.yul\":4644:4709   */\n      tag_39\n      jump\t// in\n    tag_112:\n        /* \"#utility.yul\":4734:4763   */\n      tag_113\n        /* \"#utility.yul\":4756:4762   */\n      dup2\n        /* \"#utility.yul\":4734:4763   */\n      tag_40\n      jump\t// in\n    tag_113:\n        /* \"#utility.yul\":4729:4732   */\n      dup5\n        /* \"#utility.yul\":4725:4764   */\n      add\n        /* \"#utility.yul\":4718:4764   */\n      swap2\n      pop\n        /* \"#utility.yul\":4487:4770   */\n      pop\n        /* \"#utility.yul\":4397:4770   */\n      swap3\n      swap2\n      pop\n      pop\n      jump\t// out\n        /* \"#utility.yul\":4776:5085   */\n    tag_10:\n        /* \"#utility.yul\":4887:4891   */\n      0x00\n        /* \"#utility.yul\":4925:4927   */\n      0x20\n        /* \"#utility.yul\":4914:4923   */\n      dup3\n        /* \"#utility.yul\":4910:4928   */\n      add\n        /* \"#utility.yul\":4902:4928   */\n      swap1\n      pop\n        /* \"#utility.yul\":4974:4983   */\n      dup2\n        /* \"#utility.yul\":4968:4972   */\n      dup2\n        /* \"#utility.yul\":4964:4984   */\n      sub\n        /* \"#utility.yul\":4960:4961   */\n      0x00\n        /* \"#utility.yul\":4949:4958   */\n      dup4\n        /* \"#utility.yul\":4945:4962   */\n      add\n        /* \"#utility.yul\":4938:4985   */\n      mstore\n        /* \"#utility.yul\":5002:5078   */\n      tag_115\n        /* \"#utility.yul\":5073:5077   */\n      dup2\n        /* \"#utility.yul\":5064:5070   */\n      dup5\n        /* \"#utility.yul\":5002:5078   */\n      tag_41\n      jump\t// in\n    tag_115:\n        /* \"#utility.yul\":4994:5078   */\n      swap1\n      pop\n        /* \"#utility.yul\":4776:5085   */\n      swap3\n      swap2\n      pop\n      pop\n      jump\t// out\n        /* \"#utility.yul\":5104:5656   */\n    tag_42:\n        /* \"#utility.yul\":5161:5169   */\n      0x00\n        /* \"#utility.yul\":5171:5177   */\n      dup1\n        /* \"#utility.yul\":5221:5224   */\n      dup4\n        /* \"#utility.yul\":5214:5218   */\n      0x1f\n        /* \"#utility.yul\":5206:5212   */\n      dup5\n        /* \"#utility.yul\":5202:5219   */\n      add\n        /* \"#utility.yul\":5198:5225   */\n      slt\n        /* \"#utility.yul\":5188:5310   */\n      tag_117\n      jumpi\n        /* \"#utility.yul\":5229:5308   */\n      tag_118\n      tag_31\n      jump\t// in\n    tag_118:\n        /* \"#utility.yul\":5188:5310   */\n    tag_117:\n        /* \"#utility.yul\":5342:5348   */\n      dup3\n        /* \"#utility.yul\":5329:5349   */\n      calldataload\n        /* \"#utility.yul\":5319:5349   */\n      swap1\n      pop\n        /* \"#utility.yul\":5372:5390   */\n      0xffffffffffffffff\n        /* \"#utility.yul\":5364:5370   */\n      dup2\n        /* \"#utility.yul\":5361:5391   */\n      gt\n        /* \"#utility.yul\":5358:5475   */\n      iszero\n      tag_119\n      jumpi\n        /* \"#utility.yul\":5394:5473   */\n      tag_120\n      tag_32\n      jump\t// in\n    tag_120:\n        /* \"#utility.yul\":5358:5475   */\n    tag_119:\n        /* \"#utility.yul\":5508:5512   */\n      0x20\n        /* \"#utility.yul\":5500:5506   */\n      dup4\n        /* \"#utility.yul\":5496:5513   */\n      add\n        /* \"#utility.yul\":5484:5513   */\n      swap2\n      pop\n        /* \"#utility.yul\":5562:5565   */\n      dup4\n        /* \"#utility.yul\":5554:5558   */\n      0x01\n        /* \"#utility.yul\":5546:5552   */\n      dup3\n        /* \"#utility.yul\":5542:5559   */\n      mul\n        /* \"#utility.yul\":5532:5540   */\n      dup4\n        /* \"#utility.yul\":5528:5560   */\n      add\n        /* \"#utility.yul\":5525:5566   */\n      gt\n        /* \"#utility.yul\":5522:5650   */\n      iszero\n      tag_121\n      jumpi\n        /* \"#utility.yul\":5569:5648   */\n      tag_122\n      tag_33\n      jump\t// in\n    tag_122:\n        /* \"#utility.yul\":5522:5650   */\n    tag_121:\n        /* \"#utility.yul\":5104:5656   */\n      swap3\n      pop\n      swap3\n      swap1\n      pop\n      jump\t// out\n        /* \"#utility.yul\":5662:6189   */\n    tag_13:\n        /* \"#utility.yul\":5732:5738   */\n      0x00\n        /* \"#utility.yul\":5740:5746   */\n      dup1\n        /* \"#utility.yul\":5789:5791   */\n      0x20\n        /* \"#utility.yul\":5777:5786   */\n      dup4\n        /* \"#utility.yul\":5768:5775   */\n      dup6\n        /* \"#utility.yul\":5764:5787   */\n      sub\n        /* \"#utility.yul\":5760:5792   */\n      slt\n        /* \"#utility.yul\":5757:5876   */\n      iszero\n      tag_124\n      jumpi\n        /* \"#utility.yul\":5795:5874   */\n      tag_125\n      tag_22\n      jump\t// in\n    tag_125:\n        /* \"#utility.yul\":5757:5876   */\n    tag_124:\n        /* \"#utility.yul\":5943:5944   */\n      0x00\n        /* \"#utility.yul\":5932:5941   */\n      dup4\n        /* \"#utility.yul\":5928:5945   */\n      add\n        /* \"#utility.yul\":5915:5946   */\n      calldataload\n        /* \"#utility.yul\":5973:5991   */\n      0xffffffffffffffff\n        /* \"#utility.yul\":5965:5971   */\n      dup2\n        /* \"#utility.yul\":5962:5992   */\n      gt\n        /* \"#utility.yul\":5959:6076   */\n      iszero\n      tag_126\n      jumpi\n        /* \"#utility.yul\":5995:6074   */\n      tag_127\n      tag_23\n      jump\t// in\n    tag_127:\n        /* \"#utility.yul\":5959:6076   */\n    tag_126:\n        /* \"#utility.yul\":6108:6172   */\n      tag_128\n        /* \"#utility.yul\":6164:6171   */\n      dup6\n        /* \"#utility.yul\":6155:6161   */\n      dup3\n        /* \"#utility.yul\":6144:6153   */\n      dup7\n        /* \"#utility.yul\":6140:6162   */\n      add\n        /* \"#utility.yul\":6108:6172   */\n      tag_42\n      jump\t// in\n    tag_128:\n        /* \"#utility.yul\":6090:6172   */\n      swap3\n      pop\n      swap3\n      pop\n        /* \"#utility.yul\":5886:6182   */\n      pop\n        /* \"#utility.yul\":5662:6189   */\n      swap3\n      pop\n      swap3\n      swap1\n      pop\n      jump\t// out\n        /* \"#utility.yul\":6195:6313   */\n    tag_43:\n        /* \"#utility.yul\":6282:6306   */\n      tag_130\n        /* \"#utility.yul\":6300:6305   */\n      dup2\n        /* \"#utility.yul\":6282:6306   */\n      tag_24\n      jump\t// in\n    tag_130:\n        /* \"#utility.yul\":6277:6280   */\n      dup3\n        /* \"#utility.yul\":6270:6307   */\n      mstore\n        /* \"#utility.yul\":6195:6313   */\n      pop\n      pop\n      jump\t// out\n        /* \"#utility.yul\":6319:6437   */\n    tag_44:\n        /* \"#utility.yul\":6406:6430   */\n      tag_132\n        /* \"#utility.yul\":6424:6429   */\n      dup2\n        /* \"#utility.yul\":6406:6430   */\n      tag_28\n      jump\t// in\n    tag_132:\n        /* \"#utility.yul\":6401:6404   */\n      dup3\n        /* \"#utility.yul\":6394:6431   */\n      mstore\n        /* \"#utility.yul\":6319:6437   */\n      pop\n      pop\n      jump\t// out\n        /* \"#utility.yul\":6443:6885   */\n    tag_16:\n        /* \"#utility.yul\":6592:6596   */\n      0x00\n        /* \"#utility.yul\":6630:6632   */\n      0x60\n        /* \"#utility.yul\":6619:6628   */\n      dup3\n        /* \"#utility.yul\":6615:6633   */\n      add\n        /* \"#utility.yul\":6607:6633   */\n      swap1\n      pop\n        /* \"#utility.yul\":6643:6714   */\n      tag_134\n        /* \"#utility.yul\":6711:6712   */\n      0x00\n        /* \"#utility.yul\":6700:6709   */\n      dup4\n        /* \"#utility.yul\":6696:6713   */\n      add\n        /* \"#utility.yul\":6687:6693   */\n      dup7\n        /* \"#utility.yul\":6643:6714   */\n      tag_43\n      jump\t// in\n    tag_134:\n        /* \"#utility.yul\":6724:6796   */\n      tag_135\n        /* \"#utility.yul\":6792:6794   */\n      0x20\n        /* \"#utility.yul\":6781:6790   */\n      dup4\n        /* \"#utility.yul\":6777:6795   */\n      add\n        /* \"#utility.yul\":6768:6774   */\n      dup6\n        /* \"#utility.yul\":6724:6796   */\n      tag_44\n      jump\t// in\n    tag_135:\n        /* \"#utility.yul\":6806:6878   */\n      tag_136\n        /* \"#utility.yul\":6874:6876   */\n      0x40\n        /* \"#utility.yul\":6863:6872   */\n      dup4\n        /* \"#utility.yul\":6859:6877   */\n      add\n        /* \"#utility.yul\":6850:6856   */\n      dup5\n        /* \"#utility.yul\":6806:6878   */\n      tag_43\n      jump\t// in\n    tag_136:\n        /* \"#utility.yul\":6443:6885   */\n      swap5\n      swap4\n      pop\n      pop\n      pop\n      pop\n      jump\t// out\n        /* \"#utility.yul\":6891:7075   */\n    tag_45:\n        /* \"#utility.yul\":6990:7001   */\n      0x00\n        /* \"#utility.yul\":7024:7030   */\n      dup3\n        /* \"#utility.yul\":7019:7022   */\n      dup3\n        /* \"#utility.yul\":7012:7031   */\n      mstore\n        /* \"#utility.yul\":7064:7068   */\n      0x20\n        /* \"#utility.yul\":7059:7062   */\n      dup3\n        /* \"#utility.yul\":7055:7069   */\n      add\n        /* \"#utility.yul\":7040:7069   */\n      swap1\n      pop\n        /* \"#utility.yul\":6891:7075   */\n      swap3\n      swap2\n      pop\n      pop\n      jump\t// out\n        /* \"#utility.yul\":7081:7198   */\n    tag_46:\n        /* \"#utility.yul\":7190:7191   */\n      0x00\n        /* \"#utility.yul\":7187:7188   */\n      dup1\n        /* \"#utility.yul\":7180:7192   */\n      revert\n        /* \"#utility.yul\":7204:7302   */\n    tag_47:\n        /* \"#utility.yul\":7288:7294   */\n      dup3\n        /* \"#utility.yul\":7283:7286   */\n      dup2\n        /* \"#utility.yul\":7278:7281   */\n      dup4\n        /* \"#utility.yul\":7265:7295   */\n      calldatacopy\n        /* \"#utility.yul\":7204:7302   */\n      pop\n      pop\n      pop\n      jump\t// out\n        /* \"#utility.yul\":7338:7875   */\n    tag_48:\n        /* \"#utility.yul\":7466:7469   */\n      0x00\n        /* \"#utility.yul\":7487:7573   */\n      tag_141\n        /* \"#utility.yul\":7566:7572   */\n      dup4\n        /* \"#utility.yul\":7561:7564   */\n      dup6\n        /* \"#utility.yul\":7487:7573   */\n      tag_45\n      jump\t// in\n    tag_141:\n        /* \"#utility.yul\":7480:7573   */\n      swap4\n      pop\n        /* \"#utility.yul\":7597:7663   */\n      0x07ffffffffffffffffffffffffffffffffffffffffffffffffffffffffffffff\n        /* \"#utility.yul\":7589:7595   */\n      dup4\n        /* \"#utility.yul\":7586:7664   */\n      gt\n        /* \"#utility.yul\":7583:7748   */\n      iszero\n      tag_142\n      jumpi\n        /* \"#utility.yul\":7667:7746   */\n      tag_143\n      tag_46\n      jump\t// in\n    tag_143:\n        /* \"#utility.yul\":7583:7748   */\n    tag_142:\n        /* \"#utility.yul\":7779:7783   */\n      0x20\n        /* \"#utility.yul\":7771:7777   */\n      dup4\n        /* \"#utility.yul\":7767:7784   */\n      mul\n        /* \"#utility.yul\":7757:7784   */\n      swap3\n      pop\n        /* \"#utility.yul\":7794:7837   */\n      tag_144\n        /* \"#utility.yul\":7830:7836   */\n      dup4\n        /* \"#utility.yul\":7825:7828   */\n      dup6\n        /* \"#utility.yul\":7818:7823   */\n      dup5\n        /* \"#utility.yul\":7794:7837   */\n      tag_47\n      jump\t// in\n    tag_144:\n        /* \"#utility.yul\":7862:7868   */\n      dup3\n        /* \"#utility.yul\":7857:7860   */\n      dup5\n        /* \"#utility.yul\":7853:7869   */\n      add\n        /* \"#utility.yul\":7846:7869   */\n      swap1\n      pop\n        /* \"#utility.yul\":7338:7875   */\n      swap4\n      swap3\n      pop\n      pop\n      pop\n      jump\t// out\n        /* \"#utility.yul\":7881:7998   */\n    tag_49:\n        /* \"#utility.yul\":7990:7991   */\n      0x00\n        /* \"#utility.yul\":7987:7988   */\n      dup1\n        /* \"#utility.yul\":7980:7992   */\n      revert\n        /* \"#utility.yul\":8004:8121   */\n    tag_50:\n        /* \"#utility.yul\":8113:8114   */\n      0x00\n        /* \"#utility.yul\":8110:8111   */\n      dup1\n        /* \"#utility.yul\":8103:8115   */\n      revert\n        /* \"#utility.yul\":8127:8244   */\n    tag_51:\n        /* \"#utility.yul\":8236:8237   */\n      0x00\n        /* \"#utility.yul\":8233:8234   */\n      dup1\n        /* \"#utility.yul\":8226:8238   */\n      revert\n        /* \"#utility.yul\":8250:8962   */\n    tag_52:\n        /* \"#utility.yul\":8315:8320   */\n      0x00\n        /* \"#utility.yul\":8322:8328   */\n      dup1\n        /* \"#utility.yul\":8378:8381   */\n      dup4\n        /* \"#utility.yul\":8365:8382   */\n      calldataload\n        /* \"#utility.yul\":8470:8471   */\n      0x01\n        /* \"#utility.yul\":8464:8468   */\n      0x20\n        /* \"#utility.yul\":8460:8472   */\n      sub\n        /* \"#utility.yul\":8449:8457   */\n      dup5\n        /* \"#utility.yul\":8433:8447   */\n      calldatasize\n        /* \"#utility.yul\":8429:8458   */\n      sub\n        /* \"#utility.yul\":8425:8473   */\n      sub\n        /* \"#utility.yul\":8405:8423   */\n      dup2\n        /* \"#utility.yul\":8401:8474   */\n      slt\n        /* \"#utility.yul\":8391:8559   */\n      tag_149\n      jumpi\n        /* \"#utility.yul\":8478:8557   */\n      tag_150\n      tag_51\n      jump\t// in\n    tag_150:\n        /* \"#utility.yul\":8391:8559   */\n    tag_149:\n        /* \"#utility.yul\":8601:8609   */\n      dup4\n        /* \"#utility.yul\":8581:8599   */\n      dup2\n        /* \"#utility.yul\":8577:8610   */\n      add\n        /* \"#utility.yul\":8568:8610   */\n      swap3\n      pop\n        /* \"#utility.yul\":8643:8648   */\n      dup3\n        /* \"#utility.yul\":8630:8649   */\n      calldataload\n        /* \"#utility.yul\":8620:8649   */\n      swap2\n      pop\n        /* \"#utility.yul\":8678:8682   */\n      0x20\n        /* \"#utility.yul\":8671:8676   */\n      dup4\n        /* \"#utility.yul\":8667:8683   */\n      add\n        /* \"#utility.yul\":8658:8683   */\n      swap3\n      pop\n        /* \"#utility.yul\":8706:8724   */\n      0xffffffffffffffff\n        /* \"#utility.yul\":8698:8704   */\n      dup3\n        /* \"#utility.yul\":8695:8725   */\n      gt\n        /* \"#utility.yul\":8692:8809   */\n      iszero\n      tag_151\n      jumpi\n        /* \"#utility.yul\":8728:8807   */\n      tag_152\n      tag_49\n      jump\t// in\n    tag_152:\n        /* \"#utility.yul\":8692:8809   */\n    tag_151:\n        /* \"#utility.yul\":8864:8868   */\n      0x01\n        /* \"#utility.yul\":8856:8862   */\n      dup3\n        /* \"#utility.yul\":8852:8869   */\n      mul\n        /* \"#utility.yul\":8836:8850   */\n      calldatasize\n        /* \"#utility.yul\":8832:8870   */\n      sub\n        /* \"#utility.yul\":8825:8830   */\n      dup4\n        /* \"#utility.yul\":8821:8871   */\n      sgt\n        /* \"#utility.yul\":8818:8955   */\n      iszero\n      tag_153\n      jumpi\n        /* \"#utility.yul\":8874:8953   */\n      tag_154\n      tag_50\n      jump\t// in\n    tag_154:\n        /* \"#utility.yul\":8818:8955   */\n    tag_153:\n        /* \"#utility.yul\":8329:8962   */\n      pop\n        /* \"#utility.yul\":8250:8962   */\n      swap3\n      pop\n      swap3\n      swap1\n      pop\n      jump\t// out\n        /* \"#utility.yul\":8968:9127   */\n    tag_53:\n        /* \"#utility.yul\":9042:9053   */\n      0x00\n        /* \"#utility.yul\":9076:9082   */\n      dup3\n        /* \"#utility.yul\":9071:9074   */\n      dup3\n        /* \"#utility.yul\":9064:9083   */\n      mstore\n        /* \"#utility.yul\":9116:9120   */\n      0x20\n        /* \"#utility.yul\":9111:9114   */\n      dup3\n        /* \"#utility.yul\":9107:9121   */\n      add\n        /* \"#utility.yul\":9092:9121   */\n      swap1\n      pop\n        /* \"#utility.yul\":8968:9127   */\n      swap3\n      swap2\n      pop\n      pop\n      jump\t// out\n        /* \"#utility.yul\":9133:9279   */\n    tag_54:\n        /* \"#utility.yul\":9230:9236   */\n      dup3\n        /* \"#utility.yul\":9225:9228   */\n      dup2\n        /* \"#utility.yul\":9220:9223   */\n      dup4\n        /* \"#utility.yul\":9207:9237   */\n      calldatacopy\n        /* \"#utility.yul\":9271:9272   */\n      0x00\n        /* \"#utility.yul\":9262:9268   */\n      dup4\n        /* \"#utility.yul\":9257:9260   */\n      dup4\n        /* \"#utility.yul\":9253:9269   */\n      add\n        /* \"#utility.yul\":9246:9273   */\n      mstore\n        /* \"#utility.yul\":9133:9279   */\n      pop\n      pop\n      pop\n      jump\t// out\n        /* \"#utility.yul\":9309:9606   */\n    tag_55:\n        /* \"#utility.yul\":9397:9400   */\n      0x00\n        /* \"#utility.yul\":9418:9479   */\n      tag_158\n        /* \"#utility.yul\":9472:9478   */\n      dup4\n        /* \"#utility.yul\":9467:9470   */\n      dup6\n        /* \"#utility.yul\":9418:9479   */\n      tag_53\n      jump\t// in\n    tag_158:\n        /* \"#utility.yul\":9411:9479   */\n      swap4\n      pop\n        /* \"#utility.yul\":9489:9545   */\n      tag_159\n        /* \"#utility.yul\":9538:9544   */\n      dup4\n        /* \"#utility.yul\":9533:9536   */\n      dup6\n        /* \"#utility.yul\":9526:9531   */\n      dup5\n        /* \"#utility.yul\":9489:9545   */\n      tag_54\n      jump\t// in\n    tag_159:\n        /* \"#utility.yul\":9570:9599   */\n      tag_160\n        /* \"#utility.yul\":9592:9598   */\n      dup4\n        /* \"#utility.yul\":9570:9599   */\n      tag_40\n      jump\t// in\n    tag_160:\n        /* \"#utility.yul\":9565:9568   */\n      dup5\n        /* \"#utility.yul\":9561:9600   */\n      add\n        /* \"#utility.yul\":9554:9600   */\n      swap1\n      pop\n        /* \"#utility.yul\":9309:9606   */\n      swap4\n      swap3\n      pop\n      pop\n      pop\n      jump\t// out\n        /* \"#utility.yul\":9612:9723   */\n    tag_56:\n        /* \"#utility.yul\":9689:9694   */\n      0x00\n        /* \"#utility.yul\":9714:9717   */\n      dup3\n        /* \"#utility.yul\":9705:9717   */\n      swap1\n      pop\n        /* \"#utility.yul\":9612:9723   */\n      swap3\n      swap2\n      pop\n      pop\n      jump\t// out\n        /* \"#utility.yul\":9761:9921   */\n    tag_57:\n        /* \"#utility.yul\":9874:9915   */\n      tag_163\n        /* \"#utility.yul\":9910:9914   */\n      0x40\n        /* \"#utility.yul\":9905:9908   */\n      dup4\n        /* \"#utility.yul\":9898:9903   */\n      dup4\n        /* \"#utility.yul\":9874:9915   */\n      tag_47\n      jump\t// in\n    tag_163:\n        /* \"#utility.yul\":9761:9921   */\n      pop\n      pop\n      jump\t// out\n        /* \"#utility.yul\":9989:10762   */\n    tag_58:\n        /* \"#utility.yul\":10106:10109   */\n      0x00\n        /* \"#utility.yul\":10142:10146   */\n      0x60\n        /* \"#utility.yul\":10137:10140   */\n      dup4\n        /* \"#utility.yul\":10133:10147   */\n      add\n        /* \"#utility.yul\":10226:10288   */\n      tag_165\n        /* \"#utility.yul\":10282:10286   */\n      0x00\n        /* \"#utility.yul\":10275:10280   */\n      dup5\n        /* \"#utility.yul\":10271:10287   */\n      add\n        /* \"#utility.yul\":10264:10269   */\n      dup5\n        /* \"#utility.yul\":10226:10288   */\n      tag_52\n      jump\t// in\n    tag_165:\n        /* \"#utility.yul\":10335:10338   */\n      dup6\n        /* \"#utility.yul\":10329:10333   */\n      dup4\n        /* \"#utility.yul\":10325:10339   */\n      sub\n        /* \"#utility.yul\":10318:10322   */\n      0x00\n        /* \"#utility.yul\":10313:10316   */\n      dup8\n        /* \"#utility.yul\":10309:10323   */\n      add\n        /* \"#utility.yul\":10302:10340   */\n      mstore\n        /* \"#utility.yul\":10361:10450   */\n      tag_166\n        /* \"#utility.yul\":10445:10449   */\n      dup4\n        /* \"#utility.yul\":10431:10443   */\n      dup3\n        /* \"#utility.yul\":10417:10429   */\n      dup5\n        /* \"#utility.yul\":10361:10450   */\n      tag_55\n      jump\t// in\n    tag_166:\n        /* \"#utility.yul\":10353:10450   */\n      swap3\n      pop\n        /* \"#utility.yul\":10157:10461   */\n      pop\n      pop\n        /* \"#utility.yul\":10526:10601   */\n      tag_167\n        /* \"#utility.yul\":10595:10599   */\n      0x20\n        /* \"#utility.yul\":10588:10593   */\n      dup5\n        /* \"#utility.yul\":10584:10600   */\n      add\n        /* \"#utility.yul\":10577:10582   */\n      dup5\n        /* \"#utility.yul\":10526:10601   */\n      tag_56\n      jump\t// in\n    tag_167:\n        /* \"#utility.yul\":10614:10725   */\n      tag_168\n        /* \"#utility.yul\":10719:10723   */\n      0x20\n        /* \"#utility.yul\":10714:10717   */\n      dup7\n        /* \"#utility.yul\":10710:10724   */\n      add\n        /* \"#utility.yul\":10696:10708   */\n      dup3\n        /* \"#utility.yul\":10614:10725   */\n      tag_57\n      jump\t// in\n    tag_168:\n        /* \"#utility.yul\":10471:10735   */\n      pop\n        /* \"#utility.yul\":10752:10756   */\n      dup1\n        /* \"#utility.yul\":10745:10756   */\n      swap2\n      pop\n        /* \"#utility.yul\":10111:10762   */\n      pop\n        /* \"#utility.yul\":9989:10762   */\n      swap3\n      swap2\n      pop\n      pop\n      jump\t// out\n        /* \"#utility.yul\":10768:11639   */\n    tag_19:\n        /* \"#utility.yul\":11053:11057   */\n      0x00\n        /* \"#utility.yul\":11091:11094   */\n      0x80\n        /* \"#utility.yul\":11080:11089   */\n      dup3\n        /* \"#utility.yul\":11076:11095   */\n      add\n        /* \"#utility.yul\":11068:11095   */\n      swap1\n      pop\n        /* \"#utility.yul\":11105:11176   */\n      tag_170\n        /* \"#utility.yul\":11173:11174   */\n      0x00\n        /* \"#utility.yul\":11162:11171   */\n      dup4\n        /* \"#utility.yul\":11158:11175   */\n      add\n        /* \"#utility.yul\":11149:11155   */\n      dup9\n        /* \"#utility.yul\":11105:11176   */\n      tag_43\n      jump\t// in\n    tag_170:\n        /* \"#utility.yul\":11186:11258   */\n      tag_171\n        /* \"#utility.yul\":11254:11256   */\n      0x20\n        /* \"#utility.yul\":11243:11252   */\n      dup4\n        /* \"#utility.yul\":11239:11257   */\n      add\n        /* \"#utility.yul\":11230:11236   */\n      dup8\n        /* \"#utility.yul\":11186:11258   */\n      tag_44\n      jump\t// in\n    tag_171:\n        /* \"#utility.yul\":11305:11314   */\n      dup2\n        /* \"#utility.yul\":11299:11303   */\n      dup2\n        /* \"#utility.yul\":11295:11315   */\n      sub\n        /* \"#utility.yul\":11290:11292   */\n      0x40\n        /* \"#utility.yul\":11279:11288   */\n      dup4\n        /* \"#utility.yul\":11275:11293   */\n      add\n        /* \"#utility.yul\":11268:11316   */\n      mstore\n        /* \"#utility.yul\":11333:11451   */\n      tag_172\n        /* \"#utility.yul\":11446:11450   */\n      dup2\n        /* \"#utility.yul\":11437:11443   */\n      dup6\n        /* \"#utility.yul\":11429:11435   */\n      dup8\n        /* \"#utility.yul\":11333:11451   */\n      tag_48\n      jump\t// in\n    tag_172:\n        /* \"#utility.yul\":11325:11451   */\n      swap1\n      pop\n        /* \"#utility.yul\":11498:11507   */\n      dup2\n        /* \"#utility.yul\":11492:11496   */\n      dup2\n        /* \"#utility.yul\":11488:11508   */\n      sub\n        /* \"#utility.yul\":11483:11485   */\n      0x60\n        /* \"#utility.yul\":11472:11481   */\n      dup4\n        /* \"#utility.yul\":11468:11486   */\n      add\n        /* \"#utility.yul\":11461:11509   */\n      mstore\n        /* \"#utility.yul\":11526:11632   */\n      tag_173\n        /* \"#utility.yul\":11627:11631   */\n      dup2\n        /* \"#utility.yul\":11618:11624   */\n      dup5\n        /* \"#utility.yul\":11526:11632   */\n      tag_58\n      jump\t// in\n    tag_173:\n        /* \"#utility.yul\":11518:11632   */\n      swap1\n      pop\n        /* \"#utility.yul\":10768:11639   */\n      swap7\n      swap6\n      pop\n      pop\n      pop\n      pop\n      pop\n      pop\n      jump\t// out\n\n    auxdata: 0xa26469706673582212201bac140fdf05ab3399e519f187b894d34bfe1e95403523fff76ca6d228a9510d64736f6c63430008110033\n}\n",
				"bytecode": {
					"linkReferences": {},
					"object": "608060405234801561001057600080fd5b50610682806100206000396000f3fe608060405234801561001057600080fd5b50600436106100365760003560e01c80637049e0871461003b578063e5c5e9a31461006b575b600080fd5b61005560048036038101906100509190610205565b61009d565b6040516100629190610339565b60405180910390f35b610085600480360381019061008091906103b1565b6100d2565b6040516100949392919061041c565b60405180910390f35b606085858585856040516020016100b89594939291906105f7565b604051602081830303815290604052905095945050505050565b60008060009250925092565b600080fd5b600080fd5b6000819050919050565b6100fb816100e8565b811461010657600080fd5b50565b600081359050610118816100f2565b92915050565b600073ffffffffffffffffffffffffffffffffffffffff82169050919050565b60006101498261011e565b9050919050565b6101598161013e565b811461016457600080fd5b50565b60008135905061017681610150565b92915050565b600080fd5b600080fd5b600080fd5b60008083601f8401126101a1576101a061017c565b5b8235905067ffffffffffffffff8111156101be576101bd610181565b5b6020830191508360208202830111156101da576101d9610186565b5b9250929050565b600080fd5b6000606082840312156101fc576101fb6101e1565b5b81905092915050565b600080600080600060808688031215610221576102206100de565b5b600061022f88828901610109565b955050602061024088828901610167565b945050604086013567ffffffffffffffff811115610261576102606100e3565b5b61026d8882890161018b565b9350935050606086013567ffffffffffffffff8111156102905761028f6100e3565b5b61029c888289016101e6565b9150509295509295909350565b600081519050919050565b600082825260208201905092915050565b60005b838110156102e35780820151818401526020810190506102c8565b60008484015250505050565b6000601f19601f8301169050919050565b600061030b826102a9565b61031581856102b4565b93506103258185602086016102c5565b61032e816102ef565b840191505092915050565b600060208201905081810360008301526103538184610300565b905092915050565b60008083601f8401126103715761037061017c565b5b8235905067ffffffffffffffff81111561038e5761038d610181565b5b6020830191508360018202830111156103aa576103a9610186565b5b9250929050565b600080602083850312156103c8576103c76100de565b5b600083013567ffffffffffffffff8111156103e6576103e56100e3565b5b6103f28582860161035b565b92509250509250929050565b610407816100e8565b82525050565b6104168161013e565b82525050565b600060608201905061043160008301866103fe565b61043e602083018561040d565b61044b60408301846103fe565b949350505050565b600082825260208201905092915050565b600080fd5b82818337505050565b600061047e8385610453565b93507f07ffffffffffffffffffffffffffffffffffffffffffffffffffffffffffffff8311156104b1576104b0610464565b5b6020830292506104c2838584610469565b82840190509392505050565b600080fd5b600080fd5b600080fd5b600080833560016020038436030381126104fa576104f96104d8565b5b83810192508235915060208301925067ffffffffffffffff821115610522576105216104ce565b5b600182023603831315610538576105376104d3565b5b509250929050565b600082825260208201905092915050565b82818337600083830152505050565b600061056c8385610540565b9350610579838584610551565b610582836102ef565b840190509392505050565b600082905092915050565b6105a460408383610469565b5050565b6000606083016105bb60008401846104dd565b85830360008701526105ce838284610560565b925050506105df602084018461058d565b6105ec6020860182610598565b508091505092915050565b600060808201905061060c60008301886103fe565b610619602083018761040d565b818103604083015261062c818587610472565b9050818103606083015261064081846105a8565b9050969550505050505056fea26469706673582212201bac140fdf05ab3399e519f187b894d34bfe1e95403523fff76ca6d228a9510d64736f6c63430008110033",
					"opcodes": "PUSH1 0x80 PUSH1 0x40 MSTORE CALLVALUE DUP1 ISZERO PUSH2 0x10 JUMPI PUSH1 0x0 DUP1 REVERT JUMPDEST POP PUSH2 0x682 DUP1 PUSH2 0x20 PUSH1 0x0 CODECOPY PUSH1 0x0 RETURN INVALID PUSH1 0x80 PUSH1 0x40 MSTORE CALLVALUE DUP1 ISZERO PUSH2 0x10 JUMPI PUSH1 0x0 DUP1 REVERT JUMPDEST POP PUSH1 0x4 CALLDATASIZE LT PUSH2 0x36 JUMPI PUSH1 0x0 CALLDATALOAD PUSH1 0xE0 SHR DUP1 PUSH4 0x7049E087 EQ PUSH2 0x3B JUMPI DUP1 PUSH4 0xE5C5E9A3 EQ PUSH2 0x6B JUMPI JUMPDEST PUSH1 0x0 DUP1 REVERT JUMPDEST PUSH2 0x55 PUSH1 0x4 DUP1 CALLDATASIZE SUB DUP2 ADD SWAP1 PUSH2 0x50 SWAP2 SWAP1 PUSH2 0x205 JUMP JUMPDEST PUSH2 0x9D JUMP JUMPDEST PUSH1 0x40 MLOAD PUSH2 0x62 SWAP2 SWAP1 PUSH2 0x339 JUMP JUMPDEST PUSH1 0x40 MLOAD DUP1 SWAP2 SUB SWAP1 RETURN JUMPDEST PUSH2 0x85 PUSH1 0x4 DUP1 CALLDATASIZE SUB DUP2 ADD SWAP1 PUSH2 0x80 SWAP2 SWAP1 PUSH2 0x3B1 JUMP JUMPDEST PUSH2 0xD2 JUMP JUMPDEST PUSH1 0x40 MLOAD PUSH2 0x94 SWAP4 SWAP3 SWAP2 SWAP1 PUSH2 0x41C JUMP JUMPDEST PUSH1 0x40 MLOAD DUP1 SWAP2 SUB SWAP1 RETURN JUMPDEST PUSH1 0x60 DUP6 DUP6 DUP6 DUP6 DUP6 PUSH1 0x40 MLOAD PUSH1 0x20 ADD PUSH2 0xB8 SWAP6 SWAP5 SWAP4 SWAP3 SWAP2 SWAP1 PUSH2 0x5F7 JUMP JUMPDEST PUSH1 0x40 MLOAD PUSH1 0x20 DUP2 DUP4 SUB SUB DUP2 MSTORE SWAP1 PUSH1 0x40 MSTORE SWAP1 POP SWAP6 SWAP5 POP POP POP POP POP JUMP JUMPDEST PUSH1 0x0 DUP1 PUSH1 0x0 SWAP3 POP SWAP3 POP SWAP3 JUMP JUMPDEST PUSH1 0x0 DUP1 REVERT JUMPDEST PUSH1 0x0 DUP1 REVERT JUMPDEST PUSH1 0x0 DUP2 SWAP1 POP SWAP2 SWAP1 POP JUMP JUMPDEST PUSH2 0xFB DUP2 PUSH2 0xE8 JUMP JUMPDEST DUP2 EQ PUSH2 0x106 JUMPI PUSH1 0x0 DUP1 REVERT JUMPDEST POP JUMP JUMPDEST PUSH1 0x0 DUP2 CALLDATALOAD SWAP1 POP PUSH2 0x118 DUP2 PUSH2 0xF2 JUMP JUMPDEST SWAP3 SWAP2 POP POP JUMP JUMPDEST PUSH1 0x0 PUSH20 0xFFFFFFFFFFFFFFFFFFFFFFFFFFFFFFFFFFFFFFFF DUP3 AND SWAP1 POP SWAP2 SWAP1 POP JUMP JUMPDEST PUSH1 0x0 PUSH2 0x149 DUP3 PUSH2 0x11E JUMP JUMPDEST SWAP1 POP SWAP2 SWAP1 POP JUMP JUMPDEST PUSH2 0x159 DUP2 PUSH2 0x13E JUMP JUMPDEST DUP2 EQ PUSH2 0x164 JUMPI PUSH1 0x0 DUP1 REVERT JUMPDEST POP JUMP JUMPDEST PUSH1 0x0 DUP2 CALLDATALOAD SWAP1 POP PUSH2 0x176 DUP2 PUSH2 0x150 JUMP JUMPDEST SWAP3 SWAP2 POP POP JUMP JUMPDEST PUSH1 0x0 DUP1 REVERT JUMPDEST PUSH1 0x0 DUP1 REVERT JUMPDEST PUSH1 0x0 DUP1 REVERT JUMPDEST PUSH1 0x0 DUP1 DUP4 PUSH1 0x1F DUP5 ADD SLT PUSH2 0x1A1 JUMPI PUSH2 0x1A0 PUSH2 0x17C JUMP JUMPDEST JUMPDEST DUP3 CALLDATALOAD SWAP1 POP PUSH8 0xFFFFFFFFFFFFFFFF DUP2 GT ISZERO PUSH2 0x1BE JUMPI PUSH2 0x1BD PUSH2 0x181 JUMP JUMPDEST JUMPDEST PUSH1 0x20 DUP4 ADD SWAP2 POP DUP4 PUSH1 0x20 DUP3 MUL DUP4 ADD GT ISZERO PUSH2 0x1DA JUMPI PUSH2 0x1D9 PUSH2 0x186 JUMP JUMPDEST JUMPDEST SWAP3 POP SWAP3 SWAP1 POP JUMP JUMPDEST PUSH1 0x0 DUP1 REVERT JUMPDEST PUSH1 0x0 PUSH1 0x60 DUP3 DUP5 SUB SLT ISZERO PUSH2 0x1FC JUMPI PUSH2 0x1FB PUSH2 0x1E1 JUMP JUMPDEST JUMPDEST DUP2 SWAP1 POP SWAP3 SWAP2 POP POP JUMP JUMPDEST PUSH1 0x0 DUP1 PUSH1 0x0 DUP1 PUSH1 0x0 PUSH1 0x80 DUP7 DUP9 SUB SLT ISZERO PUSH2 0x221 JUMPI PUSH2 0x220 PUSH2 0xDE JUMP JUMPDEST JUMPDEST PUSH1 0x0 PUSH2 0x22F DUP9 DUP3 DUP10 ADD PUSH2 0x109 JUMP JUMPDEST SWAP6 POP POP PUSH1 0x20 PUSH2 0x240 DUP9 DUP3 DUP10 ADD PUSH2 0x167 JUMP JUMPDEST SWAP5 POP POP PUSH1 0x40 DUP7 ADD CALLDATALOAD PUSH8 0xFFFFFFFFFFFFFFFF DUP2 GT ISZERO PUSH2 0x261 JUMPI PUSH2 0x260 PUSH2 0xE3 JUMP JUMPDEST JUMPDEST PUSH2 0x26D DUP9 DUP3 DUP10 ADD PUSH2 0x18B JUMP JUMPDEST SWAP4 POP SWAP4 POP POP PUSH1 0x60 DUP7 ADD CALLDATALOAD PUSH8 0xFFFFFFFFFFFFFFFF DUP2 GT ISZERO PUSH2 0x290 JUMPI PUSH2 0x28F PUSH2 0xE3 JUMP JUMPDEST JUMPDEST PUSH2 0x29C DUP9 DUP3 DUP10 ADD PUSH2 0x1E6 JUMP JUMPDEST SWAP2 POP POP SWAP3 SWAP6 POP SWAP3 SWAP6 SWAP1 SWAP4 POP JUMP JUMPDEST PUSH1 0x0 DUP2 MLOAD SWAP1 POP SWAP2 SWAP1 POP JUMP JUMPDEST PUSH1 0x0 DUP3 DUP3 MSTORE PUSH1 0x20 DUP3 ADD SWAP1 POP SWAP3 SWAP2 POP POP JUMP JUMPDEST PUSH1 0x0 JUMPDEST DUP4 DUP2 LT ISZERO PUSH2 0x2E3 JUMPI DUP1 DUP3 ADD MLOAD DUP2 DUP5 ADD MSTORE PUSH1 0x20 DUP2 ADD SWAP1 POP PUSH2 0x2C8 JUMP JUMPDEST PUSH1 0x0 DUP5 DUP5 ADD MSTORE POP POP POP POP JUMP JUMPDEST PUSH1 0x0 PUSH1 0x1F NOT PUSH1 0x1F DUP4 ADD AND SWAP1 POP SWAP2 SWAP1 POP JUMP JUMPDEST PUSH1 0x0 PUSH2 0x30B DUP3 PUSH2 0x2A9 JUMP JUMPDEST PUSH2 0x315 DUP2 DUP6 PUSH2 0x2B4 JUMP JUMPDEST SWAP4 POP PUSH2 0x325 DUP2 DUP6 PUSH1 0x20 DUP7 ADD PUSH2 0x2C5 JUMP JUMPDEST PUSH2 0x32E DUP2 PUSH2 0x2EF JUMP JUMPDEST DUP5 ADD SWAP2 POP POP SWAP3 SWAP2 POP POP JUMP JUMPDEST PUSH1 0x0 PUSH1 0x20 DUP3 ADD SWAP1 POP DUP2 DUP2 SUB PUSH1 0x0 DUP4 ADD MSTORE PUSH2 0x353 DUP2 DUP5 PUSH2 0x300 JUMP JUMPDEST SWAP1 POP SWAP3 SWAP2 POP POP JUMP JUMPDEST PUSH1 0x0 DUP1 DUP4 PUSH1 0x1F DUP5 ADD SLT PUSH2 0x371 JUMPI PUSH2 0x370 PUSH2 0x17C JUMP JUMPDEST JUMPDEST DUP3 CALLDATALOAD SWAP1 POP PUSH8 0xFFFFFFFFFFFFFFFF DUP2 GT ISZERO PUSH2 0x38E JUMPI PUSH2 0x38D PUSH2 0x181 JUMP JUMPDEST JUMPDEST PUSH1 0x20 DUP4 ADD SWAP2 POP DUP4 PUSH1 0x1 DUP3 MUL DUP4 ADD GT ISZERO PUSH2 0x3AA JUMPI PUSH2 0x3A9 PUSH2 0x186 JUMP JUMPDEST JUMPDEST SWAP3 POP SWAP3 SWAP1 POP JUMP JUMPDEST PUSH1 0x0 DUP1 PUSH1 0x20 DUP4 DUP6 SUB SLT ISZERO PUSH2 0x3C8 JUMPI PUSH2 0x3C7 PUSH2 0xDE JUMP JUMPDEST JUMPDEST PUSH1 0x0 DUP4 ADD CALLDATALOAD PUSH8 0xFFFFFFFFFFFFFFFF DUP2 GT ISZERO PUSH2 0x3E6 JUMPI PUSH2 0x3E5 PUSH2 0xE3 JUMP JUMPDEST JUMPDEST PUSH2 0x3F2 DUP6 DUP3 DUP7 ADD PUSH2 0x35B JUMP JUMPDEST SWAP3 POP SWAP3 POP POP SWAP3 POP SWAP3 SWAP1 POP JUMP JUMPDEST PUSH2 0x407 DUP2 PUSH2 0xE8 JUMP JUMPDEST DUP3 MSTORE POP POP JUMP JUMPDEST PUSH2 0x416 DUP2 PUSH2 0x13E JUMP JUMPDEST DUP3 MSTORE POP POP JUMP JUMPDEST PUSH1 0x0 PUSH1 0x60 DUP3 ADD SWAP1 POP PUSH2 0x431 PUSH1 0x0 DUP4 ADD DUP7 PUSH2 0x3FE JUMP JUMPDEST PUSH2 0x43E PUSH1 0x20 DUP4 ADD DUP6 PUSH2 0x40D JUMP JUMPDEST PUSH2 0x44B PUSH1 0x40 DUP4 ADD DUP5 PUSH2 0x3FE JUMP JUMPDEST SWAP5 SWAP4 POP POP POP POP JUMP JUMPDEST PUSH1 0x0 DUP3 DUP3 MSTORE PUSH1 0x20 DUP3 ADD SWAP1 POP SWAP3 SWAP2 POP POP JUMP JUMPDEST PUSH1 0x0 DUP1 REVERT JUMPDEST DUP3 DUP2 DUP4 CALLDATACOPY POP POP POP JUMP JUMPDEST PUSH1 0x0 PUSH2 0x47E DUP4 DUP6 PUSH2 0x453 JUMP JUMPDEST SWAP4 POP PUSH32 0x7FFFFFFFFFFFFFFFFFFFFFFFFFFFFFFFFFFFFFFFFFFFFFFFFFFFFFFFFFFFFFF DUP4 GT ISZERO PUSH2 0x4B1 JUMPI PUSH2 0x4B0 PUSH2 0x464 JUMP JUMPDEST JUMPDEST PUSH1 0x20 DUP4 MUL SWAP3 POP PUSH2 0x4C2 DUP4 DUP6 DUP5 PUSH2 0x469 JUMP JUMPDEST DUP3 DUP5 ADD SWAP1 POP SWAP4 SWAP3 POP POP POP JUMP JUMPDEST PUSH1 0x0 DUP1 REVERT JUMPDEST PUSH1 0x0 DUP1 REVERT JUMPDEST PUSH1 0x0 DUP1 REVERT JUMPDEST PUSH1 0x0 DUP1 DUP4 CALLDATALOAD PUSH1 0x1 PUSH1 0x20 SUB DUP5 CALLDATASIZE SUB SUB DUP2 SLT PUSH2 0x4FA JUMPI PUSH2 0x4F9 PUSH2 0x4D8 JUMP JUMPDEST JUMPDEST DUP4 DUP2 ADD SWAP3 POP DUP3 CALLDATALOAD SWAP2 POP PUSH1 0x20 DUP4 ADD SWAP3 POP PUSH8 0xFFFFFFFFFFFFFFFF DUP3 GT ISZERO PUSH2 0x522 JUMPI PUSH2 0x521 PUSH2 0x4CE JUMP JUMPDEST JUMPDEST PUSH1 0x1 DUP3 MUL CALLDATASIZE SUB DUP4 SGT ISZERO PUSH2 0x538 JUMPI PUSH2 0x537 PUSH2 0x4D3 JUMP JUMPDEST JUMPDEST POP SWAP3 POP SWAP3 SWAP1 POP JUMP JUMPDEST PUSH1 0x0 DUP3 DUP3 MSTORE PUSH1 0x20 DUP3 ADD SWAP1 POP SWAP3 SWAP2 POP POP JUMP JUMPDEST DUP3 DUP2 DUP4 CALLDATACOPY PUSH1 0x0 DUP4 DUP4 ADD MSTORE POP POP POP JUMP JUMPDEST PUSH1 0x0 PUSH2 0x56C DUP4 DUP6 PUSH2 0x540 JUMP JUMPDEST SWAP4 POP PUSH2 0x579 DUP4 DUP6 DUP5 PUSH2 0x551 JUMP JUMPDEST PUSH2 0x582 DUP4 PUSH2 0x2EF JUMP JUMPDEST DUP5 ADD SWAP1 POP SWAP4 SWAP3 POP POP POP JUMP JUMPDEST PUSH1 0x0 DUP3 SWAP1 POP SWAP3 SWAP2 POP POP JUMP JUMPDEST PUSH2 0x5A4 PUSH1 0x40 DUP4 DUP4 PUSH2 0x469 JUMP JUMPDEST POP POP JUMP JUMPDEST PUSH1 0x0 PUSH1 0x60 DUP4 ADD PUSH2 0x5BB PUSH1 0x0 DUP5 ADD DUP5 PUSH2 0x4DD JUMP JUMPDEST DUP6 DUP4 SUB PUSH1 0x0 DUP8 ADD MSTORE PUSH2 0x5CE DUP4 DUP3 DUP5 PUSH2 0x560 JUMP JUMPDEST SWAP3 POP POP POP PUSH2 0x5DF PUSH1 0x20 DUP5 ADD DUP5 PUSH2 0x58D JUMP JUMPDEST PUSH2 0x5EC PUSH1 0x20 DUP7 ADD DUP3 PUSH2 0x598 JUMP JUMPDEST POP DUP1 SWAP2 POP POP SWAP3 SWAP2 POP POP JUMP JUMPDEST PUSH1 0x0 PUSH1 0x80 DUP3 ADD SWAP1 POP PUSH2 0x60C PUSH1 0x0 DUP4 ADD DUP9 PUSH2 0x3FE JUMP JUMPDEST PUSH2 0x619 PUSH1 0x20 DUP4 ADD DUP8 PUSH2 0x40D JUMP JUMPDEST DUP2 DUP2 SUB PUSH1 0x40 DUP4 ADD MSTORE PUSH2 0x62C DUP2 DUP6 DUP8 PUSH2 0x472 JUMP JUMPDEST SWAP1 POP DUP2 DUP2 SUB PUSH1 0x60 DUP4 ADD MSTORE PUSH2 0x640 DUP2 DUP5 PUSH2 0x5A8 JUMP JUMPDEST SWAP1 POP SWAP7 SWAP6 POP POP POP POP POP POP JUMP INVALID LOG2 PUSH5 0x6970667358 0x22 SLT KECCAK256 SHL 0xAC EQ 0xF 0xDF SDIV 0xAB CALLER SWAP10 0xE5 NOT CALL DUP8 0xB8 SWAP5 0xD3 0x4B INVALID 0x1E SWAP6 BLOCKHASH CALLDATALOAD 0x23 SELFDESTRUCT 0xF7 PUSH13 0xA6D228A9510D64736F6C634300 ADDMOD GT STOP CALLER "
				},
				"gasEstimates": {
					"creation": {
						"codeDepositCost": "333200",
						"executionCost": "374",
						"totalCost": "333574"
					},
					"external": {
						"decode(bytes)": "infinite",
						"encode(uint256,address,uint256[],(string,uint256[2]))": "infinite"
					}
				},
				"methodIdentifiers": {
					"decode(bytes)": "e5c5e9a3",
					"encode(uint256,address,uint256[],(string,uint256[2]))": "7049e087"
				}
			},
			"storageLayout": {
				"storage": [],
				"types": null
			},
			"userdoc": {
				"kind": "user",
				"methods": {},
				"version": 1
			}
		}
	}
}