{
	"TodoList.sol": {
		"TodoList": {
			"abi": [
				{
					"inputs": [
						{
							"internalType": "string",
							"name": "_text",
							"type": "string"
						}
					],
					"name": "create",
					"outputs": [],
					"stateMutability": "nonpayable",
					"type": "function"
				},
				{
					"inputs": [
						{
							"internalType": "uint256",
							"name": "_index",
							"type": "uint256"
						}
					],
					"name": "get",
					"outputs": [],
					"stateMutability": "view",
					"type": "function"
				},
				{
					"inputs": [
						{
							"internalType": "uint256",
							"name": "",
							"type": "uint256"
						}
					],
					"name": "todos",
					"outputs": [
						{
							"internalType": "string",
							"name": "text",
							"type": "string"
						},
						{
							"internalType": "bool",
							"name": "compeleted",
							"type": "bool"
						}
					],
					"stateMutability": "view",
					"type": "function"
				},
				{
					"inputs": [
						{
							"internalType": "uint256",
							"name": "_index",
							"type": "uint256"
						},
						{
							"internalType": "string",
							"name": "_text",
							"type": "string"
						}
					],
					"name": "updataText",
					"outputs": [],
					"stateMutability": "nonpayable",
					"type": "function"
				}
			],
			"devdoc": {
				"kind": "dev",
				"methods": {},
				"version": 1
			},
			"evm": {
				"assembly": "    /* \"TodoList.sol\":61:515  contract TodoList {... */\n  mstore(0x40, 0x80)\n  callvalue\n  dup1\n  iszero\n  tag_1\n  jumpi\n  0x00\n  dup1\n  revert\ntag_1:\n  pop\n  dataSize(sub_0)\n  dup1\n  dataOffset(sub_0)\n  0x00\n  codecopy\n  0x00\n  return\nstop\n\nsub_0: assembly {\n        /* \"TodoList.sol\":61:515  contract TodoList {... */\n      mstore(0x40, 0x80)\n      callvalue\n      dup1\n      iszero\n      tag_1\n      jumpi\n      0x00\n      dup1\n      revert\n    tag_1:\n      pop\n      jumpi(tag_2, lt(calldatasize, 0x04))\n      shr(0xe0, calldataload(0x00))\n      dup1\n      0x860bbc00\n      eq\n      tag_3\n      jumpi\n      dup1\n      0x9507d39a\n      eq\n      tag_4\n      jumpi\n      dup1\n      0xb6a46b3b\n      eq\n      tag_5\n      jumpi\n      dup1\n      0xbc8bc2b4\n      eq\n      tag_6\n      jumpi\n    tag_2:\n      0x00\n      dup1\n      revert\n        /* \"TodoList.sol\":352:462  function updataText(uint _index, string calldata _text) external {... */\n    tag_3:\n      tag_7\n      0x04\n      dup1\n      calldatasize\n      sub\n      dup2\n      add\n      swap1\n      tag_8\n      swap2\n      swap1\n      tag_9\n      jump\t// in\n    tag_8:\n      tag_10\n      jump\t// in\n    tag_7:\n      stop\n        /* \"TodoList.sol\":470:512  function get(uint _index) external view {} */\n    tag_4:\n      tag_11\n      0x04\n      dup1\n      calldatasize\n      sub\n      dup2\n      add\n      swap1\n      tag_12\n      swap2\n      swap1\n      tag_13\n      jump\t// in\n    tag_12:\n      tag_14\n      jump\t// in\n    tag_11:\n      stop\n        /* \"TodoList.sol\":190:344  function create(string calldata _text) external {... */\n    tag_5:\n      tag_15\n      0x04\n      dup1\n      calldatasize\n      sub\n      dup2\n      add\n      swap1\n      tag_16\n      swap2\n      swap1\n      tag_17\n      jump\t// in\n    tag_16:\n      tag_18\n      jump\t// in\n    tag_15:\n      stop\n        /* \"TodoList.sol\":162:181  Todo[] public todos */\n    tag_6:\n      tag_19\n      0x04\n      dup1\n      calldatasize\n      sub\n      dup2\n      add\n      swap1\n      tag_20\n      swap2\n      swap1\n      tag_13\n      jump\t// in\n    tag_20:\n      tag_21\n      jump\t// in\n    tag_19:\n      mload(0x40)\n      tag_22\n      swap3\n      swap2\n      swap1\n      tag_23\n      jump\t// in\n    tag_22:\n      mload(0x40)\n      dup1\n      swap2\n      sub\n      swap1\n      return\n        /* \"TodoList.sol\":352:462  function updataText(uint _index, string calldata _text) external {... */\n    tag_10:\n        /* \"TodoList.sol\":449:454  _text */\n      dup2\n      dup2\n        /* \"TodoList.sol\":428:433  todos */\n      0x00\n        /* \"TodoList.sol\":434:440  _index */\n      dup6\n        /* \"TodoList.sol\":428:441  todos[_index] */\n      dup2\n      sload\n      dup2\n      lt\n      tag_25\n      jumpi\n      tag_26\n      tag_27\n      jump\t// in\n    tag_26:\n    tag_25:\n      swap1\n      0x00\n      mstore\n      keccak256(0x00, 0x20)\n      swap1\n      0x02\n      mul\n      add\n        /* \"TodoList.sol\":428:446  todos[_index].text */\n      0x00\n      add\n        /* \"TodoList.sol\":428:454  todos[_index].text = _text */\n      swap2\n      dup3\n      tag_29\n      swap3\n      swap2\n      swap1\n      tag_30\n      jump\t// in\n    tag_29:\n      pop\n        /* \"TodoList.sol\":352:462  function updataText(uint _index, string calldata _text) external {... */\n      pop\n      pop\n      pop\n      jump\t// out\n        /* \"TodoList.sol\":470:512  function get(uint _index) external view {} */\n    tag_14:\n      pop\n      jump\t// out\n        /* \"TodoList.sol\":190:344  function create(string calldata _text) external {... */\n    tag_18:\n        /* \"TodoList.sol\":249:254  todos */\n      0x00\n        /* \"TodoList.sol\":260:335  Todo({... */\n      mload(0x40)\n      dup1\n      0x40\n      add\n      0x40\n      mstore\n      dup1\n        /* \"TodoList.sol\":286:291  _text */\n      dup5\n      dup5\n        /* \"TodoList.sol\":260:335  Todo({... */\n      dup1\n      dup1\n      0x1f\n      add\n      0x20\n      dup1\n      swap2\n      div\n      mul\n      0x20\n      add\n      mload(0x40)\n      swap1\n      dup2\n      add\n      0x40\n      mstore\n      dup1\n      swap4\n      swap3\n      swap2\n      swap1\n      dup2\n      dup2\n      mstore\n      0x20\n      add\n      dup4\n      dup4\n      dup1\n      dup3\n      dup5\n      calldatacopy\n      0x00\n      dup2\n      dup5\n      add\n      mstore\n      not(0x1f)\n      0x1f\n      dup3\n      add\n      and\n      swap1\n      pop\n      dup1\n      dup4\n      add\n      swap3\n      pop\n      pop\n      pop\n      pop\n      pop\n      pop\n      pop\n      dup2\n      mstore\n      0x20\n      add\n        /* \"TodoList.sol\":318:323  false */\n      0x00\n        /* \"TodoList.sol\":260:335  Todo({... */\n      iszero\n      iszero\n      dup2\n      mstore\n      pop\n        /* \"TodoList.sol\":249:336  todos.push(Todo({... */\n      swap1\n      dup1\n      0x01\n      dup2\n      sload\n      add\n      dup1\n      dup3\n      sstore\n      dup1\n      swap2\n      pop\n      pop\n      0x01\n      swap1\n      sub\n      swap1\n      0x00\n      mstore\n      keccak256(0x00, 0x20)\n      swap1\n      0x02\n      mul\n      add\n      0x00\n      swap1\n      swap2\n      swap1\n      swap2\n      swap1\n      swap2\n      pop\n      0x00\n      dup3\n      add\n      mload\n      dup2\n      0x00\n      add\n      swap1\n      dup2\n      tag_34\n      swap2\n      swap1\n      tag_35\n      jump\t// in\n    tag_34:\n      pop\n      0x20\n      dup3\n      add\n      mload\n      dup2\n      0x01\n      add\n      exp(0x0100, 0x00)\n      dup2\n      sload\n      dup2\n      0xff\n      mul\n      not\n      and\n      swap1\n      dup4\n      iszero\n      iszero\n      mul\n      or\n      swap1\n      sstore\n      pop\n      pop\n      pop\n        /* \"TodoList.sol\":190:344  function create(string calldata _text) external {... */\n      pop\n      pop\n      jump\t// out\n        /* \"TodoList.sol\":162:181  Todo[] public todos */\n    tag_21:\n      0x00\n      dup2\n      dup2\n      sload\n      dup2\n      lt\n      tag_36\n      jumpi\n      0x00\n      dup1\n      revert\n    tag_36:\n      swap1\n      0x00\n      mstore\n      keccak256(0x00, 0x20)\n      swap1\n      0x02\n      mul\n      add\n      0x00\n      swap2\n      pop\n      swap1\n      pop\n      dup1\n      0x00\n      add\n      dup1\n      sload\n      tag_38\n      swap1\n      tag_39\n      jump\t// in\n    tag_38:\n      dup1\n      0x1f\n      add\n      0x20\n      dup1\n      swap2\n      div\n      mul\n      0x20\n      add\n      mload(0x40)\n      swap1\n      dup2\n      add\n      0x40\n      mstore\n      dup1\n      swap3\n      swap2\n      swap1\n      dup2\n      dup2\n      mstore\n      0x20\n      add\n      dup3\n      dup1\n      sload\n      tag_40\n      swap1\n      tag_39\n      jump\t// in\n    tag_40:\n      dup1\n      iszero\n      tag_41\n      jumpi\n      dup1\n      0x1f\n      lt\n      tag_42\n      jumpi\n      0x0100\n      dup1\n      dup4\n      sload\n      div\n      mul\n      dup4\n      mstore\n      swap2\n      0x20\n      add\n      swap2\n      jump(tag_41)\n    tag_42:\n      dup3\n      add\n      swap2\n      swap1\n      0x00\n      mstore\n      keccak256(0x00, 0x20)\n      swap1\n    tag_43:\n      dup2\n      sload\n      dup2\n      mstore\n      swap1\n      0x01\n      add\n      swap1\n      0x20\n      add\n      dup1\n      dup4\n      gt\n      tag_43\n      jumpi\n      dup3\n      swap1\n      sub\n      0x1f\n      and\n      dup3\n      add\n      swap2\n    tag_41:\n      pop\n      pop\n      pop\n      pop\n      pop\n      swap1\n      dup1\n      0x01\n      add\n      0x00\n      swap1\n      sload\n      swap1\n      0x0100\n      exp\n      swap1\n      div\n      0xff\n      and\n      swap1\n      pop\n      dup3\n      jump\t// out\n        /* \"#utility.yul\":88:205   */\n    tag_45:\n        /* \"#utility.yul\":197:198   */\n      0x00\n        /* \"#utility.yul\":194:195   */\n      dup1\n        /* \"#utility.yul\":187:199   */\n      revert\n        /* \"#utility.yul\":211:328   */\n    tag_46:\n        /* \"#utility.yul\":320:321   */\n      0x00\n        /* \"#utility.yul\":317:318   */\n      dup1\n        /* \"#utility.yul\":310:322   */\n      revert\n        /* \"#utility.yul\":334:411   */\n    tag_47:\n        /* \"#utility.yul\":371:378   */\n      0x00\n        /* \"#utility.yul\":400:405   */\n      dup2\n        /* \"#utility.yul\":389:405   */\n      swap1\n      pop\n        /* \"#utility.yul\":334:411   */\n      swap2\n      swap1\n      pop\n      jump\t// out\n        /* \"#utility.yul\":417:539   */\n    tag_48:\n        /* \"#utility.yul\":490:514   */\n      tag_85\n        /* \"#utility.yul\":508:513   */\n      dup2\n        /* \"#utility.yul\":490:514   */\n      tag_47\n      jump\t// in\n    tag_85:\n        /* \"#utility.yul\":483:488   */\n      dup2\n        /* \"#utility.yul\":480:515   */\n      eq\n        /* \"#utility.yul\":470:533   */\n      tag_86\n      jumpi\n        /* \"#utility.yul\":529:530   */\n      0x00\n        /* \"#utility.yul\":526:527   */\n      dup1\n        /* \"#utility.yul\":519:531   */\n      revert\n        /* \"#utility.yul\":470:533   */\n    tag_86:\n        /* \"#utility.yul\":417:539   */\n      pop\n      jump\t// out\n        /* \"#utility.yul\":545:684   */\n    tag_49:\n        /* \"#utility.yul\":591:596   */\n      0x00\n        /* \"#utility.yul\":629:635   */\n      dup2\n        /* \"#utility.yul\":616:636   */\n      calldataload\n        /* \"#utility.yul\":607:636   */\n      swap1\n      pop\n        /* \"#utility.yul\":645:678   */\n      tag_88\n        /* \"#utility.yul\":672:677   */\n      dup2\n        /* \"#utility.yul\":645:678   */\n      tag_48\n      jump\t// in\n    tag_88:\n        /* \"#utility.yul\":545:684   */\n      swap3\n      swap2\n      pop\n      pop\n      jump\t// out\n        /* \"#utility.yul\":690:807   */\n    tag_50:\n        /* \"#utility.yul\":799:800   */\n      0x00\n        /* \"#utility.yul\":796:797   */\n      dup1\n        /* \"#utility.yul\":789:801   */\n      revert\n        /* \"#utility.yul\":813:930   */\n    tag_51:\n        /* \"#utility.yul\":922:923   */\n      0x00\n        /* \"#utility.yul\":919:920   */\n      dup1\n        /* \"#utility.yul\":912:924   */\n      revert\n        /* \"#utility.yul\":936:1053   */\n    tag_52:\n        /* \"#utility.yul\":1045:1046   */\n      0x00\n        /* \"#utility.yul\":1042:1043   */\n      dup1\n        /* \"#utility.yul\":1035:1047   */\n      revert\n        /* \"#utility.yul\":1073:1626   */\n    tag_53:\n        /* \"#utility.yul\":1131:1139   */\n      0x00\n        /* \"#utility.yul\":1141:1147   */\n      dup1\n        /* \"#utility.yul\":1191:1194   */\n      dup4\n        /* \"#utility.yul\":1184:1188   */\n      0x1f\n        /* \"#utility.yul\":1176:1182   */\n      dup5\n        /* \"#utility.yul\":1172:1189   */\n      add\n        /* \"#utility.yul\":1168:1195   */\n      slt\n        /* \"#utility.yul\":1158:1280   */\n      tag_93\n      jumpi\n        /* \"#utility.yul\":1199:1278   */\n      tag_94\n      tag_50\n      jump\t// in\n    tag_94:\n        /* \"#utility.yul\":1158:1280   */\n    tag_93:\n        /* \"#utility.yul\":1312:1318   */\n      dup3\n        /* \"#utility.yul\":1299:1319   */\n      calldataload\n        /* \"#utility.yul\":1289:1319   */\n      swap1\n      pop\n        /* \"#utility.yul\":1342:1360   */\n      0xffffffffffffffff\n        /* \"#utility.yul\":1334:1340   */\n      dup2\n        /* \"#utility.yul\":1331:1361   */\n      gt\n        /* \"#utility.yul\":1328:1445   */\n      iszero\n      tag_95\n      jumpi\n        /* \"#utility.yul\":1364:1443   */\n      tag_96\n      tag_51\n      jump\t// in\n    tag_96:\n        /* \"#utility.yul\":1328:1445   */\n    tag_95:\n        /* \"#utility.yul\":1478:1482   */\n      0x20\n        /* \"#utility.yul\":1470:1476   */\n      dup4\n        /* \"#utility.yul\":1466:1483   */\n      add\n        /* \"#utility.yul\":1454:1483   */\n      swap2\n      pop\n        /* \"#utility.yul\":1532:1535   */\n      dup4\n        /* \"#utility.yul\":1524:1528   */\n      0x01\n        /* \"#utility.yul\":1516:1522   */\n      dup3\n        /* \"#utility.yul\":1512:1529   */\n      mul\n        /* \"#utility.yul\":1502:1510   */\n      dup4\n        /* \"#utility.yul\":1498:1530   */\n      add\n        /* \"#utility.yul\":1495:1536   */\n      gt\n        /* \"#utility.yul\":1492:1620   */\n      iszero\n      tag_97\n      jumpi\n        /* \"#utility.yul\":1539:1618   */\n      tag_98\n      tag_52\n      jump\t// in\n    tag_98:\n        /* \"#utility.yul\":1492:1620   */\n    tag_97:\n        /* \"#utility.yul\":1073:1626   */\n      swap3\n      pop\n      swap3\n      swap1\n      pop\n      jump\t// out\n        /* \"#utility.yul\":1632:2306   */\n    tag_9:\n        /* \"#utility.yul\":1712:1718   */\n      0x00\n        /* \"#utility.yul\":1720:1726   */\n      dup1\n        /* \"#utility.yul\":1728:1734   */\n      0x00\n        /* \"#utility.yul\":1777:1779   */\n      0x40\n        /* \"#utility.yul\":1765:1774   */\n      dup5\n        /* \"#utility.yul\":1756:1763   */\n      dup7\n        /* \"#utility.yul\":1752:1775   */\n      sub\n        /* \"#utility.yul\":1748:1780   */\n      slt\n        /* \"#utility.yul\":1745:1864   */\n      iszero\n      tag_100\n      jumpi\n        /* \"#utility.yul\":1783:1862   */\n      tag_101\n      tag_45\n      jump\t// in\n    tag_101:\n        /* \"#utility.yul\":1745:1864   */\n    tag_100:\n        /* \"#utility.yul\":1903:1904   */\n      0x00\n        /* \"#utility.yul\":1928:1981   */\n      tag_102\n        /* \"#utility.yul\":1973:1980   */\n      dup7\n        /* \"#utility.yul\":1964:1970   */\n      dup3\n        /* \"#utility.yul\":1953:1962   */\n      dup8\n        /* \"#utility.yul\":1949:1971   */\n      add\n        /* \"#utility.yul\":1928:1981   */\n      tag_49\n      jump\t// in\n    tag_102:\n        /* \"#utility.yul\":1918:1981   */\n      swap4\n      pop\n        /* \"#utility.yul\":1874:1991   */\n      pop\n        /* \"#utility.yul\":2058:2060   */\n      0x20\n        /* \"#utility.yul\":2047:2056   */\n      dup5\n        /* \"#utility.yul\":2043:2061   */\n      add\n        /* \"#utility.yul\":2030:2062   */\n      calldataload\n        /* \"#utility.yul\":2089:2107   */\n      0xffffffffffffffff\n        /* \"#utility.yul\":2081:2087   */\n      dup2\n        /* \"#utility.yul\":2078:2108   */\n      gt\n        /* \"#utility.yul\":2075:2192   */\n      iszero\n      tag_103\n      jumpi\n        /* \"#utility.yul\":2111:2190   */\n      tag_104\n      tag_46\n      jump\t// in\n    tag_104:\n        /* \"#utility.yul\":2075:2192   */\n    tag_103:\n        /* \"#utility.yul\":2224:2289   */\n      tag_105\n        /* \"#utility.yul\":2281:2288   */\n      dup7\n        /* \"#utility.yul\":2272:2278   */\n      dup3\n        /* \"#utility.yul\":2261:2270   */\n      dup8\n        /* \"#utility.yul\":2257:2279   */\n      add\n        /* \"#utility.yul\":2224:2289   */\n      tag_53\n      jump\t// in\n    tag_105:\n        /* \"#utility.yul\":2206:2289   */\n      swap3\n      pop\n      swap3\n      pop\n        /* \"#utility.yul\":2001:2299   */\n      pop\n        /* \"#utility.yul\":1632:2306   */\n      swap3\n      pop\n      swap3\n      pop\n      swap3\n      jump\t// out\n        /* \"#utility.yul\":2312:2641   */\n    tag_13:\n        /* \"#utility.yul\":2371:2377   */\n      0x00\n        /* \"#utility.yul\":2420:2422   */\n      0x20\n        /* \"#utility.yul\":2408:2417   */\n      dup3\n        /* \"#utility.yul\":2399:2406   */\n      dup5\n        /* \"#utility.yul\":2395:2418   */\n      sub\n        /* \"#utility.yul\":2391:2423   */\n      slt\n        /* \"#utility.yul\":2388:2507   */\n      iszero\n      tag_107\n      jumpi\n        /* \"#utility.yul\":2426:2505   */\n      tag_108\n      tag_45\n      jump\t// in\n    tag_108:\n        /* \"#utility.yul\":2388:2507   */\n    tag_107:\n        /* \"#utility.yul\":2546:2547   */\n      0x00\n        /* \"#utility.yul\":2571:2624   */\n      tag_109\n        /* \"#utility.yul\":2616:2623   */\n      dup5\n        /* \"#utility.yul\":2607:2613   */\n      dup3\n        /* \"#utility.yul\":2596:2605   */\n      dup6\n        /* \"#utility.yul\":2592:2614   */\n      add\n        /* \"#utility.yul\":2571:2624   */\n      tag_49\n      jump\t// in\n    tag_109:\n        /* \"#utility.yul\":2561:2624   */\n      swap2\n      pop\n        /* \"#utility.yul\":2517:2634   */\n      pop\n        /* \"#utility.yul\":2312:2641   */\n      swap3\n      swap2\n      pop\n      pop\n      jump\t// out\n        /* \"#utility.yul\":2647:3176   */\n    tag_17:\n        /* \"#utility.yul\":2718:2724   */\n      0x00\n        /* \"#utility.yul\":2726:2732   */\n      dup1\n        /* \"#utility.yul\":2775:2777   */\n      0x20\n        /* \"#utility.yul\":2763:2772   */\n      dup4\n        /* \"#utility.yul\":2754:2761   */\n      dup6\n        /* \"#utility.yul\":2750:2773   */\n      sub\n        /* \"#utility.yul\":2746:2778   */\n      slt\n        /* \"#utility.yul\":2743:2862   */\n      iszero\n      tag_111\n      jumpi\n        /* \"#utility.yul\":2781:2860   */\n      tag_112\n      tag_45\n      jump\t// in\n    tag_112:\n        /* \"#utility.yul\":2743:2862   */\n    tag_111:\n        /* \"#utility.yul\":2929:2930   */\n      0x00\n        /* \"#utility.yul\":2918:2927   */\n      dup4\n        /* \"#utility.yul\":2914:2931   */\n      add\n        /* \"#utility.yul\":2901:2932   */\n      calldataload\n        /* \"#utility.yul\":2959:2977   */\n      0xffffffffffffffff\n        /* \"#utility.yul\":2951:2957   */\n      dup2\n        /* \"#utility.yul\":2948:2978   */\n      gt\n        /* \"#utility.yul\":2945:3062   */\n      iszero\n      tag_113\n      jumpi\n        /* \"#utility.yul\":2981:3060   */\n      tag_114\n      tag_46\n      jump\t// in\n    tag_114:\n        /* \"#utility.yul\":2945:3062   */\n    tag_113:\n        /* \"#utility.yul\":3094:3159   */\n      tag_115\n        /* \"#utility.yul\":3151:3158   */\n      dup6\n        /* \"#utility.yul\":3142:3148   */\n      dup3\n        /* \"#utility.yul\":3131:3140   */\n      dup7\n        /* \"#utility.yul\":3127:3149   */\n      add\n        /* \"#utility.yul\":3094:3159   */\n      tag_53\n      jump\t// in\n    tag_115:\n        /* \"#utility.yul\":3076:3159   */\n      swap3\n      pop\n      swap3\n      pop\n        /* \"#utility.yul\":2872:3169   */\n      pop\n        /* \"#utility.yul\":2647:3176   */\n      swap3\n      pop\n      swap3\n      swap1\n      pop\n      jump\t// out\n        /* \"#utility.yul\":3182:3281   */\n    tag_54:\n        /* \"#utility.yul\":3234:3240   */\n      0x00\n        /* \"#utility.yul\":3268:3273   */\n      dup2\n        /* \"#utility.yul\":3262:3274   */\n      mload\n        /* \"#utility.yul\":3252:3274   */\n      swap1\n      pop\n        /* \"#utility.yul\":3182:3281   */\n      swap2\n      swap1\n      pop\n      jump\t// out\n        /* \"#utility.yul\":3287:3456   */\n    tag_55:\n        /* \"#utility.yul\":3371:3382   */\n      0x00\n        /* \"#utility.yul\":3405:3411   */\n      dup3\n        /* \"#utility.yul\":3400:3403   */\n      dup3\n        /* \"#utility.yul\":3393:3412   */\n      mstore\n        /* \"#utility.yul\":3445:3449   */\n      0x20\n        /* \"#utility.yul\":3440:3443   */\n      dup3\n        /* \"#utility.yul\":3436:3450   */\n      add\n        /* \"#utility.yul\":3421:3450   */\n      swap1\n      pop\n        /* \"#utility.yul\":3287:3456   */\n      swap3\n      swap2\n      pop\n      pop\n      jump\t// out\n        /* \"#utility.yul\":3462:3708   */\n    tag_56:\n        /* \"#utility.yul\":3543:3544   */\n      0x00\n        /* \"#utility.yul\":3553:3666   */\n    tag_119:\n        /* \"#utility.yul\":3567:3573   */\n      dup4\n        /* \"#utility.yul\":3564:3565   */\n      dup2\n        /* \"#utility.yul\":3561:3574   */\n      lt\n        /* \"#utility.yul\":3553:3666   */\n      iszero\n      tag_121\n      jumpi\n        /* \"#utility.yul\":3652:3653   */\n      dup1\n        /* \"#utility.yul\":3647:3650   */\n      dup3\n        /* \"#utility.yul\":3643:3654   */\n      add\n        /* \"#utility.yul\":3637:3655   */\n      mload\n        /* \"#utility.yul\":3633:3634   */\n      dup2\n        /* \"#utility.yul\":3628:3631   */\n      dup5\n        /* \"#utility.yul\":3624:3635   */\n      add\n        /* \"#utility.yul\":3617:3656   */\n      mstore\n        /* \"#utility.yul\":3589:3591   */\n      0x20\n        /* \"#utility.yul\":3586:3587   */\n      dup2\n        /* \"#utility.yul\":3582:3592   */\n      add\n        /* \"#utility.yul\":3577:3592   */\n      swap1\n      pop\n        /* \"#utility.yul\":3553:3666   */\n      jump(tag_119)\n    tag_121:\n        /* \"#utility.yul\":3700:3701   */\n      0x00\n        /* \"#utility.yul\":3691:3697   */\n      dup5\n        /* \"#utility.yul\":3686:3689   */\n      dup5\n        /* \"#utility.yul\":3682:3698   */\n      add\n        /* \"#utility.yul\":3675:3702   */\n      mstore\n        /* \"#utility.yul\":3524:3708   */\n      pop\n        /* \"#utility.yul\":3462:3708   */\n      pop\n      pop\n      pop\n      jump\t// out\n        /* \"#utility.yul\":3714:3816   */\n    tag_57:\n        /* \"#utility.yul\":3755:3761   */\n      0x00\n        /* \"#utility.yul\":3806:3808   */\n      0x1f\n        /* \"#utility.yul\":3802:3809   */\n      not\n        /* \"#utility.yul\":3797:3799   */\n      0x1f\n        /* \"#utility.yul\":3790:3795   */\n      dup4\n        /* \"#utility.yul\":3786:3800   */\n      add\n        /* \"#utility.yul\":3782:3810   */\n      and\n        /* \"#utility.yul\":3772:3810   */\n      swap1\n      pop\n        /* \"#utility.yul\":3714:3816   */\n      swap2\n      swap1\n      pop\n      jump\t// out\n        /* \"#utility.yul\":3822:4199   */\n    tag_58:\n        /* \"#utility.yul\":3910:3913   */\n      0x00\n        /* \"#utility.yul\":3938:3977   */\n      tag_124\n        /* \"#utility.yul\":3971:3976   */\n      dup3\n        /* \"#utility.yul\":3938:3977   */\n      tag_54\n      jump\t// in\n    tag_124:\n        /* \"#utility.yul\":3993:4064   */\n      tag_125\n        /* \"#utility.yul\":4057:4063   */\n      dup2\n        /* \"#utility.yul\":4052:4055   */\n      dup6\n        /* \"#utility.yul\":3993:4064   */\n      tag_55\n      jump\t// in\n    tag_125:\n        /* \"#utility.yul\":3986:4064   */\n      swap4\n      pop\n        /* \"#utility.yul\":4073:4138   */\n      tag_126\n        /* \"#utility.yul\":4131:4137   */\n      dup2\n        /* \"#utility.yul\":4126:4129   */\n      dup6\n        /* \"#utility.yul\":4119:4123   */\n      0x20\n        /* \"#utility.yul\":4112:4117   */\n      dup7\n        /* \"#utility.yul\":4108:4124   */\n      add\n        /* \"#utility.yul\":4073:4138   */\n      tag_56\n      jump\t// in\n    tag_126:\n        /* \"#utility.yul\":4163:4192   */\n      tag_127\n        /* \"#utility.yul\":4185:4191   */\n      dup2\n        /* \"#utility.yul\":4163:4192   */\n      tag_57\n      jump\t// in\n    tag_127:\n        /* \"#utility.yul\":4158:4161   */\n      dup5\n        /* \"#utility.yul\":4154:4193   */\n      add\n        /* \"#utility.yul\":4147:4193   */\n      swap2\n      pop\n        /* \"#utility.yul\":3914:4199   */\n      pop\n        /* \"#utility.yul\":3822:4199   */\n      swap3\n      swap2\n      pop\n      pop\n      jump\t// out\n        /* \"#utility.yul\":4205:4295   */\n    tag_59:\n        /* \"#utility.yul\":4239:4246   */\n      0x00\n        /* \"#utility.yul\":4282:4287   */\n      dup2\n        /* \"#utility.yul\":4275:4288   */\n      iszero\n        /* \"#utility.yul\":4268:4289   */\n      iszero\n        /* \"#utility.yul\":4257:4289   */\n      swap1\n      pop\n        /* \"#utility.yul\":4205:4295   */\n      swap2\n      swap1\n      pop\n      jump\t// out\n        /* \"#utility.yul\":4301:4410   */\n    tag_60:\n        /* \"#utility.yul\":4382:4403   */\n      tag_130\n        /* \"#utility.yul\":4397:4402   */\n      dup2\n        /* \"#utility.yul\":4382:4403   */\n      tag_59\n      jump\t// in\n    tag_130:\n        /* \"#utility.yul\":4377:4380   */\n      dup3\n        /* \"#utility.yul\":4370:4404   */\n      mstore\n        /* \"#utility.yul\":4301:4410   */\n      pop\n      pop\n      jump\t// out\n        /* \"#utility.yul\":4416:4827   */\n    tag_23:\n        /* \"#utility.yul\":4551:4555   */\n      0x00\n        /* \"#utility.yul\":4589:4591   */\n      0x40\n        /* \"#utility.yul\":4578:4587   */\n      dup3\n        /* \"#utility.yul\":4574:4592   */\n      add\n        /* \"#utility.yul\":4566:4592   */\n      swap1\n      pop\n        /* \"#utility.yul\":4638:4647   */\n      dup2\n        /* \"#utility.yul\":4632:4636   */\n      dup2\n        /* \"#utility.yul\":4628:4648   */\n      sub\n        /* \"#utility.yul\":4624:4625   */\n      0x00\n        /* \"#utility.yul\":4613:4622   */\n      dup4\n        /* \"#utility.yul\":4609:4626   */\n      add\n        /* \"#utility.yul\":4602:4649   */\n      mstore\n        /* \"#utility.yul\":4666:4744   */\n      tag_132\n        /* \"#utility.yul\":4739:4743   */\n      dup2\n        /* \"#utility.yul\":4730:4736   */\n      dup6\n        /* \"#utility.yul\":4666:4744   */\n      tag_58\n      jump\t// in\n    tag_132:\n        /* \"#utility.yul\":4658:4744   */\n      swap1\n      pop\n        /* \"#utility.yul\":4754:4820   */\n      tag_133\n        /* \"#utility.yul\":4816:4818   */\n      0x20\n        /* \"#utility.yul\":4805:4814   */\n      dup4\n        /* \"#utility.yul\":4801:4819   */\n      add\n        /* \"#utility.yul\":4792:4798   */\n      dup5\n        /* \"#utility.yul\":4754:4820   */\n      tag_60\n      jump\t// in\n    tag_133:\n        /* \"#utility.yul\":4416:4827   */\n      swap4\n      swap3\n      pop\n      pop\n      pop\n      jump\t// out\n        /* \"#utility.yul\":4833:5013   */\n    tag_27:\n        /* \"#utility.yul\":4881:4958   */\n      0x4e487b7100000000000000000000000000000000000000000000000000000000\n        /* \"#utility.yul\":4878:4879   */\n      0x00\n        /* \"#utility.yul\":4871:4959   */\n      mstore\n        /* \"#utility.yul\":4978:4982   */\n      0x32\n        /* \"#utility.yul\":4975:4976   */\n      0x04\n        /* \"#utility.yul\":4968:4983   */\n      mstore\n        /* \"#utility.yul\":5002:5006   */\n      0x24\n        /* \"#utility.yul\":4999:5000   */\n      0x00\n        /* \"#utility.yul\":4992:5007   */\n      revert\n        /* \"#utility.yul\":5019:5116   */\n    tag_61:\n        /* \"#utility.yul\":5078:5084   */\n      0x00\n        /* \"#utility.yul\":5106:5109   */\n      dup3\n        /* \"#utility.yul\":5096:5109   */\n      swap1\n      pop\n        /* \"#utility.yul\":5019:5116   */\n      swap3\n      swap2\n      pop\n      pop\n      jump\t// out\n        /* \"#utility.yul\":5122:5302   */\n    tag_62:\n        /* \"#utility.yul\":5170:5247   */\n      0x4e487b7100000000000000000000000000000000000000000000000000000000\n        /* \"#utility.yul\":5167:5168   */\n      0x00\n        /* \"#utility.yul\":5160:5248   */\n      mstore\n        /* \"#utility.yul\":5267:5271   */\n      0x41\n        /* \"#utility.yul\":5264:5265   */\n      0x04\n        /* \"#utility.yul\":5257:5272   */\n      mstore\n        /* \"#utility.yul\":5291:5295   */\n      0x24\n        /* \"#utility.yul\":5288:5289   */\n      0x00\n        /* \"#utility.yul\":5281:5296   */\n      revert\n        /* \"#utility.yul\":5308:5488   */\n    tag_63:\n        /* \"#utility.yul\":5356:5433   */\n      0x4e487b7100000000000000000000000000000000000000000000000000000000\n        /* \"#utility.yul\":5353:5354   */\n      0x00\n        /* \"#utility.yul\":5346:5434   */\n      mstore\n        /* \"#utility.yul\":5453:5457   */\n      0x22\n        /* \"#utility.yul\":5450:5451   */\n      0x04\n        /* \"#utility.yul\":5443:5458   */\n      mstore\n        /* \"#utility.yul\":5477:5481   */\n      0x24\n        /* \"#utility.yul\":5474:5475   */\n      0x00\n        /* \"#utility.yul\":5467:5482   */\n      revert\n        /* \"#utility.yul\":5494:5814   */\n    tag_39:\n        /* \"#utility.yul\":5538:5544   */\n      0x00\n        /* \"#utility.yul\":5575:5576   */\n      0x02\n        /* \"#utility.yul\":5569:5573   */\n      dup3\n        /* \"#utility.yul\":5565:5577   */\n      div\n        /* \"#utility.yul\":5555:5577   */\n      swap1\n      pop\n        /* \"#utility.yul\":5622:5623   */\n      0x01\n        /* \"#utility.yul\":5616:5620   */\n      dup3\n        /* \"#utility.yul\":5612:5624   */\n      and\n        /* \"#utility.yul\":5643:5661   */\n      dup1\n        /* \"#utility.yul\":5633:5714   */\n      tag_139\n      jumpi\n        /* \"#utility.yul\":5699:5703   */\n      0x7f\n        /* \"#utility.yul\":5691:5697   */\n      dup3\n        /* \"#utility.yul\":5687:5704   */\n      and\n        /* \"#utility.yul\":5677:5704   */\n      swap2\n      pop\n        /* \"#utility.yul\":5633:5714   */\n    tag_139:\n        /* \"#utility.yul\":5761:5763   */\n      0x20\n        /* \"#utility.yul\":5753:5759   */\n      dup3\n        /* \"#utility.yul\":5750:5764   */\n      lt\n        /* \"#utility.yul\":5730:5748   */\n      dup2\n        /* \"#utility.yul\":5727:5765   */\n      sub\n        /* \"#utility.yul\":5724:5808   */\n      tag_140\n      jumpi\n        /* \"#utility.yul\":5780:5798   */\n      tag_141\n      tag_63\n      jump\t// in\n    tag_141:\n        /* \"#utility.yul\":5724:5808   */\n    tag_140:\n        /* \"#utility.yul\":5545:5814   */\n      pop\n        /* \"#utility.yul\":5494:5814   */\n      swap2\n      swap1\n      pop\n      jump\t// out\n        /* \"#utility.yul\":5820:5961   */\n    tag_64:\n        /* \"#utility.yul\":5869:5873   */\n      0x00\n        /* \"#utility.yul\":5892:5895   */\n      dup2\n        /* \"#utility.yul\":5884:5895   */\n      swap1\n      pop\n        /* \"#utility.yul\":5915:5918   */\n      dup2\n        /* \"#utility.yul\":5912:5913   */\n      0x00\n        /* \"#utility.yul\":5905:5919   */\n      mstore\n        /* \"#utility.yul\":5949:5953   */\n      0x20\n        /* \"#utility.yul\":5946:5947   */\n      0x00\n        /* \"#utility.yul\":5936:5954   */\n      keccak256\n        /* \"#utility.yul\":5928:5954   */\n      swap1\n      pop\n        /* \"#utility.yul\":5820:5961   */\n      swap2\n      swap1\n      pop\n      jump\t// out\n        /* \"#utility.yul\":5967:6060   */\n    tag_65:\n        /* \"#utility.yul\":6004:6010   */\n      0x00\n        /* \"#utility.yul\":6051:6053   */\n      0x20\n        /* \"#utility.yul\":6046:6048   */\n      0x1f\n        /* \"#utility.yul\":6039:6044   */\n      dup4\n        /* \"#utility.yul\":6035:6049   */\n      add\n        /* \"#utility.yul\":6031:6054   */\n      div\n        /* \"#utility.yul\":6021:6054   */\n      swap1\n      pop\n        /* \"#utility.yul\":5967:6060   */\n      swap2\n      swap1\n      pop\n      jump\t// out\n        /* \"#utility.yul\":6066:6173   */\n    tag_66:\n        /* \"#utility.yul\":6110:6118   */\n      0x00\n        /* \"#utility.yul\":6160:6165   */\n      dup3\n        /* \"#utility.yul\":6154:6158   */\n      dup3\n        /* \"#utility.yul\":6150:6166   */\n      shl\n        /* \"#utility.yul\":6129:6166   */\n      swap1\n      pop\n        /* \"#utility.yul\":6066:6173   */\n      swap3\n      swap2\n      pop\n      pop\n      jump\t// out\n        /* \"#utility.yul\":6179:6572   */\n    tag_67:\n        /* \"#utility.yul\":6248:6254   */\n      0x00\n        /* \"#utility.yul\":6298:6299   */\n      0x08\n        /* \"#utility.yul\":6286:6296   */\n      dup4\n        /* \"#utility.yul\":6282:6300   */\n      mul\n        /* \"#utility.yul\":6321:6418   */\n      tag_146\n        /* \"#utility.yul\":6351:6417   */\n      0xffffffffffffffffffffffffffffffffffffffffffffffffffffffffffffffff\n        /* \"#utility.yul\":6340:6349   */\n      dup3\n        /* \"#utility.yul\":6321:6418   */\n      tag_66\n      jump\t// in\n    tag_146:\n        /* \"#utility.yul\":6439:6478   */\n      tag_147\n        /* \"#utility.yul\":6469:6477   */\n      dup7\n        /* \"#utility.yul\":6458:6467   */\n      dup4\n        /* \"#utility.yul\":6439:6478   */\n      tag_66\n      jump\t// in\n    tag_147:\n        /* \"#utility.yul\":6427:6478   */\n      swap6\n      pop\n        /* \"#utility.yul\":6511:6515   */\n      dup1\n        /* \"#utility.yul\":6507:6516   */\n      not\n        /* \"#utility.yul\":6500:6505   */\n      dup5\n        /* \"#utility.yul\":6496:6517   */\n      and\n        /* \"#utility.yul\":6487:6517   */\n      swap4\n      pop\n        /* \"#utility.yul\":6560:6564   */\n      dup1\n        /* \"#utility.yul\":6550:6558   */\n      dup7\n        /* \"#utility.yul\":6546:6565   */\n      and\n        /* \"#utility.yul\":6539:6544   */\n      dup5\n        /* \"#utility.yul\":6536:6566   */\n      or\n        /* \"#utility.yul\":6526:6566   */\n      swap3\n      pop\n        /* \"#utility.yul\":6255:6572   */\n      pop\n      pop\n        /* \"#utility.yul\":6179:6572   */\n      swap4\n      swap3\n      pop\n      pop\n      pop\n      jump\t// out\n        /* \"#utility.yul\":6578:6638   */\n    tag_68:\n        /* \"#utility.yul\":6606:6609   */\n      0x00\n        /* \"#utility.yul\":6627:6632   */\n      dup2\n        /* \"#utility.yul\":6620:6632   */\n      swap1\n      pop\n        /* \"#utility.yul\":6578:6638   */\n      swap2\n      swap1\n      pop\n      jump\t// out\n        /* \"#utility.yul\":6644:6786   */\n    tag_69:\n        /* \"#utility.yul\":6694:6703   */\n      0x00\n        /* \"#utility.yul\":6727:6780   */\n      tag_150\n        /* \"#utility.yul\":6745:6779   */\n      tag_151\n        /* \"#utility.yul\":6754:6778   */\n      tag_152\n        /* \"#utility.yul\":6772:6777   */\n      dup5\n        /* \"#utility.yul\":6754:6778   */\n      tag_47\n      jump\t// in\n    tag_152:\n        /* \"#utility.yul\":6745:6779   */\n      tag_68\n      jump\t// in\n    tag_151:\n        /* \"#utility.yul\":6727:6780   */\n      tag_47\n      jump\t// in\n    tag_150:\n        /* \"#utility.yul\":6714:6780   */\n      swap1\n      pop\n        /* \"#utility.yul\":6644:6786   */\n      swap2\n      swap1\n      pop\n      jump\t// out\n        /* \"#utility.yul\":6792:6867   */\n    tag_70:\n        /* \"#utility.yul\":6835:6838   */\n      0x00\n        /* \"#utility.yul\":6856:6861   */\n      dup2\n        /* \"#utility.yul\":6849:6861   */\n      swap1\n      pop\n        /* \"#utility.yul\":6792:6867   */\n      swap2\n      swap1\n      pop\n      jump\t// out\n        /* \"#utility.yul\":6873:7142   */\n    tag_71:\n        /* \"#utility.yul\":6983:7022   */\n      tag_155\n        /* \"#utility.yul\":7014:7021   */\n      dup4\n        /* \"#utility.yul\":6983:7022   */\n      tag_69\n      jump\t// in\n    tag_155:\n        /* \"#utility.yul\":7044:7135   */\n      tag_156\n        /* \"#utility.yul\":7093:7134   */\n      tag_157\n        /* \"#utility.yul\":7117:7133   */\n      dup3\n        /* \"#utility.yul\":7093:7134   */\n      tag_70\n      jump\t// in\n    tag_157:\n        /* \"#utility.yul\":7085:7091   */\n      dup5\n        /* \"#utility.yul\":7078:7082   */\n      dup5\n        /* \"#utility.yul\":7072:7083   */\n      sload\n        /* \"#utility.yul\":7044:7135   */\n      tag_67\n      jump\t// in\n    tag_156:\n        /* \"#utility.yul\":7038:7042   */\n      dup3\n        /* \"#utility.yul\":7031:7136   */\n      sstore\n        /* \"#utility.yul\":6949:7142   */\n      pop\n        /* \"#utility.yul\":6873:7142   */\n      pop\n      pop\n      pop\n      jump\t// out\n        /* \"#utility.yul\":7148:7221   */\n    tag_72:\n        /* \"#utility.yul\":7193:7196   */\n      0x00\n        /* \"#utility.yul\":7148:7221   */\n      swap1\n      jump\t// out\n        /* \"#utility.yul\":7227:7416   */\n    tag_73:\n        /* \"#utility.yul\":7304:7336   */\n      tag_160\n      tag_72\n      jump\t// in\n    tag_160:\n        /* \"#utility.yul\":7345:7410   */\n      tag_161\n        /* \"#utility.yul\":7403:7409   */\n      dup2\n        /* \"#utility.yul\":7395:7401   */\n      dup5\n        /* \"#utility.yul\":7389:7393   */\n      dup5\n        /* \"#utility.yul\":7345:7410   */\n      tag_71\n      jump\t// in\n    tag_161:\n        /* \"#utility.yul\":7280:7416   */\n      pop\n        /* \"#utility.yul\":7227:7416   */\n      pop\n      pop\n      jump\t// out\n        /* \"#utility.yul\":7422:7608   */\n    tag_74:\n        /* \"#utility.yul\":7482:7602   */\n    tag_163:\n        /* \"#utility.yul\":7499:7502   */\n      dup2\n        /* \"#utility.yul\":7492:7497   */\n      dup2\n        /* \"#utility.yul\":7489:7503   */\n      lt\n        /* \"#utility.yul\":7482:7602   */\n      iszero\n      tag_165\n      jumpi\n        /* \"#utility.yul\":7553:7592   */\n      tag_166\n        /* \"#utility.yul\":7590:7591   */\n      0x00\n        /* \"#utility.yul\":7583:7588   */\n      dup3\n        /* \"#utility.yul\":7553:7592   */\n      tag_73\n      jump\t// in\n    tag_166:\n        /* \"#utility.yul\":7526:7527   */\n      0x01\n        /* \"#utility.yul\":7519:7524   */\n      dup2\n        /* \"#utility.yul\":7515:7528   */\n      add\n        /* \"#utility.yul\":7506:7528   */\n      swap1\n      pop\n        /* \"#utility.yul\":7482:7602   */\n      jump(tag_163)\n    tag_165:\n        /* \"#utility.yul\":7422:7608   */\n      pop\n      pop\n      jump\t// out\n        /* \"#utility.yul\":7614:8157   */\n    tag_75:\n        /* \"#utility.yul\":7715:7717   */\n      0x1f\n        /* \"#utility.yul\":7710:7713   */\n      dup3\n        /* \"#utility.yul\":7707:7718   */\n      gt\n        /* \"#utility.yul\":7704:8150   */\n      iszero\n      tag_168\n      jumpi\n        /* \"#utility.yul\":7749:7787   */\n      tag_169\n        /* \"#utility.yul\":7781:7786   */\n      dup2\n        /* \"#utility.yul\":7749:7787   */\n      tag_64\n      jump\t// in\n    tag_169:\n        /* \"#utility.yul\":7833:7862   */\n      tag_170\n        /* \"#utility.yul\":7851:7861   */\n      dup5\n        /* \"#utility.yul\":7833:7862   */\n      tag_65\n      jump\t// in\n    tag_170:\n        /* \"#utility.yul\":7823:7831   */\n      dup2\n        /* \"#utility.yul\":7819:7863   */\n      add\n        /* \"#utility.yul\":8016:8018   */\n      0x20\n        /* \"#utility.yul\":8004:8014   */\n      dup6\n        /* \"#utility.yul\":8001:8019   */\n      lt\n        /* \"#utility.yul\":7998:8047   */\n      iszero\n      tag_171\n      jumpi\n        /* \"#utility.yul\":8037:8045   */\n      dup2\n        /* \"#utility.yul\":8022:8045   */\n      swap1\n      pop\n        /* \"#utility.yul\":7998:8047   */\n    tag_171:\n        /* \"#utility.yul\":8060:8140   */\n      tag_172\n        /* \"#utility.yul\":8116:8138   */\n      tag_173\n        /* \"#utility.yul\":8134:8137   */\n      dup6\n        /* \"#utility.yul\":8116:8138   */\n      tag_65\n      jump\t// in\n    tag_173:\n        /* \"#utility.yul\":8106:8114   */\n      dup4\n        /* \"#utility.yul\":8102:8139   */\n      add\n        /* \"#utility.yul\":8089:8100   */\n      dup3\n        /* \"#utility.yul\":8060:8140   */\n      tag_74\n      jump\t// in\n    tag_172:\n        /* \"#utility.yul\":7719:8150   */\n      pop\n      pop\n        /* \"#utility.yul\":7704:8150   */\n    tag_168:\n        /* \"#utility.yul\":7614:8157   */\n      pop\n      pop\n      pop\n      jump\t// out\n        /* \"#utility.yul\":8163:8280   */\n    tag_76:\n        /* \"#utility.yul\":8217:8225   */\n      0x00\n        /* \"#utility.yul\":8267:8272   */\n      dup3\n        /* \"#utility.yul\":8261:8265   */\n      dup3\n        /* \"#utility.yul\":8257:8273   */\n      shr\n        /* \"#utility.yul\":8236:8273   */\n      swap1\n      pop\n        /* \"#utility.yul\":8163:8280   */\n      swap3\n      swap2\n      pop\n      pop\n      jump\t// out\n        /* \"#utility.yul\":8286:8455   */\n    tag_77:\n        /* \"#utility.yul\":8330:8336   */\n      0x00\n        /* \"#utility.yul\":8363:8414   */\n      tag_176\n        /* \"#utility.yul\":8411:8412   */\n      0x00\n        /* \"#utility.yul\":8407:8413   */\n      not\n        /* \"#utility.yul\":8399:8404   */\n      dup5\n        /* \"#utility.yul\":8396:8397   */\n      0x08\n        /* \"#utility.yul\":8392:8405   */\n      mul\n        /* \"#utility.yul\":8363:8414   */\n      tag_76\n      jump\t// in\n    tag_176:\n        /* \"#utility.yul\":8359:8415   */\n      not\n        /* \"#utility.yul\":8444:8448   */\n      dup1\n        /* \"#utility.yul\":8438:8442   */\n      dup4\n        /* \"#utility.yul\":8434:8449   */\n      and\n        /* \"#utility.yul\":8424:8449   */\n      swap2\n      pop\n        /* \"#utility.yul\":8337:8455   */\n      pop\n        /* \"#utility.yul\":8286:8455   */\n      swap3\n      swap2\n      pop\n      pop\n      jump\t// out\n        /* \"#utility.yul\":8460:8755   */\n    tag_78:\n        /* \"#utility.yul\":8536:8540   */\n      0x00\n        /* \"#utility.yul\":8682:8711   */\n      tag_178\n        /* \"#utility.yul\":8707:8710   */\n      dup4\n        /* \"#utility.yul\":8701:8705   */\n      dup4\n        /* \"#utility.yul\":8682:8711   */\n      tag_77\n      jump\t// in\n    tag_178:\n        /* \"#utility.yul\":8674:8711   */\n      swap2\n      pop\n        /* \"#utility.yul\":8744:8747   */\n      dup3\n        /* \"#utility.yul\":8741:8742   */\n      0x02\n        /* \"#utility.yul\":8737:8748   */\n      mul\n        /* \"#utility.yul\":8731:8735   */\n      dup3\n        /* \"#utility.yul\":8728:8749   */\n      or\n        /* \"#utility.yul\":8720:8749   */\n      swap1\n      pop\n        /* \"#utility.yul\":8460:8755   */\n      swap3\n      swap2\n      pop\n      pop\n      jump\t// out\n        /* \"#utility.yul\":8760:10163   */\n    tag_30:\n        /* \"#utility.yul\":8884:8928   */\n      tag_180\n        /* \"#utility.yul\":8924:8927   */\n      dup4\n        /* \"#utility.yul\":8919:8922   */\n      dup4\n        /* \"#utility.yul\":8884:8928   */\n      tag_61\n      jump\t// in\n    tag_180:\n        /* \"#utility.yul\":8993:9011   */\n      0xffffffffffffffff\n        /* \"#utility.yul\":8985:8991   */\n      dup2\n        /* \"#utility.yul\":8982:9012   */\n      gt\n        /* \"#utility.yul\":8979:9035   */\n      iszero\n      tag_181\n      jumpi\n        /* \"#utility.yul\":9015:9033   */\n      tag_182\n      tag_62\n      jump\t// in\n    tag_182:\n        /* \"#utility.yul\":8979:9035   */\n    tag_181:\n        /* \"#utility.yul\":9059:9097   */\n      tag_183\n        /* \"#utility.yul\":9091:9095   */\n      dup3\n        /* \"#utility.yul\":9085:9096   */\n      sload\n        /* \"#utility.yul\":9059:9097   */\n      tag_39\n      jump\t// in\n    tag_183:\n        /* \"#utility.yul\":9144:9211   */\n      tag_184\n        /* \"#utility.yul\":9204:9210   */\n      dup3\n        /* \"#utility.yul\":9196:9202   */\n      dup3\n        /* \"#utility.yul\":9190:9194   */\n      dup6\n        /* \"#utility.yul\":9144:9211   */\n      tag_75\n      jump\t// in\n    tag_184:\n        /* \"#utility.yul\":9238:9239   */\n      0x00\n        /* \"#utility.yul\":9267:9269   */\n      0x1f\n        /* \"#utility.yul\":9259:9265   */\n      dup4\n        /* \"#utility.yul\":9256:9270   */\n      gt\n        /* \"#utility.yul\":9284:9285   */\n      0x01\n        /* \"#utility.yul\":9279:9911   */\n      dup2\n      eq\n      tag_186\n      jumpi\n        /* \"#utility.yul\":9955:9956   */\n      0x00\n        /* \"#utility.yul\":9972:9978   */\n      dup5\n        /* \"#utility.yul\":9969:10053   */\n      iszero\n      tag_187\n      jumpi\n        /* \"#utility.yul\":10028:10037   */\n      dup3\n        /* \"#utility.yul\":10023:10026   */\n      dup8\n        /* \"#utility.yul\":10019:10038   */\n      add\n        /* \"#utility.yul\":10006:10039   */\n      calldataload\n        /* \"#utility.yul\":9997:10039   */\n      swap1\n      pop\n        /* \"#utility.yul\":9969:10053   */\n    tag_187:\n        /* \"#utility.yul\":10079:10146   */\n      tag_188\n        /* \"#utility.yul\":10139:10145   */\n      dup6\n        /* \"#utility.yul\":10132:10137   */\n      dup3\n        /* \"#utility.yul\":10079:10146   */\n      tag_78\n      jump\t// in\n    tag_188:\n        /* \"#utility.yul\":10073:10077   */\n      dup7\n        /* \"#utility.yul\":10066:10147   */\n      sstore\n        /* \"#utility.yul\":9928:10157   */\n      pop\n        /* \"#utility.yul\":9249:10157   */\n      jump(tag_185)\n        /* \"#utility.yul\":9279:9911   */\n    tag_186:\n        /* \"#utility.yul\":9331:9335   */\n      0x1f\n        /* \"#utility.yul\":9327:9336   */\n      not\n        /* \"#utility.yul\":9319:9325   */\n      dup5\n        /* \"#utility.yul\":9315:9337   */\n      and\n        /* \"#utility.yul\":9365:9402   */\n      tag_189\n        /* \"#utility.yul\":9397:9401   */\n      dup7\n        /* \"#utility.yul\":9365:9402   */\n      tag_64\n      jump\t// in\n    tag_189:\n        /* \"#utility.yul\":9424:9425   */\n      0x00\n        /* \"#utility.yul\":9438:9653   */\n    tag_190:\n        /* \"#utility.yul\":9452:9459   */\n      dup3\n        /* \"#utility.yul\":9449:9450   */\n      dup2\n        /* \"#utility.yul\":9446:9460   */\n      lt\n        /* \"#utility.yul\":9438:9653   */\n      iszero\n      tag_192\n      jumpi\n        /* \"#utility.yul\":9538:9547   */\n      dup5\n        /* \"#utility.yul\":9533:9536   */\n      dup10\n        /* \"#utility.yul\":9529:9548   */\n      add\n        /* \"#utility.yul\":9516:9549   */\n      calldataload\n        /* \"#utility.yul\":9508:9514   */\n      dup3\n        /* \"#utility.yul\":9501:9550   */\n      sstore\n        /* \"#utility.yul\":9589:9590   */\n      0x01\n        /* \"#utility.yul\":9581:9587   */\n      dup3\n        /* \"#utility.yul\":9577:9591   */\n      add\n        /* \"#utility.yul\":9567:9591   */\n      swap2\n      pop\n        /* \"#utility.yul\":9636:9638   */\n      0x20\n        /* \"#utility.yul\":9625:9634   */\n      dup6\n        /* \"#utility.yul\":9621:9639   */\n      add\n        /* \"#utility.yul\":9608:9639   */\n      swap5\n      pop\n        /* \"#utility.yul\":9475:9479   */\n      0x20\n        /* \"#utility.yul\":9472:9473   */\n      dup2\n        /* \"#utility.yul\":9468:9480   */\n      add\n        /* \"#utility.yul\":9463:9480   */\n      swap1\n      pop\n        /* \"#utility.yul\":9438:9653   */\n      jump(tag_190)\n    tag_192:\n        /* \"#utility.yul\":9681:9687   */\n      dup7\n        /* \"#utility.yul\":9672:9679   */\n      dup4\n        /* \"#utility.yul\":9669:9688   */\n      lt\n        /* \"#utility.yul\":9666:9852   */\n      iszero\n      tag_193\n      jumpi\n        /* \"#utility.yul\":9746:9755   */\n      dup5\n        /* \"#utility.yul\":9741:9744   */\n      dup10\n        /* \"#utility.yul\":9737:9756   */\n      add\n        /* \"#utility.yul\":9724:9757   */\n      calldataload\n        /* \"#utility.yul\":9789:9837   */\n      tag_194\n        /* \"#utility.yul\":9831:9835   */\n      0x1f\n        /* \"#utility.yul\":9823:9829   */\n      dup10\n        /* \"#utility.yul\":9819:9836   */\n      and\n        /* \"#utility.yul\":9808:9817   */\n      dup3\n        /* \"#utility.yul\":9789:9837   */\n      tag_77\n      jump\t// in\n    tag_194:\n        /* \"#utility.yul\":9781:9787   */\n      dup4\n        /* \"#utility.yul\":9774:9838   */\n      sstore\n        /* \"#utility.yul\":9689:9852   */\n      pop\n        /* \"#utility.yul\":9666:9852   */\n    tag_193:\n        /* \"#utility.yul\":9898:9899   */\n      0x01\n        /* \"#utility.yul\":9894:9895   */\n      0x02\n        /* \"#utility.yul\":9886:9892   */\n      dup9\n        /* \"#utility.yul\":9882:9896   */\n      mul\n        /* \"#utility.yul\":9878:9900   */\n      add\n        /* \"#utility.yul\":9872:9876   */\n      dup9\n        /* \"#utility.yul\":9865:9901   */\n      sstore\n        /* \"#utility.yul\":9286:9911   */\n      pop\n      pop\n      pop\n        /* \"#utility.yul\":9249:10157   */\n    tag_185:\n      pop\n        /* \"#utility.yul\":8859:10163   */\n      pop\n      pop\n      pop\n        /* \"#utility.yul\":8760:10163   */\n      pop\n      pop\n      pop\n      jump\t// out\n        /* \"#utility.yul\":10169:11564   */\n    tag_35:\n        /* \"#utility.yul\":10286:10323   */\n      tag_196\n        /* \"#utility.yul\":10319:10322   */\n      dup3\n        /* \"#utility.yul\":10286:10323   */\n      tag_54\n      jump\t// in\n    tag_196:\n        /* \"#utility.yul\":10388:10406   */\n      0xffffffffffffffff\n        /* \"#utility.yul\":10380:10386   */\n      dup2\n        /* \"#utility.yul\":10377:10407   */\n      gt\n        /* \"#utility.yul\":10374:10430   */\n      iszero\n      tag_197\n      jumpi\n        /* \"#utility.yul\":10410:10428   */\n      tag_198\n      tag_62\n      jump\t// in\n    tag_198:\n        /* \"#utility.yul\":10374:10430   */\n    tag_197:\n        /* \"#utility.yul\":10454:10492   */\n      tag_199\n        /* \"#utility.yul\":10486:10490   */\n      dup3\n        /* \"#utility.yul\":10480:10491   */\n      sload\n        /* \"#utility.yul\":10454:10492   */\n      tag_39\n      jump\t// in\n    tag_199:\n        /* \"#utility.yul\":10539:10606   */\n      tag_200\n        /* \"#utility.yul\":10599:10605   */\n      dup3\n        /* \"#utility.yul\":10591:10597   */\n      dup3\n        /* \"#utility.yul\":10585:10589   */\n      dup6\n        /* \"#utility.yul\":10539:10606   */\n      tag_75\n      jump\t// in\n    tag_200:\n        /* \"#utility.yul\":10633:10634   */\n      0x00\n        /* \"#utility.yul\":10657:10661   */\n      0x20\n        /* \"#utility.yul\":10644:10661   */\n      swap1\n      pop\n        /* \"#utility.yul\":10689:10691   */\n      0x1f\n        /* \"#utility.yul\":10681:10687   */\n      dup4\n        /* \"#utility.yul\":10678:10692   */\n      gt\n        /* \"#utility.yul\":10706:10707   */\n      0x01\n        /* \"#utility.yul\":10701:11319   */\n      dup2\n      eq\n      tag_202\n      jumpi\n        /* \"#utility.yul\":11363:11364   */\n      0x00\n        /* \"#utility.yul\":11380:11386   */\n      dup5\n        /* \"#utility.yul\":11377:11454   */\n      iszero\n      tag_203\n      jumpi\n        /* \"#utility.yul\":11429:11438   */\n      dup3\n        /* \"#utility.yul\":11424:11427   */\n      dup8\n        /* \"#utility.yul\":11420:11439   */\n      add\n        /* \"#utility.yul\":11414:11440   */\n      mload\n        /* \"#utility.yul\":11405:11440   */\n      swap1\n      pop\n        /* \"#utility.yul\":11377:11454   */\n    tag_203:\n        /* \"#utility.yul\":11480:11547   */\n      tag_204\n        /* \"#utility.yul\":11540:11546   */\n      dup6\n        /* \"#utility.yul\":11533:11538   */\n      dup3\n        /* \"#utility.yul\":11480:11547   */\n      tag_78\n      jump\t// in\n    tag_204:\n        /* \"#utility.yul\":11474:11478   */\n      dup7\n        /* \"#utility.yul\":11467:11548   */\n      sstore\n        /* \"#utility.yul\":11336:11558   */\n      pop\n        /* \"#utility.yul\":10671:11558   */\n      jump(tag_201)\n        /* \"#utility.yul\":10701:11319   */\n    tag_202:\n        /* \"#utility.yul\":10753:10757   */\n      0x1f\n        /* \"#utility.yul\":10749:10758   */\n      not\n        /* \"#utility.yul\":10741:10747   */\n      dup5\n        /* \"#utility.yul\":10737:10759   */\n      and\n        /* \"#utility.yul\":10787:10824   */\n      tag_205\n        /* \"#utility.yul\":10819:10823   */\n      dup7\n        /* \"#utility.yul\":10787:10824   */\n      tag_64\n      jump\t// in\n    tag_205:\n        /* \"#utility.yul\":10846:10847   */\n      0x00\n        /* \"#utility.yul\":10860:11068   */\n    tag_206:\n        /* \"#utility.yul\":10874:10881   */\n      dup3\n        /* \"#utility.yul\":10871:10872   */\n      dup2\n        /* \"#utility.yul\":10868:10882   */\n      lt\n        /* \"#utility.yul\":10860:11068   */\n      iszero\n      tag_208\n      jumpi\n        /* \"#utility.yul\":10953:10962   */\n      dup5\n        /* \"#utility.yul\":10948:10951   */\n      dup10\n        /* \"#utility.yul\":10944:10963   */\n      add\n        /* \"#utility.yul\":10938:10964   */\n      mload\n        /* \"#utility.yul\":10930:10936   */\n      dup3\n        /* \"#utility.yul\":10923:10965   */\n      sstore\n        /* \"#utility.yul\":11004:11005   */\n      0x01\n        /* \"#utility.yul\":10996:11002   */\n      dup3\n        /* \"#utility.yul\":10992:11006   */\n      add\n        /* \"#utility.yul\":10982:11006   */\n      swap2\n      pop\n        /* \"#utility.yul\":11051:11053   */\n      0x20\n        /* \"#utility.yul\":11040:11049   */\n      dup6\n        /* \"#utility.yul\":11036:11054   */\n      add\n        /* \"#utility.yul\":11023:11054   */\n      swap5\n      pop\n        /* \"#utility.yul\":10897:10901   */\n      0x20\n        /* \"#utility.yul\":10894:10895   */\n      dup2\n        /* \"#utility.yul\":10890:10902   */\n      add\n        /* \"#utility.yul\":10885:10902   */\n      swap1\n      pop\n        /* \"#utility.yul\":10860:11068   */\n      jump(tag_206)\n    tag_208:\n        /* \"#utility.yul\":11096:11102   */\n      dup7\n        /* \"#utility.yul\":11087:11094   */\n      dup4\n        /* \"#utility.yul\":11084:11103   */\n      lt\n        /* \"#utility.yul\":11081:11260   */\n      iszero\n      tag_209\n      jumpi\n        /* \"#utility.yul\":11154:11163   */\n      dup5\n        /* \"#utility.yul\":11149:11152   */\n      dup10\n        /* \"#utility.yul\":11145:11164   */\n      add\n        /* \"#utility.yul\":11139:11165   */\n      mload\n        /* \"#utility.yul\":11197:11245   */\n      tag_210\n        /* \"#utility.yul\":11239:11243   */\n      0x1f\n        /* \"#utility.yul\":11231:11237   */\n      dup10\n        /* \"#utility.yul\":11227:11244   */\n      and\n        /* \"#utility.yul\":11216:11225   */\n      dup3\n        /* \"#utility.yul\":11197:11245   */\n      tag_77\n      jump\t// in\n    tag_210:\n        /* \"#utility.yul\":11189:11195   */\n      dup4\n        /* \"#utility.yul\":11182:11246   */\n      sstore\n        /* \"#utility.yul\":11104:11260   */\n      pop\n        /* \"#utility.yul\":11081:11260   */\n    tag_209:\n        /* \"#utility.yul\":11306:11307   */\n      0x01\n        /* \"#utility.yul\":11302:11303   */\n      0x02\n        /* \"#utility.yul\":11294:11300   */\n      dup9\n        /* \"#utility.yul\":11290:11304   */\n      mul\n        /* \"#utility.yul\":11286:11308   */\n      add\n        /* \"#utility.yul\":11280:11284   */\n      dup9\n        /* \"#utility.yul\":11273:11309   */\n      sstore\n        /* \"#utility.yul\":10708:11319   */\n      pop\n      pop\n      pop\n        /* \"#utility.yul\":10671:11558   */\n    tag_201:\n      pop\n        /* \"#utility.yul\":10261:11564   */\n      pop\n      pop\n      pop\n        /* \"#utility.yul\":10169:11564   */\n      pop\n      pop\n      jump\t// out\n\n    auxdata: 0xa2646970667358221220adce15501a88a6b02d1835f2e557a9fff9a22325813b9e15fbc9dcd49da5992364736f6c63430008110033\n}\n",
				"bytecode": {
					"linkReferences": {},
					"object": "608060405234801561001057600080fd5b50610946806100206000396000f3fe608060405234801561001057600080fd5b506004361061004c5760003560e01c8063860bbc00146100515780639507d39a1461006d578063b6a46b3b14610089578063bc8bc2b4146100a5575b600080fd5b61006b60048036038101906100669190610344565b6100d6565b005b610087600480360381019061008291906103a4565b610110565b005b6100a3600480360381019061009e91906103d1565b610113565b005b6100bf60048036038101906100ba91906103a4565b6101d6565b6040516100cd9291906104c9565b60405180910390f35b8181600085815481106100ec576100eb6104f9565b5b9060005260206000209060020201600001918261010a92919061076e565b50505050565b50565b6000604051806040016040528084848080601f016020809104026020016040519081016040528093929190818152602001838380828437600081840152601f19601f82011690508083019250505050505050815260200160001515815250908060018154018082558091505060019003906000526020600020906002020160009091909190915060008201518160000190816101af919061083e565b5060208201518160010160006101000a81548160ff02191690831515021790555050505050565b600081815481106101e657600080fd5b906000526020600020906002020160009150905080600001805461020990610591565b80601f016020809104026020016040519081016040528092919081815260200182805461023590610591565b80156102825780601f1061025757610100808354040283529160200191610282565b820191906000526020600020905b81548152906001019060200180831161026557829003601f168201915b5050505050908060010160009054906101000a900460ff16905082565b600080fd5b600080fd5b6000819050919050565b6102bc816102a9565b81146102c757600080fd5b50565b6000813590506102d9816102b3565b92915050565b600080fd5b600080fd5b600080fd5b60008083601f840112610304576103036102df565b5b8235905067ffffffffffffffff811115610321576103206102e4565b5b60208301915083600182028301111561033d5761033c6102e9565b5b9250929050565b60008060006040848603121561035d5761035c61029f565b5b600061036b868287016102ca565b935050602084013567ffffffffffffffff81111561038c5761038b6102a4565b5b610398868287016102ee565b92509250509250925092565b6000602082840312156103ba576103b961029f565b5b60006103c8848285016102ca565b91505092915050565b600080602083850312156103e8576103e761029f565b5b600083013567ffffffffffffffff811115610406576104056102a4565b5b610412858286016102ee565b92509250509250929050565b600081519050919050565b600082825260208201905092915050565b60005b8381101561045857808201518184015260208101905061043d565b60008484015250505050565b6000601f19601f8301169050919050565b60006104808261041e565b61048a8185610429565b935061049a81856020860161043a565b6104a381610464565b840191505092915050565b60008115159050919050565b6104c3816104ae565b82525050565b600060408201905081810360008301526104e38185610475565b90506104f260208301846104ba565b9392505050565b7f4e487b7100000000000000000000000000000000000000000000000000000000600052603260045260246000fd5b600082905092915050565b7f4e487b7100000000000000000000000000000000000000000000000000000000600052604160045260246000fd5b7f4e487b7100000000000000000000000000000000000000000000000000000000600052602260045260246000fd5b600060028204905060018216806105a957607f821691505b6020821081036105bc576105bb610562565b5b50919050565b60008190508160005260206000209050919050565b60006020601f8301049050919050565b600082821b905092915050565b6000600883026106247fffffffffffffffffffffffffffffffffffffffffffffffffffffffffffffffff826105e7565b61062e86836105e7565b95508019841693508086168417925050509392505050565b6000819050919050565b600061066b610666610661846102a9565b610646565b6102a9565b9050919050565b6000819050919050565b61068583610650565b61069961069182610672565b8484546105f4565b825550505050565b600090565b6106ae6106a1565b6106b981848461067c565b505050565b5b818110156106dd576106d26000826106a6565b6001810190506106bf565b5050565b601f821115610722576106f3816105c2565b6106fc846105d7565b8101602085101561070b578190505b61071f610717856105d7565b8301826106be565b50505b505050565b600082821c905092915050565b600061074560001984600802610727565b1980831691505092915050565b600061075e8383610734565b9150826002028217905092915050565b6107788383610528565b67ffffffffffffffff81111561079157610790610533565b5b61079b8254610591565b6107a68282856106e1565b6000601f8311600181146107d557600084156107c3578287013590505b6107cd8582610752565b865550610835565b601f1984166107e3866105c2565b60005b8281101561080b578489013582556001820191506020850194506020810190506107e6565b868310156108285784890135610824601f891682610734565b8355505b6001600288020188555050505b50505050505050565b6108478261041e565b67ffffffffffffffff8111156108605761085f610533565b5b61086a8254610591565b6108758282856106e1565b600060209050601f8311600181146108a85760008415610896578287015190505b6108a08582610752565b865550610908565b601f1984166108b6866105c2565b60005b828110156108de578489015182556001820191506020850194506020810190506108b9565b868310156108fb57848901516108f7601f891682610734565b8355505b6001600288020188555050505b50505050505056fea2646970667358221220adce15501a88a6b02d1835f2e557a9fff9a22325813b9e15fbc9dcd49da5992364736f6c63430008110033",
					"opcodes": "PUSH1 0x80 PUSH1 0x40 MSTORE CALLVALUE DUP1 ISZERO PUSH2 0x10 JUMPI PUSH1 0x0 DUP1 REVERT JUMPDEST POP PUSH2 0x946 DUP1 PUSH2 0x20 PUSH1 0x0 CODECOPY PUSH1 0x0 RETURN INVALID PUSH1 0x80 PUSH1 0x40 MSTORE CALLVALUE DUP1 ISZERO PUSH2 0x10 JUMPI PUSH1 0x0 DUP1 REVERT JUMPDEST POP PUSH1 0x4 CALLDATASIZE LT PUSH2 0x4C JUMPI PUSH1 0x0 CALLDATALOAD PUSH1 0xE0 SHR DUP1 PUSH4 0x860BBC00 EQ PUSH2 0x51 JUMPI DUP1 PUSH4 0x9507D39A EQ PUSH2 0x6D JUMPI DUP1 PUSH4 0xB6A46B3B EQ PUSH2 0x89 JUMPI DUP1 PUSH4 0xBC8BC2B4 EQ PUSH2 0xA5 JUMPI JUMPDEST PUSH1 0x0 DUP1 REVERT JUMPDEST PUSH2 0x6B PUSH1 0x4 DUP1 CALLDATASIZE SUB DUP2 ADD SWAP1 PUSH2 0x66 SWAP2 SWAP1 PUSH2 0x344 JUMP JUMPDEST PUSH2 0xD6 JUMP JUMPDEST STOP JUMPDEST PUSH2 0x87 PUSH1 0x4 DUP1 CALLDATASIZE SUB DUP2 ADD SWAP1 PUSH2 0x82 SWAP2 SWAP1 PUSH2 0x3A4 JUMP JUMPDEST PUSH2 0x110 JUMP JUMPDEST STOP JUMPDEST PUSH2 0xA3 PUSH1 0x4 DUP1 CALLDATASIZE SUB DUP2 ADD SWAP1 PUSH2 0x9E SWAP2 SWAP1 PUSH2 0x3D1 JUMP JUMPDEST PUSH2 0x113 JUMP JUMPDEST STOP JUMPDEST PUSH2 0xBF PUSH1 0x4 DUP1 CALLDATASIZE SUB DUP2 ADD SWAP1 PUSH2 0xBA SWAP2 SWAP1 PUSH2 0x3A4 JUMP JUMPDEST PUSH2 0x1D6 JUMP JUMPDEST PUSH1 0x40 MLOAD PUSH2 0xCD SWAP3 SWAP2 SWAP1 PUSH2 0x4C9 JUMP JUMPDEST PUSH1 0x40 MLOAD DUP1 SWAP2 SUB SWAP1 RETURN JUMPDEST DUP2 DUP2 PUSH1 0x0 DUP6 DUP2 SLOAD DUP2 LT PUSH2 0xEC JUMPI PUSH2 0xEB PUSH2 0x4F9 JUMP JUMPDEST JUMPDEST SWAP1 PUSH1 0x0 MSTORE PUSH1 0x20 PUSH1 0x0 KECCAK256 SWAP1 PUSH1 0x2 MUL ADD PUSH1 0x0 ADD SWAP2 DUP3 PUSH2 0x10A SWAP3 SWAP2 SWAP1 PUSH2 0x76E JUMP JUMPDEST POP POP POP POP JUMP JUMPDEST POP JUMP JUMPDEST PUSH1 0x0 PUSH1 0x40 MLOAD DUP1 PUSH1 0x40 ADD PUSH1 0x40 MSTORE DUP1 DUP5 DUP5 DUP1 DUP1 PUSH1 0x1F ADD PUSH1 0x20 DUP1 SWAP2 DIV MUL PUSH1 0x20 ADD PUSH1 0x40 MLOAD SWAP1 DUP2 ADD PUSH1 0x40 MSTORE DUP1 SWAP4 SWAP3 SWAP2 SWAP1 DUP2 DUP2 MSTORE PUSH1 0x20 ADD DUP4 DUP4 DUP1 DUP3 DUP5 CALLDATACOPY PUSH1 0x0 DUP2 DUP5 ADD MSTORE PUSH1 0x1F NOT PUSH1 0x1F DUP3 ADD AND SWAP1 POP DUP1 DUP4 ADD SWAP3 POP POP POP POP POP POP POP DUP2 MSTORE PUSH1 0x20 ADD PUSH1 0x0 ISZERO ISZERO DUP2 MSTORE POP SWAP1 DUP1 PUSH1 0x1 DUP2 SLOAD ADD DUP1 DUP3 SSTORE DUP1 SWAP2 POP POP PUSH1 0x1 SWAP1 SUB SWAP1 PUSH1 0x0 MSTORE PUSH1 0x20 PUSH1 0x0 KECCAK256 SWAP1 PUSH1 0x2 MUL ADD PUSH1 0x0 SWAP1 SWAP2 SWAP1 SWAP2 SWAP1 SWAP2 POP PUSH1 0x0 DUP3 ADD MLOAD DUP2 PUSH1 0x0 ADD SWAP1 DUP2 PUSH2 0x1AF SWAP2 SWAP1 PUSH2 0x83E JUMP JUMPDEST POP PUSH1 0x20 DUP3 ADD MLOAD DUP2 PUSH1 0x1 ADD PUSH1 0x0 PUSH2 0x100 EXP DUP2 SLOAD DUP2 PUSH1 0xFF MUL NOT AND SWAP1 DUP4 ISZERO ISZERO MUL OR SWAP1 SSTORE POP POP POP POP POP JUMP JUMPDEST PUSH1 0x0 DUP2 DUP2 SLOAD DUP2 LT PUSH2 0x1E6 JUMPI PUSH1 0x0 DUP1 REVERT JUMPDEST SWAP1 PUSH1 0x0 MSTORE PUSH1 0x20 PUSH1 0x0 KECCAK256 SWAP1 PUSH1 0x2 MUL ADD PUSH1 0x0 SWAP2 POP SWAP1 POP DUP1 PUSH1 0x0 ADD DUP1 SLOAD PUSH2 0x209 SWAP1 PUSH2 0x591 JUMP JUMPDEST DUP1 PUSH1 0x1F ADD PUSH1 0x20 DUP1 SWAP2 DIV MUL PUSH1 0x20 ADD PUSH1 0x40 MLOAD SWAP1 DUP2 ADD PUSH1 0x40 MSTORE DUP1 SWAP3 SWAP2 SWAP1 DUP2 DUP2 MSTORE PUSH1 0x20 ADD DUP3 DUP1 SLOAD PUSH2 0x235 SWAP1 PUSH2 0x591 JUMP JUMPDEST DUP1 ISZERO PUSH2 0x282 JUMPI DUP1 PUSH1 0x1F LT PUSH2 0x257 JUMPI PUSH2 0x100 DUP1 DUP4 SLOAD DIV MUL DUP4 MSTORE SWAP2 PUSH1 0x20 ADD SWAP2 PUSH2 0x282 JUMP JUMPDEST DUP3 ADD SWAP2 SWAP1 PUSH1 0x0 MSTORE PUSH1 0x20 PUSH1 0x0 KECCAK256 SWAP1 JUMPDEST DUP2 SLOAD DUP2 MSTORE SWAP1 PUSH1 0x1 ADD SWAP1 PUSH1 0x20 ADD DUP1 DUP4 GT PUSH2 0x265 JUMPI DUP3 SWAP1 SUB PUSH1 0x1F AND DUP3 ADD SWAP2 JUMPDEST POP POP POP POP POP SWAP1 DUP1 PUSH1 0x1 ADD PUSH1 0x0 SWAP1 SLOAD SWAP1 PUSH2 0x100 EXP SWAP1 DIV PUSH1 0xFF AND SWAP1 POP DUP3 JUMP JUMPDEST PUSH1 0x0 DUP1 REVERT JUMPDEST PUSH1 0x0 DUP1 REVERT JUMPDEST PUSH1 0x0 DUP2 SWAP1 POP SWAP2 SWAP1 POP JUMP JUMPDEST PUSH2 0x2BC DUP2 PUSH2 0x2A9 JUMP JUMPDEST DUP2 EQ PUSH2 0x2C7 JUMPI PUSH1 0x0 DUP1 REVERT JUMPDEST POP JUMP JUMPDEST PUSH1 0x0 DUP2 CALLDATALOAD SWAP1 POP PUSH2 0x2D9 DUP2 PUSH2 0x2B3 JUMP JUMPDEST SWAP3 SWAP2 POP POP JUMP JUMPDEST PUSH1 0x0 DUP1 REVERT JUMPDEST PUSH1 0x0 DUP1 REVERT JUMPDEST PUSH1 0x0 DUP1 REVERT JUMPDEST PUSH1 0x0 DUP1 DUP4 PUSH1 0x1F DUP5 ADD SLT PUSH2 0x304 JUMPI PUSH2 0x303 PUSH2 0x2DF JUMP JUMPDEST JUMPDEST DUP3 CALLDATALOAD SWAP1 POP PUSH8 0xFFFFFFFFFFFFFFFF DUP2 GT ISZERO PUSH2 0x321 JUMPI PUSH2 0x320 PUSH2 0x2E4 JUMP JUMPDEST JUMPDEST PUSH1 0x20 DUP4 ADD SWAP2 POP DUP4 PUSH1 0x1 DUP3 MUL DUP4 ADD GT ISZERO PUSH2 0x33D JUMPI PUSH2 0x33C PUSH2 0x2E9 JUMP JUMPDEST JUMPDEST SWAP3 POP SWAP3 SWAP1 POP JUMP JUMPDEST PUSH1 0x0 DUP1 PUSH1 0x0 PUSH1 0x40 DUP5 DUP7 SUB SLT ISZERO PUSH2 0x35D JUMPI PUSH2 0x35C PUSH2 0x29F JUMP JUMPDEST JUMPDEST PUSH1 0x0 PUSH2 0x36B DUP7 DUP3 DUP8 ADD PUSH2 0x2CA JUMP JUMPDEST SWAP4 POP POP PUSH1 0x20 DUP5 ADD CALLDATALOAD PUSH8 0xFFFFFFFFFFFFFFFF DUP2 GT ISZERO PUSH2 0x38C JUMPI PUSH2 0x38B PUSH2 0x2A4 JUMP JUMPDEST JUMPDEST PUSH2 0x398 DUP7 DUP3 DUP8 ADD PUSH2 0x2EE JUMP JUMPDEST SWAP3 POP SWAP3 POP POP SWAP3 POP SWAP3 POP SWAP3 JUMP JUMPDEST PUSH1 0x0 PUSH1 0x20 DUP3 DUP5 SUB SLT ISZERO PUSH2 0x3BA JUMPI PUSH2 0x3B9 PUSH2 0x29F JUMP JUMPDEST JUMPDEST PUSH1 0x0 PUSH2 0x3C8 DUP5 DUP3 DUP6 ADD PUSH2 0x2CA JUMP JUMPDEST SWAP2 POP POP SWAP3 SWAP2 POP POP JUMP JUMPDEST PUSH1 0x0 DUP1 PUSH1 0x20 DUP4 DUP6 SUB SLT ISZERO PUSH2 0x3E8 JUMPI PUSH2 0x3E7 PUSH2 0x29F JUMP JUMPDEST JUMPDEST PUSH1 0x0 DUP4 ADD CALLDATALOAD PUSH8 0xFFFFFFFFFFFFFFFF DUP2 GT ISZERO PUSH2 0x406 JUMPI PUSH2 0x405 PUSH2 0x2A4 JUMP JUMPDEST JUMPDEST PUSH2 0x412 DUP6 DUP3 DUP7 ADD PUSH2 0x2EE JUMP JUMPDEST SWAP3 POP SWAP3 POP POP SWAP3 POP SWAP3 SWAP1 POP JUMP JUMPDEST PUSH1 0x0 DUP2 MLOAD SWAP1 POP SWAP2 SWAP1 POP JUMP JUMPDEST PUSH1 0x0 DUP3 DUP3 MSTORE PUSH1 0x20 DUP3 ADD SWAP1 POP SWAP3 SWAP2 POP POP JUMP JUMPDEST PUSH1 0x0 JUMPDEST DUP4 DUP2 LT ISZERO PUSH2 0x458 JUMPI DUP1 DUP3 ADD MLOAD DUP2 DUP5 ADD MSTORE PUSH1 0x20 DUP2 ADD SWAP1 POP PUSH2 0x43D JUMP JUMPDEST PUSH1 0x0 DUP5 DUP5 ADD MSTORE POP POP POP POP JUMP JUMPDEST PUSH1 0x0 PUSH1 0x1F NOT PUSH1 0x1F DUP4 ADD AND SWAP1 POP SWAP2 SWAP1 POP JUMP JUMPDEST PUSH1 0x0 PUSH2 0x480 DUP3 PUSH2 0x41E JUMP JUMPDEST PUSH2 0x48A DUP2 DUP6 PUSH2 0x429 JUMP JUMPDEST SWAP4 POP PUSH2 0x49A DUP2 DUP6 PUSH1 0x20 DUP7 ADD PUSH2 0x43A JUMP JUMPDEST PUSH2 0x4A3 DUP2 PUSH2 0x464 JUMP JUMPDEST DUP5 ADD SWAP2 POP POP SWAP3 SWAP2 POP POP JUMP JUMPDEST PUSH1 0x0 DUP2 ISZERO ISZERO SWAP1 POP SWAP2 SWAP1 POP JUMP JUMPDEST PUSH2 0x4C3 DUP2 PUSH2 0x4AE JUMP JUMPDEST DUP3 MSTORE POP POP JUMP JUMPDEST PUSH1 0x0 PUSH1 0x40 DUP3 ADD SWAP1 POP DUP2 DUP2 SUB PUSH1 0x0 DUP4 ADD MSTORE PUSH2 0x4E3 DUP2 DUP6 PUSH2 0x475 JUMP JUMPDEST SWAP1 POP PUSH2 0x4F2 PUSH1 0x20 DUP4 ADD DUP5 PUSH2 0x4BA JUMP JUMPDEST SWAP4 SWAP3 POP POP POP JUMP JUMPDEST PUSH32 0x4E487B7100000000000000000000000000000000000000000000000000000000 PUSH1 0x0 MSTORE PUSH1 0x32 PUSH1 0x4 MSTORE PUSH1 0x24 PUSH1 0x0 REVERT JUMPDEST PUSH1 0x0 DUP3 SWAP1 POP SWAP3 SWAP2 POP POP JUMP JUMPDEST PUSH32 0x4E487B7100000000000000000000000000000000000000000000000000000000 PUSH1 0x0 MSTORE PUSH1 0x41 PUSH1 0x4 MSTORE PUSH1 0x24 PUSH1 0x0 REVERT JUMPDEST PUSH32 0x4E487B7100000000000000000000000000000000000000000000000000000000 PUSH1 0x0 MSTORE PUSH1 0x22 PUSH1 0x4 MSTORE PUSH1 0x24 PUSH1 0x0 REVERT JUMPDEST PUSH1 0x0 PUSH1 0x2 DUP3 DIV SWAP1 POP PUSH1 0x1 DUP3 AND DUP1 PUSH2 0x5A9 JUMPI PUSH1 0x7F DUP3 AND SWAP2 POP JUMPDEST PUSH1 0x20 DUP3 LT DUP2 SUB PUSH2 0x5BC JUMPI PUSH2 0x5BB PUSH2 0x562 JUMP JUMPDEST JUMPDEST POP SWAP2 SWAP1 POP JUMP JUMPDEST PUSH1 0x0 DUP2 SWAP1 POP DUP2 PUSH1 0x0 MSTORE PUSH1 0x20 PUSH1 0x0 KECCAK256 SWAP1 POP SWAP2 SWAP1 POP JUMP JUMPDEST PUSH1 0x0 PUSH1 0x20 PUSH1 0x1F DUP4 ADD DIV SWAP1 POP SWAP2 SWAP1 POP JUMP JUMPDEST PUSH1 0x0 DUP3 DUP3 SHL SWAP1 POP SWAP3 SWAP2 POP POP JUMP JUMPDEST PUSH1 0x0 PUSH1 0x8 DUP4 MUL PUSH2 0x624 PUSH32 0xFFFFFFFFFFFFFFFFFFFFFFFFFFFFFFFFFFFFFFFFFFFFFFFFFFFFFFFFFFFFFFFF DUP3 PUSH2 0x5E7 JUMP JUMPDEST PUSH2 0x62E DUP7 DUP4 PUSH2 0x5E7 JUMP JUMPDEST SWAP6 POP DUP1 NOT DUP5 AND SWAP4 POP DUP1 DUP7 AND DUP5 OR SWAP3 POP POP POP SWAP4 SWAP3 POP POP POP JUMP JUMPDEST PUSH1 0x0 DUP2 SWAP1 POP SWAP2 SWAP1 POP JUMP JUMPDEST PUSH1 0x0 PUSH2 0x66B PUSH2 0x666 PUSH2 0x661 DUP5 PUSH2 0x2A9 JUMP JUMPDEST PUSH2 0x646 JUMP JUMPDEST PUSH2 0x2A9 JUMP JUMPDEST SWAP1 POP SWAP2 SWAP1 POP JUMP JUMPDEST PUSH1 0x0 DUP2 SWAP1 POP SWAP2 SWAP1 POP JUMP JUMPDEST PUSH2 0x685 DUP4 PUSH2 0x650 JUMP JUMPDEST PUSH2 0x699 PUSH2 0x691 DUP3 PUSH2 0x672 JUMP JUMPDEST DUP5 DUP5 SLOAD PUSH2 0x5F4 JUMP JUMPDEST DUP3 SSTORE POP POP POP POP JUMP JUMPDEST PUSH1 0x0 SWAP1 JUMP JUMPDEST PUSH2 0x6AE PUSH2 0x6A1 JUMP JUMPDEST PUSH2 0x6B9 DUP2 DUP5 DUP5 PUSH2 0x67C JUMP JUMPDEST POP POP POP JUMP JUMPDEST JUMPDEST DUP2 DUP2 LT ISZERO PUSH2 0x6DD JUMPI PUSH2 0x6D2 PUSH1 0x0 DUP3 PUSH2 0x6A6 JUMP JUMPDEST PUSH1 0x1 DUP2 ADD SWAP1 POP PUSH2 0x6BF JUMP JUMPDEST POP POP JUMP JUMPDEST PUSH1 0x1F DUP3 GT ISZERO PUSH2 0x722 JUMPI PUSH2 0x6F3 DUP2 PUSH2 0x5C2 JUMP JUMPDEST PUSH2 0x6FC DUP5 PUSH2 0x5D7 JUMP JUMPDEST DUP2 ADD PUSH1 0x20 DUP6 LT ISZERO PUSH2 0x70B JUMPI DUP2 SWAP1 POP JUMPDEST PUSH2 0x71F PUSH2 0x717 DUP6 PUSH2 0x5D7 JUMP JUMPDEST DUP4 ADD DUP3 PUSH2 0x6BE JUMP JUMPDEST POP POP JUMPDEST POP POP POP JUMP JUMPDEST PUSH1 0x0 DUP3 DUP3 SHR SWAP1 POP SWAP3 SWAP2 POP POP JUMP JUMPDEST PUSH1 0x0 PUSH2 0x745 PUSH1 0x0 NOT DUP5 PUSH1 0x8 MUL PUSH2 0x727 JUMP JUMPDEST NOT DUP1 DUP4 AND SWAP2 POP POP SWAP3 SWAP2 POP POP JUMP JUMPDEST PUSH1 0x0 PUSH2 0x75E DUP4 DUP4 PUSH2 0x734 JUMP JUMPDEST SWAP2 POP DUP3 PUSH1 0x2 MUL DUP3 OR SWAP1 POP SWAP3 SWAP2 POP POP JUMP JUMPDEST PUSH2 0x778 DUP4 DUP4 PUSH2 0x528 JUMP JUMPDEST PUSH8 0xFFFFFFFFFFFFFFFF DUP2 GT ISZERO PUSH2 0x791 JUMPI PUSH2 0x790 PUSH2 0x533 JUMP JUMPDEST JUMPDEST PUSH2 0x79B DUP3 SLOAD PUSH2 0x591 JUMP JUMPDEST PUSH2 0x7A6 DUP3 DUP3 DUP6 PUSH2 0x6E1 JUMP JUMPDEST PUSH1 0x0 PUSH1 0x1F DUP4 GT PUSH1 0x1 DUP2 EQ PUSH2 0x7D5 JUMPI PUSH1 0x0 DUP5 ISZERO PUSH2 0x7C3 JUMPI DUP3 DUP8 ADD CALLDATALOAD SWAP1 POP JUMPDEST PUSH2 0x7CD DUP6 DUP3 PUSH2 0x752 JUMP JUMPDEST DUP7 SSTORE POP PUSH2 0x835 JUMP JUMPDEST PUSH1 0x1F NOT DUP5 AND PUSH2 0x7E3 DUP7 PUSH2 0x5C2 JUMP JUMPDEST PUSH1 0x0 JUMPDEST DUP3 DUP2 LT ISZERO PUSH2 0x80B JUMPI DUP5 DUP10 ADD CALLDATALOAD DUP3 SSTORE PUSH1 0x1 DUP3 ADD SWAP2 POP PUSH1 0x20 DUP6 ADD SWAP5 POP PUSH1 0x20 DUP2 ADD SWAP1 POP PUSH2 0x7E6 JUMP JUMPDEST DUP7 DUP4 LT ISZERO PUSH2 0x828 JUMPI DUP5 DUP10 ADD CALLDATALOAD PUSH2 0x824 PUSH1 0x1F DUP10 AND DUP3 PUSH2 0x734 JUMP JUMPDEST DUP4 SSTORE POP JUMPDEST PUSH1 0x1 PUSH1 0x2 DUP9 MUL ADD DUP9 SSTORE POP POP POP JUMPDEST POP POP POP POP POP POP POP JUMP JUMPDEST PUSH2 0x847 DUP3 PUSH2 0x41E JUMP JUMPDEST PUSH8 0xFFFFFFFFFFFFFFFF DUP2 GT ISZERO PUSH2 0x860 JUMPI PUSH2 0x85F PUSH2 0x533 JUMP JUMPDEST JUMPDEST PUSH2 0x86A DUP3 SLOAD PUSH2 0x591 JUMP JUMPDEST PUSH2 0x875 DUP3 DUP3 DUP6 PUSH2 0x6E1 JUMP JUMPDEST PUSH1 0x0 PUSH1 0x20 SWAP1 POP PUSH1 0x1F DUP4 GT PUSH1 0x1 DUP2 EQ PUSH2 0x8A8 JUMPI PUSH1 0x0 DUP5 ISZERO PUSH2 0x896 JUMPI DUP3 DUP8 ADD MLOAD SWAP1 POP JUMPDEST PUSH2 0x8A0 DUP6 DUP3 PUSH2 0x752 JUMP JUMPDEST DUP7 SSTORE POP PUSH2 0x908 JUMP JUMPDEST PUSH1 0x1F NOT DUP5 AND PUSH2 0x8B6 DUP7 PUSH2 0x5C2 JUMP JUMPDEST PUSH1 0x0 JUMPDEST DUP3 DUP2 LT ISZERO PUSH2 0x8DE JUMPI DUP5 DUP10 ADD MLOAD DUP3 SSTORE PUSH1 0x1 DUP3 ADD SWAP2 POP PUSH1 0x20 DUP6 ADD SWAP5 POP PUSH1 0x20 DUP2 ADD SWAP1 POP PUSH2 0x8B9 JUMP JUMPDEST DUP7 DUP4 LT ISZERO PUSH2 0x8FB JUMPI DUP5 DUP10 ADD MLOAD PUSH2 0x8F7 PUSH1 0x1F DUP10 AND DUP3 PUSH2 0x734 JUMP JUMPDEST DUP4 SSTORE POP JUMPDEST PUSH1 0x1 PUSH1 0x2 DUP9 MUL ADD DUP9 SSTORE POP POP POP JUMPDEST POP POP POP POP POP POP JUMP INVALID LOG2 PUSH5 0x6970667358 0x22 SLT KECCAK256 0xAD 0xCE ISZERO POP BYTE DUP9 0xA6 0xB0 0x2D XOR CALLDATALOAD CALLCODE 0xE5 JUMPI 0xA9 SELFDESTRUCT 0xF9 LOG2 0x23 0x25 DUP2 EXTCODESIZE SWAP15 ISZERO 0xFB 0xC9 0xDC 0xD4 SWAP14 0xA5 SWAP10 0x23 PUSH5 0x736F6C6343 STOP ADDMOD GT STOP CALLER "
				},
				"gasEstimates": {
					"creation": {
						"codeDepositCost": "474800",
						"executionCost": "511",
						"totalCost": "475311"
					},
					"external": {
						"create(string)": "infinite",
						"get(uint256)": "406",
						"todos(uint256)": "infinite",
						"updataText(uint256,string)": "infinite"
					}
				},
				"methodIdentifiers": {
					"create(string)": "b6a46b3b",
					"get(uint256)": "9507d39a",
					"todos(uint256)": "bc8bc2b4",
					"updataText(uint256,string)": "860bbc00"
				}
			},
			"storageLayout": {
				"storage": [
					{
						"astId": 10,
						"contract": "TodoList.sol:TodoList",
						"label": "todos",
						"offset": 0,
						"slot": "0",
						"type": "t_array(t_struct(Todo)6_storage)dyn_storage"
					}
				],
				"types": {
					"t_array(t_struct(Todo)6_storage)dyn_storage": {
						"base": "t_struct(Todo)6_storage",
						"encoding": "dynamic_array",
						"label": "struct TodoList.Todo[]",
						"numberOfBytes": "32"
					},
					"t_bool": {
						"encoding": "inplace",
						"label": "bool",
						"numberOfBytes": "1"
					},
					"t_string_storage": {
						"encoding": "bytes",
						"label": "string",
						"numberOfBytes": "32"
					},
					"t_struct(Todo)6_storage": {
						"encoding": "inplace",
						"label": "struct TodoList.Todo",
						"members": [
							{
								"astId": 3,
								"contract": "TodoList.sol:TodoList",
								"label": "text",
								"offset": 0,
								"slot": "0",
								"type": "t_string_storage"
							},
							{
								"astId": 5,
								"contract": "TodoList.sol:TodoList",
								"label": "compeleted",
								"offset": 0,
								"slot": "1",
								"type": "t_bool"
							}
						],
						"numberOfBytes": "64"
					}
				}
			},
			"userdoc": {
				"kind": "user",
				"methods": {},
				"version": 1
			}
		}
	}
}