{
	"Data.sol": {
		"ValueTypes": {
			"abi": [
				{
					"inputs": [],
					"name": "b",
					"outputs": [
						{
							"internalType": "bool",
							"name": "",
							"type": "bool"
						}
					],
					"stateMutability": "view",
					"type": "function"
				},
				{
					"inputs": [],
					"name": "i",
					"outputs": [
						{
							"internalType": "int256",
							"name": "",
							"type": "int256"
						}
					],
					"stateMutability": "view",
					"type": "function"
				},
				{
					"inputs": [],
					"name": "maxInt",
					"outputs": [
						{
							"internalType": "int256",
							"name": "",
							"type": "int256"
						}
					],
					"stateMutability": "view",
					"type": "function"
				},
				{
					"inputs": [],
					"name": "minInt",
					"outputs": [
						{
							"internalType": "int256",
							"name": "",
							"type": "int256"
						}
					],
					"stateMutability": "view",
					"type": "function"
				},
				{
					"inputs": [],
					"name": "u",
					"outputs": [
						{
							"internalType": "uint256",
							"name": "",
							"type": "uint256"
						}
					],
					"stateMutability": "view",
					"type": "function"
				}
			],
			"devdoc": {
				"kind": "dev",
				"methods": {},
				"version": 1
			},
			"evm": {
				"assembly": "    /* \"Data.sol\":60:377  contract ValueTypes {... */\n  mstore(0x40, 0x80)\n    /* \"Data.sol\":103:107  true */\n  0x01\n    /* \"Data.sol\":87:107  bool public b = true */\n  0x00\n  dup1\n  0x0100\n  exp\n  dup2\n  sload\n  dup2\n  0xff\n  mul\n  not\n  and\n  swap1\n  dup4\n  iszero\n  iszero\n  mul\n  or\n  swap1\n  sstore\n  pop\n    /* \"Data.sol\":233:236  123 */\n  0x7b\n    /* \"Data.sol\":217:236  uint public u = 123 */\n  0x01\n  sstore\n    /* \"Data.sol\":279:283  -123 */\n  0xffffffffffffffffffffffffffffffffffffffffffffffffffffffffffffff85\n    /* \"Data.sol\":264:283  int public i = -123 */\n  0x02\n  sstore\n    /* \"Data.sol\":310:323  type(int).min */\n  0x8000000000000000000000000000000000000000000000000000000000000000\n    /* \"Data.sol\":290:323  int public minInt = type(int).min */\n  0x03\n  sstore\n    /* \"Data.sol\":350:363  type(int).max */\n  0x7fffffffffffffffffffffffffffffffffffffffffffffffffffffffffffffff\n    /* \"Data.sol\":330:363  int public maxInt = type(int).max */\n  0x04\n  sstore\n    /* \"Data.sol\":60:377  contract ValueTypes {... */\n  callvalue\n  dup1\n  iszero\n  tag_1\n  jumpi\n  0x00\n  dup1\n  revert\ntag_1:\n  pop\n  dataSize(sub_0)\n  dup1\n  dataOffset(sub_0)\n  0x00\n  codecopy\n  0x00\n  return\nstop\n\nsub_0: assembly {\n        /* \"Data.sol\":60:377  contract ValueTypes {... */\n      mstore(0x40, 0x80)\n      callvalue\n      dup1\n      iszero\n      tag_1\n      jumpi\n      0x00\n      dup1\n      revert\n    tag_1:\n      pop\n      jumpi(tag_2, lt(calldatasize, 0x04))\n      shr(0xe0, calldataload(0x00))\n      dup1\n      0x4df7e3d0\n      eq\n      tag_3\n      jumpi\n      dup1\n      0x7a4c2571\n      eq\n      tag_4\n      jumpi\n      dup1\n      0x7e4e14cc\n      eq\n      tag_5\n      jumpi\n      dup1\n      0xc6a898c5\n      eq\n      tag_6\n      jumpi\n      dup1\n      0xe5aa3d58\n      eq\n      tag_7\n      jumpi\n    tag_2:\n      0x00\n      dup1\n      revert\n        /* \"Data.sol\":87:107  bool public b = true */\n    tag_3:\n      tag_8\n      tag_9\n      jump\t// in\n    tag_8:\n      mload(0x40)\n      tag_10\n      swap2\n      swap1\n      tag_11\n      jump\t// in\n    tag_10:\n      mload(0x40)\n      dup1\n      swap2\n      sub\n      swap1\n      return\n        /* \"Data.sol\":330:363  int public maxInt = type(int).max */\n    tag_4:\n      tag_12\n      tag_13\n      jump\t// in\n    tag_12:\n      mload(0x40)\n      tag_14\n      swap2\n      swap1\n      tag_15\n      jump\t// in\n    tag_14:\n      mload(0x40)\n      dup1\n      swap2\n      sub\n      swap1\n      return\n        /* \"Data.sol\":290:323  int public minInt = type(int).min */\n    tag_5:\n      tag_16\n      tag_17\n      jump\t// in\n    tag_16:\n      mload(0x40)\n      tag_18\n      swap2\n      swap1\n      tag_15\n      jump\t// in\n    tag_18:\n      mload(0x40)\n      dup1\n      swap2\n      sub\n      swap1\n      return\n        /* \"Data.sol\":217:236  uint public u = 123 */\n    tag_6:\n      tag_19\n      tag_20\n      jump\t// in\n    tag_19:\n      mload(0x40)\n      tag_21\n      swap2\n      swap1\n      tag_22\n      jump\t// in\n    tag_21:\n      mload(0x40)\n      dup1\n      swap2\n      sub\n      swap1\n      return\n        /* \"Data.sol\":264:283  int public i = -123 */\n    tag_7:\n      tag_23\n      tag_24\n      jump\t// in\n    tag_23:\n      mload(0x40)\n      tag_25\n      swap2\n      swap1\n      tag_15\n      jump\t// in\n    tag_25:\n      mload(0x40)\n      dup1\n      swap2\n      sub\n      swap1\n      return\n        /* \"Data.sol\":87:107  bool public b = true */\n    tag_9:\n      0x00\n      dup1\n      sload\n      swap1\n      0x0100\n      exp\n      swap1\n      div\n      0xff\n      and\n      dup2\n      jump\t// out\n        /* \"Data.sol\":330:363  int public maxInt = type(int).max */\n    tag_13:\n      sload(0x04)\n      dup2\n      jump\t// out\n        /* \"Data.sol\":290:323  int public minInt = type(int).min */\n    tag_17:\n      sload(0x03)\n      dup2\n      jump\t// out\n        /* \"Data.sol\":217:236  uint public u = 123 */\n    tag_20:\n      sload(0x01)\n      dup2\n      jump\t// out\n        /* \"Data.sol\":264:283  int public i = -123 */\n    tag_24:\n      sload(0x02)\n      dup2\n      jump\t// out\n        /* \"#utility.yul\":7:97   */\n    tag_26:\n        /* \"#utility.yul\":41:48   */\n      0x00\n        /* \"#utility.yul\":84:89   */\n      dup2\n        /* \"#utility.yul\":77:90   */\n      iszero\n        /* \"#utility.yul\":70:91   */\n      iszero\n        /* \"#utility.yul\":59:91   */\n      swap1\n      pop\n        /* \"#utility.yul\":7:97   */\n      swap2\n      swap1\n      pop\n      jump\t// out\n        /* \"#utility.yul\":103:212   */\n    tag_27:\n        /* \"#utility.yul\":184:205   */\n      tag_35\n        /* \"#utility.yul\":199:204   */\n      dup2\n        /* \"#utility.yul\":184:205   */\n      tag_26\n      jump\t// in\n    tag_35:\n        /* \"#utility.yul\":179:182   */\n      dup3\n        /* \"#utility.yul\":172:206   */\n      mstore\n        /* \"#utility.yul\":103:212   */\n      pop\n      pop\n      jump\t// out\n        /* \"#utility.yul\":218:428   */\n    tag_11:\n        /* \"#utility.yul\":305:309   */\n      0x00\n        /* \"#utility.yul\":343:345   */\n      0x20\n        /* \"#utility.yul\":332:341   */\n      dup3\n        /* \"#utility.yul\":328:346   */\n      add\n        /* \"#utility.yul\":320:346   */\n      swap1\n      pop\n        /* \"#utility.yul\":356:421   */\n      tag_37\n        /* \"#utility.yul\":418:419   */\n      0x00\n        /* \"#utility.yul\":407:416   */\n      dup4\n        /* \"#utility.yul\":403:420   */\n      add\n        /* \"#utility.yul\":394:400   */\n      dup5\n        /* \"#utility.yul\":356:421   */\n      tag_27\n      jump\t// in\n    tag_37:\n        /* \"#utility.yul\":218:428   */\n      swap3\n      swap2\n      pop\n      pop\n      jump\t// out\n        /* \"#utility.yul\":434:510   */\n    tag_28:\n        /* \"#utility.yul\":470:477   */\n      0x00\n        /* \"#utility.yul\":499:504   */\n      dup2\n        /* \"#utility.yul\":488:504   */\n      swap1\n      pop\n        /* \"#utility.yul\":434:510   */\n      swap2\n      swap1\n      pop\n      jump\t// out\n        /* \"#utility.yul\":516:631   */\n    tag_29:\n        /* \"#utility.yul\":601:624   */\n      tag_40\n        /* \"#utility.yul\":618:623   */\n      dup2\n        /* \"#utility.yul\":601:624   */\n      tag_28\n      jump\t// in\n    tag_40:\n        /* \"#utility.yul\":596:599   */\n      dup3\n        /* \"#utility.yul\":589:625   */\n      mstore\n        /* \"#utility.yul\":516:631   */\n      pop\n      pop\n      jump\t// out\n        /* \"#utility.yul\":637:855   */\n    tag_15:\n        /* \"#utility.yul\":728:732   */\n      0x00\n        /* \"#utility.yul\":766:768   */\n      0x20\n        /* \"#utility.yul\":755:764   */\n      dup3\n        /* \"#utility.yul\":751:769   */\n      add\n        /* \"#utility.yul\":743:769   */\n      swap1\n      pop\n        /* \"#utility.yul\":779:848   */\n      tag_42\n        /* \"#utility.yul\":845:846   */\n      0x00\n        /* \"#utility.yul\":834:843   */\n      dup4\n        /* \"#utility.yul\":830:847   */\n      add\n        /* \"#utility.yul\":821:827   */\n      dup5\n        /* \"#utility.yul\":779:848   */\n      tag_29\n      jump\t// in\n    tag_42:\n        /* \"#utility.yul\":637:855   */\n      swap3\n      swap2\n      pop\n      pop\n      jump\t// out\n        /* \"#utility.yul\":861:938   */\n    tag_30:\n        /* \"#utility.yul\":898:905   */\n      0x00\n        /* \"#utility.yul\":927:932   */\n      dup2\n        /* \"#utility.yul\":916:932   */\n      swap1\n      pop\n        /* \"#utility.yul\":861:938   */\n      swap2\n      swap1\n      pop\n      jump\t// out\n        /* \"#utility.yul\":944:1062   */\n    tag_31:\n        /* \"#utility.yul\":1031:1055   */\n      tag_45\n        /* \"#utility.yul\":1049:1054   */\n      dup2\n        /* \"#utility.yul\":1031:1055   */\n      tag_30\n      jump\t// in\n    tag_45:\n        /* \"#utility.yul\":1026:1029   */\n      dup3\n        /* \"#utility.yul\":1019:1056   */\n      mstore\n        /* \"#utility.yul\":944:1062   */\n      pop\n      pop\n      jump\t// out\n        /* \"#utility.yul\":1068:1290   */\n    tag_22:\n        /* \"#utility.yul\":1161:1165   */\n      0x00\n        /* \"#utility.yul\":1199:1201   */\n      0x20\n        /* \"#utility.yul\":1188:1197   */\n      dup3\n        /* \"#utility.yul\":1184:1202   */\n      add\n        /* \"#utility.yul\":1176:1202   */\n      swap1\n      pop\n        /* \"#utility.yul\":1212:1283   */\n      tag_47\n        /* \"#utility.yul\":1280:1281   */\n      0x00\n        /* \"#utility.yul\":1269:1278   */\n      dup4\n        /* \"#utility.yul\":1265:1282   */\n      add\n        /* \"#utility.yul\":1256:1262   */\n      dup5\n        /* \"#utility.yul\":1212:1283   */\n      tag_31\n      jump\t// in\n    tag_47:\n        /* \"#utility.yul\":1068:1290   */\n      swap3\n      swap2\n      pop\n      pop\n      jump\t// out\n\n    auxdata: 0xa2646970667358221220d98d4af59085c3a45f4e640cd31855d034b46fed8d8d06981431c9b01664e76064736f6c63430008110033\n}\n",
				"bytecode": {
					"linkReferences": {},
					"object": "608060405260016000806101000a81548160ff021916908315150217905550607b6001557fffffffffffffffffffffffffffffffffffffffffffffffffffffffffffffff856002557f80000000000000000000000000000000000000000000000000000000000000006003557f7fffffffffffffffffffffffffffffffffffffffffffffffffffffffffffffff60045534801561009b57600080fd5b506101ef806100ab6000396000f3fe608060405234801561001057600080fd5b50600436106100575760003560e01c80634df7e3d01461005c5780637a4c25711461007a5780637e4e14cc14610098578063c6a898c5146100b6578063e5aa3d58146100d4575b600080fd5b6100646100f2565b6040516100719190610136565b60405180910390f35b610082610103565b60405161008f919061016a565b60405180910390f35b6100a0610109565b6040516100ad919061016a565b60405180910390f35b6100be61010f565b6040516100cb919061019e565b60405180910390f35b6100dc610115565b6040516100e9919061016a565b60405180910390f35b60008054906101000a900460ff1681565b60045481565b60035481565b60015481565b60025481565b60008115159050919050565b6101308161011b565b82525050565b600060208201905061014b6000830184610127565b92915050565b6000819050919050565b61016481610151565b82525050565b600060208201905061017f600083018461015b565b92915050565b6000819050919050565b61019881610185565b82525050565b60006020820190506101b3600083018461018f565b9291505056fea2646970667358221220d98d4af59085c3a45f4e640cd31855d034b46fed8d8d06981431c9b01664e76064736f6c63430008110033",
					"opcodes": "PUSH1 0x80 PUSH1 0x40 MSTORE PUSH1 0x1 PUSH1 0x0 DUP1 PUSH2 0x100 EXP DUP2 SLOAD DUP2 PUSH1 0xFF MUL NOT AND SWAP1 DUP4 ISZERO ISZERO MUL OR SWAP1 SSTORE POP PUSH1 0x7B PUSH1 0x1 SSTORE PUSH32 0xFFFFFFFFFFFFFFFFFFFFFFFFFFFFFFFFFFFFFFFFFFFFFFFFFFFFFFFFFFFFFF85 PUSH1 0x2 SSTORE PUSH32 0x8000000000000000000000000000000000000000000000000000000000000000 PUSH1 0x3 SSTORE PUSH32 0x7FFFFFFFFFFFFFFFFFFFFFFFFFFFFFFFFFFFFFFFFFFFFFFFFFFFFFFFFFFFFFFF PUSH1 0x4 SSTORE CALLVALUE DUP1 ISZERO PUSH2 0x9B JUMPI PUSH1 0x0 DUP1 REVERT JUMPDEST POP PUSH2 0x1EF DUP1 PUSH2 0xAB PUSH1 0x0 CODECOPY PUSH1 0x0 RETURN INVALID PUSH1 0x80 PUSH1 0x40 MSTORE CALLVALUE DUP1 ISZERO PUSH2 0x10 JUMPI PUSH1 0x0 DUP1 REVERT JUMPDEST POP PUSH1 0x4 CALLDATASIZE LT PUSH2 0x57 JUMPI PUSH1 0x0 CALLDATALOAD PUSH1 0xE0 SHR DUP1 PUSH4 0x4DF7E3D0 EQ PUSH2 0x5C JUMPI DUP1 PUSH4 0x7A4C2571 EQ PUSH2 0x7A JUMPI DUP1 PUSH4 0x7E4E14CC EQ PUSH2 0x98 JUMPI DUP1 PUSH4 0xC6A898C5 EQ PUSH2 0xB6 JUMPI DUP1 PUSH4 0xE5AA3D58 EQ PUSH2 0xD4 JUMPI JUMPDEST PUSH1 0x0 DUP1 REVERT JUMPDEST PUSH2 0x64 PUSH2 0xF2 JUMP JUMPDEST PUSH1 0x40 MLOAD PUSH2 0x71 SWAP2 SWAP1 PUSH2 0x136 JUMP JUMPDEST PUSH1 0x40 MLOAD DUP1 SWAP2 SUB SWAP1 RETURN JUMPDEST PUSH2 0x82 PUSH2 0x103 JUMP JUMPDEST PUSH1 0x40 MLOAD PUSH2 0x8F SWAP2 SWAP1 PUSH2 0x16A JUMP JUMPDEST PUSH1 0x40 MLOAD DUP1 SWAP2 SUB SWAP1 RETURN JUMPDEST PUSH2 0xA0 PUSH2 0x109 JUMP JUMPDEST PUSH1 0x40 MLOAD PUSH2 0xAD SWAP2 SWAP1 PUSH2 0x16A JUMP JUMPDEST PUSH1 0x40 MLOAD DUP1 SWAP2 SUB SWAP1 RETURN JUMPDEST PUSH2 0xBE PUSH2 0x10F JUMP JUMPDEST PUSH1 0x40 MLOAD PUSH2 0xCB SWAP2 SWAP1 PUSH2 0x19E JUMP JUMPDEST PUSH1 0x40 MLOAD DUP1 SWAP2 SUB SWAP1 RETURN JUMPDEST PUSH2 0xDC PUSH2 0x115 JUMP JUMPDEST PUSH1 0x40 MLOAD PUSH2 0xE9 SWAP2 SWAP1 PUSH2 0x16A JUMP JUMPDEST PUSH1 0x40 MLOAD DUP1 SWAP2 SUB SWAP1 RETURN JUMPDEST PUSH1 0x0 DUP1 SLOAD SWAP1 PUSH2 0x100 EXP SWAP1 DIV PUSH1 0xFF AND DUP2 JUMP JUMPDEST PUSH1 0x4 SLOAD DUP2 JUMP JUMPDEST PUSH1 0x3 SLOAD DUP2 JUMP JUMPDEST PUSH1 0x1 SLOAD DUP2 JUMP JUMPDEST PUSH1 0x2 SLOAD DUP2 JUMP JUMPDEST PUSH1 0x0 DUP2 ISZERO ISZERO SWAP1 POP SWAP2 SWAP1 POP JUMP JUMPDEST PUSH2 0x130 DUP2 PUSH2 0x11B JUMP JUMPDEST DUP3 MSTORE POP POP JUMP JUMPDEST PUSH1 0x0 PUSH1 0x20 DUP3 ADD SWAP1 POP PUSH2 0x14B PUSH1 0x0 DUP4 ADD DUP5 PUSH2 0x127 JUMP JUMPDEST SWAP3 SWAP2 POP POP JUMP JUMPDEST PUSH1 0x0 DUP2 SWAP1 POP SWAP2 SWAP1 POP JUMP JUMPDEST PUSH2 0x164 DUP2 PUSH2 0x151 JUMP JUMPDEST DUP3 MSTORE POP POP JUMP JUMPDEST PUSH1 0x0 PUSH1 0x20 DUP3 ADD SWAP1 POP PUSH2 0x17F PUSH1 0x0 DUP4 ADD DUP5 PUSH2 0x15B JUMP JUMPDEST SWAP3 SWAP2 POP POP JUMP JUMPDEST PUSH1 0x0 DUP2 SWAP1 POP SWAP2 SWAP1 POP JUMP JUMPDEST PUSH2 0x198 DUP2 PUSH2 0x185 JUMP JUMPDEST DUP3 MSTORE POP POP JUMP JUMPDEST PUSH1 0x0 PUSH1 0x20 DUP3 ADD SWAP1 POP PUSH2 0x1B3 PUSH1 0x0 DUP4 ADD DUP5 PUSH2 0x18F JUMP JUMPDEST SWAP3 SWAP2 POP POP JUMP INVALID LOG2 PUSH5 0x6970667358 0x22 SLT KECCAK256 0xD9 DUP14 0x4A CREATE2 SWAP1 DUP6 0xC3 LOG4 0x5F 0x4E PUSH5 0xCD31855D0 CALLVALUE 0xB4 PUSH16 0xED8D8D06981431C9B01664E76064736F PUSH13 0x63430008110033000000000000 "
				},
				"gasEstimates": {
					"creation": {
						"codeDepositCost": "99000",
						"executionCost": "112838",
						"totalCost": "211838"
					},
					"external": {
						"b()": "2446",
						"i()": "2495",
						"maxInt()": "2429",
						"minInt()": "2451",
						"u()": "2473"
					}
				},
				"methodIdentifiers": {
					"b()": "4df7e3d0",
					"i()": "e5aa3d58",
					"maxInt()": "7a4c2571",
					"minInt()": "7e4e14cc",
					"u()": "c6a898c5"
				}
			},
			"storageLayout": {
				"storage": [
					{
						"astId": 4,
						"contract": "Data.sol:ValueTypes",
						"label": "b",
						"offset": 0,
						"slot": "0",
						"type": "t_bool"
					},
					{
						"astId": 7,
						"contract": "Data.sol:ValueTypes",
						"label": "u",
						"offset": 0,
						"slot": "1",
						"type": "t_uint256"
					},
					{
						"astId": 11,
						"contract": "Data.sol:ValueTypes",
						"label": "i",
						"offset": 0,
						"slot": "2",
						"type": "t_int256"
					},
					{
						"astId": 18,
						"contract": "Data.sol:ValueTypes",
						"label": "minInt",
						"offset": 0,
						"slot": "3",
						"type": "t_int256"
					},
					{
						"astId": 25,
						"contract": "Data.sol:ValueTypes",
						"label": "maxInt",
						"offset": 0,
						"slot": "4",
						"type": "t_int256"
					}
				],
				"types": {
					"t_bool": {
						"encoding": "inplace",
						"label": "bool",
						"numberOfBytes": "1"
					},
					"t_int256": {
						"encoding": "inplace",
						"label": "int256",
						"numberOfBytes": "32"
					},
					"t_uint256": {
						"encoding": "inplace",
						"label": "uint256",
						"numberOfBytes": "32"
					}
				}
			},
			"userdoc": {
				"kind": "user",
				"methods": {},
				"version": 1
			}
		}
	}
}