{
	"MultiSigWallet.sol": {
		"MultiSigWallet": {
			"abi": [
				{
					"anonymous": false,
					"inputs": [
						{
							"indexed": true,
							"internalType": "address",
							"name": "owner",
							"type": "address"
						},
						{
							"indexed": true,
							"internalType": "uint256",
							"name": "txId",
							"type": "uint256"
						}
					],
					"name": "Approve",
					"type": "event"
				},
				{
					"anonymous": false,
					"inputs": [
						{
							"indexed": true,
							"internalType": "address",
							"name": "sender",
							"type": "address"
						},
						{
							"indexed": false,
							"internalType": "uint256",
							"name": "amount",
							"type": "uint256"
						}
					],
					"name": "Deposit",
					"type": "event"
				},
				{
					"anonymous": false,
					"inputs": [
						{
							"indexed": true,
							"internalType": "uint256",
							"name": "txId",
							"type": "uint256"
						}
					],
					"name": "Excute",
					"type": "event"
				},
				{
					"anonymous": false,
					"inputs": [
						{
							"indexed": true,
							"internalType": "address",
							"name": "owner",
							"type": "address"
						},
						{
							"indexed": true,
							"internalType": "uint256",
							"name": "txId",
							"type": "uint256"
						}
					],
					"name": "Revoke",
					"type": "event"
				},
				{
					"anonymous": false,
					"inputs": [
						{
							"indexed": true,
							"internalType": "uint256",
							"name": "txId",
							"type": "uint256"
						}
					],
					"name": "Submit",
					"type": "event"
				},
				{
					"inputs": [
						{
							"internalType": "uint256",
							"name": "",
							"type": "uint256"
						},
						{
							"internalType": "address",
							"name": "",
							"type": "address"
						}
					],
					"name": "approved",
					"outputs": [
						{
							"internalType": "bool",
							"name": "",
							"type": "bool"
						}
					],
					"stateMutability": "view",
					"type": "function"
				},
				{
					"inputs": [
						{
							"internalType": "address",
							"name": "",
							"type": "address"
						}
					],
					"name": "isOwner",
					"outputs": [
						{
							"internalType": "bool",
							"name": "",
							"type": "bool"
						}
					],
					"stateMutability": "view",
					"type": "function"
				},
				{
					"inputs": [
						{
							"internalType": "uint256",
							"name": "",
							"type": "uint256"
						}
					],
					"name": "owners",
					"outputs": [
						{
							"internalType": "address",
							"name": "",
							"type": "address"
						}
					],
					"stateMutability": "view",
					"type": "function"
				},
				{
					"inputs": [],
					"name": "required",
					"outputs": [
						{
							"internalType": "uint256",
							"name": "",
							"type": "uint256"
						}
					],
					"stateMutability": "view",
					"type": "function"
				},
				{
					"inputs": [
						{
							"internalType": "uint256",
							"name": "",
							"type": "uint256"
						}
					],
					"name": "tracsactions",
					"outputs": [
						{
							"internalType": "address",
							"name": "to",
							"type": "address"
						},
						{
							"internalType": "uint256",
							"name": "value",
							"type": "uint256"
						},
						{
							"internalType": "bytes",
							"name": "data",
							"type": "bytes"
						},
						{
							"internalType": "bool",
							"name": "executed",
							"type": "bool"
						}
					],
					"stateMutability": "view",
					"type": "function"
				}
			],
			"devdoc": {
				"kind": "dev",
				"methods": {},
				"version": 1
			},
			"evm": {
				"assembly": "    /* \"MultiSigWallet.sol\":61:686  contract MultiSigWallet {... */\n  mstore(0x40, 0x80)\n  callvalue\n  dup1\n  iszero\n  tag_1\n  jumpi\n  0x00\n  dup1\n  revert\ntag_1:\n  pop\n  dataSize(sub_0)\n  dup1\n  dataOffset(sub_0)\n  0x00\n  codecopy\n  0x00\n  return\nstop\n\nsub_0: assembly {\n        /* \"MultiSigWallet.sol\":61:686  contract MultiSigWallet {... */\n      mstore(0x40, 0x80)\n      callvalue\n      dup1\n      iszero\n      tag_1\n      jumpi\n      0x00\n      dup1\n      revert\n    tag_1:\n      pop\n      jumpi(tag_2, lt(calldatasize, 0x04))\n      shr(0xe0, calldataload(0x00))\n      dup1\n      0x025e7c27\n      eq\n      tag_3\n      jumpi\n      dup1\n      0x23d27284\n      eq\n      tag_4\n      jumpi\n      dup1\n      0x2f54bf6e\n      eq\n      tag_5\n      jumpi\n      dup1\n      0x8253951a\n      eq\n      tag_6\n      jumpi\n      dup1\n      0xdc8452cd\n      eq\n      tag_7\n      jumpi\n    tag_2:\n      0x00\n      dup1\n      revert\n        /* \"MultiSigWallet.sol\":472:495  address[] public owners */\n    tag_3:\n      tag_8\n      0x04\n      dup1\n      calldatasize\n      sub\n      dup2\n      add\n      swap1\n      tag_9\n      swap2\n      swap1\n      tag_10\n      jump\t// in\n    tag_9:\n      tag_11\n      jump\t// in\n    tag_8:\n      mload(0x40)\n      tag_12\n      swap2\n      swap1\n      tag_13\n      jump\t// in\n    tag_12:\n      mload(0x40)\n      dup1\n      swap2\n      sub\n      swap1\n      return\n        /* \"MultiSigWallet.sol\":577:610  Transaction[] public tracsactions */\n    tag_4:\n      tag_14\n      0x04\n      dup1\n      calldatasize\n      sub\n      dup2\n      add\n      swap1\n      tag_15\n      swap2\n      swap1\n      tag_10\n      jump\t// in\n    tag_15:\n      tag_16\n      jump\t// in\n    tag_14:\n      mload(0x40)\n      tag_17\n      swap5\n      swap4\n      swap3\n      swap2\n      swap1\n      tag_18\n      jump\t// in\n    tag_17:\n      mload(0x40)\n      dup1\n      swap2\n      sub\n      swap1\n      return\n        /* \"MultiSigWallet.sol\":502:541  mapping(address => bool) public isOwner */\n    tag_5:\n      tag_19\n      0x04\n      dup1\n      calldatasize\n      sub\n      dup2\n      add\n      swap1\n      tag_20\n      swap2\n      swap1\n      tag_21\n      jump\t// in\n    tag_20:\n      tag_22\n      jump\t// in\n    tag_19:\n      mload(0x40)\n      tag_23\n      swap2\n      swap1\n      tag_24\n      jump\t// in\n    tag_23:\n      mload(0x40)\n      dup1\n      swap2\n      sub\n      swap1\n      return\n        /* \"MultiSigWallet.sol\":617:674  mapping(uint => mapping(address => bool)) public approved */\n    tag_6:\n      tag_25\n      0x04\n      dup1\n      calldatasize\n      sub\n      dup2\n      add\n      swap1\n      tag_26\n      swap2\n      swap1\n      tag_27\n      jump\t// in\n    tag_26:\n      tag_28\n      jump\t// in\n    tag_25:\n      mload(0x40)\n      tag_29\n      swap2\n      swap1\n      tag_24\n      jump\t// in\n    tag_29:\n      mload(0x40)\n      dup1\n      swap2\n      sub\n      swap1\n      return\n        /* \"MultiSigWallet.sol\":548:568  uint public required */\n    tag_7:\n      tag_30\n      tag_31\n      jump\t// in\n    tag_30:\n      mload(0x40)\n      tag_32\n      swap2\n      swap1\n      tag_33\n      jump\t// in\n    tag_32:\n      mload(0x40)\n      dup1\n      swap2\n      sub\n      swap1\n      return\n        /* \"MultiSigWallet.sol\":472:495  address[] public owners */\n    tag_11:\n      0x00\n      dup2\n      dup2\n      sload\n      dup2\n      lt\n      tag_34\n      jumpi\n      0x00\n      dup1\n      revert\n    tag_34:\n      swap1\n      0x00\n      mstore\n      keccak256(0x00, 0x20)\n      add\n      0x00\n      swap2\n      pop\n      sload\n      swap1\n      0x0100\n      exp\n      swap1\n      div\n      0xffffffffffffffffffffffffffffffffffffffff\n      and\n      dup2\n      jump\t// out\n        /* \"MultiSigWallet.sol\":577:610  Transaction[] public tracsactions */\n    tag_16:\n      0x03\n      dup2\n      dup2\n      sload\n      dup2\n      lt\n      tag_36\n      jumpi\n      0x00\n      dup1\n      revert\n    tag_36:\n      swap1\n      0x00\n      mstore\n      keccak256(0x00, 0x20)\n      swap1\n      0x04\n      mul\n      add\n      0x00\n      swap2\n      pop\n      swap1\n      pop\n      dup1\n      0x00\n      add\n      0x00\n      swap1\n      sload\n      swap1\n      0x0100\n      exp\n      swap1\n      div\n      0xffffffffffffffffffffffffffffffffffffffff\n      and\n      swap1\n      dup1\n      0x01\n      add\n      sload\n      swap1\n      dup1\n      0x02\n      add\n      dup1\n      sload\n      tag_38\n      swap1\n      tag_39\n      jump\t// in\n    tag_38:\n      dup1\n      0x1f\n      add\n      0x20\n      dup1\n      swap2\n      div\n      mul\n      0x20\n      add\n      mload(0x40)\n      swap1\n      dup2\n      add\n      0x40\n      mstore\n      dup1\n      swap3\n      swap2\n      swap1\n      dup2\n      dup2\n      mstore\n      0x20\n      add\n      dup3\n      dup1\n      sload\n      tag_40\n      swap1\n      tag_39\n      jump\t// in\n    tag_40:\n      dup1\n      iszero\n      tag_41\n      jumpi\n      dup1\n      0x1f\n      lt\n      tag_42\n      jumpi\n      0x0100\n      dup1\n      dup4\n      sload\n      div\n      mul\n      dup4\n      mstore\n      swap2\n      0x20\n      add\n      swap2\n      jump(tag_41)\n    tag_42:\n      dup3\n      add\n      swap2\n      swap1\n      0x00\n      mstore\n      keccak256(0x00, 0x20)\n      swap1\n    tag_43:\n      dup2\n      sload\n      dup2\n      mstore\n      swap1\n      0x01\n      add\n      swap1\n      0x20\n      add\n      dup1\n      dup4\n      gt\n      tag_43\n      jumpi\n      dup3\n      swap1\n      sub\n      0x1f\n      and\n      dup3\n      add\n      swap2\n    tag_41:\n      pop\n      pop\n      pop\n      pop\n      pop\n      swap1\n      dup1\n      0x03\n      add\n      0x00\n      swap1\n      sload\n      swap1\n      0x0100\n      exp\n      swap1\n      div\n      0xff\n      and\n      swap1\n      pop\n      dup5\n      jump\t// out\n        /* \"MultiSigWallet.sol\":502:541  mapping(address => bool) public isOwner */\n    tag_22:\n      mstore(0x20, 0x01)\n      dup1\n      0x00\n      mstore\n      keccak256(0x00, 0x40)\n      0x00\n      swap2\n      pop\n      sload\n      swap1\n      0x0100\n      exp\n      swap1\n      div\n      0xff\n      and\n      dup2\n      jump\t// out\n        /* \"MultiSigWallet.sol\":617:674  mapping(uint => mapping(address => bool)) public approved */\n    tag_28:\n      mstore(0x20, 0x04)\n      dup2\n      0x00\n      mstore\n      mstore(0x20, keccak256(0x00, 0x40))\n      dup1\n      0x00\n      mstore\n      keccak256(0x00, 0x40)\n      0x00\n      swap2\n      pop\n      swap2\n      pop\n      swap1\n      sload\n      swap1\n      0x0100\n      exp\n      swap1\n      div\n      0xff\n      and\n      dup2\n      jump\t// out\n        /* \"MultiSigWallet.sol\":548:568  uint public required */\n    tag_31:\n      sload(0x02)\n      dup2\n      jump\t// out\n        /* \"#utility.yul\":88:205   */\n    tag_45:\n        /* \"#utility.yul\":197:198   */\n      0x00\n        /* \"#utility.yul\":194:195   */\n      dup1\n        /* \"#utility.yul\":187:199   */\n      revert\n        /* \"#utility.yul\":334:411   */\n    tag_47:\n        /* \"#utility.yul\":371:378   */\n      0x00\n        /* \"#utility.yul\":400:405   */\n      dup2\n        /* \"#utility.yul\":389:405   */\n      swap1\n      pop\n        /* \"#utility.yul\":334:411   */\n      swap2\n      swap1\n      pop\n      jump\t// out\n        /* \"#utility.yul\":417:539   */\n    tag_48:\n        /* \"#utility.yul\":490:514   */\n      tag_70\n        /* \"#utility.yul\":508:513   */\n      dup2\n        /* \"#utility.yul\":490:514   */\n      tag_47\n      jump\t// in\n    tag_70:\n        /* \"#utility.yul\":483:488   */\n      dup2\n        /* \"#utility.yul\":480:515   */\n      eq\n        /* \"#utility.yul\":470:533   */\n      tag_71\n      jumpi\n        /* \"#utility.yul\":529:530   */\n      0x00\n        /* \"#utility.yul\":526:527   */\n      dup1\n        /* \"#utility.yul\":519:531   */\n      revert\n        /* \"#utility.yul\":470:533   */\n    tag_71:\n        /* \"#utility.yul\":417:539   */\n      pop\n      jump\t// out\n        /* \"#utility.yul\":545:684   */\n    tag_49:\n        /* \"#utility.yul\":591:596   */\n      0x00\n        /* \"#utility.yul\":629:635   */\n      dup2\n        /* \"#utility.yul\":616:636   */\n      calldataload\n        /* \"#utility.yul\":607:636   */\n      swap1\n      pop\n        /* \"#utility.yul\":645:678   */\n      tag_73\n        /* \"#utility.yul\":672:677   */\n      dup2\n        /* \"#utility.yul\":645:678   */\n      tag_48\n      jump\t// in\n    tag_73:\n        /* \"#utility.yul\":545:684   */\n      swap3\n      swap2\n      pop\n      pop\n      jump\t// out\n        /* \"#utility.yul\":690:1019   */\n    tag_10:\n        /* \"#utility.yul\":749:755   */\n      0x00\n        /* \"#utility.yul\":798:800   */\n      0x20\n        /* \"#utility.yul\":786:795   */\n      dup3\n        /* \"#utility.yul\":777:784   */\n      dup5\n        /* \"#utility.yul\":773:796   */\n      sub\n        /* \"#utility.yul\":769:801   */\n      slt\n        /* \"#utility.yul\":766:885   */\n      iszero\n      tag_75\n      jumpi\n        /* \"#utility.yul\":804:883   */\n      tag_76\n      tag_45\n      jump\t// in\n    tag_76:\n        /* \"#utility.yul\":766:885   */\n    tag_75:\n        /* \"#utility.yul\":924:925   */\n      0x00\n        /* \"#utility.yul\":949:1002   */\n      tag_77\n        /* \"#utility.yul\":994:1001   */\n      dup5\n        /* \"#utility.yul\":985:991   */\n      dup3\n        /* \"#utility.yul\":974:983   */\n      dup6\n        /* \"#utility.yul\":970:992   */\n      add\n        /* \"#utility.yul\":949:1002   */\n      tag_49\n      jump\t// in\n    tag_77:\n        /* \"#utility.yul\":939:1002   */\n      swap2\n      pop\n        /* \"#utility.yul\":895:1012   */\n      pop\n        /* \"#utility.yul\":690:1019   */\n      swap3\n      swap2\n      pop\n      pop\n      jump\t// out\n        /* \"#utility.yul\":1025:1151   */\n    tag_50:\n        /* \"#utility.yul\":1062:1069   */\n      0x00\n        /* \"#utility.yul\":1102:1144   */\n      0xffffffffffffffffffffffffffffffffffffffff\n        /* \"#utility.yul\":1095:1100   */\n      dup3\n        /* \"#utility.yul\":1091:1145   */\n      and\n        /* \"#utility.yul\":1080:1145   */\n      swap1\n      pop\n        /* \"#utility.yul\":1025:1151   */\n      swap2\n      swap1\n      pop\n      jump\t// out\n        /* \"#utility.yul\":1157:1253   */\n    tag_51:\n        /* \"#utility.yul\":1194:1201   */\n      0x00\n        /* \"#utility.yul\":1223:1247   */\n      tag_80\n        /* \"#utility.yul\":1241:1246   */\n      dup3\n        /* \"#utility.yul\":1223:1247   */\n      tag_50\n      jump\t// in\n    tag_80:\n        /* \"#utility.yul\":1212:1247   */\n      swap1\n      pop\n        /* \"#utility.yul\":1157:1253   */\n      swap2\n      swap1\n      pop\n      jump\t// out\n        /* \"#utility.yul\":1259:1377   */\n    tag_52:\n        /* \"#utility.yul\":1346:1370   */\n      tag_82\n        /* \"#utility.yul\":1364:1369   */\n      dup2\n        /* \"#utility.yul\":1346:1370   */\n      tag_51\n      jump\t// in\n    tag_82:\n        /* \"#utility.yul\":1341:1344   */\n      dup3\n        /* \"#utility.yul\":1334:1371   */\n      mstore\n        /* \"#utility.yul\":1259:1377   */\n      pop\n      pop\n      jump\t// out\n        /* \"#utility.yul\":1383:1605   */\n    tag_13:\n        /* \"#utility.yul\":1476:1480   */\n      0x00\n        /* \"#utility.yul\":1514:1516   */\n      0x20\n        /* \"#utility.yul\":1503:1512   */\n      dup3\n        /* \"#utility.yul\":1499:1517   */\n      add\n        /* \"#utility.yul\":1491:1517   */\n      swap1\n      pop\n        /* \"#utility.yul\":1527:1598   */\n      tag_84\n        /* \"#utility.yul\":1595:1596   */\n      0x00\n        /* \"#utility.yul\":1584:1593   */\n      dup4\n        /* \"#utility.yul\":1580:1597   */\n      add\n        /* \"#utility.yul\":1571:1577   */\n      dup5\n        /* \"#utility.yul\":1527:1598   */\n      tag_52\n      jump\t// in\n    tag_84:\n        /* \"#utility.yul\":1383:1605   */\n      swap3\n      swap2\n      pop\n      pop\n      jump\t// out\n        /* \"#utility.yul\":1611:1729   */\n    tag_53:\n        /* \"#utility.yul\":1698:1722   */\n      tag_86\n        /* \"#utility.yul\":1716:1721   */\n      dup2\n        /* \"#utility.yul\":1698:1722   */\n      tag_47\n      jump\t// in\n    tag_86:\n        /* \"#utility.yul\":1693:1696   */\n      dup3\n        /* \"#utility.yul\":1686:1723   */\n      mstore\n        /* \"#utility.yul\":1611:1729   */\n      pop\n      pop\n      jump\t// out\n        /* \"#utility.yul\":1735:1833   */\n    tag_54:\n        /* \"#utility.yul\":1786:1792   */\n      0x00\n        /* \"#utility.yul\":1820:1825   */\n      dup2\n        /* \"#utility.yul\":1814:1826   */\n      mload\n        /* \"#utility.yul\":1804:1826   */\n      swap1\n      pop\n        /* \"#utility.yul\":1735:1833   */\n      swap2\n      swap1\n      pop\n      jump\t// out\n        /* \"#utility.yul\":1839:2007   */\n    tag_55:\n        /* \"#utility.yul\":1922:1933   */\n      0x00\n        /* \"#utility.yul\":1956:1962   */\n      dup3\n        /* \"#utility.yul\":1951:1954   */\n      dup3\n        /* \"#utility.yul\":1944:1963   */\n      mstore\n        /* \"#utility.yul\":1996:2000   */\n      0x20\n        /* \"#utility.yul\":1991:1994   */\n      dup3\n        /* \"#utility.yul\":1987:2001   */\n      add\n        /* \"#utility.yul\":1972:2001   */\n      swap1\n      pop\n        /* \"#utility.yul\":1839:2007   */\n      swap3\n      swap2\n      pop\n      pop\n      jump\t// out\n        /* \"#utility.yul\":2013:2259   */\n    tag_56:\n        /* \"#utility.yul\":2094:2095   */\n      0x00\n        /* \"#utility.yul\":2104:2217   */\n    tag_90:\n        /* \"#utility.yul\":2118:2124   */\n      dup4\n        /* \"#utility.yul\":2115:2116   */\n      dup2\n        /* \"#utility.yul\":2112:2125   */\n      lt\n        /* \"#utility.yul\":2104:2217   */\n      iszero\n      tag_92\n      jumpi\n        /* \"#utility.yul\":2203:2204   */\n      dup1\n        /* \"#utility.yul\":2198:2201   */\n      dup3\n        /* \"#utility.yul\":2194:2205   */\n      add\n        /* \"#utility.yul\":2188:2206   */\n      mload\n        /* \"#utility.yul\":2184:2185   */\n      dup2\n        /* \"#utility.yul\":2179:2182   */\n      dup5\n        /* \"#utility.yul\":2175:2186   */\n      add\n        /* \"#utility.yul\":2168:2207   */\n      mstore\n        /* \"#utility.yul\":2140:2142   */\n      0x20\n        /* \"#utility.yul\":2137:2138   */\n      dup2\n        /* \"#utility.yul\":2133:2143   */\n      add\n        /* \"#utility.yul\":2128:2143   */\n      swap1\n      pop\n        /* \"#utility.yul\":2104:2217   */\n      jump(tag_90)\n    tag_92:\n        /* \"#utility.yul\":2251:2252   */\n      0x00\n        /* \"#utility.yul\":2242:2248   */\n      dup5\n        /* \"#utility.yul\":2237:2240   */\n      dup5\n        /* \"#utility.yul\":2233:2249   */\n      add\n        /* \"#utility.yul\":2226:2253   */\n      mstore\n        /* \"#utility.yul\":2075:2259   */\n      pop\n        /* \"#utility.yul\":2013:2259   */\n      pop\n      pop\n      pop\n      jump\t// out\n        /* \"#utility.yul\":2265:2367   */\n    tag_57:\n        /* \"#utility.yul\":2306:2312   */\n      0x00\n        /* \"#utility.yul\":2357:2359   */\n      0x1f\n        /* \"#utility.yul\":2353:2360   */\n      not\n        /* \"#utility.yul\":2348:2350   */\n      0x1f\n        /* \"#utility.yul\":2341:2346   */\n      dup4\n        /* \"#utility.yul\":2337:2351   */\n      add\n        /* \"#utility.yul\":2333:2361   */\n      and\n        /* \"#utility.yul\":2323:2361   */\n      swap1\n      pop\n        /* \"#utility.yul\":2265:2367   */\n      swap2\n      swap1\n      pop\n      jump\t// out\n        /* \"#utility.yul\":2373:2746   */\n    tag_58:\n        /* \"#utility.yul\":2459:2462   */\n      0x00\n        /* \"#utility.yul\":2487:2525   */\n      tag_95\n        /* \"#utility.yul\":2519:2524   */\n      dup3\n        /* \"#utility.yul\":2487:2525   */\n      tag_54\n      jump\t// in\n    tag_95:\n        /* \"#utility.yul\":2541:2611   */\n      tag_96\n        /* \"#utility.yul\":2604:2610   */\n      dup2\n        /* \"#utility.yul\":2599:2602   */\n      dup6\n        /* \"#utility.yul\":2541:2611   */\n      tag_55\n      jump\t// in\n    tag_96:\n        /* \"#utility.yul\":2534:2611   */\n      swap4\n      pop\n        /* \"#utility.yul\":2620:2685   */\n      tag_97\n        /* \"#utility.yul\":2678:2684   */\n      dup2\n        /* \"#utility.yul\":2673:2676   */\n      dup6\n        /* \"#utility.yul\":2666:2670   */\n      0x20\n        /* \"#utility.yul\":2659:2664   */\n      dup7\n        /* \"#utility.yul\":2655:2671   */\n      add\n        /* \"#utility.yul\":2620:2685   */\n      tag_56\n      jump\t// in\n    tag_97:\n        /* \"#utility.yul\":2710:2739   */\n      tag_98\n        /* \"#utility.yul\":2732:2738   */\n      dup2\n        /* \"#utility.yul\":2710:2739   */\n      tag_57\n      jump\t// in\n    tag_98:\n        /* \"#utility.yul\":2705:2708   */\n      dup5\n        /* \"#utility.yul\":2701:2740   */\n      add\n        /* \"#utility.yul\":2694:2740   */\n      swap2\n      pop\n        /* \"#utility.yul\":2463:2746   */\n      pop\n        /* \"#utility.yul\":2373:2746   */\n      swap3\n      swap2\n      pop\n      pop\n      jump\t// out\n        /* \"#utility.yul\":2752:2842   */\n    tag_59:\n        /* \"#utility.yul\":2786:2793   */\n      0x00\n        /* \"#utility.yul\":2829:2834   */\n      dup2\n        /* \"#utility.yul\":2822:2835   */\n      iszero\n        /* \"#utility.yul\":2815:2836   */\n      iszero\n        /* \"#utility.yul\":2804:2836   */\n      swap1\n      pop\n        /* \"#utility.yul\":2752:2842   */\n      swap2\n      swap1\n      pop\n      jump\t// out\n        /* \"#utility.yul\":2848:2957   */\n    tag_60:\n        /* \"#utility.yul\":2929:2950   */\n      tag_101\n        /* \"#utility.yul\":2944:2949   */\n      dup2\n        /* \"#utility.yul\":2929:2950   */\n      tag_59\n      jump\t// in\n    tag_101:\n        /* \"#utility.yul\":2924:2927   */\n      dup3\n        /* \"#utility.yul\":2917:2951   */\n      mstore\n        /* \"#utility.yul\":2848:2957   */\n      pop\n      pop\n      jump\t// out\n        /* \"#utility.yul\":2963:3591   */\n    tag_18:\n        /* \"#utility.yul\":3152:3156   */\n      0x00\n        /* \"#utility.yul\":3190:3193   */\n      0x80\n        /* \"#utility.yul\":3179:3188   */\n      dup3\n        /* \"#utility.yul\":3175:3194   */\n      add\n        /* \"#utility.yul\":3167:3194   */\n      swap1\n      pop\n        /* \"#utility.yul\":3204:3275   */\n      tag_103\n        /* \"#utility.yul\":3272:3273   */\n      0x00\n        /* \"#utility.yul\":3261:3270   */\n      dup4\n        /* \"#utility.yul\":3257:3274   */\n      add\n        /* \"#utility.yul\":3248:3254   */\n      dup8\n        /* \"#utility.yul\":3204:3275   */\n      tag_52\n      jump\t// in\n    tag_103:\n        /* \"#utility.yul\":3285:3357   */\n      tag_104\n        /* \"#utility.yul\":3353:3355   */\n      0x20\n        /* \"#utility.yul\":3342:3351   */\n      dup4\n        /* \"#utility.yul\":3338:3356   */\n      add\n        /* \"#utility.yul\":3329:3335   */\n      dup7\n        /* \"#utility.yul\":3285:3357   */\n      tag_53\n      jump\t// in\n    tag_104:\n        /* \"#utility.yul\":3404:3413   */\n      dup2\n        /* \"#utility.yul\":3398:3402   */\n      dup2\n        /* \"#utility.yul\":3394:3414   */\n      sub\n        /* \"#utility.yul\":3389:3391   */\n      0x40\n        /* \"#utility.yul\":3378:3387   */\n      dup4\n        /* \"#utility.yul\":3374:3392   */\n      add\n        /* \"#utility.yul\":3367:3415   */\n      mstore\n        /* \"#utility.yul\":3432:3508   */\n      tag_105\n        /* \"#utility.yul\":3503:3507   */\n      dup2\n        /* \"#utility.yul\":3494:3500   */\n      dup6\n        /* \"#utility.yul\":3432:3508   */\n      tag_58\n      jump\t// in\n    tag_105:\n        /* \"#utility.yul\":3424:3508   */\n      swap1\n      pop\n        /* \"#utility.yul\":3518:3584   */\n      tag_106\n        /* \"#utility.yul\":3580:3582   */\n      0x60\n        /* \"#utility.yul\":3569:3578   */\n      dup4\n        /* \"#utility.yul\":3565:3583   */\n      add\n        /* \"#utility.yul\":3556:3562   */\n      dup5\n        /* \"#utility.yul\":3518:3584   */\n      tag_60\n      jump\t// in\n    tag_106:\n        /* \"#utility.yul\":2963:3591   */\n      swap6\n      swap5\n      pop\n      pop\n      pop\n      pop\n      pop\n      jump\t// out\n        /* \"#utility.yul\":3597:3719   */\n    tag_61:\n        /* \"#utility.yul\":3670:3694   */\n      tag_108\n        /* \"#utility.yul\":3688:3693   */\n      dup2\n        /* \"#utility.yul\":3670:3694   */\n      tag_51\n      jump\t// in\n    tag_108:\n        /* \"#utility.yul\":3663:3668   */\n      dup2\n        /* \"#utility.yul\":3660:3695   */\n      eq\n        /* \"#utility.yul\":3650:3713   */\n      tag_109\n      jumpi\n        /* \"#utility.yul\":3709:3710   */\n      0x00\n        /* \"#utility.yul\":3706:3707   */\n      dup1\n        /* \"#utility.yul\":3699:3711   */\n      revert\n        /* \"#utility.yul\":3650:3713   */\n    tag_109:\n        /* \"#utility.yul\":3597:3719   */\n      pop\n      jump\t// out\n        /* \"#utility.yul\":3725:3864   */\n    tag_62:\n        /* \"#utility.yul\":3771:3776   */\n      0x00\n        /* \"#utility.yul\":3809:3815   */\n      dup2\n        /* \"#utility.yul\":3796:3816   */\n      calldataload\n        /* \"#utility.yul\":3787:3816   */\n      swap1\n      pop\n        /* \"#utility.yul\":3825:3858   */\n      tag_111\n        /* \"#utility.yul\":3852:3857   */\n      dup2\n        /* \"#utility.yul\":3825:3858   */\n      tag_61\n      jump\t// in\n    tag_111:\n        /* \"#utility.yul\":3725:3864   */\n      swap3\n      swap2\n      pop\n      pop\n      jump\t// out\n        /* \"#utility.yul\":3870:4199   */\n    tag_21:\n        /* \"#utility.yul\":3929:3935   */\n      0x00\n        /* \"#utility.yul\":3978:3980   */\n      0x20\n        /* \"#utility.yul\":3966:3975   */\n      dup3\n        /* \"#utility.yul\":3957:3964   */\n      dup5\n        /* \"#utility.yul\":3953:3976   */\n      sub\n        /* \"#utility.yul\":3949:3981   */\n      slt\n        /* \"#utility.yul\":3946:4065   */\n      iszero\n      tag_113\n      jumpi\n        /* \"#utility.yul\":3984:4063   */\n      tag_114\n      tag_45\n      jump\t// in\n    tag_114:\n        /* \"#utility.yul\":3946:4065   */\n    tag_113:\n        /* \"#utility.yul\":4104:4105   */\n      0x00\n        /* \"#utility.yul\":4129:4182   */\n      tag_115\n        /* \"#utility.yul\":4174:4181   */\n      dup5\n        /* \"#utility.yul\":4165:4171   */\n      dup3\n        /* \"#utility.yul\":4154:4163   */\n      dup6\n        /* \"#utility.yul\":4150:4172   */\n      add\n        /* \"#utility.yul\":4129:4182   */\n      tag_62\n      jump\t// in\n    tag_115:\n        /* \"#utility.yul\":4119:4182   */\n      swap2\n      pop\n        /* \"#utility.yul\":4075:4192   */\n      pop\n        /* \"#utility.yul\":3870:4199   */\n      swap3\n      swap2\n      pop\n      pop\n      jump\t// out\n        /* \"#utility.yul\":4205:4415   */\n    tag_24:\n        /* \"#utility.yul\":4292:4296   */\n      0x00\n        /* \"#utility.yul\":4330:4332   */\n      0x20\n        /* \"#utility.yul\":4319:4328   */\n      dup3\n        /* \"#utility.yul\":4315:4333   */\n      add\n        /* \"#utility.yul\":4307:4333   */\n      swap1\n      pop\n        /* \"#utility.yul\":4343:4408   */\n      tag_117\n        /* \"#utility.yul\":4405:4406   */\n      0x00\n        /* \"#utility.yul\":4394:4403   */\n      dup4\n        /* \"#utility.yul\":4390:4407   */\n      add\n        /* \"#utility.yul\":4381:4387   */\n      dup5\n        /* \"#utility.yul\":4343:4408   */\n      tag_60\n      jump\t// in\n    tag_117:\n        /* \"#utility.yul\":4205:4415   */\n      swap3\n      swap2\n      pop\n      pop\n      jump\t// out\n        /* \"#utility.yul\":4421:4895   */\n    tag_27:\n        /* \"#utility.yul\":4489:4495   */\n      0x00\n        /* \"#utility.yul\":4497:4503   */\n      dup1\n        /* \"#utility.yul\":4546:4548   */\n      0x40\n        /* \"#utility.yul\":4534:4543   */\n      dup4\n        /* \"#utility.yul\":4525:4532   */\n      dup6\n        /* \"#utility.yul\":4521:4544   */\n      sub\n        /* \"#utility.yul\":4517:4549   */\n      slt\n        /* \"#utility.yul\":4514:4633   */\n      iszero\n      tag_119\n      jumpi\n        /* \"#utility.yul\":4552:4631   */\n      tag_120\n      tag_45\n      jump\t// in\n    tag_120:\n        /* \"#utility.yul\":4514:4633   */\n    tag_119:\n        /* \"#utility.yul\":4672:4673   */\n      0x00\n        /* \"#utility.yul\":4697:4750   */\n      tag_121\n        /* \"#utility.yul\":4742:4749   */\n      dup6\n        /* \"#utility.yul\":4733:4739   */\n      dup3\n        /* \"#utility.yul\":4722:4731   */\n      dup7\n        /* \"#utility.yul\":4718:4740   */\n      add\n        /* \"#utility.yul\":4697:4750   */\n      tag_49\n      jump\t// in\n    tag_121:\n        /* \"#utility.yul\":4687:4750   */\n      swap3\n      pop\n        /* \"#utility.yul\":4643:4760   */\n      pop\n        /* \"#utility.yul\":4799:4801   */\n      0x20\n        /* \"#utility.yul\":4825:4878   */\n      tag_122\n        /* \"#utility.yul\":4870:4877   */\n      dup6\n        /* \"#utility.yul\":4861:4867   */\n      dup3\n        /* \"#utility.yul\":4850:4859   */\n      dup7\n        /* \"#utility.yul\":4846:4868   */\n      add\n        /* \"#utility.yul\":4825:4878   */\n      tag_62\n      jump\t// in\n    tag_122:\n        /* \"#utility.yul\":4815:4878   */\n      swap2\n      pop\n        /* \"#utility.yul\":4770:4888   */\n      pop\n        /* \"#utility.yul\":4421:4895   */\n      swap3\n      pop\n      swap3\n      swap1\n      pop\n      jump\t// out\n        /* \"#utility.yul\":4901:5123   */\n    tag_33:\n        /* \"#utility.yul\":4994:4998   */\n      0x00\n        /* \"#utility.yul\":5032:5034   */\n      0x20\n        /* \"#utility.yul\":5021:5030   */\n      dup3\n        /* \"#utility.yul\":5017:5035   */\n      add\n        /* \"#utility.yul\":5009:5035   */\n      swap1\n      pop\n        /* \"#utility.yul\":5045:5116   */\n      tag_124\n        /* \"#utility.yul\":5113:5114   */\n      0x00\n        /* \"#utility.yul\":5102:5111   */\n      dup4\n        /* \"#utility.yul\":5098:5115   */\n      add\n        /* \"#utility.yul\":5089:5095   */\n      dup5\n        /* \"#utility.yul\":5045:5116   */\n      tag_53\n      jump\t// in\n    tag_124:\n        /* \"#utility.yul\":4901:5123   */\n      swap3\n      swap2\n      pop\n      pop\n      jump\t// out\n        /* \"#utility.yul\":5129:5309   */\n    tag_63:\n        /* \"#utility.yul\":5177:5254   */\n      0x4e487b7100000000000000000000000000000000000000000000000000000000\n        /* \"#utility.yul\":5174:5175   */\n      0x00\n        /* \"#utility.yul\":5167:5255   */\n      mstore\n        /* \"#utility.yul\":5274:5278   */\n      0x22\n        /* \"#utility.yul\":5271:5272   */\n      0x04\n        /* \"#utility.yul\":5264:5279   */\n      mstore\n        /* \"#utility.yul\":5298:5302   */\n      0x24\n        /* \"#utility.yul\":5295:5296   */\n      0x00\n        /* \"#utility.yul\":5288:5303   */\n      revert\n        /* \"#utility.yul\":5315:5635   */\n    tag_39:\n        /* \"#utility.yul\":5359:5365   */\n      0x00\n        /* \"#utility.yul\":5396:5397   */\n      0x02\n        /* \"#utility.yul\":5390:5394   */\n      dup3\n        /* \"#utility.yul\":5386:5398   */\n      div\n        /* \"#utility.yul\":5376:5398   */\n      swap1\n      pop\n        /* \"#utility.yul\":5443:5444   */\n      0x01\n        /* \"#utility.yul\":5437:5441   */\n      dup3\n        /* \"#utility.yul\":5433:5445   */\n      and\n        /* \"#utility.yul\":5464:5482   */\n      dup1\n        /* \"#utility.yul\":5454:5535   */\n      tag_127\n      jumpi\n        /* \"#utility.yul\":5520:5524   */\n      0x7f\n        /* \"#utility.yul\":5512:5518   */\n      dup3\n        /* \"#utility.yul\":5508:5525   */\n      and\n        /* \"#utility.yul\":5498:5525   */\n      swap2\n      pop\n        /* \"#utility.yul\":5454:5535   */\n    tag_127:\n        /* \"#utility.yul\":5582:5584   */\n      0x20\n        /* \"#utility.yul\":5574:5580   */\n      dup3\n        /* \"#utility.yul\":5571:5585   */\n      lt\n        /* \"#utility.yul\":5551:5569   */\n      dup2\n        /* \"#utility.yul\":5548:5586   */\n      sub\n        /* \"#utility.yul\":5545:5629   */\n      tag_128\n      jumpi\n        /* \"#utility.yul\":5601:5619   */\n      tag_129\n      tag_63\n      jump\t// in\n    tag_129:\n        /* \"#utility.yul\":5545:5629   */\n    tag_128:\n        /* \"#utility.yul\":5366:5635   */\n      pop\n        /* \"#utility.yul\":5315:5635   */\n      swap2\n      swap1\n      pop\n      jump\t// out\n\n    auxdata: 0xa26469706673582212202a30fa7c19b2fac8fb7b80d31e5dff9fa67843c494e4ea6ca1a06a84aa67c5d464736f6c63430008110033\n}\n",
				"bytecode": {
					"linkReferences": {},
					"object": "608060405234801561001057600080fd5b506105f5806100206000396000f3fe608060405234801561001057600080fd5b50600436106100575760003560e01c8063025e7c271461005c57806323d272841461008c5780632f54bf6e146100bf5780638253951a146100ef578063dc8452cd1461011f575b600080fd5b61007660048036038101906100719190610301565b61013d565b604051610083919061036f565b60405180910390f35b6100a660048036038101906100a19190610301565b61017c565b6040516100b69493929190610444565b60405180910390f35b6100d960048036038101906100d491906104bc565b610271565b6040516100e691906104e9565b60405180910390f35b61010960048036038101906101049190610504565b610291565b60405161011691906104e9565b60405180910390f35b6101276102c0565b6040516101349190610544565b60405180910390f35b6000818154811061014d57600080fd5b906000526020600020016000915054906101000a900473ffffffffffffffffffffffffffffffffffffffff1681565b6003818154811061018c57600080fd5b90600052602060002090600402016000915090508060000160009054906101000a900473ffffffffffffffffffffffffffffffffffffffff16908060010154908060020180546101db9061058e565b80601f01602080910402602001604051908101604052809291908181526020018280546102079061058e565b80156102545780601f1061022957610100808354040283529160200191610254565b820191906000526020600020905b81548152906001019060200180831161023757829003601f168201915b5050505050908060030160009054906101000a900460ff16905084565b60016020528060005260406000206000915054906101000a900460ff1681565b60046020528160005260406000206020528060005260406000206000915091509054906101000a900460ff1681565b60025481565b600080fd5b6000819050919050565b6102de816102cb565b81146102e957600080fd5b50565b6000813590506102fb816102d5565b92915050565b600060208284031215610317576103166102c6565b5b6000610325848285016102ec565b91505092915050565b600073ffffffffffffffffffffffffffffffffffffffff82169050919050565b60006103598261032e565b9050919050565b6103698161034e565b82525050565b60006020820190506103846000830184610360565b92915050565b610393816102cb565b82525050565b600081519050919050565b600082825260208201905092915050565b60005b838110156103d35780820151818401526020810190506103b8565b60008484015250505050565b6000601f19601f8301169050919050565b60006103fb82610399565b61040581856103a4565b93506104158185602086016103b5565b61041e816103df565b840191505092915050565b60008115159050919050565b61043e81610429565b82525050565b60006080820190506104596000830187610360565b610466602083018661038a565b818103604083015261047881856103f0565b90506104876060830184610435565b95945050505050565b6104998161034e565b81146104a457600080fd5b50565b6000813590506104b681610490565b92915050565b6000602082840312156104d2576104d16102c6565b5b60006104e0848285016104a7565b91505092915050565b60006020820190506104fe6000830184610435565b92915050565b6000806040838503121561051b5761051a6102c6565b5b6000610529858286016102ec565b925050602061053a858286016104a7565b9150509250929050565b6000602082019050610559600083018461038a565b92915050565b7f4e487b7100000000000000000000000000000000000000000000000000000000600052602260045260246000fd5b600060028204905060018216806105a657607f821691505b6020821081036105b9576105b861055f565b5b5091905056fea26469706673582212202a30fa7c19b2fac8fb7b80d31e5dff9fa67843c494e4ea6ca1a06a84aa67c5d464736f6c63430008110033",
					"opcodes": "PUSH1 0x80 PUSH1 0x40 MSTORE CALLVALUE DUP1 ISZERO PUSH2 0x10 JUMPI PUSH1 0x0 DUP1 REVERT JUMPDEST POP PUSH2 0x5F5 DUP1 PUSH2 0x20 PUSH1 0x0 CODECOPY PUSH1 0x0 RETURN INVALID PUSH1 0x80 PUSH1 0x40 MSTORE CALLVALUE DUP1 ISZERO PUSH2 0x10 JUMPI PUSH1 0x0 DUP1 REVERT JUMPDEST POP PUSH1 0x4 CALLDATASIZE LT PUSH2 0x57 JUMPI PUSH1 0x0 CALLDATALOAD PUSH1 0xE0 SHR DUP1 PUSH4 0x25E7C27 EQ PUSH2 0x5C JUMPI DUP1 PUSH4 0x23D27284 EQ PUSH2 0x8C JUMPI DUP1 PUSH4 0x2F54BF6E EQ PUSH2 0xBF JUMPI DUP1 PUSH4 0x8253951A EQ PUSH2 0xEF JUMPI DUP1 PUSH4 0xDC8452CD EQ PUSH2 0x11F JUMPI JUMPDEST PUSH1 0x0 DUP1 REVERT JUMPDEST PUSH2 0x76 PUSH1 0x4 DUP1 CALLDATASIZE SUB DUP2 ADD SWAP1 PUSH2 0x71 SWAP2 SWAP1 PUSH2 0x301 JUMP JUMPDEST PUSH2 0x13D JUMP JUMPDEST PUSH1 0x40 MLOAD PUSH2 0x83 SWAP2 SWAP1 PUSH2 0x36F JUMP JUMPDEST PUSH1 0x40 MLOAD DUP1 SWAP2 SUB SWAP1 RETURN JUMPDEST PUSH2 0xA6 PUSH1 0x4 DUP1 CALLDATASIZE SUB DUP2 ADD SWAP1 PUSH2 0xA1 SWAP2 SWAP1 PUSH2 0x301 JUMP JUMPDEST PUSH2 0x17C JUMP JUMPDEST PUSH1 0x40 MLOAD PUSH2 0xB6 SWAP5 SWAP4 SWAP3 SWAP2 SWAP1 PUSH2 0x444 JUMP JUMPDEST PUSH1 0x40 MLOAD DUP1 SWAP2 SUB SWAP1 RETURN JUMPDEST PUSH2 0xD9 PUSH1 0x4 DUP1 CALLDATASIZE SUB DUP2 ADD SWAP1 PUSH2 0xD4 SWAP2 SWAP1 PUSH2 0x4BC JUMP JUMPDEST PUSH2 0x271 JUMP JUMPDEST PUSH1 0x40 MLOAD PUSH2 0xE6 SWAP2 SWAP1 PUSH2 0x4E9 JUMP JUMPDEST PUSH1 0x40 MLOAD DUP1 SWAP2 SUB SWAP1 RETURN JUMPDEST PUSH2 0x109 PUSH1 0x4 DUP1 CALLDATASIZE SUB DUP2 ADD SWAP1 PUSH2 0x104 SWAP2 SWAP1 PUSH2 0x504 JUMP JUMPDEST PUSH2 0x291 JUMP JUMPDEST PUSH1 0x40 MLOAD PUSH2 0x116 SWAP2 SWAP1 PUSH2 0x4E9 JUMP JUMPDEST PUSH1 0x40 MLOAD DUP1 SWAP2 SUB SWAP1 RETURN JUMPDEST PUSH2 0x127 PUSH2 0x2C0 JUMP JUMPDEST PUSH1 0x40 MLOAD PUSH2 0x134 SWAP2 SWAP1 PUSH2 0x544 JUMP JUMPDEST PUSH1 0x40 MLOAD DUP1 SWAP2 SUB SWAP1 RETURN JUMPDEST PUSH1 0x0 DUP2 DUP2 SLOAD DUP2 LT PUSH2 0x14D JUMPI PUSH1 0x0 DUP1 REVERT JUMPDEST SWAP1 PUSH1 0x0 MSTORE PUSH1 0x20 PUSH1 0x0 KECCAK256 ADD PUSH1 0x0 SWAP2 POP SLOAD SWAP1 PUSH2 0x100 EXP SWAP1 DIV PUSH20 0xFFFFFFFFFFFFFFFFFFFFFFFFFFFFFFFFFFFFFFFF AND DUP2 JUMP JUMPDEST PUSH1 0x3 DUP2 DUP2 SLOAD DUP2 LT PUSH2 0x18C JUMPI PUSH1 0x0 DUP1 REVERT JUMPDEST SWAP1 PUSH1 0x0 MSTORE PUSH1 0x20 PUSH1 0x0 KECCAK256 SWAP1 PUSH1 0x4 MUL ADD PUSH1 0x0 SWAP2 POP SWAP1 POP DUP1 PUSH1 0x0 ADD PUSH1 0x0 SWAP1 SLOAD SWAP1 PUSH2 0x100 EXP SWAP1 DIV PUSH20 0xFFFFFFFFFFFFFFFFFFFFFFFFFFFFFFFFFFFFFFFF AND SWAP1 DUP1 PUSH1 0x1 ADD SLOAD SWAP1 DUP1 PUSH1 0x2 ADD DUP1 SLOAD PUSH2 0x1DB SWAP1 PUSH2 0x58E JUMP JUMPDEST DUP1 PUSH1 0x1F ADD PUSH1 0x20 DUP1 SWAP2 DIV MUL PUSH1 0x20 ADD PUSH1 0x40 MLOAD SWAP1 DUP2 ADD PUSH1 0x40 MSTORE DUP1 SWAP3 SWAP2 SWAP1 DUP2 DUP2 MSTORE PUSH1 0x20 ADD DUP3 DUP1 SLOAD PUSH2 0x207 SWAP1 PUSH2 0x58E JUMP JUMPDEST DUP1 ISZERO PUSH2 0x254 JUMPI DUP1 PUSH1 0x1F LT PUSH2 0x229 JUMPI PUSH2 0x100 DUP1 DUP4 SLOAD DIV MUL DUP4 MSTORE SWAP2 PUSH1 0x20 ADD SWAP2 PUSH2 0x254 JUMP JUMPDEST DUP3 ADD SWAP2 SWAP1 PUSH1 0x0 MSTORE PUSH1 0x20 PUSH1 0x0 KECCAK256 SWAP1 JUMPDEST DUP2 SLOAD DUP2 MSTORE SWAP1 PUSH1 0x1 ADD SWAP1 PUSH1 0x20 ADD DUP1 DUP4 GT PUSH2 0x237 JUMPI DUP3 SWAP1 SUB PUSH1 0x1F AND DUP3 ADD SWAP2 JUMPDEST POP POP POP POP POP SWAP1 DUP1 PUSH1 0x3 ADD PUSH1 0x0 SWAP1 SLOAD SWAP1 PUSH2 0x100 EXP SWAP1 DIV PUSH1 0xFF AND SWAP1 POP DUP5 JUMP JUMPDEST PUSH1 0x1 PUSH1 0x20 MSTORE DUP1 PUSH1 0x0 MSTORE PUSH1 0x40 PUSH1 0x0 KECCAK256 PUSH1 0x0 SWAP2 POP SLOAD SWAP1 PUSH2 0x100 EXP SWAP1 DIV PUSH1 0xFF AND DUP2 JUMP JUMPDEST PUSH1 0x4 PUSH1 0x20 MSTORE DUP2 PUSH1 0x0 MSTORE PUSH1 0x40 PUSH1 0x0 KECCAK256 PUSH1 0x20 MSTORE DUP1 PUSH1 0x0 MSTORE PUSH1 0x40 PUSH1 0x0 KECCAK256 PUSH1 0x0 SWAP2 POP SWAP2 POP SWAP1 SLOAD SWAP1 PUSH2 0x100 EXP SWAP1 DIV PUSH1 0xFF AND DUP2 JUMP JUMPDEST PUSH1 0x2 SLOAD DUP2 JUMP JUMPDEST PUSH1 0x0 DUP1 REVERT JUMPDEST PUSH1 0x0 DUP2 SWAP1 POP SWAP2 SWAP1 POP JUMP JUMPDEST PUSH2 0x2DE DUP2 PUSH2 0x2CB JUMP JUMPDEST DUP2 EQ PUSH2 0x2E9 JUMPI PUSH1 0x0 DUP1 REVERT JUMPDEST POP JUMP JUMPDEST PUSH1 0x0 DUP2 CALLDATALOAD SWAP1 POP PUSH2 0x2FB DUP2 PUSH2 0x2D5 JUMP JUMPDEST SWAP3 SWAP2 POP POP JUMP JUMPDEST PUSH1 0x0 PUSH1 0x20 DUP3 DUP5 SUB SLT ISZERO PUSH2 0x317 JUMPI PUSH2 0x316 PUSH2 0x2C6 JUMP JUMPDEST JUMPDEST PUSH1 0x0 PUSH2 0x325 DUP5 DUP3 DUP6 ADD PUSH2 0x2EC JUMP JUMPDEST SWAP2 POP POP SWAP3 SWAP2 POP POP JUMP JUMPDEST PUSH1 0x0 PUSH20 0xFFFFFFFFFFFFFFFFFFFFFFFFFFFFFFFFFFFFFFFF DUP3 AND SWAP1 POP SWAP2 SWAP1 POP JUMP JUMPDEST PUSH1 0x0 PUSH2 0x359 DUP3 PUSH2 0x32E JUMP JUMPDEST SWAP1 POP SWAP2 SWAP1 POP JUMP JUMPDEST PUSH2 0x369 DUP2 PUSH2 0x34E JUMP JUMPDEST DUP3 MSTORE POP POP JUMP JUMPDEST PUSH1 0x0 PUSH1 0x20 DUP3 ADD SWAP1 POP PUSH2 0x384 PUSH1 0x0 DUP4 ADD DUP5 PUSH2 0x360 JUMP JUMPDEST SWAP3 SWAP2 POP POP JUMP JUMPDEST PUSH2 0x393 DUP2 PUSH2 0x2CB JUMP JUMPDEST DUP3 MSTORE POP POP JUMP JUMPDEST PUSH1 0x0 DUP2 MLOAD SWAP1 POP SWAP2 SWAP1 POP JUMP JUMPDEST PUSH1 0x0 DUP3 DUP3 MSTORE PUSH1 0x20 DUP3 ADD SWAP1 POP SWAP3 SWAP2 POP POP JUMP JUMPDEST PUSH1 0x0 JUMPDEST DUP4 DUP2 LT ISZERO PUSH2 0x3D3 JUMPI DUP1 DUP3 ADD MLOAD DUP2 DUP5 ADD MSTORE PUSH1 0x20 DUP2 ADD SWAP1 POP PUSH2 0x3B8 JUMP JUMPDEST PUSH1 0x0 DUP5 DUP5 ADD MSTORE POP POP POP POP JUMP JUMPDEST PUSH1 0x0 PUSH1 0x1F NOT PUSH1 0x1F DUP4 ADD AND SWAP1 POP SWAP2 SWAP1 POP JUMP JUMPDEST PUSH1 0x0 PUSH2 0x3FB DUP3 PUSH2 0x399 JUMP JUMPDEST PUSH2 0x405 DUP2 DUP6 PUSH2 0x3A4 JUMP JUMPDEST SWAP4 POP PUSH2 0x415 DUP2 DUP6 PUSH1 0x20 DUP7 ADD PUSH2 0x3B5 JUMP JUMPDEST PUSH2 0x41E DUP2 PUSH2 0x3DF JUMP JUMPDEST DUP5 ADD SWAP2 POP POP SWAP3 SWAP2 POP POP JUMP JUMPDEST PUSH1 0x0 DUP2 ISZERO ISZERO SWAP1 POP SWAP2 SWAP1 POP JUMP JUMPDEST PUSH2 0x43E DUP2 PUSH2 0x429 JUMP JUMPDEST DUP3 MSTORE POP POP JUMP JUMPDEST PUSH1 0x0 PUSH1 0x80 DUP3 ADD SWAP1 POP PUSH2 0x459 PUSH1 0x0 DUP4 ADD DUP8 PUSH2 0x360 JUMP JUMPDEST PUSH2 0x466 PUSH1 0x20 DUP4 ADD DUP7 PUSH2 0x38A JUMP JUMPDEST DUP2 DUP2 SUB PUSH1 0x40 DUP4 ADD MSTORE PUSH2 0x478 DUP2 DUP6 PUSH2 0x3F0 JUMP JUMPDEST SWAP1 POP PUSH2 0x487 PUSH1 0x60 DUP4 ADD DUP5 PUSH2 0x435 JUMP JUMPDEST SWAP6 SWAP5 POP POP POP POP POP JUMP JUMPDEST PUSH2 0x499 DUP2 PUSH2 0x34E JUMP JUMPDEST DUP2 EQ PUSH2 0x4A4 JUMPI PUSH1 0x0 DUP1 REVERT JUMPDEST POP JUMP JUMPDEST PUSH1 0x0 DUP2 CALLDATALOAD SWAP1 POP PUSH2 0x4B6 DUP2 PUSH2 0x490 JUMP JUMPDEST SWAP3 SWAP2 POP POP JUMP JUMPDEST PUSH1 0x0 PUSH1 0x20 DUP3 DUP5 SUB SLT ISZERO PUSH2 0x4D2 JUMPI PUSH2 0x4D1 PUSH2 0x2C6 JUMP JUMPDEST JUMPDEST PUSH1 0x0 PUSH2 0x4E0 DUP5 DUP3 DUP6 ADD PUSH2 0x4A7 JUMP JUMPDEST SWAP2 POP POP SWAP3 SWAP2 POP POP JUMP JUMPDEST PUSH1 0x0 PUSH1 0x20 DUP3 ADD SWAP1 POP PUSH2 0x4FE PUSH1 0x0 DUP4 ADD DUP5 PUSH2 0x435 JUMP JUMPDEST SWAP3 SWAP2 POP POP JUMP JUMPDEST PUSH1 0x0 DUP1 PUSH1 0x40 DUP4 DUP6 SUB SLT ISZERO PUSH2 0x51B JUMPI PUSH2 0x51A PUSH2 0x2C6 JUMP JUMPDEST JUMPDEST PUSH1 0x0 PUSH2 0x529 DUP6 DUP3 DUP7 ADD PUSH2 0x2EC JUMP JUMPDEST SWAP3 POP POP PUSH1 0x20 PUSH2 0x53A DUP6 DUP3 DUP7 ADD PUSH2 0x4A7 JUMP JUMPDEST SWAP2 POP POP SWAP3 POP SWAP3 SWAP1 POP JUMP JUMPDEST PUSH1 0x0 PUSH1 0x20 DUP3 ADD SWAP1 POP PUSH2 0x559 PUSH1 0x0 DUP4 ADD DUP5 PUSH2 0x38A JUMP JUMPDEST SWAP3 SWAP2 POP POP JUMP JUMPDEST PUSH32 0x4E487B7100000000000000000000000000000000000000000000000000000000 PUSH1 0x0 MSTORE PUSH1 0x22 PUSH1 0x4 MSTORE PUSH1 0x24 PUSH1 0x0 REVERT JUMPDEST PUSH1 0x0 PUSH1 0x2 DUP3 DIV SWAP1 POP PUSH1 0x1 DUP3 AND DUP1 PUSH2 0x5A6 JUMPI PUSH1 0x7F DUP3 AND SWAP2 POP JUMPDEST PUSH1 0x20 DUP3 LT DUP2 SUB PUSH2 0x5B9 JUMPI PUSH2 0x5B8 PUSH2 0x55F JUMP JUMPDEST JUMPDEST POP SWAP2 SWAP1 POP JUMP INVALID LOG2 PUSH5 0x6970667358 0x22 SLT KECCAK256 0x2A ADDRESS STATICCALL PUSH29 0x19B2FAC8FB7B80D31E5DFF9FA67843C494E4EA6CA1A06A84AA67C5D464 PUSH20 0x6F6C634300081100330000000000000000000000 "
				},
				"gasEstimates": {
					"creation": {
						"codeDepositCost": "305000",
						"executionCost": "343",
						"totalCost": "305343"
					},
					"external": {
						"approved(uint256,address)": "3131",
						"isOwner(address)": "2867",
						"owners(uint256)": "4934",
						"required()": "2495",
						"tracsactions(uint256)": "infinite"
					}
				},
				"methodIdentifiers": {
					"approved(uint256,address)": "8253951a",
					"isOwner(address)": "2f54bf6e",
					"owners(uint256)": "025e7c27",
					"required()": "dc8452cd",
					"tracsactions(uint256)": "23d27284"
				}
			},
			"storageLayout": {
				"storage": [
					{
						"astId": 39,
						"contract": "MultiSigWallet.sol:MultiSigWallet",
						"label": "owners",
						"offset": 0,
						"slot": "0",
						"type": "t_array(t_address)dyn_storage"
					},
					{
						"astId": 43,
						"contract": "MultiSigWallet.sol:MultiSigWallet",
						"label": "isOwner",
						"offset": 0,
						"slot": "1",
						"type": "t_mapping(t_address,t_bool)"
					},
					{
						"astId": 45,
						"contract": "MultiSigWallet.sol:MultiSigWallet",
						"label": "required",
						"offset": 0,
						"slot": "2",
						"type": "t_uint256"
					},
					{
						"astId": 49,
						"contract": "MultiSigWallet.sol:MultiSigWallet",
						"label": "tracsactions",
						"offset": 0,
						"slot": "3",
						"type": "t_array(t_struct(Transaction)36_storage)dyn_storage"
					},
					{
						"astId": 55,
						"contract": "MultiSigWallet.sol:MultiSigWallet",
						"label": "approved",
						"offset": 0,
						"slot": "4",
						"type": "t_mapping(t_uint256,t_mapping(t_address,t_bool))"
					}
				],
				"types": {
					"t_address": {
						"encoding": "inplace",
						"label": "address",
						"numberOfBytes": "20"
					},
					"t_array(t_address)dyn_storage": {
						"base": "t_address",
						"encoding": "dynamic_array",
						"label": "address[]",
						"numberOfBytes": "32"
					},
					"t_array(t_struct(Transaction)36_storage)dyn_storage": {
						"base": "t_struct(Transaction)36_storage",
						"encoding": "dynamic_array",
						"label": "struct MultiSigWallet.Transaction[]",
						"numberOfBytes": "32"
					},
					"t_bool": {
						"encoding": "inplace",
						"label": "bool",
						"numberOfBytes": "1"
					},
					"t_bytes_storage": {
						"encoding": "bytes",
						"label": "bytes",
						"numberOfBytes": "32"
					},
					"t_mapping(t_address,t_bool)": {
						"encoding": "mapping",
						"key": "t_address",
						"label": "mapping(address => bool)",
						"numberOfBytes": "32",
						"value": "t_bool"
					},
					"t_mapping(t_uint256,t_mapping(t_address,t_bool))": {
						"encoding": "mapping",
						"key": "t_uint256",
						"label": "mapping(uint256 => mapping(address => bool))",
						"numberOfBytes": "32",
						"value": "t_mapping(t_address,t_bool)"
					},
					"t_struct(Transaction)36_storage": {
						"encoding": "inplace",
						"label": "struct MultiSigWallet.Transaction",
						"members": [
							{
								"astId": 29,
								"contract": "MultiSigWallet.sol:MultiSigWallet",
								"label": "to",
								"offset": 0,
								"slot": "0",
								"type": "t_address"
							},
							{
								"astId": 31,
								"contract": "MultiSigWallet.sol:MultiSigWallet",
								"label": "value",
								"offset": 0,
								"slot": "1",
								"type": "t_uint256"
							},
							{
								"astId": 33,
								"contract": "MultiSigWallet.sol:MultiSigWallet",
								"label": "data",
								"offset": 0,
								"slot": "2",
								"type": "t_bytes_storage"
							},
							{
								"astId": 35,
								"contract": "MultiSigWallet.sol:MultiSigWallet",
								"label": "executed",
								"offset": 0,
								"slot": "3",
								"type": "t_bool"
							}
						],
						"numberOfBytes": "128"
					},
					"t_uint256": {
						"encoding": "inplace",
						"label": "uint256",
						"numberOfBytes": "32"
					}
				}
			},
			"userdoc": {
				"kind": "user",
				"methods": {},
				"version": 1
			}
		}
	}
}