{
	"test.sol": {
		"test": {
			"abi": [
				{
					"inputs": [],
					"name": "find",
					"outputs": [
						{
							"internalType": "uint256",
							"name": "",
							"type": "uint256"
						}
					],
					"stateMutability": "nonpayable",
					"type": "function"
				},
				{
					"inputs": [],
					"name": "test1",
					"outputs": [
						{
							"internalType": "bytes32",
							"name": "",
							"type": "bytes32"
						}
					],
					"stateMutability": "pure",
					"type": "function"
				}
			],
			"devdoc": {
				"kind": "dev",
				"methods": {},
				"version": 1
			},
			"evm": {
				"assembly": "    /* \"test.sol\":61:463  contract test {... */\n  mstore(0x40, 0x80)\n  callvalue\n  dup1\n  iszero\n  tag_1\n  jumpi\n  0x00\n  dup1\n  revert\ntag_1:\n  pop\n  dataSize(sub_0)\n  dup1\n  dataOffset(sub_0)\n  0x00\n  codecopy\n  0x00\n  return\nstop\n\nsub_0: assembly {\n        /* \"test.sol\":61:463  contract test {... */\n      mstore(0x40, 0x80)\n      callvalue\n      dup1\n      iszero\n      tag_1\n      jumpi\n      0x00\n      dup1\n      revert\n    tag_1:\n      pop\n      jumpi(tag_2, lt(calldatasize, 0x04))\n      shr(0xe0, calldataload(0x00))\n      dup1\n      0x6b59084d\n      eq\n      tag_3\n      jumpi\n      dup1\n      0x70d53be5\n      eq\n      tag_4\n      jumpi\n    tag_2:\n      0x00\n      dup1\n      revert\n        /* \"test.sol\":251:460  function test1() external pure returns (bytes32) {... */\n    tag_3:\n      tag_5\n      tag_6\n      jump\t// in\n    tag_5:\n      mload(0x40)\n      tag_7\n      swap2\n      swap1\n      tag_8\n      jump\t// in\n    tag_7:\n      mload(0x40)\n      dup1\n      swap2\n      sub\n      swap1\n      return\n        /* \"test.sol\":107:243  function find() external returns (uint) {... */\n    tag_4:\n      tag_9\n      tag_10\n      jump\t// in\n    tag_9:\n      mload(0x40)\n      tag_11\n      swap2\n      swap1\n      tag_12\n      jump\t// in\n    tag_11:\n      mload(0x40)\n      dup1\n      swap2\n      sub\n      swap1\n      return\n        /* \"test.sol\":251:460  function test1() external pure returns (bytes32) {... */\n    tag_6:\n        /* \"test.sol\":291:298  bytes32 */\n      0x00\n        /* \"test.sol\":311:326  string memory s */\n      dup1\n        /* \"test.sol\":311:344  string memory s = \"654894s51ad65\" */\n      mload(0x40)\n      dup1\n      0x40\n      add\n      0x40\n      mstore\n      dup1\n      0x0d\n      dup2\n      mstore\n      0x20\n      add\n      0x3635343839347335316164363500000000000000000000000000000000000000\n      dup2\n      mstore\n      pop\n      swap1\n      pop\n        /* \"test.sol\":355:370  string memory x */\n      0x00\n        /* \"test.sol\":355:380  string memory x = \"sadas\" */\n      mload(0x40)\n      dup1\n      0x40\n      add\n      0x40\n      mstore\n      dup1\n      0x05\n      dup2\n      mstore\n      0x20\n      add\n      0x7361646173000000000000000000000000000000000000000000000000000000\n      dup2\n      mstore\n      pop\n      swap1\n      pop\n        /* \"test.sol\":391:397  bool y */\n      0x00\n        /* \"test.sol\":400:404  true */\n      0x01\n        /* \"test.sol\":391:404  bool y = true */\n      swap1\n      pop\n        /* \"test.sol\":443:444  s */\n      dup3\n        /* \"test.sol\":446:447  x */\n      dup3\n        /* \"test.sol\":449:450  y */\n      dup3\n        /* \"test.sol\":432:451  abi.encode(s, x, y) */\n      add(0x20, mload(0x40))\n      tag_14\n      swap4\n      swap3\n      swap2\n      swap1\n      tag_15\n      jump\t// in\n    tag_14:\n      mload(0x40)\n      0x20\n      dup2\n      dup4\n      sub\n      sub\n      dup2\n      mstore\n      swap1\n      0x40\n      mstore\n        /* \"test.sol\":422:452  keccak256(abi.encode(s, x, y)) */\n      dup1\n      mload\n      swap1\n      0x20\n      add\n      keccak256\n        /* \"test.sol\":415:452  return keccak256(abi.encode(s, x, y)) */\n      swap4\n      pop\n      pop\n      pop\n      pop\n        /* \"test.sol\":251:460  function test1() external pure returns (bytes32) {... */\n      swap1\n      jump\t// out\n        /* \"test.sol\":107:243  function find() external returns (uint) {... */\n    tag_10:\n        /* \"test.sol\":141:145  uint */\n      0x00\n        /* \"test.sol\":158:159  a */\n      dup1\n        /* \"test.sol\":165:166  5 */\n      0x05\n        /* \"test.sol\":158:167  a.push(5) */\n      swap1\n      dup1\n      0x01\n      dup2\n      sload\n      add\n      dup1\n      dup3\n      sstore\n      dup1\n      swap2\n      pop\n      pop\n      0x01\n      swap1\n      sub\n      swap1\n      0x00\n      mstore\n      keccak256(0x00, 0x20)\n      add\n      0x00\n      swap1\n      swap2\n      swap1\n      swap2\n      swap1\n      swap2\n      pop\n      sstore\n        /* \"test.sol\":178:179  a */\n      0x00\n        /* \"test.sol\":185:186  8 */\n      0x08\n        /* \"test.sol\":178:187  a.push(8) */\n      swap1\n      dup1\n      0x01\n      dup2\n      sload\n      add\n      dup1\n      dup3\n      sstore\n      dup1\n      swap2\n      pop\n      pop\n      0x01\n      swap1\n      sub\n      swap1\n      0x00\n      mstore\n      keccak256(0x00, 0x20)\n      add\n      0x00\n      swap1\n      swap2\n      swap1\n      swap2\n      swap1\n      swap2\n      pop\n      sstore\n        /* \"test.sol\":198:199  a */\n      0x00\n        /* \"test.sol\":205:206  0 */\n      dup1\n        /* \"test.sol\":198:207  a.push(0) */\n      dup1\n      0x01\n      dup2\n      sload\n      add\n      dup1\n      dup3\n      sstore\n      dup1\n      swap2\n      pop\n      pop\n      0x01\n      swap1\n      sub\n      swap1\n      0x00\n      mstore\n      keccak256(0x00, 0x20)\n      add\n      0x00\n      swap1\n      swap2\n      swap1\n      swap2\n      swap1\n      swap2\n      pop\n      sstore\n        /* \"test.sol\":227:228  a */\n      0x00\n        /* \"test.sol\":227:235  a.length */\n      dup1\n      sload\n      swap1\n      pop\n        /* \"test.sol\":220:235  return a.length */\n      swap1\n      pop\n        /* \"test.sol\":107:243  function find() external returns (uint) {... */\n      swap1\n      jump\t// out\n        /* \"#utility.yul\":7:84   */\n    tag_20:\n        /* \"#utility.yul\":44:51   */\n      0x00\n        /* \"#utility.yul\":73:78   */\n      dup2\n        /* \"#utility.yul\":62:78   */\n      swap1\n      pop\n        /* \"#utility.yul\":7:84   */\n      swap2\n      swap1\n      pop\n      jump\t// out\n        /* \"#utility.yul\":90:208   */\n    tag_21:\n        /* \"#utility.yul\":177:201   */\n      tag_34\n        /* \"#utility.yul\":195:200   */\n      dup2\n        /* \"#utility.yul\":177:201   */\n      tag_20\n      jump\t// in\n    tag_34:\n        /* \"#utility.yul\":172:175   */\n      dup3\n        /* \"#utility.yul\":165:202   */\n      mstore\n        /* \"#utility.yul\":90:208   */\n      pop\n      pop\n      jump\t// out\n        /* \"#utility.yul\":214:436   */\n    tag_8:\n        /* \"#utility.yul\":307:311   */\n      0x00\n        /* \"#utility.yul\":345:347   */\n      0x20\n        /* \"#utility.yul\":334:343   */\n      dup3\n        /* \"#utility.yul\":330:348   */\n      add\n        /* \"#utility.yul\":322:348   */\n      swap1\n      pop\n        /* \"#utility.yul\":358:429   */\n      tag_36\n        /* \"#utility.yul\":426:427   */\n      0x00\n        /* \"#utility.yul\":415:424   */\n      dup4\n        /* \"#utility.yul\":411:428   */\n      add\n        /* \"#utility.yul\":402:408   */\n      dup5\n        /* \"#utility.yul\":358:429   */\n      tag_21\n      jump\t// in\n    tag_36:\n        /* \"#utility.yul\":214:436   */\n      swap3\n      swap2\n      pop\n      pop\n      jump\t// out\n        /* \"#utility.yul\":442:519   */\n    tag_22:\n        /* \"#utility.yul\":479:486   */\n      0x00\n        /* \"#utility.yul\":508:513   */\n      dup2\n        /* \"#utility.yul\":497:513   */\n      swap1\n      pop\n        /* \"#utility.yul\":442:519   */\n      swap2\n      swap1\n      pop\n      jump\t// out\n        /* \"#utility.yul\":525:643   */\n    tag_23:\n        /* \"#utility.yul\":612:636   */\n      tag_39\n        /* \"#utility.yul\":630:635   */\n      dup2\n        /* \"#utility.yul\":612:636   */\n      tag_22\n      jump\t// in\n    tag_39:\n        /* \"#utility.yul\":607:610   */\n      dup3\n        /* \"#utility.yul\":600:637   */\n      mstore\n        /* \"#utility.yul\":525:643   */\n      pop\n      pop\n      jump\t// out\n        /* \"#utility.yul\":649:871   */\n    tag_12:\n        /* \"#utility.yul\":742:746   */\n      0x00\n        /* \"#utility.yul\":780:782   */\n      0x20\n        /* \"#utility.yul\":769:778   */\n      dup3\n        /* \"#utility.yul\":765:783   */\n      add\n        /* \"#utility.yul\":757:783   */\n      swap1\n      pop\n        /* \"#utility.yul\":793:864   */\n      tag_41\n        /* \"#utility.yul\":861:862   */\n      0x00\n        /* \"#utility.yul\":850:859   */\n      dup4\n        /* \"#utility.yul\":846:863   */\n      add\n        /* \"#utility.yul\":837:843   */\n      dup5\n        /* \"#utility.yul\":793:864   */\n      tag_23\n      jump\t// in\n    tag_41:\n        /* \"#utility.yul\":649:871   */\n      swap3\n      swap2\n      pop\n      pop\n      jump\t// out\n        /* \"#utility.yul\":877:976   */\n    tag_24:\n        /* \"#utility.yul\":929:935   */\n      0x00\n        /* \"#utility.yul\":963:968   */\n      dup2\n        /* \"#utility.yul\":957:969   */\n      mload\n        /* \"#utility.yul\":947:969   */\n      swap1\n      pop\n        /* \"#utility.yul\":877:976   */\n      swap2\n      swap1\n      pop\n      jump\t// out\n        /* \"#utility.yul\":982:1151   */\n    tag_25:\n        /* \"#utility.yul\":1066:1077   */\n      0x00\n        /* \"#utility.yul\":1100:1106   */\n      dup3\n        /* \"#utility.yul\":1095:1098   */\n      dup3\n        /* \"#utility.yul\":1088:1107   */\n      mstore\n        /* \"#utility.yul\":1140:1144   */\n      0x20\n        /* \"#utility.yul\":1135:1138   */\n      dup3\n        /* \"#utility.yul\":1131:1145   */\n      add\n        /* \"#utility.yul\":1116:1145   */\n      swap1\n      pop\n        /* \"#utility.yul\":982:1151   */\n      swap3\n      swap2\n      pop\n      pop\n      jump\t// out\n        /* \"#utility.yul\":1157:1403   */\n    tag_26:\n        /* \"#utility.yul\":1238:1239   */\n      0x00\n        /* \"#utility.yul\":1248:1361   */\n    tag_45:\n        /* \"#utility.yul\":1262:1268   */\n      dup4\n        /* \"#utility.yul\":1259:1260   */\n      dup2\n        /* \"#utility.yul\":1256:1269   */\n      lt\n        /* \"#utility.yul\":1248:1361   */\n      iszero\n      tag_47\n      jumpi\n        /* \"#utility.yul\":1347:1348   */\n      dup1\n        /* \"#utility.yul\":1342:1345   */\n      dup3\n        /* \"#utility.yul\":1338:1349   */\n      add\n        /* \"#utility.yul\":1332:1350   */\n      mload\n        /* \"#utility.yul\":1328:1329   */\n      dup2\n        /* \"#utility.yul\":1323:1326   */\n      dup5\n        /* \"#utility.yul\":1319:1330   */\n      add\n        /* \"#utility.yul\":1312:1351   */\n      mstore\n        /* \"#utility.yul\":1284:1286   */\n      0x20\n        /* \"#utility.yul\":1281:1282   */\n      dup2\n        /* \"#utility.yul\":1277:1287   */\n      add\n        /* \"#utility.yul\":1272:1287   */\n      swap1\n      pop\n        /* \"#utility.yul\":1248:1361   */\n      jump(tag_45)\n    tag_47:\n        /* \"#utility.yul\":1395:1396   */\n      0x00\n        /* \"#utility.yul\":1386:1392   */\n      dup5\n        /* \"#utility.yul\":1381:1384   */\n      dup5\n        /* \"#utility.yul\":1377:1393   */\n      add\n        /* \"#utility.yul\":1370:1397   */\n      mstore\n        /* \"#utility.yul\":1219:1403   */\n      pop\n        /* \"#utility.yul\":1157:1403   */\n      pop\n      pop\n      pop\n      jump\t// out\n        /* \"#utility.yul\":1409:1511   */\n    tag_27:\n        /* \"#utility.yul\":1450:1456   */\n      0x00\n        /* \"#utility.yul\":1501:1503   */\n      0x1f\n        /* \"#utility.yul\":1497:1504   */\n      not\n        /* \"#utility.yul\":1492:1494   */\n      0x1f\n        /* \"#utility.yul\":1485:1490   */\n      dup4\n        /* \"#utility.yul\":1481:1495   */\n      add\n        /* \"#utility.yul\":1477:1505   */\n      and\n        /* \"#utility.yul\":1467:1505   */\n      swap1\n      pop\n        /* \"#utility.yul\":1409:1511   */\n      swap2\n      swap1\n      pop\n      jump\t// out\n        /* \"#utility.yul\":1517:1894   */\n    tag_28:\n        /* \"#utility.yul\":1605:1608   */\n      0x00\n        /* \"#utility.yul\":1633:1672   */\n      tag_50\n        /* \"#utility.yul\":1666:1671   */\n      dup3\n        /* \"#utility.yul\":1633:1672   */\n      tag_24\n      jump\t// in\n    tag_50:\n        /* \"#utility.yul\":1688:1759   */\n      tag_51\n        /* \"#utility.yul\":1752:1758   */\n      dup2\n        /* \"#utility.yul\":1747:1750   */\n      dup6\n        /* \"#utility.yul\":1688:1759   */\n      tag_25\n      jump\t// in\n    tag_51:\n        /* \"#utility.yul\":1681:1759   */\n      swap4\n      pop\n        /* \"#utility.yul\":1768:1833   */\n      tag_52\n        /* \"#utility.yul\":1826:1832   */\n      dup2\n        /* \"#utility.yul\":1821:1824   */\n      dup6\n        /* \"#utility.yul\":1814:1818   */\n      0x20\n        /* \"#utility.yul\":1807:1812   */\n      dup7\n        /* \"#utility.yul\":1803:1819   */\n      add\n        /* \"#utility.yul\":1768:1833   */\n      tag_26\n      jump\t// in\n    tag_52:\n        /* \"#utility.yul\":1858:1887   */\n      tag_53\n        /* \"#utility.yul\":1880:1886   */\n      dup2\n        /* \"#utility.yul\":1858:1887   */\n      tag_27\n      jump\t// in\n    tag_53:\n        /* \"#utility.yul\":1853:1856   */\n      dup5\n        /* \"#utility.yul\":1849:1888   */\n      add\n        /* \"#utility.yul\":1842:1888   */\n      swap2\n      pop\n        /* \"#utility.yul\":1609:1894   */\n      pop\n        /* \"#utility.yul\":1517:1894   */\n      swap3\n      swap2\n      pop\n      pop\n      jump\t// out\n        /* \"#utility.yul\":1900:1990   */\n    tag_29:\n        /* \"#utility.yul\":1934:1941   */\n      0x00\n        /* \"#utility.yul\":1977:1982   */\n      dup2\n        /* \"#utility.yul\":1970:1983   */\n      iszero\n        /* \"#utility.yul\":1963:1984   */\n      iszero\n        /* \"#utility.yul\":1952:1984   */\n      swap1\n      pop\n        /* \"#utility.yul\":1900:1990   */\n      swap2\n      swap1\n      pop\n      jump\t// out\n        /* \"#utility.yul\":1996:2105   */\n    tag_30:\n        /* \"#utility.yul\":2077:2098   */\n      tag_56\n        /* \"#utility.yul\":2092:2097   */\n      dup2\n        /* \"#utility.yul\":2077:2098   */\n      tag_29\n      jump\t// in\n    tag_56:\n        /* \"#utility.yul\":2072:2075   */\n      dup3\n        /* \"#utility.yul\":2065:2099   */\n      mstore\n        /* \"#utility.yul\":1996:2105   */\n      pop\n      pop\n      jump\t// out\n        /* \"#utility.yul\":2111:2723   */\n    tag_15:\n        /* \"#utility.yul\":2294:2298   */\n      0x00\n        /* \"#utility.yul\":2332:2334   */\n      0x60\n        /* \"#utility.yul\":2321:2330   */\n      dup3\n        /* \"#utility.yul\":2317:2335   */\n      add\n        /* \"#utility.yul\":2309:2335   */\n      swap1\n      pop\n        /* \"#utility.yul\":2381:2390   */\n      dup2\n        /* \"#utility.yul\":2375:2379   */\n      dup2\n        /* \"#utility.yul\":2371:2391   */\n      sub\n        /* \"#utility.yul\":2367:2368   */\n      0x00\n        /* \"#utility.yul\":2356:2365   */\n      dup4\n        /* \"#utility.yul\":2352:2369   */\n      add\n        /* \"#utility.yul\":2345:2392   */\n      mstore\n        /* \"#utility.yul\":2409:2487   */\n      tag_58\n        /* \"#utility.yul\":2482:2486   */\n      dup2\n        /* \"#utility.yul\":2473:2479   */\n      dup7\n        /* \"#utility.yul\":2409:2487   */\n      tag_28\n      jump\t// in\n    tag_58:\n        /* \"#utility.yul\":2401:2487   */\n      swap1\n      pop\n        /* \"#utility.yul\":2534:2543   */\n      dup2\n        /* \"#utility.yul\":2528:2532   */\n      dup2\n        /* \"#utility.yul\":2524:2544   */\n      sub\n        /* \"#utility.yul\":2519:2521   */\n      0x20\n        /* \"#utility.yul\":2508:2517   */\n      dup4\n        /* \"#utility.yul\":2504:2522   */\n      add\n        /* \"#utility.yul\":2497:2545   */\n      mstore\n        /* \"#utility.yul\":2562:2640   */\n      tag_59\n        /* \"#utility.yul\":2635:2639   */\n      dup2\n        /* \"#utility.yul\":2626:2632   */\n      dup6\n        /* \"#utility.yul\":2562:2640   */\n      tag_28\n      jump\t// in\n    tag_59:\n        /* \"#utility.yul\":2554:2640   */\n      swap1\n      pop\n        /* \"#utility.yul\":2650:2716   */\n      tag_60\n        /* \"#utility.yul\":2712:2714   */\n      0x40\n        /* \"#utility.yul\":2701:2710   */\n      dup4\n        /* \"#utility.yul\":2697:2715   */\n      add\n        /* \"#utility.yul\":2688:2694   */\n      dup5\n        /* \"#utility.yul\":2650:2716   */\n      tag_30\n      jump\t// in\n    tag_60:\n        /* \"#utility.yul\":2111:2723   */\n      swap5\n      swap4\n      pop\n      pop\n      pop\n      pop\n      jump\t// out\n\n    auxdata: 0xa2646970667358221220abc99f25198144ecb6f9a133404ff2202ce1530914d3b3c3990e79d1b5924e4a64736f6c63430008110033\n}\n",
				"bytecode": {
					"linkReferences": {},
					"object": "608060405234801561001057600080fd5b5061033b806100206000396000f3fe608060405234801561001057600080fd5b50600436106100365760003560e01c80636b59084d1461003b57806370d53be514610059575b600080fd5b610043610077565b60405161005091906101c6565b60405180910390f35b610061610125565b60405161006e91906101fa565b60405180910390f35b6000806040518060400160405280600d81526020017f3635343839347335316164363500000000000000000000000000000000000000815250905060006040518060400160405280600581526020017f73616461730000000000000000000000000000000000000000000000000000008152509050600060019050828282604051602001610107939291906102c0565b60405160208183030381529060405280519060200120935050505090565b6000806005908060018154018082558091505060019003906000526020600020016000909190919091505560006008908060018154018082558091505060019003906000526020600020016000909190919091505560008080600181540180825580915050600190039060005260206000200160009091909190915055600080549050905090565b6000819050919050565b6101c0816101ad565b82525050565b60006020820190506101db60008301846101b7565b92915050565b6000819050919050565b6101f4816101e1565b82525050565b600060208201905061020f60008301846101eb565b92915050565b600081519050919050565b600082825260208201905092915050565b60005b8381101561024f578082015181840152602081019050610234565b60008484015250505050565b6000601f19601f8301169050919050565b600061027782610215565b6102818185610220565b9350610291818560208601610231565b61029a8161025b565b840191505092915050565b60008115159050919050565b6102ba816102a5565b82525050565b600060608201905081810360008301526102da818661026c565b905081810360208301526102ee818561026c565b90506102fd60408301846102b1565b94935050505056fea2646970667358221220abc99f25198144ecb6f9a133404ff2202ce1530914d3b3c3990e79d1b5924e4a64736f6c63430008110033",
					"opcodes": "PUSH1 0x80 PUSH1 0x40 MSTORE CALLVALUE DUP1 ISZERO PUSH2 0x10 JUMPI PUSH1 0x0 DUP1 REVERT JUMPDEST POP PUSH2 0x33B DUP1 PUSH2 0x20 PUSH1 0x0 CODECOPY PUSH1 0x0 RETURN INVALID PUSH1 0x80 PUSH1 0x40 MSTORE CALLVALUE DUP1 ISZERO PUSH2 0x10 JUMPI PUSH1 0x0 DUP1 REVERT JUMPDEST POP PUSH1 0x4 CALLDATASIZE LT PUSH2 0x36 JUMPI PUSH1 0x0 CALLDATALOAD PUSH1 0xE0 SHR DUP1 PUSH4 0x6B59084D EQ PUSH2 0x3B JUMPI DUP1 PUSH4 0x70D53BE5 EQ PUSH2 0x59 JUMPI JUMPDEST PUSH1 0x0 DUP1 REVERT JUMPDEST PUSH2 0x43 PUSH2 0x77 JUMP JUMPDEST PUSH1 0x40 MLOAD PUSH2 0x50 SWAP2 SWAP1 PUSH2 0x1C6 JUMP JUMPDEST PUSH1 0x40 MLOAD DUP1 SWAP2 SUB SWAP1 RETURN JUMPDEST PUSH2 0x61 PUSH2 0x125 JUMP JUMPDEST PUSH1 0x40 MLOAD PUSH2 0x6E SWAP2 SWAP1 PUSH2 0x1FA JUMP JUMPDEST PUSH1 0x40 MLOAD DUP1 SWAP2 SUB SWAP1 RETURN JUMPDEST PUSH1 0x0 DUP1 PUSH1 0x40 MLOAD DUP1 PUSH1 0x40 ADD PUSH1 0x40 MSTORE DUP1 PUSH1 0xD DUP2 MSTORE PUSH1 0x20 ADD PUSH32 0x3635343839347335316164363500000000000000000000000000000000000000 DUP2 MSTORE POP SWAP1 POP PUSH1 0x0 PUSH1 0x40 MLOAD DUP1 PUSH1 0x40 ADD PUSH1 0x40 MSTORE DUP1 PUSH1 0x5 DUP2 MSTORE PUSH1 0x20 ADD PUSH32 0x7361646173000000000000000000000000000000000000000000000000000000 DUP2 MSTORE POP SWAP1 POP PUSH1 0x0 PUSH1 0x1 SWAP1 POP DUP3 DUP3 DUP3 PUSH1 0x40 MLOAD PUSH1 0x20 ADD PUSH2 0x107 SWAP4 SWAP3 SWAP2 SWAP1 PUSH2 0x2C0 JUMP JUMPDEST PUSH1 0x40 MLOAD PUSH1 0x20 DUP2 DUP4 SUB SUB DUP2 MSTORE SWAP1 PUSH1 0x40 MSTORE DUP1 MLOAD SWAP1 PUSH1 0x20 ADD KECCAK256 SWAP4 POP POP POP POP SWAP1 JUMP JUMPDEST PUSH1 0x0 DUP1 PUSH1 0x5 SWAP1 DUP1 PUSH1 0x1 DUP2 SLOAD ADD DUP1 DUP3 SSTORE DUP1 SWAP2 POP POP PUSH1 0x1 SWAP1 SUB SWAP1 PUSH1 0x0 MSTORE PUSH1 0x20 PUSH1 0x0 KECCAK256 ADD PUSH1 0x0 SWAP1 SWAP2 SWAP1 SWAP2 SWAP1 SWAP2 POP SSTORE PUSH1 0x0 PUSH1 0x8 SWAP1 DUP1 PUSH1 0x1 DUP2 SLOAD ADD DUP1 DUP3 SSTORE DUP1 SWAP2 POP POP PUSH1 0x1 SWAP1 SUB SWAP1 PUSH1 0x0 MSTORE PUSH1 0x20 PUSH1 0x0 KECCAK256 ADD PUSH1 0x0 SWAP1 SWAP2 SWAP1 SWAP2 SWAP1 SWAP2 POP SSTORE PUSH1 0x0 DUP1 DUP1 PUSH1 0x1 DUP2 SLOAD ADD DUP1 DUP3 SSTORE DUP1 SWAP2 POP POP PUSH1 0x1 SWAP1 SUB SWAP1 PUSH1 0x0 MSTORE PUSH1 0x20 PUSH1 0x0 KECCAK256 ADD PUSH1 0x0 SWAP1 SWAP2 SWAP1 SWAP2 SWAP1 SWAP2 POP SSTORE PUSH1 0x0 DUP1 SLOAD SWAP1 POP SWAP1 POP SWAP1 JUMP JUMPDEST PUSH1 0x0 DUP2 SWAP1 POP SWAP2 SWAP1 POP JUMP JUMPDEST PUSH2 0x1C0 DUP2 PUSH2 0x1AD JUMP JUMPDEST DUP3 MSTORE POP POP JUMP JUMPDEST PUSH1 0x0 PUSH1 0x20 DUP3 ADD SWAP1 POP PUSH2 0x1DB PUSH1 0x0 DUP4 ADD DUP5 PUSH2 0x1B7 JUMP JUMPDEST SWAP3 SWAP2 POP POP JUMP JUMPDEST PUSH1 0x0 DUP2 SWAP1 POP SWAP2 SWAP1 POP JUMP JUMPDEST PUSH2 0x1F4 DUP2 PUSH2 0x1E1 JUMP JUMPDEST DUP3 MSTORE POP POP JUMP JUMPDEST PUSH1 0x0 PUSH1 0x20 DUP3 ADD SWAP1 POP PUSH2 0x20F PUSH1 0x0 DUP4 ADD DUP5 PUSH2 0x1EB JUMP JUMPDEST SWAP3 SWAP2 POP POP JUMP JUMPDEST PUSH1 0x0 DUP2 MLOAD SWAP1 POP SWAP2 SWAP1 POP JUMP JUMPDEST PUSH1 0x0 DUP3 DUP3 MSTORE PUSH1 0x20 DUP3 ADD SWAP1 POP SWAP3 SWAP2 POP POP JUMP JUMPDEST PUSH1 0x0 JUMPDEST DUP4 DUP2 LT ISZERO PUSH2 0x24F JUMPI DUP1 DUP3 ADD MLOAD DUP2 DUP5 ADD MSTORE PUSH1 0x20 DUP2 ADD SWAP1 POP PUSH2 0x234 JUMP JUMPDEST PUSH1 0x0 DUP5 DUP5 ADD MSTORE POP POP POP POP JUMP JUMPDEST PUSH1 0x0 PUSH1 0x1F NOT PUSH1 0x1F DUP4 ADD AND SWAP1 POP SWAP2 SWAP1 POP JUMP JUMPDEST PUSH1 0x0 PUSH2 0x277 DUP3 PUSH2 0x215 JUMP JUMPDEST PUSH2 0x281 DUP2 DUP6 PUSH2 0x220 JUMP JUMPDEST SWAP4 POP PUSH2 0x291 DUP2 DUP6 PUSH1 0x20 DUP7 ADD PUSH2 0x231 JUMP JUMPDEST PUSH2 0x29A DUP2 PUSH2 0x25B JUMP JUMPDEST DUP5 ADD SWAP2 POP POP SWAP3 SWAP2 POP POP JUMP JUMPDEST PUSH1 0x0 DUP2 ISZERO ISZERO SWAP1 POP SWAP2 SWAP1 POP JUMP JUMPDEST PUSH2 0x2BA DUP2 PUSH2 0x2A5 JUMP JUMPDEST DUP3 MSTORE POP POP JUMP JUMPDEST PUSH1 0x0 PUSH1 0x60 DUP3 ADD SWAP1 POP DUP2 DUP2 SUB PUSH1 0x0 DUP4 ADD MSTORE PUSH2 0x2DA DUP2 DUP7 PUSH2 0x26C JUMP JUMPDEST SWAP1 POP DUP2 DUP2 SUB PUSH1 0x20 DUP4 ADD MSTORE PUSH2 0x2EE DUP2 DUP6 PUSH2 0x26C JUMP JUMPDEST SWAP1 POP PUSH2 0x2FD PUSH1 0x40 DUP4 ADD DUP5 PUSH2 0x2B1 JUMP JUMPDEST SWAP5 SWAP4 POP POP POP POP JUMP INVALID LOG2 PUSH5 0x6970667358 0x22 SLT KECCAK256 0xAB 0xC9 SWAP16 0x25 NOT DUP2 DIFFICULTY 0xEC 0xB6 0xF9 LOG1 CALLER BLOCKHASH 0x4F CALLCODE KECCAK256 0x2C 0xE1 MSTORE8 MULMOD EQ 0xD3 0xB3 0xC3 SWAP10 0xE PUSH26 0xD1B5924E4A64736F6C6343000811003300000000000000000000 "
				},
				"gasEstimates": {
					"creation": {
						"codeDepositCost": "165400",
						"executionCost": "208",
						"totalCost": "165608"
					},
					"external": {
						"find()": "124611",
						"test1()": "infinite"
					}
				},
				"methodIdentifiers": {
					"find()": "70d53be5",
					"test1()": "6b59084d"
				}
			},
			"storageLayout": {
				"storage": [
					{
						"astId": 4,
						"contract": "test.sol:test",
						"label": "a",
						"offset": 0,
						"slot": "0",
						"type": "t_array(t_uint256)dyn_storage"
					}
				],
				"types": {
					"t_array(t_uint256)dyn_storage": {
						"base": "t_uint256",
						"encoding": "dynamic_array",
						"label": "uint256[]",
						"numberOfBytes": "32"
					},
					"t_uint256": {
						"encoding": "inplace",
						"label": "uint256",
						"numberOfBytes": "32"
					}
				}
			},
			"userdoc": {
				"kind": "user",
				"methods": {},
				"version": 1
			}
		}
	}
}