{
	"DataLocations.sol": {
		"DataLocations": {
			"abi": [
				{
					"inputs": [
						{
							"internalType": "uint256[]",
							"name": "y",
							"type": "uint256[]"
						},
						{
							"internalType": "string",
							"name": "s",
							"type": "string"
						}
					],
					"name": "example",
					"outputs": [
						{
							"internalType": "uint256",
							"name": "",
							"type": "uint256"
						}
					],
					"stateMutability": "nonpayable",
					"type": "function"
				},
				{
					"inputs": [
						{
							"internalType": "address",
							"name": "",
							"type": "address"
						}
					],
					"name": "myStructs",
					"outputs": [
						{
							"internalType": "uint256",
							"name": "foo",
							"type": "uint256"
						},
						{
							"internalType": "string",
							"name": "text",
							"type": "string"
						}
					],
					"stateMutability": "view",
					"type": "function"
				}
			],
			"devdoc": {
				"kind": "dev",
				"methods": {},
				"version": 1
			},
			"evm": {
				"assembly": "    /* \"DataLocations.sol\":61:470  contract DataLocations {... */\n  mstore(0x40, 0x80)\n  callvalue\n  dup1\n  iszero\n  tag_1\n  jumpi\n  0x00\n  dup1\n  revert\ntag_1:\n  pop\n  dataSize(sub_0)\n  dup1\n  dataOffset(sub_0)\n  0x00\n  codecopy\n  0x00\n  return\nstop\n\nsub_0: assembly {\n        /* \"DataLocations.sol\":61:470  contract DataLocations {... */\n      mstore(0x40, 0x80)\n      callvalue\n      dup1\n      iszero\n      tag_1\n      jumpi\n      0x00\n      dup1\n      revert\n    tag_1:\n      pop\n      jumpi(tag_2, lt(calldatasize, 0x04))\n      shr(0xe0, calldataload(0x00))\n      dup1\n      0x9837ae1a\n      eq\n      tag_3\n      jumpi\n      dup1\n      0xb43c5d33\n      eq\n      tag_4\n      jumpi\n    tag_2:\n      0x00\n      dup1\n      revert\n        /* \"DataLocations.sol\":218:467  function example(uint[] calldata y, string calldata s) external returns (uint) {... */\n    tag_3:\n      tag_5\n      0x04\n      dup1\n      calldatasize\n      sub\n      dup2\n      add\n      swap1\n      tag_6\n      swap2\n      swap1\n      tag_7\n      jump\t// in\n    tag_6:\n      tag_8\n      jump\t// in\n    tag_5:\n      mload(0x40)\n      tag_9\n      swap2\n      swap1\n      tag_10\n      jump\t// in\n    tag_9:\n      mload(0x40)\n      dup1\n      swap2\n      sub\n      swap1\n      return\n        /* \"DataLocations.sol\":164:209  mapping(address => MyStruct) public myStructs */\n    tag_4:\n      tag_11\n      0x04\n      dup1\n      calldatasize\n      sub\n      dup2\n      add\n      swap1\n      tag_12\n      swap2\n      swap1\n      tag_13\n      jump\t// in\n    tag_12:\n      tag_14\n      jump\t// in\n    tag_11:\n      mload(0x40)\n      tag_15\n      swap3\n      swap2\n      swap1\n      tag_16\n      jump\t// in\n    tag_15:\n      mload(0x40)\n      dup1\n      swap2\n      sub\n      swap1\n      return\n        /* \"DataLocations.sol\":218:467  function example(uint[] calldata y, string calldata s) external returns (uint) {... */\n    tag_8:\n        /* \"DataLocations.sol\":291:295  uint */\n      0x00\n        /* \"DataLocations.sol\":332:365  MyStruct({foo: 123, text: \"bar\"}) */\n      mload(0x40)\n      dup1\n      0x40\n      add\n      0x40\n      mstore\n      dup1\n        /* \"DataLocations.sol\":347:350  123 */\n      0x7b\n        /* \"DataLocations.sol\":332:365  MyStruct({foo: 123, text: \"bar\"}) */\n      dup2\n      mstore\n      0x20\n      add\n      mload(0x40)\n      dup1\n      0x40\n      add\n      0x40\n      mstore\n      dup1\n      0x03\n      dup2\n      mstore\n      0x20\n      add\n      0x6261720000000000000000000000000000000000000000000000000000000000\n      dup2\n      mstore\n      pop\n      dup2\n      mstore\n      pop\n        /* \"DataLocations.sol\":308:317  myStructs */\n      0x00\n        /* \"DataLocations.sol\":308:329  myStructs[msg.sender] */\n      dup1\n        /* \"DataLocations.sol\":318:328  msg.sender */\n      caller\n        /* \"DataLocations.sol\":308:329  myStructs[msg.sender] */\n      0xffffffffffffffffffffffffffffffffffffffff\n      and\n      0xffffffffffffffffffffffffffffffffffffffff\n      and\n      dup2\n      mstore\n      0x20\n      add\n      swap1\n      dup2\n      mstore\n      0x20\n      add\n      0x00\n      keccak256\n        /* \"DataLocations.sol\":308:365  myStructs[msg.sender] = MyStruct({foo: 123, text: \"bar\"}) */\n      0x00\n      dup3\n      add\n      mload\n      dup2\n      0x00\n      add\n      sstore\n      0x20\n      dup3\n      add\n      mload\n      dup2\n      0x01\n      add\n      swap1\n      dup2\n      tag_18\n      swap2\n      swap1\n      tag_19\n      jump\t// in\n    tag_18:\n      pop\n      swap1\n      pop\n      pop\n        /* \"DataLocations.sol\":378:403  MyStruct storage myStruct */\n      0x00\n        /* \"DataLocations.sol\":406:415  myStructs */\n      dup1\n        /* \"DataLocations.sol\":406:427  myStructs[msg.sender] */\n      0x00\n        /* \"DataLocations.sol\":416:426  msg.sender */\n      caller\n        /* \"DataLocations.sol\":406:427  myStructs[msg.sender] */\n      0xffffffffffffffffffffffffffffffffffffffff\n      and\n      0xffffffffffffffffffffffffffffffffffffffff\n      and\n      dup2\n      mstore\n      0x20\n      add\n      swap1\n      dup2\n      mstore\n      0x20\n      add\n      0x00\n      keccak256\n        /* \"DataLocations.sol\":378:427  MyStruct storage myStruct = myStructs[msg.sender] */\n      swap1\n      pop\n        /* \"DataLocations.sol\":438:459  myStruct.text = \"foo\" */\n      mload(0x40)\n      dup1\n      0x40\n      add\n      0x40\n      mstore\n      dup1\n      0x03\n      dup2\n      mstore\n      0x20\n      add\n      0x666f6f0000000000000000000000000000000000000000000000000000000000\n      dup2\n      mstore\n      pop\n        /* \"DataLocations.sol\":438:446  myStruct */\n      dup2\n        /* \"DataLocations.sol\":438:451  myStruct.text */\n      0x01\n      add\n        /* \"DataLocations.sol\":438:459  myStruct.text = \"foo\" */\n      swap1\n      dup2\n      tag_20\n      swap2\n      swap1\n      tag_19\n      jump\t// in\n    tag_20:\n      pop\n        /* \"DataLocations.sol\":297:467  {... */\n      pop\n        /* \"DataLocations.sol\":218:467  function example(uint[] calldata y, string calldata s) external returns (uint) {... */\n      swap5\n      swap4\n      pop\n      pop\n      pop\n      pop\n      jump\t// out\n        /* \"DataLocations.sol\":164:209  mapping(address => MyStruct) public myStructs */\n    tag_14:\n      mstore(0x20, 0x00)\n      dup1\n      0x00\n      mstore\n      keccak256(0x00, 0x40)\n      0x00\n      swap2\n      pop\n      swap1\n      pop\n      dup1\n      0x00\n      add\n      sload\n      swap1\n      dup1\n      0x01\n      add\n      dup1\n      sload\n      tag_21\n      swap1\n      tag_22\n      jump\t// in\n    tag_21:\n      dup1\n      0x1f\n      add\n      0x20\n      dup1\n      swap2\n      div\n      mul\n      0x20\n      add\n      mload(0x40)\n      swap1\n      dup2\n      add\n      0x40\n      mstore\n      dup1\n      swap3\n      swap2\n      swap1\n      dup2\n      dup2\n      mstore\n      0x20\n      add\n      dup3\n      dup1\n      sload\n      tag_23\n      swap1\n      tag_22\n      jump\t// in\n    tag_23:\n      dup1\n      iszero\n      tag_24\n      jumpi\n      dup1\n      0x1f\n      lt\n      tag_25\n      jumpi\n      0x0100\n      dup1\n      dup4\n      sload\n      div\n      mul\n      dup4\n      mstore\n      swap2\n      0x20\n      add\n      swap2\n      jump(tag_24)\n    tag_25:\n      dup3\n      add\n      swap2\n      swap1\n      0x00\n      mstore\n      keccak256(0x00, 0x20)\n      swap1\n    tag_26:\n      dup2\n      sload\n      dup2\n      mstore\n      swap1\n      0x01\n      add\n      swap1\n      0x20\n      add\n      dup1\n      dup4\n      gt\n      tag_26\n      jumpi\n      dup3\n      swap1\n      sub\n      0x1f\n      and\n      dup3\n      add\n      swap2\n    tag_24:\n      pop\n      pop\n      pop\n      pop\n      pop\n      swap1\n      pop\n      dup3\n      jump\t// out\n        /* \"#utility.yul\":88:205   */\n    tag_28:\n        /* \"#utility.yul\":197:198   */\n      0x00\n        /* \"#utility.yul\":194:195   */\n      dup1\n        /* \"#utility.yul\":187:199   */\n      revert\n        /* \"#utility.yul\":211:328   */\n    tag_29:\n        /* \"#utility.yul\":320:321   */\n      0x00\n        /* \"#utility.yul\":317:318   */\n      dup1\n        /* \"#utility.yul\":310:322   */\n      revert\n        /* \"#utility.yul\":334:451   */\n    tag_30:\n        /* \"#utility.yul\":443:444   */\n      0x00\n        /* \"#utility.yul\":440:441   */\n      dup1\n        /* \"#utility.yul\":433:445   */\n      revert\n        /* \"#utility.yul\":457:574   */\n    tag_31:\n        /* \"#utility.yul\":566:567   */\n      0x00\n        /* \"#utility.yul\":563:564   */\n      dup1\n        /* \"#utility.yul\":556:568   */\n      revert\n        /* \"#utility.yul\":580:697   */\n    tag_32:\n        /* \"#utility.yul\":689:690   */\n      0x00\n        /* \"#utility.yul\":686:687   */\n      dup1\n        /* \"#utility.yul\":679:691   */\n      revert\n        /* \"#utility.yul\":720:1288   */\n    tag_33:\n        /* \"#utility.yul\":793:801   */\n      0x00\n        /* \"#utility.yul\":803:809   */\n      dup1\n        /* \"#utility.yul\":853:856   */\n      dup4\n        /* \"#utility.yul\":846:850   */\n      0x1f\n        /* \"#utility.yul\":838:844   */\n      dup5\n        /* \"#utility.yul\":834:851   */\n      add\n        /* \"#utility.yul\":830:857   */\n      slt\n        /* \"#utility.yul\":820:942   */\n      tag_71\n      jumpi\n        /* \"#utility.yul\":861:940   */\n      tag_72\n      tag_30\n      jump\t// in\n    tag_72:\n        /* \"#utility.yul\":820:942   */\n    tag_71:\n        /* \"#utility.yul\":974:980   */\n      dup3\n        /* \"#utility.yul\":961:981   */\n      calldataload\n        /* \"#utility.yul\":951:981   */\n      swap1\n      pop\n        /* \"#utility.yul\":1004:1022   */\n      0xffffffffffffffff\n        /* \"#utility.yul\":996:1002   */\n      dup2\n        /* \"#utility.yul\":993:1023   */\n      gt\n        /* \"#utility.yul\":990:1107   */\n      iszero\n      tag_73\n      jumpi\n        /* \"#utility.yul\":1026:1105   */\n      tag_74\n      tag_31\n      jump\t// in\n    tag_74:\n        /* \"#utility.yul\":990:1107   */\n    tag_73:\n        /* \"#utility.yul\":1140:1144   */\n      0x20\n        /* \"#utility.yul\":1132:1138   */\n      dup4\n        /* \"#utility.yul\":1128:1145   */\n      add\n        /* \"#utility.yul\":1116:1145   */\n      swap2\n      pop\n        /* \"#utility.yul\":1194:1197   */\n      dup4\n        /* \"#utility.yul\":1186:1190   */\n      0x20\n        /* \"#utility.yul\":1178:1184   */\n      dup3\n        /* \"#utility.yul\":1174:1191   */\n      mul\n        /* \"#utility.yul\":1164:1172   */\n      dup4\n        /* \"#utility.yul\":1160:1192   */\n      add\n        /* \"#utility.yul\":1157:1198   */\n      gt\n        /* \"#utility.yul\":1154:1282   */\n      iszero\n      tag_75\n      jumpi\n        /* \"#utility.yul\":1201:1280   */\n      tag_76\n      tag_32\n      jump\t// in\n    tag_76:\n        /* \"#utility.yul\":1154:1282   */\n    tag_75:\n        /* \"#utility.yul\":720:1288   */\n      swap3\n      pop\n      swap3\n      swap1\n      pop\n      jump\t// out\n        /* \"#utility.yul\":1308:1861   */\n    tag_34:\n        /* \"#utility.yul\":1366:1374   */\n      0x00\n        /* \"#utility.yul\":1376:1382   */\n      dup1\n        /* \"#utility.yul\":1426:1429   */\n      dup4\n        /* \"#utility.yul\":1419:1423   */\n      0x1f\n        /* \"#utility.yul\":1411:1417   */\n      dup5\n        /* \"#utility.yul\":1407:1424   */\n      add\n        /* \"#utility.yul\":1403:1430   */\n      slt\n        /* \"#utility.yul\":1393:1515   */\n      tag_78\n      jumpi\n        /* \"#utility.yul\":1434:1513   */\n      tag_79\n      tag_30\n      jump\t// in\n    tag_79:\n        /* \"#utility.yul\":1393:1515   */\n    tag_78:\n        /* \"#utility.yul\":1547:1553   */\n      dup3\n        /* \"#utility.yul\":1534:1554   */\n      calldataload\n        /* \"#utility.yul\":1524:1554   */\n      swap1\n      pop\n        /* \"#utility.yul\":1577:1595   */\n      0xffffffffffffffff\n        /* \"#utility.yul\":1569:1575   */\n      dup2\n        /* \"#utility.yul\":1566:1596   */\n      gt\n        /* \"#utility.yul\":1563:1680   */\n      iszero\n      tag_80\n      jumpi\n        /* \"#utility.yul\":1599:1678   */\n      tag_81\n      tag_31\n      jump\t// in\n    tag_81:\n        /* \"#utility.yul\":1563:1680   */\n    tag_80:\n        /* \"#utility.yul\":1713:1717   */\n      0x20\n        /* \"#utility.yul\":1705:1711   */\n      dup4\n        /* \"#utility.yul\":1701:1718   */\n      add\n        /* \"#utility.yul\":1689:1718   */\n      swap2\n      pop\n        /* \"#utility.yul\":1767:1770   */\n      dup4\n        /* \"#utility.yul\":1759:1763   */\n      0x01\n        /* \"#utility.yul\":1751:1757   */\n      dup3\n        /* \"#utility.yul\":1747:1764   */\n      mul\n        /* \"#utility.yul\":1737:1745   */\n      dup4\n        /* \"#utility.yul\":1733:1765   */\n      add\n        /* \"#utility.yul\":1730:1771   */\n      gt\n        /* \"#utility.yul\":1727:1855   */\n      iszero\n      tag_82\n      jumpi\n        /* \"#utility.yul\":1774:1853   */\n      tag_83\n      tag_32\n      jump\t// in\n    tag_83:\n        /* \"#utility.yul\":1727:1855   */\n    tag_82:\n        /* \"#utility.yul\":1308:1861   */\n      swap3\n      pop\n      swap3\n      swap1\n      pop\n      jump\t// out\n        /* \"#utility.yul\":1867:2771   */\n    tag_7:\n        /* \"#utility.yul\":1974:1980   */\n      0x00\n        /* \"#utility.yul\":1982:1988   */\n      dup1\n        /* \"#utility.yul\":1990:1996   */\n      0x00\n        /* \"#utility.yul\":1998:2004   */\n      dup1\n        /* \"#utility.yul\":2047:2049   */\n      0x40\n        /* \"#utility.yul\":2035:2044   */\n      dup6\n        /* \"#utility.yul\":2026:2033   */\n      dup8\n        /* \"#utility.yul\":2022:2045   */\n      sub\n        /* \"#utility.yul\":2018:2050   */\n      slt\n        /* \"#utility.yul\":2015:2134   */\n      iszero\n      tag_85\n      jumpi\n        /* \"#utility.yul\":2053:2132   */\n      tag_86\n      tag_28\n      jump\t// in\n    tag_86:\n        /* \"#utility.yul\":2015:2134   */\n    tag_85:\n        /* \"#utility.yul\":2201:2202   */\n      0x00\n        /* \"#utility.yul\":2190:2199   */\n      dup6\n        /* \"#utility.yul\":2186:2203   */\n      add\n        /* \"#utility.yul\":2173:2204   */\n      calldataload\n        /* \"#utility.yul\":2231:2249   */\n      0xffffffffffffffff\n        /* \"#utility.yul\":2223:2229   */\n      dup2\n        /* \"#utility.yul\":2220:2250   */\n      gt\n        /* \"#utility.yul\":2217:2334   */\n      iszero\n      tag_87\n      jumpi\n        /* \"#utility.yul\":2253:2332   */\n      tag_88\n      tag_29\n      jump\t// in\n    tag_88:\n        /* \"#utility.yul\":2217:2334   */\n    tag_87:\n        /* \"#utility.yul\":2366:2446   */\n      tag_89\n        /* \"#utility.yul\":2438:2445   */\n      dup8\n        /* \"#utility.yul\":2429:2435   */\n      dup3\n        /* \"#utility.yul\":2418:2427   */\n      dup9\n        /* \"#utility.yul\":2414:2436   */\n      add\n        /* \"#utility.yul\":2366:2446   */\n      tag_33\n      jump\t// in\n    tag_89:\n        /* \"#utility.yul\":2348:2446   */\n      swap5\n      pop\n      swap5\n      pop\n        /* \"#utility.yul\":2144:2456   */\n      pop\n        /* \"#utility.yul\":2523:2525   */\n      0x20\n        /* \"#utility.yul\":2512:2521   */\n      dup6\n        /* \"#utility.yul\":2508:2526   */\n      add\n        /* \"#utility.yul\":2495:2527   */\n      calldataload\n        /* \"#utility.yul\":2554:2572   */\n      0xffffffffffffffff\n        /* \"#utility.yul\":2546:2552   */\n      dup2\n        /* \"#utility.yul\":2543:2573   */\n      gt\n        /* \"#utility.yul\":2540:2657   */\n      iszero\n      tag_90\n      jumpi\n        /* \"#utility.yul\":2576:2655   */\n      tag_91\n      tag_29\n      jump\t// in\n    tag_91:\n        /* \"#utility.yul\":2540:2657   */\n    tag_90:\n        /* \"#utility.yul\":2689:2754   */\n      tag_92\n        /* \"#utility.yul\":2746:2753   */\n      dup8\n        /* \"#utility.yul\":2737:2743   */\n      dup3\n        /* \"#utility.yul\":2726:2735   */\n      dup9\n        /* \"#utility.yul\":2722:2744   */\n      add\n        /* \"#utility.yul\":2689:2754   */\n      tag_34\n      jump\t// in\n    tag_92:\n        /* \"#utility.yul\":2671:2754   */\n      swap3\n      pop\n      swap3\n      pop\n        /* \"#utility.yul\":2466:2764   */\n      pop\n        /* \"#utility.yul\":1867:2771   */\n      swap3\n      swap6\n      swap2\n      swap5\n      pop\n      swap3\n      pop\n      jump\t// out\n        /* \"#utility.yul\":2777:2854   */\n    tag_35:\n        /* \"#utility.yul\":2814:2821   */\n      0x00\n        /* \"#utility.yul\":2843:2848   */\n      dup2\n        /* \"#utility.yul\":2832:2848   */\n      swap1\n      pop\n        /* \"#utility.yul\":2777:2854   */\n      swap2\n      swap1\n      pop\n      jump\t// out\n        /* \"#utility.yul\":2860:2978   */\n    tag_36:\n        /* \"#utility.yul\":2947:2971   */\n      tag_95\n        /* \"#utility.yul\":2965:2970   */\n      dup2\n        /* \"#utility.yul\":2947:2971   */\n      tag_35\n      jump\t// in\n    tag_95:\n        /* \"#utility.yul\":2942:2945   */\n      dup3\n        /* \"#utility.yul\":2935:2972   */\n      mstore\n        /* \"#utility.yul\":2860:2978   */\n      pop\n      pop\n      jump\t// out\n        /* \"#utility.yul\":2984:3206   */\n    tag_10:\n        /* \"#utility.yul\":3077:3081   */\n      0x00\n        /* \"#utility.yul\":3115:3117   */\n      0x20\n        /* \"#utility.yul\":3104:3113   */\n      dup3\n        /* \"#utility.yul\":3100:3118   */\n      add\n        /* \"#utility.yul\":3092:3118   */\n      swap1\n      pop\n        /* \"#utility.yul\":3128:3199   */\n      tag_97\n        /* \"#utility.yul\":3196:3197   */\n      0x00\n        /* \"#utility.yul\":3185:3194   */\n      dup4\n        /* \"#utility.yul\":3181:3198   */\n      add\n        /* \"#utility.yul\":3172:3178   */\n      dup5\n        /* \"#utility.yul\":3128:3199   */\n      tag_36\n      jump\t// in\n    tag_97:\n        /* \"#utility.yul\":2984:3206   */\n      swap3\n      swap2\n      pop\n      pop\n      jump\t// out\n        /* \"#utility.yul\":3212:3338   */\n    tag_37:\n        /* \"#utility.yul\":3249:3256   */\n      0x00\n        /* \"#utility.yul\":3289:3331   */\n      0xffffffffffffffffffffffffffffffffffffffff\n        /* \"#utility.yul\":3282:3287   */\n      dup3\n        /* \"#utility.yul\":3278:3332   */\n      and\n        /* \"#utility.yul\":3267:3332   */\n      swap1\n      pop\n        /* \"#utility.yul\":3212:3338   */\n      swap2\n      swap1\n      pop\n      jump\t// out\n        /* \"#utility.yul\":3344:3440   */\n    tag_38:\n        /* \"#utility.yul\":3381:3388   */\n      0x00\n        /* \"#utility.yul\":3410:3434   */\n      tag_100\n        /* \"#utility.yul\":3428:3433   */\n      dup3\n        /* \"#utility.yul\":3410:3434   */\n      tag_37\n      jump\t// in\n    tag_100:\n        /* \"#utility.yul\":3399:3434   */\n      swap1\n      pop\n        /* \"#utility.yul\":3344:3440   */\n      swap2\n      swap1\n      pop\n      jump\t// out\n        /* \"#utility.yul\":3446:3568   */\n    tag_39:\n        /* \"#utility.yul\":3519:3543   */\n      tag_102\n        /* \"#utility.yul\":3537:3542   */\n      dup2\n        /* \"#utility.yul\":3519:3543   */\n      tag_38\n      jump\t// in\n    tag_102:\n        /* \"#utility.yul\":3512:3517   */\n      dup2\n        /* \"#utility.yul\":3509:3544   */\n      eq\n        /* \"#utility.yul\":3499:3562   */\n      tag_103\n      jumpi\n        /* \"#utility.yul\":3558:3559   */\n      0x00\n        /* \"#utility.yul\":3555:3556   */\n      dup1\n        /* \"#utility.yul\":3548:3560   */\n      revert\n        /* \"#utility.yul\":3499:3562   */\n    tag_103:\n        /* \"#utility.yul\":3446:3568   */\n      pop\n      jump\t// out\n        /* \"#utility.yul\":3574:3713   */\n    tag_40:\n        /* \"#utility.yul\":3620:3625   */\n      0x00\n        /* \"#utility.yul\":3658:3664   */\n      dup2\n        /* \"#utility.yul\":3645:3665   */\n      calldataload\n        /* \"#utility.yul\":3636:3665   */\n      swap1\n      pop\n        /* \"#utility.yul\":3674:3707   */\n      tag_105\n        /* \"#utility.yul\":3701:3706   */\n      dup2\n        /* \"#utility.yul\":3674:3707   */\n      tag_39\n      jump\t// in\n    tag_105:\n        /* \"#utility.yul\":3574:3713   */\n      swap3\n      swap2\n      pop\n      pop\n      jump\t// out\n        /* \"#utility.yul\":3719:4048   */\n    tag_13:\n        /* \"#utility.yul\":3778:3784   */\n      0x00\n        /* \"#utility.yul\":3827:3829   */\n      0x20\n        /* \"#utility.yul\":3815:3824   */\n      dup3\n        /* \"#utility.yul\":3806:3813   */\n      dup5\n        /* \"#utility.yul\":3802:3825   */\n      sub\n        /* \"#utility.yul\":3798:3830   */\n      slt\n        /* \"#utility.yul\":3795:3914   */\n      iszero\n      tag_107\n      jumpi\n        /* \"#utility.yul\":3833:3912   */\n      tag_108\n      tag_28\n      jump\t// in\n    tag_108:\n        /* \"#utility.yul\":3795:3914   */\n    tag_107:\n        /* \"#utility.yul\":3953:3954   */\n      0x00\n        /* \"#utility.yul\":3978:4031   */\n      tag_109\n        /* \"#utility.yul\":4023:4030   */\n      dup5\n        /* \"#utility.yul\":4014:4020   */\n      dup3\n        /* \"#utility.yul\":4003:4012   */\n      dup6\n        /* \"#utility.yul\":3999:4021   */\n      add\n        /* \"#utility.yul\":3978:4031   */\n      tag_40\n      jump\t// in\n    tag_109:\n        /* \"#utility.yul\":3968:4031   */\n      swap2\n      pop\n        /* \"#utility.yul\":3924:4041   */\n      pop\n        /* \"#utility.yul\":3719:4048   */\n      swap3\n      swap2\n      pop\n      pop\n      jump\t// out\n        /* \"#utility.yul\":4054:4153   */\n    tag_41:\n        /* \"#utility.yul\":4106:4112   */\n      0x00\n        /* \"#utility.yul\":4140:4145   */\n      dup2\n        /* \"#utility.yul\":4134:4146   */\n      mload\n        /* \"#utility.yul\":4124:4146   */\n      swap1\n      pop\n        /* \"#utility.yul\":4054:4153   */\n      swap2\n      swap1\n      pop\n      jump\t// out\n        /* \"#utility.yul\":4159:4328   */\n    tag_42:\n        /* \"#utility.yul\":4243:4254   */\n      0x00\n        /* \"#utility.yul\":4277:4283   */\n      dup3\n        /* \"#utility.yul\":4272:4275   */\n      dup3\n        /* \"#utility.yul\":4265:4284   */\n      mstore\n        /* \"#utility.yul\":4317:4321   */\n      0x20\n        /* \"#utility.yul\":4312:4315   */\n      dup3\n        /* \"#utility.yul\":4308:4322   */\n      add\n        /* \"#utility.yul\":4293:4322   */\n      swap1\n      pop\n        /* \"#utility.yul\":4159:4328   */\n      swap3\n      swap2\n      pop\n      pop\n      jump\t// out\n        /* \"#utility.yul\":4334:4580   */\n    tag_43:\n        /* \"#utility.yul\":4415:4416   */\n      0x00\n        /* \"#utility.yul\":4425:4538   */\n    tag_113:\n        /* \"#utility.yul\":4439:4445   */\n      dup4\n        /* \"#utility.yul\":4436:4437   */\n      dup2\n        /* \"#utility.yul\":4433:4446   */\n      lt\n        /* \"#utility.yul\":4425:4538   */\n      iszero\n      tag_115\n      jumpi\n        /* \"#utility.yul\":4524:4525   */\n      dup1\n        /* \"#utility.yul\":4519:4522   */\n      dup3\n        /* \"#utility.yul\":4515:4526   */\n      add\n        /* \"#utility.yul\":4509:4527   */\n      mload\n        /* \"#utility.yul\":4505:4506   */\n      dup2\n        /* \"#utility.yul\":4500:4503   */\n      dup5\n        /* \"#utility.yul\":4496:4507   */\n      add\n        /* \"#utility.yul\":4489:4528   */\n      mstore\n        /* \"#utility.yul\":4461:4463   */\n      0x20\n        /* \"#utility.yul\":4458:4459   */\n      dup2\n        /* \"#utility.yul\":4454:4464   */\n      add\n        /* \"#utility.yul\":4449:4464   */\n      swap1\n      pop\n        /* \"#utility.yul\":4425:4538   */\n      jump(tag_113)\n    tag_115:\n        /* \"#utility.yul\":4572:4573   */\n      0x00\n        /* \"#utility.yul\":4563:4569   */\n      dup5\n        /* \"#utility.yul\":4558:4561   */\n      dup5\n        /* \"#utility.yul\":4554:4570   */\n      add\n        /* \"#utility.yul\":4547:4574   */\n      mstore\n        /* \"#utility.yul\":4396:4580   */\n      pop\n        /* \"#utility.yul\":4334:4580   */\n      pop\n      pop\n      pop\n      jump\t// out\n        /* \"#utility.yul\":4586:4688   */\n    tag_44:\n        /* \"#utility.yul\":4627:4633   */\n      0x00\n        /* \"#utility.yul\":4678:4680   */\n      0x1f\n        /* \"#utility.yul\":4674:4681   */\n      not\n        /* \"#utility.yul\":4669:4671   */\n      0x1f\n        /* \"#utility.yul\":4662:4667   */\n      dup4\n        /* \"#utility.yul\":4658:4672   */\n      add\n        /* \"#utility.yul\":4654:4682   */\n      and\n        /* \"#utility.yul\":4644:4682   */\n      swap1\n      pop\n        /* \"#utility.yul\":4586:4688   */\n      swap2\n      swap1\n      pop\n      jump\t// out\n        /* \"#utility.yul\":4694:5071   */\n    tag_45:\n        /* \"#utility.yul\":4782:4785   */\n      0x00\n        /* \"#utility.yul\":4810:4849   */\n      tag_118\n        /* \"#utility.yul\":4843:4848   */\n      dup3\n        /* \"#utility.yul\":4810:4849   */\n      tag_41\n      jump\t// in\n    tag_118:\n        /* \"#utility.yul\":4865:4936   */\n      tag_119\n        /* \"#utility.yul\":4929:4935   */\n      dup2\n        /* \"#utility.yul\":4924:4927   */\n      dup6\n        /* \"#utility.yul\":4865:4936   */\n      tag_42\n      jump\t// in\n    tag_119:\n        /* \"#utility.yul\":4858:4936   */\n      swap4\n      pop\n        /* \"#utility.yul\":4945:5010   */\n      tag_120\n        /* \"#utility.yul\":5003:5009   */\n      dup2\n        /* \"#utility.yul\":4998:5001   */\n      dup6\n        /* \"#utility.yul\":4991:4995   */\n      0x20\n        /* \"#utility.yul\":4984:4989   */\n      dup7\n        /* \"#utility.yul\":4980:4996   */\n      add\n        /* \"#utility.yul\":4945:5010   */\n      tag_43\n      jump\t// in\n    tag_120:\n        /* \"#utility.yul\":5035:5064   */\n      tag_121\n        /* \"#utility.yul\":5057:5063   */\n      dup2\n        /* \"#utility.yul\":5035:5064   */\n      tag_44\n      jump\t// in\n    tag_121:\n        /* \"#utility.yul\":5030:5033   */\n      dup5\n        /* \"#utility.yul\":5026:5065   */\n      add\n        /* \"#utility.yul\":5019:5065   */\n      swap2\n      pop\n        /* \"#utility.yul\":4786:5071   */\n      pop\n        /* \"#utility.yul\":4694:5071   */\n      swap3\n      swap2\n      pop\n      pop\n      jump\t// out\n        /* \"#utility.yul\":5077:5500   */\n    tag_16:\n        /* \"#utility.yul\":5218:5222   */\n      0x00\n        /* \"#utility.yul\":5256:5258   */\n      0x40\n        /* \"#utility.yul\":5245:5254   */\n      dup3\n        /* \"#utility.yul\":5241:5259   */\n      add\n        /* \"#utility.yul\":5233:5259   */\n      swap1\n      pop\n        /* \"#utility.yul\":5269:5340   */\n      tag_123\n        /* \"#utility.yul\":5337:5338   */\n      0x00\n        /* \"#utility.yul\":5326:5335   */\n      dup4\n        /* \"#utility.yul\":5322:5339   */\n      add\n        /* \"#utility.yul\":5313:5319   */\n      dup6\n        /* \"#utility.yul\":5269:5340   */\n      tag_36\n      jump\t// in\n    tag_123:\n        /* \"#utility.yul\":5387:5396   */\n      dup2\n        /* \"#utility.yul\":5381:5385   */\n      dup2\n        /* \"#utility.yul\":5377:5397   */\n      sub\n        /* \"#utility.yul\":5372:5374   */\n      0x20\n        /* \"#utility.yul\":5361:5370   */\n      dup4\n        /* \"#utility.yul\":5357:5375   */\n      add\n        /* \"#utility.yul\":5350:5398   */\n      mstore\n        /* \"#utility.yul\":5415:5493   */\n      tag_124\n        /* \"#utility.yul\":5488:5492   */\n      dup2\n        /* \"#utility.yul\":5479:5485   */\n      dup5\n        /* \"#utility.yul\":5415:5493   */\n      tag_45\n      jump\t// in\n    tag_124:\n        /* \"#utility.yul\":5407:5493   */\n      swap1\n      pop\n        /* \"#utility.yul\":5077:5500   */\n      swap4\n      swap3\n      pop\n      pop\n      pop\n      jump\t// out\n        /* \"#utility.yul\":5506:5686   */\n    tag_46:\n        /* \"#utility.yul\":5554:5631   */\n      0x4e487b7100000000000000000000000000000000000000000000000000000000\n        /* \"#utility.yul\":5551:5552   */\n      0x00\n        /* \"#utility.yul\":5544:5632   */\n      mstore\n        /* \"#utility.yul\":5651:5655   */\n      0x41\n        /* \"#utility.yul\":5648:5649   */\n      0x04\n        /* \"#utility.yul\":5641:5656   */\n      mstore\n        /* \"#utility.yul\":5675:5679   */\n      0x24\n        /* \"#utility.yul\":5672:5673   */\n      0x00\n        /* \"#utility.yul\":5665:5680   */\n      revert\n        /* \"#utility.yul\":5692:5872   */\n    tag_47:\n        /* \"#utility.yul\":5740:5817   */\n      0x4e487b7100000000000000000000000000000000000000000000000000000000\n        /* \"#utility.yul\":5737:5738   */\n      0x00\n        /* \"#utility.yul\":5730:5818   */\n      mstore\n        /* \"#utility.yul\":5837:5841   */\n      0x22\n        /* \"#utility.yul\":5834:5835   */\n      0x04\n        /* \"#utility.yul\":5827:5842   */\n      mstore\n        /* \"#utility.yul\":5861:5865   */\n      0x24\n        /* \"#utility.yul\":5858:5859   */\n      0x00\n        /* \"#utility.yul\":5851:5866   */\n      revert\n        /* \"#utility.yul\":5878:6198   */\n    tag_22:\n        /* \"#utility.yul\":5922:5928   */\n      0x00\n        /* \"#utility.yul\":5959:5960   */\n      0x02\n        /* \"#utility.yul\":5953:5957   */\n      dup3\n        /* \"#utility.yul\":5949:5961   */\n      div\n        /* \"#utility.yul\":5939:5961   */\n      swap1\n      pop\n        /* \"#utility.yul\":6006:6007   */\n      0x01\n        /* \"#utility.yul\":6000:6004   */\n      dup3\n        /* \"#utility.yul\":5996:6008   */\n      and\n        /* \"#utility.yul\":6027:6045   */\n      dup1\n        /* \"#utility.yul\":6017:6098   */\n      tag_128\n      jumpi\n        /* \"#utility.yul\":6083:6087   */\n      0x7f\n        /* \"#utility.yul\":6075:6081   */\n      dup3\n        /* \"#utility.yul\":6071:6088   */\n      and\n        /* \"#utility.yul\":6061:6088   */\n      swap2\n      pop\n        /* \"#utility.yul\":6017:6098   */\n    tag_128:\n        /* \"#utility.yul\":6145:6147   */\n      0x20\n        /* \"#utility.yul\":6137:6143   */\n      dup3\n        /* \"#utility.yul\":6134:6148   */\n      lt\n        /* \"#utility.yul\":6114:6132   */\n      dup2\n        /* \"#utility.yul\":6111:6149   */\n      sub\n        /* \"#utility.yul\":6108:6192   */\n      tag_129\n      jumpi\n        /* \"#utility.yul\":6164:6182   */\n      tag_130\n      tag_47\n      jump\t// in\n    tag_130:\n        /* \"#utility.yul\":6108:6192   */\n    tag_129:\n        /* \"#utility.yul\":5929:6198   */\n      pop\n        /* \"#utility.yul\":5878:6198   */\n      swap2\n      swap1\n      pop\n      jump\t// out\n        /* \"#utility.yul\":6204:6345   */\n    tag_48:\n        /* \"#utility.yul\":6253:6257   */\n      0x00\n        /* \"#utility.yul\":6276:6279   */\n      dup2\n        /* \"#utility.yul\":6268:6279   */\n      swap1\n      pop\n        /* \"#utility.yul\":6299:6302   */\n      dup2\n        /* \"#utility.yul\":6296:6297   */\n      0x00\n        /* \"#utility.yul\":6289:6303   */\n      mstore\n        /* \"#utility.yul\":6333:6337   */\n      0x20\n        /* \"#utility.yul\":6330:6331   */\n      0x00\n        /* \"#utility.yul\":6320:6338   */\n      keccak256\n        /* \"#utility.yul\":6312:6338   */\n      swap1\n      pop\n        /* \"#utility.yul\":6204:6345   */\n      swap2\n      swap1\n      pop\n      jump\t// out\n        /* \"#utility.yul\":6351:6444   */\n    tag_49:\n        /* \"#utility.yul\":6388:6394   */\n      0x00\n        /* \"#utility.yul\":6435:6437   */\n      0x20\n        /* \"#utility.yul\":6430:6432   */\n      0x1f\n        /* \"#utility.yul\":6423:6428   */\n      dup4\n        /* \"#utility.yul\":6419:6433   */\n      add\n        /* \"#utility.yul\":6415:6438   */\n      div\n        /* \"#utility.yul\":6405:6438   */\n      swap1\n      pop\n        /* \"#utility.yul\":6351:6444   */\n      swap2\n      swap1\n      pop\n      jump\t// out\n        /* \"#utility.yul\":6450:6557   */\n    tag_50:\n        /* \"#utility.yul\":6494:6502   */\n      0x00\n        /* \"#utility.yul\":6544:6549   */\n      dup3\n        /* \"#utility.yul\":6538:6542   */\n      dup3\n        /* \"#utility.yul\":6534:6550   */\n      shl\n        /* \"#utility.yul\":6513:6550   */\n      swap1\n      pop\n        /* \"#utility.yul\":6450:6557   */\n      swap3\n      swap2\n      pop\n      pop\n      jump\t// out\n        /* \"#utility.yul\":6563:6956   */\n    tag_51:\n        /* \"#utility.yul\":6632:6638   */\n      0x00\n        /* \"#utility.yul\":6682:6683   */\n      0x08\n        /* \"#utility.yul\":6670:6680   */\n      dup4\n        /* \"#utility.yul\":6666:6684   */\n      mul\n        /* \"#utility.yul\":6705:6802   */\n      tag_135\n        /* \"#utility.yul\":6735:6801   */\n      0xffffffffffffffffffffffffffffffffffffffffffffffffffffffffffffffff\n        /* \"#utility.yul\":6724:6733   */\n      dup3\n        /* \"#utility.yul\":6705:6802   */\n      tag_50\n      jump\t// in\n    tag_135:\n        /* \"#utility.yul\":6823:6862   */\n      tag_136\n        /* \"#utility.yul\":6853:6861   */\n      dup7\n        /* \"#utility.yul\":6842:6851   */\n      dup4\n        /* \"#utility.yul\":6823:6862   */\n      tag_50\n      jump\t// in\n    tag_136:\n        /* \"#utility.yul\":6811:6862   */\n      swap6\n      pop\n        /* \"#utility.yul\":6895:6899   */\n      dup1\n        /* \"#utility.yul\":6891:6900   */\n      not\n        /* \"#utility.yul\":6884:6889   */\n      dup5\n        /* \"#utility.yul\":6880:6901   */\n      and\n        /* \"#utility.yul\":6871:6901   */\n      swap4\n      pop\n        /* \"#utility.yul\":6944:6948   */\n      dup1\n        /* \"#utility.yul\":6934:6942   */\n      dup7\n        /* \"#utility.yul\":6930:6949   */\n      and\n        /* \"#utility.yul\":6923:6928   */\n      dup5\n        /* \"#utility.yul\":6920:6950   */\n      or\n        /* \"#utility.yul\":6910:6950   */\n      swap3\n      pop\n        /* \"#utility.yul\":6639:6956   */\n      pop\n      pop\n        /* \"#utility.yul\":6563:6956   */\n      swap4\n      swap3\n      pop\n      pop\n      pop\n      jump\t// out\n        /* \"#utility.yul\":6962:7022   */\n    tag_52:\n        /* \"#utility.yul\":6990:6993   */\n      0x00\n        /* \"#utility.yul\":7011:7016   */\n      dup2\n        /* \"#utility.yul\":7004:7016   */\n      swap1\n      pop\n        /* \"#utility.yul\":6962:7022   */\n      swap2\n      swap1\n      pop\n      jump\t// out\n        /* \"#utility.yul\":7028:7170   */\n    tag_53:\n        /* \"#utility.yul\":7078:7087   */\n      0x00\n        /* \"#utility.yul\":7111:7164   */\n      tag_139\n        /* \"#utility.yul\":7129:7163   */\n      tag_140\n        /* \"#utility.yul\":7138:7162   */\n      tag_141\n        /* \"#utility.yul\":7156:7161   */\n      dup5\n        /* \"#utility.yul\":7138:7162   */\n      tag_35\n      jump\t// in\n    tag_141:\n        /* \"#utility.yul\":7129:7163   */\n      tag_52\n      jump\t// in\n    tag_140:\n        /* \"#utility.yul\":7111:7164   */\n      tag_35\n      jump\t// in\n    tag_139:\n        /* \"#utility.yul\":7098:7164   */\n      swap1\n      pop\n        /* \"#utility.yul\":7028:7170   */\n      swap2\n      swap1\n      pop\n      jump\t// out\n        /* \"#utility.yul\":7176:7251   */\n    tag_54:\n        /* \"#utility.yul\":7219:7222   */\n      0x00\n        /* \"#utility.yul\":7240:7245   */\n      dup2\n        /* \"#utility.yul\":7233:7245   */\n      swap1\n      pop\n        /* \"#utility.yul\":7176:7251   */\n      swap2\n      swap1\n      pop\n      jump\t// out\n        /* \"#utility.yul\":7257:7526   */\n    tag_55:\n        /* \"#utility.yul\":7367:7406   */\n      tag_144\n        /* \"#utility.yul\":7398:7405   */\n      dup4\n        /* \"#utility.yul\":7367:7406   */\n      tag_53\n      jump\t// in\n    tag_144:\n        /* \"#utility.yul\":7428:7519   */\n      tag_145\n        /* \"#utility.yul\":7477:7518   */\n      tag_146\n        /* \"#utility.yul\":7501:7517   */\n      dup3\n        /* \"#utility.yul\":7477:7518   */\n      tag_54\n      jump\t// in\n    tag_146:\n        /* \"#utility.yul\":7469:7475   */\n      dup5\n        /* \"#utility.yul\":7462:7466   */\n      dup5\n        /* \"#utility.yul\":7456:7467   */\n      sload\n        /* \"#utility.yul\":7428:7519   */\n      tag_51\n      jump\t// in\n    tag_145:\n        /* \"#utility.yul\":7422:7426   */\n      dup3\n        /* \"#utility.yul\":7415:7520   */\n      sstore\n        /* \"#utility.yul\":7333:7526   */\n      pop\n        /* \"#utility.yul\":7257:7526   */\n      pop\n      pop\n      pop\n      jump\t// out\n        /* \"#utility.yul\":7532:7605   */\n    tag_56:\n        /* \"#utility.yul\":7577:7580   */\n      0x00\n        /* \"#utility.yul\":7532:7605   */\n      swap1\n      jump\t// out\n        /* \"#utility.yul\":7611:7800   */\n    tag_57:\n        /* \"#utility.yul\":7688:7720   */\n      tag_149\n      tag_56\n      jump\t// in\n    tag_149:\n        /* \"#utility.yul\":7729:7794   */\n      tag_150\n        /* \"#utility.yul\":7787:7793   */\n      dup2\n        /* \"#utility.yul\":7779:7785   */\n      dup5\n        /* \"#utility.yul\":7773:7777   */\n      dup5\n        /* \"#utility.yul\":7729:7794   */\n      tag_55\n      jump\t// in\n    tag_150:\n        /* \"#utility.yul\":7664:7800   */\n      pop\n        /* \"#utility.yul\":7611:7800   */\n      pop\n      pop\n      jump\t// out\n        /* \"#utility.yul\":7806:7992   */\n    tag_58:\n        /* \"#utility.yul\":7866:7986   */\n    tag_152:\n        /* \"#utility.yul\":7883:7886   */\n      dup2\n        /* \"#utility.yul\":7876:7881   */\n      dup2\n        /* \"#utility.yul\":7873:7887   */\n      lt\n        /* \"#utility.yul\":7866:7986   */\n      iszero\n      tag_154\n      jumpi\n        /* \"#utility.yul\":7937:7976   */\n      tag_155\n        /* \"#utility.yul\":7974:7975   */\n      0x00\n        /* \"#utility.yul\":7967:7972   */\n      dup3\n        /* \"#utility.yul\":7937:7976   */\n      tag_57\n      jump\t// in\n    tag_155:\n        /* \"#utility.yul\":7910:7911   */\n      0x01\n        /* \"#utility.yul\":7903:7908   */\n      dup2\n        /* \"#utility.yul\":7899:7912   */\n      add\n        /* \"#utility.yul\":7890:7912   */\n      swap1\n      pop\n        /* \"#utility.yul\":7866:7986   */\n      jump(tag_152)\n    tag_154:\n        /* \"#utility.yul\":7806:7992   */\n      pop\n      pop\n      jump\t// out\n        /* \"#utility.yul\":7998:8541   */\n    tag_59:\n        /* \"#utility.yul\":8099:8101   */\n      0x1f\n        /* \"#utility.yul\":8094:8097   */\n      dup3\n        /* \"#utility.yul\":8091:8102   */\n      gt\n        /* \"#utility.yul\":8088:8534   */\n      iszero\n      tag_157\n      jumpi\n        /* \"#utility.yul\":8133:8171   */\n      tag_158\n        /* \"#utility.yul\":8165:8170   */\n      dup2\n        /* \"#utility.yul\":8133:8171   */\n      tag_48\n      jump\t// in\n    tag_158:\n        /* \"#utility.yul\":8217:8246   */\n      tag_159\n        /* \"#utility.yul\":8235:8245   */\n      dup5\n        /* \"#utility.yul\":8217:8246   */\n      tag_49\n      jump\t// in\n    tag_159:\n        /* \"#utility.yul\":8207:8215   */\n      dup2\n        /* \"#utility.yul\":8203:8247   */\n      add\n        /* \"#utility.yul\":8400:8402   */\n      0x20\n        /* \"#utility.yul\":8388:8398   */\n      dup6\n        /* \"#utility.yul\":8385:8403   */\n      lt\n        /* \"#utility.yul\":8382:8431   */\n      iszero\n      tag_160\n      jumpi\n        /* \"#utility.yul\":8421:8429   */\n      dup2\n        /* \"#utility.yul\":8406:8429   */\n      swap1\n      pop\n        /* \"#utility.yul\":8382:8431   */\n    tag_160:\n        /* \"#utility.yul\":8444:8524   */\n      tag_161\n        /* \"#utility.yul\":8500:8522   */\n      tag_162\n        /* \"#utility.yul\":8518:8521   */\n      dup6\n        /* \"#utility.yul\":8500:8522   */\n      tag_49\n      jump\t// in\n    tag_162:\n        /* \"#utility.yul\":8490:8498   */\n      dup4\n        /* \"#utility.yul\":8486:8523   */\n      add\n        /* \"#utility.yul\":8473:8484   */\n      dup3\n        /* \"#utility.yul\":8444:8524   */\n      tag_58\n      jump\t// in\n    tag_161:\n        /* \"#utility.yul\":8103:8534   */\n      pop\n      pop\n        /* \"#utility.yul\":8088:8534   */\n    tag_157:\n        /* \"#utility.yul\":7998:8541   */\n      pop\n      pop\n      pop\n      jump\t// out\n        /* \"#utility.yul\":8547:8664   */\n    tag_60:\n        /* \"#utility.yul\":8601:8609   */\n      0x00\n        /* \"#utility.yul\":8651:8656   */\n      dup3\n        /* \"#utility.yul\":8645:8649   */\n      dup3\n        /* \"#utility.yul\":8641:8657   */\n      shr\n        /* \"#utility.yul\":8620:8657   */\n      swap1\n      pop\n        /* \"#utility.yul\":8547:8664   */\n      swap3\n      swap2\n      pop\n      pop\n      jump\t// out\n        /* \"#utility.yul\":8670:8839   */\n    tag_61:\n        /* \"#utility.yul\":8714:8720   */\n      0x00\n        /* \"#utility.yul\":8747:8798   */\n      tag_165\n        /* \"#utility.yul\":8795:8796   */\n      0x00\n        /* \"#utility.yul\":8791:8797   */\n      not\n        /* \"#utility.yul\":8783:8788   */\n      dup5\n        /* \"#utility.yul\":8780:8781   */\n      0x08\n        /* \"#utility.yul\":8776:8789   */\n      mul\n        /* \"#utility.yul\":8747:8798   */\n      tag_60\n      jump\t// in\n    tag_165:\n        /* \"#utility.yul\":8743:8799   */\n      not\n        /* \"#utility.yul\":8828:8832   */\n      dup1\n        /* \"#utility.yul\":8822:8826   */\n      dup4\n        /* \"#utility.yul\":8818:8833   */\n      and\n        /* \"#utility.yul\":8808:8833   */\n      swap2\n      pop\n        /* \"#utility.yul\":8721:8839   */\n      pop\n        /* \"#utility.yul\":8670:8839   */\n      swap3\n      swap2\n      pop\n      pop\n      jump\t// out\n        /* \"#utility.yul\":8844:9139   */\n    tag_62:\n        /* \"#utility.yul\":8920:8924   */\n      0x00\n        /* \"#utility.yul\":9066:9095   */\n      tag_167\n        /* \"#utility.yul\":9091:9094   */\n      dup4\n        /* \"#utility.yul\":9085:9089   */\n      dup4\n        /* \"#utility.yul\":9066:9095   */\n      tag_61\n      jump\t// in\n    tag_167:\n        /* \"#utility.yul\":9058:9095   */\n      swap2\n      pop\n        /* \"#utility.yul\":9128:9131   */\n      dup3\n        /* \"#utility.yul\":9125:9126   */\n      0x02\n        /* \"#utility.yul\":9121:9132   */\n      mul\n        /* \"#utility.yul\":9115:9119   */\n      dup3\n        /* \"#utility.yul\":9112:9133   */\n      or\n        /* \"#utility.yul\":9104:9133   */\n      swap1\n      pop\n        /* \"#utility.yul\":8844:9139   */\n      swap3\n      swap2\n      pop\n      pop\n      jump\t// out\n        /* \"#utility.yul\":9144:10539   */\n    tag_19:\n        /* \"#utility.yul\":9261:9298   */\n      tag_169\n        /* \"#utility.yul\":9294:9297   */\n      dup3\n        /* \"#utility.yul\":9261:9298   */\n      tag_41\n      jump\t// in\n    tag_169:\n        /* \"#utility.yul\":9363:9381   */\n      0xffffffffffffffff\n        /* \"#utility.yul\":9355:9361   */\n      dup2\n        /* \"#utility.yul\":9352:9382   */\n      gt\n        /* \"#utility.yul\":9349:9405   */\n      iszero\n      tag_170\n      jumpi\n        /* \"#utility.yul\":9385:9403   */\n      tag_171\n      tag_46\n      jump\t// in\n    tag_171:\n        /* \"#utility.yul\":9349:9405   */\n    tag_170:\n        /* \"#utility.yul\":9429:9467   */\n      tag_172\n        /* \"#utility.yul\":9461:9465   */\n      dup3\n        /* \"#utility.yul\":9455:9466   */\n      sload\n        /* \"#utility.yul\":9429:9467   */\n      tag_22\n      jump\t// in\n    tag_172:\n        /* \"#utility.yul\":9514:9581   */\n      tag_173\n        /* \"#utility.yul\":9574:9580   */\n      dup3\n        /* \"#utility.yul\":9566:9572   */\n      dup3\n        /* \"#utility.yul\":9560:9564   */\n      dup6\n        /* \"#utility.yul\":9514:9581   */\n      tag_59\n      jump\t// in\n    tag_173:\n        /* \"#utility.yul\":9608:9609   */\n      0x00\n        /* \"#utility.yul\":9632:9636   */\n      0x20\n        /* \"#utility.yul\":9619:9636   */\n      swap1\n      pop\n        /* \"#utility.yul\":9664:9666   */\n      0x1f\n        /* \"#utility.yul\":9656:9662   */\n      dup4\n        /* \"#utility.yul\":9653:9667   */\n      gt\n        /* \"#utility.yul\":9681:9682   */\n      0x01\n        /* \"#utility.yul\":9676:10294   */\n      dup2\n      eq\n      tag_175\n      jumpi\n        /* \"#utility.yul\":10338:10339   */\n      0x00\n        /* \"#utility.yul\":10355:10361   */\n      dup5\n        /* \"#utility.yul\":10352:10429   */\n      iszero\n      tag_176\n      jumpi\n        /* \"#utility.yul\":10404:10413   */\n      dup3\n        /* \"#utility.yul\":10399:10402   */\n      dup8\n        /* \"#utility.yul\":10395:10414   */\n      add\n        /* \"#utility.yul\":10389:10415   */\n      mload\n        /* \"#utility.yul\":10380:10415   */\n      swap1\n      pop\n        /* \"#utility.yul\":10352:10429   */\n    tag_176:\n        /* \"#utility.yul\":10455:10522   */\n      tag_177\n        /* \"#utility.yul\":10515:10521   */\n      dup6\n        /* \"#utility.yul\":10508:10513   */\n      dup3\n        /* \"#utility.yul\":10455:10522   */\n      tag_62\n      jump\t// in\n    tag_177:\n        /* \"#utility.yul\":10449:10453   */\n      dup7\n        /* \"#utility.yul\":10442:10523   */\n      sstore\n        /* \"#utility.yul\":10311:10533   */\n      pop\n        /* \"#utility.yul\":9646:10533   */\n      jump(tag_174)\n        /* \"#utility.yul\":9676:10294   */\n    tag_175:\n        /* \"#utility.yul\":9728:9732   */\n      0x1f\n        /* \"#utility.yul\":9724:9733   */\n      not\n        /* \"#utility.yul\":9716:9722   */\n      dup5\n        /* \"#utility.yul\":9712:9734   */\n      and\n        /* \"#utility.yul\":9762:9799   */\n      tag_178\n        /* \"#utility.yul\":9794:9798   */\n      dup7\n        /* \"#utility.yul\":9762:9799   */\n      tag_48\n      jump\t// in\n    tag_178:\n        /* \"#utility.yul\":9821:9822   */\n      0x00\n        /* \"#utility.yul\":9835:10043   */\n    tag_179:\n        /* \"#utility.yul\":9849:9856   */\n      dup3\n        /* \"#utility.yul\":9846:9847   */\n      dup2\n        /* \"#utility.yul\":9843:9857   */\n      lt\n        /* \"#utility.yul\":9835:10043   */\n      iszero\n      tag_181\n      jumpi\n        /* \"#utility.yul\":9928:9937   */\n      dup5\n        /* \"#utility.yul\":9923:9926   */\n      dup10\n        /* \"#utility.yul\":9919:9938   */\n      add\n        /* \"#utility.yul\":9913:9939   */\n      mload\n        /* \"#utility.yul\":9905:9911   */\n      dup3\n        /* \"#utility.yul\":9898:9940   */\n      sstore\n        /* \"#utility.yul\":9979:9980   */\n      0x01\n        /* \"#utility.yul\":9971:9977   */\n      dup3\n        /* \"#utility.yul\":9967:9981   */\n      add\n        /* \"#utility.yul\":9957:9981   */\n      swap2\n      pop\n        /* \"#utility.yul\":10026:10028   */\n      0x20\n        /* \"#utility.yul\":10015:10024   */\n      dup6\n        /* \"#utility.yul\":10011:10029   */\n      add\n        /* \"#utility.yul\":9998:10029   */\n      swap5\n      pop\n        /* \"#utility.yul\":9872:9876   */\n      0x20\n        /* \"#utility.yul\":9869:9870   */\n      dup2\n        /* \"#utility.yul\":9865:9877   */\n      add\n        /* \"#utility.yul\":9860:9877   */\n      swap1\n      pop\n        /* \"#utility.yul\":9835:10043   */\n      jump(tag_179)\n    tag_181:\n        /* \"#utility.yul\":10071:10077   */\n      dup7\n        /* \"#utility.yul\":10062:10069   */\n      dup4\n        /* \"#utility.yul\":10059:10078   */\n      lt\n        /* \"#utility.yul\":10056:10235   */\n      iszero\n      tag_182\n      jumpi\n        /* \"#utility.yul\":10129:10138   */\n      dup5\n        /* \"#utility.yul\":10124:10127   */\n      dup10\n        /* \"#utility.yul\":10120:10139   */\n      add\n        /* \"#utility.yul\":10114:10140   */\n      mload\n        /* \"#utility.yul\":10172:10220   */\n      tag_183\n        /* \"#utility.yul\":10214:10218   */\n      0x1f\n        /* \"#utility.yul\":10206:10212   */\n      dup10\n        /* \"#utility.yul\":10202:10219   */\n      and\n        /* \"#utility.yul\":10191:10200   */\n      dup3\n        /* \"#utility.yul\":10172:10220   */\n      tag_61\n      jump\t// in\n    tag_183:\n        /* \"#utility.yul\":10164:10170   */\n      dup4\n        /* \"#utility.yul\":10157:10221   */\n      sstore\n        /* \"#utility.yul\":10079:10235   */\n      pop\n        /* \"#utility.yul\":10056:10235   */\n    tag_182:\n        /* \"#utility.yul\":10281:10282   */\n      0x01\n        /* \"#utility.yul\":10277:10278   */\n      0x02\n        /* \"#utility.yul\":10269:10275   */\n      dup9\n        /* \"#utility.yul\":10265:10279   */\n      mul\n        /* \"#utility.yul\":10261:10283   */\n      add\n        /* \"#utility.yul\":10255:10259   */\n      dup9\n        /* \"#utility.yul\":10248:10284   */\n      sstore\n        /* \"#utility.yul\":9683:10294   */\n      pop\n      pop\n      pop\n        /* \"#utility.yul\":9646:10533   */\n    tag_174:\n      pop\n        /* \"#utility.yul\":9236:10539   */\n      pop\n      pop\n      pop\n        /* \"#utility.yul\":9144:10539   */\n      pop\n      pop\n      jump\t// out\n\n    auxdata: 0xa264697066735822122016f369ad7b311f432b2f2674c7a71f5babf616c34e7d4f1096cf78b35d37cbea64736f6c63430008110033\n}\n",
				"bytecode": {
					"linkReferences": {},
					"object": "608060405234801561001057600080fd5b50610890806100206000396000f3fe608060405234801561001057600080fd5b50600436106100365760003560e01c80639837ae1a1461003b578063b43c5d331461006b575b600080fd5b6100556004803603810190610050919061034d565b61009c565b60405161006291906103e7565b60405180910390f35b61008560048036038101906100809190610460565b6101dc565b60405161009392919061051d565b60405180910390f35b60006040518060400160405280607b81526020016040518060400160405280600381526020017f62617200000000000000000000000000000000000000000000000000000000008152508152506000803373ffffffffffffffffffffffffffffffffffffffff1673ffffffffffffffffffffffffffffffffffffffff1681526020019081526020016000206000820151816000015560208201518160010190816101469190610788565b5090505060008060003373ffffffffffffffffffffffffffffffffffffffff1673ffffffffffffffffffffffffffffffffffffffff16815260200190815260200160002090506040518060400160405280600381526020017f666f6f00000000000000000000000000000000000000000000000000000000008152508160010190816101d29190610788565b5050949350505050565b6000602052806000526040600020600091509050806000015490806001018054610205906105ab565b80601f0160208091040260200160405190810160405280929190818152602001828054610231906105ab565b801561027e5780601f106102535761010080835404028352916020019161027e565b820191906000526020600020905b81548152906001019060200180831161026157829003601f168201915b5050505050905082565b600080fd5b600080fd5b600080fd5b600080fd5b600080fd5b60008083601f8401126102b7576102b6610292565b5b8235905067ffffffffffffffff8111156102d4576102d3610297565b5b6020830191508360208202830111156102f0576102ef61029c565b5b9250929050565b60008083601f84011261030d5761030c610292565b5b8235905067ffffffffffffffff81111561032a57610329610297565b5b6020830191508360018202830111156103465761034561029c565b5b9250929050565b6000806000806040858703121561036757610366610288565b5b600085013567ffffffffffffffff8111156103855761038461028d565b5b610391878288016102a1565b9450945050602085013567ffffffffffffffff8111156103b4576103b361028d565b5b6103c0878288016102f7565b925092505092959194509250565b6000819050919050565b6103e1816103ce565b82525050565b60006020820190506103fc60008301846103d8565b92915050565b600073ffffffffffffffffffffffffffffffffffffffff82169050919050565b600061042d82610402565b9050919050565b61043d81610422565b811461044857600080fd5b50565b60008135905061045a81610434565b92915050565b60006020828403121561047657610475610288565b5b60006104848482850161044b565b91505092915050565b600081519050919050565b600082825260208201905092915050565b60005b838110156104c75780820151818401526020810190506104ac565b60008484015250505050565b6000601f19601f8301169050919050565b60006104ef8261048d565b6104f98185610498565b93506105098185602086016104a9565b610512816104d3565b840191505092915050565b600060408201905061053260008301856103d8565b818103602083015261054481846104e4565b90509392505050565b7f4e487b7100000000000000000000000000000000000000000000000000000000600052604160045260246000fd5b7f4e487b7100000000000000000000000000000000000000000000000000000000600052602260045260246000fd5b600060028204905060018216806105c357607f821691505b6020821081036105d6576105d561057c565b5b50919050565b60008190508160005260206000209050919050565b60006020601f8301049050919050565b600082821b905092915050565b60006008830261063e7fffffffffffffffffffffffffffffffffffffffffffffffffffffffffffffffff82610601565b6106488683610601565b95508019841693508086168417925050509392505050565b6000819050919050565b600061068561068061067b846103ce565b610660565b6103ce565b9050919050565b6000819050919050565b61069f8361066a565b6106b36106ab8261068c565b84845461060e565b825550505050565b600090565b6106c86106bb565b6106d3818484610696565b505050565b5b818110156106f7576106ec6000826106c0565b6001810190506106d9565b5050565b601f82111561073c5761070d816105dc565b610716846105f1565b81016020851015610725578190505b610739610731856105f1565b8301826106d8565b50505b505050565b600082821c905092915050565b600061075f60001984600802610741565b1980831691505092915050565b6000610778838361074e565b9150826002028217905092915050565b6107918261048d565b67ffffffffffffffff8111156107aa576107a961054d565b5b6107b482546105ab565b6107bf8282856106fb565b600060209050601f8311600181146107f257600084156107e0578287015190505b6107ea858261076c565b865550610852565b601f198416610800866105dc565b60005b8281101561082857848901518255600182019150602085019450602081019050610803565b868310156108455784890151610841601f89168261074e565b8355505b6001600288020188555050505b50505050505056fea264697066735822122016f369ad7b311f432b2f2674c7a71f5babf616c34e7d4f1096cf78b35d37cbea64736f6c63430008110033",
					"opcodes": "PUSH1 0x80 PUSH1 0x40 MSTORE CALLVALUE DUP1 ISZERO PUSH2 0x10 JUMPI PUSH1 0x0 DUP1 REVERT JUMPDEST POP PUSH2 0x890 DUP1 PUSH2 0x20 PUSH1 0x0 CODECOPY PUSH1 0x0 RETURN INVALID PUSH1 0x80 PUSH1 0x40 MSTORE CALLVALUE DUP1 ISZERO PUSH2 0x10 JUMPI PUSH1 0x0 DUP1 REVERT JUMPDEST POP PUSH1 0x4 CALLDATASIZE LT PUSH2 0x36 JUMPI PUSH1 0x0 CALLDATALOAD PUSH1 0xE0 SHR DUP1 PUSH4 0x9837AE1A EQ PUSH2 0x3B JUMPI DUP1 PUSH4 0xB43C5D33 EQ PUSH2 0x6B JUMPI JUMPDEST PUSH1 0x0 DUP1 REVERT JUMPDEST PUSH2 0x55 PUSH1 0x4 DUP1 CALLDATASIZE SUB DUP2 ADD SWAP1 PUSH2 0x50 SWAP2 SWAP1 PUSH2 0x34D JUMP JUMPDEST PUSH2 0x9C JUMP JUMPDEST PUSH1 0x40 MLOAD PUSH2 0x62 SWAP2 SWAP1 PUSH2 0x3E7 JUMP JUMPDEST PUSH1 0x40 MLOAD DUP1 SWAP2 SUB SWAP1 RETURN JUMPDEST PUSH2 0x85 PUSH1 0x4 DUP1 CALLDATASIZE SUB DUP2 ADD SWAP1 PUSH2 0x80 SWAP2 SWAP1 PUSH2 0x460 JUMP JUMPDEST PUSH2 0x1DC JUMP JUMPDEST PUSH1 0x40 MLOAD PUSH2 0x93 SWAP3 SWAP2 SWAP1 PUSH2 0x51D JUMP JUMPDEST PUSH1 0x40 MLOAD DUP1 SWAP2 SUB SWAP1 RETURN JUMPDEST PUSH1 0x0 PUSH1 0x40 MLOAD DUP1 PUSH1 0x40 ADD PUSH1 0x40 MSTORE DUP1 PUSH1 0x7B DUP2 MSTORE PUSH1 0x20 ADD PUSH1 0x40 MLOAD DUP1 PUSH1 0x40 ADD PUSH1 0x40 MSTORE DUP1 PUSH1 0x3 DUP2 MSTORE PUSH1 0x20 ADD PUSH32 0x6261720000000000000000000000000000000000000000000000000000000000 DUP2 MSTORE POP DUP2 MSTORE POP PUSH1 0x0 DUP1 CALLER PUSH20 0xFFFFFFFFFFFFFFFFFFFFFFFFFFFFFFFFFFFFFFFF AND PUSH20 0xFFFFFFFFFFFFFFFFFFFFFFFFFFFFFFFFFFFFFFFF AND DUP2 MSTORE PUSH1 0x20 ADD SWAP1 DUP2 MSTORE PUSH1 0x20 ADD PUSH1 0x0 KECCAK256 PUSH1 0x0 DUP3 ADD MLOAD DUP2 PUSH1 0x0 ADD SSTORE PUSH1 0x20 DUP3 ADD MLOAD DUP2 PUSH1 0x1 ADD SWAP1 DUP2 PUSH2 0x146 SWAP2 SWAP1 PUSH2 0x788 JUMP JUMPDEST POP SWAP1 POP POP PUSH1 0x0 DUP1 PUSH1 0x0 CALLER PUSH20 0xFFFFFFFFFFFFFFFFFFFFFFFFFFFFFFFFFFFFFFFF AND PUSH20 0xFFFFFFFFFFFFFFFFFFFFFFFFFFFFFFFFFFFFFFFF AND DUP2 MSTORE PUSH1 0x20 ADD SWAP1 DUP2 MSTORE PUSH1 0x20 ADD PUSH1 0x0 KECCAK256 SWAP1 POP PUSH1 0x40 MLOAD DUP1 PUSH1 0x40 ADD PUSH1 0x40 MSTORE DUP1 PUSH1 0x3 DUP2 MSTORE PUSH1 0x20 ADD PUSH32 0x666F6F0000000000000000000000000000000000000000000000000000000000 DUP2 MSTORE POP DUP2 PUSH1 0x1 ADD SWAP1 DUP2 PUSH2 0x1D2 SWAP2 SWAP1 PUSH2 0x788 JUMP JUMPDEST POP POP SWAP5 SWAP4 POP POP POP POP JUMP JUMPDEST PUSH1 0x0 PUSH1 0x20 MSTORE DUP1 PUSH1 0x0 MSTORE PUSH1 0x40 PUSH1 0x0 KECCAK256 PUSH1 0x0 SWAP2 POP SWAP1 POP DUP1 PUSH1 0x0 ADD SLOAD SWAP1 DUP1 PUSH1 0x1 ADD DUP1 SLOAD PUSH2 0x205 SWAP1 PUSH2 0x5AB JUMP JUMPDEST DUP1 PUSH1 0x1F ADD PUSH1 0x20 DUP1 SWAP2 DIV MUL PUSH1 0x20 ADD PUSH1 0x40 MLOAD SWAP1 DUP2 ADD PUSH1 0x40 MSTORE DUP1 SWAP3 SWAP2 SWAP1 DUP2 DUP2 MSTORE PUSH1 0x20 ADD DUP3 DUP1 SLOAD PUSH2 0x231 SWAP1 PUSH2 0x5AB JUMP JUMPDEST DUP1 ISZERO PUSH2 0x27E JUMPI DUP1 PUSH1 0x1F LT PUSH2 0x253 JUMPI PUSH2 0x100 DUP1 DUP4 SLOAD DIV MUL DUP4 MSTORE SWAP2 PUSH1 0x20 ADD SWAP2 PUSH2 0x27E JUMP JUMPDEST DUP3 ADD SWAP2 SWAP1 PUSH1 0x0 MSTORE PUSH1 0x20 PUSH1 0x0 KECCAK256 SWAP1 JUMPDEST DUP2 SLOAD DUP2 MSTORE SWAP1 PUSH1 0x1 ADD SWAP1 PUSH1 0x20 ADD DUP1 DUP4 GT PUSH2 0x261 JUMPI DUP3 SWAP1 SUB PUSH1 0x1F AND DUP3 ADD SWAP2 JUMPDEST POP POP POP POP POP SWAP1 POP DUP3 JUMP JUMPDEST PUSH1 0x0 DUP1 REVERT JUMPDEST PUSH1 0x0 DUP1 REVERT JUMPDEST PUSH1 0x0 DUP1 REVERT JUMPDEST PUSH1 0x0 DUP1 REVERT JUMPDEST PUSH1 0x0 DUP1 REVERT JUMPDEST PUSH1 0x0 DUP1 DUP4 PUSH1 0x1F DUP5 ADD SLT PUSH2 0x2B7 JUMPI PUSH2 0x2B6 PUSH2 0x292 JUMP JUMPDEST JUMPDEST DUP3 CALLDATALOAD SWAP1 POP PUSH8 0xFFFFFFFFFFFFFFFF DUP2 GT ISZERO PUSH2 0x2D4 JUMPI PUSH2 0x2D3 PUSH2 0x297 JUMP JUMPDEST JUMPDEST PUSH1 0x20 DUP4 ADD SWAP2 POP DUP4 PUSH1 0x20 DUP3 MUL DUP4 ADD GT ISZERO PUSH2 0x2F0 JUMPI PUSH2 0x2EF PUSH2 0x29C JUMP JUMPDEST JUMPDEST SWAP3 POP SWAP3 SWAP1 POP JUMP JUMPDEST PUSH1 0x0 DUP1 DUP4 PUSH1 0x1F DUP5 ADD SLT PUSH2 0x30D JUMPI PUSH2 0x30C PUSH2 0x292 JUMP JUMPDEST JUMPDEST DUP3 CALLDATALOAD SWAP1 POP PUSH8 0xFFFFFFFFFFFFFFFF DUP2 GT ISZERO PUSH2 0x32A JUMPI PUSH2 0x329 PUSH2 0x297 JUMP JUMPDEST JUMPDEST PUSH1 0x20 DUP4 ADD SWAP2 POP DUP4 PUSH1 0x1 DUP3 MUL DUP4 ADD GT ISZERO PUSH2 0x346 JUMPI PUSH2 0x345 PUSH2 0x29C JUMP JUMPDEST JUMPDEST SWAP3 POP SWAP3 SWAP1 POP JUMP JUMPDEST PUSH1 0x0 DUP1 PUSH1 0x0 DUP1 PUSH1 0x40 DUP6 DUP8 SUB SLT ISZERO PUSH2 0x367 JUMPI PUSH2 0x366 PUSH2 0x288 JUMP JUMPDEST JUMPDEST PUSH1 0x0 DUP6 ADD CALLDATALOAD PUSH8 0xFFFFFFFFFFFFFFFF DUP2 GT ISZERO PUSH2 0x385 JUMPI PUSH2 0x384 PUSH2 0x28D JUMP JUMPDEST JUMPDEST PUSH2 0x391 DUP8 DUP3 DUP9 ADD PUSH2 0x2A1 JUMP JUMPDEST SWAP5 POP SWAP5 POP POP PUSH1 0x20 DUP6 ADD CALLDATALOAD PUSH8 0xFFFFFFFFFFFFFFFF DUP2 GT ISZERO PUSH2 0x3B4 JUMPI PUSH2 0x3B3 PUSH2 0x28D JUMP JUMPDEST JUMPDEST PUSH2 0x3C0 DUP8 DUP3 DUP9 ADD PUSH2 0x2F7 JUMP JUMPDEST SWAP3 POP SWAP3 POP POP SWAP3 SWAP6 SWAP2 SWAP5 POP SWAP3 POP JUMP JUMPDEST PUSH1 0x0 DUP2 SWAP1 POP SWAP2 SWAP1 POP JUMP JUMPDEST PUSH2 0x3E1 DUP2 PUSH2 0x3CE JUMP JUMPDEST DUP3 MSTORE POP POP JUMP JUMPDEST PUSH1 0x0 PUSH1 0x20 DUP3 ADD SWAP1 POP PUSH2 0x3FC PUSH1 0x0 DUP4 ADD DUP5 PUSH2 0x3D8 JUMP JUMPDEST SWAP3 SWAP2 POP POP JUMP JUMPDEST PUSH1 0x0 PUSH20 0xFFFFFFFFFFFFFFFFFFFFFFFFFFFFFFFFFFFFFFFF DUP3 AND SWAP1 POP SWAP2 SWAP1 POP JUMP JUMPDEST PUSH1 0x0 PUSH2 0x42D DUP3 PUSH2 0x402 JUMP JUMPDEST SWAP1 POP SWAP2 SWAP1 POP JUMP JUMPDEST PUSH2 0x43D DUP2 PUSH2 0x422 JUMP JUMPDEST DUP2 EQ PUSH2 0x448 JUMPI PUSH1 0x0 DUP1 REVERT JUMPDEST POP JUMP JUMPDEST PUSH1 0x0 DUP2 CALLDATALOAD SWAP1 POP PUSH2 0x45A DUP2 PUSH2 0x434 JUMP JUMPDEST SWAP3 SWAP2 POP POP JUMP JUMPDEST PUSH1 0x0 PUSH1 0x20 DUP3 DUP5 SUB SLT ISZERO PUSH2 0x476 JUMPI PUSH2 0x475 PUSH2 0x288 JUMP JUMPDEST JUMPDEST PUSH1 0x0 PUSH2 0x484 DUP5 DUP3 DUP6 ADD PUSH2 0x44B JUMP JUMPDEST SWAP2 POP POP SWAP3 SWAP2 POP POP JUMP JUMPDEST PUSH1 0x0 DUP2 MLOAD SWAP1 POP SWAP2 SWAP1 POP JUMP JUMPDEST PUSH1 0x0 DUP3 DUP3 MSTORE PUSH1 0x20 DUP3 ADD SWAP1 POP SWAP3 SWAP2 POP POP JUMP JUMPDEST PUSH1 0x0 JUMPDEST DUP4 DUP2 LT ISZERO PUSH2 0x4C7 JUMPI DUP1 DUP3 ADD MLOAD DUP2 DUP5 ADD MSTORE PUSH1 0x20 DUP2 ADD SWAP1 POP PUSH2 0x4AC JUMP JUMPDEST PUSH1 0x0 DUP5 DUP5 ADD MSTORE POP POP POP POP JUMP JUMPDEST PUSH1 0x0 PUSH1 0x1F NOT PUSH1 0x1F DUP4 ADD AND SWAP1 POP SWAP2 SWAP1 POP JUMP JUMPDEST PUSH1 0x0 PUSH2 0x4EF DUP3 PUSH2 0x48D JUMP JUMPDEST PUSH2 0x4F9 DUP2 DUP6 PUSH2 0x498 JUMP JUMPDEST SWAP4 POP PUSH2 0x509 DUP2 DUP6 PUSH1 0x20 DUP7 ADD PUSH2 0x4A9 JUMP JUMPDEST PUSH2 0x512 DUP2 PUSH2 0x4D3 JUMP JUMPDEST DUP5 ADD SWAP2 POP POP SWAP3 SWAP2 POP POP JUMP JUMPDEST PUSH1 0x0 PUSH1 0x40 DUP3 ADD SWAP1 POP PUSH2 0x532 PUSH1 0x0 DUP4 ADD DUP6 PUSH2 0x3D8 JUMP JUMPDEST DUP2 DUP2 SUB PUSH1 0x20 DUP4 ADD MSTORE PUSH2 0x544 DUP2 DUP5 PUSH2 0x4E4 JUMP JUMPDEST SWAP1 POP SWAP4 SWAP3 POP POP POP JUMP JUMPDEST PUSH32 0x4E487B7100000000000000000000000000000000000000000000000000000000 PUSH1 0x0 MSTORE PUSH1 0x41 PUSH1 0x4 MSTORE PUSH1 0x24 PUSH1 0x0 REVERT JUMPDEST PUSH32 0x4E487B7100000000000000000000000000000000000000000000000000000000 PUSH1 0x0 MSTORE PUSH1 0x22 PUSH1 0x4 MSTORE PUSH1 0x24 PUSH1 0x0 REVERT JUMPDEST PUSH1 0x0 PUSH1 0x2 DUP3 DIV SWAP1 POP PUSH1 0x1 DUP3 AND DUP1 PUSH2 0x5C3 JUMPI PUSH1 0x7F DUP3 AND SWAP2 POP JUMPDEST PUSH1 0x20 DUP3 LT DUP2 SUB PUSH2 0x5D6 JUMPI PUSH2 0x5D5 PUSH2 0x57C JUMP JUMPDEST JUMPDEST POP SWAP2 SWAP1 POP JUMP JUMPDEST PUSH1 0x0 DUP2 SWAP1 POP DUP2 PUSH1 0x0 MSTORE PUSH1 0x20 PUSH1 0x0 KECCAK256 SWAP1 POP SWAP2 SWAP1 POP JUMP JUMPDEST PUSH1 0x0 PUSH1 0x20 PUSH1 0x1F DUP4 ADD DIV SWAP1 POP SWAP2 SWAP1 POP JUMP JUMPDEST PUSH1 0x0 DUP3 DUP3 SHL SWAP1 POP SWAP3 SWAP2 POP POP JUMP JUMPDEST PUSH1 0x0 PUSH1 0x8 DUP4 MUL PUSH2 0x63E PUSH32 0xFFFFFFFFFFFFFFFFFFFFFFFFFFFFFFFFFFFFFFFFFFFFFFFFFFFFFFFFFFFFFFFF DUP3 PUSH2 0x601 JUMP JUMPDEST PUSH2 0x648 DUP7 DUP4 PUSH2 0x601 JUMP JUMPDEST SWAP6 POP DUP1 NOT DUP5 AND SWAP4 POP DUP1 DUP7 AND DUP5 OR SWAP3 POP POP POP SWAP4 SWAP3 POP POP POP JUMP JUMPDEST PUSH1 0x0 DUP2 SWAP1 POP SWAP2 SWAP1 POP JUMP JUMPDEST PUSH1 0x0 PUSH2 0x685 PUSH2 0x680 PUSH2 0x67B DUP5 PUSH2 0x3CE JUMP JUMPDEST PUSH2 0x660 JUMP JUMPDEST PUSH2 0x3CE JUMP JUMPDEST SWAP1 POP SWAP2 SWAP1 POP JUMP JUMPDEST PUSH1 0x0 DUP2 SWAP1 POP SWAP2 SWAP1 POP JUMP JUMPDEST PUSH2 0x69F DUP4 PUSH2 0x66A JUMP JUMPDEST PUSH2 0x6B3 PUSH2 0x6AB DUP3 PUSH2 0x68C JUMP JUMPDEST DUP5 DUP5 SLOAD PUSH2 0x60E JUMP JUMPDEST DUP3 SSTORE POP POP POP POP JUMP JUMPDEST PUSH1 0x0 SWAP1 JUMP JUMPDEST PUSH2 0x6C8 PUSH2 0x6BB JUMP JUMPDEST PUSH2 0x6D3 DUP2 DUP5 DUP5 PUSH2 0x696 JUMP JUMPDEST POP POP POP JUMP JUMPDEST JUMPDEST DUP2 DUP2 LT ISZERO PUSH2 0x6F7 JUMPI PUSH2 0x6EC PUSH1 0x0 DUP3 PUSH2 0x6C0 JUMP JUMPDEST PUSH1 0x1 DUP2 ADD SWAP1 POP PUSH2 0x6D9 JUMP JUMPDEST POP POP JUMP JUMPDEST PUSH1 0x1F DUP3 GT ISZERO PUSH2 0x73C JUMPI PUSH2 0x70D DUP2 PUSH2 0x5DC JUMP JUMPDEST PUSH2 0x716 DUP5 PUSH2 0x5F1 JUMP JUMPDEST DUP2 ADD PUSH1 0x20 DUP6 LT ISZERO PUSH2 0x725 JUMPI DUP2 SWAP1 POP JUMPDEST PUSH2 0x739 PUSH2 0x731 DUP6 PUSH2 0x5F1 JUMP JUMPDEST DUP4 ADD DUP3 PUSH2 0x6D8 JUMP JUMPDEST POP POP JUMPDEST POP POP POP JUMP JUMPDEST PUSH1 0x0 DUP3 DUP3 SHR SWAP1 POP SWAP3 SWAP2 POP POP JUMP JUMPDEST PUSH1 0x0 PUSH2 0x75F PUSH1 0x0 NOT DUP5 PUSH1 0x8 MUL PUSH2 0x741 JUMP JUMPDEST NOT DUP1 DUP4 AND SWAP2 POP POP SWAP3 SWAP2 POP POP JUMP JUMPDEST PUSH1 0x0 PUSH2 0x778 DUP4 DUP4 PUSH2 0x74E JUMP JUMPDEST SWAP2 POP DUP3 PUSH1 0x2 MUL DUP3 OR SWAP1 POP SWAP3 SWAP2 POP POP JUMP JUMPDEST PUSH2 0x791 DUP3 PUSH2 0x48D JUMP JUMPDEST PUSH8 0xFFFFFFFFFFFFFFFF DUP2 GT ISZERO PUSH2 0x7AA JUMPI PUSH2 0x7A9 PUSH2 0x54D JUMP JUMPDEST JUMPDEST PUSH2 0x7B4 DUP3 SLOAD PUSH2 0x5AB JUMP JUMPDEST PUSH2 0x7BF DUP3 DUP3 DUP6 PUSH2 0x6FB JUMP JUMPDEST PUSH1 0x0 PUSH1 0x20 SWAP1 POP PUSH1 0x1F DUP4 GT PUSH1 0x1 DUP2 EQ PUSH2 0x7F2 JUMPI PUSH1 0x0 DUP5 ISZERO PUSH2 0x7E0 JUMPI DUP3 DUP8 ADD MLOAD SWAP1 POP JUMPDEST PUSH2 0x7EA DUP6 DUP3 PUSH2 0x76C JUMP JUMPDEST DUP7 SSTORE POP PUSH2 0x852 JUMP JUMPDEST PUSH1 0x1F NOT DUP5 AND PUSH2 0x800 DUP7 PUSH2 0x5DC JUMP JUMPDEST PUSH1 0x0 JUMPDEST DUP3 DUP2 LT ISZERO PUSH2 0x828 JUMPI DUP5 DUP10 ADD MLOAD DUP3 SSTORE PUSH1 0x1 DUP3 ADD SWAP2 POP PUSH1 0x20 DUP6 ADD SWAP5 POP PUSH1 0x20 DUP2 ADD SWAP1 POP PUSH2 0x803 JUMP JUMPDEST DUP7 DUP4 LT ISZERO PUSH2 0x845 JUMPI DUP5 DUP10 ADD MLOAD PUSH2 0x841 PUSH1 0x1F DUP10 AND DUP3 PUSH2 0x74E JUMP JUMPDEST DUP4 SSTORE POP JUMPDEST PUSH1 0x1 PUSH1 0x2 DUP9 MUL ADD DUP9 SSTORE POP POP POP JUMPDEST POP POP POP POP POP POP JUMP INVALID LOG2 PUSH5 0x6970667358 0x22 SLT KECCAK256 AND RETURN PUSH10 0xAD7B311F432B2F2674C7 0xA7 0x1F JUMPDEST 0xAB 0xF6 AND 0xC3 0x4E PUSH30 0x4F1096CF78B35D37CBEA64736F6C63430008110033000000000000000000 "
				},
				"gasEstimates": {
					"creation": {
						"codeDepositCost": "438400",
						"executionCost": "474",
						"totalCost": "438874"
					},
					"external": {
						"example(uint256[],string)": "infinite",
						"myStructs(address)": "infinite"
					}
				},
				"methodIdentifiers": {
					"example(uint256[],string)": "9837ae1a",
					"myStructs(address)": "b43c5d33"
				}
			},
			"storageLayout": {
				"storage": [
					{
						"astId": 11,
						"contract": "DataLocations.sol:DataLocations",
						"label": "myStructs",
						"offset": 0,
						"slot": "0",
						"type": "t_mapping(t_address,t_struct(MyStruct)6_storage)"
					}
				],
				"types": {
					"t_address": {
						"encoding": "inplace",
						"label": "address",
						"numberOfBytes": "20"
					},
					"t_mapping(t_address,t_struct(MyStruct)6_storage)": {
						"encoding": "mapping",
						"key": "t_address",
						"label": "mapping(address => struct DataLocations.MyStruct)",
						"numberOfBytes": "32",
						"value": "t_struct(MyStruct)6_storage"
					},
					"t_string_storage": {
						"encoding": "bytes",
						"label": "string",
						"numberOfBytes": "32"
					},
					"t_struct(MyStruct)6_storage": {
						"encoding": "inplace",
						"label": "struct DataLocations.MyStruct",
						"members": [
							{
								"astId": 3,
								"contract": "DataLocations.sol:DataLocations",
								"label": "foo",
								"offset": 0,
								"slot": "0",
								"type": "t_uint256"
							},
							{
								"astId": 5,
								"contract": "DataLocations.sol:DataLocations",
								"label": "text",
								"offset": 0,
								"slot": "1",
								"type": "t_string_storage"
							}
						],
						"numberOfBytes": "64"
					},
					"t_uint256": {
						"encoding": "inplace",
						"label": "uint256",
						"numberOfBytes": "32"
					}
				}
			},
			"userdoc": {
				"kind": "user",
				"methods": {},
				"version": 1
			}
		}
	}
}