{
	"TimeLock.sol": {
		"TimeLock": {
			"abi": [
				{
					"inputs": [],
					"stateMutability": "nonpayable",
					"type": "constructor"
				},
				{
					"inputs": [
						{
							"internalType": "bytes32",
							"name": "",
							"type": "bytes32"
						}
					],
					"name": "AlreadyQueuedError",
					"type": "error"
				},
				{
					"inputs": [],
					"name": "NotOwnerError",
					"type": "error"
				},
				{
					"inputs": [
						{
							"internalType": "bytes32",
							"name": "txId",
							"type": "bytes32"
						}
					],
					"name": "NotQueuedError",
					"type": "error"
				},
				{
					"inputs": [
						{
							"internalType": "uint256",
							"name": "blockTimestamp",
							"type": "uint256"
						},
						{
							"internalType": "uint256",
							"name": "expiresAt",
							"type": "uint256"
						}
					],
					"name": "TimestampExpiredError",
					"type": "error"
				},
				{
					"inputs": [
						{
							"internalType": "uint256",
							"name": "blockTimestamp",
							"type": "uint256"
						},
						{
							"internalType": "uint256",
							"name": "timestamp",
							"type": "uint256"
						}
					],
					"name": "TimestampNotInRangeError",
					"type": "error"
				},
				{
					"inputs": [
						{
							"internalType": "uint256",
							"name": "blockTimestamp",
							"type": "uint256"
						},
						{
							"internalType": "uint256",
							"name": "timestamp",
							"type": "uint256"
						}
					],
					"name": "TimestampNotPassedError",
					"type": "error"
				},
				{
					"inputs": [],
					"name": "TxFailedError",
					"type": "error"
				},
				{
					"anonymous": false,
					"inputs": [
						{
							"indexed": false,
							"internalType": "bytes32",
							"name": "_txId",
							"type": "bytes32"
						},
						{
							"indexed": false,
							"internalType": "address",
							"name": "_target",
							"type": "address"
						},
						{
							"indexed": false,
							"internalType": "uint256",
							"name": "_value",
							"type": "uint256"
						},
						{
							"indexed": false,
							"internalType": "string",
							"name": "_func",
							"type": "string"
						},
						{
							"indexed": false,
							"internalType": "bytes",
							"name": "_data",
							"type": "bytes"
						},
						{
							"indexed": false,
							"internalType": "uint256",
							"name": "_timestamp",
							"type": "uint256"
						}
					],
					"name": "Execute",
					"type": "event"
				},
				{
					"anonymous": false,
					"inputs": [
						{
							"indexed": false,
							"internalType": "address",
							"name": "_target",
							"type": "address"
						},
						{
							"indexed": false,
							"internalType": "uint256",
							"name": "_value",
							"type": "uint256"
						},
						{
							"indexed": false,
							"internalType": "string",
							"name": "_func",
							"type": "string"
						},
						{
							"indexed": false,
							"internalType": "bytes",
							"name": "_data",
							"type": "bytes"
						},
						{
							"indexed": false,
							"internalType": "uint256",
							"name": "_timestamp",
							"type": "uint256"
						}
					],
					"name": "Queue",
					"type": "event"
				},
				{
					"inputs": [],
					"name": "GRACE_PERIOD",
					"outputs": [
						{
							"internalType": "uint256",
							"name": "",
							"type": "uint256"
						}
					],
					"stateMutability": "view",
					"type": "function"
				},
				{
					"inputs": [],
					"name": "MAX_DELAY",
					"outputs": [
						{
							"internalType": "uint256",
							"name": "",
							"type": "uint256"
						}
					],
					"stateMutability": "view",
					"type": "function"
				},
				{
					"inputs": [],
					"name": "MIN_DELAY",
					"outputs": [
						{
							"internalType": "uint256",
							"name": "",
							"type": "uint256"
						}
					],
					"stateMutability": "view",
					"type": "function"
				},
				{
					"inputs": [
						{
							"internalType": "bytes32",
							"name": "_txId",
							"type": "bytes32"
						}
					],
					"name": "cancel",
					"outputs": [],
					"stateMutability": "nonpayable",
					"type": "function"
				},
				{
					"inputs": [
						{
							"internalType": "address",
							"name": "_target",
							"type": "address"
						},
						{
							"internalType": "uint256",
							"name": "_value",
							"type": "uint256"
						},
						{
							"internalType": "string",
							"name": "_func",
							"type": "string"
						},
						{
							"internalType": "bytes",
							"name": "_data",
							"type": "bytes"
						},
						{
							"internalType": "uint256",
							"name": "_timestamp",
							"type": "uint256"
						}
					],
					"name": "execute",
					"outputs": [
						{
							"internalType": "bytes",
							"name": "",
							"type": "bytes"
						}
					],
					"stateMutability": "payable",
					"type": "function"
				},
				{
					"inputs": [
						{
							"internalType": "address",
							"name": "_target",
							"type": "address"
						},
						{
							"internalType": "uint256",
							"name": "_value",
							"type": "uint256"
						},
						{
							"internalType": "string",
							"name": "_func",
							"type": "string"
						},
						{
							"internalType": "bytes",
							"name": "_data",
							"type": "bytes"
						},
						{
							"internalType": "uint256",
							"name": "_timestamp",
							"type": "uint256"
						}
					],
					"name": "getTxId",
					"outputs": [
						{
							"internalType": "bytes32",
							"name": "txId",
							"type": "bytes32"
						}
					],
					"stateMutability": "pure",
					"type": "function"
				},
				{
					"inputs": [],
					"name": "owner",
					"outputs": [
						{
							"internalType": "address",
							"name": "",
							"type": "address"
						}
					],
					"stateMutability": "view",
					"type": "function"
				},
				{
					"inputs": [
						{
							"internalType": "address",
							"name": "_target",
							"type": "address"
						},
						{
							"internalType": "uint256",
							"name": "_value",
							"type": "uint256"
						},
						{
							"internalType": "string",
							"name": "_func",
							"type": "string"
						},
						{
							"internalType": "bytes",
							"name": "_data",
							"type": "bytes"
						},
						{
							"internalType": "uint256",
							"name": "_timestamp",
							"type": "uint256"
						}
					],
					"name": "queue",
					"outputs": [],
					"stateMutability": "nonpayable",
					"type": "function"
				},
				{
					"inputs": [
						{
							"internalType": "bytes32",
							"name": "",
							"type": "bytes32"
						}
					],
					"name": "queued",
					"outputs": [
						{
							"internalType": "bool",
							"name": "",
							"type": "bool"
						}
					],
					"stateMutability": "view",
					"type": "function"
				}
			],
			"devdoc": {
				"kind": "dev",
				"methods": {},
				"version": 1
			},
			"evm": {
				"assembly": "    /* \"TimeLock.sol\":61:3429  contract TimeLock {... */\n  mstore(0x40, 0x80)\n    /* \"TimeLock.sol\":971:1022  constructor() {... */\n  callvalue\n  dup1\n  iszero\n  tag_1\n  jumpi\n  0x00\n  dup1\n  revert\ntag_1:\n  pop\n    /* \"TimeLock.sol\":1004:1014  msg.sender */\n  caller\n    /* \"TimeLock.sol\":996:1001  owner */\n  0x00\n  dup1\n    /* \"TimeLock.sol\":996:1014  owner = msg.sender */\n  0x0100\n  exp\n  dup2\n  sload\n  dup2\n  0xffffffffffffffffffffffffffffffffffffffff\n  mul\n  not\n  and\n  swap1\n  dup4\n  0xffffffffffffffffffffffffffffffffffffffff\n  and\n  mul\n  or\n  swap1\n  sstore\n  pop\n    /* \"TimeLock.sol\":61:3429  contract TimeLock {... */\n  dataSize(sub_0)\n  dup1\n  dataOffset(sub_0)\n  0x00\n  codecopy\n  0x00\n  return\nstop\n\nsub_0: assembly {\n        /* \"TimeLock.sol\":61:3429  contract TimeLock {... */\n      mstore(0x40, 0x80)\n      jumpi(tag_1, lt(calldatasize, 0x04))\n      shr(0xe0, calldataload(0x00))\n      dup1\n      0x8da5cb5b\n      gt\n      tag_11\n      jumpi\n      dup1\n      0x8da5cb5b\n      eq\n      tag_6\n      jumpi\n      dup1\n      0x9f81aed7\n      eq\n      tag_7\n      jumpi\n      dup1\n      0xb0f8b142\n      eq\n      tag_8\n      jumpi\n      dup1\n      0xc1a287e2\n      eq\n      tag_9\n      jumpi\n      dup1\n      0xc4d252f5\n      eq\n      tag_10\n      jumpi\n      jump(tag_1)\n    tag_11:\n      dup1\n      0x228250c9\n      eq\n      tag_2\n      jumpi\n      dup1\n      0x4125ff90\n      eq\n      tag_3\n      jumpi\n      dup1\n      0x4b9915a5\n      eq\n      tag_4\n      jumpi\n      dup1\n      0x8a1ce0b6\n      eq\n      tag_5\n      jumpi\n    tag_1:\n      0x00\n      dup1\n      revert\n        /* \"TimeLock.sol\":923:962  mapping (bytes32 => bool) public queued */\n    tag_2:\n      callvalue\n      dup1\n      iszero\n      tag_12\n      jumpi\n      0x00\n      dup1\n      revert\n    tag_12:\n      pop\n      tag_13\n      0x04\n      dup1\n      calldatasize\n      sub\n      dup2\n      add\n      swap1\n      tag_14\n      swap2\n      swap1\n      tag_15\n      jump\t// in\n    tag_14:\n      tag_16\n      jump\t// in\n    tag_13:\n      mload(0x40)\n      tag_17\n      swap2\n      swap1\n      tag_18\n      jump\t// in\n    tag_17:\n      mload(0x40)\n      dup1\n      swap2\n      sub\n      swap1\n      return\n        /* \"TimeLock.sol\":803:840  uint public constant MAX_DELAY = 1000 */\n    tag_3:\n      callvalue\n      dup1\n      iszero\n      tag_19\n      jumpi\n      0x00\n      dup1\n      revert\n    tag_19:\n      pop\n      tag_20\n      tag_21\n      jump\t// in\n    tag_20:\n      mload(0x40)\n      tag_22\n      swap2\n      swap1\n      tag_23\n      jump\t// in\n    tag_22:\n      mload(0x40)\n      dup1\n      swap2\n      sub\n      swap1\n      return\n        /* \"TimeLock.sol\":1461:2116  function queue(... */\n    tag_4:\n      callvalue\n      dup1\n      iszero\n      tag_24\n      jumpi\n      0x00\n      dup1\n      revert\n    tag_24:\n      pop\n      tag_25\n      0x04\n      dup1\n      calldatasize\n      sub\n      dup2\n      add\n      swap1\n      tag_26\n      swap2\n      swap1\n      tag_27\n      jump\t// in\n    tag_26:\n      tag_28\n      jump\t// in\n    tag_25:\n      stop\n        /* \"TimeLock.sol\":1163:1453  function getTxId(address _target, uint _value, string calldata _func, bytes calldata _data, uint _timestamp) public pure returns (bytes32 txId) {... */\n    tag_5:\n      callvalue\n      dup1\n      iszero\n      tag_29\n      jumpi\n      0x00\n      dup1\n      revert\n    tag_29:\n      pop\n      tag_30\n      0x04\n      dup1\n      calldatasize\n      sub\n      dup2\n      add\n      swap1\n      tag_31\n      swap2\n      swap1\n      tag_27\n      jump\t// in\n    tag_31:\n      tag_32\n      jump\t// in\n    tag_30:\n      mload(0x40)\n      tag_33\n      swap2\n      swap1\n      tag_34\n      jump\t// in\n    tag_33:\n      mload(0x40)\n      dup1\n      swap2\n      sub\n      swap1\n      return\n        /* \"TimeLock.sol\":896:916  address public owner */\n    tag_6:\n      callvalue\n      dup1\n      iszero\n      tag_35\n      jumpi\n      0x00\n      dup1\n      revert\n    tag_35:\n      pop\n      tag_36\n      tag_37\n      jump\t// in\n    tag_36:\n      mload(0x40)\n      tag_38\n      swap2\n      swap1\n      tag_39\n      jump\t// in\n    tag_38:\n      mload(0x40)\n      dup1\n      swap2\n      sub\n      swap1\n      return\n        /* \"TimeLock.sol\":761:796  uint public constant MIN_DELAY = 10 */\n    tag_7:\n      callvalue\n      dup1\n      iszero\n      tag_40\n      jumpi\n      0x00\n      dup1\n      revert\n    tag_40:\n      pop\n      tag_41\n      tag_42\n      jump\t// in\n    tag_41:\n      mload(0x40)\n      tag_43\n      swap2\n      swap1\n      tag_23\n      jump\t// in\n    tag_43:\n      mload(0x40)\n      dup1\n      swap2\n      sub\n      swap1\n      return\n        /* \"TimeLock.sol\":2122:3265  function execute(... */\n    tag_8:\n      tag_44\n      0x04\n      dup1\n      calldatasize\n      sub\n      dup2\n      add\n      swap1\n      tag_45\n      swap2\n      swap1\n      tag_27\n      jump\t// in\n    tag_45:\n      tag_46\n      jump\t// in\n    tag_44:\n      mload(0x40)\n      tag_47\n      swap2\n      swap1\n      tag_48\n      jump\t// in\n    tag_47:\n      mload(0x40)\n      dup1\n      swap2\n      sub\n      swap1\n      return\n        /* \"TimeLock.sol\":847:887  uint public constant GRACE_PERIOD = 1000 */\n    tag_9:\n      callvalue\n      dup1\n      iszero\n      tag_49\n      jumpi\n      0x00\n      dup1\n      revert\n    tag_49:\n      pop\n      tag_50\n      tag_51\n      jump\t// in\n    tag_50:\n      mload(0x40)\n      tag_52\n      swap2\n      swap1\n      tag_23\n      jump\t// in\n    tag_52:\n      mload(0x40)\n      dup1\n      swap2\n      sub\n      swap1\n      return\n        /* \"TimeLock.sol\":3273:3426  function cancel(bytes32 _txId) external onlyOwner {... */\n    tag_10:\n      callvalue\n      dup1\n      iszero\n      tag_53\n      jumpi\n      0x00\n      dup1\n      revert\n    tag_53:\n      pop\n      tag_54\n      0x04\n      dup1\n      calldatasize\n      sub\n      dup2\n      add\n      swap1\n      tag_55\n      swap2\n      swap1\n      tag_15\n      jump\t// in\n    tag_55:\n      tag_56\n      jump\t// in\n    tag_54:\n      stop\n        /* \"TimeLock.sol\":923:962  mapping (bytes32 => bool) public queued */\n    tag_16:\n      mstore(0x20, 0x01)\n      dup1\n      0x00\n      mstore\n      keccak256(0x00, 0x40)\n      0x00\n      swap2\n      pop\n      sload\n      swap1\n      0x0100\n      exp\n      swap1\n      div\n      0xff\n      and\n      dup2\n      jump\t// out\n        /* \"TimeLock.sol\":803:840  uint public constant MAX_DELAY = 1000 */\n    tag_21:\n        /* \"TimeLock.sol\":836:840  1000 */\n      0x03e8\n        /* \"TimeLock.sol\":803:840  uint public constant MAX_DELAY = 1000 */\n      dup2\n      jump\t// out\n        /* \"TimeLock.sol\":1461:2116  function queue(... */\n    tag_28:\n        /* \"TimeLock.sol\":1080:1085  owner */\n      0x00\n      dup1\n      sload\n      swap1\n      0x0100\n      exp\n      swap1\n      div\n      0xffffffffffffffffffffffffffffffffffffffff\n      and\n        /* \"TimeLock.sol\":1066:1085  msg.sender != owner */\n      0xffffffffffffffffffffffffffffffffffffffff\n      and\n        /* \"TimeLock.sol\":1066:1076  msg.sender */\n      caller\n        /* \"TimeLock.sol\":1066:1085  msg.sender != owner */\n      0xffffffffffffffffffffffffffffffffffffffff\n      and\n      eq\n        /* \"TimeLock.sol\":1062:1136  if (msg.sender != owner) {... */\n      tag_58\n      jumpi\n        /* \"TimeLock.sol\":1109:1124  NotOwnerError() */\n      mload(0x40)\n      0x74a2152700000000000000000000000000000000000000000000000000000000\n      dup2\n      mstore\n      0x04\n      add\n      mload(0x40)\n      dup1\n      swap2\n      sub\n      swap1\n      revert\n        /* \"TimeLock.sol\":1062:1136  if (msg.sender != owner) {... */\n    tag_58:\n        /* \"TimeLock.sol\":1649:1661  bytes32 txId */\n      0x00\n        /* \"TimeLock.sol\":1664:1714  getTxId(_target, _value, _func, _data, _timestamp) */\n      tag_60\n        /* \"TimeLock.sol\":1672:1679  _target */\n      dup9\n        /* \"TimeLock.sol\":1681:1687  _value */\n      dup9\n        /* \"TimeLock.sol\":1689:1694  _func */\n      dup9\n      dup9\n        /* \"TimeLock.sol\":1696:1701  _data */\n      dup9\n      dup9\n        /* \"TimeLock.sol\":1703:1713  _timestamp */\n      dup9\n        /* \"TimeLock.sol\":1664:1671  getTxId */\n      tag_32\n        /* \"TimeLock.sol\":1664:1714  getTxId(_target, _value, _func, _data, _timestamp) */\n      jump\t// in\n    tag_60:\n        /* \"TimeLock.sol\":1649:1714  bytes32 txId = getTxId(_target, _value, _func, _data, _timestamp) */\n      swap1\n      pop\n        /* \"TimeLock.sol\":1729:1735  queued */\n      0x01\n        /* \"TimeLock.sol\":1729:1741  queued[txId] */\n      0x00\n        /* \"TimeLock.sol\":1736:1740  txId */\n      dup3\n        /* \"TimeLock.sol\":1729:1741  queued[txId] */\n      dup2\n      mstore\n      0x20\n      add\n      swap1\n      dup2\n      mstore\n      0x20\n      add\n      0x00\n      keccak256\n      0x00\n      swap1\n      sload\n      swap1\n      0x0100\n      exp\n      swap1\n      div\n      0xff\n      and\n        /* \"TimeLock.sol\":1725:1801  if (queued[txId]) {... */\n      iszero\n      tag_61\n      jumpi\n        /* \"TimeLock.sol\":1784:1788  txId */\n      dup1\n        /* \"TimeLock.sol\":1765:1789  AlreadyQueuedError(txId) */\n      mload(0x40)\n      0x995042be00000000000000000000000000000000000000000000000000000000\n      dup2\n      mstore\n      0x04\n      add\n      tag_62\n      swap2\n      swap1\n      tag_34\n      jump\t// in\n    tag_62:\n      mload(0x40)\n      dup1\n      swap2\n      sub\n      swap1\n      revert\n        /* \"TimeLock.sol\":1725:1801  if (queued[txId]) {... */\n    tag_61:\n        /* \"TimeLock.sol\":794:796  10 */\n      0x0a\n        /* \"TimeLock.sol\":1828:1843  block.timestamp */\n      timestamp\n        /* \"TimeLock.sol\":1828:1855  block.timestamp + MIN_DELAY */\n      tag_63\n      swap2\n      swap1\n      tag_64\n      jump\t// in\n    tag_63:\n        /* \"TimeLock.sol\":1815:1825  _timestamp */\n      dup3\n        /* \"TimeLock.sol\":1815:1855  _timestamp < block.timestamp + MIN_DELAY */\n      lt\n        /* \"TimeLock.sol\":1815:1912  _timestamp < block.timestamp + MIN_DELAY ||... */\n      dup1\n      tag_65\n      jumpi\n      pop\n        /* \"TimeLock.sol\":836:840  1000 */\n      0x03e8\n        /* \"TimeLock.sol\":1885:1900  block.timestamp */\n      timestamp\n        /* \"TimeLock.sol\":1885:1912  block.timestamp + MAX_DELAY */\n      tag_66\n      swap2\n      swap1\n      tag_64\n      jump\t// in\n    tag_66:\n        /* \"TimeLock.sol\":1872:1882  _timestamp */\n      dup3\n        /* \"TimeLock.sol\":1872:1912  _timestamp > block.timestamp + MAX_DELAY */\n      gt\n        /* \"TimeLock.sol\":1815:1912  _timestamp < block.timestamp + MIN_DELAY ||... */\n    tag_65:\n        /* \"TimeLock.sol\":1811:2011  if (_timestamp < block.timestamp + MIN_DELAY ||... */\n      iszero\n      tag_67\n      jumpi\n        /* \"TimeLock.sol\":1971:1986  block.timestamp */\n      timestamp\n        /* \"TimeLock.sol\":1988:1998  _timestamp */\n      dup3\n        /* \"TimeLock.sol\":1946:1999  TimestampNotInRangeError(block.timestamp, _timestamp) */\n      mload(0x40)\n      0x1a9616c200000000000000000000000000000000000000000000000000000000\n      dup2\n      mstore\n      0x04\n      add\n      tag_68\n      swap3\n      swap2\n      swap1\n      tag_69\n      jump\t// in\n    tag_68:\n      mload(0x40)\n      dup1\n      swap2\n      sub\n      swap1\n      revert\n        /* \"TimeLock.sol\":1811:2011  if (_timestamp < block.timestamp + MIN_DELAY ||... */\n    tag_67:\n        /* \"TimeLock.sol\":2038:2042  true */\n      0x01\n        /* \"TimeLock.sol\":2023:2029  queued */\n      dup1\n        /* \"TimeLock.sol\":2023:2035  queued[txId] */\n      0x00\n        /* \"TimeLock.sol\":2030:2034  txId */\n      dup4\n        /* \"TimeLock.sol\":2023:2035  queued[txId] */\n      dup2\n      mstore\n      0x20\n      add\n      swap1\n      dup2\n      mstore\n      0x20\n      add\n      0x00\n      keccak256\n      0x00\n        /* \"TimeLock.sol\":2023:2042  queued[txId] = true */\n      0x0100\n      exp\n      dup2\n      sload\n      dup2\n      0xff\n      mul\n      not\n      and\n      swap1\n      dup4\n      iszero\n      iszero\n      mul\n      or\n      swap1\n      sstore\n      pop\n        /* \"TimeLock.sol\":2060:2108  Queue(_target, _value, _func, _data, _timestamp) */\n      0x1be0a5a53718dba1a6179a0fd8bc0a5c332a89f9a2d8d58a23fc6f0f15ab3caf\n        /* \"TimeLock.sol\":2066:2073  _target */\n      dup9\n        /* \"TimeLock.sol\":2075:2081  _value */\n      dup9\n        /* \"TimeLock.sol\":2083:2088  _func */\n      dup9\n      dup9\n        /* \"TimeLock.sol\":2090:2095  _data */\n      dup9\n      dup9\n        /* \"TimeLock.sol\":2097:2107  _timestamp */\n      dup9\n        /* \"TimeLock.sol\":2060:2108  Queue(_target, _value, _func, _data, _timestamp) */\n      mload(0x40)\n      tag_70\n      swap8\n      swap7\n      swap6\n      swap5\n      swap4\n      swap3\n      swap2\n      swap1\n      tag_71\n      jump\t// in\n    tag_70:\n      mload(0x40)\n      dup1\n      swap2\n      sub\n      swap1\n      log1\n        /* \"TimeLock.sol\":1638:2116  {... */\n      pop\n        /* \"TimeLock.sol\":1461:2116  function queue(... */\n      pop\n      pop\n      pop\n      pop\n      pop\n      pop\n      pop\n      jump\t// out\n        /* \"TimeLock.sol\":1163:1453  function getTxId(address _target, uint _value, string calldata _func, bytes calldata _data, uint _timestamp) public pure returns (bytes32 txId) {... */\n    tag_32:\n        /* \"TimeLock.sol\":1293:1305  bytes32 txId */\n      0x00\n        /* \"TimeLock.sol\":1378:1385  _target */\n      dup8\n        /* \"TimeLock.sol\":1387:1393  _value */\n      dup8\n        /* \"TimeLock.sol\":1395:1400  _func */\n      dup8\n      dup8\n        /* \"TimeLock.sol\":1402:1407  _data */\n      dup8\n      dup8\n        /* \"TimeLock.sol\":1409:1419  _timestamp */\n      dup8\n        /* \"TimeLock.sol\":1349:1434  abi.encode(... */\n      add(0x20, mload(0x40))\n      tag_73\n      swap8\n      swap7\n      swap6\n      swap5\n      swap4\n      swap3\n      swap2\n      swap1\n      tag_71\n      jump\t// in\n    tag_73:\n      mload(0x40)\n      0x20\n      dup2\n      dup4\n      sub\n      sub\n      dup2\n      mstore\n      swap1\n      0x40\n      mstore\n        /* \"TimeLock.sol\":1325:1445  keccak256(... */\n      dup1\n      mload\n      swap1\n      0x20\n      add\n      keccak256\n        /* \"TimeLock.sol\":1318:1445  return keccak256(... */\n      swap1\n      pop\n        /* \"TimeLock.sol\":1163:1453  function getTxId(address _target, uint _value, string calldata _func, bytes calldata _data, uint _timestamp) public pure returns (bytes32 txId) {... */\n      swap8\n      swap7\n      pop\n      pop\n      pop\n      pop\n      pop\n      pop\n      pop\n      jump\t// out\n        /* \"TimeLock.sol\":896:916  address public owner */\n    tag_37:\n      0x00\n      dup1\n      sload\n      swap1\n      0x0100\n      exp\n      swap1\n      div\n      0xffffffffffffffffffffffffffffffffffffffff\n      and\n      dup2\n      jump\t// out\n        /* \"TimeLock.sol\":761:796  uint public constant MIN_DELAY = 10 */\n    tag_42:\n        /* \"TimeLock.sol\":794:796  10 */\n      0x0a\n        /* \"TimeLock.sol\":761:796  uint public constant MIN_DELAY = 10 */\n      dup2\n      jump\t// out\n        /* \"TimeLock.sol\":2122:3265  function execute(... */\n    tag_46:\n        /* \"TimeLock.sol\":2319:2331  bytes memory */\n      0x60\n        /* \"TimeLock.sol\":1080:1085  owner */\n      0x00\n      dup1\n      sload\n      swap1\n      0x0100\n      exp\n      swap1\n      div\n      0xffffffffffffffffffffffffffffffffffffffff\n      and\n        /* \"TimeLock.sol\":1066:1085  msg.sender != owner */\n      0xffffffffffffffffffffffffffffffffffffffff\n      and\n        /* \"TimeLock.sol\":1066:1076  msg.sender */\n      caller\n        /* \"TimeLock.sol\":1066:1085  msg.sender != owner */\n      0xffffffffffffffffffffffffffffffffffffffff\n      and\n      eq\n        /* \"TimeLock.sol\":1062:1136  if (msg.sender != owner) {... */\n      tag_75\n      jumpi\n        /* \"TimeLock.sol\":1109:1124  NotOwnerError() */\n      mload(0x40)\n      0x74a2152700000000000000000000000000000000000000000000000000000000\n      dup2\n      mstore\n      0x04\n      add\n      mload(0x40)\n      dup1\n      swap2\n      sub\n      swap1\n      revert\n        /* \"TimeLock.sol\":1062:1136  if (msg.sender != owner) {... */\n    tag_75:\n        /* \"TimeLock.sol\":2343:2355  bytes32 txId */\n      0x00\n        /* \"TimeLock.sol\":2358:2408  getTxId(_target, _value, _func, _data, _timestamp) */\n      tag_77\n        /* \"TimeLock.sol\":2366:2373  _target */\n      dup10\n        /* \"TimeLock.sol\":2375:2381  _value */\n      dup10\n        /* \"TimeLock.sol\":2383:2388  _func */\n      dup10\n      dup10\n        /* \"TimeLock.sol\":2390:2395  _data */\n      dup10\n      dup10\n        /* \"TimeLock.sol\":2397:2407  _timestamp */\n      dup10\n        /* \"TimeLock.sol\":2358:2365  getTxId */\n      tag_32\n        /* \"TimeLock.sol\":2358:2408  getTxId(_target, _value, _func, _data, _timestamp) */\n      jump\t// in\n    tag_77:\n        /* \"TimeLock.sol\":2343:2408  bytes32 txId = getTxId(_target, _value, _func, _data, _timestamp) */\n      swap1\n      pop\n        /* \"TimeLock.sol\":2424:2430  queued */\n      0x01\n        /* \"TimeLock.sol\":2424:2436  queued[txId] */\n      0x00\n        /* \"TimeLock.sol\":2431:2435  txId */\n      dup3\n        /* \"TimeLock.sol\":2424:2436  queued[txId] */\n      dup2\n      mstore\n      0x20\n      add\n      swap1\n      dup2\n      mstore\n      0x20\n      add\n      0x00\n      keccak256\n      0x00\n      swap1\n      sload\n      swap1\n      0x0100\n      exp\n      swap1\n      div\n      0xff\n      and\n        /* \"TimeLock.sol\":2419:2492  if (!queued[txId]) {... */\n      tag_78\n      jumpi\n        /* \"TimeLock.sol\":2475:2479  txId */\n      dup1\n        /* \"TimeLock.sol\":2460:2480  NotQueuedError(txId) */\n      mload(0x40)\n      0x0995c9d500000000000000000000000000000000000000000000000000000000\n      dup2\n      mstore\n      0x04\n      add\n      tag_79\n      swap2\n      swap1\n      tag_34\n      jump\t// in\n    tag_79:\n      mload(0x40)\n      dup1\n      swap2\n      sub\n      swap1\n      revert\n        /* \"TimeLock.sol\":2419:2492  if (!queued[txId]) {... */\n    tag_78:\n        /* \"TimeLock.sol\":2524:2534  _timestamp */\n      dup3\n        /* \"TimeLock.sol\":2506:2521  block.timestamp */\n      timestamp\n        /* \"TimeLock.sol\":2506:2534  block.timestamp < _timestamp */\n      lt\n        /* \"TimeLock.sol\":2502:2622  if (block.timestamp < _timestamp) {... */\n      iszero\n      tag_80\n      jumpi\n        /* \"TimeLock.sol\":2582:2597  block.timestamp */\n      timestamp\n        /* \"TimeLock.sol\":2599:2609  _timestamp */\n      dup4\n        /* \"TimeLock.sol\":2558:2610  TimestampNotPassedError(block.timestamp, _timestamp) */\n      mload(0x40)\n      0x035fce5b00000000000000000000000000000000000000000000000000000000\n      dup2\n      mstore\n      0x04\n      add\n      tag_81\n      swap3\n      swap2\n      swap1\n      tag_69\n      jump\t// in\n    tag_81:\n      mload(0x40)\n      dup1\n      swap2\n      sub\n      swap1\n      revert\n        /* \"TimeLock.sol\":2502:2622  if (block.timestamp < _timestamp) {... */\n    tag_80:\n        /* \"TimeLock.sol\":883:887  1000 */\n      0x03e8\n        /* \"TimeLock.sol\":2654:2664  _timestamp */\n      dup4\n        /* \"TimeLock.sol\":2654:2679  _timestamp + GRACE_PERIOD */\n      tag_82\n      swap2\n      swap1\n      tag_64\n      jump\t// in\n    tag_82:\n        /* \"TimeLock.sol\":2636:2651  block.timestamp */\n      timestamp\n        /* \"TimeLock.sol\":2636:2679  block.timestamp > _timestamp + GRACE_PERIOD */\n      gt\n        /* \"TimeLock.sol\":2632:2780  if (block.timestamp > _timestamp + GRACE_PERIOD) {... */\n      iszero\n      tag_83\n      jumpi\n        /* \"TimeLock.sol\":2725:2740  block.timestamp */\n      timestamp\n        /* \"TimeLock.sol\":883:887  1000 */\n      0x03e8\n        /* \"TimeLock.sol\":2742:2752  _timestamp */\n      dup5\n        /* \"TimeLock.sol\":2742:2767  _timestamp + GRACE_PERIOD */\n      tag_84\n      swap2\n      swap1\n      tag_64\n      jump\t// in\n    tag_84:\n        /* \"TimeLock.sol\":2703:2768  TimestampExpiredError(block.timestamp, _timestamp + GRACE_PERIOD) */\n      mload(0x40)\n      0x92ae26d100000000000000000000000000000000000000000000000000000000\n      dup2\n      mstore\n      0x04\n      add\n      tag_85\n      swap3\n      swap2\n      swap1\n      tag_69\n      jump\t// in\n    tag_85:\n      mload(0x40)\n      dup1\n      swap2\n      sub\n      swap1\n      revert\n        /* \"TimeLock.sol\":2632:2780  if (block.timestamp > _timestamp + GRACE_PERIOD) {... */\n    tag_83:\n        /* \"TimeLock.sol\":2807:2812  false */\n      0x00\n        /* \"TimeLock.sol\":2792:2798  queued */\n      0x01\n        /* \"TimeLock.sol\":2792:2804  queued[txId] */\n      0x00\n        /* \"TimeLock.sol\":2799:2803  txId */\n      dup4\n        /* \"TimeLock.sol\":2792:2804  queued[txId] */\n      dup2\n      mstore\n      0x20\n      add\n      swap1\n      dup2\n      mstore\n      0x20\n      add\n      0x00\n      keccak256\n      0x00\n        /* \"TimeLock.sol\":2792:2812  queued[txId] = false */\n      0x0100\n      exp\n      dup2\n      sload\n      dup2\n      0xff\n      mul\n      not\n      and\n      swap1\n      dup4\n      iszero\n      iszero\n      mul\n      or\n      swap1\n      sstore\n      pop\n        /* \"TimeLock.sol\":2825:2842  bytes memory data */\n      0x60\n        /* \"TimeLock.sol\":2879:2880  0 */\n      0x00\n        /* \"TimeLock.sol\":2863:2868  _func */\n      dup9\n      dup9\n        /* \"TimeLock.sol\":2857:2876  bytes(_func).length */\n      swap1\n      pop\n        /* \"TimeLock.sol\":2857:2880  bytes(_func).length > 0 */\n      gt\n        /* \"TimeLock.sol\":2853:3017  if (bytes(_func).length > 0) {... */\n      iszero\n      tag_86\n      jumpi\n        /* \"TimeLock.sol\":2944:2949  _func */\n      dup8\n      dup8\n        /* \"TimeLock.sol\":2928:2951  keccak256(bytes(_func)) */\n      mload(0x40)\n      tag_87\n      swap3\n      swap2\n      swap1\n      tag_88\n      jump\t// in\n    tag_87:\n      mload(0x40)\n      dup1\n      swap2\n      sub\n      swap1\n      keccak256\n        /* \"TimeLock.sol\":2954:2959  _data */\n      dup7\n      dup7\n        /* \"TimeLock.sol\":2904:2960  abi.encodePacked(bytes4(keccak256(bytes(_func))), _data) */\n      add(0x20, mload(0x40))\n      tag_89\n      swap4\n      swap3\n      swap2\n      swap1\n      tag_90\n      jump\t// in\n    tag_89:\n      mload(0x40)\n      0x20\n      dup2\n      dup4\n      sub\n      sub\n      dup2\n      mstore\n      swap1\n      0x40\n      mstore\n        /* \"TimeLock.sol\":2897:2960  data = abi.encodePacked(bytes4(keccak256(bytes(_func))), _data) */\n      swap1\n      pop\n        /* \"TimeLock.sol\":2853:3017  if (bytes(_func).length > 0) {... */\n      jump(tag_91)\n    tag_86:\n        /* \"TimeLock.sol\":3000:3005  _data */\n      dup6\n      dup6\n        /* \"TimeLock.sol\":2993:3005  data = _data */\n      dup1\n      dup1\n      0x1f\n      add\n      0x20\n      dup1\n      swap2\n      div\n      mul\n      0x20\n      add\n      mload(0x40)\n      swap1\n      dup2\n      add\n      0x40\n      mstore\n      dup1\n      swap4\n      swap3\n      swap2\n      swap1\n      dup2\n      dup2\n      mstore\n      0x20\n      add\n      dup4\n      dup4\n      dup1\n      dup3\n      dup5\n      calldatacopy\n      0x00\n      dup2\n      dup5\n      add\n      mstore\n      not(0x1f)\n      0x1f\n      dup3\n      add\n      and\n      swap1\n      pop\n      dup1\n      dup4\n      add\n      swap3\n      pop\n      pop\n      pop\n      pop\n      pop\n      pop\n      pop\n      swap1\n      pop\n        /* \"TimeLock.sol\":2853:3017  if (bytes(_func).length > 0) {... */\n    tag_91:\n        /* \"TimeLock.sol\":3030:3037  bool ok */\n      0x00\n        /* \"TimeLock.sol\":3039:3055  bytes memory res */\n      dup1\n        /* \"TimeLock.sol\":3059:3066  _target */\n      dup12\n        /* \"TimeLock.sol\":3059:3071  _target.call */\n      0xffffffffffffffffffffffffffffffffffffffff\n      and\n        /* \"TimeLock.sol\":3079:3085  _value */\n      dup12\n        /* \"TimeLock.sol\":3087:3091  data */\n      dup5\n        /* \"TimeLock.sol\":3059:3092  _target.call{value: _value}(data) */\n      mload(0x40)\n      tag_92\n      swap2\n      swap1\n      tag_93\n      jump\t// in\n    tag_92:\n      0x00\n      mload(0x40)\n      dup1\n      dup4\n      sub\n      dup2\n      dup6\n      dup8\n      gas\n      call\n      swap3\n      pop\n      pop\n      pop\n      returndatasize\n      dup1\n      0x00\n      dup2\n      eq\n      tag_96\n      jumpi\n      mload(0x40)\n      swap2\n      pop\n      and(add(returndatasize, 0x3f), not(0x1f))\n      dup3\n      add\n      0x40\n      mstore\n      returndatasize\n      dup3\n      mstore\n      returndatasize\n      0x00\n      0x20\n      dup5\n      add\n      returndatacopy\n      jump(tag_95)\n    tag_96:\n      0x60\n      swap2\n      pop\n    tag_95:\n      pop\n        /* \"TimeLock.sol\":3029:3092  (bool ok, bytes memory res) = _target.call{value: _value}(data) */\n      swap2\n      pop\n      swap2\n      pop\n        /* \"TimeLock.sol\":3108:3110  ok */\n      dup2\n        /* \"TimeLock.sol\":3103:3161  if (!ok) {... */\n      tag_97\n      jumpi\n        /* \"TimeLock.sol\":3134:3149  TxFailedError() */\n      mload(0x40)\n      0xd9b4f81e00000000000000000000000000000000000000000000000000000000\n      dup2\n      mstore\n      0x04\n      add\n      mload(0x40)\n      dup1\n      swap2\n      sub\n      swap1\n      revert\n        /* \"TimeLock.sol\":3103:3161  if (!ok) {... */\n    tag_97:\n        /* \"TimeLock.sol\":3178:3234  Execute(txId, _target, _value, _func, _data, _timestamp) */\n      0xd1d5c3c892c18716bd88852091d1b63dc6849e9d7c37f69d566884bf954d4bd9\n        /* \"TimeLock.sol\":3186:3190  txId */\n      dup5\n        /* \"TimeLock.sol\":3192:3199  _target */\n      dup14\n        /* \"TimeLock.sol\":3201:3207  _value */\n      dup14\n        /* \"TimeLock.sol\":3209:3214  _func */\n      dup14\n      dup14\n        /* \"TimeLock.sol\":3216:3221  _data */\n      dup14\n      dup14\n        /* \"TimeLock.sol\":3223:3233  _timestamp */\n      dup14\n        /* \"TimeLock.sol\":3178:3234  Execute(txId, _target, _value, _func, _data, _timestamp) */\n      mload(0x40)\n      tag_98\n      swap9\n      swap8\n      swap7\n      swap6\n      swap5\n      swap4\n      swap3\n      swap2\n      swap1\n      tag_99\n      jump\t// in\n    tag_98:\n      mload(0x40)\n      dup1\n      swap2\n      sub\n      swap1\n      log1\n        /* \"TimeLock.sol\":3254:3257  res */\n      dup1\n        /* \"TimeLock.sol\":3247:3257  return res */\n      swap5\n      pop\n      pop\n      pop\n      pop\n      pop\n        /* \"TimeLock.sol\":2122:3265  function execute(... */\n      swap8\n      swap7\n      pop\n      pop\n      pop\n      pop\n      pop\n      pop\n      pop\n      jump\t// out\n        /* \"TimeLock.sol\":847:887  uint public constant GRACE_PERIOD = 1000 */\n    tag_51:\n        /* \"TimeLock.sol\":883:887  1000 */\n      0x03e8\n        /* \"TimeLock.sol\":847:887  uint public constant GRACE_PERIOD = 1000 */\n      dup2\n      jump\t// out\n        /* \"TimeLock.sol\":3273:3426  function cancel(bytes32 _txId) external onlyOwner {... */\n    tag_56:\n        /* \"TimeLock.sol\":1080:1085  owner */\n      0x00\n      dup1\n      sload\n      swap1\n      0x0100\n      exp\n      swap1\n      div\n      0xffffffffffffffffffffffffffffffffffffffff\n      and\n        /* \"TimeLock.sol\":1066:1085  msg.sender != owner */\n      0xffffffffffffffffffffffffffffffffffffffff\n      and\n        /* \"TimeLock.sol\":1066:1076  msg.sender */\n      caller\n        /* \"TimeLock.sol\":1066:1085  msg.sender != owner */\n      0xffffffffffffffffffffffffffffffffffffffff\n      and\n      eq\n        /* \"TimeLock.sol\":1062:1136  if (msg.sender != owner) {... */\n      tag_101\n      jumpi\n        /* \"TimeLock.sol\":1109:1124  NotOwnerError() */\n      mload(0x40)\n      0x74a2152700000000000000000000000000000000000000000000000000000000\n      dup2\n      mstore\n      0x04\n      add\n      mload(0x40)\n      dup1\n      swap2\n      sub\n      swap1\n      revert\n        /* \"TimeLock.sol\":1062:1136  if (msg.sender != owner) {... */\n    tag_101:\n        /* \"TimeLock.sol\":3339:3345  queued */\n      0x01\n        /* \"TimeLock.sol\":3339:3352  queued[_txId] */\n      0x00\n        /* \"TimeLock.sol\":3346:3351  _txId */\n      dup3\n        /* \"TimeLock.sol\":3339:3352  queued[_txId] */\n      dup2\n      mstore\n      0x20\n      add\n      swap1\n      dup2\n      mstore\n      0x20\n      add\n      0x00\n      keccak256\n      0x00\n      swap1\n      sload\n      swap1\n      0x0100\n      exp\n      swap1\n      div\n      0xff\n      and\n        /* \"TimeLock.sol\":3334:3409  if (!queued[_txId]) {... */\n      tag_103\n      jumpi\n        /* \"TimeLock.sol\":3391:3396  _txId */\n      dup1\n        /* \"TimeLock.sol\":3376:3397  NotQueuedError(_txId) */\n      mload(0x40)\n      0x0995c9d500000000000000000000000000000000000000000000000000000000\n      dup2\n      mstore\n      0x04\n      add\n      tag_104\n      swap2\n      swap1\n      tag_34\n      jump\t// in\n    tag_104:\n      mload(0x40)\n      dup1\n      swap2\n      sub\n      swap1\n      revert\n        /* \"TimeLock.sol\":3334:3409  if (!queued[_txId]) {... */\n    tag_103:\n        /* \"TimeLock.sol\":3273:3426  function cancel(bytes32 _txId) external onlyOwner {... */\n      pop\n      jump\t// out\n        /* \"#utility.yul\":88:205   */\n    tag_106:\n        /* \"#utility.yul\":197:198   */\n      0x00\n        /* \"#utility.yul\":194:195   */\n      dup1\n        /* \"#utility.yul\":187:199   */\n      revert\n        /* \"#utility.yul\":211:328   */\n    tag_107:\n        /* \"#utility.yul\":320:321   */\n      0x00\n        /* \"#utility.yul\":317:318   */\n      dup1\n        /* \"#utility.yul\":310:322   */\n      revert\n        /* \"#utility.yul\":334:411   */\n    tag_108:\n        /* \"#utility.yul\":371:378   */\n      0x00\n        /* \"#utility.yul\":400:405   */\n      dup2\n        /* \"#utility.yul\":389:405   */\n      swap1\n      pop\n        /* \"#utility.yul\":334:411   */\n      swap2\n      swap1\n      pop\n      jump\t// out\n        /* \"#utility.yul\":417:539   */\n    tag_109:\n        /* \"#utility.yul\":490:514   */\n      tag_150\n        /* \"#utility.yul\":508:513   */\n      dup2\n        /* \"#utility.yul\":490:514   */\n      tag_108\n      jump\t// in\n    tag_150:\n        /* \"#utility.yul\":483:488   */\n      dup2\n        /* \"#utility.yul\":480:515   */\n      eq\n        /* \"#utility.yul\":470:533   */\n      tag_151\n      jumpi\n        /* \"#utility.yul\":529:530   */\n      0x00\n        /* \"#utility.yul\":526:527   */\n      dup1\n        /* \"#utility.yul\":519:531   */\n      revert\n        /* \"#utility.yul\":470:533   */\n    tag_151:\n        /* \"#utility.yul\":417:539   */\n      pop\n      jump\t// out\n        /* \"#utility.yul\":545:684   */\n    tag_110:\n        /* \"#utility.yul\":591:596   */\n      0x00\n        /* \"#utility.yul\":629:635   */\n      dup2\n        /* \"#utility.yul\":616:636   */\n      calldataload\n        /* \"#utility.yul\":607:636   */\n      swap1\n      pop\n        /* \"#utility.yul\":645:678   */\n      tag_153\n        /* \"#utility.yul\":672:677   */\n      dup2\n        /* \"#utility.yul\":645:678   */\n      tag_109\n      jump\t// in\n    tag_153:\n        /* \"#utility.yul\":545:684   */\n      swap3\n      swap2\n      pop\n      pop\n      jump\t// out\n        /* \"#utility.yul\":690:1019   */\n    tag_15:\n        /* \"#utility.yul\":749:755   */\n      0x00\n        /* \"#utility.yul\":798:800   */\n      0x20\n        /* \"#utility.yul\":786:795   */\n      dup3\n        /* \"#utility.yul\":777:784   */\n      dup5\n        /* \"#utility.yul\":773:796   */\n      sub\n        /* \"#utility.yul\":769:801   */\n      slt\n        /* \"#utility.yul\":766:885   */\n      iszero\n      tag_155\n      jumpi\n        /* \"#utility.yul\":804:883   */\n      tag_156\n      tag_106\n      jump\t// in\n    tag_156:\n        /* \"#utility.yul\":766:885   */\n    tag_155:\n        /* \"#utility.yul\":924:925   */\n      0x00\n        /* \"#utility.yul\":949:1002   */\n      tag_157\n        /* \"#utility.yul\":994:1001   */\n      dup5\n        /* \"#utility.yul\":985:991   */\n      dup3\n        /* \"#utility.yul\":974:983   */\n      dup6\n        /* \"#utility.yul\":970:992   */\n      add\n        /* \"#utility.yul\":949:1002   */\n      tag_110\n      jump\t// in\n    tag_157:\n        /* \"#utility.yul\":939:1002   */\n      swap2\n      pop\n        /* \"#utility.yul\":895:1012   */\n      pop\n        /* \"#utility.yul\":690:1019   */\n      swap3\n      swap2\n      pop\n      pop\n      jump\t// out\n        /* \"#utility.yul\":1025:1115   */\n    tag_111:\n        /* \"#utility.yul\":1059:1066   */\n      0x00\n        /* \"#utility.yul\":1102:1107   */\n      dup2\n        /* \"#utility.yul\":1095:1108   */\n      iszero\n        /* \"#utility.yul\":1088:1109   */\n      iszero\n        /* \"#utility.yul\":1077:1109   */\n      swap1\n      pop\n        /* \"#utility.yul\":1025:1115   */\n      swap2\n      swap1\n      pop\n      jump\t// out\n        /* \"#utility.yul\":1121:1230   */\n    tag_112:\n        /* \"#utility.yul\":1202:1223   */\n      tag_160\n        /* \"#utility.yul\":1217:1222   */\n      dup2\n        /* \"#utility.yul\":1202:1223   */\n      tag_111\n      jump\t// in\n    tag_160:\n        /* \"#utility.yul\":1197:1200   */\n      dup3\n        /* \"#utility.yul\":1190:1224   */\n      mstore\n        /* \"#utility.yul\":1121:1230   */\n      pop\n      pop\n      jump\t// out\n        /* \"#utility.yul\":1236:1446   */\n    tag_18:\n        /* \"#utility.yul\":1323:1327   */\n      0x00\n        /* \"#utility.yul\":1361:1363   */\n      0x20\n        /* \"#utility.yul\":1350:1359   */\n      dup3\n        /* \"#utility.yul\":1346:1364   */\n      add\n        /* \"#utility.yul\":1338:1364   */\n      swap1\n      pop\n        /* \"#utility.yul\":1374:1439   */\n      tag_162\n        /* \"#utility.yul\":1436:1437   */\n      0x00\n        /* \"#utility.yul\":1425:1434   */\n      dup4\n        /* \"#utility.yul\":1421:1438   */\n      add\n        /* \"#utility.yul\":1412:1418   */\n      dup5\n        /* \"#utility.yul\":1374:1439   */\n      tag_112\n      jump\t// in\n    tag_162:\n        /* \"#utility.yul\":1236:1446   */\n      swap3\n      swap2\n      pop\n      pop\n      jump\t// out\n        /* \"#utility.yul\":1452:1529   */\n    tag_113:\n        /* \"#utility.yul\":1489:1496   */\n      0x00\n        /* \"#utility.yul\":1518:1523   */\n      dup2\n        /* \"#utility.yul\":1507:1523   */\n      swap1\n      pop\n        /* \"#utility.yul\":1452:1529   */\n      swap2\n      swap1\n      pop\n      jump\t// out\n        /* \"#utility.yul\":1535:1653   */\n    tag_114:\n        /* \"#utility.yul\":1622:1646   */\n      tag_165\n        /* \"#utility.yul\":1640:1645   */\n      dup2\n        /* \"#utility.yul\":1622:1646   */\n      tag_113\n      jump\t// in\n    tag_165:\n        /* \"#utility.yul\":1617:1620   */\n      dup3\n        /* \"#utility.yul\":1610:1647   */\n      mstore\n        /* \"#utility.yul\":1535:1653   */\n      pop\n      pop\n      jump\t// out\n        /* \"#utility.yul\":1659:1881   */\n    tag_23:\n        /* \"#utility.yul\":1752:1756   */\n      0x00\n        /* \"#utility.yul\":1790:1792   */\n      0x20\n        /* \"#utility.yul\":1779:1788   */\n      dup3\n        /* \"#utility.yul\":1775:1793   */\n      add\n        /* \"#utility.yul\":1767:1793   */\n      swap1\n      pop\n        /* \"#utility.yul\":1803:1874   */\n      tag_167\n        /* \"#utility.yul\":1871:1872   */\n      0x00\n        /* \"#utility.yul\":1860:1869   */\n      dup4\n        /* \"#utility.yul\":1856:1873   */\n      add\n        /* \"#utility.yul\":1847:1853   */\n      dup5\n        /* \"#utility.yul\":1803:1874   */\n      tag_114\n      jump\t// in\n    tag_167:\n        /* \"#utility.yul\":1659:1881   */\n      swap3\n      swap2\n      pop\n      pop\n      jump\t// out\n        /* \"#utility.yul\":1887:2013   */\n    tag_115:\n        /* \"#utility.yul\":1924:1931   */\n      0x00\n        /* \"#utility.yul\":1964:2006   */\n      0xffffffffffffffffffffffffffffffffffffffff\n        /* \"#utility.yul\":1957:1962   */\n      dup3\n        /* \"#utility.yul\":1953:2007   */\n      and\n        /* \"#utility.yul\":1942:2007   */\n      swap1\n      pop\n        /* \"#utility.yul\":1887:2013   */\n      swap2\n      swap1\n      pop\n      jump\t// out\n        /* \"#utility.yul\":2019:2115   */\n    tag_116:\n        /* \"#utility.yul\":2056:2063   */\n      0x00\n        /* \"#utility.yul\":2085:2109   */\n      tag_170\n        /* \"#utility.yul\":2103:2108   */\n      dup3\n        /* \"#utility.yul\":2085:2109   */\n      tag_115\n      jump\t// in\n    tag_170:\n        /* \"#utility.yul\":2074:2109   */\n      swap1\n      pop\n        /* \"#utility.yul\":2019:2115   */\n      swap2\n      swap1\n      pop\n      jump\t// out\n        /* \"#utility.yul\":2121:2243   */\n    tag_117:\n        /* \"#utility.yul\":2194:2218   */\n      tag_172\n        /* \"#utility.yul\":2212:2217   */\n      dup2\n        /* \"#utility.yul\":2194:2218   */\n      tag_116\n      jump\t// in\n    tag_172:\n        /* \"#utility.yul\":2187:2192   */\n      dup2\n        /* \"#utility.yul\":2184:2219   */\n      eq\n        /* \"#utility.yul\":2174:2237   */\n      tag_173\n      jumpi\n        /* \"#utility.yul\":2233:2234   */\n      0x00\n        /* \"#utility.yul\":2230:2231   */\n      dup1\n        /* \"#utility.yul\":2223:2235   */\n      revert\n        /* \"#utility.yul\":2174:2237   */\n    tag_173:\n        /* \"#utility.yul\":2121:2243   */\n      pop\n      jump\t// out\n        /* \"#utility.yul\":2249:2388   */\n    tag_118:\n        /* \"#utility.yul\":2295:2300   */\n      0x00\n        /* \"#utility.yul\":2333:2339   */\n      dup2\n        /* \"#utility.yul\":2320:2340   */\n      calldataload\n        /* \"#utility.yul\":2311:2340   */\n      swap1\n      pop\n        /* \"#utility.yul\":2349:2382   */\n      tag_175\n        /* \"#utility.yul\":2376:2381   */\n      dup2\n        /* \"#utility.yul\":2349:2382   */\n      tag_117\n      jump\t// in\n    tag_175:\n        /* \"#utility.yul\":2249:2388   */\n      swap3\n      swap2\n      pop\n      pop\n      jump\t// out\n        /* \"#utility.yul\":2394:2516   */\n    tag_119:\n        /* \"#utility.yul\":2467:2491   */\n      tag_177\n        /* \"#utility.yul\":2485:2490   */\n      dup2\n        /* \"#utility.yul\":2467:2491   */\n      tag_113\n      jump\t// in\n    tag_177:\n        /* \"#utility.yul\":2460:2465   */\n      dup2\n        /* \"#utility.yul\":2457:2492   */\n      eq\n        /* \"#utility.yul\":2447:2510   */\n      tag_178\n      jumpi\n        /* \"#utility.yul\":2506:2507   */\n      0x00\n        /* \"#utility.yul\":2503:2504   */\n      dup1\n        /* \"#utility.yul\":2496:2508   */\n      revert\n        /* \"#utility.yul\":2447:2510   */\n    tag_178:\n        /* \"#utility.yul\":2394:2516   */\n      pop\n      jump\t// out\n        /* \"#utility.yul\":2522:2661   */\n    tag_120:\n        /* \"#utility.yul\":2568:2573   */\n      0x00\n        /* \"#utility.yul\":2606:2612   */\n      dup2\n        /* \"#utility.yul\":2593:2613   */\n      calldataload\n        /* \"#utility.yul\":2584:2613   */\n      swap1\n      pop\n        /* \"#utility.yul\":2622:2655   */\n      tag_180\n        /* \"#utility.yul\":2649:2654   */\n      dup2\n        /* \"#utility.yul\":2622:2655   */\n      tag_119\n      jump\t// in\n    tag_180:\n        /* \"#utility.yul\":2522:2661   */\n      swap3\n      swap2\n      pop\n      pop\n      jump\t// out\n        /* \"#utility.yul\":2667:2784   */\n    tag_121:\n        /* \"#utility.yul\":2776:2777   */\n      0x00\n        /* \"#utility.yul\":2773:2774   */\n      dup1\n        /* \"#utility.yul\":2766:2778   */\n      revert\n        /* \"#utility.yul\":2790:2907   */\n    tag_122:\n        /* \"#utility.yul\":2899:2900   */\n      0x00\n        /* \"#utility.yul\":2896:2897   */\n      dup1\n        /* \"#utility.yul\":2889:2901   */\n      revert\n        /* \"#utility.yul\":2913:3030   */\n    tag_123:\n        /* \"#utility.yul\":3022:3023   */\n      0x00\n        /* \"#utility.yul\":3019:3020   */\n      dup1\n        /* \"#utility.yul\":3012:3024   */\n      revert\n        /* \"#utility.yul\":3050:3603   */\n    tag_124:\n        /* \"#utility.yul\":3108:3116   */\n      0x00\n        /* \"#utility.yul\":3118:3124   */\n      dup1\n        /* \"#utility.yul\":3168:3171   */\n      dup4\n        /* \"#utility.yul\":3161:3165   */\n      0x1f\n        /* \"#utility.yul\":3153:3159   */\n      dup5\n        /* \"#utility.yul\":3149:3166   */\n      add\n        /* \"#utility.yul\":3145:3172   */\n      slt\n        /* \"#utility.yul\":3135:3257   */\n      tag_185\n      jumpi\n        /* \"#utility.yul\":3176:3255   */\n      tag_186\n      tag_121\n      jump\t// in\n    tag_186:\n        /* \"#utility.yul\":3135:3257   */\n    tag_185:\n        /* \"#utility.yul\":3289:3295   */\n      dup3\n        /* \"#utility.yul\":3276:3296   */\n      calldataload\n        /* \"#utility.yul\":3266:3296   */\n      swap1\n      pop\n        /* \"#utility.yul\":3319:3337   */\n      0xffffffffffffffff\n        /* \"#utility.yul\":3311:3317   */\n      dup2\n        /* \"#utility.yul\":3308:3338   */\n      gt\n        /* \"#utility.yul\":3305:3422   */\n      iszero\n      tag_187\n      jumpi\n        /* \"#utility.yul\":3341:3420   */\n      tag_188\n      tag_122\n      jump\t// in\n    tag_188:\n        /* \"#utility.yul\":3305:3422   */\n    tag_187:\n        /* \"#utility.yul\":3455:3459   */\n      0x20\n        /* \"#utility.yul\":3447:3453   */\n      dup4\n        /* \"#utility.yul\":3443:3460   */\n      add\n        /* \"#utility.yul\":3431:3460   */\n      swap2\n      pop\n        /* \"#utility.yul\":3509:3512   */\n      dup4\n        /* \"#utility.yul\":3501:3505   */\n      0x01\n        /* \"#utility.yul\":3493:3499   */\n      dup3\n        /* \"#utility.yul\":3489:3506   */\n      mul\n        /* \"#utility.yul\":3479:3487   */\n      dup4\n        /* \"#utility.yul\":3475:3507   */\n      add\n        /* \"#utility.yul\":3472:3513   */\n      gt\n        /* \"#utility.yul\":3469:3597   */\n      iszero\n      tag_189\n      jumpi\n        /* \"#utility.yul\":3516:3595   */\n      tag_190\n      tag_123\n      jump\t// in\n    tag_190:\n        /* \"#utility.yul\":3469:3597   */\n    tag_189:\n        /* \"#utility.yul\":3050:3603   */\n      swap3\n      pop\n      swap3\n      swap1\n      pop\n      jump\t// out\n        /* \"#utility.yul\":3622:4174   */\n    tag_125:\n        /* \"#utility.yul\":3679:3687   */\n      0x00\n        /* \"#utility.yul\":3689:3695   */\n      dup1\n        /* \"#utility.yul\":3739:3742   */\n      dup4\n        /* \"#utility.yul\":3732:3736   */\n      0x1f\n        /* \"#utility.yul\":3724:3730   */\n      dup5\n        /* \"#utility.yul\":3720:3737   */\n      add\n        /* \"#utility.yul\":3716:3743   */\n      slt\n        /* \"#utility.yul\":3706:3828   */\n      tag_192\n      jumpi\n        /* \"#utility.yul\":3747:3826   */\n      tag_193\n      tag_121\n      jump\t// in\n    tag_193:\n        /* \"#utility.yul\":3706:3828   */\n    tag_192:\n        /* \"#utility.yul\":3860:3866   */\n      dup3\n        /* \"#utility.yul\":3847:3867   */\n      calldataload\n        /* \"#utility.yul\":3837:3867   */\n      swap1\n      pop\n        /* \"#utility.yul\":3890:3908   */\n      0xffffffffffffffff\n        /* \"#utility.yul\":3882:3888   */\n      dup2\n        /* \"#utility.yul\":3879:3909   */\n      gt\n        /* \"#utility.yul\":3876:3993   */\n      iszero\n      tag_194\n      jumpi\n        /* \"#utility.yul\":3912:3991   */\n      tag_195\n      tag_122\n      jump\t// in\n    tag_195:\n        /* \"#utility.yul\":3876:3993   */\n    tag_194:\n        /* \"#utility.yul\":4026:4030   */\n      0x20\n        /* \"#utility.yul\":4018:4024   */\n      dup4\n        /* \"#utility.yul\":4014:4031   */\n      add\n        /* \"#utility.yul\":4002:4031   */\n      swap2\n      pop\n        /* \"#utility.yul\":4080:4083   */\n      dup4\n        /* \"#utility.yul\":4072:4076   */\n      0x01\n        /* \"#utility.yul\":4064:4070   */\n      dup3\n        /* \"#utility.yul\":4060:4077   */\n      mul\n        /* \"#utility.yul\":4050:4058   */\n      dup4\n        /* \"#utility.yul\":4046:4078   */\n      add\n        /* \"#utility.yul\":4043:4084   */\n      gt\n        /* \"#utility.yul\":4040:4168   */\n      iszero\n      tag_196\n      jumpi\n        /* \"#utility.yul\":4087:4166   */\n      tag_197\n      tag_123\n      jump\t// in\n    tag_197:\n        /* \"#utility.yul\":4040:4168   */\n    tag_196:\n        /* \"#utility.yul\":3622:4174   */\n      swap3\n      pop\n      swap3\n      swap1\n      pop\n      jump\t// out\n        /* \"#utility.yul\":4180:5489   */\n    tag_27:\n        /* \"#utility.yul\":4298:4304   */\n      0x00\n        /* \"#utility.yul\":4306:4312   */\n      dup1\n        /* \"#utility.yul\":4314:4320   */\n      0x00\n        /* \"#utility.yul\":4322:4328   */\n      dup1\n        /* \"#utility.yul\":4330:4336   */\n      0x00\n        /* \"#utility.yul\":4338:4344   */\n      dup1\n        /* \"#utility.yul\":4346:4352   */\n      0x00\n        /* \"#utility.yul\":4395:4398   */\n      0xa0\n        /* \"#utility.yul\":4383:4392   */\n      dup9\n        /* \"#utility.yul\":4374:4381   */\n      dup11\n        /* \"#utility.yul\":4370:4393   */\n      sub\n        /* \"#utility.yul\":4366:4399   */\n      slt\n        /* \"#utility.yul\":4363:4483   */\n      iszero\n      tag_199\n      jumpi\n        /* \"#utility.yul\":4402:4481   */\n      tag_200\n      tag_106\n      jump\t// in\n    tag_200:\n        /* \"#utility.yul\":4363:4483   */\n    tag_199:\n        /* \"#utility.yul\":4522:4523   */\n      0x00\n        /* \"#utility.yul\":4547:4600   */\n      tag_201\n        /* \"#utility.yul\":4592:4599   */\n      dup11\n        /* \"#utility.yul\":4583:4589   */\n      dup3\n        /* \"#utility.yul\":4572:4581   */\n      dup12\n        /* \"#utility.yul\":4568:4590   */\n      add\n        /* \"#utility.yul\":4547:4600   */\n      tag_118\n      jump\t// in\n    tag_201:\n        /* \"#utility.yul\":4537:4600   */\n      swap8\n      pop\n        /* \"#utility.yul\":4493:4610   */\n      pop\n        /* \"#utility.yul\":4649:4651   */\n      0x20\n        /* \"#utility.yul\":4675:4728   */\n      tag_202\n        /* \"#utility.yul\":4720:4727   */\n      dup11\n        /* \"#utility.yul\":4711:4717   */\n      dup3\n        /* \"#utility.yul\":4700:4709   */\n      dup12\n        /* \"#utility.yul\":4696:4718   */\n      add\n        /* \"#utility.yul\":4675:4728   */\n      tag_120\n      jump\t// in\n    tag_202:\n        /* \"#utility.yul\":4665:4728   */\n      swap7\n      pop\n        /* \"#utility.yul\":4620:4738   */\n      pop\n        /* \"#utility.yul\":4805:4807   */\n      0x40\n        /* \"#utility.yul\":4794:4803   */\n      dup9\n        /* \"#utility.yul\":4790:4808   */\n      add\n        /* \"#utility.yul\":4777:4809   */\n      calldataload\n        /* \"#utility.yul\":4836:4854   */\n      0xffffffffffffffff\n        /* \"#utility.yul\":4828:4834   */\n      dup2\n        /* \"#utility.yul\":4825:4855   */\n      gt\n        /* \"#utility.yul\":4822:4939   */\n      iszero\n      tag_203\n      jumpi\n        /* \"#utility.yul\":4858:4937   */\n      tag_204\n      tag_107\n      jump\t// in\n    tag_204:\n        /* \"#utility.yul\":4822:4939   */\n    tag_203:\n        /* \"#utility.yul\":4971:5036   */\n      tag_205\n        /* \"#utility.yul\":5028:5035   */\n      dup11\n        /* \"#utility.yul\":5019:5025   */\n      dup3\n        /* \"#utility.yul\":5008:5017   */\n      dup12\n        /* \"#utility.yul\":5004:5026   */\n      add\n        /* \"#utility.yul\":4971:5036   */\n      tag_124\n      jump\t// in\n    tag_205:\n        /* \"#utility.yul\":4953:5036   */\n      swap6\n      pop\n      swap6\n      pop\n        /* \"#utility.yul\":4748:5046   */\n      pop\n        /* \"#utility.yul\":5113:5115   */\n      0x60\n        /* \"#utility.yul\":5102:5111   */\n      dup9\n        /* \"#utility.yul\":5098:5116   */\n      add\n        /* \"#utility.yul\":5085:5117   */\n      calldataload\n        /* \"#utility.yul\":5144:5162   */\n      0xffffffffffffffff\n        /* \"#utility.yul\":5136:5142   */\n      dup2\n        /* \"#utility.yul\":5133:5163   */\n      gt\n        /* \"#utility.yul\":5130:5247   */\n      iszero\n      tag_206\n      jumpi\n        /* \"#utility.yul\":5166:5245   */\n      tag_207\n      tag_107\n      jump\t// in\n    tag_207:\n        /* \"#utility.yul\":5130:5247   */\n    tag_206:\n        /* \"#utility.yul\":5279:5343   */\n      tag_208\n        /* \"#utility.yul\":5335:5342   */\n      dup11\n        /* \"#utility.yul\":5326:5332   */\n      dup3\n        /* \"#utility.yul\":5315:5324   */\n      dup12\n        /* \"#utility.yul\":5311:5333   */\n      add\n        /* \"#utility.yul\":5279:5343   */\n      tag_125\n      jump\t// in\n    tag_208:\n        /* \"#utility.yul\":5261:5343   */\n      swap4\n      pop\n      swap4\n      pop\n        /* \"#utility.yul\":5056:5353   */\n      pop\n        /* \"#utility.yul\":5392:5395   */\n      0x80\n        /* \"#utility.yul\":5419:5472   */\n      tag_209\n        /* \"#utility.yul\":5464:5471   */\n      dup11\n        /* \"#utility.yul\":5455:5461   */\n      dup3\n        /* \"#utility.yul\":5444:5453   */\n      dup12\n        /* \"#utility.yul\":5440:5462   */\n      add\n        /* \"#utility.yul\":5419:5472   */\n      tag_120\n      jump\t// in\n    tag_209:\n        /* \"#utility.yul\":5409:5472   */\n      swap2\n      pop\n        /* \"#utility.yul\":5363:5482   */\n      pop\n        /* \"#utility.yul\":4180:5489   */\n      swap3\n      swap6\n      swap9\n      swap2\n      swap5\n      swap8\n      pop\n      swap3\n      swap6\n      pop\n      jump\t// out\n        /* \"#utility.yul\":5495:5613   */\n    tag_126:\n        /* \"#utility.yul\":5582:5606   */\n      tag_211\n        /* \"#utility.yul\":5600:5605   */\n      dup2\n        /* \"#utility.yul\":5582:5606   */\n      tag_108\n      jump\t// in\n    tag_211:\n        /* \"#utility.yul\":5577:5580   */\n      dup3\n        /* \"#utility.yul\":5570:5607   */\n      mstore\n        /* \"#utility.yul\":5495:5613   */\n      pop\n      pop\n      jump\t// out\n        /* \"#utility.yul\":5619:5841   */\n    tag_34:\n        /* \"#utility.yul\":5712:5716   */\n      0x00\n        /* \"#utility.yul\":5750:5752   */\n      0x20\n        /* \"#utility.yul\":5739:5748   */\n      dup3\n        /* \"#utility.yul\":5735:5753   */\n      add\n        /* \"#utility.yul\":5727:5753   */\n      swap1\n      pop\n        /* \"#utility.yul\":5763:5834   */\n      tag_213\n        /* \"#utility.yul\":5831:5832   */\n      0x00\n        /* \"#utility.yul\":5820:5829   */\n      dup4\n        /* \"#utility.yul\":5816:5833   */\n      add\n        /* \"#utility.yul\":5807:5813   */\n      dup5\n        /* \"#utility.yul\":5763:5834   */\n      tag_126\n      jump\t// in\n    tag_213:\n        /* \"#utility.yul\":5619:5841   */\n      swap3\n      swap2\n      pop\n      pop\n      jump\t// out\n        /* \"#utility.yul\":5847:5965   */\n    tag_127:\n        /* \"#utility.yul\":5934:5958   */\n      tag_215\n        /* \"#utility.yul\":5952:5957   */\n      dup2\n        /* \"#utility.yul\":5934:5958   */\n      tag_116\n      jump\t// in\n    tag_215:\n        /* \"#utility.yul\":5929:5932   */\n      dup3\n        /* \"#utility.yul\":5922:5959   */\n      mstore\n        /* \"#utility.yul\":5847:5965   */\n      pop\n      pop\n      jump\t// out\n        /* \"#utility.yul\":5971:6193   */\n    tag_39:\n        /* \"#utility.yul\":6064:6068   */\n      0x00\n        /* \"#utility.yul\":6102:6104   */\n      0x20\n        /* \"#utility.yul\":6091:6100   */\n      dup3\n        /* \"#utility.yul\":6087:6105   */\n      add\n        /* \"#utility.yul\":6079:6105   */\n      swap1\n      pop\n        /* \"#utility.yul\":6115:6186   */\n      tag_217\n        /* \"#utility.yul\":6183:6184   */\n      0x00\n        /* \"#utility.yul\":6172:6181   */\n      dup4\n        /* \"#utility.yul\":6168:6185   */\n      add\n        /* \"#utility.yul\":6159:6165   */\n      dup5\n        /* \"#utility.yul\":6115:6186   */\n      tag_127\n      jump\t// in\n    tag_217:\n        /* \"#utility.yul\":5971:6193   */\n      swap3\n      swap2\n      pop\n      pop\n      jump\t// out\n        /* \"#utility.yul\":6199:6297   */\n    tag_128:\n        /* \"#utility.yul\":6250:6256   */\n      0x00\n        /* \"#utility.yul\":6284:6289   */\n      dup2\n        /* \"#utility.yul\":6278:6290   */\n      mload\n        /* \"#utility.yul\":6268:6290   */\n      swap1\n      pop\n        /* \"#utility.yul\":6199:6297   */\n      swap2\n      swap1\n      pop\n      jump\t// out\n        /* \"#utility.yul\":6303:6471   */\n    tag_129:\n        /* \"#utility.yul\":6386:6397   */\n      0x00\n        /* \"#utility.yul\":6420:6426   */\n      dup3\n        /* \"#utility.yul\":6415:6418   */\n      dup3\n        /* \"#utility.yul\":6408:6427   */\n      mstore\n        /* \"#utility.yul\":6460:6464   */\n      0x20\n        /* \"#utility.yul\":6455:6458   */\n      dup3\n        /* \"#utility.yul\":6451:6465   */\n      add\n        /* \"#utility.yul\":6436:6465   */\n      swap1\n      pop\n        /* \"#utility.yul\":6303:6471   */\n      swap3\n      swap2\n      pop\n      pop\n      jump\t// out\n        /* \"#utility.yul\":6477:6723   */\n    tag_130:\n        /* \"#utility.yul\":6558:6559   */\n      0x00\n        /* \"#utility.yul\":6568:6681   */\n    tag_221:\n        /* \"#utility.yul\":6582:6588   */\n      dup4\n        /* \"#utility.yul\":6579:6580   */\n      dup2\n        /* \"#utility.yul\":6576:6589   */\n      lt\n        /* \"#utility.yul\":6568:6681   */\n      iszero\n      tag_223\n      jumpi\n        /* \"#utility.yul\":6667:6668   */\n      dup1\n        /* \"#utility.yul\":6662:6665   */\n      dup3\n        /* \"#utility.yul\":6658:6669   */\n      add\n        /* \"#utility.yul\":6652:6670   */\n      mload\n        /* \"#utility.yul\":6648:6649   */\n      dup2\n        /* \"#utility.yul\":6643:6646   */\n      dup5\n        /* \"#utility.yul\":6639:6650   */\n      add\n        /* \"#utility.yul\":6632:6671   */\n      mstore\n        /* \"#utility.yul\":6604:6606   */\n      0x20\n        /* \"#utility.yul\":6601:6602   */\n      dup2\n        /* \"#utility.yul\":6597:6607   */\n      add\n        /* \"#utility.yul\":6592:6607   */\n      swap1\n      pop\n        /* \"#utility.yul\":6568:6681   */\n      jump(tag_221)\n    tag_223:\n        /* \"#utility.yul\":6715:6716   */\n      0x00\n        /* \"#utility.yul\":6706:6712   */\n      dup5\n        /* \"#utility.yul\":6701:6704   */\n      dup5\n        /* \"#utility.yul\":6697:6713   */\n      add\n        /* \"#utility.yul\":6690:6717   */\n      mstore\n        /* \"#utility.yul\":6539:6723   */\n      pop\n        /* \"#utility.yul\":6477:6723   */\n      pop\n      pop\n      pop\n      jump\t// out\n        /* \"#utility.yul\":6729:6831   */\n    tag_131:\n        /* \"#utility.yul\":6770:6776   */\n      0x00\n        /* \"#utility.yul\":6821:6823   */\n      0x1f\n        /* \"#utility.yul\":6817:6824   */\n      not\n        /* \"#utility.yul\":6812:6814   */\n      0x1f\n        /* \"#utility.yul\":6805:6810   */\n      dup4\n        /* \"#utility.yul\":6801:6815   */\n      add\n        /* \"#utility.yul\":6797:6825   */\n      and\n        /* \"#utility.yul\":6787:6825   */\n      swap1\n      pop\n        /* \"#utility.yul\":6729:6831   */\n      swap2\n      swap1\n      pop\n      jump\t// out\n        /* \"#utility.yul\":6837:7210   */\n    tag_132:\n        /* \"#utility.yul\":6923:6926   */\n      0x00\n        /* \"#utility.yul\":6951:6989   */\n      tag_226\n        /* \"#utility.yul\":6983:6988   */\n      dup3\n        /* \"#utility.yul\":6951:6989   */\n      tag_128\n      jump\t// in\n    tag_226:\n        /* \"#utility.yul\":7005:7075   */\n      tag_227\n        /* \"#utility.yul\":7068:7074   */\n      dup2\n        /* \"#utility.yul\":7063:7066   */\n      dup6\n        /* \"#utility.yul\":7005:7075   */\n      tag_129\n      jump\t// in\n    tag_227:\n        /* \"#utility.yul\":6998:7075   */\n      swap4\n      pop\n        /* \"#utility.yul\":7084:7149   */\n      tag_228\n        /* \"#utility.yul\":7142:7148   */\n      dup2\n        /* \"#utility.yul\":7137:7140   */\n      dup6\n        /* \"#utility.yul\":7130:7134   */\n      0x20\n        /* \"#utility.yul\":7123:7128   */\n      dup7\n        /* \"#utility.yul\":7119:7135   */\n      add\n        /* \"#utility.yul\":7084:7149   */\n      tag_130\n      jump\t// in\n    tag_228:\n        /* \"#utility.yul\":7174:7203   */\n      tag_229\n        /* \"#utility.yul\":7196:7202   */\n      dup2\n        /* \"#utility.yul\":7174:7203   */\n      tag_131\n      jump\t// in\n    tag_229:\n        /* \"#utility.yul\":7169:7172   */\n      dup5\n        /* \"#utility.yul\":7165:7204   */\n      add\n        /* \"#utility.yul\":7158:7204   */\n      swap2\n      pop\n        /* \"#utility.yul\":6927:7210   */\n      pop\n        /* \"#utility.yul\":6837:7210   */\n      swap3\n      swap2\n      pop\n      pop\n      jump\t// out\n        /* \"#utility.yul\":7216:7525   */\n    tag_48:\n        /* \"#utility.yul\":7327:7331   */\n      0x00\n        /* \"#utility.yul\":7365:7367   */\n      0x20\n        /* \"#utility.yul\":7354:7363   */\n      dup3\n        /* \"#utility.yul\":7350:7368   */\n      add\n        /* \"#utility.yul\":7342:7368   */\n      swap1\n      pop\n        /* \"#utility.yul\":7414:7423   */\n      dup2\n        /* \"#utility.yul\":7408:7412   */\n      dup2\n        /* \"#utility.yul\":7404:7424   */\n      sub\n        /* \"#utility.yul\":7400:7401   */\n      0x00\n        /* \"#utility.yul\":7389:7398   */\n      dup4\n        /* \"#utility.yul\":7385:7402   */\n      add\n        /* \"#utility.yul\":7378:7425   */\n      mstore\n        /* \"#utility.yul\":7442:7518   */\n      tag_231\n        /* \"#utility.yul\":7513:7517   */\n      dup2\n        /* \"#utility.yul\":7504:7510   */\n      dup5\n        /* \"#utility.yul\":7442:7518   */\n      tag_132\n      jump\t// in\n    tag_231:\n        /* \"#utility.yul\":7434:7518   */\n      swap1\n      pop\n        /* \"#utility.yul\":7216:7525   */\n      swap3\n      swap2\n      pop\n      pop\n      jump\t// out\n        /* \"#utility.yul\":7531:7711   */\n    tag_133:\n        /* \"#utility.yul\":7579:7656   */\n      0x4e487b7100000000000000000000000000000000000000000000000000000000\n        /* \"#utility.yul\":7576:7577   */\n      0x00\n        /* \"#utility.yul\":7569:7657   */\n      mstore\n        /* \"#utility.yul\":7676:7680   */\n      0x11\n        /* \"#utility.yul\":7673:7674   */\n      0x04\n        /* \"#utility.yul\":7666:7681   */\n      mstore\n        /* \"#utility.yul\":7700:7704   */\n      0x24\n        /* \"#utility.yul\":7697:7698   */\n      0x00\n        /* \"#utility.yul\":7690:7705   */\n      revert\n        /* \"#utility.yul\":7717:7908   */\n    tag_64:\n        /* \"#utility.yul\":7757:7760   */\n      0x00\n        /* \"#utility.yul\":7776:7796   */\n      tag_234\n        /* \"#utility.yul\":7794:7795   */\n      dup3\n        /* \"#utility.yul\":7776:7796   */\n      tag_113\n      jump\t// in\n    tag_234:\n        /* \"#utility.yul\":7771:7796   */\n      swap2\n      pop\n        /* \"#utility.yul\":7810:7830   */\n      tag_235\n        /* \"#utility.yul\":7828:7829   */\n      dup4\n        /* \"#utility.yul\":7810:7830   */\n      tag_113\n      jump\t// in\n    tag_235:\n        /* \"#utility.yul\":7805:7830   */\n      swap3\n      pop\n        /* \"#utility.yul\":7853:7854   */\n      dup3\n        /* \"#utility.yul\":7850:7851   */\n      dup3\n        /* \"#utility.yul\":7846:7855   */\n      add\n        /* \"#utility.yul\":7839:7855   */\n      swap1\n      pop\n        /* \"#utility.yul\":7874:7877   */\n      dup1\n        /* \"#utility.yul\":7871:7872   */\n      dup3\n        /* \"#utility.yul\":7868:7878   */\n      gt\n        /* \"#utility.yul\":7865:7901   */\n      iszero\n      tag_236\n      jumpi\n        /* \"#utility.yul\":7881:7899   */\n      tag_237\n      tag_133\n      jump\t// in\n    tag_237:\n        /* \"#utility.yul\":7865:7901   */\n    tag_236:\n        /* \"#utility.yul\":7717:7908   */\n      swap3\n      swap2\n      pop\n      pop\n      jump\t// out\n        /* \"#utility.yul\":7914:8246   */\n    tag_69:\n        /* \"#utility.yul\":8035:8039   */\n      0x00\n        /* \"#utility.yul\":8073:8075   */\n      0x40\n        /* \"#utility.yul\":8062:8071   */\n      dup3\n        /* \"#utility.yul\":8058:8076   */\n      add\n        /* \"#utility.yul\":8050:8076   */\n      swap1\n      pop\n        /* \"#utility.yul\":8086:8157   */\n      tag_239\n        /* \"#utility.yul\":8154:8155   */\n      0x00\n        /* \"#utility.yul\":8143:8152   */\n      dup4\n        /* \"#utility.yul\":8139:8156   */\n      add\n        /* \"#utility.yul\":8130:8136   */\n      dup6\n        /* \"#utility.yul\":8086:8157   */\n      tag_114\n      jump\t// in\n    tag_239:\n        /* \"#utility.yul\":8167:8239   */\n      tag_240\n        /* \"#utility.yul\":8235:8237   */\n      0x20\n        /* \"#utility.yul\":8224:8233   */\n      dup4\n        /* \"#utility.yul\":8220:8238   */\n      add\n        /* \"#utility.yul\":8211:8217   */\n      dup5\n        /* \"#utility.yul\":8167:8239   */\n      tag_114\n      jump\t// in\n    tag_240:\n        /* \"#utility.yul\":7914:8246   */\n      swap4\n      swap3\n      pop\n      pop\n      pop\n      jump\t// out\n        /* \"#utility.yul\":8252:8421   */\n    tag_134:\n        /* \"#utility.yul\":8336:8347   */\n      0x00\n        /* \"#utility.yul\":8370:8376   */\n      dup3\n        /* \"#utility.yul\":8365:8368   */\n      dup3\n        /* \"#utility.yul\":8358:8377   */\n      mstore\n        /* \"#utility.yul\":8410:8414   */\n      0x20\n        /* \"#utility.yul\":8405:8408   */\n      dup3\n        /* \"#utility.yul\":8401:8415   */\n      add\n        /* \"#utility.yul\":8386:8415   */\n      swap1\n      pop\n        /* \"#utility.yul\":8252:8421   */\n      swap3\n      swap2\n      pop\n      pop\n      jump\t// out\n        /* \"#utility.yul\":8427:8573   */\n    tag_135:\n        /* \"#utility.yul\":8524:8530   */\n      dup3\n        /* \"#utility.yul\":8519:8522   */\n      dup2\n        /* \"#utility.yul\":8514:8517   */\n      dup4\n        /* \"#utility.yul\":8501:8531   */\n      calldatacopy\n        /* \"#utility.yul\":8565:8566   */\n      0x00\n        /* \"#utility.yul\":8556:8562   */\n      dup4\n        /* \"#utility.yul\":8551:8554   */\n      dup4\n        /* \"#utility.yul\":8547:8563   */\n      add\n        /* \"#utility.yul\":8540:8567   */\n      mstore\n        /* \"#utility.yul\":8427:8573   */\n      pop\n      pop\n      pop\n      jump\t// out\n        /* \"#utility.yul\":8603:8920   */\n    tag_136:\n        /* \"#utility.yul\":8701:8704   */\n      0x00\n        /* \"#utility.yul\":8722:8793   */\n      tag_244\n        /* \"#utility.yul\":8786:8792   */\n      dup4\n        /* \"#utility.yul\":8781:8784   */\n      dup6\n        /* \"#utility.yul\":8722:8793   */\n      tag_134\n      jump\t// in\n    tag_244:\n        /* \"#utility.yul\":8715:8793   */\n      swap4\n      pop\n        /* \"#utility.yul\":8803:8859   */\n      tag_245\n        /* \"#utility.yul\":8852:8858   */\n      dup4\n        /* \"#utility.yul\":8847:8850   */\n      dup6\n        /* \"#utility.yul\":8840:8845   */\n      dup5\n        /* \"#utility.yul\":8803:8859   */\n      tag_135\n      jump\t// in\n    tag_245:\n        /* \"#utility.yul\":8884:8913   */\n      tag_246\n        /* \"#utility.yul\":8906:8912   */\n      dup4\n        /* \"#utility.yul\":8884:8913   */\n      tag_131\n      jump\t// in\n    tag_246:\n        /* \"#utility.yul\":8879:8882   */\n      dup5\n        /* \"#utility.yul\":8875:8914   */\n      add\n        /* \"#utility.yul\":8868:8914   */\n      swap1\n      pop\n        /* \"#utility.yul\":8603:8920   */\n      swap4\n      swap3\n      pop\n      pop\n      pop\n      jump\t// out\n        /* \"#utility.yul\":8948:9262   */\n    tag_137:\n        /* \"#utility.yul\":9044:9047   */\n      0x00\n        /* \"#utility.yul\":9065:9135   */\n      tag_248\n        /* \"#utility.yul\":9128:9134   */\n      dup4\n        /* \"#utility.yul\":9123:9126   */\n      dup6\n        /* \"#utility.yul\":9065:9135   */\n      tag_129\n      jump\t// in\n    tag_248:\n        /* \"#utility.yul\":9058:9135   */\n      swap4\n      pop\n        /* \"#utility.yul\":9145:9201   */\n      tag_249\n        /* \"#utility.yul\":9194:9200   */\n      dup4\n        /* \"#utility.yul\":9189:9192   */\n      dup6\n        /* \"#utility.yul\":9182:9187   */\n      dup5\n        /* \"#utility.yul\":9145:9201   */\n      tag_135\n      jump\t// in\n    tag_249:\n        /* \"#utility.yul\":9226:9255   */\n      tag_250\n        /* \"#utility.yul\":9248:9254   */\n      dup4\n        /* \"#utility.yul\":9226:9255   */\n      tag_131\n      jump\t// in\n    tag_250:\n        /* \"#utility.yul\":9221:9224   */\n      dup5\n        /* \"#utility.yul\":9217:9256   */\n      add\n        /* \"#utility.yul\":9210:9256   */\n      swap1\n      pop\n        /* \"#utility.yul\":8948:9262   */\n      swap4\n      swap3\n      pop\n      pop\n      pop\n      jump\t// out\n        /* \"#utility.yul\":9268:10150   */\n    tag_71:\n        /* \"#utility.yul\":9531:9535   */\n      0x00\n        /* \"#utility.yul\":9569:9572   */\n      0xa0\n        /* \"#utility.yul\":9558:9567   */\n      dup3\n        /* \"#utility.yul\":9554:9573   */\n      add\n        /* \"#utility.yul\":9546:9573   */\n      swap1\n      pop\n        /* \"#utility.yul\":9583:9654   */\n      tag_252\n        /* \"#utility.yul\":9651:9652   */\n      0x00\n        /* \"#utility.yul\":9640:9649   */\n      dup4\n        /* \"#utility.yul\":9636:9653   */\n      add\n        /* \"#utility.yul\":9627:9633   */\n      dup11\n        /* \"#utility.yul\":9583:9654   */\n      tag_127\n      jump\t// in\n    tag_252:\n        /* \"#utility.yul\":9664:9736   */\n      tag_253\n        /* \"#utility.yul\":9732:9734   */\n      0x20\n        /* \"#utility.yul\":9721:9730   */\n      dup4\n        /* \"#utility.yul\":9717:9735   */\n      add\n        /* \"#utility.yul\":9708:9714   */\n      dup10\n        /* \"#utility.yul\":9664:9736   */\n      tag_114\n      jump\t// in\n    tag_253:\n        /* \"#utility.yul\":9783:9792   */\n      dup2\n        /* \"#utility.yul\":9777:9781   */\n      dup2\n        /* \"#utility.yul\":9773:9793   */\n      sub\n        /* \"#utility.yul\":9768:9770   */\n      0x40\n        /* \"#utility.yul\":9757:9766   */\n      dup4\n        /* \"#utility.yul\":9753:9771   */\n      add\n        /* \"#utility.yul\":9746:9794   */\n      mstore\n        /* \"#utility.yul\":9811:9899   */\n      tag_254\n        /* \"#utility.yul\":9894:9898   */\n      dup2\n        /* \"#utility.yul\":9885:9891   */\n      dup8\n        /* \"#utility.yul\":9877:9883   */\n      dup10\n        /* \"#utility.yul\":9811:9899   */\n      tag_136\n      jump\t// in\n    tag_254:\n        /* \"#utility.yul\":9803:9899   */\n      swap1\n      pop\n        /* \"#utility.yul\":9946:9955   */\n      dup2\n        /* \"#utility.yul\":9940:9944   */\n      dup2\n        /* \"#utility.yul\":9936:9956   */\n      sub\n        /* \"#utility.yul\":9931:9933   */\n      0x60\n        /* \"#utility.yul\":9920:9929   */\n      dup4\n        /* \"#utility.yul\":9916:9934   */\n      add\n        /* \"#utility.yul\":9909:9957   */\n      mstore\n        /* \"#utility.yul\":9974:10060   */\n      tag_255\n        /* \"#utility.yul\":10055:10059   */\n      dup2\n        /* \"#utility.yul\":10046:10052   */\n      dup6\n        /* \"#utility.yul\":10038:10044   */\n      dup8\n        /* \"#utility.yul\":9974:10060   */\n      tag_137\n      jump\t// in\n    tag_255:\n        /* \"#utility.yul\":9966:10060   */\n      swap1\n      pop\n        /* \"#utility.yul\":10070:10143   */\n      tag_256\n        /* \"#utility.yul\":10138:10141   */\n      0x80\n        /* \"#utility.yul\":10127:10136   */\n      dup4\n        /* \"#utility.yul\":10123:10142   */\n      add\n        /* \"#utility.yul\":10114:10120   */\n      dup5\n        /* \"#utility.yul\":10070:10143   */\n      tag_114\n      jump\t// in\n    tag_256:\n        /* \"#utility.yul\":9268:10150   */\n      swap9\n      swap8\n      pop\n      pop\n      pop\n      pop\n      pop\n      pop\n      pop\n      pop\n      jump\t// out\n        /* \"#utility.yul\":10156:10303   */\n    tag_138:\n        /* \"#utility.yul\":10257:10268   */\n      0x00\n        /* \"#utility.yul\":10294:10297   */\n      dup2\n        /* \"#utility.yul\":10279:10297   */\n      swap1\n      pop\n        /* \"#utility.yul\":10156:10303   */\n      swap3\n      swap2\n      pop\n      pop\n      jump\t// out\n        /* \"#utility.yul\":10331:10658   */\n    tag_139:\n        /* \"#utility.yul\":10445:10448   */\n      0x00\n        /* \"#utility.yul\":10466:10554   */\n      tag_259\n        /* \"#utility.yul\":10547:10553   */\n      dup4\n        /* \"#utility.yul\":10542:10545   */\n      dup6\n        /* \"#utility.yul\":10466:10554   */\n      tag_138\n      jump\t// in\n    tag_259:\n        /* \"#utility.yul\":10459:10554   */\n      swap4\n      pop\n        /* \"#utility.yul\":10564:10620   */\n      tag_260\n        /* \"#utility.yul\":10613:10619   */\n      dup4\n        /* \"#utility.yul\":10608:10611   */\n      dup6\n        /* \"#utility.yul\":10601:10606   */\n      dup5\n        /* \"#utility.yul\":10564:10620   */\n      tag_135\n      jump\t// in\n    tag_260:\n        /* \"#utility.yul\":10645:10651   */\n      dup3\n        /* \"#utility.yul\":10640:10643   */\n      dup5\n        /* \"#utility.yul\":10636:10652   */\n      add\n        /* \"#utility.yul\":10629:10652   */\n      swap1\n      pop\n        /* \"#utility.yul\":10331:10658   */\n      swap4\n      swap3\n      pop\n      pop\n      pop\n      jump\t// out\n        /* \"#utility.yul\":10664:10955   */\n    tag_88:\n        /* \"#utility.yul\":10804:10807   */\n      0x00\n        /* \"#utility.yul\":10826:10929   */\n      tag_262\n        /* \"#utility.yul\":10925:10928   */\n      dup3\n        /* \"#utility.yul\":10916:10922   */\n      dup5\n        /* \"#utility.yul\":10908:10914   */\n      dup7\n        /* \"#utility.yul\":10826:10929   */\n      tag_139\n      jump\t// in\n    tag_262:\n        /* \"#utility.yul\":10819:10929   */\n      swap2\n      pop\n        /* \"#utility.yul\":10946:10949   */\n      dup2\n        /* \"#utility.yul\":10939:10949   */\n      swap1\n      pop\n        /* \"#utility.yul\":10664:10955   */\n      swap4\n      swap3\n      pop\n      pop\n      pop\n      jump\t// out\n        /* \"#utility.yul\":10961:11110   */\n    tag_140:\n        /* \"#utility.yul\":10997:11004   */\n      0x00\n        /* \"#utility.yul\":11037:11103   */\n      0xffffffff00000000000000000000000000000000000000000000000000000000\n        /* \"#utility.yul\":11030:11035   */\n      dup3\n        /* \"#utility.yul\":11026:11104   */\n      and\n        /* \"#utility.yul\":11015:11104   */\n      swap1\n      pop\n        /* \"#utility.yul\":10961:11110   */\n      swap2\n      swap1\n      pop\n      jump\t// out\n        /* \"#utility.yul\":11116:11194   */\n    tag_141:\n        /* \"#utility.yul\":11154:11161   */\n      0x00\n        /* \"#utility.yul\":11183:11188   */\n      dup2\n        /* \"#utility.yul\":11172:11188   */\n      swap1\n      pop\n        /* \"#utility.yul\":11116:11194   */\n      swap2\n      swap1\n      pop\n      jump\t// out\n        /* \"#utility.yul\":11200:11353   */\n    tag_142:\n        /* \"#utility.yul\":11303:11346   */\n      tag_266\n        /* \"#utility.yul\":11322:11345   */\n      tag_267\n        /* \"#utility.yul\":11339:11344   */\n      dup3\n        /* \"#utility.yul\":11322:11345   */\n      tag_140\n      jump\t// in\n    tag_267:\n        /* \"#utility.yul\":11303:11346   */\n      tag_141\n      jump\t// in\n    tag_266:\n        /* \"#utility.yul\":11298:11301   */\n      dup3\n        /* \"#utility.yul\":11291:11347   */\n      mstore\n        /* \"#utility.yul\":11200:11353   */\n      pop\n      pop\n      jump\t// out\n        /* \"#utility.yul\":11359:11786   */\n    tag_90:\n        /* \"#utility.yul\":11525:11528   */\n      0x00\n        /* \"#utility.yul\":11540:11613   */\n      tag_269\n        /* \"#utility.yul\":11609:11612   */\n      dup3\n        /* \"#utility.yul\":11600:11606   */\n      dup7\n        /* \"#utility.yul\":11540:11613   */\n      tag_142\n      jump\t// in\n    tag_269:\n        /* \"#utility.yul\":11638:11639   */\n      0x04\n        /* \"#utility.yul\":11633:11636   */\n      dup3\n        /* \"#utility.yul\":11629:11640   */\n      add\n        /* \"#utility.yul\":11622:11640   */\n      swap2\n      pop\n        /* \"#utility.yul\":11657:11760   */\n      tag_270\n        /* \"#utility.yul\":11756:11759   */\n      dup3\n        /* \"#utility.yul\":11747:11753   */\n      dup5\n        /* \"#utility.yul\":11739:11745   */\n      dup7\n        /* \"#utility.yul\":11657:11760   */\n      tag_139\n      jump\t// in\n    tag_270:\n        /* \"#utility.yul\":11650:11760   */\n      swap2\n      pop\n        /* \"#utility.yul\":11777:11780   */\n      dup2\n        /* \"#utility.yul\":11770:11780   */\n      swap1\n      pop\n        /* \"#utility.yul\":11359:11786   */\n      swap5\n      swap4\n      pop\n      pop\n      pop\n      pop\n      jump\t// out\n        /* \"#utility.yul\":11792:12178   */\n    tag_143:\n        /* \"#utility.yul\":11896:11899   */\n      0x00\n        /* \"#utility.yul\":11924:11962   */\n      tag_272\n        /* \"#utility.yul\":11956:11961   */\n      dup3\n        /* \"#utility.yul\":11924:11962   */\n      tag_128\n      jump\t// in\n    tag_272:\n        /* \"#utility.yul\":11978:12066   */\n      tag_273\n        /* \"#utility.yul\":12059:12065   */\n      dup2\n        /* \"#utility.yul\":12054:12057   */\n      dup6\n        /* \"#utility.yul\":11978:12066   */\n      tag_138\n      jump\t// in\n    tag_273:\n        /* \"#utility.yul\":11971:12066   */\n      swap4\n      pop\n        /* \"#utility.yul\":12075:12140   */\n      tag_274\n        /* \"#utility.yul\":12133:12139   */\n      dup2\n        /* \"#utility.yul\":12128:12131   */\n      dup6\n        /* \"#utility.yul\":12121:12125   */\n      0x20\n        /* \"#utility.yul\":12114:12119   */\n      dup7\n        /* \"#utility.yul\":12110:12126   */\n      add\n        /* \"#utility.yul\":12075:12140   */\n      tag_130\n      jump\t// in\n    tag_274:\n        /* \"#utility.yul\":12165:12171   */\n      dup1\n        /* \"#utility.yul\":12160:12163   */\n      dup5\n        /* \"#utility.yul\":12156:12172   */\n      add\n        /* \"#utility.yul\":12149:12172   */\n      swap2\n      pop\n        /* \"#utility.yul\":11900:12178   */\n      pop\n        /* \"#utility.yul\":11792:12178   */\n      swap3\n      swap2\n      pop\n      pop\n      jump\t// out\n        /* \"#utility.yul\":12184:12455   */\n    tag_93:\n        /* \"#utility.yul\":12314:12317   */\n      0x00\n        /* \"#utility.yul\":12336:12429   */\n      tag_276\n        /* \"#utility.yul\":12425:12428   */\n      dup3\n        /* \"#utility.yul\":12416:12422   */\n      dup5\n        /* \"#utility.yul\":12336:12429   */\n      tag_143\n      jump\t// in\n    tag_276:\n        /* \"#utility.yul\":12329:12429   */\n      swap2\n      pop\n        /* \"#utility.yul\":12446:12449   */\n      dup2\n        /* \"#utility.yul\":12439:12449   */\n      swap1\n      pop\n        /* \"#utility.yul\":12184:12455   */\n      swap3\n      swap2\n      pop\n      pop\n      jump\t// out\n        /* \"#utility.yul\":12461:13454   */\n    tag_99:\n        /* \"#utility.yul\":12752:12756   */\n      0x00\n        /* \"#utility.yul\":12790:12793   */\n      0xc0\n        /* \"#utility.yul\":12779:12788   */\n      dup3\n        /* \"#utility.yul\":12775:12794   */\n      add\n        /* \"#utility.yul\":12767:12794   */\n      swap1\n      pop\n        /* \"#utility.yul\":12804:12875   */\n      tag_278\n        /* \"#utility.yul\":12872:12873   */\n      0x00\n        /* \"#utility.yul\":12861:12870   */\n      dup4\n        /* \"#utility.yul\":12857:12874   */\n      add\n        /* \"#utility.yul\":12848:12854   */\n      dup12\n        /* \"#utility.yul\":12804:12875   */\n      tag_126\n      jump\t// in\n    tag_278:\n        /* \"#utility.yul\":12885:12957   */\n      tag_279\n        /* \"#utility.yul\":12953:12955   */\n      0x20\n        /* \"#utility.yul\":12942:12951   */\n      dup4\n        /* \"#utility.yul\":12938:12956   */\n      add\n        /* \"#utility.yul\":12929:12935   */\n      dup11\n        /* \"#utility.yul\":12885:12957   */\n      tag_127\n      jump\t// in\n    tag_279:\n        /* \"#utility.yul\":12967:13039   */\n      tag_280\n        /* \"#utility.yul\":13035:13037   */\n      0x40\n        /* \"#utility.yul\":13024:13033   */\n      dup4\n        /* \"#utility.yul\":13020:13038   */\n      add\n        /* \"#utility.yul\":13011:13017   */\n      dup10\n        /* \"#utility.yul\":12967:13039   */\n      tag_114\n      jump\t// in\n    tag_280:\n        /* \"#utility.yul\":13086:13095   */\n      dup2\n        /* \"#utility.yul\":13080:13084   */\n      dup2\n        /* \"#utility.yul\":13076:13096   */\n      sub\n        /* \"#utility.yul\":13071:13073   */\n      0x60\n        /* \"#utility.yul\":13060:13069   */\n      dup4\n        /* \"#utility.yul\":13056:13074   */\n      add\n        /* \"#utility.yul\":13049:13097   */\n      mstore\n        /* \"#utility.yul\":13114:13202   */\n      tag_281\n        /* \"#utility.yul\":13197:13201   */\n      dup2\n        /* \"#utility.yul\":13188:13194   */\n      dup8\n        /* \"#utility.yul\":13180:13186   */\n      dup10\n        /* \"#utility.yul\":13114:13202   */\n      tag_136\n      jump\t// in\n    tag_281:\n        /* \"#utility.yul\":13106:13202   */\n      swap1\n      pop\n        /* \"#utility.yul\":13250:13259   */\n      dup2\n        /* \"#utility.yul\":13244:13248   */\n      dup2\n        /* \"#utility.yul\":13240:13260   */\n      sub\n        /* \"#utility.yul\":13234:13237   */\n      0x80\n        /* \"#utility.yul\":13223:13232   */\n      dup4\n        /* \"#utility.yul\":13219:13238   */\n      add\n        /* \"#utility.yul\":13212:13261   */\n      mstore\n        /* \"#utility.yul\":13278:13364   */\n      tag_282\n        /* \"#utility.yul\":13359:13363   */\n      dup2\n        /* \"#utility.yul\":13350:13356   */\n      dup6\n        /* \"#utility.yul\":13342:13348   */\n      dup8\n        /* \"#utility.yul\":13278:13364   */\n      tag_137\n      jump\t// in\n    tag_282:\n        /* \"#utility.yul\":13270:13364   */\n      swap1\n      pop\n        /* \"#utility.yul\":13374:13447   */\n      tag_283\n        /* \"#utility.yul\":13442:13445   */\n      0xa0\n        /* \"#utility.yul\":13431:13440   */\n      dup4\n        /* \"#utility.yul\":13427:13446   */\n      add\n        /* \"#utility.yul\":13418:13424   */\n      dup5\n        /* \"#utility.yul\":13374:13447   */\n      tag_114\n      jump\t// in\n    tag_283:\n        /* \"#utility.yul\":12461:13454   */\n      swap10\n      swap9\n      pop\n      pop\n      pop\n      pop\n      pop\n      pop\n      pop\n      pop\n      pop\n      jump\t// out\n\n    auxdata: 0xa26469706673582212201031ddf3f6b85439092bd40957cd2e8e5fcd10729264a1875a3aa7d30afba9b264736f6c63430008110033\n}\n",
				"bytecode": {
					"linkReferences": {},
					"object": "608060405234801561001057600080fd5b50336000806101000a81548173ffffffffffffffffffffffffffffffffffffffff021916908373ffffffffffffffffffffffffffffffffffffffff160217905550610ff1806100606000396000f3fe6080604052600436106100865760003560e01c80638da5cb5b116100595780638da5cb5b146101595780639f81aed714610184578063b0f8b142146101af578063c1a287e2146101df578063c4d252f51461020a57610086565b8063228250c91461008b5780634125ff90146100c85780634b9915a5146100f35780638a1ce0b61461011c575b600080fd5b34801561009757600080fd5b506100b260048036038101906100ad9190610937565b610233565b6040516100bf919061097f565b60405180910390f35b3480156100d457600080fd5b506100dd610253565b6040516100ea91906109b3565b60405180910390f35b3480156100ff57600080fd5b5061011a60048036038101906101159190610b13565b610259565b005b34801561012857600080fd5b50610143600480360381019061013e9190610b13565b610436565b6040516101509190610bde565b60405180910390f35b34801561016557600080fd5b5061016e610478565b60405161017b9190610c08565b60405180910390f35b34801561019057600080fd5b5061019961049c565b6040516101a691906109b3565b60405180910390f35b6101c960048036038101906101c49190610b13565b6104a1565b6040516101d69190610cb3565b60405180910390f35b3480156101eb57600080fd5b506101f4610807565b60405161020191906109b3565b60405180910390f35b34801561021657600080fd5b50610231600480360381019061022c9190610937565b61080d565b005b60016020528060005260406000206000915054906101000a900460ff1681565b6103e881565b60008054906101000a900473ffffffffffffffffffffffffffffffffffffffff1673ffffffffffffffffffffffffffffffffffffffff163373ffffffffffffffffffffffffffffffffffffffff16146102de576040517f74a2152700000000000000000000000000000000000000000000000000000000815260040160405180910390fd5b60006102ef88888888888888610436565b90506001600082815260200190815260200160002060009054906101000a900460ff161561035457806040517f995042be00000000000000000000000000000000000000000000000000000000815260040161034b9190610bde565b60405180910390fd5b600a426103619190610d04565b82108061037a57506103e8426103779190610d04565b82115b156103be5742826040517f1a9616c20000000000000000000000000000000000000000000000000000000081526004016103b5929190610d38565b60405180910390fd5b600180600083815260200190815260200160002060006101000a81548160ff0219169083151502179055507f1be0a5a53718dba1a6179a0fd8bc0a5c332a89f9a2d8d58a23fc6f0f15ab3caf888888888888886040516104249796959493929190610ddb565b60405180910390a15050505050505050565b6000878787878787876040516020016104559796959493929190610ddb565b604051602081830303815290604052805190602001209050979650505050505050565b60008054906101000a900473ffffffffffffffffffffffffffffffffffffffff1681565b600a81565b606060008054906101000a900473ffffffffffffffffffffffffffffffffffffffff1673ffffffffffffffffffffffffffffffffffffffff163373ffffffffffffffffffffffffffffffffffffffff1614610528576040517f74a2152700000000000000000000000000000000000000000000000000000000815260040160405180910390fd5b600061053989898989898989610436565b90506001600082815260200190815260200160002060009054906101000a900460ff1661059d57806040517f0995c9d50000000000000000000000000000000000000000000000000000000081526004016105949190610bde565b60405180910390fd5b824210156105e45742836040517f035fce5b0000000000000000000000000000000000000000000000000000000081526004016105db929190610d38565b60405180910390fd5b6103e8836105f29190610d04565b42111561064557426103e8846106089190610d04565b6040517f92ae26d100000000000000000000000000000000000000000000000000000000815260040161063c929190610d38565b60405180910390fd5b60006001600083815260200190815260200160002060006101000a81548160ff021916908315150217905550606060008888905011156106c157878760405161068f929190610e70565b604051809103902086866040516020016106ab93929190610ed6565b6040516020818303038152906040529050610709565b85858080601f016020809104026020016040519081016040528093929190818152602001838380828437600081840152601f19601f8201169050808301925050505050505090505b6000808b73ffffffffffffffffffffffffffffffffffffffff168b846040516107329190610f31565b60006040518083038185875af1925050503d806000811461076f576040519150601f19603f3d011682016040523d82523d6000602084013e610774565b606091505b5091509150816107b0576040517fd9b4f81e00000000000000000000000000000000000000000000000000000000815260040160405180910390fd5b7fd1d5c3c892c18716bd88852091d1b63dc6849e9d7c37f69d566884bf954d4bd9848d8d8d8d8d8d8d6040516107ed989796959493929190610f48565b60405180910390a180945050505050979650505050505050565b6103e881565b60008054906101000a900473ffffffffffffffffffffffffffffffffffffffff1673ffffffffffffffffffffffffffffffffffffffff163373ffffffffffffffffffffffffffffffffffffffff1614610892576040517f74a2152700000000000000000000000000000000000000000000000000000000815260040160405180910390fd5b6001600082815260200190815260200160002060009054906101000a900460ff166108f457806040517f0995c9d50000000000000000000000000000000000000000000000000000000081526004016108eb9190610bde565b60405180910390fd5b50565b600080fd5b600080fd5b6000819050919050565b61091481610901565b811461091f57600080fd5b50565b6000813590506109318161090b565b92915050565b60006020828403121561094d5761094c6108f7565b5b600061095b84828501610922565b91505092915050565b60008115159050919050565b61097981610964565b82525050565b60006020820190506109946000830184610970565b92915050565b6000819050919050565b6109ad8161099a565b82525050565b60006020820190506109c860008301846109a4565b92915050565b600073ffffffffffffffffffffffffffffffffffffffff82169050919050565b60006109f9826109ce565b9050919050565b610a09816109ee565b8114610a1457600080fd5b50565b600081359050610a2681610a00565b92915050565b610a358161099a565b8114610a4057600080fd5b50565b600081359050610a5281610a2c565b92915050565b600080fd5b600080fd5b600080fd5b60008083601f840112610a7d57610a7c610a58565b5b8235905067ffffffffffffffff811115610a9a57610a99610a5d565b5b602083019150836001820283011115610ab657610ab5610a62565b5b9250929050565b60008083601f840112610ad357610ad2610a58565b5b8235905067ffffffffffffffff811115610af057610aef610a5d565b5b602083019150836001820283011115610b0c57610b0b610a62565b5b9250929050565b600080600080600080600060a0888a031215610b3257610b316108f7565b5b6000610b408a828b01610a17565b9750506020610b518a828b01610a43565b965050604088013567ffffffffffffffff811115610b7257610b716108fc565b5b610b7e8a828b01610a67565b9550955050606088013567ffffffffffffffff811115610ba157610ba06108fc565b5b610bad8a828b01610abd565b93509350506080610bc08a828b01610a43565b91505092959891949750929550565b610bd881610901565b82525050565b6000602082019050610bf36000830184610bcf565b92915050565b610c02816109ee565b82525050565b6000602082019050610c1d6000830184610bf9565b92915050565b600081519050919050565b600082825260208201905092915050565b60005b83811015610c5d578082015181840152602081019050610c42565b60008484015250505050565b6000601f19601f8301169050919050565b6000610c8582610c23565b610c8f8185610c2e565b9350610c9f818560208601610c3f565b610ca881610c69565b840191505092915050565b60006020820190508181036000830152610ccd8184610c7a565b905092915050565b7f4e487b7100000000000000000000000000000000000000000000000000000000600052601160045260246000fd5b6000610d0f8261099a565b9150610d1a8361099a565b9250828201905080821115610d3257610d31610cd5565b5b92915050565b6000604082019050610d4d60008301856109a4565b610d5a60208301846109a4565b9392505050565b600082825260208201905092915050565b82818337600083830152505050565b6000610d8d8385610d61565b9350610d9a838584610d72565b610da383610c69565b840190509392505050565b6000610dba8385610c2e565b9350610dc7838584610d72565b610dd083610c69565b840190509392505050565b600060a082019050610df0600083018a610bf9565b610dfd60208301896109a4565b8181036040830152610e10818789610d81565b90508181036060830152610e25818587610dae565b9050610e3460808301846109a4565b98975050505050505050565b600081905092915050565b6000610e578385610e40565b9350610e64838584610d72565b82840190509392505050565b6000610e7d828486610e4b565b91508190509392505050565b60007fffffffff0000000000000000000000000000000000000000000000000000000082169050919050565b6000819050919050565b610ed0610ecb82610e89565b610eb5565b82525050565b6000610ee28286610ebf565b600482019150610ef3828486610e4b565b9150819050949350505050565b6000610f0b82610c23565b610f158185610e40565b9350610f25818560208601610c3f565b80840191505092915050565b6000610f3d8284610f00565b915081905092915050565b600060c082019050610f5d600083018b610bcf565b610f6a602083018a610bf9565b610f7760408301896109a4565b8181036060830152610f8a818789610d81565b90508181036080830152610f9f818587610dae565b9050610fae60a08301846109a4565b999850505050505050505056fea26469706673582212201031ddf3f6b85439092bd40957cd2e8e5fcd10729264a1875a3aa7d30afba9b264736f6c63430008110033",
					"opcodes": "PUSH1 0x80 PUSH1 0x40 MSTORE CALLVALUE DUP1 ISZERO PUSH2 0x10 JUMPI PUSH1 0x0 DUP1 REVERT JUMPDEST POP CALLER PUSH1 0x0 DUP1 PUSH2 0x100 EXP DUP2 SLOAD DUP2 PUSH20 0xFFFFFFFFFFFFFFFFFFFFFFFFFFFFFFFFFFFFFFFF MUL NOT AND SWAP1 DUP4 PUSH20 0xFFFFFFFFFFFFFFFFFFFFFFFFFFFFFFFFFFFFFFFF AND MUL OR SWAP1 SSTORE POP PUSH2 0xFF1 DUP1 PUSH2 0x60 PUSH1 0x0 CODECOPY PUSH1 0x0 RETURN INVALID PUSH1 0x80 PUSH1 0x40 MSTORE PUSH1 0x4 CALLDATASIZE LT PUSH2 0x86 JUMPI PUSH1 0x0 CALLDATALOAD PUSH1 0xE0 SHR DUP1 PUSH4 0x8DA5CB5B GT PUSH2 0x59 JUMPI DUP1 PUSH4 0x8DA5CB5B EQ PUSH2 0x159 JUMPI DUP1 PUSH4 0x9F81AED7 EQ PUSH2 0x184 JUMPI DUP1 PUSH4 0xB0F8B142 EQ PUSH2 0x1AF JUMPI DUP1 PUSH4 0xC1A287E2 EQ PUSH2 0x1DF JUMPI DUP1 PUSH4 0xC4D252F5 EQ PUSH2 0x20A JUMPI PUSH2 0x86 JUMP JUMPDEST DUP1 PUSH4 0x228250C9 EQ PUSH2 0x8B JUMPI DUP1 PUSH4 0x4125FF90 EQ PUSH2 0xC8 JUMPI DUP1 PUSH4 0x4B9915A5 EQ PUSH2 0xF3 JUMPI DUP1 PUSH4 0x8A1CE0B6 EQ PUSH2 0x11C JUMPI JUMPDEST PUSH1 0x0 DUP1 REVERT JUMPDEST CALLVALUE DUP1 ISZERO PUSH2 0x97 JUMPI PUSH1 0x0 DUP1 REVERT JUMPDEST POP PUSH2 0xB2 PUSH1 0x4 DUP1 CALLDATASIZE SUB DUP2 ADD SWAP1 PUSH2 0xAD SWAP2 SWAP1 PUSH2 0x937 JUMP JUMPDEST PUSH2 0x233 JUMP JUMPDEST PUSH1 0x40 MLOAD PUSH2 0xBF SWAP2 SWAP1 PUSH2 0x97F JUMP JUMPDEST PUSH1 0x40 MLOAD DUP1 SWAP2 SUB SWAP1 RETURN JUMPDEST CALLVALUE DUP1 ISZERO PUSH2 0xD4 JUMPI PUSH1 0x0 DUP1 REVERT JUMPDEST POP PUSH2 0xDD PUSH2 0x253 JUMP JUMPDEST PUSH1 0x40 MLOAD PUSH2 0xEA SWAP2 SWAP1 PUSH2 0x9B3 JUMP JUMPDEST PUSH1 0x40 MLOAD DUP1 SWAP2 SUB SWAP1 RETURN JUMPDEST CALLVALUE DUP1 ISZERO PUSH2 0xFF JUMPI PUSH1 0x0 DUP1 REVERT JUMPDEST POP PUSH2 0x11A PUSH1 0x4 DUP1 CALLDATASIZE SUB DUP2 ADD SWAP1 PUSH2 0x115 SWAP2 SWAP1 PUSH2 0xB13 JUMP JUMPDEST PUSH2 0x259 JUMP JUMPDEST STOP JUMPDEST CALLVALUE DUP1 ISZERO PUSH2 0x128 JUMPI PUSH1 0x0 DUP1 REVERT JUMPDEST POP PUSH2 0x143 PUSH1 0x4 DUP1 CALLDATASIZE SUB DUP2 ADD SWAP1 PUSH2 0x13E SWAP2 SWAP1 PUSH2 0xB13 JUMP JUMPDEST PUSH2 0x436 JUMP JUMPDEST PUSH1 0x40 MLOAD PUSH2 0x150 SWAP2 SWAP1 PUSH2 0xBDE JUMP JUMPDEST PUSH1 0x40 MLOAD DUP1 SWAP2 SUB SWAP1 RETURN JUMPDEST CALLVALUE DUP1 ISZERO PUSH2 0x165 JUMPI PUSH1 0x0 DUP1 REVERT JUMPDEST POP PUSH2 0x16E PUSH2 0x478 JUMP JUMPDEST PUSH1 0x40 MLOAD PUSH2 0x17B SWAP2 SWAP1 PUSH2 0xC08 JUMP JUMPDEST PUSH1 0x40 MLOAD DUP1 SWAP2 SUB SWAP1 RETURN JUMPDEST CALLVALUE DUP1 ISZERO PUSH2 0x190 JUMPI PUSH1 0x0 DUP1 REVERT JUMPDEST POP PUSH2 0x199 PUSH2 0x49C JUMP JUMPDEST PUSH1 0x40 MLOAD PUSH2 0x1A6 SWAP2 SWAP1 PUSH2 0x9B3 JUMP JUMPDEST PUSH1 0x40 MLOAD DUP1 SWAP2 SUB SWAP1 RETURN JUMPDEST PUSH2 0x1C9 PUSH1 0x4 DUP1 CALLDATASIZE SUB DUP2 ADD SWAP1 PUSH2 0x1C4 SWAP2 SWAP1 PUSH2 0xB13 JUMP JUMPDEST PUSH2 0x4A1 JUMP JUMPDEST PUSH1 0x40 MLOAD PUSH2 0x1D6 SWAP2 SWAP1 PUSH2 0xCB3 JUMP JUMPDEST PUSH1 0x40 MLOAD DUP1 SWAP2 SUB SWAP1 RETURN JUMPDEST CALLVALUE DUP1 ISZERO PUSH2 0x1EB JUMPI PUSH1 0x0 DUP1 REVERT JUMPDEST POP PUSH2 0x1F4 PUSH2 0x807 JUMP JUMPDEST PUSH1 0x40 MLOAD PUSH2 0x201 SWAP2 SWAP1 PUSH2 0x9B3 JUMP JUMPDEST PUSH1 0x40 MLOAD DUP1 SWAP2 SUB SWAP1 RETURN JUMPDEST CALLVALUE DUP1 ISZERO PUSH2 0x216 JUMPI PUSH1 0x0 DUP1 REVERT JUMPDEST POP PUSH2 0x231 PUSH1 0x4 DUP1 CALLDATASIZE SUB DUP2 ADD SWAP1 PUSH2 0x22C SWAP2 SWAP1 PUSH2 0x937 JUMP JUMPDEST PUSH2 0x80D JUMP JUMPDEST STOP JUMPDEST PUSH1 0x1 PUSH1 0x20 MSTORE DUP1 PUSH1 0x0 MSTORE PUSH1 0x40 PUSH1 0x0 KECCAK256 PUSH1 0x0 SWAP2 POP SLOAD SWAP1 PUSH2 0x100 EXP SWAP1 DIV PUSH1 0xFF AND DUP2 JUMP JUMPDEST PUSH2 0x3E8 DUP2 JUMP JUMPDEST PUSH1 0x0 DUP1 SLOAD SWAP1 PUSH2 0x100 EXP SWAP1 DIV PUSH20 0xFFFFFFFFFFFFFFFFFFFFFFFFFFFFFFFFFFFFFFFF AND PUSH20 0xFFFFFFFFFFFFFFFFFFFFFFFFFFFFFFFFFFFFFFFF AND CALLER PUSH20 0xFFFFFFFFFFFFFFFFFFFFFFFFFFFFFFFFFFFFFFFF AND EQ PUSH2 0x2DE JUMPI PUSH1 0x40 MLOAD PUSH32 0x74A2152700000000000000000000000000000000000000000000000000000000 DUP2 MSTORE PUSH1 0x4 ADD PUSH1 0x40 MLOAD DUP1 SWAP2 SUB SWAP1 REVERT JUMPDEST PUSH1 0x0 PUSH2 0x2EF DUP9 DUP9 DUP9 DUP9 DUP9 DUP9 DUP9 PUSH2 0x436 JUMP JUMPDEST SWAP1 POP PUSH1 0x1 PUSH1 0x0 DUP3 DUP2 MSTORE PUSH1 0x20 ADD SWAP1 DUP2 MSTORE PUSH1 0x20 ADD PUSH1 0x0 KECCAK256 PUSH1 0x0 SWAP1 SLOAD SWAP1 PUSH2 0x100 EXP SWAP1 DIV PUSH1 0xFF AND ISZERO PUSH2 0x354 JUMPI DUP1 PUSH1 0x40 MLOAD PUSH32 0x995042BE00000000000000000000000000000000000000000000000000000000 DUP2 MSTORE PUSH1 0x4 ADD PUSH2 0x34B SWAP2 SWAP1 PUSH2 0xBDE JUMP JUMPDEST PUSH1 0x40 MLOAD DUP1 SWAP2 SUB SWAP1 REVERT JUMPDEST PUSH1 0xA TIMESTAMP PUSH2 0x361 SWAP2 SWAP1 PUSH2 0xD04 JUMP JUMPDEST DUP3 LT DUP1 PUSH2 0x37A JUMPI POP PUSH2 0x3E8 TIMESTAMP PUSH2 0x377 SWAP2 SWAP1 PUSH2 0xD04 JUMP JUMPDEST DUP3 GT JUMPDEST ISZERO PUSH2 0x3BE JUMPI TIMESTAMP DUP3 PUSH1 0x40 MLOAD PUSH32 0x1A9616C200000000000000000000000000000000000000000000000000000000 DUP2 MSTORE PUSH1 0x4 ADD PUSH2 0x3B5 SWAP3 SWAP2 SWAP1 PUSH2 0xD38 JUMP JUMPDEST PUSH1 0x40 MLOAD DUP1 SWAP2 SUB SWAP1 REVERT JUMPDEST PUSH1 0x1 DUP1 PUSH1 0x0 DUP4 DUP2 MSTORE PUSH1 0x20 ADD SWAP1 DUP2 MSTORE PUSH1 0x20 ADD PUSH1 0x0 KECCAK256 PUSH1 0x0 PUSH2 0x100 EXP DUP2 SLOAD DUP2 PUSH1 0xFF MUL NOT AND SWAP1 DUP4 ISZERO ISZERO MUL OR SWAP1 SSTORE POP PUSH32 0x1BE0A5A53718DBA1A6179A0FD8BC0A5C332A89F9A2D8D58A23FC6F0F15AB3CAF DUP9 DUP9 DUP9 DUP9 DUP9 DUP9 DUP9 PUSH1 0x40 MLOAD PUSH2 0x424 SWAP8 SWAP7 SWAP6 SWAP5 SWAP4 SWAP3 SWAP2 SWAP1 PUSH2 0xDDB JUMP JUMPDEST PUSH1 0x40 MLOAD DUP1 SWAP2 SUB SWAP1 LOG1 POP POP POP POP POP POP POP POP JUMP JUMPDEST PUSH1 0x0 DUP8 DUP8 DUP8 DUP8 DUP8 DUP8 DUP8 PUSH1 0x40 MLOAD PUSH1 0x20 ADD PUSH2 0x455 SWAP8 SWAP7 SWAP6 SWAP5 SWAP4 SWAP3 SWAP2 SWAP1 PUSH2 0xDDB JUMP JUMPDEST PUSH1 0x40 MLOAD PUSH1 0x20 DUP2 DUP4 SUB SUB DUP2 MSTORE SWAP1 PUSH1 0x40 MSTORE DUP1 MLOAD SWAP1 PUSH1 0x20 ADD KECCAK256 SWAP1 POP SWAP8 SWAP7 POP POP POP POP POP POP POP JUMP JUMPDEST PUSH1 0x0 DUP1 SLOAD SWAP1 PUSH2 0x100 EXP SWAP1 DIV PUSH20 0xFFFFFFFFFFFFFFFFFFFFFFFFFFFFFFFFFFFFFFFF AND DUP2 JUMP JUMPDEST PUSH1 0xA DUP2 JUMP JUMPDEST PUSH1 0x60 PUSH1 0x0 DUP1 SLOAD SWAP1 PUSH2 0x100 EXP SWAP1 DIV PUSH20 0xFFFFFFFFFFFFFFFFFFFFFFFFFFFFFFFFFFFFFFFF AND PUSH20 0xFFFFFFFFFFFFFFFFFFFFFFFFFFFFFFFFFFFFFFFF AND CALLER PUSH20 0xFFFFFFFFFFFFFFFFFFFFFFFFFFFFFFFFFFFFFFFF AND EQ PUSH2 0x528 JUMPI PUSH1 0x40 MLOAD PUSH32 0x74A2152700000000000000000000000000000000000000000000000000000000 DUP2 MSTORE PUSH1 0x4 ADD PUSH1 0x40 MLOAD DUP1 SWAP2 SUB SWAP1 REVERT JUMPDEST PUSH1 0x0 PUSH2 0x539 DUP10 DUP10 DUP10 DUP10 DUP10 DUP10 DUP10 PUSH2 0x436 JUMP JUMPDEST SWAP1 POP PUSH1 0x1 PUSH1 0x0 DUP3 DUP2 MSTORE PUSH1 0x20 ADD SWAP1 DUP2 MSTORE PUSH1 0x20 ADD PUSH1 0x0 KECCAK256 PUSH1 0x0 SWAP1 SLOAD SWAP1 PUSH2 0x100 EXP SWAP1 DIV PUSH1 0xFF AND PUSH2 0x59D JUMPI DUP1 PUSH1 0x40 MLOAD PUSH32 0x995C9D500000000000000000000000000000000000000000000000000000000 DUP2 MSTORE PUSH1 0x4 ADD PUSH2 0x594 SWAP2 SWAP1 PUSH2 0xBDE JUMP JUMPDEST PUSH1 0x40 MLOAD DUP1 SWAP2 SUB SWAP1 REVERT JUMPDEST DUP3 TIMESTAMP LT ISZERO PUSH2 0x5E4 JUMPI TIMESTAMP DUP4 PUSH1 0x40 MLOAD PUSH32 0x35FCE5B00000000000000000000000000000000000000000000000000000000 DUP2 MSTORE PUSH1 0x4 ADD PUSH2 0x5DB SWAP3 SWAP2 SWAP1 PUSH2 0xD38 JUMP JUMPDEST PUSH1 0x40 MLOAD DUP1 SWAP2 SUB SWAP1 REVERT JUMPDEST PUSH2 0x3E8 DUP4 PUSH2 0x5F2 SWAP2 SWAP1 PUSH2 0xD04 JUMP JUMPDEST TIMESTAMP GT ISZERO PUSH2 0x645 JUMPI TIMESTAMP PUSH2 0x3E8 DUP5 PUSH2 0x608 SWAP2 SWAP1 PUSH2 0xD04 JUMP JUMPDEST PUSH1 0x40 MLOAD PUSH32 0x92AE26D100000000000000000000000000000000000000000000000000000000 DUP2 MSTORE PUSH1 0x4 ADD PUSH2 0x63C SWAP3 SWAP2 SWAP1 PUSH2 0xD38 JUMP JUMPDEST PUSH1 0x40 MLOAD DUP1 SWAP2 SUB SWAP1 REVERT JUMPDEST PUSH1 0x0 PUSH1 0x1 PUSH1 0x0 DUP4 DUP2 MSTORE PUSH1 0x20 ADD SWAP1 DUP2 MSTORE PUSH1 0x20 ADD PUSH1 0x0 KECCAK256 PUSH1 0x0 PUSH2 0x100 EXP DUP2 SLOAD DUP2 PUSH1 0xFF MUL NOT AND SWAP1 DUP4 ISZERO ISZERO MUL OR SWAP1 SSTORE POP PUSH1 0x60 PUSH1 0x0 DUP9 DUP9 SWAP1 POP GT ISZERO PUSH2 0x6C1 JUMPI DUP8 DUP8 PUSH1 0x40 MLOAD PUSH2 0x68F SWAP3 SWAP2 SWAP1 PUSH2 0xE70 JUMP JUMPDEST PUSH1 0x40 MLOAD DUP1 SWAP2 SUB SWAP1 KECCAK256 DUP7 DUP7 PUSH1 0x40 MLOAD PUSH1 0x20 ADD PUSH2 0x6AB SWAP4 SWAP3 SWAP2 SWAP1 PUSH2 0xED6 JUMP JUMPDEST PUSH1 0x40 MLOAD PUSH1 0x20 DUP2 DUP4 SUB SUB DUP2 MSTORE SWAP1 PUSH1 0x40 MSTORE SWAP1 POP PUSH2 0x709 JUMP JUMPDEST DUP6 DUP6 DUP1 DUP1 PUSH1 0x1F ADD PUSH1 0x20 DUP1 SWAP2 DIV MUL PUSH1 0x20 ADD PUSH1 0x40 MLOAD SWAP1 DUP2 ADD PUSH1 0x40 MSTORE DUP1 SWAP4 SWAP3 SWAP2 SWAP1 DUP2 DUP2 MSTORE PUSH1 0x20 ADD DUP4 DUP4 DUP1 DUP3 DUP5 CALLDATACOPY PUSH1 0x0 DUP2 DUP5 ADD MSTORE PUSH1 0x1F NOT PUSH1 0x1F DUP3 ADD AND SWAP1 POP DUP1 DUP4 ADD SWAP3 POP POP POP POP POP POP POP SWAP1 POP JUMPDEST PUSH1 0x0 DUP1 DUP12 PUSH20 0xFFFFFFFFFFFFFFFFFFFFFFFFFFFFFFFFFFFFFFFF AND DUP12 DUP5 PUSH1 0x40 MLOAD PUSH2 0x732 SWAP2 SWAP1 PUSH2 0xF31 JUMP JUMPDEST PUSH1 0x0 PUSH1 0x40 MLOAD DUP1 DUP4 SUB DUP2 DUP6 DUP8 GAS CALL SWAP3 POP POP POP RETURNDATASIZE DUP1 PUSH1 0x0 DUP2 EQ PUSH2 0x76F JUMPI PUSH1 0x40 MLOAD SWAP2 POP PUSH1 0x1F NOT PUSH1 0x3F RETURNDATASIZE ADD AND DUP3 ADD PUSH1 0x40 MSTORE RETURNDATASIZE DUP3 MSTORE RETURNDATASIZE PUSH1 0x0 PUSH1 0x20 DUP5 ADD RETURNDATACOPY PUSH2 0x774 JUMP JUMPDEST PUSH1 0x60 SWAP2 POP JUMPDEST POP SWAP2 POP SWAP2 POP DUP2 PUSH2 0x7B0 JUMPI PUSH1 0x40 MLOAD PUSH32 0xD9B4F81E00000000000000000000000000000000000000000000000000000000 DUP2 MSTORE PUSH1 0x4 ADD PUSH1 0x40 MLOAD DUP1 SWAP2 SUB SWAP1 REVERT JUMPDEST PUSH32 0xD1D5C3C892C18716BD88852091D1B63DC6849E9D7C37F69D566884BF954D4BD9 DUP5 DUP14 DUP14 DUP14 DUP14 DUP14 DUP14 DUP14 PUSH1 0x40 MLOAD PUSH2 0x7ED SWAP9 SWAP8 SWAP7 SWAP6 SWAP5 SWAP4 SWAP3 SWAP2 SWAP1 PUSH2 0xF48 JUMP JUMPDEST PUSH1 0x40 MLOAD DUP1 SWAP2 SUB SWAP1 LOG1 DUP1 SWAP5 POP POP POP POP POP SWAP8 SWAP7 POP POP POP POP POP POP POP JUMP JUMPDEST PUSH2 0x3E8 DUP2 JUMP JUMPDEST PUSH1 0x0 DUP1 SLOAD SWAP1 PUSH2 0x100 EXP SWAP1 DIV PUSH20 0xFFFFFFFFFFFFFFFFFFFFFFFFFFFFFFFFFFFFFFFF AND PUSH20 0xFFFFFFFFFFFFFFFFFFFFFFFFFFFFFFFFFFFFFFFF AND CALLER PUSH20 0xFFFFFFFFFFFFFFFFFFFFFFFFFFFFFFFFFFFFFFFF AND EQ PUSH2 0x892 JUMPI PUSH1 0x40 MLOAD PUSH32 0x74A2152700000000000000000000000000000000000000000000000000000000 DUP2 MSTORE PUSH1 0x4 ADD PUSH1 0x40 MLOAD DUP1 SWAP2 SUB SWAP1 REVERT JUMPDEST PUSH1 0x1 PUSH1 0x0 DUP3 DUP2 MSTORE PUSH1 0x20 ADD SWAP1 DUP2 MSTORE PUSH1 0x20 ADD PUSH1 0x0 KECCAK256 PUSH1 0x0 SWAP1 SLOAD SWAP1 PUSH2 0x100 EXP SWAP1 DIV PUSH1 0xFF AND PUSH2 0x8F4 JUMPI DUP1 PUSH1 0x40 MLOAD PUSH32 0x995C9D500000000000000000000000000000000000000000000000000000000 DUP2 MSTORE PUSH1 0x4 ADD PUSH2 0x8EB SWAP2 SWAP1 PUSH2 0xBDE JUMP JUMPDEST PUSH1 0x40 MLOAD DUP1 SWAP2 SUB SWAP1 REVERT JUMPDEST POP JUMP JUMPDEST PUSH1 0x0 DUP1 REVERT JUMPDEST PUSH1 0x0 DUP1 REVERT JUMPDEST PUSH1 0x0 DUP2 SWAP1 POP SWAP2 SWAP1 POP JUMP JUMPDEST PUSH2 0x914 DUP2 PUSH2 0x901 JUMP JUMPDEST DUP2 EQ PUSH2 0x91F JUMPI PUSH1 0x0 DUP1 REVERT JUMPDEST POP JUMP JUMPDEST PUSH1 0x0 DUP2 CALLDATALOAD SWAP1 POP PUSH2 0x931 DUP2 PUSH2 0x90B JUMP JUMPDEST SWAP3 SWAP2 POP POP JUMP JUMPDEST PUSH1 0x0 PUSH1 0x20 DUP3 DUP5 SUB SLT ISZERO PUSH2 0x94D JUMPI PUSH2 0x94C PUSH2 0x8F7 JUMP JUMPDEST JUMPDEST PUSH1 0x0 PUSH2 0x95B DUP5 DUP3 DUP6 ADD PUSH2 0x922 JUMP JUMPDEST SWAP2 POP POP SWAP3 SWAP2 POP POP JUMP JUMPDEST PUSH1 0x0 DUP2 ISZERO ISZERO SWAP1 POP SWAP2 SWAP1 POP JUMP JUMPDEST PUSH2 0x979 DUP2 PUSH2 0x964 JUMP JUMPDEST DUP3 MSTORE POP POP JUMP JUMPDEST PUSH1 0x0 PUSH1 0x20 DUP3 ADD SWAP1 POP PUSH2 0x994 PUSH1 0x0 DUP4 ADD DUP5 PUSH2 0x970 JUMP JUMPDEST SWAP3 SWAP2 POP POP JUMP JUMPDEST PUSH1 0x0 DUP2 SWAP1 POP SWAP2 SWAP1 POP JUMP JUMPDEST PUSH2 0x9AD DUP2 PUSH2 0x99A JUMP JUMPDEST DUP3 MSTORE POP POP JUMP JUMPDEST PUSH1 0x0 PUSH1 0x20 DUP3 ADD SWAP1 POP PUSH2 0x9C8 PUSH1 0x0 DUP4 ADD DUP5 PUSH2 0x9A4 JUMP JUMPDEST SWAP3 SWAP2 POP POP JUMP JUMPDEST PUSH1 0x0 PUSH20 0xFFFFFFFFFFFFFFFFFFFFFFFFFFFFFFFFFFFFFFFF DUP3 AND SWAP1 POP SWAP2 SWAP1 POP JUMP JUMPDEST PUSH1 0x0 PUSH2 0x9F9 DUP3 PUSH2 0x9CE JUMP JUMPDEST SWAP1 POP SWAP2 SWAP1 POP JUMP JUMPDEST PUSH2 0xA09 DUP2 PUSH2 0x9EE JUMP JUMPDEST DUP2 EQ PUSH2 0xA14 JUMPI PUSH1 0x0 DUP1 REVERT JUMPDEST POP JUMP JUMPDEST PUSH1 0x0 DUP2 CALLDATALOAD SWAP1 POP PUSH2 0xA26 DUP2 PUSH2 0xA00 JUMP JUMPDEST SWAP3 SWAP2 POP POP JUMP JUMPDEST PUSH2 0xA35 DUP2 PUSH2 0x99A JUMP JUMPDEST DUP2 EQ PUSH2 0xA40 JUMPI PUSH1 0x0 DUP1 REVERT JUMPDEST POP JUMP JUMPDEST PUSH1 0x0 DUP2 CALLDATALOAD SWAP1 POP PUSH2 0xA52 DUP2 PUSH2 0xA2C JUMP JUMPDEST SWAP3 SWAP2 POP POP JUMP JUMPDEST PUSH1 0x0 DUP1 REVERT JUMPDEST PUSH1 0x0 DUP1 REVERT JUMPDEST PUSH1 0x0 DUP1 REVERT JUMPDEST PUSH1 0x0 DUP1 DUP4 PUSH1 0x1F DUP5 ADD SLT PUSH2 0xA7D JUMPI PUSH2 0xA7C PUSH2 0xA58 JUMP JUMPDEST JUMPDEST DUP3 CALLDATALOAD SWAP1 POP PUSH8 0xFFFFFFFFFFFFFFFF DUP2 GT ISZERO PUSH2 0xA9A JUMPI PUSH2 0xA99 PUSH2 0xA5D JUMP JUMPDEST JUMPDEST PUSH1 0x20 DUP4 ADD SWAP2 POP DUP4 PUSH1 0x1 DUP3 MUL DUP4 ADD GT ISZERO PUSH2 0xAB6 JUMPI PUSH2 0xAB5 PUSH2 0xA62 JUMP JUMPDEST JUMPDEST SWAP3 POP SWAP3 SWAP1 POP JUMP JUMPDEST PUSH1 0x0 DUP1 DUP4 PUSH1 0x1F DUP5 ADD SLT PUSH2 0xAD3 JUMPI PUSH2 0xAD2 PUSH2 0xA58 JUMP JUMPDEST JUMPDEST DUP3 CALLDATALOAD SWAP1 POP PUSH8 0xFFFFFFFFFFFFFFFF DUP2 GT ISZERO PUSH2 0xAF0 JUMPI PUSH2 0xAEF PUSH2 0xA5D JUMP JUMPDEST JUMPDEST PUSH1 0x20 DUP4 ADD SWAP2 POP DUP4 PUSH1 0x1 DUP3 MUL DUP4 ADD GT ISZERO PUSH2 0xB0C JUMPI PUSH2 0xB0B PUSH2 0xA62 JUMP JUMPDEST JUMPDEST SWAP3 POP SWAP3 SWAP1 POP JUMP JUMPDEST PUSH1 0x0 DUP1 PUSH1 0x0 DUP1 PUSH1 0x0 DUP1 PUSH1 0x0 PUSH1 0xA0 DUP9 DUP11 SUB SLT ISZERO PUSH2 0xB32 JUMPI PUSH2 0xB31 PUSH2 0x8F7 JUMP JUMPDEST JUMPDEST PUSH1 0x0 PUSH2 0xB40 DUP11 DUP3 DUP12 ADD PUSH2 0xA17 JUMP JUMPDEST SWAP8 POP POP PUSH1 0x20 PUSH2 0xB51 DUP11 DUP3 DUP12 ADD PUSH2 0xA43 JUMP JUMPDEST SWAP7 POP POP PUSH1 0x40 DUP9 ADD CALLDATALOAD PUSH8 0xFFFFFFFFFFFFFFFF DUP2 GT ISZERO PUSH2 0xB72 JUMPI PUSH2 0xB71 PUSH2 0x8FC JUMP JUMPDEST JUMPDEST PUSH2 0xB7E DUP11 DUP3 DUP12 ADD PUSH2 0xA67 JUMP JUMPDEST SWAP6 POP SWAP6 POP POP PUSH1 0x60 DUP9 ADD CALLDATALOAD PUSH8 0xFFFFFFFFFFFFFFFF DUP2 GT ISZERO PUSH2 0xBA1 JUMPI PUSH2 0xBA0 PUSH2 0x8FC JUMP JUMPDEST JUMPDEST PUSH2 0xBAD DUP11 DUP3 DUP12 ADD PUSH2 0xABD JUMP JUMPDEST SWAP4 POP SWAP4 POP POP PUSH1 0x80 PUSH2 0xBC0 DUP11 DUP3 DUP12 ADD PUSH2 0xA43 JUMP JUMPDEST SWAP2 POP POP SWAP3 SWAP6 SWAP9 SWAP2 SWAP5 SWAP8 POP SWAP3 SWAP6 POP JUMP JUMPDEST PUSH2 0xBD8 DUP2 PUSH2 0x901 JUMP JUMPDEST DUP3 MSTORE POP POP JUMP JUMPDEST PUSH1 0x0 PUSH1 0x20 DUP3 ADD SWAP1 POP PUSH2 0xBF3 PUSH1 0x0 DUP4 ADD DUP5 PUSH2 0xBCF JUMP JUMPDEST SWAP3 SWAP2 POP POP JUMP JUMPDEST PUSH2 0xC02 DUP2 PUSH2 0x9EE JUMP JUMPDEST DUP3 MSTORE POP POP JUMP JUMPDEST PUSH1 0x0 PUSH1 0x20 DUP3 ADD SWAP1 POP PUSH2 0xC1D PUSH1 0x0 DUP4 ADD DUP5 PUSH2 0xBF9 JUMP JUMPDEST SWAP3 SWAP2 POP POP JUMP JUMPDEST PUSH1 0x0 DUP2 MLOAD SWAP1 POP SWAP2 SWAP1 POP JUMP JUMPDEST PUSH1 0x0 DUP3 DUP3 MSTORE PUSH1 0x20 DUP3 ADD SWAP1 POP SWAP3 SWAP2 POP POP JUMP JUMPDEST PUSH1 0x0 JUMPDEST DUP4 DUP2 LT ISZERO PUSH2 0xC5D JUMPI DUP1 DUP3 ADD MLOAD DUP2 DUP5 ADD MSTORE PUSH1 0x20 DUP2 ADD SWAP1 POP PUSH2 0xC42 JUMP JUMPDEST PUSH1 0x0 DUP5 DUP5 ADD MSTORE POP POP POP POP JUMP JUMPDEST PUSH1 0x0 PUSH1 0x1F NOT PUSH1 0x1F DUP4 ADD AND SWAP1 POP SWAP2 SWAP1 POP JUMP JUMPDEST PUSH1 0x0 PUSH2 0xC85 DUP3 PUSH2 0xC23 JUMP JUMPDEST PUSH2 0xC8F DUP2 DUP6 PUSH2 0xC2E JUMP JUMPDEST SWAP4 POP PUSH2 0xC9F DUP2 DUP6 PUSH1 0x20 DUP7 ADD PUSH2 0xC3F JUMP JUMPDEST PUSH2 0xCA8 DUP2 PUSH2 0xC69 JUMP JUMPDEST DUP5 ADD SWAP2 POP POP SWAP3 SWAP2 POP POP JUMP JUMPDEST PUSH1 0x0 PUSH1 0x20 DUP3 ADD SWAP1 POP DUP2 DUP2 SUB PUSH1 0x0 DUP4 ADD MSTORE PUSH2 0xCCD DUP2 DUP5 PUSH2 0xC7A JUMP JUMPDEST SWAP1 POP SWAP3 SWAP2 POP POP JUMP JUMPDEST PUSH32 0x4E487B7100000000000000000000000000000000000000000000000000000000 PUSH1 0x0 MSTORE PUSH1 0x11 PUSH1 0x4 MSTORE PUSH1 0x24 PUSH1 0x0 REVERT JUMPDEST PUSH1 0x0 PUSH2 0xD0F DUP3 PUSH2 0x99A JUMP JUMPDEST SWAP2 POP PUSH2 0xD1A DUP4 PUSH2 0x99A JUMP JUMPDEST SWAP3 POP DUP3 DUP3 ADD SWAP1 POP DUP1 DUP3 GT ISZERO PUSH2 0xD32 JUMPI PUSH2 0xD31 PUSH2 0xCD5 JUMP JUMPDEST JUMPDEST SWAP3 SWAP2 POP POP JUMP JUMPDEST PUSH1 0x0 PUSH1 0x40 DUP3 ADD SWAP1 POP PUSH2 0xD4D PUSH1 0x0 DUP4 ADD DUP6 PUSH2 0x9A4 JUMP JUMPDEST PUSH2 0xD5A PUSH1 0x20 DUP4 ADD DUP5 PUSH2 0x9A4 JUMP JUMPDEST SWAP4 SWAP3 POP POP POP JUMP JUMPDEST PUSH1 0x0 DUP3 DUP3 MSTORE PUSH1 0x20 DUP3 ADD SWAP1 POP SWAP3 SWAP2 POP POP JUMP JUMPDEST DUP3 DUP2 DUP4 CALLDATACOPY PUSH1 0x0 DUP4 DUP4 ADD MSTORE POP POP POP JUMP JUMPDEST PUSH1 0x0 PUSH2 0xD8D DUP4 DUP6 PUSH2 0xD61 JUMP JUMPDEST SWAP4 POP PUSH2 0xD9A DUP4 DUP6 DUP5 PUSH2 0xD72 JUMP JUMPDEST PUSH2 0xDA3 DUP4 PUSH2 0xC69 JUMP JUMPDEST DUP5 ADD SWAP1 POP SWAP4 SWAP3 POP POP POP JUMP JUMPDEST PUSH1 0x0 PUSH2 0xDBA DUP4 DUP6 PUSH2 0xC2E JUMP JUMPDEST SWAP4 POP PUSH2 0xDC7 DUP4 DUP6 DUP5 PUSH2 0xD72 JUMP JUMPDEST PUSH2 0xDD0 DUP4 PUSH2 0xC69 JUMP JUMPDEST DUP5 ADD SWAP1 POP SWAP4 SWAP3 POP POP POP JUMP JUMPDEST PUSH1 0x0 PUSH1 0xA0 DUP3 ADD SWAP1 POP PUSH2 0xDF0 PUSH1 0x0 DUP4 ADD DUP11 PUSH2 0xBF9 JUMP JUMPDEST PUSH2 0xDFD PUSH1 0x20 DUP4 ADD DUP10 PUSH2 0x9A4 JUMP JUMPDEST DUP2 DUP2 SUB PUSH1 0x40 DUP4 ADD MSTORE PUSH2 0xE10 DUP2 DUP8 DUP10 PUSH2 0xD81 JUMP JUMPDEST SWAP1 POP DUP2 DUP2 SUB PUSH1 0x60 DUP4 ADD MSTORE PUSH2 0xE25 DUP2 DUP6 DUP8 PUSH2 0xDAE JUMP JUMPDEST SWAP1 POP PUSH2 0xE34 PUSH1 0x80 DUP4 ADD DUP5 PUSH2 0x9A4 JUMP JUMPDEST SWAP9 SWAP8 POP POP POP POP POP POP POP POP JUMP JUMPDEST PUSH1 0x0 DUP2 SWAP1 POP SWAP3 SWAP2 POP POP JUMP JUMPDEST PUSH1 0x0 PUSH2 0xE57 DUP4 DUP6 PUSH2 0xE40 JUMP JUMPDEST SWAP4 POP PUSH2 0xE64 DUP4 DUP6 DUP5 PUSH2 0xD72 JUMP JUMPDEST DUP3 DUP5 ADD SWAP1 POP SWAP4 SWAP3 POP POP POP JUMP JUMPDEST PUSH1 0x0 PUSH2 0xE7D DUP3 DUP5 DUP7 PUSH2 0xE4B JUMP JUMPDEST SWAP2 POP DUP2 SWAP1 POP SWAP4 SWAP3 POP POP POP JUMP JUMPDEST PUSH1 0x0 PUSH32 0xFFFFFFFF00000000000000000000000000000000000000000000000000000000 DUP3 AND SWAP1 POP SWAP2 SWAP1 POP JUMP JUMPDEST PUSH1 0x0 DUP2 SWAP1 POP SWAP2 SWAP1 POP JUMP JUMPDEST PUSH2 0xED0 PUSH2 0xECB DUP3 PUSH2 0xE89 JUMP JUMPDEST PUSH2 0xEB5 JUMP JUMPDEST DUP3 MSTORE POP POP JUMP JUMPDEST PUSH1 0x0 PUSH2 0xEE2 DUP3 DUP7 PUSH2 0xEBF JUMP JUMPDEST PUSH1 0x4 DUP3 ADD SWAP2 POP PUSH2 0xEF3 DUP3 DUP5 DUP7 PUSH2 0xE4B JUMP JUMPDEST SWAP2 POP DUP2 SWAP1 POP SWAP5 SWAP4 POP POP POP POP JUMP JUMPDEST PUSH1 0x0 PUSH2 0xF0B DUP3 PUSH2 0xC23 JUMP JUMPDEST PUSH2 0xF15 DUP2 DUP6 PUSH2 0xE40 JUMP JUMPDEST SWAP4 POP PUSH2 0xF25 DUP2 DUP6 PUSH1 0x20 DUP7 ADD PUSH2 0xC3F JUMP JUMPDEST DUP1 DUP5 ADD SWAP2 POP POP SWAP3 SWAP2 POP POP JUMP JUMPDEST PUSH1 0x0 PUSH2 0xF3D DUP3 DUP5 PUSH2 0xF00 JUMP JUMPDEST SWAP2 POP DUP2 SWAP1 POP SWAP3 SWAP2 POP POP JUMP JUMPDEST PUSH1 0x0 PUSH1 0xC0 DUP3 ADD SWAP1 POP PUSH2 0xF5D PUSH1 0x0 DUP4 ADD DUP12 PUSH2 0xBCF JUMP JUMPDEST PUSH2 0xF6A PUSH1 0x20 DUP4 ADD DUP11 PUSH2 0xBF9 JUMP JUMPDEST PUSH2 0xF77 PUSH1 0x40 DUP4 ADD DUP10 PUSH2 0x9A4 JUMP JUMPDEST DUP2 DUP2 SUB PUSH1 0x60 DUP4 ADD MSTORE PUSH2 0xF8A DUP2 DUP8 DUP10 PUSH2 0xD81 JUMP JUMPDEST SWAP1 POP DUP2 DUP2 SUB PUSH1 0x80 DUP4 ADD MSTORE PUSH2 0xF9F DUP2 DUP6 DUP8 PUSH2 0xDAE JUMP JUMPDEST SWAP1 POP PUSH2 0xFAE PUSH1 0xA0 DUP4 ADD DUP5 PUSH2 0x9A4 JUMP JUMPDEST SWAP10 SWAP9 POP POP POP POP POP POP POP POP POP JUMP INVALID LOG2 PUSH5 0x6970667358 0x22 SLT KECCAK256 LT BALANCE 0xDD RETURN 0xF6 0xB8 SLOAD CODECOPY MULMOD 0x2B 0xD4 MULMOD JUMPI 0xCD 0x2E DUP15 0x5F 0xCD LT PUSH19 0x9264A1875A3AA7D30AFBA9B264736F6C634300 ADDMOD GT STOP CALLER "
				},
				"gasEstimates": {
					"creation": {
						"codeDepositCost": "816200",
						"executionCost": "25117",
						"totalCost": "841317"
					},
					"external": {
						"GRACE_PERIOD()": "395",
						"MAX_DELAY()": "352",
						"MIN_DELAY()": "351",
						"cancel(bytes32)": "infinite",
						"execute(address,uint256,string,bytes,uint256)": "infinite",
						"getTxId(address,uint256,string,bytes,uint256)": "infinite",
						"owner()": "2511",
						"queue(address,uint256,string,bytes,uint256)": "infinite",
						"queued(bytes32)": "2797"
					}
				},
				"methodIdentifiers": {
					"GRACE_PERIOD()": "c1a287e2",
					"MAX_DELAY()": "4125ff90",
					"MIN_DELAY()": "9f81aed7",
					"cancel(bytes32)": "c4d252f5",
					"execute(address,uint256,string,bytes,uint256)": "b0f8b142",
					"getTxId(address,uint256,string,bytes,uint256)": "8a1ce0b6",
					"owner()": "8da5cb5b",
					"queue(address,uint256,string,bytes,uint256)": "4b9915a5",
					"queued(bytes32)": "228250c9"
				}
			},
			"storageLayout": {
				"storage": [
					{
						"astId": 68,
						"contract": "TimeLock.sol:TimeLock",
						"label": "owner",
						"offset": 0,
						"slot": "0",
						"type": "t_address"
					},
					{
						"astId": 72,
						"contract": "TimeLock.sol:TimeLock",
						"label": "queued",
						"offset": 0,
						"slot": "1",
						"type": "t_mapping(t_bytes32,t_bool)"
					}
				],
				"types": {
					"t_address": {
						"encoding": "inplace",
						"label": "address",
						"numberOfBytes": "20"
					},
					"t_bool": {
						"encoding": "inplace",
						"label": "bool",
						"numberOfBytes": "1"
					},
					"t_bytes32": {
						"encoding": "inplace",
						"label": "bytes32",
						"numberOfBytes": "32"
					},
					"t_mapping(t_bytes32,t_bool)": {
						"encoding": "mapping",
						"key": "t_bytes32",
						"label": "mapping(bytes32 => bool)",
						"numberOfBytes": "32",
						"value": "t_bool"
					}
				}
			},
			"userdoc": {
				"kind": "user",
				"methods": {},
				"version": 1
			}
		}
	}
}