{
	"TimeLock.sol": {
		"TimeLock": {
			"abi": [
				{
					"inputs": [],
					"stateMutability": "nonpayable",
					"type": "constructor"
				},
				{
					"inputs": [
						{
							"internalType": "bytes32",
							"name": "",
							"type": "bytes32"
						}
					],
					"name": "AlreadyQueuedError",
					"type": "error"
				},
				{
					"inputs": [],
					"name": "NotOwnerError",
					"type": "error"
				},
				{
					"inputs": [
						{
							"internalType": "bytes32",
							"name": "txId",
							"type": "bytes32"
						}
					],
					"name": "NotQueuedError",
					"type": "error"
				},
				{
					"inputs": [
						{
							"internalType": "uint256",
							"name": "blockTimestamp",
							"type": "uint256"
						},
						{
							"internalType": "uint256",
							"name": "timestamp",
							"type": "uint256"
						}
					],
					"name": "TimestampNotInRangeError",
					"type": "error"
				},
				{
					"inputs": [
						{
							"internalType": "uint256",
							"name": "blockTimestamp",
							"type": "uint256"
						},
						{
							"internalType": "uint256",
							"name": "timestamp",
							"type": "uint256"
						}
					],
					"name": "TimestampNotPassedError",
					"type": "error"
				},
				{
					"anonymous": false,
					"inputs": [
						{
							"indexed": false,
							"internalType": "address",
							"name": "_target",
							"type": "address"
						},
						{
							"indexed": false,
							"internalType": "uint256",
							"name": "_value",
							"type": "uint256"
						},
						{
							"indexed": false,
							"internalType": "string",
							"name": "_func",
							"type": "string"
						},
						{
							"indexed": false,
							"internalType": "bytes",
							"name": "_data",
							"type": "bytes"
						},
						{
							"indexed": false,
							"internalType": "uint256",
							"name": "_timestamp",
							"type": "uint256"
						}
					],
					"name": "Queue",
					"type": "event"
				},
				{
					"inputs": [],
					"name": "MAX_DELAY",
					"outputs": [
						{
							"internalType": "uint256",
							"name": "",
							"type": "uint256"
						}
					],
					"stateMutability": "view",
					"type": "function"
				},
				{
					"inputs": [],
					"name": "MIN_DELAY",
					"outputs": [
						{
							"internalType": "uint256",
							"name": "",
							"type": "uint256"
						}
					],
					"stateMutability": "view",
					"type": "function"
				},
				{
					"inputs": [
						{
							"internalType": "address",
							"name": "_target",
							"type": "address"
						},
						{
							"internalType": "uint256",
							"name": "_value",
							"type": "uint256"
						},
						{
							"internalType": "string",
							"name": "_func",
							"type": "string"
						},
						{
							"internalType": "bytes",
							"name": "_data",
							"type": "bytes"
						},
						{
							"internalType": "uint256",
							"name": "_timestamp",
							"type": "uint256"
						}
					],
					"name": "execute",
					"outputs": [
						{
							"internalType": "bytes",
							"name": "",
							"type": "bytes"
						}
					],
					"stateMutability": "payable",
					"type": "function"
				},
				{
					"inputs": [
						{
							"internalType": "address",
							"name": "_target",
							"type": "address"
						},
						{
							"internalType": "uint256",
							"name": "_value",
							"type": "uint256"
						},
						{
							"internalType": "string",
							"name": "_func",
							"type": "string"
						},
						{
							"internalType": "bytes",
							"name": "_data",
							"type": "bytes"
						},
						{
							"internalType": "uint256",
							"name": "_timestamp",
							"type": "uint256"
						}
					],
					"name": "getTxId",
					"outputs": [
						{
							"internalType": "bytes32",
							"name": "txId",
							"type": "bytes32"
						}
					],
					"stateMutability": "pure",
					"type": "function"
				},
				{
					"inputs": [],
					"name": "owner",
					"outputs": [
						{
							"internalType": "address",
							"name": "",
							"type": "address"
						}
					],
					"stateMutability": "view",
					"type": "function"
				},
				{
					"inputs": [
						{
							"internalType": "address",
							"name": "_target",
							"type": "address"
						},
						{
							"internalType": "uint256",
							"name": "_value",
							"type": "uint256"
						},
						{
							"internalType": "string",
							"name": "_func",
							"type": "string"
						},
						{
							"internalType": "bytes",
							"name": "_data",
							"type": "bytes"
						},
						{
							"internalType": "uint256",
							"name": "_timestamp",
							"type": "uint256"
						}
					],
					"name": "queue",
					"outputs": [],
					"stateMutability": "nonpayable",
					"type": "function"
				},
				{
					"inputs": [
						{
							"internalType": "bytes32",
							"name": "",
							"type": "bytes32"
						}
					],
					"name": "queued",
					"outputs": [
						{
							"internalType": "bool",
							"name": "",
							"type": "bool"
						}
					],
					"stateMutability": "view",
					"type": "function"
				}
			],
			"devdoc": {
				"kind": "dev",
				"methods": {},
				"version": 1
			},
			"evm": {
				"assembly": "    /* \"TimeLock.sol\":61:2314  contract TimeLock {... */\n  mstore(0x40, 0x80)\n    /* \"TimeLock.sol\":643:694  constructor() {... */\n  callvalue\n  dup1\n  iszero\n  tag_1\n  jumpi\n  0x00\n  dup1\n  revert\ntag_1:\n  pop\n    /* \"TimeLock.sol\":676:686  msg.sender */\n  caller\n    /* \"TimeLock.sol\":668:673  owner */\n  0x00\n  dup1\n    /* \"TimeLock.sol\":668:686  owner = msg.sender */\n  0x0100\n  exp\n  dup2\n  sload\n  dup2\n  0xffffffffffffffffffffffffffffffffffffffff\n  mul\n  not\n  and\n  swap1\n  dup4\n  0xffffffffffffffffffffffffffffffffffffffff\n  and\n  mul\n  or\n  swap1\n  sstore\n  pop\n    /* \"TimeLock.sol\":61:2314  contract TimeLock {... */\n  dataSize(sub_0)\n  dup1\n  dataOffset(sub_0)\n  0x00\n  codecopy\n  0x00\n  return\nstop\n\nsub_0: assembly {\n        /* \"TimeLock.sol\":61:2314  contract TimeLock {... */\n      mstore(0x40, 0x80)\n      jumpi(tag_1, lt(calldatasize, 0x04))\n      shr(0xe0, calldataload(0x00))\n      dup1\n      0x8a1ce0b6\n      gt\n      tag_9\n      jumpi\n      dup1\n      0x8a1ce0b6\n      eq\n      tag_5\n      jumpi\n      dup1\n      0x8da5cb5b\n      eq\n      tag_6\n      jumpi\n      dup1\n      0x9f81aed7\n      eq\n      tag_7\n      jumpi\n      dup1\n      0xb0f8b142\n      eq\n      tag_8\n      jumpi\n      jump(tag_1)\n    tag_9:\n      dup1\n      0x228250c9\n      eq\n      tag_2\n      jumpi\n      dup1\n      0x4125ff90\n      eq\n      tag_3\n      jumpi\n      dup1\n      0x4b9915a5\n      eq\n      tag_4\n      jumpi\n    tag_1:\n      0x00\n      dup1\n      revert\n        /* \"TimeLock.sol\":595:634  mapping (bytes32 => bool) public queued */\n    tag_2:\n      callvalue\n      dup1\n      iszero\n      tag_10\n      jumpi\n      0x00\n      dup1\n      revert\n    tag_10:\n      pop\n      tag_11\n      0x04\n      dup1\n      calldatasize\n      sub\n      dup2\n      add\n      swap1\n      tag_12\n      swap2\n      swap1\n      tag_13\n      jump\t// in\n    tag_12:\n      tag_14\n      jump\t// in\n    tag_11:\n      mload(0x40)\n      tag_15\n      swap2\n      swap1\n      tag_16\n      jump\t// in\n    tag_15:\n      mload(0x40)\n      dup1\n      swap2\n      sub\n      swap1\n      return\n        /* \"TimeLock.sol\":522:559  uint public constant MAX_DELAY = 1000 */\n    tag_3:\n      callvalue\n      dup1\n      iszero\n      tag_17\n      jumpi\n      0x00\n      dup1\n      revert\n    tag_17:\n      pop\n      tag_18\n      tag_19\n      jump\t// in\n    tag_18:\n      mload(0x40)\n      tag_20\n      swap2\n      swap1\n      tag_21\n      jump\t// in\n    tag_20:\n      mload(0x40)\n      dup1\n      swap2\n      sub\n      swap1\n      return\n        /* \"TimeLock.sol\":1133:1788  function queue(... */\n    tag_4:\n      callvalue\n      dup1\n      iszero\n      tag_22\n      jumpi\n      0x00\n      dup1\n      revert\n    tag_22:\n      pop\n      tag_23\n      0x04\n      dup1\n      calldatasize\n      sub\n      dup2\n      add\n      swap1\n      tag_24\n      swap2\n      swap1\n      tag_25\n      jump\t// in\n    tag_24:\n      tag_26\n      jump\t// in\n    tag_23:\n      stop\n        /* \"TimeLock.sol\":835:1125  function getTxId(address _target, uint _value, string calldata _func, bytes calldata _data, uint _timestamp) public pure returns (bytes32 txId) {... */\n    tag_5:\n      callvalue\n      dup1\n      iszero\n      tag_27\n      jumpi\n      0x00\n      dup1\n      revert\n    tag_27:\n      pop\n      tag_28\n      0x04\n      dup1\n      calldatasize\n      sub\n      dup2\n      add\n      swap1\n      tag_29\n      swap2\n      swap1\n      tag_25\n      jump\t// in\n    tag_29:\n      tag_30\n      jump\t// in\n    tag_28:\n      mload(0x40)\n      tag_31\n      swap2\n      swap1\n      tag_32\n      jump\t// in\n    tag_31:\n      mload(0x40)\n      dup1\n      swap2\n      sub\n      swap1\n      return\n        /* \"TimeLock.sol\":568:588  address public owner */\n    tag_6:\n      callvalue\n      dup1\n      iszero\n      tag_33\n      jumpi\n      0x00\n      dup1\n      revert\n    tag_33:\n      pop\n      tag_34\n      tag_35\n      jump\t// in\n    tag_34:\n      mload(0x40)\n      tag_36\n      swap2\n      swap1\n      tag_37\n      jump\t// in\n    tag_36:\n      mload(0x40)\n      dup1\n      swap2\n      sub\n      swap1\n      return\n        /* \"TimeLock.sol\":480:515  uint public constant MIN_DELAY = 10 */\n    tag_7:\n      callvalue\n      dup1\n      iszero\n      tag_38\n      jumpi\n      0x00\n      dup1\n      revert\n    tag_38:\n      pop\n      tag_39\n      tag_40\n      jump\t// in\n    tag_39:\n      mload(0x40)\n      tag_41\n      swap2\n      swap1\n      tag_21\n      jump\t// in\n    tag_41:\n      mload(0x40)\n      dup1\n      swap2\n      sub\n      swap1\n      return\n        /* \"TimeLock.sol\":1794:2311  function execute(... */\n    tag_8:\n      tag_42\n      0x04\n      dup1\n      calldatasize\n      sub\n      dup2\n      add\n      swap1\n      tag_43\n      swap2\n      swap1\n      tag_25\n      jump\t// in\n    tag_43:\n      tag_44\n      jump\t// in\n    tag_42:\n      mload(0x40)\n      tag_45\n      swap2\n      swap1\n      tag_46\n      jump\t// in\n    tag_45:\n      mload(0x40)\n      dup1\n      swap2\n      sub\n      swap1\n      return\n        /* \"TimeLock.sol\":595:634  mapping (bytes32 => bool) public queued */\n    tag_14:\n      mstore(0x20, 0x01)\n      dup1\n      0x00\n      mstore\n      keccak256(0x00, 0x40)\n      0x00\n      swap2\n      pop\n      sload\n      swap1\n      0x0100\n      exp\n      swap1\n      div\n      0xff\n      and\n      dup2\n      jump\t// out\n        /* \"TimeLock.sol\":522:559  uint public constant MAX_DELAY = 1000 */\n    tag_19:\n        /* \"TimeLock.sol\":555:559  1000 */\n      0x03e8\n        /* \"TimeLock.sol\":522:559  uint public constant MAX_DELAY = 1000 */\n      dup2\n      jump\t// out\n        /* \"TimeLock.sol\":1133:1788  function queue(... */\n    tag_26:\n        /* \"TimeLock.sol\":752:757  owner */\n      0x00\n      dup1\n      sload\n      swap1\n      0x0100\n      exp\n      swap1\n      div\n      0xffffffffffffffffffffffffffffffffffffffff\n      and\n        /* \"TimeLock.sol\":738:757  msg.sender != owner */\n      0xffffffffffffffffffffffffffffffffffffffff\n      and\n        /* \"TimeLock.sol\":738:748  msg.sender */\n      caller\n        /* \"TimeLock.sol\":738:757  msg.sender != owner */\n      0xffffffffffffffffffffffffffffffffffffffff\n      and\n      eq\n        /* \"TimeLock.sol\":734:808  if (msg.sender != owner) {... */\n      tag_48\n      jumpi\n        /* \"TimeLock.sol\":781:796  NotOwnerError() */\n      mload(0x40)\n      0x74a2152700000000000000000000000000000000000000000000000000000000\n      dup2\n      mstore\n      0x04\n      add\n      mload(0x40)\n      dup1\n      swap2\n      sub\n      swap1\n      revert\n        /* \"TimeLock.sol\":734:808  if (msg.sender != owner) {... */\n    tag_48:\n        /* \"TimeLock.sol\":1321:1333  bytes32 txId */\n      0x00\n        /* \"TimeLock.sol\":1336:1386  getTxId(_target, _value, _func, _data, _timestamp) */\n      tag_50\n        /* \"TimeLock.sol\":1344:1351  _target */\n      dup9\n        /* \"TimeLock.sol\":1353:1359  _value */\n      dup9\n        /* \"TimeLock.sol\":1361:1366  _func */\n      dup9\n      dup9\n        /* \"TimeLock.sol\":1368:1373  _data */\n      dup9\n      dup9\n        /* \"TimeLock.sol\":1375:1385  _timestamp */\n      dup9\n        /* \"TimeLock.sol\":1336:1343  getTxId */\n      tag_30\n        /* \"TimeLock.sol\":1336:1386  getTxId(_target, _value, _func, _data, _timestamp) */\n      jump\t// in\n    tag_50:\n        /* \"TimeLock.sol\":1321:1386  bytes32 txId = getTxId(_target, _value, _func, _data, _timestamp) */\n      swap1\n      pop\n        /* \"TimeLock.sol\":1401:1407  queued */\n      0x01\n        /* \"TimeLock.sol\":1401:1413  queued[txId] */\n      0x00\n        /* \"TimeLock.sol\":1408:1412  txId */\n      dup3\n        /* \"TimeLock.sol\":1401:1413  queued[txId] */\n      dup2\n      mstore\n      0x20\n      add\n      swap1\n      dup2\n      mstore\n      0x20\n      add\n      0x00\n      keccak256\n      0x00\n      swap1\n      sload\n      swap1\n      0x0100\n      exp\n      swap1\n      div\n      0xff\n      and\n        /* \"TimeLock.sol\":1397:1473  if (queued[txId]) {... */\n      iszero\n      tag_51\n      jumpi\n        /* \"TimeLock.sol\":1456:1460  txId */\n      dup1\n        /* \"TimeLock.sol\":1437:1461  AlreadyQueuedError(txId) */\n      mload(0x40)\n      0x995042be00000000000000000000000000000000000000000000000000000000\n      dup2\n      mstore\n      0x04\n      add\n      tag_52\n      swap2\n      swap1\n      tag_32\n      jump\t// in\n    tag_52:\n      mload(0x40)\n      dup1\n      swap2\n      sub\n      swap1\n      revert\n        /* \"TimeLock.sol\":1397:1473  if (queued[txId]) {... */\n    tag_51:\n        /* \"TimeLock.sol\":513:515  10 */\n      0x0a\n        /* \"TimeLock.sol\":1500:1515  block.timestamp */\n      timestamp\n        /* \"TimeLock.sol\":1500:1527  block.timestamp + MIN_DELAY */\n      tag_53\n      swap2\n      swap1\n      tag_54\n      jump\t// in\n    tag_53:\n        /* \"TimeLock.sol\":1487:1497  _timestamp */\n      dup3\n        /* \"TimeLock.sol\":1487:1527  _timestamp < block.timestamp + MIN_DELAY */\n      lt\n        /* \"TimeLock.sol\":1487:1584  _timestamp < block.timestamp + MIN_DELAY ||... */\n      dup1\n      tag_55\n      jumpi\n      pop\n        /* \"TimeLock.sol\":555:559  1000 */\n      0x03e8\n        /* \"TimeLock.sol\":1557:1572  block.timestamp */\n      timestamp\n        /* \"TimeLock.sol\":1557:1584  block.timestamp + MAX_DELAY */\n      tag_56\n      swap2\n      swap1\n      tag_54\n      jump\t// in\n    tag_56:\n        /* \"TimeLock.sol\":1544:1554  _timestamp */\n      dup3\n        /* \"TimeLock.sol\":1544:1584  _timestamp > block.timestamp + MAX_DELAY */\n      gt\n        /* \"TimeLock.sol\":1487:1584  _timestamp < block.timestamp + MIN_DELAY ||... */\n    tag_55:\n        /* \"TimeLock.sol\":1483:1683  if (_timestamp < block.timestamp + MIN_DELAY ||... */\n      iszero\n      tag_57\n      jumpi\n        /* \"TimeLock.sol\":1643:1658  block.timestamp */\n      timestamp\n        /* \"TimeLock.sol\":1660:1670  _timestamp */\n      dup3\n        /* \"TimeLock.sol\":1618:1671  TimestampNotInRangeError(block.timestamp, _timestamp) */\n      mload(0x40)\n      0x1a9616c200000000000000000000000000000000000000000000000000000000\n      dup2\n      mstore\n      0x04\n      add\n      tag_58\n      swap3\n      swap2\n      swap1\n      tag_59\n      jump\t// in\n    tag_58:\n      mload(0x40)\n      dup1\n      swap2\n      sub\n      swap1\n      revert\n        /* \"TimeLock.sol\":1483:1683  if (_timestamp < block.timestamp + MIN_DELAY ||... */\n    tag_57:\n        /* \"TimeLock.sol\":1710:1714  true */\n      0x01\n        /* \"TimeLock.sol\":1695:1701  queued */\n      dup1\n        /* \"TimeLock.sol\":1695:1707  queued[txId] */\n      0x00\n        /* \"TimeLock.sol\":1702:1706  txId */\n      dup4\n        /* \"TimeLock.sol\":1695:1707  queued[txId] */\n      dup2\n      mstore\n      0x20\n      add\n      swap1\n      dup2\n      mstore\n      0x20\n      add\n      0x00\n      keccak256\n      0x00\n        /* \"TimeLock.sol\":1695:1714  queued[txId] = true */\n      0x0100\n      exp\n      dup2\n      sload\n      dup2\n      0xff\n      mul\n      not\n      and\n      swap1\n      dup4\n      iszero\n      iszero\n      mul\n      or\n      swap1\n      sstore\n      pop\n        /* \"TimeLock.sol\":1732:1780  Queue(_target, _value, _func, _data, _timestamp) */\n      0x1be0a5a53718dba1a6179a0fd8bc0a5c332a89f9a2d8d58a23fc6f0f15ab3caf\n        /* \"TimeLock.sol\":1738:1745  _target */\n      dup9\n        /* \"TimeLock.sol\":1747:1753  _value */\n      dup9\n        /* \"TimeLock.sol\":1755:1760  _func */\n      dup9\n      dup9\n        /* \"TimeLock.sol\":1762:1767  _data */\n      dup9\n      dup9\n        /* \"TimeLock.sol\":1769:1779  _timestamp */\n      dup9\n        /* \"TimeLock.sol\":1732:1780  Queue(_target, _value, _func, _data, _timestamp) */\n      mload(0x40)\n      tag_60\n      swap8\n      swap7\n      swap6\n      swap5\n      swap4\n      swap3\n      swap2\n      swap1\n      tag_61\n      jump\t// in\n    tag_60:\n      mload(0x40)\n      dup1\n      swap2\n      sub\n      swap1\n      log1\n        /* \"TimeLock.sol\":1310:1788  {... */\n      pop\n        /* \"TimeLock.sol\":1133:1788  function queue(... */\n      pop\n      pop\n      pop\n      pop\n      pop\n      pop\n      pop\n      jump\t// out\n        /* \"TimeLock.sol\":835:1125  function getTxId(address _target, uint _value, string calldata _func, bytes calldata _data, uint _timestamp) public pure returns (bytes32 txId) {... */\n    tag_30:\n        /* \"TimeLock.sol\":965:977  bytes32 txId */\n      0x00\n        /* \"TimeLock.sol\":1050:1057  _target */\n      dup8\n        /* \"TimeLock.sol\":1059:1065  _value */\n      dup8\n        /* \"TimeLock.sol\":1067:1072  _func */\n      dup8\n      dup8\n        /* \"TimeLock.sol\":1074:1079  _data */\n      dup8\n      dup8\n        /* \"TimeLock.sol\":1081:1091  _timestamp */\n      dup8\n        /* \"TimeLock.sol\":1021:1106  abi.encode(... */\n      add(0x20, mload(0x40))\n      tag_63\n      swap8\n      swap7\n      swap6\n      swap5\n      swap4\n      swap3\n      swap2\n      swap1\n      tag_61\n      jump\t// in\n    tag_63:\n      mload(0x40)\n      0x20\n      dup2\n      dup4\n      sub\n      sub\n      dup2\n      mstore\n      swap1\n      0x40\n      mstore\n        /* \"TimeLock.sol\":997:1117  keccak256(... */\n      dup1\n      mload\n      swap1\n      0x20\n      add\n      keccak256\n        /* \"TimeLock.sol\":990:1117  return keccak256(... */\n      swap1\n      pop\n        /* \"TimeLock.sol\":835:1125  function getTxId(address _target, uint _value, string calldata _func, bytes calldata _data, uint _timestamp) public pure returns (bytes32 txId) {... */\n      swap8\n      swap7\n      pop\n      pop\n      pop\n      pop\n      pop\n      pop\n      pop\n      jump\t// out\n        /* \"TimeLock.sol\":568:588  address public owner */\n    tag_35:\n      0x00\n      dup1\n      sload\n      swap1\n      0x0100\n      exp\n      swap1\n      div\n      0xffffffffffffffffffffffffffffffffffffffff\n      and\n      dup2\n      jump\t// out\n        /* \"TimeLock.sol\":480:515  uint public constant MIN_DELAY = 10 */\n    tag_40:\n        /* \"TimeLock.sol\":513:515  10 */\n      0x0a\n        /* \"TimeLock.sol\":480:515  uint public constant MIN_DELAY = 10 */\n      dup2\n      jump\t// out\n        /* \"TimeLock.sol\":1794:2311  function execute(... */\n    tag_44:\n        /* \"TimeLock.sol\":1991:2003  bytes memory */\n      0x60\n        /* \"TimeLock.sol\":752:757  owner */\n      0x00\n      dup1\n      sload\n      swap1\n      0x0100\n      exp\n      swap1\n      div\n      0xffffffffffffffffffffffffffffffffffffffff\n      and\n        /* \"TimeLock.sol\":738:757  msg.sender != owner */\n      0xffffffffffffffffffffffffffffffffffffffff\n      and\n        /* \"TimeLock.sol\":738:748  msg.sender */\n      caller\n        /* \"TimeLock.sol\":738:757  msg.sender != owner */\n      0xffffffffffffffffffffffffffffffffffffffff\n      and\n      eq\n        /* \"TimeLock.sol\":734:808  if (msg.sender != owner) {... */\n      tag_65\n      jumpi\n        /* \"TimeLock.sol\":781:796  NotOwnerError() */\n      mload(0x40)\n      0x74a2152700000000000000000000000000000000000000000000000000000000\n      dup2\n      mstore\n      0x04\n      add\n      mload(0x40)\n      dup1\n      swap2\n      sub\n      swap1\n      revert\n        /* \"TimeLock.sol\":734:808  if (msg.sender != owner) {... */\n    tag_65:\n        /* \"TimeLock.sol\":2015:2027  bytes32 txId */\n      0x00\n        /* \"TimeLock.sol\":2030:2080  getTxId(_target, _value, _func, _data, _timestamp) */\n      tag_67\n        /* \"TimeLock.sol\":2038:2045  _target */\n      dup10\n        /* \"TimeLock.sol\":2047:2053  _value */\n      dup10\n        /* \"TimeLock.sol\":2055:2060  _func */\n      dup10\n      dup10\n        /* \"TimeLock.sol\":2062:2067  _data */\n      dup10\n      dup10\n        /* \"TimeLock.sol\":2069:2079  _timestamp */\n      dup10\n        /* \"TimeLock.sol\":2030:2037  getTxId */\n      tag_30\n        /* \"TimeLock.sol\":2030:2080  getTxId(_target, _value, _func, _data, _timestamp) */\n      jump\t// in\n    tag_67:\n        /* \"TimeLock.sol\":2015:2080  bytes32 txId = getTxId(_target, _value, _func, _data, _timestamp) */\n      swap1\n      pop\n        /* \"TimeLock.sol\":2096:2102  queued */\n      0x01\n        /* \"TimeLock.sol\":2096:2108  queued[txId] */\n      0x00\n        /* \"TimeLock.sol\":2103:2107  txId */\n      dup3\n        /* \"TimeLock.sol\":2096:2108  queued[txId] */\n      dup2\n      mstore\n      0x20\n      add\n      swap1\n      dup2\n      mstore\n      0x20\n      add\n      0x00\n      keccak256\n      0x00\n      swap1\n      sload\n      swap1\n      0x0100\n      exp\n      swap1\n      div\n      0xff\n      and\n        /* \"TimeLock.sol\":2091:2164  if (!queued[txId]) {... */\n      tag_68\n      jumpi\n        /* \"TimeLock.sol\":2147:2151  txId */\n      dup1\n        /* \"TimeLock.sol\":2132:2152  NotQueuedError(txId) */\n      mload(0x40)\n      0x0995c9d500000000000000000000000000000000000000000000000000000000\n      dup2\n      mstore\n      0x04\n      add\n      tag_69\n      swap2\n      swap1\n      tag_32\n      jump\t// in\n    tag_69:\n      mload(0x40)\n      dup1\n      swap2\n      sub\n      swap1\n      revert\n        /* \"TimeLock.sol\":2091:2164  if (!queued[txId]) {... */\n    tag_68:\n        /* \"TimeLock.sol\":2196:2206  _timestamp */\n      dup3\n        /* \"TimeLock.sol\":2178:2193  block.timestamp */\n      timestamp\n        /* \"TimeLock.sol\":2178:2206  block.timestamp < _timestamp */\n      lt\n        /* \"TimeLock.sol\":2174:2294  if (block.timestamp < _timestamp) {... */\n      iszero\n      tag_70\n      jumpi\n        /* \"TimeLock.sol\":2254:2269  block.timestamp */\n      timestamp\n        /* \"TimeLock.sol\":2271:2281  _timestamp */\n      dup4\n        /* \"TimeLock.sol\":2230:2282  TimestampNotPassedError(block.timestamp, _timestamp) */\n      mload(0x40)\n      0x035fce5b00000000000000000000000000000000000000000000000000000000\n      dup2\n      mstore\n      0x04\n      add\n      tag_71\n      swap3\n      swap2\n      swap1\n      tag_59\n      jump\t// in\n    tag_71:\n      mload(0x40)\n      dup1\n      swap2\n      sub\n      swap1\n      revert\n        /* \"TimeLock.sol\":2174:2294  if (block.timestamp < _timestamp) {... */\n    tag_70:\n        /* \"TimeLock.sol\":2004:2311  {... */\n      pop\n        /* \"TimeLock.sol\":1794:2311  function execute(... */\n      swap8\n      swap7\n      pop\n      pop\n      pop\n      pop\n      pop\n      pop\n      pop\n      jump\t// out\n        /* \"#utility.yul\":88:205   */\n    tag_73:\n        /* \"#utility.yul\":197:198   */\n      0x00\n        /* \"#utility.yul\":194:195   */\n      dup1\n        /* \"#utility.yul\":187:199   */\n      revert\n        /* \"#utility.yul\":211:328   */\n    tag_74:\n        /* \"#utility.yul\":320:321   */\n      0x00\n        /* \"#utility.yul\":317:318   */\n      dup1\n        /* \"#utility.yul\":310:322   */\n      revert\n        /* \"#utility.yul\":334:411   */\n    tag_75:\n        /* \"#utility.yul\":371:378   */\n      0x00\n        /* \"#utility.yul\":400:405   */\n      dup2\n        /* \"#utility.yul\":389:405   */\n      swap1\n      pop\n        /* \"#utility.yul\":334:411   */\n      swap2\n      swap1\n      pop\n      jump\t// out\n        /* \"#utility.yul\":417:539   */\n    tag_76:\n        /* \"#utility.yul\":490:514   */\n      tag_111\n        /* \"#utility.yul\":508:513   */\n      dup2\n        /* \"#utility.yul\":490:514   */\n      tag_75\n      jump\t// in\n    tag_111:\n        /* \"#utility.yul\":483:488   */\n      dup2\n        /* \"#utility.yul\":480:515   */\n      eq\n        /* \"#utility.yul\":470:533   */\n      tag_112\n      jumpi\n        /* \"#utility.yul\":529:530   */\n      0x00\n        /* \"#utility.yul\":526:527   */\n      dup1\n        /* \"#utility.yul\":519:531   */\n      revert\n        /* \"#utility.yul\":470:533   */\n    tag_112:\n        /* \"#utility.yul\":417:539   */\n      pop\n      jump\t// out\n        /* \"#utility.yul\":545:684   */\n    tag_77:\n        /* \"#utility.yul\":591:596   */\n      0x00\n        /* \"#utility.yul\":629:635   */\n      dup2\n        /* \"#utility.yul\":616:636   */\n      calldataload\n        /* \"#utility.yul\":607:636   */\n      swap1\n      pop\n        /* \"#utility.yul\":645:678   */\n      tag_114\n        /* \"#utility.yul\":672:677   */\n      dup2\n        /* \"#utility.yul\":645:678   */\n      tag_76\n      jump\t// in\n    tag_114:\n        /* \"#utility.yul\":545:684   */\n      swap3\n      swap2\n      pop\n      pop\n      jump\t// out\n        /* \"#utility.yul\":690:1019   */\n    tag_13:\n        /* \"#utility.yul\":749:755   */\n      0x00\n        /* \"#utility.yul\":798:800   */\n      0x20\n        /* \"#utility.yul\":786:795   */\n      dup3\n        /* \"#utility.yul\":777:784   */\n      dup5\n        /* \"#utility.yul\":773:796   */\n      sub\n        /* \"#utility.yul\":769:801   */\n      slt\n        /* \"#utility.yul\":766:885   */\n      iszero\n      tag_116\n      jumpi\n        /* \"#utility.yul\":804:883   */\n      tag_117\n      tag_73\n      jump\t// in\n    tag_117:\n        /* \"#utility.yul\":766:885   */\n    tag_116:\n        /* \"#utility.yul\":924:925   */\n      0x00\n        /* \"#utility.yul\":949:1002   */\n      tag_118\n        /* \"#utility.yul\":994:1001   */\n      dup5\n        /* \"#utility.yul\":985:991   */\n      dup3\n        /* \"#utility.yul\":974:983   */\n      dup6\n        /* \"#utility.yul\":970:992   */\n      add\n        /* \"#utility.yul\":949:1002   */\n      tag_77\n      jump\t// in\n    tag_118:\n        /* \"#utility.yul\":939:1002   */\n      swap2\n      pop\n        /* \"#utility.yul\":895:1012   */\n      pop\n        /* \"#utility.yul\":690:1019   */\n      swap3\n      swap2\n      pop\n      pop\n      jump\t// out\n        /* \"#utility.yul\":1025:1115   */\n    tag_78:\n        /* \"#utility.yul\":1059:1066   */\n      0x00\n        /* \"#utility.yul\":1102:1107   */\n      dup2\n        /* \"#utility.yul\":1095:1108   */\n      iszero\n        /* \"#utility.yul\":1088:1109   */\n      iszero\n        /* \"#utility.yul\":1077:1109   */\n      swap1\n      pop\n        /* \"#utility.yul\":1025:1115   */\n      swap2\n      swap1\n      pop\n      jump\t// out\n        /* \"#utility.yul\":1121:1230   */\n    tag_79:\n        /* \"#utility.yul\":1202:1223   */\n      tag_121\n        /* \"#utility.yul\":1217:1222   */\n      dup2\n        /* \"#utility.yul\":1202:1223   */\n      tag_78\n      jump\t// in\n    tag_121:\n        /* \"#utility.yul\":1197:1200   */\n      dup3\n        /* \"#utility.yul\":1190:1224   */\n      mstore\n        /* \"#utility.yul\":1121:1230   */\n      pop\n      pop\n      jump\t// out\n        /* \"#utility.yul\":1236:1446   */\n    tag_16:\n        /* \"#utility.yul\":1323:1327   */\n      0x00\n        /* \"#utility.yul\":1361:1363   */\n      0x20\n        /* \"#utility.yul\":1350:1359   */\n      dup3\n        /* \"#utility.yul\":1346:1364   */\n      add\n        /* \"#utility.yul\":1338:1364   */\n      swap1\n      pop\n        /* \"#utility.yul\":1374:1439   */\n      tag_123\n        /* \"#utility.yul\":1436:1437   */\n      0x00\n        /* \"#utility.yul\":1425:1434   */\n      dup4\n        /* \"#utility.yul\":1421:1438   */\n      add\n        /* \"#utility.yul\":1412:1418   */\n      dup5\n        /* \"#utility.yul\":1374:1439   */\n      tag_79\n      jump\t// in\n    tag_123:\n        /* \"#utility.yul\":1236:1446   */\n      swap3\n      swap2\n      pop\n      pop\n      jump\t// out\n        /* \"#utility.yul\":1452:1529   */\n    tag_80:\n        /* \"#utility.yul\":1489:1496   */\n      0x00\n        /* \"#utility.yul\":1518:1523   */\n      dup2\n        /* \"#utility.yul\":1507:1523   */\n      swap1\n      pop\n        /* \"#utility.yul\":1452:1529   */\n      swap2\n      swap1\n      pop\n      jump\t// out\n        /* \"#utility.yul\":1535:1653   */\n    tag_81:\n        /* \"#utility.yul\":1622:1646   */\n      tag_126\n        /* \"#utility.yul\":1640:1645   */\n      dup2\n        /* \"#utility.yul\":1622:1646   */\n      tag_80\n      jump\t// in\n    tag_126:\n        /* \"#utility.yul\":1617:1620   */\n      dup3\n        /* \"#utility.yul\":1610:1647   */\n      mstore\n        /* \"#utility.yul\":1535:1653   */\n      pop\n      pop\n      jump\t// out\n        /* \"#utility.yul\":1659:1881   */\n    tag_21:\n        /* \"#utility.yul\":1752:1756   */\n      0x00\n        /* \"#utility.yul\":1790:1792   */\n      0x20\n        /* \"#utility.yul\":1779:1788   */\n      dup3\n        /* \"#utility.yul\":1775:1793   */\n      add\n        /* \"#utility.yul\":1767:1793   */\n      swap1\n      pop\n        /* \"#utility.yul\":1803:1874   */\n      tag_128\n        /* \"#utility.yul\":1871:1872   */\n      0x00\n        /* \"#utility.yul\":1860:1869   */\n      dup4\n        /* \"#utility.yul\":1856:1873   */\n      add\n        /* \"#utility.yul\":1847:1853   */\n      dup5\n        /* \"#utility.yul\":1803:1874   */\n      tag_81\n      jump\t// in\n    tag_128:\n        /* \"#utility.yul\":1659:1881   */\n      swap3\n      swap2\n      pop\n      pop\n      jump\t// out\n        /* \"#utility.yul\":1887:2013   */\n    tag_82:\n        /* \"#utility.yul\":1924:1931   */\n      0x00\n        /* \"#utility.yul\":1964:2006   */\n      0xffffffffffffffffffffffffffffffffffffffff\n        /* \"#utility.yul\":1957:1962   */\n      dup3\n        /* \"#utility.yul\":1953:2007   */\n      and\n        /* \"#utility.yul\":1942:2007   */\n      swap1\n      pop\n        /* \"#utility.yul\":1887:2013   */\n      swap2\n      swap1\n      pop\n      jump\t// out\n        /* \"#utility.yul\":2019:2115   */\n    tag_83:\n        /* \"#utility.yul\":2056:2063   */\n      0x00\n        /* \"#utility.yul\":2085:2109   */\n      tag_131\n        /* \"#utility.yul\":2103:2108   */\n      dup3\n        /* \"#utility.yul\":2085:2109   */\n      tag_82\n      jump\t// in\n    tag_131:\n        /* \"#utility.yul\":2074:2109   */\n      swap1\n      pop\n        /* \"#utility.yul\":2019:2115   */\n      swap2\n      swap1\n      pop\n      jump\t// out\n        /* \"#utility.yul\":2121:2243   */\n    tag_84:\n        /* \"#utility.yul\":2194:2218   */\n      tag_133\n        /* \"#utility.yul\":2212:2217   */\n      dup2\n        /* \"#utility.yul\":2194:2218   */\n      tag_83\n      jump\t// in\n    tag_133:\n        /* \"#utility.yul\":2187:2192   */\n      dup2\n        /* \"#utility.yul\":2184:2219   */\n      eq\n        /* \"#utility.yul\":2174:2237   */\n      tag_134\n      jumpi\n        /* \"#utility.yul\":2233:2234   */\n      0x00\n        /* \"#utility.yul\":2230:2231   */\n      dup1\n        /* \"#utility.yul\":2223:2235   */\n      revert\n        /* \"#utility.yul\":2174:2237   */\n    tag_134:\n        /* \"#utility.yul\":2121:2243   */\n      pop\n      jump\t// out\n        /* \"#utility.yul\":2249:2388   */\n    tag_85:\n        /* \"#utility.yul\":2295:2300   */\n      0x00\n        /* \"#utility.yul\":2333:2339   */\n      dup2\n        /* \"#utility.yul\":2320:2340   */\n      calldataload\n        /* \"#utility.yul\":2311:2340   */\n      swap1\n      pop\n        /* \"#utility.yul\":2349:2382   */\n      tag_136\n        /* \"#utility.yul\":2376:2381   */\n      dup2\n        /* \"#utility.yul\":2349:2382   */\n      tag_84\n      jump\t// in\n    tag_136:\n        /* \"#utility.yul\":2249:2388   */\n      swap3\n      swap2\n      pop\n      pop\n      jump\t// out\n        /* \"#utility.yul\":2394:2516   */\n    tag_86:\n        /* \"#utility.yul\":2467:2491   */\n      tag_138\n        /* \"#utility.yul\":2485:2490   */\n      dup2\n        /* \"#utility.yul\":2467:2491   */\n      tag_80\n      jump\t// in\n    tag_138:\n        /* \"#utility.yul\":2460:2465   */\n      dup2\n        /* \"#utility.yul\":2457:2492   */\n      eq\n        /* \"#utility.yul\":2447:2510   */\n      tag_139\n      jumpi\n        /* \"#utility.yul\":2506:2507   */\n      0x00\n        /* \"#utility.yul\":2503:2504   */\n      dup1\n        /* \"#utility.yul\":2496:2508   */\n      revert\n        /* \"#utility.yul\":2447:2510   */\n    tag_139:\n        /* \"#utility.yul\":2394:2516   */\n      pop\n      jump\t// out\n        /* \"#utility.yul\":2522:2661   */\n    tag_87:\n        /* \"#utility.yul\":2568:2573   */\n      0x00\n        /* \"#utility.yul\":2606:2612   */\n      dup2\n        /* \"#utility.yul\":2593:2613   */\n      calldataload\n        /* \"#utility.yul\":2584:2613   */\n      swap1\n      pop\n        /* \"#utility.yul\":2622:2655   */\n      tag_141\n        /* \"#utility.yul\":2649:2654   */\n      dup2\n        /* \"#utility.yul\":2622:2655   */\n      tag_86\n      jump\t// in\n    tag_141:\n        /* \"#utility.yul\":2522:2661   */\n      swap3\n      swap2\n      pop\n      pop\n      jump\t// out\n        /* \"#utility.yul\":2667:2784   */\n    tag_88:\n        /* \"#utility.yul\":2776:2777   */\n      0x00\n        /* \"#utility.yul\":2773:2774   */\n      dup1\n        /* \"#utility.yul\":2766:2778   */\n      revert\n        /* \"#utility.yul\":2790:2907   */\n    tag_89:\n        /* \"#utility.yul\":2899:2900   */\n      0x00\n        /* \"#utility.yul\":2896:2897   */\n      dup1\n        /* \"#utility.yul\":2889:2901   */\n      revert\n        /* \"#utility.yul\":2913:3030   */\n    tag_90:\n        /* \"#utility.yul\":3022:3023   */\n      0x00\n        /* \"#utility.yul\":3019:3020   */\n      dup1\n        /* \"#utility.yul\":3012:3024   */\n      revert\n        /* \"#utility.yul\":3050:3603   */\n    tag_91:\n        /* \"#utility.yul\":3108:3116   */\n      0x00\n        /* \"#utility.yul\":3118:3124   */\n      dup1\n        /* \"#utility.yul\":3168:3171   */\n      dup4\n        /* \"#utility.yul\":3161:3165   */\n      0x1f\n        /* \"#utility.yul\":3153:3159   */\n      dup5\n        /* \"#utility.yul\":3149:3166   */\n      add\n        /* \"#utility.yul\":3145:3172   */\n      slt\n        /* \"#utility.yul\":3135:3257   */\n      tag_146\n      jumpi\n        /* \"#utility.yul\":3176:3255   */\n      tag_147\n      tag_88\n      jump\t// in\n    tag_147:\n        /* \"#utility.yul\":3135:3257   */\n    tag_146:\n        /* \"#utility.yul\":3289:3295   */\n      dup3\n        /* \"#utility.yul\":3276:3296   */\n      calldataload\n        /* \"#utility.yul\":3266:3296   */\n      swap1\n      pop\n        /* \"#utility.yul\":3319:3337   */\n      0xffffffffffffffff\n        /* \"#utility.yul\":3311:3317   */\n      dup2\n        /* \"#utility.yul\":3308:3338   */\n      gt\n        /* \"#utility.yul\":3305:3422   */\n      iszero\n      tag_148\n      jumpi\n        /* \"#utility.yul\":3341:3420   */\n      tag_149\n      tag_89\n      jump\t// in\n    tag_149:\n        /* \"#utility.yul\":3305:3422   */\n    tag_148:\n        /* \"#utility.yul\":3455:3459   */\n      0x20\n        /* \"#utility.yul\":3447:3453   */\n      dup4\n        /* \"#utility.yul\":3443:3460   */\n      add\n        /* \"#utility.yul\":3431:3460   */\n      swap2\n      pop\n        /* \"#utility.yul\":3509:3512   */\n      dup4\n        /* \"#utility.yul\":3501:3505   */\n      0x01\n        /* \"#utility.yul\":3493:3499   */\n      dup3\n        /* \"#utility.yul\":3489:3506   */\n      mul\n        /* \"#utility.yul\":3479:3487   */\n      dup4\n        /* \"#utility.yul\":3475:3507   */\n      add\n        /* \"#utility.yul\":3472:3513   */\n      gt\n        /* \"#utility.yul\":3469:3597   */\n      iszero\n      tag_150\n      jumpi\n        /* \"#utility.yul\":3516:3595   */\n      tag_151\n      tag_90\n      jump\t// in\n    tag_151:\n        /* \"#utility.yul\":3469:3597   */\n    tag_150:\n        /* \"#utility.yul\":3050:3603   */\n      swap3\n      pop\n      swap3\n      swap1\n      pop\n      jump\t// out\n        /* \"#utility.yul\":3622:4174   */\n    tag_92:\n        /* \"#utility.yul\":3679:3687   */\n      0x00\n        /* \"#utility.yul\":3689:3695   */\n      dup1\n        /* \"#utility.yul\":3739:3742   */\n      dup4\n        /* \"#utility.yul\":3732:3736   */\n      0x1f\n        /* \"#utility.yul\":3724:3730   */\n      dup5\n        /* \"#utility.yul\":3720:3737   */\n      add\n        /* \"#utility.yul\":3716:3743   */\n      slt\n        /* \"#utility.yul\":3706:3828   */\n      tag_153\n      jumpi\n        /* \"#utility.yul\":3747:3826   */\n      tag_154\n      tag_88\n      jump\t// in\n    tag_154:\n        /* \"#utility.yul\":3706:3828   */\n    tag_153:\n        /* \"#utility.yul\":3860:3866   */\n      dup3\n        /* \"#utility.yul\":3847:3867   */\n      calldataload\n        /* \"#utility.yul\":3837:3867   */\n      swap1\n      pop\n        /* \"#utility.yul\":3890:3908   */\n      0xffffffffffffffff\n        /* \"#utility.yul\":3882:3888   */\n      dup2\n        /* \"#utility.yul\":3879:3909   */\n      gt\n        /* \"#utility.yul\":3876:3993   */\n      iszero\n      tag_155\n      jumpi\n        /* \"#utility.yul\":3912:3991   */\n      tag_156\n      tag_89\n      jump\t// in\n    tag_156:\n        /* \"#utility.yul\":3876:3993   */\n    tag_155:\n        /* \"#utility.yul\":4026:4030   */\n      0x20\n        /* \"#utility.yul\":4018:4024   */\n      dup4\n        /* \"#utility.yul\":4014:4031   */\n      add\n        /* \"#utility.yul\":4002:4031   */\n      swap2\n      pop\n        /* \"#utility.yul\":4080:4083   */\n      dup4\n        /* \"#utility.yul\":4072:4076   */\n      0x01\n        /* \"#utility.yul\":4064:4070   */\n      dup3\n        /* \"#utility.yul\":4060:4077   */\n      mul\n        /* \"#utility.yul\":4050:4058   */\n      dup4\n        /* \"#utility.yul\":4046:4078   */\n      add\n        /* \"#utility.yul\":4043:4084   */\n      gt\n        /* \"#utility.yul\":4040:4168   */\n      iszero\n      tag_157\n      jumpi\n        /* \"#utility.yul\":4087:4166   */\n      tag_158\n      tag_90\n      jump\t// in\n    tag_158:\n        /* \"#utility.yul\":4040:4168   */\n    tag_157:\n        /* \"#utility.yul\":3622:4174   */\n      swap3\n      pop\n      swap3\n      swap1\n      pop\n      jump\t// out\n        /* \"#utility.yul\":4180:5489   */\n    tag_25:\n        /* \"#utility.yul\":4298:4304   */\n      0x00\n        /* \"#utility.yul\":4306:4312   */\n      dup1\n        /* \"#utility.yul\":4314:4320   */\n      0x00\n        /* \"#utility.yul\":4322:4328   */\n      dup1\n        /* \"#utility.yul\":4330:4336   */\n      0x00\n        /* \"#utility.yul\":4338:4344   */\n      dup1\n        /* \"#utility.yul\":4346:4352   */\n      0x00\n        /* \"#utility.yul\":4395:4398   */\n      0xa0\n        /* \"#utility.yul\":4383:4392   */\n      dup9\n        /* \"#utility.yul\":4374:4381   */\n      dup11\n        /* \"#utility.yul\":4370:4393   */\n      sub\n        /* \"#utility.yul\":4366:4399   */\n      slt\n        /* \"#utility.yul\":4363:4483   */\n      iszero\n      tag_160\n      jumpi\n        /* \"#utility.yul\":4402:4481   */\n      tag_161\n      tag_73\n      jump\t// in\n    tag_161:\n        /* \"#utility.yul\":4363:4483   */\n    tag_160:\n        /* \"#utility.yul\":4522:4523   */\n      0x00\n        /* \"#utility.yul\":4547:4600   */\n      tag_162\n        /* \"#utility.yul\":4592:4599   */\n      dup11\n        /* \"#utility.yul\":4583:4589   */\n      dup3\n        /* \"#utility.yul\":4572:4581   */\n      dup12\n        /* \"#utility.yul\":4568:4590   */\n      add\n        /* \"#utility.yul\":4547:4600   */\n      tag_85\n      jump\t// in\n    tag_162:\n        /* \"#utility.yul\":4537:4600   */\n      swap8\n      pop\n        /* \"#utility.yul\":4493:4610   */\n      pop\n        /* \"#utility.yul\":4649:4651   */\n      0x20\n        /* \"#utility.yul\":4675:4728   */\n      tag_163\n        /* \"#utility.yul\":4720:4727   */\n      dup11\n        /* \"#utility.yul\":4711:4717   */\n      dup3\n        /* \"#utility.yul\":4700:4709   */\n      dup12\n        /* \"#utility.yul\":4696:4718   */\n      add\n        /* \"#utility.yul\":4675:4728   */\n      tag_87\n      jump\t// in\n    tag_163:\n        /* \"#utility.yul\":4665:4728   */\n      swap7\n      pop\n        /* \"#utility.yul\":4620:4738   */\n      pop\n        /* \"#utility.yul\":4805:4807   */\n      0x40\n        /* \"#utility.yul\":4794:4803   */\n      dup9\n        /* \"#utility.yul\":4790:4808   */\n      add\n        /* \"#utility.yul\":4777:4809   */\n      calldataload\n        /* \"#utility.yul\":4836:4854   */\n      0xffffffffffffffff\n        /* \"#utility.yul\":4828:4834   */\n      dup2\n        /* \"#utility.yul\":4825:4855   */\n      gt\n        /* \"#utility.yul\":4822:4939   */\n      iszero\n      tag_164\n      jumpi\n        /* \"#utility.yul\":4858:4937   */\n      tag_165\n      tag_74\n      jump\t// in\n    tag_165:\n        /* \"#utility.yul\":4822:4939   */\n    tag_164:\n        /* \"#utility.yul\":4971:5036   */\n      tag_166\n        /* \"#utility.yul\":5028:5035   */\n      dup11\n        /* \"#utility.yul\":5019:5025   */\n      dup3\n        /* \"#utility.yul\":5008:5017   */\n      dup12\n        /* \"#utility.yul\":5004:5026   */\n      add\n        /* \"#utility.yul\":4971:5036   */\n      tag_91\n      jump\t// in\n    tag_166:\n        /* \"#utility.yul\":4953:5036   */\n      swap6\n      pop\n      swap6\n      pop\n        /* \"#utility.yul\":4748:5046   */\n      pop\n        /* \"#utility.yul\":5113:5115   */\n      0x60\n        /* \"#utility.yul\":5102:5111   */\n      dup9\n        /* \"#utility.yul\":5098:5116   */\n      add\n        /* \"#utility.yul\":5085:5117   */\n      calldataload\n        /* \"#utility.yul\":5144:5162   */\n      0xffffffffffffffff\n        /* \"#utility.yul\":5136:5142   */\n      dup2\n        /* \"#utility.yul\":5133:5163   */\n      gt\n        /* \"#utility.yul\":5130:5247   */\n      iszero\n      tag_167\n      jumpi\n        /* \"#utility.yul\":5166:5245   */\n      tag_168\n      tag_74\n      jump\t// in\n    tag_168:\n        /* \"#utility.yul\":5130:5247   */\n    tag_167:\n        /* \"#utility.yul\":5279:5343   */\n      tag_169\n        /* \"#utility.yul\":5335:5342   */\n      dup11\n        /* \"#utility.yul\":5326:5332   */\n      dup3\n        /* \"#utility.yul\":5315:5324   */\n      dup12\n        /* \"#utility.yul\":5311:5333   */\n      add\n        /* \"#utility.yul\":5279:5343   */\n      tag_92\n      jump\t// in\n    tag_169:\n        /* \"#utility.yul\":5261:5343   */\n      swap4\n      pop\n      swap4\n      pop\n        /* \"#utility.yul\":5056:5353   */\n      pop\n        /* \"#utility.yul\":5392:5395   */\n      0x80\n        /* \"#utility.yul\":5419:5472   */\n      tag_170\n        /* \"#utility.yul\":5464:5471   */\n      dup11\n        /* \"#utility.yul\":5455:5461   */\n      dup3\n        /* \"#utility.yul\":5444:5453   */\n      dup12\n        /* \"#utility.yul\":5440:5462   */\n      add\n        /* \"#utility.yul\":5419:5472   */\n      tag_87\n      jump\t// in\n    tag_170:\n        /* \"#utility.yul\":5409:5472   */\n      swap2\n      pop\n        /* \"#utility.yul\":5363:5482   */\n      pop\n        /* \"#utility.yul\":4180:5489   */\n      swap3\n      swap6\n      swap9\n      swap2\n      swap5\n      swap8\n      pop\n      swap3\n      swap6\n      pop\n      jump\t// out\n        /* \"#utility.yul\":5495:5613   */\n    tag_93:\n        /* \"#utility.yul\":5582:5606   */\n      tag_172\n        /* \"#utility.yul\":5600:5605   */\n      dup2\n        /* \"#utility.yul\":5582:5606   */\n      tag_75\n      jump\t// in\n    tag_172:\n        /* \"#utility.yul\":5577:5580   */\n      dup3\n        /* \"#utility.yul\":5570:5607   */\n      mstore\n        /* \"#utility.yul\":5495:5613   */\n      pop\n      pop\n      jump\t// out\n        /* \"#utility.yul\":5619:5841   */\n    tag_32:\n        /* \"#utility.yul\":5712:5716   */\n      0x00\n        /* \"#utility.yul\":5750:5752   */\n      0x20\n        /* \"#utility.yul\":5739:5748   */\n      dup3\n        /* \"#utility.yul\":5735:5753   */\n      add\n        /* \"#utility.yul\":5727:5753   */\n      swap1\n      pop\n        /* \"#utility.yul\":5763:5834   */\n      tag_174\n        /* \"#utility.yul\":5831:5832   */\n      0x00\n        /* \"#utility.yul\":5820:5829   */\n      dup4\n        /* \"#utility.yul\":5816:5833   */\n      add\n        /* \"#utility.yul\":5807:5813   */\n      dup5\n        /* \"#utility.yul\":5763:5834   */\n      tag_93\n      jump\t// in\n    tag_174:\n        /* \"#utility.yul\":5619:5841   */\n      swap3\n      swap2\n      pop\n      pop\n      jump\t// out\n        /* \"#utility.yul\":5847:5965   */\n    tag_94:\n        /* \"#utility.yul\":5934:5958   */\n      tag_176\n        /* \"#utility.yul\":5952:5957   */\n      dup2\n        /* \"#utility.yul\":5934:5958   */\n      tag_83\n      jump\t// in\n    tag_176:\n        /* \"#utility.yul\":5929:5932   */\n      dup3\n        /* \"#utility.yul\":5922:5959   */\n      mstore\n        /* \"#utility.yul\":5847:5965   */\n      pop\n      pop\n      jump\t// out\n        /* \"#utility.yul\":5971:6193   */\n    tag_37:\n        /* \"#utility.yul\":6064:6068   */\n      0x00\n        /* \"#utility.yul\":6102:6104   */\n      0x20\n        /* \"#utility.yul\":6091:6100   */\n      dup3\n        /* \"#utility.yul\":6087:6105   */\n      add\n        /* \"#utility.yul\":6079:6105   */\n      swap1\n      pop\n        /* \"#utility.yul\":6115:6186   */\n      tag_178\n        /* \"#utility.yul\":6183:6184   */\n      0x00\n        /* \"#utility.yul\":6172:6181   */\n      dup4\n        /* \"#utility.yul\":6168:6185   */\n      add\n        /* \"#utility.yul\":6159:6165   */\n      dup5\n        /* \"#utility.yul\":6115:6186   */\n      tag_94\n      jump\t// in\n    tag_178:\n        /* \"#utility.yul\":5971:6193   */\n      swap3\n      swap2\n      pop\n      pop\n      jump\t// out\n        /* \"#utility.yul\":6199:6297   */\n    tag_95:\n        /* \"#utility.yul\":6250:6256   */\n      0x00\n        /* \"#utility.yul\":6284:6289   */\n      dup2\n        /* \"#utility.yul\":6278:6290   */\n      mload\n        /* \"#utility.yul\":6268:6290   */\n      swap1\n      pop\n        /* \"#utility.yul\":6199:6297   */\n      swap2\n      swap1\n      pop\n      jump\t// out\n        /* \"#utility.yul\":6303:6471   */\n    tag_96:\n        /* \"#utility.yul\":6386:6397   */\n      0x00\n        /* \"#utility.yul\":6420:6426   */\n      dup3\n        /* \"#utility.yul\":6415:6418   */\n      dup3\n        /* \"#utility.yul\":6408:6427   */\n      mstore\n        /* \"#utility.yul\":6460:6464   */\n      0x20\n        /* \"#utility.yul\":6455:6458   */\n      dup3\n        /* \"#utility.yul\":6451:6465   */\n      add\n        /* \"#utility.yul\":6436:6465   */\n      swap1\n      pop\n        /* \"#utility.yul\":6303:6471   */\n      swap3\n      swap2\n      pop\n      pop\n      jump\t// out\n        /* \"#utility.yul\":6477:6723   */\n    tag_97:\n        /* \"#utility.yul\":6558:6559   */\n      0x00\n        /* \"#utility.yul\":6568:6681   */\n    tag_182:\n        /* \"#utility.yul\":6582:6588   */\n      dup4\n        /* \"#utility.yul\":6579:6580   */\n      dup2\n        /* \"#utility.yul\":6576:6589   */\n      lt\n        /* \"#utility.yul\":6568:6681   */\n      iszero\n      tag_184\n      jumpi\n        /* \"#utility.yul\":6667:6668   */\n      dup1\n        /* \"#utility.yul\":6662:6665   */\n      dup3\n        /* \"#utility.yul\":6658:6669   */\n      add\n        /* \"#utility.yul\":6652:6670   */\n      mload\n        /* \"#utility.yul\":6648:6649   */\n      dup2\n        /* \"#utility.yul\":6643:6646   */\n      dup5\n        /* \"#utility.yul\":6639:6650   */\n      add\n        /* \"#utility.yul\":6632:6671   */\n      mstore\n        /* \"#utility.yul\":6604:6606   */\n      0x20\n        /* \"#utility.yul\":6601:6602   */\n      dup2\n        /* \"#utility.yul\":6597:6607   */\n      add\n        /* \"#utility.yul\":6592:6607   */\n      swap1\n      pop\n        /* \"#utility.yul\":6568:6681   */\n      jump(tag_182)\n    tag_184:\n        /* \"#utility.yul\":6715:6716   */\n      0x00\n        /* \"#utility.yul\":6706:6712   */\n      dup5\n        /* \"#utility.yul\":6701:6704   */\n      dup5\n        /* \"#utility.yul\":6697:6713   */\n      add\n        /* \"#utility.yul\":6690:6717   */\n      mstore\n        /* \"#utility.yul\":6539:6723   */\n      pop\n        /* \"#utility.yul\":6477:6723   */\n      pop\n      pop\n      pop\n      jump\t// out\n        /* \"#utility.yul\":6729:6831   */\n    tag_98:\n        /* \"#utility.yul\":6770:6776   */\n      0x00\n        /* \"#utility.yul\":6821:6823   */\n      0x1f\n        /* \"#utility.yul\":6817:6824   */\n      not\n        /* \"#utility.yul\":6812:6814   */\n      0x1f\n        /* \"#utility.yul\":6805:6810   */\n      dup4\n        /* \"#utility.yul\":6801:6815   */\n      add\n        /* \"#utility.yul\":6797:6825   */\n      and\n        /* \"#utility.yul\":6787:6825   */\n      swap1\n      pop\n        /* \"#utility.yul\":6729:6831   */\n      swap2\n      swap1\n      pop\n      jump\t// out\n        /* \"#utility.yul\":6837:7210   */\n    tag_99:\n        /* \"#utility.yul\":6923:6926   */\n      0x00\n        /* \"#utility.yul\":6951:6989   */\n      tag_187\n        /* \"#utility.yul\":6983:6988   */\n      dup3\n        /* \"#utility.yul\":6951:6989   */\n      tag_95\n      jump\t// in\n    tag_187:\n        /* \"#utility.yul\":7005:7075   */\n      tag_188\n        /* \"#utility.yul\":7068:7074   */\n      dup2\n        /* \"#utility.yul\":7063:7066   */\n      dup6\n        /* \"#utility.yul\":7005:7075   */\n      tag_96\n      jump\t// in\n    tag_188:\n        /* \"#utility.yul\":6998:7075   */\n      swap4\n      pop\n        /* \"#utility.yul\":7084:7149   */\n      tag_189\n        /* \"#utility.yul\":7142:7148   */\n      dup2\n        /* \"#utility.yul\":7137:7140   */\n      dup6\n        /* \"#utility.yul\":7130:7134   */\n      0x20\n        /* \"#utility.yul\":7123:7128   */\n      dup7\n        /* \"#utility.yul\":7119:7135   */\n      add\n        /* \"#utility.yul\":7084:7149   */\n      tag_97\n      jump\t// in\n    tag_189:\n        /* \"#utility.yul\":7174:7203   */\n      tag_190\n        /* \"#utility.yul\":7196:7202   */\n      dup2\n        /* \"#utility.yul\":7174:7203   */\n      tag_98\n      jump\t// in\n    tag_190:\n        /* \"#utility.yul\":7169:7172   */\n      dup5\n        /* \"#utility.yul\":7165:7204   */\n      add\n        /* \"#utility.yul\":7158:7204   */\n      swap2\n      pop\n        /* \"#utility.yul\":6927:7210   */\n      pop\n        /* \"#utility.yul\":6837:7210   */\n      swap3\n      swap2\n      pop\n      pop\n      jump\t// out\n        /* \"#utility.yul\":7216:7525   */\n    tag_46:\n        /* \"#utility.yul\":7327:7331   */\n      0x00\n        /* \"#utility.yul\":7365:7367   */\n      0x20\n        /* \"#utility.yul\":7354:7363   */\n      dup3\n        /* \"#utility.yul\":7350:7368   */\n      add\n        /* \"#utility.yul\":7342:7368   */\n      swap1\n      pop\n        /* \"#utility.yul\":7414:7423   */\n      dup2\n        /* \"#utility.yul\":7408:7412   */\n      dup2\n        /* \"#utility.yul\":7404:7424   */\n      sub\n        /* \"#utility.yul\":7400:7401   */\n      0x00\n        /* \"#utility.yul\":7389:7398   */\n      dup4\n        /* \"#utility.yul\":7385:7402   */\n      add\n        /* \"#utility.yul\":7378:7425   */\n      mstore\n        /* \"#utility.yul\":7442:7518   */\n      tag_192\n        /* \"#utility.yul\":7513:7517   */\n      dup2\n        /* \"#utility.yul\":7504:7510   */\n      dup5\n        /* \"#utility.yul\":7442:7518   */\n      tag_99\n      jump\t// in\n    tag_192:\n        /* \"#utility.yul\":7434:7518   */\n      swap1\n      pop\n        /* \"#utility.yul\":7216:7525   */\n      swap3\n      swap2\n      pop\n      pop\n      jump\t// out\n        /* \"#utility.yul\":7531:7711   */\n    tag_100:\n        /* \"#utility.yul\":7579:7656   */\n      0x4e487b7100000000000000000000000000000000000000000000000000000000\n        /* \"#utility.yul\":7576:7577   */\n      0x00\n        /* \"#utility.yul\":7569:7657   */\n      mstore\n        /* \"#utility.yul\":7676:7680   */\n      0x11\n        /* \"#utility.yul\":7673:7674   */\n      0x04\n        /* \"#utility.yul\":7666:7681   */\n      mstore\n        /* \"#utility.yul\":7700:7704   */\n      0x24\n        /* \"#utility.yul\":7697:7698   */\n      0x00\n        /* \"#utility.yul\":7690:7705   */\n      revert\n        /* \"#utility.yul\":7717:7908   */\n    tag_54:\n        /* \"#utility.yul\":7757:7760   */\n      0x00\n        /* \"#utility.yul\":7776:7796   */\n      tag_195\n        /* \"#utility.yul\":7794:7795   */\n      dup3\n        /* \"#utility.yul\":7776:7796   */\n      tag_80\n      jump\t// in\n    tag_195:\n        /* \"#utility.yul\":7771:7796   */\n      swap2\n      pop\n        /* \"#utility.yul\":7810:7830   */\n      tag_196\n        /* \"#utility.yul\":7828:7829   */\n      dup4\n        /* \"#utility.yul\":7810:7830   */\n      tag_80\n      jump\t// in\n    tag_196:\n        /* \"#utility.yul\":7805:7830   */\n      swap3\n      pop\n        /* \"#utility.yul\":7853:7854   */\n      dup3\n        /* \"#utility.yul\":7850:7851   */\n      dup3\n        /* \"#utility.yul\":7846:7855   */\n      add\n        /* \"#utility.yul\":7839:7855   */\n      swap1\n      pop\n        /* \"#utility.yul\":7874:7877   */\n      dup1\n        /* \"#utility.yul\":7871:7872   */\n      dup3\n        /* \"#utility.yul\":7868:7878   */\n      gt\n        /* \"#utility.yul\":7865:7901   */\n      iszero\n      tag_197\n      jumpi\n        /* \"#utility.yul\":7881:7899   */\n      tag_198\n      tag_100\n      jump\t// in\n    tag_198:\n        /* \"#utility.yul\":7865:7901   */\n    tag_197:\n        /* \"#utility.yul\":7717:7908   */\n      swap3\n      swap2\n      pop\n      pop\n      jump\t// out\n        /* \"#utility.yul\":7914:8246   */\n    tag_59:\n        /* \"#utility.yul\":8035:8039   */\n      0x00\n        /* \"#utility.yul\":8073:8075   */\n      0x40\n        /* \"#utility.yul\":8062:8071   */\n      dup3\n        /* \"#utility.yul\":8058:8076   */\n      add\n        /* \"#utility.yul\":8050:8076   */\n      swap1\n      pop\n        /* \"#utility.yul\":8086:8157   */\n      tag_200\n        /* \"#utility.yul\":8154:8155   */\n      0x00\n        /* \"#utility.yul\":8143:8152   */\n      dup4\n        /* \"#utility.yul\":8139:8156   */\n      add\n        /* \"#utility.yul\":8130:8136   */\n      dup6\n        /* \"#utility.yul\":8086:8157   */\n      tag_81\n      jump\t// in\n    tag_200:\n        /* \"#utility.yul\":8167:8239   */\n      tag_201\n        /* \"#utility.yul\":8235:8237   */\n      0x20\n        /* \"#utility.yul\":8224:8233   */\n      dup4\n        /* \"#utility.yul\":8220:8238   */\n      add\n        /* \"#utility.yul\":8211:8217   */\n      dup5\n        /* \"#utility.yul\":8167:8239   */\n      tag_81\n      jump\t// in\n    tag_201:\n        /* \"#utility.yul\":7914:8246   */\n      swap4\n      swap3\n      pop\n      pop\n      pop\n      jump\t// out\n        /* \"#utility.yul\":8252:8421   */\n    tag_101:\n        /* \"#utility.yul\":8336:8347   */\n      0x00\n        /* \"#utility.yul\":8370:8376   */\n      dup3\n        /* \"#utility.yul\":8365:8368   */\n      dup3\n        /* \"#utility.yul\":8358:8377   */\n      mstore\n        /* \"#utility.yul\":8410:8414   */\n      0x20\n        /* \"#utility.yul\":8405:8408   */\n      dup3\n        /* \"#utility.yul\":8401:8415   */\n      add\n        /* \"#utility.yul\":8386:8415   */\n      swap1\n      pop\n        /* \"#utility.yul\":8252:8421   */\n      swap3\n      swap2\n      pop\n      pop\n      jump\t// out\n        /* \"#utility.yul\":8427:8573   */\n    tag_102:\n        /* \"#utility.yul\":8524:8530   */\n      dup3\n        /* \"#utility.yul\":8519:8522   */\n      dup2\n        /* \"#utility.yul\":8514:8517   */\n      dup4\n        /* \"#utility.yul\":8501:8531   */\n      calldatacopy\n        /* \"#utility.yul\":8565:8566   */\n      0x00\n        /* \"#utility.yul\":8556:8562   */\n      dup4\n        /* \"#utility.yul\":8551:8554   */\n      dup4\n        /* \"#utility.yul\":8547:8563   */\n      add\n        /* \"#utility.yul\":8540:8567   */\n      mstore\n        /* \"#utility.yul\":8427:8573   */\n      pop\n      pop\n      pop\n      jump\t// out\n        /* \"#utility.yul\":8603:8920   */\n    tag_103:\n        /* \"#utility.yul\":8701:8704   */\n      0x00\n        /* \"#utility.yul\":8722:8793   */\n      tag_205\n        /* \"#utility.yul\":8786:8792   */\n      dup4\n        /* \"#utility.yul\":8781:8784   */\n      dup6\n        /* \"#utility.yul\":8722:8793   */\n      tag_101\n      jump\t// in\n    tag_205:\n        /* \"#utility.yul\":8715:8793   */\n      swap4\n      pop\n        /* \"#utility.yul\":8803:8859   */\n      tag_206\n        /* \"#utility.yul\":8852:8858   */\n      dup4\n        /* \"#utility.yul\":8847:8850   */\n      dup6\n        /* \"#utility.yul\":8840:8845   */\n      dup5\n        /* \"#utility.yul\":8803:8859   */\n      tag_102\n      jump\t// in\n    tag_206:\n        /* \"#utility.yul\":8884:8913   */\n      tag_207\n        /* \"#utility.yul\":8906:8912   */\n      dup4\n        /* \"#utility.yul\":8884:8913   */\n      tag_98\n      jump\t// in\n    tag_207:\n        /* \"#utility.yul\":8879:8882   */\n      dup5\n        /* \"#utility.yul\":8875:8914   */\n      add\n        /* \"#utility.yul\":8868:8914   */\n      swap1\n      pop\n        /* \"#utility.yul\":8603:8920   */\n      swap4\n      swap3\n      pop\n      pop\n      pop\n      jump\t// out\n        /* \"#utility.yul\":8948:9262   */\n    tag_104:\n        /* \"#utility.yul\":9044:9047   */\n      0x00\n        /* \"#utility.yul\":9065:9135   */\n      tag_209\n        /* \"#utility.yul\":9128:9134   */\n      dup4\n        /* \"#utility.yul\":9123:9126   */\n      dup6\n        /* \"#utility.yul\":9065:9135   */\n      tag_96\n      jump\t// in\n    tag_209:\n        /* \"#utility.yul\":9058:9135   */\n      swap4\n      pop\n        /* \"#utility.yul\":9145:9201   */\n      tag_210\n        /* \"#utility.yul\":9194:9200   */\n      dup4\n        /* \"#utility.yul\":9189:9192   */\n      dup6\n        /* \"#utility.yul\":9182:9187   */\n      dup5\n        /* \"#utility.yul\":9145:9201   */\n      tag_102\n      jump\t// in\n    tag_210:\n        /* \"#utility.yul\":9226:9255   */\n      tag_211\n        /* \"#utility.yul\":9248:9254   */\n      dup4\n        /* \"#utility.yul\":9226:9255   */\n      tag_98\n      jump\t// in\n    tag_211:\n        /* \"#utility.yul\":9221:9224   */\n      dup5\n        /* \"#utility.yul\":9217:9256   */\n      add\n        /* \"#utility.yul\":9210:9256   */\n      swap1\n      pop\n        /* \"#utility.yul\":8948:9262   */\n      swap4\n      swap3\n      pop\n      pop\n      pop\n      jump\t// out\n        /* \"#utility.yul\":9268:10150   */\n    tag_61:\n        /* \"#utility.yul\":9531:9535   */\n      0x00\n        /* \"#utility.yul\":9569:9572   */\n      0xa0\n        /* \"#utility.yul\":9558:9567   */\n      dup3\n        /* \"#utility.yul\":9554:9573   */\n      add\n        /* \"#utility.yul\":9546:9573   */\n      swap1\n      pop\n        /* \"#utility.yul\":9583:9654   */\n      tag_213\n        /* \"#utility.yul\":9651:9652   */\n      0x00\n        /* \"#utility.yul\":9640:9649   */\n      dup4\n        /* \"#utility.yul\":9636:9653   */\n      add\n        /* \"#utility.yul\":9627:9633   */\n      dup11\n        /* \"#utility.yul\":9583:9654   */\n      tag_94\n      jump\t// in\n    tag_213:\n        /* \"#utility.yul\":9664:9736   */\n      tag_214\n        /* \"#utility.yul\":9732:9734   */\n      0x20\n        /* \"#utility.yul\":9721:9730   */\n      dup4\n        /* \"#utility.yul\":9717:9735   */\n      add\n        /* \"#utility.yul\":9708:9714   */\n      dup10\n        /* \"#utility.yul\":9664:9736   */\n      tag_81\n      jump\t// in\n    tag_214:\n        /* \"#utility.yul\":9783:9792   */\n      dup2\n        /* \"#utility.yul\":9777:9781   */\n      dup2\n        /* \"#utility.yul\":9773:9793   */\n      sub\n        /* \"#utility.yul\":9768:9770   */\n      0x40\n        /* \"#utility.yul\":9757:9766   */\n      dup4\n        /* \"#utility.yul\":9753:9771   */\n      add\n        /* \"#utility.yul\":9746:9794   */\n      mstore\n        /* \"#utility.yul\":9811:9899   */\n      tag_215\n        /* \"#utility.yul\":9894:9898   */\n      dup2\n        /* \"#utility.yul\":9885:9891   */\n      dup8\n        /* \"#utility.yul\":9877:9883   */\n      dup10\n        /* \"#utility.yul\":9811:9899   */\n      tag_103\n      jump\t// in\n    tag_215:\n        /* \"#utility.yul\":9803:9899   */\n      swap1\n      pop\n        /* \"#utility.yul\":9946:9955   */\n      dup2\n        /* \"#utility.yul\":9940:9944   */\n      dup2\n        /* \"#utility.yul\":9936:9956   */\n      sub\n        /* \"#utility.yul\":9931:9933   */\n      0x60\n        /* \"#utility.yul\":9920:9929   */\n      dup4\n        /* \"#utility.yul\":9916:9934   */\n      add\n        /* \"#utility.yul\":9909:9957   */\n      mstore\n        /* \"#utility.yul\":9974:10060   */\n      tag_216\n        /* \"#utility.yul\":10055:10059   */\n      dup2\n        /* \"#utility.yul\":10046:10052   */\n      dup6\n        /* \"#utility.yul\":10038:10044   */\n      dup8\n        /* \"#utility.yul\":9974:10060   */\n      tag_104\n      jump\t// in\n    tag_216:\n        /* \"#utility.yul\":9966:10060   */\n      swap1\n      pop\n        /* \"#utility.yul\":10070:10143   */\n      tag_217\n        /* \"#utility.yul\":10138:10141   */\n      0x80\n        /* \"#utility.yul\":10127:10136   */\n      dup4\n        /* \"#utility.yul\":10123:10142   */\n      add\n        /* \"#utility.yul\":10114:10120   */\n      dup5\n        /* \"#utility.yul\":10070:10143   */\n      tag_81\n      jump\t// in\n    tag_217:\n        /* \"#utility.yul\":9268:10150   */\n      swap9\n      swap8\n      pop\n      pop\n      pop\n      pop\n      pop\n      pop\n      pop\n      pop\n      jump\t// out\n\n    auxdata: 0xa26469706673582212209b17549dac6bdf1324c6003a667ffa60af6f6ea55c48cd1cc37c1a205cdabefc64736f6c63430008110033\n}\n",
				"bytecode": {
					"linkReferences": {},
					"object": "608060405234801561001057600080fd5b50336000806101000a81548173ffffffffffffffffffffffffffffffffffffffff021916908373ffffffffffffffffffffffffffffffffffffffff160217905550610b05806100606000396000f3fe6080604052600436106100705760003560e01c80638a1ce0b61161004e5780638a1ce0b6146101065780638da5cb5b146101435780639f81aed71461016e578063b0f8b1421461019957610070565b8063228250c9146100755780634125ff90146100b25780634b9915a5146100dd575b600080fd5b34801561008157600080fd5b5061009c600480360381019061009791906105c6565b6101c9565b6040516100a9919061060e565b60405180910390f35b3480156100be57600080fd5b506100c76101e9565b6040516100d49190610642565b60405180910390f35b3480156100e957600080fd5b5061010460048036038101906100ff91906107a2565b6101ef565b005b34801561011257600080fd5b5061012d600480360381019061012891906107a2565b6103cc565b60405161013a919061086d565b60405180910390f35b34801561014f57600080fd5b5061015861040e565b6040516101659190610897565b60405180910390f35b34801561017a57600080fd5b50610183610432565b6040516101909190610642565b60405180910390f35b6101b360048036038101906101ae91906107a2565b610437565b6040516101c09190610942565b60405180910390f35b60016020528060005260406000206000915054906101000a900460ff1681565b6103e881565b60008054906101000a900473ffffffffffffffffffffffffffffffffffffffff1673ffffffffffffffffffffffffffffffffffffffff163373ffffffffffffffffffffffffffffffffffffffff1614610274576040517f74a2152700000000000000000000000000000000000000000000000000000000815260040160405180910390fd5b6000610285888888888888886103cc565b90506001600082815260200190815260200160002060009054906101000a900460ff16156102ea57806040517f995042be0000000000000000000000000000000000000000000000000000000081526004016102e1919061086d565b60405180910390fd5b600a426102f79190610993565b82108061031057506103e84261030d9190610993565b82115b156103545742826040517f1a9616c200000000000000000000000000000000000000000000000000000000815260040161034b9291906109c7565b60405180910390fd5b600180600083815260200190815260200160002060006101000a81548160ff0219169083151502179055507f1be0a5a53718dba1a6179a0fd8bc0a5c332a89f9a2d8d58a23fc6f0f15ab3caf888888888888886040516103ba9796959493929190610a6a565b60405180910390a15050505050505050565b6000878787878787876040516020016103eb9796959493929190610a6a565b604051602081830303815290604052805190602001209050979650505050505050565b60008054906101000a900473ffffffffffffffffffffffffffffffffffffffff1681565b600a81565b606060008054906101000a900473ffffffffffffffffffffffffffffffffffffffff1673ffffffffffffffffffffffffffffffffffffffff163373ffffffffffffffffffffffffffffffffffffffff16146104be576040517f74a2152700000000000000000000000000000000000000000000000000000000815260040160405180910390fd5b60006104cf898989898989896103cc565b90506001600082815260200190815260200160002060009054906101000a900460ff1661053357806040517f0995c9d500000000000000000000000000000000000000000000000000000000815260040161052a919061086d565b60405180910390fd5b8242101561057a5742836040517f035fce5b0000000000000000000000000000000000000000000000000000000081526004016105719291906109c7565b60405180910390fd5b50979650505050505050565b600080fd5b600080fd5b6000819050919050565b6105a381610590565b81146105ae57600080fd5b50565b6000813590506105c08161059a565b92915050565b6000602082840312156105dc576105db610586565b5b60006105ea848285016105b1565b91505092915050565b60008115159050919050565b610608816105f3565b82525050565b600060208201905061062360008301846105ff565b92915050565b6000819050919050565b61063c81610629565b82525050565b60006020820190506106576000830184610633565b92915050565b600073ffffffffffffffffffffffffffffffffffffffff82169050919050565b60006106888261065d565b9050919050565b6106988161067d565b81146106a357600080fd5b50565b6000813590506106b58161068f565b92915050565b6106c481610629565b81146106cf57600080fd5b50565b6000813590506106e1816106bb565b92915050565b600080fd5b600080fd5b600080fd5b60008083601f84011261070c5761070b6106e7565b5b8235905067ffffffffffffffff811115610729576107286106ec565b5b602083019150836001820283011115610745576107446106f1565b5b9250929050565b60008083601f840112610762576107616106e7565b5b8235905067ffffffffffffffff81111561077f5761077e6106ec565b5b60208301915083600182028301111561079b5761079a6106f1565b5b9250929050565b600080600080600080600060a0888a0312156107c1576107c0610586565b5b60006107cf8a828b016106a6565b97505060206107e08a828b016106d2565b965050604088013567ffffffffffffffff8111156108015761080061058b565b5b61080d8a828b016106f6565b9550955050606088013567ffffffffffffffff8111156108305761082f61058b565b5b61083c8a828b0161074c565b9350935050608061084f8a828b016106d2565b91505092959891949750929550565b61086781610590565b82525050565b6000602082019050610882600083018461085e565b92915050565b6108918161067d565b82525050565b60006020820190506108ac6000830184610888565b92915050565b600081519050919050565b600082825260208201905092915050565b60005b838110156108ec5780820151818401526020810190506108d1565b60008484015250505050565b6000601f19601f8301169050919050565b6000610914826108b2565b61091e81856108bd565b935061092e8185602086016108ce565b610937816108f8565b840191505092915050565b6000602082019050818103600083015261095c8184610909565b905092915050565b7f4e487b7100000000000000000000000000000000000000000000000000000000600052601160045260246000fd5b600061099e82610629565b91506109a983610629565b92508282019050808211156109c1576109c0610964565b5b92915050565b60006040820190506109dc6000830185610633565b6109e96020830184610633565b9392505050565b600082825260208201905092915050565b82818337600083830152505050565b6000610a1c83856109f0565b9350610a29838584610a01565b610a32836108f8565b840190509392505050565b6000610a4983856108bd565b9350610a56838584610a01565b610a5f836108f8565b840190509392505050565b600060a082019050610a7f600083018a610888565b610a8c6020830189610633565b8181036040830152610a9f818789610a10565b90508181036060830152610ab4818587610a3d565b9050610ac36080830184610633565b9897505050505050505056fea26469706673582212209b17549dac6bdf1324c6003a667ffa60af6f6ea55c48cd1cc37c1a205cdabefc64736f6c63430008110033",
					"opcodes": "PUSH1 0x80 PUSH1 0x40 MSTORE CALLVALUE DUP1 ISZERO PUSH2 0x10 JUMPI PUSH1 0x0 DUP1 REVERT JUMPDEST POP CALLER PUSH1 0x0 DUP1 PUSH2 0x100 EXP DUP2 SLOAD DUP2 PUSH20 0xFFFFFFFFFFFFFFFFFFFFFFFFFFFFFFFFFFFFFFFF MUL NOT AND SWAP1 DUP4 PUSH20 0xFFFFFFFFFFFFFFFFFFFFFFFFFFFFFFFFFFFFFFFF AND MUL OR SWAP1 SSTORE POP PUSH2 0xB05 DUP1 PUSH2 0x60 PUSH1 0x0 CODECOPY PUSH1 0x0 RETURN INVALID PUSH1 0x80 PUSH1 0x40 MSTORE PUSH1 0x4 CALLDATASIZE LT PUSH2 0x70 JUMPI PUSH1 0x0 CALLDATALOAD PUSH1 0xE0 SHR DUP1 PUSH4 0x8A1CE0B6 GT PUSH2 0x4E JUMPI DUP1 PUSH4 0x8A1CE0B6 EQ PUSH2 0x106 JUMPI DUP1 PUSH4 0x8DA5CB5B EQ PUSH2 0x143 JUMPI DUP1 PUSH4 0x9F81AED7 EQ PUSH2 0x16E JUMPI DUP1 PUSH4 0xB0F8B142 EQ PUSH2 0x199 JUMPI PUSH2 0x70 JUMP JUMPDEST DUP1 PUSH4 0x228250C9 EQ PUSH2 0x75 JUMPI DUP1 PUSH4 0x4125FF90 EQ PUSH2 0xB2 JUMPI DUP1 PUSH4 0x4B9915A5 EQ PUSH2 0xDD JUMPI JUMPDEST PUSH1 0x0 DUP1 REVERT JUMPDEST CALLVALUE DUP1 ISZERO PUSH2 0x81 JUMPI PUSH1 0x0 DUP1 REVERT JUMPDEST POP PUSH2 0x9C PUSH1 0x4 DUP1 CALLDATASIZE SUB DUP2 ADD SWAP1 PUSH2 0x97 SWAP2 SWAP1 PUSH2 0x5C6 JUMP JUMPDEST PUSH2 0x1C9 JUMP JUMPDEST PUSH1 0x40 MLOAD PUSH2 0xA9 SWAP2 SWAP1 PUSH2 0x60E JUMP JUMPDEST PUSH1 0x40 MLOAD DUP1 SWAP2 SUB SWAP1 RETURN JUMPDEST CALLVALUE DUP1 ISZERO PUSH2 0xBE JUMPI PUSH1 0x0 DUP1 REVERT JUMPDEST POP PUSH2 0xC7 PUSH2 0x1E9 JUMP JUMPDEST PUSH1 0x40 MLOAD PUSH2 0xD4 SWAP2 SWAP1 PUSH2 0x642 JUMP JUMPDEST PUSH1 0x40 MLOAD DUP1 SWAP2 SUB SWAP1 RETURN JUMPDEST CALLVALUE DUP1 ISZERO PUSH2 0xE9 JUMPI PUSH1 0x0 DUP1 REVERT JUMPDEST POP PUSH2 0x104 PUSH1 0x4 DUP1 CALLDATASIZE SUB DUP2 ADD SWAP1 PUSH2 0xFF SWAP2 SWAP1 PUSH2 0x7A2 JUMP JUMPDEST PUSH2 0x1EF JUMP JUMPDEST STOP JUMPDEST CALLVALUE DUP1 ISZERO PUSH2 0x112 JUMPI PUSH1 0x0 DUP1 REVERT JUMPDEST POP PUSH2 0x12D PUSH1 0x4 DUP1 CALLDATASIZE SUB DUP2 ADD SWAP1 PUSH2 0x128 SWAP2 SWAP1 PUSH2 0x7A2 JUMP JUMPDEST PUSH2 0x3CC JUMP JUMPDEST PUSH1 0x40 MLOAD PUSH2 0x13A SWAP2 SWAP1 PUSH2 0x86D JUMP JUMPDEST PUSH1 0x40 MLOAD DUP1 SWAP2 SUB SWAP1 RETURN JUMPDEST CALLVALUE DUP1 ISZERO PUSH2 0x14F JUMPI PUSH1 0x0 DUP1 REVERT JUMPDEST POP PUSH2 0x158 PUSH2 0x40E JUMP JUMPDEST PUSH1 0x40 MLOAD PUSH2 0x165 SWAP2 SWAP1 PUSH2 0x897 JUMP JUMPDEST PUSH1 0x40 MLOAD DUP1 SWAP2 SUB SWAP1 RETURN JUMPDEST CALLVALUE DUP1 ISZERO PUSH2 0x17A JUMPI PUSH1 0x0 DUP1 REVERT JUMPDEST POP PUSH2 0x183 PUSH2 0x432 JUMP JUMPDEST PUSH1 0x40 MLOAD PUSH2 0x190 SWAP2 SWAP1 PUSH2 0x642 JUMP JUMPDEST PUSH1 0x40 MLOAD DUP1 SWAP2 SUB SWAP1 RETURN JUMPDEST PUSH2 0x1B3 PUSH1 0x4 DUP1 CALLDATASIZE SUB DUP2 ADD SWAP1 PUSH2 0x1AE SWAP2 SWAP1 PUSH2 0x7A2 JUMP JUMPDEST PUSH2 0x437 JUMP JUMPDEST PUSH1 0x40 MLOAD PUSH2 0x1C0 SWAP2 SWAP1 PUSH2 0x942 JUMP JUMPDEST PUSH1 0x40 MLOAD DUP1 SWAP2 SUB SWAP1 RETURN JUMPDEST PUSH1 0x1 PUSH1 0x20 MSTORE DUP1 PUSH1 0x0 MSTORE PUSH1 0x40 PUSH1 0x0 KECCAK256 PUSH1 0x0 SWAP2 POP SLOAD SWAP1 PUSH2 0x100 EXP SWAP1 DIV PUSH1 0xFF AND DUP2 JUMP JUMPDEST PUSH2 0x3E8 DUP2 JUMP JUMPDEST PUSH1 0x0 DUP1 SLOAD SWAP1 PUSH2 0x100 EXP SWAP1 DIV PUSH20 0xFFFFFFFFFFFFFFFFFFFFFFFFFFFFFFFFFFFFFFFF AND PUSH20 0xFFFFFFFFFFFFFFFFFFFFFFFFFFFFFFFFFFFFFFFF AND CALLER PUSH20 0xFFFFFFFFFFFFFFFFFFFFFFFFFFFFFFFFFFFFFFFF AND EQ PUSH2 0x274 JUMPI PUSH1 0x40 MLOAD PUSH32 0x74A2152700000000000000000000000000000000000000000000000000000000 DUP2 MSTORE PUSH1 0x4 ADD PUSH1 0x40 MLOAD DUP1 SWAP2 SUB SWAP1 REVERT JUMPDEST PUSH1 0x0 PUSH2 0x285 DUP9 DUP9 DUP9 DUP9 DUP9 DUP9 DUP9 PUSH2 0x3CC JUMP JUMPDEST SWAP1 POP PUSH1 0x1 PUSH1 0x0 DUP3 DUP2 MSTORE PUSH1 0x20 ADD SWAP1 DUP2 MSTORE PUSH1 0x20 ADD PUSH1 0x0 KECCAK256 PUSH1 0x0 SWAP1 SLOAD SWAP1 PUSH2 0x100 EXP SWAP1 DIV PUSH1 0xFF AND ISZERO PUSH2 0x2EA JUMPI DUP1 PUSH1 0x40 MLOAD PUSH32 0x995042BE00000000000000000000000000000000000000000000000000000000 DUP2 MSTORE PUSH1 0x4 ADD PUSH2 0x2E1 SWAP2 SWAP1 PUSH2 0x86D JUMP JUMPDEST PUSH1 0x40 MLOAD DUP1 SWAP2 SUB SWAP1 REVERT JUMPDEST PUSH1 0xA TIMESTAMP PUSH2 0x2F7 SWAP2 SWAP1 PUSH2 0x993 JUMP JUMPDEST DUP3 LT DUP1 PUSH2 0x310 JUMPI POP PUSH2 0x3E8 TIMESTAMP PUSH2 0x30D SWAP2 SWAP1 PUSH2 0x993 JUMP JUMPDEST DUP3 GT JUMPDEST ISZERO PUSH2 0x354 JUMPI TIMESTAMP DUP3 PUSH1 0x40 MLOAD PUSH32 0x1A9616C200000000000000000000000000000000000000000000000000000000 DUP2 MSTORE PUSH1 0x4 ADD PUSH2 0x34B SWAP3 SWAP2 SWAP1 PUSH2 0x9C7 JUMP JUMPDEST PUSH1 0x40 MLOAD DUP1 SWAP2 SUB SWAP1 REVERT JUMPDEST PUSH1 0x1 DUP1 PUSH1 0x0 DUP4 DUP2 MSTORE PUSH1 0x20 ADD SWAP1 DUP2 MSTORE PUSH1 0x20 ADD PUSH1 0x0 KECCAK256 PUSH1 0x0 PUSH2 0x100 EXP DUP2 SLOAD DUP2 PUSH1 0xFF MUL NOT AND SWAP1 DUP4 ISZERO ISZERO MUL OR SWAP1 SSTORE POP PUSH32 0x1BE0A5A53718DBA1A6179A0FD8BC0A5C332A89F9A2D8D58A23FC6F0F15AB3CAF DUP9 DUP9 DUP9 DUP9 DUP9 DUP9 DUP9 PUSH1 0x40 MLOAD PUSH2 0x3BA SWAP8 SWAP7 SWAP6 SWAP5 SWAP4 SWAP3 SWAP2 SWAP1 PUSH2 0xA6A JUMP JUMPDEST PUSH1 0x40 MLOAD DUP1 SWAP2 SUB SWAP1 LOG1 POP POP POP POP POP POP POP POP JUMP JUMPDEST PUSH1 0x0 DUP8 DUP8 DUP8 DUP8 DUP8 DUP8 DUP8 PUSH1 0x40 MLOAD PUSH1 0x20 ADD PUSH2 0x3EB SWAP8 SWAP7 SWAP6 SWAP5 SWAP4 SWAP3 SWAP2 SWAP1 PUSH2 0xA6A JUMP JUMPDEST PUSH1 0x40 MLOAD PUSH1 0x20 DUP2 DUP4 SUB SUB DUP2 MSTORE SWAP1 PUSH1 0x40 MSTORE DUP1 MLOAD SWAP1 PUSH1 0x20 ADD KECCAK256 SWAP1 POP SWAP8 SWAP7 POP POP POP POP POP POP POP JUMP JUMPDEST PUSH1 0x0 DUP1 SLOAD SWAP1 PUSH2 0x100 EXP SWAP1 DIV PUSH20 0xFFFFFFFFFFFFFFFFFFFFFFFFFFFFFFFFFFFFFFFF AND DUP2 JUMP JUMPDEST PUSH1 0xA DUP2 JUMP JUMPDEST PUSH1 0x60 PUSH1 0x0 DUP1 SLOAD SWAP1 PUSH2 0x100 EXP SWAP1 DIV PUSH20 0xFFFFFFFFFFFFFFFFFFFFFFFFFFFFFFFFFFFFFFFF AND PUSH20 0xFFFFFFFFFFFFFFFFFFFFFFFFFFFFFFFFFFFFFFFF AND CALLER PUSH20 0xFFFFFFFFFFFFFFFFFFFFFFFFFFFFFFFFFFFFFFFF AND EQ PUSH2 0x4BE JUMPI PUSH1 0x40 MLOAD PUSH32 0x74A2152700000000000000000000000000000000000000000000000000000000 DUP2 MSTORE PUSH1 0x4 ADD PUSH1 0x40 MLOAD DUP1 SWAP2 SUB SWAP1 REVERT JUMPDEST PUSH1 0x0 PUSH2 0x4CF DUP10 DUP10 DUP10 DUP10 DUP10 DUP10 DUP10 PUSH2 0x3CC JUMP JUMPDEST SWAP1 POP PUSH1 0x1 PUSH1 0x0 DUP3 DUP2 MSTORE PUSH1 0x20 ADD SWAP1 DUP2 MSTORE PUSH1 0x20 ADD PUSH1 0x0 KECCAK256 PUSH1 0x0 SWAP1 SLOAD SWAP1 PUSH2 0x100 EXP SWAP1 DIV PUSH1 0xFF AND PUSH2 0x533 JUMPI DUP1 PUSH1 0x40 MLOAD PUSH32 0x995C9D500000000000000000000000000000000000000000000000000000000 DUP2 MSTORE PUSH1 0x4 ADD PUSH2 0x52A SWAP2 SWAP1 PUSH2 0x86D JUMP JUMPDEST PUSH1 0x40 MLOAD DUP1 SWAP2 SUB SWAP1 REVERT JUMPDEST DUP3 TIMESTAMP LT ISZERO PUSH2 0x57A JUMPI TIMESTAMP DUP4 PUSH1 0x40 MLOAD PUSH32 0x35FCE5B00000000000000000000000000000000000000000000000000000000 DUP2 MSTORE PUSH1 0x4 ADD PUSH2 0x571 SWAP3 SWAP2 SWAP1 PUSH2 0x9C7 JUMP JUMPDEST PUSH1 0x40 MLOAD DUP1 SWAP2 SUB SWAP1 REVERT JUMPDEST POP SWAP8 SWAP7 POP POP POP POP POP POP POP JUMP JUMPDEST PUSH1 0x0 DUP1 REVERT JUMPDEST PUSH1 0x0 DUP1 REVERT JUMPDEST PUSH1 0x0 DUP2 SWAP1 POP SWAP2 SWAP1 POP JUMP JUMPDEST PUSH2 0x5A3 DUP2 PUSH2 0x590 JUMP JUMPDEST DUP2 EQ PUSH2 0x5AE JUMPI PUSH1 0x0 DUP1 REVERT JUMPDEST POP JUMP JUMPDEST PUSH1 0x0 DUP2 CALLDATALOAD SWAP1 POP PUSH2 0x5C0 DUP2 PUSH2 0x59A JUMP JUMPDEST SWAP3 SWAP2 POP POP JUMP JUMPDEST PUSH1 0x0 PUSH1 0x20 DUP3 DUP5 SUB SLT ISZERO PUSH2 0x5DC JUMPI PUSH2 0x5DB PUSH2 0x586 JUMP JUMPDEST JUMPDEST PUSH1 0x0 PUSH2 0x5EA DUP5 DUP3 DUP6 ADD PUSH2 0x5B1 JUMP JUMPDEST SWAP2 POP POP SWAP3 SWAP2 POP POP JUMP JUMPDEST PUSH1 0x0 DUP2 ISZERO ISZERO SWAP1 POP SWAP2 SWAP1 POP JUMP JUMPDEST PUSH2 0x608 DUP2 PUSH2 0x5F3 JUMP JUMPDEST DUP3 MSTORE POP POP JUMP JUMPDEST PUSH1 0x0 PUSH1 0x20 DUP3 ADD SWAP1 POP PUSH2 0x623 PUSH1 0x0 DUP4 ADD DUP5 PUSH2 0x5FF JUMP JUMPDEST SWAP3 SWAP2 POP POP JUMP JUMPDEST PUSH1 0x0 DUP2 SWAP1 POP SWAP2 SWAP1 POP JUMP JUMPDEST PUSH2 0x63C DUP2 PUSH2 0x629 JUMP JUMPDEST DUP3 MSTORE POP POP JUMP JUMPDEST PUSH1 0x0 PUSH1 0x20 DUP3 ADD SWAP1 POP PUSH2 0x657 PUSH1 0x0 DUP4 ADD DUP5 PUSH2 0x633 JUMP JUMPDEST SWAP3 SWAP2 POP POP JUMP JUMPDEST PUSH1 0x0 PUSH20 0xFFFFFFFFFFFFFFFFFFFFFFFFFFFFFFFFFFFFFFFF DUP3 AND SWAP1 POP SWAP2 SWAP1 POP JUMP JUMPDEST PUSH1 0x0 PUSH2 0x688 DUP3 PUSH2 0x65D JUMP JUMPDEST SWAP1 POP SWAP2 SWAP1 POP JUMP JUMPDEST PUSH2 0x698 DUP2 PUSH2 0x67D JUMP JUMPDEST DUP2 EQ PUSH2 0x6A3 JUMPI PUSH1 0x0 DUP1 REVERT JUMPDEST POP JUMP JUMPDEST PUSH1 0x0 DUP2 CALLDATALOAD SWAP1 POP PUSH2 0x6B5 DUP2 PUSH2 0x68F JUMP JUMPDEST SWAP3 SWAP2 POP POP JUMP JUMPDEST PUSH2 0x6C4 DUP2 PUSH2 0x629 JUMP JUMPDEST DUP2 EQ PUSH2 0x6CF JUMPI PUSH1 0x0 DUP1 REVERT JUMPDEST POP JUMP JUMPDEST PUSH1 0x0 DUP2 CALLDATALOAD SWAP1 POP PUSH2 0x6E1 DUP2 PUSH2 0x6BB JUMP JUMPDEST SWAP3 SWAP2 POP POP JUMP JUMPDEST PUSH1 0x0 DUP1 REVERT JUMPDEST PUSH1 0x0 DUP1 REVERT JUMPDEST PUSH1 0x0 DUP1 REVERT JUMPDEST PUSH1 0x0 DUP1 DUP4 PUSH1 0x1F DUP5 ADD SLT PUSH2 0x70C JUMPI PUSH2 0x70B PUSH2 0x6E7 JUMP JUMPDEST JUMPDEST DUP3 CALLDATALOAD SWAP1 POP PUSH8 0xFFFFFFFFFFFFFFFF DUP2 GT ISZERO PUSH2 0x729 JUMPI PUSH2 0x728 PUSH2 0x6EC JUMP JUMPDEST JUMPDEST PUSH1 0x20 DUP4 ADD SWAP2 POP DUP4 PUSH1 0x1 DUP3 MUL DUP4 ADD GT ISZERO PUSH2 0x745 JUMPI PUSH2 0x744 PUSH2 0x6F1 JUMP JUMPDEST JUMPDEST SWAP3 POP SWAP3 SWAP1 POP JUMP JUMPDEST PUSH1 0x0 DUP1 DUP4 PUSH1 0x1F DUP5 ADD SLT PUSH2 0x762 JUMPI PUSH2 0x761 PUSH2 0x6E7 JUMP JUMPDEST JUMPDEST DUP3 CALLDATALOAD SWAP1 POP PUSH8 0xFFFFFFFFFFFFFFFF DUP2 GT ISZERO PUSH2 0x77F JUMPI PUSH2 0x77E PUSH2 0x6EC JUMP JUMPDEST JUMPDEST PUSH1 0x20 DUP4 ADD SWAP2 POP DUP4 PUSH1 0x1 DUP3 MUL DUP4 ADD GT ISZERO PUSH2 0x79B JUMPI PUSH2 0x79A PUSH2 0x6F1 JUMP JUMPDEST JUMPDEST SWAP3 POP SWAP3 SWAP1 POP JUMP JUMPDEST PUSH1 0x0 DUP1 PUSH1 0x0 DUP1 PUSH1 0x0 DUP1 PUSH1 0x0 PUSH1 0xA0 DUP9 DUP11 SUB SLT ISZERO PUSH2 0x7C1 JUMPI PUSH2 0x7C0 PUSH2 0x586 JUMP JUMPDEST JUMPDEST PUSH1 0x0 PUSH2 0x7CF DUP11 DUP3 DUP12 ADD PUSH2 0x6A6 JUMP JUMPDEST SWAP8 POP POP PUSH1 0x20 PUSH2 0x7E0 DUP11 DUP3 DUP12 ADD PUSH2 0x6D2 JUMP JUMPDEST SWAP7 POP POP PUSH1 0x40 DUP9 ADD CALLDATALOAD PUSH8 0xFFFFFFFFFFFFFFFF DUP2 GT ISZERO PUSH2 0x801 JUMPI PUSH2 0x800 PUSH2 0x58B JUMP JUMPDEST JUMPDEST PUSH2 0x80D DUP11 DUP3 DUP12 ADD PUSH2 0x6F6 JUMP JUMPDEST SWAP6 POP SWAP6 POP POP PUSH1 0x60 DUP9 ADD CALLDATALOAD PUSH8 0xFFFFFFFFFFFFFFFF DUP2 GT ISZERO PUSH2 0x830 JUMPI PUSH2 0x82F PUSH2 0x58B JUMP JUMPDEST JUMPDEST PUSH2 0x83C DUP11 DUP3 DUP12 ADD PUSH2 0x74C JUMP JUMPDEST SWAP4 POP SWAP4 POP POP PUSH1 0x80 PUSH2 0x84F DUP11 DUP3 DUP12 ADD PUSH2 0x6D2 JUMP JUMPDEST SWAP2 POP POP SWAP3 SWAP6 SWAP9 SWAP2 SWAP5 SWAP8 POP SWAP3 SWAP6 POP JUMP JUMPDEST PUSH2 0x867 DUP2 PUSH2 0x590 JUMP JUMPDEST DUP3 MSTORE POP POP JUMP JUMPDEST PUSH1 0x0 PUSH1 0x20 DUP3 ADD SWAP1 POP PUSH2 0x882 PUSH1 0x0 DUP4 ADD DUP5 PUSH2 0x85E JUMP JUMPDEST SWAP3 SWAP2 POP POP JUMP JUMPDEST PUSH2 0x891 DUP2 PUSH2 0x67D JUMP JUMPDEST DUP3 MSTORE POP POP JUMP JUMPDEST PUSH1 0x0 PUSH1 0x20 DUP3 ADD SWAP1 POP PUSH2 0x8AC PUSH1 0x0 DUP4 ADD DUP5 PUSH2 0x888 JUMP JUMPDEST SWAP3 SWAP2 POP POP JUMP JUMPDEST PUSH1 0x0 DUP2 MLOAD SWAP1 POP SWAP2 SWAP1 POP JUMP JUMPDEST PUSH1 0x0 DUP3 DUP3 MSTORE PUSH1 0x20 DUP3 ADD SWAP1 POP SWAP3 SWAP2 POP POP JUMP JUMPDEST PUSH1 0x0 JUMPDEST DUP4 DUP2 LT ISZERO PUSH2 0x8EC JUMPI DUP1 DUP3 ADD MLOAD DUP2 DUP5 ADD MSTORE PUSH1 0x20 DUP2 ADD SWAP1 POP PUSH2 0x8D1 JUMP JUMPDEST PUSH1 0x0 DUP5 DUP5 ADD MSTORE POP POP POP POP JUMP JUMPDEST PUSH1 0x0 PUSH1 0x1F NOT PUSH1 0x1F DUP4 ADD AND SWAP1 POP SWAP2 SWAP1 POP JUMP JUMPDEST PUSH1 0x0 PUSH2 0x914 DUP3 PUSH2 0x8B2 JUMP JUMPDEST PUSH2 0x91E DUP2 DUP6 PUSH2 0x8BD JUMP JUMPDEST SWAP4 POP PUSH2 0x92E DUP2 DUP6 PUSH1 0x20 DUP7 ADD PUSH2 0x8CE JUMP JUMPDEST PUSH2 0x937 DUP2 PUSH2 0x8F8 JUMP JUMPDEST DUP5 ADD SWAP2 POP POP SWAP3 SWAP2 POP POP JUMP JUMPDEST PUSH1 0x0 PUSH1 0x20 DUP3 ADD SWAP1 POP DUP2 DUP2 SUB PUSH1 0x0 DUP4 ADD MSTORE PUSH2 0x95C DUP2 DUP5 PUSH2 0x909 JUMP JUMPDEST SWAP1 POP SWAP3 SWAP2 POP POP JUMP JUMPDEST PUSH32 0x4E487B7100000000000000000000000000000000000000000000000000000000 PUSH1 0x0 MSTORE PUSH1 0x11 PUSH1 0x4 MSTORE PUSH1 0x24 PUSH1 0x0 REVERT JUMPDEST PUSH1 0x0 PUSH2 0x99E DUP3 PUSH2 0x629 JUMP JUMPDEST SWAP2 POP PUSH2 0x9A9 DUP4 PUSH2 0x629 JUMP JUMPDEST SWAP3 POP DUP3 DUP3 ADD SWAP1 POP DUP1 DUP3 GT ISZERO PUSH2 0x9C1 JUMPI PUSH2 0x9C0 PUSH2 0x964 JUMP JUMPDEST JUMPDEST SWAP3 SWAP2 POP POP JUMP JUMPDEST PUSH1 0x0 PUSH1 0x40 DUP3 ADD SWAP1 POP PUSH2 0x9DC PUSH1 0x0 DUP4 ADD DUP6 PUSH2 0x633 JUMP JUMPDEST PUSH2 0x9E9 PUSH1 0x20 DUP4 ADD DUP5 PUSH2 0x633 JUMP JUMPDEST SWAP4 SWAP3 POP POP POP JUMP JUMPDEST PUSH1 0x0 DUP3 DUP3 MSTORE PUSH1 0x20 DUP3 ADD SWAP1 POP SWAP3 SWAP2 POP POP JUMP JUMPDEST DUP3 DUP2 DUP4 CALLDATACOPY PUSH1 0x0 DUP4 DUP4 ADD MSTORE POP POP POP JUMP JUMPDEST PUSH1 0x0 PUSH2 0xA1C DUP4 DUP6 PUSH2 0x9F0 JUMP JUMPDEST SWAP4 POP PUSH2 0xA29 DUP4 DUP6 DUP5 PUSH2 0xA01 JUMP JUMPDEST PUSH2 0xA32 DUP4 PUSH2 0x8F8 JUMP JUMPDEST DUP5 ADD SWAP1 POP SWAP4 SWAP3 POP POP POP JUMP JUMPDEST PUSH1 0x0 PUSH2 0xA49 DUP4 DUP6 PUSH2 0x8BD JUMP JUMPDEST SWAP4 POP PUSH2 0xA56 DUP4 DUP6 DUP5 PUSH2 0xA01 JUMP JUMPDEST PUSH2 0xA5F DUP4 PUSH2 0x8F8 JUMP JUMPDEST DUP5 ADD SWAP1 POP SWAP4 SWAP3 POP POP POP JUMP JUMPDEST PUSH1 0x0 PUSH1 0xA0 DUP3 ADD SWAP1 POP PUSH2 0xA7F PUSH1 0x0 DUP4 ADD DUP11 PUSH2 0x888 JUMP JUMPDEST PUSH2 0xA8C PUSH1 0x20 DUP4 ADD DUP10 PUSH2 0x633 JUMP JUMPDEST DUP2 DUP2 SUB PUSH1 0x40 DUP4 ADD MSTORE PUSH2 0xA9F DUP2 DUP8 DUP10 PUSH2 0xA10 JUMP JUMPDEST SWAP1 POP DUP2 DUP2 SUB PUSH1 0x60 DUP4 ADD MSTORE PUSH2 0xAB4 DUP2 DUP6 DUP8 PUSH2 0xA3D JUMP JUMPDEST SWAP1 POP PUSH2 0xAC3 PUSH1 0x80 DUP4 ADD DUP5 PUSH2 0x633 JUMP JUMPDEST SWAP9 SWAP8 POP POP POP POP POP POP POP POP JUMP INVALID LOG2 PUSH5 0x6970667358 0x22 SLT KECCAK256 SWAP12 OR SLOAD SWAP14 0xAC PUSH12 0xDF1324C6003A667FFA60AF6F PUSH15 0xA55C48CD1CC37C1A205CDABEFC6473 PUSH16 0x6C634300081100330000000000000000 "
				},
				"gasEstimates": {
					"creation": {
						"codeDepositCost": "564200",
						"executionCost": "24866",
						"totalCost": "589066"
					},
					"external": {
						"MAX_DELAY()": "352",
						"MIN_DELAY()": "373",
						"execute(address,uint256,string,bytes,uint256)": "infinite",
						"getTxId(address,uint256,string,bytes,uint256)": "infinite",
						"owner()": "2533",
						"queue(address,uint256,string,bytes,uint256)": "infinite",
						"queued(bytes32)": "2797"
					}
				},
				"methodIdentifiers": {
					"MAX_DELAY()": "4125ff90",
					"MIN_DELAY()": "9f81aed7",
					"execute(address,uint256,string,bytes,uint256)": "b0f8b142",
					"getTxId(address,uint256,string,bytes,uint256)": "8a1ce0b6",
					"owner()": "8da5cb5b",
					"queue(address,uint256,string,bytes,uint256)": "4b9915a5",
					"queued(bytes32)": "228250c9"
				}
			},
			"storageLayout": {
				"storage": [
					{
						"astId": 43,
						"contract": "TimeLock.sol:TimeLock",
						"label": "owner",
						"offset": 0,
						"slot": "0",
						"type": "t_address"
					},
					{
						"astId": 47,
						"contract": "TimeLock.sol:TimeLock",
						"label": "queued",
						"offset": 0,
						"slot": "1",
						"type": "t_mapping(t_bytes32,t_bool)"
					}
				],
				"types": {
					"t_address": {
						"encoding": "inplace",
						"label": "address",
						"numberOfBytes": "20"
					},
					"t_bool": {
						"encoding": "inplace",
						"label": "bool",
						"numberOfBytes": "1"
					},
					"t_bytes32": {
						"encoding": "inplace",
						"label": "bytes32",
						"numberOfBytes": "32"
					},
					"t_mapping(t_bytes32,t_bool)": {
						"encoding": "mapping",
						"key": "t_bytes32",
						"label": "mapping(bytes32 => bool)",
						"numberOfBytes": "32",
						"value": "t_bool"
					}
				}
			},
			"userdoc": {
				"kind": "user",
				"methods": {},
				"version": 1
			}
		}
	}
}