{
	"VisibilityBase.sol": {
		"VisibilityBase": {
			"abi": [
				{
					"inputs": [],
					"name": "examples",
					"outputs": [],
					"stateMutability": "view",
					"type": "function"
				},
				{
					"inputs": [],
					"name": "externalFunc",
					"outputs": [
						{
							"internalType": "uint256",
							"name": "",
							"type": "uint256"
						}
					],
					"stateMutability": "pure",
					"type": "function"
				},
				{
					"inputs": [],
					"name": "publicFunc",
					"outputs": [
						{
							"internalType": "uint256",
							"name": "",
							"type": "uint256"
						}
					],
					"stateMutability": "pure",
					"type": "function"
				},
				{
					"inputs": [],
					"name": "z",
					"outputs": [
						{
							"internalType": "uint256",
							"name": "",
							"type": "uint256"
						}
					],
					"stateMutability": "view",
					"type": "function"
				}
			],
			"devdoc": {
				"kind": "dev",
				"methods": {},
				"version": 1
			},
			"evm": {
				"assembly": "    /* \"VisibilityBase.sol\":61:666  contract VisibilityBase {... */\n  mstore(0x40, 0x80)\n    /* \"VisibilityBase.sol\":109:110  0 */\n  0x00\n    /* \"VisibilityBase.sol\":92:110  uint private x = 0 */\n  dup1\n  sstore\n    /* \"VisibilityBase.sol\":135:136  1 */\n  0x01\n    /* \"VisibilityBase.sol\":117:136  uint internal y = 1 */\n  dup1\n  sstore\n    /* \"VisibilityBase.sol\":159:160  2 */\n  0x02\n    /* \"VisibilityBase.sol\":143:160  uint public z = 2 */\n  dup1\n  sstore\n    /* \"VisibilityBase.sol\":61:666  contract VisibilityBase {... */\n  callvalue\n  dup1\n  iszero\n  tag_1\n  jumpi\n  0x00\n  dup1\n  revert\ntag_1:\n  pop\n  dataSize(sub_0)\n  dup1\n  dataOffset(sub_0)\n  0x00\n  codecopy\n  0x00\n  return\nstop\n\nsub_0: assembly {\n        /* \"VisibilityBase.sol\":61:666  contract VisibilityBase {... */\n      mstore(0x40, 0x80)\n      callvalue\n      dup1\n      iszero\n      tag_1\n      jumpi\n      0x00\n      dup1\n      revert\n    tag_1:\n      pop\n      jumpi(tag_2, lt(calldatasize, 0x04))\n      shr(0xe0, calldataload(0x00))\n      dup1\n      0x335d00c2\n      eq\n      tag_3\n      jumpi\n      dup1\n      0x42b148aa\n      eq\n      tag_4\n      jumpi\n      dup1\n      0x4b73383f\n      eq\n      tag_5\n      jumpi\n      dup1\n      0xc5d7802e\n      eq\n      tag_6\n      jumpi\n    tag_2:\n      0x00\n      dup1\n      revert\n        /* \"VisibilityBase.sol\":527:663  function examples() external view {... */\n    tag_3:\n      tag_7\n      tag_8\n      jump\t// in\n    tag_7:\n      stop\n        /* \"VisibilityBase.sol\":439:519  function externalFunc() public pure returns (uint) {... */\n    tag_4:\n      tag_9\n      tag_10\n      jump\t// in\n    tag_9:\n      mload(0x40)\n      tag_11\n      swap2\n      swap1\n      tag_12\n      jump\t// in\n    tag_11:\n      mload(0x40)\n      dup1\n      swap2\n      sub\n      swap1\n      return\n        /* \"VisibilityBase.sol\":353:431  function publicFunc() public pure returns (uint) {... */\n    tag_5:\n      tag_13\n      tag_14\n      jump\t// in\n    tag_13:\n      mload(0x40)\n      tag_15\n      swap2\n      swap1\n      tag_12\n      jump\t// in\n    tag_15:\n      mload(0x40)\n      dup1\n      swap2\n      sub\n      swap1\n      return\n        /* \"VisibilityBase.sol\":143:160  uint public z = 2 */\n    tag_6:\n      tag_16\n      tag_17\n      jump\t// in\n    tag_16:\n      mload(0x40)\n      tag_18\n      swap2\n      swap1\n      tag_12\n      jump\t// in\n    tag_18:\n      mload(0x40)\n      dup1\n      swap2\n      sub\n      swap1\n      return\n        /* \"VisibilityBase.sol\":527:663  function examples() external view {... */\n    tag_8:\n        /* \"VisibilityBase.sol\":580:581  z */\n      sload(0x02)\n        /* \"VisibilityBase.sol\":576:577  y */\n      sload(0x01)\n        /* \"VisibilityBase.sol\":572:573  x */\n      sload(0x00)\n        /* \"VisibilityBase.sol\":572:577  x + y */\n      tag_20\n      swap2\n      swap1\n      tag_21\n      jump\t// in\n    tag_20:\n        /* \"VisibilityBase.sol\":572:581  x + y + z */\n      tag_22\n      swap2\n      swap1\n      tag_21\n      jump\t// in\n    tag_22:\n      pop\n        /* \"VisibilityBase.sol\":594:607  privateFunc() */\n      tag_23\n        /* \"VisibilityBase.sol\":594:605  privateFunc */\n      tag_24\n        /* \"VisibilityBase.sol\":594:607  privateFunc() */\n      jump\t// in\n    tag_23:\n      pop\n        /* \"VisibilityBase.sol\":618:632  internalFunc() */\n      tag_25\n        /* \"VisibilityBase.sol\":618:630  internalFunc */\n      tag_26\n        /* \"VisibilityBase.sol\":618:632  internalFunc() */\n      jump\t// in\n    tag_25:\n      pop\n        /* \"VisibilityBase.sol\":527:663  function examples() external view {... */\n      jump\t// out\n        /* \"VisibilityBase.sol\":439:519  function externalFunc() public pure returns (uint) {... */\n    tag_10:\n        /* \"VisibilityBase.sol\":484:488  uint */\n      0x00\n        /* \"VisibilityBase.sol\":508:511  300 */\n      0x012c\n        /* \"VisibilityBase.sol\":501:511  return 300 */\n      swap1\n      pop\n        /* \"VisibilityBase.sol\":439:519  function externalFunc() public pure returns (uint) {... */\n      swap1\n      jump\t// out\n        /* \"VisibilityBase.sol\":353:431  function publicFunc() public pure returns (uint) {... */\n    tag_14:\n        /* \"VisibilityBase.sol\":396:400  uint */\n      0x00\n        /* \"VisibilityBase.sol\":420:423  200 */\n      0xc8\n        /* \"VisibilityBase.sol\":413:423  return 200 */\n      swap1\n      pop\n        /* \"VisibilityBase.sol\":353:431  function publicFunc() public pure returns (uint) {... */\n      swap1\n      jump\t// out\n        /* \"VisibilityBase.sol\":143:160  uint public z = 2 */\n    tag_17:\n      sload(0x02)\n      dup2\n      jump\t// out\n        /* \"VisibilityBase.sol\":177:255  function privateFunc() private pure returns (uint) {... */\n    tag_24:\n        /* \"VisibilityBase.sol\":222:226  uint */\n      0x00\n        /* \"VisibilityBase.sol\":177:255  function privateFunc() private pure returns (uint) {... */\n      swap1\n      jump\t// out\n        /* \"VisibilityBase.sol\":263:345  function internalFunc() internal pure returns (uint) {... */\n    tag_26:\n        /* \"VisibilityBase.sol\":310:314  uint */\n      0x00\n        /* \"VisibilityBase.sol\":334:337  100 */\n      0x64\n        /* \"VisibilityBase.sol\":327:337  return 100 */\n      swap1\n      pop\n        /* \"VisibilityBase.sol\":263:345  function internalFunc() internal pure returns (uint) {... */\n      swap1\n      jump\t// out\n        /* \"#utility.yul\":7:84   */\n    tag_31:\n        /* \"#utility.yul\":44:51   */\n      0x00\n        /* \"#utility.yul\":73:78   */\n      dup2\n        /* \"#utility.yul\":62:78   */\n      swap1\n      pop\n        /* \"#utility.yul\":7:84   */\n      swap2\n      swap1\n      pop\n      jump\t// out\n        /* \"#utility.yul\":90:208   */\n    tag_32:\n        /* \"#utility.yul\":177:201   */\n      tag_37\n        /* \"#utility.yul\":195:200   */\n      dup2\n        /* \"#utility.yul\":177:201   */\n      tag_31\n      jump\t// in\n    tag_37:\n        /* \"#utility.yul\":172:175   */\n      dup3\n        /* \"#utility.yul\":165:202   */\n      mstore\n        /* \"#utility.yul\":90:208   */\n      pop\n      pop\n      jump\t// out\n        /* \"#utility.yul\":214:436   */\n    tag_12:\n        /* \"#utility.yul\":307:311   */\n      0x00\n        /* \"#utility.yul\":345:347   */\n      0x20\n        /* \"#utility.yul\":334:343   */\n      dup3\n        /* \"#utility.yul\":330:348   */\n      add\n        /* \"#utility.yul\":322:348   */\n      swap1\n      pop\n        /* \"#utility.yul\":358:429   */\n      tag_39\n        /* \"#utility.yul\":426:427   */\n      0x00\n        /* \"#utility.yul\":415:424   */\n      dup4\n        /* \"#utility.yul\":411:428   */\n      add\n        /* \"#utility.yul\":402:408   */\n      dup5\n        /* \"#utility.yul\":358:429   */\n      tag_32\n      jump\t// in\n    tag_39:\n        /* \"#utility.yul\":214:436   */\n      swap3\n      swap2\n      pop\n      pop\n      jump\t// out\n        /* \"#utility.yul\":442:622   */\n    tag_33:\n        /* \"#utility.yul\":490:567   */\n      0x4e487b7100000000000000000000000000000000000000000000000000000000\n        /* \"#utility.yul\":487:488   */\n      0x00\n        /* \"#utility.yul\":480:568   */\n      mstore\n        /* \"#utility.yul\":587:591   */\n      0x11\n        /* \"#utility.yul\":584:585   */\n      0x04\n        /* \"#utility.yul\":577:592   */\n      mstore\n        /* \"#utility.yul\":611:615   */\n      0x24\n        /* \"#utility.yul\":608:609   */\n      0x00\n        /* \"#utility.yul\":601:616   */\n      revert\n        /* \"#utility.yul\":628:819   */\n    tag_21:\n        /* \"#utility.yul\":668:671   */\n      0x00\n        /* \"#utility.yul\":687:707   */\n      tag_42\n        /* \"#utility.yul\":705:706   */\n      dup3\n        /* \"#utility.yul\":687:707   */\n      tag_31\n      jump\t// in\n    tag_42:\n        /* \"#utility.yul\":682:707   */\n      swap2\n      pop\n        /* \"#utility.yul\":721:741   */\n      tag_43\n        /* \"#utility.yul\":739:740   */\n      dup4\n        /* \"#utility.yul\":721:741   */\n      tag_31\n      jump\t// in\n    tag_43:\n        /* \"#utility.yul\":716:741   */\n      swap3\n      pop\n        /* \"#utility.yul\":764:765   */\n      dup3\n        /* \"#utility.yul\":761:762   */\n      dup3\n        /* \"#utility.yul\":757:766   */\n      add\n        /* \"#utility.yul\":750:766   */\n      swap1\n      pop\n        /* \"#utility.yul\":785:788   */\n      dup1\n        /* \"#utility.yul\":782:783   */\n      dup3\n        /* \"#utility.yul\":779:789   */\n      gt\n        /* \"#utility.yul\":776:812   */\n      iszero\n      tag_44\n      jumpi\n        /* \"#utility.yul\":792:810   */\n      tag_45\n      tag_33\n      jump\t// in\n    tag_45:\n        /* \"#utility.yul\":776:812   */\n    tag_44:\n        /* \"#utility.yul\":628:819   */\n      swap3\n      swap2\n      pop\n      pop\n      jump\t// out\n\n    auxdata: 0xa2646970667358221220f9bab7d527208449041d16605d0fec71fdeb4f5d70844a9803b6dd7db21241ba64736f6c63430008110033\n}\n",
				"bytecode": {
					"linkReferences": {},
					"object": "608060405260008055600180556002805534801561001c57600080fd5b506101db8061002c6000396000f3fe608060405234801561001057600080fd5b506004361061004c5760003560e01c8063335d00c21461005157806342b148aa1461005b5780634b73383f14610079578063c5d7802e14610097575b600080fd5b6100596100b5565b005b6100636100e7565b6040516100709190610127565b60405180910390f35b6100816100f1565b60405161008e9190610127565b60405180910390f35b61009f6100fa565b6040516100ac9190610127565b60405180910390f35b6002546001546000546100c89190610171565b6100d29190610171565b506100db610100565b506100e4610105565b50565b600061012c905090565b600060c8905090565b60025481565b600090565b60006064905090565b6000819050919050565b6101218161010e565b82525050565b600060208201905061013c6000830184610118565b92915050565b7f4e487b7100000000000000000000000000000000000000000000000000000000600052601160045260246000fd5b600061017c8261010e565b91506101878361010e565b925082820190508082111561019f5761019e610142565b5b9291505056fea2646970667358221220f9bab7d527208449041d16605d0fec71fdeb4f5d70844a9803b6dd7db21241ba64736f6c63430008110033",
					"opcodes": "PUSH1 0x80 PUSH1 0x40 MSTORE PUSH1 0x0 DUP1 SSTORE PUSH1 0x1 DUP1 SSTORE PUSH1 0x2 DUP1 SSTORE CALLVALUE DUP1 ISZERO PUSH2 0x1C JUMPI PUSH1 0x0 DUP1 REVERT JUMPDEST POP PUSH2 0x1DB DUP1 PUSH2 0x2C PUSH1 0x0 CODECOPY PUSH1 0x0 RETURN INVALID PUSH1 0x80 PUSH1 0x40 MSTORE CALLVALUE DUP1 ISZERO PUSH2 0x10 JUMPI PUSH1 0x0 DUP1 REVERT JUMPDEST POP PUSH1 0x4 CALLDATASIZE LT PUSH2 0x4C JUMPI PUSH1 0x0 CALLDATALOAD PUSH1 0xE0 SHR DUP1 PUSH4 0x335D00C2 EQ PUSH2 0x51 JUMPI DUP1 PUSH4 0x42B148AA EQ PUSH2 0x5B JUMPI DUP1 PUSH4 0x4B73383F EQ PUSH2 0x79 JUMPI DUP1 PUSH4 0xC5D7802E EQ PUSH2 0x97 JUMPI JUMPDEST PUSH1 0x0 DUP1 REVERT JUMPDEST PUSH2 0x59 PUSH2 0xB5 JUMP JUMPDEST STOP JUMPDEST PUSH2 0x63 PUSH2 0xE7 JUMP JUMPDEST PUSH1 0x40 MLOAD PUSH2 0x70 SWAP2 SWAP1 PUSH2 0x127 JUMP JUMPDEST PUSH1 0x40 MLOAD DUP1 SWAP2 SUB SWAP1 RETURN JUMPDEST PUSH2 0x81 PUSH2 0xF1 JUMP JUMPDEST PUSH1 0x40 MLOAD PUSH2 0x8E SWAP2 SWAP1 PUSH2 0x127 JUMP JUMPDEST PUSH1 0x40 MLOAD DUP1 SWAP2 SUB SWAP1 RETURN JUMPDEST PUSH2 0x9F PUSH2 0xFA JUMP JUMPDEST PUSH1 0x40 MLOAD PUSH2 0xAC SWAP2 SWAP1 PUSH2 0x127 JUMP JUMPDEST PUSH1 0x40 MLOAD DUP1 SWAP2 SUB SWAP1 RETURN JUMPDEST PUSH1 0x2 SLOAD PUSH1 0x1 SLOAD PUSH1 0x0 SLOAD PUSH2 0xC8 SWAP2 SWAP1 PUSH2 0x171 JUMP JUMPDEST PUSH2 0xD2 SWAP2 SWAP1 PUSH2 0x171 JUMP JUMPDEST POP PUSH2 0xDB PUSH2 0x100 JUMP JUMPDEST POP PUSH2 0xE4 PUSH2 0x105 JUMP JUMPDEST POP JUMP JUMPDEST PUSH1 0x0 PUSH2 0x12C SWAP1 POP SWAP1 JUMP JUMPDEST PUSH1 0x0 PUSH1 0xC8 SWAP1 POP SWAP1 JUMP JUMPDEST PUSH1 0x2 SLOAD DUP2 JUMP JUMPDEST PUSH1 0x0 SWAP1 JUMP JUMPDEST PUSH1 0x0 PUSH1 0x64 SWAP1 POP SWAP1 JUMP JUMPDEST PUSH1 0x0 DUP2 SWAP1 POP SWAP2 SWAP1 POP JUMP JUMPDEST PUSH2 0x121 DUP2 PUSH2 0x10E JUMP JUMPDEST DUP3 MSTORE POP POP JUMP JUMPDEST PUSH1 0x0 PUSH1 0x20 DUP3 ADD SWAP1 POP PUSH2 0x13C PUSH1 0x0 DUP4 ADD DUP5 PUSH2 0x118 JUMP JUMPDEST SWAP3 SWAP2 POP POP JUMP JUMPDEST PUSH32 0x4E487B7100000000000000000000000000000000000000000000000000000000 PUSH1 0x0 MSTORE PUSH1 0x11 PUSH1 0x4 MSTORE PUSH1 0x24 PUSH1 0x0 REVERT JUMPDEST PUSH1 0x0 PUSH2 0x17C DUP3 PUSH2 0x10E JUMP JUMPDEST SWAP2 POP PUSH2 0x187 DUP4 PUSH2 0x10E JUMP JUMPDEST SWAP3 POP DUP3 DUP3 ADD SWAP1 POP DUP1 DUP3 GT ISZERO PUSH2 0x19F JUMPI PUSH2 0x19E PUSH2 0x142 JUMP JUMPDEST JUMPDEST SWAP3 SWAP2 POP POP JUMP INVALID LOG2 PUSH5 0x6970667358 0x22 SLT KECCAK256 0xF9 0xBA 0xB7 0xD5 0x27 KECCAK256 DUP5 0x49 DIV SAR AND PUSH1 0x5D 0xF 0xEC PUSH18 0xFDEB4F5D70844A9803B6DD7DB21241BA6473 PUSH16 0x6C634300081100330000000000000000 "
				},
				"gasEstimates": {
					"creation": {
						"codeDepositCost": "95000",
						"executionCost": "49359",
						"totalCost": "144359"
					},
					"external": {
						"examples()": "infinite",
						"externalFunc()": "337",
						"publicFunc()": "359",
						"z()": "2473"
					},
					"internal": {
						"internalFunc()": "23",
						"privateFunc()": "15"
					}
				},
				"methodIdentifiers": {
					"examples()": "335d00c2",
					"externalFunc()": "42b148aa",
					"publicFunc()": "4b73383f",
					"z()": "c5d7802e"
				}
			},
			"storageLayout": {
				"storage": [
					{
						"astId": 4,
						"contract": "VisibilityBase.sol:VisibilityBase",
						"label": "x",
						"offset": 0,
						"slot": "0",
						"type": "t_uint256"
					},
					{
						"astId": 7,
						"contract": "VisibilityBase.sol:VisibilityBase",
						"label": "y",
						"offset": 0,
						"slot": "1",
						"type": "t_uint256"
					},
					{
						"astId": 10,
						"contract": "VisibilityBase.sol:VisibilityBase",
						"label": "z",
						"offset": 0,
						"slot": "2",
						"type": "t_uint256"
					}
				],
				"types": {
					"t_uint256": {
						"encoding": "inplace",
						"label": "uint256",
						"numberOfBytes": "32"
					}
				}
			},
			"userdoc": {
				"kind": "user",
				"methods": {},
				"version": 1
			}
		}
	}
}