{
	"VisibilityBase.sol": {
		"A": {
			"abi": [
				{
					"inputs": [],
					"name": "examples",
					"outputs": [],
					"stateMutability": "view",
					"type": "function"
				},
				{
					"inputs": [],
					"name": "externalFunc",
					"outputs": [
						{
							"internalType": "uint256",
							"name": "",
							"type": "uint256"
						}
					],
					"stateMutability": "pure",
					"type": "function"
				},
				{
					"inputs": [],
					"name": "publicFunc",
					"outputs": [
						{
							"internalType": "uint256",
							"name": "",
							"type": "uint256"
						}
					],
					"stateMutability": "pure",
					"type": "function"
				},
				{
					"inputs": [],
					"name": "test",
					"outputs": [
						{
							"internalType": "uint256",
							"name": "",
							"type": "uint256"
						}
					],
					"stateMutability": "view",
					"type": "function"
				},
				{
					"inputs": [],
					"name": "z",
					"outputs": [
						{
							"internalType": "uint256",
							"name": "",
							"type": "uint256"
						}
					],
					"stateMutability": "view",
					"type": "function"
				}
			],
			"devdoc": {
				"kind": "dev",
				"methods": {},
				"version": 1
			},
			"evm": {
				"assembly": "    /* \"VisibilityBase.sol\":670:801  contract A is VisibilityBase {... */\n  mstore(0x40, 0x80)\n    /* \"VisibilityBase.sol\":109:110  0 */\n  0x00\n    /* \"VisibilityBase.sol\":92:110  uint private x = 0 */\n  dup1\n  sstore\n    /* \"VisibilityBase.sol\":135:136  1 */\n  0x01\n    /* \"VisibilityBase.sol\":117:136  uint internal y = 1 */\n  dup1\n  sstore\n    /* \"VisibilityBase.sol\":159:160  2 */\n  0x02\n    /* \"VisibilityBase.sol\":143:160  uint public z = 2 */\n  dup1\n  sstore\n    /* \"VisibilityBase.sol\":670:801  contract A is VisibilityBase {... */\n  callvalue\n  dup1\n  iszero\n  tag_1\n  jumpi\n  0x00\n  dup1\n  revert\ntag_1:\n  pop\n  dataSize(sub_0)\n  dup1\n  dataOffset(sub_0)\n  0x00\n  codecopy\n  0x00\n  return\nstop\n\nsub_0: assembly {\n        /* \"VisibilityBase.sol\":670:801  contract A is VisibilityBase {... */\n      mstore(0x40, 0x80)\n      callvalue\n      dup1\n      iszero\n      tag_1\n      jumpi\n      0x00\n      dup1\n      revert\n    tag_1:\n      pop\n      jumpi(tag_2, lt(calldatasize, 0x04))\n      shr(0xe0, calldataload(0x00))\n      dup1\n      0x335d00c2\n      eq\n      tag_3\n      jumpi\n      dup1\n      0x42b148aa\n      eq\n      tag_4\n      jumpi\n      dup1\n      0x4b73383f\n      eq\n      tag_5\n      jumpi\n      dup1\n      0xc5d7802e\n      eq\n      tag_6\n      jumpi\n      dup1\n      0xf8a8fd6d\n      eq\n      tag_7\n      jumpi\n    tag_2:\n      0x00\n      dup1\n      revert\n        /* \"VisibilityBase.sol\":527:663  function examples() external view {... */\n    tag_3:\n      tag_8\n      tag_9\n      jump\t// in\n    tag_8:\n      stop\n        /* \"VisibilityBase.sol\":439:519  function externalFunc() public pure returns (uint) {... */\n    tag_4:\n      tag_10\n      tag_11\n      jump\t// in\n    tag_10:\n      mload(0x40)\n      tag_12\n      swap2\n      swap1\n      tag_13\n      jump\t// in\n    tag_12:\n      mload(0x40)\n      dup1\n      swap2\n      sub\n      swap1\n      return\n        /* \"VisibilityBase.sol\":353:431  function publicFunc() public pure returns (uint) {... */\n    tag_5:\n      tag_14\n      tag_15\n      jump\t// in\n    tag_14:\n      mload(0x40)\n      tag_16\n      swap2\n      swap1\n      tag_13\n      jump\t// in\n    tag_16:\n      mload(0x40)\n      dup1\n      swap2\n      sub\n      swap1\n      return\n        /* \"VisibilityBase.sol\":143:160  uint public z = 2 */\n    tag_6:\n      tag_17\n      tag_18\n      jump\t// in\n    tag_17:\n      mload(0x40)\n      tag_19\n      swap2\n      swap1\n      tag_13\n      jump\t// in\n    tag_19:\n      mload(0x40)\n      dup1\n      swap2\n      sub\n      swap1\n      return\n        /* \"VisibilityBase.sol\":706:798  function test() public view returns(uint) {... */\n    tag_7:\n      tag_20\n      tag_21\n      jump\t// in\n    tag_20:\n      mload(0x40)\n      tag_22\n      swap2\n      swap1\n      tag_13\n      jump\t// in\n    tag_22:\n      mload(0x40)\n      dup1\n      swap2\n      sub\n      swap1\n      return\n        /* \"VisibilityBase.sol\":527:663  function examples() external view {... */\n    tag_9:\n        /* \"VisibilityBase.sol\":580:581  z */\n      sload(0x02)\n        /* \"VisibilityBase.sol\":576:577  y */\n      sload(0x01)\n        /* \"VisibilityBase.sol\":572:573  x */\n      sload(0x00)\n        /* \"VisibilityBase.sol\":572:577  x + y */\n      tag_24\n      swap2\n      swap1\n      tag_25\n      jump\t// in\n    tag_24:\n        /* \"VisibilityBase.sol\":572:581  x + y + z */\n      tag_26\n      swap2\n      swap1\n      tag_25\n      jump\t// in\n    tag_26:\n      pop\n        /* \"VisibilityBase.sol\":594:607  privateFunc() */\n      tag_27\n        /* \"VisibilityBase.sol\":594:605  privateFunc */\n      tag_28\n        /* \"VisibilityBase.sol\":594:607  privateFunc() */\n      jump\t// in\n    tag_27:\n      pop\n        /* \"VisibilityBase.sol\":618:632  internalFunc() */\n      tag_29\n        /* \"VisibilityBase.sol\":618:630  internalFunc */\n      tag_30\n        /* \"VisibilityBase.sol\":618:632  internalFunc() */\n      jump\t// in\n    tag_29:\n      pop\n        /* \"VisibilityBase.sol\":527:663  function examples() external view {... */\n      jump\t// out\n        /* \"VisibilityBase.sol\":439:519  function externalFunc() public pure returns (uint) {... */\n    tag_11:\n        /* \"VisibilityBase.sol\":484:488  uint */\n      0x00\n        /* \"VisibilityBase.sol\":508:511  300 */\n      0x012c\n        /* \"VisibilityBase.sol\":501:511  return 300 */\n      swap1\n      pop\n        /* \"VisibilityBase.sol\":439:519  function externalFunc() public pure returns (uint) {... */\n      swap1\n      jump\t// out\n        /* \"VisibilityBase.sol\":353:431  function publicFunc() public pure returns (uint) {... */\n    tag_15:\n        /* \"VisibilityBase.sol\":396:400  uint */\n      0x00\n        /* \"VisibilityBase.sol\":420:423  200 */\n      0xc8\n        /* \"VisibilityBase.sol\":413:423  return 200 */\n      swap1\n      pop\n        /* \"VisibilityBase.sol\":353:431  function publicFunc() public pure returns (uint) {... */\n      swap1\n      jump\t// out\n        /* \"VisibilityBase.sol\":143:160  uint public z = 2 */\n    tag_18:\n      sload(0x02)\n      dup2\n      jump\t// out\n        /* \"VisibilityBase.sol\":706:798  function test() public view returns(uint) {... */\n    tag_21:\n        /* \"VisibilityBase.sol\":742:746  uint */\n      0x00\n        /* \"VisibilityBase.sol\":770:790  super.internalFunc() */\n      tag_34\n        /* \"VisibilityBase.sol\":770:788  super.internalFunc */\n      tag_30\n        /* \"VisibilityBase.sol\":770:790  super.internalFunc() */\n      jump\t// in\n    tag_34:\n        /* \"VisibilityBase.sol\":766:767  y */\n      sload(0x01)\n        /* \"VisibilityBase.sol\":766:790  y + super.internalFunc() */\n      tag_35\n      swap2\n      swap1\n      tag_25\n      jump\t// in\n    tag_35:\n        /* \"VisibilityBase.sol\":759:790  return y + super.internalFunc() */\n      swap1\n      pop\n        /* \"VisibilityBase.sol\":706:798  function test() public view returns(uint) {... */\n      swap1\n      jump\t// out\n        /* \"VisibilityBase.sol\":177:255  function privateFunc() private pure returns (uint) {... */\n    tag_28:\n        /* \"VisibilityBase.sol\":222:226  uint */\n      0x00\n        /* \"VisibilityBase.sol\":177:255  function privateFunc() private pure returns (uint) {... */\n      swap1\n      jump\t// out\n        /* \"VisibilityBase.sol\":263:345  function internalFunc() internal pure returns (uint) {... */\n    tag_30:\n        /* \"VisibilityBase.sol\":310:314  uint */\n      0x00\n        /* \"VisibilityBase.sol\":334:337  100 */\n      0x64\n        /* \"VisibilityBase.sol\":327:337  return 100 */\n      swap1\n      pop\n        /* \"VisibilityBase.sol\":263:345  function internalFunc() internal pure returns (uint) {... */\n      swap1\n      jump\t// out\n        /* \"#utility.yul\":7:84   */\n    tag_38:\n        /* \"#utility.yul\":44:51   */\n      0x00\n        /* \"#utility.yul\":73:78   */\n      dup2\n        /* \"#utility.yul\":62:78   */\n      swap1\n      pop\n        /* \"#utility.yul\":7:84   */\n      swap2\n      swap1\n      pop\n      jump\t// out\n        /* \"#utility.yul\":90:208   */\n    tag_39:\n        /* \"#utility.yul\":177:201   */\n      tag_44\n        /* \"#utility.yul\":195:200   */\n      dup2\n        /* \"#utility.yul\":177:201   */\n      tag_38\n      jump\t// in\n    tag_44:\n        /* \"#utility.yul\":172:175   */\n      dup3\n        /* \"#utility.yul\":165:202   */\n      mstore\n        /* \"#utility.yul\":90:208   */\n      pop\n      pop\n      jump\t// out\n        /* \"#utility.yul\":214:436   */\n    tag_13:\n        /* \"#utility.yul\":307:311   */\n      0x00\n        /* \"#utility.yul\":345:347   */\n      0x20\n        /* \"#utility.yul\":334:343   */\n      dup3\n        /* \"#utility.yul\":330:348   */\n      add\n        /* \"#utility.yul\":322:348   */\n      swap1\n      pop\n        /* \"#utility.yul\":358:429   */\n      tag_46\n        /* \"#utility.yul\":426:427   */\n      0x00\n        /* \"#utility.yul\":415:424   */\n      dup4\n        /* \"#utility.yul\":411:428   */\n      add\n        /* \"#utility.yul\":402:408   */\n      dup5\n        /* \"#utility.yul\":358:429   */\n      tag_39\n      jump\t// in\n    tag_46:\n        /* \"#utility.yul\":214:436   */\n      swap3\n      swap2\n      pop\n      pop\n      jump\t// out\n        /* \"#utility.yul\":442:622   */\n    tag_40:\n        /* \"#utility.yul\":490:567   */\n      0x4e487b7100000000000000000000000000000000000000000000000000000000\n        /* \"#utility.yul\":487:488   */\n      0x00\n        /* \"#utility.yul\":480:568   */\n      mstore\n        /* \"#utility.yul\":587:591   */\n      0x11\n        /* \"#utility.yul\":584:585   */\n      0x04\n        /* \"#utility.yul\":577:592   */\n      mstore\n        /* \"#utility.yul\":611:615   */\n      0x24\n        /* \"#utility.yul\":608:609   */\n      0x00\n        /* \"#utility.yul\":601:616   */\n      revert\n        /* \"#utility.yul\":628:819   */\n    tag_25:\n        /* \"#utility.yul\":668:671   */\n      0x00\n        /* \"#utility.yul\":687:707   */\n      tag_49\n        /* \"#utility.yul\":705:706   */\n      dup3\n        /* \"#utility.yul\":687:707   */\n      tag_38\n      jump\t// in\n    tag_49:\n        /* \"#utility.yul\":682:707   */\n      swap2\n      pop\n        /* \"#utility.yul\":721:741   */\n      tag_50\n        /* \"#utility.yul\":739:740   */\n      dup4\n        /* \"#utility.yul\":721:741   */\n      tag_38\n      jump\t// in\n    tag_50:\n        /* \"#utility.yul\":716:741   */\n      swap3\n      pop\n        /* \"#utility.yul\":764:765   */\n      dup3\n        /* \"#utility.yul\":761:762   */\n      dup3\n        /* \"#utility.yul\":757:766   */\n      add\n        /* \"#utility.yul\":750:766   */\n      swap1\n      pop\n        /* \"#utility.yul\":785:788   */\n      dup1\n        /* \"#utility.yul\":782:783   */\n      dup3\n        /* \"#utility.yul\":779:789   */\n      gt\n        /* \"#utility.yul\":776:812   */\n      iszero\n      tag_51\n      jumpi\n        /* \"#utility.yul\":792:810   */\n      tag_52\n      tag_40\n      jump\t// in\n    tag_52:\n        /* \"#utility.yul\":776:812   */\n    tag_51:\n        /* \"#utility.yul\":628:819   */\n      swap3\n      swap2\n      pop\n      pop\n      jump\t// out\n\n    auxdata: 0xa2646970667358221220ebe7ae16c82778959e3219db4cd45f5bb7eaba9869fff3a8be000a1527cb0fbe64736f6c63430008110033\n}\n",
				"bytecode": {
					"linkReferences": {},
					"object": "608060405260008055600180556002805534801561001c57600080fd5b506102208061002c6000396000f3fe608060405234801561001057600080fd5b50600436106100575760003560e01c8063335d00c21461005c57806342b148aa146100665780634b73383f14610084578063c5d7802e146100a2578063f8a8fd6d146100c0575b600080fd5b6100646100de565b005b61006e610110565b60405161007b919061016c565b60405180910390f35b61008c61011a565b604051610099919061016c565b60405180910390f35b6100aa610123565b6040516100b7919061016c565b60405180910390f35b6100c8610129565b6040516100d5919061016c565b60405180910390f35b6002546001546000546100f191906101b6565b6100fb91906101b6565b50610104610145565b5061010d61014a565b50565b600061012c905090565b600060c8905090565b60025481565b600061013361014a565b60015461014091906101b6565b905090565b600090565b60006064905090565b6000819050919050565b61016681610153565b82525050565b6000602082019050610181600083018461015d565b92915050565b7f4e487b7100000000000000000000000000000000000000000000000000000000600052601160045260246000fd5b60006101c182610153565b91506101cc83610153565b92508282019050808211156101e4576101e3610187565b5b9291505056fea2646970667358221220ebe7ae16c82778959e3219db4cd45f5bb7eaba9869fff3a8be000a1527cb0fbe64736f6c63430008110033",
					"opcodes": "PUSH1 0x80 PUSH1 0x40 MSTORE PUSH1 0x0 DUP1 SSTORE PUSH1 0x1 DUP1 SSTORE PUSH1 0x2 DUP1 SSTORE CALLVALUE DUP1 ISZERO PUSH2 0x1C JUMPI PUSH1 0x0 DUP1 REVERT JUMPDEST POP PUSH2 0x220 DUP1 PUSH2 0x2C PUSH1 0x0 CODECOPY PUSH1 0x0 RETURN INVALID PUSH1 0x80 PUSH1 0x40 MSTORE CALLVALUE DUP1 ISZERO PUSH2 0x10 JUMPI PUSH1 0x0 DUP1 REVERT JUMPDEST POP PUSH1 0x4 CALLDATASIZE LT PUSH2 0x57 JUMPI PUSH1 0x0 CALLDATALOAD PUSH1 0xE0 SHR DUP1 PUSH4 0x335D00C2 EQ PUSH2 0x5C JUMPI DUP1 PUSH4 0x42B148AA EQ PUSH2 0x66 JUMPI DUP1 PUSH4 0x4B73383F EQ PUSH2 0x84 JUMPI DUP1 PUSH4 0xC5D7802E EQ PUSH2 0xA2 JUMPI DUP1 PUSH4 0xF8A8FD6D EQ PUSH2 0xC0 JUMPI JUMPDEST PUSH1 0x0 DUP1 REVERT JUMPDEST PUSH2 0x64 PUSH2 0xDE JUMP JUMPDEST STOP JUMPDEST PUSH2 0x6E PUSH2 0x110 JUMP JUMPDEST PUSH1 0x40 MLOAD PUSH2 0x7B SWAP2 SWAP1 PUSH2 0x16C JUMP JUMPDEST PUSH1 0x40 MLOAD DUP1 SWAP2 SUB SWAP1 RETURN JUMPDEST PUSH2 0x8C PUSH2 0x11A JUMP JUMPDEST PUSH1 0x40 MLOAD PUSH2 0x99 SWAP2 SWAP1 PUSH2 0x16C JUMP JUMPDEST PUSH1 0x40 MLOAD DUP1 SWAP2 SUB SWAP1 RETURN JUMPDEST PUSH2 0xAA PUSH2 0x123 JUMP JUMPDEST PUSH1 0x40 MLOAD PUSH2 0xB7 SWAP2 SWAP1 PUSH2 0x16C JUMP JUMPDEST PUSH1 0x40 MLOAD DUP1 SWAP2 SUB SWAP1 RETURN JUMPDEST PUSH2 0xC8 PUSH2 0x129 JUMP JUMPDEST PUSH1 0x40 MLOAD PUSH2 0xD5 SWAP2 SWAP1 PUSH2 0x16C JUMP JUMPDEST PUSH1 0x40 MLOAD DUP1 SWAP2 SUB SWAP1 RETURN JUMPDEST PUSH1 0x2 SLOAD PUSH1 0x1 SLOAD PUSH1 0x0 SLOAD PUSH2 0xF1 SWAP2 SWAP1 PUSH2 0x1B6 JUMP JUMPDEST PUSH2 0xFB SWAP2 SWAP1 PUSH2 0x1B6 JUMP JUMPDEST POP PUSH2 0x104 PUSH2 0x145 JUMP JUMPDEST POP PUSH2 0x10D PUSH2 0x14A JUMP JUMPDEST POP JUMP JUMPDEST PUSH1 0x0 PUSH2 0x12C SWAP1 POP SWAP1 JUMP JUMPDEST PUSH1 0x0 PUSH1 0xC8 SWAP1 POP SWAP1 JUMP JUMPDEST PUSH1 0x2 SLOAD DUP2 JUMP JUMPDEST PUSH1 0x0 PUSH2 0x133 PUSH2 0x14A JUMP JUMPDEST PUSH1 0x1 SLOAD PUSH2 0x140 SWAP2 SWAP1 PUSH2 0x1B6 JUMP JUMPDEST SWAP1 POP SWAP1 JUMP JUMPDEST PUSH1 0x0 SWAP1 JUMP JUMPDEST PUSH1 0x0 PUSH1 0x64 SWAP1 POP SWAP1 JUMP JUMPDEST PUSH1 0x0 DUP2 SWAP1 POP SWAP2 SWAP1 POP JUMP JUMPDEST PUSH2 0x166 DUP2 PUSH2 0x153 JUMP JUMPDEST DUP3 MSTORE POP POP JUMP JUMPDEST PUSH1 0x0 PUSH1 0x20 DUP3 ADD SWAP1 POP PUSH2 0x181 PUSH1 0x0 DUP4 ADD DUP5 PUSH2 0x15D JUMP JUMPDEST SWAP3 SWAP2 POP POP JUMP JUMPDEST PUSH32 0x4E487B7100000000000000000000000000000000000000000000000000000000 PUSH1 0x0 MSTORE PUSH1 0x11 PUSH1 0x4 MSTORE PUSH1 0x24 PUSH1 0x0 REVERT JUMPDEST PUSH1 0x0 PUSH2 0x1C1 DUP3 PUSH2 0x153 JUMP JUMPDEST SWAP2 POP PUSH2 0x1CC DUP4 PUSH2 0x153 JUMP JUMPDEST SWAP3 POP DUP3 DUP3 ADD SWAP1 POP DUP1 DUP3 GT ISZERO PUSH2 0x1E4 JUMPI PUSH2 0x1E3 PUSH2 0x187 JUMP JUMPDEST JUMPDEST SWAP3 SWAP2 POP POP JUMP INVALID LOG2 PUSH5 0x6970667358 0x22 SLT KECCAK256 0xEB 0xE7 0xAE AND 0xC8 0x27 PUSH25 0x959E3219DB4CD45F5BB7EABA9869FFF3A8BE000A1527CB0FBE PUSH5 0x736F6C6343 STOP ADDMOD GT STOP CALLER "
				},
				"gasEstimates": {
					"creation": {
						"codeDepositCost": "108800",
						"executionCost": "49371",
						"totalCost": "158171"
					},
					"external": {
						"examples()": "infinite",
						"externalFunc()": "337",
						"publicFunc()": "359",
						"test()": "infinite",
						"z()": "2473"
					}
				},
				"methodIdentifiers": {
					"examples()": "335d00c2",
					"externalFunc()": "42b148aa",
					"publicFunc()": "4b73383f",
					"test()": "f8a8fd6d",
					"z()": "c5d7802e"
				}
			},
			"storageLayout": {
				"storage": [
					{
						"astId": 4,
						"contract": "VisibilityBase.sol:A",
						"label": "x",
						"offset": 0,
						"slot": "0",
						"type": "t_uint256"
					},
					{
						"astId": 7,
						"contract": "VisibilityBase.sol:A",
						"label": "y",
						"offset": 0,
						"slot": "1",
						"type": "t_uint256"
					},
					{
						"astId": 10,
						"contract": "VisibilityBase.sol:A",
						"label": "z",
						"offset": 0,
						"slot": "2",
						"type": "t_uint256"
					}
				],
				"types": {
					"t_uint256": {
						"encoding": "inplace",
						"label": "uint256",
						"numberOfBytes": "32"
					}
				}
			},
			"userdoc": {
				"kind": "user",
				"methods": {},
				"version": 1
			}
		}
	}
}