{
	"AbiDecode.sol": {
		"AbiDecode": {
			"abi": [
				{
					"inputs": [
						{
							"internalType": "bytes",
							"name": "data",
							"type": "bytes"
						}
					],
					"name": "decode",
					"outputs": [
						{
							"internalType": "uint256",
							"name": "x",
							"type": "uint256"
						},
						{
							"internalType": "address",
							"name": "",
							"type": "address"
						}
					],
					"stateMutability": "pure",
					"type": "function"
				},
				{
					"inputs": [
						{
							"internalType": "uint256",
							"name": "x",
							"type": "uint256"
						},
						{
							"internalType": "address",
							"name": "addr",
							"type": "address"
						},
						{
							"internalType": "uint256[]",
							"name": "arr",
							"type": "uint256[]"
						},
						{
							"components": [
								{
									"internalType": "string",
									"name": "mame",
									"type": "string"
								},
								{
									"internalType": "uint256[2]",
									"name": "nums",
									"type": "uint256[2]"
								}
							],
							"internalType": "struct AbiDecode.Mystruct",
							"name": "myStruct",
							"type": "tuple"
						}
					],
					"name": "encode",
					"outputs": [
						{
							"internalType": "bytes",
							"name": "",
							"type": "bytes"
						}
					],
					"stateMutability": "pure",
					"type": "function"
				}
			],
			"devdoc": {
				"kind": "dev",
				"methods": {},
				"version": 1
			},
			"evm": {
				"assembly": "    /* \"AbiDecode.sol\":61:447  contract AbiDecode {... */\n  mstore(0x40, 0x80)\n  callvalue\n  dup1\n  iszero\n  tag_1\n  jumpi\n  0x00\n  dup1\n  revert\ntag_1:\n  pop\n  dataSize(sub_0)\n  dup1\n  dataOffset(sub_0)\n  0x00\n  codecopy\n  0x00\n  return\nstop\n\nsub_0: assembly {\n        /* \"AbiDecode.sol\":61:447  contract AbiDecode {... */\n      mstore(0x40, 0x80)\n      callvalue\n      dup1\n      iszero\n      tag_1\n      jumpi\n      0x00\n      dup1\n      revert\n    tag_1:\n      pop\n      jumpi(tag_2, lt(calldatasize, 0x04))\n      shr(0xe0, calldataload(0x00))\n      dup1\n      0x7049e087\n      eq\n      tag_3\n      jumpi\n      dup1\n      0xe5c5e9a3\n      eq\n      tag_4\n      jumpi\n    tag_2:\n      0x00\n      dup1\n      revert\n        /* \"AbiDecode.sol\":164:349  function encode (uint x, address addr, uint[] calldata arr, Mystruct calldata myStruct) external pure returns (bytes memory) {... */\n    tag_3:\n      tag_5\n      0x04\n      dup1\n      calldatasize\n      sub\n      dup2\n      add\n      swap1\n      tag_6\n      swap2\n      swap1\n      tag_7\n      jump\t// in\n    tag_6:\n      tag_8\n      jump\t// in\n    tag_5:\n      mload(0x40)\n      tag_9\n      swap2\n      swap1\n      tag_10\n      jump\t// in\n    tag_9:\n      mload(0x40)\n      dup1\n      swap2\n      sub\n      swap1\n      return\n        /* \"AbiDecode.sol\":357:444  function decode(bytes calldata data) external pure returns (uint x, address) {... */\n    tag_4:\n      tag_11\n      0x04\n      dup1\n      calldatasize\n      sub\n      dup2\n      add\n      swap1\n      tag_12\n      swap2\n      swap1\n      tag_13\n      jump\t// in\n    tag_12:\n      tag_14\n      jump\t// in\n    tag_11:\n      mload(0x40)\n      tag_15\n      swap3\n      swap2\n      swap1\n      tag_16\n      jump\t// in\n    tag_15:\n      mload(0x40)\n      dup1\n      swap2\n      sub\n      swap1\n      return\n        /* \"AbiDecode.sol\":164:349  function encode (uint x, address addr, uint[] calldata arr, Mystruct calldata myStruct) external pure returns (bytes memory) {... */\n    tag_8:\n        /* \"AbiDecode.sol\":275:287  bytes memory */\n      0x60\n        /* \"AbiDecode.sol\":318:319  x */\n      dup6\n        /* \"AbiDecode.sol\":321:325  addr */\n      dup6\n        /* \"AbiDecode.sol\":327:330  arr */\n      dup6\n      dup6\n        /* \"AbiDecode.sol\":332:340  myStruct */\n      dup6\n        /* \"AbiDecode.sol\":307:341  abi.encode(x, addr, arr, myStruct) */\n      add(0x20, mload(0x40))\n      tag_18\n      swap6\n      swap5\n      swap4\n      swap3\n      swap2\n      swap1\n      tag_19\n      jump\t// in\n    tag_18:\n      mload(0x40)\n      0x20\n      dup2\n      dup4\n      sub\n      sub\n      dup2\n      mstore\n      swap1\n      0x40\n      mstore\n        /* \"AbiDecode.sol\":300:341  return abi.encode(x, addr, arr, myStruct) */\n      swap1\n      pop\n        /* \"AbiDecode.sol\":164:349  function encode (uint x, address addr, uint[] calldata arr, Mystruct calldata myStruct) external pure returns (bytes memory) {... */\n      swap6\n      swap5\n      pop\n      pop\n      pop\n      pop\n      pop\n      jump\t// out\n        /* \"AbiDecode.sol\":357:444  function decode(bytes calldata data) external pure returns (uint x, address) {... */\n    tag_14:\n        /* \"AbiDecode.sol\":417:423  uint x */\n      0x00\n        /* \"AbiDecode.sol\":425:432  address */\n      dup1\n        /* \"AbiDecode.sol\":357:444  function decode(bytes calldata data) external pure returns (uint x, address) {... */\n      swap3\n      pop\n      swap3\n      swap1\n      pop\n      jump\t// out\n        /* \"#utility.yul\":88:205   */\n    tag_22:\n        /* \"#utility.yul\":197:198   */\n      0x00\n        /* \"#utility.yul\":194:195   */\n      dup1\n        /* \"#utility.yul\":187:199   */\n      revert\n        /* \"#utility.yul\":211:328   */\n    tag_23:\n        /* \"#utility.yul\":320:321   */\n      0x00\n        /* \"#utility.yul\":317:318   */\n      dup1\n        /* \"#utility.yul\":310:322   */\n      revert\n        /* \"#utility.yul\":334:411   */\n    tag_24:\n        /* \"#utility.yul\":371:378   */\n      0x00\n        /* \"#utility.yul\":400:405   */\n      dup2\n        /* \"#utility.yul\":389:405   */\n      swap1\n      pop\n        /* \"#utility.yul\":334:411   */\n      swap2\n      swap1\n      pop\n      jump\t// out\n        /* \"#utility.yul\":417:539   */\n    tag_25:\n        /* \"#utility.yul\":490:514   */\n      tag_65\n        /* \"#utility.yul\":508:513   */\n      dup2\n        /* \"#utility.yul\":490:514   */\n      tag_24\n      jump\t// in\n    tag_65:\n        /* \"#utility.yul\":483:488   */\n      dup2\n        /* \"#utility.yul\":480:515   */\n      eq\n        /* \"#utility.yul\":470:533   */\n      tag_66\n      jumpi\n        /* \"#utility.yul\":529:530   */\n      0x00\n        /* \"#utility.yul\":526:527   */\n      dup1\n        /* \"#utility.yul\":519:531   */\n      revert\n        /* \"#utility.yul\":470:533   */\n    tag_66:\n        /* \"#utility.yul\":417:539   */\n      pop\n      jump\t// out\n        /* \"#utility.yul\":545:684   */\n    tag_26:\n        /* \"#utility.yul\":591:596   */\n      0x00\n        /* \"#utility.yul\":629:635   */\n      dup2\n        /* \"#utility.yul\":616:636   */\n      calldataload\n        /* \"#utility.yul\":607:636   */\n      swap1\n      pop\n        /* \"#utility.yul\":645:678   */\n      tag_68\n        /* \"#utility.yul\":672:677   */\n      dup2\n        /* \"#utility.yul\":645:678   */\n      tag_25\n      jump\t// in\n    tag_68:\n        /* \"#utility.yul\":545:684   */\n      swap3\n      swap2\n      pop\n      pop\n      jump\t// out\n        /* \"#utility.yul\":690:816   */\n    tag_27:\n        /* \"#utility.yul\":727:734   */\n      0x00\n        /* \"#utility.yul\":767:809   */\n      0xffffffffffffffffffffffffffffffffffffffff\n        /* \"#utility.yul\":760:765   */\n      dup3\n        /* \"#utility.yul\":756:810   */\n      and\n        /* \"#utility.yul\":745:810   */\n      swap1\n      pop\n        /* \"#utility.yul\":690:816   */\n      swap2\n      swap1\n      pop\n      jump\t// out\n        /* \"#utility.yul\":822:918   */\n    tag_28:\n        /* \"#utility.yul\":859:866   */\n      0x00\n        /* \"#utility.yul\":888:912   */\n      tag_71\n        /* \"#utility.yul\":906:911   */\n      dup3\n        /* \"#utility.yul\":888:912   */\n      tag_27\n      jump\t// in\n    tag_71:\n        /* \"#utility.yul\":877:912   */\n      swap1\n      pop\n        /* \"#utility.yul\":822:918   */\n      swap2\n      swap1\n      pop\n      jump\t// out\n        /* \"#utility.yul\":924:1046   */\n    tag_29:\n        /* \"#utility.yul\":997:1021   */\n      tag_73\n        /* \"#utility.yul\":1015:1020   */\n      dup2\n        /* \"#utility.yul\":997:1021   */\n      tag_28\n      jump\t// in\n    tag_73:\n        /* \"#utility.yul\":990:995   */\n      dup2\n        /* \"#utility.yul\":987:1022   */\n      eq\n        /* \"#utility.yul\":977:1040   */\n      tag_74\n      jumpi\n        /* \"#utility.yul\":1036:1037   */\n      0x00\n        /* \"#utility.yul\":1033:1034   */\n      dup1\n        /* \"#utility.yul\":1026:1038   */\n      revert\n        /* \"#utility.yul\":977:1040   */\n    tag_74:\n        /* \"#utility.yul\":924:1046   */\n      pop\n      jump\t// out\n        /* \"#utility.yul\":1052:1191   */\n    tag_30:\n        /* \"#utility.yul\":1098:1103   */\n      0x00\n        /* \"#utility.yul\":1136:1142   */\n      dup2\n        /* \"#utility.yul\":1123:1143   */\n      calldataload\n        /* \"#utility.yul\":1114:1143   */\n      swap1\n      pop\n        /* \"#utility.yul\":1152:1185   */\n      tag_76\n        /* \"#utility.yul\":1179:1184   */\n      dup2\n        /* \"#utility.yul\":1152:1185   */\n      tag_29\n      jump\t// in\n    tag_76:\n        /* \"#utility.yul\":1052:1191   */\n      swap3\n      swap2\n      pop\n      pop\n      jump\t// out\n        /* \"#utility.yul\":1197:1314   */\n    tag_31:\n        /* \"#utility.yul\":1306:1307   */\n      0x00\n        /* \"#utility.yul\":1303:1304   */\n      dup1\n        /* \"#utility.yul\":1296:1308   */\n      revert\n        /* \"#utility.yul\":1320:1437   */\n    tag_32:\n        /* \"#utility.yul\":1429:1430   */\n      0x00\n        /* \"#utility.yul\":1426:1427   */\n      dup1\n        /* \"#utility.yul\":1419:1431   */\n      revert\n        /* \"#utility.yul\":1443:1560   */\n    tag_33:\n        /* \"#utility.yul\":1552:1553   */\n      0x00\n        /* \"#utility.yul\":1549:1550   */\n      dup1\n        /* \"#utility.yul\":1542:1554   */\n      revert\n        /* \"#utility.yul\":1583:2151   */\n    tag_34:\n        /* \"#utility.yul\":1656:1664   */\n      0x00\n        /* \"#utility.yul\":1666:1672   */\n      dup1\n        /* \"#utility.yul\":1716:1719   */\n      dup4\n        /* \"#utility.yul\":1709:1713   */\n      0x1f\n        /* \"#utility.yul\":1701:1707   */\n      dup5\n        /* \"#utility.yul\":1697:1714   */\n      add\n        /* \"#utility.yul\":1693:1720   */\n      slt\n        /* \"#utility.yul\":1683:1805   */\n      tag_81\n      jumpi\n        /* \"#utility.yul\":1724:1803   */\n      tag_82\n      tag_31\n      jump\t// in\n    tag_82:\n        /* \"#utility.yul\":1683:1805   */\n    tag_81:\n        /* \"#utility.yul\":1837:1843   */\n      dup3\n        /* \"#utility.yul\":1824:1844   */\n      calldataload\n        /* \"#utility.yul\":1814:1844   */\n      swap1\n      pop\n        /* \"#utility.yul\":1867:1885   */\n      0xffffffffffffffff\n        /* \"#utility.yul\":1859:1865   */\n      dup2\n        /* \"#utility.yul\":1856:1886   */\n      gt\n        /* \"#utility.yul\":1853:1970   */\n      iszero\n      tag_83\n      jumpi\n        /* \"#utility.yul\":1889:1968   */\n      tag_84\n      tag_32\n      jump\t// in\n    tag_84:\n        /* \"#utility.yul\":1853:1970   */\n    tag_83:\n        /* \"#utility.yul\":2003:2007   */\n      0x20\n        /* \"#utility.yul\":1995:2001   */\n      dup4\n        /* \"#utility.yul\":1991:2008   */\n      add\n        /* \"#utility.yul\":1979:2008   */\n      swap2\n      pop\n        /* \"#utility.yul\":2057:2060   */\n      dup4\n        /* \"#utility.yul\":2049:2053   */\n      0x20\n        /* \"#utility.yul\":2041:2047   */\n      dup3\n        /* \"#utility.yul\":2037:2054   */\n      mul\n        /* \"#utility.yul\":2027:2035   */\n      dup4\n        /* \"#utility.yul\":2023:2055   */\n      add\n        /* \"#utility.yul\":2020:2061   */\n      gt\n        /* \"#utility.yul\":2017:2145   */\n      iszero\n      tag_85\n      jumpi\n        /* \"#utility.yul\":2064:2143   */\n      tag_86\n      tag_33\n      jump\t// in\n    tag_86:\n        /* \"#utility.yul\":2017:2145   */\n    tag_85:\n        /* \"#utility.yul\":1583:2151   */\n      swap3\n      pop\n      swap3\n      swap1\n      pop\n      jump\t// out\n        /* \"#utility.yul\":2157:2274   */\n    tag_35:\n        /* \"#utility.yul\":2266:2267   */\n      0x00\n        /* \"#utility.yul\":2263:2264   */\n      dup1\n        /* \"#utility.yul\":2256:2268   */\n      revert\n        /* \"#utility.yul\":2313:2542   */\n    tag_36:\n        /* \"#utility.yul\":2384:2389   */\n      0x00\n        /* \"#utility.yul\":2425:2427   */\n      0x60\n        /* \"#utility.yul\":2416:2422   */\n      dup3\n        /* \"#utility.yul\":2411:2414   */\n      dup5\n        /* \"#utility.yul\":2407:2423   */\n      sub\n        /* \"#utility.yul\":2403:2428   */\n      slt\n        /* \"#utility.yul\":2400:2512   */\n      iszero\n      tag_89\n      jumpi\n        /* \"#utility.yul\":2431:2510   */\n      tag_90\n      tag_35\n      jump\t// in\n    tag_90:\n        /* \"#utility.yul\":2400:2512   */\n    tag_89:\n        /* \"#utility.yul\":2530:2536   */\n      dup2\n        /* \"#utility.yul\":2521:2536   */\n      swap1\n      pop\n        /* \"#utility.yul\":2313:2542   */\n      swap3\n      swap2\n      pop\n      pop\n      jump\t// out\n        /* \"#utility.yul\":2548:3753   */\n    tag_7:\n        /* \"#utility.yul\":2686:2692   */\n      0x00\n        /* \"#utility.yul\":2694:2700   */\n      dup1\n        /* \"#utility.yul\":2702:2708   */\n      0x00\n        /* \"#utility.yul\":2710:2716   */\n      dup1\n        /* \"#utility.yul\":2718:2724   */\n      0x00\n        /* \"#utility.yul\":2767:2770   */\n      0x80\n        /* \"#utility.yul\":2755:2764   */\n      dup7\n        /* \"#utility.yul\":2746:2753   */\n      dup9\n        /* \"#utility.yul\":2742:2765   */\n      sub\n        /* \"#utility.yul\":2738:2771   */\n      slt\n        /* \"#utility.yul\":2735:2855   */\n      iszero\n      tag_92\n      jumpi\n        /* \"#utility.yul\":2774:2853   */\n      tag_93\n      tag_22\n      jump\t// in\n    tag_93:\n        /* \"#utility.yul\":2735:2855   */\n    tag_92:\n        /* \"#utility.yul\":2894:2895   */\n      0x00\n        /* \"#utility.yul\":2919:2972   */\n      tag_94\n        /* \"#utility.yul\":2964:2971   */\n      dup9\n        /* \"#utility.yul\":2955:2961   */\n      dup3\n        /* \"#utility.yul\":2944:2953   */\n      dup10\n        /* \"#utility.yul\":2940:2962   */\n      add\n        /* \"#utility.yul\":2919:2972   */\n      tag_26\n      jump\t// in\n    tag_94:\n        /* \"#utility.yul\":2909:2972   */\n      swap6\n      pop\n        /* \"#utility.yul\":2865:2982   */\n      pop\n        /* \"#utility.yul\":3021:3023   */\n      0x20\n        /* \"#utility.yul\":3047:3100   */\n      tag_95\n        /* \"#utility.yul\":3092:3099   */\n      dup9\n        /* \"#utility.yul\":3083:3089   */\n      dup3\n        /* \"#utility.yul\":3072:3081   */\n      dup10\n        /* \"#utility.yul\":3068:3090   */\n      add\n        /* \"#utility.yul\":3047:3100   */\n      tag_30\n      jump\t// in\n    tag_95:\n        /* \"#utility.yul\":3037:3100   */\n      swap5\n      pop\n        /* \"#utility.yul\":2992:3110   */\n      pop\n        /* \"#utility.yul\":3177:3179   */\n      0x40\n        /* \"#utility.yul\":3166:3175   */\n      dup7\n        /* \"#utility.yul\":3162:3180   */\n      add\n        /* \"#utility.yul\":3149:3181   */\n      calldataload\n        /* \"#utility.yul\":3208:3226   */\n      0xffffffffffffffff\n        /* \"#utility.yul\":3200:3206   */\n      dup2\n        /* \"#utility.yul\":3197:3227   */\n      gt\n        /* \"#utility.yul\":3194:3311   */\n      iszero\n      tag_96\n      jumpi\n        /* \"#utility.yul\":3230:3309   */\n      tag_97\n      tag_23\n      jump\t// in\n    tag_97:\n        /* \"#utility.yul\":3194:3311   */\n    tag_96:\n        /* \"#utility.yul\":3343:3423   */\n      tag_98\n        /* \"#utility.yul\":3415:3422   */\n      dup9\n        /* \"#utility.yul\":3406:3412   */\n      dup3\n        /* \"#utility.yul\":3395:3404   */\n      dup10\n        /* \"#utility.yul\":3391:3413   */\n      add\n        /* \"#utility.yul\":3343:3423   */\n      tag_34\n      jump\t// in\n    tag_98:\n        /* \"#utility.yul\":3325:3423   */\n      swap4\n      pop\n      swap4\n      pop\n        /* \"#utility.yul\":3120:3433   */\n      pop\n        /* \"#utility.yul\":3500:3502   */\n      0x60\n        /* \"#utility.yul\":3489:3498   */\n      dup7\n        /* \"#utility.yul\":3485:3503   */\n      add\n        /* \"#utility.yul\":3472:3504   */\n      calldataload\n        /* \"#utility.yul\":3531:3549   */\n      0xffffffffffffffff\n        /* \"#utility.yul\":3523:3529   */\n      dup2\n        /* \"#utility.yul\":3520:3550   */\n      gt\n        /* \"#utility.yul\":3517:3634   */\n      iszero\n      tag_99\n      jumpi\n        /* \"#utility.yul\":3553:3632   */\n      tag_100\n      tag_23\n      jump\t// in\n    tag_100:\n        /* \"#utility.yul\":3517:3634   */\n    tag_99:\n        /* \"#utility.yul\":3658:3736   */\n      tag_101\n        /* \"#utility.yul\":3728:3735   */\n      dup9\n        /* \"#utility.yul\":3719:3725   */\n      dup3\n        /* \"#utility.yul\":3708:3717   */\n      dup10\n        /* \"#utility.yul\":3704:3726   */\n      add\n        /* \"#utility.yul\":3658:3736   */\n      tag_36\n      jump\t// in\n    tag_101:\n        /* \"#utility.yul\":3648:3736   */\n      swap2\n      pop\n        /* \"#utility.yul\":3443:3746   */\n      pop\n        /* \"#utility.yul\":2548:3753   */\n      swap3\n      swap6\n      pop\n      swap3\n      swap6\n      swap1\n      swap4\n      pop\n      jump\t// out\n        /* \"#utility.yul\":3759:3857   */\n    tag_37:\n        /* \"#utility.yul\":3810:3816   */\n      0x00\n        /* \"#utility.yul\":3844:3849   */\n      dup2\n        /* \"#utility.yul\":3838:3850   */\n      mload\n        /* \"#utility.yul\":3828:3850   */\n      swap1\n      pop\n        /* \"#utility.yul\":3759:3857   */\n      swap2\n      swap1\n      pop\n      jump\t// out\n        /* \"#utility.yul\":3863:4031   */\n    tag_38:\n        /* \"#utility.yul\":3946:3957   */\n      0x00\n        /* \"#utility.yul\":3980:3986   */\n      dup3\n        /* \"#utility.yul\":3975:3978   */\n      dup3\n        /* \"#utility.yul\":3968:3987   */\n      mstore\n        /* \"#utility.yul\":4020:4024   */\n      0x20\n        /* \"#utility.yul\":4015:4018   */\n      dup3\n        /* \"#utility.yul\":4011:4025   */\n      add\n        /* \"#utility.yul\":3996:4025   */\n      swap1\n      pop\n        /* \"#utility.yul\":3863:4031   */\n      swap3\n      swap2\n      pop\n      pop\n      jump\t// out\n        /* \"#utility.yul\":4037:4283   */\n    tag_39:\n        /* \"#utility.yul\":4118:4119   */\n      0x00\n        /* \"#utility.yul\":4128:4241   */\n    tag_105:\n        /* \"#utility.yul\":4142:4148   */\n      dup4\n        /* \"#utility.yul\":4139:4140   */\n      dup2\n        /* \"#utility.yul\":4136:4149   */\n      lt\n        /* \"#utility.yul\":4128:4241   */\n      iszero\n      tag_107\n      jumpi\n        /* \"#utility.yul\":4227:4228   */\n      dup1\n        /* \"#utility.yul\":4222:4225   */\n      dup3\n        /* \"#utility.yul\":4218:4229   */\n      add\n        /* \"#utility.yul\":4212:4230   */\n      mload\n        /* \"#utility.yul\":4208:4209   */\n      dup2\n        /* \"#utility.yul\":4203:4206   */\n      dup5\n        /* \"#utility.yul\":4199:4210   */\n      add\n        /* \"#utility.yul\":4192:4231   */\n      mstore\n        /* \"#utility.yul\":4164:4166   */\n      0x20\n        /* \"#utility.yul\":4161:4162   */\n      dup2\n        /* \"#utility.yul\":4157:4167   */\n      add\n        /* \"#utility.yul\":4152:4167   */\n      swap1\n      pop\n        /* \"#utility.yul\":4128:4241   */\n      jump(tag_105)\n    tag_107:\n        /* \"#utility.yul\":4275:4276   */\n      0x00\n        /* \"#utility.yul\":4266:4272   */\n      dup5\n        /* \"#utility.yul\":4261:4264   */\n      dup5\n        /* \"#utility.yul\":4257:4273   */\n      add\n        /* \"#utility.yul\":4250:4277   */\n      mstore\n        /* \"#utility.yul\":4099:4283   */\n      pop\n        /* \"#utility.yul\":4037:4283   */\n      pop\n      pop\n      pop\n      jump\t// out\n        /* \"#utility.yul\":4289:4391   */\n    tag_40:\n        /* \"#utility.yul\":4330:4336   */\n      0x00\n        /* \"#utility.yul\":4381:4383   */\n      0x1f\n        /* \"#utility.yul\":4377:4384   */\n      not\n        /* \"#utility.yul\":4372:4374   */\n      0x1f\n        /* \"#utility.yul\":4365:4370   */\n      dup4\n        /* \"#utility.yul\":4361:4375   */\n      add\n        /* \"#utility.yul\":4357:4385   */\n      and\n        /* \"#utility.yul\":4347:4385   */\n      swap1\n      pop\n        /* \"#utility.yul\":4289:4391   */\n      swap2\n      swap1\n      pop\n      jump\t// out\n        /* \"#utility.yul\":4397:4770   */\n    tag_41:\n        /* \"#utility.yul\":4483:4486   */\n      0x00\n        /* \"#utility.yul\":4511:4549   */\n      tag_110\n        /* \"#utility.yul\":4543:4548   */\n      dup3\n        /* \"#utility.yul\":4511:4549   */\n      tag_37\n      jump\t// in\n    tag_110:\n        /* \"#utility.yul\":4565:4635   */\n      tag_111\n        /* \"#utility.yul\":4628:4634   */\n      dup2\n        /* \"#utility.yul\":4623:4626   */\n      dup6\n        /* \"#utility.yul\":4565:4635   */\n      tag_38\n      jump\t// in\n    tag_111:\n        /* \"#utility.yul\":4558:4635   */\n      swap4\n      pop\n        /* \"#utility.yul\":4644:4709   */\n      tag_112\n        /* \"#utility.yul\":4702:4708   */\n      dup2\n        /* \"#utility.yul\":4697:4700   */\n      dup6\n        /* \"#utility.yul\":4690:4694   */\n      0x20\n        /* \"#utility.yul\":4683:4688   */\n      dup7\n        /* \"#utility.yul\":4679:4695   */\n      add\n        /* \"#utility.yul\":4644:4709   */\n      tag_39\n      jump\t// in\n    tag_112:\n        /* \"#utility.yul\":4734:4763   */\n      tag_113\n        /* \"#utility.yul\":4756:4762   */\n      dup2\n        /* \"#utility.yul\":4734:4763   */\n      tag_40\n      jump\t// in\n    tag_113:\n        /* \"#utility.yul\":4729:4732   */\n      dup5\n        /* \"#utility.yul\":4725:4764   */\n      add\n        /* \"#utility.yul\":4718:4764   */\n      swap2\n      pop\n        /* \"#utility.yul\":4487:4770   */\n      pop\n        /* \"#utility.yul\":4397:4770   */\n      swap3\n      swap2\n      pop\n      pop\n      jump\t// out\n        /* \"#utility.yul\":4776:5085   */\n    tag_10:\n        /* \"#utility.yul\":4887:4891   */\n      0x00\n        /* \"#utility.yul\":4925:4927   */\n      0x20\n        /* \"#utility.yul\":4914:4923   */\n      dup3\n        /* \"#utility.yul\":4910:4928   */\n      add\n        /* \"#utility.yul\":4902:4928   */\n      swap1\n      pop\n        /* \"#utility.yul\":4974:4983   */\n      dup2\n        /* \"#utility.yul\":4968:4972   */\n      dup2\n        /* \"#utility.yul\":4964:4984   */\n      sub\n        /* \"#utility.yul\":4960:4961   */\n      0x00\n        /* \"#utility.yul\":4949:4958   */\n      dup4\n        /* \"#utility.yul\":4945:4962   */\n      add\n        /* \"#utility.yul\":4938:4985   */\n      mstore\n        /* \"#utility.yul\":5002:5078   */\n      tag_115\n        /* \"#utility.yul\":5073:5077   */\n      dup2\n        /* \"#utility.yul\":5064:5070   */\n      dup5\n        /* \"#utility.yul\":5002:5078   */\n      tag_41\n      jump\t// in\n    tag_115:\n        /* \"#utility.yul\":4994:5078   */\n      swap1\n      pop\n        /* \"#utility.yul\":4776:5085   */\n      swap3\n      swap2\n      pop\n      pop\n      jump\t// out\n        /* \"#utility.yul\":5104:5656   */\n    tag_42:\n        /* \"#utility.yul\":5161:5169   */\n      0x00\n        /* \"#utility.yul\":5171:5177   */\n      dup1\n        /* \"#utility.yul\":5221:5224   */\n      dup4\n        /* \"#utility.yul\":5214:5218   */\n      0x1f\n        /* \"#utility.yul\":5206:5212   */\n      dup5\n        /* \"#utility.yul\":5202:5219   */\n      add\n        /* \"#utility.yul\":5198:5225   */\n      slt\n        /* \"#utility.yul\":5188:5310   */\n      tag_117\n      jumpi\n        /* \"#utility.yul\":5229:5308   */\n      tag_118\n      tag_31\n      jump\t// in\n    tag_118:\n        /* \"#utility.yul\":5188:5310   */\n    tag_117:\n        /* \"#utility.yul\":5342:5348   */\n      dup3\n        /* \"#utility.yul\":5329:5349   */\n      calldataload\n        /* \"#utility.yul\":5319:5349   */\n      swap1\n      pop\n        /* \"#utility.yul\":5372:5390   */\n      0xffffffffffffffff\n        /* \"#utility.yul\":5364:5370   */\n      dup2\n        /* \"#utility.yul\":5361:5391   */\n      gt\n        /* \"#utility.yul\":5358:5475   */\n      iszero\n      tag_119\n      jumpi\n        /* \"#utility.yul\":5394:5473   */\n      tag_120\n      tag_32\n      jump\t// in\n    tag_120:\n        /* \"#utility.yul\":5358:5475   */\n    tag_119:\n        /* \"#utility.yul\":5508:5512   */\n      0x20\n        /* \"#utility.yul\":5500:5506   */\n      dup4\n        /* \"#utility.yul\":5496:5513   */\n      add\n        /* \"#utility.yul\":5484:5513   */\n      swap2\n      pop\n        /* \"#utility.yul\":5562:5565   */\n      dup4\n        /* \"#utility.yul\":5554:5558   */\n      0x01\n        /* \"#utility.yul\":5546:5552   */\n      dup3\n        /* \"#utility.yul\":5542:5559   */\n      mul\n        /* \"#utility.yul\":5532:5540   */\n      dup4\n        /* \"#utility.yul\":5528:5560   */\n      add\n        /* \"#utility.yul\":5525:5566   */\n      gt\n        /* \"#utility.yul\":5522:5650   */\n      iszero\n      tag_121\n      jumpi\n        /* \"#utility.yul\":5569:5648   */\n      tag_122\n      tag_33\n      jump\t// in\n    tag_122:\n        /* \"#utility.yul\":5522:5650   */\n    tag_121:\n        /* \"#utility.yul\":5104:5656   */\n      swap3\n      pop\n      swap3\n      swap1\n      pop\n      jump\t// out\n        /* \"#utility.yul\":5662:6189   */\n    tag_13:\n        /* \"#utility.yul\":5732:5738   */\n      0x00\n        /* \"#utility.yul\":5740:5746   */\n      dup1\n        /* \"#utility.yul\":5789:5791   */\n      0x20\n        /* \"#utility.yul\":5777:5786   */\n      dup4\n        /* \"#utility.yul\":5768:5775   */\n      dup6\n        /* \"#utility.yul\":5764:5787   */\n      sub\n        /* \"#utility.yul\":5760:5792   */\n      slt\n        /* \"#utility.yul\":5757:5876   */\n      iszero\n      tag_124\n      jumpi\n        /* \"#utility.yul\":5795:5874   */\n      tag_125\n      tag_22\n      jump\t// in\n    tag_125:\n        /* \"#utility.yul\":5757:5876   */\n    tag_124:\n        /* \"#utility.yul\":5943:5944   */\n      0x00\n        /* \"#utility.yul\":5932:5941   */\n      dup4\n        /* \"#utility.yul\":5928:5945   */\n      add\n        /* \"#utility.yul\":5915:5946   */\n      calldataload\n        /* \"#utility.yul\":5973:5991   */\n      0xffffffffffffffff\n        /* \"#utility.yul\":5965:5971   */\n      dup2\n        /* \"#utility.yul\":5962:5992   */\n      gt\n        /* \"#utility.yul\":5959:6076   */\n      iszero\n      tag_126\n      jumpi\n        /* \"#utility.yul\":5995:6074   */\n      tag_127\n      tag_23\n      jump\t// in\n    tag_127:\n        /* \"#utility.yul\":5959:6076   */\n    tag_126:\n        /* \"#utility.yul\":6108:6172   */\n      tag_128\n        /* \"#utility.yul\":6164:6171   */\n      dup6\n        /* \"#utility.yul\":6155:6161   */\n      dup3\n        /* \"#utility.yul\":6144:6153   */\n      dup7\n        /* \"#utility.yul\":6140:6162   */\n      add\n        /* \"#utility.yul\":6108:6172   */\n      tag_42\n      jump\t// in\n    tag_128:\n        /* \"#utility.yul\":6090:6172   */\n      swap3\n      pop\n      swap3\n      pop\n        /* \"#utility.yul\":5886:6182   */\n      pop\n        /* \"#utility.yul\":5662:6189   */\n      swap3\n      pop\n      swap3\n      swap1\n      pop\n      jump\t// out\n        /* \"#utility.yul\":6195:6313   */\n    tag_43:\n        /* \"#utility.yul\":6282:6306   */\n      tag_130\n        /* \"#utility.yul\":6300:6305   */\n      dup2\n        /* \"#utility.yul\":6282:6306   */\n      tag_24\n      jump\t// in\n    tag_130:\n        /* \"#utility.yul\":6277:6280   */\n      dup3\n        /* \"#utility.yul\":6270:6307   */\n      mstore\n        /* \"#utility.yul\":6195:6313   */\n      pop\n      pop\n      jump\t// out\n        /* \"#utility.yul\":6319:6437   */\n    tag_44:\n        /* \"#utility.yul\":6406:6430   */\n      tag_132\n        /* \"#utility.yul\":6424:6429   */\n      dup2\n        /* \"#utility.yul\":6406:6430   */\n      tag_28\n      jump\t// in\n    tag_132:\n        /* \"#utility.yul\":6401:6404   */\n      dup3\n        /* \"#utility.yul\":6394:6431   */\n      mstore\n        /* \"#utility.yul\":6319:6437   */\n      pop\n      pop\n      jump\t// out\n        /* \"#utility.yul\":6443:6775   */\n    tag_16:\n        /* \"#utility.yul\":6564:6568   */\n      0x00\n        /* \"#utility.yul\":6602:6604   */\n      0x40\n        /* \"#utility.yul\":6591:6600   */\n      dup3\n        /* \"#utility.yul\":6587:6605   */\n      add\n        /* \"#utility.yul\":6579:6605   */\n      swap1\n      pop\n        /* \"#utility.yul\":6615:6686   */\n      tag_134\n        /* \"#utility.yul\":6683:6684   */\n      0x00\n        /* \"#utility.yul\":6672:6681   */\n      dup4\n        /* \"#utility.yul\":6668:6685   */\n      add\n        /* \"#utility.yul\":6659:6665   */\n      dup6\n        /* \"#utility.yul\":6615:6686   */\n      tag_43\n      jump\t// in\n    tag_134:\n        /* \"#utility.yul\":6696:6768   */\n      tag_135\n        /* \"#utility.yul\":6764:6766   */\n      0x20\n        /* \"#utility.yul\":6753:6762   */\n      dup4\n        /* \"#utility.yul\":6749:6767   */\n      add\n        /* \"#utility.yul\":6740:6746   */\n      dup5\n        /* \"#utility.yul\":6696:6768   */\n      tag_44\n      jump\t// in\n    tag_135:\n        /* \"#utility.yul\":6443:6775   */\n      swap4\n      swap3\n      pop\n      pop\n      pop\n      jump\t// out\n        /* \"#utility.yul\":6781:6965   */\n    tag_45:\n        /* \"#utility.yul\":6880:6891   */\n      0x00\n        /* \"#utility.yul\":6914:6920   */\n      dup3\n        /* \"#utility.yul\":6909:6912   */\n      dup3\n        /* \"#utility.yul\":6902:6921   */\n      mstore\n        /* \"#utility.yul\":6954:6958   */\n      0x20\n        /* \"#utility.yul\":6949:6952   */\n      dup3\n        /* \"#utility.yul\":6945:6959   */\n      add\n        /* \"#utility.yul\":6930:6959   */\n      swap1\n      pop\n        /* \"#utility.yul\":6781:6965   */\n      swap3\n      swap2\n      pop\n      pop\n      jump\t// out\n        /* \"#utility.yul\":6971:7088   */\n    tag_46:\n        /* \"#utility.yul\":7080:7081   */\n      0x00\n        /* \"#utility.yul\":7077:7078   */\n      dup1\n        /* \"#utility.yul\":7070:7082   */\n      revert\n        /* \"#utility.yul\":7094:7192   */\n    tag_47:\n        /* \"#utility.yul\":7178:7184   */\n      dup3\n        /* \"#utility.yul\":7173:7176   */\n      dup2\n        /* \"#utility.yul\":7168:7171   */\n      dup4\n        /* \"#utility.yul\":7155:7185   */\n      calldatacopy\n        /* \"#utility.yul\":7094:7192   */\n      pop\n      pop\n      pop\n      jump\t// out\n        /* \"#utility.yul\":7228:7765   */\n    tag_48:\n        /* \"#utility.yul\":7356:7359   */\n      0x00\n        /* \"#utility.yul\":7377:7463   */\n      tag_140\n        /* \"#utility.yul\":7456:7462   */\n      dup4\n        /* \"#utility.yul\":7451:7454   */\n      dup6\n        /* \"#utility.yul\":7377:7463   */\n      tag_45\n      jump\t// in\n    tag_140:\n        /* \"#utility.yul\":7370:7463   */\n      swap4\n      pop\n        /* \"#utility.yul\":7487:7553   */\n      0x07ffffffffffffffffffffffffffffffffffffffffffffffffffffffffffffff\n        /* \"#utility.yul\":7479:7485   */\n      dup4\n        /* \"#utility.yul\":7476:7554   */\n      gt\n        /* \"#utility.yul\":7473:7638   */\n      iszero\n      tag_141\n      jumpi\n        /* \"#utility.yul\":7557:7636   */\n      tag_142\n      tag_46\n      jump\t// in\n    tag_142:\n        /* \"#utility.yul\":7473:7638   */\n    tag_141:\n        /* \"#utility.yul\":7669:7673   */\n      0x20\n        /* \"#utility.yul\":7661:7667   */\n      dup4\n        /* \"#utility.yul\":7657:7674   */\n      mul\n        /* \"#utility.yul\":7647:7674   */\n      swap3\n      pop\n        /* \"#utility.yul\":7684:7727   */\n      tag_143\n        /* \"#utility.yul\":7720:7726   */\n      dup4\n        /* \"#utility.yul\":7715:7718   */\n      dup6\n        /* \"#utility.yul\":7708:7713   */\n      dup5\n        /* \"#utility.yul\":7684:7727   */\n      tag_47\n      jump\t// in\n    tag_143:\n        /* \"#utility.yul\":7752:7758   */\n      dup3\n        /* \"#utility.yul\":7747:7750   */\n      dup5\n        /* \"#utility.yul\":7743:7759   */\n      add\n        /* \"#utility.yul\":7736:7759   */\n      swap1\n      pop\n        /* \"#utility.yul\":7228:7765   */\n      swap4\n      swap3\n      pop\n      pop\n      pop\n      jump\t// out\n        /* \"#utility.yul\":7771:7888   */\n    tag_49:\n        /* \"#utility.yul\":7880:7881   */\n      0x00\n        /* \"#utility.yul\":7877:7878   */\n      dup1\n        /* \"#utility.yul\":7870:7882   */\n      revert\n        /* \"#utility.yul\":7894:8011   */\n    tag_50:\n        /* \"#utility.yul\":8003:8004   */\n      0x00\n        /* \"#utility.yul\":8000:8001   */\n      dup1\n        /* \"#utility.yul\":7993:8005   */\n      revert\n        /* \"#utility.yul\":8017:8134   */\n    tag_51:\n        /* \"#utility.yul\":8126:8127   */\n      0x00\n        /* \"#utility.yul\":8123:8124   */\n      dup1\n        /* \"#utility.yul\":8116:8128   */\n      revert\n        /* \"#utility.yul\":8140:8852   */\n    tag_52:\n        /* \"#utility.yul\":8205:8210   */\n      0x00\n        /* \"#utility.yul\":8212:8218   */\n      dup1\n        /* \"#utility.yul\":8268:8271   */\n      dup4\n        /* \"#utility.yul\":8255:8272   */\n      calldataload\n        /* \"#utility.yul\":8360:8361   */\n      0x01\n        /* \"#utility.yul\":8354:8358   */\n      0x20\n        /* \"#utility.yul\":8350:8362   */\n      sub\n        /* \"#utility.yul\":8339:8347   */\n      dup5\n        /* \"#utility.yul\":8323:8337   */\n      calldatasize\n        /* \"#utility.yul\":8319:8348   */\n      sub\n        /* \"#utility.yul\":8315:8363   */\n      sub\n        /* \"#utility.yul\":8295:8313   */\n      dup2\n        /* \"#utility.yul\":8291:8364   */\n      slt\n        /* \"#utility.yul\":8281:8449   */\n      tag_148\n      jumpi\n        /* \"#utility.yul\":8368:8447   */\n      tag_149\n      tag_51\n      jump\t// in\n    tag_149:\n        /* \"#utility.yul\":8281:8449   */\n    tag_148:\n        /* \"#utility.yul\":8491:8499   */\n      dup4\n        /* \"#utility.yul\":8471:8489   */\n      dup2\n        /* \"#utility.yul\":8467:8500   */\n      add\n        /* \"#utility.yul\":8458:8500   */\n      swap3\n      pop\n        /* \"#utility.yul\":8533:8538   */\n      dup3\n        /* \"#utility.yul\":8520:8539   */\n      calldataload\n        /* \"#utility.yul\":8510:8539   */\n      swap2\n      pop\n        /* \"#utility.yul\":8568:8572   */\n      0x20\n        /* \"#utility.yul\":8561:8566   */\n      dup4\n        /* \"#utility.yul\":8557:8573   */\n      add\n        /* \"#utility.yul\":8548:8573   */\n      swap3\n      pop\n        /* \"#utility.yul\":8596:8614   */\n      0xffffffffffffffff\n        /* \"#utility.yul\":8588:8594   */\n      dup3\n        /* \"#utility.yul\":8585:8615   */\n      gt\n        /* \"#utility.yul\":8582:8699   */\n      iszero\n      tag_150\n      jumpi\n        /* \"#utility.yul\":8618:8697   */\n      tag_151\n      tag_49\n      jump\t// in\n    tag_151:\n        /* \"#utility.yul\":8582:8699   */\n    tag_150:\n        /* \"#utility.yul\":8754:8758   */\n      0x01\n        /* \"#utility.yul\":8746:8752   */\n      dup3\n        /* \"#utility.yul\":8742:8759   */\n      mul\n        /* \"#utility.yul\":8726:8740   */\n      calldatasize\n        /* \"#utility.yul\":8722:8760   */\n      sub\n        /* \"#utility.yul\":8715:8720   */\n      dup4\n        /* \"#utility.yul\":8711:8761   */\n      sgt\n        /* \"#utility.yul\":8708:8845   */\n      iszero\n      tag_152\n      jumpi\n        /* \"#utility.yul\":8764:8843   */\n      tag_153\n      tag_50\n      jump\t// in\n    tag_153:\n        /* \"#utility.yul\":8708:8845   */\n    tag_152:\n        /* \"#utility.yul\":8219:8852   */\n      pop\n        /* \"#utility.yul\":8140:8852   */\n      swap3\n      pop\n      swap3\n      swap1\n      pop\n      jump\t// out\n        /* \"#utility.yul\":8858:9017   */\n    tag_53:\n        /* \"#utility.yul\":8932:8943   */\n      0x00\n        /* \"#utility.yul\":8966:8972   */\n      dup3\n        /* \"#utility.yul\":8961:8964   */\n      dup3\n        /* \"#utility.yul\":8954:8973   */\n      mstore\n        /* \"#utility.yul\":9006:9010   */\n      0x20\n        /* \"#utility.yul\":9001:9004   */\n      dup3\n        /* \"#utility.yul\":8997:9011   */\n      add\n        /* \"#utility.yul\":8982:9011   */\n      swap1\n      pop\n        /* \"#utility.yul\":8858:9017   */\n      swap3\n      swap2\n      pop\n      pop\n      jump\t// out\n        /* \"#utility.yul\":9023:9169   */\n    tag_54:\n        /* \"#utility.yul\":9120:9126   */\n      dup3\n        /* \"#utility.yul\":9115:9118   */\n      dup2\n        /* \"#utility.yul\":9110:9113   */\n      dup4\n        /* \"#utility.yul\":9097:9127   */\n      calldatacopy\n        /* \"#utility.yul\":9161:9162   */\n      0x00\n        /* \"#utility.yul\":9152:9158   */\n      dup4\n        /* \"#utility.yul\":9147:9150   */\n      dup4\n        /* \"#utility.yul\":9143:9159   */\n      add\n        /* \"#utility.yul\":9136:9163   */\n      mstore\n        /* \"#utility.yul\":9023:9169   */\n      pop\n      pop\n      pop\n      jump\t// out\n        /* \"#utility.yul\":9199:9496   */\n    tag_55:\n        /* \"#utility.yul\":9287:9290   */\n      0x00\n        /* \"#utility.yul\":9308:9369   */\n      tag_157\n        /* \"#utility.yul\":9362:9368   */\n      dup4\n        /* \"#utility.yul\":9357:9360   */\n      dup6\n        /* \"#utility.yul\":9308:9369   */\n      tag_53\n      jump\t// in\n    tag_157:\n        /* \"#utility.yul\":9301:9369   */\n      swap4\n      pop\n        /* \"#utility.yul\":9379:9435   */\n      tag_158\n        /* \"#utility.yul\":9428:9434   */\n      dup4\n        /* \"#utility.yul\":9423:9426   */\n      dup6\n        /* \"#utility.yul\":9416:9421   */\n      dup5\n        /* \"#utility.yul\":9379:9435   */\n      tag_54\n      jump\t// in\n    tag_158:\n        /* \"#utility.yul\":9460:9489   */\n      tag_159\n        /* \"#utility.yul\":9482:9488   */\n      dup4\n        /* \"#utility.yul\":9460:9489   */\n      tag_40\n      jump\t// in\n    tag_159:\n        /* \"#utility.yul\":9455:9458   */\n      dup5\n        /* \"#utility.yul\":9451:9490   */\n      add\n        /* \"#utility.yul\":9444:9490   */\n      swap1\n      pop\n        /* \"#utility.yul\":9199:9496   */\n      swap4\n      swap3\n      pop\n      pop\n      pop\n      jump\t// out\n        /* \"#utility.yul\":9502:9613   */\n    tag_56:\n        /* \"#utility.yul\":9579:9584   */\n      0x00\n        /* \"#utility.yul\":9604:9607   */\n      dup3\n        /* \"#utility.yul\":9595:9607   */\n      swap1\n      pop\n        /* \"#utility.yul\":9502:9613   */\n      swap3\n      swap2\n      pop\n      pop\n      jump\t// out\n        /* \"#utility.yul\":9651:9811   */\n    tag_57:\n        /* \"#utility.yul\":9764:9805   */\n      tag_162\n        /* \"#utility.yul\":9800:9804   */\n      0x40\n        /* \"#utility.yul\":9795:9798   */\n      dup4\n        /* \"#utility.yul\":9788:9793   */\n      dup4\n        /* \"#utility.yul\":9764:9805   */\n      tag_47\n      jump\t// in\n    tag_162:\n        /* \"#utility.yul\":9651:9811   */\n      pop\n      pop\n      jump\t// out\n        /* \"#utility.yul\":9879:10652   */\n    tag_58:\n        /* \"#utility.yul\":9996:9999   */\n      0x00\n        /* \"#utility.yul\":10032:10036   */\n      0x60\n        /* \"#utility.yul\":10027:10030   */\n      dup4\n        /* \"#utility.yul\":10023:10037   */\n      add\n        /* \"#utility.yul\":10116:10178   */\n      tag_164\n        /* \"#utility.yul\":10172:10176   */\n      0x00\n        /* \"#utility.yul\":10165:10170   */\n      dup5\n        /* \"#utility.yul\":10161:10177   */\n      add\n        /* \"#utility.yul\":10154:10159   */\n      dup5\n        /* \"#utility.yul\":10116:10178   */\n      tag_52\n      jump\t// in\n    tag_164:\n        /* \"#utility.yul\":10225:10228   */\n      dup6\n        /* \"#utility.yul\":10219:10223   */\n      dup4\n        /* \"#utility.yul\":10215:10229   */\n      sub\n        /* \"#utility.yul\":10208:10212   */\n      0x00\n        /* \"#utility.yul\":10203:10206   */\n      dup8\n        /* \"#utility.yul\":10199:10213   */\n      add\n        /* \"#utility.yul\":10192:10230   */\n      mstore\n        /* \"#utility.yul\":10251:10340   */\n      tag_165\n        /* \"#utility.yul\":10335:10339   */\n      dup4\n        /* \"#utility.yul\":10321:10333   */\n      dup3\n        /* \"#utility.yul\":10307:10319   */\n      dup5\n        /* \"#utility.yul\":10251:10340   */\n      tag_55\n      jump\t// in\n    tag_165:\n        /* \"#utility.yul\":10243:10340   */\n      swap3\n      pop\n        /* \"#utility.yul\":10047:10351   */\n      pop\n      pop\n        /* \"#utility.yul\":10416:10491   */\n      tag_166\n        /* \"#utility.yul\":10485:10489   */\n      0x20\n        /* \"#utility.yul\":10478:10483   */\n      dup5\n        /* \"#utility.yul\":10474:10490   */\n      add\n        /* \"#utility.yul\":10467:10472   */\n      dup5\n        /* \"#utility.yul\":10416:10491   */\n      tag_56\n      jump\t// in\n    tag_166:\n        /* \"#utility.yul\":10504:10615   */\n      tag_167\n        /* \"#utility.yul\":10609:10613   */\n      0x20\n        /* \"#utility.yul\":10604:10607   */\n      dup7\n        /* \"#utility.yul\":10600:10614   */\n      add\n        /* \"#utility.yul\":10586:10598   */\n      dup3\n        /* \"#utility.yul\":10504:10615   */\n      tag_57\n      jump\t// in\n    tag_167:\n        /* \"#utility.yul\":10361:10625   */\n      pop\n        /* \"#utility.yul\":10642:10646   */\n      dup1\n        /* \"#utility.yul\":10635:10646   */\n      swap2\n      pop\n        /* \"#utility.yul\":10001:10652   */\n      pop\n        /* \"#utility.yul\":9879:10652   */\n      swap3\n      swap2\n      pop\n      pop\n      jump\t// out\n        /* \"#utility.yul\":10658:11529   */\n    tag_19:\n        /* \"#utility.yul\":10943:10947   */\n      0x00\n        /* \"#utility.yul\":10981:10984   */\n      0x80\n        /* \"#utility.yul\":10970:10979   */\n      dup3\n        /* \"#utility.yul\":10966:10985   */\n      add\n        /* \"#utility.yul\":10958:10985   */\n      swap1\n      pop\n        /* \"#utility.yul\":10995:11066   */\n      tag_169\n        /* \"#utility.yul\":11063:11064   */\n      0x00\n        /* \"#utility.yul\":11052:11061   */\n      dup4\n        /* \"#utility.yul\":11048:11065   */\n      add\n        /* \"#utility.yul\":11039:11045   */\n      dup9\n        /* \"#utility.yul\":10995:11066   */\n      tag_43\n      jump\t// in\n    tag_169:\n        /* \"#utility.yul\":11076:11148   */\n      tag_170\n        /* \"#utility.yul\":11144:11146   */\n      0x20\n        /* \"#utility.yul\":11133:11142   */\n      dup4\n        /* \"#utility.yul\":11129:11147   */\n      add\n        /* \"#utility.yul\":11120:11126   */\n      dup8\n        /* \"#utility.yul\":11076:11148   */\n      tag_44\n      jump\t// in\n    tag_170:\n        /* \"#utility.yul\":11195:11204   */\n      dup2\n        /* \"#utility.yul\":11189:11193   */\n      dup2\n        /* \"#utility.yul\":11185:11205   */\n      sub\n        /* \"#utility.yul\":11180:11182   */\n      0x40\n        /* \"#utility.yul\":11169:11178   */\n      dup4\n        /* \"#utility.yul\":11165:11183   */\n      add\n        /* \"#utility.yul\":11158:11206   */\n      mstore\n        /* \"#utility.yul\":11223:11341   */\n      tag_171\n        /* \"#utility.yul\":11336:11340   */\n      dup2\n        /* \"#utility.yul\":11327:11333   */\n      dup6\n        /* \"#utility.yul\":11319:11325   */\n      dup8\n        /* \"#utility.yul\":11223:11341   */\n      tag_48\n      jump\t// in\n    tag_171:\n        /* \"#utility.yul\":11215:11341   */\n      swap1\n      pop\n        /* \"#utility.yul\":11388:11397   */\n      dup2\n        /* \"#utility.yul\":11382:11386   */\n      dup2\n        /* \"#utility.yul\":11378:11398   */\n      sub\n        /* \"#utility.yul\":11373:11375   */\n      0x60\n        /* \"#utility.yul\":11362:11371   */\n      dup4\n        /* \"#utility.yul\":11358:11376   */\n      add\n        /* \"#utility.yul\":11351:11399   */\n      mstore\n        /* \"#utility.yul\":11416:11522   */\n      tag_172\n        /* \"#utility.yul\":11517:11521   */\n      dup2\n        /* \"#utility.yul\":11508:11514   */\n      dup5\n        /* \"#utility.yul\":11416:11522   */\n      tag_58\n      jump\t// in\n    tag_172:\n        /* \"#utility.yul\":11408:11522   */\n      swap1\n      pop\n        /* \"#utility.yul\":10658:11529   */\n      swap7\n      swap6\n      pop\n      pop\n      pop\n      pop\n      pop\n      pop\n      jump\t// out\n\n    auxdata: 0xa2646970667358221220fad2e9a836a51224800bdbd1f5a68c41865ee348db0b59aa9626987324f9e6b864736f6c63430008110033\n}\n",
				"bytecode": {
					"linkReferences": {},
					"object": "608060405234801561001057600080fd5b50610671806100206000396000f3fe608060405234801561001057600080fd5b50600436106100365760003560e01c80637049e0871461003b578063e5c5e9a31461006b575b600080fd5b61005560048036038101906100509190610202565b61009c565b6040516100629190610336565b60405180910390f35b610085600480360381019061008091906103ae565b6100d1565b604051610093929190610419565b60405180910390f35b606085858585856040516020016100b79594939291906105e6565b604051602081830303815290604052905095945050505050565b6000809250929050565b600080fd5b600080fd5b6000819050919050565b6100f8816100e5565b811461010357600080fd5b50565b600081359050610115816100ef565b92915050565b600073ffffffffffffffffffffffffffffffffffffffff82169050919050565b60006101468261011b565b9050919050565b6101568161013b565b811461016157600080fd5b50565b6000813590506101738161014d565b92915050565b600080fd5b600080fd5b600080fd5b60008083601f84011261019e5761019d610179565b5b8235905067ffffffffffffffff8111156101bb576101ba61017e565b5b6020830191508360208202830111156101d7576101d6610183565b5b9250929050565b600080fd5b6000606082840312156101f9576101f86101de565b5b81905092915050565b60008060008060006080868803121561021e5761021d6100db565b5b600061022c88828901610106565b955050602061023d88828901610164565b945050604086013567ffffffffffffffff81111561025e5761025d6100e0565b5b61026a88828901610188565b9350935050606086013567ffffffffffffffff81111561028d5761028c6100e0565b5b610299888289016101e3565b9150509295509295909350565b600081519050919050565b600082825260208201905092915050565b60005b838110156102e05780820151818401526020810190506102c5565b60008484015250505050565b6000601f19601f8301169050919050565b6000610308826102a6565b61031281856102b1565b93506103228185602086016102c2565b61032b816102ec565b840191505092915050565b6000602082019050818103600083015261035081846102fd565b905092915050565b60008083601f84011261036e5761036d610179565b5b8235905067ffffffffffffffff81111561038b5761038a61017e565b5b6020830191508360018202830111156103a7576103a6610183565b5b9250929050565b600080602083850312156103c5576103c46100db565b5b600083013567ffffffffffffffff8111156103e3576103e26100e0565b5b6103ef85828601610358565b92509250509250929050565b610404816100e5565b82525050565b6104138161013b565b82525050565b600060408201905061042e60008301856103fb565b61043b602083018461040a565b9392505050565b600082825260208201905092915050565b600080fd5b82818337505050565b600061046d8385610442565b93507f07ffffffffffffffffffffffffffffffffffffffffffffffffffffffffffffff8311156104a05761049f610453565b5b6020830292506104b1838584610458565b82840190509392505050565b600080fd5b600080fd5b600080fd5b600080833560016020038436030381126104e9576104e86104c7565b5b83810192508235915060208301925067ffffffffffffffff821115610511576105106104bd565b5b600182023603831315610527576105266104c2565b5b509250929050565b600082825260208201905092915050565b82818337600083830152505050565b600061055b838561052f565b9350610568838584610540565b610571836102ec565b840190509392505050565b600082905092915050565b61059360408383610458565b5050565b6000606083016105aa60008401846104cc565b85830360008701526105bd83828461054f565b925050506105ce602084018461057c565b6105db6020860182610587565b508091505092915050565b60006080820190506105fb60008301886103fb565b610608602083018761040a565b818103604083015261061b818587610461565b9050818103606083015261062f8184610597565b9050969550505050505056fea2646970667358221220fad2e9a836a51224800bdbd1f5a68c41865ee348db0b59aa9626987324f9e6b864736f6c63430008110033",
					"opcodes": "PUSH1 0x80 PUSH1 0x40 MSTORE CALLVALUE DUP1 ISZERO PUSH2 0x10 JUMPI PUSH1 0x0 DUP1 REVERT JUMPDEST POP PUSH2 0x671 DUP1 PUSH2 0x20 PUSH1 0x0 CODECOPY PUSH1 0x0 RETURN INVALID PUSH1 0x80 PUSH1 0x40 MSTORE CALLVALUE DUP1 ISZERO PUSH2 0x10 JUMPI PUSH1 0x0 DUP1 REVERT JUMPDEST POP PUSH1 0x4 CALLDATASIZE LT PUSH2 0x36 JUMPI PUSH1 0x0 CALLDATALOAD PUSH1 0xE0 SHR DUP1 PUSH4 0x7049E087 EQ PUSH2 0x3B JUMPI DUP1 PUSH4 0xE5C5E9A3 EQ PUSH2 0x6B JUMPI JUMPDEST PUSH1 0x0 DUP1 REVERT JUMPDEST PUSH2 0x55 PUSH1 0x4 DUP1 CALLDATASIZE SUB DUP2 ADD SWAP1 PUSH2 0x50 SWAP2 SWAP1 PUSH2 0x202 JUMP JUMPDEST PUSH2 0x9C JUMP JUMPDEST PUSH1 0x40 MLOAD PUSH2 0x62 SWAP2 SWAP1 PUSH2 0x336 JUMP JUMPDEST PUSH1 0x40 MLOAD DUP1 SWAP2 SUB SWAP1 RETURN JUMPDEST PUSH2 0x85 PUSH1 0x4 DUP1 CALLDATASIZE SUB DUP2 ADD SWAP1 PUSH2 0x80 SWAP2 SWAP1 PUSH2 0x3AE JUMP JUMPDEST PUSH2 0xD1 JUMP JUMPDEST PUSH1 0x40 MLOAD PUSH2 0x93 SWAP3 SWAP2 SWAP1 PUSH2 0x419 JUMP JUMPDEST PUSH1 0x40 MLOAD DUP1 SWAP2 SUB SWAP1 RETURN JUMPDEST PUSH1 0x60 DUP6 DUP6 DUP6 DUP6 DUP6 PUSH1 0x40 MLOAD PUSH1 0x20 ADD PUSH2 0xB7 SWAP6 SWAP5 SWAP4 SWAP3 SWAP2 SWAP1 PUSH2 0x5E6 JUMP JUMPDEST PUSH1 0x40 MLOAD PUSH1 0x20 DUP2 DUP4 SUB SUB DUP2 MSTORE SWAP1 PUSH1 0x40 MSTORE SWAP1 POP SWAP6 SWAP5 POP POP POP POP POP JUMP JUMPDEST PUSH1 0x0 DUP1 SWAP3 POP SWAP3 SWAP1 POP JUMP JUMPDEST PUSH1 0x0 DUP1 REVERT JUMPDEST PUSH1 0x0 DUP1 REVERT JUMPDEST PUSH1 0x0 DUP2 SWAP1 POP SWAP2 SWAP1 POP JUMP JUMPDEST PUSH2 0xF8 DUP2 PUSH2 0xE5 JUMP JUMPDEST DUP2 EQ PUSH2 0x103 JUMPI PUSH1 0x0 DUP1 REVERT JUMPDEST POP JUMP JUMPDEST PUSH1 0x0 DUP2 CALLDATALOAD SWAP1 POP PUSH2 0x115 DUP2 PUSH2 0xEF JUMP JUMPDEST SWAP3 SWAP2 POP POP JUMP JUMPDEST PUSH1 0x0 PUSH20 0xFFFFFFFFFFFFFFFFFFFFFFFFFFFFFFFFFFFFFFFF DUP3 AND SWAP1 POP SWAP2 SWAP1 POP JUMP JUMPDEST PUSH1 0x0 PUSH2 0x146 DUP3 PUSH2 0x11B JUMP JUMPDEST SWAP1 POP SWAP2 SWAP1 POP JUMP JUMPDEST PUSH2 0x156 DUP2 PUSH2 0x13B JUMP JUMPDEST DUP2 EQ PUSH2 0x161 JUMPI PUSH1 0x0 DUP1 REVERT JUMPDEST POP JUMP JUMPDEST PUSH1 0x0 DUP2 CALLDATALOAD SWAP1 POP PUSH2 0x173 DUP2 PUSH2 0x14D JUMP JUMPDEST SWAP3 SWAP2 POP POP JUMP JUMPDEST PUSH1 0x0 DUP1 REVERT JUMPDEST PUSH1 0x0 DUP1 REVERT JUMPDEST PUSH1 0x0 DUP1 REVERT JUMPDEST PUSH1 0x0 DUP1 DUP4 PUSH1 0x1F DUP5 ADD SLT PUSH2 0x19E JUMPI PUSH2 0x19D PUSH2 0x179 JUMP JUMPDEST JUMPDEST DUP3 CALLDATALOAD SWAP1 POP PUSH8 0xFFFFFFFFFFFFFFFF DUP2 GT ISZERO PUSH2 0x1BB JUMPI PUSH2 0x1BA PUSH2 0x17E JUMP JUMPDEST JUMPDEST PUSH1 0x20 DUP4 ADD SWAP2 POP DUP4 PUSH1 0x20 DUP3 MUL DUP4 ADD GT ISZERO PUSH2 0x1D7 JUMPI PUSH2 0x1D6 PUSH2 0x183 JUMP JUMPDEST JUMPDEST SWAP3 POP SWAP3 SWAP1 POP JUMP JUMPDEST PUSH1 0x0 DUP1 REVERT JUMPDEST PUSH1 0x0 PUSH1 0x60 DUP3 DUP5 SUB SLT ISZERO PUSH2 0x1F9 JUMPI PUSH2 0x1F8 PUSH2 0x1DE JUMP JUMPDEST JUMPDEST DUP2 SWAP1 POP SWAP3 SWAP2 POP POP JUMP JUMPDEST PUSH1 0x0 DUP1 PUSH1 0x0 DUP1 PUSH1 0x0 PUSH1 0x80 DUP7 DUP9 SUB SLT ISZERO PUSH2 0x21E JUMPI PUSH2 0x21D PUSH2 0xDB JUMP JUMPDEST JUMPDEST PUSH1 0x0 PUSH2 0x22C DUP9 DUP3 DUP10 ADD PUSH2 0x106 JUMP JUMPDEST SWAP6 POP POP PUSH1 0x20 PUSH2 0x23D DUP9 DUP3 DUP10 ADD PUSH2 0x164 JUMP JUMPDEST SWAP5 POP POP PUSH1 0x40 DUP7 ADD CALLDATALOAD PUSH8 0xFFFFFFFFFFFFFFFF DUP2 GT ISZERO PUSH2 0x25E JUMPI PUSH2 0x25D PUSH2 0xE0 JUMP JUMPDEST JUMPDEST PUSH2 0x26A DUP9 DUP3 DUP10 ADD PUSH2 0x188 JUMP JUMPDEST SWAP4 POP SWAP4 POP POP PUSH1 0x60 DUP7 ADD CALLDATALOAD PUSH8 0xFFFFFFFFFFFFFFFF DUP2 GT ISZERO PUSH2 0x28D JUMPI PUSH2 0x28C PUSH2 0xE0 JUMP JUMPDEST JUMPDEST PUSH2 0x299 DUP9 DUP3 DUP10 ADD PUSH2 0x1E3 JUMP JUMPDEST SWAP2 POP POP SWAP3 SWAP6 POP SWAP3 SWAP6 SWAP1 SWAP4 POP JUMP JUMPDEST PUSH1 0x0 DUP2 MLOAD SWAP1 POP SWAP2 SWAP1 POP JUMP JUMPDEST PUSH1 0x0 DUP3 DUP3 MSTORE PUSH1 0x20 DUP3 ADD SWAP1 POP SWAP3 SWAP2 POP POP JUMP JUMPDEST PUSH1 0x0 JUMPDEST DUP4 DUP2 LT ISZERO PUSH2 0x2E0 JUMPI DUP1 DUP3 ADD MLOAD DUP2 DUP5 ADD MSTORE PUSH1 0x20 DUP2 ADD SWAP1 POP PUSH2 0x2C5 JUMP JUMPDEST PUSH1 0x0 DUP5 DUP5 ADD MSTORE POP POP POP POP JUMP JUMPDEST PUSH1 0x0 PUSH1 0x1F NOT PUSH1 0x1F DUP4 ADD AND SWAP1 POP SWAP2 SWAP1 POP JUMP JUMPDEST PUSH1 0x0 PUSH2 0x308 DUP3 PUSH2 0x2A6 JUMP JUMPDEST PUSH2 0x312 DUP2 DUP6 PUSH2 0x2B1 JUMP JUMPDEST SWAP4 POP PUSH2 0x322 DUP2 DUP6 PUSH1 0x20 DUP7 ADD PUSH2 0x2C2 JUMP JUMPDEST PUSH2 0x32B DUP2 PUSH2 0x2EC JUMP JUMPDEST DUP5 ADD SWAP2 POP POP SWAP3 SWAP2 POP POP JUMP JUMPDEST PUSH1 0x0 PUSH1 0x20 DUP3 ADD SWAP1 POP DUP2 DUP2 SUB PUSH1 0x0 DUP4 ADD MSTORE PUSH2 0x350 DUP2 DUP5 PUSH2 0x2FD JUMP JUMPDEST SWAP1 POP SWAP3 SWAP2 POP POP JUMP JUMPDEST PUSH1 0x0 DUP1 DUP4 PUSH1 0x1F DUP5 ADD SLT PUSH2 0x36E JUMPI PUSH2 0x36D PUSH2 0x179 JUMP JUMPDEST JUMPDEST DUP3 CALLDATALOAD SWAP1 POP PUSH8 0xFFFFFFFFFFFFFFFF DUP2 GT ISZERO PUSH2 0x38B JUMPI PUSH2 0x38A PUSH2 0x17E JUMP JUMPDEST JUMPDEST PUSH1 0x20 DUP4 ADD SWAP2 POP DUP4 PUSH1 0x1 DUP3 MUL DUP4 ADD GT ISZERO PUSH2 0x3A7 JUMPI PUSH2 0x3A6 PUSH2 0x183 JUMP JUMPDEST JUMPDEST SWAP3 POP SWAP3 SWAP1 POP JUMP JUMPDEST PUSH1 0x0 DUP1 PUSH1 0x20 DUP4 DUP6 SUB SLT ISZERO PUSH2 0x3C5 JUMPI PUSH2 0x3C4 PUSH2 0xDB JUMP JUMPDEST JUMPDEST PUSH1 0x0 DUP4 ADD CALLDATALOAD PUSH8 0xFFFFFFFFFFFFFFFF DUP2 GT ISZERO PUSH2 0x3E3 JUMPI PUSH2 0x3E2 PUSH2 0xE0 JUMP JUMPDEST JUMPDEST PUSH2 0x3EF DUP6 DUP3 DUP7 ADD PUSH2 0x358 JUMP JUMPDEST SWAP3 POP SWAP3 POP POP SWAP3 POP SWAP3 SWAP1 POP JUMP JUMPDEST PUSH2 0x404 DUP2 PUSH2 0xE5 JUMP JUMPDEST DUP3 MSTORE POP POP JUMP JUMPDEST PUSH2 0x413 DUP2 PUSH2 0x13B JUMP JUMPDEST DUP3 MSTORE POP POP JUMP JUMPDEST PUSH1 0x0 PUSH1 0x40 DUP3 ADD SWAP1 POP PUSH2 0x42E PUSH1 0x0 DUP4 ADD DUP6 PUSH2 0x3FB JUMP JUMPDEST PUSH2 0x43B PUSH1 0x20 DUP4 ADD DUP5 PUSH2 0x40A JUMP JUMPDEST SWAP4 SWAP3 POP POP POP JUMP JUMPDEST PUSH1 0x0 DUP3 DUP3 MSTORE PUSH1 0x20 DUP3 ADD SWAP1 POP SWAP3 SWAP2 POP POP JUMP JUMPDEST PUSH1 0x0 DUP1 REVERT JUMPDEST DUP3 DUP2 DUP4 CALLDATACOPY POP POP POP JUMP JUMPDEST PUSH1 0x0 PUSH2 0x46D DUP4 DUP6 PUSH2 0x442 JUMP JUMPDEST SWAP4 POP PUSH32 0x7FFFFFFFFFFFFFFFFFFFFFFFFFFFFFFFFFFFFFFFFFFFFFFFFFFFFFFFFFFFFFF DUP4 GT ISZERO PUSH2 0x4A0 JUMPI PUSH2 0x49F PUSH2 0x453 JUMP JUMPDEST JUMPDEST PUSH1 0x20 DUP4 MUL SWAP3 POP PUSH2 0x4B1 DUP4 DUP6 DUP5 PUSH2 0x458 JUMP JUMPDEST DUP3 DUP5 ADD SWAP1 POP SWAP4 SWAP3 POP POP POP JUMP JUMPDEST PUSH1 0x0 DUP1 REVERT JUMPDEST PUSH1 0x0 DUP1 REVERT JUMPDEST PUSH1 0x0 DUP1 REVERT JUMPDEST PUSH1 0x0 DUP1 DUP4 CALLDATALOAD PUSH1 0x1 PUSH1 0x20 SUB DUP5 CALLDATASIZE SUB SUB DUP2 SLT PUSH2 0x4E9 JUMPI PUSH2 0x4E8 PUSH2 0x4C7 JUMP JUMPDEST JUMPDEST DUP4 DUP2 ADD SWAP3 POP DUP3 CALLDATALOAD SWAP2 POP PUSH1 0x20 DUP4 ADD SWAP3 POP PUSH8 0xFFFFFFFFFFFFFFFF DUP3 GT ISZERO PUSH2 0x511 JUMPI PUSH2 0x510 PUSH2 0x4BD JUMP JUMPDEST JUMPDEST PUSH1 0x1 DUP3 MUL CALLDATASIZE SUB DUP4 SGT ISZERO PUSH2 0x527 JUMPI PUSH2 0x526 PUSH2 0x4C2 JUMP JUMPDEST JUMPDEST POP SWAP3 POP SWAP3 SWAP1 POP JUMP JUMPDEST PUSH1 0x0 DUP3 DUP3 MSTORE PUSH1 0x20 DUP3 ADD SWAP1 POP SWAP3 SWAP2 POP POP JUMP JUMPDEST DUP3 DUP2 DUP4 CALLDATACOPY PUSH1 0x0 DUP4 DUP4 ADD MSTORE POP POP POP JUMP JUMPDEST PUSH1 0x0 PUSH2 0x55B DUP4 DUP6 PUSH2 0x52F JUMP JUMPDEST SWAP4 POP PUSH2 0x568 DUP4 DUP6 DUP5 PUSH2 0x540 JUMP JUMPDEST PUSH2 0x571 DUP4 PUSH2 0x2EC JUMP JUMPDEST DUP5 ADD SWAP1 POP SWAP4 SWAP3 POP POP POP JUMP JUMPDEST PUSH1 0x0 DUP3 SWAP1 POP SWAP3 SWAP2 POP POP JUMP JUMPDEST PUSH2 0x593 PUSH1 0x40 DUP4 DUP4 PUSH2 0x458 JUMP JUMPDEST POP POP JUMP JUMPDEST PUSH1 0x0 PUSH1 0x60 DUP4 ADD PUSH2 0x5AA PUSH1 0x0 DUP5 ADD DUP5 PUSH2 0x4CC JUMP JUMPDEST DUP6 DUP4 SUB PUSH1 0x0 DUP8 ADD MSTORE PUSH2 0x5BD DUP4 DUP3 DUP5 PUSH2 0x54F JUMP JUMPDEST SWAP3 POP POP POP PUSH2 0x5CE PUSH1 0x20 DUP5 ADD DUP5 PUSH2 0x57C JUMP JUMPDEST PUSH2 0x5DB PUSH1 0x20 DUP7 ADD DUP3 PUSH2 0x587 JUMP JUMPDEST POP DUP1 SWAP2 POP POP SWAP3 SWAP2 POP POP JUMP JUMPDEST PUSH1 0x0 PUSH1 0x80 DUP3 ADD SWAP1 POP PUSH2 0x5FB PUSH1 0x0 DUP4 ADD DUP9 PUSH2 0x3FB JUMP JUMPDEST PUSH2 0x608 PUSH1 0x20 DUP4 ADD DUP8 PUSH2 0x40A JUMP JUMPDEST DUP2 DUP2 SUB PUSH1 0x40 DUP4 ADD MSTORE PUSH2 0x61B DUP2 DUP6 DUP8 PUSH2 0x461 JUMP JUMPDEST SWAP1 POP DUP2 DUP2 SUB PUSH1 0x60 DUP4 ADD MSTORE PUSH2 0x62F DUP2 DUP5 PUSH2 0x597 JUMP JUMPDEST SWAP1 POP SWAP7 SWAP6 POP POP POP POP POP POP JUMP INVALID LOG2 PUSH5 0x6970667358 0x22 SLT KECCAK256 STATICCALL 0xD2 0xE9 0xA8 CALLDATASIZE 0xA5 SLT 0x24 DUP1 SIGNEXTEND 0xDB 0xD1 CREATE2 0xA6 DUP13 COINBASE DUP7 0x5E 0xE3 BASEFEE 0xDB SIGNEXTEND MSIZE 0xAA SWAP7 0x26 SWAP9 PUSH20 0x24F9E6B864736F6C634300081100330000000000 "
				},
				"gasEstimates": {
					"creation": {
						"codeDepositCost": "329800",
						"executionCost": "368",
						"totalCost": "330168"
					},
					"external": {
						"decode(bytes)": "817",
						"encode(uint256,address,uint256[],(string,uint256[2]))": "infinite"
					}
				},
				"methodIdentifiers": {
					"decode(bytes)": "e5c5e9a3",
					"encode(uint256,address,uint256[],(string,uint256[2]))": "7049e087"
				}
			},
			"storageLayout": {
				"storage": [],
				"types": null
			},
			"userdoc": {
				"kind": "user",
				"methods": {},
				"version": 1
			}
		}
	}
}