{
	"test1.sol": {
		"A": {
			"abi": [
				{
					"inputs": [
						{
							"internalType": "uint16",
							"name": "a",
							"type": "uint16"
						},
						{
							"internalType": "uint256",
							"name": "",
							"type": "uint256"
						}
					],
					"name": "b",
					"outputs": [
						{
							"internalType": "uint8",
							"name": "",
							"type": "uint8"
						},
						{
							"internalType": "string",
							"name": "",
							"type": "string"
						}
					],
					"stateMutability": "pure",
					"type": "function"
				}
			],
			"devdoc": {
				"kind": "dev",
				"methods": {},
				"version": 1
			},
			"evm": {
				"assembly": "    /* \"test1.sol\":61:218  contract A {... */\n  mstore(0x40, 0x80)\n  callvalue\n  dup1\n  iszero\n  tag_1\n  jumpi\n  0x00\n  dup1\n  revert\ntag_1:\n  pop\n  dataSize(sub_0)\n  dup1\n  dataOffset(sub_0)\n  0x00\n  codecopy\n  0x00\n  return\nstop\n\nsub_0: assembly {\n        /* \"test1.sol\":61:218  contract A {... */\n      mstore(0x40, 0x80)\n      callvalue\n      dup1\n      iszero\n      tag_1\n      jumpi\n      0x00\n      dup1\n      revert\n    tag_1:\n      pop\n      jumpi(tag_2, lt(calldatasize, 0x04))\n      shr(0xe0, calldataload(0x00))\n      dup1\n      0xe8f6663e\n      eq\n      tag_3\n      jumpi\n    tag_2:\n      0x00\n      dup1\n      revert\n        /* \"test1.sol\":81:215  function b(uint16 a, uint) public pure returns (uint8, string memory){... */\n    tag_3:\n      tag_4\n      0x04\n      dup1\n      calldatasize\n      sub\n      dup2\n      add\n      swap1\n      tag_5\n      swap2\n      swap1\n      tag_6\n      jump\t// in\n    tag_5:\n      tag_7\n      jump\t// in\n    tag_4:\n      mload(0x40)\n      tag_8\n      swap3\n      swap2\n      swap1\n      tag_9\n      jump\t// in\n    tag_8:\n      mload(0x40)\n      dup1\n      swap2\n      sub\n      swap1\n      return\n    tag_7:\n        /* \"test1.sol\":129:134  uint8 */\n      0x00\n        /* \"test1.sol\":136:149  string memory */\n      0x60\n        /* \"test1.sol\":161:168  uint8 c */\n      0x00\n        /* \"test1.sol\":171:172  5 */\n      0x05\n        /* \"test1.sol\":161:172  uint8 c = 5 */\n      swap1\n      pop\n        /* \"test1.sol\":183:198  string memory s */\n      0x00\n        /* \"test1.sol\":183:207  string memory s = \"ssss\" */\n      mload(0x40)\n      dup1\n      0x40\n      add\n      0x40\n      mstore\n      dup1\n      0x04\n      dup2\n      mstore\n      0x20\n      add\n      0x7373737300000000000000000000000000000000000000000000000000000000\n      dup2\n      mstore\n      pop\n      swap1\n      pop\n        /* \"test1.sol\":150:215  {... */\n      pop\n      pop\n        /* \"test1.sol\":81:215  function b(uint16 a, uint) public pure returns (uint8, string memory){... */\n      swap3\n      pop\n      swap3\n      swap1\n      pop\n      jump\t// out\n        /* \"#utility.yul\":88:205   */\n    tag_12:\n        /* \"#utility.yul\":197:198   */\n      0x00\n        /* \"#utility.yul\":194:195   */\n      dup1\n        /* \"#utility.yul\":187:199   */\n      revert\n        /* \"#utility.yul\":334:423   */\n    tag_14:\n        /* \"#utility.yul\":370:377   */\n      0x00\n        /* \"#utility.yul\":410:416   */\n      0xffff\n        /* \"#utility.yul\":403:408   */\n      dup3\n        /* \"#utility.yul\":399:417   */\n      and\n        /* \"#utility.yul\":388:417   */\n      swap1\n      pop\n        /* \"#utility.yul\":334:423   */\n      swap2\n      swap1\n      pop\n      jump\t// out\n        /* \"#utility.yul\":429:549   */\n    tag_15:\n        /* \"#utility.yul\":501:524   */\n      tag_33\n        /* \"#utility.yul\":518:523   */\n      dup2\n        /* \"#utility.yul\":501:524   */\n      tag_14\n      jump\t// in\n    tag_33:\n        /* \"#utility.yul\":494:499   */\n      dup2\n        /* \"#utility.yul\":491:525   */\n      eq\n        /* \"#utility.yul\":481:543   */\n      tag_34\n      jumpi\n        /* \"#utility.yul\":539:540   */\n      0x00\n        /* \"#utility.yul\":536:537   */\n      dup1\n        /* \"#utility.yul\":529:541   */\n      revert\n        /* \"#utility.yul\":481:543   */\n    tag_34:\n        /* \"#utility.yul\":429:549   */\n      pop\n      jump\t// out\n        /* \"#utility.yul\":555:692   */\n    tag_16:\n        /* \"#utility.yul\":600:605   */\n      0x00\n        /* \"#utility.yul\":638:644   */\n      dup2\n        /* \"#utility.yul\":625:645   */\n      calldataload\n        /* \"#utility.yul\":616:645   */\n      swap1\n      pop\n        /* \"#utility.yul\":654:686   */\n      tag_36\n        /* \"#utility.yul\":680:685   */\n      dup2\n        /* \"#utility.yul\":654:686   */\n      tag_15\n      jump\t// in\n    tag_36:\n        /* \"#utility.yul\":555:692   */\n      swap3\n      swap2\n      pop\n      pop\n      jump\t// out\n        /* \"#utility.yul\":698:775   */\n    tag_17:\n        /* \"#utility.yul\":735:742   */\n      0x00\n        /* \"#utility.yul\":764:769   */\n      dup2\n        /* \"#utility.yul\":753:769   */\n      swap1\n      pop\n        /* \"#utility.yul\":698:775   */\n      swap2\n      swap1\n      pop\n      jump\t// out\n        /* \"#utility.yul\":781:903   */\n    tag_18:\n        /* \"#utility.yul\":854:878   */\n      tag_39\n        /* \"#utility.yul\":872:877   */\n      dup2\n        /* \"#utility.yul\":854:878   */\n      tag_17\n      jump\t// in\n    tag_39:\n        /* \"#utility.yul\":847:852   */\n      dup2\n        /* \"#utility.yul\":844:879   */\n      eq\n        /* \"#utility.yul\":834:897   */\n      tag_40\n      jumpi\n        /* \"#utility.yul\":893:894   */\n      0x00\n        /* \"#utility.yul\":890:891   */\n      dup1\n        /* \"#utility.yul\":883:895   */\n      revert\n        /* \"#utility.yul\":834:897   */\n    tag_40:\n        /* \"#utility.yul\":781:903   */\n      pop\n      jump\t// out\n        /* \"#utility.yul\":909:1048   */\n    tag_19:\n        /* \"#utility.yul\":955:960   */\n      0x00\n        /* \"#utility.yul\":993:999   */\n      dup2\n        /* \"#utility.yul\":980:1000   */\n      calldataload\n        /* \"#utility.yul\":971:1000   */\n      swap1\n      pop\n        /* \"#utility.yul\":1009:1042   */\n      tag_42\n        /* \"#utility.yul\":1036:1041   */\n      dup2\n        /* \"#utility.yul\":1009:1042   */\n      tag_18\n      jump\t// in\n    tag_42:\n        /* \"#utility.yul\":909:1048   */\n      swap3\n      swap2\n      pop\n      pop\n      jump\t// out\n        /* \"#utility.yul\":1054:1526   */\n    tag_6:\n        /* \"#utility.yul\":1121:1127   */\n      0x00\n        /* \"#utility.yul\":1129:1135   */\n      dup1\n        /* \"#utility.yul\":1178:1180   */\n      0x40\n        /* \"#utility.yul\":1166:1175   */\n      dup4\n        /* \"#utility.yul\":1157:1164   */\n      dup6\n        /* \"#utility.yul\":1153:1176   */\n      sub\n        /* \"#utility.yul\":1149:1181   */\n      slt\n        /* \"#utility.yul\":1146:1265   */\n      iszero\n      tag_44\n      jumpi\n        /* \"#utility.yul\":1184:1263   */\n      tag_45\n      tag_12\n      jump\t// in\n    tag_45:\n        /* \"#utility.yul\":1146:1265   */\n    tag_44:\n        /* \"#utility.yul\":1304:1305   */\n      0x00\n        /* \"#utility.yul\":1329:1381   */\n      tag_46\n        /* \"#utility.yul\":1373:1380   */\n      dup6\n        /* \"#utility.yul\":1364:1370   */\n      dup3\n        /* \"#utility.yul\":1353:1362   */\n      dup7\n        /* \"#utility.yul\":1349:1371   */\n      add\n        /* \"#utility.yul\":1329:1381   */\n      tag_16\n      jump\t// in\n    tag_46:\n        /* \"#utility.yul\":1319:1381   */\n      swap3\n      pop\n        /* \"#utility.yul\":1275:1391   */\n      pop\n        /* \"#utility.yul\":1430:1432   */\n      0x20\n        /* \"#utility.yul\":1456:1509   */\n      tag_47\n        /* \"#utility.yul\":1501:1508   */\n      dup6\n        /* \"#utility.yul\":1492:1498   */\n      dup3\n        /* \"#utility.yul\":1481:1490   */\n      dup7\n        /* \"#utility.yul\":1477:1499   */\n      add\n        /* \"#utility.yul\":1456:1509   */\n      tag_19\n      jump\t// in\n    tag_47:\n        /* \"#utility.yul\":1446:1509   */\n      swap2\n      pop\n        /* \"#utility.yul\":1401:1519   */\n      pop\n        /* \"#utility.yul\":1054:1526   */\n      swap3\n      pop\n      swap3\n      swap1\n      pop\n      jump\t// out\n        /* \"#utility.yul\":1532:1618   */\n    tag_20:\n        /* \"#utility.yul\":1567:1574   */\n      0x00\n        /* \"#utility.yul\":1607:1611   */\n      0xff\n        /* \"#utility.yul\":1600:1605   */\n      dup3\n        /* \"#utility.yul\":1596:1612   */\n      and\n        /* \"#utility.yul\":1585:1612   */\n      swap1\n      pop\n        /* \"#utility.yul\":1532:1618   */\n      swap2\n      swap1\n      pop\n      jump\t// out\n        /* \"#utility.yul\":1624:1736   */\n    tag_21:\n        /* \"#utility.yul\":1707:1729   */\n      tag_50\n        /* \"#utility.yul\":1723:1728   */\n      dup2\n        /* \"#utility.yul\":1707:1729   */\n      tag_20\n      jump\t// in\n    tag_50:\n        /* \"#utility.yul\":1702:1705   */\n      dup3\n        /* \"#utility.yul\":1695:1730   */\n      mstore\n        /* \"#utility.yul\":1624:1736   */\n      pop\n      pop\n      jump\t// out\n        /* \"#utility.yul\":1742:1841   */\n    tag_22:\n        /* \"#utility.yul\":1794:1800   */\n      0x00\n        /* \"#utility.yul\":1828:1833   */\n      dup2\n        /* \"#utility.yul\":1822:1834   */\n      mload\n        /* \"#utility.yul\":1812:1834   */\n      swap1\n      pop\n        /* \"#utility.yul\":1742:1841   */\n      swap2\n      swap1\n      pop\n      jump\t// out\n        /* \"#utility.yul\":1847:2016   */\n    tag_23:\n        /* \"#utility.yul\":1931:1942   */\n      0x00\n        /* \"#utility.yul\":1965:1971   */\n      dup3\n        /* \"#utility.yul\":1960:1963   */\n      dup3\n        /* \"#utility.yul\":1953:1972   */\n      mstore\n        /* \"#utility.yul\":2005:2009   */\n      0x20\n        /* \"#utility.yul\":2000:2003   */\n      dup3\n        /* \"#utility.yul\":1996:2010   */\n      add\n        /* \"#utility.yul\":1981:2010   */\n      swap1\n      pop\n        /* \"#utility.yul\":1847:2016   */\n      swap3\n      swap2\n      pop\n      pop\n      jump\t// out\n        /* \"#utility.yul\":2022:2268   */\n    tag_24:\n        /* \"#utility.yul\":2103:2104   */\n      0x00\n        /* \"#utility.yul\":2113:2226   */\n    tag_54:\n        /* \"#utility.yul\":2127:2133   */\n      dup4\n        /* \"#utility.yul\":2124:2125   */\n      dup2\n        /* \"#utility.yul\":2121:2134   */\n      lt\n        /* \"#utility.yul\":2113:2226   */\n      iszero\n      tag_56\n      jumpi\n        /* \"#utility.yul\":2212:2213   */\n      dup1\n        /* \"#utility.yul\":2207:2210   */\n      dup3\n        /* \"#utility.yul\":2203:2214   */\n      add\n        /* \"#utility.yul\":2197:2215   */\n      mload\n        /* \"#utility.yul\":2193:2194   */\n      dup2\n        /* \"#utility.yul\":2188:2191   */\n      dup5\n        /* \"#utility.yul\":2184:2195   */\n      add\n        /* \"#utility.yul\":2177:2216   */\n      mstore\n        /* \"#utility.yul\":2149:2151   */\n      0x20\n        /* \"#utility.yul\":2146:2147   */\n      dup2\n        /* \"#utility.yul\":2142:2152   */\n      add\n        /* \"#utility.yul\":2137:2152   */\n      swap1\n      pop\n        /* \"#utility.yul\":2113:2226   */\n      jump(tag_54)\n    tag_56:\n        /* \"#utility.yul\":2260:2261   */\n      0x00\n        /* \"#utility.yul\":2251:2257   */\n      dup5\n        /* \"#utility.yul\":2246:2249   */\n      dup5\n        /* \"#utility.yul\":2242:2258   */\n      add\n        /* \"#utility.yul\":2235:2262   */\n      mstore\n        /* \"#utility.yul\":2084:2268   */\n      pop\n        /* \"#utility.yul\":2022:2268   */\n      pop\n      pop\n      pop\n      jump\t// out\n        /* \"#utility.yul\":2274:2376   */\n    tag_25:\n        /* \"#utility.yul\":2315:2321   */\n      0x00\n        /* \"#utility.yul\":2366:2368   */\n      0x1f\n        /* \"#utility.yul\":2362:2369   */\n      not\n        /* \"#utility.yul\":2357:2359   */\n      0x1f\n        /* \"#utility.yul\":2350:2355   */\n      dup4\n        /* \"#utility.yul\":2346:2360   */\n      add\n        /* \"#utility.yul\":2342:2370   */\n      and\n        /* \"#utility.yul\":2332:2370   */\n      swap1\n      pop\n        /* \"#utility.yul\":2274:2376   */\n      swap2\n      swap1\n      pop\n      jump\t// out\n        /* \"#utility.yul\":2382:2759   */\n    tag_26:\n        /* \"#utility.yul\":2470:2473   */\n      0x00\n        /* \"#utility.yul\":2498:2537   */\n      tag_59\n        /* \"#utility.yul\":2531:2536   */\n      dup3\n        /* \"#utility.yul\":2498:2537   */\n      tag_22\n      jump\t// in\n    tag_59:\n        /* \"#utility.yul\":2553:2624   */\n      tag_60\n        /* \"#utility.yul\":2617:2623   */\n      dup2\n        /* \"#utility.yul\":2612:2615   */\n      dup6\n        /* \"#utility.yul\":2553:2624   */\n      tag_23\n      jump\t// in\n    tag_60:\n        /* \"#utility.yul\":2546:2624   */\n      swap4\n      pop\n        /* \"#utility.yul\":2633:2698   */\n      tag_61\n        /* \"#utility.yul\":2691:2697   */\n      dup2\n        /* \"#utility.yul\":2686:2689   */\n      dup6\n        /* \"#utility.yul\":2679:2683   */\n      0x20\n        /* \"#utility.yul\":2672:2677   */\n      dup7\n        /* \"#utility.yul\":2668:2684   */\n      add\n        /* \"#utility.yul\":2633:2698   */\n      tag_24\n      jump\t// in\n    tag_61:\n        /* \"#utility.yul\":2723:2752   */\n      tag_62\n        /* \"#utility.yul\":2745:2751   */\n      dup2\n        /* \"#utility.yul\":2723:2752   */\n      tag_25\n      jump\t// in\n    tag_62:\n        /* \"#utility.yul\":2718:2721   */\n      dup5\n        /* \"#utility.yul\":2714:2753   */\n      add\n        /* \"#utility.yul\":2707:2753   */\n      swap2\n      pop\n        /* \"#utility.yul\":2474:2759   */\n      pop\n        /* \"#utility.yul\":2382:2759   */\n      swap3\n      swap2\n      pop\n      pop\n      jump\t// out\n        /* \"#utility.yul\":2765:3180   */\n    tag_9:\n        /* \"#utility.yul\":2902:2906   */\n      0x00\n        /* \"#utility.yul\":2940:2942   */\n      0x40\n        /* \"#utility.yul\":2929:2938   */\n      dup3\n        /* \"#utility.yul\":2925:2943   */\n      add\n        /* \"#utility.yul\":2917:2943   */\n      swap1\n      pop\n        /* \"#utility.yul\":2953:3020   */\n      tag_64\n        /* \"#utility.yul\":3017:3018   */\n      0x00\n        /* \"#utility.yul\":3006:3015   */\n      dup4\n        /* \"#utility.yul\":3002:3019   */\n      add\n        /* \"#utility.yul\":2993:2999   */\n      dup6\n        /* \"#utility.yul\":2953:3020   */\n      tag_21\n      jump\t// in\n    tag_64:\n        /* \"#utility.yul\":3067:3076   */\n      dup2\n        /* \"#utility.yul\":3061:3065   */\n      dup2\n        /* \"#utility.yul\":3057:3077   */\n      sub\n        /* \"#utility.yul\":3052:3054   */\n      0x20\n        /* \"#utility.yul\":3041:3050   */\n      dup4\n        /* \"#utility.yul\":3037:3055   */\n      add\n        /* \"#utility.yul\":3030:3078   */\n      mstore\n        /* \"#utility.yul\":3095:3173   */\n      tag_65\n        /* \"#utility.yul\":3168:3172   */\n      dup2\n        /* \"#utility.yul\":3159:3165   */\n      dup5\n        /* \"#utility.yul\":3095:3173   */\n      tag_26\n      jump\t// in\n    tag_65:\n        /* \"#utility.yul\":3087:3173   */\n      swap1\n      pop\n        /* \"#utility.yul\":2765:3180   */\n      swap4\n      swap3\n      pop\n      pop\n      pop\n      jump\t// out\n\n    auxdata: 0xa2646970667358221220db85803706a5cb8152738a86d28cfe87342422de6b66f0796fac4a40e898960f64736f6c63430008110033\n}\n",
				"bytecode": {
					"linkReferences": {},
					"object": "608060405234801561001057600080fd5b50610275806100206000396000f3fe608060405234801561001057600080fd5b506004361061002b5760003560e01c8063e8f6663e14610030575b600080fd5b61004a60048036038101906100459190610123565b610061565b60405161005892919061020f565b60405180910390f35b6000606060006005905060006040518060400160405280600481526020017f7373737300000000000000000000000000000000000000000000000000000000815250905050509250929050565b600080fd5b600061ffff82169050919050565b6100ca816100b3565b81146100d557600080fd5b50565b6000813590506100e7816100c1565b92915050565b6000819050919050565b610100816100ed565b811461010b57600080fd5b50565b60008135905061011d816100f7565b92915050565b6000806040838503121561013a576101396100ae565b5b6000610148858286016100d8565b92505060206101598582860161010e565b9150509250929050565b600060ff82169050919050565b61017981610163565b82525050565b600081519050919050565b600082825260208201905092915050565b60005b838110156101b957808201518184015260208101905061019e565b60008484015250505050565b6000601f19601f8301169050919050565b60006101e18261017f565b6101eb818561018a565b93506101fb81856020860161019b565b610204816101c5565b840191505092915050565b60006040820190506102246000830185610170565b818103602083015261023681846101d6565b9050939250505056fea2646970667358221220db85803706a5cb8152738a86d28cfe87342422de6b66f0796fac4a40e898960f64736f6c63430008110033",
					"opcodes": "PUSH1 0x80 PUSH1 0x40 MSTORE CALLVALUE DUP1 ISZERO PUSH2 0x10 JUMPI PUSH1 0x0 DUP1 REVERT JUMPDEST POP PUSH2 0x275 DUP1 PUSH2 0x20 PUSH1 0x0 CODECOPY PUSH1 0x0 RETURN INVALID PUSH1 0x80 PUSH1 0x40 MSTORE CALLVALUE DUP1 ISZERO PUSH2 0x10 JUMPI PUSH1 0x0 DUP1 REVERT JUMPDEST POP PUSH1 0x4 CALLDATASIZE LT PUSH2 0x2B JUMPI PUSH1 0x0 CALLDATALOAD PUSH1 0xE0 SHR DUP1 PUSH4 0xE8F6663E EQ PUSH2 0x30 JUMPI JUMPDEST PUSH1 0x0 DUP1 REVERT JUMPDEST PUSH2 0x4A PUSH1 0x4 DUP1 CALLDATASIZE SUB DUP2 ADD SWAP1 PUSH2 0x45 SWAP2 SWAP1 PUSH2 0x123 JUMP JUMPDEST PUSH2 0x61 JUMP JUMPDEST PUSH1 0x40 MLOAD PUSH2 0x58 SWAP3 SWAP2 SWAP1 PUSH2 0x20F JUMP JUMPDEST PUSH1 0x40 MLOAD DUP1 SWAP2 SUB SWAP1 RETURN JUMPDEST PUSH1 0x0 PUSH1 0x60 PUSH1 0x0 PUSH1 0x5 SWAP1 POP PUSH1 0x0 PUSH1 0x40 MLOAD DUP1 PUSH1 0x40 ADD PUSH1 0x40 MSTORE DUP1 PUSH1 0x4 DUP2 MSTORE PUSH1 0x20 ADD PUSH32 0x7373737300000000000000000000000000000000000000000000000000000000 DUP2 MSTORE POP SWAP1 POP POP POP SWAP3 POP SWAP3 SWAP1 POP JUMP JUMPDEST PUSH1 0x0 DUP1 REVERT JUMPDEST PUSH1 0x0 PUSH2 0xFFFF DUP3 AND SWAP1 POP SWAP2 SWAP1 POP JUMP JUMPDEST PUSH2 0xCA DUP2 PUSH2 0xB3 JUMP JUMPDEST DUP2 EQ PUSH2 0xD5 JUMPI PUSH1 0x0 DUP1 REVERT JUMPDEST POP JUMP JUMPDEST PUSH1 0x0 DUP2 CALLDATALOAD SWAP1 POP PUSH2 0xE7 DUP2 PUSH2 0xC1 JUMP JUMPDEST SWAP3 SWAP2 POP POP JUMP JUMPDEST PUSH1 0x0 DUP2 SWAP1 POP SWAP2 SWAP1 POP JUMP JUMPDEST PUSH2 0x100 DUP2 PUSH2 0xED JUMP JUMPDEST DUP2 EQ PUSH2 0x10B JUMPI PUSH1 0x0 DUP1 REVERT JUMPDEST POP JUMP JUMPDEST PUSH1 0x0 DUP2 CALLDATALOAD SWAP1 POP PUSH2 0x11D DUP2 PUSH2 0xF7 JUMP JUMPDEST SWAP3 SWAP2 POP POP JUMP JUMPDEST PUSH1 0x0 DUP1 PUSH1 0x40 DUP4 DUP6 SUB SLT ISZERO PUSH2 0x13A JUMPI PUSH2 0x139 PUSH2 0xAE JUMP JUMPDEST JUMPDEST PUSH1 0x0 PUSH2 0x148 DUP6 DUP3 DUP7 ADD PUSH2 0xD8 JUMP JUMPDEST SWAP3 POP POP PUSH1 0x20 PUSH2 0x159 DUP6 DUP3 DUP7 ADD PUSH2 0x10E JUMP JUMPDEST SWAP2 POP POP SWAP3 POP SWAP3 SWAP1 POP JUMP JUMPDEST PUSH1 0x0 PUSH1 0xFF DUP3 AND SWAP1 POP SWAP2 SWAP1 POP JUMP JUMPDEST PUSH2 0x179 DUP2 PUSH2 0x163 JUMP JUMPDEST DUP3 MSTORE POP POP JUMP JUMPDEST PUSH1 0x0 DUP2 MLOAD SWAP1 POP SWAP2 SWAP1 POP JUMP JUMPDEST PUSH1 0x0 DUP3 DUP3 MSTORE PUSH1 0x20 DUP3 ADD SWAP1 POP SWAP3 SWAP2 POP POP JUMP JUMPDEST PUSH1 0x0 JUMPDEST DUP4 DUP2 LT ISZERO PUSH2 0x1B9 JUMPI DUP1 DUP3 ADD MLOAD DUP2 DUP5 ADD MSTORE PUSH1 0x20 DUP2 ADD SWAP1 POP PUSH2 0x19E JUMP JUMPDEST PUSH1 0x0 DUP5 DUP5 ADD MSTORE POP POP POP POP JUMP JUMPDEST PUSH1 0x0 PUSH1 0x1F NOT PUSH1 0x1F DUP4 ADD AND SWAP1 POP SWAP2 SWAP1 POP JUMP JUMPDEST PUSH1 0x0 PUSH2 0x1E1 DUP3 PUSH2 0x17F JUMP JUMPDEST PUSH2 0x1EB DUP2 DUP6 PUSH2 0x18A JUMP JUMPDEST SWAP4 POP PUSH2 0x1FB DUP2 DUP6 PUSH1 0x20 DUP7 ADD PUSH2 0x19B JUMP JUMPDEST PUSH2 0x204 DUP2 PUSH2 0x1C5 JUMP JUMPDEST DUP5 ADD SWAP2 POP POP SWAP3 SWAP2 POP POP JUMP JUMPDEST PUSH1 0x0 PUSH1 0x40 DUP3 ADD SWAP1 POP PUSH2 0x224 PUSH1 0x0 DUP4 ADD DUP6 PUSH2 0x170 JUMP JUMPDEST DUP2 DUP2 SUB PUSH1 0x20 DUP4 ADD MSTORE PUSH2 0x236 DUP2 DUP5 PUSH2 0x1D6 JUMP JUMPDEST SWAP1 POP SWAP4 SWAP3 POP POP POP JUMP INVALID LOG2 PUSH5 0x6970667358 0x22 SLT KECCAK256 0xDB DUP6 DUP1 CALLDATACOPY MOD 0xA5 0xCB DUP2 MSTORE PUSH20 0x8A86D28CFE87342422DE6B66F0796FAC4A40E898 SWAP7 0xF PUSH5 0x736F6C6343 STOP ADDMOD GT STOP CALLER "
				},
				"gasEstimates": {
					"creation": {
						"codeDepositCost": "125800",
						"executionCost": "171",
						"totalCost": "125971"
					},
					"external": {
						"b(uint16,uint256)": "infinite"
					}
				},
				"methodIdentifiers": {
					"b(uint16,uint256)": "e8f6663e"
				}
			},
			"storageLayout": {
				"storage": [],
				"types": null
			},
			"userdoc": {
				"kind": "user",
				"methods": {},
				"version": 1
			}
		}
	}
}