{
	"test1.sol": {
		"A": {
			"abi": [
				{
					"inputs": [
						{
							"internalType": "uint16",
							"name": "a",
							"type": "uint16"
						},
						{
							"internalType": "uint16",
							"name": "b",
							"type": "uint16"
						}
					],
					"name": "b",
					"outputs": [
						{
							"internalType": "uint8",
							"name": "",
							"type": "uint8"
						},
						{
							"internalType": "string",
							"name": "",
							"type": "string"
						}
					],
					"stateMutability": "pure",
					"type": "function"
				}
			],
			"devdoc": {
				"kind": "dev",
				"methods": {},
				"version": 1
			},
			"evm": {
				"assembly": "    /* \"test1.sol\":61:222  contract A {... */\n  mstore(0x40, 0x80)\n  callvalue\n  dup1\n  iszero\n  tag_1\n  jumpi\n  0x00\n  dup1\n  revert\ntag_1:\n  pop\n  dataSize(sub_0)\n  dup1\n  dataOffset(sub_0)\n  0x00\n  codecopy\n  0x00\n  return\nstop\n\nsub_0: assembly {\n        /* \"test1.sol\":61:222  contract A {... */\n      mstore(0x40, 0x80)\n      callvalue\n      dup1\n      iszero\n      tag_1\n      jumpi\n      0x00\n      dup1\n      revert\n    tag_1:\n      pop\n      jumpi(tag_2, lt(calldatasize, 0x04))\n      shr(0xe0, calldataload(0x00))\n      dup1\n      0xfb2ee6cc\n      eq\n      tag_3\n      jumpi\n    tag_2:\n      0x00\n      dup1\n      revert\n        /* \"test1.sol\":81:219  function b(uint16 a, uint16 b) public pure returns (uint8, string memory){... */\n    tag_3:\n      tag_4\n      0x04\n      dup1\n      calldatasize\n      sub\n      dup2\n      add\n      swap1\n      tag_5\n      swap2\n      swap1\n      tag_6\n      jump\t// in\n    tag_5:\n      tag_7\n      jump\t// in\n    tag_4:\n      mload(0x40)\n      tag_8\n      swap3\n      swap2\n      swap1\n      tag_9\n      jump\t// in\n    tag_8:\n      mload(0x40)\n      dup1\n      swap2\n      sub\n      swap1\n      return\n    tag_7:\n        /* \"test1.sol\":133:138  uint8 */\n      0x00\n        /* \"test1.sol\":140:153  string memory */\n      0x60\n        /* \"test1.sol\":165:172  uint8 c */\n      0x00\n        /* \"test1.sol\":175:176  5 */\n      0x05\n        /* \"test1.sol\":165:176  uint8 c = 5 */\n      swap1\n      pop\n        /* \"test1.sol\":187:202  string memory s */\n      0x00\n        /* \"test1.sol\":187:211  string memory s = \"ssss\" */\n      mload(0x40)\n      dup1\n      0x40\n      add\n      0x40\n      mstore\n      dup1\n      0x04\n      dup2\n      mstore\n      0x20\n      add\n      0x7373737300000000000000000000000000000000000000000000000000000000\n      dup2\n      mstore\n      pop\n      swap1\n      pop\n        /* \"test1.sol\":154:219  {... */\n      pop\n      pop\n        /* \"test1.sol\":81:219  function b(uint16 a, uint16 b) public pure returns (uint8, string memory){... */\n      swap3\n      pop\n      swap3\n      swap1\n      pop\n      jump\t// out\n        /* \"#utility.yul\":88:205   */\n    tag_12:\n        /* \"#utility.yul\":197:198   */\n      0x00\n        /* \"#utility.yul\":194:195   */\n      dup1\n        /* \"#utility.yul\":187:199   */\n      revert\n        /* \"#utility.yul\":334:423   */\n    tag_14:\n        /* \"#utility.yul\":370:377   */\n      0x00\n        /* \"#utility.yul\":410:416   */\n      0xffff\n        /* \"#utility.yul\":403:408   */\n      dup3\n        /* \"#utility.yul\":399:417   */\n      and\n        /* \"#utility.yul\":388:417   */\n      swap1\n      pop\n        /* \"#utility.yul\":334:423   */\n      swap2\n      swap1\n      pop\n      jump\t// out\n        /* \"#utility.yul\":429:549   */\n    tag_15:\n        /* \"#utility.yul\":501:524   */\n      tag_30\n        /* \"#utility.yul\":518:523   */\n      dup2\n        /* \"#utility.yul\":501:524   */\n      tag_14\n      jump\t// in\n    tag_30:\n        /* \"#utility.yul\":494:499   */\n      dup2\n        /* \"#utility.yul\":491:525   */\n      eq\n        /* \"#utility.yul\":481:543   */\n      tag_31\n      jumpi\n        /* \"#utility.yul\":539:540   */\n      0x00\n        /* \"#utility.yul\":536:537   */\n      dup1\n        /* \"#utility.yul\":529:541   */\n      revert\n        /* \"#utility.yul\":481:543   */\n    tag_31:\n        /* \"#utility.yul\":429:549   */\n      pop\n      jump\t// out\n        /* \"#utility.yul\":555:692   */\n    tag_16:\n        /* \"#utility.yul\":600:605   */\n      0x00\n        /* \"#utility.yul\":638:644   */\n      dup2\n        /* \"#utility.yul\":625:645   */\n      calldataload\n        /* \"#utility.yul\":616:645   */\n      swap1\n      pop\n        /* \"#utility.yul\":654:686   */\n      tag_33\n        /* \"#utility.yul\":680:685   */\n      dup2\n        /* \"#utility.yul\":654:686   */\n      tag_15\n      jump\t// in\n    tag_33:\n        /* \"#utility.yul\":555:692   */\n      swap3\n      swap2\n      pop\n      pop\n      jump\t// out\n        /* \"#utility.yul\":698:1168   */\n    tag_6:\n        /* \"#utility.yul\":764:770   */\n      0x00\n        /* \"#utility.yul\":772:778   */\n      dup1\n        /* \"#utility.yul\":821:823   */\n      0x40\n        /* \"#utility.yul\":809:818   */\n      dup4\n        /* \"#utility.yul\":800:807   */\n      dup6\n        /* \"#utility.yul\":796:819   */\n      sub\n        /* \"#utility.yul\":792:824   */\n      slt\n        /* \"#utility.yul\":789:908   */\n      iszero\n      tag_35\n      jumpi\n        /* \"#utility.yul\":827:906   */\n      tag_36\n      tag_12\n      jump\t// in\n    tag_36:\n        /* \"#utility.yul\":789:908   */\n    tag_35:\n        /* \"#utility.yul\":947:948   */\n      0x00\n        /* \"#utility.yul\":972:1024   */\n      tag_37\n        /* \"#utility.yul\":1016:1023   */\n      dup6\n        /* \"#utility.yul\":1007:1013   */\n      dup3\n        /* \"#utility.yul\":996:1005   */\n      dup7\n        /* \"#utility.yul\":992:1014   */\n      add\n        /* \"#utility.yul\":972:1024   */\n      tag_16\n      jump\t// in\n    tag_37:\n        /* \"#utility.yul\":962:1024   */\n      swap3\n      pop\n        /* \"#utility.yul\":918:1034   */\n      pop\n        /* \"#utility.yul\":1073:1075   */\n      0x20\n        /* \"#utility.yul\":1099:1151   */\n      tag_38\n        /* \"#utility.yul\":1143:1150   */\n      dup6\n        /* \"#utility.yul\":1134:1140   */\n      dup3\n        /* \"#utility.yul\":1123:1132   */\n      dup7\n        /* \"#utility.yul\":1119:1141   */\n      add\n        /* \"#utility.yul\":1099:1151   */\n      tag_16\n      jump\t// in\n    tag_38:\n        /* \"#utility.yul\":1089:1151   */\n      swap2\n      pop\n        /* \"#utility.yul\":1044:1161   */\n      pop\n        /* \"#utility.yul\":698:1168   */\n      swap3\n      pop\n      swap3\n      swap1\n      pop\n      jump\t// out\n        /* \"#utility.yul\":1174:1260   */\n    tag_17:\n        /* \"#utility.yul\":1209:1216   */\n      0x00\n        /* \"#utility.yul\":1249:1253   */\n      0xff\n        /* \"#utility.yul\":1242:1247   */\n      dup3\n        /* \"#utility.yul\":1238:1254   */\n      and\n        /* \"#utility.yul\":1227:1254   */\n      swap1\n      pop\n        /* \"#utility.yul\":1174:1260   */\n      swap2\n      swap1\n      pop\n      jump\t// out\n        /* \"#utility.yul\":1266:1378   */\n    tag_18:\n        /* \"#utility.yul\":1349:1371   */\n      tag_41\n        /* \"#utility.yul\":1365:1370   */\n      dup2\n        /* \"#utility.yul\":1349:1371   */\n      tag_17\n      jump\t// in\n    tag_41:\n        /* \"#utility.yul\":1344:1347   */\n      dup3\n        /* \"#utility.yul\":1337:1372   */\n      mstore\n        /* \"#utility.yul\":1266:1378   */\n      pop\n      pop\n      jump\t// out\n        /* \"#utility.yul\":1384:1483   */\n    tag_19:\n        /* \"#utility.yul\":1436:1442   */\n      0x00\n        /* \"#utility.yul\":1470:1475   */\n      dup2\n        /* \"#utility.yul\":1464:1476   */\n      mload\n        /* \"#utility.yul\":1454:1476   */\n      swap1\n      pop\n        /* \"#utility.yul\":1384:1483   */\n      swap2\n      swap1\n      pop\n      jump\t// out\n        /* \"#utility.yul\":1489:1658   */\n    tag_20:\n        /* \"#utility.yul\":1573:1584   */\n      0x00\n        /* \"#utility.yul\":1607:1613   */\n      dup3\n        /* \"#utility.yul\":1602:1605   */\n      dup3\n        /* \"#utility.yul\":1595:1614   */\n      mstore\n        /* \"#utility.yul\":1647:1651   */\n      0x20\n        /* \"#utility.yul\":1642:1645   */\n      dup3\n        /* \"#utility.yul\":1638:1652   */\n      add\n        /* \"#utility.yul\":1623:1652   */\n      swap1\n      pop\n        /* \"#utility.yul\":1489:1658   */\n      swap3\n      swap2\n      pop\n      pop\n      jump\t// out\n        /* \"#utility.yul\":1664:1910   */\n    tag_21:\n        /* \"#utility.yul\":1745:1746   */\n      0x00\n        /* \"#utility.yul\":1755:1868   */\n    tag_45:\n        /* \"#utility.yul\":1769:1775   */\n      dup4\n        /* \"#utility.yul\":1766:1767   */\n      dup2\n        /* \"#utility.yul\":1763:1776   */\n      lt\n        /* \"#utility.yul\":1755:1868   */\n      iszero\n      tag_47\n      jumpi\n        /* \"#utility.yul\":1854:1855   */\n      dup1\n        /* \"#utility.yul\":1849:1852   */\n      dup3\n        /* \"#utility.yul\":1845:1856   */\n      add\n        /* \"#utility.yul\":1839:1857   */\n      mload\n        /* \"#utility.yul\":1835:1836   */\n      dup2\n        /* \"#utility.yul\":1830:1833   */\n      dup5\n        /* \"#utility.yul\":1826:1837   */\n      add\n        /* \"#utility.yul\":1819:1858   */\n      mstore\n        /* \"#utility.yul\":1791:1793   */\n      0x20\n        /* \"#utility.yul\":1788:1789   */\n      dup2\n        /* \"#utility.yul\":1784:1794   */\n      add\n        /* \"#utility.yul\":1779:1794   */\n      swap1\n      pop\n        /* \"#utility.yul\":1755:1868   */\n      jump(tag_45)\n    tag_47:\n        /* \"#utility.yul\":1902:1903   */\n      0x00\n        /* \"#utility.yul\":1893:1899   */\n      dup5\n        /* \"#utility.yul\":1888:1891   */\n      dup5\n        /* \"#utility.yul\":1884:1900   */\n      add\n        /* \"#utility.yul\":1877:1904   */\n      mstore\n        /* \"#utility.yul\":1726:1910   */\n      pop\n        /* \"#utility.yul\":1664:1910   */\n      pop\n      pop\n      pop\n      jump\t// out\n        /* \"#utility.yul\":1916:2018   */\n    tag_22:\n        /* \"#utility.yul\":1957:1963   */\n      0x00\n        /* \"#utility.yul\":2008:2010   */\n      0x1f\n        /* \"#utility.yul\":2004:2011   */\n      not\n        /* \"#utility.yul\":1999:2001   */\n      0x1f\n        /* \"#utility.yul\":1992:1997   */\n      dup4\n        /* \"#utility.yul\":1988:2002   */\n      add\n        /* \"#utility.yul\":1984:2012   */\n      and\n        /* \"#utility.yul\":1974:2012   */\n      swap1\n      pop\n        /* \"#utility.yul\":1916:2018   */\n      swap2\n      swap1\n      pop\n      jump\t// out\n        /* \"#utility.yul\":2024:2401   */\n    tag_23:\n        /* \"#utility.yul\":2112:2115   */\n      0x00\n        /* \"#utility.yul\":2140:2179   */\n      tag_50\n        /* \"#utility.yul\":2173:2178   */\n      dup3\n        /* \"#utility.yul\":2140:2179   */\n      tag_19\n      jump\t// in\n    tag_50:\n        /* \"#utility.yul\":2195:2266   */\n      tag_51\n        /* \"#utility.yul\":2259:2265   */\n      dup2\n        /* \"#utility.yul\":2254:2257   */\n      dup6\n        /* \"#utility.yul\":2195:2266   */\n      tag_20\n      jump\t// in\n    tag_51:\n        /* \"#utility.yul\":2188:2266   */\n      swap4\n      pop\n        /* \"#utility.yul\":2275:2340   */\n      tag_52\n        /* \"#utility.yul\":2333:2339   */\n      dup2\n        /* \"#utility.yul\":2328:2331   */\n      dup6\n        /* \"#utility.yul\":2321:2325   */\n      0x20\n        /* \"#utility.yul\":2314:2319   */\n      dup7\n        /* \"#utility.yul\":2310:2326   */\n      add\n        /* \"#utility.yul\":2275:2340   */\n      tag_21\n      jump\t// in\n    tag_52:\n        /* \"#utility.yul\":2365:2394   */\n      tag_53\n        /* \"#utility.yul\":2387:2393   */\n      dup2\n        /* \"#utility.yul\":2365:2394   */\n      tag_22\n      jump\t// in\n    tag_53:\n        /* \"#utility.yul\":2360:2363   */\n      dup5\n        /* \"#utility.yul\":2356:2395   */\n      add\n        /* \"#utility.yul\":2349:2395   */\n      swap2\n      pop\n        /* \"#utility.yul\":2116:2401   */\n      pop\n        /* \"#utility.yul\":2024:2401   */\n      swap3\n      swap2\n      pop\n      pop\n      jump\t// out\n        /* \"#utility.yul\":2407:2822   */\n    tag_9:\n        /* \"#utility.yul\":2544:2548   */\n      0x00\n        /* \"#utility.yul\":2582:2584   */\n      0x40\n        /* \"#utility.yul\":2571:2580   */\n      dup3\n        /* \"#utility.yul\":2567:2585   */\n      add\n        /* \"#utility.yul\":2559:2585   */\n      swap1\n      pop\n        /* \"#utility.yul\":2595:2662   */\n      tag_55\n        /* \"#utility.yul\":2659:2660   */\n      0x00\n        /* \"#utility.yul\":2648:2657   */\n      dup4\n        /* \"#utility.yul\":2644:2661   */\n      add\n        /* \"#utility.yul\":2635:2641   */\n      dup6\n        /* \"#utility.yul\":2595:2662   */\n      tag_18\n      jump\t// in\n    tag_55:\n        /* \"#utility.yul\":2709:2718   */\n      dup2\n        /* \"#utility.yul\":2703:2707   */\n      dup2\n        /* \"#utility.yul\":2699:2719   */\n      sub\n        /* \"#utility.yul\":2694:2696   */\n      0x20\n        /* \"#utility.yul\":2683:2692   */\n      dup4\n        /* \"#utility.yul\":2679:2697   */\n      add\n        /* \"#utility.yul\":2672:2720   */\n      mstore\n        /* \"#utility.yul\":2737:2815   */\n      tag_56\n        /* \"#utility.yul\":2810:2814   */\n      dup2\n        /* \"#utility.yul\":2801:2807   */\n      dup5\n        /* \"#utility.yul\":2737:2815   */\n      tag_23\n      jump\t// in\n    tag_56:\n        /* \"#utility.yul\":2729:2815   */\n      swap1\n      pop\n        /* \"#utility.yul\":2407:2822   */\n      swap4\n      swap3\n      pop\n      pop\n      pop\n      jump\t// out\n\n    auxdata: 0xa26469706673582212206f9c2e22117222fae90f25a51f191a3acce83c847edb8eee26a0e2ddc06f9a1764736f6c63430008110033\n}\n",
				"bytecode": {
					"linkReferences": {},
					"object": "608060405234801561001057600080fd5b5061023f806100206000396000f3fe608060405234801561001057600080fd5b506004361061002b5760003560e01c8063fb2ee6cc14610030575b600080fd5b61004a600480360381019061004591906100ed565b610061565b6040516100589291906101d9565b60405180910390f35b6000606060006005905060006040518060400160405280600481526020017f7373737300000000000000000000000000000000000000000000000000000000815250905050509250929050565b600080fd5b600061ffff82169050919050565b6100ca816100b3565b81146100d557600080fd5b50565b6000813590506100e7816100c1565b92915050565b60008060408385031215610104576101036100ae565b5b6000610112858286016100d8565b9250506020610123858286016100d8565b9150509250929050565b600060ff82169050919050565b6101438161012d565b82525050565b600081519050919050565b600082825260208201905092915050565b60005b83811015610183578082015181840152602081019050610168565b60008484015250505050565b6000601f19601f8301169050919050565b60006101ab82610149565b6101b58185610154565b93506101c5818560208601610165565b6101ce8161018f565b840191505092915050565b60006040820190506101ee600083018561013a565b818103602083015261020081846101a0565b9050939250505056fea26469706673582212206f9c2e22117222fae90f25a51f191a3acce83c847edb8eee26a0e2ddc06f9a1764736f6c63430008110033",
					"opcodes": "PUSH1 0x80 PUSH1 0x40 MSTORE CALLVALUE DUP1 ISZERO PUSH2 0x10 JUMPI PUSH1 0x0 DUP1 REVERT JUMPDEST POP PUSH2 0x23F DUP1 PUSH2 0x20 PUSH1 0x0 CODECOPY PUSH1 0x0 RETURN INVALID PUSH1 0x80 PUSH1 0x40 MSTORE CALLVALUE DUP1 ISZERO PUSH2 0x10 JUMPI PUSH1 0x0 DUP1 REVERT JUMPDEST POP PUSH1 0x4 CALLDATASIZE LT PUSH2 0x2B JUMPI PUSH1 0x0 CALLDATALOAD PUSH1 0xE0 SHR DUP1 PUSH4 0xFB2EE6CC EQ PUSH2 0x30 JUMPI JUMPDEST PUSH1 0x0 DUP1 REVERT JUMPDEST PUSH2 0x4A PUSH1 0x4 DUP1 CALLDATASIZE SUB DUP2 ADD SWAP1 PUSH2 0x45 SWAP2 SWAP1 PUSH2 0xED JUMP JUMPDEST PUSH2 0x61 JUMP JUMPDEST PUSH1 0x40 MLOAD PUSH2 0x58 SWAP3 SWAP2 SWAP1 PUSH2 0x1D9 JUMP JUMPDEST PUSH1 0x40 MLOAD DUP1 SWAP2 SUB SWAP1 RETURN JUMPDEST PUSH1 0x0 PUSH1 0x60 PUSH1 0x0 PUSH1 0x5 SWAP1 POP PUSH1 0x0 PUSH1 0x40 MLOAD DUP1 PUSH1 0x40 ADD PUSH1 0x40 MSTORE DUP1 PUSH1 0x4 DUP2 MSTORE PUSH1 0x20 ADD PUSH32 0x7373737300000000000000000000000000000000000000000000000000000000 DUP2 MSTORE POP SWAP1 POP POP POP SWAP3 POP SWAP3 SWAP1 POP JUMP JUMPDEST PUSH1 0x0 DUP1 REVERT JUMPDEST PUSH1 0x0 PUSH2 0xFFFF DUP3 AND SWAP1 POP SWAP2 SWAP1 POP JUMP JUMPDEST PUSH2 0xCA DUP2 PUSH2 0xB3 JUMP JUMPDEST DUP2 EQ PUSH2 0xD5 JUMPI PUSH1 0x0 DUP1 REVERT JUMPDEST POP JUMP JUMPDEST PUSH1 0x0 DUP2 CALLDATALOAD SWAP1 POP PUSH2 0xE7 DUP2 PUSH2 0xC1 JUMP JUMPDEST SWAP3 SWAP2 POP POP JUMP JUMPDEST PUSH1 0x0 DUP1 PUSH1 0x40 DUP4 DUP6 SUB SLT ISZERO PUSH2 0x104 JUMPI PUSH2 0x103 PUSH2 0xAE JUMP JUMPDEST JUMPDEST PUSH1 0x0 PUSH2 0x112 DUP6 DUP3 DUP7 ADD PUSH2 0xD8 JUMP JUMPDEST SWAP3 POP POP PUSH1 0x20 PUSH2 0x123 DUP6 DUP3 DUP7 ADD PUSH2 0xD8 JUMP JUMPDEST SWAP2 POP POP SWAP3 POP SWAP3 SWAP1 POP JUMP JUMPDEST PUSH1 0x0 PUSH1 0xFF DUP3 AND SWAP1 POP SWAP2 SWAP1 POP JUMP JUMPDEST PUSH2 0x143 DUP2 PUSH2 0x12D JUMP JUMPDEST DUP3 MSTORE POP POP JUMP JUMPDEST PUSH1 0x0 DUP2 MLOAD SWAP1 POP SWAP2 SWAP1 POP JUMP JUMPDEST PUSH1 0x0 DUP3 DUP3 MSTORE PUSH1 0x20 DUP3 ADD SWAP1 POP SWAP3 SWAP2 POP POP JUMP JUMPDEST PUSH1 0x0 JUMPDEST DUP4 DUP2 LT ISZERO PUSH2 0x183 JUMPI DUP1 DUP3 ADD MLOAD DUP2 DUP5 ADD MSTORE PUSH1 0x20 DUP2 ADD SWAP1 POP PUSH2 0x168 JUMP JUMPDEST PUSH1 0x0 DUP5 DUP5 ADD MSTORE POP POP POP POP JUMP JUMPDEST PUSH1 0x0 PUSH1 0x1F NOT PUSH1 0x1F DUP4 ADD AND SWAP1 POP SWAP2 SWAP1 POP JUMP JUMPDEST PUSH1 0x0 PUSH2 0x1AB DUP3 PUSH2 0x149 JUMP JUMPDEST PUSH2 0x1B5 DUP2 DUP6 PUSH2 0x154 JUMP JUMPDEST SWAP4 POP PUSH2 0x1C5 DUP2 DUP6 PUSH1 0x20 DUP7 ADD PUSH2 0x165 JUMP JUMPDEST PUSH2 0x1CE DUP2 PUSH2 0x18F JUMP JUMPDEST DUP5 ADD SWAP2 POP POP SWAP3 SWAP2 POP POP JUMP JUMPDEST PUSH1 0x0 PUSH1 0x40 DUP3 ADD SWAP1 POP PUSH2 0x1EE PUSH1 0x0 DUP4 ADD DUP6 PUSH2 0x13A JUMP JUMPDEST DUP2 DUP2 SUB PUSH1 0x20 DUP4 ADD MSTORE PUSH2 0x200 DUP2 DUP5 PUSH2 0x1A0 JUMP JUMPDEST SWAP1 POP SWAP4 SWAP3 POP POP POP JUMP INVALID LOG2 PUSH5 0x6970667358 0x22 SLT KECCAK256 PUSH16 0x9C2E22117222FAE90F25A51F191A3ACC 0xE8 EXTCODECOPY DUP5 PUSH31 0xDB8EEE26A0E2DDC06F9A1764736F6C63430008110033000000000000000000 "
				},
				"gasEstimates": {
					"creation": {
						"codeDepositCost": "115000",
						"executionCost": "159",
						"totalCost": "115159"
					},
					"external": {
						"b(uint16,uint16)": "infinite"
					}
				},
				"methodIdentifiers": {
					"b(uint16,uint16)": "fb2ee6cc"
				}
			},
			"storageLayout": {
				"storage": [],
				"types": null
			},
			"userdoc": {
				"kind": "user",
				"methods": {},
				"version": 1
			}
		}
	}
}