{
	"AbiDecode.sol": {
		"AbiDecode": {
			"abi": [
				{
					"inputs": [
						{
							"internalType": "bytes",
							"name": "data",
							"type": "bytes"
						}
					],
					"name": "decode",
					"outputs": [
						{
							"internalType": "uint256",
							"name": "x",
							"type": "uint256"
						},
						{
							"internalType": "address",
							"name": "addr",
							"type": "address"
						},
						{
							"internalType": "uint256[]",
							"name": "arr",
							"type": "uint256[]"
						},
						{
							"components": [
								{
									"internalType": "string",
									"name": "mame",
									"type": "string"
								},
								{
									"internalType": "uint256[2]",
									"name": "nums",
									"type": "uint256[2]"
								}
							],
							"internalType": "struct AbiDecode.Mystruct",
							"name": "myStruct",
							"type": "tuple"
						}
					],
					"stateMutability": "pure",
					"type": "function"
				},
				{
					"inputs": [
						{
							"internalType": "uint256",
							"name": "x",
							"type": "uint256"
						},
						{
							"internalType": "address",
							"name": "addr",
							"type": "address"
						},
						{
							"internalType": "uint256[]",
							"name": "arr",
							"type": "uint256[]"
						},
						{
							"components": [
								{
									"internalType": "string",
									"name": "mame",
									"type": "string"
								},
								{
									"internalType": "uint256[2]",
									"name": "nums",
									"type": "uint256[2]"
								}
							],
							"internalType": "struct AbiDecode.Mystruct",
							"name": "myStruct",
							"type": "tuple"
						}
					],
					"name": "encode",
					"outputs": [
						{
							"internalType": "bytes",
							"name": "",
							"type": "bytes"
						}
					],
					"stateMutability": "pure",
					"type": "function"
				},
				{
					"inputs": [
						{
							"internalType": "address",
							"name": "_to",
							"type": "address"
						}
					],
					"name": "testTransfer",
					"outputs": [],
					"stateMutability": "nonpayable",
					"type": "function"
				}
			],
			"devdoc": {
				"kind": "dev",
				"methods": {},
				"version": 1
			},
			"evm": {
				"assembly": "    /* \"AbiDecode.sol\":61:640  contract AbiDecode {... */\n  mstore(0x40, 0x80)\n  callvalue\n  dup1\n  iszero\n  tag_1\n  jumpi\n  0x00\n  dup1\n  revert\ntag_1:\n  pop\n  dataSize(sub_0)\n  dup1\n  dataOffset(sub_0)\n  0x00\n  codecopy\n  0x00\n  return\nstop\n\nsub_0: assembly {\n        /* \"AbiDecode.sol\":61:640  contract AbiDecode {... */\n      mstore(0x40, 0x80)\n      callvalue\n      dup1\n      iszero\n      tag_1\n      jumpi\n      0x00\n      dup1\n      revert\n    tag_1:\n      pop\n      jumpi(tag_2, lt(calldatasize, 0x04))\n      shr(0xe0, calldataload(0x00))\n      dup1\n      0x4d5b608b\n      eq\n      tag_3\n      jumpi\n      dup1\n      0x7049e087\n      eq\n      tag_4\n      jumpi\n      dup1\n      0xe5c5e9a3\n      eq\n      tag_5\n      jumpi\n    tag_2:\n      0x00\n      dup1\n      revert\n        /* \"AbiDecode.sol\":589:635  function testTransfer(address _to) external {} */\n    tag_3:\n      tag_6\n      0x04\n      dup1\n      calldatasize\n      sub\n      dup2\n      add\n      swap1\n      tag_7\n      swap2\n      swap1\n      tag_8\n      jump\t// in\n    tag_7:\n      tag_9\n      jump\t// in\n    tag_6:\n      stop\n        /* \"AbiDecode.sol\":164:349  function encode (uint x, address addr, uint[] calldata arr, Mystruct calldata myStruct) external pure returns (bytes memory) {... */\n    tag_4:\n      tag_10\n      0x04\n      dup1\n      calldatasize\n      sub\n      dup2\n      add\n      swap1\n      tag_11\n      swap2\n      swap1\n      tag_12\n      jump\t// in\n    tag_11:\n      tag_13\n      jump\t// in\n    tag_10:\n      mload(0x40)\n      tag_14\n      swap2\n      swap1\n      tag_15\n      jump\t// in\n    tag_14:\n      mload(0x40)\n      dup1\n      swap2\n      sub\n      swap1\n      return\n        /* \"AbiDecode.sol\":357:581  function decode(bytes calldata data) external pure returns (uint x, address addr, uint[] memory arr, Mystruct memory myStruct) {... */\n    tag_5:\n      tag_16\n      0x04\n      dup1\n      calldatasize\n      sub\n      dup2\n      add\n      swap1\n      tag_17\n      swap2\n      swap1\n      tag_18\n      jump\t// in\n    tag_17:\n      tag_19\n      jump\t// in\n    tag_16:\n      mload(0x40)\n      tag_20\n      swap5\n      swap4\n      swap3\n      swap2\n      swap1\n      tag_21\n      jump\t// in\n    tag_20:\n      mload(0x40)\n      dup1\n      swap2\n      sub\n      swap1\n      return\n        /* \"AbiDecode.sol\":589:635  function testTransfer(address _to) external {} */\n    tag_9:\n      pop\n      jump\t// out\n        /* \"AbiDecode.sol\":164:349  function encode (uint x, address addr, uint[] calldata arr, Mystruct calldata myStruct) external pure returns (bytes memory) {... */\n    tag_13:\n        /* \"AbiDecode.sol\":275:287  bytes memory */\n      0x60\n        /* \"AbiDecode.sol\":318:319  x */\n      dup6\n        /* \"AbiDecode.sol\":321:325  addr */\n      dup6\n        /* \"AbiDecode.sol\":327:330  arr */\n      dup6\n      dup6\n        /* \"AbiDecode.sol\":332:340  myStruct */\n      dup6\n        /* \"AbiDecode.sol\":307:341  abi.encode(x, addr, arr, myStruct) */\n      add(0x20, mload(0x40))\n      tag_24\n      swap6\n      swap5\n      swap4\n      swap3\n      swap2\n      swap1\n      tag_25\n      jump\t// in\n    tag_24:\n      mload(0x40)\n      0x20\n      dup2\n      dup4\n      sub\n      sub\n      dup2\n      mstore\n      swap1\n      0x40\n      mstore\n        /* \"AbiDecode.sol\":300:341  return abi.encode(x, addr, arr, myStruct) */\n      swap1\n      pop\n        /* \"AbiDecode.sol\":164:349  function encode (uint x, address addr, uint[] calldata arr, Mystruct calldata myStruct) external pure returns (bytes memory) {... */\n      swap6\n      swap5\n      pop\n      pop\n      pop\n      pop\n      pop\n      jump\t// out\n        /* \"AbiDecode.sol\":357:581  function decode(bytes calldata data) external pure returns (uint x, address addr, uint[] memory arr, Mystruct memory myStruct) {... */\n    tag_19:\n        /* \"AbiDecode.sol\":417:423  uint x */\n      0x00\n        /* \"AbiDecode.sol\":425:437  address addr */\n      dup1\n        /* \"AbiDecode.sol\":439:456  uint[] memory arr */\n      0x60\n        /* \"AbiDecode.sol\":458:482  Mystruct memory myStruct */\n      tag_26\n      tag_27\n      jump\t// in\n    tag_26:\n        /* \"AbiDecode.sol\":533:537  data */\n      dup6\n      dup6\n        /* \"AbiDecode.sol\":522:573  abi.decode(data, (uint, address, uint[], Mystruct)) */\n      dup2\n      add\n      swap1\n      tag_29\n      swap2\n      swap1\n      tag_30\n      jump\t// in\n    tag_29:\n        /* \"AbiDecode.sol\":495:573  (x, addr, arr, myStruct) = abi.decode(data, (uint, address, uint[], Mystruct)) */\n      dup1\n      swap5\n      pop\n      dup2\n      swap6\n      pop\n      dup3\n      swap7\n      pop\n      dup4\n      swap8\n      pop\n      pop\n      pop\n      pop\n      pop\n        /* \"AbiDecode.sol\":357:581  function decode(bytes calldata data) external pure returns (uint x, address addr, uint[] memory arr, Mystruct memory myStruct) {... */\n      swap3\n      swap6\n      swap2\n      swap5\n      pop\n      swap3\n      pop\n      jump\t// out\n    tag_27:\n      mload(0x40)\n      dup1\n      0x40\n      add\n      0x40\n      mstore\n      dup1\n      0x60\n      dup2\n      mstore\n      0x20\n      add\n      tag_31\n      tag_32\n      jump\t// in\n    tag_31:\n      dup2\n      mstore\n      pop\n      swap1\n      jump\t// out\n    tag_32:\n      mload(0x40)\n      dup1\n      0x40\n      add\n      0x40\n      mstore\n      dup1\n      0x02\n      swap1\n      0x20\n      dup3\n      mul\n      dup1\n      calldatasize\n      dup4\n      calldatacopy\n      dup1\n      dup3\n      add\n      swap2\n      pop\n      pop\n      swap1\n      pop\n      pop\n      swap1\n      jump\t// out\n        /* \"#utility.yul\":7:82   */\n    tag_33:\n        /* \"#utility.yul\":40:46   */\n      0x00\n        /* \"#utility.yul\":73:75   */\n      0x40\n        /* \"#utility.yul\":67:76   */\n      mload\n        /* \"#utility.yul\":57:76   */\n      swap1\n      pop\n        /* \"#utility.yul\":7:82   */\n      swap1\n      jump\t// out\n        /* \"#utility.yul\":88:205   */\n    tag_34:\n        /* \"#utility.yul\":197:198   */\n      0x00\n        /* \"#utility.yul\":194:195   */\n      dup1\n        /* \"#utility.yul\":187:199   */\n      revert\n        /* \"#utility.yul\":211:328   */\n    tag_35:\n        /* \"#utility.yul\":320:321   */\n      0x00\n        /* \"#utility.yul\":317:318   */\n      dup1\n        /* \"#utility.yul\":310:322   */\n      revert\n        /* \"#utility.yul\":334:460   */\n    tag_36:\n        /* \"#utility.yul\":371:378   */\n      0x00\n        /* \"#utility.yul\":411:453   */\n      0xffffffffffffffffffffffffffffffffffffffff\n        /* \"#utility.yul\":404:409   */\n      dup3\n        /* \"#utility.yul\":400:454   */\n      and\n        /* \"#utility.yul\":389:454   */\n      swap1\n      pop\n        /* \"#utility.yul\":334:460   */\n      swap2\n      swap1\n      pop\n      jump\t// out\n        /* \"#utility.yul\":466:562   */\n    tag_37:\n        /* \"#utility.yul\":503:510   */\n      0x00\n        /* \"#utility.yul\":532:556   */\n      tag_110\n        /* \"#utility.yul\":550:555   */\n      dup3\n        /* \"#utility.yul\":532:556   */\n      tag_36\n      jump\t// in\n    tag_110:\n        /* \"#utility.yul\":521:556   */\n      swap1\n      pop\n        /* \"#utility.yul\":466:562   */\n      swap2\n      swap1\n      pop\n      jump\t// out\n        /* \"#utility.yul\":568:690   */\n    tag_38:\n        /* \"#utility.yul\":641:665   */\n      tag_112\n        /* \"#utility.yul\":659:664   */\n      dup2\n        /* \"#utility.yul\":641:665   */\n      tag_37\n      jump\t// in\n    tag_112:\n        /* \"#utility.yul\":634:639   */\n      dup2\n        /* \"#utility.yul\":631:666   */\n      eq\n        /* \"#utility.yul\":621:684   */\n      tag_113\n      jumpi\n        /* \"#utility.yul\":680:681   */\n      0x00\n        /* \"#utility.yul\":677:678   */\n      dup1\n        /* \"#utility.yul\":670:682   */\n      revert\n        /* \"#utility.yul\":621:684   */\n    tag_113:\n        /* \"#utility.yul\":568:690   */\n      pop\n      jump\t// out\n        /* \"#utility.yul\":696:835   */\n    tag_39:\n        /* \"#utility.yul\":742:747   */\n      0x00\n        /* \"#utility.yul\":780:786   */\n      dup2\n        /* \"#utility.yul\":767:787   */\n      calldataload\n        /* \"#utility.yul\":758:787   */\n      swap1\n      pop\n        /* \"#utility.yul\":796:829   */\n      tag_115\n        /* \"#utility.yul\":823:828   */\n      dup2\n        /* \"#utility.yul\":796:829   */\n      tag_38\n      jump\t// in\n    tag_115:\n        /* \"#utility.yul\":696:835   */\n      swap3\n      swap2\n      pop\n      pop\n      jump\t// out\n        /* \"#utility.yul\":841:1170   */\n    tag_8:\n        /* \"#utility.yul\":900:906   */\n      0x00\n        /* \"#utility.yul\":949:951   */\n      0x20\n        /* \"#utility.yul\":937:946   */\n      dup3\n        /* \"#utility.yul\":928:935   */\n      dup5\n        /* \"#utility.yul\":924:947   */\n      sub\n        /* \"#utility.yul\":920:952   */\n      slt\n        /* \"#utility.yul\":917:1036   */\n      iszero\n      tag_117\n      jumpi\n        /* \"#utility.yul\":955:1034   */\n      tag_118\n      tag_34\n      jump\t// in\n    tag_118:\n        /* \"#utility.yul\":917:1036   */\n    tag_117:\n        /* \"#utility.yul\":1075:1076   */\n      0x00\n        /* \"#utility.yul\":1100:1153   */\n      tag_119\n        /* \"#utility.yul\":1145:1152   */\n      dup5\n        /* \"#utility.yul\":1136:1142   */\n      dup3\n        /* \"#utility.yul\":1125:1134   */\n      dup6\n        /* \"#utility.yul\":1121:1143   */\n      add\n        /* \"#utility.yul\":1100:1153   */\n      tag_39\n      jump\t// in\n    tag_119:\n        /* \"#utility.yul\":1090:1153   */\n      swap2\n      pop\n        /* \"#utility.yul\":1046:1163   */\n      pop\n        /* \"#utility.yul\":841:1170   */\n      swap3\n      swap2\n      pop\n      pop\n      jump\t// out\n        /* \"#utility.yul\":1176:1253   */\n    tag_40:\n        /* \"#utility.yul\":1213:1220   */\n      0x00\n        /* \"#utility.yul\":1242:1247   */\n      dup2\n        /* \"#utility.yul\":1231:1247   */\n      swap1\n      pop\n        /* \"#utility.yul\":1176:1253   */\n      swap2\n      swap1\n      pop\n      jump\t// out\n        /* \"#utility.yul\":1259:1381   */\n    tag_41:\n        /* \"#utility.yul\":1332:1356   */\n      tag_122\n        /* \"#utility.yul\":1350:1355   */\n      dup2\n        /* \"#utility.yul\":1332:1356   */\n      tag_40\n      jump\t// in\n    tag_122:\n        /* \"#utility.yul\":1325:1330   */\n      dup2\n        /* \"#utility.yul\":1322:1357   */\n      eq\n        /* \"#utility.yul\":1312:1375   */\n      tag_123\n      jumpi\n        /* \"#utility.yul\":1371:1372   */\n      0x00\n        /* \"#utility.yul\":1368:1369   */\n      dup1\n        /* \"#utility.yul\":1361:1373   */\n      revert\n        /* \"#utility.yul\":1312:1375   */\n    tag_123:\n        /* \"#utility.yul\":1259:1381   */\n      pop\n      jump\t// out\n        /* \"#utility.yul\":1387:1526   */\n    tag_42:\n        /* \"#utility.yul\":1433:1438   */\n      0x00\n        /* \"#utility.yul\":1471:1477   */\n      dup2\n        /* \"#utility.yul\":1458:1478   */\n      calldataload\n        /* \"#utility.yul\":1449:1478   */\n      swap1\n      pop\n        /* \"#utility.yul\":1487:1520   */\n      tag_125\n        /* \"#utility.yul\":1514:1519   */\n      dup2\n        /* \"#utility.yul\":1487:1520   */\n      tag_41\n      jump\t// in\n    tag_125:\n        /* \"#utility.yul\":1387:1526   */\n      swap3\n      swap2\n      pop\n      pop\n      jump\t// out\n        /* \"#utility.yul\":1532:1649   */\n    tag_43:\n        /* \"#utility.yul\":1641:1642   */\n      0x00\n        /* \"#utility.yul\":1638:1639   */\n      dup1\n        /* \"#utility.yul\":1631:1643   */\n      revert\n        /* \"#utility.yul\":1655:1772   */\n    tag_44:\n        /* \"#utility.yul\":1764:1765   */\n      0x00\n        /* \"#utility.yul\":1761:1762   */\n      dup1\n        /* \"#utility.yul\":1754:1766   */\n      revert\n        /* \"#utility.yul\":1778:1895   */\n    tag_45:\n        /* \"#utility.yul\":1887:1888   */\n      0x00\n        /* \"#utility.yul\":1884:1885   */\n      dup1\n        /* \"#utility.yul\":1877:1889   */\n      revert\n        /* \"#utility.yul\":1918:2486   */\n    tag_46:\n        /* \"#utility.yul\":1991:1999   */\n      0x00\n        /* \"#utility.yul\":2001:2007   */\n      dup1\n        /* \"#utility.yul\":2051:2054   */\n      dup4\n        /* \"#utility.yul\":2044:2048   */\n      0x1f\n        /* \"#utility.yul\":2036:2042   */\n      dup5\n        /* \"#utility.yul\":2032:2049   */\n      add\n        /* \"#utility.yul\":2028:2055   */\n      slt\n        /* \"#utility.yul\":2018:2140   */\n      tag_130\n      jumpi\n        /* \"#utility.yul\":2059:2138   */\n      tag_131\n      tag_43\n      jump\t// in\n    tag_131:\n        /* \"#utility.yul\":2018:2140   */\n    tag_130:\n        /* \"#utility.yul\":2172:2178   */\n      dup3\n        /* \"#utility.yul\":2159:2179   */\n      calldataload\n        /* \"#utility.yul\":2149:2179   */\n      swap1\n      pop\n        /* \"#utility.yul\":2202:2220   */\n      0xffffffffffffffff\n        /* \"#utility.yul\":2194:2200   */\n      dup2\n        /* \"#utility.yul\":2191:2221   */\n      gt\n        /* \"#utility.yul\":2188:2305   */\n      iszero\n      tag_132\n      jumpi\n        /* \"#utility.yul\":2224:2303   */\n      tag_133\n      tag_44\n      jump\t// in\n    tag_133:\n        /* \"#utility.yul\":2188:2305   */\n    tag_132:\n        /* \"#utility.yul\":2338:2342   */\n      0x20\n        /* \"#utility.yul\":2330:2336   */\n      dup4\n        /* \"#utility.yul\":2326:2343   */\n      add\n        /* \"#utility.yul\":2314:2343   */\n      swap2\n      pop\n        /* \"#utility.yul\":2392:2395   */\n      dup4\n        /* \"#utility.yul\":2384:2388   */\n      0x20\n        /* \"#utility.yul\":2376:2382   */\n      dup3\n        /* \"#utility.yul\":2372:2389   */\n      mul\n        /* \"#utility.yul\":2362:2370   */\n      dup4\n        /* \"#utility.yul\":2358:2390   */\n      add\n        /* \"#utility.yul\":2355:2396   */\n      gt\n        /* \"#utility.yul\":2352:2480   */\n      iszero\n      tag_134\n      jumpi\n        /* \"#utility.yul\":2399:2478   */\n      tag_135\n      tag_45\n      jump\t// in\n    tag_135:\n        /* \"#utility.yul\":2352:2480   */\n    tag_134:\n        /* \"#utility.yul\":1918:2486   */\n      swap3\n      pop\n      swap3\n      swap1\n      pop\n      jump\t// out\n        /* \"#utility.yul\":2492:2609   */\n    tag_47:\n        /* \"#utility.yul\":2601:2602   */\n      0x00\n        /* \"#utility.yul\":2598:2599   */\n      dup1\n        /* \"#utility.yul\":2591:2603   */\n      revert\n        /* \"#utility.yul\":2648:2877   */\n    tag_48:\n        /* \"#utility.yul\":2719:2724   */\n      0x00\n        /* \"#utility.yul\":2760:2762   */\n      0x60\n        /* \"#utility.yul\":2751:2757   */\n      dup3\n        /* \"#utility.yul\":2746:2749   */\n      dup5\n        /* \"#utility.yul\":2742:2758   */\n      sub\n        /* \"#utility.yul\":2738:2763   */\n      slt\n        /* \"#utility.yul\":2735:2847   */\n      iszero\n      tag_138\n      jumpi\n        /* \"#utility.yul\":2766:2845   */\n      tag_139\n      tag_47\n      jump\t// in\n    tag_139:\n        /* \"#utility.yul\":2735:2847   */\n    tag_138:\n        /* \"#utility.yul\":2865:2871   */\n      dup2\n        /* \"#utility.yul\":2856:2871   */\n      swap1\n      pop\n        /* \"#utility.yul\":2648:2877   */\n      swap3\n      swap2\n      pop\n      pop\n      jump\t// out\n        /* \"#utility.yul\":2883:4088   */\n    tag_12:\n        /* \"#utility.yul\":3021:3027   */\n      0x00\n        /* \"#utility.yul\":3029:3035   */\n      dup1\n        /* \"#utility.yul\":3037:3043   */\n      0x00\n        /* \"#utility.yul\":3045:3051   */\n      dup1\n        /* \"#utility.yul\":3053:3059   */\n      0x00\n        /* \"#utility.yul\":3102:3105   */\n      0x80\n        /* \"#utility.yul\":3090:3099   */\n      dup7\n        /* \"#utility.yul\":3081:3088   */\n      dup9\n        /* \"#utility.yul\":3077:3100   */\n      sub\n        /* \"#utility.yul\":3073:3106   */\n      slt\n        /* \"#utility.yul\":3070:3190   */\n      iszero\n      tag_141\n      jumpi\n        /* \"#utility.yul\":3109:3188   */\n      tag_142\n      tag_34\n      jump\t// in\n    tag_142:\n        /* \"#utility.yul\":3070:3190   */\n    tag_141:\n        /* \"#utility.yul\":3229:3230   */\n      0x00\n        /* \"#utility.yul\":3254:3307   */\n      tag_143\n        /* \"#utility.yul\":3299:3306   */\n      dup9\n        /* \"#utility.yul\":3290:3296   */\n      dup3\n        /* \"#utility.yul\":3279:3288   */\n      dup10\n        /* \"#utility.yul\":3275:3297   */\n      add\n        /* \"#utility.yul\":3254:3307   */\n      tag_42\n      jump\t// in\n    tag_143:\n        /* \"#utility.yul\":3244:3307   */\n      swap6\n      pop\n        /* \"#utility.yul\":3200:3317   */\n      pop\n        /* \"#utility.yul\":3356:3358   */\n      0x20\n        /* \"#utility.yul\":3382:3435   */\n      tag_144\n        /* \"#utility.yul\":3427:3434   */\n      dup9\n        /* \"#utility.yul\":3418:3424   */\n      dup3\n        /* \"#utility.yul\":3407:3416   */\n      dup10\n        /* \"#utility.yul\":3403:3425   */\n      add\n        /* \"#utility.yul\":3382:3435   */\n      tag_39\n      jump\t// in\n    tag_144:\n        /* \"#utility.yul\":3372:3435   */\n      swap5\n      pop\n        /* \"#utility.yul\":3327:3445   */\n      pop\n        /* \"#utility.yul\":3512:3514   */\n      0x40\n        /* \"#utility.yul\":3501:3510   */\n      dup7\n        /* \"#utility.yul\":3497:3515   */\n      add\n        /* \"#utility.yul\":3484:3516   */\n      calldataload\n        /* \"#utility.yul\":3543:3561   */\n      0xffffffffffffffff\n        /* \"#utility.yul\":3535:3541   */\n      dup2\n        /* \"#utility.yul\":3532:3562   */\n      gt\n        /* \"#utility.yul\":3529:3646   */\n      iszero\n      tag_145\n      jumpi\n        /* \"#utility.yul\":3565:3644   */\n      tag_146\n      tag_35\n      jump\t// in\n    tag_146:\n        /* \"#utility.yul\":3529:3646   */\n    tag_145:\n        /* \"#utility.yul\":3678:3758   */\n      tag_147\n        /* \"#utility.yul\":3750:3757   */\n      dup9\n        /* \"#utility.yul\":3741:3747   */\n      dup3\n        /* \"#utility.yul\":3730:3739   */\n      dup10\n        /* \"#utility.yul\":3726:3748   */\n      add\n        /* \"#utility.yul\":3678:3758   */\n      tag_46\n      jump\t// in\n    tag_147:\n        /* \"#utility.yul\":3660:3758   */\n      swap4\n      pop\n      swap4\n      pop\n        /* \"#utility.yul\":3455:3768   */\n      pop\n        /* \"#utility.yul\":3835:3837   */\n      0x60\n        /* \"#utility.yul\":3824:3833   */\n      dup7\n        /* \"#utility.yul\":3820:3838   */\n      add\n        /* \"#utility.yul\":3807:3839   */\n      calldataload\n        /* \"#utility.yul\":3866:3884   */\n      0xffffffffffffffff\n        /* \"#utility.yul\":3858:3864   */\n      dup2\n        /* \"#utility.yul\":3855:3885   */\n      gt\n        /* \"#utility.yul\":3852:3969   */\n      iszero\n      tag_148\n      jumpi\n        /* \"#utility.yul\":3888:3967   */\n      tag_149\n      tag_35\n      jump\t// in\n    tag_149:\n        /* \"#utility.yul\":3852:3969   */\n    tag_148:\n        /* \"#utility.yul\":3993:4071   */\n      tag_150\n        /* \"#utility.yul\":4063:4070   */\n      dup9\n        /* \"#utility.yul\":4054:4060   */\n      dup3\n        /* \"#utility.yul\":4043:4052   */\n      dup10\n        /* \"#utility.yul\":4039:4061   */\n      add\n        /* \"#utility.yul\":3993:4071   */\n      tag_48\n      jump\t// in\n    tag_150:\n        /* \"#utility.yul\":3983:4071   */\n      swap2\n      pop\n        /* \"#utility.yul\":3778:4081   */\n      pop\n        /* \"#utility.yul\":2883:4088   */\n      swap3\n      swap6\n      pop\n      swap3\n      swap6\n      swap1\n      swap4\n      pop\n      jump\t// out\n        /* \"#utility.yul\":4094:4192   */\n    tag_49:\n        /* \"#utility.yul\":4145:4151   */\n      0x00\n        /* \"#utility.yul\":4179:4184   */\n      dup2\n        /* \"#utility.yul\":4173:4185   */\n      mload\n        /* \"#utility.yul\":4163:4185   */\n      swap1\n      pop\n        /* \"#utility.yul\":4094:4192   */\n      swap2\n      swap1\n      pop\n      jump\t// out\n        /* \"#utility.yul\":4198:4366   */\n    tag_50:\n        /* \"#utility.yul\":4281:4292   */\n      0x00\n        /* \"#utility.yul\":4315:4321   */\n      dup3\n        /* \"#utility.yul\":4310:4313   */\n      dup3\n        /* \"#utility.yul\":4303:4322   */\n      mstore\n        /* \"#utility.yul\":4355:4359   */\n      0x20\n        /* \"#utility.yul\":4350:4353   */\n      dup3\n        /* \"#utility.yul\":4346:4360   */\n      add\n        /* \"#utility.yul\":4331:4360   */\n      swap1\n      pop\n        /* \"#utility.yul\":4198:4366   */\n      swap3\n      swap2\n      pop\n      pop\n      jump\t// out\n        /* \"#utility.yul\":4372:4618   */\n    tag_51:\n        /* \"#utility.yul\":4453:4454   */\n      0x00\n        /* \"#utility.yul\":4463:4576   */\n    tag_154:\n        /* \"#utility.yul\":4477:4483   */\n      dup4\n        /* \"#utility.yul\":4474:4475   */\n      dup2\n        /* \"#utility.yul\":4471:4484   */\n      lt\n        /* \"#utility.yul\":4463:4576   */\n      iszero\n      tag_156\n      jumpi\n        /* \"#utility.yul\":4562:4563   */\n      dup1\n        /* \"#utility.yul\":4557:4560   */\n      dup3\n        /* \"#utility.yul\":4553:4564   */\n      add\n        /* \"#utility.yul\":4547:4565   */\n      mload\n        /* \"#utility.yul\":4543:4544   */\n      dup2\n        /* \"#utility.yul\":4538:4541   */\n      dup5\n        /* \"#utility.yul\":4534:4545   */\n      add\n        /* \"#utility.yul\":4527:4566   */\n      mstore\n        /* \"#utility.yul\":4499:4501   */\n      0x20\n        /* \"#utility.yul\":4496:4497   */\n      dup2\n        /* \"#utility.yul\":4492:4502   */\n      add\n        /* \"#utility.yul\":4487:4502   */\n      swap1\n      pop\n        /* \"#utility.yul\":4463:4576   */\n      jump(tag_154)\n    tag_156:\n        /* \"#utility.yul\":4610:4611   */\n      0x00\n        /* \"#utility.yul\":4601:4607   */\n      dup5\n        /* \"#utility.yul\":4596:4599   */\n      dup5\n        /* \"#utility.yul\":4592:4608   */\n      add\n        /* \"#utility.yul\":4585:4612   */\n      mstore\n        /* \"#utility.yul\":4434:4618   */\n      pop\n        /* \"#utility.yul\":4372:4618   */\n      pop\n      pop\n      pop\n      jump\t// out\n        /* \"#utility.yul\":4624:4726   */\n    tag_52:\n        /* \"#utility.yul\":4665:4671   */\n      0x00\n        /* \"#utility.yul\":4716:4718   */\n      0x1f\n        /* \"#utility.yul\":4712:4719   */\n      not\n        /* \"#utility.yul\":4707:4709   */\n      0x1f\n        /* \"#utility.yul\":4700:4705   */\n      dup4\n        /* \"#utility.yul\":4696:4710   */\n      add\n        /* \"#utility.yul\":4692:4720   */\n      and\n        /* \"#utility.yul\":4682:4720   */\n      swap1\n      pop\n        /* \"#utility.yul\":4624:4726   */\n      swap2\n      swap1\n      pop\n      jump\t// out\n        /* \"#utility.yul\":4732:5105   */\n    tag_53:\n        /* \"#utility.yul\":4818:4821   */\n      0x00\n        /* \"#utility.yul\":4846:4884   */\n      tag_159\n        /* \"#utility.yul\":4878:4883   */\n      dup3\n        /* \"#utility.yul\":4846:4884   */\n      tag_49\n      jump\t// in\n    tag_159:\n        /* \"#utility.yul\":4900:4970   */\n      tag_160\n        /* \"#utility.yul\":4963:4969   */\n      dup2\n        /* \"#utility.yul\":4958:4961   */\n      dup6\n        /* \"#utility.yul\":4900:4970   */\n      tag_50\n      jump\t// in\n    tag_160:\n        /* \"#utility.yul\":4893:4970   */\n      swap4\n      pop\n        /* \"#utility.yul\":4979:5044   */\n      tag_161\n        /* \"#utility.yul\":5037:5043   */\n      dup2\n        /* \"#utility.yul\":5032:5035   */\n      dup6\n        /* \"#utility.yul\":5025:5029   */\n      0x20\n        /* \"#utility.yul\":5018:5023   */\n      dup7\n        /* \"#utility.yul\":5014:5030   */\n      add\n        /* \"#utility.yul\":4979:5044   */\n      tag_51\n      jump\t// in\n    tag_161:\n        /* \"#utility.yul\":5069:5098   */\n      tag_162\n        /* \"#utility.yul\":5091:5097   */\n      dup2\n        /* \"#utility.yul\":5069:5098   */\n      tag_52\n      jump\t// in\n    tag_162:\n        /* \"#utility.yul\":5064:5067   */\n      dup5\n        /* \"#utility.yul\":5060:5099   */\n      add\n        /* \"#utility.yul\":5053:5099   */\n      swap2\n      pop\n        /* \"#utility.yul\":4822:5105   */\n      pop\n        /* \"#utility.yul\":4732:5105   */\n      swap3\n      swap2\n      pop\n      pop\n      jump\t// out\n        /* \"#utility.yul\":5111:5420   */\n    tag_15:\n        /* \"#utility.yul\":5222:5226   */\n      0x00\n        /* \"#utility.yul\":5260:5262   */\n      0x20\n        /* \"#utility.yul\":5249:5258   */\n      dup3\n        /* \"#utility.yul\":5245:5263   */\n      add\n        /* \"#utility.yul\":5237:5263   */\n      swap1\n      pop\n        /* \"#utility.yul\":5309:5318   */\n      dup2\n        /* \"#utility.yul\":5303:5307   */\n      dup2\n        /* \"#utility.yul\":5299:5319   */\n      sub\n        /* \"#utility.yul\":5295:5296   */\n      0x00\n        /* \"#utility.yul\":5284:5293   */\n      dup4\n        /* \"#utility.yul\":5280:5297   */\n      add\n        /* \"#utility.yul\":5273:5320   */\n      mstore\n        /* \"#utility.yul\":5337:5413   */\n      tag_164\n        /* \"#utility.yul\":5408:5412   */\n      dup2\n        /* \"#utility.yul\":5399:5405   */\n      dup5\n        /* \"#utility.yul\":5337:5413   */\n      tag_53\n      jump\t// in\n    tag_164:\n        /* \"#utility.yul\":5329:5413   */\n      swap1\n      pop\n        /* \"#utility.yul\":5111:5420   */\n      swap3\n      swap2\n      pop\n      pop\n      jump\t// out\n        /* \"#utility.yul\":5439:5991   */\n    tag_54:\n        /* \"#utility.yul\":5496:5504   */\n      0x00\n        /* \"#utility.yul\":5506:5512   */\n      dup1\n        /* \"#utility.yul\":5556:5559   */\n      dup4\n        /* \"#utility.yul\":5549:5553   */\n      0x1f\n        /* \"#utility.yul\":5541:5547   */\n      dup5\n        /* \"#utility.yul\":5537:5554   */\n      add\n        /* \"#utility.yul\":5533:5560   */\n      slt\n        /* \"#utility.yul\":5523:5645   */\n      tag_166\n      jumpi\n        /* \"#utility.yul\":5564:5643   */\n      tag_167\n      tag_43\n      jump\t// in\n    tag_167:\n        /* \"#utility.yul\":5523:5645   */\n    tag_166:\n        /* \"#utility.yul\":5677:5683   */\n      dup3\n        /* \"#utility.yul\":5664:5684   */\n      calldataload\n        /* \"#utility.yul\":5654:5684   */\n      swap1\n      pop\n        /* \"#utility.yul\":5707:5725   */\n      0xffffffffffffffff\n        /* \"#utility.yul\":5699:5705   */\n      dup2\n        /* \"#utility.yul\":5696:5726   */\n      gt\n        /* \"#utility.yul\":5693:5810   */\n      iszero\n      tag_168\n      jumpi\n        /* \"#utility.yul\":5729:5808   */\n      tag_169\n      tag_44\n      jump\t// in\n    tag_169:\n        /* \"#utility.yul\":5693:5810   */\n    tag_168:\n        /* \"#utility.yul\":5843:5847   */\n      0x20\n        /* \"#utility.yul\":5835:5841   */\n      dup4\n        /* \"#utility.yul\":5831:5848   */\n      add\n        /* \"#utility.yul\":5819:5848   */\n      swap2\n      pop\n        /* \"#utility.yul\":5897:5900   */\n      dup4\n        /* \"#utility.yul\":5889:5893   */\n      0x01\n        /* \"#utility.yul\":5881:5887   */\n      dup3\n        /* \"#utility.yul\":5877:5894   */\n      mul\n        /* \"#utility.yul\":5867:5875   */\n      dup4\n        /* \"#utility.yul\":5863:5895   */\n      add\n        /* \"#utility.yul\":5860:5901   */\n      gt\n        /* \"#utility.yul\":5857:5985   */\n      iszero\n      tag_170\n      jumpi\n        /* \"#utility.yul\":5904:5983   */\n      tag_171\n      tag_45\n      jump\t// in\n    tag_171:\n        /* \"#utility.yul\":5857:5985   */\n    tag_170:\n        /* \"#utility.yul\":5439:5991   */\n      swap3\n      pop\n      swap3\n      swap1\n      pop\n      jump\t// out\n        /* \"#utility.yul\":5997:6524   */\n    tag_18:\n        /* \"#utility.yul\":6067:6073   */\n      0x00\n        /* \"#utility.yul\":6075:6081   */\n      dup1\n        /* \"#utility.yul\":6124:6126   */\n      0x20\n        /* \"#utility.yul\":6112:6121   */\n      dup4\n        /* \"#utility.yul\":6103:6110   */\n      dup6\n        /* \"#utility.yul\":6099:6122   */\n      sub\n        /* \"#utility.yul\":6095:6127   */\n      slt\n        /* \"#utility.yul\":6092:6211   */\n      iszero\n      tag_173\n      jumpi\n        /* \"#utility.yul\":6130:6209   */\n      tag_174\n      tag_34\n      jump\t// in\n    tag_174:\n        /* \"#utility.yul\":6092:6211   */\n    tag_173:\n        /* \"#utility.yul\":6278:6279   */\n      0x00\n        /* \"#utility.yul\":6267:6276   */\n      dup4\n        /* \"#utility.yul\":6263:6280   */\n      add\n        /* \"#utility.yul\":6250:6281   */\n      calldataload\n        /* \"#utility.yul\":6308:6326   */\n      0xffffffffffffffff\n        /* \"#utility.yul\":6300:6306   */\n      dup2\n        /* \"#utility.yul\":6297:6327   */\n      gt\n        /* \"#utility.yul\":6294:6411   */\n      iszero\n      tag_175\n      jumpi\n        /* \"#utility.yul\":6330:6409   */\n      tag_176\n      tag_35\n      jump\t// in\n    tag_176:\n        /* \"#utility.yul\":6294:6411   */\n    tag_175:\n        /* \"#utility.yul\":6443:6507   */\n      tag_177\n        /* \"#utility.yul\":6499:6506   */\n      dup6\n        /* \"#utility.yul\":6490:6496   */\n      dup3\n        /* \"#utility.yul\":6479:6488   */\n      dup7\n        /* \"#utility.yul\":6475:6497   */\n      add\n        /* \"#utility.yul\":6443:6507   */\n      tag_54\n      jump\t// in\n    tag_177:\n        /* \"#utility.yul\":6425:6507   */\n      swap3\n      pop\n      swap3\n      pop\n        /* \"#utility.yul\":6221:6517   */\n      pop\n        /* \"#utility.yul\":5997:6524   */\n      swap3\n      pop\n      swap3\n      swap1\n      pop\n      jump\t// out\n        /* \"#utility.yul\":6530:6648   */\n    tag_55:\n        /* \"#utility.yul\":6617:6641   */\n      tag_179\n        /* \"#utility.yul\":6635:6640   */\n      dup2\n        /* \"#utility.yul\":6617:6641   */\n      tag_40\n      jump\t// in\n    tag_179:\n        /* \"#utility.yul\":6612:6615   */\n      dup3\n        /* \"#utility.yul\":6605:6642   */\n      mstore\n        /* \"#utility.yul\":6530:6648   */\n      pop\n      pop\n      jump\t// out\n        /* \"#utility.yul\":6654:6772   */\n    tag_56:\n        /* \"#utility.yul\":6741:6765   */\n      tag_181\n        /* \"#utility.yul\":6759:6764   */\n      dup2\n        /* \"#utility.yul\":6741:6765   */\n      tag_37\n      jump\t// in\n    tag_181:\n        /* \"#utility.yul\":6736:6739   */\n      dup3\n        /* \"#utility.yul\":6729:6766   */\n      mstore\n        /* \"#utility.yul\":6654:6772   */\n      pop\n      pop\n      jump\t// out\n        /* \"#utility.yul\":6778:6892   */\n    tag_57:\n        /* \"#utility.yul\":6845:6851   */\n      0x00\n        /* \"#utility.yul\":6879:6884   */\n      dup2\n        /* \"#utility.yul\":6873:6885   */\n      mload\n        /* \"#utility.yul\":6863:6885   */\n      swap1\n      pop\n        /* \"#utility.yul\":6778:6892   */\n      swap2\n      swap1\n      pop\n      jump\t// out\n        /* \"#utility.yul\":6898:7082   */\n    tag_58:\n        /* \"#utility.yul\":6997:7008   */\n      0x00\n        /* \"#utility.yul\":7031:7037   */\n      dup3\n        /* \"#utility.yul\":7026:7029   */\n      dup3\n        /* \"#utility.yul\":7019:7038   */\n      mstore\n        /* \"#utility.yul\":7071:7075   */\n      0x20\n        /* \"#utility.yul\":7066:7069   */\n      dup3\n        /* \"#utility.yul\":7062:7076   */\n      add\n        /* \"#utility.yul\":7047:7076   */\n      swap1\n      pop\n        /* \"#utility.yul\":6898:7082   */\n      swap3\n      swap2\n      pop\n      pop\n      jump\t// out\n        /* \"#utility.yul\":7088:7220   */\n    tag_59:\n        /* \"#utility.yul\":7155:7159   */\n      0x00\n        /* \"#utility.yul\":7178:7181   */\n      dup2\n        /* \"#utility.yul\":7170:7181   */\n      swap1\n      pop\n        /* \"#utility.yul\":7208:7212   */\n      0x20\n        /* \"#utility.yul\":7203:7206   */\n      dup3\n        /* \"#utility.yul\":7199:7213   */\n      add\n        /* \"#utility.yul\":7191:7213   */\n      swap1\n      pop\n        /* \"#utility.yul\":7088:7220   */\n      swap2\n      swap1\n      pop\n      jump\t// out\n        /* \"#utility.yul\":7226:7334   */\n    tag_60:\n        /* \"#utility.yul\":7303:7327   */\n      tag_186\n        /* \"#utility.yul\":7321:7326   */\n      dup2\n        /* \"#utility.yul\":7303:7327   */\n      tag_40\n      jump\t// in\n    tag_186:\n        /* \"#utility.yul\":7298:7301   */\n      dup3\n        /* \"#utility.yul\":7291:7328   */\n      mstore\n        /* \"#utility.yul\":7226:7334   */\n      pop\n      pop\n      jump\t// out\n        /* \"#utility.yul\":7340:7519   */\n    tag_61:\n        /* \"#utility.yul\":7409:7419   */\n      0x00\n        /* \"#utility.yul\":7430:7476   */\n      tag_188\n        /* \"#utility.yul\":7472:7475   */\n      dup4\n        /* \"#utility.yul\":7464:7470   */\n      dup4\n        /* \"#utility.yul\":7430:7476   */\n      tag_60\n      jump\t// in\n    tag_188:\n        /* \"#utility.yul\":7508:7512   */\n      0x20\n        /* \"#utility.yul\":7503:7506   */\n      dup4\n        /* \"#utility.yul\":7499:7513   */\n      add\n        /* \"#utility.yul\":7485:7513   */\n      swap1\n      pop\n        /* \"#utility.yul\":7340:7519   */\n      swap3\n      swap2\n      pop\n      pop\n      jump\t// out\n        /* \"#utility.yul\":7525:7638   */\n    tag_62:\n        /* \"#utility.yul\":7595:7599   */\n      0x00\n        /* \"#utility.yul\":7627:7631   */\n      0x20\n        /* \"#utility.yul\":7622:7625   */\n      dup3\n        /* \"#utility.yul\":7618:7632   */\n      add\n        /* \"#utility.yul\":7610:7632   */\n      swap1\n      pop\n        /* \"#utility.yul\":7525:7638   */\n      swap2\n      swap1\n      pop\n      jump\t// out\n        /* \"#utility.yul\":7674:8406   */\n    tag_63:\n        /* \"#utility.yul\":7793:7796   */\n      0x00\n        /* \"#utility.yul\":7822:7876   */\n      tag_191\n        /* \"#utility.yul\":7870:7875   */\n      dup3\n        /* \"#utility.yul\":7822:7876   */\n      tag_57\n      jump\t// in\n    tag_191:\n        /* \"#utility.yul\":7892:7978   */\n      tag_192\n        /* \"#utility.yul\":7971:7977   */\n      dup2\n        /* \"#utility.yul\":7966:7969   */\n      dup6\n        /* \"#utility.yul\":7892:7978   */\n      tag_58\n      jump\t// in\n    tag_192:\n        /* \"#utility.yul\":7885:7978   */\n      swap4\n      pop\n        /* \"#utility.yul\":8002:8058   */\n      tag_193\n        /* \"#utility.yul\":8052:8057   */\n      dup4\n        /* \"#utility.yul\":8002:8058   */\n      tag_59\n      jump\t// in\n    tag_193:\n        /* \"#utility.yul\":8081:8088   */\n      dup1\n        /* \"#utility.yul\":8112:8113   */\n      0x00\n        /* \"#utility.yul\":8097:8381   */\n    tag_194:\n        /* \"#utility.yul\":8122:8128   */\n      dup4\n        /* \"#utility.yul\":8119:8120   */\n      dup2\n        /* \"#utility.yul\":8116:8129   */\n      lt\n        /* \"#utility.yul\":8097:8381   */\n      iszero\n      tag_196\n      jumpi\n        /* \"#utility.yul\":8198:8204   */\n      dup2\n        /* \"#utility.yul\":8192:8205   */\n      mload\n        /* \"#utility.yul\":8225:8288   */\n      tag_197\n        /* \"#utility.yul\":8284:8287   */\n      dup9\n        /* \"#utility.yul\":8269:8282   */\n      dup3\n        /* \"#utility.yul\":8225:8288   */\n      tag_61\n      jump\t// in\n    tag_197:\n        /* \"#utility.yul\":8218:8288   */\n      swap8\n      pop\n        /* \"#utility.yul\":8311:8371   */\n      tag_198\n        /* \"#utility.yul\":8364:8370   */\n      dup4\n        /* \"#utility.yul\":8311:8371   */\n      tag_62\n      jump\t// in\n    tag_198:\n        /* \"#utility.yul\":8301:8371   */\n      swap3\n      pop\n        /* \"#utility.yul\":8157:8381   */\n      pop\n        /* \"#utility.yul\":8144:8145   */\n      0x01\n        /* \"#utility.yul\":8141:8142   */\n      dup2\n        /* \"#utility.yul\":8137:8146   */\n      add\n        /* \"#utility.yul\":8132:8146   */\n      swap1\n      pop\n        /* \"#utility.yul\":8097:8381   */\n      jump(tag_194)\n    tag_196:\n        /* \"#utility.yul\":8101:8115   */\n      pop\n        /* \"#utility.yul\":8397:8400   */\n      dup6\n        /* \"#utility.yul\":8390:8400   */\n      swap4\n      pop\n        /* \"#utility.yul\":7798:8406   */\n      pop\n      pop\n      pop\n        /* \"#utility.yul\":7674:8406   */\n      swap3\n      swap2\n      pop\n      pop\n      jump\t// out\n        /* \"#utility.yul\":8412:8511   */\n    tag_64:\n        /* \"#utility.yul\":8464:8470   */\n      0x00\n        /* \"#utility.yul\":8498:8503   */\n      dup2\n        /* \"#utility.yul\":8492:8504   */\n      mload\n        /* \"#utility.yul\":8482:8504   */\n      swap1\n      pop\n        /* \"#utility.yul\":8412:8511   */\n      swap2\n      swap1\n      pop\n      jump\t// out\n        /* \"#utility.yul\":8517:8676   */\n    tag_65:\n        /* \"#utility.yul\":8591:8602   */\n      0x00\n        /* \"#utility.yul\":8625:8631   */\n      dup3\n        /* \"#utility.yul\":8620:8623   */\n      dup3\n        /* \"#utility.yul\":8613:8632   */\n      mstore\n        /* \"#utility.yul\":8665:8669   */\n      0x20\n        /* \"#utility.yul\":8660:8663   */\n      dup3\n        /* \"#utility.yul\":8656:8670   */\n      add\n        /* \"#utility.yul\":8641:8670   */\n      swap1\n      pop\n        /* \"#utility.yul\":8517:8676   */\n      swap3\n      swap2\n      pop\n      pop\n      jump\t// out\n        /* \"#utility.yul\":8682:9039   */\n    tag_66:\n        /* \"#utility.yul\":8760:8763   */\n      0x00\n        /* \"#utility.yul\":8788:8827   */\n      tag_202\n        /* \"#utility.yul\":8821:8826   */\n      dup3\n        /* \"#utility.yul\":8788:8827   */\n      tag_64\n      jump\t// in\n    tag_202:\n        /* \"#utility.yul\":8843:8904   */\n      tag_203\n        /* \"#utility.yul\":8897:8903   */\n      dup2\n        /* \"#utility.yul\":8892:8895   */\n      dup6\n        /* \"#utility.yul\":8843:8904   */\n      tag_65\n      jump\t// in\n    tag_203:\n        /* \"#utility.yul\":8836:8904   */\n      swap4\n      pop\n        /* \"#utility.yul\":8913:8978   */\n      tag_204\n        /* \"#utility.yul\":8971:8977   */\n      dup2\n        /* \"#utility.yul\":8966:8969   */\n      dup6\n        /* \"#utility.yul\":8959:8963   */\n      0x20\n        /* \"#utility.yul\":8952:8957   */\n      dup7\n        /* \"#utility.yul\":8948:8964   */\n      add\n        /* \"#utility.yul\":8913:8978   */\n      tag_51\n      jump\t// in\n    tag_204:\n        /* \"#utility.yul\":9003:9032   */\n      tag_205\n        /* \"#utility.yul\":9025:9031   */\n      dup2\n        /* \"#utility.yul\":9003:9032   */\n      tag_52\n      jump\t// in\n    tag_205:\n        /* \"#utility.yul\":8998:9001   */\n      dup5\n        /* \"#utility.yul\":8994:9033   */\n      add\n        /* \"#utility.yul\":8987:9033   */\n      swap2\n      pop\n        /* \"#utility.yul\":8764:9039   */\n      pop\n        /* \"#utility.yul\":8682:9039   */\n      swap3\n      swap2\n      pop\n      pop\n      jump\t// out\n        /* \"#utility.yul\":9045:9149   */\n    tag_67:\n        /* \"#utility.yul\":9110:9116   */\n      0x00\n        /* \"#utility.yul\":9138:9142   */\n      0x02\n        /* \"#utility.yul\":9128:9142   */\n      swap1\n      pop\n        /* \"#utility.yul\":9045:9149   */\n      swap2\n      swap1\n      pop\n      jump\t// out\n        /* \"#utility.yul\":9155:9288   */\n    tag_68:\n        /* \"#utility.yul\":9242:9253   */\n      0x00\n        /* \"#utility.yul\":9279:9282   */\n      dup2\n        /* \"#utility.yul\":9264:9282   */\n      swap1\n      pop\n        /* \"#utility.yul\":9155:9288   */\n      swap3\n      swap2\n      pop\n      pop\n      jump\t// out\n        /* \"#utility.yul\":9294:9392   */\n    tag_69:\n        /* \"#utility.yul\":9359:9363   */\n      0x00\n        /* \"#utility.yul\":9382:9385   */\n      dup2\n        /* \"#utility.yul\":9374:9385   */\n      swap1\n      pop\n        /* \"#utility.yul\":9294:9392   */\n      swap2\n      swap1\n      pop\n      jump\t// out\n        /* \"#utility.yul\":9398:9509   */\n    tag_70:\n        /* \"#utility.yul\":9466:9470   */\n      0x00\n        /* \"#utility.yul\":9498:9502   */\n      0x20\n        /* \"#utility.yul\":9493:9496   */\n      dup3\n        /* \"#utility.yul\":9489:9503   */\n      add\n        /* \"#utility.yul\":9481:9503   */\n      swap1\n      pop\n        /* \"#utility.yul\":9398:9509   */\n      swap2\n      swap1\n      pop\n      jump\t// out\n        /* \"#utility.yul\":9547:10221   */\n    tag_71:\n        /* \"#utility.yul\":9673:9725   */\n      tag_211\n        /* \"#utility.yul\":9719:9724   */\n      dup2\n        /* \"#utility.yul\":9673:9725   */\n      tag_67\n      jump\t// in\n    tag_211:\n        /* \"#utility.yul\":9741:9815   */\n      tag_212\n        /* \"#utility.yul\":9808:9814   */\n      dup2\n        /* \"#utility.yul\":9803:9806   */\n      dup5\n        /* \"#utility.yul\":9741:9815   */\n      tag_68\n      jump\t// in\n    tag_212:\n        /* \"#utility.yul\":9734:9815   */\n      swap3\n      pop\n        /* \"#utility.yul\":9839:9893   */\n      tag_213\n        /* \"#utility.yul\":9887:9892   */\n      dup3\n        /* \"#utility.yul\":9839:9893   */\n      tag_69\n      jump\t// in\n    tag_213:\n        /* \"#utility.yul\":9916:9923   */\n      dup1\n        /* \"#utility.yul\":9947:9948   */\n      0x00\n        /* \"#utility.yul\":9932:10214   */\n    tag_214:\n        /* \"#utility.yul\":9957:9963   */\n      dup4\n        /* \"#utility.yul\":9954:9955   */\n      dup2\n        /* \"#utility.yul\":9951:9964   */\n      lt\n        /* \"#utility.yul\":9932:10214   */\n      iszero\n      tag_216\n      jumpi\n        /* \"#utility.yul\":10033:10039   */\n      dup2\n        /* \"#utility.yul\":10027:10040   */\n      mload\n        /* \"#utility.yul\":10060:10123   */\n      tag_217\n        /* \"#utility.yul\":10119:10122   */\n      dup8\n        /* \"#utility.yul\":10104:10117   */\n      dup3\n        /* \"#utility.yul\":10060:10123   */\n      tag_61\n      jump\t// in\n    tag_217:\n        /* \"#utility.yul\":10053:10123   */\n      swap7\n      pop\n        /* \"#utility.yul\":10146:10204   */\n      tag_218\n        /* \"#utility.yul\":10197:10203   */\n      dup4\n        /* \"#utility.yul\":10146:10204   */\n      tag_70\n      jump\t// in\n    tag_218:\n        /* \"#utility.yul\":10136:10204   */\n      swap3\n      pop\n        /* \"#utility.yul\":9992:10214   */\n      pop\n        /* \"#utility.yul\":9979:9980   */\n      0x01\n        /* \"#utility.yul\":9976:9977   */\n      dup2\n        /* \"#utility.yul\":9972:9981   */\n      add\n        /* \"#utility.yul\":9967:9981   */\n      swap1\n      pop\n        /* \"#utility.yul\":9932:10214   */\n      jump(tag_214)\n    tag_216:\n        /* \"#utility.yul\":9936:9950   */\n      pop\n        /* \"#utility.yul\":9649:10221   */\n      pop\n      pop\n      pop\n        /* \"#utility.yul\":9547:10221   */\n      pop\n      pop\n      jump\t// out\n        /* \"#utility.yul\":10289:10937   */\n    tag_72:\n        /* \"#utility.yul\":10404:10407   */\n      0x00\n        /* \"#utility.yul\":10440:10444   */\n      0x60\n        /* \"#utility.yul\":10435:10438   */\n      dup4\n        /* \"#utility.yul\":10431:10445   */\n      add\n        /* \"#utility.yul\":10527:10531   */\n      0x00\n        /* \"#utility.yul\":10520:10525   */\n      dup4\n        /* \"#utility.yul\":10516:10532   */\n      add\n        /* \"#utility.yul\":10510:10533   */\n      mload\n        /* \"#utility.yul\":10580:10583   */\n      dup5\n        /* \"#utility.yul\":10574:10578   */\n      dup3\n        /* \"#utility.yul\":10570:10584   */\n      sub\n        /* \"#utility.yul\":10563:10567   */\n      0x00\n        /* \"#utility.yul\":10558:10561   */\n      dup7\n        /* \"#utility.yul\":10554:10568   */\n      add\n        /* \"#utility.yul\":10547:10585   */\n      mstore\n        /* \"#utility.yul\":10606:10679   */\n      tag_220\n        /* \"#utility.yul\":10674:10678   */\n      dup3\n        /* \"#utility.yul\":10660:10672   */\n      dup3\n        /* \"#utility.yul\":10606:10679   */\n      tag_66\n      jump\t// in\n    tag_220:\n        /* \"#utility.yul\":10598:10679   */\n      swap2\n      pop\n        /* \"#utility.yul\":10455:10690   */\n      pop\n        /* \"#utility.yul\":10772:10776   */\n      0x20\n        /* \"#utility.yul\":10765:10770   */\n      dup4\n        /* \"#utility.yul\":10761:10777   */\n      add\n        /* \"#utility.yul\":10755:10778   */\n      mload\n        /* \"#utility.yul\":10791:10900   */\n      tag_221\n        /* \"#utility.yul\":10894:10898   */\n      0x20\n        /* \"#utility.yul\":10889:10892   */\n      dup7\n        /* \"#utility.yul\":10885:10899   */\n      add\n        /* \"#utility.yul\":10871:10883   */\n      dup3\n        /* \"#utility.yul\":10791:10900   */\n      tag_71\n      jump\t// in\n    tag_221:\n        /* \"#utility.yul\":10700:10910   */\n      pop\n        /* \"#utility.yul\":10927:10931   */\n      dup1\n        /* \"#utility.yul\":10920:10931   */\n      swap2\n      pop\n        /* \"#utility.yul\":10409:10937   */\n      pop\n        /* \"#utility.yul\":10289:10937   */\n      swap3\n      swap2\n      pop\n      pop\n      jump\t// out\n        /* \"#utility.yul\":10943:11790   */\n    tag_21:\n        /* \"#utility.yul\":11216:11220   */\n      0x00\n        /* \"#utility.yul\":11254:11257   */\n      0x80\n        /* \"#utility.yul\":11243:11252   */\n      dup3\n        /* \"#utility.yul\":11239:11258   */\n      add\n        /* \"#utility.yul\":11231:11258   */\n      swap1\n      pop\n        /* \"#utility.yul\":11268:11339   */\n      tag_223\n        /* \"#utility.yul\":11336:11337   */\n      0x00\n        /* \"#utility.yul\":11325:11334   */\n      dup4\n        /* \"#utility.yul\":11321:11338   */\n      add\n        /* \"#utility.yul\":11312:11318   */\n      dup8\n        /* \"#utility.yul\":11268:11339   */\n      tag_55\n      jump\t// in\n    tag_223:\n        /* \"#utility.yul\":11349:11421   */\n      tag_224\n        /* \"#utility.yul\":11417:11419   */\n      0x20\n        /* \"#utility.yul\":11406:11415   */\n      dup4\n        /* \"#utility.yul\":11402:11420   */\n      add\n        /* \"#utility.yul\":11393:11399   */\n      dup7\n        /* \"#utility.yul\":11349:11421   */\n      tag_56\n      jump\t// in\n    tag_224:\n        /* \"#utility.yul\":11468:11477   */\n      dup2\n        /* \"#utility.yul\":11462:11466   */\n      dup2\n        /* \"#utility.yul\":11458:11478   */\n      sub\n        /* \"#utility.yul\":11453:11455   */\n      0x40\n        /* \"#utility.yul\":11442:11451   */\n      dup4\n        /* \"#utility.yul\":11438:11456   */\n      add\n        /* \"#utility.yul\":11431:11479   */\n      mstore\n        /* \"#utility.yul\":11496:11604   */\n      tag_225\n        /* \"#utility.yul\":11599:11603   */\n      dup2\n        /* \"#utility.yul\":11590:11596   */\n      dup6\n        /* \"#utility.yul\":11496:11604   */\n      tag_63\n      jump\t// in\n    tag_225:\n        /* \"#utility.yul\":11488:11604   */\n      swap1\n      pop\n        /* \"#utility.yul\":11651:11660   */\n      dup2\n        /* \"#utility.yul\":11645:11649   */\n      dup2\n        /* \"#utility.yul\":11641:11661   */\n      sub\n        /* \"#utility.yul\":11636:11638   */\n      0x60\n        /* \"#utility.yul\":11625:11634   */\n      dup4\n        /* \"#utility.yul\":11621:11639   */\n      add\n        /* \"#utility.yul\":11614:11662   */\n      mstore\n        /* \"#utility.yul\":11679:11783   */\n      tag_226\n        /* \"#utility.yul\":11778:11782   */\n      dup2\n        /* \"#utility.yul\":11769:11775   */\n      dup5\n        /* \"#utility.yul\":11679:11783   */\n      tag_72\n      jump\t// in\n    tag_226:\n        /* \"#utility.yul\":11671:11783   */\n      swap1\n      pop\n        /* \"#utility.yul\":10943:11790   */\n      swap6\n      swap5\n      pop\n      pop\n      pop\n      pop\n      pop\n      jump\t// out\n        /* \"#utility.yul\":11796:11913   */\n    tag_73:\n        /* \"#utility.yul\":11905:11906   */\n      0x00\n        /* \"#utility.yul\":11902:11903   */\n      dup1\n        /* \"#utility.yul\":11895:11907   */\n      revert\n        /* \"#utility.yul\":11919:12017   */\n    tag_74:\n        /* \"#utility.yul\":12003:12009   */\n      dup3\n        /* \"#utility.yul\":11998:12001   */\n      dup2\n        /* \"#utility.yul\":11993:11996   */\n      dup4\n        /* \"#utility.yul\":11980:12010   */\n      calldatacopy\n        /* \"#utility.yul\":11919:12017   */\n      pop\n      pop\n      pop\n      jump\t// out\n        /* \"#utility.yul\":12053:12590   */\n    tag_75:\n        /* \"#utility.yul\":12181:12184   */\n      0x00\n        /* \"#utility.yul\":12202:12288   */\n      tag_230\n        /* \"#utility.yul\":12281:12287   */\n      dup4\n        /* \"#utility.yul\":12276:12279   */\n      dup6\n        /* \"#utility.yul\":12202:12288   */\n      tag_58\n      jump\t// in\n    tag_230:\n        /* \"#utility.yul\":12195:12288   */\n      swap4\n      pop\n        /* \"#utility.yul\":12312:12378   */\n      0x07ffffffffffffffffffffffffffffffffffffffffffffffffffffffffffffff\n        /* \"#utility.yul\":12304:12310   */\n      dup4\n        /* \"#utility.yul\":12301:12379   */\n      gt\n        /* \"#utility.yul\":12298:12463   */\n      iszero\n      tag_231\n      jumpi\n        /* \"#utility.yul\":12382:12461   */\n      tag_232\n      tag_73\n      jump\t// in\n    tag_232:\n        /* \"#utility.yul\":12298:12463   */\n    tag_231:\n        /* \"#utility.yul\":12494:12498   */\n      0x20\n        /* \"#utility.yul\":12486:12492   */\n      dup4\n        /* \"#utility.yul\":12482:12499   */\n      mul\n        /* \"#utility.yul\":12472:12499   */\n      swap3\n      pop\n        /* \"#utility.yul\":12509:12552   */\n      tag_233\n        /* \"#utility.yul\":12545:12551   */\n      dup4\n        /* \"#utility.yul\":12540:12543   */\n      dup6\n        /* \"#utility.yul\":12533:12538   */\n      dup5\n        /* \"#utility.yul\":12509:12552   */\n      tag_74\n      jump\t// in\n    tag_233:\n        /* \"#utility.yul\":12577:12583   */\n      dup3\n        /* \"#utility.yul\":12572:12575   */\n      dup5\n        /* \"#utility.yul\":12568:12584   */\n      add\n        /* \"#utility.yul\":12561:12584   */\n      swap1\n      pop\n        /* \"#utility.yul\":12053:12590   */\n      swap4\n      swap3\n      pop\n      pop\n      pop\n      jump\t// out\n        /* \"#utility.yul\":12596:12713   */\n    tag_76:\n        /* \"#utility.yul\":12705:12706   */\n      0x00\n        /* \"#utility.yul\":12702:12703   */\n      dup1\n        /* \"#utility.yul\":12695:12707   */\n      revert\n        /* \"#utility.yul\":12719:12836   */\n    tag_77:\n        /* \"#utility.yul\":12828:12829   */\n      0x00\n        /* \"#utility.yul\":12825:12826   */\n      dup1\n        /* \"#utility.yul\":12818:12830   */\n      revert\n        /* \"#utility.yul\":12842:12959   */\n    tag_78:\n        /* \"#utility.yul\":12951:12952   */\n      0x00\n        /* \"#utility.yul\":12948:12949   */\n      dup1\n        /* \"#utility.yul\":12941:12953   */\n      revert\n        /* \"#utility.yul\":12965:13677   */\n    tag_79:\n        /* \"#utility.yul\":13030:13035   */\n      0x00\n        /* \"#utility.yul\":13037:13043   */\n      dup1\n        /* \"#utility.yul\":13093:13096   */\n      dup4\n        /* \"#utility.yul\":13080:13097   */\n      calldataload\n        /* \"#utility.yul\":13185:13186   */\n      0x01\n        /* \"#utility.yul\":13179:13183   */\n      0x20\n        /* \"#utility.yul\":13175:13187   */\n      sub\n        /* \"#utility.yul\":13164:13172   */\n      dup5\n        /* \"#utility.yul\":13148:13162   */\n      calldatasize\n        /* \"#utility.yul\":13144:13173   */\n      sub\n        /* \"#utility.yul\":13140:13188   */\n      sub\n        /* \"#utility.yul\":13120:13138   */\n      dup2\n        /* \"#utility.yul\":13116:13189   */\n      slt\n        /* \"#utility.yul\":13106:13274   */\n      tag_238\n      jumpi\n        /* \"#utility.yul\":13193:13272   */\n      tag_239\n      tag_78\n      jump\t// in\n    tag_239:\n        /* \"#utility.yul\":13106:13274   */\n    tag_238:\n        /* \"#utility.yul\":13316:13324   */\n      dup4\n        /* \"#utility.yul\":13296:13314   */\n      dup2\n        /* \"#utility.yul\":13292:13325   */\n      add\n        /* \"#utility.yul\":13283:13325   */\n      swap3\n      pop\n        /* \"#utility.yul\":13358:13363   */\n      dup3\n        /* \"#utility.yul\":13345:13364   */\n      calldataload\n        /* \"#utility.yul\":13335:13364   */\n      swap2\n      pop\n        /* \"#utility.yul\":13393:13397   */\n      0x20\n        /* \"#utility.yul\":13386:13391   */\n      dup4\n        /* \"#utility.yul\":13382:13398   */\n      add\n        /* \"#utility.yul\":13373:13398   */\n      swap3\n      pop\n        /* \"#utility.yul\":13421:13439   */\n      0xffffffffffffffff\n        /* \"#utility.yul\":13413:13419   */\n      dup3\n        /* \"#utility.yul\":13410:13440   */\n      gt\n        /* \"#utility.yul\":13407:13524   */\n      iszero\n      tag_240\n      jumpi\n        /* \"#utility.yul\":13443:13522   */\n      tag_241\n      tag_76\n      jump\t// in\n    tag_241:\n        /* \"#utility.yul\":13407:13524   */\n    tag_240:\n        /* \"#utility.yul\":13579:13583   */\n      0x01\n        /* \"#utility.yul\":13571:13577   */\n      dup3\n        /* \"#utility.yul\":13567:13584   */\n      mul\n        /* \"#utility.yul\":13551:13565   */\n      calldatasize\n        /* \"#utility.yul\":13547:13585   */\n      sub\n        /* \"#utility.yul\":13540:13545   */\n      dup4\n        /* \"#utility.yul\":13536:13586   */\n      sgt\n        /* \"#utility.yul\":13533:13670   */\n      iszero\n      tag_242\n      jumpi\n        /* \"#utility.yul\":13589:13668   */\n      tag_243\n      tag_77\n      jump\t// in\n    tag_243:\n        /* \"#utility.yul\":13533:13670   */\n    tag_242:\n        /* \"#utility.yul\":13044:13677   */\n      pop\n        /* \"#utility.yul\":12965:13677   */\n      swap3\n      pop\n      swap3\n      swap1\n      pop\n      jump\t// out\n        /* \"#utility.yul\":13683:13829   */\n    tag_80:\n        /* \"#utility.yul\":13780:13786   */\n      dup3\n        /* \"#utility.yul\":13775:13778   */\n      dup2\n        /* \"#utility.yul\":13770:13773   */\n      dup4\n        /* \"#utility.yul\":13757:13787   */\n      calldatacopy\n        /* \"#utility.yul\":13821:13822   */\n      0x00\n        /* \"#utility.yul\":13812:13818   */\n      dup4\n        /* \"#utility.yul\":13807:13810   */\n      dup4\n        /* \"#utility.yul\":13803:13819   */\n      add\n        /* \"#utility.yul\":13796:13823   */\n      mstore\n        /* \"#utility.yul\":13683:13829   */\n      pop\n      pop\n      pop\n      jump\t// out\n        /* \"#utility.yul\":13859:14156   */\n    tag_81:\n        /* \"#utility.yul\":13947:13950   */\n      0x00\n        /* \"#utility.yul\":13968:14029   */\n      tag_246\n        /* \"#utility.yul\":14022:14028   */\n      dup4\n        /* \"#utility.yul\":14017:14020   */\n      dup6\n        /* \"#utility.yul\":13968:14029   */\n      tag_65\n      jump\t// in\n    tag_246:\n        /* \"#utility.yul\":13961:14029   */\n      swap4\n      pop\n        /* \"#utility.yul\":14039:14095   */\n      tag_247\n        /* \"#utility.yul\":14088:14094   */\n      dup4\n        /* \"#utility.yul\":14083:14086   */\n      dup6\n        /* \"#utility.yul\":14076:14081   */\n      dup5\n        /* \"#utility.yul\":14039:14095   */\n      tag_80\n      jump\t// in\n    tag_247:\n        /* \"#utility.yul\":14120:14149   */\n      tag_248\n        /* \"#utility.yul\":14142:14148   */\n      dup4\n        /* \"#utility.yul\":14120:14149   */\n      tag_52\n      jump\t// in\n    tag_248:\n        /* \"#utility.yul\":14115:14118   */\n      dup5\n        /* \"#utility.yul\":14111:14150   */\n      add\n        /* \"#utility.yul\":14104:14150   */\n      swap1\n      pop\n        /* \"#utility.yul\":13859:14156   */\n      swap4\n      swap3\n      pop\n      pop\n      pop\n      jump\t// out\n        /* \"#utility.yul\":14162:14273   */\n    tag_82:\n        /* \"#utility.yul\":14239:14244   */\n      0x00\n        /* \"#utility.yul\":14264:14267   */\n      dup3\n        /* \"#utility.yul\":14255:14267   */\n      swap1\n      pop\n        /* \"#utility.yul\":14162:14273   */\n      swap3\n      swap2\n      pop\n      pop\n      jump\t// out\n        /* \"#utility.yul\":14311:14471   */\n    tag_83:\n        /* \"#utility.yul\":14424:14465   */\n      tag_251\n        /* \"#utility.yul\":14460:14464   */\n      0x40\n        /* \"#utility.yul\":14455:14458   */\n      dup4\n        /* \"#utility.yul\":14448:14453   */\n      dup4\n        /* \"#utility.yul\":14424:14465   */\n      tag_74\n      jump\t// in\n    tag_251:\n        /* \"#utility.yul\":14311:14471   */\n      pop\n      pop\n      jump\t// out\n        /* \"#utility.yul\":14539:15312   */\n    tag_84:\n        /* \"#utility.yul\":14656:14659   */\n      0x00\n        /* \"#utility.yul\":14692:14696   */\n      0x60\n        /* \"#utility.yul\":14687:14690   */\n      dup4\n        /* \"#utility.yul\":14683:14697   */\n      add\n        /* \"#utility.yul\":14776:14838   */\n      tag_253\n        /* \"#utility.yul\":14832:14836   */\n      0x00\n        /* \"#utility.yul\":14825:14830   */\n      dup5\n        /* \"#utility.yul\":14821:14837   */\n      add\n        /* \"#utility.yul\":14814:14819   */\n      dup5\n        /* \"#utility.yul\":14776:14838   */\n      tag_79\n      jump\t// in\n    tag_253:\n        /* \"#utility.yul\":14885:14888   */\n      dup6\n        /* \"#utility.yul\":14879:14883   */\n      dup4\n        /* \"#utility.yul\":14875:14889   */\n      sub\n        /* \"#utility.yul\":14868:14872   */\n      0x00\n        /* \"#utility.yul\":14863:14866   */\n      dup8\n        /* \"#utility.yul\":14859:14873   */\n      add\n        /* \"#utility.yul\":14852:14890   */\n      mstore\n        /* \"#utility.yul\":14911:15000   */\n      tag_254\n        /* \"#utility.yul\":14995:14999   */\n      dup4\n        /* \"#utility.yul\":14981:14993   */\n      dup3\n        /* \"#utility.yul\":14967:14979   */\n      dup5\n        /* \"#utility.yul\":14911:15000   */\n      tag_81\n      jump\t// in\n    tag_254:\n        /* \"#utility.yul\":14903:15000   */\n      swap3\n      pop\n        /* \"#utility.yul\":14707:15011   */\n      pop\n      pop\n        /* \"#utility.yul\":15076:15151   */\n      tag_255\n        /* \"#utility.yul\":15145:15149   */\n      0x20\n        /* \"#utility.yul\":15138:15143   */\n      dup5\n        /* \"#utility.yul\":15134:15150   */\n      add\n        /* \"#utility.yul\":15127:15132   */\n      dup5\n        /* \"#utility.yul\":15076:15151   */\n      tag_82\n      jump\t// in\n    tag_255:\n        /* \"#utility.yul\":15164:15275   */\n      tag_256\n        /* \"#utility.yul\":15269:15273   */\n      0x20\n        /* \"#utility.yul\":15264:15267   */\n      dup7\n        /* \"#utility.yul\":15260:15274   */\n      add\n        /* \"#utility.yul\":15246:15258   */\n      dup3\n        /* \"#utility.yul\":15164:15275   */\n      tag_83\n      jump\t// in\n    tag_256:\n        /* \"#utility.yul\":15021:15285   */\n      pop\n        /* \"#utility.yul\":15302:15306   */\n      dup1\n        /* \"#utility.yul\":15295:15306   */\n      swap2\n      pop\n        /* \"#utility.yul\":14661:15312   */\n      pop\n        /* \"#utility.yul\":14539:15312   */\n      swap3\n      swap2\n      pop\n      pop\n      jump\t// out\n        /* \"#utility.yul\":15318:16189   */\n    tag_25:\n        /* \"#utility.yul\":15603:15607   */\n      0x00\n        /* \"#utility.yul\":15641:15644   */\n      0x80\n        /* \"#utility.yul\":15630:15639   */\n      dup3\n        /* \"#utility.yul\":15626:15645   */\n      add\n        /* \"#utility.yul\":15618:15645   */\n      swap1\n      pop\n        /* \"#utility.yul\":15655:15726   */\n      tag_258\n        /* \"#utility.yul\":15723:15724   */\n      0x00\n        /* \"#utility.yul\":15712:15721   */\n      dup4\n        /* \"#utility.yul\":15708:15725   */\n      add\n        /* \"#utility.yul\":15699:15705   */\n      dup9\n        /* \"#utility.yul\":15655:15726   */\n      tag_55\n      jump\t// in\n    tag_258:\n        /* \"#utility.yul\":15736:15808   */\n      tag_259\n        /* \"#utility.yul\":15804:15806   */\n      0x20\n        /* \"#utility.yul\":15793:15802   */\n      dup4\n        /* \"#utility.yul\":15789:15807   */\n      add\n        /* \"#utility.yul\":15780:15786   */\n      dup8\n        /* \"#utility.yul\":15736:15808   */\n      tag_56\n      jump\t// in\n    tag_259:\n        /* \"#utility.yul\":15855:15864   */\n      dup2\n        /* \"#utility.yul\":15849:15853   */\n      dup2\n        /* \"#utility.yul\":15845:15865   */\n      sub\n        /* \"#utility.yul\":15840:15842   */\n      0x40\n        /* \"#utility.yul\":15829:15838   */\n      dup4\n        /* \"#utility.yul\":15825:15843   */\n      add\n        /* \"#utility.yul\":15818:15866   */\n      mstore\n        /* \"#utility.yul\":15883:16001   */\n      tag_260\n        /* \"#utility.yul\":15996:16000   */\n      dup2\n        /* \"#utility.yul\":15987:15993   */\n      dup6\n        /* \"#utility.yul\":15979:15985   */\n      dup8\n        /* \"#utility.yul\":15883:16001   */\n      tag_75\n      jump\t// in\n    tag_260:\n        /* \"#utility.yul\":15875:16001   */\n      swap1\n      pop\n        /* \"#utility.yul\":16048:16057   */\n      dup2\n        /* \"#utility.yul\":16042:16046   */\n      dup2\n        /* \"#utility.yul\":16038:16058   */\n      sub\n        /* \"#utility.yul\":16033:16035   */\n      0x60\n        /* \"#utility.yul\":16022:16031   */\n      dup4\n        /* \"#utility.yul\":16018:16036   */\n      add\n        /* \"#utility.yul\":16011:16059   */\n      mstore\n        /* \"#utility.yul\":16076:16182   */\n      tag_261\n        /* \"#utility.yul\":16177:16181   */\n      dup2\n        /* \"#utility.yul\":16168:16174   */\n      dup5\n        /* \"#utility.yul\":16076:16182   */\n      tag_84\n      jump\t// in\n    tag_261:\n        /* \"#utility.yul\":16068:16182   */\n      swap1\n      pop\n        /* \"#utility.yul\":15318:16189   */\n      swap7\n      swap6\n      pop\n      pop\n      pop\n      pop\n      pop\n      pop\n      jump\t// out\n        /* \"#utility.yul\":16195:16299   */\n    tag_85:\n        /* \"#utility.yul\":16240:16247   */\n      0x00\n        /* \"#utility.yul\":16269:16293   */\n      tag_263\n        /* \"#utility.yul\":16287:16292   */\n      dup3\n        /* \"#utility.yul\":16269:16293   */\n      tag_36\n      jump\t// in\n    tag_263:\n        /* \"#utility.yul\":16258:16293   */\n      swap1\n      pop\n        /* \"#utility.yul\":16195:16299   */\n      swap2\n      swap1\n      pop\n      jump\t// out\n        /* \"#utility.yul\":16305:16443   */\n    tag_86:\n        /* \"#utility.yul\":16386:16418   */\n      tag_265\n        /* \"#utility.yul\":16412:16417   */\n      dup2\n        /* \"#utility.yul\":16386:16418   */\n      tag_85\n      jump\t// in\n    tag_265:\n        /* \"#utility.yul\":16379:16384   */\n      dup2\n        /* \"#utility.yul\":16376:16419   */\n      eq\n        /* \"#utility.yul\":16366:16437   */\n      tag_266\n      jumpi\n        /* \"#utility.yul\":16433:16434   */\n      0x00\n        /* \"#utility.yul\":16430:16431   */\n      dup1\n        /* \"#utility.yul\":16423:16435   */\n      revert\n        /* \"#utility.yul\":16366:16437   */\n    tag_266:\n        /* \"#utility.yul\":16305:16443   */\n      pop\n      jump\t// out\n        /* \"#utility.yul\":16449:16604   */\n    tag_87:\n        /* \"#utility.yul\":16503:16508   */\n      0x00\n        /* \"#utility.yul\":16541:16547   */\n      dup2\n        /* \"#utility.yul\":16528:16548   */\n      calldataload\n        /* \"#utility.yul\":16519:16548   */\n      swap1\n      pop\n        /* \"#utility.yul\":16557:16598   */\n      tag_268\n        /* \"#utility.yul\":16592:16597   */\n      dup2\n        /* \"#utility.yul\":16557:16598   */\n      tag_86\n      jump\t// in\n    tag_268:\n        /* \"#utility.yul\":16449:16604   */\n      swap3\n      swap2\n      pop\n      pop\n      jump\t// out\n        /* \"#utility.yul\":16610:16790   */\n    tag_88:\n        /* \"#utility.yul\":16658:16735   */\n      0x4e487b7100000000000000000000000000000000000000000000000000000000\n        /* \"#utility.yul\":16655:16656   */\n      0x00\n        /* \"#utility.yul\":16648:16736   */\n      mstore\n        /* \"#utility.yul\":16755:16759   */\n      0x41\n        /* \"#utility.yul\":16752:16753   */\n      0x04\n        /* \"#utility.yul\":16745:16760   */\n      mstore\n        /* \"#utility.yul\":16779:16783   */\n      0x24\n        /* \"#utility.yul\":16776:16777   */\n      0x00\n        /* \"#utility.yul\":16769:16784   */\n      revert\n        /* \"#utility.yul\":16796:17077   */\n    tag_89:\n        /* \"#utility.yul\":16879:16906   */\n      tag_271\n        /* \"#utility.yul\":16901:16905   */\n      dup3\n        /* \"#utility.yul\":16879:16906   */\n      tag_52\n      jump\t// in\n    tag_271:\n        /* \"#utility.yul\":16871:16877   */\n      dup2\n        /* \"#utility.yul\":16867:16907   */\n      add\n        /* \"#utility.yul\":17009:17015   */\n      dup2\n        /* \"#utility.yul\":16997:17007   */\n      dup2\n        /* \"#utility.yul\":16994:17016   */\n      lt\n        /* \"#utility.yul\":16973:16991   */\n      0xffffffffffffffff\n        /* \"#utility.yul\":16961:16971   */\n      dup3\n        /* \"#utility.yul\":16958:16992   */\n      gt\n        /* \"#utility.yul\":16955:17017   */\n      or\n        /* \"#utility.yul\":16952:17040   */\n      iszero\n      tag_272\n      jumpi\n        /* \"#utility.yul\":17020:17038   */\n      tag_273\n      tag_88\n      jump\t// in\n    tag_273:\n        /* \"#utility.yul\":16952:17040   */\n    tag_272:\n        /* \"#utility.yul\":17060:17070   */\n      dup1\n        /* \"#utility.yul\":17056:17058   */\n      0x40\n        /* \"#utility.yul\":17049:17071   */\n      mstore\n        /* \"#utility.yul\":16839:17077   */\n      pop\n        /* \"#utility.yul\":16796:17077   */\n      pop\n      pop\n      jump\t// out\n        /* \"#utility.yul\":17083:17212   */\n    tag_90:\n        /* \"#utility.yul\":17117:17123   */\n      0x00\n        /* \"#utility.yul\":17144:17164   */\n      tag_275\n      tag_33\n      jump\t// in\n    tag_275:\n        /* \"#utility.yul\":17134:17164   */\n      swap1\n      pop\n        /* \"#utility.yul\":17173:17206   */\n      tag_276\n        /* \"#utility.yul\":17201:17205   */\n      dup3\n        /* \"#utility.yul\":17193:17199   */\n      dup3\n        /* \"#utility.yul\":17173:17206   */\n      tag_89\n      jump\t// in\n    tag_276:\n        /* \"#utility.yul\":17083:17212   */\n      swap2\n      swap1\n      pop\n      jump\t// out\n        /* \"#utility.yul\":17218:17529   */\n    tag_91:\n        /* \"#utility.yul\":17295:17299   */\n      0x00\n        /* \"#utility.yul\":17385:17403   */\n      0xffffffffffffffff\n        /* \"#utility.yul\":17377:17383   */\n      dup3\n        /* \"#utility.yul\":17374:17404   */\n      gt\n        /* \"#utility.yul\":17371:17427   */\n      iszero\n      tag_278\n      jumpi\n        /* \"#utility.yul\":17407:17425   */\n      tag_279\n      tag_88\n      jump\t// in\n    tag_279:\n        /* \"#utility.yul\":17371:17427   */\n    tag_278:\n        /* \"#utility.yul\":17457:17461   */\n      0x20\n        /* \"#utility.yul\":17449:17455   */\n      dup3\n        /* \"#utility.yul\":17445:17462   */\n      mul\n        /* \"#utility.yul\":17437:17462   */\n      swap1\n      pop\n        /* \"#utility.yul\":17517:17521   */\n      0x20\n        /* \"#utility.yul\":17511:17515   */\n      dup2\n        /* \"#utility.yul\":17507:17522   */\n      add\n        /* \"#utility.yul\":17499:17522   */\n      swap1\n      pop\n        /* \"#utility.yul\":17218:17529   */\n      swap2\n      swap1\n      pop\n      jump\t// out\n        /* \"#utility.yul\":17552:18262   */\n    tag_92:\n        /* \"#utility.yul\":17648:17653   */\n      0x00\n        /* \"#utility.yul\":17673:17754   */\n      tag_281\n        /* \"#utility.yul\":17689:17753   */\n      tag_282\n        /* \"#utility.yul\":17746:17752   */\n      dup5\n        /* \"#utility.yul\":17689:17753   */\n      tag_91\n      jump\t// in\n    tag_282:\n        /* \"#utility.yul\":17673:17754   */\n      tag_90\n      jump\t// in\n    tag_281:\n        /* \"#utility.yul\":17664:17754   */\n      swap1\n      pop\n        /* \"#utility.yul\":17774:17779   */\n      dup1\n        /* \"#utility.yul\":17803:17809   */\n      dup4\n        /* \"#utility.yul\":17796:17801   */\n      dup3\n        /* \"#utility.yul\":17789:17810   */\n      mstore\n        /* \"#utility.yul\":17837:17841   */\n      0x20\n        /* \"#utility.yul\":17830:17835   */\n      dup3\n        /* \"#utility.yul\":17826:17842   */\n      add\n        /* \"#utility.yul\":17819:17842   */\n      swap1\n      pop\n        /* \"#utility.yul\":17890:17894   */\n      0x20\n        /* \"#utility.yul\":17882:17888   */\n      dup5\n        /* \"#utility.yul\":17878:17895   */\n      mul\n        /* \"#utility.yul\":17870:17876   */\n      dup4\n        /* \"#utility.yul\":17866:17896   */\n      add\n        /* \"#utility.yul\":17919:17922   */\n      dup6\n        /* \"#utility.yul\":17911:17917   */\n      dup2\n        /* \"#utility.yul\":17908:17923   */\n      gt\n        /* \"#utility.yul\":17905:18027   */\n      iszero\n      tag_283\n      jumpi\n        /* \"#utility.yul\":17938:18017   */\n      tag_284\n      tag_45\n      jump\t// in\n    tag_284:\n        /* \"#utility.yul\":17905:18027   */\n    tag_283:\n        /* \"#utility.yul\":18053:18059   */\n      dup4\n        /* \"#utility.yul\":18036:18256   */\n    tag_285:\n        /* \"#utility.yul\":18070:18076   */\n      dup2\n        /* \"#utility.yul\":18065:18068   */\n      dup2\n        /* \"#utility.yul\":18062:18077   */\n      lt\n        /* \"#utility.yul\":18036:18256   */\n      iszero\n      tag_287\n      jumpi\n        /* \"#utility.yul\":18145:18148   */\n      dup1\n        /* \"#utility.yul\":18174:18211   */\n      tag_288\n        /* \"#utility.yul\":18207:18210   */\n      dup9\n        /* \"#utility.yul\":18195:18205   */\n      dup3\n        /* \"#utility.yul\":18174:18211   */\n      tag_42\n      jump\t// in\n    tag_288:\n        /* \"#utility.yul\":18169:18172   */\n      dup5\n        /* \"#utility.yul\":18162:18212   */\n      mstore\n        /* \"#utility.yul\":18241:18245   */\n      0x20\n        /* \"#utility.yul\":18236:18239   */\n      dup5\n        /* \"#utility.yul\":18232:18246   */\n      add\n        /* \"#utility.yul\":18225:18246   */\n      swap4\n      pop\n        /* \"#utility.yul\":18112:18256   */\n      pop\n        /* \"#utility.yul\":18096:18100   */\n      0x20\n        /* \"#utility.yul\":18091:18094   */\n      dup2\n        /* \"#utility.yul\":18087:18101   */\n      add\n        /* \"#utility.yul\":18080:18101   */\n      swap1\n      pop\n        /* \"#utility.yul\":18036:18256   */\n      jump(tag_285)\n    tag_287:\n        /* \"#utility.yul\":18040:18061   */\n      pop\n        /* \"#utility.yul\":17654:18262   */\n      pop\n      pop\n        /* \"#utility.yul\":17552:18262   */\n      swap4\n      swap3\n      pop\n      pop\n      pop\n      jump\t// out\n        /* \"#utility.yul\":18285:18655   */\n    tag_93:\n        /* \"#utility.yul\":18356:18361   */\n      0x00\n        /* \"#utility.yul\":18405:18408   */\n      dup3\n        /* \"#utility.yul\":18398:18402   */\n      0x1f\n        /* \"#utility.yul\":18390:18396   */\n      dup4\n        /* \"#utility.yul\":18386:18403   */\n      add\n        /* \"#utility.yul\":18382:18409   */\n      slt\n        /* \"#utility.yul\":18372:18494   */\n      tag_290\n      jumpi\n        /* \"#utility.yul\":18413:18492   */\n      tag_291\n      tag_43\n      jump\t// in\n    tag_291:\n        /* \"#utility.yul\":18372:18494   */\n    tag_290:\n        /* \"#utility.yul\":18530:18536   */\n      dup2\n        /* \"#utility.yul\":18517:18537   */\n      calldataload\n        /* \"#utility.yul\":18555:18649   */\n      tag_292\n        /* \"#utility.yul\":18645:18648   */\n      dup5\n        /* \"#utility.yul\":18637:18643   */\n      dup3\n        /* \"#utility.yul\":18630:18634   */\n      0x20\n        /* \"#utility.yul\":18622:18628   */\n      dup7\n        /* \"#utility.yul\":18618:18635   */\n      add\n        /* \"#utility.yul\":18555:18649   */\n      tag_92\n      jump\t// in\n    tag_292:\n        /* \"#utility.yul\":18546:18649   */\n      swap2\n      pop\n        /* \"#utility.yul\":18362:18655   */\n      pop\n        /* \"#utility.yul\":18285:18655   */\n      swap3\n      swap2\n      pop\n      pop\n      jump\t// out\n        /* \"#utility.yul\":18661:18778   */\n    tag_94:\n        /* \"#utility.yul\":18770:18771   */\n      0x00\n        /* \"#utility.yul\":18767:18768   */\n      dup1\n        /* \"#utility.yul\":18760:18772   */\n      revert\n        /* \"#utility.yul\":18784:18901   */\n    tag_95:\n        /* \"#utility.yul\":18893:18894   */\n      0x00\n        /* \"#utility.yul\":18890:18891   */\n      dup1\n        /* \"#utility.yul\":18883:18895   */\n      revert\n        /* \"#utility.yul\":18907:19024   */\n    tag_96:\n        /* \"#utility.yul\":19016:19017   */\n      0x00\n        /* \"#utility.yul\":19013:19014   */\n      dup1\n        /* \"#utility.yul\":19006:19018   */\n      revert\n        /* \"#utility.yul\":19030:19338   */\n    tag_97:\n        /* \"#utility.yul\":19092:19096   */\n      0x00\n        /* \"#utility.yul\":19182:19200   */\n      0xffffffffffffffff\n        /* \"#utility.yul\":19174:19180   */\n      dup3\n        /* \"#utility.yul\":19171:19201   */\n      gt\n        /* \"#utility.yul\":19168:19224   */\n      iszero\n      tag_297\n      jumpi\n        /* \"#utility.yul\":19204:19222   */\n      tag_298\n      tag_88\n      jump\t// in\n    tag_298:\n        /* \"#utility.yul\":19168:19224   */\n    tag_297:\n        /* \"#utility.yul\":19242:19271   */\n      tag_299\n        /* \"#utility.yul\":19264:19270   */\n      dup3\n        /* \"#utility.yul\":19242:19271   */\n      tag_52\n      jump\t// in\n    tag_299:\n        /* \"#utility.yul\":19234:19271   */\n      swap1\n      pop\n        /* \"#utility.yul\":19326:19330   */\n      0x20\n        /* \"#utility.yul\":19320:19324   */\n      dup2\n        /* \"#utility.yul\":19316:19331   */\n      add\n        /* \"#utility.yul\":19308:19331   */\n      swap1\n      pop\n        /* \"#utility.yul\":19030:19338   */\n      swap2\n      swap1\n      pop\n      jump\t// out\n        /* \"#utility.yul\":19344:19769   */\n    tag_98:\n        /* \"#utility.yul\":19422:19427   */\n      0x00\n        /* \"#utility.yul\":19447:19513   */\n      tag_301\n        /* \"#utility.yul\":19463:19512   */\n      tag_302\n        /* \"#utility.yul\":19505:19511   */\n      dup5\n        /* \"#utility.yul\":19463:19512   */\n      tag_97\n      jump\t// in\n    tag_302:\n        /* \"#utility.yul\":19447:19513   */\n      tag_90\n      jump\t// in\n    tag_301:\n        /* \"#utility.yul\":19438:19513   */\n      swap1\n      pop\n        /* \"#utility.yul\":19536:19542   */\n      dup3\n        /* \"#utility.yul\":19529:19534   */\n      dup2\n        /* \"#utility.yul\":19522:19543   */\n      mstore\n        /* \"#utility.yul\":19574:19578   */\n      0x20\n        /* \"#utility.yul\":19567:19572   */\n      dup2\n        /* \"#utility.yul\":19563:19579   */\n      add\n        /* \"#utility.yul\":19612:19615   */\n      dup5\n        /* \"#utility.yul\":19603:19609   */\n      dup5\n        /* \"#utility.yul\":19598:19601   */\n      dup5\n        /* \"#utility.yul\":19594:19610   */\n      add\n        /* \"#utility.yul\":19591:19616   */\n      gt\n        /* \"#utility.yul\":19588:19700   */\n      iszero\n      tag_303\n      jumpi\n        /* \"#utility.yul\":19619:19698   */\n      tag_304\n      tag_96\n      jump\t// in\n    tag_304:\n        /* \"#utility.yul\":19588:19700   */\n    tag_303:\n        /* \"#utility.yul\":19709:19763   */\n      tag_305\n        /* \"#utility.yul\":19756:19762   */\n      dup5\n        /* \"#utility.yul\":19751:19754   */\n      dup3\n        /* \"#utility.yul\":19746:19749   */\n      dup6\n        /* \"#utility.yul\":19709:19763   */\n      tag_80\n      jump\t// in\n    tag_305:\n        /* \"#utility.yul\":19428:19769   */\n      pop\n        /* \"#utility.yul\":19344:19769   */\n      swap4\n      swap3\n      pop\n      pop\n      pop\n      jump\t// out\n        /* \"#utility.yul\":19789:20129   */\n    tag_99:\n        /* \"#utility.yul\":19845:19850   */\n      0x00\n        /* \"#utility.yul\":19894:19897   */\n      dup3\n        /* \"#utility.yul\":19887:19891   */\n      0x1f\n        /* \"#utility.yul\":19879:19885   */\n      dup4\n        /* \"#utility.yul\":19875:19892   */\n      add\n        /* \"#utility.yul\":19871:19898   */\n      slt\n        /* \"#utility.yul\":19861:19983   */\n      tag_307\n      jumpi\n        /* \"#utility.yul\":19902:19981   */\n      tag_308\n      tag_43\n      jump\t// in\n    tag_308:\n        /* \"#utility.yul\":19861:19983   */\n    tag_307:\n        /* \"#utility.yul\":20019:20025   */\n      dup2\n        /* \"#utility.yul\":20006:20026   */\n      calldataload\n        /* \"#utility.yul\":20044:20123   */\n      tag_309\n        /* \"#utility.yul\":20119:20122   */\n      dup5\n        /* \"#utility.yul\":20111:20117   */\n      dup3\n        /* \"#utility.yul\":20104:20108   */\n      0x20\n        /* \"#utility.yul\":20096:20102   */\n      dup7\n        /* \"#utility.yul\":20092:20109   */\n      add\n        /* \"#utility.yul\":20044:20123   */\n      tag_98\n      jump\t// in\n    tag_309:\n        /* \"#utility.yul\":20035:20123   */\n      swap2\n      pop\n        /* \"#utility.yul\":19851:20129   */\n      pop\n        /* \"#utility.yul\":19789:20129   */\n      swap3\n      swap2\n      pop\n      pop\n      jump\t// out\n        /* \"#utility.yul\":20135:20384   */\n    tag_100:\n        /* \"#utility.yul\":20210:20214   */\n      0x00\n        /* \"#utility.yul\":20300:20318   */\n      0xffffffffffffffff\n        /* \"#utility.yul\":20292:20298   */\n      dup3\n        /* \"#utility.yul\":20289:20319   */\n      gt\n        /* \"#utility.yul\":20286:20342   */\n      iszero\n      tag_311\n      jumpi\n        /* \"#utility.yul\":20322:20340   */\n      tag_312\n      tag_88\n      jump\t// in\n    tag_312:\n        /* \"#utility.yul\":20286:20342   */\n    tag_311:\n        /* \"#utility.yul\":20372:20376   */\n      0x20\n        /* \"#utility.yul\":20364:20370   */\n      dup3\n        /* \"#utility.yul\":20360:20377   */\n      mul\n        /* \"#utility.yul\":20352:20377   */\n      swap1\n      pop\n        /* \"#utility.yul\":20135:20384   */\n      swap2\n      swap1\n      pop\n      jump\t// out\n        /* \"#utility.yul\":20408:21051   */\n    tag_101:\n        /* \"#utility.yul\":20502:20507   */\n      0x00\n        /* \"#utility.yul\":20527:20606   */\n      tag_314\n        /* \"#utility.yul\":20543:20605   */\n      tag_315\n        /* \"#utility.yul\":20598:20604   */\n      dup5\n        /* \"#utility.yul\":20543:20605   */\n      tag_100\n      jump\t// in\n    tag_315:\n        /* \"#utility.yul\":20527:20606   */\n      tag_90\n      jump\t// in\n    tag_314:\n        /* \"#utility.yul\":20518:20606   */\n      swap1\n      pop\n        /* \"#utility.yul\":20626:20631   */\n      dup1\n        /* \"#utility.yul\":20679:20683   */\n      0x20\n        /* \"#utility.yul\":20671:20677   */\n      dup5\n        /* \"#utility.yul\":20667:20684   */\n      mul\n        /* \"#utility.yul\":20659:20665   */\n      dup4\n        /* \"#utility.yul\":20655:20685   */\n      add\n        /* \"#utility.yul\":20708:20711   */\n      dup6\n        /* \"#utility.yul\":20700:20706   */\n      dup2\n        /* \"#utility.yul\":20697:20712   */\n      gt\n        /* \"#utility.yul\":20694:20816   */\n      iszero\n      tag_316\n      jumpi\n        /* \"#utility.yul\":20727:20806   */\n      tag_317\n      tag_45\n      jump\t// in\n    tag_317:\n        /* \"#utility.yul\":20694:20816   */\n    tag_316:\n        /* \"#utility.yul\":20842:20848   */\n      dup4\n        /* \"#utility.yul\":20825:21045   */\n    tag_318:\n        /* \"#utility.yul\":20859:20865   */\n      dup2\n        /* \"#utility.yul\":20854:20857   */\n      dup2\n        /* \"#utility.yul\":20851:20866   */\n      lt\n        /* \"#utility.yul\":20825:21045   */\n      iszero\n      tag_320\n      jumpi\n        /* \"#utility.yul\":20934:20937   */\n      dup1\n        /* \"#utility.yul\":20963:21000   */\n      tag_321\n        /* \"#utility.yul\":20996:20999   */\n      dup9\n        /* \"#utility.yul\":20984:20994   */\n      dup3\n        /* \"#utility.yul\":20963:21000   */\n      tag_42\n      jump\t// in\n    tag_321:\n        /* \"#utility.yul\":20958:20961   */\n      dup5\n        /* \"#utility.yul\":20951:21001   */\n      mstore\n        /* \"#utility.yul\":21030:21034   */\n      0x20\n        /* \"#utility.yul\":21025:21028   */\n      dup5\n        /* \"#utility.yul\":21021:21035   */\n      add\n        /* \"#utility.yul\":21014:21035   */\n      swap4\n      pop\n        /* \"#utility.yul\":20901:21045   */\n      pop\n        /* \"#utility.yul\":20885:20889   */\n      0x20\n        /* \"#utility.yul\":20880:20883   */\n      dup2\n        /* \"#utility.yul\":20876:20890   */\n      add\n        /* \"#utility.yul\":20869:20890   */\n      swap1\n      pop\n        /* \"#utility.yul\":20825:21045   */\n      jump(tag_318)\n    tag_320:\n        /* \"#utility.yul\":20829:20850   */\n      pop\n        /* \"#utility.yul\":20508:21051   */\n      pop\n      pop\n        /* \"#utility.yul\":20408:21051   */\n      swap4\n      swap3\n      pop\n      pop\n      pop\n      jump\t// out\n        /* \"#utility.yul\":21075:21414   */\n    tag_102:\n        /* \"#utility.yul\":21144:21149   */\n      0x00\n        /* \"#utility.yul\":21193:21196   */\n      dup3\n        /* \"#utility.yul\":21186:21190   */\n      0x1f\n        /* \"#utility.yul\":21178:21184   */\n      dup4\n        /* \"#utility.yul\":21174:21191   */\n      add\n        /* \"#utility.yul\":21170:21197   */\n      slt\n        /* \"#utility.yul\":21160:21282   */\n      tag_323\n      jumpi\n        /* \"#utility.yul\":21201:21280   */\n      tag_324\n      tag_43\n      jump\t// in\n    tag_324:\n        /* \"#utility.yul\":21160:21282   */\n    tag_323:\n        /* \"#utility.yul\":21305:21309   */\n      0x02\n        /* \"#utility.yul\":21327:21408   */\n      tag_325\n        /* \"#utility.yul\":21404:21407   */\n      dup5\n        /* \"#utility.yul\":21396:21402   */\n      dup3\n        /* \"#utility.yul\":21388:21394   */\n      dup6\n        /* \"#utility.yul\":21327:21408   */\n      tag_101\n      jump\t// in\n    tag_325:\n        /* \"#utility.yul\":21318:21408   */\n      swap2\n      pop\n        /* \"#utility.yul\":21150:21414   */\n      pop\n        /* \"#utility.yul\":21075:21414   */\n      swap3\n      swap2\n      pop\n      pop\n      jump\t// out\n        /* \"#utility.yul\":21453:22218   */\n    tag_103:\n        /* \"#utility.yul\":21525:21530   */\n      0x00\n        /* \"#utility.yul\":21569:21573   */\n      0x60\n        /* \"#utility.yul\":21557:21566   */\n      dup3\n        /* \"#utility.yul\":21552:21555   */\n      dup5\n        /* \"#utility.yul\":21548:21567   */\n      sub\n        /* \"#utility.yul\":21544:21574   */\n      slt\n        /* \"#utility.yul\":21541:21658   */\n      iszero\n      tag_327\n      jumpi\n        /* \"#utility.yul\":21577:21656   */\n      tag_328\n      tag_94\n      jump\t// in\n    tag_328:\n        /* \"#utility.yul\":21541:21658   */\n    tag_327:\n        /* \"#utility.yul\":21676:21697   */\n      tag_329\n        /* \"#utility.yul\":21692:21696   */\n      0x40\n        /* \"#utility.yul\":21676:21697   */\n      tag_90\n      jump\t// in\n    tag_329:\n        /* \"#utility.yul\":21667:21697   */\n      swap1\n      pop\n        /* \"#utility.yul\":21784:21785   */\n      0x00\n        /* \"#utility.yul\":21773:21782   */\n      dup3\n        /* \"#utility.yul\":21769:21786   */\n      add\n        /* \"#utility.yul\":21756:21787   */\n      calldataload\n        /* \"#utility.yul\":21814:21832   */\n      0xffffffffffffffff\n        /* \"#utility.yul\":21806:21812   */\n      dup2\n        /* \"#utility.yul\":21803:21833   */\n      gt\n        /* \"#utility.yul\":21800:21917   */\n      iszero\n      tag_330\n      jumpi\n        /* \"#utility.yul\":21836:21915   */\n      tag_331\n      tag_95\n      jump\t// in\n    tag_331:\n        /* \"#utility.yul\":21800:21917   */\n    tag_330:\n        /* \"#utility.yul\":21956:22015   */\n      tag_332\n        /* \"#utility.yul\":22011:22014   */\n      dup5\n        /* \"#utility.yul\":22002:22008   */\n      dup3\n        /* \"#utility.yul\":21991:22000   */\n      dup6\n        /* \"#utility.yul\":21987:22009   */\n      add\n        /* \"#utility.yul\":21956:22015   */\n      tag_99\n      jump\t// in\n    tag_332:\n        /* \"#utility.yul\":21949:21953   */\n      0x00\n        /* \"#utility.yul\":21942:21947   */\n      dup4\n        /* \"#utility.yul\":21938:21954   */\n      add\n        /* \"#utility.yul\":21931:22016   */\n      mstore\n        /* \"#utility.yul\":21707:22027   */\n      pop\n        /* \"#utility.yul\":22086:22088   */\n      0x20\n        /* \"#utility.yul\":22127:22199   */\n      tag_333\n        /* \"#utility.yul\":22195:22198   */\n      dup5\n        /* \"#utility.yul\":22186:22192   */\n      dup3\n        /* \"#utility.yul\":22175:22184   */\n      dup6\n        /* \"#utility.yul\":22171:22193   */\n      add\n        /* \"#utility.yul\":22127:22199   */\n      tag_102\n      jump\t// in\n    tag_333:\n        /* \"#utility.yul\":22120:22124   */\n      0x20\n        /* \"#utility.yul\":22113:22118   */\n      dup4\n        /* \"#utility.yul\":22109:22125   */\n      add\n        /* \"#utility.yul\":22102:22200   */\n      mstore\n        /* \"#utility.yul\":22037:22211   */\n      pop\n        /* \"#utility.yul\":21453:22218   */\n      swap3\n      swap2\n      pop\n      pop\n      jump\t// out\n        /* \"#utility.yul\":22224:23421   */\n    tag_30:\n        /* \"#utility.yul\":22366:22372   */\n      0x00\n        /* \"#utility.yul\":22374:22380   */\n      dup1\n        /* \"#utility.yul\":22382:22388   */\n      0x00\n        /* \"#utility.yul\":22390:22396   */\n      dup1\n        /* \"#utility.yul\":22439:22442   */\n      0x80\n        /* \"#utility.yul\":22427:22436   */\n      dup6\n        /* \"#utility.yul\":22418:22425   */\n      dup8\n        /* \"#utility.yul\":22414:22437   */\n      sub\n        /* \"#utility.yul\":22410:22443   */\n      slt\n        /* \"#utility.yul\":22407:22527   */\n      iszero\n      tag_335\n      jumpi\n        /* \"#utility.yul\":22446:22525   */\n      tag_336\n      tag_34\n      jump\t// in\n    tag_336:\n        /* \"#utility.yul\":22407:22527   */\n    tag_335:\n        /* \"#utility.yul\":22566:22567   */\n      0x00\n        /* \"#utility.yul\":22591:22644   */\n      tag_337\n        /* \"#utility.yul\":22636:22643   */\n      dup8\n        /* \"#utility.yul\":22627:22633   */\n      dup3\n        /* \"#utility.yul\":22616:22625   */\n      dup9\n        /* \"#utility.yul\":22612:22634   */\n      add\n        /* \"#utility.yul\":22591:22644   */\n      tag_42\n      jump\t// in\n    tag_337:\n        /* \"#utility.yul\":22581:22644   */\n      swap5\n      pop\n        /* \"#utility.yul\":22537:22654   */\n      pop\n        /* \"#utility.yul\":22693:22695   */\n      0x20\n        /* \"#utility.yul\":22719:22780   */\n      tag_338\n        /* \"#utility.yul\":22772:22779   */\n      dup8\n        /* \"#utility.yul\":22763:22769   */\n      dup3\n        /* \"#utility.yul\":22752:22761   */\n      dup9\n        /* \"#utility.yul\":22748:22770   */\n      add\n        /* \"#utility.yul\":22719:22780   */\n      tag_87\n      jump\t// in\n    tag_338:\n        /* \"#utility.yul\":22709:22780   */\n      swap4\n      pop\n        /* \"#utility.yul\":22664:22790   */\n      pop\n        /* \"#utility.yul\":22857:22859   */\n      0x40\n        /* \"#utility.yul\":22846:22855   */\n      dup6\n        /* \"#utility.yul\":22842:22860   */\n      add\n        /* \"#utility.yul\":22829:22861   */\n      calldataload\n        /* \"#utility.yul\":22888:22906   */\n      0xffffffffffffffff\n        /* \"#utility.yul\":22880:22886   */\n      dup2\n        /* \"#utility.yul\":22877:22907   */\n      gt\n        /* \"#utility.yul\":22874:22991   */\n      iszero\n      tag_339\n      jumpi\n        /* \"#utility.yul\":22910:22989   */\n      tag_340\n      tag_35\n      jump\t// in\n    tag_340:\n        /* \"#utility.yul\":22874:22991   */\n    tag_339:\n        /* \"#utility.yul\":23015:23093   */\n      tag_341\n        /* \"#utility.yul\":23085:23092   */\n      dup8\n        /* \"#utility.yul\":23076:23082   */\n      dup3\n        /* \"#utility.yul\":23065:23074   */\n      dup9\n        /* \"#utility.yul\":23061:23083   */\n      add\n        /* \"#utility.yul\":23015:23093   */\n      tag_93\n      jump\t// in\n    tag_341:\n        /* \"#utility.yul\":23005:23093   */\n      swap3\n      pop\n        /* \"#utility.yul\":22800:23103   */\n      pop\n        /* \"#utility.yul\":23170:23172   */\n      0x60\n        /* \"#utility.yul\":23159:23168   */\n      dup6\n        /* \"#utility.yul\":23155:23173   */\n      add\n        /* \"#utility.yul\":23142:23174   */\n      calldataload\n        /* \"#utility.yul\":23201:23219   */\n      0xffffffffffffffff\n        /* \"#utility.yul\":23193:23199   */\n      dup2\n        /* \"#utility.yul\":23190:23220   */\n      gt\n        /* \"#utility.yul\":23187:23304   */\n      iszero\n      tag_342\n      jumpi\n        /* \"#utility.yul\":23223:23302   */\n      tag_343\n      tag_35\n      jump\t// in\n    tag_343:\n        /* \"#utility.yul\":23187:23304   */\n    tag_342:\n        /* \"#utility.yul\":23328:23404   */\n      tag_344\n        /* \"#utility.yul\":23396:23403   */\n      dup8\n        /* \"#utility.yul\":23387:23393   */\n      dup3\n        /* \"#utility.yul\":23376:23385   */\n      dup9\n        /* \"#utility.yul\":23372:23394   */\n      add\n        /* \"#utility.yul\":23328:23404   */\n      tag_103\n      jump\t// in\n    tag_344:\n        /* \"#utility.yul\":23318:23404   */\n      swap2\n      pop\n        /* \"#utility.yul\":23113:23414   */\n      pop\n        /* \"#utility.yul\":22224:23421   */\n      swap3\n      swap6\n      swap2\n      swap5\n      pop\n      swap3\n      pop\n      jump\t// out\n\n    auxdata: 0xa2646970667358221220f42cc319cf94d7a5970ac81b57edf59736ab3676d1552d25da7acad88894e4ae64736f6c63430008110033\n}\n",
				"bytecode": {
					"linkReferences": {},
					"object": "608060405234801561001057600080fd5b50610d05806100206000396000f3fe608060405234801561001057600080fd5b50600436106100415760003560e01c80634d5b608b146100465780637049e08714610062578063e5c5e9a314610092575b600080fd5b610060600480360381019061005b91906101e6565b6100c5565b005b61007c600480360381019061007791906102d2565b6100c8565b6040516100899190610406565b60405180910390f35b6100ac60048036038101906100a7919061047e565b6100fd565b6040516100bc94939291906106bd565b60405180910390f35b50565b606085858585856040516020016100e3959493929190610892565b604051602081830303815290604052905095945050505050565b600080606061010a610132565b85858101906101199190610c30565b8094508195508296508397505050505092959194509250565b60405180604001604052806060815260200161014c610152565b81525090565b6040518060400160405280600290602082028036833780820191505090505090565b6000604051905090565b600080fd5b600080fd5b600073ffffffffffffffffffffffffffffffffffffffff82169050919050565b60006101b382610188565b9050919050565b6101c3816101a8565b81146101ce57600080fd5b50565b6000813590506101e0816101ba565b92915050565b6000602082840312156101fc576101fb61017e565b5b600061020a848285016101d1565b91505092915050565b6000819050919050565b61022681610213565b811461023157600080fd5b50565b6000813590506102438161021d565b92915050565b600080fd5b600080fd5b600080fd5b60008083601f84011261026e5761026d610249565b5b8235905067ffffffffffffffff81111561028b5761028a61024e565b5b6020830191508360208202830111156102a7576102a6610253565b5b9250929050565b600080fd5b6000606082840312156102c9576102c86102ae565b5b81905092915050565b6000806000806000608086880312156102ee576102ed61017e565b5b60006102fc88828901610234565b955050602061030d888289016101d1565b945050604086013567ffffffffffffffff81111561032e5761032d610183565b5b61033a88828901610258565b9350935050606086013567ffffffffffffffff81111561035d5761035c610183565b5b610369888289016102b3565b9150509295509295909350565b600081519050919050565b600082825260208201905092915050565b60005b838110156103b0578082015181840152602081019050610395565b60008484015250505050565b6000601f19601f8301169050919050565b60006103d882610376565b6103e28185610381565b93506103f2818560208601610392565b6103fb816103bc565b840191505092915050565b6000602082019050818103600083015261042081846103cd565b905092915050565b60008083601f84011261043e5761043d610249565b5b8235905067ffffffffffffffff81111561045b5761045a61024e565b5b60208301915083600182028301111561047757610476610253565b5b9250929050565b600080602083850312156104955761049461017e565b5b600083013567ffffffffffffffff8111156104b3576104b2610183565b5b6104bf85828601610428565b92509250509250929050565b6104d481610213565b82525050565b6104e3816101a8565b82525050565b600081519050919050565b600082825260208201905092915050565b6000819050602082019050919050565b61051e81610213565b82525050565b60006105308383610515565b60208301905092915050565b6000602082019050919050565b6000610554826104e9565b61055e81856104f4565b935061056983610505565b8060005b8381101561059a5781516105818882610524565b975061058c8361053c565b92505060018101905061056d565b5085935050505092915050565b600081519050919050565b600082825260208201905092915050565b60006105ce826105a7565b6105d881856105b2565b93506105e8818560208601610392565b6105f1816103bc565b840191505092915050565b600060029050919050565b600081905092915050565b6000819050919050565b6000602082019050919050565b610632816105fc565b61063c8184610607565b925061064782610612565b8060005b8381101561067857815161065f8782610524565b965061066a8361061c565b92505060018101905061064b565b505050505050565b6000606083016000830151848203600086015261069d82826105c3565b91505060208301516106b26020860182610629565b508091505092915050565b60006080820190506106d260008301876104cb565b6106df60208301866104da565b81810360408301526106f18185610549565b905081810360608301526107058184610680565b905095945050505050565b600080fd5b82818337505050565b600061072a83856104f4565b93507f07ffffffffffffffffffffffffffffffffffffffffffffffffffffffffffffff83111561075d5761075c610710565b5b60208302925061076e838584610715565b82840190509392505050565b600080fd5b600080fd5b600080fd5b600080833560016020038436030381126107a6576107a5610784565b5b83810192508235915060208301925067ffffffffffffffff8211156107ce576107cd61077a565b5b6001820236038313156107e4576107e361077f565b5b509250929050565b82818337600083830152505050565b600061080783856105b2565b93506108148385846107ec565b61081d836103bc565b840190509392505050565b600082905092915050565b61083f60408383610715565b5050565b6000606083016108566000840184610789565b85830360008701526108698382846107fb565b9250505061087a6020840184610828565b6108876020860182610833565b508091505092915050565b60006080820190506108a760008301886104cb565b6108b460208301876104da565b81810360408301526108c781858761071e565b905081810360608301526108db8184610843565b90509695505050505050565b60006108f282610188565b9050919050565b610902816108e7565b811461090d57600080fd5b50565b60008135905061091f816108f9565b92915050565b7f4e487b7100000000000000000000000000000000000000000000000000000000600052604160045260246000fd5b61095d826103bc565b810181811067ffffffffffffffff8211171561097c5761097b610925565b5b80604052505050565b600061098f610174565b905061099b8282610954565b919050565b600067ffffffffffffffff8211156109bb576109ba610925565b5b602082029050602081019050919050565b60006109df6109da846109a0565b610985565b90508083825260208201905060208402830185811115610a0257610a01610253565b5b835b81811015610a2b5780610a178882610234565b845260208401935050602081019050610a04565b5050509392505050565b600082601f830112610a4a57610a49610249565b5b8135610a5a8482602086016109cc565b91505092915050565b600080fd5b600080fd5b600080fd5b600067ffffffffffffffff821115610a8d57610a8c610925565b5b610a96826103bc565b9050602081019050919050565b6000610ab6610ab184610a72565b610985565b905082815260208101848484011115610ad257610ad1610a6d565b5b610add8482856107ec565b509392505050565b600082601f830112610afa57610af9610249565b5b8135610b0a848260208601610aa3565b91505092915050565b600067ffffffffffffffff821115610b2e57610b2d610925565b5b602082029050919050565b6000610b4c610b4784610b13565b610985565b90508060208402830185811115610b6657610b65610253565b5b835b81811015610b8f5780610b7b8882610234565b845260208401935050602081019050610b68565b5050509392505050565b600082601f830112610bae57610bad610249565b5b6002610bbb848285610b39565b91505092915050565b600060608284031215610bda57610bd9610a63565b5b610be46040610985565b9050600082013567ffffffffffffffff811115610c0457610c03610a68565b5b610c1084828501610ae5565b6000830152506020610c2484828501610b99565b60208301525092915050565b60008060008060808587031215610c4a57610c4961017e565b5b6000610c5887828801610234565b9450506020610c6987828801610910565b935050604085013567ffffffffffffffff811115610c8a57610c89610183565b5b610c9687828801610a35565b925050606085013567ffffffffffffffff811115610cb757610cb6610183565b5b610cc387828801610bc4565b9150509295919450925056fea2646970667358221220f42cc319cf94d7a5970ac81b57edf59736ab3676d1552d25da7acad88894e4ae64736f6c63430008110033",
					"opcodes": "PUSH1 0x80 PUSH1 0x40 MSTORE CALLVALUE DUP1 ISZERO PUSH2 0x10 JUMPI PUSH1 0x0 DUP1 REVERT JUMPDEST POP PUSH2 0xD05 DUP1 PUSH2 0x20 PUSH1 0x0 CODECOPY PUSH1 0x0 RETURN INVALID PUSH1 0x80 PUSH1 0x40 MSTORE CALLVALUE DUP1 ISZERO PUSH2 0x10 JUMPI PUSH1 0x0 DUP1 REVERT JUMPDEST POP PUSH1 0x4 CALLDATASIZE LT PUSH2 0x41 JUMPI PUSH1 0x0 CALLDATALOAD PUSH1 0xE0 SHR DUP1 PUSH4 0x4D5B608B EQ PUSH2 0x46 JUMPI DUP1 PUSH4 0x7049E087 EQ PUSH2 0x62 JUMPI DUP1 PUSH4 0xE5C5E9A3 EQ PUSH2 0x92 JUMPI JUMPDEST PUSH1 0x0 DUP1 REVERT JUMPDEST PUSH2 0x60 PUSH1 0x4 DUP1 CALLDATASIZE SUB DUP2 ADD SWAP1 PUSH2 0x5B SWAP2 SWAP1 PUSH2 0x1E6 JUMP JUMPDEST PUSH2 0xC5 JUMP JUMPDEST STOP JUMPDEST PUSH2 0x7C PUSH1 0x4 DUP1 CALLDATASIZE SUB DUP2 ADD SWAP1 PUSH2 0x77 SWAP2 SWAP1 PUSH2 0x2D2 JUMP JUMPDEST PUSH2 0xC8 JUMP JUMPDEST PUSH1 0x40 MLOAD PUSH2 0x89 SWAP2 SWAP1 PUSH2 0x406 JUMP JUMPDEST PUSH1 0x40 MLOAD DUP1 SWAP2 SUB SWAP1 RETURN JUMPDEST PUSH2 0xAC PUSH1 0x4 DUP1 CALLDATASIZE SUB DUP2 ADD SWAP1 PUSH2 0xA7 SWAP2 SWAP1 PUSH2 0x47E JUMP JUMPDEST PUSH2 0xFD JUMP JUMPDEST PUSH1 0x40 MLOAD PUSH2 0xBC SWAP5 SWAP4 SWAP3 SWAP2 SWAP1 PUSH2 0x6BD JUMP JUMPDEST PUSH1 0x40 MLOAD DUP1 SWAP2 SUB SWAP1 RETURN JUMPDEST POP JUMP JUMPDEST PUSH1 0x60 DUP6 DUP6 DUP6 DUP6 DUP6 PUSH1 0x40 MLOAD PUSH1 0x20 ADD PUSH2 0xE3 SWAP6 SWAP5 SWAP4 SWAP3 SWAP2 SWAP1 PUSH2 0x892 JUMP JUMPDEST PUSH1 0x40 MLOAD PUSH1 0x20 DUP2 DUP4 SUB SUB DUP2 MSTORE SWAP1 PUSH1 0x40 MSTORE SWAP1 POP SWAP6 SWAP5 POP POP POP POP POP JUMP JUMPDEST PUSH1 0x0 DUP1 PUSH1 0x60 PUSH2 0x10A PUSH2 0x132 JUMP JUMPDEST DUP6 DUP6 DUP2 ADD SWAP1 PUSH2 0x119 SWAP2 SWAP1 PUSH2 0xC30 JUMP JUMPDEST DUP1 SWAP5 POP DUP2 SWAP6 POP DUP3 SWAP7 POP DUP4 SWAP8 POP POP POP POP POP SWAP3 SWAP6 SWAP2 SWAP5 POP SWAP3 POP JUMP JUMPDEST PUSH1 0x40 MLOAD DUP1 PUSH1 0x40 ADD PUSH1 0x40 MSTORE DUP1 PUSH1 0x60 DUP2 MSTORE PUSH1 0x20 ADD PUSH2 0x14C PUSH2 0x152 JUMP JUMPDEST DUP2 MSTORE POP SWAP1 JUMP JUMPDEST PUSH1 0x40 MLOAD DUP1 PUSH1 0x40 ADD PUSH1 0x40 MSTORE DUP1 PUSH1 0x2 SWAP1 PUSH1 0x20 DUP3 MUL DUP1 CALLDATASIZE DUP4 CALLDATACOPY DUP1 DUP3 ADD SWAP2 POP POP SWAP1 POP POP SWAP1 JUMP JUMPDEST PUSH1 0x0 PUSH1 0x40 MLOAD SWAP1 POP SWAP1 JUMP JUMPDEST PUSH1 0x0 DUP1 REVERT JUMPDEST PUSH1 0x0 DUP1 REVERT JUMPDEST PUSH1 0x0 PUSH20 0xFFFFFFFFFFFFFFFFFFFFFFFFFFFFFFFFFFFFFFFF DUP3 AND SWAP1 POP SWAP2 SWAP1 POP JUMP JUMPDEST PUSH1 0x0 PUSH2 0x1B3 DUP3 PUSH2 0x188 JUMP JUMPDEST SWAP1 POP SWAP2 SWAP1 POP JUMP JUMPDEST PUSH2 0x1C3 DUP2 PUSH2 0x1A8 JUMP JUMPDEST DUP2 EQ PUSH2 0x1CE JUMPI PUSH1 0x0 DUP1 REVERT JUMPDEST POP JUMP JUMPDEST PUSH1 0x0 DUP2 CALLDATALOAD SWAP1 POP PUSH2 0x1E0 DUP2 PUSH2 0x1BA JUMP JUMPDEST SWAP3 SWAP2 POP POP JUMP JUMPDEST PUSH1 0x0 PUSH1 0x20 DUP3 DUP5 SUB SLT ISZERO PUSH2 0x1FC JUMPI PUSH2 0x1FB PUSH2 0x17E JUMP JUMPDEST JUMPDEST PUSH1 0x0 PUSH2 0x20A DUP5 DUP3 DUP6 ADD PUSH2 0x1D1 JUMP JUMPDEST SWAP2 POP POP SWAP3 SWAP2 POP POP JUMP JUMPDEST PUSH1 0x0 DUP2 SWAP1 POP SWAP2 SWAP1 POP JUMP JUMPDEST PUSH2 0x226 DUP2 PUSH2 0x213 JUMP JUMPDEST DUP2 EQ PUSH2 0x231 JUMPI PUSH1 0x0 DUP1 REVERT JUMPDEST POP JUMP JUMPDEST PUSH1 0x0 DUP2 CALLDATALOAD SWAP1 POP PUSH2 0x243 DUP2 PUSH2 0x21D JUMP JUMPDEST SWAP3 SWAP2 POP POP JUMP JUMPDEST PUSH1 0x0 DUP1 REVERT JUMPDEST PUSH1 0x0 DUP1 REVERT JUMPDEST PUSH1 0x0 DUP1 REVERT JUMPDEST PUSH1 0x0 DUP1 DUP4 PUSH1 0x1F DUP5 ADD SLT PUSH2 0x26E JUMPI PUSH2 0x26D PUSH2 0x249 JUMP JUMPDEST JUMPDEST DUP3 CALLDATALOAD SWAP1 POP PUSH8 0xFFFFFFFFFFFFFFFF DUP2 GT ISZERO PUSH2 0x28B JUMPI PUSH2 0x28A PUSH2 0x24E JUMP JUMPDEST JUMPDEST PUSH1 0x20 DUP4 ADD SWAP2 POP DUP4 PUSH1 0x20 DUP3 MUL DUP4 ADD GT ISZERO PUSH2 0x2A7 JUMPI PUSH2 0x2A6 PUSH2 0x253 JUMP JUMPDEST JUMPDEST SWAP3 POP SWAP3 SWAP1 POP JUMP JUMPDEST PUSH1 0x0 DUP1 REVERT JUMPDEST PUSH1 0x0 PUSH1 0x60 DUP3 DUP5 SUB SLT ISZERO PUSH2 0x2C9 JUMPI PUSH2 0x2C8 PUSH2 0x2AE JUMP JUMPDEST JUMPDEST DUP2 SWAP1 POP SWAP3 SWAP2 POP POP JUMP JUMPDEST PUSH1 0x0 DUP1 PUSH1 0x0 DUP1 PUSH1 0x0 PUSH1 0x80 DUP7 DUP9 SUB SLT ISZERO PUSH2 0x2EE JUMPI PUSH2 0x2ED PUSH2 0x17E JUMP JUMPDEST JUMPDEST PUSH1 0x0 PUSH2 0x2FC DUP9 DUP3 DUP10 ADD PUSH2 0x234 JUMP JUMPDEST SWAP6 POP POP PUSH1 0x20 PUSH2 0x30D DUP9 DUP3 DUP10 ADD PUSH2 0x1D1 JUMP JUMPDEST SWAP5 POP POP PUSH1 0x40 DUP7 ADD CALLDATALOAD PUSH8 0xFFFFFFFFFFFFFFFF DUP2 GT ISZERO PUSH2 0x32E JUMPI PUSH2 0x32D PUSH2 0x183 JUMP JUMPDEST JUMPDEST PUSH2 0x33A DUP9 DUP3 DUP10 ADD PUSH2 0x258 JUMP JUMPDEST SWAP4 POP SWAP4 POP POP PUSH1 0x60 DUP7 ADD CALLDATALOAD PUSH8 0xFFFFFFFFFFFFFFFF DUP2 GT ISZERO PUSH2 0x35D JUMPI PUSH2 0x35C PUSH2 0x183 JUMP JUMPDEST JUMPDEST PUSH2 0x369 DUP9 DUP3 DUP10 ADD PUSH2 0x2B3 JUMP JUMPDEST SWAP2 POP POP SWAP3 SWAP6 POP SWAP3 SWAP6 SWAP1 SWAP4 POP JUMP JUMPDEST PUSH1 0x0 DUP2 MLOAD SWAP1 POP SWAP2 SWAP1 POP JUMP JUMPDEST PUSH1 0x0 DUP3 DUP3 MSTORE PUSH1 0x20 DUP3 ADD SWAP1 POP SWAP3 SWAP2 POP POP JUMP JUMPDEST PUSH1 0x0 JUMPDEST DUP4 DUP2 LT ISZERO PUSH2 0x3B0 JUMPI DUP1 DUP3 ADD MLOAD DUP2 DUP5 ADD MSTORE PUSH1 0x20 DUP2 ADD SWAP1 POP PUSH2 0x395 JUMP JUMPDEST PUSH1 0x0 DUP5 DUP5 ADD MSTORE POP POP POP POP JUMP JUMPDEST PUSH1 0x0 PUSH1 0x1F NOT PUSH1 0x1F DUP4 ADD AND SWAP1 POP SWAP2 SWAP1 POP JUMP JUMPDEST PUSH1 0x0 PUSH2 0x3D8 DUP3 PUSH2 0x376 JUMP JUMPDEST PUSH2 0x3E2 DUP2 DUP6 PUSH2 0x381 JUMP JUMPDEST SWAP4 POP PUSH2 0x3F2 DUP2 DUP6 PUSH1 0x20 DUP7 ADD PUSH2 0x392 JUMP JUMPDEST PUSH2 0x3FB DUP2 PUSH2 0x3BC JUMP JUMPDEST DUP5 ADD SWAP2 POP POP SWAP3 SWAP2 POP POP JUMP JUMPDEST PUSH1 0x0 PUSH1 0x20 DUP3 ADD SWAP1 POP DUP2 DUP2 SUB PUSH1 0x0 DUP4 ADD MSTORE PUSH2 0x420 DUP2 DUP5 PUSH2 0x3CD JUMP JUMPDEST SWAP1 POP SWAP3 SWAP2 POP POP JUMP JUMPDEST PUSH1 0x0 DUP1 DUP4 PUSH1 0x1F DUP5 ADD SLT PUSH2 0x43E JUMPI PUSH2 0x43D PUSH2 0x249 JUMP JUMPDEST JUMPDEST DUP3 CALLDATALOAD SWAP1 POP PUSH8 0xFFFFFFFFFFFFFFFF DUP2 GT ISZERO PUSH2 0x45B JUMPI PUSH2 0x45A PUSH2 0x24E JUMP JUMPDEST JUMPDEST PUSH1 0x20 DUP4 ADD SWAP2 POP DUP4 PUSH1 0x1 DUP3 MUL DUP4 ADD GT ISZERO PUSH2 0x477 JUMPI PUSH2 0x476 PUSH2 0x253 JUMP JUMPDEST JUMPDEST SWAP3 POP SWAP3 SWAP1 POP JUMP JUMPDEST PUSH1 0x0 DUP1 PUSH1 0x20 DUP4 DUP6 SUB SLT ISZERO PUSH2 0x495 JUMPI PUSH2 0x494 PUSH2 0x17E JUMP JUMPDEST JUMPDEST PUSH1 0x0 DUP4 ADD CALLDATALOAD PUSH8 0xFFFFFFFFFFFFFFFF DUP2 GT ISZERO PUSH2 0x4B3 JUMPI PUSH2 0x4B2 PUSH2 0x183 JUMP JUMPDEST JUMPDEST PUSH2 0x4BF DUP6 DUP3 DUP7 ADD PUSH2 0x428 JUMP JUMPDEST SWAP3 POP SWAP3 POP POP SWAP3 POP SWAP3 SWAP1 POP JUMP JUMPDEST PUSH2 0x4D4 DUP2 PUSH2 0x213 JUMP JUMPDEST DUP3 MSTORE POP POP JUMP JUMPDEST PUSH2 0x4E3 DUP2 PUSH2 0x1A8 JUMP JUMPDEST DUP3 MSTORE POP POP JUMP JUMPDEST PUSH1 0x0 DUP2 MLOAD SWAP1 POP SWAP2 SWAP1 POP JUMP JUMPDEST PUSH1 0x0 DUP3 DUP3 MSTORE PUSH1 0x20 DUP3 ADD SWAP1 POP SWAP3 SWAP2 POP POP JUMP JUMPDEST PUSH1 0x0 DUP2 SWAP1 POP PUSH1 0x20 DUP3 ADD SWAP1 POP SWAP2 SWAP1 POP JUMP JUMPDEST PUSH2 0x51E DUP2 PUSH2 0x213 JUMP JUMPDEST DUP3 MSTORE POP POP JUMP JUMPDEST PUSH1 0x0 PUSH2 0x530 DUP4 DUP4 PUSH2 0x515 JUMP JUMPDEST PUSH1 0x20 DUP4 ADD SWAP1 POP SWAP3 SWAP2 POP POP JUMP JUMPDEST PUSH1 0x0 PUSH1 0x20 DUP3 ADD SWAP1 POP SWAP2 SWAP1 POP JUMP JUMPDEST PUSH1 0x0 PUSH2 0x554 DUP3 PUSH2 0x4E9 JUMP JUMPDEST PUSH2 0x55E DUP2 DUP6 PUSH2 0x4F4 JUMP JUMPDEST SWAP4 POP PUSH2 0x569 DUP4 PUSH2 0x505 JUMP JUMPDEST DUP1 PUSH1 0x0 JUMPDEST DUP4 DUP2 LT ISZERO PUSH2 0x59A JUMPI DUP2 MLOAD PUSH2 0x581 DUP9 DUP3 PUSH2 0x524 JUMP JUMPDEST SWAP8 POP PUSH2 0x58C DUP4 PUSH2 0x53C JUMP JUMPDEST SWAP3 POP POP PUSH1 0x1 DUP2 ADD SWAP1 POP PUSH2 0x56D JUMP JUMPDEST POP DUP6 SWAP4 POP POP POP POP SWAP3 SWAP2 POP POP JUMP JUMPDEST PUSH1 0x0 DUP2 MLOAD SWAP1 POP SWAP2 SWAP1 POP JUMP JUMPDEST PUSH1 0x0 DUP3 DUP3 MSTORE PUSH1 0x20 DUP3 ADD SWAP1 POP SWAP3 SWAP2 POP POP JUMP JUMPDEST PUSH1 0x0 PUSH2 0x5CE DUP3 PUSH2 0x5A7 JUMP JUMPDEST PUSH2 0x5D8 DUP2 DUP6 PUSH2 0x5B2 JUMP JUMPDEST SWAP4 POP PUSH2 0x5E8 DUP2 DUP6 PUSH1 0x20 DUP7 ADD PUSH2 0x392 JUMP JUMPDEST PUSH2 0x5F1 DUP2 PUSH2 0x3BC JUMP JUMPDEST DUP5 ADD SWAP2 POP POP SWAP3 SWAP2 POP POP JUMP JUMPDEST PUSH1 0x0 PUSH1 0x2 SWAP1 POP SWAP2 SWAP1 POP JUMP JUMPDEST PUSH1 0x0 DUP2 SWAP1 POP SWAP3 SWAP2 POP POP JUMP JUMPDEST PUSH1 0x0 DUP2 SWAP1 POP SWAP2 SWAP1 POP JUMP JUMPDEST PUSH1 0x0 PUSH1 0x20 DUP3 ADD SWAP1 POP SWAP2 SWAP1 POP JUMP JUMPDEST PUSH2 0x632 DUP2 PUSH2 0x5FC JUMP JUMPDEST PUSH2 0x63C DUP2 DUP5 PUSH2 0x607 JUMP JUMPDEST SWAP3 POP PUSH2 0x647 DUP3 PUSH2 0x612 JUMP JUMPDEST DUP1 PUSH1 0x0 JUMPDEST DUP4 DUP2 LT ISZERO PUSH2 0x678 JUMPI DUP2 MLOAD PUSH2 0x65F DUP8 DUP3 PUSH2 0x524 JUMP JUMPDEST SWAP7 POP PUSH2 0x66A DUP4 PUSH2 0x61C JUMP JUMPDEST SWAP3 POP POP PUSH1 0x1 DUP2 ADD SWAP1 POP PUSH2 0x64B JUMP JUMPDEST POP POP POP POP POP POP JUMP JUMPDEST PUSH1 0x0 PUSH1 0x60 DUP4 ADD PUSH1 0x0 DUP4 ADD MLOAD DUP5 DUP3 SUB PUSH1 0x0 DUP7 ADD MSTORE PUSH2 0x69D DUP3 DUP3 PUSH2 0x5C3 JUMP JUMPDEST SWAP2 POP POP PUSH1 0x20 DUP4 ADD MLOAD PUSH2 0x6B2 PUSH1 0x20 DUP7 ADD DUP3 PUSH2 0x629 JUMP JUMPDEST POP DUP1 SWAP2 POP POP SWAP3 SWAP2 POP POP JUMP JUMPDEST PUSH1 0x0 PUSH1 0x80 DUP3 ADD SWAP1 POP PUSH2 0x6D2 PUSH1 0x0 DUP4 ADD DUP8 PUSH2 0x4CB JUMP JUMPDEST PUSH2 0x6DF PUSH1 0x20 DUP4 ADD DUP7 PUSH2 0x4DA JUMP JUMPDEST DUP2 DUP2 SUB PUSH1 0x40 DUP4 ADD MSTORE PUSH2 0x6F1 DUP2 DUP6 PUSH2 0x549 JUMP JUMPDEST SWAP1 POP DUP2 DUP2 SUB PUSH1 0x60 DUP4 ADD MSTORE PUSH2 0x705 DUP2 DUP5 PUSH2 0x680 JUMP JUMPDEST SWAP1 POP SWAP6 SWAP5 POP POP POP POP POP JUMP JUMPDEST PUSH1 0x0 DUP1 REVERT JUMPDEST DUP3 DUP2 DUP4 CALLDATACOPY POP POP POP JUMP JUMPDEST PUSH1 0x0 PUSH2 0x72A DUP4 DUP6 PUSH2 0x4F4 JUMP JUMPDEST SWAP4 POP PUSH32 0x7FFFFFFFFFFFFFFFFFFFFFFFFFFFFFFFFFFFFFFFFFFFFFFFFFFFFFFFFFFFFFF DUP4 GT ISZERO PUSH2 0x75D JUMPI PUSH2 0x75C PUSH2 0x710 JUMP JUMPDEST JUMPDEST PUSH1 0x20 DUP4 MUL SWAP3 POP PUSH2 0x76E DUP4 DUP6 DUP5 PUSH2 0x715 JUMP JUMPDEST DUP3 DUP5 ADD SWAP1 POP SWAP4 SWAP3 POP POP POP JUMP JUMPDEST PUSH1 0x0 DUP1 REVERT JUMPDEST PUSH1 0x0 DUP1 REVERT JUMPDEST PUSH1 0x0 DUP1 REVERT JUMPDEST PUSH1 0x0 DUP1 DUP4 CALLDATALOAD PUSH1 0x1 PUSH1 0x20 SUB DUP5 CALLDATASIZE SUB SUB DUP2 SLT PUSH2 0x7A6 JUMPI PUSH2 0x7A5 PUSH2 0x784 JUMP JUMPDEST JUMPDEST DUP4 DUP2 ADD SWAP3 POP DUP3 CALLDATALOAD SWAP2 POP PUSH1 0x20 DUP4 ADD SWAP3 POP PUSH8 0xFFFFFFFFFFFFFFFF DUP3 GT ISZERO PUSH2 0x7CE JUMPI PUSH2 0x7CD PUSH2 0x77A JUMP JUMPDEST JUMPDEST PUSH1 0x1 DUP3 MUL CALLDATASIZE SUB DUP4 SGT ISZERO PUSH2 0x7E4 JUMPI PUSH2 0x7E3 PUSH2 0x77F JUMP JUMPDEST JUMPDEST POP SWAP3 POP SWAP3 SWAP1 POP JUMP JUMPDEST DUP3 DUP2 DUP4 CALLDATACOPY PUSH1 0x0 DUP4 DUP4 ADD MSTORE POP POP POP JUMP JUMPDEST PUSH1 0x0 PUSH2 0x807 DUP4 DUP6 PUSH2 0x5B2 JUMP JUMPDEST SWAP4 POP PUSH2 0x814 DUP4 DUP6 DUP5 PUSH2 0x7EC JUMP JUMPDEST PUSH2 0x81D DUP4 PUSH2 0x3BC JUMP JUMPDEST DUP5 ADD SWAP1 POP SWAP4 SWAP3 POP POP POP JUMP JUMPDEST PUSH1 0x0 DUP3 SWAP1 POP SWAP3 SWAP2 POP POP JUMP JUMPDEST PUSH2 0x83F PUSH1 0x40 DUP4 DUP4 PUSH2 0x715 JUMP JUMPDEST POP POP JUMP JUMPDEST PUSH1 0x0 PUSH1 0x60 DUP4 ADD PUSH2 0x856 PUSH1 0x0 DUP5 ADD DUP5 PUSH2 0x789 JUMP JUMPDEST DUP6 DUP4 SUB PUSH1 0x0 DUP8 ADD MSTORE PUSH2 0x869 DUP4 DUP3 DUP5 PUSH2 0x7FB JUMP JUMPDEST SWAP3 POP POP POP PUSH2 0x87A PUSH1 0x20 DUP5 ADD DUP5 PUSH2 0x828 JUMP JUMPDEST PUSH2 0x887 PUSH1 0x20 DUP7 ADD DUP3 PUSH2 0x833 JUMP JUMPDEST POP DUP1 SWAP2 POP POP SWAP3 SWAP2 POP POP JUMP JUMPDEST PUSH1 0x0 PUSH1 0x80 DUP3 ADD SWAP1 POP PUSH2 0x8A7 PUSH1 0x0 DUP4 ADD DUP9 PUSH2 0x4CB JUMP JUMPDEST PUSH2 0x8B4 PUSH1 0x20 DUP4 ADD DUP8 PUSH2 0x4DA JUMP JUMPDEST DUP2 DUP2 SUB PUSH1 0x40 DUP4 ADD MSTORE PUSH2 0x8C7 DUP2 DUP6 DUP8 PUSH2 0x71E JUMP JUMPDEST SWAP1 POP DUP2 DUP2 SUB PUSH1 0x60 DUP4 ADD MSTORE PUSH2 0x8DB DUP2 DUP5 PUSH2 0x843 JUMP JUMPDEST SWAP1 POP SWAP7 SWAP6 POP POP POP POP POP POP JUMP JUMPDEST PUSH1 0x0 PUSH2 0x8F2 DUP3 PUSH2 0x188 JUMP JUMPDEST SWAP1 POP SWAP2 SWAP1 POP JUMP JUMPDEST PUSH2 0x902 DUP2 PUSH2 0x8E7 JUMP JUMPDEST DUP2 EQ PUSH2 0x90D JUMPI PUSH1 0x0 DUP1 REVERT JUMPDEST POP JUMP JUMPDEST PUSH1 0x0 DUP2 CALLDATALOAD SWAP1 POP PUSH2 0x91F DUP2 PUSH2 0x8F9 JUMP JUMPDEST SWAP3 SWAP2 POP POP JUMP JUMPDEST PUSH32 0x4E487B7100000000000000000000000000000000000000000000000000000000 PUSH1 0x0 MSTORE PUSH1 0x41 PUSH1 0x4 MSTORE PUSH1 0x24 PUSH1 0x0 REVERT JUMPDEST PUSH2 0x95D DUP3 PUSH2 0x3BC JUMP JUMPDEST DUP2 ADD DUP2 DUP2 LT PUSH8 0xFFFFFFFFFFFFFFFF DUP3 GT OR ISZERO PUSH2 0x97C JUMPI PUSH2 0x97B PUSH2 0x925 JUMP JUMPDEST JUMPDEST DUP1 PUSH1 0x40 MSTORE POP POP POP JUMP JUMPDEST PUSH1 0x0 PUSH2 0x98F PUSH2 0x174 JUMP JUMPDEST SWAP1 POP PUSH2 0x99B DUP3 DUP3 PUSH2 0x954 JUMP JUMPDEST SWAP2 SWAP1 POP JUMP JUMPDEST PUSH1 0x0 PUSH8 0xFFFFFFFFFFFFFFFF DUP3 GT ISZERO PUSH2 0x9BB JUMPI PUSH2 0x9BA PUSH2 0x925 JUMP JUMPDEST JUMPDEST PUSH1 0x20 DUP3 MUL SWAP1 POP PUSH1 0x20 DUP2 ADD SWAP1 POP SWAP2 SWAP1 POP JUMP JUMPDEST PUSH1 0x0 PUSH2 0x9DF PUSH2 0x9DA DUP5 PUSH2 0x9A0 JUMP JUMPDEST PUSH2 0x985 JUMP JUMPDEST SWAP1 POP DUP1 DUP4 DUP3 MSTORE PUSH1 0x20 DUP3 ADD SWAP1 POP PUSH1 0x20 DUP5 MUL DUP4 ADD DUP6 DUP2 GT ISZERO PUSH2 0xA02 JUMPI PUSH2 0xA01 PUSH2 0x253 JUMP JUMPDEST JUMPDEST DUP4 JUMPDEST DUP2 DUP2 LT ISZERO PUSH2 0xA2B JUMPI DUP1 PUSH2 0xA17 DUP9 DUP3 PUSH2 0x234 JUMP JUMPDEST DUP5 MSTORE PUSH1 0x20 DUP5 ADD SWAP4 POP POP PUSH1 0x20 DUP2 ADD SWAP1 POP PUSH2 0xA04 JUMP JUMPDEST POP POP POP SWAP4 SWAP3 POP POP POP JUMP JUMPDEST PUSH1 0x0 DUP3 PUSH1 0x1F DUP4 ADD SLT PUSH2 0xA4A JUMPI PUSH2 0xA49 PUSH2 0x249 JUMP JUMPDEST JUMPDEST DUP2 CALLDATALOAD PUSH2 0xA5A DUP5 DUP3 PUSH1 0x20 DUP7 ADD PUSH2 0x9CC JUMP JUMPDEST SWAP2 POP POP SWAP3 SWAP2 POP POP JUMP JUMPDEST PUSH1 0x0 DUP1 REVERT JUMPDEST PUSH1 0x0 DUP1 REVERT JUMPDEST PUSH1 0x0 DUP1 REVERT JUMPDEST PUSH1 0x0 PUSH8 0xFFFFFFFFFFFFFFFF DUP3 GT ISZERO PUSH2 0xA8D JUMPI PUSH2 0xA8C PUSH2 0x925 JUMP JUMPDEST JUMPDEST PUSH2 0xA96 DUP3 PUSH2 0x3BC JUMP JUMPDEST SWAP1 POP PUSH1 0x20 DUP2 ADD SWAP1 POP SWAP2 SWAP1 POP JUMP JUMPDEST PUSH1 0x0 PUSH2 0xAB6 PUSH2 0xAB1 DUP5 PUSH2 0xA72 JUMP JUMPDEST PUSH2 0x985 JUMP JUMPDEST SWAP1 POP DUP3 DUP2 MSTORE PUSH1 0x20 DUP2 ADD DUP5 DUP5 DUP5 ADD GT ISZERO PUSH2 0xAD2 JUMPI PUSH2 0xAD1 PUSH2 0xA6D JUMP JUMPDEST JUMPDEST PUSH2 0xADD DUP5 DUP3 DUP6 PUSH2 0x7EC JUMP JUMPDEST POP SWAP4 SWAP3 POP POP POP JUMP JUMPDEST PUSH1 0x0 DUP3 PUSH1 0x1F DUP4 ADD SLT PUSH2 0xAFA JUMPI PUSH2 0xAF9 PUSH2 0x249 JUMP JUMPDEST JUMPDEST DUP2 CALLDATALOAD PUSH2 0xB0A DUP5 DUP3 PUSH1 0x20 DUP7 ADD PUSH2 0xAA3 JUMP JUMPDEST SWAP2 POP POP SWAP3 SWAP2 POP POP JUMP JUMPDEST PUSH1 0x0 PUSH8 0xFFFFFFFFFFFFFFFF DUP3 GT ISZERO PUSH2 0xB2E JUMPI PUSH2 0xB2D PUSH2 0x925 JUMP JUMPDEST JUMPDEST PUSH1 0x20 DUP3 MUL SWAP1 POP SWAP2 SWAP1 POP JUMP JUMPDEST PUSH1 0x0 PUSH2 0xB4C PUSH2 0xB47 DUP5 PUSH2 0xB13 JUMP JUMPDEST PUSH2 0x985 JUMP JUMPDEST SWAP1 POP DUP1 PUSH1 0x20 DUP5 MUL DUP4 ADD DUP6 DUP2 GT ISZERO PUSH2 0xB66 JUMPI PUSH2 0xB65 PUSH2 0x253 JUMP JUMPDEST JUMPDEST DUP4 JUMPDEST DUP2 DUP2 LT ISZERO PUSH2 0xB8F JUMPI DUP1 PUSH2 0xB7B DUP9 DUP3 PUSH2 0x234 JUMP JUMPDEST DUP5 MSTORE PUSH1 0x20 DUP5 ADD SWAP4 POP POP PUSH1 0x20 DUP2 ADD SWAP1 POP PUSH2 0xB68 JUMP JUMPDEST POP POP POP SWAP4 SWAP3 POP POP POP JUMP JUMPDEST PUSH1 0x0 DUP3 PUSH1 0x1F DUP4 ADD SLT PUSH2 0xBAE JUMPI PUSH2 0xBAD PUSH2 0x249 JUMP JUMPDEST JUMPDEST PUSH1 0x2 PUSH2 0xBBB DUP5 DUP3 DUP6 PUSH2 0xB39 JUMP JUMPDEST SWAP2 POP POP SWAP3 SWAP2 POP POP JUMP JUMPDEST PUSH1 0x0 PUSH1 0x60 DUP3 DUP5 SUB SLT ISZERO PUSH2 0xBDA JUMPI PUSH2 0xBD9 PUSH2 0xA63 JUMP JUMPDEST JUMPDEST PUSH2 0xBE4 PUSH1 0x40 PUSH2 0x985 JUMP JUMPDEST SWAP1 POP PUSH1 0x0 DUP3 ADD CALLDATALOAD PUSH8 0xFFFFFFFFFFFFFFFF DUP2 GT ISZERO PUSH2 0xC04 JUMPI PUSH2 0xC03 PUSH2 0xA68 JUMP JUMPDEST JUMPDEST PUSH2 0xC10 DUP5 DUP3 DUP6 ADD PUSH2 0xAE5 JUMP JUMPDEST PUSH1 0x0 DUP4 ADD MSTORE POP PUSH1 0x20 PUSH2 0xC24 DUP5 DUP3 DUP6 ADD PUSH2 0xB99 JUMP JUMPDEST PUSH1 0x20 DUP4 ADD MSTORE POP SWAP3 SWAP2 POP POP JUMP JUMPDEST PUSH1 0x0 DUP1 PUSH1 0x0 DUP1 PUSH1 0x80 DUP6 DUP8 SUB SLT ISZERO PUSH2 0xC4A JUMPI PUSH2 0xC49 PUSH2 0x17E JUMP JUMPDEST JUMPDEST PUSH1 0x0 PUSH2 0xC58 DUP8 DUP3 DUP9 ADD PUSH2 0x234 JUMP JUMPDEST SWAP5 POP POP PUSH1 0x20 PUSH2 0xC69 DUP8 DUP3 DUP9 ADD PUSH2 0x910 JUMP JUMPDEST SWAP4 POP POP PUSH1 0x40 DUP6 ADD CALLDATALOAD PUSH8 0xFFFFFFFFFFFFFFFF DUP2 GT ISZERO PUSH2 0xC8A JUMPI PUSH2 0xC89 PUSH2 0x183 JUMP JUMPDEST JUMPDEST PUSH2 0xC96 DUP8 DUP3 DUP9 ADD PUSH2 0xA35 JUMP JUMPDEST SWAP3 POP POP PUSH1 0x60 DUP6 ADD CALLDATALOAD PUSH8 0xFFFFFFFFFFFFFFFF DUP2 GT ISZERO PUSH2 0xCB7 JUMPI PUSH2 0xCB6 PUSH2 0x183 JUMP JUMPDEST JUMPDEST PUSH2 0xCC3 DUP8 DUP3 DUP9 ADD PUSH2 0xBC4 JUMP JUMPDEST SWAP2 POP POP SWAP3 SWAP6 SWAP2 SWAP5 POP SWAP3 POP JUMP INVALID LOG2 PUSH5 0x6970667358 0x22 SLT KECCAK256 DELEGATECALL 0x2C 0xC3 NOT 0xCF SWAP5 0xD7 0xA5 SWAP8 EXP 0xC8 SHL JUMPI 0xED CREATE2 SWAP8 CALLDATASIZE 0xAB CALLDATASIZE PUSH23 0xD1552D25DA7ACAD88894E4AE64736F6C63430008110033 "
				},
				"gasEstimates": {
					"creation": {
						"codeDepositCost": "666600",
						"executionCost": "702",
						"totalCost": "667302"
					},
					"external": {
						"decode(bytes)": "infinite",
						"encode(uint256,address,uint256[],(string,uint256[2]))": "infinite",
						"testTransfer(address)": "433"
					}
				},
				"methodIdentifiers": {
					"decode(bytes)": "e5c5e9a3",
					"encode(uint256,address,uint256[],(string,uint256[2]))": "7049e087",
					"testTransfer(address)": "4d5b608b"
				}
			},
			"storageLayout": {
				"storage": [],
				"types": null
			},
			"userdoc": {
				"kind": "user",
				"methods": {},
				"version": 1
			}
		}
	}
}