{
	"TestCall.sol": {
		"TestCall": {
			"abi": [
				{
					"anonymous": false,
					"inputs": [
						{
							"indexed": false,
							"internalType": "string",
							"name": "message",
							"type": "string"
						}
					],
					"name": "Log",
					"type": "event"
				},
				{
					"stateMutability": "payable",
					"type": "fallback"
				},
				{
					"inputs": [],
					"name": "message",
					"outputs": [
						{
							"internalType": "string",
							"name": "",
							"type": "string"
						}
					],
					"stateMutability": "view",
					"type": "function"
				},
				{
					"inputs": [],
					"name": "x",
					"outputs": [
						{
							"internalType": "uint256",
							"name": "",
							"type": "uint256"
						}
					],
					"stateMutability": "view",
					"type": "function"
				}
			],
			"devdoc": {
				"kind": "dev",
				"methods": {},
				"version": 1
			},
			"evm": {
				"assembly": "    /* \"TestCall.sol\":61:251  contract TestCall {... */\n  mstore(0x40, 0x80)\n  callvalue\n  dup1\n  iszero\n  tag_1\n  jumpi\n  0x00\n  dup1\n  revert\ntag_1:\n  pop\n  dataSize(sub_0)\n  dup1\n  dataOffset(sub_0)\n  0x00\n  codecopy\n  0x00\n  return\nstop\n\nsub_0: assembly {\n        /* \"TestCall.sol\":61:251  contract TestCall {... */\n      mstore(0x40, 0x80)\n      jumpi(tag_1, lt(calldatasize, 0x04))\n      shr(0xe0, calldataload(0x00))\n      dup1\n      0x0c55699c\n      eq\n      tag_3\n      jumpi\n      dup1\n      0xe21f37ce\n      eq\n      tag_4\n      jumpi\n      jump(tag_2)\n    tag_1:\n    tag_2:\n        /* \"TestCall.sol\":214:240  Log(\"fallback was called\") */\n      0xcf34ef537ac33ee1ac626ca1587a0a7e8e51561e5514f8cb36afa1c5102b3bab\n      mload(0x40)\n      tag_7\n      swap1\n      tag_8\n      jump\t// in\n    tag_7:\n      mload(0x40)\n      dup1\n      swap2\n      sub\n      swap1\n      log1\n        /* \"TestCall.sol\":61:251  contract TestCall {... */\n      stop\n        /* \"TestCall.sol\":114:127  uint public x */\n    tag_3:\n      callvalue\n      dup1\n      iszero\n      tag_9\n      jumpi\n      0x00\n      dup1\n      revert\n    tag_9:\n      pop\n      tag_10\n      tag_11\n      jump\t// in\n    tag_10:\n      mload(0x40)\n      tag_12\n      swap2\n      swap1\n      tag_13\n      jump\t// in\n    tag_12:\n      mload(0x40)\n      dup1\n      swap2\n      sub\n      swap1\n      return\n        /* \"TestCall.sol\":86:107  string public message */\n    tag_4:\n      callvalue\n      dup1\n      iszero\n      tag_14\n      jumpi\n      0x00\n      dup1\n      revert\n    tag_14:\n      pop\n      tag_15\n      tag_16\n      jump\t// in\n    tag_15:\n      mload(0x40)\n      tag_17\n      swap2\n      swap1\n      tag_18\n      jump\t// in\n    tag_17:\n      mload(0x40)\n      dup1\n      swap2\n      sub\n      swap1\n      return\n        /* \"TestCall.sol\":114:127  uint public x */\n    tag_11:\n      sload(0x01)\n      dup2\n      jump\t// out\n        /* \"TestCall.sol\":86:107  string public message */\n    tag_16:\n      0x00\n      dup1\n      sload\n      tag_19\n      swap1\n      tag_20\n      jump\t// in\n    tag_19:\n      dup1\n      0x1f\n      add\n      0x20\n      dup1\n      swap2\n      div\n      mul\n      0x20\n      add\n      mload(0x40)\n      swap1\n      dup2\n      add\n      0x40\n      mstore\n      dup1\n      swap3\n      swap2\n      swap1\n      dup2\n      dup2\n      mstore\n      0x20\n      add\n      dup3\n      dup1\n      sload\n      tag_21\n      swap1\n      tag_20\n      jump\t// in\n    tag_21:\n      dup1\n      iszero\n      tag_22\n      jumpi\n      dup1\n      0x1f\n      lt\n      tag_23\n      jumpi\n      0x0100\n      dup1\n      dup4\n      sload\n      div\n      mul\n      dup4\n      mstore\n      swap2\n      0x20\n      add\n      swap2\n      jump(tag_22)\n    tag_23:\n      dup3\n      add\n      swap2\n      swap1\n      0x00\n      mstore\n      keccak256(0x00, 0x20)\n      swap1\n    tag_24:\n      dup2\n      sload\n      dup2\n      mstore\n      swap1\n      0x01\n      add\n      swap1\n      0x20\n      add\n      dup1\n      dup4\n      gt\n      tag_24\n      jumpi\n      dup3\n      swap1\n      sub\n      0x1f\n      and\n      dup3\n      add\n      swap2\n    tag_22:\n      pop\n      pop\n      pop\n      pop\n      pop\n      dup2\n      jump\t// out\n        /* \"#utility.yul\":7:176   */\n    tag_25:\n        /* \"#utility.yul\":91:102   */\n      0x00\n        /* \"#utility.yul\":125:131   */\n      dup3\n        /* \"#utility.yul\":120:123   */\n      dup3\n        /* \"#utility.yul\":113:132   */\n      mstore\n        /* \"#utility.yul\":165:169   */\n      0x20\n        /* \"#utility.yul\":160:163   */\n      dup3\n        /* \"#utility.yul\":156:170   */\n      add\n        /* \"#utility.yul\":141:170   */\n      swap1\n      pop\n        /* \"#utility.yul\":7:176   */\n      swap3\n      swap2\n      pop\n      pop\n      jump\t// out\n        /* \"#utility.yul\":182:351   */\n    tag_26:\n        /* \"#utility.yul\":322:343   */\n      0x66616c6c6261636b207761732063616c6c656400000000000000000000000000\n        /* \"#utility.yul\":318:319   */\n      0x00\n        /* \"#utility.yul\":310:316   */\n      dup3\n        /* \"#utility.yul\":306:320   */\n      add\n        /* \"#utility.yul\":299:344   */\n      mstore\n        /* \"#utility.yul\":182:351   */\n      pop\n      jump\t// out\n        /* \"#utility.yul\":357:723   */\n    tag_27:\n        /* \"#utility.yul\":499:502   */\n      0x00\n        /* \"#utility.yul\":520:587   */\n      tag_39\n        /* \"#utility.yul\":584:586   */\n      0x13\n        /* \"#utility.yul\":579:582   */\n      dup4\n        /* \"#utility.yul\":520:587   */\n      tag_25\n      jump\t// in\n    tag_39:\n        /* \"#utility.yul\":513:587   */\n      swap2\n      pop\n        /* \"#utility.yul\":596:689   */\n      tag_40\n        /* \"#utility.yul\":685:688   */\n      dup3\n        /* \"#utility.yul\":596:689   */\n      tag_26\n      jump\t// in\n    tag_40:\n        /* \"#utility.yul\":714:716   */\n      0x20\n        /* \"#utility.yul\":709:712   */\n      dup3\n        /* \"#utility.yul\":705:717   */\n      add\n        /* \"#utility.yul\":698:717   */\n      swap1\n      pop\n        /* \"#utility.yul\":357:723   */\n      swap2\n      swap1\n      pop\n      jump\t// out\n        /* \"#utility.yul\":729:1148   */\n    tag_8:\n        /* \"#utility.yul\":895:899   */\n      0x00\n        /* \"#utility.yul\":933:935   */\n      0x20\n        /* \"#utility.yul\":922:931   */\n      dup3\n        /* \"#utility.yul\":918:936   */\n      add\n        /* \"#utility.yul\":910:936   */\n      swap1\n      pop\n        /* \"#utility.yul\":982:991   */\n      dup2\n        /* \"#utility.yul\":976:980   */\n      dup2\n        /* \"#utility.yul\":972:992   */\n      sub\n        /* \"#utility.yul\":968:969   */\n      0x00\n        /* \"#utility.yul\":957:966   */\n      dup4\n        /* \"#utility.yul\":953:970   */\n      add\n        /* \"#utility.yul\":946:993   */\n      mstore\n        /* \"#utility.yul\":1010:1141   */\n      tag_42\n        /* \"#utility.yul\":1136:1140   */\n      dup2\n        /* \"#utility.yul\":1010:1141   */\n      tag_27\n      jump\t// in\n    tag_42:\n        /* \"#utility.yul\":1002:1141   */\n      swap1\n      pop\n        /* \"#utility.yul\":729:1148   */\n      swap2\n      swap1\n      pop\n      jump\t// out\n        /* \"#utility.yul\":1154:1231   */\n    tag_28:\n        /* \"#utility.yul\":1191:1198   */\n      0x00\n        /* \"#utility.yul\":1220:1225   */\n      dup2\n        /* \"#utility.yul\":1209:1225   */\n      swap1\n      pop\n        /* \"#utility.yul\":1154:1231   */\n      swap2\n      swap1\n      pop\n      jump\t// out\n        /* \"#utility.yul\":1237:1355   */\n    tag_29:\n        /* \"#utility.yul\":1324:1348   */\n      tag_45\n        /* \"#utility.yul\":1342:1347   */\n      dup2\n        /* \"#utility.yul\":1324:1348   */\n      tag_28\n      jump\t// in\n    tag_45:\n        /* \"#utility.yul\":1319:1322   */\n      dup3\n        /* \"#utility.yul\":1312:1349   */\n      mstore\n        /* \"#utility.yul\":1237:1355   */\n      pop\n      pop\n      jump\t// out\n        /* \"#utility.yul\":1361:1583   */\n    tag_13:\n        /* \"#utility.yul\":1454:1458   */\n      0x00\n        /* \"#utility.yul\":1492:1494   */\n      0x20\n        /* \"#utility.yul\":1481:1490   */\n      dup3\n        /* \"#utility.yul\":1477:1495   */\n      add\n        /* \"#utility.yul\":1469:1495   */\n      swap1\n      pop\n        /* \"#utility.yul\":1505:1576   */\n      tag_47\n        /* \"#utility.yul\":1573:1574   */\n      0x00\n        /* \"#utility.yul\":1562:1571   */\n      dup4\n        /* \"#utility.yul\":1558:1575   */\n      add\n        /* \"#utility.yul\":1549:1555   */\n      dup5\n        /* \"#utility.yul\":1505:1576   */\n      tag_29\n      jump\t// in\n    tag_47:\n        /* \"#utility.yul\":1361:1583   */\n      swap3\n      swap2\n      pop\n      pop\n      jump\t// out\n        /* \"#utility.yul\":1589:1688   */\n    tag_30:\n        /* \"#utility.yul\":1641:1647   */\n      0x00\n        /* \"#utility.yul\":1675:1680   */\n      dup2\n        /* \"#utility.yul\":1669:1681   */\n      mload\n        /* \"#utility.yul\":1659:1681   */\n      swap1\n      pop\n        /* \"#utility.yul\":1589:1688   */\n      swap2\n      swap1\n      pop\n      jump\t// out\n        /* \"#utility.yul\":1694:1940   */\n    tag_31:\n        /* \"#utility.yul\":1775:1776   */\n      0x00\n        /* \"#utility.yul\":1785:1898   */\n    tag_50:\n        /* \"#utility.yul\":1799:1805   */\n      dup4\n        /* \"#utility.yul\":1796:1797   */\n      dup2\n        /* \"#utility.yul\":1793:1806   */\n      lt\n        /* \"#utility.yul\":1785:1898   */\n      iszero\n      tag_52\n      jumpi\n        /* \"#utility.yul\":1884:1885   */\n      dup1\n        /* \"#utility.yul\":1879:1882   */\n      dup3\n        /* \"#utility.yul\":1875:1886   */\n      add\n        /* \"#utility.yul\":1869:1887   */\n      mload\n        /* \"#utility.yul\":1865:1866   */\n      dup2\n        /* \"#utility.yul\":1860:1863   */\n      dup5\n        /* \"#utility.yul\":1856:1867   */\n      add\n        /* \"#utility.yul\":1849:1888   */\n      mstore\n        /* \"#utility.yul\":1821:1823   */\n      0x20\n        /* \"#utility.yul\":1818:1819   */\n      dup2\n        /* \"#utility.yul\":1814:1824   */\n      add\n        /* \"#utility.yul\":1809:1824   */\n      swap1\n      pop\n        /* \"#utility.yul\":1785:1898   */\n      jump(tag_50)\n    tag_52:\n        /* \"#utility.yul\":1932:1933   */\n      0x00\n        /* \"#utility.yul\":1923:1929   */\n      dup5\n        /* \"#utility.yul\":1918:1921   */\n      dup5\n        /* \"#utility.yul\":1914:1930   */\n      add\n        /* \"#utility.yul\":1907:1934   */\n      mstore\n        /* \"#utility.yul\":1756:1940   */\n      pop\n        /* \"#utility.yul\":1694:1940   */\n      pop\n      pop\n      pop\n      jump\t// out\n        /* \"#utility.yul\":1946:2048   */\n    tag_32:\n        /* \"#utility.yul\":1987:1993   */\n      0x00\n        /* \"#utility.yul\":2038:2040   */\n      0x1f\n        /* \"#utility.yul\":2034:2041   */\n      not\n        /* \"#utility.yul\":2029:2031   */\n      0x1f\n        /* \"#utility.yul\":2022:2027   */\n      dup4\n        /* \"#utility.yul\":2018:2032   */\n      add\n        /* \"#utility.yul\":2014:2042   */\n      and\n        /* \"#utility.yul\":2004:2042   */\n      swap1\n      pop\n        /* \"#utility.yul\":1946:2048   */\n      swap2\n      swap1\n      pop\n      jump\t// out\n        /* \"#utility.yul\":2054:2431   */\n    tag_33:\n        /* \"#utility.yul\":2142:2145   */\n      0x00\n        /* \"#utility.yul\":2170:2209   */\n      tag_55\n        /* \"#utility.yul\":2203:2208   */\n      dup3\n        /* \"#utility.yul\":2170:2209   */\n      tag_30\n      jump\t// in\n    tag_55:\n        /* \"#utility.yul\":2225:2296   */\n      tag_56\n        /* \"#utility.yul\":2289:2295   */\n      dup2\n        /* \"#utility.yul\":2284:2287   */\n      dup6\n        /* \"#utility.yul\":2225:2296   */\n      tag_25\n      jump\t// in\n    tag_56:\n        /* \"#utility.yul\":2218:2296   */\n      swap4\n      pop\n        /* \"#utility.yul\":2305:2370   */\n      tag_57\n        /* \"#utility.yul\":2363:2369   */\n      dup2\n        /* \"#utility.yul\":2358:2361   */\n      dup6\n        /* \"#utility.yul\":2351:2355   */\n      0x20\n        /* \"#utility.yul\":2344:2349   */\n      dup7\n        /* \"#utility.yul\":2340:2356   */\n      add\n        /* \"#utility.yul\":2305:2370   */\n      tag_31\n      jump\t// in\n    tag_57:\n        /* \"#utility.yul\":2395:2424   */\n      tag_58\n        /* \"#utility.yul\":2417:2423   */\n      dup2\n        /* \"#utility.yul\":2395:2424   */\n      tag_32\n      jump\t// in\n    tag_58:\n        /* \"#utility.yul\":2390:2393   */\n      dup5\n        /* \"#utility.yul\":2386:2425   */\n      add\n        /* \"#utility.yul\":2379:2425   */\n      swap2\n      pop\n        /* \"#utility.yul\":2146:2431   */\n      pop\n        /* \"#utility.yul\":2054:2431   */\n      swap3\n      swap2\n      pop\n      pop\n      jump\t// out\n        /* \"#utility.yul\":2437:2750   */\n    tag_18:\n        /* \"#utility.yul\":2550:2554   */\n      0x00\n        /* \"#utility.yul\":2588:2590   */\n      0x20\n        /* \"#utility.yul\":2577:2586   */\n      dup3\n        /* \"#utility.yul\":2573:2591   */\n      add\n        /* \"#utility.yul\":2565:2591   */\n      swap1\n      pop\n        /* \"#utility.yul\":2637:2646   */\n      dup2\n        /* \"#utility.yul\":2631:2635   */\n      dup2\n        /* \"#utility.yul\":2627:2647   */\n      sub\n        /* \"#utility.yul\":2623:2624   */\n      0x00\n        /* \"#utility.yul\":2612:2621   */\n      dup4\n        /* \"#utility.yul\":2608:2625   */\n      add\n        /* \"#utility.yul\":2601:2648   */\n      mstore\n        /* \"#utility.yul\":2665:2743   */\n      tag_60\n        /* \"#utility.yul\":2738:2742   */\n      dup2\n        /* \"#utility.yul\":2729:2735   */\n      dup5\n        /* \"#utility.yul\":2665:2743   */\n      tag_33\n      jump\t// in\n    tag_60:\n        /* \"#utility.yul\":2657:2743   */\n      swap1\n      pop\n        /* \"#utility.yul\":2437:2750   */\n      swap3\n      swap2\n      pop\n      pop\n      jump\t// out\n        /* \"#utility.yul\":2756:2936   */\n    tag_34:\n        /* \"#utility.yul\":2804:2881   */\n      0x4e487b7100000000000000000000000000000000000000000000000000000000\n        /* \"#utility.yul\":2801:2802   */\n      0x00\n        /* \"#utility.yul\":2794:2882   */\n      mstore\n        /* \"#utility.yul\":2901:2905   */\n      0x22\n        /* \"#utility.yul\":2898:2899   */\n      0x04\n        /* \"#utility.yul\":2891:2906   */\n      mstore\n        /* \"#utility.yul\":2925:2929   */\n      0x24\n        /* \"#utility.yul\":2922:2923   */\n      0x00\n        /* \"#utility.yul\":2915:2930   */\n      revert\n        /* \"#utility.yul\":2942:3262   */\n    tag_20:\n        /* \"#utility.yul\":2986:2992   */\n      0x00\n        /* \"#utility.yul\":3023:3024   */\n      0x02\n        /* \"#utility.yul\":3017:3021   */\n      dup3\n        /* \"#utility.yul\":3013:3025   */\n      div\n        /* \"#utility.yul\":3003:3025   */\n      swap1\n      pop\n        /* \"#utility.yul\":3070:3071   */\n      0x01\n        /* \"#utility.yul\":3064:3068   */\n      dup3\n        /* \"#utility.yul\":3060:3072   */\n      and\n        /* \"#utility.yul\":3091:3109   */\n      dup1\n        /* \"#utility.yul\":3081:3162   */\n      tag_63\n      jumpi\n        /* \"#utility.yul\":3147:3151   */\n      0x7f\n        /* \"#utility.yul\":3139:3145   */\n      dup3\n        /* \"#utility.yul\":3135:3152   */\n      and\n        /* \"#utility.yul\":3125:3152   */\n      swap2\n      pop\n        /* \"#utility.yul\":3081:3162   */\n    tag_63:\n        /* \"#utility.yul\":3209:3211   */\n      0x20\n        /* \"#utility.yul\":3201:3207   */\n      dup3\n        /* \"#utility.yul\":3198:3212   */\n      lt\n        /* \"#utility.yul\":3178:3196   */\n      dup2\n        /* \"#utility.yul\":3175:3213   */\n      sub\n        /* \"#utility.yul\":3172:3256   */\n      tag_64\n      jumpi\n        /* \"#utility.yul\":3228:3246   */\n      tag_65\n      tag_34\n      jump\t// in\n    tag_65:\n        /* \"#utility.yul\":3172:3256   */\n    tag_64:\n        /* \"#utility.yul\":2993:3262   */\n      pop\n        /* \"#utility.yul\":2942:3262   */\n      swap2\n      swap1\n      pop\n      jump\t// out\n\n    auxdata: 0xa26469706673582212208264c735cd060e2f5d36e26c7e5876298fb4fe3bd0a7a332ec3f996fb5d2a24664736f6c63430008110033\n}\n",
				"bytecode": {
					"linkReferences": {},
					"object": "608060405234801561001057600080fd5b50610337806100206000396000f3fe60806040526004361061002d5760003560e01c80630c55699c14610065578063e21f37ce146100905761002e565b5b7fcf34ef537ac33ee1ac626ca1587a0a7e8e51561e5514f8cb36afa1c5102b3bab60405161005b906101ac565b60405180910390a1005b34801561007157600080fd5b5061007a6100bb565b60405161008791906101e5565b60405180910390f35b34801561009c57600080fd5b506100a56100c1565b6040516100b2919061027f565b60405180910390f35b60015481565b600080546100ce906102d0565b80601f01602080910402602001604051908101604052809291908181526020018280546100fa906102d0565b80156101475780601f1061011c57610100808354040283529160200191610147565b820191906000526020600020905b81548152906001019060200180831161012a57829003601f168201915b505050505081565b600082825260208201905092915050565b7f66616c6c6261636b207761732063616c6c656400000000000000000000000000600082015250565b600061019660138361014f565b91506101a182610160565b602082019050919050565b600060208201905081810360008301526101c581610189565b9050919050565b6000819050919050565b6101df816101cc565b82525050565b60006020820190506101fa60008301846101d6565b92915050565b600081519050919050565b60005b8381101561022957808201518184015260208101905061020e565b60008484015250505050565b6000601f19601f8301169050919050565b600061025182610200565b61025b818561014f565b935061026b81856020860161020b565b61027481610235565b840191505092915050565b600060208201905081810360008301526102998184610246565b905092915050565b7f4e487b7100000000000000000000000000000000000000000000000000000000600052602260045260246000fd5b600060028204905060018216806102e857607f821691505b6020821081036102fb576102fa6102a1565b5b5091905056fea26469706673582212208264c735cd060e2f5d36e26c7e5876298fb4fe3bd0a7a332ec3f996fb5d2a24664736f6c63430008110033",
					"opcodes": "PUSH1 0x80 PUSH1 0x40 MSTORE CALLVALUE DUP1 ISZERO PUSH2 0x10 JUMPI PUSH1 0x0 DUP1 REVERT JUMPDEST POP PUSH2 0x337 DUP1 PUSH2 0x20 PUSH1 0x0 CODECOPY PUSH1 0x0 RETURN INVALID PUSH1 0x80 PUSH1 0x40 MSTORE PUSH1 0x4 CALLDATASIZE LT PUSH2 0x2D JUMPI PUSH1 0x0 CALLDATALOAD PUSH1 0xE0 SHR DUP1 PUSH4 0xC55699C EQ PUSH2 0x65 JUMPI DUP1 PUSH4 0xE21F37CE EQ PUSH2 0x90 JUMPI PUSH2 0x2E JUMP JUMPDEST JUMPDEST PUSH32 0xCF34EF537AC33EE1AC626CA1587A0A7E8E51561E5514F8CB36AFA1C5102B3BAB PUSH1 0x40 MLOAD PUSH2 0x5B SWAP1 PUSH2 0x1AC JUMP JUMPDEST PUSH1 0x40 MLOAD DUP1 SWAP2 SUB SWAP1 LOG1 STOP JUMPDEST CALLVALUE DUP1 ISZERO PUSH2 0x71 JUMPI PUSH1 0x0 DUP1 REVERT JUMPDEST POP PUSH2 0x7A PUSH2 0xBB JUMP JUMPDEST PUSH1 0x40 MLOAD PUSH2 0x87 SWAP2 SWAP1 PUSH2 0x1E5 JUMP JUMPDEST PUSH1 0x40 MLOAD DUP1 SWAP2 SUB SWAP1 RETURN JUMPDEST CALLVALUE DUP1 ISZERO PUSH2 0x9C JUMPI PUSH1 0x0 DUP1 REVERT JUMPDEST POP PUSH2 0xA5 PUSH2 0xC1 JUMP JUMPDEST PUSH1 0x40 MLOAD PUSH2 0xB2 SWAP2 SWAP1 PUSH2 0x27F JUMP JUMPDEST PUSH1 0x40 MLOAD DUP1 SWAP2 SUB SWAP1 RETURN JUMPDEST PUSH1 0x1 SLOAD DUP2 JUMP JUMPDEST PUSH1 0x0 DUP1 SLOAD PUSH2 0xCE SWAP1 PUSH2 0x2D0 JUMP JUMPDEST DUP1 PUSH1 0x1F ADD PUSH1 0x20 DUP1 SWAP2 DIV MUL PUSH1 0x20 ADD PUSH1 0x40 MLOAD SWAP1 DUP2 ADD PUSH1 0x40 MSTORE DUP1 SWAP3 SWAP2 SWAP1 DUP2 DUP2 MSTORE PUSH1 0x20 ADD DUP3 DUP1 SLOAD PUSH2 0xFA SWAP1 PUSH2 0x2D0 JUMP JUMPDEST DUP1 ISZERO PUSH2 0x147 JUMPI DUP1 PUSH1 0x1F LT PUSH2 0x11C JUMPI PUSH2 0x100 DUP1 DUP4 SLOAD DIV MUL DUP4 MSTORE SWAP2 PUSH1 0x20 ADD SWAP2 PUSH2 0x147 JUMP JUMPDEST DUP3 ADD SWAP2 SWAP1 PUSH1 0x0 MSTORE PUSH1 0x20 PUSH1 0x0 KECCAK256 SWAP1 JUMPDEST DUP2 SLOAD DUP2 MSTORE SWAP1 PUSH1 0x1 ADD SWAP1 PUSH1 0x20 ADD DUP1 DUP4 GT PUSH2 0x12A JUMPI DUP3 SWAP1 SUB PUSH1 0x1F AND DUP3 ADD SWAP2 JUMPDEST POP POP POP POP POP DUP2 JUMP JUMPDEST PUSH1 0x0 DUP3 DUP3 MSTORE PUSH1 0x20 DUP3 ADD SWAP1 POP SWAP3 SWAP2 POP POP JUMP JUMPDEST PUSH32 0x66616C6C6261636B207761732063616C6C656400000000000000000000000000 PUSH1 0x0 DUP3 ADD MSTORE POP JUMP JUMPDEST PUSH1 0x0 PUSH2 0x196 PUSH1 0x13 DUP4 PUSH2 0x14F JUMP JUMPDEST SWAP2 POP PUSH2 0x1A1 DUP3 PUSH2 0x160 JUMP JUMPDEST PUSH1 0x20 DUP3 ADD SWAP1 POP SWAP2 SWAP1 POP JUMP JUMPDEST PUSH1 0x0 PUSH1 0x20 DUP3 ADD SWAP1 POP DUP2 DUP2 SUB PUSH1 0x0 DUP4 ADD MSTORE PUSH2 0x1C5 DUP2 PUSH2 0x189 JUMP JUMPDEST SWAP1 POP SWAP2 SWAP1 POP JUMP JUMPDEST PUSH1 0x0 DUP2 SWAP1 POP SWAP2 SWAP1 POP JUMP JUMPDEST PUSH2 0x1DF DUP2 PUSH2 0x1CC JUMP JUMPDEST DUP3 MSTORE POP POP JUMP JUMPDEST PUSH1 0x0 PUSH1 0x20 DUP3 ADD SWAP1 POP PUSH2 0x1FA PUSH1 0x0 DUP4 ADD DUP5 PUSH2 0x1D6 JUMP JUMPDEST SWAP3 SWAP2 POP POP JUMP JUMPDEST PUSH1 0x0 DUP2 MLOAD SWAP1 POP SWAP2 SWAP1 POP JUMP JUMPDEST PUSH1 0x0 JUMPDEST DUP4 DUP2 LT ISZERO PUSH2 0x229 JUMPI DUP1 DUP3 ADD MLOAD DUP2 DUP5 ADD MSTORE PUSH1 0x20 DUP2 ADD SWAP1 POP PUSH2 0x20E JUMP JUMPDEST PUSH1 0x0 DUP5 DUP5 ADD MSTORE POP POP POP POP JUMP JUMPDEST PUSH1 0x0 PUSH1 0x1F NOT PUSH1 0x1F DUP4 ADD AND SWAP1 POP SWAP2 SWAP1 POP JUMP JUMPDEST PUSH1 0x0 PUSH2 0x251 DUP3 PUSH2 0x200 JUMP JUMPDEST PUSH2 0x25B DUP2 DUP6 PUSH2 0x14F JUMP JUMPDEST SWAP4 POP PUSH2 0x26B DUP2 DUP6 PUSH1 0x20 DUP7 ADD PUSH2 0x20B JUMP JUMPDEST PUSH2 0x274 DUP2 PUSH2 0x235 JUMP JUMPDEST DUP5 ADD SWAP2 POP POP SWAP3 SWAP2 POP POP JUMP JUMPDEST PUSH1 0x0 PUSH1 0x20 DUP3 ADD SWAP1 POP DUP2 DUP2 SUB PUSH1 0x0 DUP4 ADD MSTORE PUSH2 0x299 DUP2 DUP5 PUSH2 0x246 JUMP JUMPDEST SWAP1 POP SWAP3 SWAP2 POP POP JUMP JUMPDEST PUSH32 0x4E487B7100000000000000000000000000000000000000000000000000000000 PUSH1 0x0 MSTORE PUSH1 0x22 PUSH1 0x4 MSTORE PUSH1 0x24 PUSH1 0x0 REVERT JUMPDEST PUSH1 0x0 PUSH1 0x2 DUP3 DIV SWAP1 POP PUSH1 0x1 DUP3 AND DUP1 PUSH2 0x2E8 JUMPI PUSH1 0x7F DUP3 AND SWAP2 POP JUMPDEST PUSH1 0x20 DUP3 LT DUP2 SUB PUSH2 0x2FB JUMPI PUSH2 0x2FA PUSH2 0x2A1 JUMP JUMPDEST JUMPDEST POP SWAP2 SWAP1 POP JUMP INVALID LOG2 PUSH5 0x6970667358 0x22 SLT KECCAK256 DUP3 PUSH5 0xC735CD060E 0x2F 0x5D CALLDATASIZE 0xE2 PUSH13 0x7E5876298FB4FE3BD0A7A332EC EXTCODEHASH SWAP10 PUSH16 0xB5D2A24664736F6C6343000811003300 "
				},
				"gasEstimates": {
					"creation": {
						"codeDepositCost": "164600",
						"executionCost": "208",
						"totalCost": "164808"
					},
					"external": {
						"": "1909",
						"message()": "infinite",
						"x()": "2407"
					}
				},
				"methodIdentifiers": {
					"message()": "e21f37ce",
					"x()": "0c55699c"
				}
			},
			"storageLayout": {
				"storage": [
					{
						"astId": 3,
						"contract": "TestCall.sol:TestCall",
						"label": "message",
						"offset": 0,
						"slot": "0",
						"type": "t_string_storage"
					},
					{
						"astId": 5,
						"contract": "TestCall.sol:TestCall",
						"label": "x",
						"offset": 0,
						"slot": "1",
						"type": "t_uint256"
					}
				],
				"types": {
					"t_string_storage": {
						"encoding": "bytes",
						"label": "string",
						"numberOfBytes": "32"
					},
					"t_uint256": {
						"encoding": "inplace",
						"label": "uint256",
						"numberOfBytes": "32"
					}
				}
			},
			"userdoc": {
				"kind": "user",
				"methods": {},
				"version": 1
			}
		}
	}
}