{
	"test.sol": {
		"test": {
			"abi": [
				{
					"inputs": [],
					"name": "find",
					"outputs": [
						{
							"internalType": "uint256",
							"name": "",
							"type": "uint256"
						}
					],
					"stateMutability": "nonpayable",
					"type": "function"
				},
				{
					"inputs": [],
					"name": "test1",
					"outputs": [
						{
							"internalType": "bytes32",
							"name": "",
							"type": "bytes32"
						}
					],
					"stateMutability": "pure",
					"type": "function"
				}
			],
			"devdoc": {
				"kind": "dev",
				"methods": {},
				"version": 1
			},
			"evm": {
				"assembly": "    /* \"test.sol\":61:436  contract test {... */\n  mstore(0x40, 0x80)\n  callvalue\n  dup1\n  iszero\n  tag_1\n  jumpi\n  0x00\n  dup1\n  revert\ntag_1:\n  pop\n  dataSize(sub_0)\n  dup1\n  dataOffset(sub_0)\n  0x00\n  codecopy\n  0x00\n  return\nstop\n\nsub_0: assembly {\n        /* \"test.sol\":61:436  contract test {... */\n      mstore(0x40, 0x80)\n      callvalue\n      dup1\n      iszero\n      tag_1\n      jumpi\n      0x00\n      dup1\n      revert\n    tag_1:\n      pop\n      jumpi(tag_2, lt(calldatasize, 0x04))\n      shr(0xe0, calldataload(0x00))\n      dup1\n      0x6b59084d\n      eq\n      tag_3\n      jumpi\n      dup1\n      0x70d53be5\n      eq\n      tag_4\n      jumpi\n    tag_2:\n      0x00\n      dup1\n      revert\n        /* \"test.sol\":251:433  function test1() external pure returns (bytes32) {... */\n    tag_3:\n      tag_5\n      tag_6\n      jump\t// in\n    tag_5:\n      mload(0x40)\n      tag_7\n      swap2\n      swap1\n      tag_8\n      jump\t// in\n    tag_7:\n      mload(0x40)\n      dup1\n      swap2\n      sub\n      swap1\n      return\n        /* \"test.sol\":107:243  function find() external returns (uint) {... */\n    tag_4:\n      tag_9\n      tag_10\n      jump\t// in\n    tag_9:\n      mload(0x40)\n      tag_11\n      swap2\n      swap1\n      tag_12\n      jump\t// in\n    tag_11:\n      mload(0x40)\n      dup1\n      swap2\n      sub\n      swap1\n      return\n        /* \"test.sol\":251:433  function test1() external pure returns (bytes32) {... */\n    tag_6:\n        /* \"test.sol\":291:298  bytes32 */\n      0x00\n        /* \"test.sol\":311:326  string memory s */\n      dup1\n        /* \"test.sol\":311:344  string memory s = \"654894s51ad65\" */\n      mload(0x40)\n      dup1\n      0x40\n      add\n      0x40\n      mstore\n      dup1\n      0x0d\n      dup2\n      mstore\n      0x20\n      add\n      0x3635343839347335316164363500000000000000000000000000000000000000\n      dup2\n      mstore\n      pop\n      swap1\n      pop\n        /* \"test.sol\":355:370  string memory x */\n      0x00\n        /* \"test.sol\":355:380  string memory x = \"sadas\" */\n      mload(0x40)\n      dup1\n      0x40\n      add\n      0x40\n      mstore\n      dup1\n      0x05\n      dup2\n      mstore\n      0x20\n      add\n      0x7361646173000000000000000000000000000000000000000000000000000000\n      dup2\n      mstore\n      pop\n      swap1\n      pop\n        /* \"test.sol\":419:420  s */\n      dup2\n        /* \"test.sol\":422:423  x */\n      dup2\n        /* \"test.sol\":408:424  abi.encode(s, x) */\n      add(0x20, mload(0x40))\n      tag_14\n      swap3\n      swap2\n      swap1\n      tag_15\n      jump\t// in\n    tag_14:\n      mload(0x40)\n      0x20\n      dup2\n      dup4\n      sub\n      sub\n      dup2\n      mstore\n      swap1\n      0x40\n      mstore\n        /* \"test.sol\":398:425  keccak256(abi.encode(s, x)) */\n      dup1\n      mload\n      swap1\n      0x20\n      add\n      keccak256\n        /* \"test.sol\":391:425  return keccak256(abi.encode(s, x)) */\n      swap3\n      pop\n      pop\n      pop\n        /* \"test.sol\":251:433  function test1() external pure returns (bytes32) {... */\n      swap1\n      jump\t// out\n        /* \"test.sol\":107:243  function find() external returns (uint) {... */\n    tag_10:\n        /* \"test.sol\":141:145  uint */\n      0x00\n        /* \"test.sol\":158:159  a */\n      dup1\n        /* \"test.sol\":165:166  5 */\n      0x05\n        /* \"test.sol\":158:167  a.push(5) */\n      swap1\n      dup1\n      0x01\n      dup2\n      sload\n      add\n      dup1\n      dup3\n      sstore\n      dup1\n      swap2\n      pop\n      pop\n      0x01\n      swap1\n      sub\n      swap1\n      0x00\n      mstore\n      keccak256(0x00, 0x20)\n      add\n      0x00\n      swap1\n      swap2\n      swap1\n      swap2\n      swap1\n      swap2\n      pop\n      sstore\n        /* \"test.sol\":178:179  a */\n      0x00\n        /* \"test.sol\":185:186  8 */\n      0x08\n        /* \"test.sol\":178:187  a.push(8) */\n      swap1\n      dup1\n      0x01\n      dup2\n      sload\n      add\n      dup1\n      dup3\n      sstore\n      dup1\n      swap2\n      pop\n      pop\n      0x01\n      swap1\n      sub\n      swap1\n      0x00\n      mstore\n      keccak256(0x00, 0x20)\n      add\n      0x00\n      swap1\n      swap2\n      swap1\n      swap2\n      swap1\n      swap2\n      pop\n      sstore\n        /* \"test.sol\":198:199  a */\n      0x00\n        /* \"test.sol\":205:206  0 */\n      dup1\n        /* \"test.sol\":198:207  a.push(0) */\n      dup1\n      0x01\n      dup2\n      sload\n      add\n      dup1\n      dup3\n      sstore\n      dup1\n      swap2\n      pop\n      pop\n      0x01\n      swap1\n      sub\n      swap1\n      0x00\n      mstore\n      keccak256(0x00, 0x20)\n      add\n      0x00\n      swap1\n      swap2\n      swap1\n      swap2\n      swap1\n      swap2\n      pop\n      sstore\n        /* \"test.sol\":227:228  a */\n      0x00\n        /* \"test.sol\":227:235  a.length */\n      dup1\n      sload\n      swap1\n      pop\n        /* \"test.sol\":220:235  return a.length */\n      swap1\n      pop\n        /* \"test.sol\":107:243  function find() external returns (uint) {... */\n      swap1\n      jump\t// out\n        /* \"#utility.yul\":7:84   */\n    tag_20:\n        /* \"#utility.yul\":44:51   */\n      0x00\n        /* \"#utility.yul\":73:78   */\n      dup2\n        /* \"#utility.yul\":62:78   */\n      swap1\n      pop\n        /* \"#utility.yul\":7:84   */\n      swap2\n      swap1\n      pop\n      jump\t// out\n        /* \"#utility.yul\":90:208   */\n    tag_21:\n        /* \"#utility.yul\":177:201   */\n      tag_32\n        /* \"#utility.yul\":195:200   */\n      dup2\n        /* \"#utility.yul\":177:201   */\n      tag_20\n      jump\t// in\n    tag_32:\n        /* \"#utility.yul\":172:175   */\n      dup3\n        /* \"#utility.yul\":165:202   */\n      mstore\n        /* \"#utility.yul\":90:208   */\n      pop\n      pop\n      jump\t// out\n        /* \"#utility.yul\":214:436   */\n    tag_8:\n        /* \"#utility.yul\":307:311   */\n      0x00\n        /* \"#utility.yul\":345:347   */\n      0x20\n        /* \"#utility.yul\":334:343   */\n      dup3\n        /* \"#utility.yul\":330:348   */\n      add\n        /* \"#utility.yul\":322:348   */\n      swap1\n      pop\n        /* \"#utility.yul\":358:429   */\n      tag_34\n        /* \"#utility.yul\":426:427   */\n      0x00\n        /* \"#utility.yul\":415:424   */\n      dup4\n        /* \"#utility.yul\":411:428   */\n      add\n        /* \"#utility.yul\":402:408   */\n      dup5\n        /* \"#utility.yul\":358:429   */\n      tag_21\n      jump\t// in\n    tag_34:\n        /* \"#utility.yul\":214:436   */\n      swap3\n      swap2\n      pop\n      pop\n      jump\t// out\n        /* \"#utility.yul\":442:519   */\n    tag_22:\n        /* \"#utility.yul\":479:486   */\n      0x00\n        /* \"#utility.yul\":508:513   */\n      dup2\n        /* \"#utility.yul\":497:513   */\n      swap1\n      pop\n        /* \"#utility.yul\":442:519   */\n      swap2\n      swap1\n      pop\n      jump\t// out\n        /* \"#utility.yul\":525:643   */\n    tag_23:\n        /* \"#utility.yul\":612:636   */\n      tag_37\n        /* \"#utility.yul\":630:635   */\n      dup2\n        /* \"#utility.yul\":612:636   */\n      tag_22\n      jump\t// in\n    tag_37:\n        /* \"#utility.yul\":607:610   */\n      dup3\n        /* \"#utility.yul\":600:637   */\n      mstore\n        /* \"#utility.yul\":525:643   */\n      pop\n      pop\n      jump\t// out\n        /* \"#utility.yul\":649:871   */\n    tag_12:\n        /* \"#utility.yul\":742:746   */\n      0x00\n        /* \"#utility.yul\":780:782   */\n      0x20\n        /* \"#utility.yul\":769:778   */\n      dup3\n        /* \"#utility.yul\":765:783   */\n      add\n        /* \"#utility.yul\":757:783   */\n      swap1\n      pop\n        /* \"#utility.yul\":793:864   */\n      tag_39\n        /* \"#utility.yul\":861:862   */\n      0x00\n        /* \"#utility.yul\":850:859   */\n      dup4\n        /* \"#utility.yul\":846:863   */\n      add\n        /* \"#utility.yul\":837:843   */\n      dup5\n        /* \"#utility.yul\":793:864   */\n      tag_23\n      jump\t// in\n    tag_39:\n        /* \"#utility.yul\":649:871   */\n      swap3\n      swap2\n      pop\n      pop\n      jump\t// out\n        /* \"#utility.yul\":877:976   */\n    tag_24:\n        /* \"#utility.yul\":929:935   */\n      0x00\n        /* \"#utility.yul\":963:968   */\n      dup2\n        /* \"#utility.yul\":957:969   */\n      mload\n        /* \"#utility.yul\":947:969   */\n      swap1\n      pop\n        /* \"#utility.yul\":877:976   */\n      swap2\n      swap1\n      pop\n      jump\t// out\n        /* \"#utility.yul\":982:1151   */\n    tag_25:\n        /* \"#utility.yul\":1066:1077   */\n      0x00\n        /* \"#utility.yul\":1100:1106   */\n      dup3\n        /* \"#utility.yul\":1095:1098   */\n      dup3\n        /* \"#utility.yul\":1088:1107   */\n      mstore\n        /* \"#utility.yul\":1140:1144   */\n      0x20\n        /* \"#utility.yul\":1135:1138   */\n      dup3\n        /* \"#utility.yul\":1131:1145   */\n      add\n        /* \"#utility.yul\":1116:1145   */\n      swap1\n      pop\n        /* \"#utility.yul\":982:1151   */\n      swap3\n      swap2\n      pop\n      pop\n      jump\t// out\n        /* \"#utility.yul\":1157:1403   */\n    tag_26:\n        /* \"#utility.yul\":1238:1239   */\n      0x00\n        /* \"#utility.yul\":1248:1361   */\n    tag_43:\n        /* \"#utility.yul\":1262:1268   */\n      dup4\n        /* \"#utility.yul\":1259:1260   */\n      dup2\n        /* \"#utility.yul\":1256:1269   */\n      lt\n        /* \"#utility.yul\":1248:1361   */\n      iszero\n      tag_45\n      jumpi\n        /* \"#utility.yul\":1347:1348   */\n      dup1\n        /* \"#utility.yul\":1342:1345   */\n      dup3\n        /* \"#utility.yul\":1338:1349   */\n      add\n        /* \"#utility.yul\":1332:1350   */\n      mload\n        /* \"#utility.yul\":1328:1329   */\n      dup2\n        /* \"#utility.yul\":1323:1326   */\n      dup5\n        /* \"#utility.yul\":1319:1330   */\n      add\n        /* \"#utility.yul\":1312:1351   */\n      mstore\n        /* \"#utility.yul\":1284:1286   */\n      0x20\n        /* \"#utility.yul\":1281:1282   */\n      dup2\n        /* \"#utility.yul\":1277:1287   */\n      add\n        /* \"#utility.yul\":1272:1287   */\n      swap1\n      pop\n        /* \"#utility.yul\":1248:1361   */\n      jump(tag_43)\n    tag_45:\n        /* \"#utility.yul\":1395:1396   */\n      0x00\n        /* \"#utility.yul\":1386:1392   */\n      dup5\n        /* \"#utility.yul\":1381:1384   */\n      dup5\n        /* \"#utility.yul\":1377:1393   */\n      add\n        /* \"#utility.yul\":1370:1397   */\n      mstore\n        /* \"#utility.yul\":1219:1403   */\n      pop\n        /* \"#utility.yul\":1157:1403   */\n      pop\n      pop\n      pop\n      jump\t// out\n        /* \"#utility.yul\":1409:1511   */\n    tag_27:\n        /* \"#utility.yul\":1450:1456   */\n      0x00\n        /* \"#utility.yul\":1501:1503   */\n      0x1f\n        /* \"#utility.yul\":1497:1504   */\n      not\n        /* \"#utility.yul\":1492:1494   */\n      0x1f\n        /* \"#utility.yul\":1485:1490   */\n      dup4\n        /* \"#utility.yul\":1481:1495   */\n      add\n        /* \"#utility.yul\":1477:1505   */\n      and\n        /* \"#utility.yul\":1467:1505   */\n      swap1\n      pop\n        /* \"#utility.yul\":1409:1511   */\n      swap2\n      swap1\n      pop\n      jump\t// out\n        /* \"#utility.yul\":1517:1894   */\n    tag_28:\n        /* \"#utility.yul\":1605:1608   */\n      0x00\n        /* \"#utility.yul\":1633:1672   */\n      tag_48\n        /* \"#utility.yul\":1666:1671   */\n      dup3\n        /* \"#utility.yul\":1633:1672   */\n      tag_24\n      jump\t// in\n    tag_48:\n        /* \"#utility.yul\":1688:1759   */\n      tag_49\n        /* \"#utility.yul\":1752:1758   */\n      dup2\n        /* \"#utility.yul\":1747:1750   */\n      dup6\n        /* \"#utility.yul\":1688:1759   */\n      tag_25\n      jump\t// in\n    tag_49:\n        /* \"#utility.yul\":1681:1759   */\n      swap4\n      pop\n        /* \"#utility.yul\":1768:1833   */\n      tag_50\n        /* \"#utility.yul\":1826:1832   */\n      dup2\n        /* \"#utility.yul\":1821:1824   */\n      dup6\n        /* \"#utility.yul\":1814:1818   */\n      0x20\n        /* \"#utility.yul\":1807:1812   */\n      dup7\n        /* \"#utility.yul\":1803:1819   */\n      add\n        /* \"#utility.yul\":1768:1833   */\n      tag_26\n      jump\t// in\n    tag_50:\n        /* \"#utility.yul\":1858:1887   */\n      tag_51\n        /* \"#utility.yul\":1880:1886   */\n      dup2\n        /* \"#utility.yul\":1858:1887   */\n      tag_27\n      jump\t// in\n    tag_51:\n        /* \"#utility.yul\":1853:1856   */\n      dup5\n        /* \"#utility.yul\":1849:1888   */\n      add\n        /* \"#utility.yul\":1842:1888   */\n      swap2\n      pop\n        /* \"#utility.yul\":1609:1894   */\n      pop\n        /* \"#utility.yul\":1517:1894   */\n      swap3\n      swap2\n      pop\n      pop\n      jump\t// out\n        /* \"#utility.yul\":1900:2414   */\n    tag_15:\n        /* \"#utility.yul\":2061:2065   */\n      0x00\n        /* \"#utility.yul\":2099:2101   */\n      0x40\n        /* \"#utility.yul\":2088:2097   */\n      dup3\n        /* \"#utility.yul\":2084:2102   */\n      add\n        /* \"#utility.yul\":2076:2102   */\n      swap1\n      pop\n        /* \"#utility.yul\":2148:2157   */\n      dup2\n        /* \"#utility.yul\":2142:2146   */\n      dup2\n        /* \"#utility.yul\":2138:2158   */\n      sub\n        /* \"#utility.yul\":2134:2135   */\n      0x00\n        /* \"#utility.yul\":2123:2132   */\n      dup4\n        /* \"#utility.yul\":2119:2136   */\n      add\n        /* \"#utility.yul\":2112:2159   */\n      mstore\n        /* \"#utility.yul\":2176:2254   */\n      tag_53\n        /* \"#utility.yul\":2249:2253   */\n      dup2\n        /* \"#utility.yul\":2240:2246   */\n      dup6\n        /* \"#utility.yul\":2176:2254   */\n      tag_28\n      jump\t// in\n    tag_53:\n        /* \"#utility.yul\":2168:2254   */\n      swap1\n      pop\n        /* \"#utility.yul\":2301:2310   */\n      dup2\n        /* \"#utility.yul\":2295:2299   */\n      dup2\n        /* \"#utility.yul\":2291:2311   */\n      sub\n        /* \"#utility.yul\":2286:2288   */\n      0x20\n        /* \"#utility.yul\":2275:2284   */\n      dup4\n        /* \"#utility.yul\":2271:2289   */\n      add\n        /* \"#utility.yul\":2264:2312   */\n      mstore\n        /* \"#utility.yul\":2329:2407   */\n      tag_54\n        /* \"#utility.yul\":2402:2406   */\n      dup2\n        /* \"#utility.yul\":2393:2399   */\n      dup5\n        /* \"#utility.yul\":2329:2407   */\n      tag_28\n      jump\t// in\n    tag_54:\n        /* \"#utility.yul\":2321:2407   */\n      swap1\n      pop\n        /* \"#utility.yul\":1900:2414   */\n      swap4\n      swap3\n      pop\n      pop\n      pop\n      jump\t// out\n\n    auxdata: 0xa264697066735822122096c8a0a74c82c226eb1d212ee43742379d2385e63d9e5d7f137d6143f7e53e7464736f6c63430008110033\n}\n",
				"bytecode": {
					"linkReferences": {},
					"object": "608060405234801561001057600080fd5b50610309806100206000396000f3fe608060405234801561001057600080fd5b50600436106100365760003560e01c80636b59084d1461003b57806370d53be514610059575b600080fd5b610043610077565b60405161005091906101bd565b60405180910390f35b61006161011c565b60405161006e91906101f1565b60405180910390f35b6000806040518060400160405280600d81526020017f3635343839347335316164363500000000000000000000000000000000000000815250905060006040518060400160405280600581526020017f7361646173000000000000000000000000000000000000000000000000000000815250905081816040516020016100ff92919061029c565b604051602081830303815290604052805190602001209250505090565b6000806005908060018154018082558091505060019003906000526020600020016000909190919091505560006008908060018154018082558091505060019003906000526020600020016000909190919091505560008080600181540180825580915050600190039060005260206000200160009091909190915055600080549050905090565b6000819050919050565b6101b7816101a4565b82525050565b60006020820190506101d260008301846101ae565b92915050565b6000819050919050565b6101eb816101d8565b82525050565b600060208201905061020660008301846101e2565b92915050565b600081519050919050565b600082825260208201905092915050565b60005b8381101561024657808201518184015260208101905061022b565b60008484015250505050565b6000601f19601f8301169050919050565b600061026e8261020c565b6102788185610217565b9350610288818560208601610228565b61029181610252565b840191505092915050565b600060408201905081810360008301526102b68185610263565b905081810360208301526102ca8184610263565b9050939250505056fea264697066735822122096c8a0a74c82c226eb1d212ee43742379d2385e63d9e5d7f137d6143f7e53e7464736f6c63430008110033",
					"opcodes": "PUSH1 0x80 PUSH1 0x40 MSTORE CALLVALUE DUP1 ISZERO PUSH2 0x10 JUMPI PUSH1 0x0 DUP1 REVERT JUMPDEST POP PUSH2 0x309 DUP1 PUSH2 0x20 PUSH1 0x0 CODECOPY PUSH1 0x0 RETURN INVALID PUSH1 0x80 PUSH1 0x40 MSTORE CALLVALUE DUP1 ISZERO PUSH2 0x10 JUMPI PUSH1 0x0 DUP1 REVERT JUMPDEST POP PUSH1 0x4 CALLDATASIZE LT PUSH2 0x36 JUMPI PUSH1 0x0 CALLDATALOAD PUSH1 0xE0 SHR DUP1 PUSH4 0x6B59084D EQ PUSH2 0x3B JUMPI DUP1 PUSH4 0x70D53BE5 EQ PUSH2 0x59 JUMPI JUMPDEST PUSH1 0x0 DUP1 REVERT JUMPDEST PUSH2 0x43 PUSH2 0x77 JUMP JUMPDEST PUSH1 0x40 MLOAD PUSH2 0x50 SWAP2 SWAP1 PUSH2 0x1BD JUMP JUMPDEST PUSH1 0x40 MLOAD DUP1 SWAP2 SUB SWAP1 RETURN JUMPDEST PUSH2 0x61 PUSH2 0x11C JUMP JUMPDEST PUSH1 0x40 MLOAD PUSH2 0x6E SWAP2 SWAP1 PUSH2 0x1F1 JUMP JUMPDEST PUSH1 0x40 MLOAD DUP1 SWAP2 SUB SWAP1 RETURN JUMPDEST PUSH1 0x0 DUP1 PUSH1 0x40 MLOAD DUP1 PUSH1 0x40 ADD PUSH1 0x40 MSTORE DUP1 PUSH1 0xD DUP2 MSTORE PUSH1 0x20 ADD PUSH32 0x3635343839347335316164363500000000000000000000000000000000000000 DUP2 MSTORE POP SWAP1 POP PUSH1 0x0 PUSH1 0x40 MLOAD DUP1 PUSH1 0x40 ADD PUSH1 0x40 MSTORE DUP1 PUSH1 0x5 DUP2 MSTORE PUSH1 0x20 ADD PUSH32 0x7361646173000000000000000000000000000000000000000000000000000000 DUP2 MSTORE POP SWAP1 POP DUP2 DUP2 PUSH1 0x40 MLOAD PUSH1 0x20 ADD PUSH2 0xFF SWAP3 SWAP2 SWAP1 PUSH2 0x29C JUMP JUMPDEST PUSH1 0x40 MLOAD PUSH1 0x20 DUP2 DUP4 SUB SUB DUP2 MSTORE SWAP1 PUSH1 0x40 MSTORE DUP1 MLOAD SWAP1 PUSH1 0x20 ADD KECCAK256 SWAP3 POP POP POP SWAP1 JUMP JUMPDEST PUSH1 0x0 DUP1 PUSH1 0x5 SWAP1 DUP1 PUSH1 0x1 DUP2 SLOAD ADD DUP1 DUP3 SSTORE DUP1 SWAP2 POP POP PUSH1 0x1 SWAP1 SUB SWAP1 PUSH1 0x0 MSTORE PUSH1 0x20 PUSH1 0x0 KECCAK256 ADD PUSH1 0x0 SWAP1 SWAP2 SWAP1 SWAP2 SWAP1 SWAP2 POP SSTORE PUSH1 0x0 PUSH1 0x8 SWAP1 DUP1 PUSH1 0x1 DUP2 SLOAD ADD DUP1 DUP3 SSTORE DUP1 SWAP2 POP POP PUSH1 0x1 SWAP1 SUB SWAP1 PUSH1 0x0 MSTORE PUSH1 0x20 PUSH1 0x0 KECCAK256 ADD PUSH1 0x0 SWAP1 SWAP2 SWAP1 SWAP2 SWAP1 SWAP2 POP SSTORE PUSH1 0x0 DUP1 DUP1 PUSH1 0x1 DUP2 SLOAD ADD DUP1 DUP3 SSTORE DUP1 SWAP2 POP POP PUSH1 0x1 SWAP1 SUB SWAP1 PUSH1 0x0 MSTORE PUSH1 0x20 PUSH1 0x0 KECCAK256 ADD PUSH1 0x0 SWAP1 SWAP2 SWAP1 SWAP2 SWAP1 SWAP2 POP SSTORE PUSH1 0x0 DUP1 SLOAD SWAP1 POP SWAP1 POP SWAP1 JUMP JUMPDEST PUSH1 0x0 DUP2 SWAP1 POP SWAP2 SWAP1 POP JUMP JUMPDEST PUSH2 0x1B7 DUP2 PUSH2 0x1A4 JUMP JUMPDEST DUP3 MSTORE POP POP JUMP JUMPDEST PUSH1 0x0 PUSH1 0x20 DUP3 ADD SWAP1 POP PUSH2 0x1D2 PUSH1 0x0 DUP4 ADD DUP5 PUSH2 0x1AE JUMP JUMPDEST SWAP3 SWAP2 POP POP JUMP JUMPDEST PUSH1 0x0 DUP2 SWAP1 POP SWAP2 SWAP1 POP JUMP JUMPDEST PUSH2 0x1EB DUP2 PUSH2 0x1D8 JUMP JUMPDEST DUP3 MSTORE POP POP JUMP JUMPDEST PUSH1 0x0 PUSH1 0x20 DUP3 ADD SWAP1 POP PUSH2 0x206 PUSH1 0x0 DUP4 ADD DUP5 PUSH2 0x1E2 JUMP JUMPDEST SWAP3 SWAP2 POP POP JUMP JUMPDEST PUSH1 0x0 DUP2 MLOAD SWAP1 POP SWAP2 SWAP1 POP JUMP JUMPDEST PUSH1 0x0 DUP3 DUP3 MSTORE PUSH1 0x20 DUP3 ADD SWAP1 POP SWAP3 SWAP2 POP POP JUMP JUMPDEST PUSH1 0x0 JUMPDEST DUP4 DUP2 LT ISZERO PUSH2 0x246 JUMPI DUP1 DUP3 ADD MLOAD DUP2 DUP5 ADD MSTORE PUSH1 0x20 DUP2 ADD SWAP1 POP PUSH2 0x22B JUMP JUMPDEST PUSH1 0x0 DUP5 DUP5 ADD MSTORE POP POP POP POP JUMP JUMPDEST PUSH1 0x0 PUSH1 0x1F NOT PUSH1 0x1F DUP4 ADD AND SWAP1 POP SWAP2 SWAP1 POP JUMP JUMPDEST PUSH1 0x0 PUSH2 0x26E DUP3 PUSH2 0x20C JUMP JUMPDEST PUSH2 0x278 DUP2 DUP6 PUSH2 0x217 JUMP JUMPDEST SWAP4 POP PUSH2 0x288 DUP2 DUP6 PUSH1 0x20 DUP7 ADD PUSH2 0x228 JUMP JUMPDEST PUSH2 0x291 DUP2 PUSH2 0x252 JUMP JUMPDEST DUP5 ADD SWAP2 POP POP SWAP3 SWAP2 POP POP JUMP JUMPDEST PUSH1 0x0 PUSH1 0x40 DUP3 ADD SWAP1 POP DUP2 DUP2 SUB PUSH1 0x0 DUP4 ADD MSTORE PUSH2 0x2B6 DUP2 DUP6 PUSH2 0x263 JUMP JUMPDEST SWAP1 POP DUP2 DUP2 SUB PUSH1 0x20 DUP4 ADD MSTORE PUSH2 0x2CA DUP2 DUP5 PUSH2 0x263 JUMP JUMPDEST SWAP1 POP SWAP4 SWAP3 POP POP POP JUMP INVALID LOG2 PUSH5 0x6970667358 0x22 SLT KECCAK256 SWAP7 0xC8 LOG0 0xA7 0x4C DUP3 0xC2 0x26 0xEB SAR 0x21 0x2E 0xE4 CALLDATACOPY TIMESTAMP CALLDATACOPY SWAP14 0x23 DUP6 0xE6 RETURNDATASIZE SWAP15 0x5D PUSH32 0x137D6143F7E53E7464736F6C6343000811003300000000000000000000000000 "
				},
				"gasEstimates": {
					"creation": {
						"codeDepositCost": "155400",
						"executionCost": "202",
						"totalCost": "155602"
					},
					"external": {
						"find()": "124611",
						"test1()": "infinite"
					}
				},
				"methodIdentifiers": {
					"find()": "70d53be5",
					"test1()": "6b59084d"
				}
			},
			"storageLayout": {
				"storage": [
					{
						"astId": 4,
						"contract": "test.sol:test",
						"label": "a",
						"offset": 0,
						"slot": "0",
						"type": "t_array(t_uint256)dyn_storage"
					}
				],
				"types": {
					"t_array(t_uint256)dyn_storage": {
						"base": "t_uint256",
						"encoding": "dynamic_array",
						"label": "uint256[]",
						"numberOfBytes": "32"
					},
					"t_uint256": {
						"encoding": "inplace",
						"label": "uint256",
						"numberOfBytes": "32"
					}
				}
			},
			"userdoc": {
				"kind": "user",
				"methods": {},
				"version": 1
			}
		}
	}
}