{
	"MultiSigWallet.sol": {
		"MultiSigWallet": {
			"abi": [
				{
					"inputs": [
						{
							"internalType": "address[]",
							"name": "_owners",
							"type": "address[]"
						},
						{
							"internalType": "uint256",
							"name": "_required",
							"type": "uint256"
						}
					],
					"stateMutability": "nonpayable",
					"type": "constructor"
				},
				{
					"anonymous": false,
					"inputs": [
						{
							"indexed": true,
							"internalType": "address",
							"name": "owner",
							"type": "address"
						},
						{
							"indexed": true,
							"internalType": "uint256",
							"name": "txId",
							"type": "uint256"
						}
					],
					"name": "Approve",
					"type": "event"
				},
				{
					"anonymous": false,
					"inputs": [
						{
							"indexed": true,
							"internalType": "address",
							"name": "sender",
							"type": "address"
						},
						{
							"indexed": false,
							"internalType": "uint256",
							"name": "amount",
							"type": "uint256"
						}
					],
					"name": "Deposit",
					"type": "event"
				},
				{
					"anonymous": false,
					"inputs": [
						{
							"indexed": true,
							"internalType": "uint256",
							"name": "txId",
							"type": "uint256"
						}
					],
					"name": "Excute",
					"type": "event"
				},
				{
					"anonymous": false,
					"inputs": [
						{
							"indexed": true,
							"internalType": "address",
							"name": "owner",
							"type": "address"
						},
						{
							"indexed": true,
							"internalType": "uint256",
							"name": "txId",
							"type": "uint256"
						}
					],
					"name": "Revoke",
					"type": "event"
				},
				{
					"anonymous": false,
					"inputs": [
						{
							"indexed": true,
							"internalType": "uint256",
							"name": "txId",
							"type": "uint256"
						}
					],
					"name": "Submit",
					"type": "event"
				},
				{
					"inputs": [
						{
							"internalType": "uint256",
							"name": "_txId",
							"type": "uint256"
						}
					],
					"name": "approve",
					"outputs": [],
					"stateMutability": "nonpayable",
					"type": "function"
				},
				{
					"inputs": [
						{
							"internalType": "uint256",
							"name": "",
							"type": "uint256"
						},
						{
							"internalType": "address",
							"name": "",
							"type": "address"
						}
					],
					"name": "approved",
					"outputs": [
						{
							"internalType": "bool",
							"name": "",
							"type": "bool"
						}
					],
					"stateMutability": "view",
					"type": "function"
				},
				{
					"inputs": [
						{
							"internalType": "uint256",
							"name": "_txId",
							"type": "uint256"
						}
					],
					"name": "execute",
					"outputs": [],
					"stateMutability": "nonpayable",
					"type": "function"
				},
				{
					"inputs": [
						{
							"internalType": "address",
							"name": "",
							"type": "address"
						}
					],
					"name": "isOwner",
					"outputs": [
						{
							"internalType": "bool",
							"name": "",
							"type": "bool"
						}
					],
					"stateMutability": "view",
					"type": "function"
				},
				{
					"inputs": [
						{
							"internalType": "uint256",
							"name": "",
							"type": "uint256"
						}
					],
					"name": "owners",
					"outputs": [
						{
							"internalType": "address",
							"name": "",
							"type": "address"
						}
					],
					"stateMutability": "view",
					"type": "function"
				},
				{
					"inputs": [],
					"name": "required",
					"outputs": [
						{
							"internalType": "uint256",
							"name": "",
							"type": "uint256"
						}
					],
					"stateMutability": "view",
					"type": "function"
				},
				{
					"inputs": [
						{
							"internalType": "uint256",
							"name": "_txId",
							"type": "uint256"
						}
					],
					"name": "revoke",
					"outputs": [],
					"stateMutability": "nonpayable",
					"type": "function"
				},
				{
					"inputs": [
						{
							"internalType": "address",
							"name": "_to",
							"type": "address"
						},
						{
							"internalType": "uint256",
							"name": "_value",
							"type": "uint256"
						},
						{
							"internalType": "bytes",
							"name": "_data",
							"type": "bytes"
						}
					],
					"name": "submit",
					"outputs": [],
					"stateMutability": "nonpayable",
					"type": "function"
				},
				{
					"inputs": [
						{
							"internalType": "uint256",
							"name": "",
							"type": "uint256"
						}
					],
					"name": "tracsactions",
					"outputs": [
						{
							"internalType": "address",
							"name": "to",
							"type": "address"
						},
						{
							"internalType": "uint256",
							"name": "value",
							"type": "uint256"
						},
						{
							"internalType": "bytes",
							"name": "data",
							"type": "bytes"
						},
						{
							"internalType": "bool",
							"name": "executed",
							"type": "bool"
						}
					],
					"stateMutability": "view",
					"type": "function"
				},
				{
					"stateMutability": "payable",
					"type": "receive"
				}
			],
			"devdoc": {
				"kind": "dev",
				"methods": {},
				"version": 1
			},
			"evm": {
				"assembly": "    /* \"MultiSigWallet.sol\":61:3314  contract MultiSigWallet {... */\n  mstore(0x40, 0x80)\n    /* \"MultiSigWallet.sol\":1175:1726  constructor(address[] memory _owners, uint _required) {... */\n  callvalue\n  dup1\n  iszero\n  tag_1\n  jumpi\n  0x00\n  dup1\n  revert\ntag_1:\n  pop\n  mload(0x40)\n  sub(codesize, bytecodeSize)\n  dup1\n  bytecodeSize\n  dup4\n  codecopy\n  dup2\n  dup2\n  add\n  0x40\n  mstore\n  dup2\n  add\n  swap1\n  tag_2\n  swap2\n  swap1\n  tag_3\n  jump\t// in\ntag_2:\n    /* \"MultiSigWallet.sol\":1265:1266  0 */\n  0x00\n    /* \"MultiSigWallet.sol\":1248:1255  _owners */\n  dup3\n    /* \"MultiSigWallet.sol\":1248:1262  _owners.length */\n  mload\n    /* \"MultiSigWallet.sol\":1248:1266  _owners.length > 0 */\n  gt\n    /* \"MultiSigWallet.sol\":1240:1286  require(_owners.length > 0, \"owners required\") */\n  tag_6\n  jumpi\n  mload(0x40)\n  0x08c379a000000000000000000000000000000000000000000000000000000000\n  dup2\n  mstore\n  0x04\n  add\n  tag_7\n  swap1\n  tag_8\n  jump\t// in\ntag_7:\n  mload(0x40)\n  dup1\n  swap2\n  sub\n  swap1\n  revert\ntag_6:\n    /* \"MultiSigWallet.sol\":1317:1318  0 */\n  0x00\n    /* \"MultiSigWallet.sol\":1305:1314  _required */\n  dup2\n    /* \"MultiSigWallet.sol\":1305:1318  _required > 0 */\n  gt\n    /* \"MultiSigWallet.sol\":1305:1349  _required > 0 && _required <= _owners.length */\n  dup1\n  iszero\n  tag_9\n  jumpi\n  pop\n    /* \"MultiSigWallet.sol\":1335:1342  _owners */\n  dup2\n    /* \"MultiSigWallet.sol\":1335:1349  _owners.length */\n  mload\n    /* \"MultiSigWallet.sol\":1322:1331  _required */\n  dup2\n    /* \"MultiSigWallet.sol\":1322:1349  _required <= _owners.length */\n  gt\n  iszero\n    /* \"MultiSigWallet.sol\":1305:1349  _required > 0 && _required <= _owners.length */\ntag_9:\n    /* \"MultiSigWallet.sol\":1297:1387  require(_required > 0 && _required <= _owners.length, \"invalid required number of owners\") */\n  tag_10\n  jumpi\n  mload(0x40)\n  0x08c379a000000000000000000000000000000000000000000000000000000000\n  dup2\n  mstore\n  0x04\n  add\n  tag_11\n  swap1\n  tag_12\n  jump\t// in\ntag_11:\n  mload(0x40)\n  dup1\n  swap2\n  sub\n  swap1\n  revert\ntag_10:\n    /* \"MultiSigWallet.sol\":1405:1411  uint i */\n  0x00\n    /* \"MultiSigWallet.sol\":1400:1686  for (uint i; i < _owners.length; i++) {... */\ntag_13:\n    /* \"MultiSigWallet.sol\":1417:1424  _owners */\n  dup3\n    /* \"MultiSigWallet.sol\":1417:1431  _owners.length */\n  mload\n    /* \"MultiSigWallet.sol\":1413:1414  i */\n  dup2\n    /* \"MultiSigWallet.sol\":1413:1431  i < _owners.length */\n  lt\n    /* \"MultiSigWallet.sol\":1400:1686  for (uint i; i < _owners.length; i++) {... */\n  iszero\n  tag_14\n  jumpi\n    /* \"MultiSigWallet.sol\":1453:1466  address owner */\n  0x00\n    /* \"MultiSigWallet.sol\":1469:1476  _owners */\n  dup4\n    /* \"MultiSigWallet.sol\":1477:1478  i */\n  dup3\n    /* \"MultiSigWallet.sol\":1469:1479  _owners[i] */\n  dup2\n  mload\n  dup2\n  lt\n  tag_16\n  jumpi\n  tag_17\n  tag_18\n  jump\t// in\ntag_17:\ntag_16:\n  0x20\n  mul\n  0x20\n  add\n  add\n  mload\n    /* \"MultiSigWallet.sol\":1453:1479  address owner = _owners[i] */\n  swap1\n  pop\n    /* \"MultiSigWallet.sol\":1521:1522  0 */\n  0x00\n    /* \"MultiSigWallet.sol\":1504:1523  owner != address(0) */\n  0xffffffffffffffffffffffffffffffffffffffff\n  and\n    /* \"MultiSigWallet.sol\":1504:1509  owner */\n  dup2\n    /* \"MultiSigWallet.sol\":1504:1523  owner != address(0) */\n  0xffffffffffffffffffffffffffffffffffffffff\n  and\n  sub\n    /* \"MultiSigWallet.sol\":1496:1541  require(owner != address(0), \"invaild owner\") */\n  tag_19\n  jumpi\n  mload(0x40)\n  0x08c379a000000000000000000000000000000000000000000000000000000000\n  dup2\n  mstore\n  0x04\n  add\n  tag_20\n  swap1\n  tag_21\n  jump\t// in\ntag_20:\n  mload(0x40)\n  dup1\n  swap2\n  sub\n  swap1\n  revert\ntag_19:\n    /* \"MultiSigWallet.sol\":1565:1572  isOwner */\n  0x01\n    /* \"MultiSigWallet.sol\":1565:1579  isOwner[owner] */\n  0x00\n    /* \"MultiSigWallet.sol\":1573:1578  owner */\n  dup3\n    /* \"MultiSigWallet.sol\":1565:1579  isOwner[owner] */\n  0xffffffffffffffffffffffffffffffffffffffff\n  and\n  0xffffffffffffffffffffffffffffffffffffffff\n  and\n  dup2\n  mstore\n  0x20\n  add\n  swap1\n  dup2\n  mstore\n  0x20\n  add\n  0x00\n  keccak256\n  0x00\n  swap1\n  sload\n  swap1\n  0x0100\n  exp\n  swap1\n  div\n  0xff\n  and\n    /* \"MultiSigWallet.sol\":1564:1579  !isOwner[owner] */\n  iszero\n    /* \"MultiSigWallet.sol\":1556:1603  require(!isOwner[owner], \"owner is not uinque\") */\n  tag_22\n  jumpi\n  mload(0x40)\n  0x08c379a000000000000000000000000000000000000000000000000000000000\n  dup2\n  mstore\n  0x04\n  add\n  tag_23\n  swap1\n  tag_24\n  jump\t// in\ntag_23:\n  mload(0x40)\n  dup1\n  swap2\n  sub\n  swap1\n  revert\ntag_22:\n    /* \"MultiSigWallet.sol\":1637:1641  true */\n  0x01\n    /* \"MultiSigWallet.sol\":1620:1627  isOwner */\n  dup1\n    /* \"MultiSigWallet.sol\":1620:1634  isOwner[owner] */\n  0x00\n    /* \"MultiSigWallet.sol\":1628:1633  owner */\n  dup4\n    /* \"MultiSigWallet.sol\":1620:1634  isOwner[owner] */\n  0xffffffffffffffffffffffffffffffffffffffff\n  and\n  0xffffffffffffffffffffffffffffffffffffffff\n  and\n  dup2\n  mstore\n  0x20\n  add\n  swap1\n  dup2\n  mstore\n  0x20\n  add\n  0x00\n  keccak256\n  0x00\n    /* \"MultiSigWallet.sol\":1620:1641  isOwner[owner] = true */\n  0x0100\n  exp\n  dup2\n  sload\n  dup2\n  0xff\n  mul\n  not\n  and\n  swap1\n  dup4\n  iszero\n  iszero\n  mul\n  or\n  swap1\n  sstore\n  pop\n    /* \"MultiSigWallet.sol\":1656:1662  owners */\n  0x00\n    /* \"MultiSigWallet.sol\":1668:1673  owner */\n  dup2\n    /* \"MultiSigWallet.sol\":1656:1674  owners.push(owner) */\n  swap1\n  dup1\n  0x01\n  dup2\n  sload\n  add\n  dup1\n  dup3\n  sstore\n  dup1\n  swap2\n  pop\n  pop\n  0x01\n  swap1\n  sub\n  swap1\n  0x00\n  mstore\n  keccak256(0x00, 0x20)\n  add\n  0x00\n  swap1\n  swap2\n  swap1\n  swap2\n  swap1\n  swap2\n  0x0100\n  exp\n  dup2\n  sload\n  dup2\n  0xffffffffffffffffffffffffffffffffffffffff\n  mul\n  not\n  and\n  swap1\n  dup4\n  0xffffffffffffffffffffffffffffffffffffffff\n  and\n  mul\n  or\n  swap1\n  sstore\n  pop\n    /* \"MultiSigWallet.sol\":1438:1686  {... */\n  pop\n    /* \"MultiSigWallet.sol\":1433:1436  i++ */\n  dup1\n  dup1\n  tag_26\n  swap1\n  tag_27\n  jump\t// in\ntag_26:\n  swap2\n  pop\n  pop\n    /* \"MultiSigWallet.sol\":1400:1686  for (uint i; i < _owners.length; i++) {... */\n  jump(tag_13)\ntag_14:\n  pop\n    /* \"MultiSigWallet.sol\":1709:1718  _required */\n  dup1\n    /* \"MultiSigWallet.sol\":1698:1706  required */\n  0x02\n    /* \"MultiSigWallet.sol\":1698:1718  required = _required */\n  dup2\n  swap1\n  sstore\n  pop\n    /* \"MultiSigWallet.sol\":1175:1726  constructor(address[] memory _owners, uint _required) {... */\n  pop\n  pop\n    /* \"MultiSigWallet.sol\":61:3314  contract MultiSigWallet {... */\n  jump(tag_28)\n    /* \"#utility.yul\":7:82   */\ntag_29:\n    /* \"#utility.yul\":40:46   */\n  0x00\n    /* \"#utility.yul\":73:75   */\n  0x40\n    /* \"#utility.yul\":67:76   */\n  mload\n    /* \"#utility.yul\":57:76   */\n  swap1\n  pop\n    /* \"#utility.yul\":7:82   */\n  swap1\n  jump\t// out\n    /* \"#utility.yul\":88:205   */\ntag_30:\n    /* \"#utility.yul\":197:198   */\n  0x00\n    /* \"#utility.yul\":194:195   */\n  dup1\n    /* \"#utility.yul\":187:199   */\n  revert\n    /* \"#utility.yul\":211:328   */\ntag_31:\n    /* \"#utility.yul\":320:321   */\n  0x00\n    /* \"#utility.yul\":317:318   */\n  dup1\n    /* \"#utility.yul\":310:322   */\n  revert\n    /* \"#utility.yul\":334:451   */\ntag_32:\n    /* \"#utility.yul\":443:444   */\n  0x00\n    /* \"#utility.yul\":440:441   */\n  dup1\n    /* \"#utility.yul\":433:445   */\n  revert\n    /* \"#utility.yul\":457:559   */\ntag_33:\n    /* \"#utility.yul\":498:504   */\n  0x00\n    /* \"#utility.yul\":549:551   */\n  0x1f\n    /* \"#utility.yul\":545:552   */\n  not\n    /* \"#utility.yul\":540:542   */\n  0x1f\n    /* \"#utility.yul\":533:538   */\n  dup4\n    /* \"#utility.yul\":529:543   */\n  add\n    /* \"#utility.yul\":525:553   */\n  and\n    /* \"#utility.yul\":515:553   */\n  swap1\n  pop\n    /* \"#utility.yul\":457:559   */\n  swap2\n  swap1\n  pop\n  jump\t// out\n    /* \"#utility.yul\":565:745   */\ntag_34:\n    /* \"#utility.yul\":613:690   */\n  0x4e487b7100000000000000000000000000000000000000000000000000000000\n    /* \"#utility.yul\":610:611   */\n  0x00\n    /* \"#utility.yul\":603:691   */\n  mstore\n    /* \"#utility.yul\":710:714   */\n  0x41\n    /* \"#utility.yul\":707:708   */\n  0x04\n    /* \"#utility.yul\":700:715   */\n  mstore\n    /* \"#utility.yul\":734:738   */\n  0x24\n    /* \"#utility.yul\":731:732   */\n  0x00\n    /* \"#utility.yul\":724:739   */\n  revert\n    /* \"#utility.yul\":751:1032   */\ntag_35:\n    /* \"#utility.yul\":834:861   */\n  tag_66\n    /* \"#utility.yul\":856:860   */\n  dup3\n    /* \"#utility.yul\":834:861   */\n  tag_33\n  jump\t// in\ntag_66:\n    /* \"#utility.yul\":826:832   */\n  dup2\n    /* \"#utility.yul\":822:862   */\n  add\n    /* \"#utility.yul\":964:970   */\n  dup2\n    /* \"#utility.yul\":952:962   */\n  dup2\n    /* \"#utility.yul\":949:971   */\n  lt\n    /* \"#utility.yul\":928:946   */\n  0xffffffffffffffff\n    /* \"#utility.yul\":916:926   */\n  dup3\n    /* \"#utility.yul\":913:947   */\n  gt\n    /* \"#utility.yul\":910:972   */\n  or\n    /* \"#utility.yul\":907:995   */\n  iszero\n  tag_67\n  jumpi\n    /* \"#utility.yul\":975:993   */\n  tag_68\n  tag_34\n  jump\t// in\ntag_68:\n    /* \"#utility.yul\":907:995   */\ntag_67:\n    /* \"#utility.yul\":1015:1025   */\n  dup1\n    /* \"#utility.yul\":1011:1013   */\n  0x40\n    /* \"#utility.yul\":1004:1026   */\n  mstore\n    /* \"#utility.yul\":794:1032   */\n  pop\n    /* \"#utility.yul\":751:1032   */\n  pop\n  pop\n  jump\t// out\n    /* \"#utility.yul\":1038:1167   */\ntag_36:\n    /* \"#utility.yul\":1072:1078   */\n  0x00\n    /* \"#utility.yul\":1099:1119   */\n  tag_70\n  tag_29\n  jump\t// in\ntag_70:\n    /* \"#utility.yul\":1089:1119   */\n  swap1\n  pop\n    /* \"#utility.yul\":1128:1161   */\n  tag_71\n    /* \"#utility.yul\":1156:1160   */\n  dup3\n    /* \"#utility.yul\":1148:1154   */\n  dup3\n    /* \"#utility.yul\":1128:1161   */\n  tag_35\n  jump\t// in\ntag_71:\n    /* \"#utility.yul\":1038:1167   */\n  swap2\n  swap1\n  pop\n  jump\t// out\n    /* \"#utility.yul\":1173:1484   */\ntag_37:\n    /* \"#utility.yul\":1250:1254   */\n  0x00\n    /* \"#utility.yul\":1340:1358   */\n  0xffffffffffffffff\n    /* \"#utility.yul\":1332:1338   */\n  dup3\n    /* \"#utility.yul\":1329:1359   */\n  gt\n    /* \"#utility.yul\":1326:1382   */\n  iszero\n  tag_73\n  jumpi\n    /* \"#utility.yul\":1362:1380   */\n  tag_74\n  tag_34\n  jump\t// in\ntag_74:\n    /* \"#utility.yul\":1326:1382   */\ntag_73:\n    /* \"#utility.yul\":1412:1416   */\n  0x20\n    /* \"#utility.yul\":1404:1410   */\n  dup3\n    /* \"#utility.yul\":1400:1417   */\n  mul\n    /* \"#utility.yul\":1392:1417   */\n  swap1\n  pop\n    /* \"#utility.yul\":1472:1476   */\n  0x20\n    /* \"#utility.yul\":1466:1470   */\n  dup2\n    /* \"#utility.yul\":1462:1477   */\n  add\n    /* \"#utility.yul\":1454:1477   */\n  swap1\n  pop\n    /* \"#utility.yul\":1173:1484   */\n  swap2\n  swap1\n  pop\n  jump\t// out\n    /* \"#utility.yul\":1490:1607   */\ntag_38:\n    /* \"#utility.yul\":1599:1600   */\n  0x00\n    /* \"#utility.yul\":1596:1597   */\n  dup1\n    /* \"#utility.yul\":1589:1601   */\n  revert\n    /* \"#utility.yul\":1613:1739   */\ntag_39:\n    /* \"#utility.yul\":1650:1657   */\n  0x00\n    /* \"#utility.yul\":1690:1732   */\n  0xffffffffffffffffffffffffffffffffffffffff\n    /* \"#utility.yul\":1683:1688   */\n  dup3\n    /* \"#utility.yul\":1679:1733   */\n  and\n    /* \"#utility.yul\":1668:1733   */\n  swap1\n  pop\n    /* \"#utility.yul\":1613:1739   */\n  swap2\n  swap1\n  pop\n  jump\t// out\n    /* \"#utility.yul\":1745:1841   */\ntag_40:\n    /* \"#utility.yul\":1782:1789   */\n  0x00\n    /* \"#utility.yul\":1811:1835   */\n  tag_78\n    /* \"#utility.yul\":1829:1834   */\n  dup3\n    /* \"#utility.yul\":1811:1835   */\n  tag_39\n  jump\t// in\ntag_78:\n    /* \"#utility.yul\":1800:1835   */\n  swap1\n  pop\n    /* \"#utility.yul\":1745:1841   */\n  swap2\n  swap1\n  pop\n  jump\t// out\n    /* \"#utility.yul\":1847:1969   */\ntag_41:\n    /* \"#utility.yul\":1920:1944   */\n  tag_80\n    /* \"#utility.yul\":1938:1943   */\n  dup2\n    /* \"#utility.yul\":1920:1944   */\n  tag_40\n  jump\t// in\ntag_80:\n    /* \"#utility.yul\":1913:1918   */\n  dup2\n    /* \"#utility.yul\":1910:1945   */\n  eq\n    /* \"#utility.yul\":1900:1963   */\n  tag_81\n  jumpi\n    /* \"#utility.yul\":1959:1960   */\n  0x00\n    /* \"#utility.yul\":1956:1957   */\n  dup1\n    /* \"#utility.yul\":1949:1961   */\n  revert\n    /* \"#utility.yul\":1900:1963   */\ntag_81:\n    /* \"#utility.yul\":1847:1969   */\n  pop\n  jump\t// out\n    /* \"#utility.yul\":1975:2118   */\ntag_42:\n    /* \"#utility.yul\":2032:2037   */\n  0x00\n    /* \"#utility.yul\":2063:2069   */\n  dup2\n    /* \"#utility.yul\":2057:2070   */\n  mload\n    /* \"#utility.yul\":2048:2070   */\n  swap1\n  pop\n    /* \"#utility.yul\":2079:2112   */\n  tag_83\n    /* \"#utility.yul\":2106:2111   */\n  dup2\n    /* \"#utility.yul\":2079:2112   */\n  tag_41\n  jump\t// in\ntag_83:\n    /* \"#utility.yul\":1975:2118   */\n  swap3\n  swap2\n  pop\n  pop\n  jump\t// out\n    /* \"#utility.yul\":2141:2873   */\ntag_43:\n    /* \"#utility.yul\":2248:2253   */\n  0x00\n    /* \"#utility.yul\":2273:2354   */\n  tag_85\n    /* \"#utility.yul\":2289:2353   */\n  tag_86\n    /* \"#utility.yul\":2346:2352   */\n  dup5\n    /* \"#utility.yul\":2289:2353   */\n  tag_37\n  jump\t// in\ntag_86:\n    /* \"#utility.yul\":2273:2354   */\n  tag_36\n  jump\t// in\ntag_85:\n    /* \"#utility.yul\":2264:2354   */\n  swap1\n  pop\n    /* \"#utility.yul\":2374:2379   */\n  dup1\n    /* \"#utility.yul\":2403:2409   */\n  dup4\n    /* \"#utility.yul\":2396:2401   */\n  dup3\n    /* \"#utility.yul\":2389:2410   */\n  mstore\n    /* \"#utility.yul\":2437:2441   */\n  0x20\n    /* \"#utility.yul\":2430:2435   */\n  dup3\n    /* \"#utility.yul\":2426:2442   */\n  add\n    /* \"#utility.yul\":2419:2442   */\n  swap1\n  pop\n    /* \"#utility.yul\":2490:2494   */\n  0x20\n    /* \"#utility.yul\":2482:2488   */\n  dup5\n    /* \"#utility.yul\":2478:2495   */\n  mul\n    /* \"#utility.yul\":2470:2476   */\n  dup4\n    /* \"#utility.yul\":2466:2496   */\n  add\n    /* \"#utility.yul\":2519:2522   */\n  dup6\n    /* \"#utility.yul\":2511:2517   */\n  dup2\n    /* \"#utility.yul\":2508:2523   */\n  gt\n    /* \"#utility.yul\":2505:2627   */\n  iszero\n  tag_87\n  jumpi\n    /* \"#utility.yul\":2538:2617   */\n  tag_88\n  tag_38\n  jump\t// in\ntag_88:\n    /* \"#utility.yul\":2505:2627   */\ntag_87:\n    /* \"#utility.yul\":2653:2659   */\n  dup4\n    /* \"#utility.yul\":2636:2867   */\ntag_89:\n    /* \"#utility.yul\":2670:2676   */\n  dup2\n    /* \"#utility.yul\":2665:2668   */\n  dup2\n    /* \"#utility.yul\":2662:2677   */\n  lt\n    /* \"#utility.yul\":2636:2867   */\n  iszero\n  tag_91\n  jumpi\n    /* \"#utility.yul\":2745:2748   */\n  dup1\n    /* \"#utility.yul\":2774:2822   */\n  tag_92\n    /* \"#utility.yul\":2818:2821   */\n  dup9\n    /* \"#utility.yul\":2806:2816   */\n  dup3\n    /* \"#utility.yul\":2774:2822   */\n  tag_42\n  jump\t// in\ntag_92:\n    /* \"#utility.yul\":2769:2772   */\n  dup5\n    /* \"#utility.yul\":2762:2823   */\n  mstore\n    /* \"#utility.yul\":2852:2856   */\n  0x20\n    /* \"#utility.yul\":2847:2850   */\n  dup5\n    /* \"#utility.yul\":2843:2857   */\n  add\n    /* \"#utility.yul\":2836:2857   */\n  swap4\n  pop\n    /* \"#utility.yul\":2712:2867   */\n  pop\n    /* \"#utility.yul\":2696:2700   */\n  0x20\n    /* \"#utility.yul\":2691:2694   */\n  dup2\n    /* \"#utility.yul\":2687:2701   */\n  add\n    /* \"#utility.yul\":2680:2701   */\n  swap1\n  pop\n    /* \"#utility.yul\":2636:2867   */\n  jump(tag_89)\ntag_91:\n    /* \"#utility.yul\":2640:2661   */\n  pop\n    /* \"#utility.yul\":2254:2873   */\n  pop\n  pop\n    /* \"#utility.yul\":2141:2873   */\n  swap4\n  swap3\n  pop\n  pop\n  pop\n  jump\t// out\n    /* \"#utility.yul\":2896:3281   */\ntag_44:\n    /* \"#utility.yul\":2978:2983   */\n  0x00\n    /* \"#utility.yul\":3027:3030   */\n  dup3\n    /* \"#utility.yul\":3020:3024   */\n  0x1f\n    /* \"#utility.yul\":3012:3018   */\n  dup4\n    /* \"#utility.yul\":3008:3025   */\n  add\n    /* \"#utility.yul\":3004:3031   */\n  slt\n    /* \"#utility.yul\":2994:3116   */\n  tag_94\n  jumpi\n    /* \"#utility.yul\":3035:3114   */\n  tag_95\n  tag_32\n  jump\t// in\ntag_95:\n    /* \"#utility.yul\":2994:3116   */\ntag_94:\n    /* \"#utility.yul\":3145:3151   */\n  dup2\n    /* \"#utility.yul\":3139:3152   */\n  mload\n    /* \"#utility.yul\":3170:3275   */\n  tag_96\n    /* \"#utility.yul\":3271:3274   */\n  dup5\n    /* \"#utility.yul\":3263:3269   */\n  dup3\n    /* \"#utility.yul\":3256:3260   */\n  0x20\n    /* \"#utility.yul\":3248:3254   */\n  dup7\n    /* \"#utility.yul\":3244:3261   */\n  add\n    /* \"#utility.yul\":3170:3275   */\n  tag_43\n  jump\t// in\ntag_96:\n    /* \"#utility.yul\":3161:3275   */\n  swap2\n  pop\n    /* \"#utility.yul\":2984:3281   */\n  pop\n    /* \"#utility.yul\":2896:3281   */\n  swap3\n  swap2\n  pop\n  pop\n  jump\t// out\n    /* \"#utility.yul\":3287:3364   */\ntag_45:\n    /* \"#utility.yul\":3324:3331   */\n  0x00\n    /* \"#utility.yul\":3353:3358   */\n  dup2\n    /* \"#utility.yul\":3342:3358   */\n  swap1\n  pop\n    /* \"#utility.yul\":3287:3364   */\n  swap2\n  swap1\n  pop\n  jump\t// out\n    /* \"#utility.yul\":3370:3492   */\ntag_46:\n    /* \"#utility.yul\":3443:3467   */\n  tag_99\n    /* \"#utility.yul\":3461:3466   */\n  dup2\n    /* \"#utility.yul\":3443:3467   */\n  tag_45\n  jump\t// in\ntag_99:\n    /* \"#utility.yul\":3436:3441   */\n  dup2\n    /* \"#utility.yul\":3433:3468   */\n  eq\n    /* \"#utility.yul\":3423:3486   */\n  tag_100\n  jumpi\n    /* \"#utility.yul\":3482:3483   */\n  0x00\n    /* \"#utility.yul\":3479:3480   */\n  dup1\n    /* \"#utility.yul\":3472:3484   */\n  revert\n    /* \"#utility.yul\":3423:3486   */\ntag_100:\n    /* \"#utility.yul\":3370:3492   */\n  pop\n  jump\t// out\n    /* \"#utility.yul\":3498:3641   */\ntag_47:\n    /* \"#utility.yul\":3555:3560   */\n  0x00\n    /* \"#utility.yul\":3586:3592   */\n  dup2\n    /* \"#utility.yul\":3580:3593   */\n  mload\n    /* \"#utility.yul\":3571:3593   */\n  swap1\n  pop\n    /* \"#utility.yul\":3602:3635   */\n  tag_102\n    /* \"#utility.yul\":3629:3634   */\n  dup2\n    /* \"#utility.yul\":3602:3635   */\n  tag_46\n  jump\t// in\ntag_102:\n    /* \"#utility.yul\":3498:3641   */\n  swap3\n  swap2\n  pop\n  pop\n  jump\t// out\n    /* \"#utility.yul\":3647:4357   */\ntag_3:\n    /* \"#utility.yul\":3751:3757   */\n  0x00\n    /* \"#utility.yul\":3759:3765   */\n  dup1\n    /* \"#utility.yul\":3808:3810   */\n  0x40\n    /* \"#utility.yul\":3796:3805   */\n  dup4\n    /* \"#utility.yul\":3787:3794   */\n  dup6\n    /* \"#utility.yul\":3783:3806   */\n  sub\n    /* \"#utility.yul\":3779:3811   */\n  slt\n    /* \"#utility.yul\":3776:3895   */\n  iszero\n  tag_104\n  jumpi\n    /* \"#utility.yul\":3814:3893   */\n  tag_105\n  tag_30\n  jump\t// in\ntag_105:\n    /* \"#utility.yul\":3776:3895   */\ntag_104:\n    /* \"#utility.yul\":3955:3956   */\n  0x00\n    /* \"#utility.yul\":3944:3953   */\n  dup4\n    /* \"#utility.yul\":3940:3957   */\n  add\n    /* \"#utility.yul\":3934:3958   */\n  mload\n    /* \"#utility.yul\":3985:4003   */\n  0xffffffffffffffff\n    /* \"#utility.yul\":3977:3983   */\n  dup2\n    /* \"#utility.yul\":3974:4004   */\n  gt\n    /* \"#utility.yul\":3971:4088   */\n  iszero\n  tag_106\n  jumpi\n    /* \"#utility.yul\":4007:4086   */\n  tag_107\n  tag_31\n  jump\t// in\ntag_107:\n    /* \"#utility.yul\":3971:4088   */\ntag_106:\n    /* \"#utility.yul\":4112:4201   */\n  tag_108\n    /* \"#utility.yul\":4193:4200   */\n  dup6\n    /* \"#utility.yul\":4184:4190   */\n  dup3\n    /* \"#utility.yul\":4173:4182   */\n  dup7\n    /* \"#utility.yul\":4169:4191   */\n  add\n    /* \"#utility.yul\":4112:4201   */\n  tag_44\n  jump\t// in\ntag_108:\n    /* \"#utility.yul\":4102:4201   */\n  swap3\n  pop\n    /* \"#utility.yul\":3905:4211   */\n  pop\n    /* \"#utility.yul\":4250:4252   */\n  0x20\n    /* \"#utility.yul\":4276:4340   */\n  tag_109\n    /* \"#utility.yul\":4332:4339   */\n  dup6\n    /* \"#utility.yul\":4323:4329   */\n  dup3\n    /* \"#utility.yul\":4312:4321   */\n  dup7\n    /* \"#utility.yul\":4308:4330   */\n  add\n    /* \"#utility.yul\":4276:4340   */\n  tag_47\n  jump\t// in\ntag_109:\n    /* \"#utility.yul\":4266:4340   */\n  swap2\n  pop\n    /* \"#utility.yul\":4221:4350   */\n  pop\n    /* \"#utility.yul\":3647:4357   */\n  swap3\n  pop\n  swap3\n  swap1\n  pop\n  jump\t// out\n    /* \"#utility.yul\":4363:4532   */\ntag_48:\n    /* \"#utility.yul\":4447:4458   */\n  0x00\n    /* \"#utility.yul\":4481:4487   */\n  dup3\n    /* \"#utility.yul\":4476:4479   */\n  dup3\n    /* \"#utility.yul\":4469:4488   */\n  mstore\n    /* \"#utility.yul\":4521:4525   */\n  0x20\n    /* \"#utility.yul\":4516:4519   */\n  dup3\n    /* \"#utility.yul\":4512:4526   */\n  add\n    /* \"#utility.yul\":4497:4526   */\n  swap1\n  pop\n    /* \"#utility.yul\":4363:4532   */\n  swap3\n  swap2\n  pop\n  pop\n  jump\t// out\n    /* \"#utility.yul\":4538:4703   */\ntag_49:\n    /* \"#utility.yul\":4678:4695   */\n  0x6f776e6572732072657175697265640000000000000000000000000000000000\n    /* \"#utility.yul\":4674:4675   */\n  0x00\n    /* \"#utility.yul\":4666:4672   */\n  dup3\n    /* \"#utility.yul\":4662:4676   */\n  add\n    /* \"#utility.yul\":4655:4696   */\n  mstore\n    /* \"#utility.yul\":4538:4703   */\n  pop\n  jump\t// out\n    /* \"#utility.yul\":4709:5075   */\ntag_50:\n    /* \"#utility.yul\":4851:4854   */\n  0x00\n    /* \"#utility.yul\":4872:4939   */\n  tag_113\n    /* \"#utility.yul\":4936:4938   */\n  0x0f\n    /* \"#utility.yul\":4931:4934   */\n  dup4\n    /* \"#utility.yul\":4872:4939   */\n  tag_48\n  jump\t// in\ntag_113:\n    /* \"#utility.yul\":4865:4939   */\n  swap2\n  pop\n    /* \"#utility.yul\":4948:5041   */\n  tag_114\n    /* \"#utility.yul\":5037:5040   */\n  dup3\n    /* \"#utility.yul\":4948:5041   */\n  tag_49\n  jump\t// in\ntag_114:\n    /* \"#utility.yul\":5066:5068   */\n  0x20\n    /* \"#utility.yul\":5061:5064   */\n  dup3\n    /* \"#utility.yul\":5057:5069   */\n  add\n    /* \"#utility.yul\":5050:5069   */\n  swap1\n  pop\n    /* \"#utility.yul\":4709:5075   */\n  swap2\n  swap1\n  pop\n  jump\t// out\n    /* \"#utility.yul\":5081:5500   */\ntag_8:\n    /* \"#utility.yul\":5247:5251   */\n  0x00\n    /* \"#utility.yul\":5285:5287   */\n  0x20\n    /* \"#utility.yul\":5274:5283   */\n  dup3\n    /* \"#utility.yul\":5270:5288   */\n  add\n    /* \"#utility.yul\":5262:5288   */\n  swap1\n  pop\n    /* \"#utility.yul\":5334:5343   */\n  dup2\n    /* \"#utility.yul\":5328:5332   */\n  dup2\n    /* \"#utility.yul\":5324:5344   */\n  sub\n    /* \"#utility.yul\":5320:5321   */\n  0x00\n    /* \"#utility.yul\":5309:5318   */\n  dup4\n    /* \"#utility.yul\":5305:5322   */\n  add\n    /* \"#utility.yul\":5298:5345   */\n  mstore\n    /* \"#utility.yul\":5362:5493   */\n  tag_116\n    /* \"#utility.yul\":5488:5492   */\n  dup2\n    /* \"#utility.yul\":5362:5493   */\n  tag_50\n  jump\t// in\ntag_116:\n    /* \"#utility.yul\":5354:5493   */\n  swap1\n  pop\n    /* \"#utility.yul\":5081:5500   */\n  swap2\n  swap1\n  pop\n  jump\t// out\n    /* \"#utility.yul\":5506:5726   */\ntag_51:\n    /* \"#utility.yul\":5646:5680   */\n  0x696e76616c6964207265717569726564206e756d626572206f66206f776e6572\n    /* \"#utility.yul\":5642:5643   */\n  0x00\n    /* \"#utility.yul\":5634:5640   */\n  dup3\n    /* \"#utility.yul\":5630:5644   */\n  add\n    /* \"#utility.yul\":5623:5681   */\n  mstore\n    /* \"#utility.yul\":5715:5718   */\n  0x7300000000000000000000000000000000000000000000000000000000000000\n    /* \"#utility.yul\":5710:5712   */\n  0x20\n    /* \"#utility.yul\":5702:5708   */\n  dup3\n    /* \"#utility.yul\":5698:5713   */\n  add\n    /* \"#utility.yul\":5691:5719   */\n  mstore\n    /* \"#utility.yul\":5506:5726   */\n  pop\n  jump\t// out\n    /* \"#utility.yul\":5732:6098   */\ntag_52:\n    /* \"#utility.yul\":5874:5877   */\n  0x00\n    /* \"#utility.yul\":5895:5962   */\n  tag_119\n    /* \"#utility.yul\":5959:5961   */\n  0x21\n    /* \"#utility.yul\":5954:5957   */\n  dup4\n    /* \"#utility.yul\":5895:5962   */\n  tag_48\n  jump\t// in\ntag_119:\n    /* \"#utility.yul\":5888:5962   */\n  swap2\n  pop\n    /* \"#utility.yul\":5971:6064   */\n  tag_120\n    /* \"#utility.yul\":6060:6063   */\n  dup3\n    /* \"#utility.yul\":5971:6064   */\n  tag_51\n  jump\t// in\ntag_120:\n    /* \"#utility.yul\":6089:6091   */\n  0x40\n    /* \"#utility.yul\":6084:6087   */\n  dup3\n    /* \"#utility.yul\":6080:6092   */\n  add\n    /* \"#utility.yul\":6073:6092   */\n  swap1\n  pop\n    /* \"#utility.yul\":5732:6098   */\n  swap2\n  swap1\n  pop\n  jump\t// out\n    /* \"#utility.yul\":6104:6523   */\ntag_12:\n    /* \"#utility.yul\":6270:6274   */\n  0x00\n    /* \"#utility.yul\":6308:6310   */\n  0x20\n    /* \"#utility.yul\":6297:6306   */\n  dup3\n    /* \"#utility.yul\":6293:6311   */\n  add\n    /* \"#utility.yul\":6285:6311   */\n  swap1\n  pop\n    /* \"#utility.yul\":6357:6366   */\n  dup2\n    /* \"#utility.yul\":6351:6355   */\n  dup2\n    /* \"#utility.yul\":6347:6367   */\n  sub\n    /* \"#utility.yul\":6343:6344   */\n  0x00\n    /* \"#utility.yul\":6332:6341   */\n  dup4\n    /* \"#utility.yul\":6328:6345   */\n  add\n    /* \"#utility.yul\":6321:6368   */\n  mstore\n    /* \"#utility.yul\":6385:6516   */\n  tag_122\n    /* \"#utility.yul\":6511:6515   */\n  dup2\n    /* \"#utility.yul\":6385:6516   */\n  tag_52\n  jump\t// in\ntag_122:\n    /* \"#utility.yul\":6377:6516   */\n  swap1\n  pop\n    /* \"#utility.yul\":6104:6523   */\n  swap2\n  swap1\n  pop\n  jump\t// out\n    /* \"#utility.yul\":6529:6709   */\ntag_18:\n    /* \"#utility.yul\":6577:6654   */\n  0x4e487b7100000000000000000000000000000000000000000000000000000000\n    /* \"#utility.yul\":6574:6575   */\n  0x00\n    /* \"#utility.yul\":6567:6655   */\n  mstore\n    /* \"#utility.yul\":6674:6678   */\n  0x32\n    /* \"#utility.yul\":6671:6672   */\n  0x04\n    /* \"#utility.yul\":6664:6679   */\n  mstore\n    /* \"#utility.yul\":6698:6702   */\n  0x24\n    /* \"#utility.yul\":6695:6696   */\n  0x00\n    /* \"#utility.yul\":6688:6703   */\n  revert\n    /* \"#utility.yul\":6715:6878   */\ntag_53:\n    /* \"#utility.yul\":6855:6870   */\n  0x696e7661696c64206f776e657200000000000000000000000000000000000000\n    /* \"#utility.yul\":6851:6852   */\n  0x00\n    /* \"#utility.yul\":6843:6849   */\n  dup3\n    /* \"#utility.yul\":6839:6853   */\n  add\n    /* \"#utility.yul\":6832:6871   */\n  mstore\n    /* \"#utility.yul\":6715:6878   */\n  pop\n  jump\t// out\n    /* \"#utility.yul\":6884:7250   */\ntag_54:\n    /* \"#utility.yul\":7026:7029   */\n  0x00\n    /* \"#utility.yul\":7047:7114   */\n  tag_126\n    /* \"#utility.yul\":7111:7113   */\n  0x0d\n    /* \"#utility.yul\":7106:7109   */\n  dup4\n    /* \"#utility.yul\":7047:7114   */\n  tag_48\n  jump\t// in\ntag_126:\n    /* \"#utility.yul\":7040:7114   */\n  swap2\n  pop\n    /* \"#utility.yul\":7123:7216   */\n  tag_127\n    /* \"#utility.yul\":7212:7215   */\n  dup3\n    /* \"#utility.yul\":7123:7216   */\n  tag_53\n  jump\t// in\ntag_127:\n    /* \"#utility.yul\":7241:7243   */\n  0x20\n    /* \"#utility.yul\":7236:7239   */\n  dup3\n    /* \"#utility.yul\":7232:7244   */\n  add\n    /* \"#utility.yul\":7225:7244   */\n  swap1\n  pop\n    /* \"#utility.yul\":6884:7250   */\n  swap2\n  swap1\n  pop\n  jump\t// out\n    /* \"#utility.yul\":7256:7675   */\ntag_21:\n    /* \"#utility.yul\":7422:7426   */\n  0x00\n    /* \"#utility.yul\":7460:7462   */\n  0x20\n    /* \"#utility.yul\":7449:7458   */\n  dup3\n    /* \"#utility.yul\":7445:7463   */\n  add\n    /* \"#utility.yul\":7437:7463   */\n  swap1\n  pop\n    /* \"#utility.yul\":7509:7518   */\n  dup2\n    /* \"#utility.yul\":7503:7507   */\n  dup2\n    /* \"#utility.yul\":7499:7519   */\n  sub\n    /* \"#utility.yul\":7495:7496   */\n  0x00\n    /* \"#utility.yul\":7484:7493   */\n  dup4\n    /* \"#utility.yul\":7480:7497   */\n  add\n    /* \"#utility.yul\":7473:7520   */\n  mstore\n    /* \"#utility.yul\":7537:7668   */\n  tag_129\n    /* \"#utility.yul\":7663:7667   */\n  dup2\n    /* \"#utility.yul\":7537:7668   */\n  tag_54\n  jump\t// in\ntag_129:\n    /* \"#utility.yul\":7529:7668   */\n  swap1\n  pop\n    /* \"#utility.yul\":7256:7675   */\n  swap2\n  swap1\n  pop\n  jump\t// out\n    /* \"#utility.yul\":7681:7850   */\ntag_55:\n    /* \"#utility.yul\":7821:7842   */\n  0x6f776e6572206973206e6f742075696e71756500000000000000000000000000\n    /* \"#utility.yul\":7817:7818   */\n  0x00\n    /* \"#utility.yul\":7809:7815   */\n  dup3\n    /* \"#utility.yul\":7805:7819   */\n  add\n    /* \"#utility.yul\":7798:7843   */\n  mstore\n    /* \"#utility.yul\":7681:7850   */\n  pop\n  jump\t// out\n    /* \"#utility.yul\":7856:8222   */\ntag_56:\n    /* \"#utility.yul\":7998:8001   */\n  0x00\n    /* \"#utility.yul\":8019:8086   */\n  tag_132\n    /* \"#utility.yul\":8083:8085   */\n  0x13\n    /* \"#utility.yul\":8078:8081   */\n  dup4\n    /* \"#utility.yul\":8019:8086   */\n  tag_48\n  jump\t// in\ntag_132:\n    /* \"#utility.yul\":8012:8086   */\n  swap2\n  pop\n    /* \"#utility.yul\":8095:8188   */\n  tag_133\n    /* \"#utility.yul\":8184:8187   */\n  dup3\n    /* \"#utility.yul\":8095:8188   */\n  tag_55\n  jump\t// in\ntag_133:\n    /* \"#utility.yul\":8213:8215   */\n  0x20\n    /* \"#utility.yul\":8208:8211   */\n  dup3\n    /* \"#utility.yul\":8204:8216   */\n  add\n    /* \"#utility.yul\":8197:8216   */\n  swap1\n  pop\n    /* \"#utility.yul\":7856:8222   */\n  swap2\n  swap1\n  pop\n  jump\t// out\n    /* \"#utility.yul\":8228:8647   */\ntag_24:\n    /* \"#utility.yul\":8394:8398   */\n  0x00\n    /* \"#utility.yul\":8432:8434   */\n  0x20\n    /* \"#utility.yul\":8421:8430   */\n  dup3\n    /* \"#utility.yul\":8417:8435   */\n  add\n    /* \"#utility.yul\":8409:8435   */\n  swap1\n  pop\n    /* \"#utility.yul\":8481:8490   */\n  dup2\n    /* \"#utility.yul\":8475:8479   */\n  dup2\n    /* \"#utility.yul\":8471:8491   */\n  sub\n    /* \"#utility.yul\":8467:8468   */\n  0x00\n    /* \"#utility.yul\":8456:8465   */\n  dup4\n    /* \"#utility.yul\":8452:8469   */\n  add\n    /* \"#utility.yul\":8445:8492   */\n  mstore\n    /* \"#utility.yul\":8509:8640   */\n  tag_135\n    /* \"#utility.yul\":8635:8639   */\n  dup2\n    /* \"#utility.yul\":8509:8640   */\n  tag_56\n  jump\t// in\ntag_135:\n    /* \"#utility.yul\":8501:8640   */\n  swap1\n  pop\n    /* \"#utility.yul\":8228:8647   */\n  swap2\n  swap1\n  pop\n  jump\t// out\n    /* \"#utility.yul\":8653:8833   */\ntag_57:\n    /* \"#utility.yul\":8701:8778   */\n  0x4e487b7100000000000000000000000000000000000000000000000000000000\n    /* \"#utility.yul\":8698:8699   */\n  0x00\n    /* \"#utility.yul\":8691:8779   */\n  mstore\n    /* \"#utility.yul\":8798:8802   */\n  0x11\n    /* \"#utility.yul\":8795:8796   */\n  0x04\n    /* \"#utility.yul\":8788:8803   */\n  mstore\n    /* \"#utility.yul\":8822:8826   */\n  0x24\n    /* \"#utility.yul\":8819:8820   */\n  0x00\n    /* \"#utility.yul\":8812:8827   */\n  revert\n    /* \"#utility.yul\":8839:9072   */\ntag_27:\n    /* \"#utility.yul\":8878:8881   */\n  0x00\n    /* \"#utility.yul\":8901:8925   */\n  tag_138\n    /* \"#utility.yul\":8919:8924   */\n  dup3\n    /* \"#utility.yul\":8901:8925   */\n  tag_45\n  jump\t// in\ntag_138:\n    /* \"#utility.yul\":8892:8925   */\n  swap2\n  pop\n    /* \"#utility.yul\":8947:9013   */\n  0xffffffffffffffffffffffffffffffffffffffffffffffffffffffffffffffff\n    /* \"#utility.yul\":8940:8945   */\n  dup3\n    /* \"#utility.yul\":8937:9014   */\n  sub\n    /* \"#utility.yul\":8934:9037   */\n  tag_139\n  jumpi\n    /* \"#utility.yul\":9017:9035   */\n  tag_140\n  tag_57\n  jump\t// in\ntag_140:\n    /* \"#utility.yul\":8934:9037   */\ntag_139:\n    /* \"#utility.yul\":9064:9065   */\n  0x01\n    /* \"#utility.yul\":9057:9062   */\n  dup3\n    /* \"#utility.yul\":9053:9066   */\n  add\n    /* \"#utility.yul\":9046:9066   */\n  swap1\n  pop\n    /* \"#utility.yul\":8839:9072   */\n  swap2\n  swap1\n  pop\n  jump\t// out\n    /* \"MultiSigWallet.sol\":61:3314  contract MultiSigWallet {... */\ntag_28:\n  dataSize(sub_0)\n  dup1\n  dataOffset(sub_0)\n  0x00\n  codecopy\n  0x00\n  return\nstop\n\nsub_0: assembly {\n        /* \"MultiSigWallet.sol\":61:3314  contract MultiSigWallet {... */\n      mstore(0x40, 0x80)\n      jumpi(tag_1, lt(calldatasize, 0x04))\n      shr(0xe0, calldataload(0x00))\n      dup1\n      0x2f54bf6e\n      gt\n      tag_12\n      jumpi\n      dup1\n      0x2f54bf6e\n      eq\n      tag_7\n      jumpi\n      dup1\n      0x8253951a\n      eq\n      tag_8\n      jumpi\n      dup1\n      0xb759f954\n      eq\n      tag_9\n      jumpi\n      dup1\n      0xdc8452cd\n      eq\n      tag_10\n      jumpi\n      dup1\n      0xfe0d94c1\n      eq\n      tag_11\n      jumpi\n      jump(tag_2)\n    tag_12:\n      dup1\n      0x025e7c27\n      eq\n      tag_3\n      jumpi\n      dup1\n      0x14de327f\n      eq\n      tag_4\n      jumpi\n      dup1\n      0x20c5429b\n      eq\n      tag_5\n      jumpi\n      dup1\n      0x23d27284\n      eq\n      tag_6\n      jumpi\n      jump(tag_2)\n    tag_1:\n      jumpi(tag_2, calldatasize)\n        /* \"MultiSigWallet.sol\":1785:1795  msg.sender */\n      caller\n        /* \"MultiSigWallet.sol\":1777:1807  Deposit(msg.sender, msg.value) */\n      0xffffffffffffffffffffffffffffffffffffffff\n      and\n      0xe1fffcc4923d04b559f4d29a8bfc6cda04eb5b0d3c460751c2402c5c5cc9109c\n        /* \"MultiSigWallet.sol\":1797:1806  msg.value */\n      callvalue\n        /* \"MultiSigWallet.sol\":1777:1807  Deposit(msg.sender, msg.value) */\n      mload(0x40)\n      tag_15\n      swap2\n      swap1\n      tag_16\n      jump\t// in\n    tag_15:\n      mload(0x40)\n      dup1\n      swap2\n      sub\n      swap1\n      log2\n        /* \"MultiSigWallet.sol\":61:3314  contract MultiSigWallet {... */\n      stop\n    tag_2:\n      0x00\n      dup1\n      revert\n        /* \"MultiSigWallet.sol\":472:495  address[] public owners */\n    tag_3:\n      callvalue\n      dup1\n      iszero\n      tag_17\n      jumpi\n      0x00\n      dup1\n      revert\n    tag_17:\n      pop\n      tag_18\n      0x04\n      dup1\n      calldatasize\n      sub\n      dup2\n      add\n      swap1\n      tag_19\n      swap2\n      swap1\n      tag_20\n      jump\t// in\n    tag_19:\n      tag_21\n      jump\t// in\n    tag_18:\n      mload(0x40)\n      tag_22\n      swap2\n      swap1\n      tag_23\n      jump\t// in\n    tag_22:\n      mload(0x40)\n      dup1\n      swap2\n      sub\n      swap1\n      return\n        /* \"MultiSigWallet.sol\":1823:2144  function submit(address _to, uint _value, bytes calldata _data)... */\n    tag_4:\n      callvalue\n      dup1\n      iszero\n      tag_24\n      jumpi\n      0x00\n      dup1\n      revert\n    tag_24:\n      pop\n      tag_25\n      0x04\n      dup1\n      calldatasize\n      sub\n      dup2\n      add\n      swap1\n      tag_26\n      swap2\n      swap1\n      tag_27\n      jump\t// in\n    tag_26:\n      tag_28\n      jump\t// in\n    tag_25:\n      stop\n        /* \"MultiSigWallet.sol\":3103:3311  function revoke(uint _txId) ... */\n    tag_5:\n      callvalue\n      dup1\n      iszero\n      tag_29\n      jumpi\n      0x00\n      dup1\n      revert\n    tag_29:\n      pop\n      tag_30\n      0x04\n      dup1\n      calldatasize\n      sub\n      dup2\n      add\n      swap1\n      tag_31\n      swap2\n      swap1\n      tag_20\n      jump\t// in\n    tag_31:\n      tag_32\n      jump\t// in\n    tag_30:\n      stop\n        /* \"MultiSigWallet.sol\":577:610  Transaction[] public tracsactions */\n    tag_6:\n      callvalue\n      dup1\n      iszero\n      tag_33\n      jumpi\n      0x00\n      dup1\n      revert\n    tag_33:\n      pop\n      tag_34\n      0x04\n      dup1\n      calldatasize\n      sub\n      dup2\n      add\n      swap1\n      tag_35\n      swap2\n      swap1\n      tag_20\n      jump\t// in\n    tag_35:\n      tag_36\n      jump\t// in\n    tag_34:\n      mload(0x40)\n      tag_37\n      swap5\n      swap4\n      swap3\n      swap2\n      swap1\n      tag_38\n      jump\t// in\n    tag_37:\n      mload(0x40)\n      dup1\n      swap2\n      sub\n      swap1\n      return\n        /* \"MultiSigWallet.sol\":502:541  mapping(address => bool) public isOwner */\n    tag_7:\n      callvalue\n      dup1\n      iszero\n      tag_39\n      jumpi\n      0x00\n      dup1\n      revert\n    tag_39:\n      pop\n      tag_40\n      0x04\n      dup1\n      calldatasize\n      sub\n      dup2\n      add\n      swap1\n      tag_41\n      swap2\n      swap1\n      tag_42\n      jump\t// in\n    tag_41:\n      tag_43\n      jump\t// in\n    tag_40:\n      mload(0x40)\n      tag_44\n      swap2\n      swap1\n      tag_45\n      jump\t// in\n    tag_44:\n      mload(0x40)\n      dup1\n      swap2\n      sub\n      swap1\n      return\n        /* \"MultiSigWallet.sol\":617:674  mapping(uint => mapping(address => bool)) public approved */\n    tag_8:\n      callvalue\n      dup1\n      iszero\n      tag_46\n      jumpi\n      0x00\n      dup1\n      revert\n    tag_46:\n      pop\n      tag_47\n      0x04\n      dup1\n      calldatasize\n      sub\n      dup2\n      add\n      swap1\n      tag_48\n      swap2\n      swap1\n      tag_49\n      jump\t// in\n    tag_48:\n      tag_50\n      jump\t// in\n    tag_47:\n      mload(0x40)\n      tag_51\n      swap2\n      swap1\n      tag_45\n      jump\t// in\n    tag_51:\n      mload(0x40)\n      dup1\n      swap2\n      sub\n      swap1\n      return\n        /* \"MultiSigWallet.sol\":2152:2399  function approve(uint _txId)... */\n    tag_9:\n      callvalue\n      dup1\n      iszero\n      tag_52\n      jumpi\n      0x00\n      dup1\n      revert\n    tag_52:\n      pop\n      tag_53\n      0x04\n      dup1\n      calldatasize\n      sub\n      dup2\n      add\n      swap1\n      tag_54\n      swap2\n      swap1\n      tag_20\n      jump\t// in\n    tag_54:\n      tag_55\n      jump\t// in\n    tag_53:\n      stop\n        /* \"MultiSigWallet.sol\":548:568  uint public required */\n    tag_10:\n      callvalue\n      dup1\n      iszero\n      tag_56\n      jumpi\n      0x00\n      dup1\n      revert\n    tag_56:\n      pop\n      tag_57\n      tag_58\n      jump\t// in\n    tag_57:\n      mload(0x40)\n      tag_59\n      swap2\n      swap1\n      tag_16\n      jump\t// in\n    tag_59:\n      mload(0x40)\n      dup1\n      swap2\n      sub\n      swap1\n      return\n        /* \"MultiSigWallet.sol\":2643:3095  function execute(uint _txId) external txExists(_txId) notExecuted(_txId) {... */\n    tag_11:\n      callvalue\n      dup1\n      iszero\n      tag_60\n      jumpi\n      0x00\n      dup1\n      revert\n    tag_60:\n      pop\n      tag_61\n      0x04\n      dup1\n      calldatasize\n      sub\n      dup2\n      add\n      swap1\n      tag_62\n      swap2\n      swap1\n      tag_20\n      jump\t// in\n    tag_62:\n      tag_63\n      jump\t// in\n    tag_61:\n      stop\n        /* \"MultiSigWallet.sol\":472:495  address[] public owners */\n    tag_21:\n      0x00\n      dup2\n      dup2\n      sload\n      dup2\n      lt\n      tag_64\n      jumpi\n      0x00\n      dup1\n      revert\n    tag_64:\n      swap1\n      0x00\n      mstore\n      keccak256(0x00, 0x20)\n      add\n      0x00\n      swap2\n      pop\n      sload\n      swap1\n      0x0100\n      exp\n      swap1\n      div\n      0xffffffffffffffffffffffffffffffffffffffff\n      and\n      dup2\n      jump\t// out\n        /* \"MultiSigWallet.sol\":1823:2144  function submit(address _to, uint _value, bytes calldata _data)... */\n    tag_28:\n        /* \"MultiSigWallet.sol\":723:730  isOwner */\n      0x01\n        /* \"MultiSigWallet.sol\":723:742  isOwner[msg.sender] */\n      0x00\n        /* \"MultiSigWallet.sol\":731:741  msg.sender */\n      caller\n        /* \"MultiSigWallet.sol\":723:742  isOwner[msg.sender] */\n      0xffffffffffffffffffffffffffffffffffffffff\n      and\n      0xffffffffffffffffffffffffffffffffffffffff\n      and\n      dup2\n      mstore\n      0x20\n      add\n      swap1\n      dup2\n      mstore\n      0x20\n      add\n      0x00\n      keccak256\n      0x00\n      swap1\n      sload\n      swap1\n      0x0100\n      exp\n      swap1\n      div\n      0xff\n      and\n        /* \"MultiSigWallet.sol\":715:756  require(isOwner[msg.sender], \"not Owner\") */\n      tag_67\n      jumpi\n      mload(0x40)\n      0x08c379a000000000000000000000000000000000000000000000000000000000\n      dup2\n      mstore\n      0x04\n      add\n      tag_68\n      swap1\n      tag_69\n      jump\t// in\n    tag_68:\n      mload(0x40)\n      dup1\n      swap2\n      sub\n      swap1\n      revert\n    tag_67:\n        /* \"MultiSigWallet.sol\":1940:1952  tracsactions */\n      0x03\n        /* \"MultiSigWallet.sol\":1958:2088  Transaction({... */\n      mload(0x40)\n      dup1\n      0x80\n      add\n      0x40\n      mstore\n      dup1\n        /* \"MultiSigWallet.sol\":1989:1992  _to */\n      dup7\n        /* \"MultiSigWallet.sol\":1958:2088  Transaction({... */\n      0xffffffffffffffffffffffffffffffffffffffff\n      and\n      dup2\n      mstore\n      0x20\n      add\n        /* \"MultiSigWallet.sol\":2014:2020  _value */\n      dup6\n        /* \"MultiSigWallet.sol\":1958:2088  Transaction({... */\n      dup2\n      mstore\n      0x20\n      add\n        /* \"MultiSigWallet.sol\":2041:2046  _data */\n      dup5\n      dup5\n        /* \"MultiSigWallet.sol\":1958:2088  Transaction({... */\n      dup1\n      dup1\n      0x1f\n      add\n      0x20\n      dup1\n      swap2\n      div\n      mul\n      0x20\n      add\n      mload(0x40)\n      swap1\n      dup2\n      add\n      0x40\n      mstore\n      dup1\n      swap4\n      swap3\n      swap2\n      swap1\n      dup2\n      dup2\n      mstore\n      0x20\n      add\n      dup4\n      dup4\n      dup1\n      dup3\n      dup5\n      calldatacopy\n      0x00\n      dup2\n      dup5\n      add\n      mstore\n      not(0x1f)\n      0x1f\n      dup3\n      add\n      and\n      swap1\n      pop\n      dup1\n      dup4\n      add\n      swap3\n      pop\n      pop\n      pop\n      pop\n      pop\n      pop\n      pop\n      dup2\n      mstore\n      0x20\n      add\n        /* \"MultiSigWallet.sol\":2071:2076  false */\n      0x00\n        /* \"MultiSigWallet.sol\":1958:2088  Transaction({... */\n      iszero\n      iszero\n      dup2\n      mstore\n      pop\n        /* \"MultiSigWallet.sol\":1940:2089  tracsactions.push(Transaction({... */\n      swap1\n      dup1\n      0x01\n      dup2\n      sload\n      add\n      dup1\n      dup3\n      sstore\n      dup1\n      swap2\n      pop\n      pop\n      0x01\n      swap1\n      sub\n      swap1\n      0x00\n      mstore\n      keccak256(0x00, 0x20)\n      swap1\n      0x04\n      mul\n      add\n      0x00\n      swap1\n      swap2\n      swap1\n      swap2\n      swap1\n      swap2\n      pop\n      0x00\n      dup3\n      add\n      mload\n      dup2\n      0x00\n      add\n      exp(0x0100, 0x00)\n      dup2\n      sload\n      dup2\n      0xffffffffffffffffffffffffffffffffffffffff\n      mul\n      not\n      and\n      swap1\n      dup4\n      0xffffffffffffffffffffffffffffffffffffffff\n      and\n      mul\n      or\n      swap1\n      sstore\n      pop\n      0x20\n      dup3\n      add\n      mload\n      dup2\n      0x01\n      add\n      sstore\n      0x40\n      dup3\n      add\n      mload\n      dup2\n      0x02\n      add\n      swap1\n      dup2\n      tag_72\n      swap2\n      swap1\n      tag_73\n      jump\t// in\n    tag_72:\n      pop\n      0x60\n      dup3\n      add\n      mload\n      dup2\n      0x03\n      add\n      exp(0x0100, 0x00)\n      dup2\n      sload\n      dup2\n      0xff\n      mul\n      not\n      and\n      swap1\n      dup4\n      iszero\n      iszero\n      mul\n      or\n      swap1\n      sstore\n      pop\n      pop\n      pop\n        /* \"MultiSigWallet.sol\":2134:2135  1 */\n      0x01\n        /* \"MultiSigWallet.sol\":2112:2124  tracsactions */\n      0x03\n        /* \"MultiSigWallet.sol\":2112:2131  tracsactions.length */\n      dup1\n      sload\n      swap1\n      pop\n        /* \"MultiSigWallet.sol\":2112:2135  tracsactions.length - 1 */\n      tag_74\n      swap2\n      swap1\n      tag_75\n      jump\t// in\n    tag_74:\n        /* \"MultiSigWallet.sol\":2105:2136  Submit(tracsactions.length - 1) */\n      0x08324b3d745b914e3abd4ffbfead91e3b78391a98c173202129215ab933adfbe\n      mload(0x40)\n      mload(0x40)\n      dup1\n      swap2\n      sub\n      swap1\n      log2\n        /* \"MultiSigWallet.sol\":1823:2144  function submit(address _to, uint _value, bytes calldata _data)... */\n      pop\n      pop\n      pop\n      pop\n      jump\t// out\n        /* \"MultiSigWallet.sol\":3103:3311  function revoke(uint _txId) ... */\n    tag_32:\n        /* \"MultiSigWallet.sol\":723:730  isOwner */\n      0x01\n        /* \"MultiSigWallet.sol\":723:742  isOwner[msg.sender] */\n      0x00\n        /* \"MultiSigWallet.sol\":731:741  msg.sender */\n      caller\n        /* \"MultiSigWallet.sol\":723:742  isOwner[msg.sender] */\n      0xffffffffffffffffffffffffffffffffffffffff\n      and\n      0xffffffffffffffffffffffffffffffffffffffff\n      and\n      dup2\n      mstore\n      0x20\n      add\n      swap1\n      dup2\n      mstore\n      0x20\n      add\n      0x00\n      keccak256\n      0x00\n      swap1\n      sload\n      swap1\n      0x0100\n      exp\n      swap1\n      div\n      0xff\n      and\n        /* \"MultiSigWallet.sol\":715:756  require(isOwner[msg.sender], \"not Owner\") */\n      tag_77\n      jumpi\n      mload(0x40)\n      0x08c379a000000000000000000000000000000000000000000000000000000000\n      dup2\n      mstore\n      0x04\n      add\n      tag_78\n      swap1\n      tag_69\n      jump\t// in\n    tag_78:\n      mload(0x40)\n      dup1\n      swap2\n      sub\n      swap1\n      revert\n    tag_77:\n        /* \"MultiSigWallet.sol\":3187:3192  _txId */\n      dup1\n        /* \"MultiSigWallet.sol\":841:853  tracsactions */\n      0x03\n        /* \"MultiSigWallet.sol\":841:860  tracsactions.length */\n      dup1\n      sload\n      swap1\n      pop\n        /* \"MultiSigWallet.sol\":833:838  _txId */\n      dup2\n        /* \"MultiSigWallet.sol\":833:860  _txId < tracsactions.length */\n      lt\n        /* \"MultiSigWallet.sol\":825:882  require(_txId < tracsactions.length, \"tx does not exist\") */\n      tag_80\n      jumpi\n      mload(0x40)\n      0x08c379a000000000000000000000000000000000000000000000000000000000\n      dup2\n      mstore\n      0x04\n      add\n      tag_81\n      swap1\n      tag_82\n      jump\t// in\n    tag_81:\n      mload(0x40)\n      dup1\n      swap2\n      sub\n      swap1\n      revert\n    tag_80:\n        /* \"MultiSigWallet.sol\":3215:3220  _txId */\n      dup2\n        /* \"MultiSigWallet.sol\":1095:1107  tracsactions */\n      0x03\n        /* \"MultiSigWallet.sol\":1108:1113  _txId */\n      dup2\n        /* \"MultiSigWallet.sol\":1095:1114  tracsactions[_txId] */\n      dup2\n      sload\n      dup2\n      lt\n      tag_84\n      jumpi\n      tag_85\n      tag_86\n      jump\t// in\n    tag_85:\n    tag_84:\n      swap1\n      0x00\n      mstore\n      keccak256(0x00, 0x20)\n      swap1\n      0x04\n      mul\n      add\n        /* \"MultiSigWallet.sol\":1095:1123  tracsactions[_txId].executed */\n      0x03\n      add\n      0x00\n      swap1\n      sload\n      swap1\n      0x0100\n      exp\n      swap1\n      div\n      0xff\n      and\n        /* \"MultiSigWallet.sol\":1094:1123  !tracsactions[_txId].executed */\n      iszero\n        /* \"MultiSigWallet.sol\":1086:1147  require(!tracsactions[_txId].executed, \"tx already exexuted\") */\n      tag_88\n      jumpi\n      mload(0x40)\n      0x08c379a000000000000000000000000000000000000000000000000000000000\n      dup2\n      mstore\n      0x04\n      add\n      tag_89\n      swap1\n      tag_90\n      jump\t// in\n    tag_89:\n      mload(0x40)\n      dup1\n      swap2\n      sub\n      swap1\n      revert\n    tag_88:\n        /* \"MultiSigWallet.sol\":3246:3254  approved */\n      0x04\n        /* \"MultiSigWallet.sol\":3246:3261  approved[_txId] */\n      0x00\n        /* \"MultiSigWallet.sol\":3255:3260  _txId */\n      dup5\n        /* \"MultiSigWallet.sol\":3246:3261  approved[_txId] */\n      dup2\n      mstore\n      0x20\n      add\n      swap1\n      dup2\n      mstore\n      0x20\n      add\n      0x00\n      keccak256\n        /* \"MultiSigWallet.sol\":3246:3273  approved[_txId][msg.sender] */\n      0x00\n        /* \"MultiSigWallet.sol\":3262:3272  msg.sender */\n      caller\n        /* \"MultiSigWallet.sol\":3246:3273  approved[_txId][msg.sender] */\n      0xffffffffffffffffffffffffffffffffffffffff\n      and\n      0xffffffffffffffffffffffffffffffffffffffff\n      and\n      dup2\n      mstore\n      0x20\n      add\n      swap1\n      dup2\n      mstore\n      0x20\n      add\n      0x00\n      keccak256\n      0x00\n      swap1\n      sload\n      swap1\n      0x0100\n      exp\n      swap1\n      div\n      0xff\n      and\n        /* \"MultiSigWallet.sol\":3238:3293  require(approved[_txId][msg.sender], \"tx not approved\") */\n      tag_92\n      jumpi\n      mload(0x40)\n      0x08c379a000000000000000000000000000000000000000000000000000000000\n      dup2\n      mstore\n      0x04\n      add\n      tag_93\n      swap1\n      tag_94\n      jump\t// in\n    tag_93:\n      mload(0x40)\n      dup1\n      swap2\n      sub\n      swap1\n      revert\n    tag_92:\n        /* \"MultiSigWallet.sol\":893:894  _ */\n      pop\n        /* \"MultiSigWallet.sol\":767:768  _ */\n      pop\n        /* \"MultiSigWallet.sol\":3103:3311  function revoke(uint _txId) ... */\n      pop\n      jump\t// out\n        /* \"MultiSigWallet.sol\":577:610  Transaction[] public tracsactions */\n    tag_36:\n      0x03\n      dup2\n      dup2\n      sload\n      dup2\n      lt\n      tag_95\n      jumpi\n      0x00\n      dup1\n      revert\n    tag_95:\n      swap1\n      0x00\n      mstore\n      keccak256(0x00, 0x20)\n      swap1\n      0x04\n      mul\n      add\n      0x00\n      swap2\n      pop\n      swap1\n      pop\n      dup1\n      0x00\n      add\n      0x00\n      swap1\n      sload\n      swap1\n      0x0100\n      exp\n      swap1\n      div\n      0xffffffffffffffffffffffffffffffffffffffff\n      and\n      swap1\n      dup1\n      0x01\n      add\n      sload\n      swap1\n      dup1\n      0x02\n      add\n      dup1\n      sload\n      tag_97\n      swap1\n      tag_98\n      jump\t// in\n    tag_97:\n      dup1\n      0x1f\n      add\n      0x20\n      dup1\n      swap2\n      div\n      mul\n      0x20\n      add\n      mload(0x40)\n      swap1\n      dup2\n      add\n      0x40\n      mstore\n      dup1\n      swap3\n      swap2\n      swap1\n      dup2\n      dup2\n      mstore\n      0x20\n      add\n      dup3\n      dup1\n      sload\n      tag_99\n      swap1\n      tag_98\n      jump\t// in\n    tag_99:\n      dup1\n      iszero\n      tag_100\n      jumpi\n      dup1\n      0x1f\n      lt\n      tag_101\n      jumpi\n      0x0100\n      dup1\n      dup4\n      sload\n      div\n      mul\n      dup4\n      mstore\n      swap2\n      0x20\n      add\n      swap2\n      jump(tag_100)\n    tag_101:\n      dup3\n      add\n      swap2\n      swap1\n      0x00\n      mstore\n      keccak256(0x00, 0x20)\n      swap1\n    tag_102:\n      dup2\n      sload\n      dup2\n      mstore\n      swap1\n      0x01\n      add\n      swap1\n      0x20\n      add\n      dup1\n      dup4\n      gt\n      tag_102\n      jumpi\n      dup3\n      swap1\n      sub\n      0x1f\n      and\n      dup3\n      add\n      swap2\n    tag_100:\n      pop\n      pop\n      pop\n      pop\n      pop\n      swap1\n      dup1\n      0x03\n      add\n      0x00\n      swap1\n      sload\n      swap1\n      0x0100\n      exp\n      swap1\n      div\n      0xff\n      and\n      swap1\n      pop\n      dup5\n      jump\t// out\n        /* \"MultiSigWallet.sol\":502:541  mapping(address => bool) public isOwner */\n    tag_43:\n      mstore(0x20, 0x01)\n      dup1\n      0x00\n      mstore\n      keccak256(0x00, 0x40)\n      0x00\n      swap2\n      pop\n      sload\n      swap1\n      0x0100\n      exp\n      swap1\n      div\n      0xff\n      and\n      dup2\n      jump\t// out\n        /* \"MultiSigWallet.sol\":617:674  mapping(uint => mapping(address => bool)) public approved */\n    tag_50:\n      mstore(0x20, 0x04)\n      dup2\n      0x00\n      mstore\n      mstore(0x20, keccak256(0x00, 0x40))\n      dup1\n      0x00\n      mstore\n      keccak256(0x00, 0x40)\n      0x00\n      swap2\n      pop\n      swap2\n      pop\n      swap1\n      sload\n      swap1\n      0x0100\n      exp\n      swap1\n      div\n      0xff\n      and\n      dup2\n      jump\t// out\n        /* \"MultiSigWallet.sol\":2152:2399  function approve(uint _txId)... */\n    tag_55:\n        /* \"MultiSigWallet.sol\":723:730  isOwner */\n      0x01\n        /* \"MultiSigWallet.sol\":723:742  isOwner[msg.sender] */\n      0x00\n        /* \"MultiSigWallet.sol\":731:741  msg.sender */\n      caller\n        /* \"MultiSigWallet.sol\":723:742  isOwner[msg.sender] */\n      0xffffffffffffffffffffffffffffffffffffffff\n      and\n      0xffffffffffffffffffffffffffffffffffffffff\n      and\n      dup2\n      mstore\n      0x20\n      add\n      swap1\n      dup2\n      mstore\n      0x20\n      add\n      0x00\n      keccak256\n      0x00\n      swap1\n      sload\n      swap1\n      0x0100\n      exp\n      swap1\n      div\n      0xff\n      and\n        /* \"MultiSigWallet.sol\":715:756  require(isOwner[msg.sender], \"not Owner\") */\n      tag_104\n      jumpi\n      mload(0x40)\n      0x08c379a000000000000000000000000000000000000000000000000000000000\n      dup2\n      mstore\n      0x04\n      add\n      tag_105\n      swap1\n      tag_69\n      jump\t// in\n    tag_105:\n      mload(0x40)\n      dup1\n      swap2\n      sub\n      swap1\n      revert\n    tag_104:\n        /* \"MultiSigWallet.sol\":2236:2241  _txId */\n      dup1\n        /* \"MultiSigWallet.sol\":841:853  tracsactions */\n      0x03\n        /* \"MultiSigWallet.sol\":841:860  tracsactions.length */\n      dup1\n      sload\n      swap1\n      pop\n        /* \"MultiSigWallet.sol\":833:838  _txId */\n      dup2\n        /* \"MultiSigWallet.sol\":833:860  _txId < tracsactions.length */\n      lt\n        /* \"MultiSigWallet.sol\":825:882  require(_txId < tracsactions.length, \"tx does not exist\") */\n      tag_107\n      jumpi\n      mload(0x40)\n      0x08c379a000000000000000000000000000000000000000000000000000000000\n      dup2\n      mstore\n      0x04\n      add\n      tag_108\n      swap1\n      tag_82\n      jump\t// in\n    tag_108:\n      mload(0x40)\n      dup1\n      swap2\n      sub\n      swap1\n      revert\n    tag_107:\n        /* \"MultiSigWallet.sol\":2264:2269  _txId */\n      dup2\n        /* \"MultiSigWallet.sol\":963:971  approved */\n      0x04\n        /* \"MultiSigWallet.sol\":963:978  approved[_txId] */\n      0x00\n        /* \"MultiSigWallet.sol\":972:977  _txId */\n      dup3\n        /* \"MultiSigWallet.sol\":963:978  approved[_txId] */\n      dup2\n      mstore\n      0x20\n      add\n      swap1\n      dup2\n      mstore\n      0x20\n      add\n      0x00\n      keccak256\n        /* \"MultiSigWallet.sol\":963:990  approved[_txId][msg.sender] */\n      0x00\n        /* \"MultiSigWallet.sol\":979:989  msg.sender */\n      caller\n        /* \"MultiSigWallet.sol\":963:990  approved[_txId][msg.sender] */\n      0xffffffffffffffffffffffffffffffffffffffff\n      and\n      0xffffffffffffffffffffffffffffffffffffffff\n      and\n      dup2\n      mstore\n      0x20\n      add\n      swap1\n      dup2\n      mstore\n      0x20\n      add\n      0x00\n      keccak256\n      0x00\n      swap1\n      sload\n      swap1\n      0x0100\n      exp\n      swap1\n      div\n      0xff\n      and\n        /* \"MultiSigWallet.sol\":962:990  !approved[_txId][msg.sender] */\n      iszero\n        /* \"MultiSigWallet.sol\":954:1014  require(!approved[_txId][msg.sender], \"tx already approved\") */\n      tag_110\n      jumpi\n      mload(0x40)\n      0x08c379a000000000000000000000000000000000000000000000000000000000\n      dup2\n      mstore\n      0x04\n      add\n      tag_111\n      swap1\n      tag_112\n      jump\t// in\n    tag_111:\n      mload(0x40)\n      dup1\n      swap2\n      sub\n      swap1\n      revert\n    tag_110:\n        /* \"MultiSigWallet.sol\":2292:2297  _txId */\n      dup3\n        /* \"MultiSigWallet.sol\":1095:1107  tracsactions */\n      0x03\n        /* \"MultiSigWallet.sol\":1108:1113  _txId */\n      dup2\n        /* \"MultiSigWallet.sol\":1095:1114  tracsactions[_txId] */\n      dup2\n      sload\n      dup2\n      lt\n      tag_114\n      jumpi\n      tag_115\n      tag_86\n      jump\t// in\n    tag_115:\n    tag_114:\n      swap1\n      0x00\n      mstore\n      keccak256(0x00, 0x20)\n      swap1\n      0x04\n      mul\n      add\n        /* \"MultiSigWallet.sol\":1095:1123  tracsactions[_txId].executed */\n      0x03\n      add\n      0x00\n      swap1\n      sload\n      swap1\n      0x0100\n      exp\n      swap1\n      div\n      0xff\n      and\n        /* \"MultiSigWallet.sol\":1094:1123  !tracsactions[_txId].executed */\n      iszero\n        /* \"MultiSigWallet.sol\":1086:1147  require(!tracsactions[_txId].executed, \"tx already exexuted\") */\n      tag_117\n      jumpi\n      mload(0x40)\n      0x08c379a000000000000000000000000000000000000000000000000000000000\n      dup2\n      mstore\n      0x04\n      add\n      tag_118\n      swap1\n      tag_90\n      jump\t// in\n    tag_118:\n      mload(0x40)\n      dup1\n      swap2\n      sub\n      swap1\n      revert\n    tag_117:\n        /* \"MultiSigWallet.sol\":2345:2349  true */\n      0x01\n        /* \"MultiSigWallet.sol\":2315:2323  approved */\n      0x04\n        /* \"MultiSigWallet.sol\":2315:2330  approved[_txId] */\n      0x00\n        /* \"MultiSigWallet.sol\":2324:2329  _txId */\n      dup7\n        /* \"MultiSigWallet.sol\":2315:2330  approved[_txId] */\n      dup2\n      mstore\n      0x20\n      add\n      swap1\n      dup2\n      mstore\n      0x20\n      add\n      0x00\n      keccak256\n        /* \"MultiSigWallet.sol\":2315:2342  approved[_txId][msg.sender] */\n      0x00\n        /* \"MultiSigWallet.sol\":2331:2341  msg.sender */\n      caller\n        /* \"MultiSigWallet.sol\":2315:2342  approved[_txId][msg.sender] */\n      0xffffffffffffffffffffffffffffffffffffffff\n      and\n      0xffffffffffffffffffffffffffffffffffffffff\n      and\n      dup2\n      mstore\n      0x20\n      add\n      swap1\n      dup2\n      mstore\n      0x20\n      add\n      0x00\n      keccak256\n      0x00\n        /* \"MultiSigWallet.sol\":2315:2349  approved[_txId][msg.sender] = true */\n      0x0100\n      exp\n      dup2\n      sload\n      dup2\n      0xff\n      mul\n      not\n      and\n      swap1\n      dup4\n      iszero\n      iszero\n      mul\n      or\n      swap1\n      sstore\n      pop\n        /* \"MultiSigWallet.sol\":2385:2390  _txId */\n      dup4\n        /* \"MultiSigWallet.sol\":2373:2383  msg.sender */\n      caller\n        /* \"MultiSigWallet.sol\":2365:2391  Approve(msg.sender, _txId) */\n      0xffffffffffffffffffffffffffffffffffffffff\n      and\n      0x90ec57f18fa7b15c6b8d5e4d1deb90796c74b2ff23d4d0cecad0cb42a96b3128\n      mload(0x40)\n      mload(0x40)\n      dup1\n      swap2\n      sub\n      swap1\n      log3\n        /* \"MultiSigWallet.sol\":1025:1026  _ */\n      pop\n        /* \"MultiSigWallet.sol\":893:894  _ */\n      pop\n        /* \"MultiSigWallet.sol\":767:768  _ */\n      pop\n        /* \"MultiSigWallet.sol\":2152:2399  function approve(uint _txId)... */\n      pop\n      jump\t// out\n        /* \"MultiSigWallet.sol\":548:568  uint public required */\n    tag_58:\n      sload(0x02)\n      dup2\n      jump\t// out\n        /* \"MultiSigWallet.sol\":2643:3095  function execute(uint _txId) external txExists(_txId) notExecuted(_txId) {... */\n    tag_63:\n        /* \"MultiSigWallet.sol\":2690:2695  _txId */\n      dup1\n        /* \"MultiSigWallet.sol\":841:853  tracsactions */\n      0x03\n        /* \"MultiSigWallet.sol\":841:860  tracsactions.length */\n      dup1\n      sload\n      swap1\n      pop\n        /* \"MultiSigWallet.sol\":833:838  _txId */\n      dup2\n        /* \"MultiSigWallet.sol\":833:860  _txId < tracsactions.length */\n      lt\n        /* \"MultiSigWallet.sol\":825:882  require(_txId < tracsactions.length, \"tx does not exist\") */\n      tag_121\n      jumpi\n      mload(0x40)\n      0x08c379a000000000000000000000000000000000000000000000000000000000\n      dup2\n      mstore\n      0x04\n      add\n      tag_122\n      swap1\n      tag_82\n      jump\t// in\n    tag_122:\n      mload(0x40)\n      dup1\n      swap2\n      sub\n      swap1\n      revert\n    tag_121:\n        /* \"MultiSigWallet.sol\":2709:2714  _txId */\n      dup2\n        /* \"MultiSigWallet.sol\":1095:1107  tracsactions */\n      0x03\n        /* \"MultiSigWallet.sol\":1108:1113  _txId */\n      dup2\n        /* \"MultiSigWallet.sol\":1095:1114  tracsactions[_txId] */\n      dup2\n      sload\n      dup2\n      lt\n      tag_124\n      jumpi\n      tag_125\n      tag_86\n      jump\t// in\n    tag_125:\n    tag_124:\n      swap1\n      0x00\n      mstore\n      keccak256(0x00, 0x20)\n      swap1\n      0x04\n      mul\n      add\n        /* \"MultiSigWallet.sol\":1095:1123  tracsactions[_txId].executed */\n      0x03\n      add\n      0x00\n      swap1\n      sload\n      swap1\n      0x0100\n      exp\n      swap1\n      div\n      0xff\n      and\n        /* \"MultiSigWallet.sol\":1094:1123  !tracsactions[_txId].executed */\n      iszero\n        /* \"MultiSigWallet.sol\":1086:1147  require(!tracsactions[_txId].executed, \"tx already exexuted\") */\n      tag_127\n      jumpi\n      mload(0x40)\n      0x08c379a000000000000000000000000000000000000000000000000000000000\n      dup2\n      mstore\n      0x04\n      add\n      tag_128\n      swap1\n      tag_90\n      jump\t// in\n    tag_128:\n      mload(0x40)\n      dup1\n      swap2\n      sub\n      swap1\n      revert\n    tag_127:\n        /* \"MultiSigWallet.sol\":2763:2771  required */\n      sload(0x02)\n        /* \"MultiSigWallet.sol\":2735:2759  _getApprovalCount(_txId) */\n      tag_130\n        /* \"MultiSigWallet.sol\":2753:2758  _txId */\n      dup5\n        /* \"MultiSigWallet.sol\":2735:2752  _getApprovalCount */\n      tag_131\n        /* \"MultiSigWallet.sol\":2735:2759  _getApprovalCount(_txId) */\n      jump\t// in\n    tag_130:\n        /* \"MultiSigWallet.sol\":2735:2771  _getApprovalCount(_txId) >= required */\n      lt\n      iszero\n        /* \"MultiSigWallet.sol\":2727:2795  require(_getApprovalCount(_txId) >= required, \"approval < required\") */\n      tag_132\n      jumpi\n      mload(0x40)\n      0x08c379a000000000000000000000000000000000000000000000000000000000\n      dup2\n      mstore\n      0x04\n      add\n      tag_133\n      swap1\n      tag_134\n      jump\t// in\n    tag_133:\n      mload(0x40)\n      dup1\n      swap2\n      sub\n      swap1\n      revert\n    tag_132:\n        /* \"MultiSigWallet.sol\":2806:2837  Transaction storage transaction */\n      0x00\n        /* \"MultiSigWallet.sol\":2840:2852  tracsactions */\n      0x03\n        /* \"MultiSigWallet.sol\":2853:2858  _txId */\n      dup5\n        /* \"MultiSigWallet.sol\":2840:2859  tracsactions[_txId] */\n      dup2\n      sload\n      dup2\n      lt\n      tag_135\n      jumpi\n      tag_136\n      tag_86\n      jump\t// in\n    tag_136:\n    tag_135:\n      swap1\n      0x00\n      mstore\n      keccak256(0x00, 0x20)\n      swap1\n      0x04\n      mul\n      add\n        /* \"MultiSigWallet.sol\":2806:2859  Transaction storage transaction = tracsactions[_txId] */\n      swap1\n      pop\n        /* \"MultiSigWallet.sol\":2895:2899  true */\n      0x01\n        /* \"MultiSigWallet.sol\":2872:2883  transaction */\n      dup2\n        /* \"MultiSigWallet.sol\":2872:2892  transaction.executed */\n      0x03\n      add\n      0x00\n        /* \"MultiSigWallet.sol\":2872:2899  transaction.executed = true */\n      0x0100\n      exp\n      dup2\n      sload\n      dup2\n      0xff\n      mul\n      not\n      and\n      swap1\n      dup4\n      iszero\n      iszero\n      mul\n      or\n      swap1\n      sstore\n      pop\n        /* \"MultiSigWallet.sol\":2913:2925  bool success */\n      0x00\n        /* \"MultiSigWallet.sol\":2931:2942  transaction */\n      dup2\n        /* \"MultiSigWallet.sol\":2931:2945  transaction.to */\n      0x00\n      add\n      0x00\n      swap1\n      sload\n      swap1\n      0x0100\n      exp\n      swap1\n      div\n      0xffffffffffffffffffffffffffffffffffffffff\n      and\n        /* \"MultiSigWallet.sol\":2931:2950  transaction.to.call */\n      0xffffffffffffffffffffffffffffffffffffffff\n      and\n        /* \"MultiSigWallet.sol\":2958:2969  transaction */\n      dup3\n        /* \"MultiSigWallet.sol\":2958:2975  transaction.value */\n      0x01\n      add\n      sload\n        /* \"MultiSigWallet.sol\":2991:3002  transaction */\n      dup4\n        /* \"MultiSigWallet.sol\":2991:3007  transaction.data */\n      0x02\n      add\n        /* \"MultiSigWallet.sol\":2931:3018  transaction.to.call{value: transaction.value}(... */\n      mload(0x40)\n      tag_138\n      swap2\n      swap1\n      tag_139\n      jump\t// in\n    tag_138:\n      0x00\n      mload(0x40)\n      dup1\n      dup4\n      sub\n      dup2\n      dup6\n      dup8\n      gas\n      call\n      swap3\n      pop\n      pop\n      pop\n      returndatasize\n      dup1\n      0x00\n      dup2\n      eq\n      tag_142\n      jumpi\n      mload(0x40)\n      swap2\n      pop\n      and(add(returndatasize, 0x3f), not(0x1f))\n      dup3\n      add\n      0x40\n      mstore\n      returndatasize\n      dup3\n      mstore\n      returndatasize\n      0x00\n      0x20\n      dup5\n      add\n      returndatacopy\n      jump(tag_141)\n    tag_142:\n      0x60\n      swap2\n      pop\n    tag_141:\n      pop\n        /* \"MultiSigWallet.sol\":2912:3018  (bool success, ) = transaction.to.call{value: transaction.value}(... */\n      pop\n      swap1\n      pop\n        /* \"MultiSigWallet.sol\":3037:3044  success */\n      dup1\n        /* \"MultiSigWallet.sol\":3029:3058  require(success, \"tx failed\") */\n      tag_143\n      jumpi\n      mload(0x40)\n      0x08c379a000000000000000000000000000000000000000000000000000000000\n      dup2\n      mstore\n      0x04\n      add\n      tag_144\n      swap1\n      tag_145\n      jump\t// in\n    tag_144:\n      mload(0x40)\n      dup1\n      swap2\n      sub\n      swap1\n      revert\n    tag_143:\n        /* \"MultiSigWallet.sol\":3081:3086  _txId */\n      dup5\n        /* \"MultiSigWallet.sol\":3074:3087  Excute(_txId) */\n      0x76c6ccb560379720fcf9325aabcb46be565b22cd1bf3b8271dd3dbfcaf9dece4\n      mload(0x40)\n      mload(0x40)\n      dup1\n      swap2\n      sub\n      swap1\n      log2\n        /* \"MultiSigWallet.sol\":2716:3095  {... */\n      pop\n      pop\n        /* \"MultiSigWallet.sol\":893:894  _ */\n      pop\n        /* \"MultiSigWallet.sol\":2643:3095  function execute(uint _txId) external txExists(_txId) notExecuted(_txId) {... */\n      pop\n      pop\n      jump\t// out\n        /* \"MultiSigWallet.sol\":2407:2635  function _getApprovalCount(uint _txId) private view returns (uint count) {... */\n    tag_131:\n        /* \"MultiSigWallet.sol\":2468:2478  uint count */\n      0x00\n        /* \"MultiSigWallet.sol\":2496:2502  uint i */\n      dup1\n        /* \"MultiSigWallet.sol\":2491:2628  for (uint i; i < owners.length; i++) {... */\n    tag_147:\n        /* \"MultiSigWallet.sol\":2508:2514  owners */\n      0x00\n        /* \"MultiSigWallet.sol\":2508:2521  owners.length */\n      dup1\n      sload\n      swap1\n      pop\n        /* \"MultiSigWallet.sol\":2504:2505  i */\n      dup2\n        /* \"MultiSigWallet.sol\":2504:2521  i < owners.length */\n      lt\n        /* \"MultiSigWallet.sol\":2491:2628  for (uint i; i < owners.length; i++) {... */\n      iszero\n      tag_148\n      jumpi\n        /* \"MultiSigWallet.sol\":2547:2555  approved */\n      0x04\n        /* \"MultiSigWallet.sol\":2547:2562  approved[_txId] */\n      0x00\n        /* \"MultiSigWallet.sol\":2556:2561  _txId */\n      dup5\n        /* \"MultiSigWallet.sol\":2547:2562  approved[_txId] */\n      dup2\n      mstore\n      0x20\n      add\n      swap1\n      dup2\n      mstore\n      0x20\n      add\n      0x00\n      keccak256\n        /* \"MultiSigWallet.sol\":2547:2573  approved[_txId][owners[i]] */\n      0x00\n        /* \"MultiSigWallet.sol\":2563:2569  owners */\n      dup1\n        /* \"MultiSigWallet.sol\":2570:2571  i */\n      dup4\n        /* \"MultiSigWallet.sol\":2563:2572  owners[i] */\n      dup2\n      sload\n      dup2\n      lt\n      tag_150\n      jumpi\n      tag_151\n      tag_86\n      jump\t// in\n    tag_151:\n    tag_150:\n      swap1\n      0x00\n      mstore\n      keccak256(0x00, 0x20)\n      add\n      0x00\n      swap1\n      sload\n      swap1\n      0x0100\n      exp\n      swap1\n      div\n      0xffffffffffffffffffffffffffffffffffffffff\n      and\n        /* \"MultiSigWallet.sol\":2547:2573  approved[_txId][owners[i]] */\n      0xffffffffffffffffffffffffffffffffffffffff\n      and\n      0xffffffffffffffffffffffffffffffffffffffff\n      and\n      dup2\n      mstore\n      0x20\n      add\n      swap1\n      dup2\n      mstore\n      0x20\n      add\n      0x00\n      keccak256\n      0x00\n      swap1\n      sload\n      swap1\n      0x0100\n      exp\n      swap1\n      div\n      0xff\n      and\n        /* \"MultiSigWallet.sol\":2543:2617  if (approved[_txId][owners[i]]) {... */\n      iszero\n      tag_153\n      jumpi\n        /* \"MultiSigWallet.sol\":2594:2601  count++ */\n      dup2\n      dup1\n      tag_154\n      swap1\n      tag_155\n      jump\t// in\n    tag_154:\n      swap3\n      pop\n      pop\n        /* \"MultiSigWallet.sol\":2543:2617  if (approved[_txId][owners[i]]) {... */\n    tag_153:\n        /* \"MultiSigWallet.sol\":2523:2526  i++ */\n      dup1\n      dup1\n      tag_156\n      swap1\n      tag_155\n      jump\t// in\n    tag_156:\n      swap2\n      pop\n      pop\n        /* \"MultiSigWallet.sol\":2491:2628  for (uint i; i < owners.length; i++) {... */\n      jump(tag_147)\n    tag_148:\n      pop\n        /* \"MultiSigWallet.sol\":2407:2635  function _getApprovalCount(uint _txId) private view returns (uint count) {... */\n      swap2\n      swap1\n      pop\n      jump\t// out\n        /* \"#utility.yul\":7:84   */\n    tag_157:\n        /* \"#utility.yul\":44:51   */\n      0x00\n        /* \"#utility.yul\":73:78   */\n      dup2\n        /* \"#utility.yul\":62:78   */\n      swap1\n      pop\n        /* \"#utility.yul\":7:84   */\n      swap2\n      swap1\n      pop\n      jump\t// out\n        /* \"#utility.yul\":90:208   */\n    tag_158:\n        /* \"#utility.yul\":177:201   */\n      tag_218\n        /* \"#utility.yul\":195:200   */\n      dup2\n        /* \"#utility.yul\":177:201   */\n      tag_157\n      jump\t// in\n    tag_218:\n        /* \"#utility.yul\":172:175   */\n      dup3\n        /* \"#utility.yul\":165:202   */\n      mstore\n        /* \"#utility.yul\":90:208   */\n      pop\n      pop\n      jump\t// out\n        /* \"#utility.yul\":214:436   */\n    tag_16:\n        /* \"#utility.yul\":307:311   */\n      0x00\n        /* \"#utility.yul\":345:347   */\n      0x20\n        /* \"#utility.yul\":334:343   */\n      dup3\n        /* \"#utility.yul\":330:348   */\n      add\n        /* \"#utility.yul\":322:348   */\n      swap1\n      pop\n        /* \"#utility.yul\":358:429   */\n      tag_220\n        /* \"#utility.yul\":426:427   */\n      0x00\n        /* \"#utility.yul\":415:424   */\n      dup4\n        /* \"#utility.yul\":411:428   */\n      add\n        /* \"#utility.yul\":402:408   */\n      dup5\n        /* \"#utility.yul\":358:429   */\n      tag_158\n      jump\t// in\n    tag_220:\n        /* \"#utility.yul\":214:436   */\n      swap3\n      swap2\n      pop\n      pop\n      jump\t// out\n        /* \"#utility.yul\":523:640   */\n    tag_160:\n        /* \"#utility.yul\":632:633   */\n      0x00\n        /* \"#utility.yul\":629:630   */\n      dup1\n        /* \"#utility.yul\":622:634   */\n      revert\n        /* \"#utility.yul\":646:763   */\n    tag_161:\n        /* \"#utility.yul\":755:756   */\n      0x00\n        /* \"#utility.yul\":752:753   */\n      dup1\n        /* \"#utility.yul\":745:757   */\n      revert\n        /* \"#utility.yul\":769:891   */\n    tag_162:\n        /* \"#utility.yul\":842:866   */\n      tag_225\n        /* \"#utility.yul\":860:865   */\n      dup2\n        /* \"#utility.yul\":842:866   */\n      tag_157\n      jump\t// in\n    tag_225:\n        /* \"#utility.yul\":835:840   */\n      dup2\n        /* \"#utility.yul\":832:867   */\n      eq\n        /* \"#utility.yul\":822:885   */\n      tag_226\n      jumpi\n        /* \"#utility.yul\":881:882   */\n      0x00\n        /* \"#utility.yul\":878:879   */\n      dup1\n        /* \"#utility.yul\":871:883   */\n      revert\n        /* \"#utility.yul\":822:885   */\n    tag_226:\n        /* \"#utility.yul\":769:891   */\n      pop\n      jump\t// out\n        /* \"#utility.yul\":897:1036   */\n    tag_163:\n        /* \"#utility.yul\":943:948   */\n      0x00\n        /* \"#utility.yul\":981:987   */\n      dup2\n        /* \"#utility.yul\":968:988   */\n      calldataload\n        /* \"#utility.yul\":959:988   */\n      swap1\n      pop\n        /* \"#utility.yul\":997:1030   */\n      tag_228\n        /* \"#utility.yul\":1024:1029   */\n      dup2\n        /* \"#utility.yul\":997:1030   */\n      tag_162\n      jump\t// in\n    tag_228:\n        /* \"#utility.yul\":897:1036   */\n      swap3\n      swap2\n      pop\n      pop\n      jump\t// out\n        /* \"#utility.yul\":1042:1371   */\n    tag_20:\n        /* \"#utility.yul\":1101:1107   */\n      0x00\n        /* \"#utility.yul\":1150:1152   */\n      0x20\n        /* \"#utility.yul\":1138:1147   */\n      dup3\n        /* \"#utility.yul\":1129:1136   */\n      dup5\n        /* \"#utility.yul\":1125:1148   */\n      sub\n        /* \"#utility.yul\":1121:1153   */\n      slt\n        /* \"#utility.yul\":1118:1237   */\n      iszero\n      tag_230\n      jumpi\n        /* \"#utility.yul\":1156:1235   */\n      tag_231\n      tag_160\n      jump\t// in\n    tag_231:\n        /* \"#utility.yul\":1118:1237   */\n    tag_230:\n        /* \"#utility.yul\":1276:1277   */\n      0x00\n        /* \"#utility.yul\":1301:1354   */\n      tag_232\n        /* \"#utility.yul\":1346:1353   */\n      dup5\n        /* \"#utility.yul\":1337:1343   */\n      dup3\n        /* \"#utility.yul\":1326:1335   */\n      dup6\n        /* \"#utility.yul\":1322:1344   */\n      add\n        /* \"#utility.yul\":1301:1354   */\n      tag_163\n      jump\t// in\n    tag_232:\n        /* \"#utility.yul\":1291:1354   */\n      swap2\n      pop\n        /* \"#utility.yul\":1247:1364   */\n      pop\n        /* \"#utility.yul\":1042:1371   */\n      swap3\n      swap2\n      pop\n      pop\n      jump\t// out\n        /* \"#utility.yul\":1377:1503   */\n    tag_164:\n        /* \"#utility.yul\":1414:1421   */\n      0x00\n        /* \"#utility.yul\":1454:1496   */\n      0xffffffffffffffffffffffffffffffffffffffff\n        /* \"#utility.yul\":1447:1452   */\n      dup3\n        /* \"#utility.yul\":1443:1497   */\n      and\n        /* \"#utility.yul\":1432:1497   */\n      swap1\n      pop\n        /* \"#utility.yul\":1377:1503   */\n      swap2\n      swap1\n      pop\n      jump\t// out\n        /* \"#utility.yul\":1509:1605   */\n    tag_165:\n        /* \"#utility.yul\":1546:1553   */\n      0x00\n        /* \"#utility.yul\":1575:1599   */\n      tag_235\n        /* \"#utility.yul\":1593:1598   */\n      dup3\n        /* \"#utility.yul\":1575:1599   */\n      tag_164\n      jump\t// in\n    tag_235:\n        /* \"#utility.yul\":1564:1599   */\n      swap1\n      pop\n        /* \"#utility.yul\":1509:1605   */\n      swap2\n      swap1\n      pop\n      jump\t// out\n        /* \"#utility.yul\":1611:1729   */\n    tag_166:\n        /* \"#utility.yul\":1698:1722   */\n      tag_237\n        /* \"#utility.yul\":1716:1721   */\n      dup2\n        /* \"#utility.yul\":1698:1722   */\n      tag_165\n      jump\t// in\n    tag_237:\n        /* \"#utility.yul\":1693:1696   */\n      dup3\n        /* \"#utility.yul\":1686:1723   */\n      mstore\n        /* \"#utility.yul\":1611:1729   */\n      pop\n      pop\n      jump\t// out\n        /* \"#utility.yul\":1735:1957   */\n    tag_23:\n        /* \"#utility.yul\":1828:1832   */\n      0x00\n        /* \"#utility.yul\":1866:1868   */\n      0x20\n        /* \"#utility.yul\":1855:1864   */\n      dup3\n        /* \"#utility.yul\":1851:1869   */\n      add\n        /* \"#utility.yul\":1843:1869   */\n      swap1\n      pop\n        /* \"#utility.yul\":1879:1950   */\n      tag_239\n        /* \"#utility.yul\":1947:1948   */\n      0x00\n        /* \"#utility.yul\":1936:1945   */\n      dup4\n        /* \"#utility.yul\":1932:1949   */\n      add\n        /* \"#utility.yul\":1923:1929   */\n      dup5\n        /* \"#utility.yul\":1879:1950   */\n      tag_166\n      jump\t// in\n    tag_239:\n        /* \"#utility.yul\":1735:1957   */\n      swap3\n      swap2\n      pop\n      pop\n      jump\t// out\n        /* \"#utility.yul\":1963:2085   */\n    tag_167:\n        /* \"#utility.yul\":2036:2060   */\n      tag_241\n        /* \"#utility.yul\":2054:2059   */\n      dup2\n        /* \"#utility.yul\":2036:2060   */\n      tag_165\n      jump\t// in\n    tag_241:\n        /* \"#utility.yul\":2029:2034   */\n      dup2\n        /* \"#utility.yul\":2026:2061   */\n      eq\n        /* \"#utility.yul\":2016:2079   */\n      tag_242\n      jumpi\n        /* \"#utility.yul\":2075:2076   */\n      0x00\n        /* \"#utility.yul\":2072:2073   */\n      dup1\n        /* \"#utility.yul\":2065:2077   */\n      revert\n        /* \"#utility.yul\":2016:2079   */\n    tag_242:\n        /* \"#utility.yul\":1963:2085   */\n      pop\n      jump\t// out\n        /* \"#utility.yul\":2091:2230   */\n    tag_168:\n        /* \"#utility.yul\":2137:2142   */\n      0x00\n        /* \"#utility.yul\":2175:2181   */\n      dup2\n        /* \"#utility.yul\":2162:2182   */\n      calldataload\n        /* \"#utility.yul\":2153:2182   */\n      swap1\n      pop\n        /* \"#utility.yul\":2191:2224   */\n      tag_244\n        /* \"#utility.yul\":2218:2223   */\n      dup2\n        /* \"#utility.yul\":2191:2224   */\n      tag_167\n      jump\t// in\n    tag_244:\n        /* \"#utility.yul\":2091:2230   */\n      swap3\n      swap2\n      pop\n      pop\n      jump\t// out\n        /* \"#utility.yul\":2236:2353   */\n    tag_169:\n        /* \"#utility.yul\":2345:2346   */\n      0x00\n        /* \"#utility.yul\":2342:2343   */\n      dup1\n        /* \"#utility.yul\":2335:2347   */\n      revert\n        /* \"#utility.yul\":2359:2476   */\n    tag_170:\n        /* \"#utility.yul\":2468:2469   */\n      0x00\n        /* \"#utility.yul\":2465:2466   */\n      dup1\n        /* \"#utility.yul\":2458:2470   */\n      revert\n        /* \"#utility.yul\":2482:2599   */\n    tag_171:\n        /* \"#utility.yul\":2591:2592   */\n      0x00\n        /* \"#utility.yul\":2588:2589   */\n      dup1\n        /* \"#utility.yul\":2581:2593   */\n      revert\n        /* \"#utility.yul\":2618:3170   */\n    tag_172:\n        /* \"#utility.yul\":2675:2683   */\n      0x00\n        /* \"#utility.yul\":2685:2691   */\n      dup1\n        /* \"#utility.yul\":2735:2738   */\n      dup4\n        /* \"#utility.yul\":2728:2732   */\n      0x1f\n        /* \"#utility.yul\":2720:2726   */\n      dup5\n        /* \"#utility.yul\":2716:2733   */\n      add\n        /* \"#utility.yul\":2712:2739   */\n      slt\n        /* \"#utility.yul\":2702:2824   */\n      tag_249\n      jumpi\n        /* \"#utility.yul\":2743:2822   */\n      tag_250\n      tag_169\n      jump\t// in\n    tag_250:\n        /* \"#utility.yul\":2702:2824   */\n    tag_249:\n        /* \"#utility.yul\":2856:2862   */\n      dup3\n        /* \"#utility.yul\":2843:2863   */\n      calldataload\n        /* \"#utility.yul\":2833:2863   */\n      swap1\n      pop\n        /* \"#utility.yul\":2886:2904   */\n      0xffffffffffffffff\n        /* \"#utility.yul\":2878:2884   */\n      dup2\n        /* \"#utility.yul\":2875:2905   */\n      gt\n        /* \"#utility.yul\":2872:2989   */\n      iszero\n      tag_251\n      jumpi\n        /* \"#utility.yul\":2908:2987   */\n      tag_252\n      tag_170\n      jump\t// in\n    tag_252:\n        /* \"#utility.yul\":2872:2989   */\n    tag_251:\n        /* \"#utility.yul\":3022:3026   */\n      0x20\n        /* \"#utility.yul\":3014:3020   */\n      dup4\n        /* \"#utility.yul\":3010:3027   */\n      add\n        /* \"#utility.yul\":2998:3027   */\n      swap2\n      pop\n        /* \"#utility.yul\":3076:3079   */\n      dup4\n        /* \"#utility.yul\":3068:3072   */\n      0x01\n        /* \"#utility.yul\":3060:3066   */\n      dup3\n        /* \"#utility.yul\":3056:3073   */\n      mul\n        /* \"#utility.yul\":3046:3054   */\n      dup4\n        /* \"#utility.yul\":3042:3074   */\n      add\n        /* \"#utility.yul\":3039:3080   */\n      gt\n        /* \"#utility.yul\":3036:3164   */\n      iszero\n      tag_253\n      jumpi\n        /* \"#utility.yul\":3083:3162   */\n      tag_254\n      tag_171\n      jump\t// in\n    tag_254:\n        /* \"#utility.yul\":3036:3164   */\n    tag_253:\n        /* \"#utility.yul\":2618:3170   */\n      swap3\n      pop\n      swap3\n      swap1\n      pop\n      jump\t// out\n        /* \"#utility.yul\":3176:3993   */\n    tag_27:\n        /* \"#utility.yul\":3264:3270   */\n      0x00\n        /* \"#utility.yul\":3272:3278   */\n      dup1\n        /* \"#utility.yul\":3280:3286   */\n      0x00\n        /* \"#utility.yul\":3288:3294   */\n      dup1\n        /* \"#utility.yul\":3337:3339   */\n      0x60\n        /* \"#utility.yul\":3325:3334   */\n      dup6\n        /* \"#utility.yul\":3316:3323   */\n      dup8\n        /* \"#utility.yul\":3312:3335   */\n      sub\n        /* \"#utility.yul\":3308:3340   */\n      slt\n        /* \"#utility.yul\":3305:3424   */\n      iszero\n      tag_256\n      jumpi\n        /* \"#utility.yul\":3343:3422   */\n      tag_257\n      tag_160\n      jump\t// in\n    tag_257:\n        /* \"#utility.yul\":3305:3424   */\n    tag_256:\n        /* \"#utility.yul\":3463:3464   */\n      0x00\n        /* \"#utility.yul\":3488:3541   */\n      tag_258\n        /* \"#utility.yul\":3533:3540   */\n      dup8\n        /* \"#utility.yul\":3524:3530   */\n      dup3\n        /* \"#utility.yul\":3513:3522   */\n      dup9\n        /* \"#utility.yul\":3509:3531   */\n      add\n        /* \"#utility.yul\":3488:3541   */\n      tag_168\n      jump\t// in\n    tag_258:\n        /* \"#utility.yul\":3478:3541   */\n      swap5\n      pop\n        /* \"#utility.yul\":3434:3551   */\n      pop\n        /* \"#utility.yul\":3590:3592   */\n      0x20\n        /* \"#utility.yul\":3616:3669   */\n      tag_259\n        /* \"#utility.yul\":3661:3668   */\n      dup8\n        /* \"#utility.yul\":3652:3658   */\n      dup3\n        /* \"#utility.yul\":3641:3650   */\n      dup9\n        /* \"#utility.yul\":3637:3659   */\n      add\n        /* \"#utility.yul\":3616:3669   */\n      tag_163\n      jump\t// in\n    tag_259:\n        /* \"#utility.yul\":3606:3669   */\n      swap4\n      pop\n        /* \"#utility.yul\":3561:3679   */\n      pop\n        /* \"#utility.yul\":3746:3748   */\n      0x40\n        /* \"#utility.yul\":3735:3744   */\n      dup6\n        /* \"#utility.yul\":3731:3749   */\n      add\n        /* \"#utility.yul\":3718:3750   */\n      calldataload\n        /* \"#utility.yul\":3777:3795   */\n      0xffffffffffffffff\n        /* \"#utility.yul\":3769:3775   */\n      dup2\n        /* \"#utility.yul\":3766:3796   */\n      gt\n        /* \"#utility.yul\":3763:3880   */\n      iszero\n      tag_260\n      jumpi\n        /* \"#utility.yul\":3799:3878   */\n      tag_261\n      tag_161\n      jump\t// in\n    tag_261:\n        /* \"#utility.yul\":3763:3880   */\n    tag_260:\n        /* \"#utility.yul\":3912:3976   */\n      tag_262\n        /* \"#utility.yul\":3968:3975   */\n      dup8\n        /* \"#utility.yul\":3959:3965   */\n      dup3\n        /* \"#utility.yul\":3948:3957   */\n      dup9\n        /* \"#utility.yul\":3944:3966   */\n      add\n        /* \"#utility.yul\":3912:3976   */\n      tag_172\n      jump\t// in\n    tag_262:\n        /* \"#utility.yul\":3894:3976   */\n      swap3\n      pop\n      swap3\n      pop\n        /* \"#utility.yul\":3689:3986   */\n      pop\n        /* \"#utility.yul\":3176:3993   */\n      swap3\n      swap6\n      swap2\n      swap5\n      pop\n      swap3\n      pop\n      jump\t// out\n        /* \"#utility.yul\":3999:4097   */\n    tag_173:\n        /* \"#utility.yul\":4050:4056   */\n      0x00\n        /* \"#utility.yul\":4084:4089   */\n      dup2\n        /* \"#utility.yul\":4078:4090   */\n      mload\n        /* \"#utility.yul\":4068:4090   */\n      swap1\n      pop\n        /* \"#utility.yul\":3999:4097   */\n      swap2\n      swap1\n      pop\n      jump\t// out\n        /* \"#utility.yul\":4103:4271   */\n    tag_174:\n        /* \"#utility.yul\":4186:4197   */\n      0x00\n        /* \"#utility.yul\":4220:4226   */\n      dup3\n        /* \"#utility.yul\":4215:4218   */\n      dup3\n        /* \"#utility.yul\":4208:4227   */\n      mstore\n        /* \"#utility.yul\":4260:4264   */\n      0x20\n        /* \"#utility.yul\":4255:4258   */\n      dup3\n        /* \"#utility.yul\":4251:4265   */\n      add\n        /* \"#utility.yul\":4236:4265   */\n      swap1\n      pop\n        /* \"#utility.yul\":4103:4271   */\n      swap3\n      swap2\n      pop\n      pop\n      jump\t// out\n        /* \"#utility.yul\":4277:4523   */\n    tag_175:\n        /* \"#utility.yul\":4358:4359   */\n      0x00\n        /* \"#utility.yul\":4368:4481   */\n    tag_266:\n        /* \"#utility.yul\":4382:4388   */\n      dup4\n        /* \"#utility.yul\":4379:4380   */\n      dup2\n        /* \"#utility.yul\":4376:4389   */\n      lt\n        /* \"#utility.yul\":4368:4481   */\n      iszero\n      tag_268\n      jumpi\n        /* \"#utility.yul\":4467:4468   */\n      dup1\n        /* \"#utility.yul\":4462:4465   */\n      dup3\n        /* \"#utility.yul\":4458:4469   */\n      add\n        /* \"#utility.yul\":4452:4470   */\n      mload\n        /* \"#utility.yul\":4448:4449   */\n      dup2\n        /* \"#utility.yul\":4443:4446   */\n      dup5\n        /* \"#utility.yul\":4439:4450   */\n      add\n        /* \"#utility.yul\":4432:4471   */\n      mstore\n        /* \"#utility.yul\":4404:4406   */\n      0x20\n        /* \"#utility.yul\":4401:4402   */\n      dup2\n        /* \"#utility.yul\":4397:4407   */\n      add\n        /* \"#utility.yul\":4392:4407   */\n      swap1\n      pop\n        /* \"#utility.yul\":4368:4481   */\n      jump(tag_266)\n    tag_268:\n        /* \"#utility.yul\":4515:4516   */\n      0x00\n        /* \"#utility.yul\":4506:4512   */\n      dup5\n        /* \"#utility.yul\":4501:4504   */\n      dup5\n        /* \"#utility.yul\":4497:4513   */\n      add\n        /* \"#utility.yul\":4490:4517   */\n      mstore\n        /* \"#utility.yul\":4339:4523   */\n      pop\n        /* \"#utility.yul\":4277:4523   */\n      pop\n      pop\n      pop\n      jump\t// out\n        /* \"#utility.yul\":4529:4631   */\n    tag_176:\n        /* \"#utility.yul\":4570:4576   */\n      0x00\n        /* \"#utility.yul\":4621:4623   */\n      0x1f\n        /* \"#utility.yul\":4617:4624   */\n      not\n        /* \"#utility.yul\":4612:4614   */\n      0x1f\n        /* \"#utility.yul\":4605:4610   */\n      dup4\n        /* \"#utility.yul\":4601:4615   */\n      add\n        /* \"#utility.yul\":4597:4625   */\n      and\n        /* \"#utility.yul\":4587:4625   */\n      swap1\n      pop\n        /* \"#utility.yul\":4529:4631   */\n      swap2\n      swap1\n      pop\n      jump\t// out\n        /* \"#utility.yul\":4637:5010   */\n    tag_177:\n        /* \"#utility.yul\":4723:4726   */\n      0x00\n        /* \"#utility.yul\":4751:4789   */\n      tag_271\n        /* \"#utility.yul\":4783:4788   */\n      dup3\n        /* \"#utility.yul\":4751:4789   */\n      tag_173\n      jump\t// in\n    tag_271:\n        /* \"#utility.yul\":4805:4875   */\n      tag_272\n        /* \"#utility.yul\":4868:4874   */\n      dup2\n        /* \"#utility.yul\":4863:4866   */\n      dup6\n        /* \"#utility.yul\":4805:4875   */\n      tag_174\n      jump\t// in\n    tag_272:\n        /* \"#utility.yul\":4798:4875   */\n      swap4\n      pop\n        /* \"#utility.yul\":4884:4949   */\n      tag_273\n        /* \"#utility.yul\":4942:4948   */\n      dup2\n        /* \"#utility.yul\":4937:4940   */\n      dup6\n        /* \"#utility.yul\":4930:4934   */\n      0x20\n        /* \"#utility.yul\":4923:4928   */\n      dup7\n        /* \"#utility.yul\":4919:4935   */\n      add\n        /* \"#utility.yul\":4884:4949   */\n      tag_175\n      jump\t// in\n    tag_273:\n        /* \"#utility.yul\":4974:5003   */\n      tag_274\n        /* \"#utility.yul\":4996:5002   */\n      dup2\n        /* \"#utility.yul\":4974:5003   */\n      tag_176\n      jump\t// in\n    tag_274:\n        /* \"#utility.yul\":4969:4972   */\n      dup5\n        /* \"#utility.yul\":4965:5004   */\n      add\n        /* \"#utility.yul\":4958:5004   */\n      swap2\n      pop\n        /* \"#utility.yul\":4727:5010   */\n      pop\n        /* \"#utility.yul\":4637:5010   */\n      swap3\n      swap2\n      pop\n      pop\n      jump\t// out\n        /* \"#utility.yul\":5016:5106   */\n    tag_178:\n        /* \"#utility.yul\":5050:5057   */\n      0x00\n        /* \"#utility.yul\":5093:5098   */\n      dup2\n        /* \"#utility.yul\":5086:5099   */\n      iszero\n        /* \"#utility.yul\":5079:5100   */\n      iszero\n        /* \"#utility.yul\":5068:5100   */\n      swap1\n      pop\n        /* \"#utility.yul\":5016:5106   */\n      swap2\n      swap1\n      pop\n      jump\t// out\n        /* \"#utility.yul\":5112:5221   */\n    tag_179:\n        /* \"#utility.yul\":5193:5214   */\n      tag_277\n        /* \"#utility.yul\":5208:5213   */\n      dup2\n        /* \"#utility.yul\":5193:5214   */\n      tag_178\n      jump\t// in\n    tag_277:\n        /* \"#utility.yul\":5188:5191   */\n      dup3\n        /* \"#utility.yul\":5181:5215   */\n      mstore\n        /* \"#utility.yul\":5112:5221   */\n      pop\n      pop\n      jump\t// out\n        /* \"#utility.yul\":5227:5855   */\n    tag_38:\n        /* \"#utility.yul\":5416:5420   */\n      0x00\n        /* \"#utility.yul\":5454:5457   */\n      0x80\n        /* \"#utility.yul\":5443:5452   */\n      dup3\n        /* \"#utility.yul\":5439:5458   */\n      add\n        /* \"#utility.yul\":5431:5458   */\n      swap1\n      pop\n        /* \"#utility.yul\":5468:5539   */\n      tag_279\n        /* \"#utility.yul\":5536:5537   */\n      0x00\n        /* \"#utility.yul\":5525:5534   */\n      dup4\n        /* \"#utility.yul\":5521:5538   */\n      add\n        /* \"#utility.yul\":5512:5518   */\n      dup8\n        /* \"#utility.yul\":5468:5539   */\n      tag_166\n      jump\t// in\n    tag_279:\n        /* \"#utility.yul\":5549:5621   */\n      tag_280\n        /* \"#utility.yul\":5617:5619   */\n      0x20\n        /* \"#utility.yul\":5606:5615   */\n      dup4\n        /* \"#utility.yul\":5602:5620   */\n      add\n        /* \"#utility.yul\":5593:5599   */\n      dup7\n        /* \"#utility.yul\":5549:5621   */\n      tag_158\n      jump\t// in\n    tag_280:\n        /* \"#utility.yul\":5668:5677   */\n      dup2\n        /* \"#utility.yul\":5662:5666   */\n      dup2\n        /* \"#utility.yul\":5658:5678   */\n      sub\n        /* \"#utility.yul\":5653:5655   */\n      0x40\n        /* \"#utility.yul\":5642:5651   */\n      dup4\n        /* \"#utility.yul\":5638:5656   */\n      add\n        /* \"#utility.yul\":5631:5679   */\n      mstore\n        /* \"#utility.yul\":5696:5772   */\n      tag_281\n        /* \"#utility.yul\":5767:5771   */\n      dup2\n        /* \"#utility.yul\":5758:5764   */\n      dup6\n        /* \"#utility.yul\":5696:5772   */\n      tag_177\n      jump\t// in\n    tag_281:\n        /* \"#utility.yul\":5688:5772   */\n      swap1\n      pop\n        /* \"#utility.yul\":5782:5848   */\n      tag_282\n        /* \"#utility.yul\":5844:5846   */\n      0x60\n        /* \"#utility.yul\":5833:5842   */\n      dup4\n        /* \"#utility.yul\":5829:5847   */\n      add\n        /* \"#utility.yul\":5820:5826   */\n      dup5\n        /* \"#utility.yul\":5782:5848   */\n      tag_179\n      jump\t// in\n    tag_282:\n        /* \"#utility.yul\":5227:5855   */\n      swap6\n      swap5\n      pop\n      pop\n      pop\n      pop\n      pop\n      jump\t// out\n        /* \"#utility.yul\":5861:6190   */\n    tag_42:\n        /* \"#utility.yul\":5920:5926   */\n      0x00\n        /* \"#utility.yul\":5969:5971   */\n      0x20\n        /* \"#utility.yul\":5957:5966   */\n      dup3\n        /* \"#utility.yul\":5948:5955   */\n      dup5\n        /* \"#utility.yul\":5944:5967   */\n      sub\n        /* \"#utility.yul\":5940:5972   */\n      slt\n        /* \"#utility.yul\":5937:6056   */\n      iszero\n      tag_284\n      jumpi\n        /* \"#utility.yul\":5975:6054   */\n      tag_285\n      tag_160\n      jump\t// in\n    tag_285:\n        /* \"#utility.yul\":5937:6056   */\n    tag_284:\n        /* \"#utility.yul\":6095:6096   */\n      0x00\n        /* \"#utility.yul\":6120:6173   */\n      tag_286\n        /* \"#utility.yul\":6165:6172   */\n      dup5\n        /* \"#utility.yul\":6156:6162   */\n      dup3\n        /* \"#utility.yul\":6145:6154   */\n      dup6\n        /* \"#utility.yul\":6141:6163   */\n      add\n        /* \"#utility.yul\":6120:6173   */\n      tag_168\n      jump\t// in\n    tag_286:\n        /* \"#utility.yul\":6110:6173   */\n      swap2\n      pop\n        /* \"#utility.yul\":6066:6183   */\n      pop\n        /* \"#utility.yul\":5861:6190   */\n      swap3\n      swap2\n      pop\n      pop\n      jump\t// out\n        /* \"#utility.yul\":6196:6406   */\n    tag_45:\n        /* \"#utility.yul\":6283:6287   */\n      0x00\n        /* \"#utility.yul\":6321:6323   */\n      0x20\n        /* \"#utility.yul\":6310:6319   */\n      dup3\n        /* \"#utility.yul\":6306:6324   */\n      add\n        /* \"#utility.yul\":6298:6324   */\n      swap1\n      pop\n        /* \"#utility.yul\":6334:6399   */\n      tag_288\n        /* \"#utility.yul\":6396:6397   */\n      0x00\n        /* \"#utility.yul\":6385:6394   */\n      dup4\n        /* \"#utility.yul\":6381:6398   */\n      add\n        /* \"#utility.yul\":6372:6378   */\n      dup5\n        /* \"#utility.yul\":6334:6399   */\n      tag_179\n      jump\t// in\n    tag_288:\n        /* \"#utility.yul\":6196:6406   */\n      swap3\n      swap2\n      pop\n      pop\n      jump\t// out\n        /* \"#utility.yul\":6412:6886   */\n    tag_49:\n        /* \"#utility.yul\":6480:6486   */\n      0x00\n        /* \"#utility.yul\":6488:6494   */\n      dup1\n        /* \"#utility.yul\":6537:6539   */\n      0x40\n        /* \"#utility.yul\":6525:6534   */\n      dup4\n        /* \"#utility.yul\":6516:6523   */\n      dup6\n        /* \"#utility.yul\":6512:6535   */\n      sub\n        /* \"#utility.yul\":6508:6540   */\n      slt\n        /* \"#utility.yul\":6505:6624   */\n      iszero\n      tag_290\n      jumpi\n        /* \"#utility.yul\":6543:6622   */\n      tag_291\n      tag_160\n      jump\t// in\n    tag_291:\n        /* \"#utility.yul\":6505:6624   */\n    tag_290:\n        /* \"#utility.yul\":6663:6664   */\n      0x00\n        /* \"#utility.yul\":6688:6741   */\n      tag_292\n        /* \"#utility.yul\":6733:6740   */\n      dup6\n        /* \"#utility.yul\":6724:6730   */\n      dup3\n        /* \"#utility.yul\":6713:6722   */\n      dup7\n        /* \"#utility.yul\":6709:6731   */\n      add\n        /* \"#utility.yul\":6688:6741   */\n      tag_163\n      jump\t// in\n    tag_292:\n        /* \"#utility.yul\":6678:6741   */\n      swap3\n      pop\n        /* \"#utility.yul\":6634:6751   */\n      pop\n        /* \"#utility.yul\":6790:6792   */\n      0x20\n        /* \"#utility.yul\":6816:6869   */\n      tag_293\n        /* \"#utility.yul\":6861:6868   */\n      dup6\n        /* \"#utility.yul\":6852:6858   */\n      dup3\n        /* \"#utility.yul\":6841:6850   */\n      dup7\n        /* \"#utility.yul\":6837:6859   */\n      add\n        /* \"#utility.yul\":6816:6869   */\n      tag_168\n      jump\t// in\n    tag_293:\n        /* \"#utility.yul\":6806:6869   */\n      swap2\n      pop\n        /* \"#utility.yul\":6761:6879   */\n      pop\n        /* \"#utility.yul\":6412:6886   */\n      swap3\n      pop\n      swap3\n      swap1\n      pop\n      jump\t// out\n        /* \"#utility.yul\":6892:7061   */\n    tag_180:\n        /* \"#utility.yul\":6976:6987   */\n      0x00\n        /* \"#utility.yul\":7010:7016   */\n      dup3\n        /* \"#utility.yul\":7005:7008   */\n      dup3\n        /* \"#utility.yul\":6998:7017   */\n      mstore\n        /* \"#utility.yul\":7050:7054   */\n      0x20\n        /* \"#utility.yul\":7045:7048   */\n      dup3\n        /* \"#utility.yul\":7041:7055   */\n      add\n        /* \"#utility.yul\":7026:7055   */\n      swap1\n      pop\n        /* \"#utility.yul\":6892:7061   */\n      swap3\n      swap2\n      pop\n      pop\n      jump\t// out\n        /* \"#utility.yul\":7067:7226   */\n    tag_181:\n        /* \"#utility.yul\":7207:7218   */\n      0x6e6f74204f776e65720000000000000000000000000000000000000000000000\n        /* \"#utility.yul\":7203:7204   */\n      0x00\n        /* \"#utility.yul\":7195:7201   */\n      dup3\n        /* \"#utility.yul\":7191:7205   */\n      add\n        /* \"#utility.yul\":7184:7219   */\n      mstore\n        /* \"#utility.yul\":7067:7226   */\n      pop\n      jump\t// out\n        /* \"#utility.yul\":7232:7597   */\n    tag_182:\n        /* \"#utility.yul\":7374:7377   */\n      0x00\n        /* \"#utility.yul\":7395:7461   */\n      tag_297\n        /* \"#utility.yul\":7459:7460   */\n      0x09\n        /* \"#utility.yul\":7454:7457   */\n      dup4\n        /* \"#utility.yul\":7395:7461   */\n      tag_180\n      jump\t// in\n    tag_297:\n        /* \"#utility.yul\":7388:7461   */\n      swap2\n      pop\n        /* \"#utility.yul\":7470:7563   */\n      tag_298\n        /* \"#utility.yul\":7559:7562   */\n      dup3\n        /* \"#utility.yul\":7470:7563   */\n      tag_181\n      jump\t// in\n    tag_298:\n        /* \"#utility.yul\":7588:7590   */\n      0x20\n        /* \"#utility.yul\":7583:7586   */\n      dup3\n        /* \"#utility.yul\":7579:7591   */\n      add\n        /* \"#utility.yul\":7572:7591   */\n      swap1\n      pop\n        /* \"#utility.yul\":7232:7597   */\n      swap2\n      swap1\n      pop\n      jump\t// out\n        /* \"#utility.yul\":7603:8022   */\n    tag_69:\n        /* \"#utility.yul\":7769:7773   */\n      0x00\n        /* \"#utility.yul\":7807:7809   */\n      0x20\n        /* \"#utility.yul\":7796:7805   */\n      dup3\n        /* \"#utility.yul\":7792:7810   */\n      add\n        /* \"#utility.yul\":7784:7810   */\n      swap1\n      pop\n        /* \"#utility.yul\":7856:7865   */\n      dup2\n        /* \"#utility.yul\":7850:7854   */\n      dup2\n        /* \"#utility.yul\":7846:7866   */\n      sub\n        /* \"#utility.yul\":7842:7843   */\n      0x00\n        /* \"#utility.yul\":7831:7840   */\n      dup4\n        /* \"#utility.yul\":7827:7844   */\n      add\n        /* \"#utility.yul\":7820:7867   */\n      mstore\n        /* \"#utility.yul\":7884:8015   */\n      tag_300\n        /* \"#utility.yul\":8010:8014   */\n      dup2\n        /* \"#utility.yul\":7884:8015   */\n      tag_182\n      jump\t// in\n    tag_300:\n        /* \"#utility.yul\":7876:8015   */\n      swap1\n      pop\n        /* \"#utility.yul\":7603:8022   */\n      swap2\n      swap1\n      pop\n      jump\t// out\n        /* \"#utility.yul\":8028:8208   */\n    tag_183:\n        /* \"#utility.yul\":8076:8153   */\n      0x4e487b7100000000000000000000000000000000000000000000000000000000\n        /* \"#utility.yul\":8073:8074   */\n      0x00\n        /* \"#utility.yul\":8066:8154   */\n      mstore\n        /* \"#utility.yul\":8173:8177   */\n      0x41\n        /* \"#utility.yul\":8170:8171   */\n      0x04\n        /* \"#utility.yul\":8163:8178   */\n      mstore\n        /* \"#utility.yul\":8197:8201   */\n      0x24\n        /* \"#utility.yul\":8194:8195   */\n      0x00\n        /* \"#utility.yul\":8187:8202   */\n      revert\n        /* \"#utility.yul\":8214:8394   */\n    tag_184:\n        /* \"#utility.yul\":8262:8339   */\n      0x4e487b7100000000000000000000000000000000000000000000000000000000\n        /* \"#utility.yul\":8259:8260   */\n      0x00\n        /* \"#utility.yul\":8252:8340   */\n      mstore\n        /* \"#utility.yul\":8359:8363   */\n      0x22\n        /* \"#utility.yul\":8356:8357   */\n      0x04\n        /* \"#utility.yul\":8349:8364   */\n      mstore\n        /* \"#utility.yul\":8383:8387   */\n      0x24\n        /* \"#utility.yul\":8380:8381   */\n      0x00\n        /* \"#utility.yul\":8373:8388   */\n      revert\n        /* \"#utility.yul\":8400:8720   */\n    tag_98:\n        /* \"#utility.yul\":8444:8450   */\n      0x00\n        /* \"#utility.yul\":8481:8482   */\n      0x02\n        /* \"#utility.yul\":8475:8479   */\n      dup3\n        /* \"#utility.yul\":8471:8483   */\n      div\n        /* \"#utility.yul\":8461:8483   */\n      swap1\n      pop\n        /* \"#utility.yul\":8528:8529   */\n      0x01\n        /* \"#utility.yul\":8522:8526   */\n      dup3\n        /* \"#utility.yul\":8518:8530   */\n      and\n        /* \"#utility.yul\":8549:8567   */\n      dup1\n        /* \"#utility.yul\":8539:8620   */\n      tag_304\n      jumpi\n        /* \"#utility.yul\":8605:8609   */\n      0x7f\n        /* \"#utility.yul\":8597:8603   */\n      dup3\n        /* \"#utility.yul\":8593:8610   */\n      and\n        /* \"#utility.yul\":8583:8610   */\n      swap2\n      pop\n        /* \"#utility.yul\":8539:8620   */\n    tag_304:\n        /* \"#utility.yul\":8667:8669   */\n      0x20\n        /* \"#utility.yul\":8659:8665   */\n      dup3\n        /* \"#utility.yul\":8656:8670   */\n      lt\n        /* \"#utility.yul\":8636:8654   */\n      dup2\n        /* \"#utility.yul\":8633:8671   */\n      sub\n        /* \"#utility.yul\":8630:8714   */\n      tag_305\n      jumpi\n        /* \"#utility.yul\":8686:8704   */\n      tag_306\n      tag_184\n      jump\t// in\n    tag_306:\n        /* \"#utility.yul\":8630:8714   */\n    tag_305:\n        /* \"#utility.yul\":8451:8720   */\n      pop\n        /* \"#utility.yul\":8400:8720   */\n      swap2\n      swap1\n      pop\n      jump\t// out\n        /* \"#utility.yul\":8726:8866   */\n    tag_185:\n        /* \"#utility.yul\":8774:8778   */\n      0x00\n        /* \"#utility.yul\":8797:8800   */\n      dup2\n        /* \"#utility.yul\":8789:8800   */\n      swap1\n      pop\n        /* \"#utility.yul\":8820:8823   */\n      dup2\n        /* \"#utility.yul\":8817:8818   */\n      0x00\n        /* \"#utility.yul\":8810:8824   */\n      mstore\n        /* \"#utility.yul\":8854:8858   */\n      0x20\n        /* \"#utility.yul\":8851:8852   */\n      0x00\n        /* \"#utility.yul\":8841:8859   */\n      keccak256\n        /* \"#utility.yul\":8833:8859   */\n      swap1\n      pop\n        /* \"#utility.yul\":8726:8866   */\n      swap2\n      swap1\n      pop\n      jump\t// out\n        /* \"#utility.yul\":8872:8965   */\n    tag_186:\n        /* \"#utility.yul\":8909:8915   */\n      0x00\n        /* \"#utility.yul\":8956:8958   */\n      0x20\n        /* \"#utility.yul\":8951:8953   */\n      0x1f\n        /* \"#utility.yul\":8944:8949   */\n      dup4\n        /* \"#utility.yul\":8940:8954   */\n      add\n        /* \"#utility.yul\":8936:8959   */\n      div\n        /* \"#utility.yul\":8926:8959   */\n      swap1\n      pop\n        /* \"#utility.yul\":8872:8965   */\n      swap2\n      swap1\n      pop\n      jump\t// out\n        /* \"#utility.yul\":8971:9078   */\n    tag_187:\n        /* \"#utility.yul\":9015:9023   */\n      0x00\n        /* \"#utility.yul\":9065:9070   */\n      dup3\n        /* \"#utility.yul\":9059:9063   */\n      dup3\n        /* \"#utility.yul\":9055:9071   */\n      shl\n        /* \"#utility.yul\":9034:9071   */\n      swap1\n      pop\n        /* \"#utility.yul\":8971:9078   */\n      swap3\n      swap2\n      pop\n      pop\n      jump\t// out\n        /* \"#utility.yul\":9084:9477   */\n    tag_188:\n        /* \"#utility.yul\":9153:9159   */\n      0x00\n        /* \"#utility.yul\":9203:9204   */\n      0x08\n        /* \"#utility.yul\":9191:9201   */\n      dup4\n        /* \"#utility.yul\":9187:9205   */\n      mul\n        /* \"#utility.yul\":9226:9323   */\n      tag_311\n        /* \"#utility.yul\":9256:9322   */\n      0xffffffffffffffffffffffffffffffffffffffffffffffffffffffffffffffff\n        /* \"#utility.yul\":9245:9254   */\n      dup3\n        /* \"#utility.yul\":9226:9323   */\n      tag_187\n      jump\t// in\n    tag_311:\n        /* \"#utility.yul\":9344:9383   */\n      tag_312\n        /* \"#utility.yul\":9374:9382   */\n      dup7\n        /* \"#utility.yul\":9363:9372   */\n      dup4\n        /* \"#utility.yul\":9344:9383   */\n      tag_187\n      jump\t// in\n    tag_312:\n        /* \"#utility.yul\":9332:9383   */\n      swap6\n      pop\n        /* \"#utility.yul\":9416:9420   */\n      dup1\n        /* \"#utility.yul\":9412:9421   */\n      not\n        /* \"#utility.yul\":9405:9410   */\n      dup5\n        /* \"#utility.yul\":9401:9422   */\n      and\n        /* \"#utility.yul\":9392:9422   */\n      swap4\n      pop\n        /* \"#utility.yul\":9465:9469   */\n      dup1\n        /* \"#utility.yul\":9455:9463   */\n      dup7\n        /* \"#utility.yul\":9451:9470   */\n      and\n        /* \"#utility.yul\":9444:9449   */\n      dup5\n        /* \"#utility.yul\":9441:9471   */\n      or\n        /* \"#utility.yul\":9431:9471   */\n      swap3\n      pop\n        /* \"#utility.yul\":9160:9477   */\n      pop\n      pop\n        /* \"#utility.yul\":9084:9477   */\n      swap4\n      swap3\n      pop\n      pop\n      pop\n      jump\t// out\n        /* \"#utility.yul\":9483:9543   */\n    tag_189:\n        /* \"#utility.yul\":9511:9514   */\n      0x00\n        /* \"#utility.yul\":9532:9537   */\n      dup2\n        /* \"#utility.yul\":9525:9537   */\n      swap1\n      pop\n        /* \"#utility.yul\":9483:9543   */\n      swap2\n      swap1\n      pop\n      jump\t// out\n        /* \"#utility.yul\":9549:9691   */\n    tag_190:\n        /* \"#utility.yul\":9599:9608   */\n      0x00\n        /* \"#utility.yul\":9632:9685   */\n      tag_315\n        /* \"#utility.yul\":9650:9684   */\n      tag_316\n        /* \"#utility.yul\":9659:9683   */\n      tag_317\n        /* \"#utility.yul\":9677:9682   */\n      dup5\n        /* \"#utility.yul\":9659:9683   */\n      tag_157\n      jump\t// in\n    tag_317:\n        /* \"#utility.yul\":9650:9684   */\n      tag_189\n      jump\t// in\n    tag_316:\n        /* \"#utility.yul\":9632:9685   */\n      tag_157\n      jump\t// in\n    tag_315:\n        /* \"#utility.yul\":9619:9685   */\n      swap1\n      pop\n        /* \"#utility.yul\":9549:9691   */\n      swap2\n      swap1\n      pop\n      jump\t// out\n        /* \"#utility.yul\":9697:9772   */\n    tag_191:\n        /* \"#utility.yul\":9740:9743   */\n      0x00\n        /* \"#utility.yul\":9761:9766   */\n      dup2\n        /* \"#utility.yul\":9754:9766   */\n      swap1\n      pop\n        /* \"#utility.yul\":9697:9772   */\n      swap2\n      swap1\n      pop\n      jump\t// out\n        /* \"#utility.yul\":9778:10047   */\n    tag_192:\n        /* \"#utility.yul\":9888:9927   */\n      tag_320\n        /* \"#utility.yul\":9919:9926   */\n      dup4\n        /* \"#utility.yul\":9888:9927   */\n      tag_190\n      jump\t// in\n    tag_320:\n        /* \"#utility.yul\":9949:10040   */\n      tag_321\n        /* \"#utility.yul\":9998:10039   */\n      tag_322\n        /* \"#utility.yul\":10022:10038   */\n      dup3\n        /* \"#utility.yul\":9998:10039   */\n      tag_191\n      jump\t// in\n    tag_322:\n        /* \"#utility.yul\":9990:9996   */\n      dup5\n        /* \"#utility.yul\":9983:9987   */\n      dup5\n        /* \"#utility.yul\":9977:9988   */\n      sload\n        /* \"#utility.yul\":9949:10040   */\n      tag_188\n      jump\t// in\n    tag_321:\n        /* \"#utility.yul\":9943:9947   */\n      dup3\n        /* \"#utility.yul\":9936:10041   */\n      sstore\n        /* \"#utility.yul\":9854:10047   */\n      pop\n        /* \"#utility.yul\":9778:10047   */\n      pop\n      pop\n      pop\n      jump\t// out\n        /* \"#utility.yul\":10053:10126   */\n    tag_193:\n        /* \"#utility.yul\":10098:10101   */\n      0x00\n        /* \"#utility.yul\":10053:10126   */\n      swap1\n      jump\t// out\n        /* \"#utility.yul\":10132:10321   */\n    tag_194:\n        /* \"#utility.yul\":10209:10241   */\n      tag_325\n      tag_193\n      jump\t// in\n    tag_325:\n        /* \"#utility.yul\":10250:10315   */\n      tag_326\n        /* \"#utility.yul\":10308:10314   */\n      dup2\n        /* \"#utility.yul\":10300:10306   */\n      dup5\n        /* \"#utility.yul\":10294:10298   */\n      dup5\n        /* \"#utility.yul\":10250:10315   */\n      tag_192\n      jump\t// in\n    tag_326:\n        /* \"#utility.yul\":10185:10321   */\n      pop\n        /* \"#utility.yul\":10132:10321   */\n      pop\n      pop\n      jump\t// out\n        /* \"#utility.yul\":10327:10513   */\n    tag_195:\n        /* \"#utility.yul\":10387:10507   */\n    tag_328:\n        /* \"#utility.yul\":10404:10407   */\n      dup2\n        /* \"#utility.yul\":10397:10402   */\n      dup2\n        /* \"#utility.yul\":10394:10408   */\n      lt\n        /* \"#utility.yul\":10387:10507   */\n      iszero\n      tag_330\n      jumpi\n        /* \"#utility.yul\":10458:10497   */\n      tag_331\n        /* \"#utility.yul\":10495:10496   */\n      0x00\n        /* \"#utility.yul\":10488:10493   */\n      dup3\n        /* \"#utility.yul\":10458:10497   */\n      tag_194\n      jump\t// in\n    tag_331:\n        /* \"#utility.yul\":10431:10432   */\n      0x01\n        /* \"#utility.yul\":10424:10429   */\n      dup2\n        /* \"#utility.yul\":10420:10433   */\n      add\n        /* \"#utility.yul\":10411:10433   */\n      swap1\n      pop\n        /* \"#utility.yul\":10387:10507   */\n      jump(tag_328)\n    tag_330:\n        /* \"#utility.yul\":10327:10513   */\n      pop\n      pop\n      jump\t// out\n        /* \"#utility.yul\":10519:11060   */\n    tag_196:\n        /* \"#utility.yul\":10619:10621   */\n      0x1f\n        /* \"#utility.yul\":10614:10617   */\n      dup3\n        /* \"#utility.yul\":10611:10622   */\n      gt\n        /* \"#utility.yul\":10608:11053   */\n      iszero\n      tag_333\n      jumpi\n        /* \"#utility.yul\":10653:10690   */\n      tag_334\n        /* \"#utility.yul\":10684:10689   */\n      dup2\n        /* \"#utility.yul\":10653:10690   */\n      tag_185\n      jump\t// in\n    tag_334:\n        /* \"#utility.yul\":10736:10765   */\n      tag_335\n        /* \"#utility.yul\":10754:10764   */\n      dup5\n        /* \"#utility.yul\":10736:10765   */\n      tag_186\n      jump\t// in\n    tag_335:\n        /* \"#utility.yul\":10726:10734   */\n      dup2\n        /* \"#utility.yul\":10722:10766   */\n      add\n        /* \"#utility.yul\":10919:10921   */\n      0x20\n        /* \"#utility.yul\":10907:10917   */\n      dup6\n        /* \"#utility.yul\":10904:10922   */\n      lt\n        /* \"#utility.yul\":10901:10950   */\n      iszero\n      tag_336\n      jumpi\n        /* \"#utility.yul\":10940:10948   */\n      dup2\n        /* \"#utility.yul\":10925:10948   */\n      swap1\n      pop\n        /* \"#utility.yul\":10901:10950   */\n    tag_336:\n        /* \"#utility.yul\":10963:11043   */\n      tag_337\n        /* \"#utility.yul\":11019:11041   */\n      tag_338\n        /* \"#utility.yul\":11037:11040   */\n      dup6\n        /* \"#utility.yul\":11019:11041   */\n      tag_186\n      jump\t// in\n    tag_338:\n        /* \"#utility.yul\":11009:11017   */\n      dup4\n        /* \"#utility.yul\":11005:11042   */\n      add\n        /* \"#utility.yul\":10992:11003   */\n      dup3\n        /* \"#utility.yul\":10963:11043   */\n      tag_195\n      jump\t// in\n    tag_337:\n        /* \"#utility.yul\":10623:11053   */\n      pop\n      pop\n        /* \"#utility.yul\":10608:11053   */\n    tag_333:\n        /* \"#utility.yul\":10519:11060   */\n      pop\n      pop\n      pop\n      jump\t// out\n        /* \"#utility.yul\":11066:11183   */\n    tag_197:\n        /* \"#utility.yul\":11120:11128   */\n      0x00\n        /* \"#utility.yul\":11170:11175   */\n      dup3\n        /* \"#utility.yul\":11164:11168   */\n      dup3\n        /* \"#utility.yul\":11160:11176   */\n      shr\n        /* \"#utility.yul\":11139:11176   */\n      swap1\n      pop\n        /* \"#utility.yul\":11066:11183   */\n      swap3\n      swap2\n      pop\n      pop\n      jump\t// out\n        /* \"#utility.yul\":11189:11358   */\n    tag_198:\n        /* \"#utility.yul\":11233:11239   */\n      0x00\n        /* \"#utility.yul\":11266:11317   */\n      tag_341\n        /* \"#utility.yul\":11314:11315   */\n      0x00\n        /* \"#utility.yul\":11310:11316   */\n      not\n        /* \"#utility.yul\":11302:11307   */\n      dup5\n        /* \"#utility.yul\":11299:11300   */\n      0x08\n        /* \"#utility.yul\":11295:11308   */\n      mul\n        /* \"#utility.yul\":11266:11317   */\n      tag_197\n      jump\t// in\n    tag_341:\n        /* \"#utility.yul\":11262:11318   */\n      not\n        /* \"#utility.yul\":11347:11351   */\n      dup1\n        /* \"#utility.yul\":11341:11345   */\n      dup4\n        /* \"#utility.yul\":11337:11352   */\n      and\n        /* \"#utility.yul\":11327:11352   */\n      swap2\n      pop\n        /* \"#utility.yul\":11240:11358   */\n      pop\n        /* \"#utility.yul\":11189:11358   */\n      swap3\n      swap2\n      pop\n      pop\n      jump\t// out\n        /* \"#utility.yul\":11363:11658   */\n    tag_199:\n        /* \"#utility.yul\":11439:11443   */\n      0x00\n        /* \"#utility.yul\":11585:11614   */\n      tag_343\n        /* \"#utility.yul\":11610:11613   */\n      dup4\n        /* \"#utility.yul\":11604:11608   */\n      dup4\n        /* \"#utility.yul\":11585:11614   */\n      tag_198\n      jump\t// in\n    tag_343:\n        /* \"#utility.yul\":11577:11614   */\n      swap2\n      pop\n        /* \"#utility.yul\":11647:11650   */\n      dup3\n        /* \"#utility.yul\":11644:11645   */\n      0x02\n        /* \"#utility.yul\":11640:11651   */\n      mul\n        /* \"#utility.yul\":11634:11638   */\n      dup3\n        /* \"#utility.yul\":11631:11652   */\n      or\n        /* \"#utility.yul\":11623:11652   */\n      swap1\n      pop\n        /* \"#utility.yul\":11363:11658   */\n      swap3\n      swap2\n      pop\n      pop\n      jump\t// out\n        /* \"#utility.yul\":11663:13053   */\n    tag_73:\n        /* \"#utility.yul\":11778:11814   */\n      tag_345\n        /* \"#utility.yul\":11810:11813   */\n      dup3\n        /* \"#utility.yul\":11778:11814   */\n      tag_173\n      jump\t// in\n    tag_345:\n        /* \"#utility.yul\":11879:11897   */\n      0xffffffffffffffff\n        /* \"#utility.yul\":11871:11877   */\n      dup2\n        /* \"#utility.yul\":11868:11898   */\n      gt\n        /* \"#utility.yul\":11865:11921   */\n      iszero\n      tag_346\n      jumpi\n        /* \"#utility.yul\":11901:11919   */\n      tag_347\n      tag_183\n      jump\t// in\n    tag_347:\n        /* \"#utility.yul\":11865:11921   */\n    tag_346:\n        /* \"#utility.yul\":11945:11983   */\n      tag_348\n        /* \"#utility.yul\":11977:11981   */\n      dup3\n        /* \"#utility.yul\":11971:11982   */\n      sload\n        /* \"#utility.yul\":11945:11983   */\n      tag_98\n      jump\t// in\n    tag_348:\n        /* \"#utility.yul\":12030:12096   */\n      tag_349\n        /* \"#utility.yul\":12089:12095   */\n      dup3\n        /* \"#utility.yul\":12081:12087   */\n      dup3\n        /* \"#utility.yul\":12075:12079   */\n      dup6\n        /* \"#utility.yul\":12030:12096   */\n      tag_196\n      jump\t// in\n    tag_349:\n        /* \"#utility.yul\":12123:12124   */\n      0x00\n        /* \"#utility.yul\":12147:12151   */\n      0x20\n        /* \"#utility.yul\":12134:12151   */\n      swap1\n      pop\n        /* \"#utility.yul\":12179:12181   */\n      0x1f\n        /* \"#utility.yul\":12171:12177   */\n      dup4\n        /* \"#utility.yul\":12168:12182   */\n      gt\n        /* \"#utility.yul\":12196:12197   */\n      0x01\n        /* \"#utility.yul\":12191:12808   */\n      dup2\n      eq\n      tag_351\n      jumpi\n        /* \"#utility.yul\":12852:12853   */\n      0x00\n        /* \"#utility.yul\":12869:12875   */\n      dup5\n        /* \"#utility.yul\":12866:12943   */\n      iszero\n      tag_352\n      jumpi\n        /* \"#utility.yul\":12918:12927   */\n      dup3\n        /* \"#utility.yul\":12913:12916   */\n      dup8\n        /* \"#utility.yul\":12909:12928   */\n      add\n        /* \"#utility.yul\":12903:12929   */\n      mload\n        /* \"#utility.yul\":12894:12929   */\n      swap1\n      pop\n        /* \"#utility.yul\":12866:12943   */\n    tag_352:\n        /* \"#utility.yul\":12969:13036   */\n      tag_353\n        /* \"#utility.yul\":13029:13035   */\n      dup6\n        /* \"#utility.yul\":13022:13027   */\n      dup3\n        /* \"#utility.yul\":12969:13036   */\n      tag_199\n      jump\t// in\n    tag_353:\n        /* \"#utility.yul\":12963:12967   */\n      dup7\n        /* \"#utility.yul\":12956:13037   */\n      sstore\n        /* \"#utility.yul\":12825:13047   */\n      pop\n        /* \"#utility.yul\":12161:13047   */\n      jump(tag_350)\n        /* \"#utility.yul\":12191:12808   */\n    tag_351:\n        /* \"#utility.yul\":12243:12247   */\n      0x1f\n        /* \"#utility.yul\":12239:12248   */\n      not\n        /* \"#utility.yul\":12231:12237   */\n      dup5\n        /* \"#utility.yul\":12227:12249   */\n      and\n        /* \"#utility.yul\":12277:12313   */\n      tag_354\n        /* \"#utility.yul\":12308:12312   */\n      dup7\n        /* \"#utility.yul\":12277:12313   */\n      tag_185\n      jump\t// in\n    tag_354:\n        /* \"#utility.yul\":12335:12336   */\n      0x00\n        /* \"#utility.yul\":12349:12557   */\n    tag_355:\n        /* \"#utility.yul\":12363:12370   */\n      dup3\n        /* \"#utility.yul\":12360:12361   */\n      dup2\n        /* \"#utility.yul\":12357:12371   */\n      lt\n        /* \"#utility.yul\":12349:12557   */\n      iszero\n      tag_357\n      jumpi\n        /* \"#utility.yul\":12442:12451   */\n      dup5\n        /* \"#utility.yul\":12437:12440   */\n      dup10\n        /* \"#utility.yul\":12433:12452   */\n      add\n        /* \"#utility.yul\":12427:12453   */\n      mload\n        /* \"#utility.yul\":12419:12425   */\n      dup3\n        /* \"#utility.yul\":12412:12454   */\n      sstore\n        /* \"#utility.yul\":12493:12494   */\n      0x01\n        /* \"#utility.yul\":12485:12491   */\n      dup3\n        /* \"#utility.yul\":12481:12495   */\n      add\n        /* \"#utility.yul\":12471:12495   */\n      swap2\n      pop\n        /* \"#utility.yul\":12540:12542   */\n      0x20\n        /* \"#utility.yul\":12529:12538   */\n      dup6\n        /* \"#utility.yul\":12525:12543   */\n      add\n        /* \"#utility.yul\":12512:12543   */\n      swap5\n      pop\n        /* \"#utility.yul\":12386:12390   */\n      0x20\n        /* \"#utility.yul\":12383:12384   */\n      dup2\n        /* \"#utility.yul\":12379:12391   */\n      add\n        /* \"#utility.yul\":12374:12391   */\n      swap1\n      pop\n        /* \"#utility.yul\":12349:12557   */\n      jump(tag_355)\n    tag_357:\n        /* \"#utility.yul\":12585:12591   */\n      dup7\n        /* \"#utility.yul\":12576:12583   */\n      dup4\n        /* \"#utility.yul\":12573:12592   */\n      lt\n        /* \"#utility.yul\":12570:12749   */\n      iszero\n      tag_358\n      jumpi\n        /* \"#utility.yul\":12643:12652   */\n      dup5\n        /* \"#utility.yul\":12638:12641   */\n      dup10\n        /* \"#utility.yul\":12634:12653   */\n      add\n        /* \"#utility.yul\":12628:12654   */\n      mload\n        /* \"#utility.yul\":12686:12734   */\n      tag_359\n        /* \"#utility.yul\":12728:12732   */\n      0x1f\n        /* \"#utility.yul\":12720:12726   */\n      dup10\n        /* \"#utility.yul\":12716:12733   */\n      and\n        /* \"#utility.yul\":12705:12714   */\n      dup3\n        /* \"#utility.yul\":12686:12734   */\n      tag_198\n      jump\t// in\n    tag_359:\n        /* \"#utility.yul\":12678:12684   */\n      dup4\n        /* \"#utility.yul\":12671:12735   */\n      sstore\n        /* \"#utility.yul\":12593:12749   */\n      pop\n        /* \"#utility.yul\":12570:12749   */\n    tag_358:\n        /* \"#utility.yul\":12795:12796   */\n      0x01\n        /* \"#utility.yul\":12791:12792   */\n      0x02\n        /* \"#utility.yul\":12783:12789   */\n      dup9\n        /* \"#utility.yul\":12779:12793   */\n      mul\n        /* \"#utility.yul\":12775:12797   */\n      add\n        /* \"#utility.yul\":12769:12773   */\n      dup9\n        /* \"#utility.yul\":12762:12798   */\n      sstore\n        /* \"#utility.yul\":12198:12808   */\n      pop\n      pop\n      pop\n        /* \"#utility.yul\":12161:13047   */\n    tag_350:\n      pop\n        /* \"#utility.yul\":11753:13053   */\n      pop\n      pop\n      pop\n        /* \"#utility.yul\":11663:13053   */\n      pop\n      pop\n      jump\t// out\n        /* \"#utility.yul\":13059:13239   */\n    tag_200:\n        /* \"#utility.yul\":13107:13184   */\n      0x4e487b7100000000000000000000000000000000000000000000000000000000\n        /* \"#utility.yul\":13104:13105   */\n      0x00\n        /* \"#utility.yul\":13097:13185   */\n      mstore\n        /* \"#utility.yul\":13204:13208   */\n      0x11\n        /* \"#utility.yul\":13201:13202   */\n      0x04\n        /* \"#utility.yul\":13194:13209   */\n      mstore\n        /* \"#utility.yul\":13228:13232   */\n      0x24\n        /* \"#utility.yul\":13225:13226   */\n      0x00\n        /* \"#utility.yul\":13218:13233   */\n      revert\n        /* \"#utility.yul\":13245:13439   */\n    tag_75:\n        /* \"#utility.yul\":13285:13289   */\n      0x00\n        /* \"#utility.yul\":13305:13325   */\n      tag_362\n        /* \"#utility.yul\":13323:13324   */\n      dup3\n        /* \"#utility.yul\":13305:13325   */\n      tag_157\n      jump\t// in\n    tag_362:\n        /* \"#utility.yul\":13300:13325   */\n      swap2\n      pop\n        /* \"#utility.yul\":13339:13359   */\n      tag_363\n        /* \"#utility.yul\":13357:13358   */\n      dup4\n        /* \"#utility.yul\":13339:13359   */\n      tag_157\n      jump\t// in\n    tag_363:\n        /* \"#utility.yul\":13334:13359   */\n      swap3\n      pop\n        /* \"#utility.yul\":13383:13384   */\n      dup3\n        /* \"#utility.yul\":13380:13381   */\n      dup3\n        /* \"#utility.yul\":13376:13385   */\n      sub\n        /* \"#utility.yul\":13368:13385   */\n      swap1\n      pop\n        /* \"#utility.yul\":13407:13408   */\n      dup2\n        /* \"#utility.yul\":13401:13405   */\n      dup2\n        /* \"#utility.yul\":13398:13409   */\n      gt\n        /* \"#utility.yul\":13395:13432   */\n      iszero\n      tag_364\n      jumpi\n        /* \"#utility.yul\":13412:13430   */\n      tag_365\n      tag_200\n      jump\t// in\n    tag_365:\n        /* \"#utility.yul\":13395:13432   */\n    tag_364:\n        /* \"#utility.yul\":13245:13439   */\n      swap3\n      swap2\n      pop\n      pop\n      jump\t// out\n        /* \"#utility.yul\":13445:13612   */\n    tag_201:\n        /* \"#utility.yul\":13585:13604   */\n      0x747820646f6573206e6f74206578697374000000000000000000000000000000\n        /* \"#utility.yul\":13581:13582   */\n      0x00\n        /* \"#utility.yul\":13573:13579   */\n      dup3\n        /* \"#utility.yul\":13569:13583   */\n      add\n        /* \"#utility.yul\":13562:13605   */\n      mstore\n        /* \"#utility.yul\":13445:13612   */\n      pop\n      jump\t// out\n        /* \"#utility.yul\":13618:13984   */\n    tag_202:\n        /* \"#utility.yul\":13760:13763   */\n      0x00\n        /* \"#utility.yul\":13781:13848   */\n      tag_368\n        /* \"#utility.yul\":13845:13847   */\n      0x11\n        /* \"#utility.yul\":13840:13843   */\n      dup4\n        /* \"#utility.yul\":13781:13848   */\n      tag_180\n      jump\t// in\n    tag_368:\n        /* \"#utility.yul\":13774:13848   */\n      swap2\n      pop\n        /* \"#utility.yul\":13857:13950   */\n      tag_369\n        /* \"#utility.yul\":13946:13949   */\n      dup3\n        /* \"#utility.yul\":13857:13950   */\n      tag_201\n      jump\t// in\n    tag_369:\n        /* \"#utility.yul\":13975:13977   */\n      0x20\n        /* \"#utility.yul\":13970:13973   */\n      dup3\n        /* \"#utility.yul\":13966:13978   */\n      add\n        /* \"#utility.yul\":13959:13978   */\n      swap1\n      pop\n        /* \"#utility.yul\":13618:13984   */\n      swap2\n      swap1\n      pop\n      jump\t// out\n        /* \"#utility.yul\":13990:14409   */\n    tag_82:\n        /* \"#utility.yul\":14156:14160   */\n      0x00\n        /* \"#utility.yul\":14194:14196   */\n      0x20\n        /* \"#utility.yul\":14183:14192   */\n      dup3\n        /* \"#utility.yul\":14179:14197   */\n      add\n        /* \"#utility.yul\":14171:14197   */\n      swap1\n      pop\n        /* \"#utility.yul\":14243:14252   */\n      dup2\n        /* \"#utility.yul\":14237:14241   */\n      dup2\n        /* \"#utility.yul\":14233:14253   */\n      sub\n        /* \"#utility.yul\":14229:14230   */\n      0x00\n        /* \"#utility.yul\":14218:14227   */\n      dup4\n        /* \"#utility.yul\":14214:14231   */\n      add\n        /* \"#utility.yul\":14207:14254   */\n      mstore\n        /* \"#utility.yul\":14271:14402   */\n      tag_371\n        /* \"#utility.yul\":14397:14401   */\n      dup2\n        /* \"#utility.yul\":14271:14402   */\n      tag_202\n      jump\t// in\n    tag_371:\n        /* \"#utility.yul\":14263:14402   */\n      swap1\n      pop\n        /* \"#utility.yul\":13990:14409   */\n      swap2\n      swap1\n      pop\n      jump\t// out\n        /* \"#utility.yul\":14415:14595   */\n    tag_86:\n        /* \"#utility.yul\":14463:14540   */\n      0x4e487b7100000000000000000000000000000000000000000000000000000000\n        /* \"#utility.yul\":14460:14461   */\n      0x00\n        /* \"#utility.yul\":14453:14541   */\n      mstore\n        /* \"#utility.yul\":14560:14564   */\n      0x32\n        /* \"#utility.yul\":14557:14558   */\n      0x04\n        /* \"#utility.yul\":14550:14565   */\n      mstore\n        /* \"#utility.yul\":14584:14588   */\n      0x24\n        /* \"#utility.yul\":14581:14582   */\n      0x00\n        /* \"#utility.yul\":14574:14589   */\n      revert\n        /* \"#utility.yul\":14601:14770   */\n    tag_203:\n        /* \"#utility.yul\":14741:14762   */\n      0x747820616c726561647920657865787574656400000000000000000000000000\n        /* \"#utility.yul\":14737:14738   */\n      0x00\n        /* \"#utility.yul\":14729:14735   */\n      dup3\n        /* \"#utility.yul\":14725:14739   */\n      add\n        /* \"#utility.yul\":14718:14763   */\n      mstore\n        /* \"#utility.yul\":14601:14770   */\n      pop\n      jump\t// out\n        /* \"#utility.yul\":14776:15142   */\n    tag_204:\n        /* \"#utility.yul\":14918:14921   */\n      0x00\n        /* \"#utility.yul\":14939:15006   */\n      tag_375\n        /* \"#utility.yul\":15003:15005   */\n      0x13\n        /* \"#utility.yul\":14998:15001   */\n      dup4\n        /* \"#utility.yul\":14939:15006   */\n      tag_180\n      jump\t// in\n    tag_375:\n        /* \"#utility.yul\":14932:15006   */\n      swap2\n      pop\n        /* \"#utility.yul\":15015:15108   */\n      tag_376\n        /* \"#utility.yul\":15104:15107   */\n      dup3\n        /* \"#utility.yul\":15015:15108   */\n      tag_203\n      jump\t// in\n    tag_376:\n        /* \"#utility.yul\":15133:15135   */\n      0x20\n        /* \"#utility.yul\":15128:15131   */\n      dup3\n        /* \"#utility.yul\":15124:15136   */\n      add\n        /* \"#utility.yul\":15117:15136   */\n      swap1\n      pop\n        /* \"#utility.yul\":14776:15142   */\n      swap2\n      swap1\n      pop\n      jump\t// out\n        /* \"#utility.yul\":15148:15567   */\n    tag_90:\n        /* \"#utility.yul\":15314:15318   */\n      0x00\n        /* \"#utility.yul\":15352:15354   */\n      0x20\n        /* \"#utility.yul\":15341:15350   */\n      dup3\n        /* \"#utility.yul\":15337:15355   */\n      add\n        /* \"#utility.yul\":15329:15355   */\n      swap1\n      pop\n        /* \"#utility.yul\":15401:15410   */\n      dup2\n        /* \"#utility.yul\":15395:15399   */\n      dup2\n        /* \"#utility.yul\":15391:15411   */\n      sub\n        /* \"#utility.yul\":15387:15388   */\n      0x00\n        /* \"#utility.yul\":15376:15385   */\n      dup4\n        /* \"#utility.yul\":15372:15389   */\n      add\n        /* \"#utility.yul\":15365:15412   */\n      mstore\n        /* \"#utility.yul\":15429:15560   */\n      tag_378\n        /* \"#utility.yul\":15555:15559   */\n      dup2\n        /* \"#utility.yul\":15429:15560   */\n      tag_204\n      jump\t// in\n    tag_378:\n        /* \"#utility.yul\":15421:15560   */\n      swap1\n      pop\n        /* \"#utility.yul\":15148:15567   */\n      swap2\n      swap1\n      pop\n      jump\t// out\n        /* \"#utility.yul\":15573:15738   */\n    tag_205:\n        /* \"#utility.yul\":15713:15730   */\n      0x7478206e6f7420617070726f7665640000000000000000000000000000000000\n        /* \"#utility.yul\":15709:15710   */\n      0x00\n        /* \"#utility.yul\":15701:15707   */\n      dup3\n        /* \"#utility.yul\":15697:15711   */\n      add\n        /* \"#utility.yul\":15690:15731   */\n      mstore\n        /* \"#utility.yul\":15573:15738   */\n      pop\n      jump\t// out\n        /* \"#utility.yul\":15744:16110   */\n    tag_206:\n        /* \"#utility.yul\":15886:15889   */\n      0x00\n        /* \"#utility.yul\":15907:15974   */\n      tag_381\n        /* \"#utility.yul\":15971:15973   */\n      0x0f\n        /* \"#utility.yul\":15966:15969   */\n      dup4\n        /* \"#utility.yul\":15907:15974   */\n      tag_180\n      jump\t// in\n    tag_381:\n        /* \"#utility.yul\":15900:15974   */\n      swap2\n      pop\n        /* \"#utility.yul\":15983:16076   */\n      tag_382\n        /* \"#utility.yul\":16072:16075   */\n      dup3\n        /* \"#utility.yul\":15983:16076   */\n      tag_205\n      jump\t// in\n    tag_382:\n        /* \"#utility.yul\":16101:16103   */\n      0x20\n        /* \"#utility.yul\":16096:16099   */\n      dup3\n        /* \"#utility.yul\":16092:16104   */\n      add\n        /* \"#utility.yul\":16085:16104   */\n      swap1\n      pop\n        /* \"#utility.yul\":15744:16110   */\n      swap2\n      swap1\n      pop\n      jump\t// out\n        /* \"#utility.yul\":16116:16535   */\n    tag_94:\n        /* \"#utility.yul\":16282:16286   */\n      0x00\n        /* \"#utility.yul\":16320:16322   */\n      0x20\n        /* \"#utility.yul\":16309:16318   */\n      dup3\n        /* \"#utility.yul\":16305:16323   */\n      add\n        /* \"#utility.yul\":16297:16323   */\n      swap1\n      pop\n        /* \"#utility.yul\":16369:16378   */\n      dup2\n        /* \"#utility.yul\":16363:16367   */\n      dup2\n        /* \"#utility.yul\":16359:16379   */\n      sub\n        /* \"#utility.yul\":16355:16356   */\n      0x00\n        /* \"#utility.yul\":16344:16353   */\n      dup4\n        /* \"#utility.yul\":16340:16357   */\n      add\n        /* \"#utility.yul\":16333:16380   */\n      mstore\n        /* \"#utility.yul\":16397:16528   */\n      tag_384\n        /* \"#utility.yul\":16523:16527   */\n      dup2\n        /* \"#utility.yul\":16397:16528   */\n      tag_206\n      jump\t// in\n    tag_384:\n        /* \"#utility.yul\":16389:16528   */\n      swap1\n      pop\n        /* \"#utility.yul\":16116:16535   */\n      swap2\n      swap1\n      pop\n      jump\t// out\n        /* \"#utility.yul\":16541:16710   */\n    tag_207:\n        /* \"#utility.yul\":16681:16702   */\n      0x747820616c726561647920617070726f76656400000000000000000000000000\n        /* \"#utility.yul\":16677:16678   */\n      0x00\n        /* \"#utility.yul\":16669:16675   */\n      dup3\n        /* \"#utility.yul\":16665:16679   */\n      add\n        /* \"#utility.yul\":16658:16703   */\n      mstore\n        /* \"#utility.yul\":16541:16710   */\n      pop\n      jump\t// out\n        /* \"#utility.yul\":16716:17082   */\n    tag_208:\n        /* \"#utility.yul\":16858:16861   */\n      0x00\n        /* \"#utility.yul\":16879:16946   */\n      tag_387\n        /* \"#utility.yul\":16943:16945   */\n      0x13\n        /* \"#utility.yul\":16938:16941   */\n      dup4\n        /* \"#utility.yul\":16879:16946   */\n      tag_180\n      jump\t// in\n    tag_387:\n        /* \"#utility.yul\":16872:16946   */\n      swap2\n      pop\n        /* \"#utility.yul\":16955:17048   */\n      tag_388\n        /* \"#utility.yul\":17044:17047   */\n      dup3\n        /* \"#utility.yul\":16955:17048   */\n      tag_207\n      jump\t// in\n    tag_388:\n        /* \"#utility.yul\":17073:17075   */\n      0x20\n        /* \"#utility.yul\":17068:17071   */\n      dup3\n        /* \"#utility.yul\":17064:17076   */\n      add\n        /* \"#utility.yul\":17057:17076   */\n      swap1\n      pop\n        /* \"#utility.yul\":16716:17082   */\n      swap2\n      swap1\n      pop\n      jump\t// out\n        /* \"#utility.yul\":17088:17507   */\n    tag_112:\n        /* \"#utility.yul\":17254:17258   */\n      0x00\n        /* \"#utility.yul\":17292:17294   */\n      0x20\n        /* \"#utility.yul\":17281:17290   */\n      dup3\n        /* \"#utility.yul\":17277:17295   */\n      add\n        /* \"#utility.yul\":17269:17295   */\n      swap1\n      pop\n        /* \"#utility.yul\":17341:17350   */\n      dup2\n        /* \"#utility.yul\":17335:17339   */\n      dup2\n        /* \"#utility.yul\":17331:17351   */\n      sub\n        /* \"#utility.yul\":17327:17328   */\n      0x00\n        /* \"#utility.yul\":17316:17325   */\n      dup4\n        /* \"#utility.yul\":17312:17329   */\n      add\n        /* \"#utility.yul\":17305:17352   */\n      mstore\n        /* \"#utility.yul\":17369:17500   */\n      tag_390\n        /* \"#utility.yul\":17495:17499   */\n      dup2\n        /* \"#utility.yul\":17369:17500   */\n      tag_208\n      jump\t// in\n    tag_390:\n        /* \"#utility.yul\":17361:17500   */\n      swap1\n      pop\n        /* \"#utility.yul\":17088:17507   */\n      swap2\n      swap1\n      pop\n      jump\t// out\n        /* \"#utility.yul\":17513:17682   */\n    tag_209:\n        /* \"#utility.yul\":17653:17674   */\n      0x617070726f76616c203c20726571756972656400000000000000000000000000\n        /* \"#utility.yul\":17649:17650   */\n      0x00\n        /* \"#utility.yul\":17641:17647   */\n      dup3\n        /* \"#utility.yul\":17637:17651   */\n      add\n        /* \"#utility.yul\":17630:17675   */\n      mstore\n        /* \"#utility.yul\":17513:17682   */\n      pop\n      jump\t// out\n        /* \"#utility.yul\":17688:18054   */\n    tag_210:\n        /* \"#utility.yul\":17830:17833   */\n      0x00\n        /* \"#utility.yul\":17851:17918   */\n      tag_393\n        /* \"#utility.yul\":17915:17917   */\n      0x13\n        /* \"#utility.yul\":17910:17913   */\n      dup4\n        /* \"#utility.yul\":17851:17918   */\n      tag_180\n      jump\t// in\n    tag_393:\n        /* \"#utility.yul\":17844:17918   */\n      swap2\n      pop\n        /* \"#utility.yul\":17927:18020   */\n      tag_394\n        /* \"#utility.yul\":18016:18019   */\n      dup3\n        /* \"#utility.yul\":17927:18020   */\n      tag_209\n      jump\t// in\n    tag_394:\n        /* \"#utility.yul\":18045:18047   */\n      0x20\n        /* \"#utility.yul\":18040:18043   */\n      dup3\n        /* \"#utility.yul\":18036:18048   */\n      add\n        /* \"#utility.yul\":18029:18048   */\n      swap1\n      pop\n        /* \"#utility.yul\":17688:18054   */\n      swap2\n      swap1\n      pop\n      jump\t// out\n        /* \"#utility.yul\":18060:18479   */\n    tag_134:\n        /* \"#utility.yul\":18226:18230   */\n      0x00\n        /* \"#utility.yul\":18264:18266   */\n      0x20\n        /* \"#utility.yul\":18253:18262   */\n      dup3\n        /* \"#utility.yul\":18249:18267   */\n      add\n        /* \"#utility.yul\":18241:18267   */\n      swap1\n      pop\n        /* \"#utility.yul\":18313:18322   */\n      dup2\n        /* \"#utility.yul\":18307:18311   */\n      dup2\n        /* \"#utility.yul\":18303:18323   */\n      sub\n        /* \"#utility.yul\":18299:18300   */\n      0x00\n        /* \"#utility.yul\":18288:18297   */\n      dup4\n        /* \"#utility.yul\":18284:18301   */\n      add\n        /* \"#utility.yul\":18277:18324   */\n      mstore\n        /* \"#utility.yul\":18341:18472   */\n      tag_396\n        /* \"#utility.yul\":18467:18471   */\n      dup2\n        /* \"#utility.yul\":18341:18472   */\n      tag_210\n      jump\t// in\n    tag_396:\n        /* \"#utility.yul\":18333:18472   */\n      swap1\n      pop\n        /* \"#utility.yul\":18060:18479   */\n      swap2\n      swap1\n      pop\n      jump\t// out\n        /* \"#utility.yul\":18485:18632   */\n    tag_211:\n        /* \"#utility.yul\":18586:18597   */\n      0x00\n        /* \"#utility.yul\":18623:18626   */\n      dup2\n        /* \"#utility.yul\":18608:18626   */\n      swap1\n      pop\n        /* \"#utility.yul\":18485:18632   */\n      swap3\n      swap2\n      pop\n      pop\n      jump\t// out\n        /* \"#utility.yul\":18660:19530   */\n    tag_212:\n        /* \"#utility.yul\":18761:18764   */\n      0x00\n        /* \"#utility.yul\":18798:18803   */\n      dup2\n        /* \"#utility.yul\":18792:18804   */\n      sload\n        /* \"#utility.yul\":18827:18863   */\n      tag_399\n        /* \"#utility.yul\":18853:18862   */\n      dup2\n        /* \"#utility.yul\":18827:18863   */\n      tag_98\n      jump\t// in\n    tag_399:\n        /* \"#utility.yul\":18879:18967   */\n      tag_400\n        /* \"#utility.yul\":18960:18966   */\n      dup2\n        /* \"#utility.yul\":18955:18958   */\n      dup7\n        /* \"#utility.yul\":18879:18967   */\n      tag_211\n      jump\t// in\n    tag_400:\n        /* \"#utility.yul\":18872:18967   */\n      swap5\n      pop\n        /* \"#utility.yul\":18998:18999   */\n      0x01\n        /* \"#utility.yul\":18987:18996   */\n      dup3\n        /* \"#utility.yul\":18983:19000   */\n      and\n        /* \"#utility.yul\":19014:19015   */\n      0x00\n        /* \"#utility.yul\":19009:19175   */\n      dup2\n      eq\n      tag_402\n      jumpi\n        /* \"#utility.yul\":19189:19190   */\n      0x01\n        /* \"#utility.yul\":19184:19524   */\n      dup2\n      eq\n      tag_403\n      jumpi\n        /* \"#utility.yul\":18976:19524   */\n      jump(tag_401)\n        /* \"#utility.yul\":19009:19175   */\n    tag_402:\n        /* \"#utility.yul\":19093:19097   */\n      0xff\n        /* \"#utility.yul\":19089:19098   */\n      not\n        /* \"#utility.yul\":19078:19087   */\n      dup4\n        /* \"#utility.yul\":19074:19099   */\n      and\n        /* \"#utility.yul\":19069:19072   */\n      dup7\n        /* \"#utility.yul\":19062:19100   */\n      mstore\n        /* \"#utility.yul\":19155:19161   */\n      dup2\n        /* \"#utility.yul\":19148:19162   */\n      iszero\n        /* \"#utility.yul\":19141:19163   */\n      iszero\n        /* \"#utility.yul\":19133:19139   */\n      dup3\n        /* \"#utility.yul\":19129:19164   */\n      mul\n        /* \"#utility.yul\":19124:19127   */\n      dup7\n        /* \"#utility.yul\":19120:19165   */\n      add\n        /* \"#utility.yul\":19113:19165   */\n      swap4\n      pop\n        /* \"#utility.yul\":19009:19175   */\n      jump(tag_401)\n        /* \"#utility.yul\":19184:19524   */\n    tag_403:\n        /* \"#utility.yul\":19251:19288   */\n      tag_404\n        /* \"#utility.yul\":19282:19287   */\n      dup6\n        /* \"#utility.yul\":19251:19288   */\n      tag_185\n      jump\t// in\n    tag_404:\n        /* \"#utility.yul\":19310:19311   */\n      0x00\n        /* \"#utility.yul\":19324:19478   */\n    tag_405:\n        /* \"#utility.yul\":19338:19344   */\n      dup4\n        /* \"#utility.yul\":19335:19336   */\n      dup2\n        /* \"#utility.yul\":19332:19345   */\n      lt\n        /* \"#utility.yul\":19324:19478   */\n      iszero\n      tag_407\n      jumpi\n        /* \"#utility.yul\":19412:19419   */\n      dup2\n        /* \"#utility.yul\":19406:19420   */\n      sload\n        /* \"#utility.yul\":19402:19403   */\n      dup2\n        /* \"#utility.yul\":19397:19400   */\n      dup10\n        /* \"#utility.yul\":19393:19404   */\n      add\n        /* \"#utility.yul\":19386:19421   */\n      mstore\n        /* \"#utility.yul\":19462:19463   */\n      0x01\n        /* \"#utility.yul\":19453:19460   */\n      dup3\n        /* \"#utility.yul\":19449:19464   */\n      add\n        /* \"#utility.yul\":19438:19464   */\n      swap2\n      pop\n        /* \"#utility.yul\":19360:19364   */\n      0x20\n        /* \"#utility.yul\":19357:19358   */\n      dup2\n        /* \"#utility.yul\":19353:19365   */\n      add\n        /* \"#utility.yul\":19348:19365   */\n      swap1\n      pop\n        /* \"#utility.yul\":19324:19478   */\n      jump(tag_405)\n    tag_407:\n        /* \"#utility.yul\":19507:19513   */\n      dup4\n        /* \"#utility.yul\":19502:19505   */\n      dup9\n        /* \"#utility.yul\":19498:19514   */\n      add\n        /* \"#utility.yul\":19491:19514   */\n      swap6\n      pop\n        /* \"#utility.yul\":19191:19524   */\n      pop\n      pop\n        /* \"#utility.yul\":18976:19524   */\n    tag_401:\n      pop\n        /* \"#utility.yul\":18765:19530   */\n      pop\n      pop\n        /* \"#utility.yul\":18660:19530   */\n      swap3\n      swap2\n      pop\n      pop\n      jump\t// out\n        /* \"#utility.yul\":19536:19801   */\n    tag_139:\n        /* \"#utility.yul\":19663:19666   */\n      0x00\n        /* \"#utility.yul\":19685:19775   */\n      tag_409\n        /* \"#utility.yul\":19771:19774   */\n      dup3\n        /* \"#utility.yul\":19762:19768   */\n      dup5\n        /* \"#utility.yul\":19685:19775   */\n      tag_212\n      jump\t// in\n    tag_409:\n        /* \"#utility.yul\":19678:19775   */\n      swap2\n      pop\n        /* \"#utility.yul\":19792:19795   */\n      dup2\n        /* \"#utility.yul\":19785:19795   */\n      swap1\n      pop\n        /* \"#utility.yul\":19536:19801   */\n      swap3\n      swap2\n      pop\n      pop\n      jump\t// out\n        /* \"#utility.yul\":19807:19966   */\n    tag_213:\n        /* \"#utility.yul\":19947:19958   */\n      0x7478206661696c65640000000000000000000000000000000000000000000000\n        /* \"#utility.yul\":19943:19944   */\n      0x00\n        /* \"#utility.yul\":19935:19941   */\n      dup3\n        /* \"#utility.yul\":19931:19945   */\n      add\n        /* \"#utility.yul\":19924:19959   */\n      mstore\n        /* \"#utility.yul\":19807:19966   */\n      pop\n      jump\t// out\n        /* \"#utility.yul\":19972:20337   */\n    tag_214:\n        /* \"#utility.yul\":20114:20117   */\n      0x00\n        /* \"#utility.yul\":20135:20201   */\n      tag_412\n        /* \"#utility.yul\":20199:20200   */\n      0x09\n        /* \"#utility.yul\":20194:20197   */\n      dup4\n        /* \"#utility.yul\":20135:20201   */\n      tag_180\n      jump\t// in\n    tag_412:\n        /* \"#utility.yul\":20128:20201   */\n      swap2\n      pop\n        /* \"#utility.yul\":20210:20303   */\n      tag_413\n        /* \"#utility.yul\":20299:20302   */\n      dup3\n        /* \"#utility.yul\":20210:20303   */\n      tag_213\n      jump\t// in\n    tag_413:\n        /* \"#utility.yul\":20328:20330   */\n      0x20\n        /* \"#utility.yul\":20323:20326   */\n      dup3\n        /* \"#utility.yul\":20319:20331   */\n      add\n        /* \"#utility.yul\":20312:20331   */\n      swap1\n      pop\n        /* \"#utility.yul\":19972:20337   */\n      swap2\n      swap1\n      pop\n      jump\t// out\n        /* \"#utility.yul\":20343:20762   */\n    tag_145:\n        /* \"#utility.yul\":20509:20513   */\n      0x00\n        /* \"#utility.yul\":20547:20549   */\n      0x20\n        /* \"#utility.yul\":20536:20545   */\n      dup3\n        /* \"#utility.yul\":20532:20550   */\n      add\n        /* \"#utility.yul\":20524:20550   */\n      swap1\n      pop\n        /* \"#utility.yul\":20596:20605   */\n      dup2\n        /* \"#utility.yul\":20590:20594   */\n      dup2\n        /* \"#utility.yul\":20586:20606   */\n      sub\n        /* \"#utility.yul\":20582:20583   */\n      0x00\n        /* \"#utility.yul\":20571:20580   */\n      dup4\n        /* \"#utility.yul\":20567:20584   */\n      add\n        /* \"#utility.yul\":20560:20607   */\n      mstore\n        /* \"#utility.yul\":20624:20755   */\n      tag_415\n        /* \"#utility.yul\":20750:20754   */\n      dup2\n        /* \"#utility.yul\":20624:20755   */\n      tag_214\n      jump\t// in\n    tag_415:\n        /* \"#utility.yul\":20616:20755   */\n      swap1\n      pop\n        /* \"#utility.yul\":20343:20762   */\n      swap2\n      swap1\n      pop\n      jump\t// out\n        /* \"#utility.yul\":20768:21001   */\n    tag_155:\n        /* \"#utility.yul\":20807:20810   */\n      0x00\n        /* \"#utility.yul\":20830:20854   */\n      tag_417\n        /* \"#utility.yul\":20848:20853   */\n      dup3\n        /* \"#utility.yul\":20830:20854   */\n      tag_157\n      jump\t// in\n    tag_417:\n        /* \"#utility.yul\":20821:20854   */\n      swap2\n      pop\n        /* \"#utility.yul\":20876:20942   */\n      0xffffffffffffffffffffffffffffffffffffffffffffffffffffffffffffffff\n        /* \"#utility.yul\":20869:20874   */\n      dup3\n        /* \"#utility.yul\":20866:20943   */\n      sub\n        /* \"#utility.yul\":20863:20966   */\n      tag_418\n      jumpi\n        /* \"#utility.yul\":20946:20964   */\n      tag_419\n      tag_200\n      jump\t// in\n    tag_419:\n        /* \"#utility.yul\":20863:20966   */\n    tag_418:\n        /* \"#utility.yul\":20993:20994   */\n      0x01\n        /* \"#utility.yul\":20986:20991   */\n      dup3\n        /* \"#utility.yul\":20982:20995   */\n      add\n        /* \"#utility.yul\":20975:20995   */\n      swap1\n      pop\n        /* \"#utility.yul\":20768:21001   */\n      swap2\n      swap1\n      pop\n      jump\t// out\n\n    auxdata: 0xa2646970667358221220f284613d877f0919b12dd8a1bcc9fe444616948ad673b69403a843905a5b17fe64736f6c63430008110033\n}\n",
				"bytecode": {
					"linkReferences": {},
					"object": "60806040523480156200001157600080fd5b50604051620021563803806200215683398181016040528101906200003791906200050d565b60008251116200007e576040517f08c379a00000000000000000000000000000000000000000000000000000000081526004016200007590620005d4565b60405180910390fd5b60008111801562000090575081518111155b620000d2576040517f08c379a0000000000000000000000000000000000000000000000000000000008152600401620000c9906200066c565b60405180910390fd5b60005b8251811015620002d4576000838281518110620000f757620000f66200068e565b5b60200260200101519050600073ffffffffffffffffffffffffffffffffffffffff168173ffffffffffffffffffffffffffffffffffffffff160362000173576040517f08c379a00000000000000000000000000000000000000000000000000000000081526004016200016a906200070d565b60405180910390fd5b600160008273ffffffffffffffffffffffffffffffffffffffff1673ffffffffffffffffffffffffffffffffffffffff16815260200190815260200160002060009054906101000a900460ff161562000203576040517f08c379a0000000000000000000000000000000000000000000000000000000008152600401620001fa906200077f565b60405180910390fd5b60018060008373ffffffffffffffffffffffffffffffffffffffff1673ffffffffffffffffffffffffffffffffffffffff16815260200190815260200160002060006101000a81548160ff0219169083151502179055506000819080600181540180825580915050600190039060005260206000200160009091909190916101000a81548173ffffffffffffffffffffffffffffffffffffffff021916908373ffffffffffffffffffffffffffffffffffffffff160217905550508080620002cb90620007d0565b915050620000d5565b508060028190555050506200081d565b6000604051905090565b600080fd5b600080fd5b600080fd5b6000601f19601f8301169050919050565b7f4e487b7100000000000000000000000000000000000000000000000000000000600052604160045260246000fd5b6200034882620002fd565b810181811067ffffffffffffffff821117156200036a57620003696200030e565b5b80604052505050565b60006200037f620002e4565b90506200038d82826200033d565b919050565b600067ffffffffffffffff821115620003b057620003af6200030e565b5b602082029050602081019050919050565b600080fd5b600073ffffffffffffffffffffffffffffffffffffffff82169050919050565b6000620003f382620003c6565b9050919050565b6200040581620003e6565b81146200041157600080fd5b50565b6000815190506200042581620003fa565b92915050565b6000620004426200043c8462000392565b62000373565b90508083825260208201905060208402830185811115620004685762000467620003c1565b5b835b8181101562000495578062000480888262000414565b8452602084019350506020810190506200046a565b5050509392505050565b600082601f830112620004b757620004b6620002f8565b5b8151620004c98482602086016200042b565b91505092915050565b6000819050919050565b620004e781620004d2565b8114620004f357600080fd5b50565b6000815190506200050781620004dc565b92915050565b60008060408385031215620005275762000526620002ee565b5b600083015167ffffffffffffffff811115620005485762000547620002f3565b5b62000556858286016200049f565b92505060206200056985828601620004f6565b9150509250929050565b600082825260208201905092915050565b7f6f776e6572732072657175697265640000000000000000000000000000000000600082015250565b6000620005bc600f8362000573565b9150620005c98262000584565b602082019050919050565b60006020820190508181036000830152620005ef81620005ad565b9050919050565b7f696e76616c6964207265717569726564206e756d626572206f66206f776e657260008201527f7300000000000000000000000000000000000000000000000000000000000000602082015250565b60006200065460218362000573565b91506200066182620005f6565b604082019050919050565b60006020820190508181036000830152620006878162000645565b9050919050565b7f4e487b7100000000000000000000000000000000000000000000000000000000600052603260045260246000fd5b7f696e7661696c64206f776e657200000000000000000000000000000000000000600082015250565b6000620006f5600d8362000573565b91506200070282620006bd565b602082019050919050565b600060208201905081810360008301526200072881620006e6565b9050919050565b7f6f776e6572206973206e6f742075696e71756500000000000000000000000000600082015250565b60006200076760138362000573565b915062000774826200072f565b602082019050919050565b600060208201905081810360008301526200079a8162000758565b9050919050565b7f4e487b7100000000000000000000000000000000000000000000000000000000600052601160045260246000fd5b6000620007dd82620004d2565b91507fffffffffffffffffffffffffffffffffffffffffffffffffffffffffffffffff8203620008125762000811620007a1565b5b600182019050919050565b611929806200082d6000396000f3fe60806040526004361061008a5760003560e01c80632f54bf6e116100595780632f54bf6e146101b35780638253951a146101f0578063b759f9541461022d578063dc8452cd14610256578063fe0d94c114610281576100df565b8063025e7c27146100e457806314de327f1461012157806320c5429b1461014a57806323d2728414610173576100df565b366100df573373ffffffffffffffffffffffffffffffffffffffff167fe1fffcc4923d04b559f4d29a8bfc6cda04eb5b0d3c460751c2402c5c5cc9109c346040516100d59190610e04565b60405180910390a2005b600080fd5b3480156100f057600080fd5b5061010b60048036038101906101069190610e55565b6102aa565b6040516101189190610ec3565b60405180910390f35b34801561012d57600080fd5b5061014860048036038101906101439190610f6f565b6102e9565b005b34801561015657600080fd5b50610171600480360381019061016c9190610e55565b6104eb565b005b34801561017f57600080fd5b5061019a60048036038101906101959190610e55565b6106d5565b6040516101aa949392919061108e565b60405180910390f35b3480156101bf57600080fd5b506101da60048036038101906101d591906110da565b6107ca565b6040516101e79190611107565b60405180910390f35b3480156101fc57600080fd5b5061021760048036038101906102129190611122565b6107ea565b6040516102249190611107565b60405180910390f35b34801561023957600080fd5b50610254600480360381019061024f9190610e55565b610819565b005b34801561026257600080fd5b5061026b610ab3565b6040516102789190610e04565b60405180910390f35b34801561028d57600080fd5b506102a860048036038101906102a39190610e55565b610ab9565b005b600081815481106102ba57600080fd5b906000526020600020016000915054906101000a900473ffffffffffffffffffffffffffffffffffffffff1681565b600160003373ffffffffffffffffffffffffffffffffffffffff1673ffffffffffffffffffffffffffffffffffffffff16815260200190815260200160002060009054906101000a900460ff16610375576040517f08c379a000000000000000000000000000000000000000000000000000000000815260040161036c906111bf565b60405180910390fd5b600360405180608001604052808673ffffffffffffffffffffffffffffffffffffffff16815260200185815260200184848080601f016020809104026020016040519081016040528093929190818152602001838380828437600081840152601f19601f82011690508083019250505050505050815260200160001515815250908060018154018082558091505060019003906000526020600020906004020160009091909190915060008201518160000160006101000a81548173ffffffffffffffffffffffffffffffffffffffff021916908373ffffffffffffffffffffffffffffffffffffffff160217905550602082015181600101556040820151816002019081610484919061141a565b5060608201518160030160006101000a81548160ff021916908315150217905550505060016003805490506104b9919061151b565b7f08324b3d745b914e3abd4ffbfead91e3b78391a98c173202129215ab933adfbe60405160405180910390a250505050565b600160003373ffffffffffffffffffffffffffffffffffffffff1673ffffffffffffffffffffffffffffffffffffffff16815260200190815260200160002060009054906101000a900460ff16610577576040517f08c379a000000000000000000000000000000000000000000000000000000000815260040161056e906111bf565b60405180910390fd5b8060038054905081106105bf576040517f08c379a00000000000000000000000000000000000000000000000000000000081526004016105b69061159b565b60405180910390fd5b81600381815481106105d4576105d36115bb565b5b906000526020600020906004020160030160009054906101000a900460ff1615610633576040517f08c379a000000000000000000000000000000000000000000000000000000000815260040161062a90611636565b60405180910390fd5b6004600084815260200190815260200160002060003373ffffffffffffffffffffffffffffffffffffffff1673ffffffffffffffffffffffffffffffffffffffff16815260200190815260200160002060009054906101000a900460ff166106d0576040517f08c379a00000000000000000000000000000000000000000000000000000000081526004016106c7906116a2565b60405180910390fd5b505050565b600381815481106106e557600080fd5b90600052602060002090600402016000915090508060000160009054906101000a900473ffffffffffffffffffffffffffffffffffffffff16908060010154908060020180546107349061123d565b80601f01602080910402602001604051908101604052809291908181526020018280546107609061123d565b80156107ad5780601f10610782576101008083540402835291602001916107ad565b820191906000526020600020905b81548152906001019060200180831161079057829003601f168201915b5050505050908060030160009054906101000a900460ff16905084565b60016020528060005260406000206000915054906101000a900460ff1681565b60046020528160005260406000206020528060005260406000206000915091509054906101000a900460ff1681565b600160003373ffffffffffffffffffffffffffffffffffffffff1673ffffffffffffffffffffffffffffffffffffffff16815260200190815260200160002060009054906101000a900460ff166108a5576040517f08c379a000000000000000000000000000000000000000000000000000000000815260040161089c906111bf565b60405180910390fd5b8060038054905081106108ed576040517f08c379a00000000000000000000000000000000000000000000000000000000081526004016108e49061159b565b60405180910390fd5b816004600082815260200190815260200160002060003373ffffffffffffffffffffffffffffffffffffffff1673ffffffffffffffffffffffffffffffffffffffff16815260200190815260200160002060009054906101000a900460ff161561098c576040517f08c379a00000000000000000000000000000000000000000000000000000000081526004016109839061170e565b60405180910390fd5b82600381815481106109a1576109a06115bb565b5b906000526020600020906004020160030160009054906101000a900460ff1615610a00576040517f08c379a00000000000000000000000000000000000000000000000000000000081526004016109f790611636565b60405180910390fd5b60016004600086815260200190815260200160002060003373ffffffffffffffffffffffffffffffffffffffff1673ffffffffffffffffffffffffffffffffffffffff16815260200190815260200160002060006101000a81548160ff021916908315150217905550833373ffffffffffffffffffffffffffffffffffffffff167f90ec57f18fa7b15c6b8d5e4d1deb90796c74b2ff23d4d0cecad0cb42a96b312860405160405180910390a350505050565b60025481565b806003805490508110610b01576040517f08c379a0000000000000000000000000000000000000000000000000000000008152600401610af89061159b565b60405180910390fd5b8160038181548110610b1657610b156115bb565b5b906000526020600020906004020160030160009054906101000a900460ff1615610b75576040517f08c379a0000000000000000000000000000000000000000000000000000000008152600401610b6c90611636565b60405180910390fd5b600254610b8184610d12565b1015610bc2576040517f08c379a0000000000000000000000000000000000000000000000000000000008152600401610bb99061177a565b60405180910390fd5b600060038481548110610bd857610bd76115bb565b5b9060005260206000209060040201905060018160030160006101000a81548160ff02191690831515021790555060008160000160009054906101000a900473ffffffffffffffffffffffffffffffffffffffff1673ffffffffffffffffffffffffffffffffffffffff16826001015483600201604051610c589190611828565b60006040518083038185875af1925050503d8060008114610c95576040519150601f19603f3d011682016040523d82523d6000602084013e610c9a565b606091505b5050905080610cde576040517f08c379a0000000000000000000000000000000000000000000000000000000008152600401610cd59061188b565b60405180910390fd5b847f76c6ccb560379720fcf9325aabcb46be565b22cd1bf3b8271dd3dbfcaf9dece460405160405180910390a25050505050565b6000805b600080549050811015610de557600460008481526020019081526020016000206000808381548110610d4b57610d4a6115bb565b5b9060005260206000200160009054906101000a900473ffffffffffffffffffffffffffffffffffffffff1673ffffffffffffffffffffffffffffffffffffffff1673ffffffffffffffffffffffffffffffffffffffff16815260200190815260200160002060009054906101000a900460ff1615610dd2578180610dce906118ab565b9250505b8080610ddd906118ab565b915050610d16565b50919050565b6000819050919050565b610dfe81610deb565b82525050565b6000602082019050610e196000830184610df5565b92915050565b600080fd5b600080fd5b610e3281610deb565b8114610e3d57600080fd5b50565b600081359050610e4f81610e29565b92915050565b600060208284031215610e6b57610e6a610e1f565b5b6000610e7984828501610e40565b91505092915050565b600073ffffffffffffffffffffffffffffffffffffffff82169050919050565b6000610ead82610e82565b9050919050565b610ebd81610ea2565b82525050565b6000602082019050610ed86000830184610eb4565b92915050565b610ee781610ea2565b8114610ef257600080fd5b50565b600081359050610f0481610ede565b92915050565b600080fd5b600080fd5b600080fd5b60008083601f840112610f2f57610f2e610f0a565b5b8235905067ffffffffffffffff811115610f4c57610f4b610f0f565b5b602083019150836001820283011115610f6857610f67610f14565b5b9250929050565b60008060008060608587031215610f8957610f88610e1f565b5b6000610f9787828801610ef5565b9450506020610fa887828801610e40565b935050604085013567ffffffffffffffff811115610fc957610fc8610e24565b5b610fd587828801610f19565b925092505092959194509250565b600081519050919050565b600082825260208201905092915050565b60005b8381101561101d578082015181840152602081019050611002565b60008484015250505050565b6000601f19601f8301169050919050565b600061104582610fe3565b61104f8185610fee565b935061105f818560208601610fff565b61106881611029565b840191505092915050565b60008115159050919050565b61108881611073565b82525050565b60006080820190506110a36000830187610eb4565b6110b06020830186610df5565b81810360408301526110c2818561103a565b90506110d1606083018461107f565b95945050505050565b6000602082840312156110f0576110ef610e1f565b5b60006110fe84828501610ef5565b91505092915050565b600060208201905061111c600083018461107f565b92915050565b6000806040838503121561113957611138610e1f565b5b600061114785828601610e40565b925050602061115885828601610ef5565b9150509250929050565b600082825260208201905092915050565b7f6e6f74204f776e65720000000000000000000000000000000000000000000000600082015250565b60006111a9600983611162565b91506111b482611173565b602082019050919050565b600060208201905081810360008301526111d88161119c565b9050919050565b7f4e487b7100000000000000000000000000000000000000000000000000000000600052604160045260246000fd5b7f4e487b7100000000000000000000000000000000000000000000000000000000600052602260045260246000fd5b6000600282049050600182168061125557607f821691505b6020821081036112685761126761120e565b5b50919050565b60008190508160005260206000209050919050565b60006020601f8301049050919050565b600082821b905092915050565b6000600883026112d07fffffffffffffffffffffffffffffffffffffffffffffffffffffffffffffffff82611293565b6112da8683611293565b95508019841693508086168417925050509392505050565b6000819050919050565b600061131761131261130d84610deb565b6112f2565b610deb565b9050919050565b6000819050919050565b611331836112fc565b61134561133d8261131e565b8484546112a0565b825550505050565b600090565b61135a61134d565b611365818484611328565b505050565b5b818110156113895761137e600082611352565b60018101905061136b565b5050565b601f8211156113ce5761139f8161126e565b6113a884611283565b810160208510156113b7578190505b6113cb6113c385611283565b83018261136a565b50505b505050565b600082821c905092915050565b60006113f1600019846008026113d3565b1980831691505092915050565b600061140a83836113e0565b9150826002028217905092915050565b61142382610fe3565b67ffffffffffffffff81111561143c5761143b6111df565b5b611446825461123d565b61145182828561138d565b600060209050601f8311600181146114845760008415611472578287015190505b61147c85826113fe565b8655506114e4565b601f1984166114928661126e565b60005b828110156114ba57848901518255600182019150602085019450602081019050611495565b868310156114d757848901516114d3601f8916826113e0565b8355505b6001600288020188555050505b505050505050565b7f4e487b7100000000000000000000000000000000000000000000000000000000600052601160045260246000fd5b600061152682610deb565b915061153183610deb565b9250828203905081811115611549576115486114ec565b5b92915050565b7f747820646f6573206e6f74206578697374000000000000000000000000000000600082015250565b6000611585601183611162565b91506115908261154f565b602082019050919050565b600060208201905081810360008301526115b481611578565b9050919050565b7f4e487b7100000000000000000000000000000000000000000000000000000000600052603260045260246000fd5b7f747820616c726561647920657865787574656400000000000000000000000000600082015250565b6000611620601383611162565b915061162b826115ea565b602082019050919050565b6000602082019050818103600083015261164f81611613565b9050919050565b7f7478206e6f7420617070726f7665640000000000000000000000000000000000600082015250565b600061168c600f83611162565b915061169782611656565b602082019050919050565b600060208201905081810360008301526116bb8161167f565b9050919050565b7f747820616c726561647920617070726f76656400000000000000000000000000600082015250565b60006116f8601383611162565b9150611703826116c2565b602082019050919050565b60006020820190508181036000830152611727816116eb565b9050919050565b7f617070726f76616c203c20726571756972656400000000000000000000000000600082015250565b6000611764601383611162565b915061176f8261172e565b602082019050919050565b6000602082019050818103600083015261179381611757565b9050919050565b600081905092915050565b600081546117b28161123d565b6117bc818661179a565b945060018216600081146117d757600181146117ec5761181f565b60ff198316865281151582028601935061181f565b6117f58561126e565b60005b83811015611817578154818901526001820191506020810190506117f8565b838801955050505b50505092915050565b600061183482846117a5565b915081905092915050565b7f7478206661696c65640000000000000000000000000000000000000000000000600082015250565b6000611875600983611162565b91506118808261183f565b602082019050919050565b600060208201905081810360008301526118a481611868565b9050919050565b60006118b682610deb565b91507fffffffffffffffffffffffffffffffffffffffffffffffffffffffffffffffff82036118e8576118e76114ec565b5b60018201905091905056fea2646970667358221220f284613d877f0919b12dd8a1bcc9fe444616948ad673b69403a843905a5b17fe64736f6c63430008110033",
					"opcodes": "PUSH1 0x80 PUSH1 0x40 MSTORE CALLVALUE DUP1 ISZERO PUSH3 0x11 JUMPI PUSH1 0x0 DUP1 REVERT JUMPDEST POP PUSH1 0x40 MLOAD PUSH3 0x2156 CODESIZE SUB DUP1 PUSH3 0x2156 DUP4 CODECOPY DUP2 DUP2 ADD PUSH1 0x40 MSTORE DUP2 ADD SWAP1 PUSH3 0x37 SWAP2 SWAP1 PUSH3 0x50D JUMP JUMPDEST PUSH1 0x0 DUP3 MLOAD GT PUSH3 0x7E JUMPI PUSH1 0x40 MLOAD PUSH32 0x8C379A000000000000000000000000000000000000000000000000000000000 DUP2 MSTORE PUSH1 0x4 ADD PUSH3 0x75 SWAP1 PUSH3 0x5D4 JUMP JUMPDEST PUSH1 0x40 MLOAD DUP1 SWAP2 SUB SWAP1 REVERT JUMPDEST PUSH1 0x0 DUP2 GT DUP1 ISZERO PUSH3 0x90 JUMPI POP DUP2 MLOAD DUP2 GT ISZERO JUMPDEST PUSH3 0xD2 JUMPI PUSH1 0x40 MLOAD PUSH32 0x8C379A000000000000000000000000000000000000000000000000000000000 DUP2 MSTORE PUSH1 0x4 ADD PUSH3 0xC9 SWAP1 PUSH3 0x66C JUMP JUMPDEST PUSH1 0x40 MLOAD DUP1 SWAP2 SUB SWAP1 REVERT JUMPDEST PUSH1 0x0 JUMPDEST DUP3 MLOAD DUP2 LT ISZERO PUSH3 0x2D4 JUMPI PUSH1 0x0 DUP4 DUP3 DUP2 MLOAD DUP2 LT PUSH3 0xF7 JUMPI PUSH3 0xF6 PUSH3 0x68E JUMP JUMPDEST JUMPDEST PUSH1 0x20 MUL PUSH1 0x20 ADD ADD MLOAD SWAP1 POP PUSH1 0x0 PUSH20 0xFFFFFFFFFFFFFFFFFFFFFFFFFFFFFFFFFFFFFFFF AND DUP2 PUSH20 0xFFFFFFFFFFFFFFFFFFFFFFFFFFFFFFFFFFFFFFFF AND SUB PUSH3 0x173 JUMPI PUSH1 0x40 MLOAD PUSH32 0x8C379A000000000000000000000000000000000000000000000000000000000 DUP2 MSTORE PUSH1 0x4 ADD PUSH3 0x16A SWAP1 PUSH3 0x70D JUMP JUMPDEST PUSH1 0x40 MLOAD DUP1 SWAP2 SUB SWAP1 REVERT JUMPDEST PUSH1 0x1 PUSH1 0x0 DUP3 PUSH20 0xFFFFFFFFFFFFFFFFFFFFFFFFFFFFFFFFFFFFFFFF AND PUSH20 0xFFFFFFFFFFFFFFFFFFFFFFFFFFFFFFFFFFFFFFFF AND DUP2 MSTORE PUSH1 0x20 ADD SWAP1 DUP2 MSTORE PUSH1 0x20 ADD PUSH1 0x0 KECCAK256 PUSH1 0x0 SWAP1 SLOAD SWAP1 PUSH2 0x100 EXP SWAP1 DIV PUSH1 0xFF AND ISZERO PUSH3 0x203 JUMPI PUSH1 0x40 MLOAD PUSH32 0x8C379A000000000000000000000000000000000000000000000000000000000 DUP2 MSTORE PUSH1 0x4 ADD PUSH3 0x1FA SWAP1 PUSH3 0x77F JUMP JUMPDEST PUSH1 0x40 MLOAD DUP1 SWAP2 SUB SWAP1 REVERT JUMPDEST PUSH1 0x1 DUP1 PUSH1 0x0 DUP4 PUSH20 0xFFFFFFFFFFFFFFFFFFFFFFFFFFFFFFFFFFFFFFFF AND PUSH20 0xFFFFFFFFFFFFFFFFFFFFFFFFFFFFFFFFFFFFFFFF AND DUP2 MSTORE PUSH1 0x20 ADD SWAP1 DUP2 MSTORE PUSH1 0x20 ADD PUSH1 0x0 KECCAK256 PUSH1 0x0 PUSH2 0x100 EXP DUP2 SLOAD DUP2 PUSH1 0xFF MUL NOT AND SWAP1 DUP4 ISZERO ISZERO MUL OR SWAP1 SSTORE POP PUSH1 0x0 DUP2 SWAP1 DUP1 PUSH1 0x1 DUP2 SLOAD ADD DUP1 DUP3 SSTORE DUP1 SWAP2 POP POP PUSH1 0x1 SWAP1 SUB SWAP1 PUSH1 0x0 MSTORE PUSH1 0x20 PUSH1 0x0 KECCAK256 ADD PUSH1 0x0 SWAP1 SWAP2 SWAP1 SWAP2 SWAP1 SWAP2 PUSH2 0x100 EXP DUP2 SLOAD DUP2 PUSH20 0xFFFFFFFFFFFFFFFFFFFFFFFFFFFFFFFFFFFFFFFF MUL NOT AND SWAP1 DUP4 PUSH20 0xFFFFFFFFFFFFFFFFFFFFFFFFFFFFFFFFFFFFFFFF AND MUL OR SWAP1 SSTORE POP POP DUP1 DUP1 PUSH3 0x2CB SWAP1 PUSH3 0x7D0 JUMP JUMPDEST SWAP2 POP POP PUSH3 0xD5 JUMP JUMPDEST POP DUP1 PUSH1 0x2 DUP2 SWAP1 SSTORE POP POP POP PUSH3 0x81D JUMP JUMPDEST PUSH1 0x0 PUSH1 0x40 MLOAD SWAP1 POP SWAP1 JUMP JUMPDEST PUSH1 0x0 DUP1 REVERT JUMPDEST PUSH1 0x0 DUP1 REVERT JUMPDEST PUSH1 0x0 DUP1 REVERT JUMPDEST PUSH1 0x0 PUSH1 0x1F NOT PUSH1 0x1F DUP4 ADD AND SWAP1 POP SWAP2 SWAP1 POP JUMP JUMPDEST PUSH32 0x4E487B7100000000000000000000000000000000000000000000000000000000 PUSH1 0x0 MSTORE PUSH1 0x41 PUSH1 0x4 MSTORE PUSH1 0x24 PUSH1 0x0 REVERT JUMPDEST PUSH3 0x348 DUP3 PUSH3 0x2FD JUMP JUMPDEST DUP2 ADD DUP2 DUP2 LT PUSH8 0xFFFFFFFFFFFFFFFF DUP3 GT OR ISZERO PUSH3 0x36A JUMPI PUSH3 0x369 PUSH3 0x30E JUMP JUMPDEST JUMPDEST DUP1 PUSH1 0x40 MSTORE POP POP POP JUMP JUMPDEST PUSH1 0x0 PUSH3 0x37F PUSH3 0x2E4 JUMP JUMPDEST SWAP1 POP PUSH3 0x38D DUP3 DUP3 PUSH3 0x33D JUMP JUMPDEST SWAP2 SWAP1 POP JUMP JUMPDEST PUSH1 0x0 PUSH8 0xFFFFFFFFFFFFFFFF DUP3 GT ISZERO PUSH3 0x3B0 JUMPI PUSH3 0x3AF PUSH3 0x30E JUMP JUMPDEST JUMPDEST PUSH1 0x20 DUP3 MUL SWAP1 POP PUSH1 0x20 DUP2 ADD SWAP1 POP SWAP2 SWAP1 POP JUMP JUMPDEST PUSH1 0x0 DUP1 REVERT JUMPDEST PUSH1 0x0 PUSH20 0xFFFFFFFFFFFFFFFFFFFFFFFFFFFFFFFFFFFFFFFF DUP3 AND SWAP1 POP SWAP2 SWAP1 POP JUMP JUMPDEST PUSH1 0x0 PUSH3 0x3F3 DUP3 PUSH3 0x3C6 JUMP JUMPDEST SWAP1 POP SWAP2 SWAP1 POP JUMP JUMPDEST PUSH3 0x405 DUP2 PUSH3 0x3E6 JUMP JUMPDEST DUP2 EQ PUSH3 0x411 JUMPI PUSH1 0x0 DUP1 REVERT JUMPDEST POP JUMP JUMPDEST PUSH1 0x0 DUP2 MLOAD SWAP1 POP PUSH3 0x425 DUP2 PUSH3 0x3FA JUMP JUMPDEST SWAP3 SWAP2 POP POP JUMP JUMPDEST PUSH1 0x0 PUSH3 0x442 PUSH3 0x43C DUP5 PUSH3 0x392 JUMP JUMPDEST PUSH3 0x373 JUMP JUMPDEST SWAP1 POP DUP1 DUP4 DUP3 MSTORE PUSH1 0x20 DUP3 ADD SWAP1 POP PUSH1 0x20 DUP5 MUL DUP4 ADD DUP6 DUP2 GT ISZERO PUSH3 0x468 JUMPI PUSH3 0x467 PUSH3 0x3C1 JUMP JUMPDEST JUMPDEST DUP4 JUMPDEST DUP2 DUP2 LT ISZERO PUSH3 0x495 JUMPI DUP1 PUSH3 0x480 DUP9 DUP3 PUSH3 0x414 JUMP JUMPDEST DUP5 MSTORE PUSH1 0x20 DUP5 ADD SWAP4 POP POP PUSH1 0x20 DUP2 ADD SWAP1 POP PUSH3 0x46A JUMP JUMPDEST POP POP POP SWAP4 SWAP3 POP POP POP JUMP JUMPDEST PUSH1 0x0 DUP3 PUSH1 0x1F DUP4 ADD SLT PUSH3 0x4B7 JUMPI PUSH3 0x4B6 PUSH3 0x2F8 JUMP JUMPDEST JUMPDEST DUP2 MLOAD PUSH3 0x4C9 DUP5 DUP3 PUSH1 0x20 DUP7 ADD PUSH3 0x42B JUMP JUMPDEST SWAP2 POP POP SWAP3 SWAP2 POP POP JUMP JUMPDEST PUSH1 0x0 DUP2 SWAP1 POP SWAP2 SWAP1 POP JUMP JUMPDEST PUSH3 0x4E7 DUP2 PUSH3 0x4D2 JUMP JUMPDEST DUP2 EQ PUSH3 0x4F3 JUMPI PUSH1 0x0 DUP1 REVERT JUMPDEST POP JUMP JUMPDEST PUSH1 0x0 DUP2 MLOAD SWAP1 POP PUSH3 0x507 DUP2 PUSH3 0x4DC JUMP JUMPDEST SWAP3 SWAP2 POP POP JUMP JUMPDEST PUSH1 0x0 DUP1 PUSH1 0x40 DUP4 DUP6 SUB SLT ISZERO PUSH3 0x527 JUMPI PUSH3 0x526 PUSH3 0x2EE JUMP JUMPDEST JUMPDEST PUSH1 0x0 DUP4 ADD MLOAD PUSH8 0xFFFFFFFFFFFFFFFF DUP2 GT ISZERO PUSH3 0x548 JUMPI PUSH3 0x547 PUSH3 0x2F3 JUMP JUMPDEST JUMPDEST PUSH3 0x556 DUP6 DUP3 DUP7 ADD PUSH3 0x49F JUMP JUMPDEST SWAP3 POP POP PUSH1 0x20 PUSH3 0x569 DUP6 DUP3 DUP7 ADD PUSH3 0x4F6 JUMP JUMPDEST SWAP2 POP POP SWAP3 POP SWAP3 SWAP1 POP JUMP JUMPDEST PUSH1 0x0 DUP3 DUP3 MSTORE PUSH1 0x20 DUP3 ADD SWAP1 POP SWAP3 SWAP2 POP POP JUMP JUMPDEST PUSH32 0x6F776E6572732072657175697265640000000000000000000000000000000000 PUSH1 0x0 DUP3 ADD MSTORE POP JUMP JUMPDEST PUSH1 0x0 PUSH3 0x5BC PUSH1 0xF DUP4 PUSH3 0x573 JUMP JUMPDEST SWAP2 POP PUSH3 0x5C9 DUP3 PUSH3 0x584 JUMP JUMPDEST PUSH1 0x20 DUP3 ADD SWAP1 POP SWAP2 SWAP1 POP JUMP JUMPDEST PUSH1 0x0 PUSH1 0x20 DUP3 ADD SWAP1 POP DUP2 DUP2 SUB PUSH1 0x0 DUP4 ADD MSTORE PUSH3 0x5EF DUP2 PUSH3 0x5AD JUMP JUMPDEST SWAP1 POP SWAP2 SWAP1 POP JUMP JUMPDEST PUSH32 0x696E76616C6964207265717569726564206E756D626572206F66206F776E6572 PUSH1 0x0 DUP3 ADD MSTORE PUSH32 0x7300000000000000000000000000000000000000000000000000000000000000 PUSH1 0x20 DUP3 ADD MSTORE POP JUMP JUMPDEST PUSH1 0x0 PUSH3 0x654 PUSH1 0x21 DUP4 PUSH3 0x573 JUMP JUMPDEST SWAP2 POP PUSH3 0x661 DUP3 PUSH3 0x5F6 JUMP JUMPDEST PUSH1 0x40 DUP3 ADD SWAP1 POP SWAP2 SWAP1 POP JUMP JUMPDEST PUSH1 0x0 PUSH1 0x20 DUP3 ADD SWAP1 POP DUP2 DUP2 SUB PUSH1 0x0 DUP4 ADD MSTORE PUSH3 0x687 DUP2 PUSH3 0x645 JUMP JUMPDEST SWAP1 POP SWAP2 SWAP1 POP JUMP JUMPDEST PUSH32 0x4E487B7100000000000000000000000000000000000000000000000000000000 PUSH1 0x0 MSTORE PUSH1 0x32 PUSH1 0x4 MSTORE PUSH1 0x24 PUSH1 0x0 REVERT JUMPDEST PUSH32 0x696E7661696C64206F776E657200000000000000000000000000000000000000 PUSH1 0x0 DUP3 ADD MSTORE POP JUMP JUMPDEST PUSH1 0x0 PUSH3 0x6F5 PUSH1 0xD DUP4 PUSH3 0x573 JUMP JUMPDEST SWAP2 POP PUSH3 0x702 DUP3 PUSH3 0x6BD JUMP JUMPDEST PUSH1 0x20 DUP3 ADD SWAP1 POP SWAP2 SWAP1 POP JUMP JUMPDEST PUSH1 0x0 PUSH1 0x20 DUP3 ADD SWAP1 POP DUP2 DUP2 SUB PUSH1 0x0 DUP4 ADD MSTORE PUSH3 0x728 DUP2 PUSH3 0x6E6 JUMP JUMPDEST SWAP1 POP SWAP2 SWAP1 POP JUMP JUMPDEST PUSH32 0x6F776E6572206973206E6F742075696E71756500000000000000000000000000 PUSH1 0x0 DUP3 ADD MSTORE POP JUMP JUMPDEST PUSH1 0x0 PUSH3 0x767 PUSH1 0x13 DUP4 PUSH3 0x573 JUMP JUMPDEST SWAP2 POP PUSH3 0x774 DUP3 PUSH3 0x72F JUMP JUMPDEST PUSH1 0x20 DUP3 ADD SWAP1 POP SWAP2 SWAP1 POP JUMP JUMPDEST PUSH1 0x0 PUSH1 0x20 DUP3 ADD SWAP1 POP DUP2 DUP2 SUB PUSH1 0x0 DUP4 ADD MSTORE PUSH3 0x79A DUP2 PUSH3 0x758 JUMP JUMPDEST SWAP1 POP SWAP2 SWAP1 POP JUMP JUMPDEST PUSH32 0x4E487B7100000000000000000000000000000000000000000000000000000000 PUSH1 0x0 MSTORE PUSH1 0x11 PUSH1 0x4 MSTORE PUSH1 0x24 PUSH1 0x0 REVERT JUMPDEST PUSH1 0x0 PUSH3 0x7DD DUP3 PUSH3 0x4D2 JUMP JUMPDEST SWAP2 POP PUSH32 0xFFFFFFFFFFFFFFFFFFFFFFFFFFFFFFFFFFFFFFFFFFFFFFFFFFFFFFFFFFFFFFFF DUP3 SUB PUSH3 0x812 JUMPI PUSH3 0x811 PUSH3 0x7A1 JUMP JUMPDEST JUMPDEST PUSH1 0x1 DUP3 ADD SWAP1 POP SWAP2 SWAP1 POP JUMP JUMPDEST PUSH2 0x1929 DUP1 PUSH3 0x82D PUSH1 0x0 CODECOPY PUSH1 0x0 RETURN INVALID PUSH1 0x80 PUSH1 0x40 MSTORE PUSH1 0x4 CALLDATASIZE LT PUSH2 0x8A JUMPI PUSH1 0x0 CALLDATALOAD PUSH1 0xE0 SHR DUP1 PUSH4 0x2F54BF6E GT PUSH2 0x59 JUMPI DUP1 PUSH4 0x2F54BF6E EQ PUSH2 0x1B3 JUMPI DUP1 PUSH4 0x8253951A EQ PUSH2 0x1F0 JUMPI DUP1 PUSH4 0xB759F954 EQ PUSH2 0x22D JUMPI DUP1 PUSH4 0xDC8452CD EQ PUSH2 0x256 JUMPI DUP1 PUSH4 0xFE0D94C1 EQ PUSH2 0x281 JUMPI PUSH2 0xDF JUMP JUMPDEST DUP1 PUSH4 0x25E7C27 EQ PUSH2 0xE4 JUMPI DUP1 PUSH4 0x14DE327F EQ PUSH2 0x121 JUMPI DUP1 PUSH4 0x20C5429B EQ PUSH2 0x14A JUMPI DUP1 PUSH4 0x23D27284 EQ PUSH2 0x173 JUMPI PUSH2 0xDF JUMP JUMPDEST CALLDATASIZE PUSH2 0xDF JUMPI CALLER PUSH20 0xFFFFFFFFFFFFFFFFFFFFFFFFFFFFFFFFFFFFFFFF AND PUSH32 0xE1FFFCC4923D04B559F4D29A8BFC6CDA04EB5B0D3C460751C2402C5C5CC9109C CALLVALUE PUSH1 0x40 MLOAD PUSH2 0xD5 SWAP2 SWAP1 PUSH2 0xE04 JUMP JUMPDEST PUSH1 0x40 MLOAD DUP1 SWAP2 SUB SWAP1 LOG2 STOP JUMPDEST PUSH1 0x0 DUP1 REVERT JUMPDEST CALLVALUE DUP1 ISZERO PUSH2 0xF0 JUMPI PUSH1 0x0 DUP1 REVERT JUMPDEST POP PUSH2 0x10B PUSH1 0x4 DUP1 CALLDATASIZE SUB DUP2 ADD SWAP1 PUSH2 0x106 SWAP2 SWAP1 PUSH2 0xE55 JUMP JUMPDEST PUSH2 0x2AA JUMP JUMPDEST PUSH1 0x40 MLOAD PUSH2 0x118 SWAP2 SWAP1 PUSH2 0xEC3 JUMP JUMPDEST PUSH1 0x40 MLOAD DUP1 SWAP2 SUB SWAP1 RETURN JUMPDEST CALLVALUE DUP1 ISZERO PUSH2 0x12D JUMPI PUSH1 0x0 DUP1 REVERT JUMPDEST POP PUSH2 0x148 PUSH1 0x4 DUP1 CALLDATASIZE SUB DUP2 ADD SWAP1 PUSH2 0x143 SWAP2 SWAP1 PUSH2 0xF6F JUMP JUMPDEST PUSH2 0x2E9 JUMP JUMPDEST STOP JUMPDEST CALLVALUE DUP1 ISZERO PUSH2 0x156 JUMPI PUSH1 0x0 DUP1 REVERT JUMPDEST POP PUSH2 0x171 PUSH1 0x4 DUP1 CALLDATASIZE SUB DUP2 ADD SWAP1 PUSH2 0x16C SWAP2 SWAP1 PUSH2 0xE55 JUMP JUMPDEST PUSH2 0x4EB JUMP JUMPDEST STOP JUMPDEST CALLVALUE DUP1 ISZERO PUSH2 0x17F JUMPI PUSH1 0x0 DUP1 REVERT JUMPDEST POP PUSH2 0x19A PUSH1 0x4 DUP1 CALLDATASIZE SUB DUP2 ADD SWAP1 PUSH2 0x195 SWAP2 SWAP1 PUSH2 0xE55 JUMP JUMPDEST PUSH2 0x6D5 JUMP JUMPDEST PUSH1 0x40 MLOAD PUSH2 0x1AA SWAP5 SWAP4 SWAP3 SWAP2 SWAP1 PUSH2 0x108E JUMP JUMPDEST PUSH1 0x40 MLOAD DUP1 SWAP2 SUB SWAP1 RETURN JUMPDEST CALLVALUE DUP1 ISZERO PUSH2 0x1BF JUMPI PUSH1 0x0 DUP1 REVERT JUMPDEST POP PUSH2 0x1DA PUSH1 0x4 DUP1 CALLDATASIZE SUB DUP2 ADD SWAP1 PUSH2 0x1D5 SWAP2 SWAP1 PUSH2 0x10DA JUMP JUMPDEST PUSH2 0x7CA JUMP JUMPDEST PUSH1 0x40 MLOAD PUSH2 0x1E7 SWAP2 SWAP1 PUSH2 0x1107 JUMP JUMPDEST PUSH1 0x40 MLOAD DUP1 SWAP2 SUB SWAP1 RETURN JUMPDEST CALLVALUE DUP1 ISZERO PUSH2 0x1FC JUMPI PUSH1 0x0 DUP1 REVERT JUMPDEST POP PUSH2 0x217 PUSH1 0x4 DUP1 CALLDATASIZE SUB DUP2 ADD SWAP1 PUSH2 0x212 SWAP2 SWAP1 PUSH2 0x1122 JUMP JUMPDEST PUSH2 0x7EA JUMP JUMPDEST PUSH1 0x40 MLOAD PUSH2 0x224 SWAP2 SWAP1 PUSH2 0x1107 JUMP JUMPDEST PUSH1 0x40 MLOAD DUP1 SWAP2 SUB SWAP1 RETURN JUMPDEST CALLVALUE DUP1 ISZERO PUSH2 0x239 JUMPI PUSH1 0x0 DUP1 REVERT JUMPDEST POP PUSH2 0x254 PUSH1 0x4 DUP1 CALLDATASIZE SUB DUP2 ADD SWAP1 PUSH2 0x24F SWAP2 SWAP1 PUSH2 0xE55 JUMP JUMPDEST PUSH2 0x819 JUMP JUMPDEST STOP JUMPDEST CALLVALUE DUP1 ISZERO PUSH2 0x262 JUMPI PUSH1 0x0 DUP1 REVERT JUMPDEST POP PUSH2 0x26B PUSH2 0xAB3 JUMP JUMPDEST PUSH1 0x40 MLOAD PUSH2 0x278 SWAP2 SWAP1 PUSH2 0xE04 JUMP JUMPDEST PUSH1 0x40 MLOAD DUP1 SWAP2 SUB SWAP1 RETURN JUMPDEST CALLVALUE DUP1 ISZERO PUSH2 0x28D JUMPI PUSH1 0x0 DUP1 REVERT JUMPDEST POP PUSH2 0x2A8 PUSH1 0x4 DUP1 CALLDATASIZE SUB DUP2 ADD SWAP1 PUSH2 0x2A3 SWAP2 SWAP1 PUSH2 0xE55 JUMP JUMPDEST PUSH2 0xAB9 JUMP JUMPDEST STOP JUMPDEST PUSH1 0x0 DUP2 DUP2 SLOAD DUP2 LT PUSH2 0x2BA JUMPI PUSH1 0x0 DUP1 REVERT JUMPDEST SWAP1 PUSH1 0x0 MSTORE PUSH1 0x20 PUSH1 0x0 KECCAK256 ADD PUSH1 0x0 SWAP2 POP SLOAD SWAP1 PUSH2 0x100 EXP SWAP1 DIV PUSH20 0xFFFFFFFFFFFFFFFFFFFFFFFFFFFFFFFFFFFFFFFF AND DUP2 JUMP JUMPDEST PUSH1 0x1 PUSH1 0x0 CALLER PUSH20 0xFFFFFFFFFFFFFFFFFFFFFFFFFFFFFFFFFFFFFFFF AND PUSH20 0xFFFFFFFFFFFFFFFFFFFFFFFFFFFFFFFFFFFFFFFF AND DUP2 MSTORE PUSH1 0x20 ADD SWAP1 DUP2 MSTORE PUSH1 0x20 ADD PUSH1 0x0 KECCAK256 PUSH1 0x0 SWAP1 SLOAD SWAP1 PUSH2 0x100 EXP SWAP1 DIV PUSH1 0xFF AND PUSH2 0x375 JUMPI PUSH1 0x40 MLOAD PUSH32 0x8C379A000000000000000000000000000000000000000000000000000000000 DUP2 MSTORE PUSH1 0x4 ADD PUSH2 0x36C SWAP1 PUSH2 0x11BF JUMP JUMPDEST PUSH1 0x40 MLOAD DUP1 SWAP2 SUB SWAP1 REVERT JUMPDEST PUSH1 0x3 PUSH1 0x40 MLOAD DUP1 PUSH1 0x80 ADD PUSH1 0x40 MSTORE DUP1 DUP7 PUSH20 0xFFFFFFFFFFFFFFFFFFFFFFFFFFFFFFFFFFFFFFFF AND DUP2 MSTORE PUSH1 0x20 ADD DUP6 DUP2 MSTORE PUSH1 0x20 ADD DUP5 DUP5 DUP1 DUP1 PUSH1 0x1F ADD PUSH1 0x20 DUP1 SWAP2 DIV MUL PUSH1 0x20 ADD PUSH1 0x40 MLOAD SWAP1 DUP2 ADD PUSH1 0x40 MSTORE DUP1 SWAP4 SWAP3 SWAP2 SWAP1 DUP2 DUP2 MSTORE PUSH1 0x20 ADD DUP4 DUP4 DUP1 DUP3 DUP5 CALLDATACOPY PUSH1 0x0 DUP2 DUP5 ADD MSTORE PUSH1 0x1F NOT PUSH1 0x1F DUP3 ADD AND SWAP1 POP DUP1 DUP4 ADD SWAP3 POP POP POP POP POP POP POP DUP2 MSTORE PUSH1 0x20 ADD PUSH1 0x0 ISZERO ISZERO DUP2 MSTORE POP SWAP1 DUP1 PUSH1 0x1 DUP2 SLOAD ADD DUP1 DUP3 SSTORE DUP1 SWAP2 POP POP PUSH1 0x1 SWAP1 SUB SWAP1 PUSH1 0x0 MSTORE PUSH1 0x20 PUSH1 0x0 KECCAK256 SWAP1 PUSH1 0x4 MUL ADD PUSH1 0x0 SWAP1 SWAP2 SWAP1 SWAP2 SWAP1 SWAP2 POP PUSH1 0x0 DUP3 ADD MLOAD DUP2 PUSH1 0x0 ADD PUSH1 0x0 PUSH2 0x100 EXP DUP2 SLOAD DUP2 PUSH20 0xFFFFFFFFFFFFFFFFFFFFFFFFFFFFFFFFFFFFFFFF MUL NOT AND SWAP1 DUP4 PUSH20 0xFFFFFFFFFFFFFFFFFFFFFFFFFFFFFFFFFFFFFFFF AND MUL OR SWAP1 SSTORE POP PUSH1 0x20 DUP3 ADD MLOAD DUP2 PUSH1 0x1 ADD SSTORE PUSH1 0x40 DUP3 ADD MLOAD DUP2 PUSH1 0x2 ADD SWAP1 DUP2 PUSH2 0x484 SWAP2 SWAP1 PUSH2 0x141A JUMP JUMPDEST POP PUSH1 0x60 DUP3 ADD MLOAD DUP2 PUSH1 0x3 ADD PUSH1 0x0 PUSH2 0x100 EXP DUP2 SLOAD DUP2 PUSH1 0xFF MUL NOT AND SWAP1 DUP4 ISZERO ISZERO MUL OR SWAP1 SSTORE POP POP POP PUSH1 0x1 PUSH1 0x3 DUP1 SLOAD SWAP1 POP PUSH2 0x4B9 SWAP2 SWAP1 PUSH2 0x151B JUMP JUMPDEST PUSH32 0x8324B3D745B914E3ABD4FFBFEAD91E3B78391A98C173202129215AB933ADFBE PUSH1 0x40 MLOAD PUSH1 0x40 MLOAD DUP1 SWAP2 SUB SWAP1 LOG2 POP POP POP POP JUMP JUMPDEST PUSH1 0x1 PUSH1 0x0 CALLER PUSH20 0xFFFFFFFFFFFFFFFFFFFFFFFFFFFFFFFFFFFFFFFF AND PUSH20 0xFFFFFFFFFFFFFFFFFFFFFFFFFFFFFFFFFFFFFFFF AND DUP2 MSTORE PUSH1 0x20 ADD SWAP1 DUP2 MSTORE PUSH1 0x20 ADD PUSH1 0x0 KECCAK256 PUSH1 0x0 SWAP1 SLOAD SWAP1 PUSH2 0x100 EXP SWAP1 DIV PUSH1 0xFF AND PUSH2 0x577 JUMPI PUSH1 0x40 MLOAD PUSH32 0x8C379A000000000000000000000000000000000000000000000000000000000 DUP2 MSTORE PUSH1 0x4 ADD PUSH2 0x56E SWAP1 PUSH2 0x11BF JUMP JUMPDEST PUSH1 0x40 MLOAD DUP1 SWAP2 SUB SWAP1 REVERT JUMPDEST DUP1 PUSH1 0x3 DUP1 SLOAD SWAP1 POP DUP2 LT PUSH2 0x5BF JUMPI PUSH1 0x40 MLOAD PUSH32 0x8C379A000000000000000000000000000000000000000000000000000000000 DUP2 MSTORE PUSH1 0x4 ADD PUSH2 0x5B6 SWAP1 PUSH2 0x159B JUMP JUMPDEST PUSH1 0x40 MLOAD DUP1 SWAP2 SUB SWAP1 REVERT JUMPDEST DUP2 PUSH1 0x3 DUP2 DUP2 SLOAD DUP2 LT PUSH2 0x5D4 JUMPI PUSH2 0x5D3 PUSH2 0x15BB JUMP JUMPDEST JUMPDEST SWAP1 PUSH1 0x0 MSTORE PUSH1 0x20 PUSH1 0x0 KECCAK256 SWAP1 PUSH1 0x4 MUL ADD PUSH1 0x3 ADD PUSH1 0x0 SWAP1 SLOAD SWAP1 PUSH2 0x100 EXP SWAP1 DIV PUSH1 0xFF AND ISZERO PUSH2 0x633 JUMPI PUSH1 0x40 MLOAD PUSH32 0x8C379A000000000000000000000000000000000000000000000000000000000 DUP2 MSTORE PUSH1 0x4 ADD PUSH2 0x62A SWAP1 PUSH2 0x1636 JUMP JUMPDEST PUSH1 0x40 MLOAD DUP1 SWAP2 SUB SWAP1 REVERT JUMPDEST PUSH1 0x4 PUSH1 0x0 DUP5 DUP2 MSTORE PUSH1 0x20 ADD SWAP1 DUP2 MSTORE PUSH1 0x20 ADD PUSH1 0x0 KECCAK256 PUSH1 0x0 CALLER PUSH20 0xFFFFFFFFFFFFFFFFFFFFFFFFFFFFFFFFFFFFFFFF AND PUSH20 0xFFFFFFFFFFFFFFFFFFFFFFFFFFFFFFFFFFFFFFFF AND DUP2 MSTORE PUSH1 0x20 ADD SWAP1 DUP2 MSTORE PUSH1 0x20 ADD PUSH1 0x0 KECCAK256 PUSH1 0x0 SWAP1 SLOAD SWAP1 PUSH2 0x100 EXP SWAP1 DIV PUSH1 0xFF AND PUSH2 0x6D0 JUMPI PUSH1 0x40 MLOAD PUSH32 0x8C379A000000000000000000000000000000000000000000000000000000000 DUP2 MSTORE PUSH1 0x4 ADD PUSH2 0x6C7 SWAP1 PUSH2 0x16A2 JUMP JUMPDEST PUSH1 0x40 MLOAD DUP1 SWAP2 SUB SWAP1 REVERT JUMPDEST POP POP POP JUMP JUMPDEST PUSH1 0x3 DUP2 DUP2 SLOAD DUP2 LT PUSH2 0x6E5 JUMPI PUSH1 0x0 DUP1 REVERT JUMPDEST SWAP1 PUSH1 0x0 MSTORE PUSH1 0x20 PUSH1 0x0 KECCAK256 SWAP1 PUSH1 0x4 MUL ADD PUSH1 0x0 SWAP2 POP SWAP1 POP DUP1 PUSH1 0x0 ADD PUSH1 0x0 SWAP1 SLOAD SWAP1 PUSH2 0x100 EXP SWAP1 DIV PUSH20 0xFFFFFFFFFFFFFFFFFFFFFFFFFFFFFFFFFFFFFFFF AND SWAP1 DUP1 PUSH1 0x1 ADD SLOAD SWAP1 DUP1 PUSH1 0x2 ADD DUP1 SLOAD PUSH2 0x734 SWAP1 PUSH2 0x123D JUMP JUMPDEST DUP1 PUSH1 0x1F ADD PUSH1 0x20 DUP1 SWAP2 DIV MUL PUSH1 0x20 ADD PUSH1 0x40 MLOAD SWAP1 DUP2 ADD PUSH1 0x40 MSTORE DUP1 SWAP3 SWAP2 SWAP1 DUP2 DUP2 MSTORE PUSH1 0x20 ADD DUP3 DUP1 SLOAD PUSH2 0x760 SWAP1 PUSH2 0x123D JUMP JUMPDEST DUP1 ISZERO PUSH2 0x7AD JUMPI DUP1 PUSH1 0x1F LT PUSH2 0x782 JUMPI PUSH2 0x100 DUP1 DUP4 SLOAD DIV MUL DUP4 MSTORE SWAP2 PUSH1 0x20 ADD SWAP2 PUSH2 0x7AD JUMP JUMPDEST DUP3 ADD SWAP2 SWAP1 PUSH1 0x0 MSTORE PUSH1 0x20 PUSH1 0x0 KECCAK256 SWAP1 JUMPDEST DUP2 SLOAD DUP2 MSTORE SWAP1 PUSH1 0x1 ADD SWAP1 PUSH1 0x20 ADD DUP1 DUP4 GT PUSH2 0x790 JUMPI DUP3 SWAP1 SUB PUSH1 0x1F AND DUP3 ADD SWAP2 JUMPDEST POP POP POP POP POP SWAP1 DUP1 PUSH1 0x3 ADD PUSH1 0x0 SWAP1 SLOAD SWAP1 PUSH2 0x100 EXP SWAP1 DIV PUSH1 0xFF AND SWAP1 POP DUP5 JUMP JUMPDEST PUSH1 0x1 PUSH1 0x20 MSTORE DUP1 PUSH1 0x0 MSTORE PUSH1 0x40 PUSH1 0x0 KECCAK256 PUSH1 0x0 SWAP2 POP SLOAD SWAP1 PUSH2 0x100 EXP SWAP1 DIV PUSH1 0xFF AND DUP2 JUMP JUMPDEST PUSH1 0x4 PUSH1 0x20 MSTORE DUP2 PUSH1 0x0 MSTORE PUSH1 0x40 PUSH1 0x0 KECCAK256 PUSH1 0x20 MSTORE DUP1 PUSH1 0x0 MSTORE PUSH1 0x40 PUSH1 0x0 KECCAK256 PUSH1 0x0 SWAP2 POP SWAP2 POP SWAP1 SLOAD SWAP1 PUSH2 0x100 EXP SWAP1 DIV PUSH1 0xFF AND DUP2 JUMP JUMPDEST PUSH1 0x1 PUSH1 0x0 CALLER PUSH20 0xFFFFFFFFFFFFFFFFFFFFFFFFFFFFFFFFFFFFFFFF AND PUSH20 0xFFFFFFFFFFFFFFFFFFFFFFFFFFFFFFFFFFFFFFFF AND DUP2 MSTORE PUSH1 0x20 ADD SWAP1 DUP2 MSTORE PUSH1 0x20 ADD PUSH1 0x0 KECCAK256 PUSH1 0x0 SWAP1 SLOAD SWAP1 PUSH2 0x100 EXP SWAP1 DIV PUSH1 0xFF AND PUSH2 0x8A5 JUMPI PUSH1 0x40 MLOAD PUSH32 0x8C379A000000000000000000000000000000000000000000000000000000000 DUP2 MSTORE PUSH1 0x4 ADD PUSH2 0x89C SWAP1 PUSH2 0x11BF JUMP JUMPDEST PUSH1 0x40 MLOAD DUP1 SWAP2 SUB SWAP1 REVERT JUMPDEST DUP1 PUSH1 0x3 DUP1 SLOAD SWAP1 POP DUP2 LT PUSH2 0x8ED JUMPI PUSH1 0x40 MLOAD PUSH32 0x8C379A000000000000000000000000000000000000000000000000000000000 DUP2 MSTORE PUSH1 0x4 ADD PUSH2 0x8E4 SWAP1 PUSH2 0x159B JUMP JUMPDEST PUSH1 0x40 MLOAD DUP1 SWAP2 SUB SWAP1 REVERT JUMPDEST DUP2 PUSH1 0x4 PUSH1 0x0 DUP3 DUP2 MSTORE PUSH1 0x20 ADD SWAP1 DUP2 MSTORE PUSH1 0x20 ADD PUSH1 0x0 KECCAK256 PUSH1 0x0 CALLER PUSH20 0xFFFFFFFFFFFFFFFFFFFFFFFFFFFFFFFFFFFFFFFF AND PUSH20 0xFFFFFFFFFFFFFFFFFFFFFFFFFFFFFFFFFFFFFFFF AND DUP2 MSTORE PUSH1 0x20 ADD SWAP1 DUP2 MSTORE PUSH1 0x20 ADD PUSH1 0x0 KECCAK256 PUSH1 0x0 SWAP1 SLOAD SWAP1 PUSH2 0x100 EXP SWAP1 DIV PUSH1 0xFF AND ISZERO PUSH2 0x98C JUMPI PUSH1 0x40 MLOAD PUSH32 0x8C379A000000000000000000000000000000000000000000000000000000000 DUP2 MSTORE PUSH1 0x4 ADD PUSH2 0x983 SWAP1 PUSH2 0x170E JUMP JUMPDEST PUSH1 0x40 MLOAD DUP1 SWAP2 SUB SWAP1 REVERT JUMPDEST DUP3 PUSH1 0x3 DUP2 DUP2 SLOAD DUP2 LT PUSH2 0x9A1 JUMPI PUSH2 0x9A0 PUSH2 0x15BB JUMP JUMPDEST JUMPDEST SWAP1 PUSH1 0x0 MSTORE PUSH1 0x20 PUSH1 0x0 KECCAK256 SWAP1 PUSH1 0x4 MUL ADD PUSH1 0x3 ADD PUSH1 0x0 SWAP1 SLOAD SWAP1 PUSH2 0x100 EXP SWAP1 DIV PUSH1 0xFF AND ISZERO PUSH2 0xA00 JUMPI PUSH1 0x40 MLOAD PUSH32 0x8C379A000000000000000000000000000000000000000000000000000000000 DUP2 MSTORE PUSH1 0x4 ADD PUSH2 0x9F7 SWAP1 PUSH2 0x1636 JUMP JUMPDEST PUSH1 0x40 MLOAD DUP1 SWAP2 SUB SWAP1 REVERT JUMPDEST PUSH1 0x1 PUSH1 0x4 PUSH1 0x0 DUP7 DUP2 MSTORE PUSH1 0x20 ADD SWAP1 DUP2 MSTORE PUSH1 0x20 ADD PUSH1 0x0 KECCAK256 PUSH1 0x0 CALLER PUSH20 0xFFFFFFFFFFFFFFFFFFFFFFFFFFFFFFFFFFFFFFFF AND PUSH20 0xFFFFFFFFFFFFFFFFFFFFFFFFFFFFFFFFFFFFFFFF AND DUP2 MSTORE PUSH1 0x20 ADD SWAP1 DUP2 MSTORE PUSH1 0x20 ADD PUSH1 0x0 KECCAK256 PUSH1 0x0 PUSH2 0x100 EXP DUP2 SLOAD DUP2 PUSH1 0xFF MUL NOT AND SWAP1 DUP4 ISZERO ISZERO MUL OR SWAP1 SSTORE POP DUP4 CALLER PUSH20 0xFFFFFFFFFFFFFFFFFFFFFFFFFFFFFFFFFFFFFFFF AND PUSH32 0x90EC57F18FA7B15C6B8D5E4D1DEB90796C74B2FF23D4D0CECAD0CB42A96B3128 PUSH1 0x40 MLOAD PUSH1 0x40 MLOAD DUP1 SWAP2 SUB SWAP1 LOG3 POP POP POP POP JUMP JUMPDEST PUSH1 0x2 SLOAD DUP2 JUMP JUMPDEST DUP1 PUSH1 0x3 DUP1 SLOAD SWAP1 POP DUP2 LT PUSH2 0xB01 JUMPI PUSH1 0x40 MLOAD PUSH32 0x8C379A000000000000000000000000000000000000000000000000000000000 DUP2 MSTORE PUSH1 0x4 ADD PUSH2 0xAF8 SWAP1 PUSH2 0x159B JUMP JUMPDEST PUSH1 0x40 MLOAD DUP1 SWAP2 SUB SWAP1 REVERT JUMPDEST DUP2 PUSH1 0x3 DUP2 DUP2 SLOAD DUP2 LT PUSH2 0xB16 JUMPI PUSH2 0xB15 PUSH2 0x15BB JUMP JUMPDEST JUMPDEST SWAP1 PUSH1 0x0 MSTORE PUSH1 0x20 PUSH1 0x0 KECCAK256 SWAP1 PUSH1 0x4 MUL ADD PUSH1 0x3 ADD PUSH1 0x0 SWAP1 SLOAD SWAP1 PUSH2 0x100 EXP SWAP1 DIV PUSH1 0xFF AND ISZERO PUSH2 0xB75 JUMPI PUSH1 0x40 MLOAD PUSH32 0x8C379A000000000000000000000000000000000000000000000000000000000 DUP2 MSTORE PUSH1 0x4 ADD PUSH2 0xB6C SWAP1 PUSH2 0x1636 JUMP JUMPDEST PUSH1 0x40 MLOAD DUP1 SWAP2 SUB SWAP1 REVERT JUMPDEST PUSH1 0x2 SLOAD PUSH2 0xB81 DUP5 PUSH2 0xD12 JUMP JUMPDEST LT ISZERO PUSH2 0xBC2 JUMPI PUSH1 0x40 MLOAD PUSH32 0x8C379A000000000000000000000000000000000000000000000000000000000 DUP2 MSTORE PUSH1 0x4 ADD PUSH2 0xBB9 SWAP1 PUSH2 0x177A JUMP JUMPDEST PUSH1 0x40 MLOAD DUP1 SWAP2 SUB SWAP1 REVERT JUMPDEST PUSH1 0x0 PUSH1 0x3 DUP5 DUP2 SLOAD DUP2 LT PUSH2 0xBD8 JUMPI PUSH2 0xBD7 PUSH2 0x15BB JUMP JUMPDEST JUMPDEST SWAP1 PUSH1 0x0 MSTORE PUSH1 0x20 PUSH1 0x0 KECCAK256 SWAP1 PUSH1 0x4 MUL ADD SWAP1 POP PUSH1 0x1 DUP2 PUSH1 0x3 ADD PUSH1 0x0 PUSH2 0x100 EXP DUP2 SLOAD DUP2 PUSH1 0xFF MUL NOT AND SWAP1 DUP4 ISZERO ISZERO MUL OR SWAP1 SSTORE POP PUSH1 0x0 DUP2 PUSH1 0x0 ADD PUSH1 0x0 SWAP1 SLOAD SWAP1 PUSH2 0x100 EXP SWAP1 DIV PUSH20 0xFFFFFFFFFFFFFFFFFFFFFFFFFFFFFFFFFFFFFFFF AND PUSH20 0xFFFFFFFFFFFFFFFFFFFFFFFFFFFFFFFFFFFFFFFF AND DUP3 PUSH1 0x1 ADD SLOAD DUP4 PUSH1 0x2 ADD PUSH1 0x40 MLOAD PUSH2 0xC58 SWAP2 SWAP1 PUSH2 0x1828 JUMP JUMPDEST PUSH1 0x0 PUSH1 0x40 MLOAD DUP1 DUP4 SUB DUP2 DUP6 DUP8 GAS CALL SWAP3 POP POP POP RETURNDATASIZE DUP1 PUSH1 0x0 DUP2 EQ PUSH2 0xC95 JUMPI PUSH1 0x40 MLOAD SWAP2 POP PUSH1 0x1F NOT PUSH1 0x3F RETURNDATASIZE ADD AND DUP3 ADD PUSH1 0x40 MSTORE RETURNDATASIZE DUP3 MSTORE RETURNDATASIZE PUSH1 0x0 PUSH1 0x20 DUP5 ADD RETURNDATACOPY PUSH2 0xC9A JUMP JUMPDEST PUSH1 0x60 SWAP2 POP JUMPDEST POP POP SWAP1 POP DUP1 PUSH2 0xCDE JUMPI PUSH1 0x40 MLOAD PUSH32 0x8C379A000000000000000000000000000000000000000000000000000000000 DUP2 MSTORE PUSH1 0x4 ADD PUSH2 0xCD5 SWAP1 PUSH2 0x188B JUMP JUMPDEST PUSH1 0x40 MLOAD DUP1 SWAP2 SUB SWAP1 REVERT JUMPDEST DUP5 PUSH32 0x76C6CCB560379720FCF9325AABCB46BE565B22CD1BF3B8271DD3DBFCAF9DECE4 PUSH1 0x40 MLOAD PUSH1 0x40 MLOAD DUP1 SWAP2 SUB SWAP1 LOG2 POP POP POP POP POP JUMP JUMPDEST PUSH1 0x0 DUP1 JUMPDEST PUSH1 0x0 DUP1 SLOAD SWAP1 POP DUP2 LT ISZERO PUSH2 0xDE5 JUMPI PUSH1 0x4 PUSH1 0x0 DUP5 DUP2 MSTORE PUSH1 0x20 ADD SWAP1 DUP2 MSTORE PUSH1 0x20 ADD PUSH1 0x0 KECCAK256 PUSH1 0x0 DUP1 DUP4 DUP2 SLOAD DUP2 LT PUSH2 0xD4B JUMPI PUSH2 0xD4A PUSH2 0x15BB JUMP JUMPDEST JUMPDEST SWAP1 PUSH1 0x0 MSTORE PUSH1 0x20 PUSH1 0x0 KECCAK256 ADD PUSH1 0x0 SWAP1 SLOAD SWAP1 PUSH2 0x100 EXP SWAP1 DIV PUSH20 0xFFFFFFFFFFFFFFFFFFFFFFFFFFFFFFFFFFFFFFFF AND PUSH20 0xFFFFFFFFFFFFFFFFFFFFFFFFFFFFFFFFFFFFFFFF AND PUSH20 0xFFFFFFFFFFFFFFFFFFFFFFFFFFFFFFFFFFFFFFFF AND DUP2 MSTORE PUSH1 0x20 ADD SWAP1 DUP2 MSTORE PUSH1 0x20 ADD PUSH1 0x0 KECCAK256 PUSH1 0x0 SWAP1 SLOAD SWAP1 PUSH2 0x100 EXP SWAP1 DIV PUSH1 0xFF AND ISZERO PUSH2 0xDD2 JUMPI DUP2 DUP1 PUSH2 0xDCE SWAP1 PUSH2 0x18AB JUMP JUMPDEST SWAP3 POP POP JUMPDEST DUP1 DUP1 PUSH2 0xDDD SWAP1 PUSH2 0x18AB JUMP JUMPDEST SWAP2 POP POP PUSH2 0xD16 JUMP JUMPDEST POP SWAP2 SWAP1 POP JUMP JUMPDEST PUSH1 0x0 DUP2 SWAP1 POP SWAP2 SWAP1 POP JUMP JUMPDEST PUSH2 0xDFE DUP2 PUSH2 0xDEB JUMP JUMPDEST DUP3 MSTORE POP POP JUMP JUMPDEST PUSH1 0x0 PUSH1 0x20 DUP3 ADD SWAP1 POP PUSH2 0xE19 PUSH1 0x0 DUP4 ADD DUP5 PUSH2 0xDF5 JUMP JUMPDEST SWAP3 SWAP2 POP POP JUMP JUMPDEST PUSH1 0x0 DUP1 REVERT JUMPDEST PUSH1 0x0 DUP1 REVERT JUMPDEST PUSH2 0xE32 DUP2 PUSH2 0xDEB JUMP JUMPDEST DUP2 EQ PUSH2 0xE3D JUMPI PUSH1 0x0 DUP1 REVERT JUMPDEST POP JUMP JUMPDEST PUSH1 0x0 DUP2 CALLDATALOAD SWAP1 POP PUSH2 0xE4F DUP2 PUSH2 0xE29 JUMP JUMPDEST SWAP3 SWAP2 POP POP JUMP JUMPDEST PUSH1 0x0 PUSH1 0x20 DUP3 DUP5 SUB SLT ISZERO PUSH2 0xE6B JUMPI PUSH2 0xE6A PUSH2 0xE1F JUMP JUMPDEST JUMPDEST PUSH1 0x0 PUSH2 0xE79 DUP5 DUP3 DUP6 ADD PUSH2 0xE40 JUMP JUMPDEST SWAP2 POP POP SWAP3 SWAP2 POP POP JUMP JUMPDEST PUSH1 0x0 PUSH20 0xFFFFFFFFFFFFFFFFFFFFFFFFFFFFFFFFFFFFFFFF DUP3 AND SWAP1 POP SWAP2 SWAP1 POP JUMP JUMPDEST PUSH1 0x0 PUSH2 0xEAD DUP3 PUSH2 0xE82 JUMP JUMPDEST SWAP1 POP SWAP2 SWAP1 POP JUMP JUMPDEST PUSH2 0xEBD DUP2 PUSH2 0xEA2 JUMP JUMPDEST DUP3 MSTORE POP POP JUMP JUMPDEST PUSH1 0x0 PUSH1 0x20 DUP3 ADD SWAP1 POP PUSH2 0xED8 PUSH1 0x0 DUP4 ADD DUP5 PUSH2 0xEB4 JUMP JUMPDEST SWAP3 SWAP2 POP POP JUMP JUMPDEST PUSH2 0xEE7 DUP2 PUSH2 0xEA2 JUMP JUMPDEST DUP2 EQ PUSH2 0xEF2 JUMPI PUSH1 0x0 DUP1 REVERT JUMPDEST POP JUMP JUMPDEST PUSH1 0x0 DUP2 CALLDATALOAD SWAP1 POP PUSH2 0xF04 DUP2 PUSH2 0xEDE JUMP JUMPDEST SWAP3 SWAP2 POP POP JUMP JUMPDEST PUSH1 0x0 DUP1 REVERT JUMPDEST PUSH1 0x0 DUP1 REVERT JUMPDEST PUSH1 0x0 DUP1 REVERT JUMPDEST PUSH1 0x0 DUP1 DUP4 PUSH1 0x1F DUP5 ADD SLT PUSH2 0xF2F JUMPI PUSH2 0xF2E PUSH2 0xF0A JUMP JUMPDEST JUMPDEST DUP3 CALLDATALOAD SWAP1 POP PUSH8 0xFFFFFFFFFFFFFFFF DUP2 GT ISZERO PUSH2 0xF4C JUMPI PUSH2 0xF4B PUSH2 0xF0F JUMP JUMPDEST JUMPDEST PUSH1 0x20 DUP4 ADD SWAP2 POP DUP4 PUSH1 0x1 DUP3 MUL DUP4 ADD GT ISZERO PUSH2 0xF68 JUMPI PUSH2 0xF67 PUSH2 0xF14 JUMP JUMPDEST JUMPDEST SWAP3 POP SWAP3 SWAP1 POP JUMP JUMPDEST PUSH1 0x0 DUP1 PUSH1 0x0 DUP1 PUSH1 0x60 DUP6 DUP8 SUB SLT ISZERO PUSH2 0xF89 JUMPI PUSH2 0xF88 PUSH2 0xE1F JUMP JUMPDEST JUMPDEST PUSH1 0x0 PUSH2 0xF97 DUP8 DUP3 DUP9 ADD PUSH2 0xEF5 JUMP JUMPDEST SWAP5 POP POP PUSH1 0x20 PUSH2 0xFA8 DUP8 DUP3 DUP9 ADD PUSH2 0xE40 JUMP JUMPDEST SWAP4 POP POP PUSH1 0x40 DUP6 ADD CALLDATALOAD PUSH8 0xFFFFFFFFFFFFFFFF DUP2 GT ISZERO PUSH2 0xFC9 JUMPI PUSH2 0xFC8 PUSH2 0xE24 JUMP JUMPDEST JUMPDEST PUSH2 0xFD5 DUP8 DUP3 DUP9 ADD PUSH2 0xF19 JUMP JUMPDEST SWAP3 POP SWAP3 POP POP SWAP3 SWAP6 SWAP2 SWAP5 POP SWAP3 POP JUMP JUMPDEST PUSH1 0x0 DUP2 MLOAD SWAP1 POP SWAP2 SWAP1 POP JUMP JUMPDEST PUSH1 0x0 DUP3 DUP3 MSTORE PUSH1 0x20 DUP3 ADD SWAP1 POP SWAP3 SWAP2 POP POP JUMP JUMPDEST PUSH1 0x0 JUMPDEST DUP4 DUP2 LT ISZERO PUSH2 0x101D JUMPI DUP1 DUP3 ADD MLOAD DUP2 DUP5 ADD MSTORE PUSH1 0x20 DUP2 ADD SWAP1 POP PUSH2 0x1002 JUMP JUMPDEST PUSH1 0x0 DUP5 DUP5 ADD MSTORE POP POP POP POP JUMP JUMPDEST PUSH1 0x0 PUSH1 0x1F NOT PUSH1 0x1F DUP4 ADD AND SWAP1 POP SWAP2 SWAP1 POP JUMP JUMPDEST PUSH1 0x0 PUSH2 0x1045 DUP3 PUSH2 0xFE3 JUMP JUMPDEST PUSH2 0x104F DUP2 DUP6 PUSH2 0xFEE JUMP JUMPDEST SWAP4 POP PUSH2 0x105F DUP2 DUP6 PUSH1 0x20 DUP7 ADD PUSH2 0xFFF JUMP JUMPDEST PUSH2 0x1068 DUP2 PUSH2 0x1029 JUMP JUMPDEST DUP5 ADD SWAP2 POP POP SWAP3 SWAP2 POP POP JUMP JUMPDEST PUSH1 0x0 DUP2 ISZERO ISZERO SWAP1 POP SWAP2 SWAP1 POP JUMP JUMPDEST PUSH2 0x1088 DUP2 PUSH2 0x1073 JUMP JUMPDEST DUP3 MSTORE POP POP JUMP JUMPDEST PUSH1 0x0 PUSH1 0x80 DUP3 ADD SWAP1 POP PUSH2 0x10A3 PUSH1 0x0 DUP4 ADD DUP8 PUSH2 0xEB4 JUMP JUMPDEST PUSH2 0x10B0 PUSH1 0x20 DUP4 ADD DUP7 PUSH2 0xDF5 JUMP JUMPDEST DUP2 DUP2 SUB PUSH1 0x40 DUP4 ADD MSTORE PUSH2 0x10C2 DUP2 DUP6 PUSH2 0x103A JUMP JUMPDEST SWAP1 POP PUSH2 0x10D1 PUSH1 0x60 DUP4 ADD DUP5 PUSH2 0x107F JUMP JUMPDEST SWAP6 SWAP5 POP POP POP POP POP JUMP JUMPDEST PUSH1 0x0 PUSH1 0x20 DUP3 DUP5 SUB SLT ISZERO PUSH2 0x10F0 JUMPI PUSH2 0x10EF PUSH2 0xE1F JUMP JUMPDEST JUMPDEST PUSH1 0x0 PUSH2 0x10FE DUP5 DUP3 DUP6 ADD PUSH2 0xEF5 JUMP JUMPDEST SWAP2 POP POP SWAP3 SWAP2 POP POP JUMP JUMPDEST PUSH1 0x0 PUSH1 0x20 DUP3 ADD SWAP1 POP PUSH2 0x111C PUSH1 0x0 DUP4 ADD DUP5 PUSH2 0x107F JUMP JUMPDEST SWAP3 SWAP2 POP POP JUMP JUMPDEST PUSH1 0x0 DUP1 PUSH1 0x40 DUP4 DUP6 SUB SLT ISZERO PUSH2 0x1139 JUMPI PUSH2 0x1138 PUSH2 0xE1F JUMP JUMPDEST JUMPDEST PUSH1 0x0 PUSH2 0x1147 DUP6 DUP3 DUP7 ADD PUSH2 0xE40 JUMP JUMPDEST SWAP3 POP POP PUSH1 0x20 PUSH2 0x1158 DUP6 DUP3 DUP7 ADD PUSH2 0xEF5 JUMP JUMPDEST SWAP2 POP POP SWAP3 POP SWAP3 SWAP1 POP JUMP JUMPDEST PUSH1 0x0 DUP3 DUP3 MSTORE PUSH1 0x20 DUP3 ADD SWAP1 POP SWAP3 SWAP2 POP POP JUMP JUMPDEST PUSH32 0x6E6F74204F776E65720000000000000000000000000000000000000000000000 PUSH1 0x0 DUP3 ADD MSTORE POP JUMP JUMPDEST PUSH1 0x0 PUSH2 0x11A9 PUSH1 0x9 DUP4 PUSH2 0x1162 JUMP JUMPDEST SWAP2 POP PUSH2 0x11B4 DUP3 PUSH2 0x1173 JUMP JUMPDEST PUSH1 0x20 DUP3 ADD SWAP1 POP SWAP2 SWAP1 POP JUMP JUMPDEST PUSH1 0x0 PUSH1 0x20 DUP3 ADD SWAP1 POP DUP2 DUP2 SUB PUSH1 0x0 DUP4 ADD MSTORE PUSH2 0x11D8 DUP2 PUSH2 0x119C JUMP JUMPDEST SWAP1 POP SWAP2 SWAP1 POP JUMP JUMPDEST PUSH32 0x4E487B7100000000000000000000000000000000000000000000000000000000 PUSH1 0x0 MSTORE PUSH1 0x41 PUSH1 0x4 MSTORE PUSH1 0x24 PUSH1 0x0 REVERT JUMPDEST PUSH32 0x4E487B7100000000000000000000000000000000000000000000000000000000 PUSH1 0x0 MSTORE PUSH1 0x22 PUSH1 0x4 MSTORE PUSH1 0x24 PUSH1 0x0 REVERT JUMPDEST PUSH1 0x0 PUSH1 0x2 DUP3 DIV SWAP1 POP PUSH1 0x1 DUP3 AND DUP1 PUSH2 0x1255 JUMPI PUSH1 0x7F DUP3 AND SWAP2 POP JUMPDEST PUSH1 0x20 DUP3 LT DUP2 SUB PUSH2 0x1268 JUMPI PUSH2 0x1267 PUSH2 0x120E JUMP JUMPDEST JUMPDEST POP SWAP2 SWAP1 POP JUMP JUMPDEST PUSH1 0x0 DUP2 SWAP1 POP DUP2 PUSH1 0x0 MSTORE PUSH1 0x20 PUSH1 0x0 KECCAK256 SWAP1 POP SWAP2 SWAP1 POP JUMP JUMPDEST PUSH1 0x0 PUSH1 0x20 PUSH1 0x1F DUP4 ADD DIV SWAP1 POP SWAP2 SWAP1 POP JUMP JUMPDEST PUSH1 0x0 DUP3 DUP3 SHL SWAP1 POP SWAP3 SWAP2 POP POP JUMP JUMPDEST PUSH1 0x0 PUSH1 0x8 DUP4 MUL PUSH2 0x12D0 PUSH32 0xFFFFFFFFFFFFFFFFFFFFFFFFFFFFFFFFFFFFFFFFFFFFFFFFFFFFFFFFFFFFFFFF DUP3 PUSH2 0x1293 JUMP JUMPDEST PUSH2 0x12DA DUP7 DUP4 PUSH2 0x1293 JUMP JUMPDEST SWAP6 POP DUP1 NOT DUP5 AND SWAP4 POP DUP1 DUP7 AND DUP5 OR SWAP3 POP POP POP SWAP4 SWAP3 POP POP POP JUMP JUMPDEST PUSH1 0x0 DUP2 SWAP1 POP SWAP2 SWAP1 POP JUMP JUMPDEST PUSH1 0x0 PUSH2 0x1317 PUSH2 0x1312 PUSH2 0x130D DUP5 PUSH2 0xDEB JUMP JUMPDEST PUSH2 0x12F2 JUMP JUMPDEST PUSH2 0xDEB JUMP JUMPDEST SWAP1 POP SWAP2 SWAP1 POP JUMP JUMPDEST PUSH1 0x0 DUP2 SWAP1 POP SWAP2 SWAP1 POP JUMP JUMPDEST PUSH2 0x1331 DUP4 PUSH2 0x12FC JUMP JUMPDEST PUSH2 0x1345 PUSH2 0x133D DUP3 PUSH2 0x131E JUMP JUMPDEST DUP5 DUP5 SLOAD PUSH2 0x12A0 JUMP JUMPDEST DUP3 SSTORE POP POP POP POP JUMP JUMPDEST PUSH1 0x0 SWAP1 JUMP JUMPDEST PUSH2 0x135A PUSH2 0x134D JUMP JUMPDEST PUSH2 0x1365 DUP2 DUP5 DUP5 PUSH2 0x1328 JUMP JUMPDEST POP POP POP JUMP JUMPDEST JUMPDEST DUP2 DUP2 LT ISZERO PUSH2 0x1389 JUMPI PUSH2 0x137E PUSH1 0x0 DUP3 PUSH2 0x1352 JUMP JUMPDEST PUSH1 0x1 DUP2 ADD SWAP1 POP PUSH2 0x136B JUMP JUMPDEST POP POP JUMP JUMPDEST PUSH1 0x1F DUP3 GT ISZERO PUSH2 0x13CE JUMPI PUSH2 0x139F DUP2 PUSH2 0x126E JUMP JUMPDEST PUSH2 0x13A8 DUP5 PUSH2 0x1283 JUMP JUMPDEST DUP2 ADD PUSH1 0x20 DUP6 LT ISZERO PUSH2 0x13B7 JUMPI DUP2 SWAP1 POP JUMPDEST PUSH2 0x13CB PUSH2 0x13C3 DUP6 PUSH2 0x1283 JUMP JUMPDEST DUP4 ADD DUP3 PUSH2 0x136A JUMP JUMPDEST POP POP JUMPDEST POP POP POP JUMP JUMPDEST PUSH1 0x0 DUP3 DUP3 SHR SWAP1 POP SWAP3 SWAP2 POP POP JUMP JUMPDEST PUSH1 0x0 PUSH2 0x13F1 PUSH1 0x0 NOT DUP5 PUSH1 0x8 MUL PUSH2 0x13D3 JUMP JUMPDEST NOT DUP1 DUP4 AND SWAP2 POP POP SWAP3 SWAP2 POP POP JUMP JUMPDEST PUSH1 0x0 PUSH2 0x140A DUP4 DUP4 PUSH2 0x13E0 JUMP JUMPDEST SWAP2 POP DUP3 PUSH1 0x2 MUL DUP3 OR SWAP1 POP SWAP3 SWAP2 POP POP JUMP JUMPDEST PUSH2 0x1423 DUP3 PUSH2 0xFE3 JUMP JUMPDEST PUSH8 0xFFFFFFFFFFFFFFFF DUP2 GT ISZERO PUSH2 0x143C JUMPI PUSH2 0x143B PUSH2 0x11DF JUMP JUMPDEST JUMPDEST PUSH2 0x1446 DUP3 SLOAD PUSH2 0x123D JUMP JUMPDEST PUSH2 0x1451 DUP3 DUP3 DUP6 PUSH2 0x138D JUMP JUMPDEST PUSH1 0x0 PUSH1 0x20 SWAP1 POP PUSH1 0x1F DUP4 GT PUSH1 0x1 DUP2 EQ PUSH2 0x1484 JUMPI PUSH1 0x0 DUP5 ISZERO PUSH2 0x1472 JUMPI DUP3 DUP8 ADD MLOAD SWAP1 POP JUMPDEST PUSH2 0x147C DUP6 DUP3 PUSH2 0x13FE JUMP JUMPDEST DUP7 SSTORE POP PUSH2 0x14E4 JUMP JUMPDEST PUSH1 0x1F NOT DUP5 AND PUSH2 0x1492 DUP7 PUSH2 0x126E JUMP JUMPDEST PUSH1 0x0 JUMPDEST DUP3 DUP2 LT ISZERO PUSH2 0x14BA JUMPI DUP5 DUP10 ADD MLOAD DUP3 SSTORE PUSH1 0x1 DUP3 ADD SWAP2 POP PUSH1 0x20 DUP6 ADD SWAP5 POP PUSH1 0x20 DUP2 ADD SWAP1 POP PUSH2 0x1495 JUMP JUMPDEST DUP7 DUP4 LT ISZERO PUSH2 0x14D7 JUMPI DUP5 DUP10 ADD MLOAD PUSH2 0x14D3 PUSH1 0x1F DUP10 AND DUP3 PUSH2 0x13E0 JUMP JUMPDEST DUP4 SSTORE POP JUMPDEST PUSH1 0x1 PUSH1 0x2 DUP9 MUL ADD DUP9 SSTORE POP POP POP JUMPDEST POP POP POP POP POP POP JUMP JUMPDEST PUSH32 0x4E487B7100000000000000000000000000000000000000000000000000000000 PUSH1 0x0 MSTORE PUSH1 0x11 PUSH1 0x4 MSTORE PUSH1 0x24 PUSH1 0x0 REVERT JUMPDEST PUSH1 0x0 PUSH2 0x1526 DUP3 PUSH2 0xDEB JUMP JUMPDEST SWAP2 POP PUSH2 0x1531 DUP4 PUSH2 0xDEB JUMP JUMPDEST SWAP3 POP DUP3 DUP3 SUB SWAP1 POP DUP2 DUP2 GT ISZERO PUSH2 0x1549 JUMPI PUSH2 0x1548 PUSH2 0x14EC JUMP JUMPDEST JUMPDEST SWAP3 SWAP2 POP POP JUMP JUMPDEST PUSH32 0x747820646F6573206E6F74206578697374000000000000000000000000000000 PUSH1 0x0 DUP3 ADD MSTORE POP JUMP JUMPDEST PUSH1 0x0 PUSH2 0x1585 PUSH1 0x11 DUP4 PUSH2 0x1162 JUMP JUMPDEST SWAP2 POP PUSH2 0x1590 DUP3 PUSH2 0x154F JUMP JUMPDEST PUSH1 0x20 DUP3 ADD SWAP1 POP SWAP2 SWAP1 POP JUMP JUMPDEST PUSH1 0x0 PUSH1 0x20 DUP3 ADD SWAP1 POP DUP2 DUP2 SUB PUSH1 0x0 DUP4 ADD MSTORE PUSH2 0x15B4 DUP2 PUSH2 0x1578 JUMP JUMPDEST SWAP1 POP SWAP2 SWAP1 POP JUMP JUMPDEST PUSH32 0x4E487B7100000000000000000000000000000000000000000000000000000000 PUSH1 0x0 MSTORE PUSH1 0x32 PUSH1 0x4 MSTORE PUSH1 0x24 PUSH1 0x0 REVERT JUMPDEST PUSH32 0x747820616C726561647920657865787574656400000000000000000000000000 PUSH1 0x0 DUP3 ADD MSTORE POP JUMP JUMPDEST PUSH1 0x0 PUSH2 0x1620 PUSH1 0x13 DUP4 PUSH2 0x1162 JUMP JUMPDEST SWAP2 POP PUSH2 0x162B DUP3 PUSH2 0x15EA JUMP JUMPDEST PUSH1 0x20 DUP3 ADD SWAP1 POP SWAP2 SWAP1 POP JUMP JUMPDEST PUSH1 0x0 PUSH1 0x20 DUP3 ADD SWAP1 POP DUP2 DUP2 SUB PUSH1 0x0 DUP4 ADD MSTORE PUSH2 0x164F DUP2 PUSH2 0x1613 JUMP JUMPDEST SWAP1 POP SWAP2 SWAP1 POP JUMP JUMPDEST PUSH32 0x7478206E6F7420617070726F7665640000000000000000000000000000000000 PUSH1 0x0 DUP3 ADD MSTORE POP JUMP JUMPDEST PUSH1 0x0 PUSH2 0x168C PUSH1 0xF DUP4 PUSH2 0x1162 JUMP JUMPDEST SWAP2 POP PUSH2 0x1697 DUP3 PUSH2 0x1656 JUMP JUMPDEST PUSH1 0x20 DUP3 ADD SWAP1 POP SWAP2 SWAP1 POP JUMP JUMPDEST PUSH1 0x0 PUSH1 0x20 DUP3 ADD SWAP1 POP DUP2 DUP2 SUB PUSH1 0x0 DUP4 ADD MSTORE PUSH2 0x16BB DUP2 PUSH2 0x167F JUMP JUMPDEST SWAP1 POP SWAP2 SWAP1 POP JUMP JUMPDEST PUSH32 0x747820616C726561647920617070726F76656400000000000000000000000000 PUSH1 0x0 DUP3 ADD MSTORE POP JUMP JUMPDEST PUSH1 0x0 PUSH2 0x16F8 PUSH1 0x13 DUP4 PUSH2 0x1162 JUMP JUMPDEST SWAP2 POP PUSH2 0x1703 DUP3 PUSH2 0x16C2 JUMP JUMPDEST PUSH1 0x20 DUP3 ADD SWAP1 POP SWAP2 SWAP1 POP JUMP JUMPDEST PUSH1 0x0 PUSH1 0x20 DUP3 ADD SWAP1 POP DUP2 DUP2 SUB PUSH1 0x0 DUP4 ADD MSTORE PUSH2 0x1727 DUP2 PUSH2 0x16EB JUMP JUMPDEST SWAP1 POP SWAP2 SWAP1 POP JUMP JUMPDEST PUSH32 0x617070726F76616C203C20726571756972656400000000000000000000000000 PUSH1 0x0 DUP3 ADD MSTORE POP JUMP JUMPDEST PUSH1 0x0 PUSH2 0x1764 PUSH1 0x13 DUP4 PUSH2 0x1162 JUMP JUMPDEST SWAP2 POP PUSH2 0x176F DUP3 PUSH2 0x172E JUMP JUMPDEST PUSH1 0x20 DUP3 ADD SWAP1 POP SWAP2 SWAP1 POP JUMP JUMPDEST PUSH1 0x0 PUSH1 0x20 DUP3 ADD SWAP1 POP DUP2 DUP2 SUB PUSH1 0x0 DUP4 ADD MSTORE PUSH2 0x1793 DUP2 PUSH2 0x1757 JUMP JUMPDEST SWAP1 POP SWAP2 SWAP1 POP JUMP JUMPDEST PUSH1 0x0 DUP2 SWAP1 POP SWAP3 SWAP2 POP POP JUMP JUMPDEST PUSH1 0x0 DUP2 SLOAD PUSH2 0x17B2 DUP2 PUSH2 0x123D JUMP JUMPDEST PUSH2 0x17BC DUP2 DUP7 PUSH2 0x179A JUMP JUMPDEST SWAP5 POP PUSH1 0x1 DUP3 AND PUSH1 0x0 DUP2 EQ PUSH2 0x17D7 JUMPI PUSH1 0x1 DUP2 EQ PUSH2 0x17EC JUMPI PUSH2 0x181F JUMP JUMPDEST PUSH1 0xFF NOT DUP4 AND DUP7 MSTORE DUP2 ISZERO ISZERO DUP3 MUL DUP7 ADD SWAP4 POP PUSH2 0x181F JUMP JUMPDEST PUSH2 0x17F5 DUP6 PUSH2 0x126E JUMP JUMPDEST PUSH1 0x0 JUMPDEST DUP4 DUP2 LT ISZERO PUSH2 0x1817 JUMPI DUP2 SLOAD DUP2 DUP10 ADD MSTORE PUSH1 0x1 DUP3 ADD SWAP2 POP PUSH1 0x20 DUP2 ADD SWAP1 POP PUSH2 0x17F8 JUMP JUMPDEST DUP4 DUP9 ADD SWAP6 POP POP POP JUMPDEST POP POP POP SWAP3 SWAP2 POP POP JUMP JUMPDEST PUSH1 0x0 PUSH2 0x1834 DUP3 DUP5 PUSH2 0x17A5 JUMP JUMPDEST SWAP2 POP DUP2 SWAP1 POP SWAP3 SWAP2 POP POP JUMP JUMPDEST PUSH32 0x7478206661696C65640000000000000000000000000000000000000000000000 PUSH1 0x0 DUP3 ADD MSTORE POP JUMP JUMPDEST PUSH1 0x0 PUSH2 0x1875 PUSH1 0x9 DUP4 PUSH2 0x1162 JUMP JUMPDEST SWAP2 POP PUSH2 0x1880 DUP3 PUSH2 0x183F JUMP JUMPDEST PUSH1 0x20 DUP3 ADD SWAP1 POP SWAP2 SWAP1 POP JUMP JUMPDEST PUSH1 0x0 PUSH1 0x20 DUP3 ADD SWAP1 POP DUP2 DUP2 SUB PUSH1 0x0 DUP4 ADD MSTORE PUSH2 0x18A4 DUP2 PUSH2 0x1868 JUMP JUMPDEST SWAP1 POP SWAP2 SWAP1 POP JUMP JUMPDEST PUSH1 0x0 PUSH2 0x18B6 DUP3 PUSH2 0xDEB JUMP JUMPDEST SWAP2 POP PUSH32 0xFFFFFFFFFFFFFFFFFFFFFFFFFFFFFFFFFFFFFFFFFFFFFFFFFFFFFFFFFFFFFFFF DUP3 SUB PUSH2 0x18E8 JUMPI PUSH2 0x18E7 PUSH2 0x14EC JUMP JUMPDEST JUMPDEST PUSH1 0x1 DUP3 ADD SWAP1 POP SWAP2 SWAP1 POP JUMP INVALID LOG2 PUSH5 0x6970667358 0x22 SLT KECCAK256 CALLCODE DUP5 PUSH2 0x3D87 PUSH32 0x919B12DD8A1BCC9FE444616948AD673B69403A843905A5B17FE64736F6C6343 STOP ADDMOD GT STOP CALLER "
				},
				"gasEstimates": {
					"creation": {
						"codeDepositCost": "1288200",
						"executionCost": "infinite",
						"totalCost": "infinite"
					},
					"external": {
						"approve(uint256)": "37486",
						"approved(uint256,address)": "3109",
						"execute(uint256)": "infinite",
						"isOwner(address)": "2845",
						"owners(uint256)": "4957",
						"required()": "2495",
						"revoke(uint256)": "11790",
						"submit(address,uint256,bytes)": "infinite",
						"tracsactions(uint256)": "infinite"
					},
					"internal": {
						"_getApprovalCount(uint256)": "infinite"
					}
				},
				"methodIdentifiers": {
					"approve(uint256)": "b759f954",
					"approved(uint256,address)": "8253951a",
					"execute(uint256)": "fe0d94c1",
					"isOwner(address)": "2f54bf6e",
					"owners(uint256)": "025e7c27",
					"required()": "dc8452cd",
					"revoke(uint256)": "20c5429b",
					"submit(address,uint256,bytes)": "14de327f",
					"tracsactions(uint256)": "23d27284"
				}
			},
			"storageLayout": {
				"storage": [
					{
						"astId": 39,
						"contract": "MultiSigWallet.sol:MultiSigWallet",
						"label": "owners",
						"offset": 0,
						"slot": "0",
						"type": "t_array(t_address)dyn_storage"
					},
					{
						"astId": 43,
						"contract": "MultiSigWallet.sol:MultiSigWallet",
						"label": "isOwner",
						"offset": 0,
						"slot": "1",
						"type": "t_mapping(t_address,t_bool)"
					},
					{
						"astId": 45,
						"contract": "MultiSigWallet.sol:MultiSigWallet",
						"label": "required",
						"offset": 0,
						"slot": "2",
						"type": "t_uint256"
					},
					{
						"astId": 49,
						"contract": "MultiSigWallet.sol:MultiSigWallet",
						"label": "tracsactions",
						"offset": 0,
						"slot": "3",
						"type": "t_array(t_struct(Transaction)36_storage)dyn_storage"
					},
					{
						"astId": 55,
						"contract": "MultiSigWallet.sol:MultiSigWallet",
						"label": "approved",
						"offset": 0,
						"slot": "4",
						"type": "t_mapping(t_uint256,t_mapping(t_address,t_bool))"
					}
				],
				"types": {
					"t_address": {
						"encoding": "inplace",
						"label": "address",
						"numberOfBytes": "20"
					},
					"t_array(t_address)dyn_storage": {
						"base": "t_address",
						"encoding": "dynamic_array",
						"label": "address[]",
						"numberOfBytes": "32"
					},
					"t_array(t_struct(Transaction)36_storage)dyn_storage": {
						"base": "t_struct(Transaction)36_storage",
						"encoding": "dynamic_array",
						"label": "struct MultiSigWallet.Transaction[]",
						"numberOfBytes": "32"
					},
					"t_bool": {
						"encoding": "inplace",
						"label": "bool",
						"numberOfBytes": "1"
					},
					"t_bytes_storage": {
						"encoding": "bytes",
						"label": "bytes",
						"numberOfBytes": "32"
					},
					"t_mapping(t_address,t_bool)": {
						"encoding": "mapping",
						"key": "t_address",
						"label": "mapping(address => bool)",
						"numberOfBytes": "32",
						"value": "t_bool"
					},
					"t_mapping(t_uint256,t_mapping(t_address,t_bool))": {
						"encoding": "mapping",
						"key": "t_uint256",
						"label": "mapping(uint256 => mapping(address => bool))",
						"numberOfBytes": "32",
						"value": "t_mapping(t_address,t_bool)"
					},
					"t_struct(Transaction)36_storage": {
						"encoding": "inplace",
						"label": "struct MultiSigWallet.Transaction",
						"members": [
							{
								"astId": 29,
								"contract": "MultiSigWallet.sol:MultiSigWallet",
								"label": "to",
								"offset": 0,
								"slot": "0",
								"type": "t_address"
							},
							{
								"astId": 31,
								"contract": "MultiSigWallet.sol:MultiSigWallet",
								"label": "value",
								"offset": 0,
								"slot": "1",
								"type": "t_uint256"
							},
							{
								"astId": 33,
								"contract": "MultiSigWallet.sol:MultiSigWallet",
								"label": "data",
								"offset": 0,
								"slot": "2",
								"type": "t_bytes_storage"
							},
							{
								"astId": 35,
								"contract": "MultiSigWallet.sol:MultiSigWallet",
								"label": "executed",
								"offset": 0,
								"slot": "3",
								"type": "t_bool"
							}
						],
						"numberOfBytes": "128"
					},
					"t_uint256": {
						"encoding": "inplace",
						"label": "uint256",
						"numberOfBytes": "32"
					}
				}
			},
			"userdoc": {
				"kind": "user",
				"methods": {},
				"version": 1
			}
		}
	}
}