{
	"TodoList.sol": {
		"TodoList": {
			"abi": [
				{
					"inputs": [
						{
							"internalType": "string",
							"name": "_text",
							"type": "string"
						}
					],
					"name": "create",
					"outputs": [],
					"stateMutability": "nonpayable",
					"type": "function"
				},
				{
					"inputs": [
						{
							"internalType": "uint256",
							"name": "",
							"type": "uint256"
						}
					],
					"name": "todos",
					"outputs": [
						{
							"internalType": "string",
							"name": "text",
							"type": "string"
						},
						{
							"internalType": "bool",
							"name": "compeleted",
							"type": "bool"
						}
					],
					"stateMutability": "view",
					"type": "function"
				}
			],
			"devdoc": {
				"kind": "dev",
				"methods": {},
				"version": 1
			},
			"evm": {
				"assembly": "    /* \"TodoList.sol\":61:347  contract TodoList {... */\n  mstore(0x40, 0x80)\n  callvalue\n  dup1\n  iszero\n  tag_1\n  jumpi\n  0x00\n  dup1\n  revert\ntag_1:\n  pop\n  dataSize(sub_0)\n  dup1\n  dataOffset(sub_0)\n  0x00\n  codecopy\n  0x00\n  return\nstop\n\nsub_0: assembly {\n        /* \"TodoList.sol\":61:347  contract TodoList {... */\n      mstore(0x40, 0x80)\n      callvalue\n      dup1\n      iszero\n      tag_1\n      jumpi\n      0x00\n      dup1\n      revert\n    tag_1:\n      pop\n      jumpi(tag_2, lt(calldatasize, 0x04))\n      shr(0xe0, calldataload(0x00))\n      dup1\n      0xb6a46b3b\n      eq\n      tag_3\n      jumpi\n      dup1\n      0xbc8bc2b4\n      eq\n      tag_4\n      jumpi\n    tag_2:\n      0x00\n      dup1\n      revert\n        /* \"TodoList.sol\":190:344  function create(string calldata _text) external {... */\n    tag_3:\n      tag_5\n      0x04\n      dup1\n      calldatasize\n      sub\n      dup2\n      add\n      swap1\n      tag_6\n      swap2\n      swap1\n      tag_7\n      jump\t// in\n    tag_6:\n      tag_8\n      jump\t// in\n    tag_5:\n      stop\n        /* \"TodoList.sol\":162:181  Todo[] public todos */\n    tag_4:\n      tag_9\n      0x04\n      dup1\n      calldatasize\n      sub\n      dup2\n      add\n      swap1\n      tag_10\n      swap2\n      swap1\n      tag_11\n      jump\t// in\n    tag_10:\n      tag_12\n      jump\t// in\n    tag_9:\n      mload(0x40)\n      tag_13\n      swap3\n      swap2\n      swap1\n      tag_14\n      jump\t// in\n    tag_13:\n      mload(0x40)\n      dup1\n      swap2\n      sub\n      swap1\n      return\n        /* \"TodoList.sol\":190:344  function create(string calldata _text) external {... */\n    tag_8:\n        /* \"TodoList.sol\":249:254  todos */\n      0x00\n        /* \"TodoList.sol\":260:335  Todo({... */\n      mload(0x40)\n      dup1\n      0x40\n      add\n      0x40\n      mstore\n      dup1\n        /* \"TodoList.sol\":286:291  _text */\n      dup5\n      dup5\n        /* \"TodoList.sol\":260:335  Todo({... */\n      dup1\n      dup1\n      0x1f\n      add\n      0x20\n      dup1\n      swap2\n      div\n      mul\n      0x20\n      add\n      mload(0x40)\n      swap1\n      dup2\n      add\n      0x40\n      mstore\n      dup1\n      swap4\n      swap3\n      swap2\n      swap1\n      dup2\n      dup2\n      mstore\n      0x20\n      add\n      dup4\n      dup4\n      dup1\n      dup3\n      dup5\n      calldatacopy\n      0x00\n      dup2\n      dup5\n      add\n      mstore\n      not(0x1f)\n      0x1f\n      dup3\n      add\n      and\n      swap1\n      pop\n      dup1\n      dup4\n      add\n      swap3\n      pop\n      pop\n      pop\n      pop\n      pop\n      pop\n      pop\n      dup2\n      mstore\n      0x20\n      add\n        /* \"TodoList.sol\":318:323  false */\n      0x00\n        /* \"TodoList.sol\":260:335  Todo({... */\n      iszero\n      iszero\n      dup2\n      mstore\n      pop\n        /* \"TodoList.sol\":249:336  todos.push(Todo({... */\n      swap1\n      dup1\n      0x01\n      dup2\n      sload\n      add\n      dup1\n      dup3\n      sstore\n      dup1\n      swap2\n      pop\n      pop\n      0x01\n      swap1\n      sub\n      swap1\n      0x00\n      mstore\n      keccak256(0x00, 0x20)\n      swap1\n      0x02\n      mul\n      add\n      0x00\n      swap1\n      swap2\n      swap1\n      swap2\n      swap1\n      swap2\n      pop\n      0x00\n      dup3\n      add\n      mload\n      dup2\n      0x00\n      add\n      swap1\n      dup2\n      tag_17\n      swap2\n      swap1\n      tag_18\n      jump\t// in\n    tag_17:\n      pop\n      0x20\n      dup3\n      add\n      mload\n      dup2\n      0x01\n      add\n      exp(0x0100, 0x00)\n      dup2\n      sload\n      dup2\n      0xff\n      mul\n      not\n      and\n      swap1\n      dup4\n      iszero\n      iszero\n      mul\n      or\n      swap1\n      sstore\n      pop\n      pop\n      pop\n        /* \"TodoList.sol\":190:344  function create(string calldata _text) external {... */\n      pop\n      pop\n      jump\t// out\n        /* \"TodoList.sol\":162:181  Todo[] public todos */\n    tag_12:\n      0x00\n      dup2\n      dup2\n      sload\n      dup2\n      lt\n      tag_19\n      jumpi\n      0x00\n      dup1\n      revert\n    tag_19:\n      swap1\n      0x00\n      mstore\n      keccak256(0x00, 0x20)\n      swap1\n      0x02\n      mul\n      add\n      0x00\n      swap2\n      pop\n      swap1\n      pop\n      dup1\n      0x00\n      add\n      dup1\n      sload\n      tag_21\n      swap1\n      tag_22\n      jump\t// in\n    tag_21:\n      dup1\n      0x1f\n      add\n      0x20\n      dup1\n      swap2\n      div\n      mul\n      0x20\n      add\n      mload(0x40)\n      swap1\n      dup2\n      add\n      0x40\n      mstore\n      dup1\n      swap3\n      swap2\n      swap1\n      dup2\n      dup2\n      mstore\n      0x20\n      add\n      dup3\n      dup1\n      sload\n      tag_23\n      swap1\n      tag_22\n      jump\t// in\n    tag_23:\n      dup1\n      iszero\n      tag_24\n      jumpi\n      dup1\n      0x1f\n      lt\n      tag_25\n      jumpi\n      0x0100\n      dup1\n      dup4\n      sload\n      div\n      mul\n      dup4\n      mstore\n      swap2\n      0x20\n      add\n      swap2\n      jump(tag_24)\n    tag_25:\n      dup3\n      add\n      swap2\n      swap1\n      0x00\n      mstore\n      keccak256(0x00, 0x20)\n      swap1\n    tag_26:\n      dup2\n      sload\n      dup2\n      mstore\n      swap1\n      0x01\n      add\n      swap1\n      0x20\n      add\n      dup1\n      dup4\n      gt\n      tag_26\n      jumpi\n      dup3\n      swap1\n      sub\n      0x1f\n      and\n      dup3\n      add\n      swap2\n    tag_24:\n      pop\n      pop\n      pop\n      pop\n      pop\n      swap1\n      dup1\n      0x01\n      add\n      0x00\n      swap1\n      sload\n      swap1\n      0x0100\n      exp\n      swap1\n      div\n      0xff\n      and\n      swap1\n      pop\n      dup3\n      jump\t// out\n        /* \"#utility.yul\":88:205   */\n    tag_28:\n        /* \"#utility.yul\":197:198   */\n      0x00\n        /* \"#utility.yul\":194:195   */\n      dup1\n        /* \"#utility.yul\":187:199   */\n      revert\n        /* \"#utility.yul\":211:328   */\n    tag_29:\n        /* \"#utility.yul\":320:321   */\n      0x00\n        /* \"#utility.yul\":317:318   */\n      dup1\n        /* \"#utility.yul\":310:322   */\n      revert\n        /* \"#utility.yul\":334:451   */\n    tag_30:\n        /* \"#utility.yul\":443:444   */\n      0x00\n        /* \"#utility.yul\":440:441   */\n      dup1\n        /* \"#utility.yul\":433:445   */\n      revert\n        /* \"#utility.yul\":457:574   */\n    tag_31:\n        /* \"#utility.yul\":566:567   */\n      0x00\n        /* \"#utility.yul\":563:564   */\n      dup1\n        /* \"#utility.yul\":556:568   */\n      revert\n        /* \"#utility.yul\":580:697   */\n    tag_32:\n        /* \"#utility.yul\":689:690   */\n      0x00\n        /* \"#utility.yul\":686:687   */\n      dup1\n        /* \"#utility.yul\":679:691   */\n      revert\n        /* \"#utility.yul\":717:1270   */\n    tag_33:\n        /* \"#utility.yul\":775:783   */\n      0x00\n        /* \"#utility.yul\":785:791   */\n      dup1\n        /* \"#utility.yul\":835:838   */\n      dup4\n        /* \"#utility.yul\":828:832   */\n      0x1f\n        /* \"#utility.yul\":820:826   */\n      dup5\n        /* \"#utility.yul\":816:833   */\n      add\n        /* \"#utility.yul\":812:839   */\n      slt\n        /* \"#utility.yul\":802:924   */\n      tag_69\n      jumpi\n        /* \"#utility.yul\":843:922   */\n      tag_70\n      tag_30\n      jump\t// in\n    tag_70:\n        /* \"#utility.yul\":802:924   */\n    tag_69:\n        /* \"#utility.yul\":956:962   */\n      dup3\n        /* \"#utility.yul\":943:963   */\n      calldataload\n        /* \"#utility.yul\":933:963   */\n      swap1\n      pop\n        /* \"#utility.yul\":986:1004   */\n      0xffffffffffffffff\n        /* \"#utility.yul\":978:984   */\n      dup2\n        /* \"#utility.yul\":975:1005   */\n      gt\n        /* \"#utility.yul\":972:1089   */\n      iszero\n      tag_71\n      jumpi\n        /* \"#utility.yul\":1008:1087   */\n      tag_72\n      tag_31\n      jump\t// in\n    tag_72:\n        /* \"#utility.yul\":972:1089   */\n    tag_71:\n        /* \"#utility.yul\":1122:1126   */\n      0x20\n        /* \"#utility.yul\":1114:1120   */\n      dup4\n        /* \"#utility.yul\":1110:1127   */\n      add\n        /* \"#utility.yul\":1098:1127   */\n      swap2\n      pop\n        /* \"#utility.yul\":1176:1179   */\n      dup4\n        /* \"#utility.yul\":1168:1172   */\n      0x01\n        /* \"#utility.yul\":1160:1166   */\n      dup3\n        /* \"#utility.yul\":1156:1173   */\n      mul\n        /* \"#utility.yul\":1146:1154   */\n      dup4\n        /* \"#utility.yul\":1142:1174   */\n      add\n        /* \"#utility.yul\":1139:1180   */\n      gt\n        /* \"#utility.yul\":1136:1264   */\n      iszero\n      tag_73\n      jumpi\n        /* \"#utility.yul\":1183:1262   */\n      tag_74\n      tag_32\n      jump\t// in\n    tag_74:\n        /* \"#utility.yul\":1136:1264   */\n    tag_73:\n        /* \"#utility.yul\":717:1270   */\n      swap3\n      pop\n      swap3\n      swap1\n      pop\n      jump\t// out\n        /* \"#utility.yul\":1276:1805   */\n    tag_7:\n        /* \"#utility.yul\":1347:1353   */\n      0x00\n        /* \"#utility.yul\":1355:1361   */\n      dup1\n        /* \"#utility.yul\":1404:1406   */\n      0x20\n        /* \"#utility.yul\":1392:1401   */\n      dup4\n        /* \"#utility.yul\":1383:1390   */\n      dup6\n        /* \"#utility.yul\":1379:1402   */\n      sub\n        /* \"#utility.yul\":1375:1407   */\n      slt\n        /* \"#utility.yul\":1372:1491   */\n      iszero\n      tag_76\n      jumpi\n        /* \"#utility.yul\":1410:1489   */\n      tag_77\n      tag_28\n      jump\t// in\n    tag_77:\n        /* \"#utility.yul\":1372:1491   */\n    tag_76:\n        /* \"#utility.yul\":1558:1559   */\n      0x00\n        /* \"#utility.yul\":1547:1556   */\n      dup4\n        /* \"#utility.yul\":1543:1560   */\n      add\n        /* \"#utility.yul\":1530:1561   */\n      calldataload\n        /* \"#utility.yul\":1588:1606   */\n      0xffffffffffffffff\n        /* \"#utility.yul\":1580:1586   */\n      dup2\n        /* \"#utility.yul\":1577:1607   */\n      gt\n        /* \"#utility.yul\":1574:1691   */\n      iszero\n      tag_78\n      jumpi\n        /* \"#utility.yul\":1610:1689   */\n      tag_79\n      tag_29\n      jump\t// in\n    tag_79:\n        /* \"#utility.yul\":1574:1691   */\n    tag_78:\n        /* \"#utility.yul\":1723:1788   */\n      tag_80\n        /* \"#utility.yul\":1780:1787   */\n      dup6\n        /* \"#utility.yul\":1771:1777   */\n      dup3\n        /* \"#utility.yul\":1760:1769   */\n      dup7\n        /* \"#utility.yul\":1756:1778   */\n      add\n        /* \"#utility.yul\":1723:1788   */\n      tag_33\n      jump\t// in\n    tag_80:\n        /* \"#utility.yul\":1705:1788   */\n      swap3\n      pop\n      swap3\n      pop\n        /* \"#utility.yul\":1501:1798   */\n      pop\n        /* \"#utility.yul\":1276:1805   */\n      swap3\n      pop\n      swap3\n      swap1\n      pop\n      jump\t// out\n        /* \"#utility.yul\":1811:1888   */\n    tag_34:\n        /* \"#utility.yul\":1848:1855   */\n      0x00\n        /* \"#utility.yul\":1877:1882   */\n      dup2\n        /* \"#utility.yul\":1866:1882   */\n      swap1\n      pop\n        /* \"#utility.yul\":1811:1888   */\n      swap2\n      swap1\n      pop\n      jump\t// out\n        /* \"#utility.yul\":1894:2016   */\n    tag_35:\n        /* \"#utility.yul\":1967:1991   */\n      tag_83\n        /* \"#utility.yul\":1985:1990   */\n      dup2\n        /* \"#utility.yul\":1967:1991   */\n      tag_34\n      jump\t// in\n    tag_83:\n        /* \"#utility.yul\":1960:1965   */\n      dup2\n        /* \"#utility.yul\":1957:1992   */\n      eq\n        /* \"#utility.yul\":1947:2010   */\n      tag_84\n      jumpi\n        /* \"#utility.yul\":2006:2007   */\n      0x00\n        /* \"#utility.yul\":2003:2004   */\n      dup1\n        /* \"#utility.yul\":1996:2008   */\n      revert\n        /* \"#utility.yul\":1947:2010   */\n    tag_84:\n        /* \"#utility.yul\":1894:2016   */\n      pop\n      jump\t// out\n        /* \"#utility.yul\":2022:2161   */\n    tag_36:\n        /* \"#utility.yul\":2068:2073   */\n      0x00\n        /* \"#utility.yul\":2106:2112   */\n      dup2\n        /* \"#utility.yul\":2093:2113   */\n      calldataload\n        /* \"#utility.yul\":2084:2113   */\n      swap1\n      pop\n        /* \"#utility.yul\":2122:2155   */\n      tag_86\n        /* \"#utility.yul\":2149:2154   */\n      dup2\n        /* \"#utility.yul\":2122:2155   */\n      tag_35\n      jump\t// in\n    tag_86:\n        /* \"#utility.yul\":2022:2161   */\n      swap3\n      swap2\n      pop\n      pop\n      jump\t// out\n        /* \"#utility.yul\":2167:2496   */\n    tag_11:\n        /* \"#utility.yul\":2226:2232   */\n      0x00\n        /* \"#utility.yul\":2275:2277   */\n      0x20\n        /* \"#utility.yul\":2263:2272   */\n      dup3\n        /* \"#utility.yul\":2254:2261   */\n      dup5\n        /* \"#utility.yul\":2250:2273   */\n      sub\n        /* \"#utility.yul\":2246:2278   */\n      slt\n        /* \"#utility.yul\":2243:2362   */\n      iszero\n      tag_88\n      jumpi\n        /* \"#utility.yul\":2281:2360   */\n      tag_89\n      tag_28\n      jump\t// in\n    tag_89:\n        /* \"#utility.yul\":2243:2362   */\n    tag_88:\n        /* \"#utility.yul\":2401:2402   */\n      0x00\n        /* \"#utility.yul\":2426:2479   */\n      tag_90\n        /* \"#utility.yul\":2471:2478   */\n      dup5\n        /* \"#utility.yul\":2462:2468   */\n      dup3\n        /* \"#utility.yul\":2451:2460   */\n      dup6\n        /* \"#utility.yul\":2447:2469   */\n      add\n        /* \"#utility.yul\":2426:2479   */\n      tag_36\n      jump\t// in\n    tag_90:\n        /* \"#utility.yul\":2416:2479   */\n      swap2\n      pop\n        /* \"#utility.yul\":2372:2489   */\n      pop\n        /* \"#utility.yul\":2167:2496   */\n      swap3\n      swap2\n      pop\n      pop\n      jump\t// out\n        /* \"#utility.yul\":2502:2601   */\n    tag_37:\n        /* \"#utility.yul\":2554:2560   */\n      0x00\n        /* \"#utility.yul\":2588:2593   */\n      dup2\n        /* \"#utility.yul\":2582:2594   */\n      mload\n        /* \"#utility.yul\":2572:2594   */\n      swap1\n      pop\n        /* \"#utility.yul\":2502:2601   */\n      swap2\n      swap1\n      pop\n      jump\t// out\n        /* \"#utility.yul\":2607:2776   */\n    tag_38:\n        /* \"#utility.yul\":2691:2702   */\n      0x00\n        /* \"#utility.yul\":2725:2731   */\n      dup3\n        /* \"#utility.yul\":2720:2723   */\n      dup3\n        /* \"#utility.yul\":2713:2732   */\n      mstore\n        /* \"#utility.yul\":2765:2769   */\n      0x20\n        /* \"#utility.yul\":2760:2763   */\n      dup3\n        /* \"#utility.yul\":2756:2770   */\n      add\n        /* \"#utility.yul\":2741:2770   */\n      swap1\n      pop\n        /* \"#utility.yul\":2607:2776   */\n      swap3\n      swap2\n      pop\n      pop\n      jump\t// out\n        /* \"#utility.yul\":2782:3028   */\n    tag_39:\n        /* \"#utility.yul\":2863:2864   */\n      0x00\n        /* \"#utility.yul\":2873:2986   */\n    tag_94:\n        /* \"#utility.yul\":2887:2893   */\n      dup4\n        /* \"#utility.yul\":2884:2885   */\n      dup2\n        /* \"#utility.yul\":2881:2894   */\n      lt\n        /* \"#utility.yul\":2873:2986   */\n      iszero\n      tag_96\n      jumpi\n        /* \"#utility.yul\":2972:2973   */\n      dup1\n        /* \"#utility.yul\":2967:2970   */\n      dup3\n        /* \"#utility.yul\":2963:2974   */\n      add\n        /* \"#utility.yul\":2957:2975   */\n      mload\n        /* \"#utility.yul\":2953:2954   */\n      dup2\n        /* \"#utility.yul\":2948:2951   */\n      dup5\n        /* \"#utility.yul\":2944:2955   */\n      add\n        /* \"#utility.yul\":2937:2976   */\n      mstore\n        /* \"#utility.yul\":2909:2911   */\n      0x20\n        /* \"#utility.yul\":2906:2907   */\n      dup2\n        /* \"#utility.yul\":2902:2912   */\n      add\n        /* \"#utility.yul\":2897:2912   */\n      swap1\n      pop\n        /* \"#utility.yul\":2873:2986   */\n      jump(tag_94)\n    tag_96:\n        /* \"#utility.yul\":3020:3021   */\n      0x00\n        /* \"#utility.yul\":3011:3017   */\n      dup5\n        /* \"#utility.yul\":3006:3009   */\n      dup5\n        /* \"#utility.yul\":3002:3018   */\n      add\n        /* \"#utility.yul\":2995:3022   */\n      mstore\n        /* \"#utility.yul\":2844:3028   */\n      pop\n        /* \"#utility.yul\":2782:3028   */\n      pop\n      pop\n      pop\n      jump\t// out\n        /* \"#utility.yul\":3034:3136   */\n    tag_40:\n        /* \"#utility.yul\":3075:3081   */\n      0x00\n        /* \"#utility.yul\":3126:3128   */\n      0x1f\n        /* \"#utility.yul\":3122:3129   */\n      not\n        /* \"#utility.yul\":3117:3119   */\n      0x1f\n        /* \"#utility.yul\":3110:3115   */\n      dup4\n        /* \"#utility.yul\":3106:3120   */\n      add\n        /* \"#utility.yul\":3102:3130   */\n      and\n        /* \"#utility.yul\":3092:3130   */\n      swap1\n      pop\n        /* \"#utility.yul\":3034:3136   */\n      swap2\n      swap1\n      pop\n      jump\t// out\n        /* \"#utility.yul\":3142:3519   */\n    tag_41:\n        /* \"#utility.yul\":3230:3233   */\n      0x00\n        /* \"#utility.yul\":3258:3297   */\n      tag_99\n        /* \"#utility.yul\":3291:3296   */\n      dup3\n        /* \"#utility.yul\":3258:3297   */\n      tag_37\n      jump\t// in\n    tag_99:\n        /* \"#utility.yul\":3313:3384   */\n      tag_100\n        /* \"#utility.yul\":3377:3383   */\n      dup2\n        /* \"#utility.yul\":3372:3375   */\n      dup6\n        /* \"#utility.yul\":3313:3384   */\n      tag_38\n      jump\t// in\n    tag_100:\n        /* \"#utility.yul\":3306:3384   */\n      swap4\n      pop\n        /* \"#utility.yul\":3393:3458   */\n      tag_101\n        /* \"#utility.yul\":3451:3457   */\n      dup2\n        /* \"#utility.yul\":3446:3449   */\n      dup6\n        /* \"#utility.yul\":3439:3443   */\n      0x20\n        /* \"#utility.yul\":3432:3437   */\n      dup7\n        /* \"#utility.yul\":3428:3444   */\n      add\n        /* \"#utility.yul\":3393:3458   */\n      tag_39\n      jump\t// in\n    tag_101:\n        /* \"#utility.yul\":3483:3512   */\n      tag_102\n        /* \"#utility.yul\":3505:3511   */\n      dup2\n        /* \"#utility.yul\":3483:3512   */\n      tag_40\n      jump\t// in\n    tag_102:\n        /* \"#utility.yul\":3478:3481   */\n      dup5\n        /* \"#utility.yul\":3474:3513   */\n      add\n        /* \"#utility.yul\":3467:3513   */\n      swap2\n      pop\n        /* \"#utility.yul\":3234:3519   */\n      pop\n        /* \"#utility.yul\":3142:3519   */\n      swap3\n      swap2\n      pop\n      pop\n      jump\t// out\n        /* \"#utility.yul\":3525:3615   */\n    tag_42:\n        /* \"#utility.yul\":3559:3566   */\n      0x00\n        /* \"#utility.yul\":3602:3607   */\n      dup2\n        /* \"#utility.yul\":3595:3608   */\n      iszero\n        /* \"#utility.yul\":3588:3609   */\n      iszero\n        /* \"#utility.yul\":3577:3609   */\n      swap1\n      pop\n        /* \"#utility.yul\":3525:3615   */\n      swap2\n      swap1\n      pop\n      jump\t// out\n        /* \"#utility.yul\":3621:3730   */\n    tag_43:\n        /* \"#utility.yul\":3702:3723   */\n      tag_105\n        /* \"#utility.yul\":3717:3722   */\n      dup2\n        /* \"#utility.yul\":3702:3723   */\n      tag_42\n      jump\t// in\n    tag_105:\n        /* \"#utility.yul\":3697:3700   */\n      dup3\n        /* \"#utility.yul\":3690:3724   */\n      mstore\n        /* \"#utility.yul\":3621:3730   */\n      pop\n      pop\n      jump\t// out\n        /* \"#utility.yul\":3736:4147   */\n    tag_14:\n        /* \"#utility.yul\":3871:3875   */\n      0x00\n        /* \"#utility.yul\":3909:3911   */\n      0x40\n        /* \"#utility.yul\":3898:3907   */\n      dup3\n        /* \"#utility.yul\":3894:3912   */\n      add\n        /* \"#utility.yul\":3886:3912   */\n      swap1\n      pop\n        /* \"#utility.yul\":3958:3967   */\n      dup2\n        /* \"#utility.yul\":3952:3956   */\n      dup2\n        /* \"#utility.yul\":3948:3968   */\n      sub\n        /* \"#utility.yul\":3944:3945   */\n      0x00\n        /* \"#utility.yul\":3933:3942   */\n      dup4\n        /* \"#utility.yul\":3929:3946   */\n      add\n        /* \"#utility.yul\":3922:3969   */\n      mstore\n        /* \"#utility.yul\":3986:4064   */\n      tag_107\n        /* \"#utility.yul\":4059:4063   */\n      dup2\n        /* \"#utility.yul\":4050:4056   */\n      dup6\n        /* \"#utility.yul\":3986:4064   */\n      tag_41\n      jump\t// in\n    tag_107:\n        /* \"#utility.yul\":3978:4064   */\n      swap1\n      pop\n        /* \"#utility.yul\":4074:4140   */\n      tag_108\n        /* \"#utility.yul\":4136:4138   */\n      0x20\n        /* \"#utility.yul\":4125:4134   */\n      dup4\n        /* \"#utility.yul\":4121:4139   */\n      add\n        /* \"#utility.yul\":4112:4118   */\n      dup5\n        /* \"#utility.yul\":4074:4140   */\n      tag_43\n      jump\t// in\n    tag_108:\n        /* \"#utility.yul\":3736:4147   */\n      swap4\n      swap3\n      pop\n      pop\n      pop\n      jump\t// out\n        /* \"#utility.yul\":4153:4333   */\n    tag_44:\n        /* \"#utility.yul\":4201:4278   */\n      0x4e487b7100000000000000000000000000000000000000000000000000000000\n        /* \"#utility.yul\":4198:4199   */\n      0x00\n        /* \"#utility.yul\":4191:4279   */\n      mstore\n        /* \"#utility.yul\":4298:4302   */\n      0x41\n        /* \"#utility.yul\":4295:4296   */\n      0x04\n        /* \"#utility.yul\":4288:4303   */\n      mstore\n        /* \"#utility.yul\":4322:4326   */\n      0x24\n        /* \"#utility.yul\":4319:4320   */\n      0x00\n        /* \"#utility.yul\":4312:4327   */\n      revert\n        /* \"#utility.yul\":4339:4519   */\n    tag_45:\n        /* \"#utility.yul\":4387:4464   */\n      0x4e487b7100000000000000000000000000000000000000000000000000000000\n        /* \"#utility.yul\":4384:4385   */\n      0x00\n        /* \"#utility.yul\":4377:4465   */\n      mstore\n        /* \"#utility.yul\":4484:4488   */\n      0x22\n        /* \"#utility.yul\":4481:4482   */\n      0x04\n        /* \"#utility.yul\":4474:4489   */\n      mstore\n        /* \"#utility.yul\":4508:4512   */\n      0x24\n        /* \"#utility.yul\":4505:4506   */\n      0x00\n        /* \"#utility.yul\":4498:4513   */\n      revert\n        /* \"#utility.yul\":4525:4845   */\n    tag_22:\n        /* \"#utility.yul\":4569:4575   */\n      0x00\n        /* \"#utility.yul\":4606:4607   */\n      0x02\n        /* \"#utility.yul\":4600:4604   */\n      dup3\n        /* \"#utility.yul\":4596:4608   */\n      div\n        /* \"#utility.yul\":4586:4608   */\n      swap1\n      pop\n        /* \"#utility.yul\":4653:4654   */\n      0x01\n        /* \"#utility.yul\":4647:4651   */\n      dup3\n        /* \"#utility.yul\":4643:4655   */\n      and\n        /* \"#utility.yul\":4674:4692   */\n      dup1\n        /* \"#utility.yul\":4664:4745   */\n      tag_112\n      jumpi\n        /* \"#utility.yul\":4730:4734   */\n      0x7f\n        /* \"#utility.yul\":4722:4728   */\n      dup3\n        /* \"#utility.yul\":4718:4735   */\n      and\n        /* \"#utility.yul\":4708:4735   */\n      swap2\n      pop\n        /* \"#utility.yul\":4664:4745   */\n    tag_112:\n        /* \"#utility.yul\":4792:4794   */\n      0x20\n        /* \"#utility.yul\":4784:4790   */\n      dup3\n        /* \"#utility.yul\":4781:4795   */\n      lt\n        /* \"#utility.yul\":4761:4779   */\n      dup2\n        /* \"#utility.yul\":4758:4796   */\n      sub\n        /* \"#utility.yul\":4755:4839   */\n      tag_113\n      jumpi\n        /* \"#utility.yul\":4811:4829   */\n      tag_114\n      tag_45\n      jump\t// in\n    tag_114:\n        /* \"#utility.yul\":4755:4839   */\n    tag_113:\n        /* \"#utility.yul\":4576:4845   */\n      pop\n        /* \"#utility.yul\":4525:4845   */\n      swap2\n      swap1\n      pop\n      jump\t// out\n        /* \"#utility.yul\":4851:4992   */\n    tag_46:\n        /* \"#utility.yul\":4900:4904   */\n      0x00\n        /* \"#utility.yul\":4923:4926   */\n      dup2\n        /* \"#utility.yul\":4915:4926   */\n      swap1\n      pop\n        /* \"#utility.yul\":4946:4949   */\n      dup2\n        /* \"#utility.yul\":4943:4944   */\n      0x00\n        /* \"#utility.yul\":4936:4950   */\n      mstore\n        /* \"#utility.yul\":4980:4984   */\n      0x20\n        /* \"#utility.yul\":4977:4978   */\n      0x00\n        /* \"#utility.yul\":4967:4985   */\n      keccak256\n        /* \"#utility.yul\":4959:4985   */\n      swap1\n      pop\n        /* \"#utility.yul\":4851:4992   */\n      swap2\n      swap1\n      pop\n      jump\t// out\n        /* \"#utility.yul\":4998:5091   */\n    tag_47:\n        /* \"#utility.yul\":5035:5041   */\n      0x00\n        /* \"#utility.yul\":5082:5084   */\n      0x20\n        /* \"#utility.yul\":5077:5079   */\n      0x1f\n        /* \"#utility.yul\":5070:5075   */\n      dup4\n        /* \"#utility.yul\":5066:5080   */\n      add\n        /* \"#utility.yul\":5062:5085   */\n      div\n        /* \"#utility.yul\":5052:5085   */\n      swap1\n      pop\n        /* \"#utility.yul\":4998:5091   */\n      swap2\n      swap1\n      pop\n      jump\t// out\n        /* \"#utility.yul\":5097:5204   */\n    tag_48:\n        /* \"#utility.yul\":5141:5149   */\n      0x00\n        /* \"#utility.yul\":5191:5196   */\n      dup3\n        /* \"#utility.yul\":5185:5189   */\n      dup3\n        /* \"#utility.yul\":5181:5197   */\n      shl\n        /* \"#utility.yul\":5160:5197   */\n      swap1\n      pop\n        /* \"#utility.yul\":5097:5204   */\n      swap3\n      swap2\n      pop\n      pop\n      jump\t// out\n        /* \"#utility.yul\":5210:5603   */\n    tag_49:\n        /* \"#utility.yul\":5279:5285   */\n      0x00\n        /* \"#utility.yul\":5329:5330   */\n      0x08\n        /* \"#utility.yul\":5317:5327   */\n      dup4\n        /* \"#utility.yul\":5313:5331   */\n      mul\n        /* \"#utility.yul\":5352:5449   */\n      tag_119\n        /* \"#utility.yul\":5382:5448   */\n      0xffffffffffffffffffffffffffffffffffffffffffffffffffffffffffffffff\n        /* \"#utility.yul\":5371:5380   */\n      dup3\n        /* \"#utility.yul\":5352:5449   */\n      tag_48\n      jump\t// in\n    tag_119:\n        /* \"#utility.yul\":5470:5509   */\n      tag_120\n        /* \"#utility.yul\":5500:5508   */\n      dup7\n        /* \"#utility.yul\":5489:5498   */\n      dup4\n        /* \"#utility.yul\":5470:5509   */\n      tag_48\n      jump\t// in\n    tag_120:\n        /* \"#utility.yul\":5458:5509   */\n      swap6\n      pop\n        /* \"#utility.yul\":5542:5546   */\n      dup1\n        /* \"#utility.yul\":5538:5547   */\n      not\n        /* \"#utility.yul\":5531:5536   */\n      dup5\n        /* \"#utility.yul\":5527:5548   */\n      and\n        /* \"#utility.yul\":5518:5548   */\n      swap4\n      pop\n        /* \"#utility.yul\":5591:5595   */\n      dup1\n        /* \"#utility.yul\":5581:5589   */\n      dup7\n        /* \"#utility.yul\":5577:5596   */\n      and\n        /* \"#utility.yul\":5570:5575   */\n      dup5\n        /* \"#utility.yul\":5567:5597   */\n      or\n        /* \"#utility.yul\":5557:5597   */\n      swap3\n      pop\n        /* \"#utility.yul\":5286:5603   */\n      pop\n      pop\n        /* \"#utility.yul\":5210:5603   */\n      swap4\n      swap3\n      pop\n      pop\n      pop\n      jump\t// out\n        /* \"#utility.yul\":5609:5669   */\n    tag_50:\n        /* \"#utility.yul\":5637:5640   */\n      0x00\n        /* \"#utility.yul\":5658:5663   */\n      dup2\n        /* \"#utility.yul\":5651:5663   */\n      swap1\n      pop\n        /* \"#utility.yul\":5609:5669   */\n      swap2\n      swap1\n      pop\n      jump\t// out\n        /* \"#utility.yul\":5675:5817   */\n    tag_51:\n        /* \"#utility.yul\":5725:5734   */\n      0x00\n        /* \"#utility.yul\":5758:5811   */\n      tag_123\n        /* \"#utility.yul\":5776:5810   */\n      tag_124\n        /* \"#utility.yul\":5785:5809   */\n      tag_125\n        /* \"#utility.yul\":5803:5808   */\n      dup5\n        /* \"#utility.yul\":5785:5809   */\n      tag_34\n      jump\t// in\n    tag_125:\n        /* \"#utility.yul\":5776:5810   */\n      tag_50\n      jump\t// in\n    tag_124:\n        /* \"#utility.yul\":5758:5811   */\n      tag_34\n      jump\t// in\n    tag_123:\n        /* \"#utility.yul\":5745:5811   */\n      swap1\n      pop\n        /* \"#utility.yul\":5675:5817   */\n      swap2\n      swap1\n      pop\n      jump\t// out\n        /* \"#utility.yul\":5823:5898   */\n    tag_52:\n        /* \"#utility.yul\":5866:5869   */\n      0x00\n        /* \"#utility.yul\":5887:5892   */\n      dup2\n        /* \"#utility.yul\":5880:5892   */\n      swap1\n      pop\n        /* \"#utility.yul\":5823:5898   */\n      swap2\n      swap1\n      pop\n      jump\t// out\n        /* \"#utility.yul\":5904:6173   */\n    tag_53:\n        /* \"#utility.yul\":6014:6053   */\n      tag_128\n        /* \"#utility.yul\":6045:6052   */\n      dup4\n        /* \"#utility.yul\":6014:6053   */\n      tag_51\n      jump\t// in\n    tag_128:\n        /* \"#utility.yul\":6075:6166   */\n      tag_129\n        /* \"#utility.yul\":6124:6165   */\n      tag_130\n        /* \"#utility.yul\":6148:6164   */\n      dup3\n        /* \"#utility.yul\":6124:6165   */\n      tag_52\n      jump\t// in\n    tag_130:\n        /* \"#utility.yul\":6116:6122   */\n      dup5\n        /* \"#utility.yul\":6109:6113   */\n      dup5\n        /* \"#utility.yul\":6103:6114   */\n      sload\n        /* \"#utility.yul\":6075:6166   */\n      tag_49\n      jump\t// in\n    tag_129:\n        /* \"#utility.yul\":6069:6073   */\n      dup3\n        /* \"#utility.yul\":6062:6167   */\n      sstore\n        /* \"#utility.yul\":5980:6173   */\n      pop\n        /* \"#utility.yul\":5904:6173   */\n      pop\n      pop\n      pop\n      jump\t// out\n        /* \"#utility.yul\":6179:6252   */\n    tag_54:\n        /* \"#utility.yul\":6224:6227   */\n      0x00\n        /* \"#utility.yul\":6179:6252   */\n      swap1\n      jump\t// out\n        /* \"#utility.yul\":6258:6447   */\n    tag_55:\n        /* \"#utility.yul\":6335:6367   */\n      tag_133\n      tag_54\n      jump\t// in\n    tag_133:\n        /* \"#utility.yul\":6376:6441   */\n      tag_134\n        /* \"#utility.yul\":6434:6440   */\n      dup2\n        /* \"#utility.yul\":6426:6432   */\n      dup5\n        /* \"#utility.yul\":6420:6424   */\n      dup5\n        /* \"#utility.yul\":6376:6441   */\n      tag_53\n      jump\t// in\n    tag_134:\n        /* \"#utility.yul\":6311:6447   */\n      pop\n        /* \"#utility.yul\":6258:6447   */\n      pop\n      pop\n      jump\t// out\n        /* \"#utility.yul\":6453:6639   */\n    tag_56:\n        /* \"#utility.yul\":6513:6633   */\n    tag_136:\n        /* \"#utility.yul\":6530:6533   */\n      dup2\n        /* \"#utility.yul\":6523:6528   */\n      dup2\n        /* \"#utility.yul\":6520:6534   */\n      lt\n        /* \"#utility.yul\":6513:6633   */\n      iszero\n      tag_138\n      jumpi\n        /* \"#utility.yul\":6584:6623   */\n      tag_139\n        /* \"#utility.yul\":6621:6622   */\n      0x00\n        /* \"#utility.yul\":6614:6619   */\n      dup3\n        /* \"#utility.yul\":6584:6623   */\n      tag_55\n      jump\t// in\n    tag_139:\n        /* \"#utility.yul\":6557:6558   */\n      0x01\n        /* \"#utility.yul\":6550:6555   */\n      dup2\n        /* \"#utility.yul\":6546:6559   */\n      add\n        /* \"#utility.yul\":6537:6559   */\n      swap1\n      pop\n        /* \"#utility.yul\":6513:6633   */\n      jump(tag_136)\n    tag_138:\n        /* \"#utility.yul\":6453:6639   */\n      pop\n      pop\n      jump\t// out\n        /* \"#utility.yul\":6645:7188   */\n    tag_57:\n        /* \"#utility.yul\":6746:6748   */\n      0x1f\n        /* \"#utility.yul\":6741:6744   */\n      dup3\n        /* \"#utility.yul\":6738:6749   */\n      gt\n        /* \"#utility.yul\":6735:7181   */\n      iszero\n      tag_141\n      jumpi\n        /* \"#utility.yul\":6780:6818   */\n      tag_142\n        /* \"#utility.yul\":6812:6817   */\n      dup2\n        /* \"#utility.yul\":6780:6818   */\n      tag_46\n      jump\t// in\n    tag_142:\n        /* \"#utility.yul\":6864:6893   */\n      tag_143\n        /* \"#utility.yul\":6882:6892   */\n      dup5\n        /* \"#utility.yul\":6864:6893   */\n      tag_47\n      jump\t// in\n    tag_143:\n        /* \"#utility.yul\":6854:6862   */\n      dup2\n        /* \"#utility.yul\":6850:6894   */\n      add\n        /* \"#utility.yul\":7047:7049   */\n      0x20\n        /* \"#utility.yul\":7035:7045   */\n      dup6\n        /* \"#utility.yul\":7032:7050   */\n      lt\n        /* \"#utility.yul\":7029:7078   */\n      iszero\n      tag_144\n      jumpi\n        /* \"#utility.yul\":7068:7076   */\n      dup2\n        /* \"#utility.yul\":7053:7076   */\n      swap1\n      pop\n        /* \"#utility.yul\":7029:7078   */\n    tag_144:\n        /* \"#utility.yul\":7091:7171   */\n      tag_145\n        /* \"#utility.yul\":7147:7169   */\n      tag_146\n        /* \"#utility.yul\":7165:7168   */\n      dup6\n        /* \"#utility.yul\":7147:7169   */\n      tag_47\n      jump\t// in\n    tag_146:\n        /* \"#utility.yul\":7137:7145   */\n      dup4\n        /* \"#utility.yul\":7133:7170   */\n      add\n        /* \"#utility.yul\":7120:7131   */\n      dup3\n        /* \"#utility.yul\":7091:7171   */\n      tag_56\n      jump\t// in\n    tag_145:\n        /* \"#utility.yul\":6750:7181   */\n      pop\n      pop\n        /* \"#utility.yul\":6735:7181   */\n    tag_141:\n        /* \"#utility.yul\":6645:7188   */\n      pop\n      pop\n      pop\n      jump\t// out\n        /* \"#utility.yul\":7194:7311   */\n    tag_58:\n        /* \"#utility.yul\":7248:7256   */\n      0x00\n        /* \"#utility.yul\":7298:7303   */\n      dup3\n        /* \"#utility.yul\":7292:7296   */\n      dup3\n        /* \"#utility.yul\":7288:7304   */\n      shr\n        /* \"#utility.yul\":7267:7304   */\n      swap1\n      pop\n        /* \"#utility.yul\":7194:7311   */\n      swap3\n      swap2\n      pop\n      pop\n      jump\t// out\n        /* \"#utility.yul\":7317:7486   */\n    tag_59:\n        /* \"#utility.yul\":7361:7367   */\n      0x00\n        /* \"#utility.yul\":7394:7445   */\n      tag_149\n        /* \"#utility.yul\":7442:7443   */\n      0x00\n        /* \"#utility.yul\":7438:7444   */\n      not\n        /* \"#utility.yul\":7430:7435   */\n      dup5\n        /* \"#utility.yul\":7427:7428   */\n      0x08\n        /* \"#utility.yul\":7423:7436   */\n      mul\n        /* \"#utility.yul\":7394:7445   */\n      tag_58\n      jump\t// in\n    tag_149:\n        /* \"#utility.yul\":7390:7446   */\n      not\n        /* \"#utility.yul\":7475:7479   */\n      dup1\n        /* \"#utility.yul\":7469:7473   */\n      dup4\n        /* \"#utility.yul\":7465:7480   */\n      and\n        /* \"#utility.yul\":7455:7480   */\n      swap2\n      pop\n        /* \"#utility.yul\":7368:7486   */\n      pop\n        /* \"#utility.yul\":7317:7486   */\n      swap3\n      swap2\n      pop\n      pop\n      jump\t// out\n        /* \"#utility.yul\":7491:7786   */\n    tag_60:\n        /* \"#utility.yul\":7567:7571   */\n      0x00\n        /* \"#utility.yul\":7713:7742   */\n      tag_151\n        /* \"#utility.yul\":7738:7741   */\n      dup4\n        /* \"#utility.yul\":7732:7736   */\n      dup4\n        /* \"#utility.yul\":7713:7742   */\n      tag_59\n      jump\t// in\n    tag_151:\n        /* \"#utility.yul\":7705:7742   */\n      swap2\n      pop\n        /* \"#utility.yul\":7775:7778   */\n      dup3\n        /* \"#utility.yul\":7772:7773   */\n      0x02\n        /* \"#utility.yul\":7768:7779   */\n      mul\n        /* \"#utility.yul\":7762:7766   */\n      dup3\n        /* \"#utility.yul\":7759:7780   */\n      or\n        /* \"#utility.yul\":7751:7780   */\n      swap1\n      pop\n        /* \"#utility.yul\":7491:7786   */\n      swap3\n      swap2\n      pop\n      pop\n      jump\t// out\n        /* \"#utility.yul\":7791:9186   */\n    tag_18:\n        /* \"#utility.yul\":7908:7945   */\n      tag_153\n        /* \"#utility.yul\":7941:7944   */\n      dup3\n        /* \"#utility.yul\":7908:7945   */\n      tag_37\n      jump\t// in\n    tag_153:\n        /* \"#utility.yul\":8010:8028   */\n      0xffffffffffffffff\n        /* \"#utility.yul\":8002:8008   */\n      dup2\n        /* \"#utility.yul\":7999:8029   */\n      gt\n        /* \"#utility.yul\":7996:8052   */\n      iszero\n      tag_154\n      jumpi\n        /* \"#utility.yul\":8032:8050   */\n      tag_155\n      tag_44\n      jump\t// in\n    tag_155:\n        /* \"#utility.yul\":7996:8052   */\n    tag_154:\n        /* \"#utility.yul\":8076:8114   */\n      tag_156\n        /* \"#utility.yul\":8108:8112   */\n      dup3\n        /* \"#utility.yul\":8102:8113   */\n      sload\n        /* \"#utility.yul\":8076:8114   */\n      tag_22\n      jump\t// in\n    tag_156:\n        /* \"#utility.yul\":8161:8228   */\n      tag_157\n        /* \"#utility.yul\":8221:8227   */\n      dup3\n        /* \"#utility.yul\":8213:8219   */\n      dup3\n        /* \"#utility.yul\":8207:8211   */\n      dup6\n        /* \"#utility.yul\":8161:8228   */\n      tag_57\n      jump\t// in\n    tag_157:\n        /* \"#utility.yul\":8255:8256   */\n      0x00\n        /* \"#utility.yul\":8279:8283   */\n      0x20\n        /* \"#utility.yul\":8266:8283   */\n      swap1\n      pop\n        /* \"#utility.yul\":8311:8313   */\n      0x1f\n        /* \"#utility.yul\":8303:8309   */\n      dup4\n        /* \"#utility.yul\":8300:8314   */\n      gt\n        /* \"#utility.yul\":8328:8329   */\n      0x01\n        /* \"#utility.yul\":8323:8941   */\n      dup2\n      eq\n      tag_159\n      jumpi\n        /* \"#utility.yul\":8985:8986   */\n      0x00\n        /* \"#utility.yul\":9002:9008   */\n      dup5\n        /* \"#utility.yul\":8999:9076   */\n      iszero\n      tag_160\n      jumpi\n        /* \"#utility.yul\":9051:9060   */\n      dup3\n        /* \"#utility.yul\":9046:9049   */\n      dup8\n        /* \"#utility.yul\":9042:9061   */\n      add\n        /* \"#utility.yul\":9036:9062   */\n      mload\n        /* \"#utility.yul\":9027:9062   */\n      swap1\n      pop\n        /* \"#utility.yul\":8999:9076   */\n    tag_160:\n        /* \"#utility.yul\":9102:9169   */\n      tag_161\n        /* \"#utility.yul\":9162:9168   */\n      dup6\n        /* \"#utility.yul\":9155:9160   */\n      dup3\n        /* \"#utility.yul\":9102:9169   */\n      tag_60\n      jump\t// in\n    tag_161:\n        /* \"#utility.yul\":9096:9100   */\n      dup7\n        /* \"#utility.yul\":9089:9170   */\n      sstore\n        /* \"#utility.yul\":8958:9180   */\n      pop\n        /* \"#utility.yul\":8293:9180   */\n      jump(tag_158)\n        /* \"#utility.yul\":8323:8941   */\n    tag_159:\n        /* \"#utility.yul\":8375:8379   */\n      0x1f\n        /* \"#utility.yul\":8371:8380   */\n      not\n        /* \"#utility.yul\":8363:8369   */\n      dup5\n        /* \"#utility.yul\":8359:8381   */\n      and\n        /* \"#utility.yul\":8409:8446   */\n      tag_162\n        /* \"#utility.yul\":8441:8445   */\n      dup7\n        /* \"#utility.yul\":8409:8446   */\n      tag_46\n      jump\t// in\n    tag_162:\n        /* \"#utility.yul\":8468:8469   */\n      0x00\n        /* \"#utility.yul\":8482:8690   */\n    tag_163:\n        /* \"#utility.yul\":8496:8503   */\n      dup3\n        /* \"#utility.yul\":8493:8494   */\n      dup2\n        /* \"#utility.yul\":8490:8504   */\n      lt\n        /* \"#utility.yul\":8482:8690   */\n      iszero\n      tag_165\n      jumpi\n        /* \"#utility.yul\":8575:8584   */\n      dup5\n        /* \"#utility.yul\":8570:8573   */\n      dup10\n        /* \"#utility.yul\":8566:8585   */\n      add\n        /* \"#utility.yul\":8560:8586   */\n      mload\n        /* \"#utility.yul\":8552:8558   */\n      dup3\n        /* \"#utility.yul\":8545:8587   */\n      sstore\n        /* \"#utility.yul\":8626:8627   */\n      0x01\n        /* \"#utility.yul\":8618:8624   */\n      dup3\n        /* \"#utility.yul\":8614:8628   */\n      add\n        /* \"#utility.yul\":8604:8628   */\n      swap2\n      pop\n        /* \"#utility.yul\":8673:8675   */\n      0x20\n        /* \"#utility.yul\":8662:8671   */\n      dup6\n        /* \"#utility.yul\":8658:8676   */\n      add\n        /* \"#utility.yul\":8645:8676   */\n      swap5\n      pop\n        /* \"#utility.yul\":8519:8523   */\n      0x20\n        /* \"#utility.yul\":8516:8517   */\n      dup2\n        /* \"#utility.yul\":8512:8524   */\n      add\n        /* \"#utility.yul\":8507:8524   */\n      swap1\n      pop\n        /* \"#utility.yul\":8482:8690   */\n      jump(tag_163)\n    tag_165:\n        /* \"#utility.yul\":8718:8724   */\n      dup7\n        /* \"#utility.yul\":8709:8716   */\n      dup4\n        /* \"#utility.yul\":8706:8725   */\n      lt\n        /* \"#utility.yul\":8703:8882   */\n      iszero\n      tag_166\n      jumpi\n        /* \"#utility.yul\":8776:8785   */\n      dup5\n        /* \"#utility.yul\":8771:8774   */\n      dup10\n        /* \"#utility.yul\":8767:8786   */\n      add\n        /* \"#utility.yul\":8761:8787   */\n      mload\n        /* \"#utility.yul\":8819:8867   */\n      tag_167\n        /* \"#utility.yul\":8861:8865   */\n      0x1f\n        /* \"#utility.yul\":8853:8859   */\n      dup10\n        /* \"#utility.yul\":8849:8866   */\n      and\n        /* \"#utility.yul\":8838:8847   */\n      dup3\n        /* \"#utility.yul\":8819:8867   */\n      tag_59\n      jump\t// in\n    tag_167:\n        /* \"#utility.yul\":8811:8817   */\n      dup4\n        /* \"#utility.yul\":8804:8868   */\n      sstore\n        /* \"#utility.yul\":8726:8882   */\n      pop\n        /* \"#utility.yul\":8703:8882   */\n    tag_166:\n        /* \"#utility.yul\":8928:8929   */\n      0x01\n        /* \"#utility.yul\":8924:8925   */\n      0x02\n        /* \"#utility.yul\":8916:8922   */\n      dup9\n        /* \"#utility.yul\":8912:8926   */\n      mul\n        /* \"#utility.yul\":8908:8930   */\n      add\n        /* \"#utility.yul\":8902:8906   */\n      dup9\n        /* \"#utility.yul\":8895:8931   */\n      sstore\n        /* \"#utility.yul\":8330:8941   */\n      pop\n      pop\n      pop\n        /* \"#utility.yul\":8293:9180   */\n    tag_158:\n      pop\n        /* \"#utility.yul\":7883:9186   */\n      pop\n      pop\n      pop\n        /* \"#utility.yul\":7791:9186   */\n      pop\n      pop\n      jump\t// out\n\n    auxdata: 0xa2646970667358221220d2d780d5ad04429a7db4068cfe1a1c65f025a6ec33d7fe65dfd3a7ed53112ebf64736f6c63430008110033\n}\n",
				"bytecode": {
					"linkReferences": {},
					"object": "608060405234801561001057600080fd5b50610751806100206000396000f3fe608060405234801561001057600080fd5b50600436106100365760003560e01c8063b6a46b3b1461003b578063bc8bc2b414610057575b600080fd5b61005560048036038101906100509190610283565b610088565b005b610071600480360381019061006c9190610306565b61014b565b60405161007f9291906103de565b60405180910390f35b6000604051806040016040528084848080601f016020809104026020016040519081016040528093929190818152602001838380828437600081840152601f19601f82011690508083019250505050505050815260200160001515815250908060018154018082558091505060019003906000526020600020906002020160009091909190915060008201518160000190816101249190610649565b5060208201518160010160006101000a81548160ff02191690831515021790555050505050565b6000818154811061015b57600080fd5b906000526020600020906002020160009150905080600001805461017e9061046c565b80601f01602080910402602001604051908101604052809291908181526020018280546101aa9061046c565b80156101f75780601f106101cc576101008083540402835291602001916101f7565b820191906000526020600020905b8154815290600101906020018083116101da57829003601f168201915b5050505050908060010160009054906101000a900460ff16905082565b600080fd5b600080fd5b600080fd5b600080fd5b600080fd5b60008083601f8401126102435761024261021e565b5b8235905067ffffffffffffffff8111156102605761025f610223565b5b60208301915083600182028301111561027c5761027b610228565b5b9250929050565b6000806020838503121561029a57610299610214565b5b600083013567ffffffffffffffff8111156102b8576102b7610219565b5b6102c48582860161022d565b92509250509250929050565b6000819050919050565b6102e3816102d0565b81146102ee57600080fd5b50565b600081359050610300816102da565b92915050565b60006020828403121561031c5761031b610214565b5b600061032a848285016102f1565b91505092915050565b600081519050919050565b600082825260208201905092915050565b60005b8381101561036d578082015181840152602081019050610352565b60008484015250505050565b6000601f19601f8301169050919050565b600061039582610333565b61039f818561033e565b93506103af81856020860161034f565b6103b881610379565b840191505092915050565b60008115159050919050565b6103d8816103c3565b82525050565b600060408201905081810360008301526103f8818561038a565b905061040760208301846103cf565b9392505050565b7f4e487b7100000000000000000000000000000000000000000000000000000000600052604160045260246000fd5b7f4e487b7100000000000000000000000000000000000000000000000000000000600052602260045260246000fd5b6000600282049050600182168061048457607f821691505b6020821081036104975761049661043d565b5b50919050565b60008190508160005260206000209050919050565b60006020601f8301049050919050565b600082821b905092915050565b6000600883026104ff7fffffffffffffffffffffffffffffffffffffffffffffffffffffffffffffffff826104c2565b61050986836104c2565b95508019841693508086168417925050509392505050565b6000819050919050565b600061054661054161053c846102d0565b610521565b6102d0565b9050919050565b6000819050919050565b6105608361052b565b61057461056c8261054d565b8484546104cf565b825550505050565b600090565b61058961057c565b610594818484610557565b505050565b5b818110156105b8576105ad600082610581565b60018101905061059a565b5050565b601f8211156105fd576105ce8161049d565b6105d7846104b2565b810160208510156105e6578190505b6105fa6105f2856104b2565b830182610599565b50505b505050565b600082821c905092915050565b600061062060001984600802610602565b1980831691505092915050565b6000610639838361060f565b9150826002028217905092915050565b61065282610333565b67ffffffffffffffff81111561066b5761066a61040e565b5b610675825461046c565b6106808282856105bc565b600060209050601f8311600181146106b357600084156106a1578287015190505b6106ab858261062d565b865550610713565b601f1984166106c18661049d565b60005b828110156106e9578489015182556001820191506020850194506020810190506106c4565b868310156107065784890151610702601f89168261060f565b8355505b6001600288020188555050505b50505050505056fea2646970667358221220d2d780d5ad04429a7db4068cfe1a1c65f025a6ec33d7fe65dfd3a7ed53112ebf64736f6c63430008110033",
					"opcodes": "PUSH1 0x80 PUSH1 0x40 MSTORE CALLVALUE DUP1 ISZERO PUSH2 0x10 JUMPI PUSH1 0x0 DUP1 REVERT JUMPDEST POP PUSH2 0x751 DUP1 PUSH2 0x20 PUSH1 0x0 CODECOPY PUSH1 0x0 RETURN INVALID PUSH1 0x80 PUSH1 0x40 MSTORE CALLVALUE DUP1 ISZERO PUSH2 0x10 JUMPI PUSH1 0x0 DUP1 REVERT JUMPDEST POP PUSH1 0x4 CALLDATASIZE LT PUSH2 0x36 JUMPI PUSH1 0x0 CALLDATALOAD PUSH1 0xE0 SHR DUP1 PUSH4 0xB6A46B3B EQ PUSH2 0x3B JUMPI DUP1 PUSH4 0xBC8BC2B4 EQ PUSH2 0x57 JUMPI JUMPDEST PUSH1 0x0 DUP1 REVERT JUMPDEST PUSH2 0x55 PUSH1 0x4 DUP1 CALLDATASIZE SUB DUP2 ADD SWAP1 PUSH2 0x50 SWAP2 SWAP1 PUSH2 0x283 JUMP JUMPDEST PUSH2 0x88 JUMP JUMPDEST STOP JUMPDEST PUSH2 0x71 PUSH1 0x4 DUP1 CALLDATASIZE SUB DUP2 ADD SWAP1 PUSH2 0x6C SWAP2 SWAP1 PUSH2 0x306 JUMP JUMPDEST PUSH2 0x14B JUMP JUMPDEST PUSH1 0x40 MLOAD PUSH2 0x7F SWAP3 SWAP2 SWAP1 PUSH2 0x3DE JUMP JUMPDEST PUSH1 0x40 MLOAD DUP1 SWAP2 SUB SWAP1 RETURN JUMPDEST PUSH1 0x0 PUSH1 0x40 MLOAD DUP1 PUSH1 0x40 ADD PUSH1 0x40 MSTORE DUP1 DUP5 DUP5 DUP1 DUP1 PUSH1 0x1F ADD PUSH1 0x20 DUP1 SWAP2 DIV MUL PUSH1 0x20 ADD PUSH1 0x40 MLOAD SWAP1 DUP2 ADD PUSH1 0x40 MSTORE DUP1 SWAP4 SWAP3 SWAP2 SWAP1 DUP2 DUP2 MSTORE PUSH1 0x20 ADD DUP4 DUP4 DUP1 DUP3 DUP5 CALLDATACOPY PUSH1 0x0 DUP2 DUP5 ADD MSTORE PUSH1 0x1F NOT PUSH1 0x1F DUP3 ADD AND SWAP1 POP DUP1 DUP4 ADD SWAP3 POP POP POP POP POP POP POP DUP2 MSTORE PUSH1 0x20 ADD PUSH1 0x0 ISZERO ISZERO DUP2 MSTORE POP SWAP1 DUP1 PUSH1 0x1 DUP2 SLOAD ADD DUP1 DUP3 SSTORE DUP1 SWAP2 POP POP PUSH1 0x1 SWAP1 SUB SWAP1 PUSH1 0x0 MSTORE PUSH1 0x20 PUSH1 0x0 KECCAK256 SWAP1 PUSH1 0x2 MUL ADD PUSH1 0x0 SWAP1 SWAP2 SWAP1 SWAP2 SWAP1 SWAP2 POP PUSH1 0x0 DUP3 ADD MLOAD DUP2 PUSH1 0x0 ADD SWAP1 DUP2 PUSH2 0x124 SWAP2 SWAP1 PUSH2 0x649 JUMP JUMPDEST POP PUSH1 0x20 DUP3 ADD MLOAD DUP2 PUSH1 0x1 ADD PUSH1 0x0 PUSH2 0x100 EXP DUP2 SLOAD DUP2 PUSH1 0xFF MUL NOT AND SWAP1 DUP4 ISZERO ISZERO MUL OR SWAP1 SSTORE POP POP POP POP POP JUMP JUMPDEST PUSH1 0x0 DUP2 DUP2 SLOAD DUP2 LT PUSH2 0x15B JUMPI PUSH1 0x0 DUP1 REVERT JUMPDEST SWAP1 PUSH1 0x0 MSTORE PUSH1 0x20 PUSH1 0x0 KECCAK256 SWAP1 PUSH1 0x2 MUL ADD PUSH1 0x0 SWAP2 POP SWAP1 POP DUP1 PUSH1 0x0 ADD DUP1 SLOAD PUSH2 0x17E SWAP1 PUSH2 0x46C JUMP JUMPDEST DUP1 PUSH1 0x1F ADD PUSH1 0x20 DUP1 SWAP2 DIV MUL PUSH1 0x20 ADD PUSH1 0x40 MLOAD SWAP1 DUP2 ADD PUSH1 0x40 MSTORE DUP1 SWAP3 SWAP2 SWAP1 DUP2 DUP2 MSTORE PUSH1 0x20 ADD DUP3 DUP1 SLOAD PUSH2 0x1AA SWAP1 PUSH2 0x46C JUMP JUMPDEST DUP1 ISZERO PUSH2 0x1F7 JUMPI DUP1 PUSH1 0x1F LT PUSH2 0x1CC JUMPI PUSH2 0x100 DUP1 DUP4 SLOAD DIV MUL DUP4 MSTORE SWAP2 PUSH1 0x20 ADD SWAP2 PUSH2 0x1F7 JUMP JUMPDEST DUP3 ADD SWAP2 SWAP1 PUSH1 0x0 MSTORE PUSH1 0x20 PUSH1 0x0 KECCAK256 SWAP1 JUMPDEST DUP2 SLOAD DUP2 MSTORE SWAP1 PUSH1 0x1 ADD SWAP1 PUSH1 0x20 ADD DUP1 DUP4 GT PUSH2 0x1DA JUMPI DUP3 SWAP1 SUB PUSH1 0x1F AND DUP3 ADD SWAP2 JUMPDEST POP POP POP POP POP SWAP1 DUP1 PUSH1 0x1 ADD PUSH1 0x0 SWAP1 SLOAD SWAP1 PUSH2 0x100 EXP SWAP1 DIV PUSH1 0xFF AND SWAP1 POP DUP3 JUMP JUMPDEST PUSH1 0x0 DUP1 REVERT JUMPDEST PUSH1 0x0 DUP1 REVERT JUMPDEST PUSH1 0x0 DUP1 REVERT JUMPDEST PUSH1 0x0 DUP1 REVERT JUMPDEST PUSH1 0x0 DUP1 REVERT JUMPDEST PUSH1 0x0 DUP1 DUP4 PUSH1 0x1F DUP5 ADD SLT PUSH2 0x243 JUMPI PUSH2 0x242 PUSH2 0x21E JUMP JUMPDEST JUMPDEST DUP3 CALLDATALOAD SWAP1 POP PUSH8 0xFFFFFFFFFFFFFFFF DUP2 GT ISZERO PUSH2 0x260 JUMPI PUSH2 0x25F PUSH2 0x223 JUMP JUMPDEST JUMPDEST PUSH1 0x20 DUP4 ADD SWAP2 POP DUP4 PUSH1 0x1 DUP3 MUL DUP4 ADD GT ISZERO PUSH2 0x27C JUMPI PUSH2 0x27B PUSH2 0x228 JUMP JUMPDEST JUMPDEST SWAP3 POP SWAP3 SWAP1 POP JUMP JUMPDEST PUSH1 0x0 DUP1 PUSH1 0x20 DUP4 DUP6 SUB SLT ISZERO PUSH2 0x29A JUMPI PUSH2 0x299 PUSH2 0x214 JUMP JUMPDEST JUMPDEST PUSH1 0x0 DUP4 ADD CALLDATALOAD PUSH8 0xFFFFFFFFFFFFFFFF DUP2 GT ISZERO PUSH2 0x2B8 JUMPI PUSH2 0x2B7 PUSH2 0x219 JUMP JUMPDEST JUMPDEST PUSH2 0x2C4 DUP6 DUP3 DUP7 ADD PUSH2 0x22D JUMP JUMPDEST SWAP3 POP SWAP3 POP POP SWAP3 POP SWAP3 SWAP1 POP JUMP JUMPDEST PUSH1 0x0 DUP2 SWAP1 POP SWAP2 SWAP1 POP JUMP JUMPDEST PUSH2 0x2E3 DUP2 PUSH2 0x2D0 JUMP JUMPDEST DUP2 EQ PUSH2 0x2EE JUMPI PUSH1 0x0 DUP1 REVERT JUMPDEST POP JUMP JUMPDEST PUSH1 0x0 DUP2 CALLDATALOAD SWAP1 POP PUSH2 0x300 DUP2 PUSH2 0x2DA JUMP JUMPDEST SWAP3 SWAP2 POP POP JUMP JUMPDEST PUSH1 0x0 PUSH1 0x20 DUP3 DUP5 SUB SLT ISZERO PUSH2 0x31C JUMPI PUSH2 0x31B PUSH2 0x214 JUMP JUMPDEST JUMPDEST PUSH1 0x0 PUSH2 0x32A DUP5 DUP3 DUP6 ADD PUSH2 0x2F1 JUMP JUMPDEST SWAP2 POP POP SWAP3 SWAP2 POP POP JUMP JUMPDEST PUSH1 0x0 DUP2 MLOAD SWAP1 POP SWAP2 SWAP1 POP JUMP JUMPDEST PUSH1 0x0 DUP3 DUP3 MSTORE PUSH1 0x20 DUP3 ADD SWAP1 POP SWAP3 SWAP2 POP POP JUMP JUMPDEST PUSH1 0x0 JUMPDEST DUP4 DUP2 LT ISZERO PUSH2 0x36D JUMPI DUP1 DUP3 ADD MLOAD DUP2 DUP5 ADD MSTORE PUSH1 0x20 DUP2 ADD SWAP1 POP PUSH2 0x352 JUMP JUMPDEST PUSH1 0x0 DUP5 DUP5 ADD MSTORE POP POP POP POP JUMP JUMPDEST PUSH1 0x0 PUSH1 0x1F NOT PUSH1 0x1F DUP4 ADD AND SWAP1 POP SWAP2 SWAP1 POP JUMP JUMPDEST PUSH1 0x0 PUSH2 0x395 DUP3 PUSH2 0x333 JUMP JUMPDEST PUSH2 0x39F DUP2 DUP6 PUSH2 0x33E JUMP JUMPDEST SWAP4 POP PUSH2 0x3AF DUP2 DUP6 PUSH1 0x20 DUP7 ADD PUSH2 0x34F JUMP JUMPDEST PUSH2 0x3B8 DUP2 PUSH2 0x379 JUMP JUMPDEST DUP5 ADD SWAP2 POP POP SWAP3 SWAP2 POP POP JUMP JUMPDEST PUSH1 0x0 DUP2 ISZERO ISZERO SWAP1 POP SWAP2 SWAP1 POP JUMP JUMPDEST PUSH2 0x3D8 DUP2 PUSH2 0x3C3 JUMP JUMPDEST DUP3 MSTORE POP POP JUMP JUMPDEST PUSH1 0x0 PUSH1 0x40 DUP3 ADD SWAP1 POP DUP2 DUP2 SUB PUSH1 0x0 DUP4 ADD MSTORE PUSH2 0x3F8 DUP2 DUP6 PUSH2 0x38A JUMP JUMPDEST SWAP1 POP PUSH2 0x407 PUSH1 0x20 DUP4 ADD DUP5 PUSH2 0x3CF JUMP JUMPDEST SWAP4 SWAP3 POP POP POP JUMP JUMPDEST PUSH32 0x4E487B7100000000000000000000000000000000000000000000000000000000 PUSH1 0x0 MSTORE PUSH1 0x41 PUSH1 0x4 MSTORE PUSH1 0x24 PUSH1 0x0 REVERT JUMPDEST PUSH32 0x4E487B7100000000000000000000000000000000000000000000000000000000 PUSH1 0x0 MSTORE PUSH1 0x22 PUSH1 0x4 MSTORE PUSH1 0x24 PUSH1 0x0 REVERT JUMPDEST PUSH1 0x0 PUSH1 0x2 DUP3 DIV SWAP1 POP PUSH1 0x1 DUP3 AND DUP1 PUSH2 0x484 JUMPI PUSH1 0x7F DUP3 AND SWAP2 POP JUMPDEST PUSH1 0x20 DUP3 LT DUP2 SUB PUSH2 0x497 JUMPI PUSH2 0x496 PUSH2 0x43D JUMP JUMPDEST JUMPDEST POP SWAP2 SWAP1 POP JUMP JUMPDEST PUSH1 0x0 DUP2 SWAP1 POP DUP2 PUSH1 0x0 MSTORE PUSH1 0x20 PUSH1 0x0 KECCAK256 SWAP1 POP SWAP2 SWAP1 POP JUMP JUMPDEST PUSH1 0x0 PUSH1 0x20 PUSH1 0x1F DUP4 ADD DIV SWAP1 POP SWAP2 SWAP1 POP JUMP JUMPDEST PUSH1 0x0 DUP3 DUP3 SHL SWAP1 POP SWAP3 SWAP2 POP POP JUMP JUMPDEST PUSH1 0x0 PUSH1 0x8 DUP4 MUL PUSH2 0x4FF PUSH32 0xFFFFFFFFFFFFFFFFFFFFFFFFFFFFFFFFFFFFFFFFFFFFFFFFFFFFFFFFFFFFFFFF DUP3 PUSH2 0x4C2 JUMP JUMPDEST PUSH2 0x509 DUP7 DUP4 PUSH2 0x4C2 JUMP JUMPDEST SWAP6 POP DUP1 NOT DUP5 AND SWAP4 POP DUP1 DUP7 AND DUP5 OR SWAP3 POP POP POP SWAP4 SWAP3 POP POP POP JUMP JUMPDEST PUSH1 0x0 DUP2 SWAP1 POP SWAP2 SWAP1 POP JUMP JUMPDEST PUSH1 0x0 PUSH2 0x546 PUSH2 0x541 PUSH2 0x53C DUP5 PUSH2 0x2D0 JUMP JUMPDEST PUSH2 0x521 JUMP JUMPDEST PUSH2 0x2D0 JUMP JUMPDEST SWAP1 POP SWAP2 SWAP1 POP JUMP JUMPDEST PUSH1 0x0 DUP2 SWAP1 POP SWAP2 SWAP1 POP JUMP JUMPDEST PUSH2 0x560 DUP4 PUSH2 0x52B JUMP JUMPDEST PUSH2 0x574 PUSH2 0x56C DUP3 PUSH2 0x54D JUMP JUMPDEST DUP5 DUP5 SLOAD PUSH2 0x4CF JUMP JUMPDEST DUP3 SSTORE POP POP POP POP JUMP JUMPDEST PUSH1 0x0 SWAP1 JUMP JUMPDEST PUSH2 0x589 PUSH2 0x57C JUMP JUMPDEST PUSH2 0x594 DUP2 DUP5 DUP5 PUSH2 0x557 JUMP JUMPDEST POP POP POP JUMP JUMPDEST JUMPDEST DUP2 DUP2 LT ISZERO PUSH2 0x5B8 JUMPI PUSH2 0x5AD PUSH1 0x0 DUP3 PUSH2 0x581 JUMP JUMPDEST PUSH1 0x1 DUP2 ADD SWAP1 POP PUSH2 0x59A JUMP JUMPDEST POP POP JUMP JUMPDEST PUSH1 0x1F DUP3 GT ISZERO PUSH2 0x5FD JUMPI PUSH2 0x5CE DUP2 PUSH2 0x49D JUMP JUMPDEST PUSH2 0x5D7 DUP5 PUSH2 0x4B2 JUMP JUMPDEST DUP2 ADD PUSH1 0x20 DUP6 LT ISZERO PUSH2 0x5E6 JUMPI DUP2 SWAP1 POP JUMPDEST PUSH2 0x5FA PUSH2 0x5F2 DUP6 PUSH2 0x4B2 JUMP JUMPDEST DUP4 ADD DUP3 PUSH2 0x599 JUMP JUMPDEST POP POP JUMPDEST POP POP POP JUMP JUMPDEST PUSH1 0x0 DUP3 DUP3 SHR SWAP1 POP SWAP3 SWAP2 POP POP JUMP JUMPDEST PUSH1 0x0 PUSH2 0x620 PUSH1 0x0 NOT DUP5 PUSH1 0x8 MUL PUSH2 0x602 JUMP JUMPDEST NOT DUP1 DUP4 AND SWAP2 POP POP SWAP3 SWAP2 POP POP JUMP JUMPDEST PUSH1 0x0 PUSH2 0x639 DUP4 DUP4 PUSH2 0x60F JUMP JUMPDEST SWAP2 POP DUP3 PUSH1 0x2 MUL DUP3 OR SWAP1 POP SWAP3 SWAP2 POP POP JUMP JUMPDEST PUSH2 0x652 DUP3 PUSH2 0x333 JUMP JUMPDEST PUSH8 0xFFFFFFFFFFFFFFFF DUP2 GT ISZERO PUSH2 0x66B JUMPI PUSH2 0x66A PUSH2 0x40E JUMP JUMPDEST JUMPDEST PUSH2 0x675 DUP3 SLOAD PUSH2 0x46C JUMP JUMPDEST PUSH2 0x680 DUP3 DUP3 DUP6 PUSH2 0x5BC JUMP JUMPDEST PUSH1 0x0 PUSH1 0x20 SWAP1 POP PUSH1 0x1F DUP4 GT PUSH1 0x1 DUP2 EQ PUSH2 0x6B3 JUMPI PUSH1 0x0 DUP5 ISZERO PUSH2 0x6A1 JUMPI DUP3 DUP8 ADD MLOAD SWAP1 POP JUMPDEST PUSH2 0x6AB DUP6 DUP3 PUSH2 0x62D JUMP JUMPDEST DUP7 SSTORE POP PUSH2 0x713 JUMP JUMPDEST PUSH1 0x1F NOT DUP5 AND PUSH2 0x6C1 DUP7 PUSH2 0x49D JUMP JUMPDEST PUSH1 0x0 JUMPDEST DUP3 DUP2 LT ISZERO PUSH2 0x6E9 JUMPI DUP5 DUP10 ADD MLOAD DUP3 SSTORE PUSH1 0x1 DUP3 ADD SWAP2 POP PUSH1 0x20 DUP6 ADD SWAP5 POP PUSH1 0x20 DUP2 ADD SWAP1 POP PUSH2 0x6C4 JUMP JUMPDEST DUP7 DUP4 LT ISZERO PUSH2 0x706 JUMPI DUP5 DUP10 ADD MLOAD PUSH2 0x702 PUSH1 0x1F DUP10 AND DUP3 PUSH2 0x60F JUMP JUMPDEST DUP4 SSTORE POP JUMPDEST PUSH1 0x1 PUSH1 0x2 DUP9 MUL ADD DUP9 SSTORE POP POP POP JUMPDEST POP POP POP POP POP POP JUMP INVALID LOG2 PUSH5 0x6970667358 0x22 SLT KECCAK256 0xD2 0xD7 DUP1 0xD5 0xAD DIV TIMESTAMP SWAP11 PUSH30 0xB4068CFE1A1C65F025A6EC33D7FE65DFD3A7ED53112EBF64736F6C634300 ADDMOD GT STOP CALLER "
				},
				"gasEstimates": {
					"creation": {
						"codeDepositCost": "374600",
						"executionCost": "411",
						"totalCost": "375011"
					},
					"external": {
						"create(string)": "infinite",
						"todos(uint256)": "infinite"
					}
				},
				"methodIdentifiers": {
					"create(string)": "b6a46b3b",
					"todos(uint256)": "bc8bc2b4"
				}
			},
			"storageLayout": {
				"storage": [
					{
						"astId": 10,
						"contract": "TodoList.sol:TodoList",
						"label": "todos",
						"offset": 0,
						"slot": "0",
						"type": "t_array(t_struct(Todo)6_storage)dyn_storage"
					}
				],
				"types": {
					"t_array(t_struct(Todo)6_storage)dyn_storage": {
						"base": "t_struct(Todo)6_storage",
						"encoding": "dynamic_array",
						"label": "struct TodoList.Todo[]",
						"numberOfBytes": "32"
					},
					"t_bool": {
						"encoding": "inplace",
						"label": "bool",
						"numberOfBytes": "1"
					},
					"t_string_storage": {
						"encoding": "bytes",
						"label": "string",
						"numberOfBytes": "32"
					},
					"t_struct(Todo)6_storage": {
						"encoding": "inplace",
						"label": "struct TodoList.Todo",
						"members": [
							{
								"astId": 3,
								"contract": "TodoList.sol:TodoList",
								"label": "text",
								"offset": 0,
								"slot": "0",
								"type": "t_string_storage"
							},
							{
								"astId": 5,
								"contract": "TodoList.sol:TodoList",
								"label": "compeleted",
								"offset": 0,
								"slot": "1",
								"type": "t_bool"
							}
						],
						"numberOfBytes": "64"
					}
				}
			},
			"userdoc": {
				"kind": "user",
				"methods": {},
				"version": 1
			}
		}
	}
}