{
	"test1.sol": {
		"A": {
			"abi": [
				{
					"inputs": [
						{
							"internalType": "uint256",
							"name": "",
							"type": "uint256"
						}
					],
					"name": "b",
					"outputs": [
						{
							"internalType": "uint8",
							"name": "",
							"type": "uint8"
						},
						{
							"internalType": "string",
							"name": "",
							"type": "string"
						}
					],
					"stateMutability": "pure",
					"type": "function"
				}
			],
			"devdoc": {
				"kind": "dev",
				"methods": {},
				"version": 1
			},
			"evm": {
				"assembly": "    /* \"test1.sol\":61:208  contract A {... */\n  mstore(0x40, 0x80)\n  callvalue\n  dup1\n  iszero\n  tag_1\n  jumpi\n  0x00\n  dup1\n  revert\ntag_1:\n  pop\n  dataSize(sub_0)\n  dup1\n  dataOffset(sub_0)\n  0x00\n  codecopy\n  0x00\n  return\nstop\n\nsub_0: assembly {\n        /* \"test1.sol\":61:208  contract A {... */\n      mstore(0x40, 0x80)\n      callvalue\n      dup1\n      iszero\n      tag_1\n      jumpi\n      0x00\n      dup1\n      revert\n    tag_1:\n      pop\n      jumpi(tag_2, lt(calldatasize, 0x04))\n      shr(0xe0, calldataload(0x00))\n      dup1\n      0xcd580ff3\n      eq\n      tag_3\n      jumpi\n    tag_2:\n      0x00\n      dup1\n      revert\n        /* \"test1.sol\":81:205  function b(uint) public pure returns (uint8, string memory){... */\n    tag_3:\n      tag_4\n      0x04\n      dup1\n      calldatasize\n      sub\n      dup2\n      add\n      swap1\n      tag_5\n      swap2\n      swap1\n      tag_6\n      jump\t// in\n    tag_5:\n      tag_7\n      jump\t// in\n    tag_4:\n      mload(0x40)\n      tag_8\n      swap3\n      swap2\n      swap1\n      tag_9\n      jump\t// in\n    tag_8:\n      mload(0x40)\n      dup1\n      swap2\n      sub\n      swap1\n      return\n    tag_7:\n        /* \"test1.sol\":119:124  uint8 */\n      0x00\n        /* \"test1.sol\":126:139  string memory */\n      0x60\n        /* \"test1.sol\":151:158  uint8 c */\n      0x00\n        /* \"test1.sol\":161:162  5 */\n      0x05\n        /* \"test1.sol\":151:162  uint8 c = 5 */\n      swap1\n      pop\n        /* \"test1.sol\":173:188  string memory s */\n      0x00\n        /* \"test1.sol\":173:197  string memory s = \"ssss\" */\n      mload(0x40)\n      dup1\n      0x40\n      add\n      0x40\n      mstore\n      dup1\n      0x04\n      dup2\n      mstore\n      0x20\n      add\n      0x7373737300000000000000000000000000000000000000000000000000000000\n      dup2\n      mstore\n      pop\n      swap1\n      pop\n        /* \"test1.sol\":140:205  {... */\n      pop\n      pop\n        /* \"test1.sol\":81:205  function b(uint) public pure returns (uint8, string memory){... */\n      swap2\n      pop\n      swap2\n      jump\t// out\n        /* \"#utility.yul\":88:205   */\n    tag_12:\n        /* \"#utility.yul\":197:198   */\n      0x00\n        /* \"#utility.yul\":194:195   */\n      dup1\n        /* \"#utility.yul\":187:199   */\n      revert\n        /* \"#utility.yul\":334:411   */\n    tag_14:\n        /* \"#utility.yul\":371:378   */\n      0x00\n        /* \"#utility.yul\":400:405   */\n      dup2\n        /* \"#utility.yul\":389:405   */\n      swap1\n      pop\n        /* \"#utility.yul\":334:411   */\n      swap2\n      swap1\n      pop\n      jump\t// out\n        /* \"#utility.yul\":417:539   */\n    tag_15:\n        /* \"#utility.yul\":490:514   */\n      tag_30\n        /* \"#utility.yul\":508:513   */\n      dup2\n        /* \"#utility.yul\":490:514   */\n      tag_14\n      jump\t// in\n    tag_30:\n        /* \"#utility.yul\":483:488   */\n      dup2\n        /* \"#utility.yul\":480:515   */\n      eq\n        /* \"#utility.yul\":470:533   */\n      tag_31\n      jumpi\n        /* \"#utility.yul\":529:530   */\n      0x00\n        /* \"#utility.yul\":526:527   */\n      dup1\n        /* \"#utility.yul\":519:531   */\n      revert\n        /* \"#utility.yul\":470:533   */\n    tag_31:\n        /* \"#utility.yul\":417:539   */\n      pop\n      jump\t// out\n        /* \"#utility.yul\":545:684   */\n    tag_16:\n        /* \"#utility.yul\":591:596   */\n      0x00\n        /* \"#utility.yul\":629:635   */\n      dup2\n        /* \"#utility.yul\":616:636   */\n      calldataload\n        /* \"#utility.yul\":607:636   */\n      swap1\n      pop\n        /* \"#utility.yul\":645:678   */\n      tag_33\n        /* \"#utility.yul\":672:677   */\n      dup2\n        /* \"#utility.yul\":645:678   */\n      tag_15\n      jump\t// in\n    tag_33:\n        /* \"#utility.yul\":545:684   */\n      swap3\n      swap2\n      pop\n      pop\n      jump\t// out\n        /* \"#utility.yul\":690:1019   */\n    tag_6:\n        /* \"#utility.yul\":749:755   */\n      0x00\n        /* \"#utility.yul\":798:800   */\n      0x20\n        /* \"#utility.yul\":786:795   */\n      dup3\n        /* \"#utility.yul\":777:784   */\n      dup5\n        /* \"#utility.yul\":773:796   */\n      sub\n        /* \"#utility.yul\":769:801   */\n      slt\n        /* \"#utility.yul\":766:885   */\n      iszero\n      tag_35\n      jumpi\n        /* \"#utility.yul\":804:883   */\n      tag_36\n      tag_12\n      jump\t// in\n    tag_36:\n        /* \"#utility.yul\":766:885   */\n    tag_35:\n        /* \"#utility.yul\":924:925   */\n      0x00\n        /* \"#utility.yul\":949:1002   */\n      tag_37\n        /* \"#utility.yul\":994:1001   */\n      dup5\n        /* \"#utility.yul\":985:991   */\n      dup3\n        /* \"#utility.yul\":974:983   */\n      dup6\n        /* \"#utility.yul\":970:992   */\n      add\n        /* \"#utility.yul\":949:1002   */\n      tag_16\n      jump\t// in\n    tag_37:\n        /* \"#utility.yul\":939:1002   */\n      swap2\n      pop\n        /* \"#utility.yul\":895:1012   */\n      pop\n        /* \"#utility.yul\":690:1019   */\n      swap3\n      swap2\n      pop\n      pop\n      jump\t// out\n        /* \"#utility.yul\":1025:1111   */\n    tag_17:\n        /* \"#utility.yul\":1060:1067   */\n      0x00\n        /* \"#utility.yul\":1100:1104   */\n      0xff\n        /* \"#utility.yul\":1093:1098   */\n      dup3\n        /* \"#utility.yul\":1089:1105   */\n      and\n        /* \"#utility.yul\":1078:1105   */\n      swap1\n      pop\n        /* \"#utility.yul\":1025:1111   */\n      swap2\n      swap1\n      pop\n      jump\t// out\n        /* \"#utility.yul\":1117:1229   */\n    tag_18:\n        /* \"#utility.yul\":1200:1222   */\n      tag_40\n        /* \"#utility.yul\":1216:1221   */\n      dup2\n        /* \"#utility.yul\":1200:1222   */\n      tag_17\n      jump\t// in\n    tag_40:\n        /* \"#utility.yul\":1195:1198   */\n      dup3\n        /* \"#utility.yul\":1188:1223   */\n      mstore\n        /* \"#utility.yul\":1117:1229   */\n      pop\n      pop\n      jump\t// out\n        /* \"#utility.yul\":1235:1334   */\n    tag_19:\n        /* \"#utility.yul\":1287:1293   */\n      0x00\n        /* \"#utility.yul\":1321:1326   */\n      dup2\n        /* \"#utility.yul\":1315:1327   */\n      mload\n        /* \"#utility.yul\":1305:1327   */\n      swap1\n      pop\n        /* \"#utility.yul\":1235:1334   */\n      swap2\n      swap1\n      pop\n      jump\t// out\n        /* \"#utility.yul\":1340:1509   */\n    tag_20:\n        /* \"#utility.yul\":1424:1435   */\n      0x00\n        /* \"#utility.yul\":1458:1464   */\n      dup3\n        /* \"#utility.yul\":1453:1456   */\n      dup3\n        /* \"#utility.yul\":1446:1465   */\n      mstore\n        /* \"#utility.yul\":1498:1502   */\n      0x20\n        /* \"#utility.yul\":1493:1496   */\n      dup3\n        /* \"#utility.yul\":1489:1503   */\n      add\n        /* \"#utility.yul\":1474:1503   */\n      swap1\n      pop\n        /* \"#utility.yul\":1340:1509   */\n      swap3\n      swap2\n      pop\n      pop\n      jump\t// out\n        /* \"#utility.yul\":1515:1761   */\n    tag_21:\n        /* \"#utility.yul\":1596:1597   */\n      0x00\n        /* \"#utility.yul\":1606:1719   */\n    tag_44:\n        /* \"#utility.yul\":1620:1626   */\n      dup4\n        /* \"#utility.yul\":1617:1618   */\n      dup2\n        /* \"#utility.yul\":1614:1627   */\n      lt\n        /* \"#utility.yul\":1606:1719   */\n      iszero\n      tag_46\n      jumpi\n        /* \"#utility.yul\":1705:1706   */\n      dup1\n        /* \"#utility.yul\":1700:1703   */\n      dup3\n        /* \"#utility.yul\":1696:1707   */\n      add\n        /* \"#utility.yul\":1690:1708   */\n      mload\n        /* \"#utility.yul\":1686:1687   */\n      dup2\n        /* \"#utility.yul\":1681:1684   */\n      dup5\n        /* \"#utility.yul\":1677:1688   */\n      add\n        /* \"#utility.yul\":1670:1709   */\n      mstore\n        /* \"#utility.yul\":1642:1644   */\n      0x20\n        /* \"#utility.yul\":1639:1640   */\n      dup2\n        /* \"#utility.yul\":1635:1645   */\n      add\n        /* \"#utility.yul\":1630:1645   */\n      swap1\n      pop\n        /* \"#utility.yul\":1606:1719   */\n      jump(tag_44)\n    tag_46:\n        /* \"#utility.yul\":1753:1754   */\n      0x00\n        /* \"#utility.yul\":1744:1750   */\n      dup5\n        /* \"#utility.yul\":1739:1742   */\n      dup5\n        /* \"#utility.yul\":1735:1751   */\n      add\n        /* \"#utility.yul\":1728:1755   */\n      mstore\n        /* \"#utility.yul\":1577:1761   */\n      pop\n        /* \"#utility.yul\":1515:1761   */\n      pop\n      pop\n      pop\n      jump\t// out\n        /* \"#utility.yul\":1767:1869   */\n    tag_22:\n        /* \"#utility.yul\":1808:1814   */\n      0x00\n        /* \"#utility.yul\":1859:1861   */\n      0x1f\n        /* \"#utility.yul\":1855:1862   */\n      not\n        /* \"#utility.yul\":1850:1852   */\n      0x1f\n        /* \"#utility.yul\":1843:1848   */\n      dup4\n        /* \"#utility.yul\":1839:1853   */\n      add\n        /* \"#utility.yul\":1835:1863   */\n      and\n        /* \"#utility.yul\":1825:1863   */\n      swap1\n      pop\n        /* \"#utility.yul\":1767:1869   */\n      swap2\n      swap1\n      pop\n      jump\t// out\n        /* \"#utility.yul\":1875:2252   */\n    tag_23:\n        /* \"#utility.yul\":1963:1966   */\n      0x00\n        /* \"#utility.yul\":1991:2030   */\n      tag_49\n        /* \"#utility.yul\":2024:2029   */\n      dup3\n        /* \"#utility.yul\":1991:2030   */\n      tag_19\n      jump\t// in\n    tag_49:\n        /* \"#utility.yul\":2046:2117   */\n      tag_50\n        /* \"#utility.yul\":2110:2116   */\n      dup2\n        /* \"#utility.yul\":2105:2108   */\n      dup6\n        /* \"#utility.yul\":2046:2117   */\n      tag_20\n      jump\t// in\n    tag_50:\n        /* \"#utility.yul\":2039:2117   */\n      swap4\n      pop\n        /* \"#utility.yul\":2126:2191   */\n      tag_51\n        /* \"#utility.yul\":2184:2190   */\n      dup2\n        /* \"#utility.yul\":2179:2182   */\n      dup6\n        /* \"#utility.yul\":2172:2176   */\n      0x20\n        /* \"#utility.yul\":2165:2170   */\n      dup7\n        /* \"#utility.yul\":2161:2177   */\n      add\n        /* \"#utility.yul\":2126:2191   */\n      tag_21\n      jump\t// in\n    tag_51:\n        /* \"#utility.yul\":2216:2245   */\n      tag_52\n        /* \"#utility.yul\":2238:2244   */\n      dup2\n        /* \"#utility.yul\":2216:2245   */\n      tag_22\n      jump\t// in\n    tag_52:\n        /* \"#utility.yul\":2211:2214   */\n      dup5\n        /* \"#utility.yul\":2207:2246   */\n      add\n        /* \"#utility.yul\":2200:2246   */\n      swap2\n      pop\n        /* \"#utility.yul\":1967:2252   */\n      pop\n        /* \"#utility.yul\":1875:2252   */\n      swap3\n      swap2\n      pop\n      pop\n      jump\t// out\n        /* \"#utility.yul\":2258:2673   */\n    tag_9:\n        /* \"#utility.yul\":2395:2399   */\n      0x00\n        /* \"#utility.yul\":2433:2435   */\n      0x40\n        /* \"#utility.yul\":2422:2431   */\n      dup3\n        /* \"#utility.yul\":2418:2436   */\n      add\n        /* \"#utility.yul\":2410:2436   */\n      swap1\n      pop\n        /* \"#utility.yul\":2446:2513   */\n      tag_54\n        /* \"#utility.yul\":2510:2511   */\n      0x00\n        /* \"#utility.yul\":2499:2508   */\n      dup4\n        /* \"#utility.yul\":2495:2512   */\n      add\n        /* \"#utility.yul\":2486:2492   */\n      dup6\n        /* \"#utility.yul\":2446:2513   */\n      tag_18\n      jump\t// in\n    tag_54:\n        /* \"#utility.yul\":2560:2569   */\n      dup2\n        /* \"#utility.yul\":2554:2558   */\n      dup2\n        /* \"#utility.yul\":2550:2570   */\n      sub\n        /* \"#utility.yul\":2545:2547   */\n      0x20\n        /* \"#utility.yul\":2534:2543   */\n      dup4\n        /* \"#utility.yul\":2530:2548   */\n      add\n        /* \"#utility.yul\":2523:2571   */\n      mstore\n        /* \"#utility.yul\":2588:2666   */\n      tag_55\n        /* \"#utility.yul\":2661:2665   */\n      dup2\n        /* \"#utility.yul\":2652:2658   */\n      dup5\n        /* \"#utility.yul\":2588:2666   */\n      tag_23\n      jump\t// in\n    tag_55:\n        /* \"#utility.yul\":2580:2666   */\n      swap1\n      pop\n        /* \"#utility.yul\":2258:2673   */\n      swap4\n      swap3\n      pop\n      pop\n      pop\n      jump\t// out\n\n    auxdata: 0xa26469706673582212204e805a235283dd3a709b2b5707d54c617ac10f51c19a0f6a46310816ffd4d98564736f6c63430008110033\n}\n",
				"bytecode": {
					"linkReferences": {},
					"object": "608060405234801561001057600080fd5b50610226806100206000396000f3fe608060405234801561001057600080fd5b506004361061002b5760003560e01c8063cd580ff314610030575b600080fd5b61004a600480360381019061004591906100e7565b610061565b6040516100589291906101c0565b60405180910390f35b6000606060006005905060006040518060400160405280600481526020017f737373730000000000000000000000000000000000000000000000000000000081525090505050915091565b600080fd5b6000819050919050565b6100c4816100b1565b81146100cf57600080fd5b50565b6000813590506100e1816100bb565b92915050565b6000602082840312156100fd576100fc6100ac565b5b600061010b848285016100d2565b91505092915050565b600060ff82169050919050565b61012a81610114565b82525050565b600081519050919050565b600082825260208201905092915050565b60005b8381101561016a57808201518184015260208101905061014f565b60008484015250505050565b6000601f19601f8301169050919050565b600061019282610130565b61019c818561013b565b93506101ac81856020860161014c565b6101b581610176565b840191505092915050565b60006040820190506101d56000830185610121565b81810360208301526101e78184610187565b9050939250505056fea26469706673582212204e805a235283dd3a709b2b5707d54c617ac10f51c19a0f6a46310816ffd4d98564736f6c63430008110033",
					"opcodes": "PUSH1 0x80 PUSH1 0x40 MSTORE CALLVALUE DUP1 ISZERO PUSH2 0x10 JUMPI PUSH1 0x0 DUP1 REVERT JUMPDEST POP PUSH2 0x226 DUP1 PUSH2 0x20 PUSH1 0x0 CODECOPY PUSH1 0x0 RETURN INVALID PUSH1 0x80 PUSH1 0x40 MSTORE CALLVALUE DUP1 ISZERO PUSH2 0x10 JUMPI PUSH1 0x0 DUP1 REVERT JUMPDEST POP PUSH1 0x4 CALLDATASIZE LT PUSH2 0x2B JUMPI PUSH1 0x0 CALLDATALOAD PUSH1 0xE0 SHR DUP1 PUSH4 0xCD580FF3 EQ PUSH2 0x30 JUMPI JUMPDEST PUSH1 0x0 DUP1 REVERT JUMPDEST PUSH2 0x4A PUSH1 0x4 DUP1 CALLDATASIZE SUB DUP2 ADD SWAP1 PUSH2 0x45 SWAP2 SWAP1 PUSH2 0xE7 JUMP JUMPDEST PUSH2 0x61 JUMP JUMPDEST PUSH1 0x40 MLOAD PUSH2 0x58 SWAP3 SWAP2 SWAP1 PUSH2 0x1C0 JUMP JUMPDEST PUSH1 0x40 MLOAD DUP1 SWAP2 SUB SWAP1 RETURN JUMPDEST PUSH1 0x0 PUSH1 0x60 PUSH1 0x0 PUSH1 0x5 SWAP1 POP PUSH1 0x0 PUSH1 0x40 MLOAD DUP1 PUSH1 0x40 ADD PUSH1 0x40 MSTORE DUP1 PUSH1 0x4 DUP2 MSTORE PUSH1 0x20 ADD PUSH32 0x7373737300000000000000000000000000000000000000000000000000000000 DUP2 MSTORE POP SWAP1 POP POP POP SWAP2 POP SWAP2 JUMP JUMPDEST PUSH1 0x0 DUP1 REVERT JUMPDEST PUSH1 0x0 DUP2 SWAP1 POP SWAP2 SWAP1 POP JUMP JUMPDEST PUSH2 0xC4 DUP2 PUSH2 0xB1 JUMP JUMPDEST DUP2 EQ PUSH2 0xCF JUMPI PUSH1 0x0 DUP1 REVERT JUMPDEST POP JUMP JUMPDEST PUSH1 0x0 DUP2 CALLDATALOAD SWAP1 POP PUSH2 0xE1 DUP2 PUSH2 0xBB JUMP JUMPDEST SWAP3 SWAP2 POP POP JUMP JUMPDEST PUSH1 0x0 PUSH1 0x20 DUP3 DUP5 SUB SLT ISZERO PUSH2 0xFD JUMPI PUSH2 0xFC PUSH2 0xAC JUMP JUMPDEST JUMPDEST PUSH1 0x0 PUSH2 0x10B DUP5 DUP3 DUP6 ADD PUSH2 0xD2 JUMP JUMPDEST SWAP2 POP POP SWAP3 SWAP2 POP POP JUMP JUMPDEST PUSH1 0x0 PUSH1 0xFF DUP3 AND SWAP1 POP SWAP2 SWAP1 POP JUMP JUMPDEST PUSH2 0x12A DUP2 PUSH2 0x114 JUMP JUMPDEST DUP3 MSTORE POP POP JUMP JUMPDEST PUSH1 0x0 DUP2 MLOAD SWAP1 POP SWAP2 SWAP1 POP JUMP JUMPDEST PUSH1 0x0 DUP3 DUP3 MSTORE PUSH1 0x20 DUP3 ADD SWAP1 POP SWAP3 SWAP2 POP POP JUMP JUMPDEST PUSH1 0x0 JUMPDEST DUP4 DUP2 LT ISZERO PUSH2 0x16A JUMPI DUP1 DUP3 ADD MLOAD DUP2 DUP5 ADD MSTORE PUSH1 0x20 DUP2 ADD SWAP1 POP PUSH2 0x14F JUMP JUMPDEST PUSH1 0x0 DUP5 DUP5 ADD MSTORE POP POP POP POP JUMP JUMPDEST PUSH1 0x0 PUSH1 0x1F NOT PUSH1 0x1F DUP4 ADD AND SWAP1 POP SWAP2 SWAP1 POP JUMP JUMPDEST PUSH1 0x0 PUSH2 0x192 DUP3 PUSH2 0x130 JUMP JUMPDEST PUSH2 0x19C DUP2 DUP6 PUSH2 0x13B JUMP JUMPDEST SWAP4 POP PUSH2 0x1AC DUP2 DUP6 PUSH1 0x20 DUP7 ADD PUSH2 0x14C JUMP JUMPDEST PUSH2 0x1B5 DUP2 PUSH2 0x176 JUMP JUMPDEST DUP5 ADD SWAP2 POP POP SWAP3 SWAP2 POP POP JUMP JUMPDEST PUSH1 0x0 PUSH1 0x40 DUP3 ADD SWAP1 POP PUSH2 0x1D5 PUSH1 0x0 DUP4 ADD DUP6 PUSH2 0x121 JUMP JUMPDEST DUP2 DUP2 SUB PUSH1 0x20 DUP4 ADD MSTORE PUSH2 0x1E7 DUP2 DUP5 PUSH2 0x187 JUMP JUMPDEST SWAP1 POP SWAP4 SWAP3 POP POP POP JUMP INVALID LOG2 PUSH5 0x6970667358 0x22 SLT KECCAK256 0x4E DUP1 GAS 0x23 MSTORE DUP4 0xDD GASPRICE PUSH17 0x9B2B5707D54C617AC10F51C19A0F6A4631 ADDMOD AND SELFDESTRUCT 0xD4 0xD9 DUP6 PUSH5 0x736F6C6343 STOP ADDMOD GT STOP CALLER "
				},
				"gasEstimates": {
					"creation": {
						"codeDepositCost": "110000",
						"executionCost": "159",
						"totalCost": "110159"
					},
					"external": {
						"b(uint256)": "infinite"
					}
				},
				"methodIdentifiers": {
					"b(uint256)": "cd580ff3"
				}
			},
			"storageLayout": {
				"storage": [],
				"types": null
			},
			"userdoc": {
				"kind": "user",
				"methods": {},
				"version": 1
			}
		}
	}
}