{
	"AbiDecode.sol": {
		"AbiDecode": {
			"abi": [
				{
					"inputs": [],
					"stateMutability": "nonpayable",
					"type": "constructor"
				},
				{
					"stateMutability": "payable",
					"type": "fallback"
				},
				{
					"inputs": [
						{
							"internalType": "bytes",
							"name": "data",
							"type": "bytes"
						}
					],
					"name": "decode",
					"outputs": [
						{
							"internalType": "uint256",
							"name": "x",
							"type": "uint256"
						},
						{
							"internalType": "address",
							"name": "addr",
							"type": "address"
						},
						{
							"internalType": "uint256[]",
							"name": "arr",
							"type": "uint256[]"
						},
						{
							"components": [
								{
									"internalType": "string",
									"name": "mame",
									"type": "string"
								},
								{
									"internalType": "uint256[2]",
									"name": "nums",
									"type": "uint256[2]"
								}
							],
							"internalType": "struct AbiDecode.Mystruct",
							"name": "myStruct",
							"type": "tuple"
						}
					],
					"stateMutability": "pure",
					"type": "function"
				},
				{
					"inputs": [
						{
							"internalType": "uint256",
							"name": "x",
							"type": "uint256"
						},
						{
							"internalType": "address",
							"name": "addr",
							"type": "address"
						},
						{
							"internalType": "uint256[]",
							"name": "arr",
							"type": "uint256[]"
						},
						{
							"components": [
								{
									"internalType": "string",
									"name": "mame",
									"type": "string"
								},
								{
									"internalType": "uint256[2]",
									"name": "nums",
									"type": "uint256[2]"
								}
							],
							"internalType": "struct AbiDecode.Mystruct",
							"name": "myStruct",
							"type": "tuple"
						}
					],
					"name": "encode",
					"outputs": [
						{
							"internalType": "bytes",
							"name": "",
							"type": "bytes"
						}
					],
					"stateMutability": "pure",
					"type": "function"
				},
				{
					"inputs": [],
					"name": "testTransfer",
					"outputs": [],
					"stateMutability": "payable",
					"type": "function"
				}
			],
			"devdoc": {
				"kind": "dev",
				"methods": {},
				"version": 1
			},
			"evm": {
				"assembly": "    /* \"AbiDecode.sol\":61:784  contract AbiDecode {... */\n  mstore(0x40, 0x80)\n    /* \"AbiDecode.sol\":201:253  constructor() {... */\n  callvalue\n  dup1\n  iszero\n  tag_1\n  jumpi\n  0x00\n  dup1\n  revert\ntag_1:\n  pop\n    /* \"AbiDecode.sol\":61:784  contract AbiDecode {... */\n  dataSize(sub_0)\n  dup1\n  dataOffset(sub_0)\n  0x00\n  codecopy\n  0x00\n  return\nstop\n\nsub_0: assembly {\n        /* \"AbiDecode.sol\":61:784  contract AbiDecode {... */\n      mstore(0x40, 0x80)\n      jumpi(tag_1, lt(calldatasize, 0x04))\n      shr(0xe0, calldataload(0x00))\n      dup1\n      0x7049e087\n      eq\n      tag_3\n      jumpi\n      dup1\n      0xd591221f\n      eq\n      tag_4\n      jumpi\n      dup1\n      0xe5c5e9a3\n      eq\n      tag_5\n      jumpi\n      jump(tag_2)\n    tag_1:\n    tag_2:\n      stop\n        /* \"AbiDecode.sol\":261:446  function encode (uint x, address addr, uint[] calldata arr, Mystruct calldata myStruct) external pure returns (bytes memory) {... */\n    tag_3:\n      callvalue\n      dup1\n      iszero\n      tag_8\n      jumpi\n      0x00\n      dup1\n      revert\n    tag_8:\n      pop\n      tag_9\n      0x04\n      dup1\n      calldatasize\n      sub\n      dup2\n      add\n      swap1\n      tag_10\n      swap2\n      swap1\n      tag_11\n      jump\t// in\n    tag_10:\n      tag_12\n      jump\t// in\n    tag_9:\n      mload(0x40)\n      tag_13\n      swap2\n      swap1\n      tag_14\n      jump\t// in\n    tag_13:\n      mload(0x40)\n      dup1\n      swap2\n      sub\n      swap1\n      return\n        /* \"AbiDecode.sol\":686:779  function testTransfer() external payable{... */\n    tag_4:\n      tag_15\n      tag_16\n      jump\t// in\n    tag_15:\n      stop\n        /* \"AbiDecode.sol\":454:678  function decode(bytes calldata data) external pure returns (uint x, address addr, uint[] memory arr, Mystruct memory myStruct) {... */\n    tag_5:\n      callvalue\n      dup1\n      iszero\n      tag_17\n      jumpi\n      0x00\n      dup1\n      revert\n    tag_17:\n      pop\n      tag_18\n      0x04\n      dup1\n      calldatasize\n      sub\n      dup2\n      add\n      swap1\n      tag_19\n      swap2\n      swap1\n      tag_20\n      jump\t// in\n    tag_19:\n      tag_21\n      jump\t// in\n    tag_18:\n      mload(0x40)\n      tag_22\n      swap5\n      swap4\n      swap3\n      swap2\n      swap1\n      tag_23\n      jump\t// in\n    tag_22:\n      mload(0x40)\n      dup1\n      swap2\n      sub\n      swap1\n      return\n        /* \"AbiDecode.sol\":261:446  function encode (uint x, address addr, uint[] calldata arr, Mystruct calldata myStruct) external pure returns (bytes memory) {... */\n    tag_12:\n        /* \"AbiDecode.sol\":372:384  bytes memory */\n      0x60\n        /* \"AbiDecode.sol\":415:416  x */\n      dup6\n        /* \"AbiDecode.sol\":418:422  addr */\n      dup6\n        /* \"AbiDecode.sol\":424:427  arr */\n      dup6\n      dup6\n        /* \"AbiDecode.sol\":429:437  myStruct */\n      dup6\n        /* \"AbiDecode.sol\":404:438  abi.encode(x, addr, arr, myStruct) */\n      add(0x20, mload(0x40))\n      tag_25\n      swap6\n      swap5\n      swap4\n      swap3\n      swap2\n      swap1\n      tag_26\n      jump\t// in\n    tag_25:\n      mload(0x40)\n      0x20\n      dup2\n      dup4\n      sub\n      sub\n      dup2\n      mstore\n      swap1\n      0x40\n      mstore\n        /* \"AbiDecode.sol\":397:438  return abi.encode(x, addr, arr, myStruct) */\n      swap1\n      pop\n        /* \"AbiDecode.sol\":261:446  function encode (uint x, address addr, uint[] calldata arr, Mystruct calldata myStruct) external pure returns (bytes memory) {... */\n      swap6\n      swap5\n      pop\n      pop\n      pop\n      pop\n      pop\n      jump\t// out\n        /* \"AbiDecode.sol\":686:779  function testTransfer() external payable{... */\n    tag_16:\n        /* \"AbiDecode.sol\":745:755  msg.sender */\n      caller\n        /* \"AbiDecode.sol\":737:765  payable(msg.sender).transfer */\n      0xffffffffffffffffffffffffffffffffffffffff\n      and\n        /* \"AbiDecode.sol\":737:771  payable(msg.sender).transfer(5555) */\n      0x08fc\n        /* \"AbiDecode.sol\":766:770  5555 */\n      0x15b3\n        /* \"AbiDecode.sol\":737:771  payable(msg.sender).transfer(5555) */\n      swap1\n      dup2\n      iszero\n      mul\n      swap1\n      mload(0x40)\n      0x00\n      mload(0x40)\n      dup1\n      dup4\n      sub\n      dup2\n      dup6\n      dup9\n      dup9\n      call\n      swap4\n      pop\n      pop\n      pop\n      pop\n      iszero\n      dup1\n      iszero\n      tag_29\n      jumpi\n      returndatasize\n      0x00\n      dup1\n      returndatacopy\n      revert(0x00, returndatasize)\n    tag_29:\n      pop\n        /* \"AbiDecode.sol\":686:779  function testTransfer() external payable{... */\n      jump\t// out\n        /* \"AbiDecode.sol\":454:678  function decode(bytes calldata data) external pure returns (uint x, address addr, uint[] memory arr, Mystruct memory myStruct) {... */\n    tag_21:\n        /* \"AbiDecode.sol\":514:520  uint x */\n      0x00\n        /* \"AbiDecode.sol\":522:534  address addr */\n      dup1\n        /* \"AbiDecode.sol\":536:553  uint[] memory arr */\n      0x60\n        /* \"AbiDecode.sol\":555:579  Mystruct memory myStruct */\n      tag_30\n      tag_31\n      jump\t// in\n    tag_30:\n        /* \"AbiDecode.sol\":630:634  data */\n      dup6\n      dup6\n        /* \"AbiDecode.sol\":619:670  abi.decode(data, (uint, address, uint[], Mystruct)) */\n      dup2\n      add\n      swap1\n      tag_33\n      swap2\n      swap1\n      tag_34\n      jump\t// in\n    tag_33:\n        /* \"AbiDecode.sol\":592:670  (x, addr, arr, myStruct) = abi.decode(data, (uint, address, uint[], Mystruct)) */\n      dup1\n      swap5\n      pop\n      dup2\n      swap6\n      pop\n      dup3\n      swap7\n      pop\n      dup4\n      swap8\n      pop\n      pop\n      pop\n      pop\n      pop\n        /* \"AbiDecode.sol\":454:678  function decode(bytes calldata data) external pure returns (uint x, address addr, uint[] memory arr, Mystruct memory myStruct) {... */\n      swap3\n      swap6\n      swap2\n      swap5\n      pop\n      swap3\n      pop\n      jump\t// out\n    tag_31:\n      mload(0x40)\n      dup1\n      0x40\n      add\n      0x40\n      mstore\n      dup1\n      0x60\n      dup2\n      mstore\n      0x20\n      add\n      tag_35\n      tag_36\n      jump\t// in\n    tag_35:\n      dup2\n      mstore\n      pop\n      swap1\n      jump\t// out\n    tag_36:\n      mload(0x40)\n      dup1\n      0x40\n      add\n      0x40\n      mstore\n      dup1\n      0x02\n      swap1\n      0x20\n      dup3\n      mul\n      dup1\n      calldatasize\n      dup4\n      calldatacopy\n      dup1\n      dup3\n      add\n      swap2\n      pop\n      pop\n      swap1\n      pop\n      pop\n      swap1\n      jump\t// out\n        /* \"#utility.yul\":7:82   */\n    tag_37:\n        /* \"#utility.yul\":40:46   */\n      0x00\n        /* \"#utility.yul\":73:75   */\n      0x40\n        /* \"#utility.yul\":67:76   */\n      mload\n        /* \"#utility.yul\":57:76   */\n      swap1\n      pop\n        /* \"#utility.yul\":7:82   */\n      swap1\n      jump\t// out\n        /* \"#utility.yul\":88:205   */\n    tag_38:\n        /* \"#utility.yul\":197:198   */\n      0x00\n        /* \"#utility.yul\":194:195   */\n      dup1\n        /* \"#utility.yul\":187:199   */\n      revert\n        /* \"#utility.yul\":211:328   */\n    tag_39:\n        /* \"#utility.yul\":320:321   */\n      0x00\n        /* \"#utility.yul\":317:318   */\n      dup1\n        /* \"#utility.yul\":310:322   */\n      revert\n        /* \"#utility.yul\":334:411   */\n    tag_40:\n        /* \"#utility.yul\":371:378   */\n      0x00\n        /* \"#utility.yul\":400:405   */\n      dup2\n        /* \"#utility.yul\":389:405   */\n      swap1\n      pop\n        /* \"#utility.yul\":334:411   */\n      swap2\n      swap1\n      pop\n      jump\t// out\n        /* \"#utility.yul\":417:539   */\n    tag_41:\n        /* \"#utility.yul\":490:514   */\n      tag_114\n        /* \"#utility.yul\":508:513   */\n      dup2\n        /* \"#utility.yul\":490:514   */\n      tag_40\n      jump\t// in\n    tag_114:\n        /* \"#utility.yul\":483:488   */\n      dup2\n        /* \"#utility.yul\":480:515   */\n      eq\n        /* \"#utility.yul\":470:533   */\n      tag_115\n      jumpi\n        /* \"#utility.yul\":529:530   */\n      0x00\n        /* \"#utility.yul\":526:527   */\n      dup1\n        /* \"#utility.yul\":519:531   */\n      revert\n        /* \"#utility.yul\":470:533   */\n    tag_115:\n        /* \"#utility.yul\":417:539   */\n      pop\n      jump\t// out\n        /* \"#utility.yul\":545:684   */\n    tag_42:\n        /* \"#utility.yul\":591:596   */\n      0x00\n        /* \"#utility.yul\":629:635   */\n      dup2\n        /* \"#utility.yul\":616:636   */\n      calldataload\n        /* \"#utility.yul\":607:636   */\n      swap1\n      pop\n        /* \"#utility.yul\":645:678   */\n      tag_117\n        /* \"#utility.yul\":672:677   */\n      dup2\n        /* \"#utility.yul\":645:678   */\n      tag_41\n      jump\t// in\n    tag_117:\n        /* \"#utility.yul\":545:684   */\n      swap3\n      swap2\n      pop\n      pop\n      jump\t// out\n        /* \"#utility.yul\":690:816   */\n    tag_43:\n        /* \"#utility.yul\":727:734   */\n      0x00\n        /* \"#utility.yul\":767:809   */\n      0xffffffffffffffffffffffffffffffffffffffff\n        /* \"#utility.yul\":760:765   */\n      dup3\n        /* \"#utility.yul\":756:810   */\n      and\n        /* \"#utility.yul\":745:810   */\n      swap1\n      pop\n        /* \"#utility.yul\":690:816   */\n      swap2\n      swap1\n      pop\n      jump\t// out\n        /* \"#utility.yul\":822:918   */\n    tag_44:\n        /* \"#utility.yul\":859:866   */\n      0x00\n        /* \"#utility.yul\":888:912   */\n      tag_120\n        /* \"#utility.yul\":906:911   */\n      dup3\n        /* \"#utility.yul\":888:912   */\n      tag_43\n      jump\t// in\n    tag_120:\n        /* \"#utility.yul\":877:912   */\n      swap1\n      pop\n        /* \"#utility.yul\":822:918   */\n      swap2\n      swap1\n      pop\n      jump\t// out\n        /* \"#utility.yul\":924:1046   */\n    tag_45:\n        /* \"#utility.yul\":997:1021   */\n      tag_122\n        /* \"#utility.yul\":1015:1020   */\n      dup2\n        /* \"#utility.yul\":997:1021   */\n      tag_44\n      jump\t// in\n    tag_122:\n        /* \"#utility.yul\":990:995   */\n      dup2\n        /* \"#utility.yul\":987:1022   */\n      eq\n        /* \"#utility.yul\":977:1040   */\n      tag_123\n      jumpi\n        /* \"#utility.yul\":1036:1037   */\n      0x00\n        /* \"#utility.yul\":1033:1034   */\n      dup1\n        /* \"#utility.yul\":1026:1038   */\n      revert\n        /* \"#utility.yul\":977:1040   */\n    tag_123:\n        /* \"#utility.yul\":924:1046   */\n      pop\n      jump\t// out\n        /* \"#utility.yul\":1052:1191   */\n    tag_46:\n        /* \"#utility.yul\":1098:1103   */\n      0x00\n        /* \"#utility.yul\":1136:1142   */\n      dup2\n        /* \"#utility.yul\":1123:1143   */\n      calldataload\n        /* \"#utility.yul\":1114:1143   */\n      swap1\n      pop\n        /* \"#utility.yul\":1152:1185   */\n      tag_125\n        /* \"#utility.yul\":1179:1184   */\n      dup2\n        /* \"#utility.yul\":1152:1185   */\n      tag_45\n      jump\t// in\n    tag_125:\n        /* \"#utility.yul\":1052:1191   */\n      swap3\n      swap2\n      pop\n      pop\n      jump\t// out\n        /* \"#utility.yul\":1197:1314   */\n    tag_47:\n        /* \"#utility.yul\":1306:1307   */\n      0x00\n        /* \"#utility.yul\":1303:1304   */\n      dup1\n        /* \"#utility.yul\":1296:1308   */\n      revert\n        /* \"#utility.yul\":1320:1437   */\n    tag_48:\n        /* \"#utility.yul\":1429:1430   */\n      0x00\n        /* \"#utility.yul\":1426:1427   */\n      dup1\n        /* \"#utility.yul\":1419:1431   */\n      revert\n        /* \"#utility.yul\":1443:1560   */\n    tag_49:\n        /* \"#utility.yul\":1552:1553   */\n      0x00\n        /* \"#utility.yul\":1549:1550   */\n      dup1\n        /* \"#utility.yul\":1542:1554   */\n      revert\n        /* \"#utility.yul\":1583:2151   */\n    tag_50:\n        /* \"#utility.yul\":1656:1664   */\n      0x00\n        /* \"#utility.yul\":1666:1672   */\n      dup1\n        /* \"#utility.yul\":1716:1719   */\n      dup4\n        /* \"#utility.yul\":1709:1713   */\n      0x1f\n        /* \"#utility.yul\":1701:1707   */\n      dup5\n        /* \"#utility.yul\":1697:1714   */\n      add\n        /* \"#utility.yul\":1693:1720   */\n      slt\n        /* \"#utility.yul\":1683:1805   */\n      tag_130\n      jumpi\n        /* \"#utility.yul\":1724:1803   */\n      tag_131\n      tag_47\n      jump\t// in\n    tag_131:\n        /* \"#utility.yul\":1683:1805   */\n    tag_130:\n        /* \"#utility.yul\":1837:1843   */\n      dup3\n        /* \"#utility.yul\":1824:1844   */\n      calldataload\n        /* \"#utility.yul\":1814:1844   */\n      swap1\n      pop\n        /* \"#utility.yul\":1867:1885   */\n      0xffffffffffffffff\n        /* \"#utility.yul\":1859:1865   */\n      dup2\n        /* \"#utility.yul\":1856:1886   */\n      gt\n        /* \"#utility.yul\":1853:1970   */\n      iszero\n      tag_132\n      jumpi\n        /* \"#utility.yul\":1889:1968   */\n      tag_133\n      tag_48\n      jump\t// in\n    tag_133:\n        /* \"#utility.yul\":1853:1970   */\n    tag_132:\n        /* \"#utility.yul\":2003:2007   */\n      0x20\n        /* \"#utility.yul\":1995:2001   */\n      dup4\n        /* \"#utility.yul\":1991:2008   */\n      add\n        /* \"#utility.yul\":1979:2008   */\n      swap2\n      pop\n        /* \"#utility.yul\":2057:2060   */\n      dup4\n        /* \"#utility.yul\":2049:2053   */\n      0x20\n        /* \"#utility.yul\":2041:2047   */\n      dup3\n        /* \"#utility.yul\":2037:2054   */\n      mul\n        /* \"#utility.yul\":2027:2035   */\n      dup4\n        /* \"#utility.yul\":2023:2055   */\n      add\n        /* \"#utility.yul\":2020:2061   */\n      gt\n        /* \"#utility.yul\":2017:2145   */\n      iszero\n      tag_134\n      jumpi\n        /* \"#utility.yul\":2064:2143   */\n      tag_135\n      tag_49\n      jump\t// in\n    tag_135:\n        /* \"#utility.yul\":2017:2145   */\n    tag_134:\n        /* \"#utility.yul\":1583:2151   */\n      swap3\n      pop\n      swap3\n      swap1\n      pop\n      jump\t// out\n        /* \"#utility.yul\":2157:2274   */\n    tag_51:\n        /* \"#utility.yul\":2266:2267   */\n      0x00\n        /* \"#utility.yul\":2263:2264   */\n      dup1\n        /* \"#utility.yul\":2256:2268   */\n      revert\n        /* \"#utility.yul\":2313:2542   */\n    tag_52:\n        /* \"#utility.yul\":2384:2389   */\n      0x00\n        /* \"#utility.yul\":2425:2427   */\n      0x60\n        /* \"#utility.yul\":2416:2422   */\n      dup3\n        /* \"#utility.yul\":2411:2414   */\n      dup5\n        /* \"#utility.yul\":2407:2423   */\n      sub\n        /* \"#utility.yul\":2403:2428   */\n      slt\n        /* \"#utility.yul\":2400:2512   */\n      iszero\n      tag_138\n      jumpi\n        /* \"#utility.yul\":2431:2510   */\n      tag_139\n      tag_51\n      jump\t// in\n    tag_139:\n        /* \"#utility.yul\":2400:2512   */\n    tag_138:\n        /* \"#utility.yul\":2530:2536   */\n      dup2\n        /* \"#utility.yul\":2521:2536   */\n      swap1\n      pop\n        /* \"#utility.yul\":2313:2542   */\n      swap3\n      swap2\n      pop\n      pop\n      jump\t// out\n        /* \"#utility.yul\":2548:3753   */\n    tag_11:\n        /* \"#utility.yul\":2686:2692   */\n      0x00\n        /* \"#utility.yul\":2694:2700   */\n      dup1\n        /* \"#utility.yul\":2702:2708   */\n      0x00\n        /* \"#utility.yul\":2710:2716   */\n      dup1\n        /* \"#utility.yul\":2718:2724   */\n      0x00\n        /* \"#utility.yul\":2767:2770   */\n      0x80\n        /* \"#utility.yul\":2755:2764   */\n      dup7\n        /* \"#utility.yul\":2746:2753   */\n      dup9\n        /* \"#utility.yul\":2742:2765   */\n      sub\n        /* \"#utility.yul\":2738:2771   */\n      slt\n        /* \"#utility.yul\":2735:2855   */\n      iszero\n      tag_141\n      jumpi\n        /* \"#utility.yul\":2774:2853   */\n      tag_142\n      tag_38\n      jump\t// in\n    tag_142:\n        /* \"#utility.yul\":2735:2855   */\n    tag_141:\n        /* \"#utility.yul\":2894:2895   */\n      0x00\n        /* \"#utility.yul\":2919:2972   */\n      tag_143\n        /* \"#utility.yul\":2964:2971   */\n      dup9\n        /* \"#utility.yul\":2955:2961   */\n      dup3\n        /* \"#utility.yul\":2944:2953   */\n      dup10\n        /* \"#utility.yul\":2940:2962   */\n      add\n        /* \"#utility.yul\":2919:2972   */\n      tag_42\n      jump\t// in\n    tag_143:\n        /* \"#utility.yul\":2909:2972   */\n      swap6\n      pop\n        /* \"#utility.yul\":2865:2982   */\n      pop\n        /* \"#utility.yul\":3021:3023   */\n      0x20\n        /* \"#utility.yul\":3047:3100   */\n      tag_144\n        /* \"#utility.yul\":3092:3099   */\n      dup9\n        /* \"#utility.yul\":3083:3089   */\n      dup3\n        /* \"#utility.yul\":3072:3081   */\n      dup10\n        /* \"#utility.yul\":3068:3090   */\n      add\n        /* \"#utility.yul\":3047:3100   */\n      tag_46\n      jump\t// in\n    tag_144:\n        /* \"#utility.yul\":3037:3100   */\n      swap5\n      pop\n        /* \"#utility.yul\":2992:3110   */\n      pop\n        /* \"#utility.yul\":3177:3179   */\n      0x40\n        /* \"#utility.yul\":3166:3175   */\n      dup7\n        /* \"#utility.yul\":3162:3180   */\n      add\n        /* \"#utility.yul\":3149:3181   */\n      calldataload\n        /* \"#utility.yul\":3208:3226   */\n      0xffffffffffffffff\n        /* \"#utility.yul\":3200:3206   */\n      dup2\n        /* \"#utility.yul\":3197:3227   */\n      gt\n        /* \"#utility.yul\":3194:3311   */\n      iszero\n      tag_145\n      jumpi\n        /* \"#utility.yul\":3230:3309   */\n      tag_146\n      tag_39\n      jump\t// in\n    tag_146:\n        /* \"#utility.yul\":3194:3311   */\n    tag_145:\n        /* \"#utility.yul\":3343:3423   */\n      tag_147\n        /* \"#utility.yul\":3415:3422   */\n      dup9\n        /* \"#utility.yul\":3406:3412   */\n      dup3\n        /* \"#utility.yul\":3395:3404   */\n      dup10\n        /* \"#utility.yul\":3391:3413   */\n      add\n        /* \"#utility.yul\":3343:3423   */\n      tag_50\n      jump\t// in\n    tag_147:\n        /* \"#utility.yul\":3325:3423   */\n      swap4\n      pop\n      swap4\n      pop\n        /* \"#utility.yul\":3120:3433   */\n      pop\n        /* \"#utility.yul\":3500:3502   */\n      0x60\n        /* \"#utility.yul\":3489:3498   */\n      dup7\n        /* \"#utility.yul\":3485:3503   */\n      add\n        /* \"#utility.yul\":3472:3504   */\n      calldataload\n        /* \"#utility.yul\":3531:3549   */\n      0xffffffffffffffff\n        /* \"#utility.yul\":3523:3529   */\n      dup2\n        /* \"#utility.yul\":3520:3550   */\n      gt\n        /* \"#utility.yul\":3517:3634   */\n      iszero\n      tag_148\n      jumpi\n        /* \"#utility.yul\":3553:3632   */\n      tag_149\n      tag_39\n      jump\t// in\n    tag_149:\n        /* \"#utility.yul\":3517:3634   */\n    tag_148:\n        /* \"#utility.yul\":3658:3736   */\n      tag_150\n        /* \"#utility.yul\":3728:3735   */\n      dup9\n        /* \"#utility.yul\":3719:3725   */\n      dup3\n        /* \"#utility.yul\":3708:3717   */\n      dup10\n        /* \"#utility.yul\":3704:3726   */\n      add\n        /* \"#utility.yul\":3658:3736   */\n      tag_52\n      jump\t// in\n    tag_150:\n        /* \"#utility.yul\":3648:3736   */\n      swap2\n      pop\n        /* \"#utility.yul\":3443:3746   */\n      pop\n        /* \"#utility.yul\":2548:3753   */\n      swap3\n      swap6\n      pop\n      swap3\n      swap6\n      swap1\n      swap4\n      pop\n      jump\t// out\n        /* \"#utility.yul\":3759:3857   */\n    tag_53:\n        /* \"#utility.yul\":3810:3816   */\n      0x00\n        /* \"#utility.yul\":3844:3849   */\n      dup2\n        /* \"#utility.yul\":3838:3850   */\n      mload\n        /* \"#utility.yul\":3828:3850   */\n      swap1\n      pop\n        /* \"#utility.yul\":3759:3857   */\n      swap2\n      swap1\n      pop\n      jump\t// out\n        /* \"#utility.yul\":3863:4031   */\n    tag_54:\n        /* \"#utility.yul\":3946:3957   */\n      0x00\n        /* \"#utility.yul\":3980:3986   */\n      dup3\n        /* \"#utility.yul\":3975:3978   */\n      dup3\n        /* \"#utility.yul\":3968:3987   */\n      mstore\n        /* \"#utility.yul\":4020:4024   */\n      0x20\n        /* \"#utility.yul\":4015:4018   */\n      dup3\n        /* \"#utility.yul\":4011:4025   */\n      add\n        /* \"#utility.yul\":3996:4025   */\n      swap1\n      pop\n        /* \"#utility.yul\":3863:4031   */\n      swap3\n      swap2\n      pop\n      pop\n      jump\t// out\n        /* \"#utility.yul\":4037:4283   */\n    tag_55:\n        /* \"#utility.yul\":4118:4119   */\n      0x00\n        /* \"#utility.yul\":4128:4241   */\n    tag_154:\n        /* \"#utility.yul\":4142:4148   */\n      dup4\n        /* \"#utility.yul\":4139:4140   */\n      dup2\n        /* \"#utility.yul\":4136:4149   */\n      lt\n        /* \"#utility.yul\":4128:4241   */\n      iszero\n      tag_156\n      jumpi\n        /* \"#utility.yul\":4227:4228   */\n      dup1\n        /* \"#utility.yul\":4222:4225   */\n      dup3\n        /* \"#utility.yul\":4218:4229   */\n      add\n        /* \"#utility.yul\":4212:4230   */\n      mload\n        /* \"#utility.yul\":4208:4209   */\n      dup2\n        /* \"#utility.yul\":4203:4206   */\n      dup5\n        /* \"#utility.yul\":4199:4210   */\n      add\n        /* \"#utility.yul\":4192:4231   */\n      mstore\n        /* \"#utility.yul\":4164:4166   */\n      0x20\n        /* \"#utility.yul\":4161:4162   */\n      dup2\n        /* \"#utility.yul\":4157:4167   */\n      add\n        /* \"#utility.yul\":4152:4167   */\n      swap1\n      pop\n        /* \"#utility.yul\":4128:4241   */\n      jump(tag_154)\n    tag_156:\n        /* \"#utility.yul\":4275:4276   */\n      0x00\n        /* \"#utility.yul\":4266:4272   */\n      dup5\n        /* \"#utility.yul\":4261:4264   */\n      dup5\n        /* \"#utility.yul\":4257:4273   */\n      add\n        /* \"#utility.yul\":4250:4277   */\n      mstore\n        /* \"#utility.yul\":4099:4283   */\n      pop\n        /* \"#utility.yul\":4037:4283   */\n      pop\n      pop\n      pop\n      jump\t// out\n        /* \"#utility.yul\":4289:4391   */\n    tag_56:\n        /* \"#utility.yul\":4330:4336   */\n      0x00\n        /* \"#utility.yul\":4381:4383   */\n      0x1f\n        /* \"#utility.yul\":4377:4384   */\n      not\n        /* \"#utility.yul\":4372:4374   */\n      0x1f\n        /* \"#utility.yul\":4365:4370   */\n      dup4\n        /* \"#utility.yul\":4361:4375   */\n      add\n        /* \"#utility.yul\":4357:4385   */\n      and\n        /* \"#utility.yul\":4347:4385   */\n      swap1\n      pop\n        /* \"#utility.yul\":4289:4391   */\n      swap2\n      swap1\n      pop\n      jump\t// out\n        /* \"#utility.yul\":4397:4770   */\n    tag_57:\n        /* \"#utility.yul\":4483:4486   */\n      0x00\n        /* \"#utility.yul\":4511:4549   */\n      tag_159\n        /* \"#utility.yul\":4543:4548   */\n      dup3\n        /* \"#utility.yul\":4511:4549   */\n      tag_53\n      jump\t// in\n    tag_159:\n        /* \"#utility.yul\":4565:4635   */\n      tag_160\n        /* \"#utility.yul\":4628:4634   */\n      dup2\n        /* \"#utility.yul\":4623:4626   */\n      dup6\n        /* \"#utility.yul\":4565:4635   */\n      tag_54\n      jump\t// in\n    tag_160:\n        /* \"#utility.yul\":4558:4635   */\n      swap4\n      pop\n        /* \"#utility.yul\":4644:4709   */\n      tag_161\n        /* \"#utility.yul\":4702:4708   */\n      dup2\n        /* \"#utility.yul\":4697:4700   */\n      dup6\n        /* \"#utility.yul\":4690:4694   */\n      0x20\n        /* \"#utility.yul\":4683:4688   */\n      dup7\n        /* \"#utility.yul\":4679:4695   */\n      add\n        /* \"#utility.yul\":4644:4709   */\n      tag_55\n      jump\t// in\n    tag_161:\n        /* \"#utility.yul\":4734:4763   */\n      tag_162\n        /* \"#utility.yul\":4756:4762   */\n      dup2\n        /* \"#utility.yul\":4734:4763   */\n      tag_56\n      jump\t// in\n    tag_162:\n        /* \"#utility.yul\":4729:4732   */\n      dup5\n        /* \"#utility.yul\":4725:4764   */\n      add\n        /* \"#utility.yul\":4718:4764   */\n      swap2\n      pop\n        /* \"#utility.yul\":4487:4770   */\n      pop\n        /* \"#utility.yul\":4397:4770   */\n      swap3\n      swap2\n      pop\n      pop\n      jump\t// out\n        /* \"#utility.yul\":4776:5085   */\n    tag_14:\n        /* \"#utility.yul\":4887:4891   */\n      0x00\n        /* \"#utility.yul\":4925:4927   */\n      0x20\n        /* \"#utility.yul\":4914:4923   */\n      dup3\n        /* \"#utility.yul\":4910:4928   */\n      add\n        /* \"#utility.yul\":4902:4928   */\n      swap1\n      pop\n        /* \"#utility.yul\":4974:4983   */\n      dup2\n        /* \"#utility.yul\":4968:4972   */\n      dup2\n        /* \"#utility.yul\":4964:4984   */\n      sub\n        /* \"#utility.yul\":4960:4961   */\n      0x00\n        /* \"#utility.yul\":4949:4958   */\n      dup4\n        /* \"#utility.yul\":4945:4962   */\n      add\n        /* \"#utility.yul\":4938:4985   */\n      mstore\n        /* \"#utility.yul\":5002:5078   */\n      tag_164\n        /* \"#utility.yul\":5073:5077   */\n      dup2\n        /* \"#utility.yul\":5064:5070   */\n      dup5\n        /* \"#utility.yul\":5002:5078   */\n      tag_57\n      jump\t// in\n    tag_164:\n        /* \"#utility.yul\":4994:5078   */\n      swap1\n      pop\n        /* \"#utility.yul\":4776:5085   */\n      swap3\n      swap2\n      pop\n      pop\n      jump\t// out\n        /* \"#utility.yul\":5104:5656   */\n    tag_58:\n        /* \"#utility.yul\":5161:5169   */\n      0x00\n        /* \"#utility.yul\":5171:5177   */\n      dup1\n        /* \"#utility.yul\":5221:5224   */\n      dup4\n        /* \"#utility.yul\":5214:5218   */\n      0x1f\n        /* \"#utility.yul\":5206:5212   */\n      dup5\n        /* \"#utility.yul\":5202:5219   */\n      add\n        /* \"#utility.yul\":5198:5225   */\n      slt\n        /* \"#utility.yul\":5188:5310   */\n      tag_166\n      jumpi\n        /* \"#utility.yul\":5229:5308   */\n      tag_167\n      tag_47\n      jump\t// in\n    tag_167:\n        /* \"#utility.yul\":5188:5310   */\n    tag_166:\n        /* \"#utility.yul\":5342:5348   */\n      dup3\n        /* \"#utility.yul\":5329:5349   */\n      calldataload\n        /* \"#utility.yul\":5319:5349   */\n      swap1\n      pop\n        /* \"#utility.yul\":5372:5390   */\n      0xffffffffffffffff\n        /* \"#utility.yul\":5364:5370   */\n      dup2\n        /* \"#utility.yul\":5361:5391   */\n      gt\n        /* \"#utility.yul\":5358:5475   */\n      iszero\n      tag_168\n      jumpi\n        /* \"#utility.yul\":5394:5473   */\n      tag_169\n      tag_48\n      jump\t// in\n    tag_169:\n        /* \"#utility.yul\":5358:5475   */\n    tag_168:\n        /* \"#utility.yul\":5508:5512   */\n      0x20\n        /* \"#utility.yul\":5500:5506   */\n      dup4\n        /* \"#utility.yul\":5496:5513   */\n      add\n        /* \"#utility.yul\":5484:5513   */\n      swap2\n      pop\n        /* \"#utility.yul\":5562:5565   */\n      dup4\n        /* \"#utility.yul\":5554:5558   */\n      0x01\n        /* \"#utility.yul\":5546:5552   */\n      dup3\n        /* \"#utility.yul\":5542:5559   */\n      mul\n        /* \"#utility.yul\":5532:5540   */\n      dup4\n        /* \"#utility.yul\":5528:5560   */\n      add\n        /* \"#utility.yul\":5525:5566   */\n      gt\n        /* \"#utility.yul\":5522:5650   */\n      iszero\n      tag_170\n      jumpi\n        /* \"#utility.yul\":5569:5648   */\n      tag_171\n      tag_49\n      jump\t// in\n    tag_171:\n        /* \"#utility.yul\":5522:5650   */\n    tag_170:\n        /* \"#utility.yul\":5104:5656   */\n      swap3\n      pop\n      swap3\n      swap1\n      pop\n      jump\t// out\n        /* \"#utility.yul\":5662:6189   */\n    tag_20:\n        /* \"#utility.yul\":5732:5738   */\n      0x00\n        /* \"#utility.yul\":5740:5746   */\n      dup1\n        /* \"#utility.yul\":5789:5791   */\n      0x20\n        /* \"#utility.yul\":5777:5786   */\n      dup4\n        /* \"#utility.yul\":5768:5775   */\n      dup6\n        /* \"#utility.yul\":5764:5787   */\n      sub\n        /* \"#utility.yul\":5760:5792   */\n      slt\n        /* \"#utility.yul\":5757:5876   */\n      iszero\n      tag_173\n      jumpi\n        /* \"#utility.yul\":5795:5874   */\n      tag_174\n      tag_38\n      jump\t// in\n    tag_174:\n        /* \"#utility.yul\":5757:5876   */\n    tag_173:\n        /* \"#utility.yul\":5943:5944   */\n      0x00\n        /* \"#utility.yul\":5932:5941   */\n      dup4\n        /* \"#utility.yul\":5928:5945   */\n      add\n        /* \"#utility.yul\":5915:5946   */\n      calldataload\n        /* \"#utility.yul\":5973:5991   */\n      0xffffffffffffffff\n        /* \"#utility.yul\":5965:5971   */\n      dup2\n        /* \"#utility.yul\":5962:5992   */\n      gt\n        /* \"#utility.yul\":5959:6076   */\n      iszero\n      tag_175\n      jumpi\n        /* \"#utility.yul\":5995:6074   */\n      tag_176\n      tag_39\n      jump\t// in\n    tag_176:\n        /* \"#utility.yul\":5959:6076   */\n    tag_175:\n        /* \"#utility.yul\":6108:6172   */\n      tag_177\n        /* \"#utility.yul\":6164:6171   */\n      dup6\n        /* \"#utility.yul\":6155:6161   */\n      dup3\n        /* \"#utility.yul\":6144:6153   */\n      dup7\n        /* \"#utility.yul\":6140:6162   */\n      add\n        /* \"#utility.yul\":6108:6172   */\n      tag_58\n      jump\t// in\n    tag_177:\n        /* \"#utility.yul\":6090:6172   */\n      swap3\n      pop\n      swap3\n      pop\n        /* \"#utility.yul\":5886:6182   */\n      pop\n        /* \"#utility.yul\":5662:6189   */\n      swap3\n      pop\n      swap3\n      swap1\n      pop\n      jump\t// out\n        /* \"#utility.yul\":6195:6313   */\n    tag_59:\n        /* \"#utility.yul\":6282:6306   */\n      tag_179\n        /* \"#utility.yul\":6300:6305   */\n      dup2\n        /* \"#utility.yul\":6282:6306   */\n      tag_40\n      jump\t// in\n    tag_179:\n        /* \"#utility.yul\":6277:6280   */\n      dup3\n        /* \"#utility.yul\":6270:6307   */\n      mstore\n        /* \"#utility.yul\":6195:6313   */\n      pop\n      pop\n      jump\t// out\n        /* \"#utility.yul\":6319:6437   */\n    tag_60:\n        /* \"#utility.yul\":6406:6430   */\n      tag_181\n        /* \"#utility.yul\":6424:6429   */\n      dup2\n        /* \"#utility.yul\":6406:6430   */\n      tag_44\n      jump\t// in\n    tag_181:\n        /* \"#utility.yul\":6401:6404   */\n      dup3\n        /* \"#utility.yul\":6394:6431   */\n      mstore\n        /* \"#utility.yul\":6319:6437   */\n      pop\n      pop\n      jump\t// out\n        /* \"#utility.yul\":6443:6557   */\n    tag_61:\n        /* \"#utility.yul\":6510:6516   */\n      0x00\n        /* \"#utility.yul\":6544:6549   */\n      dup2\n        /* \"#utility.yul\":6538:6550   */\n      mload\n        /* \"#utility.yul\":6528:6550   */\n      swap1\n      pop\n        /* \"#utility.yul\":6443:6557   */\n      swap2\n      swap1\n      pop\n      jump\t// out\n        /* \"#utility.yul\":6563:6747   */\n    tag_62:\n        /* \"#utility.yul\":6662:6673   */\n      0x00\n        /* \"#utility.yul\":6696:6702   */\n      dup3\n        /* \"#utility.yul\":6691:6694   */\n      dup3\n        /* \"#utility.yul\":6684:6703   */\n      mstore\n        /* \"#utility.yul\":6736:6740   */\n      0x20\n        /* \"#utility.yul\":6731:6734   */\n      dup3\n        /* \"#utility.yul\":6727:6741   */\n      add\n        /* \"#utility.yul\":6712:6741   */\n      swap1\n      pop\n        /* \"#utility.yul\":6563:6747   */\n      swap3\n      swap2\n      pop\n      pop\n      jump\t// out\n        /* \"#utility.yul\":6753:6885   */\n    tag_63:\n        /* \"#utility.yul\":6820:6824   */\n      0x00\n        /* \"#utility.yul\":6843:6846   */\n      dup2\n        /* \"#utility.yul\":6835:6846   */\n      swap1\n      pop\n        /* \"#utility.yul\":6873:6877   */\n      0x20\n        /* \"#utility.yul\":6868:6871   */\n      dup3\n        /* \"#utility.yul\":6864:6878   */\n      add\n        /* \"#utility.yul\":6856:6878   */\n      swap1\n      pop\n        /* \"#utility.yul\":6753:6885   */\n      swap2\n      swap1\n      pop\n      jump\t// out\n        /* \"#utility.yul\":6891:6999   */\n    tag_64:\n        /* \"#utility.yul\":6968:6992   */\n      tag_186\n        /* \"#utility.yul\":6986:6991   */\n      dup2\n        /* \"#utility.yul\":6968:6992   */\n      tag_40\n      jump\t// in\n    tag_186:\n        /* \"#utility.yul\":6963:6966   */\n      dup3\n        /* \"#utility.yul\":6956:6993   */\n      mstore\n        /* \"#utility.yul\":6891:6999   */\n      pop\n      pop\n      jump\t// out\n        /* \"#utility.yul\":7005:7184   */\n    tag_65:\n        /* \"#utility.yul\":7074:7084   */\n      0x00\n        /* \"#utility.yul\":7095:7141   */\n      tag_188\n        /* \"#utility.yul\":7137:7140   */\n      dup4\n        /* \"#utility.yul\":7129:7135   */\n      dup4\n        /* \"#utility.yul\":7095:7141   */\n      tag_64\n      jump\t// in\n    tag_188:\n        /* \"#utility.yul\":7173:7177   */\n      0x20\n        /* \"#utility.yul\":7168:7171   */\n      dup4\n        /* \"#utility.yul\":7164:7178   */\n      add\n        /* \"#utility.yul\":7150:7178   */\n      swap1\n      pop\n        /* \"#utility.yul\":7005:7184   */\n      swap3\n      swap2\n      pop\n      pop\n      jump\t// out\n        /* \"#utility.yul\":7190:7303   */\n    tag_66:\n        /* \"#utility.yul\":7260:7264   */\n      0x00\n        /* \"#utility.yul\":7292:7296   */\n      0x20\n        /* \"#utility.yul\":7287:7290   */\n      dup3\n        /* \"#utility.yul\":7283:7297   */\n      add\n        /* \"#utility.yul\":7275:7297   */\n      swap1\n      pop\n        /* \"#utility.yul\":7190:7303   */\n      swap2\n      swap1\n      pop\n      jump\t// out\n        /* \"#utility.yul\":7339:8071   */\n    tag_67:\n        /* \"#utility.yul\":7458:7461   */\n      0x00\n        /* \"#utility.yul\":7487:7541   */\n      tag_191\n        /* \"#utility.yul\":7535:7540   */\n      dup3\n        /* \"#utility.yul\":7487:7541   */\n      tag_61\n      jump\t// in\n    tag_191:\n        /* \"#utility.yul\":7557:7643   */\n      tag_192\n        /* \"#utility.yul\":7636:7642   */\n      dup2\n        /* \"#utility.yul\":7631:7634   */\n      dup6\n        /* \"#utility.yul\":7557:7643   */\n      tag_62\n      jump\t// in\n    tag_192:\n        /* \"#utility.yul\":7550:7643   */\n      swap4\n      pop\n        /* \"#utility.yul\":7667:7723   */\n      tag_193\n        /* \"#utility.yul\":7717:7722   */\n      dup4\n        /* \"#utility.yul\":7667:7723   */\n      tag_63\n      jump\t// in\n    tag_193:\n        /* \"#utility.yul\":7746:7753   */\n      dup1\n        /* \"#utility.yul\":7777:7778   */\n      0x00\n        /* \"#utility.yul\":7762:8046   */\n    tag_194:\n        /* \"#utility.yul\":7787:7793   */\n      dup4\n        /* \"#utility.yul\":7784:7785   */\n      dup2\n        /* \"#utility.yul\":7781:7794   */\n      lt\n        /* \"#utility.yul\":7762:8046   */\n      iszero\n      tag_196\n      jumpi\n        /* \"#utility.yul\":7863:7869   */\n      dup2\n        /* \"#utility.yul\":7857:7870   */\n      mload\n        /* \"#utility.yul\":7890:7953   */\n      tag_197\n        /* \"#utility.yul\":7949:7952   */\n      dup9\n        /* \"#utility.yul\":7934:7947   */\n      dup3\n        /* \"#utility.yul\":7890:7953   */\n      tag_65\n      jump\t// in\n    tag_197:\n        /* \"#utility.yul\":7883:7953   */\n      swap8\n      pop\n        /* \"#utility.yul\":7976:8036   */\n      tag_198\n        /* \"#utility.yul\":8029:8035   */\n      dup4\n        /* \"#utility.yul\":7976:8036   */\n      tag_66\n      jump\t// in\n    tag_198:\n        /* \"#utility.yul\":7966:8036   */\n      swap3\n      pop\n        /* \"#utility.yul\":7822:8046   */\n      pop\n        /* \"#utility.yul\":7809:7810   */\n      0x01\n        /* \"#utility.yul\":7806:7807   */\n      dup2\n        /* \"#utility.yul\":7802:7811   */\n      add\n        /* \"#utility.yul\":7797:7811   */\n      swap1\n      pop\n        /* \"#utility.yul\":7762:8046   */\n      jump(tag_194)\n    tag_196:\n        /* \"#utility.yul\":7766:7780   */\n      pop\n        /* \"#utility.yul\":8062:8065   */\n      dup6\n        /* \"#utility.yul\":8055:8065   */\n      swap4\n      pop\n        /* \"#utility.yul\":7463:8071   */\n      pop\n      pop\n      pop\n        /* \"#utility.yul\":7339:8071   */\n      swap3\n      swap2\n      pop\n      pop\n      jump\t// out\n        /* \"#utility.yul\":8077:8176   */\n    tag_68:\n        /* \"#utility.yul\":8129:8135   */\n      0x00\n        /* \"#utility.yul\":8163:8168   */\n      dup2\n        /* \"#utility.yul\":8157:8169   */\n      mload\n        /* \"#utility.yul\":8147:8169   */\n      swap1\n      pop\n        /* \"#utility.yul\":8077:8176   */\n      swap2\n      swap1\n      pop\n      jump\t// out\n        /* \"#utility.yul\":8182:8341   */\n    tag_69:\n        /* \"#utility.yul\":8256:8267   */\n      0x00\n        /* \"#utility.yul\":8290:8296   */\n      dup3\n        /* \"#utility.yul\":8285:8288   */\n      dup3\n        /* \"#utility.yul\":8278:8297   */\n      mstore\n        /* \"#utility.yul\":8330:8334   */\n      0x20\n        /* \"#utility.yul\":8325:8328   */\n      dup3\n        /* \"#utility.yul\":8321:8335   */\n      add\n        /* \"#utility.yul\":8306:8335   */\n      swap1\n      pop\n        /* \"#utility.yul\":8182:8341   */\n      swap3\n      swap2\n      pop\n      pop\n      jump\t// out\n        /* \"#utility.yul\":8347:8704   */\n    tag_70:\n        /* \"#utility.yul\":8425:8428   */\n      0x00\n        /* \"#utility.yul\":8453:8492   */\n      tag_202\n        /* \"#utility.yul\":8486:8491   */\n      dup3\n        /* \"#utility.yul\":8453:8492   */\n      tag_68\n      jump\t// in\n    tag_202:\n        /* \"#utility.yul\":8508:8569   */\n      tag_203\n        /* \"#utility.yul\":8562:8568   */\n      dup2\n        /* \"#utility.yul\":8557:8560   */\n      dup6\n        /* \"#utility.yul\":8508:8569   */\n      tag_69\n      jump\t// in\n    tag_203:\n        /* \"#utility.yul\":8501:8569   */\n      swap4\n      pop\n        /* \"#utility.yul\":8578:8643   */\n      tag_204\n        /* \"#utility.yul\":8636:8642   */\n      dup2\n        /* \"#utility.yul\":8631:8634   */\n      dup6\n        /* \"#utility.yul\":8624:8628   */\n      0x20\n        /* \"#utility.yul\":8617:8622   */\n      dup7\n        /* \"#utility.yul\":8613:8629   */\n      add\n        /* \"#utility.yul\":8578:8643   */\n      tag_55\n      jump\t// in\n    tag_204:\n        /* \"#utility.yul\":8668:8697   */\n      tag_205\n        /* \"#utility.yul\":8690:8696   */\n      dup2\n        /* \"#utility.yul\":8668:8697   */\n      tag_56\n      jump\t// in\n    tag_205:\n        /* \"#utility.yul\":8663:8666   */\n      dup5\n        /* \"#utility.yul\":8659:8698   */\n      add\n        /* \"#utility.yul\":8652:8698   */\n      swap2\n      pop\n        /* \"#utility.yul\":8429:8704   */\n      pop\n        /* \"#utility.yul\":8347:8704   */\n      swap3\n      swap2\n      pop\n      pop\n      jump\t// out\n        /* \"#utility.yul\":8710:8814   */\n    tag_71:\n        /* \"#utility.yul\":8775:8781   */\n      0x00\n        /* \"#utility.yul\":8803:8807   */\n      0x02\n        /* \"#utility.yul\":8793:8807   */\n      swap1\n      pop\n        /* \"#utility.yul\":8710:8814   */\n      swap2\n      swap1\n      pop\n      jump\t// out\n        /* \"#utility.yul\":8820:8953   */\n    tag_72:\n        /* \"#utility.yul\":8907:8918   */\n      0x00\n        /* \"#utility.yul\":8944:8947   */\n      dup2\n        /* \"#utility.yul\":8929:8947   */\n      swap1\n      pop\n        /* \"#utility.yul\":8820:8953   */\n      swap3\n      swap2\n      pop\n      pop\n      jump\t// out\n        /* \"#utility.yul\":8959:9057   */\n    tag_73:\n        /* \"#utility.yul\":9024:9028   */\n      0x00\n        /* \"#utility.yul\":9047:9050   */\n      dup2\n        /* \"#utility.yul\":9039:9050   */\n      swap1\n      pop\n        /* \"#utility.yul\":8959:9057   */\n      swap2\n      swap1\n      pop\n      jump\t// out\n        /* \"#utility.yul\":9063:9174   */\n    tag_74:\n        /* \"#utility.yul\":9131:9135   */\n      0x00\n        /* \"#utility.yul\":9163:9167   */\n      0x20\n        /* \"#utility.yul\":9158:9161   */\n      dup3\n        /* \"#utility.yul\":9154:9168   */\n      add\n        /* \"#utility.yul\":9146:9168   */\n      swap1\n      pop\n        /* \"#utility.yul\":9063:9174   */\n      swap2\n      swap1\n      pop\n      jump\t// out\n        /* \"#utility.yul\":9212:9886   */\n    tag_75:\n        /* \"#utility.yul\":9338:9390   */\n      tag_211\n        /* \"#utility.yul\":9384:9389   */\n      dup2\n        /* \"#utility.yul\":9338:9390   */\n      tag_71\n      jump\t// in\n    tag_211:\n        /* \"#utility.yul\":9406:9480   */\n      tag_212\n        /* \"#utility.yul\":9473:9479   */\n      dup2\n        /* \"#utility.yul\":9468:9471   */\n      dup5\n        /* \"#utility.yul\":9406:9480   */\n      tag_72\n      jump\t// in\n    tag_212:\n        /* \"#utility.yul\":9399:9480   */\n      swap3\n      pop\n        /* \"#utility.yul\":9504:9558   */\n      tag_213\n        /* \"#utility.yul\":9552:9557   */\n      dup3\n        /* \"#utility.yul\":9504:9558   */\n      tag_73\n      jump\t// in\n    tag_213:\n        /* \"#utility.yul\":9581:9588   */\n      dup1\n        /* \"#utility.yul\":9612:9613   */\n      0x00\n        /* \"#utility.yul\":9597:9879   */\n    tag_214:\n        /* \"#utility.yul\":9622:9628   */\n      dup4\n        /* \"#utility.yul\":9619:9620   */\n      dup2\n        /* \"#utility.yul\":9616:9629   */\n      lt\n        /* \"#utility.yul\":9597:9879   */\n      iszero\n      tag_216\n      jumpi\n        /* \"#utility.yul\":9698:9704   */\n      dup2\n        /* \"#utility.yul\":9692:9705   */\n      mload\n        /* \"#utility.yul\":9725:9788   */\n      tag_217\n        /* \"#utility.yul\":9784:9787   */\n      dup8\n        /* \"#utility.yul\":9769:9782   */\n      dup3\n        /* \"#utility.yul\":9725:9788   */\n      tag_65\n      jump\t// in\n    tag_217:\n        /* \"#utility.yul\":9718:9788   */\n      swap7\n      pop\n        /* \"#utility.yul\":9811:9869   */\n      tag_218\n        /* \"#utility.yul\":9862:9868   */\n      dup4\n        /* \"#utility.yul\":9811:9869   */\n      tag_74\n      jump\t// in\n    tag_218:\n        /* \"#utility.yul\":9801:9869   */\n      swap3\n      pop\n        /* \"#utility.yul\":9657:9879   */\n      pop\n        /* \"#utility.yul\":9644:9645   */\n      0x01\n        /* \"#utility.yul\":9641:9642   */\n      dup2\n        /* \"#utility.yul\":9637:9646   */\n      add\n        /* \"#utility.yul\":9632:9646   */\n      swap1\n      pop\n        /* \"#utility.yul\":9597:9879   */\n      jump(tag_214)\n    tag_216:\n        /* \"#utility.yul\":9601:9615   */\n      pop\n        /* \"#utility.yul\":9314:9886   */\n      pop\n      pop\n      pop\n        /* \"#utility.yul\":9212:9886   */\n      pop\n      pop\n      jump\t// out\n        /* \"#utility.yul\":9954:10602   */\n    tag_76:\n        /* \"#utility.yul\":10069:10072   */\n      0x00\n        /* \"#utility.yul\":10105:10109   */\n      0x60\n        /* \"#utility.yul\":10100:10103   */\n      dup4\n        /* \"#utility.yul\":10096:10110   */\n      add\n        /* \"#utility.yul\":10192:10196   */\n      0x00\n        /* \"#utility.yul\":10185:10190   */\n      dup4\n        /* \"#utility.yul\":10181:10197   */\n      add\n        /* \"#utility.yul\":10175:10198   */\n      mload\n        /* \"#utility.yul\":10245:10248   */\n      dup5\n        /* \"#utility.yul\":10239:10243   */\n      dup3\n        /* \"#utility.yul\":10235:10249   */\n      sub\n        /* \"#utility.yul\":10228:10232   */\n      0x00\n        /* \"#utility.yul\":10223:10226   */\n      dup7\n        /* \"#utility.yul\":10219:10233   */\n      add\n        /* \"#utility.yul\":10212:10250   */\n      mstore\n        /* \"#utility.yul\":10271:10344   */\n      tag_220\n        /* \"#utility.yul\":10339:10343   */\n      dup3\n        /* \"#utility.yul\":10325:10337   */\n      dup3\n        /* \"#utility.yul\":10271:10344   */\n      tag_70\n      jump\t// in\n    tag_220:\n        /* \"#utility.yul\":10263:10344   */\n      swap2\n      pop\n        /* \"#utility.yul\":10120:10355   */\n      pop\n        /* \"#utility.yul\":10437:10441   */\n      0x20\n        /* \"#utility.yul\":10430:10435   */\n      dup4\n        /* \"#utility.yul\":10426:10442   */\n      add\n        /* \"#utility.yul\":10420:10443   */\n      mload\n        /* \"#utility.yul\":10456:10565   */\n      tag_221\n        /* \"#utility.yul\":10559:10563   */\n      0x20\n        /* \"#utility.yul\":10554:10557   */\n      dup7\n        /* \"#utility.yul\":10550:10564   */\n      add\n        /* \"#utility.yul\":10536:10548   */\n      dup3\n        /* \"#utility.yul\":10456:10565   */\n      tag_75\n      jump\t// in\n    tag_221:\n        /* \"#utility.yul\":10365:10575   */\n      pop\n        /* \"#utility.yul\":10592:10596   */\n      dup1\n        /* \"#utility.yul\":10585:10596   */\n      swap2\n      pop\n        /* \"#utility.yul\":10074:10602   */\n      pop\n        /* \"#utility.yul\":9954:10602   */\n      swap3\n      swap2\n      pop\n      pop\n      jump\t// out\n        /* \"#utility.yul\":10608:11455   */\n    tag_23:\n        /* \"#utility.yul\":10881:10885   */\n      0x00\n        /* \"#utility.yul\":10919:10922   */\n      0x80\n        /* \"#utility.yul\":10908:10917   */\n      dup3\n        /* \"#utility.yul\":10904:10923   */\n      add\n        /* \"#utility.yul\":10896:10923   */\n      swap1\n      pop\n        /* \"#utility.yul\":10933:11004   */\n      tag_223\n        /* \"#utility.yul\":11001:11002   */\n      0x00\n        /* \"#utility.yul\":10990:10999   */\n      dup4\n        /* \"#utility.yul\":10986:11003   */\n      add\n        /* \"#utility.yul\":10977:10983   */\n      dup8\n        /* \"#utility.yul\":10933:11004   */\n      tag_59\n      jump\t// in\n    tag_223:\n        /* \"#utility.yul\":11014:11086   */\n      tag_224\n        /* \"#utility.yul\":11082:11084   */\n      0x20\n        /* \"#utility.yul\":11071:11080   */\n      dup4\n        /* \"#utility.yul\":11067:11085   */\n      add\n        /* \"#utility.yul\":11058:11064   */\n      dup7\n        /* \"#utility.yul\":11014:11086   */\n      tag_60\n      jump\t// in\n    tag_224:\n        /* \"#utility.yul\":11133:11142   */\n      dup2\n        /* \"#utility.yul\":11127:11131   */\n      dup2\n        /* \"#utility.yul\":11123:11143   */\n      sub\n        /* \"#utility.yul\":11118:11120   */\n      0x40\n        /* \"#utility.yul\":11107:11116   */\n      dup4\n        /* \"#utility.yul\":11103:11121   */\n      add\n        /* \"#utility.yul\":11096:11144   */\n      mstore\n        /* \"#utility.yul\":11161:11269   */\n      tag_225\n        /* \"#utility.yul\":11264:11268   */\n      dup2\n        /* \"#utility.yul\":11255:11261   */\n      dup6\n        /* \"#utility.yul\":11161:11269   */\n      tag_67\n      jump\t// in\n    tag_225:\n        /* \"#utility.yul\":11153:11269   */\n      swap1\n      pop\n        /* \"#utility.yul\":11316:11325   */\n      dup2\n        /* \"#utility.yul\":11310:11314   */\n      dup2\n        /* \"#utility.yul\":11306:11326   */\n      sub\n        /* \"#utility.yul\":11301:11303   */\n      0x60\n        /* \"#utility.yul\":11290:11299   */\n      dup4\n        /* \"#utility.yul\":11286:11304   */\n      add\n        /* \"#utility.yul\":11279:11327   */\n      mstore\n        /* \"#utility.yul\":11344:11448   */\n      tag_226\n        /* \"#utility.yul\":11443:11447   */\n      dup2\n        /* \"#utility.yul\":11434:11440   */\n      dup5\n        /* \"#utility.yul\":11344:11448   */\n      tag_76\n      jump\t// in\n    tag_226:\n        /* \"#utility.yul\":11336:11448   */\n      swap1\n      pop\n        /* \"#utility.yul\":10608:11455   */\n      swap6\n      swap5\n      pop\n      pop\n      pop\n      pop\n      pop\n      jump\t// out\n        /* \"#utility.yul\":11461:11578   */\n    tag_77:\n        /* \"#utility.yul\":11570:11571   */\n      0x00\n        /* \"#utility.yul\":11567:11568   */\n      dup1\n        /* \"#utility.yul\":11560:11572   */\n      revert\n        /* \"#utility.yul\":11584:11682   */\n    tag_78:\n        /* \"#utility.yul\":11668:11674   */\n      dup3\n        /* \"#utility.yul\":11663:11666   */\n      dup2\n        /* \"#utility.yul\":11658:11661   */\n      dup4\n        /* \"#utility.yul\":11645:11675   */\n      calldatacopy\n        /* \"#utility.yul\":11584:11682   */\n      pop\n      pop\n      pop\n      jump\t// out\n        /* \"#utility.yul\":11718:12255   */\n    tag_79:\n        /* \"#utility.yul\":11846:11849   */\n      0x00\n        /* \"#utility.yul\":11867:11953   */\n      tag_230\n        /* \"#utility.yul\":11946:11952   */\n      dup4\n        /* \"#utility.yul\":11941:11944   */\n      dup6\n        /* \"#utility.yul\":11867:11953   */\n      tag_62\n      jump\t// in\n    tag_230:\n        /* \"#utility.yul\":11860:11953   */\n      swap4\n      pop\n        /* \"#utility.yul\":11977:12043   */\n      0x07ffffffffffffffffffffffffffffffffffffffffffffffffffffffffffffff\n        /* \"#utility.yul\":11969:11975   */\n      dup4\n        /* \"#utility.yul\":11966:12044   */\n      gt\n        /* \"#utility.yul\":11963:12128   */\n      iszero\n      tag_231\n      jumpi\n        /* \"#utility.yul\":12047:12126   */\n      tag_232\n      tag_77\n      jump\t// in\n    tag_232:\n        /* \"#utility.yul\":11963:12128   */\n    tag_231:\n        /* \"#utility.yul\":12159:12163   */\n      0x20\n        /* \"#utility.yul\":12151:12157   */\n      dup4\n        /* \"#utility.yul\":12147:12164   */\n      mul\n        /* \"#utility.yul\":12137:12164   */\n      swap3\n      pop\n        /* \"#utility.yul\":12174:12217   */\n      tag_233\n        /* \"#utility.yul\":12210:12216   */\n      dup4\n        /* \"#utility.yul\":12205:12208   */\n      dup6\n        /* \"#utility.yul\":12198:12203   */\n      dup5\n        /* \"#utility.yul\":12174:12217   */\n      tag_78\n      jump\t// in\n    tag_233:\n        /* \"#utility.yul\":12242:12248   */\n      dup3\n        /* \"#utility.yul\":12237:12240   */\n      dup5\n        /* \"#utility.yul\":12233:12249   */\n      add\n        /* \"#utility.yul\":12226:12249   */\n      swap1\n      pop\n        /* \"#utility.yul\":11718:12255   */\n      swap4\n      swap3\n      pop\n      pop\n      pop\n      jump\t// out\n        /* \"#utility.yul\":12261:12378   */\n    tag_80:\n        /* \"#utility.yul\":12370:12371   */\n      0x00\n        /* \"#utility.yul\":12367:12368   */\n      dup1\n        /* \"#utility.yul\":12360:12372   */\n      revert\n        /* \"#utility.yul\":12384:12501   */\n    tag_81:\n        /* \"#utility.yul\":12493:12494   */\n      0x00\n        /* \"#utility.yul\":12490:12491   */\n      dup1\n        /* \"#utility.yul\":12483:12495   */\n      revert\n        /* \"#utility.yul\":12507:12624   */\n    tag_82:\n        /* \"#utility.yul\":12616:12617   */\n      0x00\n        /* \"#utility.yul\":12613:12614   */\n      dup1\n        /* \"#utility.yul\":12606:12618   */\n      revert\n        /* \"#utility.yul\":12630:13342   */\n    tag_83:\n        /* \"#utility.yul\":12695:12700   */\n      0x00\n        /* \"#utility.yul\":12702:12708   */\n      dup1\n        /* \"#utility.yul\":12758:12761   */\n      dup4\n        /* \"#utility.yul\":12745:12762   */\n      calldataload\n        /* \"#utility.yul\":12850:12851   */\n      0x01\n        /* \"#utility.yul\":12844:12848   */\n      0x20\n        /* \"#utility.yul\":12840:12852   */\n      sub\n        /* \"#utility.yul\":12829:12837   */\n      dup5\n        /* \"#utility.yul\":12813:12827   */\n      calldatasize\n        /* \"#utility.yul\":12809:12838   */\n      sub\n        /* \"#utility.yul\":12805:12853   */\n      sub\n        /* \"#utility.yul\":12785:12803   */\n      dup2\n        /* \"#utility.yul\":12781:12854   */\n      slt\n        /* \"#utility.yul\":12771:12939   */\n      tag_238\n      jumpi\n        /* \"#utility.yul\":12858:12937   */\n      tag_239\n      tag_82\n      jump\t// in\n    tag_239:\n        /* \"#utility.yul\":12771:12939   */\n    tag_238:\n        /* \"#utility.yul\":12981:12989   */\n      dup4\n        /* \"#utility.yul\":12961:12979   */\n      dup2\n        /* \"#utility.yul\":12957:12990   */\n      add\n        /* \"#utility.yul\":12948:12990   */\n      swap3\n      pop\n        /* \"#utility.yul\":13023:13028   */\n      dup3\n        /* \"#utility.yul\":13010:13029   */\n      calldataload\n        /* \"#utility.yul\":13000:13029   */\n      swap2\n      pop\n        /* \"#utility.yul\":13058:13062   */\n      0x20\n        /* \"#utility.yul\":13051:13056   */\n      dup4\n        /* \"#utility.yul\":13047:13063   */\n      add\n        /* \"#utility.yul\":13038:13063   */\n      swap3\n      pop\n        /* \"#utility.yul\":13086:13104   */\n      0xffffffffffffffff\n        /* \"#utility.yul\":13078:13084   */\n      dup3\n        /* \"#utility.yul\":13075:13105   */\n      gt\n        /* \"#utility.yul\":13072:13189   */\n      iszero\n      tag_240\n      jumpi\n        /* \"#utility.yul\":13108:13187   */\n      tag_241\n      tag_80\n      jump\t// in\n    tag_241:\n        /* \"#utility.yul\":13072:13189   */\n    tag_240:\n        /* \"#utility.yul\":13244:13248   */\n      0x01\n        /* \"#utility.yul\":13236:13242   */\n      dup3\n        /* \"#utility.yul\":13232:13249   */\n      mul\n        /* \"#utility.yul\":13216:13230   */\n      calldatasize\n        /* \"#utility.yul\":13212:13250   */\n      sub\n        /* \"#utility.yul\":13205:13210   */\n      dup4\n        /* \"#utility.yul\":13201:13251   */\n      sgt\n        /* \"#utility.yul\":13198:13335   */\n      iszero\n      tag_242\n      jumpi\n        /* \"#utility.yul\":13254:13333   */\n      tag_243\n      tag_81\n      jump\t// in\n    tag_243:\n        /* \"#utility.yul\":13198:13335   */\n    tag_242:\n        /* \"#utility.yul\":12709:13342   */\n      pop\n        /* \"#utility.yul\":12630:13342   */\n      swap3\n      pop\n      swap3\n      swap1\n      pop\n      jump\t// out\n        /* \"#utility.yul\":13348:13494   */\n    tag_84:\n        /* \"#utility.yul\":13445:13451   */\n      dup3\n        /* \"#utility.yul\":13440:13443   */\n      dup2\n        /* \"#utility.yul\":13435:13438   */\n      dup4\n        /* \"#utility.yul\":13422:13452   */\n      calldatacopy\n        /* \"#utility.yul\":13486:13487   */\n      0x00\n        /* \"#utility.yul\":13477:13483   */\n      dup4\n        /* \"#utility.yul\":13472:13475   */\n      dup4\n        /* \"#utility.yul\":13468:13484   */\n      add\n        /* \"#utility.yul\":13461:13488   */\n      mstore\n        /* \"#utility.yul\":13348:13494   */\n      pop\n      pop\n      pop\n      jump\t// out\n        /* \"#utility.yul\":13524:13821   */\n    tag_85:\n        /* \"#utility.yul\":13612:13615   */\n      0x00\n        /* \"#utility.yul\":13633:13694   */\n      tag_246\n        /* \"#utility.yul\":13687:13693   */\n      dup4\n        /* \"#utility.yul\":13682:13685   */\n      dup6\n        /* \"#utility.yul\":13633:13694   */\n      tag_69\n      jump\t// in\n    tag_246:\n        /* \"#utility.yul\":13626:13694   */\n      swap4\n      pop\n        /* \"#utility.yul\":13704:13760   */\n      tag_247\n        /* \"#utility.yul\":13753:13759   */\n      dup4\n        /* \"#utility.yul\":13748:13751   */\n      dup6\n        /* \"#utility.yul\":13741:13746   */\n      dup5\n        /* \"#utility.yul\":13704:13760   */\n      tag_84\n      jump\t// in\n    tag_247:\n        /* \"#utility.yul\":13785:13814   */\n      tag_248\n        /* \"#utility.yul\":13807:13813   */\n      dup4\n        /* \"#utility.yul\":13785:13814   */\n      tag_56\n      jump\t// in\n    tag_248:\n        /* \"#utility.yul\":13780:13783   */\n      dup5\n        /* \"#utility.yul\":13776:13815   */\n      add\n        /* \"#utility.yul\":13769:13815   */\n      swap1\n      pop\n        /* \"#utility.yul\":13524:13821   */\n      swap4\n      swap3\n      pop\n      pop\n      pop\n      jump\t// out\n        /* \"#utility.yul\":13827:13938   */\n    tag_86:\n        /* \"#utility.yul\":13904:13909   */\n      0x00\n        /* \"#utility.yul\":13929:13932   */\n      dup3\n        /* \"#utility.yul\":13920:13932   */\n      swap1\n      pop\n        /* \"#utility.yul\":13827:13938   */\n      swap3\n      swap2\n      pop\n      pop\n      jump\t// out\n        /* \"#utility.yul\":13976:14136   */\n    tag_87:\n        /* \"#utility.yul\":14089:14130   */\n      tag_251\n        /* \"#utility.yul\":14125:14129   */\n      0x40\n        /* \"#utility.yul\":14120:14123   */\n      dup4\n        /* \"#utility.yul\":14113:14118   */\n      dup4\n        /* \"#utility.yul\":14089:14130   */\n      tag_78\n      jump\t// in\n    tag_251:\n        /* \"#utility.yul\":13976:14136   */\n      pop\n      pop\n      jump\t// out\n        /* \"#utility.yul\":14204:14977   */\n    tag_88:\n        /* \"#utility.yul\":14321:14324   */\n      0x00\n        /* \"#utility.yul\":14357:14361   */\n      0x60\n        /* \"#utility.yul\":14352:14355   */\n      dup4\n        /* \"#utility.yul\":14348:14362   */\n      add\n        /* \"#utility.yul\":14441:14503   */\n      tag_253\n        /* \"#utility.yul\":14497:14501   */\n      0x00\n        /* \"#utility.yul\":14490:14495   */\n      dup5\n        /* \"#utility.yul\":14486:14502   */\n      add\n        /* \"#utility.yul\":14479:14484   */\n      dup5\n        /* \"#utility.yul\":14441:14503   */\n      tag_83\n      jump\t// in\n    tag_253:\n        /* \"#utility.yul\":14550:14553   */\n      dup6\n        /* \"#utility.yul\":14544:14548   */\n      dup4\n        /* \"#utility.yul\":14540:14554   */\n      sub\n        /* \"#utility.yul\":14533:14537   */\n      0x00\n        /* \"#utility.yul\":14528:14531   */\n      dup8\n        /* \"#utility.yul\":14524:14538   */\n      add\n        /* \"#utility.yul\":14517:14555   */\n      mstore\n        /* \"#utility.yul\":14576:14665   */\n      tag_254\n        /* \"#utility.yul\":14660:14664   */\n      dup4\n        /* \"#utility.yul\":14646:14658   */\n      dup3\n        /* \"#utility.yul\":14632:14644   */\n      dup5\n        /* \"#utility.yul\":14576:14665   */\n      tag_85\n      jump\t// in\n    tag_254:\n        /* \"#utility.yul\":14568:14665   */\n      swap3\n      pop\n        /* \"#utility.yul\":14372:14676   */\n      pop\n      pop\n        /* \"#utility.yul\":14741:14816   */\n      tag_255\n        /* \"#utility.yul\":14810:14814   */\n      0x20\n        /* \"#utility.yul\":14803:14808   */\n      dup5\n        /* \"#utility.yul\":14799:14815   */\n      add\n        /* \"#utility.yul\":14792:14797   */\n      dup5\n        /* \"#utility.yul\":14741:14816   */\n      tag_86\n      jump\t// in\n    tag_255:\n        /* \"#utility.yul\":14829:14940   */\n      tag_256\n        /* \"#utility.yul\":14934:14938   */\n      0x20\n        /* \"#utility.yul\":14929:14932   */\n      dup7\n        /* \"#utility.yul\":14925:14939   */\n      add\n        /* \"#utility.yul\":14911:14923   */\n      dup3\n        /* \"#utility.yul\":14829:14940   */\n      tag_87\n      jump\t// in\n    tag_256:\n        /* \"#utility.yul\":14686:14950   */\n      pop\n        /* \"#utility.yul\":14967:14971   */\n      dup1\n        /* \"#utility.yul\":14960:14971   */\n      swap2\n      pop\n        /* \"#utility.yul\":14326:14977   */\n      pop\n        /* \"#utility.yul\":14204:14977   */\n      swap3\n      swap2\n      pop\n      pop\n      jump\t// out\n        /* \"#utility.yul\":14983:15854   */\n    tag_26:\n        /* \"#utility.yul\":15268:15272   */\n      0x00\n        /* \"#utility.yul\":15306:15309   */\n      0x80\n        /* \"#utility.yul\":15295:15304   */\n      dup3\n        /* \"#utility.yul\":15291:15310   */\n      add\n        /* \"#utility.yul\":15283:15310   */\n      swap1\n      pop\n        /* \"#utility.yul\":15320:15391   */\n      tag_258\n        /* \"#utility.yul\":15388:15389   */\n      0x00\n        /* \"#utility.yul\":15377:15386   */\n      dup4\n        /* \"#utility.yul\":15373:15390   */\n      add\n        /* \"#utility.yul\":15364:15370   */\n      dup9\n        /* \"#utility.yul\":15320:15391   */\n      tag_59\n      jump\t// in\n    tag_258:\n        /* \"#utility.yul\":15401:15473   */\n      tag_259\n        /* \"#utility.yul\":15469:15471   */\n      0x20\n        /* \"#utility.yul\":15458:15467   */\n      dup4\n        /* \"#utility.yul\":15454:15472   */\n      add\n        /* \"#utility.yul\":15445:15451   */\n      dup8\n        /* \"#utility.yul\":15401:15473   */\n      tag_60\n      jump\t// in\n    tag_259:\n        /* \"#utility.yul\":15520:15529   */\n      dup2\n        /* \"#utility.yul\":15514:15518   */\n      dup2\n        /* \"#utility.yul\":15510:15530   */\n      sub\n        /* \"#utility.yul\":15505:15507   */\n      0x40\n        /* \"#utility.yul\":15494:15503   */\n      dup4\n        /* \"#utility.yul\":15490:15508   */\n      add\n        /* \"#utility.yul\":15483:15531   */\n      mstore\n        /* \"#utility.yul\":15548:15666   */\n      tag_260\n        /* \"#utility.yul\":15661:15665   */\n      dup2\n        /* \"#utility.yul\":15652:15658   */\n      dup6\n        /* \"#utility.yul\":15644:15650   */\n      dup8\n        /* \"#utility.yul\":15548:15666   */\n      tag_79\n      jump\t// in\n    tag_260:\n        /* \"#utility.yul\":15540:15666   */\n      swap1\n      pop\n        /* \"#utility.yul\":15713:15722   */\n      dup2\n        /* \"#utility.yul\":15707:15711   */\n      dup2\n        /* \"#utility.yul\":15703:15723   */\n      sub\n        /* \"#utility.yul\":15698:15700   */\n      0x60\n        /* \"#utility.yul\":15687:15696   */\n      dup4\n        /* \"#utility.yul\":15683:15701   */\n      add\n        /* \"#utility.yul\":15676:15724   */\n      mstore\n        /* \"#utility.yul\":15741:15847   */\n      tag_261\n        /* \"#utility.yul\":15842:15846   */\n      dup2\n        /* \"#utility.yul\":15833:15839   */\n      dup5\n        /* \"#utility.yul\":15741:15847   */\n      tag_88\n      jump\t// in\n    tag_261:\n        /* \"#utility.yul\":15733:15847   */\n      swap1\n      pop\n        /* \"#utility.yul\":14983:15854   */\n      swap7\n      swap6\n      pop\n      pop\n      pop\n      pop\n      pop\n      pop\n      jump\t// out\n        /* \"#utility.yul\":15860:15964   */\n    tag_89:\n        /* \"#utility.yul\":15905:15912   */\n      0x00\n        /* \"#utility.yul\":15934:15958   */\n      tag_263\n        /* \"#utility.yul\":15952:15957   */\n      dup3\n        /* \"#utility.yul\":15934:15958   */\n      tag_43\n      jump\t// in\n    tag_263:\n        /* \"#utility.yul\":15923:15958   */\n      swap1\n      pop\n        /* \"#utility.yul\":15860:15964   */\n      swap2\n      swap1\n      pop\n      jump\t// out\n        /* \"#utility.yul\":15970:16108   */\n    tag_90:\n        /* \"#utility.yul\":16051:16083   */\n      tag_265\n        /* \"#utility.yul\":16077:16082   */\n      dup2\n        /* \"#utility.yul\":16051:16083   */\n      tag_89\n      jump\t// in\n    tag_265:\n        /* \"#utility.yul\":16044:16049   */\n      dup2\n        /* \"#utility.yul\":16041:16084   */\n      eq\n        /* \"#utility.yul\":16031:16102   */\n      tag_266\n      jumpi\n        /* \"#utility.yul\":16098:16099   */\n      0x00\n        /* \"#utility.yul\":16095:16096   */\n      dup1\n        /* \"#utility.yul\":16088:16100   */\n      revert\n        /* \"#utility.yul\":16031:16102   */\n    tag_266:\n        /* \"#utility.yul\":15970:16108   */\n      pop\n      jump\t// out\n        /* \"#utility.yul\":16114:16269   */\n    tag_91:\n        /* \"#utility.yul\":16168:16173   */\n      0x00\n        /* \"#utility.yul\":16206:16212   */\n      dup2\n        /* \"#utility.yul\":16193:16213   */\n      calldataload\n        /* \"#utility.yul\":16184:16213   */\n      swap1\n      pop\n        /* \"#utility.yul\":16222:16263   */\n      tag_268\n        /* \"#utility.yul\":16257:16262   */\n      dup2\n        /* \"#utility.yul\":16222:16263   */\n      tag_90\n      jump\t// in\n    tag_268:\n        /* \"#utility.yul\":16114:16269   */\n      swap3\n      swap2\n      pop\n      pop\n      jump\t// out\n        /* \"#utility.yul\":16275:16455   */\n    tag_92:\n        /* \"#utility.yul\":16323:16400   */\n      0x4e487b7100000000000000000000000000000000000000000000000000000000\n        /* \"#utility.yul\":16320:16321   */\n      0x00\n        /* \"#utility.yul\":16313:16401   */\n      mstore\n        /* \"#utility.yul\":16420:16424   */\n      0x41\n        /* \"#utility.yul\":16417:16418   */\n      0x04\n        /* \"#utility.yul\":16410:16425   */\n      mstore\n        /* \"#utility.yul\":16444:16448   */\n      0x24\n        /* \"#utility.yul\":16441:16442   */\n      0x00\n        /* \"#utility.yul\":16434:16449   */\n      revert\n        /* \"#utility.yul\":16461:16742   */\n    tag_93:\n        /* \"#utility.yul\":16544:16571   */\n      tag_271\n        /* \"#utility.yul\":16566:16570   */\n      dup3\n        /* \"#utility.yul\":16544:16571   */\n      tag_56\n      jump\t// in\n    tag_271:\n        /* \"#utility.yul\":16536:16542   */\n      dup2\n        /* \"#utility.yul\":16532:16572   */\n      add\n        /* \"#utility.yul\":16674:16680   */\n      dup2\n        /* \"#utility.yul\":16662:16672   */\n      dup2\n        /* \"#utility.yul\":16659:16681   */\n      lt\n        /* \"#utility.yul\":16638:16656   */\n      0xffffffffffffffff\n        /* \"#utility.yul\":16626:16636   */\n      dup3\n        /* \"#utility.yul\":16623:16657   */\n      gt\n        /* \"#utility.yul\":16620:16682   */\n      or\n        /* \"#utility.yul\":16617:16705   */\n      iszero\n      tag_272\n      jumpi\n        /* \"#utility.yul\":16685:16703   */\n      tag_273\n      tag_92\n      jump\t// in\n    tag_273:\n        /* \"#utility.yul\":16617:16705   */\n    tag_272:\n        /* \"#utility.yul\":16725:16735   */\n      dup1\n        /* \"#utility.yul\":16721:16723   */\n      0x40\n        /* \"#utility.yul\":16714:16736   */\n      mstore\n        /* \"#utility.yul\":16504:16742   */\n      pop\n        /* \"#utility.yul\":16461:16742   */\n      pop\n      pop\n      jump\t// out\n        /* \"#utility.yul\":16748:16877   */\n    tag_94:\n        /* \"#utility.yul\":16782:16788   */\n      0x00\n        /* \"#utility.yul\":16809:16829   */\n      tag_275\n      tag_37\n      jump\t// in\n    tag_275:\n        /* \"#utility.yul\":16799:16829   */\n      swap1\n      pop\n        /* \"#utility.yul\":16838:16871   */\n      tag_276\n        /* \"#utility.yul\":16866:16870   */\n      dup3\n        /* \"#utility.yul\":16858:16864   */\n      dup3\n        /* \"#utility.yul\":16838:16871   */\n      tag_93\n      jump\t// in\n    tag_276:\n        /* \"#utility.yul\":16748:16877   */\n      swap2\n      swap1\n      pop\n      jump\t// out\n        /* \"#utility.yul\":16883:17194   */\n    tag_95:\n        /* \"#utility.yul\":16960:16964   */\n      0x00\n        /* \"#utility.yul\":17050:17068   */\n      0xffffffffffffffff\n        /* \"#utility.yul\":17042:17048   */\n      dup3\n        /* \"#utility.yul\":17039:17069   */\n      gt\n        /* \"#utility.yul\":17036:17092   */\n      iszero\n      tag_278\n      jumpi\n        /* \"#utility.yul\":17072:17090   */\n      tag_279\n      tag_92\n      jump\t// in\n    tag_279:\n        /* \"#utility.yul\":17036:17092   */\n    tag_278:\n        /* \"#utility.yul\":17122:17126   */\n      0x20\n        /* \"#utility.yul\":17114:17120   */\n      dup3\n        /* \"#utility.yul\":17110:17127   */\n      mul\n        /* \"#utility.yul\":17102:17127   */\n      swap1\n      pop\n        /* \"#utility.yul\":17182:17186   */\n      0x20\n        /* \"#utility.yul\":17176:17180   */\n      dup2\n        /* \"#utility.yul\":17172:17187   */\n      add\n        /* \"#utility.yul\":17164:17187   */\n      swap1\n      pop\n        /* \"#utility.yul\":16883:17194   */\n      swap2\n      swap1\n      pop\n      jump\t// out\n        /* \"#utility.yul\":17217:17927   */\n    tag_96:\n        /* \"#utility.yul\":17313:17318   */\n      0x00\n        /* \"#utility.yul\":17338:17419   */\n      tag_281\n        /* \"#utility.yul\":17354:17418   */\n      tag_282\n        /* \"#utility.yul\":17411:17417   */\n      dup5\n        /* \"#utility.yul\":17354:17418   */\n      tag_95\n      jump\t// in\n    tag_282:\n        /* \"#utility.yul\":17338:17419   */\n      tag_94\n      jump\t// in\n    tag_281:\n        /* \"#utility.yul\":17329:17419   */\n      swap1\n      pop\n        /* \"#utility.yul\":17439:17444   */\n      dup1\n        /* \"#utility.yul\":17468:17474   */\n      dup4\n        /* \"#utility.yul\":17461:17466   */\n      dup3\n        /* \"#utility.yul\":17454:17475   */\n      mstore\n        /* \"#utility.yul\":17502:17506   */\n      0x20\n        /* \"#utility.yul\":17495:17500   */\n      dup3\n        /* \"#utility.yul\":17491:17507   */\n      add\n        /* \"#utility.yul\":17484:17507   */\n      swap1\n      pop\n        /* \"#utility.yul\":17555:17559   */\n      0x20\n        /* \"#utility.yul\":17547:17553   */\n      dup5\n        /* \"#utility.yul\":17543:17560   */\n      mul\n        /* \"#utility.yul\":17535:17541   */\n      dup4\n        /* \"#utility.yul\":17531:17561   */\n      add\n        /* \"#utility.yul\":17584:17587   */\n      dup6\n        /* \"#utility.yul\":17576:17582   */\n      dup2\n        /* \"#utility.yul\":17573:17588   */\n      gt\n        /* \"#utility.yul\":17570:17692   */\n      iszero\n      tag_283\n      jumpi\n        /* \"#utility.yul\":17603:17682   */\n      tag_284\n      tag_49\n      jump\t// in\n    tag_284:\n        /* \"#utility.yul\":17570:17692   */\n    tag_283:\n        /* \"#utility.yul\":17718:17724   */\n      dup4\n        /* \"#utility.yul\":17701:17921   */\n    tag_285:\n        /* \"#utility.yul\":17735:17741   */\n      dup2\n        /* \"#utility.yul\":17730:17733   */\n      dup2\n        /* \"#utility.yul\":17727:17742   */\n      lt\n        /* \"#utility.yul\":17701:17921   */\n      iszero\n      tag_287\n      jumpi\n        /* \"#utility.yul\":17810:17813   */\n      dup1\n        /* \"#utility.yul\":17839:17876   */\n      tag_288\n        /* \"#utility.yul\":17872:17875   */\n      dup9\n        /* \"#utility.yul\":17860:17870   */\n      dup3\n        /* \"#utility.yul\":17839:17876   */\n      tag_42\n      jump\t// in\n    tag_288:\n        /* \"#utility.yul\":17834:17837   */\n      dup5\n        /* \"#utility.yul\":17827:17877   */\n      mstore\n        /* \"#utility.yul\":17906:17910   */\n      0x20\n        /* \"#utility.yul\":17901:17904   */\n      dup5\n        /* \"#utility.yul\":17897:17911   */\n      add\n        /* \"#utility.yul\":17890:17911   */\n      swap4\n      pop\n        /* \"#utility.yul\":17777:17921   */\n      pop\n        /* \"#utility.yul\":17761:17765   */\n      0x20\n        /* \"#utility.yul\":17756:17759   */\n      dup2\n        /* \"#utility.yul\":17752:17766   */\n      add\n        /* \"#utility.yul\":17745:17766   */\n      swap1\n      pop\n        /* \"#utility.yul\":17701:17921   */\n      jump(tag_285)\n    tag_287:\n        /* \"#utility.yul\":17705:17726   */\n      pop\n        /* \"#utility.yul\":17319:17927   */\n      pop\n      pop\n        /* \"#utility.yul\":17217:17927   */\n      swap4\n      swap3\n      pop\n      pop\n      pop\n      jump\t// out\n        /* \"#utility.yul\":17950:18320   */\n    tag_97:\n        /* \"#utility.yul\":18021:18026   */\n      0x00\n        /* \"#utility.yul\":18070:18073   */\n      dup3\n        /* \"#utility.yul\":18063:18067   */\n      0x1f\n        /* \"#utility.yul\":18055:18061   */\n      dup4\n        /* \"#utility.yul\":18051:18068   */\n      add\n        /* \"#utility.yul\":18047:18074   */\n      slt\n        /* \"#utility.yul\":18037:18159   */\n      tag_290\n      jumpi\n        /* \"#utility.yul\":18078:18157   */\n      tag_291\n      tag_47\n      jump\t// in\n    tag_291:\n        /* \"#utility.yul\":18037:18159   */\n    tag_290:\n        /* \"#utility.yul\":18195:18201   */\n      dup2\n        /* \"#utility.yul\":18182:18202   */\n      calldataload\n        /* \"#utility.yul\":18220:18314   */\n      tag_292\n        /* \"#utility.yul\":18310:18313   */\n      dup5\n        /* \"#utility.yul\":18302:18308   */\n      dup3\n        /* \"#utility.yul\":18295:18299   */\n      0x20\n        /* \"#utility.yul\":18287:18293   */\n      dup7\n        /* \"#utility.yul\":18283:18300   */\n      add\n        /* \"#utility.yul\":18220:18314   */\n      tag_96\n      jump\t// in\n    tag_292:\n        /* \"#utility.yul\":18211:18314   */\n      swap2\n      pop\n        /* \"#utility.yul\":18027:18320   */\n      pop\n        /* \"#utility.yul\":17950:18320   */\n      swap3\n      swap2\n      pop\n      pop\n      jump\t// out\n        /* \"#utility.yul\":18326:18443   */\n    tag_98:\n        /* \"#utility.yul\":18435:18436   */\n      0x00\n        /* \"#utility.yul\":18432:18433   */\n      dup1\n        /* \"#utility.yul\":18425:18437   */\n      revert\n        /* \"#utility.yul\":18449:18566   */\n    tag_99:\n        /* \"#utility.yul\":18558:18559   */\n      0x00\n        /* \"#utility.yul\":18555:18556   */\n      dup1\n        /* \"#utility.yul\":18548:18560   */\n      revert\n        /* \"#utility.yul\":18572:18689   */\n    tag_100:\n        /* \"#utility.yul\":18681:18682   */\n      0x00\n        /* \"#utility.yul\":18678:18679   */\n      dup1\n        /* \"#utility.yul\":18671:18683   */\n      revert\n        /* \"#utility.yul\":18695:19003   */\n    tag_101:\n        /* \"#utility.yul\":18757:18761   */\n      0x00\n        /* \"#utility.yul\":18847:18865   */\n      0xffffffffffffffff\n        /* \"#utility.yul\":18839:18845   */\n      dup3\n        /* \"#utility.yul\":18836:18866   */\n      gt\n        /* \"#utility.yul\":18833:18889   */\n      iszero\n      tag_297\n      jumpi\n        /* \"#utility.yul\":18869:18887   */\n      tag_298\n      tag_92\n      jump\t// in\n    tag_298:\n        /* \"#utility.yul\":18833:18889   */\n    tag_297:\n        /* \"#utility.yul\":18907:18936   */\n      tag_299\n        /* \"#utility.yul\":18929:18935   */\n      dup3\n        /* \"#utility.yul\":18907:18936   */\n      tag_56\n      jump\t// in\n    tag_299:\n        /* \"#utility.yul\":18899:18936   */\n      swap1\n      pop\n        /* \"#utility.yul\":18991:18995   */\n      0x20\n        /* \"#utility.yul\":18985:18989   */\n      dup2\n        /* \"#utility.yul\":18981:18996   */\n      add\n        /* \"#utility.yul\":18973:18996   */\n      swap1\n      pop\n        /* \"#utility.yul\":18695:19003   */\n      swap2\n      swap1\n      pop\n      jump\t// out\n        /* \"#utility.yul\":19009:19434   */\n    tag_102:\n        /* \"#utility.yul\":19087:19092   */\n      0x00\n        /* \"#utility.yul\":19112:19178   */\n      tag_301\n        /* \"#utility.yul\":19128:19177   */\n      tag_302\n        /* \"#utility.yul\":19170:19176   */\n      dup5\n        /* \"#utility.yul\":19128:19177   */\n      tag_101\n      jump\t// in\n    tag_302:\n        /* \"#utility.yul\":19112:19178   */\n      tag_94\n      jump\t// in\n    tag_301:\n        /* \"#utility.yul\":19103:19178   */\n      swap1\n      pop\n        /* \"#utility.yul\":19201:19207   */\n      dup3\n        /* \"#utility.yul\":19194:19199   */\n      dup2\n        /* \"#utility.yul\":19187:19208   */\n      mstore\n        /* \"#utility.yul\":19239:19243   */\n      0x20\n        /* \"#utility.yul\":19232:19237   */\n      dup2\n        /* \"#utility.yul\":19228:19244   */\n      add\n        /* \"#utility.yul\":19277:19280   */\n      dup5\n        /* \"#utility.yul\":19268:19274   */\n      dup5\n        /* \"#utility.yul\":19263:19266   */\n      dup5\n        /* \"#utility.yul\":19259:19275   */\n      add\n        /* \"#utility.yul\":19256:19281   */\n      gt\n        /* \"#utility.yul\":19253:19365   */\n      iszero\n      tag_303\n      jumpi\n        /* \"#utility.yul\":19284:19363   */\n      tag_304\n      tag_100\n      jump\t// in\n    tag_304:\n        /* \"#utility.yul\":19253:19365   */\n    tag_303:\n        /* \"#utility.yul\":19374:19428   */\n      tag_305\n        /* \"#utility.yul\":19421:19427   */\n      dup5\n        /* \"#utility.yul\":19416:19419   */\n      dup3\n        /* \"#utility.yul\":19411:19414   */\n      dup6\n        /* \"#utility.yul\":19374:19428   */\n      tag_84\n      jump\t// in\n    tag_305:\n        /* \"#utility.yul\":19093:19434   */\n      pop\n        /* \"#utility.yul\":19009:19434   */\n      swap4\n      swap3\n      pop\n      pop\n      pop\n      jump\t// out\n        /* \"#utility.yul\":19454:19794   */\n    tag_103:\n        /* \"#utility.yul\":19510:19515   */\n      0x00\n        /* \"#utility.yul\":19559:19562   */\n      dup3\n        /* \"#utility.yul\":19552:19556   */\n      0x1f\n        /* \"#utility.yul\":19544:19550   */\n      dup4\n        /* \"#utility.yul\":19540:19557   */\n      add\n        /* \"#utility.yul\":19536:19563   */\n      slt\n        /* \"#utility.yul\":19526:19648   */\n      tag_307\n      jumpi\n        /* \"#utility.yul\":19567:19646   */\n      tag_308\n      tag_47\n      jump\t// in\n    tag_308:\n        /* \"#utility.yul\":19526:19648   */\n    tag_307:\n        /* \"#utility.yul\":19684:19690   */\n      dup2\n        /* \"#utility.yul\":19671:19691   */\n      calldataload\n        /* \"#utility.yul\":19709:19788   */\n      tag_309\n        /* \"#utility.yul\":19784:19787   */\n      dup5\n        /* \"#utility.yul\":19776:19782   */\n      dup3\n        /* \"#utility.yul\":19769:19773   */\n      0x20\n        /* \"#utility.yul\":19761:19767   */\n      dup7\n        /* \"#utility.yul\":19757:19774   */\n      add\n        /* \"#utility.yul\":19709:19788   */\n      tag_102\n      jump\t// in\n    tag_309:\n        /* \"#utility.yul\":19700:19788   */\n      swap2\n      pop\n        /* \"#utility.yul\":19516:19794   */\n      pop\n        /* \"#utility.yul\":19454:19794   */\n      swap3\n      swap2\n      pop\n      pop\n      jump\t// out\n        /* \"#utility.yul\":19800:20049   */\n    tag_104:\n        /* \"#utility.yul\":19875:19879   */\n      0x00\n        /* \"#utility.yul\":19965:19983   */\n      0xffffffffffffffff\n        /* \"#utility.yul\":19957:19963   */\n      dup3\n        /* \"#utility.yul\":19954:19984   */\n      gt\n        /* \"#utility.yul\":19951:20007   */\n      iszero\n      tag_311\n      jumpi\n        /* \"#utility.yul\":19987:20005   */\n      tag_312\n      tag_92\n      jump\t// in\n    tag_312:\n        /* \"#utility.yul\":19951:20007   */\n    tag_311:\n        /* \"#utility.yul\":20037:20041   */\n      0x20\n        /* \"#utility.yul\":20029:20035   */\n      dup3\n        /* \"#utility.yul\":20025:20042   */\n      mul\n        /* \"#utility.yul\":20017:20042   */\n      swap1\n      pop\n        /* \"#utility.yul\":19800:20049   */\n      swap2\n      swap1\n      pop\n      jump\t// out\n        /* \"#utility.yul\":20073:20716   */\n    tag_105:\n        /* \"#utility.yul\":20167:20172   */\n      0x00\n        /* \"#utility.yul\":20192:20271   */\n      tag_314\n        /* \"#utility.yul\":20208:20270   */\n      tag_315\n        /* \"#utility.yul\":20263:20269   */\n      dup5\n        /* \"#utility.yul\":20208:20270   */\n      tag_104\n      jump\t// in\n    tag_315:\n        /* \"#utility.yul\":20192:20271   */\n      tag_94\n      jump\t// in\n    tag_314:\n        /* \"#utility.yul\":20183:20271   */\n      swap1\n      pop\n        /* \"#utility.yul\":20291:20296   */\n      dup1\n        /* \"#utility.yul\":20344:20348   */\n      0x20\n        /* \"#utility.yul\":20336:20342   */\n      dup5\n        /* \"#utility.yul\":20332:20349   */\n      mul\n        /* \"#utility.yul\":20324:20330   */\n      dup4\n        /* \"#utility.yul\":20320:20350   */\n      add\n        /* \"#utility.yul\":20373:20376   */\n      dup6\n        /* \"#utility.yul\":20365:20371   */\n      dup2\n        /* \"#utility.yul\":20362:20377   */\n      gt\n        /* \"#utility.yul\":20359:20481   */\n      iszero\n      tag_316\n      jumpi\n        /* \"#utility.yul\":20392:20471   */\n      tag_317\n      tag_49\n      jump\t// in\n    tag_317:\n        /* \"#utility.yul\":20359:20481   */\n    tag_316:\n        /* \"#utility.yul\":20507:20513   */\n      dup4\n        /* \"#utility.yul\":20490:20710   */\n    tag_318:\n        /* \"#utility.yul\":20524:20530   */\n      dup2\n        /* \"#utility.yul\":20519:20522   */\n      dup2\n        /* \"#utility.yul\":20516:20531   */\n      lt\n        /* \"#utility.yul\":20490:20710   */\n      iszero\n      tag_320\n      jumpi\n        /* \"#utility.yul\":20599:20602   */\n      dup1\n        /* \"#utility.yul\":20628:20665   */\n      tag_321\n        /* \"#utility.yul\":20661:20664   */\n      dup9\n        /* \"#utility.yul\":20649:20659   */\n      dup3\n        /* \"#utility.yul\":20628:20665   */\n      tag_42\n      jump\t// in\n    tag_321:\n        /* \"#utility.yul\":20623:20626   */\n      dup5\n        /* \"#utility.yul\":20616:20666   */\n      mstore\n        /* \"#utility.yul\":20695:20699   */\n      0x20\n        /* \"#utility.yul\":20690:20693   */\n      dup5\n        /* \"#utility.yul\":20686:20700   */\n      add\n        /* \"#utility.yul\":20679:20700   */\n      swap4\n      pop\n        /* \"#utility.yul\":20566:20710   */\n      pop\n        /* \"#utility.yul\":20550:20554   */\n      0x20\n        /* \"#utility.yul\":20545:20548   */\n      dup2\n        /* \"#utility.yul\":20541:20555   */\n      add\n        /* \"#utility.yul\":20534:20555   */\n      swap1\n      pop\n        /* \"#utility.yul\":20490:20710   */\n      jump(tag_318)\n    tag_320:\n        /* \"#utility.yul\":20494:20515   */\n      pop\n        /* \"#utility.yul\":20173:20716   */\n      pop\n      pop\n        /* \"#utility.yul\":20073:20716   */\n      swap4\n      swap3\n      pop\n      pop\n      pop\n      jump\t// out\n        /* \"#utility.yul\":20740:21079   */\n    tag_106:\n        /* \"#utility.yul\":20809:20814   */\n      0x00\n        /* \"#utility.yul\":20858:20861   */\n      dup3\n        /* \"#utility.yul\":20851:20855   */\n      0x1f\n        /* \"#utility.yul\":20843:20849   */\n      dup4\n        /* \"#utility.yul\":20839:20856   */\n      add\n        /* \"#utility.yul\":20835:20862   */\n      slt\n        /* \"#utility.yul\":20825:20947   */\n      tag_323\n      jumpi\n        /* \"#utility.yul\":20866:20945   */\n      tag_324\n      tag_47\n      jump\t// in\n    tag_324:\n        /* \"#utility.yul\":20825:20947   */\n    tag_323:\n        /* \"#utility.yul\":20970:20974   */\n      0x02\n        /* \"#utility.yul\":20992:21073   */\n      tag_325\n        /* \"#utility.yul\":21069:21072   */\n      dup5\n        /* \"#utility.yul\":21061:21067   */\n      dup3\n        /* \"#utility.yul\":21053:21059   */\n      dup6\n        /* \"#utility.yul\":20992:21073   */\n      tag_105\n      jump\t// in\n    tag_325:\n        /* \"#utility.yul\":20983:21073   */\n      swap2\n      pop\n        /* \"#utility.yul\":20815:21079   */\n      pop\n        /* \"#utility.yul\":20740:21079   */\n      swap3\n      swap2\n      pop\n      pop\n      jump\t// out\n        /* \"#utility.yul\":21118:21883   */\n    tag_107:\n        /* \"#utility.yul\":21190:21195   */\n      0x00\n        /* \"#utility.yul\":21234:21238   */\n      0x60\n        /* \"#utility.yul\":21222:21231   */\n      dup3\n        /* \"#utility.yul\":21217:21220   */\n      dup5\n        /* \"#utility.yul\":21213:21232   */\n      sub\n        /* \"#utility.yul\":21209:21239   */\n      slt\n        /* \"#utility.yul\":21206:21323   */\n      iszero\n      tag_327\n      jumpi\n        /* \"#utility.yul\":21242:21321   */\n      tag_328\n      tag_98\n      jump\t// in\n    tag_328:\n        /* \"#utility.yul\":21206:21323   */\n    tag_327:\n        /* \"#utility.yul\":21341:21362   */\n      tag_329\n        /* \"#utility.yul\":21357:21361   */\n      0x40\n        /* \"#utility.yul\":21341:21362   */\n      tag_94\n      jump\t// in\n    tag_329:\n        /* \"#utility.yul\":21332:21362   */\n      swap1\n      pop\n        /* \"#utility.yul\":21449:21450   */\n      0x00\n        /* \"#utility.yul\":21438:21447   */\n      dup3\n        /* \"#utility.yul\":21434:21451   */\n      add\n        /* \"#utility.yul\":21421:21452   */\n      calldataload\n        /* \"#utility.yul\":21479:21497   */\n      0xffffffffffffffff\n        /* \"#utility.yul\":21471:21477   */\n      dup2\n        /* \"#utility.yul\":21468:21498   */\n      gt\n        /* \"#utility.yul\":21465:21582   */\n      iszero\n      tag_330\n      jumpi\n        /* \"#utility.yul\":21501:21580   */\n      tag_331\n      tag_99\n      jump\t// in\n    tag_331:\n        /* \"#utility.yul\":21465:21582   */\n    tag_330:\n        /* \"#utility.yul\":21621:21680   */\n      tag_332\n        /* \"#utility.yul\":21676:21679   */\n      dup5\n        /* \"#utility.yul\":21667:21673   */\n      dup3\n        /* \"#utility.yul\":21656:21665   */\n      dup6\n        /* \"#utility.yul\":21652:21674   */\n      add\n        /* \"#utility.yul\":21621:21680   */\n      tag_103\n      jump\t// in\n    tag_332:\n        /* \"#utility.yul\":21614:21618   */\n      0x00\n        /* \"#utility.yul\":21607:21612   */\n      dup4\n        /* \"#utility.yul\":21603:21619   */\n      add\n        /* \"#utility.yul\":21596:21681   */\n      mstore\n        /* \"#utility.yul\":21372:21692   */\n      pop\n        /* \"#utility.yul\":21751:21753   */\n      0x20\n        /* \"#utility.yul\":21792:21864   */\n      tag_333\n        /* \"#utility.yul\":21860:21863   */\n      dup5\n        /* \"#utility.yul\":21851:21857   */\n      dup3\n        /* \"#utility.yul\":21840:21849   */\n      dup6\n        /* \"#utility.yul\":21836:21858   */\n      add\n        /* \"#utility.yul\":21792:21864   */\n      tag_106\n      jump\t// in\n    tag_333:\n        /* \"#utility.yul\":21785:21789   */\n      0x20\n        /* \"#utility.yul\":21778:21783   */\n      dup4\n        /* \"#utility.yul\":21774:21790   */\n      add\n        /* \"#utility.yul\":21767:21865   */\n      mstore\n        /* \"#utility.yul\":21702:21876   */\n      pop\n        /* \"#utility.yul\":21118:21883   */\n      swap3\n      swap2\n      pop\n      pop\n      jump\t// out\n        /* \"#utility.yul\":21889:23086   */\n    tag_34:\n        /* \"#utility.yul\":22031:22037   */\n      0x00\n        /* \"#utility.yul\":22039:22045   */\n      dup1\n        /* \"#utility.yul\":22047:22053   */\n      0x00\n        /* \"#utility.yul\":22055:22061   */\n      dup1\n        /* \"#utility.yul\":22104:22107   */\n      0x80\n        /* \"#utility.yul\":22092:22101   */\n      dup6\n        /* \"#utility.yul\":22083:22090   */\n      dup8\n        /* \"#utility.yul\":22079:22102   */\n      sub\n        /* \"#utility.yul\":22075:22108   */\n      slt\n        /* \"#utility.yul\":22072:22192   */\n      iszero\n      tag_335\n      jumpi\n        /* \"#utility.yul\":22111:22190   */\n      tag_336\n      tag_38\n      jump\t// in\n    tag_336:\n        /* \"#utility.yul\":22072:22192   */\n    tag_335:\n        /* \"#utility.yul\":22231:22232   */\n      0x00\n        /* \"#utility.yul\":22256:22309   */\n      tag_337\n        /* \"#utility.yul\":22301:22308   */\n      dup8\n        /* \"#utility.yul\":22292:22298   */\n      dup3\n        /* \"#utility.yul\":22281:22290   */\n      dup9\n        /* \"#utility.yul\":22277:22299   */\n      add\n        /* \"#utility.yul\":22256:22309   */\n      tag_42\n      jump\t// in\n    tag_337:\n        /* \"#utility.yul\":22246:22309   */\n      swap5\n      pop\n        /* \"#utility.yul\":22202:22319   */\n      pop\n        /* \"#utility.yul\":22358:22360   */\n      0x20\n        /* \"#utility.yul\":22384:22445   */\n      tag_338\n        /* \"#utility.yul\":22437:22444   */\n      dup8\n        /* \"#utility.yul\":22428:22434   */\n      dup3\n        /* \"#utility.yul\":22417:22426   */\n      dup9\n        /* \"#utility.yul\":22413:22435   */\n      add\n        /* \"#utility.yul\":22384:22445   */\n      tag_91\n      jump\t// in\n    tag_338:\n        /* \"#utility.yul\":22374:22445   */\n      swap4\n      pop\n        /* \"#utility.yul\":22329:22455   */\n      pop\n        /* \"#utility.yul\":22522:22524   */\n      0x40\n        /* \"#utility.yul\":22511:22520   */\n      dup6\n        /* \"#utility.yul\":22507:22525   */\n      add\n        /* \"#utility.yul\":22494:22526   */\n      calldataload\n        /* \"#utility.yul\":22553:22571   */\n      0xffffffffffffffff\n        /* \"#utility.yul\":22545:22551   */\n      dup2\n        /* \"#utility.yul\":22542:22572   */\n      gt\n        /* \"#utility.yul\":22539:22656   */\n      iszero\n      tag_339\n      jumpi\n        /* \"#utility.yul\":22575:22654   */\n      tag_340\n      tag_39\n      jump\t// in\n    tag_340:\n        /* \"#utility.yul\":22539:22656   */\n    tag_339:\n        /* \"#utility.yul\":22680:22758   */\n      tag_341\n        /* \"#utility.yul\":22750:22757   */\n      dup8\n        /* \"#utility.yul\":22741:22747   */\n      dup3\n        /* \"#utility.yul\":22730:22739   */\n      dup9\n        /* \"#utility.yul\":22726:22748   */\n      add\n        /* \"#utility.yul\":22680:22758   */\n      tag_97\n      jump\t// in\n    tag_341:\n        /* \"#utility.yul\":22670:22758   */\n      swap3\n      pop\n        /* \"#utility.yul\":22465:22768   */\n      pop\n        /* \"#utility.yul\":22835:22837   */\n      0x60\n        /* \"#utility.yul\":22824:22833   */\n      dup6\n        /* \"#utility.yul\":22820:22838   */\n      add\n        /* \"#utility.yul\":22807:22839   */\n      calldataload\n        /* \"#utility.yul\":22866:22884   */\n      0xffffffffffffffff\n        /* \"#utility.yul\":22858:22864   */\n      dup2\n        /* \"#utility.yul\":22855:22885   */\n      gt\n        /* \"#utility.yul\":22852:22969   */\n      iszero\n      tag_342\n      jumpi\n        /* \"#utility.yul\":22888:22967   */\n      tag_343\n      tag_39\n      jump\t// in\n    tag_343:\n        /* \"#utility.yul\":22852:22969   */\n    tag_342:\n        /* \"#utility.yul\":22993:23069   */\n      tag_344\n        /* \"#utility.yul\":23061:23068   */\n      dup8\n        /* \"#utility.yul\":23052:23058   */\n      dup3\n        /* \"#utility.yul\":23041:23050   */\n      dup9\n        /* \"#utility.yul\":23037:23059   */\n      add\n        /* \"#utility.yul\":22993:23069   */\n      tag_107\n      jump\t// in\n    tag_344:\n        /* \"#utility.yul\":22983:23069   */\n      swap2\n      pop\n        /* \"#utility.yul\":22778:23079   */\n      pop\n        /* \"#utility.yul\":21889:23086   */\n      swap3\n      swap6\n      swap2\n      swap5\n      pop\n      swap3\n      pop\n      jump\t// out\n\n    auxdata: 0xa2646970667358221220c41e560219b9bc0ce6050b4de4e94204a1b6832e35dba0cf3d7c1cfb54f4f22864736f6c63430008110033\n}\n",
				"bytecode": {
					"linkReferences": {},
					"object": "608060405234801561001057600080fd5b50610d1d806100206000396000f3fe6080604052600436106100385760003560e01c80637049e0871461003b578063d591221f14610078578063e5c5e9a31461008257610039565b5b005b34801561004757600080fd5b50610062600480360381019061005d91906102ea565b6100c2565b60405161006f919061041e565b60405180910390f35b6100806100f7565b005b34801561008e57600080fd5b506100a960048036038101906100a49190610496565b610142565b6040516100b994939291906106d5565b60405180910390f35b606085858585856040516020016100dd9594939291906108aa565b604051602081830303815290604052905095945050505050565b3373ffffffffffffffffffffffffffffffffffffffff166108fc6115b39081150290604051600060405180830381858888f1935050505015801561013f573d6000803e3d6000fd5b50565b600080606061014f610177565b858581019061015e9190610c48565b8094508195508296508397505050505092959194509250565b604051806040016040528060608152602001610191610197565b81525090565b6040518060400160405280600290602082028036833780820191505090505090565b6000604051905090565b600080fd5b600080fd5b6000819050919050565b6101e0816101cd565b81146101eb57600080fd5b50565b6000813590506101fd816101d7565b92915050565b600073ffffffffffffffffffffffffffffffffffffffff82169050919050565b600061022e82610203565b9050919050565b61023e81610223565b811461024957600080fd5b50565b60008135905061025b81610235565b92915050565b600080fd5b600080fd5b600080fd5b60008083601f84011261028657610285610261565b5b8235905067ffffffffffffffff8111156102a3576102a2610266565b5b6020830191508360208202830111156102bf576102be61026b565b5b9250929050565b600080fd5b6000606082840312156102e1576102e06102c6565b5b81905092915050565b600080600080600060808688031215610306576103056101c3565b5b6000610314888289016101ee565b95505060206103258882890161024c565b945050604086013567ffffffffffffffff811115610346576103456101c8565b5b61035288828901610270565b9350935050606086013567ffffffffffffffff811115610375576103746101c8565b5b610381888289016102cb565b9150509295509295909350565b600081519050919050565b600082825260208201905092915050565b60005b838110156103c85780820151818401526020810190506103ad565b60008484015250505050565b6000601f19601f8301169050919050565b60006103f08261038e565b6103fa8185610399565b935061040a8185602086016103aa565b610413816103d4565b840191505092915050565b6000602082019050818103600083015261043881846103e5565b905092915050565b60008083601f84011261045657610455610261565b5b8235905067ffffffffffffffff81111561047357610472610266565b5b60208301915083600182028301111561048f5761048e61026b565b5b9250929050565b600080602083850312156104ad576104ac6101c3565b5b600083013567ffffffffffffffff8111156104cb576104ca6101c8565b5b6104d785828601610440565b92509250509250929050565b6104ec816101cd565b82525050565b6104fb81610223565b82525050565b600081519050919050565b600082825260208201905092915050565b6000819050602082019050919050565b610536816101cd565b82525050565b6000610548838361052d565b60208301905092915050565b6000602082019050919050565b600061056c82610501565b610576818561050c565b93506105818361051d565b8060005b838110156105b2578151610599888261053c565b97506105a483610554565b925050600181019050610585565b5085935050505092915050565b600081519050919050565b600082825260208201905092915050565b60006105e6826105bf565b6105f081856105ca565b93506106008185602086016103aa565b610609816103d4565b840191505092915050565b600060029050919050565b600081905092915050565b6000819050919050565b6000602082019050919050565b61064a81610614565b610654818461061f565b925061065f8261062a565b8060005b83811015610690578151610677878261053c565b965061068283610634565b925050600181019050610663565b505050505050565b600060608301600083015184820360008601526106b582826105db565b91505060208301516106ca6020860182610641565b508091505092915050565b60006080820190506106ea60008301876104e3565b6106f760208301866104f2565b81810360408301526107098185610561565b9050818103606083015261071d8184610698565b905095945050505050565b600080fd5b82818337505050565b6000610742838561050c565b93507f07ffffffffffffffffffffffffffffffffffffffffffffffffffffffffffffff83111561077557610774610728565b5b60208302925061078683858461072d565b82840190509392505050565b600080fd5b600080fd5b600080fd5b600080833560016020038436030381126107be576107bd61079c565b5b83810192508235915060208301925067ffffffffffffffff8211156107e6576107e5610792565b5b6001820236038313156107fc576107fb610797565b5b509250929050565b82818337600083830152505050565b600061081f83856105ca565b935061082c838584610804565b610835836103d4565b840190509392505050565b600082905092915050565b6108576040838361072d565b5050565b60006060830161086e60008401846107a1565b8583036000870152610881838284610813565b925050506108926020840184610840565b61089f602086018261084b565b508091505092915050565b60006080820190506108bf60008301886104e3565b6108cc60208301876104f2565b81810360408301526108df818587610736565b905081810360608301526108f3818461085b565b90509695505050505050565b600061090a82610203565b9050919050565b61091a816108ff565b811461092557600080fd5b50565b60008135905061093781610911565b92915050565b7f4e487b7100000000000000000000000000000000000000000000000000000000600052604160045260246000fd5b610975826103d4565b810181811067ffffffffffffffff821117156109945761099361093d565b5b80604052505050565b60006109a76101b9565b90506109b3828261096c565b919050565b600067ffffffffffffffff8211156109d3576109d261093d565b5b602082029050602081019050919050565b60006109f76109f2846109b8565b61099d565b90508083825260208201905060208402830185811115610a1a57610a1961026b565b5b835b81811015610a435780610a2f88826101ee565b845260208401935050602081019050610a1c565b5050509392505050565b600082601f830112610a6257610a61610261565b5b8135610a728482602086016109e4565b91505092915050565b600080fd5b600080fd5b600080fd5b600067ffffffffffffffff821115610aa557610aa461093d565b5b610aae826103d4565b9050602081019050919050565b6000610ace610ac984610a8a565b61099d565b905082815260208101848484011115610aea57610ae9610a85565b5b610af5848285610804565b509392505050565b600082601f830112610b1257610b11610261565b5b8135610b22848260208601610abb565b91505092915050565b600067ffffffffffffffff821115610b4657610b4561093d565b5b602082029050919050565b6000610b64610b5f84610b2b565b61099d565b90508060208402830185811115610b7e57610b7d61026b565b5b835b81811015610ba75780610b9388826101ee565b845260208401935050602081019050610b80565b5050509392505050565b600082601f830112610bc657610bc5610261565b5b6002610bd3848285610b51565b91505092915050565b600060608284031215610bf257610bf1610a7b565b5b610bfc604061099d565b9050600082013567ffffffffffffffff811115610c1c57610c1b610a80565b5b610c2884828501610afd565b6000830152506020610c3c84828501610bb1565b60208301525092915050565b60008060008060808587031215610c6257610c616101c3565b5b6000610c70878288016101ee565b9450506020610c8187828801610928565b935050604085013567ffffffffffffffff811115610ca257610ca16101c8565b5b610cae87828801610a4d565b925050606085013567ffffffffffffffff811115610ccf57610cce6101c8565b5b610cdb87828801610bdc565b9150509295919450925056fea2646970667358221220c41e560219b9bc0ce6050b4de4e94204a1b6832e35dba0cf3d7c1cfb54f4f22864736f6c63430008110033",
					"opcodes": "PUSH1 0x80 PUSH1 0x40 MSTORE CALLVALUE DUP1 ISZERO PUSH2 0x10 JUMPI PUSH1 0x0 DUP1 REVERT JUMPDEST POP PUSH2 0xD1D DUP1 PUSH2 0x20 PUSH1 0x0 CODECOPY PUSH1 0x0 RETURN INVALID PUSH1 0x80 PUSH1 0x40 MSTORE PUSH1 0x4 CALLDATASIZE LT PUSH2 0x38 JUMPI PUSH1 0x0 CALLDATALOAD PUSH1 0xE0 SHR DUP1 PUSH4 0x7049E087 EQ PUSH2 0x3B JUMPI DUP1 PUSH4 0xD591221F EQ PUSH2 0x78 JUMPI DUP1 PUSH4 0xE5C5E9A3 EQ PUSH2 0x82 JUMPI PUSH2 0x39 JUMP JUMPDEST JUMPDEST STOP JUMPDEST CALLVALUE DUP1 ISZERO PUSH2 0x47 JUMPI PUSH1 0x0 DUP1 REVERT JUMPDEST POP PUSH2 0x62 PUSH1 0x4 DUP1 CALLDATASIZE SUB DUP2 ADD SWAP1 PUSH2 0x5D SWAP2 SWAP1 PUSH2 0x2EA JUMP JUMPDEST PUSH2 0xC2 JUMP JUMPDEST PUSH1 0x40 MLOAD PUSH2 0x6F SWAP2 SWAP1 PUSH2 0x41E JUMP JUMPDEST PUSH1 0x40 MLOAD DUP1 SWAP2 SUB SWAP1 RETURN JUMPDEST PUSH2 0x80 PUSH2 0xF7 JUMP JUMPDEST STOP JUMPDEST CALLVALUE DUP1 ISZERO PUSH2 0x8E JUMPI PUSH1 0x0 DUP1 REVERT JUMPDEST POP PUSH2 0xA9 PUSH1 0x4 DUP1 CALLDATASIZE SUB DUP2 ADD SWAP1 PUSH2 0xA4 SWAP2 SWAP1 PUSH2 0x496 JUMP JUMPDEST PUSH2 0x142 JUMP JUMPDEST PUSH1 0x40 MLOAD PUSH2 0xB9 SWAP5 SWAP4 SWAP3 SWAP2 SWAP1 PUSH2 0x6D5 JUMP JUMPDEST PUSH1 0x40 MLOAD DUP1 SWAP2 SUB SWAP1 RETURN JUMPDEST PUSH1 0x60 DUP6 DUP6 DUP6 DUP6 DUP6 PUSH1 0x40 MLOAD PUSH1 0x20 ADD PUSH2 0xDD SWAP6 SWAP5 SWAP4 SWAP3 SWAP2 SWAP1 PUSH2 0x8AA JUMP JUMPDEST PUSH1 0x40 MLOAD PUSH1 0x20 DUP2 DUP4 SUB SUB DUP2 MSTORE SWAP1 PUSH1 0x40 MSTORE SWAP1 POP SWAP6 SWAP5 POP POP POP POP POP JUMP JUMPDEST CALLER PUSH20 0xFFFFFFFFFFFFFFFFFFFFFFFFFFFFFFFFFFFFFFFF AND PUSH2 0x8FC PUSH2 0x15B3 SWAP1 DUP2 ISZERO MUL SWAP1 PUSH1 0x40 MLOAD PUSH1 0x0 PUSH1 0x40 MLOAD DUP1 DUP4 SUB DUP2 DUP6 DUP9 DUP9 CALL SWAP4 POP POP POP POP ISZERO DUP1 ISZERO PUSH2 0x13F JUMPI RETURNDATASIZE PUSH1 0x0 DUP1 RETURNDATACOPY RETURNDATASIZE PUSH1 0x0 REVERT JUMPDEST POP JUMP JUMPDEST PUSH1 0x0 DUP1 PUSH1 0x60 PUSH2 0x14F PUSH2 0x177 JUMP JUMPDEST DUP6 DUP6 DUP2 ADD SWAP1 PUSH2 0x15E SWAP2 SWAP1 PUSH2 0xC48 JUMP JUMPDEST DUP1 SWAP5 POP DUP2 SWAP6 POP DUP3 SWAP7 POP DUP4 SWAP8 POP POP POP POP POP SWAP3 SWAP6 SWAP2 SWAP5 POP SWAP3 POP JUMP JUMPDEST PUSH1 0x40 MLOAD DUP1 PUSH1 0x40 ADD PUSH1 0x40 MSTORE DUP1 PUSH1 0x60 DUP2 MSTORE PUSH1 0x20 ADD PUSH2 0x191 PUSH2 0x197 JUMP JUMPDEST DUP2 MSTORE POP SWAP1 JUMP JUMPDEST PUSH1 0x40 MLOAD DUP1 PUSH1 0x40 ADD PUSH1 0x40 MSTORE DUP1 PUSH1 0x2 SWAP1 PUSH1 0x20 DUP3 MUL DUP1 CALLDATASIZE DUP4 CALLDATACOPY DUP1 DUP3 ADD SWAP2 POP POP SWAP1 POP POP SWAP1 JUMP JUMPDEST PUSH1 0x0 PUSH1 0x40 MLOAD SWAP1 POP SWAP1 JUMP JUMPDEST PUSH1 0x0 DUP1 REVERT JUMPDEST PUSH1 0x0 DUP1 REVERT JUMPDEST PUSH1 0x0 DUP2 SWAP1 POP SWAP2 SWAP1 POP JUMP JUMPDEST PUSH2 0x1E0 DUP2 PUSH2 0x1CD JUMP JUMPDEST DUP2 EQ PUSH2 0x1EB JUMPI PUSH1 0x0 DUP1 REVERT JUMPDEST POP JUMP JUMPDEST PUSH1 0x0 DUP2 CALLDATALOAD SWAP1 POP PUSH2 0x1FD DUP2 PUSH2 0x1D7 JUMP JUMPDEST SWAP3 SWAP2 POP POP JUMP JUMPDEST PUSH1 0x0 PUSH20 0xFFFFFFFFFFFFFFFFFFFFFFFFFFFFFFFFFFFFFFFF DUP3 AND SWAP1 POP SWAP2 SWAP1 POP JUMP JUMPDEST PUSH1 0x0 PUSH2 0x22E DUP3 PUSH2 0x203 JUMP JUMPDEST SWAP1 POP SWAP2 SWAP1 POP JUMP JUMPDEST PUSH2 0x23E DUP2 PUSH2 0x223 JUMP JUMPDEST DUP2 EQ PUSH2 0x249 JUMPI PUSH1 0x0 DUP1 REVERT JUMPDEST POP JUMP JUMPDEST PUSH1 0x0 DUP2 CALLDATALOAD SWAP1 POP PUSH2 0x25B DUP2 PUSH2 0x235 JUMP JUMPDEST SWAP3 SWAP2 POP POP JUMP JUMPDEST PUSH1 0x0 DUP1 REVERT JUMPDEST PUSH1 0x0 DUP1 REVERT JUMPDEST PUSH1 0x0 DUP1 REVERT JUMPDEST PUSH1 0x0 DUP1 DUP4 PUSH1 0x1F DUP5 ADD SLT PUSH2 0x286 JUMPI PUSH2 0x285 PUSH2 0x261 JUMP JUMPDEST JUMPDEST DUP3 CALLDATALOAD SWAP1 POP PUSH8 0xFFFFFFFFFFFFFFFF DUP2 GT ISZERO PUSH2 0x2A3 JUMPI PUSH2 0x2A2 PUSH2 0x266 JUMP JUMPDEST JUMPDEST PUSH1 0x20 DUP4 ADD SWAP2 POP DUP4 PUSH1 0x20 DUP3 MUL DUP4 ADD GT ISZERO PUSH2 0x2BF JUMPI PUSH2 0x2BE PUSH2 0x26B JUMP JUMPDEST JUMPDEST SWAP3 POP SWAP3 SWAP1 POP JUMP JUMPDEST PUSH1 0x0 DUP1 REVERT JUMPDEST PUSH1 0x0 PUSH1 0x60 DUP3 DUP5 SUB SLT ISZERO PUSH2 0x2E1 JUMPI PUSH2 0x2E0 PUSH2 0x2C6 JUMP JUMPDEST JUMPDEST DUP2 SWAP1 POP SWAP3 SWAP2 POP POP JUMP JUMPDEST PUSH1 0x0 DUP1 PUSH1 0x0 DUP1 PUSH1 0x0 PUSH1 0x80 DUP7 DUP9 SUB SLT ISZERO PUSH2 0x306 JUMPI PUSH2 0x305 PUSH2 0x1C3 JUMP JUMPDEST JUMPDEST PUSH1 0x0 PUSH2 0x314 DUP9 DUP3 DUP10 ADD PUSH2 0x1EE JUMP JUMPDEST SWAP6 POP POP PUSH1 0x20 PUSH2 0x325 DUP9 DUP3 DUP10 ADD PUSH2 0x24C JUMP JUMPDEST SWAP5 POP POP PUSH1 0x40 DUP7 ADD CALLDATALOAD PUSH8 0xFFFFFFFFFFFFFFFF DUP2 GT ISZERO PUSH2 0x346 JUMPI PUSH2 0x345 PUSH2 0x1C8 JUMP JUMPDEST JUMPDEST PUSH2 0x352 DUP9 DUP3 DUP10 ADD PUSH2 0x270 JUMP JUMPDEST SWAP4 POP SWAP4 POP POP PUSH1 0x60 DUP7 ADD CALLDATALOAD PUSH8 0xFFFFFFFFFFFFFFFF DUP2 GT ISZERO PUSH2 0x375 JUMPI PUSH2 0x374 PUSH2 0x1C8 JUMP JUMPDEST JUMPDEST PUSH2 0x381 DUP9 DUP3 DUP10 ADD PUSH2 0x2CB JUMP JUMPDEST SWAP2 POP POP SWAP3 SWAP6 POP SWAP3 SWAP6 SWAP1 SWAP4 POP JUMP JUMPDEST PUSH1 0x0 DUP2 MLOAD SWAP1 POP SWAP2 SWAP1 POP JUMP JUMPDEST PUSH1 0x0 DUP3 DUP3 MSTORE PUSH1 0x20 DUP3 ADD SWAP1 POP SWAP3 SWAP2 POP POP JUMP JUMPDEST PUSH1 0x0 JUMPDEST DUP4 DUP2 LT ISZERO PUSH2 0x3C8 JUMPI DUP1 DUP3 ADD MLOAD DUP2 DUP5 ADD MSTORE PUSH1 0x20 DUP2 ADD SWAP1 POP PUSH2 0x3AD JUMP JUMPDEST PUSH1 0x0 DUP5 DUP5 ADD MSTORE POP POP POP POP JUMP JUMPDEST PUSH1 0x0 PUSH1 0x1F NOT PUSH1 0x1F DUP4 ADD AND SWAP1 POP SWAP2 SWAP1 POP JUMP JUMPDEST PUSH1 0x0 PUSH2 0x3F0 DUP3 PUSH2 0x38E JUMP JUMPDEST PUSH2 0x3FA DUP2 DUP6 PUSH2 0x399 JUMP JUMPDEST SWAP4 POP PUSH2 0x40A DUP2 DUP6 PUSH1 0x20 DUP7 ADD PUSH2 0x3AA JUMP JUMPDEST PUSH2 0x413 DUP2 PUSH2 0x3D4 JUMP JUMPDEST DUP5 ADD SWAP2 POP POP SWAP3 SWAP2 POP POP JUMP JUMPDEST PUSH1 0x0 PUSH1 0x20 DUP3 ADD SWAP1 POP DUP2 DUP2 SUB PUSH1 0x0 DUP4 ADD MSTORE PUSH2 0x438 DUP2 DUP5 PUSH2 0x3E5 JUMP JUMPDEST SWAP1 POP SWAP3 SWAP2 POP POP JUMP JUMPDEST PUSH1 0x0 DUP1 DUP4 PUSH1 0x1F DUP5 ADD SLT PUSH2 0x456 JUMPI PUSH2 0x455 PUSH2 0x261 JUMP JUMPDEST JUMPDEST DUP3 CALLDATALOAD SWAP1 POP PUSH8 0xFFFFFFFFFFFFFFFF DUP2 GT ISZERO PUSH2 0x473 JUMPI PUSH2 0x472 PUSH2 0x266 JUMP JUMPDEST JUMPDEST PUSH1 0x20 DUP4 ADD SWAP2 POP DUP4 PUSH1 0x1 DUP3 MUL DUP4 ADD GT ISZERO PUSH2 0x48F JUMPI PUSH2 0x48E PUSH2 0x26B JUMP JUMPDEST JUMPDEST SWAP3 POP SWAP3 SWAP1 POP JUMP JUMPDEST PUSH1 0x0 DUP1 PUSH1 0x20 DUP4 DUP6 SUB SLT ISZERO PUSH2 0x4AD JUMPI PUSH2 0x4AC PUSH2 0x1C3 JUMP JUMPDEST JUMPDEST PUSH1 0x0 DUP4 ADD CALLDATALOAD PUSH8 0xFFFFFFFFFFFFFFFF DUP2 GT ISZERO PUSH2 0x4CB JUMPI PUSH2 0x4CA PUSH2 0x1C8 JUMP JUMPDEST JUMPDEST PUSH2 0x4D7 DUP6 DUP3 DUP7 ADD PUSH2 0x440 JUMP JUMPDEST SWAP3 POP SWAP3 POP POP SWAP3 POP SWAP3 SWAP1 POP JUMP JUMPDEST PUSH2 0x4EC DUP2 PUSH2 0x1CD JUMP JUMPDEST DUP3 MSTORE POP POP JUMP JUMPDEST PUSH2 0x4FB DUP2 PUSH2 0x223 JUMP JUMPDEST DUP3 MSTORE POP POP JUMP JUMPDEST PUSH1 0x0 DUP2 MLOAD SWAP1 POP SWAP2 SWAP1 POP JUMP JUMPDEST PUSH1 0x0 DUP3 DUP3 MSTORE PUSH1 0x20 DUP3 ADD SWAP1 POP SWAP3 SWAP2 POP POP JUMP JUMPDEST PUSH1 0x0 DUP2 SWAP1 POP PUSH1 0x20 DUP3 ADD SWAP1 POP SWAP2 SWAP1 POP JUMP JUMPDEST PUSH2 0x536 DUP2 PUSH2 0x1CD JUMP JUMPDEST DUP3 MSTORE POP POP JUMP JUMPDEST PUSH1 0x0 PUSH2 0x548 DUP4 DUP4 PUSH2 0x52D JUMP JUMPDEST PUSH1 0x20 DUP4 ADD SWAP1 POP SWAP3 SWAP2 POP POP JUMP JUMPDEST PUSH1 0x0 PUSH1 0x20 DUP3 ADD SWAP1 POP SWAP2 SWAP1 POP JUMP JUMPDEST PUSH1 0x0 PUSH2 0x56C DUP3 PUSH2 0x501 JUMP JUMPDEST PUSH2 0x576 DUP2 DUP6 PUSH2 0x50C JUMP JUMPDEST SWAP4 POP PUSH2 0x581 DUP4 PUSH2 0x51D JUMP JUMPDEST DUP1 PUSH1 0x0 JUMPDEST DUP4 DUP2 LT ISZERO PUSH2 0x5B2 JUMPI DUP2 MLOAD PUSH2 0x599 DUP9 DUP3 PUSH2 0x53C JUMP JUMPDEST SWAP8 POP PUSH2 0x5A4 DUP4 PUSH2 0x554 JUMP JUMPDEST SWAP3 POP POP PUSH1 0x1 DUP2 ADD SWAP1 POP PUSH2 0x585 JUMP JUMPDEST POP DUP6 SWAP4 POP POP POP POP SWAP3 SWAP2 POP POP JUMP JUMPDEST PUSH1 0x0 DUP2 MLOAD SWAP1 POP SWAP2 SWAP1 POP JUMP JUMPDEST PUSH1 0x0 DUP3 DUP3 MSTORE PUSH1 0x20 DUP3 ADD SWAP1 POP SWAP3 SWAP2 POP POP JUMP JUMPDEST PUSH1 0x0 PUSH2 0x5E6 DUP3 PUSH2 0x5BF JUMP JUMPDEST PUSH2 0x5F0 DUP2 DUP6 PUSH2 0x5CA JUMP JUMPDEST SWAP4 POP PUSH2 0x600 DUP2 DUP6 PUSH1 0x20 DUP7 ADD PUSH2 0x3AA JUMP JUMPDEST PUSH2 0x609 DUP2 PUSH2 0x3D4 JUMP JUMPDEST DUP5 ADD SWAP2 POP POP SWAP3 SWAP2 POP POP JUMP JUMPDEST PUSH1 0x0 PUSH1 0x2 SWAP1 POP SWAP2 SWAP1 POP JUMP JUMPDEST PUSH1 0x0 DUP2 SWAP1 POP SWAP3 SWAP2 POP POP JUMP JUMPDEST PUSH1 0x0 DUP2 SWAP1 POP SWAP2 SWAP1 POP JUMP JUMPDEST PUSH1 0x0 PUSH1 0x20 DUP3 ADD SWAP1 POP SWAP2 SWAP1 POP JUMP JUMPDEST PUSH2 0x64A DUP2 PUSH2 0x614 JUMP JUMPDEST PUSH2 0x654 DUP2 DUP5 PUSH2 0x61F JUMP JUMPDEST SWAP3 POP PUSH2 0x65F DUP3 PUSH2 0x62A JUMP JUMPDEST DUP1 PUSH1 0x0 JUMPDEST DUP4 DUP2 LT ISZERO PUSH2 0x690 JUMPI DUP2 MLOAD PUSH2 0x677 DUP8 DUP3 PUSH2 0x53C JUMP JUMPDEST SWAP7 POP PUSH2 0x682 DUP4 PUSH2 0x634 JUMP JUMPDEST SWAP3 POP POP PUSH1 0x1 DUP2 ADD SWAP1 POP PUSH2 0x663 JUMP JUMPDEST POP POP POP POP POP POP JUMP JUMPDEST PUSH1 0x0 PUSH1 0x60 DUP4 ADD PUSH1 0x0 DUP4 ADD MLOAD DUP5 DUP3 SUB PUSH1 0x0 DUP7 ADD MSTORE PUSH2 0x6B5 DUP3 DUP3 PUSH2 0x5DB JUMP JUMPDEST SWAP2 POP POP PUSH1 0x20 DUP4 ADD MLOAD PUSH2 0x6CA PUSH1 0x20 DUP7 ADD DUP3 PUSH2 0x641 JUMP JUMPDEST POP DUP1 SWAP2 POP POP SWAP3 SWAP2 POP POP JUMP JUMPDEST PUSH1 0x0 PUSH1 0x80 DUP3 ADD SWAP1 POP PUSH2 0x6EA PUSH1 0x0 DUP4 ADD DUP8 PUSH2 0x4E3 JUMP JUMPDEST PUSH2 0x6F7 PUSH1 0x20 DUP4 ADD DUP7 PUSH2 0x4F2 JUMP JUMPDEST DUP2 DUP2 SUB PUSH1 0x40 DUP4 ADD MSTORE PUSH2 0x709 DUP2 DUP6 PUSH2 0x561 JUMP JUMPDEST SWAP1 POP DUP2 DUP2 SUB PUSH1 0x60 DUP4 ADD MSTORE PUSH2 0x71D DUP2 DUP5 PUSH2 0x698 JUMP JUMPDEST SWAP1 POP SWAP6 SWAP5 POP POP POP POP POP JUMP JUMPDEST PUSH1 0x0 DUP1 REVERT JUMPDEST DUP3 DUP2 DUP4 CALLDATACOPY POP POP POP JUMP JUMPDEST PUSH1 0x0 PUSH2 0x742 DUP4 DUP6 PUSH2 0x50C JUMP JUMPDEST SWAP4 POP PUSH32 0x7FFFFFFFFFFFFFFFFFFFFFFFFFFFFFFFFFFFFFFFFFFFFFFFFFFFFFFFFFFFFFF DUP4 GT ISZERO PUSH2 0x775 JUMPI PUSH2 0x774 PUSH2 0x728 JUMP JUMPDEST JUMPDEST PUSH1 0x20 DUP4 MUL SWAP3 POP PUSH2 0x786 DUP4 DUP6 DUP5 PUSH2 0x72D JUMP JUMPDEST DUP3 DUP5 ADD SWAP1 POP SWAP4 SWAP3 POP POP POP JUMP JUMPDEST PUSH1 0x0 DUP1 REVERT JUMPDEST PUSH1 0x0 DUP1 REVERT JUMPDEST PUSH1 0x0 DUP1 REVERT JUMPDEST PUSH1 0x0 DUP1 DUP4 CALLDATALOAD PUSH1 0x1 PUSH1 0x20 SUB DUP5 CALLDATASIZE SUB SUB DUP2 SLT PUSH2 0x7BE JUMPI PUSH2 0x7BD PUSH2 0x79C JUMP JUMPDEST JUMPDEST DUP4 DUP2 ADD SWAP3 POP DUP3 CALLDATALOAD SWAP2 POP PUSH1 0x20 DUP4 ADD SWAP3 POP PUSH8 0xFFFFFFFFFFFFFFFF DUP3 GT ISZERO PUSH2 0x7E6 JUMPI PUSH2 0x7E5 PUSH2 0x792 JUMP JUMPDEST JUMPDEST PUSH1 0x1 DUP3 MUL CALLDATASIZE SUB DUP4 SGT ISZERO PUSH2 0x7FC JUMPI PUSH2 0x7FB PUSH2 0x797 JUMP JUMPDEST JUMPDEST POP SWAP3 POP SWAP3 SWAP1 POP JUMP JUMPDEST DUP3 DUP2 DUP4 CALLDATACOPY PUSH1 0x0 DUP4 DUP4 ADD MSTORE POP POP POP JUMP JUMPDEST PUSH1 0x0 PUSH2 0x81F DUP4 DUP6 PUSH2 0x5CA JUMP JUMPDEST SWAP4 POP PUSH2 0x82C DUP4 DUP6 DUP5 PUSH2 0x804 JUMP JUMPDEST PUSH2 0x835 DUP4 PUSH2 0x3D4 JUMP JUMPDEST DUP5 ADD SWAP1 POP SWAP4 SWAP3 POP POP POP JUMP JUMPDEST PUSH1 0x0 DUP3 SWAP1 POP SWAP3 SWAP2 POP POP JUMP JUMPDEST PUSH2 0x857 PUSH1 0x40 DUP4 DUP4 PUSH2 0x72D JUMP JUMPDEST POP POP JUMP JUMPDEST PUSH1 0x0 PUSH1 0x60 DUP4 ADD PUSH2 0x86E PUSH1 0x0 DUP5 ADD DUP5 PUSH2 0x7A1 JUMP JUMPDEST DUP6 DUP4 SUB PUSH1 0x0 DUP8 ADD MSTORE PUSH2 0x881 DUP4 DUP3 DUP5 PUSH2 0x813 JUMP JUMPDEST SWAP3 POP POP POP PUSH2 0x892 PUSH1 0x20 DUP5 ADD DUP5 PUSH2 0x840 JUMP JUMPDEST PUSH2 0x89F PUSH1 0x20 DUP7 ADD DUP3 PUSH2 0x84B JUMP JUMPDEST POP DUP1 SWAP2 POP POP SWAP3 SWAP2 POP POP JUMP JUMPDEST PUSH1 0x0 PUSH1 0x80 DUP3 ADD SWAP1 POP PUSH2 0x8BF PUSH1 0x0 DUP4 ADD DUP9 PUSH2 0x4E3 JUMP JUMPDEST PUSH2 0x8CC PUSH1 0x20 DUP4 ADD DUP8 PUSH2 0x4F2 JUMP JUMPDEST DUP2 DUP2 SUB PUSH1 0x40 DUP4 ADD MSTORE PUSH2 0x8DF DUP2 DUP6 DUP8 PUSH2 0x736 JUMP JUMPDEST SWAP1 POP DUP2 DUP2 SUB PUSH1 0x60 DUP4 ADD MSTORE PUSH2 0x8F3 DUP2 DUP5 PUSH2 0x85B JUMP JUMPDEST SWAP1 POP SWAP7 SWAP6 POP POP POP POP POP POP JUMP JUMPDEST PUSH1 0x0 PUSH2 0x90A DUP3 PUSH2 0x203 JUMP JUMPDEST SWAP1 POP SWAP2 SWAP1 POP JUMP JUMPDEST PUSH2 0x91A DUP2 PUSH2 0x8FF JUMP JUMPDEST DUP2 EQ PUSH2 0x925 JUMPI PUSH1 0x0 DUP1 REVERT JUMPDEST POP JUMP JUMPDEST PUSH1 0x0 DUP2 CALLDATALOAD SWAP1 POP PUSH2 0x937 DUP2 PUSH2 0x911 JUMP JUMPDEST SWAP3 SWAP2 POP POP JUMP JUMPDEST PUSH32 0x4E487B7100000000000000000000000000000000000000000000000000000000 PUSH1 0x0 MSTORE PUSH1 0x41 PUSH1 0x4 MSTORE PUSH1 0x24 PUSH1 0x0 REVERT JUMPDEST PUSH2 0x975 DUP3 PUSH2 0x3D4 JUMP JUMPDEST DUP2 ADD DUP2 DUP2 LT PUSH8 0xFFFFFFFFFFFFFFFF DUP3 GT OR ISZERO PUSH2 0x994 JUMPI PUSH2 0x993 PUSH2 0x93D JUMP JUMPDEST JUMPDEST DUP1 PUSH1 0x40 MSTORE POP POP POP JUMP JUMPDEST PUSH1 0x0 PUSH2 0x9A7 PUSH2 0x1B9 JUMP JUMPDEST SWAP1 POP PUSH2 0x9B3 DUP3 DUP3 PUSH2 0x96C JUMP JUMPDEST SWAP2 SWAP1 POP JUMP JUMPDEST PUSH1 0x0 PUSH8 0xFFFFFFFFFFFFFFFF DUP3 GT ISZERO PUSH2 0x9D3 JUMPI PUSH2 0x9D2 PUSH2 0x93D JUMP JUMPDEST JUMPDEST PUSH1 0x20 DUP3 MUL SWAP1 POP PUSH1 0x20 DUP2 ADD SWAP1 POP SWAP2 SWAP1 POP JUMP JUMPDEST PUSH1 0x0 PUSH2 0x9F7 PUSH2 0x9F2 DUP5 PUSH2 0x9B8 JUMP JUMPDEST PUSH2 0x99D JUMP JUMPDEST SWAP1 POP DUP1 DUP4 DUP3 MSTORE PUSH1 0x20 DUP3 ADD SWAP1 POP PUSH1 0x20 DUP5 MUL DUP4 ADD DUP6 DUP2 GT ISZERO PUSH2 0xA1A JUMPI PUSH2 0xA19 PUSH2 0x26B JUMP JUMPDEST JUMPDEST DUP4 JUMPDEST DUP2 DUP2 LT ISZERO PUSH2 0xA43 JUMPI DUP1 PUSH2 0xA2F DUP9 DUP3 PUSH2 0x1EE JUMP JUMPDEST DUP5 MSTORE PUSH1 0x20 DUP5 ADD SWAP4 POP POP PUSH1 0x20 DUP2 ADD SWAP1 POP PUSH2 0xA1C JUMP JUMPDEST POP POP POP SWAP4 SWAP3 POP POP POP JUMP JUMPDEST PUSH1 0x0 DUP3 PUSH1 0x1F DUP4 ADD SLT PUSH2 0xA62 JUMPI PUSH2 0xA61 PUSH2 0x261 JUMP JUMPDEST JUMPDEST DUP2 CALLDATALOAD PUSH2 0xA72 DUP5 DUP3 PUSH1 0x20 DUP7 ADD PUSH2 0x9E4 JUMP JUMPDEST SWAP2 POP POP SWAP3 SWAP2 POP POP JUMP JUMPDEST PUSH1 0x0 DUP1 REVERT JUMPDEST PUSH1 0x0 DUP1 REVERT JUMPDEST PUSH1 0x0 DUP1 REVERT JUMPDEST PUSH1 0x0 PUSH8 0xFFFFFFFFFFFFFFFF DUP3 GT ISZERO PUSH2 0xAA5 JUMPI PUSH2 0xAA4 PUSH2 0x93D JUMP JUMPDEST JUMPDEST PUSH2 0xAAE DUP3 PUSH2 0x3D4 JUMP JUMPDEST SWAP1 POP PUSH1 0x20 DUP2 ADD SWAP1 POP SWAP2 SWAP1 POP JUMP JUMPDEST PUSH1 0x0 PUSH2 0xACE PUSH2 0xAC9 DUP5 PUSH2 0xA8A JUMP JUMPDEST PUSH2 0x99D JUMP JUMPDEST SWAP1 POP DUP3 DUP2 MSTORE PUSH1 0x20 DUP2 ADD DUP5 DUP5 DUP5 ADD GT ISZERO PUSH2 0xAEA JUMPI PUSH2 0xAE9 PUSH2 0xA85 JUMP JUMPDEST JUMPDEST PUSH2 0xAF5 DUP5 DUP3 DUP6 PUSH2 0x804 JUMP JUMPDEST POP SWAP4 SWAP3 POP POP POP JUMP JUMPDEST PUSH1 0x0 DUP3 PUSH1 0x1F DUP4 ADD SLT PUSH2 0xB12 JUMPI PUSH2 0xB11 PUSH2 0x261 JUMP JUMPDEST JUMPDEST DUP2 CALLDATALOAD PUSH2 0xB22 DUP5 DUP3 PUSH1 0x20 DUP7 ADD PUSH2 0xABB JUMP JUMPDEST SWAP2 POP POP SWAP3 SWAP2 POP POP JUMP JUMPDEST PUSH1 0x0 PUSH8 0xFFFFFFFFFFFFFFFF DUP3 GT ISZERO PUSH2 0xB46 JUMPI PUSH2 0xB45 PUSH2 0x93D JUMP JUMPDEST JUMPDEST PUSH1 0x20 DUP3 MUL SWAP1 POP SWAP2 SWAP1 POP JUMP JUMPDEST PUSH1 0x0 PUSH2 0xB64 PUSH2 0xB5F DUP5 PUSH2 0xB2B JUMP JUMPDEST PUSH2 0x99D JUMP JUMPDEST SWAP1 POP DUP1 PUSH1 0x20 DUP5 MUL DUP4 ADD DUP6 DUP2 GT ISZERO PUSH2 0xB7E JUMPI PUSH2 0xB7D PUSH2 0x26B JUMP JUMPDEST JUMPDEST DUP4 JUMPDEST DUP2 DUP2 LT ISZERO PUSH2 0xBA7 JUMPI DUP1 PUSH2 0xB93 DUP9 DUP3 PUSH2 0x1EE JUMP JUMPDEST DUP5 MSTORE PUSH1 0x20 DUP5 ADD SWAP4 POP POP PUSH1 0x20 DUP2 ADD SWAP1 POP PUSH2 0xB80 JUMP JUMPDEST POP POP POP SWAP4 SWAP3 POP POP POP JUMP JUMPDEST PUSH1 0x0 DUP3 PUSH1 0x1F DUP4 ADD SLT PUSH2 0xBC6 JUMPI PUSH2 0xBC5 PUSH2 0x261 JUMP JUMPDEST JUMPDEST PUSH1 0x2 PUSH2 0xBD3 DUP5 DUP3 DUP6 PUSH2 0xB51 JUMP JUMPDEST SWAP2 POP POP SWAP3 SWAP2 POP POP JUMP JUMPDEST PUSH1 0x0 PUSH1 0x60 DUP3 DUP5 SUB SLT ISZERO PUSH2 0xBF2 JUMPI PUSH2 0xBF1 PUSH2 0xA7B JUMP JUMPDEST JUMPDEST PUSH2 0xBFC PUSH1 0x40 PUSH2 0x99D JUMP JUMPDEST SWAP1 POP PUSH1 0x0 DUP3 ADD CALLDATALOAD PUSH8 0xFFFFFFFFFFFFFFFF DUP2 GT ISZERO PUSH2 0xC1C JUMPI PUSH2 0xC1B PUSH2 0xA80 JUMP JUMPDEST JUMPDEST PUSH2 0xC28 DUP5 DUP3 DUP6 ADD PUSH2 0xAFD JUMP JUMPDEST PUSH1 0x0 DUP4 ADD MSTORE POP PUSH1 0x20 PUSH2 0xC3C DUP5 DUP3 DUP6 ADD PUSH2 0xBB1 JUMP JUMPDEST PUSH1 0x20 DUP4 ADD MSTORE POP SWAP3 SWAP2 POP POP JUMP JUMPDEST PUSH1 0x0 DUP1 PUSH1 0x0 DUP1 PUSH1 0x80 DUP6 DUP8 SUB SLT ISZERO PUSH2 0xC62 JUMPI PUSH2 0xC61 PUSH2 0x1C3 JUMP JUMPDEST JUMPDEST PUSH1 0x0 PUSH2 0xC70 DUP8 DUP3 DUP9 ADD PUSH2 0x1EE JUMP JUMPDEST SWAP5 POP POP PUSH1 0x20 PUSH2 0xC81 DUP8 DUP3 DUP9 ADD PUSH2 0x928 JUMP JUMPDEST SWAP4 POP POP PUSH1 0x40 DUP6 ADD CALLDATALOAD PUSH8 0xFFFFFFFFFFFFFFFF DUP2 GT ISZERO PUSH2 0xCA2 JUMPI PUSH2 0xCA1 PUSH2 0x1C8 JUMP JUMPDEST JUMPDEST PUSH2 0xCAE DUP8 DUP3 DUP9 ADD PUSH2 0xA4D JUMP JUMPDEST SWAP3 POP POP PUSH1 0x60 DUP6 ADD CALLDATALOAD PUSH8 0xFFFFFFFFFFFFFFFF DUP2 GT ISZERO PUSH2 0xCCF JUMPI PUSH2 0xCCE PUSH2 0x1C8 JUMP JUMPDEST JUMPDEST PUSH2 0xCDB DUP8 DUP3 DUP9 ADD PUSH2 0xBDC JUMP JUMPDEST SWAP2 POP POP SWAP3 SWAP6 SWAP2 SWAP5 POP SWAP3 POP JUMP INVALID LOG2 PUSH5 0x6970667358 0x22 SLT KECCAK256 0xC4 0x1E JUMP MUL NOT 0xB9 0xBC 0xC 0xE6 SDIV SIGNEXTEND 0x4D 0xE4 0xE9 TIMESTAMP DIV LOG1 0xB6 DUP4 0x2E CALLDATALOAD 0xDB LOG0 0xCF RETURNDATASIZE PUSH29 0x1CFB54F4F22864736F6C63430008110033000000000000000000000000 "
				},
				"gasEstimates": {
					"creation": {
						"codeDepositCost": "671400",
						"executionCost": "702",
						"totalCost": "672102"
					},
					"external": {
						"": "129",
						"decode(bytes)": "infinite",
						"encode(uint256,address,uint256[],(string,uint256[2]))": "infinite",
						"testTransfer()": "infinite"
					}
				},
				"methodIdentifiers": {
					"decode(bytes)": "e5c5e9a3",
					"encode(uint256,address,uint256[],(string,uint256[2]))": "7049e087",
					"testTransfer()": "d591221f"
				}
			},
			"storageLayout": {
				"storage": [],
				"types": null
			},
			"userdoc": {
				"kind": "user",
				"methods": {},
				"version": 1
			}
		}
	}
}