{
	"TimeLock.sol": {
		"TimeLock": {
			"abi": [
				{
					"inputs": [],
					"stateMutability": "nonpayable",
					"type": "constructor"
				},
				{
					"inputs": [
						{
							"internalType": "bytes32",
							"name": "",
							"type": "bytes32"
						}
					],
					"name": "AlreadyQueuedError",
					"type": "error"
				},
				{
					"inputs": [],
					"name": "NotOwnerError",
					"type": "error"
				},
				{
					"inputs": [],
					"name": "execute",
					"outputs": [],
					"stateMutability": "nonpayable",
					"type": "function"
				},
				{
					"inputs": [
						{
							"internalType": "address",
							"name": "_target",
							"type": "address"
						},
						{
							"internalType": "uint256",
							"name": "_value",
							"type": "uint256"
						},
						{
							"internalType": "string",
							"name": "_func",
							"type": "string"
						},
						{
							"internalType": "bytes",
							"name": "_data",
							"type": "bytes"
						},
						{
							"internalType": "uint256",
							"name": "_timestamp",
							"type": "uint256"
						}
					],
					"name": "getTxId",
					"outputs": [
						{
							"internalType": "bytes32",
							"name": "txId",
							"type": "bytes32"
						}
					],
					"stateMutability": "pure",
					"type": "function"
				},
				{
					"inputs": [],
					"name": "owner",
					"outputs": [
						{
							"internalType": "address",
							"name": "",
							"type": "address"
						}
					],
					"stateMutability": "view",
					"type": "function"
				},
				{
					"inputs": [
						{
							"internalType": "address",
							"name": "_target",
							"type": "address"
						},
						{
							"internalType": "uint256",
							"name": "_value",
							"type": "uint256"
						},
						{
							"internalType": "string",
							"name": "_func",
							"type": "string"
						},
						{
							"internalType": "bytes",
							"name": "_data",
							"type": "bytes"
						},
						{
							"internalType": "uint256",
							"name": "_timestamp",
							"type": "uint256"
						}
					],
					"name": "queue",
					"outputs": [],
					"stateMutability": "nonpayable",
					"type": "function"
				},
				{
					"inputs": [
						{
							"internalType": "bytes32",
							"name": "",
							"type": "bytes32"
						}
					],
					"name": "queued",
					"outputs": [
						{
							"internalType": "bool",
							"name": "",
							"type": "bool"
						}
					],
					"stateMutability": "view",
					"type": "function"
				}
			],
			"devdoc": {
				"kind": "dev",
				"methods": {},
				"version": 1
			},
			"evm": {
				"assembly": "    /* \"TimeLock.sol\":61:1117  contract TimeLock {... */\n  mstore(0x40, 0x80)\n    /* \"TimeLock.sol\":231:282  constructor() {... */\n  callvalue\n  dup1\n  iszero\n  tag_1\n  jumpi\n  0x00\n  dup1\n  revert\ntag_1:\n  pop\n    /* \"TimeLock.sol\":264:274  msg.sender */\n  caller\n    /* \"TimeLock.sol\":256:261  owner */\n  0x00\n  dup1\n    /* \"TimeLock.sol\":256:274  owner = msg.sender */\n  0x0100\n  exp\n  dup2\n  sload\n  dup2\n  0xffffffffffffffffffffffffffffffffffffffff\n  mul\n  not\n  and\n  swap1\n  dup4\n  0xffffffffffffffffffffffffffffffffffffffff\n  and\n  mul\n  or\n  swap1\n  sstore\n  pop\n    /* \"TimeLock.sol\":61:1117  contract TimeLock {... */\n  dataSize(sub_0)\n  dup1\n  dataOffset(sub_0)\n  0x00\n  codecopy\n  0x00\n  return\nstop\n\nsub_0: assembly {\n        /* \"TimeLock.sol\":61:1117  contract TimeLock {... */\n      mstore(0x40, 0x80)\n      callvalue\n      dup1\n      iszero\n      tag_1\n      jumpi\n      0x00\n      dup1\n      revert\n    tag_1:\n      pop\n      jumpi(tag_2, lt(calldatasize, 0x04))\n      shr(0xe0, calldataload(0x00))\n      dup1\n      0x228250c9\n      eq\n      tag_3\n      jumpi\n      dup1\n      0x4b9915a5\n      eq\n      tag_4\n      jumpi\n      dup1\n      0x61461954\n      eq\n      tag_5\n      jumpi\n      dup1\n      0x8a1ce0b6\n      eq\n      tag_6\n      jumpi\n      dup1\n      0x8da5cb5b\n      eq\n      tag_7\n      jumpi\n    tag_2:\n      0x00\n      dup1\n      revert\n        /* \"TimeLock.sol\":183:222  mapping (bytes32 => bool) public queued */\n    tag_3:\n      tag_8\n      0x04\n      dup1\n      calldatasize\n      sub\n      dup2\n      add\n      swap1\n      tag_9\n      swap2\n      swap1\n      tag_10\n      jump\t// in\n    tag_9:\n      tag_11\n      jump\t// in\n    tag_8:\n      mload(0x40)\n      tag_12\n      swap2\n      swap1\n      tag_13\n      jump\t// in\n    tag_12:\n      mload(0x40)\n      dup1\n      swap2\n      sub\n      swap1\n      return\n        /* \"TimeLock.sol\":721:1078  function queue(... */\n    tag_4:\n      tag_14\n      0x04\n      dup1\n      calldatasize\n      sub\n      dup2\n      add\n      swap1\n      tag_15\n      swap2\n      swap1\n      tag_16\n      jump\t// in\n    tag_15:\n      tag_17\n      jump\t// in\n    tag_14:\n      stop\n        /* \"TimeLock.sol\":1084:1114  function execute() external {} */\n    tag_5:\n      tag_18\n      tag_19\n      jump\t// in\n    tag_18:\n      stop\n        /* \"TimeLock.sol\":423:713  function getTxId(address _target, uint _value, string calldata _func, bytes calldata _data, uint _timestamp) public pure returns (bytes32 txId) {... */\n    tag_6:\n      tag_20\n      0x04\n      dup1\n      calldatasize\n      sub\n      dup2\n      add\n      swap1\n      tag_21\n      swap2\n      swap1\n      tag_16\n      jump\t// in\n    tag_21:\n      tag_22\n      jump\t// in\n    tag_20:\n      mload(0x40)\n      tag_23\n      swap2\n      swap1\n      tag_24\n      jump\t// in\n    tag_23:\n      mload(0x40)\n      dup1\n      swap2\n      sub\n      swap1\n      return\n        /* \"TimeLock.sol\":156:176  address public owner */\n    tag_7:\n      tag_25\n      tag_26\n      jump\t// in\n    tag_25:\n      mload(0x40)\n      tag_27\n      swap2\n      swap1\n      tag_28\n      jump\t// in\n    tag_27:\n      mload(0x40)\n      dup1\n      swap2\n      sub\n      swap1\n      return\n        /* \"TimeLock.sol\":183:222  mapping (bytes32 => bool) public queued */\n    tag_11:\n      mstore(0x20, 0x01)\n      dup1\n      0x00\n      mstore\n      keccak256(0x00, 0x40)\n      0x00\n      swap2\n      pop\n      sload\n      swap1\n      0x0100\n      exp\n      swap1\n      div\n      0xff\n      and\n      dup2\n      jump\t// out\n        /* \"TimeLock.sol\":721:1078  function queue(... */\n    tag_17:\n        /* \"TimeLock.sol\":340:345  owner */\n      0x00\n      dup1\n      sload\n      swap1\n      0x0100\n      exp\n      swap1\n      div\n      0xffffffffffffffffffffffffffffffffffffffff\n      and\n        /* \"TimeLock.sol\":326:345  msg.sender != owner */\n      0xffffffffffffffffffffffffffffffffffffffff\n      and\n        /* \"TimeLock.sol\":326:336  msg.sender */\n      caller\n        /* \"TimeLock.sol\":326:345  msg.sender != owner */\n      0xffffffffffffffffffffffffffffffffffffffff\n      and\n      eq\n        /* \"TimeLock.sol\":322:396  if (msg.sender != owner) {... */\n      tag_30\n      jumpi\n        /* \"TimeLock.sol\":369:384  NotOwnerError() */\n      mload(0x40)\n      0x74a2152700000000000000000000000000000000000000000000000000000000\n      dup2\n      mstore\n      0x04\n      add\n      mload(0x40)\n      dup1\n      swap2\n      sub\n      swap1\n      revert\n        /* \"TimeLock.sol\":322:396  if (msg.sender != owner) {... */\n    tag_30:\n        /* \"TimeLock.sol\":909:921  bytes32 txId */\n      0x00\n        /* \"TimeLock.sol\":924:974  getTxId(_target, _value, _func, _data, _timestamp) */\n      tag_32\n        /* \"TimeLock.sol\":932:939  _target */\n      dup9\n        /* \"TimeLock.sol\":941:947  _value */\n      dup9\n        /* \"TimeLock.sol\":949:954  _func */\n      dup9\n      dup9\n        /* \"TimeLock.sol\":956:961  _data */\n      dup9\n      dup9\n        /* \"TimeLock.sol\":963:973  _timestamp */\n      dup9\n        /* \"TimeLock.sol\":924:931  getTxId */\n      tag_22\n        /* \"TimeLock.sol\":924:974  getTxId(_target, _value, _func, _data, _timestamp) */\n      jump\t// in\n    tag_32:\n        /* \"TimeLock.sol\":909:974  bytes32 txId = getTxId(_target, _value, _func, _data, _timestamp) */\n      swap1\n      pop\n        /* \"TimeLock.sol\":989:995  queued */\n      0x01\n        /* \"TimeLock.sol\":989:1001  queued[txId] */\n      0x00\n        /* \"TimeLock.sol\":996:1000  txId */\n      dup3\n        /* \"TimeLock.sol\":989:1001  queued[txId] */\n      dup2\n      mstore\n      0x20\n      add\n      swap1\n      dup2\n      mstore\n      0x20\n      add\n      0x00\n      keccak256\n      0x00\n      swap1\n      sload\n      swap1\n      0x0100\n      exp\n      swap1\n      div\n      0xff\n      and\n        /* \"TimeLock.sol\":985:1061  if (queued[txId]) {... */\n      iszero\n      tag_33\n      jumpi\n        /* \"TimeLock.sol\":1044:1048  txId */\n      dup1\n        /* \"TimeLock.sol\":1025:1049  AlreadyQueuedError(txId) */\n      mload(0x40)\n      0x995042be00000000000000000000000000000000000000000000000000000000\n      dup2\n      mstore\n      0x04\n      add\n      tag_34\n      swap2\n      swap1\n      tag_24\n      jump\t// in\n    tag_34:\n      mload(0x40)\n      dup1\n      swap2\n      sub\n      swap1\n      revert\n        /* \"TimeLock.sol\":985:1061  if (queued[txId]) {... */\n    tag_33:\n        /* \"TimeLock.sol\":898:1078  {... */\n      pop\n        /* \"TimeLock.sol\":721:1078  function queue(... */\n      pop\n      pop\n      pop\n      pop\n      pop\n      pop\n      pop\n      jump\t// out\n        /* \"TimeLock.sol\":1084:1114  function execute() external {} */\n    tag_19:\n      jump\t// out\n        /* \"TimeLock.sol\":423:713  function getTxId(address _target, uint _value, string calldata _func, bytes calldata _data, uint _timestamp) public pure returns (bytes32 txId) {... */\n    tag_22:\n        /* \"TimeLock.sol\":553:565  bytes32 txId */\n      0x00\n        /* \"TimeLock.sol\":638:645  _target */\n      dup8\n        /* \"TimeLock.sol\":647:653  _value */\n      dup8\n        /* \"TimeLock.sol\":655:660  _func */\n      dup8\n      dup8\n        /* \"TimeLock.sol\":662:667  _data */\n      dup8\n      dup8\n        /* \"TimeLock.sol\":669:679  _timestamp */\n      dup8\n        /* \"TimeLock.sol\":609:694  abi.encode(... */\n      add(0x20, mload(0x40))\n      tag_37\n      swap8\n      swap7\n      swap6\n      swap5\n      swap4\n      swap3\n      swap2\n      swap1\n      tag_38\n      jump\t// in\n    tag_37:\n      mload(0x40)\n      0x20\n      dup2\n      dup4\n      sub\n      sub\n      dup2\n      mstore\n      swap1\n      0x40\n      mstore\n        /* \"TimeLock.sol\":585:705  keccak256(... */\n      dup1\n      mload\n      swap1\n      0x20\n      add\n      keccak256\n        /* \"TimeLock.sol\":578:705  return keccak256(... */\n      swap1\n      pop\n        /* \"TimeLock.sol\":423:713  function getTxId(address _target, uint _value, string calldata _func, bytes calldata _data, uint _timestamp) public pure returns (bytes32 txId) {... */\n      swap8\n      swap7\n      pop\n      pop\n      pop\n      pop\n      pop\n      pop\n      pop\n      jump\t// out\n        /* \"TimeLock.sol\":156:176  address public owner */\n    tag_26:\n      0x00\n      dup1\n      sload\n      swap1\n      0x0100\n      exp\n      swap1\n      div\n      0xffffffffffffffffffffffffffffffffffffffff\n      and\n      dup2\n      jump\t// out\n        /* \"#utility.yul\":88:205   */\n    tag_40:\n        /* \"#utility.yul\":197:198   */\n      0x00\n        /* \"#utility.yul\":194:195   */\n      dup1\n        /* \"#utility.yul\":187:199   */\n      revert\n        /* \"#utility.yul\":211:328   */\n    tag_41:\n        /* \"#utility.yul\":320:321   */\n      0x00\n        /* \"#utility.yul\":317:318   */\n      dup1\n        /* \"#utility.yul\":310:322   */\n      revert\n        /* \"#utility.yul\":334:411   */\n    tag_42:\n        /* \"#utility.yul\":371:378   */\n      0x00\n        /* \"#utility.yul\":400:405   */\n      dup2\n        /* \"#utility.yul\":389:405   */\n      swap1\n      pop\n        /* \"#utility.yul\":334:411   */\n      swap2\n      swap1\n      pop\n      jump\t// out\n        /* \"#utility.yul\":417:539   */\n    tag_43:\n        /* \"#utility.yul\":490:514   */\n      tag_74\n        /* \"#utility.yul\":508:513   */\n      dup2\n        /* \"#utility.yul\":490:514   */\n      tag_42\n      jump\t// in\n    tag_74:\n        /* \"#utility.yul\":483:488   */\n      dup2\n        /* \"#utility.yul\":480:515   */\n      eq\n        /* \"#utility.yul\":470:533   */\n      tag_75\n      jumpi\n        /* \"#utility.yul\":529:530   */\n      0x00\n        /* \"#utility.yul\":526:527   */\n      dup1\n        /* \"#utility.yul\":519:531   */\n      revert\n        /* \"#utility.yul\":470:533   */\n    tag_75:\n        /* \"#utility.yul\":417:539   */\n      pop\n      jump\t// out\n        /* \"#utility.yul\":545:684   */\n    tag_44:\n        /* \"#utility.yul\":591:596   */\n      0x00\n        /* \"#utility.yul\":629:635   */\n      dup2\n        /* \"#utility.yul\":616:636   */\n      calldataload\n        /* \"#utility.yul\":607:636   */\n      swap1\n      pop\n        /* \"#utility.yul\":645:678   */\n      tag_77\n        /* \"#utility.yul\":672:677   */\n      dup2\n        /* \"#utility.yul\":645:678   */\n      tag_43\n      jump\t// in\n    tag_77:\n        /* \"#utility.yul\":545:684   */\n      swap3\n      swap2\n      pop\n      pop\n      jump\t// out\n        /* \"#utility.yul\":690:1019   */\n    tag_10:\n        /* \"#utility.yul\":749:755   */\n      0x00\n        /* \"#utility.yul\":798:800   */\n      0x20\n        /* \"#utility.yul\":786:795   */\n      dup3\n        /* \"#utility.yul\":777:784   */\n      dup5\n        /* \"#utility.yul\":773:796   */\n      sub\n        /* \"#utility.yul\":769:801   */\n      slt\n        /* \"#utility.yul\":766:885   */\n      iszero\n      tag_79\n      jumpi\n        /* \"#utility.yul\":804:883   */\n      tag_80\n      tag_40\n      jump\t// in\n    tag_80:\n        /* \"#utility.yul\":766:885   */\n    tag_79:\n        /* \"#utility.yul\":924:925   */\n      0x00\n        /* \"#utility.yul\":949:1002   */\n      tag_81\n        /* \"#utility.yul\":994:1001   */\n      dup5\n        /* \"#utility.yul\":985:991   */\n      dup3\n        /* \"#utility.yul\":974:983   */\n      dup6\n        /* \"#utility.yul\":970:992   */\n      add\n        /* \"#utility.yul\":949:1002   */\n      tag_44\n      jump\t// in\n    tag_81:\n        /* \"#utility.yul\":939:1002   */\n      swap2\n      pop\n        /* \"#utility.yul\":895:1012   */\n      pop\n        /* \"#utility.yul\":690:1019   */\n      swap3\n      swap2\n      pop\n      pop\n      jump\t// out\n        /* \"#utility.yul\":1025:1115   */\n    tag_45:\n        /* \"#utility.yul\":1059:1066   */\n      0x00\n        /* \"#utility.yul\":1102:1107   */\n      dup2\n        /* \"#utility.yul\":1095:1108   */\n      iszero\n        /* \"#utility.yul\":1088:1109   */\n      iszero\n        /* \"#utility.yul\":1077:1109   */\n      swap1\n      pop\n        /* \"#utility.yul\":1025:1115   */\n      swap2\n      swap1\n      pop\n      jump\t// out\n        /* \"#utility.yul\":1121:1230   */\n    tag_46:\n        /* \"#utility.yul\":1202:1223   */\n      tag_84\n        /* \"#utility.yul\":1217:1222   */\n      dup2\n        /* \"#utility.yul\":1202:1223   */\n      tag_45\n      jump\t// in\n    tag_84:\n        /* \"#utility.yul\":1197:1200   */\n      dup3\n        /* \"#utility.yul\":1190:1224   */\n      mstore\n        /* \"#utility.yul\":1121:1230   */\n      pop\n      pop\n      jump\t// out\n        /* \"#utility.yul\":1236:1446   */\n    tag_13:\n        /* \"#utility.yul\":1323:1327   */\n      0x00\n        /* \"#utility.yul\":1361:1363   */\n      0x20\n        /* \"#utility.yul\":1350:1359   */\n      dup3\n        /* \"#utility.yul\":1346:1364   */\n      add\n        /* \"#utility.yul\":1338:1364   */\n      swap1\n      pop\n        /* \"#utility.yul\":1374:1439   */\n      tag_86\n        /* \"#utility.yul\":1436:1437   */\n      0x00\n        /* \"#utility.yul\":1425:1434   */\n      dup4\n        /* \"#utility.yul\":1421:1438   */\n      add\n        /* \"#utility.yul\":1412:1418   */\n      dup5\n        /* \"#utility.yul\":1374:1439   */\n      tag_46\n      jump\t// in\n    tag_86:\n        /* \"#utility.yul\":1236:1446   */\n      swap3\n      swap2\n      pop\n      pop\n      jump\t// out\n        /* \"#utility.yul\":1452:1578   */\n    tag_47:\n        /* \"#utility.yul\":1489:1496   */\n      0x00\n        /* \"#utility.yul\":1529:1571   */\n      0xffffffffffffffffffffffffffffffffffffffff\n        /* \"#utility.yul\":1522:1527   */\n      dup3\n        /* \"#utility.yul\":1518:1572   */\n      and\n        /* \"#utility.yul\":1507:1572   */\n      swap1\n      pop\n        /* \"#utility.yul\":1452:1578   */\n      swap2\n      swap1\n      pop\n      jump\t// out\n        /* \"#utility.yul\":1584:1680   */\n    tag_48:\n        /* \"#utility.yul\":1621:1628   */\n      0x00\n        /* \"#utility.yul\":1650:1674   */\n      tag_89\n        /* \"#utility.yul\":1668:1673   */\n      dup3\n        /* \"#utility.yul\":1650:1674   */\n      tag_47\n      jump\t// in\n    tag_89:\n        /* \"#utility.yul\":1639:1674   */\n      swap1\n      pop\n        /* \"#utility.yul\":1584:1680   */\n      swap2\n      swap1\n      pop\n      jump\t// out\n        /* \"#utility.yul\":1686:1808   */\n    tag_49:\n        /* \"#utility.yul\":1759:1783   */\n      tag_91\n        /* \"#utility.yul\":1777:1782   */\n      dup2\n        /* \"#utility.yul\":1759:1783   */\n      tag_48\n      jump\t// in\n    tag_91:\n        /* \"#utility.yul\":1752:1757   */\n      dup2\n        /* \"#utility.yul\":1749:1784   */\n      eq\n        /* \"#utility.yul\":1739:1802   */\n      tag_92\n      jumpi\n        /* \"#utility.yul\":1798:1799   */\n      0x00\n        /* \"#utility.yul\":1795:1796   */\n      dup1\n        /* \"#utility.yul\":1788:1800   */\n      revert\n        /* \"#utility.yul\":1739:1802   */\n    tag_92:\n        /* \"#utility.yul\":1686:1808   */\n      pop\n      jump\t// out\n        /* \"#utility.yul\":1814:1953   */\n    tag_50:\n        /* \"#utility.yul\":1860:1865   */\n      0x00\n        /* \"#utility.yul\":1898:1904   */\n      dup2\n        /* \"#utility.yul\":1885:1905   */\n      calldataload\n        /* \"#utility.yul\":1876:1905   */\n      swap1\n      pop\n        /* \"#utility.yul\":1914:1947   */\n      tag_94\n        /* \"#utility.yul\":1941:1946   */\n      dup2\n        /* \"#utility.yul\":1914:1947   */\n      tag_49\n      jump\t// in\n    tag_94:\n        /* \"#utility.yul\":1814:1953   */\n      swap3\n      swap2\n      pop\n      pop\n      jump\t// out\n        /* \"#utility.yul\":1959:2036   */\n    tag_51:\n        /* \"#utility.yul\":1996:2003   */\n      0x00\n        /* \"#utility.yul\":2025:2030   */\n      dup2\n        /* \"#utility.yul\":2014:2030   */\n      swap1\n      pop\n        /* \"#utility.yul\":1959:2036   */\n      swap2\n      swap1\n      pop\n      jump\t// out\n        /* \"#utility.yul\":2042:2164   */\n    tag_52:\n        /* \"#utility.yul\":2115:2139   */\n      tag_97\n        /* \"#utility.yul\":2133:2138   */\n      dup2\n        /* \"#utility.yul\":2115:2139   */\n      tag_51\n      jump\t// in\n    tag_97:\n        /* \"#utility.yul\":2108:2113   */\n      dup2\n        /* \"#utility.yul\":2105:2140   */\n      eq\n        /* \"#utility.yul\":2095:2158   */\n      tag_98\n      jumpi\n        /* \"#utility.yul\":2154:2155   */\n      0x00\n        /* \"#utility.yul\":2151:2152   */\n      dup1\n        /* \"#utility.yul\":2144:2156   */\n      revert\n        /* \"#utility.yul\":2095:2158   */\n    tag_98:\n        /* \"#utility.yul\":2042:2164   */\n      pop\n      jump\t// out\n        /* \"#utility.yul\":2170:2309   */\n    tag_53:\n        /* \"#utility.yul\":2216:2221   */\n      0x00\n        /* \"#utility.yul\":2254:2260   */\n      dup2\n        /* \"#utility.yul\":2241:2261   */\n      calldataload\n        /* \"#utility.yul\":2232:2261   */\n      swap1\n      pop\n        /* \"#utility.yul\":2270:2303   */\n      tag_100\n        /* \"#utility.yul\":2297:2302   */\n      dup2\n        /* \"#utility.yul\":2270:2303   */\n      tag_52\n      jump\t// in\n    tag_100:\n        /* \"#utility.yul\":2170:2309   */\n      swap3\n      swap2\n      pop\n      pop\n      jump\t// out\n        /* \"#utility.yul\":2315:2432   */\n    tag_54:\n        /* \"#utility.yul\":2424:2425   */\n      0x00\n        /* \"#utility.yul\":2421:2422   */\n      dup1\n        /* \"#utility.yul\":2414:2426   */\n      revert\n        /* \"#utility.yul\":2438:2555   */\n    tag_55:\n        /* \"#utility.yul\":2547:2548   */\n      0x00\n        /* \"#utility.yul\":2544:2545   */\n      dup1\n        /* \"#utility.yul\":2537:2549   */\n      revert\n        /* \"#utility.yul\":2561:2678   */\n    tag_56:\n        /* \"#utility.yul\":2670:2671   */\n      0x00\n        /* \"#utility.yul\":2667:2668   */\n      dup1\n        /* \"#utility.yul\":2660:2672   */\n      revert\n        /* \"#utility.yul\":2698:3251   */\n    tag_57:\n        /* \"#utility.yul\":2756:2764   */\n      0x00\n        /* \"#utility.yul\":2766:2772   */\n      dup1\n        /* \"#utility.yul\":2816:2819   */\n      dup4\n        /* \"#utility.yul\":2809:2813   */\n      0x1f\n        /* \"#utility.yul\":2801:2807   */\n      dup5\n        /* \"#utility.yul\":2797:2814   */\n      add\n        /* \"#utility.yul\":2793:2820   */\n      slt\n        /* \"#utility.yul\":2783:2905   */\n      tag_105\n      jumpi\n        /* \"#utility.yul\":2824:2903   */\n      tag_106\n      tag_54\n      jump\t// in\n    tag_106:\n        /* \"#utility.yul\":2783:2905   */\n    tag_105:\n        /* \"#utility.yul\":2937:2943   */\n      dup3\n        /* \"#utility.yul\":2924:2944   */\n      calldataload\n        /* \"#utility.yul\":2914:2944   */\n      swap1\n      pop\n        /* \"#utility.yul\":2967:2985   */\n      0xffffffffffffffff\n        /* \"#utility.yul\":2959:2965   */\n      dup2\n        /* \"#utility.yul\":2956:2986   */\n      gt\n        /* \"#utility.yul\":2953:3070   */\n      iszero\n      tag_107\n      jumpi\n        /* \"#utility.yul\":2989:3068   */\n      tag_108\n      tag_55\n      jump\t// in\n    tag_108:\n        /* \"#utility.yul\":2953:3070   */\n    tag_107:\n        /* \"#utility.yul\":3103:3107   */\n      0x20\n        /* \"#utility.yul\":3095:3101   */\n      dup4\n        /* \"#utility.yul\":3091:3108   */\n      add\n        /* \"#utility.yul\":3079:3108   */\n      swap2\n      pop\n        /* \"#utility.yul\":3157:3160   */\n      dup4\n        /* \"#utility.yul\":3149:3153   */\n      0x01\n        /* \"#utility.yul\":3141:3147   */\n      dup3\n        /* \"#utility.yul\":3137:3154   */\n      mul\n        /* \"#utility.yul\":3127:3135   */\n      dup4\n        /* \"#utility.yul\":3123:3155   */\n      add\n        /* \"#utility.yul\":3120:3161   */\n      gt\n        /* \"#utility.yul\":3117:3245   */\n      iszero\n      tag_109\n      jumpi\n        /* \"#utility.yul\":3164:3243   */\n      tag_110\n      tag_56\n      jump\t// in\n    tag_110:\n        /* \"#utility.yul\":3117:3245   */\n    tag_109:\n        /* \"#utility.yul\":2698:3251   */\n      swap3\n      pop\n      swap3\n      swap1\n      pop\n      jump\t// out\n        /* \"#utility.yul\":3270:3822   */\n    tag_58:\n        /* \"#utility.yul\":3327:3335   */\n      0x00\n        /* \"#utility.yul\":3337:3343   */\n      dup1\n        /* \"#utility.yul\":3387:3390   */\n      dup4\n        /* \"#utility.yul\":3380:3384   */\n      0x1f\n        /* \"#utility.yul\":3372:3378   */\n      dup5\n        /* \"#utility.yul\":3368:3385   */\n      add\n        /* \"#utility.yul\":3364:3391   */\n      slt\n        /* \"#utility.yul\":3354:3476   */\n      tag_112\n      jumpi\n        /* \"#utility.yul\":3395:3474   */\n      tag_113\n      tag_54\n      jump\t// in\n    tag_113:\n        /* \"#utility.yul\":3354:3476   */\n    tag_112:\n        /* \"#utility.yul\":3508:3514   */\n      dup3\n        /* \"#utility.yul\":3495:3515   */\n      calldataload\n        /* \"#utility.yul\":3485:3515   */\n      swap1\n      pop\n        /* \"#utility.yul\":3538:3556   */\n      0xffffffffffffffff\n        /* \"#utility.yul\":3530:3536   */\n      dup2\n        /* \"#utility.yul\":3527:3557   */\n      gt\n        /* \"#utility.yul\":3524:3641   */\n      iszero\n      tag_114\n      jumpi\n        /* \"#utility.yul\":3560:3639   */\n      tag_115\n      tag_55\n      jump\t// in\n    tag_115:\n        /* \"#utility.yul\":3524:3641   */\n    tag_114:\n        /* \"#utility.yul\":3674:3678   */\n      0x20\n        /* \"#utility.yul\":3666:3672   */\n      dup4\n        /* \"#utility.yul\":3662:3679   */\n      add\n        /* \"#utility.yul\":3650:3679   */\n      swap2\n      pop\n        /* \"#utility.yul\":3728:3731   */\n      dup4\n        /* \"#utility.yul\":3720:3724   */\n      0x01\n        /* \"#utility.yul\":3712:3718   */\n      dup3\n        /* \"#utility.yul\":3708:3725   */\n      mul\n        /* \"#utility.yul\":3698:3706   */\n      dup4\n        /* \"#utility.yul\":3694:3726   */\n      add\n        /* \"#utility.yul\":3691:3732   */\n      gt\n        /* \"#utility.yul\":3688:3816   */\n      iszero\n      tag_116\n      jumpi\n        /* \"#utility.yul\":3735:3814   */\n      tag_117\n      tag_56\n      jump\t// in\n    tag_117:\n        /* \"#utility.yul\":3688:3816   */\n    tag_116:\n        /* \"#utility.yul\":3270:3822   */\n      swap3\n      pop\n      swap3\n      swap1\n      pop\n      jump\t// out\n        /* \"#utility.yul\":3828:5137   */\n    tag_16:\n        /* \"#utility.yul\":3946:3952   */\n      0x00\n        /* \"#utility.yul\":3954:3960   */\n      dup1\n        /* \"#utility.yul\":3962:3968   */\n      0x00\n        /* \"#utility.yul\":3970:3976   */\n      dup1\n        /* \"#utility.yul\":3978:3984   */\n      0x00\n        /* \"#utility.yul\":3986:3992   */\n      dup1\n        /* \"#utility.yul\":3994:4000   */\n      0x00\n        /* \"#utility.yul\":4043:4046   */\n      0xa0\n        /* \"#utility.yul\":4031:4040   */\n      dup9\n        /* \"#utility.yul\":4022:4029   */\n      dup11\n        /* \"#utility.yul\":4018:4041   */\n      sub\n        /* \"#utility.yul\":4014:4047   */\n      slt\n        /* \"#utility.yul\":4011:4131   */\n      iszero\n      tag_119\n      jumpi\n        /* \"#utility.yul\":4050:4129   */\n      tag_120\n      tag_40\n      jump\t// in\n    tag_120:\n        /* \"#utility.yul\":4011:4131   */\n    tag_119:\n        /* \"#utility.yul\":4170:4171   */\n      0x00\n        /* \"#utility.yul\":4195:4248   */\n      tag_121\n        /* \"#utility.yul\":4240:4247   */\n      dup11\n        /* \"#utility.yul\":4231:4237   */\n      dup3\n        /* \"#utility.yul\":4220:4229   */\n      dup12\n        /* \"#utility.yul\":4216:4238   */\n      add\n        /* \"#utility.yul\":4195:4248   */\n      tag_50\n      jump\t// in\n    tag_121:\n        /* \"#utility.yul\":4185:4248   */\n      swap8\n      pop\n        /* \"#utility.yul\":4141:4258   */\n      pop\n        /* \"#utility.yul\":4297:4299   */\n      0x20\n        /* \"#utility.yul\":4323:4376   */\n      tag_122\n        /* \"#utility.yul\":4368:4375   */\n      dup11\n        /* \"#utility.yul\":4359:4365   */\n      dup3\n        /* \"#utility.yul\":4348:4357   */\n      dup12\n        /* \"#utility.yul\":4344:4366   */\n      add\n        /* \"#utility.yul\":4323:4376   */\n      tag_53\n      jump\t// in\n    tag_122:\n        /* \"#utility.yul\":4313:4376   */\n      swap7\n      pop\n        /* \"#utility.yul\":4268:4386   */\n      pop\n        /* \"#utility.yul\":4453:4455   */\n      0x40\n        /* \"#utility.yul\":4442:4451   */\n      dup9\n        /* \"#utility.yul\":4438:4456   */\n      add\n        /* \"#utility.yul\":4425:4457   */\n      calldataload\n        /* \"#utility.yul\":4484:4502   */\n      0xffffffffffffffff\n        /* \"#utility.yul\":4476:4482   */\n      dup2\n        /* \"#utility.yul\":4473:4503   */\n      gt\n        /* \"#utility.yul\":4470:4587   */\n      iszero\n      tag_123\n      jumpi\n        /* \"#utility.yul\":4506:4585   */\n      tag_124\n      tag_41\n      jump\t// in\n    tag_124:\n        /* \"#utility.yul\":4470:4587   */\n    tag_123:\n        /* \"#utility.yul\":4619:4684   */\n      tag_125\n        /* \"#utility.yul\":4676:4683   */\n      dup11\n        /* \"#utility.yul\":4667:4673   */\n      dup3\n        /* \"#utility.yul\":4656:4665   */\n      dup12\n        /* \"#utility.yul\":4652:4674   */\n      add\n        /* \"#utility.yul\":4619:4684   */\n      tag_57\n      jump\t// in\n    tag_125:\n        /* \"#utility.yul\":4601:4684   */\n      swap6\n      pop\n      swap6\n      pop\n        /* \"#utility.yul\":4396:4694   */\n      pop\n        /* \"#utility.yul\":4761:4763   */\n      0x60\n        /* \"#utility.yul\":4750:4759   */\n      dup9\n        /* \"#utility.yul\":4746:4764   */\n      add\n        /* \"#utility.yul\":4733:4765   */\n      calldataload\n        /* \"#utility.yul\":4792:4810   */\n      0xffffffffffffffff\n        /* \"#utility.yul\":4784:4790   */\n      dup2\n        /* \"#utility.yul\":4781:4811   */\n      gt\n        /* \"#utility.yul\":4778:4895   */\n      iszero\n      tag_126\n      jumpi\n        /* \"#utility.yul\":4814:4893   */\n      tag_127\n      tag_41\n      jump\t// in\n    tag_127:\n        /* \"#utility.yul\":4778:4895   */\n    tag_126:\n        /* \"#utility.yul\":4927:4991   */\n      tag_128\n        /* \"#utility.yul\":4983:4990   */\n      dup11\n        /* \"#utility.yul\":4974:4980   */\n      dup3\n        /* \"#utility.yul\":4963:4972   */\n      dup12\n        /* \"#utility.yul\":4959:4981   */\n      add\n        /* \"#utility.yul\":4927:4991   */\n      tag_58\n      jump\t// in\n    tag_128:\n        /* \"#utility.yul\":4909:4991   */\n      swap4\n      pop\n      swap4\n      pop\n        /* \"#utility.yul\":4704:5001   */\n      pop\n        /* \"#utility.yul\":5040:5043   */\n      0x80\n        /* \"#utility.yul\":5067:5120   */\n      tag_129\n        /* \"#utility.yul\":5112:5119   */\n      dup11\n        /* \"#utility.yul\":5103:5109   */\n      dup3\n        /* \"#utility.yul\":5092:5101   */\n      dup12\n        /* \"#utility.yul\":5088:5110   */\n      add\n        /* \"#utility.yul\":5067:5120   */\n      tag_53\n      jump\t// in\n    tag_129:\n        /* \"#utility.yul\":5057:5120   */\n      swap2\n      pop\n        /* \"#utility.yul\":5011:5130   */\n      pop\n        /* \"#utility.yul\":3828:5137   */\n      swap3\n      swap6\n      swap9\n      swap2\n      swap5\n      swap8\n      pop\n      swap3\n      swap6\n      pop\n      jump\t// out\n        /* \"#utility.yul\":5143:5261   */\n    tag_59:\n        /* \"#utility.yul\":5230:5254   */\n      tag_131\n        /* \"#utility.yul\":5248:5253   */\n      dup2\n        /* \"#utility.yul\":5230:5254   */\n      tag_42\n      jump\t// in\n    tag_131:\n        /* \"#utility.yul\":5225:5228   */\n      dup3\n        /* \"#utility.yul\":5218:5255   */\n      mstore\n        /* \"#utility.yul\":5143:5261   */\n      pop\n      pop\n      jump\t// out\n        /* \"#utility.yul\":5267:5489   */\n    tag_24:\n        /* \"#utility.yul\":5360:5364   */\n      0x00\n        /* \"#utility.yul\":5398:5400   */\n      0x20\n        /* \"#utility.yul\":5387:5396   */\n      dup3\n        /* \"#utility.yul\":5383:5401   */\n      add\n        /* \"#utility.yul\":5375:5401   */\n      swap1\n      pop\n        /* \"#utility.yul\":5411:5482   */\n      tag_133\n        /* \"#utility.yul\":5479:5480   */\n      0x00\n        /* \"#utility.yul\":5468:5477   */\n      dup4\n        /* \"#utility.yul\":5464:5481   */\n      add\n        /* \"#utility.yul\":5455:5461   */\n      dup5\n        /* \"#utility.yul\":5411:5482   */\n      tag_59\n      jump\t// in\n    tag_133:\n        /* \"#utility.yul\":5267:5489   */\n      swap3\n      swap2\n      pop\n      pop\n      jump\t// out\n        /* \"#utility.yul\":5495:5613   */\n    tag_60:\n        /* \"#utility.yul\":5582:5606   */\n      tag_135\n        /* \"#utility.yul\":5600:5605   */\n      dup2\n        /* \"#utility.yul\":5582:5606   */\n      tag_48\n      jump\t// in\n    tag_135:\n        /* \"#utility.yul\":5577:5580   */\n      dup3\n        /* \"#utility.yul\":5570:5607   */\n      mstore\n        /* \"#utility.yul\":5495:5613   */\n      pop\n      pop\n      jump\t// out\n        /* \"#utility.yul\":5619:5841   */\n    tag_28:\n        /* \"#utility.yul\":5712:5716   */\n      0x00\n        /* \"#utility.yul\":5750:5752   */\n      0x20\n        /* \"#utility.yul\":5739:5748   */\n      dup3\n        /* \"#utility.yul\":5735:5753   */\n      add\n        /* \"#utility.yul\":5727:5753   */\n      swap1\n      pop\n        /* \"#utility.yul\":5763:5834   */\n      tag_137\n        /* \"#utility.yul\":5831:5832   */\n      0x00\n        /* \"#utility.yul\":5820:5829   */\n      dup4\n        /* \"#utility.yul\":5816:5833   */\n      add\n        /* \"#utility.yul\":5807:5813   */\n      dup5\n        /* \"#utility.yul\":5763:5834   */\n      tag_60\n      jump\t// in\n    tag_137:\n        /* \"#utility.yul\":5619:5841   */\n      swap3\n      swap2\n      pop\n      pop\n      jump\t// out\n        /* \"#utility.yul\":5847:5965   */\n    tag_61:\n        /* \"#utility.yul\":5934:5958   */\n      tag_139\n        /* \"#utility.yul\":5952:5957   */\n      dup2\n        /* \"#utility.yul\":5934:5958   */\n      tag_51\n      jump\t// in\n    tag_139:\n        /* \"#utility.yul\":5929:5932   */\n      dup3\n        /* \"#utility.yul\":5922:5959   */\n      mstore\n        /* \"#utility.yul\":5847:5965   */\n      pop\n      pop\n      jump\t// out\n        /* \"#utility.yul\":5971:6140   */\n    tag_62:\n        /* \"#utility.yul\":6055:6066   */\n      0x00\n        /* \"#utility.yul\":6089:6095   */\n      dup3\n        /* \"#utility.yul\":6084:6087   */\n      dup3\n        /* \"#utility.yul\":6077:6096   */\n      mstore\n        /* \"#utility.yul\":6129:6133   */\n      0x20\n        /* \"#utility.yul\":6124:6127   */\n      dup3\n        /* \"#utility.yul\":6120:6134   */\n      add\n        /* \"#utility.yul\":6105:6134   */\n      swap1\n      pop\n        /* \"#utility.yul\":5971:6140   */\n      swap3\n      swap2\n      pop\n      pop\n      jump\t// out\n        /* \"#utility.yul\":6146:6292   */\n    tag_63:\n        /* \"#utility.yul\":6243:6249   */\n      dup3\n        /* \"#utility.yul\":6238:6241   */\n      dup2\n        /* \"#utility.yul\":6233:6236   */\n      dup4\n        /* \"#utility.yul\":6220:6250   */\n      calldatacopy\n        /* \"#utility.yul\":6284:6285   */\n      0x00\n        /* \"#utility.yul\":6275:6281   */\n      dup4\n        /* \"#utility.yul\":6270:6273   */\n      dup4\n        /* \"#utility.yul\":6266:6282   */\n      add\n        /* \"#utility.yul\":6259:6286   */\n      mstore\n        /* \"#utility.yul\":6146:6292   */\n      pop\n      pop\n      pop\n      jump\t// out\n        /* \"#utility.yul\":6298:6400   */\n    tag_64:\n        /* \"#utility.yul\":6339:6345   */\n      0x00\n        /* \"#utility.yul\":6390:6392   */\n      0x1f\n        /* \"#utility.yul\":6386:6393   */\n      not\n        /* \"#utility.yul\":6381:6383   */\n      0x1f\n        /* \"#utility.yul\":6374:6379   */\n      dup4\n        /* \"#utility.yul\":6370:6384   */\n      add\n        /* \"#utility.yul\":6366:6394   */\n      and\n        /* \"#utility.yul\":6356:6394   */\n      swap1\n      pop\n        /* \"#utility.yul\":6298:6400   */\n      swap2\n      swap1\n      pop\n      jump\t// out\n        /* \"#utility.yul\":6430:6747   */\n    tag_65:\n        /* \"#utility.yul\":6528:6531   */\n      0x00\n        /* \"#utility.yul\":6549:6620   */\n      tag_144\n        /* \"#utility.yul\":6613:6619   */\n      dup4\n        /* \"#utility.yul\":6608:6611   */\n      dup6\n        /* \"#utility.yul\":6549:6620   */\n      tag_62\n      jump\t// in\n    tag_144:\n        /* \"#utility.yul\":6542:6620   */\n      swap4\n      pop\n        /* \"#utility.yul\":6630:6686   */\n      tag_145\n        /* \"#utility.yul\":6679:6685   */\n      dup4\n        /* \"#utility.yul\":6674:6677   */\n      dup6\n        /* \"#utility.yul\":6667:6672   */\n      dup5\n        /* \"#utility.yul\":6630:6686   */\n      tag_63\n      jump\t// in\n    tag_145:\n        /* \"#utility.yul\":6711:6740   */\n      tag_146\n        /* \"#utility.yul\":6733:6739   */\n      dup4\n        /* \"#utility.yul\":6711:6740   */\n      tag_64\n      jump\t// in\n    tag_146:\n        /* \"#utility.yul\":6706:6709   */\n      dup5\n        /* \"#utility.yul\":6702:6741   */\n      add\n        /* \"#utility.yul\":6695:6741   */\n      swap1\n      pop\n        /* \"#utility.yul\":6430:6747   */\n      swap4\n      swap3\n      pop\n      pop\n      pop\n      jump\t// out\n        /* \"#utility.yul\":6753:6921   */\n    tag_66:\n        /* \"#utility.yul\":6836:6847   */\n      0x00\n        /* \"#utility.yul\":6870:6876   */\n      dup3\n        /* \"#utility.yul\":6865:6868   */\n      dup3\n        /* \"#utility.yul\":6858:6877   */\n      mstore\n        /* \"#utility.yul\":6910:6914   */\n      0x20\n        /* \"#utility.yul\":6905:6908   */\n      dup3\n        /* \"#utility.yul\":6901:6915   */\n      add\n        /* \"#utility.yul\":6886:6915   */\n      swap1\n      pop\n        /* \"#utility.yul\":6753:6921   */\n      swap3\n      swap2\n      pop\n      pop\n      jump\t// out\n        /* \"#utility.yul\":6949:7263   */\n    tag_67:\n        /* \"#utility.yul\":7045:7048   */\n      0x00\n        /* \"#utility.yul\":7066:7136   */\n      tag_149\n        /* \"#utility.yul\":7129:7135   */\n      dup4\n        /* \"#utility.yul\":7124:7127   */\n      dup6\n        /* \"#utility.yul\":7066:7136   */\n      tag_66\n      jump\t// in\n    tag_149:\n        /* \"#utility.yul\":7059:7136   */\n      swap4\n      pop\n        /* \"#utility.yul\":7146:7202   */\n      tag_150\n        /* \"#utility.yul\":7195:7201   */\n      dup4\n        /* \"#utility.yul\":7190:7193   */\n      dup6\n        /* \"#utility.yul\":7183:7188   */\n      dup5\n        /* \"#utility.yul\":7146:7202   */\n      tag_63\n      jump\t// in\n    tag_150:\n        /* \"#utility.yul\":7227:7256   */\n      tag_151\n        /* \"#utility.yul\":7249:7255   */\n      dup4\n        /* \"#utility.yul\":7227:7256   */\n      tag_64\n      jump\t// in\n    tag_151:\n        /* \"#utility.yul\":7222:7225   */\n      dup5\n        /* \"#utility.yul\":7218:7257   */\n      add\n        /* \"#utility.yul\":7211:7257   */\n      swap1\n      pop\n        /* \"#utility.yul\":6949:7263   */\n      swap4\n      swap3\n      pop\n      pop\n      pop\n      jump\t// out\n        /* \"#utility.yul\":7269:8151   */\n    tag_38:\n        /* \"#utility.yul\":7532:7536   */\n      0x00\n        /* \"#utility.yul\":7570:7573   */\n      0xa0\n        /* \"#utility.yul\":7559:7568   */\n      dup3\n        /* \"#utility.yul\":7555:7574   */\n      add\n        /* \"#utility.yul\":7547:7574   */\n      swap1\n      pop\n        /* \"#utility.yul\":7584:7655   */\n      tag_153\n        /* \"#utility.yul\":7652:7653   */\n      0x00\n        /* \"#utility.yul\":7641:7650   */\n      dup4\n        /* \"#utility.yul\":7637:7654   */\n      add\n        /* \"#utility.yul\":7628:7634   */\n      dup11\n        /* \"#utility.yul\":7584:7655   */\n      tag_60\n      jump\t// in\n    tag_153:\n        /* \"#utility.yul\":7665:7737   */\n      tag_154\n        /* \"#utility.yul\":7733:7735   */\n      0x20\n        /* \"#utility.yul\":7722:7731   */\n      dup4\n        /* \"#utility.yul\":7718:7736   */\n      add\n        /* \"#utility.yul\":7709:7715   */\n      dup10\n        /* \"#utility.yul\":7665:7737   */\n      tag_61\n      jump\t// in\n    tag_154:\n        /* \"#utility.yul\":7784:7793   */\n      dup2\n        /* \"#utility.yul\":7778:7782   */\n      dup2\n        /* \"#utility.yul\":7774:7794   */\n      sub\n        /* \"#utility.yul\":7769:7771   */\n      0x40\n        /* \"#utility.yul\":7758:7767   */\n      dup4\n        /* \"#utility.yul\":7754:7772   */\n      add\n        /* \"#utility.yul\":7747:7795   */\n      mstore\n        /* \"#utility.yul\":7812:7900   */\n      tag_155\n        /* \"#utility.yul\":7895:7899   */\n      dup2\n        /* \"#utility.yul\":7886:7892   */\n      dup8\n        /* \"#utility.yul\":7878:7884   */\n      dup10\n        /* \"#utility.yul\":7812:7900   */\n      tag_65\n      jump\t// in\n    tag_155:\n        /* \"#utility.yul\":7804:7900   */\n      swap1\n      pop\n        /* \"#utility.yul\":7947:7956   */\n      dup2\n        /* \"#utility.yul\":7941:7945   */\n      dup2\n        /* \"#utility.yul\":7937:7957   */\n      sub\n        /* \"#utility.yul\":7932:7934   */\n      0x60\n        /* \"#utility.yul\":7921:7930   */\n      dup4\n        /* \"#utility.yul\":7917:7935   */\n      add\n        /* \"#utility.yul\":7910:7958   */\n      mstore\n        /* \"#utility.yul\":7975:8061   */\n      tag_156\n        /* \"#utility.yul\":8056:8060   */\n      dup2\n        /* \"#utility.yul\":8047:8053   */\n      dup6\n        /* \"#utility.yul\":8039:8045   */\n      dup8\n        /* \"#utility.yul\":7975:8061   */\n      tag_67\n      jump\t// in\n    tag_156:\n        /* \"#utility.yul\":7967:8061   */\n      swap1\n      pop\n        /* \"#utility.yul\":8071:8144   */\n      tag_157\n        /* \"#utility.yul\":8139:8142   */\n      0x80\n        /* \"#utility.yul\":8128:8137   */\n      dup4\n        /* \"#utility.yul\":8124:8143   */\n      add\n        /* \"#utility.yul\":8115:8121   */\n      dup5\n        /* \"#utility.yul\":8071:8144   */\n      tag_61\n      jump\t// in\n    tag_157:\n        /* \"#utility.yul\":7269:8151   */\n      swap9\n      swap8\n      pop\n      pop\n      pop\n      pop\n      pop\n      pop\n      pop\n      pop\n      jump\t// out\n\n    auxdata: 0xa2646970667358221220fe0282e4725309a015211283a49b8431944cade11d2ee4d2f0849345cb56ac8764736f6c63430008110033\n}\n",
				"bytecode": {
					"linkReferences": {},
					"object": "608060405234801561001057600080fd5b50336000806101000a81548173ffffffffffffffffffffffffffffffffffffffff021916908373ffffffffffffffffffffffffffffffffffffffff1602179055506106d5806100606000396000f3fe608060405234801561001057600080fd5b50600436106100575760003560e01c8063228250c91461005c5780634b9915a51461008c57806361461954146100a85780638a1ce0b6146100b25780638da5cb5b146100e2575b600080fd5b610076600480360381019061007191906102cd565b610100565b6040516100839190610315565b60405180910390f35b6100a660048036038101906100a1919061047f565b610120565b005b6100b0610225565b005b6100cc60048036038101906100c7919061047f565b610227565b6040516100d9919061054a565b60405180910390f35b6100ea610269565b6040516100f79190610574565b60405180910390f35b60016020528060005260406000206000915054906101000a900460ff1681565b60008054906101000a900473ffffffffffffffffffffffffffffffffffffffff1673ffffffffffffffffffffffffffffffffffffffff163373ffffffffffffffffffffffffffffffffffffffff16146101a5576040517f74a2152700000000000000000000000000000000000000000000000000000000815260040160405180910390fd5b60006101b688888888888888610227565b90506001600082815260200190815260200160002060009054906101000a900460ff161561021b57806040517f995042be000000000000000000000000000000000000000000000000000000008152600401610212919061054a565b60405180910390fd5b5050505050505050565b565b600087878787878787604051602001610246979695949392919061063a565b604051602081830303815290604052805190602001209050979650505050505050565b60008054906101000a900473ffffffffffffffffffffffffffffffffffffffff1681565b600080fd5b600080fd5b6000819050919050565b6102aa81610297565b81146102b557600080fd5b50565b6000813590506102c7816102a1565b92915050565b6000602082840312156102e3576102e261028d565b5b60006102f1848285016102b8565b91505092915050565b60008115159050919050565b61030f816102fa565b82525050565b600060208201905061032a6000830184610306565b92915050565b600073ffffffffffffffffffffffffffffffffffffffff82169050919050565b600061035b82610330565b9050919050565b61036b81610350565b811461037657600080fd5b50565b60008135905061038881610362565b92915050565b6000819050919050565b6103a18161038e565b81146103ac57600080fd5b50565b6000813590506103be81610398565b92915050565b600080fd5b600080fd5b600080fd5b60008083601f8401126103e9576103e86103c4565b5b8235905067ffffffffffffffff811115610406576104056103c9565b5b602083019150836001820283011115610422576104216103ce565b5b9250929050565b60008083601f84011261043f5761043e6103c4565b5b8235905067ffffffffffffffff81111561045c5761045b6103c9565b5b602083019150836001820283011115610478576104776103ce565b5b9250929050565b600080600080600080600060a0888a03121561049e5761049d61028d565b5b60006104ac8a828b01610379565b97505060206104bd8a828b016103af565b965050604088013567ffffffffffffffff8111156104de576104dd610292565b5b6104ea8a828b016103d3565b9550955050606088013567ffffffffffffffff81111561050d5761050c610292565b5b6105198a828b01610429565b9350935050608061052c8a828b016103af565b91505092959891949750929550565b61054481610297565b82525050565b600060208201905061055f600083018461053b565b92915050565b61056e81610350565b82525050565b60006020820190506105896000830184610565565b92915050565b6105988161038e565b82525050565b600082825260208201905092915050565b82818337600083830152505050565b6000601f19601f8301169050919050565b60006105db838561059e565b93506105e88385846105af565b6105f1836105be565b840190509392505050565b600082825260208201905092915050565b600061061983856105fc565b93506106268385846105af565b61062f836105be565b840190509392505050565b600060a08201905061064f600083018a610565565b61065c602083018961058f565b818103604083015261066f8187896105cf565b9050818103606083015261068481858761060d565b9050610693608083018461058f565b9897505050505050505056fea2646970667358221220fe0282e4725309a015211283a49b8431944cade11d2ee4d2f0849345cb56ac8764736f6c63430008110033",
					"opcodes": "PUSH1 0x80 PUSH1 0x40 MSTORE CALLVALUE DUP1 ISZERO PUSH2 0x10 JUMPI PUSH1 0x0 DUP1 REVERT JUMPDEST POP CALLER PUSH1 0x0 DUP1 PUSH2 0x100 EXP DUP2 SLOAD DUP2 PUSH20 0xFFFFFFFFFFFFFFFFFFFFFFFFFFFFFFFFFFFFFFFF MUL NOT AND SWAP1 DUP4 PUSH20 0xFFFFFFFFFFFFFFFFFFFFFFFFFFFFFFFFFFFFFFFF AND MUL OR SWAP1 SSTORE POP PUSH2 0x6D5 DUP1 PUSH2 0x60 PUSH1 0x0 CODECOPY PUSH1 0x0 RETURN INVALID PUSH1 0x80 PUSH1 0x40 MSTORE CALLVALUE DUP1 ISZERO PUSH2 0x10 JUMPI PUSH1 0x0 DUP1 REVERT JUMPDEST POP PUSH1 0x4 CALLDATASIZE LT PUSH2 0x57 JUMPI PUSH1 0x0 CALLDATALOAD PUSH1 0xE0 SHR DUP1 PUSH4 0x228250C9 EQ PUSH2 0x5C JUMPI DUP1 PUSH4 0x4B9915A5 EQ PUSH2 0x8C JUMPI DUP1 PUSH4 0x61461954 EQ PUSH2 0xA8 JUMPI DUP1 PUSH4 0x8A1CE0B6 EQ PUSH2 0xB2 JUMPI DUP1 PUSH4 0x8DA5CB5B EQ PUSH2 0xE2 JUMPI JUMPDEST PUSH1 0x0 DUP1 REVERT JUMPDEST PUSH2 0x76 PUSH1 0x4 DUP1 CALLDATASIZE SUB DUP2 ADD SWAP1 PUSH2 0x71 SWAP2 SWAP1 PUSH2 0x2CD JUMP JUMPDEST PUSH2 0x100 JUMP JUMPDEST PUSH1 0x40 MLOAD PUSH2 0x83 SWAP2 SWAP1 PUSH2 0x315 JUMP JUMPDEST PUSH1 0x40 MLOAD DUP1 SWAP2 SUB SWAP1 RETURN JUMPDEST PUSH2 0xA6 PUSH1 0x4 DUP1 CALLDATASIZE SUB DUP2 ADD SWAP1 PUSH2 0xA1 SWAP2 SWAP1 PUSH2 0x47F JUMP JUMPDEST PUSH2 0x120 JUMP JUMPDEST STOP JUMPDEST PUSH2 0xB0 PUSH2 0x225 JUMP JUMPDEST STOP JUMPDEST PUSH2 0xCC PUSH1 0x4 DUP1 CALLDATASIZE SUB DUP2 ADD SWAP1 PUSH2 0xC7 SWAP2 SWAP1 PUSH2 0x47F JUMP JUMPDEST PUSH2 0x227 JUMP JUMPDEST PUSH1 0x40 MLOAD PUSH2 0xD9 SWAP2 SWAP1 PUSH2 0x54A JUMP JUMPDEST PUSH1 0x40 MLOAD DUP1 SWAP2 SUB SWAP1 RETURN JUMPDEST PUSH2 0xEA PUSH2 0x269 JUMP JUMPDEST PUSH1 0x40 MLOAD PUSH2 0xF7 SWAP2 SWAP1 PUSH2 0x574 JUMP JUMPDEST PUSH1 0x40 MLOAD DUP1 SWAP2 SUB SWAP1 RETURN JUMPDEST PUSH1 0x1 PUSH1 0x20 MSTORE DUP1 PUSH1 0x0 MSTORE PUSH1 0x40 PUSH1 0x0 KECCAK256 PUSH1 0x0 SWAP2 POP SLOAD SWAP1 PUSH2 0x100 EXP SWAP1 DIV PUSH1 0xFF AND DUP2 JUMP JUMPDEST PUSH1 0x0 DUP1 SLOAD SWAP1 PUSH2 0x100 EXP SWAP1 DIV PUSH20 0xFFFFFFFFFFFFFFFFFFFFFFFFFFFFFFFFFFFFFFFF AND PUSH20 0xFFFFFFFFFFFFFFFFFFFFFFFFFFFFFFFFFFFFFFFF AND CALLER PUSH20 0xFFFFFFFFFFFFFFFFFFFFFFFFFFFFFFFFFFFFFFFF AND EQ PUSH2 0x1A5 JUMPI PUSH1 0x40 MLOAD PUSH32 0x74A2152700000000000000000000000000000000000000000000000000000000 DUP2 MSTORE PUSH1 0x4 ADD PUSH1 0x40 MLOAD DUP1 SWAP2 SUB SWAP1 REVERT JUMPDEST PUSH1 0x0 PUSH2 0x1B6 DUP9 DUP9 DUP9 DUP9 DUP9 DUP9 DUP9 PUSH2 0x227 JUMP JUMPDEST SWAP1 POP PUSH1 0x1 PUSH1 0x0 DUP3 DUP2 MSTORE PUSH1 0x20 ADD SWAP1 DUP2 MSTORE PUSH1 0x20 ADD PUSH1 0x0 KECCAK256 PUSH1 0x0 SWAP1 SLOAD SWAP1 PUSH2 0x100 EXP SWAP1 DIV PUSH1 0xFF AND ISZERO PUSH2 0x21B JUMPI DUP1 PUSH1 0x40 MLOAD PUSH32 0x995042BE00000000000000000000000000000000000000000000000000000000 DUP2 MSTORE PUSH1 0x4 ADD PUSH2 0x212 SWAP2 SWAP1 PUSH2 0x54A JUMP JUMPDEST PUSH1 0x40 MLOAD DUP1 SWAP2 SUB SWAP1 REVERT JUMPDEST POP POP POP POP POP POP POP POP JUMP JUMPDEST JUMP JUMPDEST PUSH1 0x0 DUP8 DUP8 DUP8 DUP8 DUP8 DUP8 DUP8 PUSH1 0x40 MLOAD PUSH1 0x20 ADD PUSH2 0x246 SWAP8 SWAP7 SWAP6 SWAP5 SWAP4 SWAP3 SWAP2 SWAP1 PUSH2 0x63A JUMP JUMPDEST PUSH1 0x40 MLOAD PUSH1 0x20 DUP2 DUP4 SUB SUB DUP2 MSTORE SWAP1 PUSH1 0x40 MSTORE DUP1 MLOAD SWAP1 PUSH1 0x20 ADD KECCAK256 SWAP1 POP SWAP8 SWAP7 POP POP POP POP POP POP POP JUMP JUMPDEST PUSH1 0x0 DUP1 SLOAD SWAP1 PUSH2 0x100 EXP SWAP1 DIV PUSH20 0xFFFFFFFFFFFFFFFFFFFFFFFFFFFFFFFFFFFFFFFF AND DUP2 JUMP JUMPDEST PUSH1 0x0 DUP1 REVERT JUMPDEST PUSH1 0x0 DUP1 REVERT JUMPDEST PUSH1 0x0 DUP2 SWAP1 POP SWAP2 SWAP1 POP JUMP JUMPDEST PUSH2 0x2AA DUP2 PUSH2 0x297 JUMP JUMPDEST DUP2 EQ PUSH2 0x2B5 JUMPI PUSH1 0x0 DUP1 REVERT JUMPDEST POP JUMP JUMPDEST PUSH1 0x0 DUP2 CALLDATALOAD SWAP1 POP PUSH2 0x2C7 DUP2 PUSH2 0x2A1 JUMP JUMPDEST SWAP3 SWAP2 POP POP JUMP JUMPDEST PUSH1 0x0 PUSH1 0x20 DUP3 DUP5 SUB SLT ISZERO PUSH2 0x2E3 JUMPI PUSH2 0x2E2 PUSH2 0x28D JUMP JUMPDEST JUMPDEST PUSH1 0x0 PUSH2 0x2F1 DUP5 DUP3 DUP6 ADD PUSH2 0x2B8 JUMP JUMPDEST SWAP2 POP POP SWAP3 SWAP2 POP POP JUMP JUMPDEST PUSH1 0x0 DUP2 ISZERO ISZERO SWAP1 POP SWAP2 SWAP1 POP JUMP JUMPDEST PUSH2 0x30F DUP2 PUSH2 0x2FA JUMP JUMPDEST DUP3 MSTORE POP POP JUMP JUMPDEST PUSH1 0x0 PUSH1 0x20 DUP3 ADD SWAP1 POP PUSH2 0x32A PUSH1 0x0 DUP4 ADD DUP5 PUSH2 0x306 JUMP JUMPDEST SWAP3 SWAP2 POP POP JUMP JUMPDEST PUSH1 0x0 PUSH20 0xFFFFFFFFFFFFFFFFFFFFFFFFFFFFFFFFFFFFFFFF DUP3 AND SWAP1 POP SWAP2 SWAP1 POP JUMP JUMPDEST PUSH1 0x0 PUSH2 0x35B DUP3 PUSH2 0x330 JUMP JUMPDEST SWAP1 POP SWAP2 SWAP1 POP JUMP JUMPDEST PUSH2 0x36B DUP2 PUSH2 0x350 JUMP JUMPDEST DUP2 EQ PUSH2 0x376 JUMPI PUSH1 0x0 DUP1 REVERT JUMPDEST POP JUMP JUMPDEST PUSH1 0x0 DUP2 CALLDATALOAD SWAP1 POP PUSH2 0x388 DUP2 PUSH2 0x362 JUMP JUMPDEST SWAP3 SWAP2 POP POP JUMP JUMPDEST PUSH1 0x0 DUP2 SWAP1 POP SWAP2 SWAP1 POP JUMP JUMPDEST PUSH2 0x3A1 DUP2 PUSH2 0x38E JUMP JUMPDEST DUP2 EQ PUSH2 0x3AC JUMPI PUSH1 0x0 DUP1 REVERT JUMPDEST POP JUMP JUMPDEST PUSH1 0x0 DUP2 CALLDATALOAD SWAP1 POP PUSH2 0x3BE DUP2 PUSH2 0x398 JUMP JUMPDEST SWAP3 SWAP2 POP POP JUMP JUMPDEST PUSH1 0x0 DUP1 REVERT JUMPDEST PUSH1 0x0 DUP1 REVERT JUMPDEST PUSH1 0x0 DUP1 REVERT JUMPDEST PUSH1 0x0 DUP1 DUP4 PUSH1 0x1F DUP5 ADD SLT PUSH2 0x3E9 JUMPI PUSH2 0x3E8 PUSH2 0x3C4 JUMP JUMPDEST JUMPDEST DUP3 CALLDATALOAD SWAP1 POP PUSH8 0xFFFFFFFFFFFFFFFF DUP2 GT ISZERO PUSH2 0x406 JUMPI PUSH2 0x405 PUSH2 0x3C9 JUMP JUMPDEST JUMPDEST PUSH1 0x20 DUP4 ADD SWAP2 POP DUP4 PUSH1 0x1 DUP3 MUL DUP4 ADD GT ISZERO PUSH2 0x422 JUMPI PUSH2 0x421 PUSH2 0x3CE JUMP JUMPDEST JUMPDEST SWAP3 POP SWAP3 SWAP1 POP JUMP JUMPDEST PUSH1 0x0 DUP1 DUP4 PUSH1 0x1F DUP5 ADD SLT PUSH2 0x43F JUMPI PUSH2 0x43E PUSH2 0x3C4 JUMP JUMPDEST JUMPDEST DUP3 CALLDATALOAD SWAP1 POP PUSH8 0xFFFFFFFFFFFFFFFF DUP2 GT ISZERO PUSH2 0x45C JUMPI PUSH2 0x45B PUSH2 0x3C9 JUMP JUMPDEST JUMPDEST PUSH1 0x20 DUP4 ADD SWAP2 POP DUP4 PUSH1 0x1 DUP3 MUL DUP4 ADD GT ISZERO PUSH2 0x478 JUMPI PUSH2 0x477 PUSH2 0x3CE JUMP JUMPDEST JUMPDEST SWAP3 POP SWAP3 SWAP1 POP JUMP JUMPDEST PUSH1 0x0 DUP1 PUSH1 0x0 DUP1 PUSH1 0x0 DUP1 PUSH1 0x0 PUSH1 0xA0 DUP9 DUP11 SUB SLT ISZERO PUSH2 0x49E JUMPI PUSH2 0x49D PUSH2 0x28D JUMP JUMPDEST JUMPDEST PUSH1 0x0 PUSH2 0x4AC DUP11 DUP3 DUP12 ADD PUSH2 0x379 JUMP JUMPDEST SWAP8 POP POP PUSH1 0x20 PUSH2 0x4BD DUP11 DUP3 DUP12 ADD PUSH2 0x3AF JUMP JUMPDEST SWAP7 POP POP PUSH1 0x40 DUP9 ADD CALLDATALOAD PUSH8 0xFFFFFFFFFFFFFFFF DUP2 GT ISZERO PUSH2 0x4DE JUMPI PUSH2 0x4DD PUSH2 0x292 JUMP JUMPDEST JUMPDEST PUSH2 0x4EA DUP11 DUP3 DUP12 ADD PUSH2 0x3D3 JUMP JUMPDEST SWAP6 POP SWAP6 POP POP PUSH1 0x60 DUP9 ADD CALLDATALOAD PUSH8 0xFFFFFFFFFFFFFFFF DUP2 GT ISZERO PUSH2 0x50D JUMPI PUSH2 0x50C PUSH2 0x292 JUMP JUMPDEST JUMPDEST PUSH2 0x519 DUP11 DUP3 DUP12 ADD PUSH2 0x429 JUMP JUMPDEST SWAP4 POP SWAP4 POP POP PUSH1 0x80 PUSH2 0x52C DUP11 DUP3 DUP12 ADD PUSH2 0x3AF JUMP JUMPDEST SWAP2 POP POP SWAP3 SWAP6 SWAP9 SWAP2 SWAP5 SWAP8 POP SWAP3 SWAP6 POP JUMP JUMPDEST PUSH2 0x544 DUP2 PUSH2 0x297 JUMP JUMPDEST DUP3 MSTORE POP POP JUMP JUMPDEST PUSH1 0x0 PUSH1 0x20 DUP3 ADD SWAP1 POP PUSH2 0x55F PUSH1 0x0 DUP4 ADD DUP5 PUSH2 0x53B JUMP JUMPDEST SWAP3 SWAP2 POP POP JUMP JUMPDEST PUSH2 0x56E DUP2 PUSH2 0x350 JUMP JUMPDEST DUP3 MSTORE POP POP JUMP JUMPDEST PUSH1 0x0 PUSH1 0x20 DUP3 ADD SWAP1 POP PUSH2 0x589 PUSH1 0x0 DUP4 ADD DUP5 PUSH2 0x565 JUMP JUMPDEST SWAP3 SWAP2 POP POP JUMP JUMPDEST PUSH2 0x598 DUP2 PUSH2 0x38E JUMP JUMPDEST DUP3 MSTORE POP POP JUMP JUMPDEST PUSH1 0x0 DUP3 DUP3 MSTORE PUSH1 0x20 DUP3 ADD SWAP1 POP SWAP3 SWAP2 POP POP JUMP JUMPDEST DUP3 DUP2 DUP4 CALLDATACOPY PUSH1 0x0 DUP4 DUP4 ADD MSTORE POP POP POP JUMP JUMPDEST PUSH1 0x0 PUSH1 0x1F NOT PUSH1 0x1F DUP4 ADD AND SWAP1 POP SWAP2 SWAP1 POP JUMP JUMPDEST PUSH1 0x0 PUSH2 0x5DB DUP4 DUP6 PUSH2 0x59E JUMP JUMPDEST SWAP4 POP PUSH2 0x5E8 DUP4 DUP6 DUP5 PUSH2 0x5AF JUMP JUMPDEST PUSH2 0x5F1 DUP4 PUSH2 0x5BE JUMP JUMPDEST DUP5 ADD SWAP1 POP SWAP4 SWAP3 POP POP POP JUMP JUMPDEST PUSH1 0x0 DUP3 DUP3 MSTORE PUSH1 0x20 DUP3 ADD SWAP1 POP SWAP3 SWAP2 POP POP JUMP JUMPDEST PUSH1 0x0 PUSH2 0x619 DUP4 DUP6 PUSH2 0x5FC JUMP JUMPDEST SWAP4 POP PUSH2 0x626 DUP4 DUP6 DUP5 PUSH2 0x5AF JUMP JUMPDEST PUSH2 0x62F DUP4 PUSH2 0x5BE JUMP JUMPDEST DUP5 ADD SWAP1 POP SWAP4 SWAP3 POP POP POP JUMP JUMPDEST PUSH1 0x0 PUSH1 0xA0 DUP3 ADD SWAP1 POP PUSH2 0x64F PUSH1 0x0 DUP4 ADD DUP11 PUSH2 0x565 JUMP JUMPDEST PUSH2 0x65C PUSH1 0x20 DUP4 ADD DUP10 PUSH2 0x58F JUMP JUMPDEST DUP2 DUP2 SUB PUSH1 0x40 DUP4 ADD MSTORE PUSH2 0x66F DUP2 DUP8 DUP10 PUSH2 0x5CF JUMP JUMPDEST SWAP1 POP DUP2 DUP2 SUB PUSH1 0x60 DUP4 ADD MSTORE PUSH2 0x684 DUP2 DUP6 DUP8 PUSH2 0x60D JUMP JUMPDEST SWAP1 POP PUSH2 0x693 PUSH1 0x80 DUP4 ADD DUP5 PUSH2 0x58F JUMP JUMPDEST SWAP9 SWAP8 POP POP POP POP POP POP POP POP JUMP INVALID LOG2 PUSH5 0x6970667358 0x22 SLT KECCAK256 INVALID MUL DUP3 0xE4 PUSH19 0x5309A015211283A49B8431944CADE11D2EE4D2 CREATE DUP5 SWAP4 GASLIMIT 0xCB JUMP 0xAC DUP8 PUSH5 0x736F6C6343 STOP ADDMOD GT STOP CALLER "
				},
				"gasEstimates": {
					"creation": {
						"codeDepositCost": "349800",
						"executionCost": "24652",
						"totalCost": "374452"
					},
					"external": {
						"execute()": "166",
						"getTxId(address,uint256,string,bytes,uint256)": "infinite",
						"owner()": "2577",
						"queue(address,uint256,string,bytes,uint256)": "infinite",
						"queued(bytes32)": "2774"
					}
				},
				"methodIdentifiers": {
					"execute()": "61461954",
					"getTxId(address,uint256,string,bytes,uint256)": "8a1ce0b6",
					"owner()": "8da5cb5b",
					"queue(address,uint256,string,bytes,uint256)": "4b9915a5",
					"queued(bytes32)": "228250c9"
				}
			},
			"storageLayout": {
				"storage": [
					{
						"astId": 9,
						"contract": "TimeLock.sol:TimeLock",
						"label": "owner",
						"offset": 0,
						"slot": "0",
						"type": "t_address"
					},
					{
						"astId": 13,
						"contract": "TimeLock.sol:TimeLock",
						"label": "queued",
						"offset": 0,
						"slot": "1",
						"type": "t_mapping(t_bytes32,t_bool)"
					}
				],
				"types": {
					"t_address": {
						"encoding": "inplace",
						"label": "address",
						"numberOfBytes": "20"
					},
					"t_bool": {
						"encoding": "inplace",
						"label": "bool",
						"numberOfBytes": "1"
					},
					"t_bytes32": {
						"encoding": "inplace",
						"label": "bytes32",
						"numberOfBytes": "32"
					},
					"t_mapping(t_bytes32,t_bool)": {
						"encoding": "mapping",
						"key": "t_bytes32",
						"label": "mapping(bytes32 => bool)",
						"numberOfBytes": "32",
						"value": "t_bool"
					}
				}
			},
			"userdoc": {
				"kind": "user",
				"methods": {},
				"version": 1
			}
		}
	}
}