{
	"DataLocations.sol": {
		"DataLocations": {
			"abi": [
				{
					"inputs": [
						{
							"internalType": "uint256[]",
							"name": "y",
							"type": "uint256[]"
						}
					],
					"name": "example",
					"outputs": [],
					"stateMutability": "nonpayable",
					"type": "function"
				},
				{
					"inputs": [
						{
							"internalType": "address",
							"name": "",
							"type": "address"
						}
					],
					"name": "myStructs",
					"outputs": [
						{
							"internalType": "uint256",
							"name": "foo",
							"type": "uint256"
						},
						{
							"internalType": "string",
							"name": "text",
							"type": "string"
						}
					],
					"stateMutability": "view",
					"type": "function"
				}
			],
			"devdoc": {
				"kind": "dev",
				"methods": {},
				"version": 1
			},
			"evm": {
				"assembly": "    /* \"DataLocations.sol\":61:436  contract DataLocations {... */\n  mstore(0x40, 0x80)\n  callvalue\n  dup1\n  iszero\n  tag_1\n  jumpi\n  0x00\n  dup1\n  revert\ntag_1:\n  pop\n  dataSize(sub_0)\n  dup1\n  dataOffset(sub_0)\n  0x00\n  codecopy\n  0x00\n  return\nstop\n\nsub_0: assembly {\n        /* \"DataLocations.sol\":61:436  contract DataLocations {... */\n      mstore(0x40, 0x80)\n      callvalue\n      dup1\n      iszero\n      tag_1\n      jumpi\n      0x00\n      dup1\n      revert\n    tag_1:\n      pop\n      jumpi(tag_2, lt(calldatasize, 0x04))\n      shr(0xe0, calldataload(0x00))\n      dup1\n      0xb43c5d33\n      eq\n      tag_3\n      jumpi\n      dup1\n      0xe3568c14\n      eq\n      tag_4\n      jumpi\n    tag_2:\n      0x00\n      dup1\n      revert\n        /* \"DataLocations.sol\":164:209  mapping(address => MyStruct) public myStructs */\n    tag_3:\n      tag_5\n      0x04\n      dup1\n      calldatasize\n      sub\n      dup2\n      add\n      swap1\n      tag_6\n      swap2\n      swap1\n      tag_7\n      jump\t// in\n    tag_6:\n      tag_8\n      jump\t// in\n    tag_5:\n      mload(0x40)\n      tag_9\n      swap3\n      swap2\n      swap1\n      tag_10\n      jump\t// in\n    tag_9:\n      mload(0x40)\n      dup1\n      swap2\n      sub\n      swap1\n      return\n        /* \"DataLocations.sol\":218:433  function example(uint[] calldata y) external {... */\n    tag_4:\n      tag_11\n      0x04\n      dup1\n      calldatasize\n      sub\n      dup2\n      add\n      swap1\n      tag_12\n      swap2\n      swap1\n      tag_13\n      jump\t// in\n    tag_12:\n      tag_14\n      jump\t// in\n    tag_11:\n      stop\n        /* \"DataLocations.sol\":164:209  mapping(address => MyStruct) public myStructs */\n    tag_8:\n      mstore(0x20, 0x00)\n      dup1\n      0x00\n      mstore\n      keccak256(0x00, 0x40)\n      0x00\n      swap2\n      pop\n      swap1\n      pop\n      dup1\n      0x00\n      add\n      sload\n      swap1\n      dup1\n      0x01\n      add\n      dup1\n      sload\n      tag_15\n      swap1\n      tag_16\n      jump\t// in\n    tag_15:\n      dup1\n      0x1f\n      add\n      0x20\n      dup1\n      swap2\n      div\n      mul\n      0x20\n      add\n      mload(0x40)\n      swap1\n      dup2\n      add\n      0x40\n      mstore\n      dup1\n      swap3\n      swap2\n      swap1\n      dup2\n      dup2\n      mstore\n      0x20\n      add\n      dup3\n      dup1\n      sload\n      tag_17\n      swap1\n      tag_16\n      jump\t// in\n    tag_17:\n      dup1\n      iszero\n      tag_18\n      jumpi\n      dup1\n      0x1f\n      lt\n      tag_19\n      jumpi\n      0x0100\n      dup1\n      dup4\n      sload\n      div\n      mul\n      dup4\n      mstore\n      swap2\n      0x20\n      add\n      swap2\n      jump(tag_18)\n    tag_19:\n      dup3\n      add\n      swap2\n      swap1\n      0x00\n      mstore\n      keccak256(0x00, 0x20)\n      swap1\n    tag_20:\n      dup2\n      sload\n      dup2\n      mstore\n      swap1\n      0x01\n      add\n      swap1\n      0x20\n      add\n      dup1\n      dup4\n      gt\n      tag_20\n      jumpi\n      dup3\n      swap1\n      sub\n      0x1f\n      and\n      dup3\n      add\n      swap2\n    tag_18:\n      pop\n      pop\n      pop\n      pop\n      pop\n      swap1\n      pop\n      dup3\n      jump\t// out\n        /* \"DataLocations.sol\":218:433  function example(uint[] calldata y) external {... */\n    tag_14:\n        /* \"DataLocations.sol\":298:331  MyStruct({foo: 123, text: \"bar\"}) */\n      mload(0x40)\n      dup1\n      0x40\n      add\n      0x40\n      mstore\n      dup1\n        /* \"DataLocations.sol\":313:316  123 */\n      0x7b\n        /* \"DataLocations.sol\":298:331  MyStruct({foo: 123, text: \"bar\"}) */\n      dup2\n      mstore\n      0x20\n      add\n      mload(0x40)\n      dup1\n      0x40\n      add\n      0x40\n      mstore\n      dup1\n      0x03\n      dup2\n      mstore\n      0x20\n      add\n      0x6261720000000000000000000000000000000000000000000000000000000000\n      dup2\n      mstore\n      pop\n      dup2\n      mstore\n      pop\n        /* \"DataLocations.sol\":274:283  myStructs */\n      0x00\n        /* \"DataLocations.sol\":274:295  myStructs[msg.sender] */\n      dup1\n        /* \"DataLocations.sol\":284:294  msg.sender */\n      caller\n        /* \"DataLocations.sol\":274:295  myStructs[msg.sender] */\n      0xffffffffffffffffffffffffffffffffffffffff\n      and\n      0xffffffffffffffffffffffffffffffffffffffff\n      and\n      dup2\n      mstore\n      0x20\n      add\n      swap1\n      dup2\n      mstore\n      0x20\n      add\n      0x00\n      keccak256\n        /* \"DataLocations.sol\":274:331  myStructs[msg.sender] = MyStruct({foo: 123, text: \"bar\"}) */\n      0x00\n      dup3\n      add\n      mload\n      dup2\n      0x00\n      add\n      sstore\n      0x20\n      dup3\n      add\n      mload\n      dup2\n      0x01\n      add\n      swap1\n      dup2\n      tag_22\n      swap2\n      swap1\n      tag_23\n      jump\t// in\n    tag_22:\n      pop\n      swap1\n      pop\n      pop\n        /* \"DataLocations.sol\":344:369  MyStruct storage myStruct */\n      0x00\n        /* \"DataLocations.sol\":372:381  myStructs */\n      dup1\n        /* \"DataLocations.sol\":372:393  myStructs[msg.sender] */\n      0x00\n        /* \"DataLocations.sol\":382:392  msg.sender */\n      caller\n        /* \"DataLocations.sol\":372:393  myStructs[msg.sender] */\n      0xffffffffffffffffffffffffffffffffffffffff\n      and\n      0xffffffffffffffffffffffffffffffffffffffff\n      and\n      dup2\n      mstore\n      0x20\n      add\n      swap1\n      dup2\n      mstore\n      0x20\n      add\n      0x00\n      keccak256\n        /* \"DataLocations.sol\":344:393  MyStruct storage myStruct = myStructs[msg.sender] */\n      swap1\n      pop\n        /* \"DataLocations.sol\":404:425  myStruct.text = \"foo\" */\n      mload(0x40)\n      dup1\n      0x40\n      add\n      0x40\n      mstore\n      dup1\n      0x03\n      dup2\n      mstore\n      0x20\n      add\n      0x666f6f0000000000000000000000000000000000000000000000000000000000\n      dup2\n      mstore\n      pop\n        /* \"DataLocations.sol\":404:412  myStruct */\n      dup2\n        /* \"DataLocations.sol\":404:417  myStruct.text */\n      0x01\n      add\n        /* \"DataLocations.sol\":404:425  myStruct.text = \"foo\" */\n      swap1\n      dup2\n      tag_24\n      swap2\n      swap1\n      tag_23\n      jump\t// in\n    tag_24:\n      pop\n        /* \"DataLocations.sol\":263:433  {... */\n      pop\n        /* \"DataLocations.sol\":218:433  function example(uint[] calldata y) external {... */\n      pop\n      pop\n      jump\t// out\n        /* \"#utility.yul\":88:205   */\n    tag_26:\n        /* \"#utility.yul\":197:198   */\n      0x00\n        /* \"#utility.yul\":194:195   */\n      dup1\n        /* \"#utility.yul\":187:199   */\n      revert\n        /* \"#utility.yul\":211:328   */\n    tag_27:\n        /* \"#utility.yul\":320:321   */\n      0x00\n        /* \"#utility.yul\":317:318   */\n      dup1\n        /* \"#utility.yul\":310:322   */\n      revert\n        /* \"#utility.yul\":334:460   */\n    tag_28:\n        /* \"#utility.yul\":371:378   */\n      0x00\n        /* \"#utility.yul\":411:453   */\n      0xffffffffffffffffffffffffffffffffffffffff\n        /* \"#utility.yul\":404:409   */\n      dup3\n        /* \"#utility.yul\":400:454   */\n      and\n        /* \"#utility.yul\":389:454   */\n      swap1\n      pop\n        /* \"#utility.yul\":334:460   */\n      swap2\n      swap1\n      pop\n      jump\t// out\n        /* \"#utility.yul\":466:562   */\n    tag_29:\n        /* \"#utility.yul\":503:510   */\n      0x00\n        /* \"#utility.yul\":532:556   */\n      tag_66\n        /* \"#utility.yul\":550:555   */\n      dup3\n        /* \"#utility.yul\":532:556   */\n      tag_28\n      jump\t// in\n    tag_66:\n        /* \"#utility.yul\":521:556   */\n      swap1\n      pop\n        /* \"#utility.yul\":466:562   */\n      swap2\n      swap1\n      pop\n      jump\t// out\n        /* \"#utility.yul\":568:690   */\n    tag_30:\n        /* \"#utility.yul\":641:665   */\n      tag_68\n        /* \"#utility.yul\":659:664   */\n      dup2\n        /* \"#utility.yul\":641:665   */\n      tag_29\n      jump\t// in\n    tag_68:\n        /* \"#utility.yul\":634:639   */\n      dup2\n        /* \"#utility.yul\":631:666   */\n      eq\n        /* \"#utility.yul\":621:684   */\n      tag_69\n      jumpi\n        /* \"#utility.yul\":680:681   */\n      0x00\n        /* \"#utility.yul\":677:678   */\n      dup1\n        /* \"#utility.yul\":670:682   */\n      revert\n        /* \"#utility.yul\":621:684   */\n    tag_69:\n        /* \"#utility.yul\":568:690   */\n      pop\n      jump\t// out\n        /* \"#utility.yul\":696:835   */\n    tag_31:\n        /* \"#utility.yul\":742:747   */\n      0x00\n        /* \"#utility.yul\":780:786   */\n      dup2\n        /* \"#utility.yul\":767:787   */\n      calldataload\n        /* \"#utility.yul\":758:787   */\n      swap1\n      pop\n        /* \"#utility.yul\":796:829   */\n      tag_71\n        /* \"#utility.yul\":823:828   */\n      dup2\n        /* \"#utility.yul\":796:829   */\n      tag_30\n      jump\t// in\n    tag_71:\n        /* \"#utility.yul\":696:835   */\n      swap3\n      swap2\n      pop\n      pop\n      jump\t// out\n        /* \"#utility.yul\":841:1170   */\n    tag_7:\n        /* \"#utility.yul\":900:906   */\n      0x00\n        /* \"#utility.yul\":949:951   */\n      0x20\n        /* \"#utility.yul\":937:946   */\n      dup3\n        /* \"#utility.yul\":928:935   */\n      dup5\n        /* \"#utility.yul\":924:947   */\n      sub\n        /* \"#utility.yul\":920:952   */\n      slt\n        /* \"#utility.yul\":917:1036   */\n      iszero\n      tag_73\n      jumpi\n        /* \"#utility.yul\":955:1034   */\n      tag_74\n      tag_26\n      jump\t// in\n    tag_74:\n        /* \"#utility.yul\":917:1036   */\n    tag_73:\n        /* \"#utility.yul\":1075:1076   */\n      0x00\n        /* \"#utility.yul\":1100:1153   */\n      tag_75\n        /* \"#utility.yul\":1145:1152   */\n      dup5\n        /* \"#utility.yul\":1136:1142   */\n      dup3\n        /* \"#utility.yul\":1125:1134   */\n      dup6\n        /* \"#utility.yul\":1121:1143   */\n      add\n        /* \"#utility.yul\":1100:1153   */\n      tag_31\n      jump\t// in\n    tag_75:\n        /* \"#utility.yul\":1090:1153   */\n      swap2\n      pop\n        /* \"#utility.yul\":1046:1163   */\n      pop\n        /* \"#utility.yul\":841:1170   */\n      swap3\n      swap2\n      pop\n      pop\n      jump\t// out\n        /* \"#utility.yul\":1176:1253   */\n    tag_32:\n        /* \"#utility.yul\":1213:1220   */\n      0x00\n        /* \"#utility.yul\":1242:1247   */\n      dup2\n        /* \"#utility.yul\":1231:1247   */\n      swap1\n      pop\n        /* \"#utility.yul\":1176:1253   */\n      swap2\n      swap1\n      pop\n      jump\t// out\n        /* \"#utility.yul\":1259:1377   */\n    tag_33:\n        /* \"#utility.yul\":1346:1370   */\n      tag_78\n        /* \"#utility.yul\":1364:1369   */\n      dup2\n        /* \"#utility.yul\":1346:1370   */\n      tag_32\n      jump\t// in\n    tag_78:\n        /* \"#utility.yul\":1341:1344   */\n      dup3\n        /* \"#utility.yul\":1334:1371   */\n      mstore\n        /* \"#utility.yul\":1259:1377   */\n      pop\n      pop\n      jump\t// out\n        /* \"#utility.yul\":1383:1482   */\n    tag_34:\n        /* \"#utility.yul\":1435:1441   */\n      0x00\n        /* \"#utility.yul\":1469:1474   */\n      dup2\n        /* \"#utility.yul\":1463:1475   */\n      mload\n        /* \"#utility.yul\":1453:1475   */\n      swap1\n      pop\n        /* \"#utility.yul\":1383:1482   */\n      swap2\n      swap1\n      pop\n      jump\t// out\n        /* \"#utility.yul\":1488:1657   */\n    tag_35:\n        /* \"#utility.yul\":1572:1583   */\n      0x00\n        /* \"#utility.yul\":1606:1612   */\n      dup3\n        /* \"#utility.yul\":1601:1604   */\n      dup3\n        /* \"#utility.yul\":1594:1613   */\n      mstore\n        /* \"#utility.yul\":1646:1650   */\n      0x20\n        /* \"#utility.yul\":1641:1644   */\n      dup3\n        /* \"#utility.yul\":1637:1651   */\n      add\n        /* \"#utility.yul\":1622:1651   */\n      swap1\n      pop\n        /* \"#utility.yul\":1488:1657   */\n      swap3\n      swap2\n      pop\n      pop\n      jump\t// out\n        /* \"#utility.yul\":1663:1909   */\n    tag_36:\n        /* \"#utility.yul\":1744:1745   */\n      0x00\n        /* \"#utility.yul\":1754:1867   */\n    tag_82:\n        /* \"#utility.yul\":1768:1774   */\n      dup4\n        /* \"#utility.yul\":1765:1766   */\n      dup2\n        /* \"#utility.yul\":1762:1775   */\n      lt\n        /* \"#utility.yul\":1754:1867   */\n      iszero\n      tag_84\n      jumpi\n        /* \"#utility.yul\":1853:1854   */\n      dup1\n        /* \"#utility.yul\":1848:1851   */\n      dup3\n        /* \"#utility.yul\":1844:1855   */\n      add\n        /* \"#utility.yul\":1838:1856   */\n      mload\n        /* \"#utility.yul\":1834:1835   */\n      dup2\n        /* \"#utility.yul\":1829:1832   */\n      dup5\n        /* \"#utility.yul\":1825:1836   */\n      add\n        /* \"#utility.yul\":1818:1857   */\n      mstore\n        /* \"#utility.yul\":1790:1792   */\n      0x20\n        /* \"#utility.yul\":1787:1788   */\n      dup2\n        /* \"#utility.yul\":1783:1793   */\n      add\n        /* \"#utility.yul\":1778:1793   */\n      swap1\n      pop\n        /* \"#utility.yul\":1754:1867   */\n      jump(tag_82)\n    tag_84:\n        /* \"#utility.yul\":1901:1902   */\n      0x00\n        /* \"#utility.yul\":1892:1898   */\n      dup5\n        /* \"#utility.yul\":1887:1890   */\n      dup5\n        /* \"#utility.yul\":1883:1899   */\n      add\n        /* \"#utility.yul\":1876:1903   */\n      mstore\n        /* \"#utility.yul\":1725:1909   */\n      pop\n        /* \"#utility.yul\":1663:1909   */\n      pop\n      pop\n      pop\n      jump\t// out\n        /* \"#utility.yul\":1915:2017   */\n    tag_37:\n        /* \"#utility.yul\":1956:1962   */\n      0x00\n        /* \"#utility.yul\":2007:2009   */\n      0x1f\n        /* \"#utility.yul\":2003:2010   */\n      not\n        /* \"#utility.yul\":1998:2000   */\n      0x1f\n        /* \"#utility.yul\":1991:1996   */\n      dup4\n        /* \"#utility.yul\":1987:2001   */\n      add\n        /* \"#utility.yul\":1983:2011   */\n      and\n        /* \"#utility.yul\":1973:2011   */\n      swap1\n      pop\n        /* \"#utility.yul\":1915:2017   */\n      swap2\n      swap1\n      pop\n      jump\t// out\n        /* \"#utility.yul\":2023:2400   */\n    tag_38:\n        /* \"#utility.yul\":2111:2114   */\n      0x00\n        /* \"#utility.yul\":2139:2178   */\n      tag_87\n        /* \"#utility.yul\":2172:2177   */\n      dup3\n        /* \"#utility.yul\":2139:2178   */\n      tag_34\n      jump\t// in\n    tag_87:\n        /* \"#utility.yul\":2194:2265   */\n      tag_88\n        /* \"#utility.yul\":2258:2264   */\n      dup2\n        /* \"#utility.yul\":2253:2256   */\n      dup6\n        /* \"#utility.yul\":2194:2265   */\n      tag_35\n      jump\t// in\n    tag_88:\n        /* \"#utility.yul\":2187:2265   */\n      swap4\n      pop\n        /* \"#utility.yul\":2274:2339   */\n      tag_89\n        /* \"#utility.yul\":2332:2338   */\n      dup2\n        /* \"#utility.yul\":2327:2330   */\n      dup6\n        /* \"#utility.yul\":2320:2324   */\n      0x20\n        /* \"#utility.yul\":2313:2318   */\n      dup7\n        /* \"#utility.yul\":2309:2325   */\n      add\n        /* \"#utility.yul\":2274:2339   */\n      tag_36\n      jump\t// in\n    tag_89:\n        /* \"#utility.yul\":2364:2393   */\n      tag_90\n        /* \"#utility.yul\":2386:2392   */\n      dup2\n        /* \"#utility.yul\":2364:2393   */\n      tag_37\n      jump\t// in\n    tag_90:\n        /* \"#utility.yul\":2359:2362   */\n      dup5\n        /* \"#utility.yul\":2355:2394   */\n      add\n        /* \"#utility.yul\":2348:2394   */\n      swap2\n      pop\n        /* \"#utility.yul\":2115:2400   */\n      pop\n        /* \"#utility.yul\":2023:2400   */\n      swap3\n      swap2\n      pop\n      pop\n      jump\t// out\n        /* \"#utility.yul\":2406:2829   */\n    tag_10:\n        /* \"#utility.yul\":2547:2551   */\n      0x00\n        /* \"#utility.yul\":2585:2587   */\n      0x40\n        /* \"#utility.yul\":2574:2583   */\n      dup3\n        /* \"#utility.yul\":2570:2588   */\n      add\n        /* \"#utility.yul\":2562:2588   */\n      swap1\n      pop\n        /* \"#utility.yul\":2598:2669   */\n      tag_92\n        /* \"#utility.yul\":2666:2667   */\n      0x00\n        /* \"#utility.yul\":2655:2664   */\n      dup4\n        /* \"#utility.yul\":2651:2668   */\n      add\n        /* \"#utility.yul\":2642:2648   */\n      dup6\n        /* \"#utility.yul\":2598:2669   */\n      tag_33\n      jump\t// in\n    tag_92:\n        /* \"#utility.yul\":2716:2725   */\n      dup2\n        /* \"#utility.yul\":2710:2714   */\n      dup2\n        /* \"#utility.yul\":2706:2726   */\n      sub\n        /* \"#utility.yul\":2701:2703   */\n      0x20\n        /* \"#utility.yul\":2690:2699   */\n      dup4\n        /* \"#utility.yul\":2686:2704   */\n      add\n        /* \"#utility.yul\":2679:2727   */\n      mstore\n        /* \"#utility.yul\":2744:2822   */\n      tag_93\n        /* \"#utility.yul\":2817:2821   */\n      dup2\n        /* \"#utility.yul\":2808:2814   */\n      dup5\n        /* \"#utility.yul\":2744:2822   */\n      tag_38\n      jump\t// in\n    tag_93:\n        /* \"#utility.yul\":2736:2822   */\n      swap1\n      pop\n        /* \"#utility.yul\":2406:2829   */\n      swap4\n      swap3\n      pop\n      pop\n      pop\n      jump\t// out\n        /* \"#utility.yul\":2835:2952   */\n    tag_39:\n        /* \"#utility.yul\":2944:2945   */\n      0x00\n        /* \"#utility.yul\":2941:2942   */\n      dup1\n        /* \"#utility.yul\":2934:2946   */\n      revert\n        /* \"#utility.yul\":2958:3075   */\n    tag_40:\n        /* \"#utility.yul\":3067:3068   */\n      0x00\n        /* \"#utility.yul\":3064:3065   */\n      dup1\n        /* \"#utility.yul\":3057:3069   */\n      revert\n        /* \"#utility.yul\":3081:3198   */\n    tag_41:\n        /* \"#utility.yul\":3190:3191   */\n      0x00\n        /* \"#utility.yul\":3187:3188   */\n      dup1\n        /* \"#utility.yul\":3180:3192   */\n      revert\n        /* \"#utility.yul\":3221:3789   */\n    tag_42:\n        /* \"#utility.yul\":3294:3302   */\n      0x00\n        /* \"#utility.yul\":3304:3310   */\n      dup1\n        /* \"#utility.yul\":3354:3357   */\n      dup4\n        /* \"#utility.yul\":3347:3351   */\n      0x1f\n        /* \"#utility.yul\":3339:3345   */\n      dup5\n        /* \"#utility.yul\":3335:3352   */\n      add\n        /* \"#utility.yul\":3331:3358   */\n      slt\n        /* \"#utility.yul\":3321:3443   */\n      tag_98\n      jumpi\n        /* \"#utility.yul\":3362:3441   */\n      tag_99\n      tag_39\n      jump\t// in\n    tag_99:\n        /* \"#utility.yul\":3321:3443   */\n    tag_98:\n        /* \"#utility.yul\":3475:3481   */\n      dup3\n        /* \"#utility.yul\":3462:3482   */\n      calldataload\n        /* \"#utility.yul\":3452:3482   */\n      swap1\n      pop\n        /* \"#utility.yul\":3505:3523   */\n      0xffffffffffffffff\n        /* \"#utility.yul\":3497:3503   */\n      dup2\n        /* \"#utility.yul\":3494:3524   */\n      gt\n        /* \"#utility.yul\":3491:3608   */\n      iszero\n      tag_100\n      jumpi\n        /* \"#utility.yul\":3527:3606   */\n      tag_101\n      tag_40\n      jump\t// in\n    tag_101:\n        /* \"#utility.yul\":3491:3608   */\n    tag_100:\n        /* \"#utility.yul\":3641:3645   */\n      0x20\n        /* \"#utility.yul\":3633:3639   */\n      dup4\n        /* \"#utility.yul\":3629:3646   */\n      add\n        /* \"#utility.yul\":3617:3646   */\n      swap2\n      pop\n        /* \"#utility.yul\":3695:3698   */\n      dup4\n        /* \"#utility.yul\":3687:3691   */\n      0x20\n        /* \"#utility.yul\":3679:3685   */\n      dup3\n        /* \"#utility.yul\":3675:3692   */\n      mul\n        /* \"#utility.yul\":3665:3673   */\n      dup4\n        /* \"#utility.yul\":3661:3693   */\n      add\n        /* \"#utility.yul\":3658:3699   */\n      gt\n        /* \"#utility.yul\":3655:3783   */\n      iszero\n      tag_102\n      jumpi\n        /* \"#utility.yul\":3702:3781   */\n      tag_103\n      tag_41\n      jump\t// in\n    tag_103:\n        /* \"#utility.yul\":3655:3783   */\n    tag_102:\n        /* \"#utility.yul\":3221:3789   */\n      swap3\n      pop\n      swap3\n      swap1\n      pop\n      jump\t// out\n        /* \"#utility.yul\":3795:4354   */\n    tag_13:\n        /* \"#utility.yul\":3881:3887   */\n      0x00\n        /* \"#utility.yul\":3889:3895   */\n      dup1\n        /* \"#utility.yul\":3938:3940   */\n      0x20\n        /* \"#utility.yul\":3926:3935   */\n      dup4\n        /* \"#utility.yul\":3917:3924   */\n      dup6\n        /* \"#utility.yul\":3913:3936   */\n      sub\n        /* \"#utility.yul\":3909:3941   */\n      slt\n        /* \"#utility.yul\":3906:4025   */\n      iszero\n      tag_105\n      jumpi\n        /* \"#utility.yul\":3944:4023   */\n      tag_106\n      tag_26\n      jump\t// in\n    tag_106:\n        /* \"#utility.yul\":3906:4025   */\n    tag_105:\n        /* \"#utility.yul\":4092:4093   */\n      0x00\n        /* \"#utility.yul\":4081:4090   */\n      dup4\n        /* \"#utility.yul\":4077:4094   */\n      add\n        /* \"#utility.yul\":4064:4095   */\n      calldataload\n        /* \"#utility.yul\":4122:4140   */\n      0xffffffffffffffff\n        /* \"#utility.yul\":4114:4120   */\n      dup2\n        /* \"#utility.yul\":4111:4141   */\n      gt\n        /* \"#utility.yul\":4108:4225   */\n      iszero\n      tag_107\n      jumpi\n        /* \"#utility.yul\":4144:4223   */\n      tag_108\n      tag_27\n      jump\t// in\n    tag_108:\n        /* \"#utility.yul\":4108:4225   */\n    tag_107:\n        /* \"#utility.yul\":4257:4337   */\n      tag_109\n        /* \"#utility.yul\":4329:4336   */\n      dup6\n        /* \"#utility.yul\":4320:4326   */\n      dup3\n        /* \"#utility.yul\":4309:4318   */\n      dup7\n        /* \"#utility.yul\":4305:4327   */\n      add\n        /* \"#utility.yul\":4257:4337   */\n      tag_42\n      jump\t// in\n    tag_109:\n        /* \"#utility.yul\":4239:4337   */\n      swap3\n      pop\n      swap3\n      pop\n        /* \"#utility.yul\":4035:4347   */\n      pop\n        /* \"#utility.yul\":3795:4354   */\n      swap3\n      pop\n      swap3\n      swap1\n      pop\n      jump\t// out\n        /* \"#utility.yul\":4360:4540   */\n    tag_43:\n        /* \"#utility.yul\":4408:4485   */\n      0x4e487b7100000000000000000000000000000000000000000000000000000000\n        /* \"#utility.yul\":4405:4406   */\n      0x00\n        /* \"#utility.yul\":4398:4486   */\n      mstore\n        /* \"#utility.yul\":4505:4509   */\n      0x22\n        /* \"#utility.yul\":4502:4503   */\n      0x04\n        /* \"#utility.yul\":4495:4510   */\n      mstore\n        /* \"#utility.yul\":4529:4533   */\n      0x24\n        /* \"#utility.yul\":4526:4527   */\n      0x00\n        /* \"#utility.yul\":4519:4534   */\n      revert\n        /* \"#utility.yul\":4546:4866   */\n    tag_16:\n        /* \"#utility.yul\":4590:4596   */\n      0x00\n        /* \"#utility.yul\":4627:4628   */\n      0x02\n        /* \"#utility.yul\":4621:4625   */\n      dup3\n        /* \"#utility.yul\":4617:4629   */\n      div\n        /* \"#utility.yul\":4607:4629   */\n      swap1\n      pop\n        /* \"#utility.yul\":4674:4675   */\n      0x01\n        /* \"#utility.yul\":4668:4672   */\n      dup3\n        /* \"#utility.yul\":4664:4676   */\n      and\n        /* \"#utility.yul\":4695:4713   */\n      dup1\n        /* \"#utility.yul\":4685:4766   */\n      tag_112\n      jumpi\n        /* \"#utility.yul\":4751:4755   */\n      0x7f\n        /* \"#utility.yul\":4743:4749   */\n      dup3\n        /* \"#utility.yul\":4739:4756   */\n      and\n        /* \"#utility.yul\":4729:4756   */\n      swap2\n      pop\n        /* \"#utility.yul\":4685:4766   */\n    tag_112:\n        /* \"#utility.yul\":4813:4815   */\n      0x20\n        /* \"#utility.yul\":4805:4811   */\n      dup3\n        /* \"#utility.yul\":4802:4816   */\n      lt\n        /* \"#utility.yul\":4782:4800   */\n      dup2\n        /* \"#utility.yul\":4779:4817   */\n      sub\n        /* \"#utility.yul\":4776:4860   */\n      tag_113\n      jumpi\n        /* \"#utility.yul\":4832:4850   */\n      tag_114\n      tag_43\n      jump\t// in\n    tag_114:\n        /* \"#utility.yul\":4776:4860   */\n    tag_113:\n        /* \"#utility.yul\":4597:4866   */\n      pop\n        /* \"#utility.yul\":4546:4866   */\n      swap2\n      swap1\n      pop\n      jump\t// out\n        /* \"#utility.yul\":4872:5052   */\n    tag_44:\n        /* \"#utility.yul\":4920:4997   */\n      0x4e487b7100000000000000000000000000000000000000000000000000000000\n        /* \"#utility.yul\":4917:4918   */\n      0x00\n        /* \"#utility.yul\":4910:4998   */\n      mstore\n        /* \"#utility.yul\":5017:5021   */\n      0x41\n        /* \"#utility.yul\":5014:5015   */\n      0x04\n        /* \"#utility.yul\":5007:5022   */\n      mstore\n        /* \"#utility.yul\":5041:5045   */\n      0x24\n        /* \"#utility.yul\":5038:5039   */\n      0x00\n        /* \"#utility.yul\":5031:5046   */\n      revert\n        /* \"#utility.yul\":5058:5199   */\n    tag_45:\n        /* \"#utility.yul\":5107:5111   */\n      0x00\n        /* \"#utility.yul\":5130:5133   */\n      dup2\n        /* \"#utility.yul\":5122:5133   */\n      swap1\n      pop\n        /* \"#utility.yul\":5153:5156   */\n      dup2\n        /* \"#utility.yul\":5150:5151   */\n      0x00\n        /* \"#utility.yul\":5143:5157   */\n      mstore\n        /* \"#utility.yul\":5187:5191   */\n      0x20\n        /* \"#utility.yul\":5184:5185   */\n      0x00\n        /* \"#utility.yul\":5174:5192   */\n      keccak256\n        /* \"#utility.yul\":5166:5192   */\n      swap1\n      pop\n        /* \"#utility.yul\":5058:5199   */\n      swap2\n      swap1\n      pop\n      jump\t// out\n        /* \"#utility.yul\":5205:5298   */\n    tag_46:\n        /* \"#utility.yul\":5242:5248   */\n      0x00\n        /* \"#utility.yul\":5289:5291   */\n      0x20\n        /* \"#utility.yul\":5284:5286   */\n      0x1f\n        /* \"#utility.yul\":5277:5282   */\n      dup4\n        /* \"#utility.yul\":5273:5287   */\n      add\n        /* \"#utility.yul\":5269:5292   */\n      div\n        /* \"#utility.yul\":5259:5292   */\n      swap1\n      pop\n        /* \"#utility.yul\":5205:5298   */\n      swap2\n      swap1\n      pop\n      jump\t// out\n        /* \"#utility.yul\":5304:5411   */\n    tag_47:\n        /* \"#utility.yul\":5348:5356   */\n      0x00\n        /* \"#utility.yul\":5398:5403   */\n      dup3\n        /* \"#utility.yul\":5392:5396   */\n      dup3\n        /* \"#utility.yul\":5388:5404   */\n      shl\n        /* \"#utility.yul\":5367:5404   */\n      swap1\n      pop\n        /* \"#utility.yul\":5304:5411   */\n      swap3\n      swap2\n      pop\n      pop\n      jump\t// out\n        /* \"#utility.yul\":5417:5810   */\n    tag_48:\n        /* \"#utility.yul\":5486:5492   */\n      0x00\n        /* \"#utility.yul\":5536:5537   */\n      0x08\n        /* \"#utility.yul\":5524:5534   */\n      dup4\n        /* \"#utility.yul\":5520:5538   */\n      mul\n        /* \"#utility.yul\":5559:5656   */\n      tag_120\n        /* \"#utility.yul\":5589:5655   */\n      0xffffffffffffffffffffffffffffffffffffffffffffffffffffffffffffffff\n        /* \"#utility.yul\":5578:5587   */\n      dup3\n        /* \"#utility.yul\":5559:5656   */\n      tag_47\n      jump\t// in\n    tag_120:\n        /* \"#utility.yul\":5677:5716   */\n      tag_121\n        /* \"#utility.yul\":5707:5715   */\n      dup7\n        /* \"#utility.yul\":5696:5705   */\n      dup4\n        /* \"#utility.yul\":5677:5716   */\n      tag_47\n      jump\t// in\n    tag_121:\n        /* \"#utility.yul\":5665:5716   */\n      swap6\n      pop\n        /* \"#utility.yul\":5749:5753   */\n      dup1\n        /* \"#utility.yul\":5745:5754   */\n      not\n        /* \"#utility.yul\":5738:5743   */\n      dup5\n        /* \"#utility.yul\":5734:5755   */\n      and\n        /* \"#utility.yul\":5725:5755   */\n      swap4\n      pop\n        /* \"#utility.yul\":5798:5802   */\n      dup1\n        /* \"#utility.yul\":5788:5796   */\n      dup7\n        /* \"#utility.yul\":5784:5803   */\n      and\n        /* \"#utility.yul\":5777:5782   */\n      dup5\n        /* \"#utility.yul\":5774:5804   */\n      or\n        /* \"#utility.yul\":5764:5804   */\n      swap3\n      pop\n        /* \"#utility.yul\":5493:5810   */\n      pop\n      pop\n        /* \"#utility.yul\":5417:5810   */\n      swap4\n      swap3\n      pop\n      pop\n      pop\n      jump\t// out\n        /* \"#utility.yul\":5816:5876   */\n    tag_49:\n        /* \"#utility.yul\":5844:5847   */\n      0x00\n        /* \"#utility.yul\":5865:5870   */\n      dup2\n        /* \"#utility.yul\":5858:5870   */\n      swap1\n      pop\n        /* \"#utility.yul\":5816:5876   */\n      swap2\n      swap1\n      pop\n      jump\t// out\n        /* \"#utility.yul\":5882:6024   */\n    tag_50:\n        /* \"#utility.yul\":5932:5941   */\n      0x00\n        /* \"#utility.yul\":5965:6018   */\n      tag_124\n        /* \"#utility.yul\":5983:6017   */\n      tag_125\n        /* \"#utility.yul\":5992:6016   */\n      tag_126\n        /* \"#utility.yul\":6010:6015   */\n      dup5\n        /* \"#utility.yul\":5992:6016   */\n      tag_32\n      jump\t// in\n    tag_126:\n        /* \"#utility.yul\":5983:6017   */\n      tag_49\n      jump\t// in\n    tag_125:\n        /* \"#utility.yul\":5965:6018   */\n      tag_32\n      jump\t// in\n    tag_124:\n        /* \"#utility.yul\":5952:6018   */\n      swap1\n      pop\n        /* \"#utility.yul\":5882:6024   */\n      swap2\n      swap1\n      pop\n      jump\t// out\n        /* \"#utility.yul\":6030:6105   */\n    tag_51:\n        /* \"#utility.yul\":6073:6076   */\n      0x00\n        /* \"#utility.yul\":6094:6099   */\n      dup2\n        /* \"#utility.yul\":6087:6099   */\n      swap1\n      pop\n        /* \"#utility.yul\":6030:6105   */\n      swap2\n      swap1\n      pop\n      jump\t// out\n        /* \"#utility.yul\":6111:6380   */\n    tag_52:\n        /* \"#utility.yul\":6221:6260   */\n      tag_129\n        /* \"#utility.yul\":6252:6259   */\n      dup4\n        /* \"#utility.yul\":6221:6260   */\n      tag_50\n      jump\t// in\n    tag_129:\n        /* \"#utility.yul\":6282:6373   */\n      tag_130\n        /* \"#utility.yul\":6331:6372   */\n      tag_131\n        /* \"#utility.yul\":6355:6371   */\n      dup3\n        /* \"#utility.yul\":6331:6372   */\n      tag_51\n      jump\t// in\n    tag_131:\n        /* \"#utility.yul\":6323:6329   */\n      dup5\n        /* \"#utility.yul\":6316:6320   */\n      dup5\n        /* \"#utility.yul\":6310:6321   */\n      sload\n        /* \"#utility.yul\":6282:6373   */\n      tag_48\n      jump\t// in\n    tag_130:\n        /* \"#utility.yul\":6276:6280   */\n      dup3\n        /* \"#utility.yul\":6269:6374   */\n      sstore\n        /* \"#utility.yul\":6187:6380   */\n      pop\n        /* \"#utility.yul\":6111:6380   */\n      pop\n      pop\n      pop\n      jump\t// out\n        /* \"#utility.yul\":6386:6459   */\n    tag_53:\n        /* \"#utility.yul\":6431:6434   */\n      0x00\n        /* \"#utility.yul\":6386:6459   */\n      swap1\n      jump\t// out\n        /* \"#utility.yul\":6465:6654   */\n    tag_54:\n        /* \"#utility.yul\":6542:6574   */\n      tag_134\n      tag_53\n      jump\t// in\n    tag_134:\n        /* \"#utility.yul\":6583:6648   */\n      tag_135\n        /* \"#utility.yul\":6641:6647   */\n      dup2\n        /* \"#utility.yul\":6633:6639   */\n      dup5\n        /* \"#utility.yul\":6627:6631   */\n      dup5\n        /* \"#utility.yul\":6583:6648   */\n      tag_52\n      jump\t// in\n    tag_135:\n        /* \"#utility.yul\":6518:6654   */\n      pop\n        /* \"#utility.yul\":6465:6654   */\n      pop\n      pop\n      jump\t// out\n        /* \"#utility.yul\":6660:6846   */\n    tag_55:\n        /* \"#utility.yul\":6720:6840   */\n    tag_137:\n        /* \"#utility.yul\":6737:6740   */\n      dup2\n        /* \"#utility.yul\":6730:6735   */\n      dup2\n        /* \"#utility.yul\":6727:6741   */\n      lt\n        /* \"#utility.yul\":6720:6840   */\n      iszero\n      tag_139\n      jumpi\n        /* \"#utility.yul\":6791:6830   */\n      tag_140\n        /* \"#utility.yul\":6828:6829   */\n      0x00\n        /* \"#utility.yul\":6821:6826   */\n      dup3\n        /* \"#utility.yul\":6791:6830   */\n      tag_54\n      jump\t// in\n    tag_140:\n        /* \"#utility.yul\":6764:6765   */\n      0x01\n        /* \"#utility.yul\":6757:6762   */\n      dup2\n        /* \"#utility.yul\":6753:6766   */\n      add\n        /* \"#utility.yul\":6744:6766   */\n      swap1\n      pop\n        /* \"#utility.yul\":6720:6840   */\n      jump(tag_137)\n    tag_139:\n        /* \"#utility.yul\":6660:6846   */\n      pop\n      pop\n      jump\t// out\n        /* \"#utility.yul\":6852:7395   */\n    tag_56:\n        /* \"#utility.yul\":6953:6955   */\n      0x1f\n        /* \"#utility.yul\":6948:6951   */\n      dup3\n        /* \"#utility.yul\":6945:6956   */\n      gt\n        /* \"#utility.yul\":6942:7388   */\n      iszero\n      tag_142\n      jumpi\n        /* \"#utility.yul\":6987:7025   */\n      tag_143\n        /* \"#utility.yul\":7019:7024   */\n      dup2\n        /* \"#utility.yul\":6987:7025   */\n      tag_45\n      jump\t// in\n    tag_143:\n        /* \"#utility.yul\":7071:7100   */\n      tag_144\n        /* \"#utility.yul\":7089:7099   */\n      dup5\n        /* \"#utility.yul\":7071:7100   */\n      tag_46\n      jump\t// in\n    tag_144:\n        /* \"#utility.yul\":7061:7069   */\n      dup2\n        /* \"#utility.yul\":7057:7101   */\n      add\n        /* \"#utility.yul\":7254:7256   */\n      0x20\n        /* \"#utility.yul\":7242:7252   */\n      dup6\n        /* \"#utility.yul\":7239:7257   */\n      lt\n        /* \"#utility.yul\":7236:7285   */\n      iszero\n      tag_145\n      jumpi\n        /* \"#utility.yul\":7275:7283   */\n      dup2\n        /* \"#utility.yul\":7260:7283   */\n      swap1\n      pop\n        /* \"#utility.yul\":7236:7285   */\n    tag_145:\n        /* \"#utility.yul\":7298:7378   */\n      tag_146\n        /* \"#utility.yul\":7354:7376   */\n      tag_147\n        /* \"#utility.yul\":7372:7375   */\n      dup6\n        /* \"#utility.yul\":7354:7376   */\n      tag_46\n      jump\t// in\n    tag_147:\n        /* \"#utility.yul\":7344:7352   */\n      dup4\n        /* \"#utility.yul\":7340:7377   */\n      add\n        /* \"#utility.yul\":7327:7338   */\n      dup3\n        /* \"#utility.yul\":7298:7378   */\n      tag_55\n      jump\t// in\n    tag_146:\n        /* \"#utility.yul\":6957:7388   */\n      pop\n      pop\n        /* \"#utility.yul\":6942:7388   */\n    tag_142:\n        /* \"#utility.yul\":6852:7395   */\n      pop\n      pop\n      pop\n      jump\t// out\n        /* \"#utility.yul\":7401:7518   */\n    tag_57:\n        /* \"#utility.yul\":7455:7463   */\n      0x00\n        /* \"#utility.yul\":7505:7510   */\n      dup3\n        /* \"#utility.yul\":7499:7503   */\n      dup3\n        /* \"#utility.yul\":7495:7511   */\n      shr\n        /* \"#utility.yul\":7474:7511   */\n      swap1\n      pop\n        /* \"#utility.yul\":7401:7518   */\n      swap3\n      swap2\n      pop\n      pop\n      jump\t// out\n        /* \"#utility.yul\":7524:7693   */\n    tag_58:\n        /* \"#utility.yul\":7568:7574   */\n      0x00\n        /* \"#utility.yul\":7601:7652   */\n      tag_150\n        /* \"#utility.yul\":7649:7650   */\n      0x00\n        /* \"#utility.yul\":7645:7651   */\n      not\n        /* \"#utility.yul\":7637:7642   */\n      dup5\n        /* \"#utility.yul\":7634:7635   */\n      0x08\n        /* \"#utility.yul\":7630:7643   */\n      mul\n        /* \"#utility.yul\":7601:7652   */\n      tag_57\n      jump\t// in\n    tag_150:\n        /* \"#utility.yul\":7597:7653   */\n      not\n        /* \"#utility.yul\":7682:7686   */\n      dup1\n        /* \"#utility.yul\":7676:7680   */\n      dup4\n        /* \"#utility.yul\":7672:7687   */\n      and\n        /* \"#utility.yul\":7662:7687   */\n      swap2\n      pop\n        /* \"#utility.yul\":7575:7693   */\n      pop\n        /* \"#utility.yul\":7524:7693   */\n      swap3\n      swap2\n      pop\n      pop\n      jump\t// out\n        /* \"#utility.yul\":7698:7993   */\n    tag_59:\n        /* \"#utility.yul\":7774:7778   */\n      0x00\n        /* \"#utility.yul\":7920:7949   */\n      tag_152\n        /* \"#utility.yul\":7945:7948   */\n      dup4\n        /* \"#utility.yul\":7939:7943   */\n      dup4\n        /* \"#utility.yul\":7920:7949   */\n      tag_58\n      jump\t// in\n    tag_152:\n        /* \"#utility.yul\":7912:7949   */\n      swap2\n      pop\n        /* \"#utility.yul\":7982:7985   */\n      dup3\n        /* \"#utility.yul\":7979:7980   */\n      0x02\n        /* \"#utility.yul\":7975:7986   */\n      mul\n        /* \"#utility.yul\":7969:7973   */\n      dup3\n        /* \"#utility.yul\":7966:7987   */\n      or\n        /* \"#utility.yul\":7958:7987   */\n      swap1\n      pop\n        /* \"#utility.yul\":7698:7993   */\n      swap3\n      swap2\n      pop\n      pop\n      jump\t// out\n        /* \"#utility.yul\":7998:9393   */\n    tag_23:\n        /* \"#utility.yul\":8115:8152   */\n      tag_154\n        /* \"#utility.yul\":8148:8151   */\n      dup3\n        /* \"#utility.yul\":8115:8152   */\n      tag_34\n      jump\t// in\n    tag_154:\n        /* \"#utility.yul\":8217:8235   */\n      0xffffffffffffffff\n        /* \"#utility.yul\":8209:8215   */\n      dup2\n        /* \"#utility.yul\":8206:8236   */\n      gt\n        /* \"#utility.yul\":8203:8259   */\n      iszero\n      tag_155\n      jumpi\n        /* \"#utility.yul\":8239:8257   */\n      tag_156\n      tag_44\n      jump\t// in\n    tag_156:\n        /* \"#utility.yul\":8203:8259   */\n    tag_155:\n        /* \"#utility.yul\":8283:8321   */\n      tag_157\n        /* \"#utility.yul\":8315:8319   */\n      dup3\n        /* \"#utility.yul\":8309:8320   */\n      sload\n        /* \"#utility.yul\":8283:8321   */\n      tag_16\n      jump\t// in\n    tag_157:\n        /* \"#utility.yul\":8368:8435   */\n      tag_158\n        /* \"#utility.yul\":8428:8434   */\n      dup3\n        /* \"#utility.yul\":8420:8426   */\n      dup3\n        /* \"#utility.yul\":8414:8418   */\n      dup6\n        /* \"#utility.yul\":8368:8435   */\n      tag_56\n      jump\t// in\n    tag_158:\n        /* \"#utility.yul\":8462:8463   */\n      0x00\n        /* \"#utility.yul\":8486:8490   */\n      0x20\n        /* \"#utility.yul\":8473:8490   */\n      swap1\n      pop\n        /* \"#utility.yul\":8518:8520   */\n      0x1f\n        /* \"#utility.yul\":8510:8516   */\n      dup4\n        /* \"#utility.yul\":8507:8521   */\n      gt\n        /* \"#utility.yul\":8535:8536   */\n      0x01\n        /* \"#utility.yul\":8530:9148   */\n      dup2\n      eq\n      tag_160\n      jumpi\n        /* \"#utility.yul\":9192:9193   */\n      0x00\n        /* \"#utility.yul\":9209:9215   */\n      dup5\n        /* \"#utility.yul\":9206:9283   */\n      iszero\n      tag_161\n      jumpi\n        /* \"#utility.yul\":9258:9267   */\n      dup3\n        /* \"#utility.yul\":9253:9256   */\n      dup8\n        /* \"#utility.yul\":9249:9268   */\n      add\n        /* \"#utility.yul\":9243:9269   */\n      mload\n        /* \"#utility.yul\":9234:9269   */\n      swap1\n      pop\n        /* \"#utility.yul\":9206:9283   */\n    tag_161:\n        /* \"#utility.yul\":9309:9376   */\n      tag_162\n        /* \"#utility.yul\":9369:9375   */\n      dup6\n        /* \"#utility.yul\":9362:9367   */\n      dup3\n        /* \"#utility.yul\":9309:9376   */\n      tag_59\n      jump\t// in\n    tag_162:\n        /* \"#utility.yul\":9303:9307   */\n      dup7\n        /* \"#utility.yul\":9296:9377   */\n      sstore\n        /* \"#utility.yul\":9165:9387   */\n      pop\n        /* \"#utility.yul\":8500:9387   */\n      jump(tag_159)\n        /* \"#utility.yul\":8530:9148   */\n    tag_160:\n        /* \"#utility.yul\":8582:8586   */\n      0x1f\n        /* \"#utility.yul\":8578:8587   */\n      not\n        /* \"#utility.yul\":8570:8576   */\n      dup5\n        /* \"#utility.yul\":8566:8588   */\n      and\n        /* \"#utility.yul\":8616:8653   */\n      tag_163\n        /* \"#utility.yul\":8648:8652   */\n      dup7\n        /* \"#utility.yul\":8616:8653   */\n      tag_45\n      jump\t// in\n    tag_163:\n        /* \"#utility.yul\":8675:8676   */\n      0x00\n        /* \"#utility.yul\":8689:8897   */\n    tag_164:\n        /* \"#utility.yul\":8703:8710   */\n      dup3\n        /* \"#utility.yul\":8700:8701   */\n      dup2\n        /* \"#utility.yul\":8697:8711   */\n      lt\n        /* \"#utility.yul\":8689:8897   */\n      iszero\n      tag_166\n      jumpi\n        /* \"#utility.yul\":8782:8791   */\n      dup5\n        /* \"#utility.yul\":8777:8780   */\n      dup10\n        /* \"#utility.yul\":8773:8792   */\n      add\n        /* \"#utility.yul\":8767:8793   */\n      mload\n        /* \"#utility.yul\":8759:8765   */\n      dup3\n        /* \"#utility.yul\":8752:8794   */\n      sstore\n        /* \"#utility.yul\":8833:8834   */\n      0x01\n        /* \"#utility.yul\":8825:8831   */\n      dup3\n        /* \"#utility.yul\":8821:8835   */\n      add\n        /* \"#utility.yul\":8811:8835   */\n      swap2\n      pop\n        /* \"#utility.yul\":8880:8882   */\n      0x20\n        /* \"#utility.yul\":8869:8878   */\n      dup6\n        /* \"#utility.yul\":8865:8883   */\n      add\n        /* \"#utility.yul\":8852:8883   */\n      swap5\n      pop\n        /* \"#utility.yul\":8726:8730   */\n      0x20\n        /* \"#utility.yul\":8723:8724   */\n      dup2\n        /* \"#utility.yul\":8719:8731   */\n      add\n        /* \"#utility.yul\":8714:8731   */\n      swap1\n      pop\n        /* \"#utility.yul\":8689:8897   */\n      jump(tag_164)\n    tag_166:\n        /* \"#utility.yul\":8925:8931   */\n      dup7\n        /* \"#utility.yul\":8916:8923   */\n      dup4\n        /* \"#utility.yul\":8913:8932   */\n      lt\n        /* \"#utility.yul\":8910:9089   */\n      iszero\n      tag_167\n      jumpi\n        /* \"#utility.yul\":8983:8992   */\n      dup5\n        /* \"#utility.yul\":8978:8981   */\n      dup10\n        /* \"#utility.yul\":8974:8993   */\n      add\n        /* \"#utility.yul\":8968:8994   */\n      mload\n        /* \"#utility.yul\":9026:9074   */\n      tag_168\n        /* \"#utility.yul\":9068:9072   */\n      0x1f\n        /* \"#utility.yul\":9060:9066   */\n      dup10\n        /* \"#utility.yul\":9056:9073   */\n      and\n        /* \"#utility.yul\":9045:9054   */\n      dup3\n        /* \"#utility.yul\":9026:9074   */\n      tag_58\n      jump\t// in\n    tag_168:\n        /* \"#utility.yul\":9018:9024   */\n      dup4\n        /* \"#utility.yul\":9011:9075   */\n      sstore\n        /* \"#utility.yul\":8933:9089   */\n      pop\n        /* \"#utility.yul\":8910:9089   */\n    tag_167:\n        /* \"#utility.yul\":9135:9136   */\n      0x01\n        /* \"#utility.yul\":9131:9132   */\n      0x02\n        /* \"#utility.yul\":9123:9129   */\n      dup9\n        /* \"#utility.yul\":9119:9133   */\n      mul\n        /* \"#utility.yul\":9115:9137   */\n      add\n        /* \"#utility.yul\":9109:9113   */\n      dup9\n        /* \"#utility.yul\":9102:9138   */\n      sstore\n        /* \"#utility.yul\":8537:9148   */\n      pop\n      pop\n      pop\n        /* \"#utility.yul\":8500:9387   */\n    tag_159:\n      pop\n        /* \"#utility.yul\":8090:9393   */\n      pop\n      pop\n      pop\n        /* \"#utility.yul\":7998:9393   */\n      pop\n      pop\n      jump\t// out\n\n    auxdata: 0xa264697066735822122040ad295a8c088e136613ed8e62f2be59829e585cef97b2d183e24149012dec7964736f6c63430008110033\n}\n",
				"bytecode": {
					"linkReferences": {},
					"object": "608060405234801561001057600080fd5b506107d1806100206000396000f3fe608060405234801561001057600080fd5b50600436106100365760003560e01c8063b43c5d331461003b578063e3568c141461006c575b600080fd5b610055600480360381019061005091906102d6565b610088565b6040516100639291906103ac565b60405180910390f35b61008660048036038101906100819190610441565b610134565b005b60006020528060005260406000206000915090508060000154908060010180546100b1906104bd565b80601f01602080910402602001604051908101604052809291908181526020018280546100dd906104bd565b801561012a5780601f106100ff5761010080835404028352916020019161012a565b820191906000526020600020905b81548152906001019060200180831161010d57829003601f168201915b5050505050905082565b6040518060400160405280607b81526020016040518060400160405280600381526020017f62617200000000000000000000000000000000000000000000000000000000008152508152506000803373ffffffffffffffffffffffffffffffffffffffff1673ffffffffffffffffffffffffffffffffffffffff1681526020019081526020016000206000820151816000015560208201518160010190816101dc91906106c9565b5090505060008060003373ffffffffffffffffffffffffffffffffffffffff1673ffffffffffffffffffffffffffffffffffffffff16815260200190815260200160002090506040518060400160405280600381526020017f666f6f000000000000000000000000000000000000000000000000000000000081525081600101908161026891906106c9565b50505050565b600080fd5b600080fd5b600073ffffffffffffffffffffffffffffffffffffffff82169050919050565b60006102a382610278565b9050919050565b6102b381610298565b81146102be57600080fd5b50565b6000813590506102d0816102aa565b92915050565b6000602082840312156102ec576102eb61026e565b5b60006102fa848285016102c1565b91505092915050565b6000819050919050565b61031681610303565b82525050565b600081519050919050565b600082825260208201905092915050565b60005b8381101561035657808201518184015260208101905061033b565b60008484015250505050565b6000601f19601f8301169050919050565b600061037e8261031c565b6103888185610327565b9350610398818560208601610338565b6103a181610362565b840191505092915050565b60006040820190506103c1600083018561030d565b81810360208301526103d38184610373565b90509392505050565b600080fd5b600080fd5b600080fd5b60008083601f840112610401576104006103dc565b5b8235905067ffffffffffffffff81111561041e5761041d6103e1565b5b60208301915083602082028301111561043a576104396103e6565b5b9250929050565b600080602083850312156104585761045761026e565b5b600083013567ffffffffffffffff81111561047657610475610273565b5b610482858286016103eb565b92509250509250929050565b7f4e487b7100000000000000000000000000000000000000000000000000000000600052602260045260246000fd5b600060028204905060018216806104d557607f821691505b6020821081036104e8576104e761048e565b5b50919050565b7f4e487b7100000000000000000000000000000000000000000000000000000000600052604160045260246000fd5b60008190508160005260206000209050919050565b60006020601f8301049050919050565b600082821b905092915050565b60006008830261057f7fffffffffffffffffffffffffffffffffffffffffffffffffffffffffffffffff82610542565b6105898683610542565b95508019841693508086168417925050509392505050565b6000819050919050565b60006105c66105c16105bc84610303565b6105a1565b610303565b9050919050565b6000819050919050565b6105e0836105ab565b6105f46105ec826105cd565b84845461054f565b825550505050565b600090565b6106096105fc565b6106148184846105d7565b505050565b5b818110156106385761062d600082610601565b60018101905061061a565b5050565b601f82111561067d5761064e8161051d565b61065784610532565b81016020851015610666578190505b61067a61067285610532565b830182610619565b50505b505050565b600082821c905092915050565b60006106a060001984600802610682565b1980831691505092915050565b60006106b9838361068f565b9150826002028217905092915050565b6106d28261031c565b67ffffffffffffffff8111156106eb576106ea6104ee565b5b6106f582546104bd565b61070082828561063c565b600060209050601f8311600181146107335760008415610721578287015190505b61072b85826106ad565b865550610793565b601f1984166107418661051d565b60005b8281101561076957848901518255600182019150602085019450602081019050610744565b868310156107865784890151610782601f89168261068f565b8355505b6001600288020188555050505b50505050505056fea264697066735822122040ad295a8c088e136613ed8e62f2be59829e585cef97b2d183e24149012dec7964736f6c63430008110033",
					"opcodes": "PUSH1 0x80 PUSH1 0x40 MSTORE CALLVALUE DUP1 ISZERO PUSH2 0x10 JUMPI PUSH1 0x0 DUP1 REVERT JUMPDEST POP PUSH2 0x7D1 DUP1 PUSH2 0x20 PUSH1 0x0 CODECOPY PUSH1 0x0 RETURN INVALID PUSH1 0x80 PUSH1 0x40 MSTORE CALLVALUE DUP1 ISZERO PUSH2 0x10 JUMPI PUSH1 0x0 DUP1 REVERT JUMPDEST POP PUSH1 0x4 CALLDATASIZE LT PUSH2 0x36 JUMPI PUSH1 0x0 CALLDATALOAD PUSH1 0xE0 SHR DUP1 PUSH4 0xB43C5D33 EQ PUSH2 0x3B JUMPI DUP1 PUSH4 0xE3568C14 EQ PUSH2 0x6C JUMPI JUMPDEST PUSH1 0x0 DUP1 REVERT JUMPDEST PUSH2 0x55 PUSH1 0x4 DUP1 CALLDATASIZE SUB DUP2 ADD SWAP1 PUSH2 0x50 SWAP2 SWAP1 PUSH2 0x2D6 JUMP JUMPDEST PUSH2 0x88 JUMP JUMPDEST PUSH1 0x40 MLOAD PUSH2 0x63 SWAP3 SWAP2 SWAP1 PUSH2 0x3AC JUMP JUMPDEST PUSH1 0x40 MLOAD DUP1 SWAP2 SUB SWAP1 RETURN JUMPDEST PUSH2 0x86 PUSH1 0x4 DUP1 CALLDATASIZE SUB DUP2 ADD SWAP1 PUSH2 0x81 SWAP2 SWAP1 PUSH2 0x441 JUMP JUMPDEST PUSH2 0x134 JUMP JUMPDEST STOP JUMPDEST PUSH1 0x0 PUSH1 0x20 MSTORE DUP1 PUSH1 0x0 MSTORE PUSH1 0x40 PUSH1 0x0 KECCAK256 PUSH1 0x0 SWAP2 POP SWAP1 POP DUP1 PUSH1 0x0 ADD SLOAD SWAP1 DUP1 PUSH1 0x1 ADD DUP1 SLOAD PUSH2 0xB1 SWAP1 PUSH2 0x4BD JUMP JUMPDEST DUP1 PUSH1 0x1F ADD PUSH1 0x20 DUP1 SWAP2 DIV MUL PUSH1 0x20 ADD PUSH1 0x40 MLOAD SWAP1 DUP2 ADD PUSH1 0x40 MSTORE DUP1 SWAP3 SWAP2 SWAP1 DUP2 DUP2 MSTORE PUSH1 0x20 ADD DUP3 DUP1 SLOAD PUSH2 0xDD SWAP1 PUSH2 0x4BD JUMP JUMPDEST DUP1 ISZERO PUSH2 0x12A JUMPI DUP1 PUSH1 0x1F LT PUSH2 0xFF JUMPI PUSH2 0x100 DUP1 DUP4 SLOAD DIV MUL DUP4 MSTORE SWAP2 PUSH1 0x20 ADD SWAP2 PUSH2 0x12A JUMP JUMPDEST DUP3 ADD SWAP2 SWAP1 PUSH1 0x0 MSTORE PUSH1 0x20 PUSH1 0x0 KECCAK256 SWAP1 JUMPDEST DUP2 SLOAD DUP2 MSTORE SWAP1 PUSH1 0x1 ADD SWAP1 PUSH1 0x20 ADD DUP1 DUP4 GT PUSH2 0x10D JUMPI DUP3 SWAP1 SUB PUSH1 0x1F AND DUP3 ADD SWAP2 JUMPDEST POP POP POP POP POP SWAP1 POP DUP3 JUMP JUMPDEST PUSH1 0x40 MLOAD DUP1 PUSH1 0x40 ADD PUSH1 0x40 MSTORE DUP1 PUSH1 0x7B DUP2 MSTORE PUSH1 0x20 ADD PUSH1 0x40 MLOAD DUP1 PUSH1 0x40 ADD PUSH1 0x40 MSTORE DUP1 PUSH1 0x3 DUP2 MSTORE PUSH1 0x20 ADD PUSH32 0x6261720000000000000000000000000000000000000000000000000000000000 DUP2 MSTORE POP DUP2 MSTORE POP PUSH1 0x0 DUP1 CALLER PUSH20 0xFFFFFFFFFFFFFFFFFFFFFFFFFFFFFFFFFFFFFFFF AND PUSH20 0xFFFFFFFFFFFFFFFFFFFFFFFFFFFFFFFFFFFFFFFF AND DUP2 MSTORE PUSH1 0x20 ADD SWAP1 DUP2 MSTORE PUSH1 0x20 ADD PUSH1 0x0 KECCAK256 PUSH1 0x0 DUP3 ADD MLOAD DUP2 PUSH1 0x0 ADD SSTORE PUSH1 0x20 DUP3 ADD MLOAD DUP2 PUSH1 0x1 ADD SWAP1 DUP2 PUSH2 0x1DC SWAP2 SWAP1 PUSH2 0x6C9 JUMP JUMPDEST POP SWAP1 POP POP PUSH1 0x0 DUP1 PUSH1 0x0 CALLER PUSH20 0xFFFFFFFFFFFFFFFFFFFFFFFFFFFFFFFFFFFFFFFF AND PUSH20 0xFFFFFFFFFFFFFFFFFFFFFFFFFFFFFFFFFFFFFFFF AND DUP2 MSTORE PUSH1 0x20 ADD SWAP1 DUP2 MSTORE PUSH1 0x20 ADD PUSH1 0x0 KECCAK256 SWAP1 POP PUSH1 0x40 MLOAD DUP1 PUSH1 0x40 ADD PUSH1 0x40 MSTORE DUP1 PUSH1 0x3 DUP2 MSTORE PUSH1 0x20 ADD PUSH32 0x666F6F0000000000000000000000000000000000000000000000000000000000 DUP2 MSTORE POP DUP2 PUSH1 0x1 ADD SWAP1 DUP2 PUSH2 0x268 SWAP2 SWAP1 PUSH2 0x6C9 JUMP JUMPDEST POP POP POP POP JUMP JUMPDEST PUSH1 0x0 DUP1 REVERT JUMPDEST PUSH1 0x0 DUP1 REVERT JUMPDEST PUSH1 0x0 PUSH20 0xFFFFFFFFFFFFFFFFFFFFFFFFFFFFFFFFFFFFFFFF DUP3 AND SWAP1 POP SWAP2 SWAP1 POP JUMP JUMPDEST PUSH1 0x0 PUSH2 0x2A3 DUP3 PUSH2 0x278 JUMP JUMPDEST SWAP1 POP SWAP2 SWAP1 POP JUMP JUMPDEST PUSH2 0x2B3 DUP2 PUSH2 0x298 JUMP JUMPDEST DUP2 EQ PUSH2 0x2BE JUMPI PUSH1 0x0 DUP1 REVERT JUMPDEST POP JUMP JUMPDEST PUSH1 0x0 DUP2 CALLDATALOAD SWAP1 POP PUSH2 0x2D0 DUP2 PUSH2 0x2AA JUMP JUMPDEST SWAP3 SWAP2 POP POP JUMP JUMPDEST PUSH1 0x0 PUSH1 0x20 DUP3 DUP5 SUB SLT ISZERO PUSH2 0x2EC JUMPI PUSH2 0x2EB PUSH2 0x26E JUMP JUMPDEST JUMPDEST PUSH1 0x0 PUSH2 0x2FA DUP5 DUP3 DUP6 ADD PUSH2 0x2C1 JUMP JUMPDEST SWAP2 POP POP SWAP3 SWAP2 POP POP JUMP JUMPDEST PUSH1 0x0 DUP2 SWAP1 POP SWAP2 SWAP1 POP JUMP JUMPDEST PUSH2 0x316 DUP2 PUSH2 0x303 JUMP JUMPDEST DUP3 MSTORE POP POP JUMP JUMPDEST PUSH1 0x0 DUP2 MLOAD SWAP1 POP SWAP2 SWAP1 POP JUMP JUMPDEST PUSH1 0x0 DUP3 DUP3 MSTORE PUSH1 0x20 DUP3 ADD SWAP1 POP SWAP3 SWAP2 POP POP JUMP JUMPDEST PUSH1 0x0 JUMPDEST DUP4 DUP2 LT ISZERO PUSH2 0x356 JUMPI DUP1 DUP3 ADD MLOAD DUP2 DUP5 ADD MSTORE PUSH1 0x20 DUP2 ADD SWAP1 POP PUSH2 0x33B JUMP JUMPDEST PUSH1 0x0 DUP5 DUP5 ADD MSTORE POP POP POP POP JUMP JUMPDEST PUSH1 0x0 PUSH1 0x1F NOT PUSH1 0x1F DUP4 ADD AND SWAP1 POP SWAP2 SWAP1 POP JUMP JUMPDEST PUSH1 0x0 PUSH2 0x37E DUP3 PUSH2 0x31C JUMP JUMPDEST PUSH2 0x388 DUP2 DUP6 PUSH2 0x327 JUMP JUMPDEST SWAP4 POP PUSH2 0x398 DUP2 DUP6 PUSH1 0x20 DUP7 ADD PUSH2 0x338 JUMP JUMPDEST PUSH2 0x3A1 DUP2 PUSH2 0x362 JUMP JUMPDEST DUP5 ADD SWAP2 POP POP SWAP3 SWAP2 POP POP JUMP JUMPDEST PUSH1 0x0 PUSH1 0x40 DUP3 ADD SWAP1 POP PUSH2 0x3C1 PUSH1 0x0 DUP4 ADD DUP6 PUSH2 0x30D JUMP JUMPDEST DUP2 DUP2 SUB PUSH1 0x20 DUP4 ADD MSTORE PUSH2 0x3D3 DUP2 DUP5 PUSH2 0x373 JUMP JUMPDEST SWAP1 POP SWAP4 SWAP3 POP POP POP JUMP JUMPDEST PUSH1 0x0 DUP1 REVERT JUMPDEST PUSH1 0x0 DUP1 REVERT JUMPDEST PUSH1 0x0 DUP1 REVERT JUMPDEST PUSH1 0x0 DUP1 DUP4 PUSH1 0x1F DUP5 ADD SLT PUSH2 0x401 JUMPI PUSH2 0x400 PUSH2 0x3DC JUMP JUMPDEST JUMPDEST DUP3 CALLDATALOAD SWAP1 POP PUSH8 0xFFFFFFFFFFFFFFFF DUP2 GT ISZERO PUSH2 0x41E JUMPI PUSH2 0x41D PUSH2 0x3E1 JUMP JUMPDEST JUMPDEST PUSH1 0x20 DUP4 ADD SWAP2 POP DUP4 PUSH1 0x20 DUP3 MUL DUP4 ADD GT ISZERO PUSH2 0x43A JUMPI PUSH2 0x439 PUSH2 0x3E6 JUMP JUMPDEST JUMPDEST SWAP3 POP SWAP3 SWAP1 POP JUMP JUMPDEST PUSH1 0x0 DUP1 PUSH1 0x20 DUP4 DUP6 SUB SLT ISZERO PUSH2 0x458 JUMPI PUSH2 0x457 PUSH2 0x26E JUMP JUMPDEST JUMPDEST PUSH1 0x0 DUP4 ADD CALLDATALOAD PUSH8 0xFFFFFFFFFFFFFFFF DUP2 GT ISZERO PUSH2 0x476 JUMPI PUSH2 0x475 PUSH2 0x273 JUMP JUMPDEST JUMPDEST PUSH2 0x482 DUP6 DUP3 DUP7 ADD PUSH2 0x3EB JUMP JUMPDEST SWAP3 POP SWAP3 POP POP SWAP3 POP SWAP3 SWAP1 POP JUMP JUMPDEST PUSH32 0x4E487B7100000000000000000000000000000000000000000000000000000000 PUSH1 0x0 MSTORE PUSH1 0x22 PUSH1 0x4 MSTORE PUSH1 0x24 PUSH1 0x0 REVERT JUMPDEST PUSH1 0x0 PUSH1 0x2 DUP3 DIV SWAP1 POP PUSH1 0x1 DUP3 AND DUP1 PUSH2 0x4D5 JUMPI PUSH1 0x7F DUP3 AND SWAP2 POP JUMPDEST PUSH1 0x20 DUP3 LT DUP2 SUB PUSH2 0x4E8 JUMPI PUSH2 0x4E7 PUSH2 0x48E JUMP JUMPDEST JUMPDEST POP SWAP2 SWAP1 POP JUMP JUMPDEST PUSH32 0x4E487B7100000000000000000000000000000000000000000000000000000000 PUSH1 0x0 MSTORE PUSH1 0x41 PUSH1 0x4 MSTORE PUSH1 0x24 PUSH1 0x0 REVERT JUMPDEST PUSH1 0x0 DUP2 SWAP1 POP DUP2 PUSH1 0x0 MSTORE PUSH1 0x20 PUSH1 0x0 KECCAK256 SWAP1 POP SWAP2 SWAP1 POP JUMP JUMPDEST PUSH1 0x0 PUSH1 0x20 PUSH1 0x1F DUP4 ADD DIV SWAP1 POP SWAP2 SWAP1 POP JUMP JUMPDEST PUSH1 0x0 DUP3 DUP3 SHL SWAP1 POP SWAP3 SWAP2 POP POP JUMP JUMPDEST PUSH1 0x0 PUSH1 0x8 DUP4 MUL PUSH2 0x57F PUSH32 0xFFFFFFFFFFFFFFFFFFFFFFFFFFFFFFFFFFFFFFFFFFFFFFFFFFFFFFFFFFFFFFFF DUP3 PUSH2 0x542 JUMP JUMPDEST PUSH2 0x589 DUP7 DUP4 PUSH2 0x542 JUMP JUMPDEST SWAP6 POP DUP1 NOT DUP5 AND SWAP4 POP DUP1 DUP7 AND DUP5 OR SWAP3 POP POP POP SWAP4 SWAP3 POP POP POP JUMP JUMPDEST PUSH1 0x0 DUP2 SWAP1 POP SWAP2 SWAP1 POP JUMP JUMPDEST PUSH1 0x0 PUSH2 0x5C6 PUSH2 0x5C1 PUSH2 0x5BC DUP5 PUSH2 0x303 JUMP JUMPDEST PUSH2 0x5A1 JUMP JUMPDEST PUSH2 0x303 JUMP JUMPDEST SWAP1 POP SWAP2 SWAP1 POP JUMP JUMPDEST PUSH1 0x0 DUP2 SWAP1 POP SWAP2 SWAP1 POP JUMP JUMPDEST PUSH2 0x5E0 DUP4 PUSH2 0x5AB JUMP JUMPDEST PUSH2 0x5F4 PUSH2 0x5EC DUP3 PUSH2 0x5CD JUMP JUMPDEST DUP5 DUP5 SLOAD PUSH2 0x54F JUMP JUMPDEST DUP3 SSTORE POP POP POP POP JUMP JUMPDEST PUSH1 0x0 SWAP1 JUMP JUMPDEST PUSH2 0x609 PUSH2 0x5FC JUMP JUMPDEST PUSH2 0x614 DUP2 DUP5 DUP5 PUSH2 0x5D7 JUMP JUMPDEST POP POP POP JUMP JUMPDEST JUMPDEST DUP2 DUP2 LT ISZERO PUSH2 0x638 JUMPI PUSH2 0x62D PUSH1 0x0 DUP3 PUSH2 0x601 JUMP JUMPDEST PUSH1 0x1 DUP2 ADD SWAP1 POP PUSH2 0x61A JUMP JUMPDEST POP POP JUMP JUMPDEST PUSH1 0x1F DUP3 GT ISZERO PUSH2 0x67D JUMPI PUSH2 0x64E DUP2 PUSH2 0x51D JUMP JUMPDEST PUSH2 0x657 DUP5 PUSH2 0x532 JUMP JUMPDEST DUP2 ADD PUSH1 0x20 DUP6 LT ISZERO PUSH2 0x666 JUMPI DUP2 SWAP1 POP JUMPDEST PUSH2 0x67A PUSH2 0x672 DUP6 PUSH2 0x532 JUMP JUMPDEST DUP4 ADD DUP3 PUSH2 0x619 JUMP JUMPDEST POP POP JUMPDEST POP POP POP JUMP JUMPDEST PUSH1 0x0 DUP3 DUP3 SHR SWAP1 POP SWAP3 SWAP2 POP POP JUMP JUMPDEST PUSH1 0x0 PUSH2 0x6A0 PUSH1 0x0 NOT DUP5 PUSH1 0x8 MUL PUSH2 0x682 JUMP JUMPDEST NOT DUP1 DUP4 AND SWAP2 POP POP SWAP3 SWAP2 POP POP JUMP JUMPDEST PUSH1 0x0 PUSH2 0x6B9 DUP4 DUP4 PUSH2 0x68F JUMP JUMPDEST SWAP2 POP DUP3 PUSH1 0x2 MUL DUP3 OR SWAP1 POP SWAP3 SWAP2 POP POP JUMP JUMPDEST PUSH2 0x6D2 DUP3 PUSH2 0x31C JUMP JUMPDEST PUSH8 0xFFFFFFFFFFFFFFFF DUP2 GT ISZERO PUSH2 0x6EB JUMPI PUSH2 0x6EA PUSH2 0x4EE JUMP JUMPDEST JUMPDEST PUSH2 0x6F5 DUP3 SLOAD PUSH2 0x4BD JUMP JUMPDEST PUSH2 0x700 DUP3 DUP3 DUP6 PUSH2 0x63C JUMP JUMPDEST PUSH1 0x0 PUSH1 0x20 SWAP1 POP PUSH1 0x1F DUP4 GT PUSH1 0x1 DUP2 EQ PUSH2 0x733 JUMPI PUSH1 0x0 DUP5 ISZERO PUSH2 0x721 JUMPI DUP3 DUP8 ADD MLOAD SWAP1 POP JUMPDEST PUSH2 0x72B DUP6 DUP3 PUSH2 0x6AD JUMP JUMPDEST DUP7 SSTORE POP PUSH2 0x793 JUMP JUMPDEST PUSH1 0x1F NOT DUP5 AND PUSH2 0x741 DUP7 PUSH2 0x51D JUMP JUMPDEST PUSH1 0x0 JUMPDEST DUP3 DUP2 LT ISZERO PUSH2 0x769 JUMPI DUP5 DUP10 ADD MLOAD DUP3 SSTORE PUSH1 0x1 DUP3 ADD SWAP2 POP PUSH1 0x20 DUP6 ADD SWAP5 POP PUSH1 0x20 DUP2 ADD SWAP1 POP PUSH2 0x744 JUMP JUMPDEST DUP7 DUP4 LT ISZERO PUSH2 0x786 JUMPI DUP5 DUP10 ADD MLOAD PUSH2 0x782 PUSH1 0x1F DUP10 AND DUP3 PUSH2 0x68F JUMP JUMPDEST DUP4 SSTORE POP JUMPDEST PUSH1 0x1 PUSH1 0x2 DUP9 MUL ADD DUP9 SSTORE POP POP POP JUMPDEST POP POP POP POP POP POP JUMP INVALID LOG2 PUSH5 0x6970667358 0x22 SLT KECCAK256 BLOCKHASH 0xAD 0x29 GAS DUP13 ADDMOD DUP15 SGT PUSH7 0x13ED8E62F2BE59 DUP3 SWAP15 PC 0x5C 0xEF SWAP8 0xB2 0xD1 DUP4 0xE2 COINBASE 0x49 ADD 0x2D 0xEC PUSH26 0x64736F6C63430008110033000000000000000000000000000000 "
				},
				"gasEstimates": {
					"creation": {
						"codeDepositCost": "400200",
						"executionCost": "436",
						"totalCost": "400636"
					},
					"external": {
						"example(uint256[])": "infinite",
						"myStructs(address)": "infinite"
					}
				},
				"methodIdentifiers": {
					"example(uint256[])": "e3568c14",
					"myStructs(address)": "b43c5d33"
				}
			},
			"storageLayout": {
				"storage": [
					{
						"astId": 11,
						"contract": "DataLocations.sol:DataLocations",
						"label": "myStructs",
						"offset": 0,
						"slot": "0",
						"type": "t_mapping(t_address,t_struct(MyStruct)6_storage)"
					}
				],
				"types": {
					"t_address": {
						"encoding": "inplace",
						"label": "address",
						"numberOfBytes": "20"
					},
					"t_mapping(t_address,t_struct(MyStruct)6_storage)": {
						"encoding": "mapping",
						"key": "t_address",
						"label": "mapping(address => struct DataLocations.MyStruct)",
						"numberOfBytes": "32",
						"value": "t_struct(MyStruct)6_storage"
					},
					"t_string_storage": {
						"encoding": "bytes",
						"label": "string",
						"numberOfBytes": "32"
					},
					"t_struct(MyStruct)6_storage": {
						"encoding": "inplace",
						"label": "struct DataLocations.MyStruct",
						"members": [
							{
								"astId": 3,
								"contract": "DataLocations.sol:DataLocations",
								"label": "foo",
								"offset": 0,
								"slot": "0",
								"type": "t_uint256"
							},
							{
								"astId": 5,
								"contract": "DataLocations.sol:DataLocations",
								"label": "text",
								"offset": 0,
								"slot": "1",
								"type": "t_string_storage"
							}
						],
						"numberOfBytes": "64"
					},
					"t_uint256": {
						"encoding": "inplace",
						"label": "uint256",
						"numberOfBytes": "32"
					}
				}
			},
			"userdoc": {
				"kind": "user",
				"methods": {},
				"version": 1
			}
		}
	}
}